{
	"data": {
		"bytecode": {
			"linkReferences": {},
			"object": "6080604052348015600e575f80fd5b506104e28061001c5f395ff3fe608060405234801561000f575f80fd5b5060043610610034575f3560e01c806313f4a0ea1461003857806380bfbe6814610068575b5f80fd5b610052600480360381019061004d919061029d565b610084565b60405161005f91906102f3565b60405180910390f35b610082600480360381019061007d9190610336565b610105565b005b5f805f8473ffffffffffffffffffffffffffffffffffffffff1673ffffffffffffffffffffffffffffffffffffffff1681526020019081526020015f205f8373ffffffffffffffffffffffffffffffffffffffff1673ffffffffffffffffffffffffffffffffffffffff1681526020019081526020015f2054905092915050565b828073ffffffffffffffffffffffffffffffffffffffff1663d6eb1bbf336040518263ffffffff1660e01b815260040161013f9190610395565b602060405180830381865afa15801561015a573d5f803e3d5ffd5b505050506040513d601f19601f8201168201806040525081019061017e91906103e3565b6101bd576040517f08c379a00000000000000000000000000000000000000000000000000000000081526004016101b49061048e565b60405180910390fd5b815f808673ffffffffffffffffffffffffffffffffffffffff1673ffffffffffffffffffffffffffffffffffffffff1681526020019081526020015f205f8573ffffffffffffffffffffffffffffffffffffffff1673ffffffffffffffffffffffffffffffffffffffff1681526020019081526020015f208190555050505050565b5f80fd5b5f73ffffffffffffffffffffffffffffffffffffffff82169050919050565b5f61026c82610243565b9050919050565b61027c81610262565b8114610286575f80fd5b50565b5f8135905061029781610273565b92915050565b5f80604083850312156102b3576102b261023f565b5b5f6102c085828601610289565b92505060206102d185828601610289565b9150509250929050565b5f819050919050565b6102ed816102db565b82525050565b5f6020820190506103065f8301846102e4565b92915050565b610315816102db565b811461031f575f80fd5b50565b5f813590506103308161030c565b92915050565b5f805f6060848603121561034d5761034c61023f565b5b5f61035a86828701610289565b935050602061036b86828701610289565b925050604061037c86828701610322565b9150509250925092565b61038f81610262565b82525050565b5f6020820190506103a85f830184610386565b92915050565b5f8115159050919050565b6103c2816103ae565b81146103cc575f80fd5b50565b5f815190506103dd816103b9565b92915050565b5f602082840312156103f8576103f761023f565b5b5f610405848285016103cf565b91505092915050565b5f82825260208201905092915050565b7f54533a206d75737420626520616e20617574686f72697a6564206d6f64756c655f8201527f20746f2063616c6c2074686973206d6574686f64000000000000000000000000602082015250565b5f61047860348361040e565b91506104838261041e565b604082019050919050565b5f6020820190508181035f8301526104a58161046c565b905091905056fea26469706673582212205abf13c938f3a203f89b22df631b455ffd1e0fe40b0c81eb1d961f7e6b23724a64736f6c634300081a0033",
			"opcodes": "PUSH1 0x80 PUSH1 0x40 MSTORE CALLVALUE DUP1 ISZERO PUSH1 0xE JUMPI PUSH0 DUP1 REVERT JUMPDEST POP PUSH2 0x4E2 DUP1 PUSH2 0x1C PUSH0 CODECOPY PUSH0 RETURN INVALID PUSH1 0x80 PUSH1 0x40 MSTORE CALLVALUE DUP1 ISZERO PUSH2 0xF JUMPI PUSH0 DUP1 REVERT JUMPDEST POP PUSH1 0x4 CALLDATASIZE LT PUSH2 0x34 JUMPI PUSH0 CALLDATALOAD PUSH1 0xE0 SHR DUP1 PUSH4 0x13F4A0EA EQ PUSH2 0x38 JUMPI DUP1 PUSH4 0x80BFBE68 EQ PUSH2 0x68 JUMPI JUMPDEST PUSH0 DUP1 REVERT JUMPDEST PUSH2 0x52 PUSH1 0x4 DUP1 CALLDATASIZE SUB DUP2 ADD SWAP1 PUSH2 0x4D SWAP2 SWAP1 PUSH2 0x29D JUMP JUMPDEST PUSH2 0x84 JUMP JUMPDEST PUSH1 0x40 MLOAD PUSH2 0x5F SWAP2 SWAP1 PUSH2 0x2F3 JUMP JUMPDEST PUSH1 0x40 MLOAD DUP1 SWAP2 SUB SWAP1 RETURN JUMPDEST PUSH2 0x82 PUSH1 0x4 DUP1 CALLDATASIZE SUB DUP2 ADD SWAP1 PUSH2 0x7D SWAP2 SWAP1 PUSH2 0x336 JUMP JUMPDEST PUSH2 0x105 JUMP JUMPDEST STOP JUMPDEST PUSH0 DUP1 PUSH0 DUP5 PUSH20 0xFFFFFFFFFFFFFFFFFFFFFFFFFFFFFFFFFFFFFFFF AND PUSH20 0xFFFFFFFFFFFFFFFFFFFFFFFFFFFFFFFFFFFFFFFF AND DUP2 MSTORE PUSH1 0x20 ADD SWAP1 DUP2 MSTORE PUSH1 0x20 ADD PUSH0 KECCAK256 PUSH0 DUP4 PUSH20 0xFFFFFFFFFFFFFFFFFFFFFFFFFFFFFFFFFFFFFFFF AND PUSH20 0xFFFFFFFFFFFFFFFFFFFFFFFFFFFFFFFFFFFFFFFF AND DUP2 MSTORE PUSH1 0x20 ADD SWAP1 DUP2 MSTORE PUSH1 0x20 ADD PUSH0 KECCAK256 SLOAD SWAP1 POP SWAP3 SWAP2 POP POP JUMP JUMPDEST DUP3 DUP1 PUSH20 0xFFFFFFFFFFFFFFFFFFFFFFFFFFFFFFFFFFFFFFFF AND PUSH4 0xD6EB1BBF CALLER PUSH1 0x40 MLOAD DUP3 PUSH4 0xFFFFFFFF AND PUSH1 0xE0 SHL DUP2 MSTORE PUSH1 0x4 ADD PUSH2 0x13F SWAP2 SWAP1 PUSH2 0x395 JUMP JUMPDEST PUSH1 0x20 PUSH1 0x40 MLOAD DUP1 DUP4 SUB DUP2 DUP7 GAS STATICCALL ISZERO DUP1 ISZERO PUSH2 0x15A JUMPI RETURNDATASIZE PUSH0 DUP1 RETURNDATACOPY RETURNDATASIZE PUSH0 REVERT JUMPDEST POP POP POP POP PUSH1 0x40 MLOAD RETURNDATASIZE PUSH1 0x1F NOT PUSH1 0x1F DUP3 ADD AND DUP3 ADD DUP1 PUSH1 0x40 MSTORE POP DUP2 ADD SWAP1 PUSH2 0x17E SWAP2 SWAP1 PUSH2 0x3E3 JUMP JUMPDEST PUSH2 0x1BD JUMPI PUSH1 0x40 MLOAD PUSH32 0x8C379A000000000000000000000000000000000000000000000000000000000 DUP2 MSTORE PUSH1 0x4 ADD PUSH2 0x1B4 SWAP1 PUSH2 0x48E JUMP JUMPDEST PUSH1 0x40 MLOAD DUP1 SWAP2 SUB SWAP1 REVERT JUMPDEST DUP2 PUSH0 DUP1 DUP7 PUSH20 0xFFFFFFFFFFFFFFFFFFFFFFFFFFFFFFFFFFFFFFFF AND PUSH20 0xFFFFFFFFFFFFFFFFFFFFFFFFFFFFFFFFFFFFFFFF AND DUP2 MSTORE PUSH1 0x20 ADD SWAP1 DUP2 MSTORE PUSH1 0x20 ADD PUSH0 KECCAK256 PUSH0 DUP6 PUSH20 0xFFFFFFFFFFFFFFFFFFFFFFFFFFFFFFFFFFFFFFFF AND PUSH20 0xFFFFFFFFFFFFFFFFFFFFFFFFFFFFFFFFFFFFFFFF AND DUP2 MSTORE PUSH1 0x20 ADD SWAP1 DUP2 MSTORE PUSH1 0x20 ADD PUSH0 KECCAK256 DUP2 SWAP1 SSTORE POP POP POP POP POP JUMP JUMPDEST PUSH0 DUP1 REVERT JUMPDEST PUSH0 PUSH20 0xFFFFFFFFFFFFFFFFFFFFFFFFFFFFFFFFFFFFFFFF DUP3 AND SWAP1 POP SWAP2 SWAP1 POP JUMP JUMPDEST PUSH0 PUSH2 0x26C DUP3 PUSH2 0x243 JUMP JUMPDEST SWAP1 POP SWAP2 SWAP1 POP JUMP JUMPDEST PUSH2 0x27C DUP2 PUSH2 0x262 JUMP JUMPDEST DUP2 EQ PUSH2 0x286 JUMPI PUSH0 DUP1 REVERT JUMPDEST POP JUMP JUMPDEST PUSH0 DUP2 CALLDATALOAD SWAP1 POP PUSH2 0x297 DUP2 PUSH2 0x273 JUMP JUMPDEST SWAP3 SWAP2 POP POP JUMP JUMPDEST PUSH0 DUP1 PUSH1 0x40 DUP4 DUP6 SUB SLT ISZERO PUSH2 0x2B3 JUMPI PUSH2 0x2B2 PUSH2 0x23F JUMP JUMPDEST JUMPDEST PUSH0 PUSH2 0x2C0 DUP6 DUP3 DUP7 ADD PUSH2 0x289 JUMP JUMPDEST SWAP3 POP POP PUSH1 0x20 PUSH2 0x2D1 DUP6 DUP3 DUP7 ADD PUSH2 0x289 JUMP JUMPDEST SWAP2 POP POP SWAP3 POP SWAP3 SWAP1 POP JUMP JUMPDEST PUSH0 DUP2 SWAP1 POP SWAP2 SWAP1 POP JUMP JUMPDEST PUSH2 0x2ED DUP2 PUSH2 0x2DB JUMP JUMPDEST DUP3 MSTORE POP POP JUMP JUMPDEST PUSH0 PUSH1 0x20 DUP3 ADD SWAP1 POP PUSH2 0x306 PUSH0 DUP4 ADD DUP5 PUSH2 0x2E4 JUMP JUMPDEST SWAP3 SWAP2 POP POP JUMP JUMPDEST PUSH2 0x315 DUP2 PUSH2 0x2DB JUMP JUMPDEST DUP2 EQ PUSH2 0x31F JUMPI PUSH0 DUP1 REVERT JUMPDEST POP JUMP JUMPDEST PUSH0 DUP2 CALLDATALOAD SWAP1 POP PUSH2 0x330 DUP2 PUSH2 0x30C JUMP JUMPDEST SWAP3 SWAP2 POP POP JUMP JUMPDEST PUSH0 DUP1 PUSH0 PUSH1 0x60 DUP5 DUP7 SUB SLT ISZERO PUSH2 0x34D JUMPI PUSH2 0x34C PUSH2 0x23F JUMP JUMPDEST JUMPDEST PUSH0 PUSH2 0x35A DUP7 DUP3 DUP8 ADD PUSH2 0x289 JUMP JUMPDEST SWAP4 POP POP PUSH1 0x20 PUSH2 0x36B DUP7 DUP3 DUP8 ADD PUSH2 0x289 JUMP JUMPDEST SWAP3 POP POP PUSH1 0x40 PUSH2 0x37C DUP7 DUP3 DUP8 ADD PUSH2 0x322 JUMP JUMPDEST SWAP2 POP POP SWAP3 POP SWAP3 POP SWAP3 JUMP JUMPDEST PUSH2 0x38F DUP2 PUSH2 0x262 JUMP JUMPDEST DUP3 MSTORE POP POP JUMP JUMPDEST PUSH0 PUSH1 0x20 DUP3 ADD SWAP1 POP PUSH2 0x3A8 PUSH0 DUP4 ADD DUP5 PUSH2 0x386 JUMP JUMPDEST SWAP3 SWAP2 POP POP JUMP JUMPDEST PUSH0 DUP2 ISZERO ISZERO SWAP1 POP SWAP2 SWAP1 POP JUMP JUMPDEST PUSH2 0x3C2 DUP2 PUSH2 0x3AE JUMP JUMPDEST DUP2 EQ PUSH2 0x3CC JUMPI PUSH0 DUP1 REVERT JUMPDEST POP JUMP JUMPDEST PUSH0 DUP2 MLOAD SWAP1 POP PUSH2 0x3DD DUP2 PUSH2 0x3B9 JUMP JUMPDEST SWAP3 SWAP2 POP POP JUMP JUMPDEST PUSH0 PUSH1 0x20 DUP3 DUP5 SUB SLT ISZERO PUSH2 0x3F8 JUMPI PUSH2 0x3F7 PUSH2 0x23F JUMP JUMPDEST JUMPDEST PUSH0 PUSH2 0x405 DUP5 DUP3 DUP6 ADD PUSH2 0x3CF JUMP JUMPDEST SWAP2 POP POP SWAP3 SWAP2 POP POP JUMP JUMPDEST PUSH0 DUP3 DUP3 MSTORE PUSH1 0x20 DUP3 ADD SWAP1 POP SWAP3 SWAP2 POP POP JUMP JUMPDEST PUSH32 0x54533A206D75737420626520616E20617574686F72697A6564206D6F64756C65 PUSH0 DUP3 ADD MSTORE PUSH32 0x20746F2063616C6C2074686973206D6574686F64000000000000000000000000 PUSH1 0x20 DUP3 ADD MSTORE POP JUMP JUMPDEST PUSH0 PUSH2 0x478 PUSH1 0x34 DUP4 PUSH2 0x40E JUMP JUMPDEST SWAP2 POP PUSH2 0x483 DUP3 PUSH2 0x41E JUMP JUMPDEST PUSH1 0x40 DUP3 ADD SWAP1 POP SWAP2 SWAP1 POP JUMP JUMPDEST PUSH0 PUSH1 0x20 DUP3 ADD SWAP1 POP DUP2 DUP2 SUB PUSH0 DUP4 ADD MSTORE PUSH2 0x4A5 DUP2 PUSH2 0x46C JUMP JUMPDEST SWAP1 POP SWAP2 SWAP1 POP JUMP INVALID LOG2 PUSH5 0x6970667358 0x22 SLT KECCAK256 GAS 0xBF SGT 0xC9 CODESIZE RETURN LOG2 SUB 0xF8 SWAP12 0x22 0xDF PUSH4 0x1B455FFD 0x1E 0xF 0xE4 SIGNEXTEND 0xC DUP2 0xEB SAR SWAP7 0x1F PUSH31 0x6B23724A64736F6C634300081A003300000000000000000000000000000000 "
		},
		"gasEstimates": {
			"creation": {
				"codeDepositCost": "250000",
				"executionCost": "292",
				"totalCost": "250292"
			},
			"external": {
				"getWhitelist(address,address)": "infinite",
				"setWhitelist(address,address,uint256)": "infinite"
			}
		},
		"methodIdentifiers": {
			"getWhitelist(address,address)": "13f4a0ea",
			"setWhitelist(address,address,uint256)": "80bfbe68"
		}
	},
	"abi": [
		{
			"inputs": [
				{
					"internalType": "address",
					"name": "_wallet",
					"type": "address"
				},
				{
					"internalType": "address",
					"name": "_target",
					"type": "address"
				}
			],
			"name": "getWhitelist",
			"outputs": [
				{
					"internalType": "uint256",
					"name": "",
					"type": "uint256"
				}
			],
			"stateMutability": "view",
			"type": "function"
		},
		{
			"inputs": [
				{
					"internalType": "address",
					"name": "_wallet",
					"type": "address"
				},
				{
					"internalType": "address",
					"name": "_target",
					"type": "address"
				},
				{
					"internalType": "uint256",
					"name": "_value",
					"type": "uint256"
				}
			],
			"name": "setWhitelist",
			"outputs": [],
			"stateMutability": "nonpayable",
			"type": "function"
		}
	]
}