{
	"contracts/assets/AssetRegistry.sol": {
		"AssetRegistry": {
			"abi": [
				{
					"inputs": [],
					"stateMutability": "nonpayable",
					"type": "constructor"
				},
				{
					"inputs": [],
					"name": "AccessControlBadConfirmation",
					"type": "error"
				},
				{
					"inputs": [
						{
							"internalType": "address",
							"name": "account",
							"type": "address"
						},
						{
							"internalType": "bytes32",
							"name": "neededRole",
							"type": "bytes32"
						}
					],
					"name": "AccessControlUnauthorizedAccount",
					"type": "error"
				},
				{
					"inputs": [],
					"name": "EnforcedPause",
					"type": "error"
				},
				{
					"inputs": [],
					"name": "ExpectedPause",
					"type": "error"
				},
				{
					"anonymous": false,
					"inputs": [
						{
							"indexed": true,
							"internalType": "uint256",
							"name": "chainId",
							"type": "uint256"
						},
						{
							"indexed": true,
							"internalType": "address",
							"name": "assetAddress",
							"type": "address"
						},
						{
							"indexed": false,
							"internalType": "enum AssetRegistry.AssetType",
							"name": "assetType",
							"type": "uint8"
						},
						{
							"indexed": false,
							"internalType": "string",
							"name": "name",
							"type": "string"
						},
						{
							"indexed": false,
							"internalType": "string",
							"name": "symbol",
							"type": "string"
						}
					],
					"name": "AssetRegistered",
					"type": "event"
				},
				{
					"anonymous": false,
					"inputs": [
						{
							"indexed": true,
							"internalType": "uint256",
							"name": "chainId",
							"type": "uint256"
						},
						{
							"indexed": true,
							"internalType": "address",
							"name": "assetAddress",
							"type": "address"
						},
						{
							"indexed": false,
							"internalType": "bool",
							"name": "isActive",
							"type": "bool"
						}
					],
					"name": "AssetUpdated",
					"type": "event"
				},
				{
					"anonymous": false,
					"inputs": [
						{
							"indexed": true,
							"internalType": "uint256",
							"name": "chainId",
							"type": "uint256"
						},
						{
							"indexed": false,
							"internalType": "string",
							"name": "name",
							"type": "string"
						}
					],
					"name": "ChainAdded",
					"type": "event"
				},
				{
					"anonymous": false,
					"inputs": [
						{
							"indexed": true,
							"internalType": "uint256",
							"name": "chainId",
							"type": "uint256"
						},
						{
							"indexed": false,
							"internalType": "bool",
							"name": "isActive",
							"type": "bool"
						}
					],
					"name": "ChainUpdated",
					"type": "event"
				},
				{
					"anonymous": false,
					"inputs": [
						{
							"indexed": false,
							"internalType": "address",
							"name": "account",
							"type": "address"
						}
					],
					"name": "Paused",
					"type": "event"
				},
				{
					"anonymous": false,
					"inputs": [
						{
							"indexed": true,
							"internalType": "bytes32",
							"name": "role",
							"type": "bytes32"
						},
						{
							"indexed": true,
							"internalType": "bytes32",
							"name": "previousAdminRole",
							"type": "bytes32"
						},
						{
							"indexed": true,
							"internalType": "bytes32",
							"name": "newAdminRole",
							"type": "bytes32"
						}
					],
					"name": "RoleAdminChanged",
					"type": "event"
				},
				{
					"anonymous": false,
					"inputs": [
						{
							"indexed": true,
							"internalType": "bytes32",
							"name": "role",
							"type": "bytes32"
						},
						{
							"indexed": true,
							"internalType": "address",
							"name": "account",
							"type": "address"
						},
						{
							"indexed": true,
							"internalType": "address",
							"name": "sender",
							"type": "address"
						}
					],
					"name": "RoleGranted",
					"type": "event"
				},
				{
					"anonymous": false,
					"inputs": [
						{
							"indexed": true,
							"internalType": "bytes32",
							"name": "role",
							"type": "bytes32"
						},
						{
							"indexed": true,
							"internalType": "address",
							"name": "account",
							"type": "address"
						},
						{
							"indexed": true,
							"internalType": "address",
							"name": "sender",
							"type": "address"
						}
					],
					"name": "RoleRevoked",
					"type": "event"
				},
				{
					"anonymous": false,
					"inputs": [
						{
							"indexed": false,
							"internalType": "address",
							"name": "account",
							"type": "address"
						}
					],
					"name": "Unpaused",
					"type": "event"
				},
				{
					"inputs": [],
					"name": "DEFAULT_ADMIN_ROLE",
					"outputs": [
						{
							"internalType": "bytes32",
							"name": "",
							"type": "bytes32"
						}
					],
					"stateMutability": "view",
					"type": "function"
				},
				{
					"inputs": [],
					"name": "REGISTRAR_ROLE",
					"outputs": [
						{
							"internalType": "bytes32",
							"name": "",
							"type": "bytes32"
						}
					],
					"stateMutability": "view",
					"type": "function"
				},
				{
					"inputs": [
						{
							"internalType": "uint256",
							"name": "chainId",
							"type": "uint256"
						},
						{
							"internalType": "string",
							"name": "name",
							"type": "string"
						}
					],
					"name": "addChain",
					"outputs": [],
					"stateMutability": "nonpayable",
					"type": "function"
				},
				{
					"inputs": [
						{
							"internalType": "uint256",
							"name": "chainId",
							"type": "uint256"
						},
						{
							"internalType": "address",
							"name": "assetAddress",
							"type": "address"
						}
					],
					"name": "getAsset",
					"outputs": [
						{
							"components": [
								{
									"internalType": "address",
									"name": "contractAddress",
									"type": "address"
								},
								{
									"internalType": "enum AssetRegistry.AssetType",
									"name": "assetType",
									"type": "uint8"
								},
								{
									"internalType": "string",
									"name": "name",
									"type": "string"
								},
								{
									"internalType": "string",
									"name": "symbol",
									"type": "string"
								},
								{
									"internalType": "uint8",
									"name": "decimals",
									"type": "uint8"
								},
								{
									"internalType": "bool",
									"name": "isActive",
									"type": "bool"
								}
							],
							"internalType": "struct AssetRegistry.Asset",
							"name": "",
							"type": "tuple"
						}
					],
					"stateMutability": "view",
					"type": "function"
				},
				{
					"inputs": [
						{
							"internalType": "uint256",
							"name": "chainId",
							"type": "uint256"
						}
					],
					"name": "getChainAssets",
					"outputs": [
						{
							"internalType": "address[]",
							"name": "",
							"type": "address[]"
						}
					],
					"stateMutability": "view",
					"type": "function"
				},
				{
					"inputs": [
						{
							"internalType": "uint256",
							"name": "chainId",
							"type": "uint256"
						}
					],
					"name": "getChainInfo",
					"outputs": [
						{
							"components": [
								{
									"internalType": "uint256",
									"name": "chainId",
									"type": "uint256"
								},
								{
									"internalType": "string",
									"name": "name",
									"type": "string"
								},
								{
									"internalType": "bool",
									"name": "isActive",
									"type": "bool"
								}
							],
							"internalType": "struct AssetRegistry.ChainInfo",
							"name": "",
							"type": "tuple"
						}
					],
					"stateMutability": "view",
					"type": "function"
				},
				{
					"inputs": [
						{
							"internalType": "bytes32",
							"name": "role",
							"type": "bytes32"
						}
					],
					"name": "getRoleAdmin",
					"outputs": [
						{
							"internalType": "bytes32",
							"name": "",
							"type": "bytes32"
						}
					],
					"stateMutability": "view",
					"type": "function"
				},
				{
					"inputs": [],
					"name": "getSupportedChainIds",
					"outputs": [
						{
							"internalType": "uint256[]",
							"name": "",
							"type": "uint256[]"
						}
					],
					"stateMutability": "view",
					"type": "function"
				},
				{
					"inputs": [
						{
							"internalType": "bytes32",
							"name": "role",
							"type": "bytes32"
						},
						{
							"internalType": "address",
							"name": "account",
							"type": "address"
						}
					],
					"name": "grantRole",
					"outputs": [],
					"stateMutability": "nonpayable",
					"type": "function"
				},
				{
					"inputs": [
						{
							"internalType": "bytes32",
							"name": "role",
							"type": "bytes32"
						},
						{
							"internalType": "address",
							"name": "account",
							"type": "address"
						}
					],
					"name": "hasRole",
					"outputs": [
						{
							"internalType": "bool",
							"name": "",
							"type": "bool"
						}
					],
					"stateMutability": "view",
					"type": "function"
				},
				{
					"inputs": [],
					"name": "pause",
					"outputs": [],
					"stateMutability": "nonpayable",
					"type": "function"
				},
				{
					"inputs": [],
					"name": "paused",
					"outputs": [
						{
							"internalType": "bool",
							"name": "",
							"type": "bool"
						}
					],
					"stateMutability": "view",
					"type": "function"
				},
				{
					"inputs": [
						{
							"internalType": "uint256",
							"name": "chainId",
							"type": "uint256"
						},
						{
							"internalType": "address",
							"name": "assetAddress",
							"type": "address"
						},
						{
							"internalType": "enum AssetRegistry.AssetType",
							"name": "assetType",
							"type": "uint8"
						},
						{
							"internalType": "string",
							"name": "name",
							"type": "string"
						},
						{
							"internalType": "string",
							"name": "symbol",
							"type": "string"
						},
						{
							"internalType": "uint8",
							"name": "decimals",
							"type": "uint8"
						}
					],
					"name": "registerAsset",
					"outputs": [],
					"stateMutability": "nonpayable",
					"type": "function"
				},
				{
					"inputs": [
						{
							"internalType": "bytes32",
							"name": "role",
							"type": "bytes32"
						},
						{
							"internalType": "address",
							"name": "callerConfirmation",
							"type": "address"
						}
					],
					"name": "renounceRole",
					"outputs": [],
					"stateMutability": "nonpayable",
					"type": "function"
				},
				{
					"inputs": [
						{
							"internalType": "bytes32",
							"name": "role",
							"type": "bytes32"
						},
						{
							"internalType": "address",
							"name": "account",
							"type": "address"
						}
					],
					"name": "revokeRole",
					"outputs": [],
					"stateMutability": "nonpayable",
					"type": "function"
				},
				{
					"inputs": [
						{
							"internalType": "bytes4",
							"name": "interfaceId",
							"type": "bytes4"
						}
					],
					"name": "supportsInterface",
					"outputs": [
						{
							"internalType": "bool",
							"name": "",
							"type": "bool"
						}
					],
					"stateMutability": "view",
					"type": "function"
				},
				{
					"inputs": [],
					"name": "unpause",
					"outputs": [],
					"stateMutability": "nonpayable",
					"type": "function"
				},
				{
					"inputs": [
						{
							"internalType": "uint256",
							"name": "chainId",
							"type": "uint256"
						},
						{
							"internalType": "address",
							"name": "assetAddress",
							"type": "address"
						},
						{
							"internalType": "bool",
							"name": "isActive",
							"type": "bool"
						}
					],
					"name": "updateAssetStatus",
					"outputs": [],
					"stateMutability": "nonpayable",
					"type": "function"
				},
				{
					"inputs": [
						{
							"internalType": "uint256",
							"name": "chainId",
							"type": "uint256"
						},
						{
							"internalType": "bool",
							"name": "isActive",
							"type": "bool"
						}
					],
					"name": "updateChainStatus",
					"outputs": [],
					"stateMutability": "nonpayable",
					"type": "function"
				}
			],
			"devdoc": {
				"details": "A contract for registering and managing assets in the Cipher Zero Protocol",
				"errors": {
					"AccessControlBadConfirmation()": [
						{
							"details": "The caller of a function is not the expected one. NOTE: Don't confuse with {AccessControlUnauthorizedAccount}."
						}
					],
					"AccessControlUnauthorizedAccount(address,bytes32)": [
						{
							"details": "The `account` is missing a role."
						}
					],
					"EnforcedPause()": [
						{
							"details": "The operation failed because the contract is paused."
						}
					],
					"ExpectedPause()": [
						{
							"details": "The operation failed because the contract is not paused."
						}
					]
				},
				"events": {
					"Paused(address)": {
						"details": "Emitted when the pause is triggered by `account`."
					},
					"RoleAdminChanged(bytes32,bytes32,bytes32)": {
						"details": "Emitted when `newAdminRole` is set as ``role``'s admin role, replacing `previousAdminRole` `DEFAULT_ADMIN_ROLE` is the starting admin for all roles, despite {RoleAdminChanged} not being emitted signaling this."
					},
					"RoleGranted(bytes32,address,address)": {
						"details": "Emitted when `account` is granted `role`. `sender` is the account that originated the contract call, an admin role bearer except when using {AccessControl-_setupRole}."
					},
					"RoleRevoked(bytes32,address,address)": {
						"details": "Emitted when `account` is revoked `role`. `sender` is the account that originated the contract call:   - if using `revokeRole`, it is the admin role bearer   - if using `renounceRole`, it is the role bearer (i.e. `account`)"
					},
					"Unpaused(address)": {
						"details": "Emitted when the pause is lifted by `account`."
					}
				},
				"kind": "dev",
				"methods": {
					"addChain(uint256,string)": {
						"details": "Adds support for a new chain",
						"params": {
							"chainId": "The ID of the chain to add",
							"name": "The name of the chain"
						}
					},
					"getAsset(uint256,address)": {
						"details": "Retrieves asset information",
						"params": {
							"assetAddress": "The contract address of the asset",
							"chainId": "The chain ID where the asset exists"
						},
						"returns": {
							"_0": "Asset struct containing asset information"
						}
					},
					"getChainAssets(uint256)": {
						"details": "Retrieves all asset addresses for a given chain",
						"params": {
							"chainId": "The ID of the chain"
						},
						"returns": {
							"_0": "An array of asset addresses"
						}
					},
					"getChainInfo(uint256)": {
						"details": "Retrieves chain information",
						"params": {
							"chainId": "The ID of the chain"
						},
						"returns": {
							"_0": "ChainInfo struct containing chain information"
						}
					},
					"getRoleAdmin(bytes32)": {
						"details": "Returns the admin role that controls `role`. See {grantRole} and {revokeRole}. To change a role's admin, use {_setRoleAdmin}."
					},
					"getSupportedChainIds()": {
						"details": "Retrieves all supported chain IDs",
						"returns": {
							"_0": "An array of supported chain IDs"
						}
					},
					"grantRole(bytes32,address)": {
						"details": "Grants `role` to `account`. If `account` had not been already granted `role`, emits a {RoleGranted} event. Requirements: - the caller must have ``role``'s admin role. May emit a {RoleGranted} event."
					},
					"hasRole(bytes32,address)": {
						"details": "Returns `true` if `account` has been granted `role`."
					},
					"pause()": {
						"details": "Pauses the contract"
					},
					"paused()": {
						"details": "Returns true if the contract is paused, and false otherwise."
					},
					"registerAsset(uint256,address,uint8,string,string,uint8)": {
						"details": "Registers a new asset",
						"params": {
							"assetAddress": "The contract address of the asset (address(0) for native coins)",
							"assetType": "The type of the asset (NATIVE, ERC20, ERC721, ERC1155)",
							"chainId": "The chain ID where the asset exists",
							"decimals": "The number of decimals for the asset (0 for non-fungible tokens)",
							"name": "The name of the asset",
							"symbol": "The symbol of the asset"
						}
					},
					"renounceRole(bytes32,address)": {
						"details": "Revokes `role` from the calling account. Roles are often managed via {grantRole} and {revokeRole}: this function's purpose is to provide a mechanism for accounts to lose their privileges if they are compromised (such as when a trusted device is misplaced). If the calling account had been revoked `role`, emits a {RoleRevoked} event. Requirements: - the caller must be `callerConfirmation`. May emit a {RoleRevoked} event."
					},
					"revokeRole(bytes32,address)": {
						"details": "Revokes `role` from `account`. If `account` had been granted `role`, emits a {RoleRevoked} event. Requirements: - the caller must have ``role``'s admin role. May emit a {RoleRevoked} event."
					},
					"supportsInterface(bytes4)": {
						"details": "See {IERC165-supportsInterface}."
					},
					"unpause()": {
						"details": "Unpauses the contract"
					},
					"updateAssetStatus(uint256,address,bool)": {
						"details": "Updates the active status of an asset",
						"params": {
							"assetAddress": "The contract address of the asset",
							"chainId": "The chain ID where the asset exists",
							"isActive": "The new active status"
						}
					},
					"updateChainStatus(uint256,bool)": {
						"details": "Updates the active status of a chain",
						"params": {
							"chainId": "The ID of the chain to update",
							"isActive": "The new active status"
						}
					}
				},
				"title": "AssetRegistry",
				"version": 1
			},
			"evm": {
				"assembly": "    /* \"contracts/assets/AssetRegistry.sol\":529:6186  contract AssetRegistry is AccessControl, Pausable {... */\n  mstore(0x40, 0x80)\n    /* \"contracts/assets/AssetRegistry.sol\":1698:1819  constructor() {... */\n  callvalue\n  dup1\n  iszero\n  tag_1\n  jumpi\n  0x00\n  dup1\n  revert\ntag_1:\n  pop\n    /* \"@openzeppelin/contracts/utils/Pausable.sol\":1241:1246  false */\n  0x00\n    /* \"@openzeppelin/contracts/utils/Pausable.sol\":1231:1238  _paused */\n  0x01\n  0x00\n    /* \"@openzeppelin/contracts/utils/Pausable.sol\":1231:1246  _paused = false */\n  0x0100\n  exp\n  dup2\n  sload\n  dup2\n  0xff\n  mul\n  not\n  and\n  swap1\n  dup4\n  iszero\n  iszero\n  mul\n  or\n  swap1\n  sstore\n  pop\n    /* \"contracts/assets/AssetRegistry.sol\":1722:1764  _grantRole(DEFAULT_ADMIN_ROLE, msg.sender) */\n  tag_6\n    /* \"@openzeppelin/contracts/access/AccessControl.sol\":2232:2236  0x00 */\n  0x00\n    /* \"contracts/assets/AssetRegistry.sol\":1733:1751  DEFAULT_ADMIN_ROLE */\n  dup1\n  shl\n    /* \"contracts/assets/AssetRegistry.sol\":1753:1763  msg.sender */\n  caller\n    /* \"contracts/assets/AssetRegistry.sol\":1722:1732  _grantRole */\n  shl(0x20, tag_7)\n    /* \"contracts/assets/AssetRegistry.sol\":1722:1764  _grantRole(DEFAULT_ADMIN_ROLE, msg.sender) */\n  0x20\n  shr\n  jump\t// in\ntag_6:\n  pop\n    /* \"contracts/assets/AssetRegistry.sol\":1774:1812  _grantRole(REGISTRAR_ROLE, msg.sender) */\n  tag_8\n    /* \"contracts/assets/AssetRegistry.sol\":732:759  keccak256(\"REGISTRAR_ROLE\") */\n  0xedcc084d3dcd65a1f7f23c65c46722faca6953d28e43150a467cf43e5c309238\n    /* \"contracts/assets/AssetRegistry.sol\":1801:1811  msg.sender */\n  caller\n    /* \"contracts/assets/AssetRegistry.sol\":1774:1784  _grantRole */\n  shl(0x20, tag_7)\n    /* \"contracts/assets/AssetRegistry.sol\":1774:1812  _grantRole(REGISTRAR_ROLE, msg.sender) */\n  0x20\n  shr\n  jump\t// in\ntag_8:\n  pop\n    /* \"contracts/assets/AssetRegistry.sol\":529:6186  contract AssetRegistry is AccessControl, Pausable {... */\n  jump(tag_9)\n    /* \"@openzeppelin/contracts/access/AccessControl.sol\":6179:6495  function _grantRole(bytes32 role, address account) internal virtual returns (bool) {... */\ntag_7:\n    /* \"@openzeppelin/contracts/access/AccessControl.sol\":6256:6260  bool */\n  0x00\n    /* \"@openzeppelin/contracts/access/AccessControl.sol\":6277:6299  hasRole(role, account) */\n  tag_11\n    /* \"@openzeppelin/contracts/access/AccessControl.sol\":6285:6289  role */\n  dup4\n    /* \"@openzeppelin/contracts/access/AccessControl.sol\":6291:6298  account */\n  dup4\n    /* \"@openzeppelin/contracts/access/AccessControl.sol\":6277:6284  hasRole */\n  shl(0x20, tag_12)\n    /* \"@openzeppelin/contracts/access/AccessControl.sol\":6277:6299  hasRole(role, account) */\n  0x20\n  shr\n  jump\t// in\ntag_11:\n    /* \"@openzeppelin/contracts/access/AccessControl.sol\":6272:6489  if (!hasRole(role, account)) {... */\n  tag_13\n  jumpi\n    /* \"@openzeppelin/contracts/access/AccessControl.sol\":6347:6351  true */\n  0x01\n    /* \"@openzeppelin/contracts/access/AccessControl.sol\":6315:6321  _roles */\n  0x00\n    /* \"@openzeppelin/contracts/access/AccessControl.sol\":6315:6327  _roles[role] */\n  dup1\n    /* \"@openzeppelin/contracts/access/AccessControl.sol\":6322:6326  role */\n  dup6\n    /* \"@openzeppelin/contracts/access/AccessControl.sol\":6315:6327  _roles[role] */\n  dup2\n  mstore\n  0x20\n  add\n  swap1\n  dup2\n  mstore\n  0x20\n  add\n  0x00\n  keccak256\n    /* \"@openzeppelin/contracts/access/AccessControl.sol\":6315:6335  _roles[role].hasRole */\n  0x00\n  add\n    /* \"@openzeppelin/contracts/access/AccessControl.sol\":6315:6344  _roles[role].hasRole[account] */\n  0x00\n    /* \"@openzeppelin/contracts/access/AccessControl.sol\":6336:6343  account */\n  dup5\n    /* \"@openzeppelin/contracts/access/AccessControl.sol\":6315:6344  _roles[role].hasRole[account] */\n  0xffffffffffffffffffffffffffffffffffffffff\n  and\n  0xffffffffffffffffffffffffffffffffffffffff\n  and\n  dup2\n  mstore\n  0x20\n  add\n  swap1\n  dup2\n  mstore\n  0x20\n  add\n  0x00\n  keccak256\n  0x00\n    /* \"@openzeppelin/contracts/access/AccessControl.sol\":6315:6351  _roles[role].hasRole[account] = true */\n  0x0100\n  exp\n  dup2\n  sload\n  dup2\n  0xff\n  mul\n  not\n  and\n  swap1\n  dup4\n  iszero\n  iszero\n  mul\n  or\n  swap1\n  sstore\n  pop\n    /* \"@openzeppelin/contracts/access/AccessControl.sol\":6397:6409  _msgSender() */\n  tag_14\n    /* \"@openzeppelin/contracts/access/AccessControl.sol\":6397:6407  _msgSender */\n  shl(0x20, tag_15)\n    /* \"@openzeppelin/contracts/access/AccessControl.sol\":6397:6409  _msgSender() */\n  0x20\n  shr\n  jump\t// in\ntag_14:\n    /* \"@openzeppelin/contracts/access/AccessControl.sol\":6370:6410  RoleGranted(role, account, _msgSender()) */\n  0xffffffffffffffffffffffffffffffffffffffff\n  and\n    /* \"@openzeppelin/contracts/access/AccessControl.sol\":6388:6395  account */\n  dup3\n    /* \"@openzeppelin/contracts/access/AccessControl.sol\":6370:6410  RoleGranted(role, account, _msgSender()) */\n  0xffffffffffffffffffffffffffffffffffffffff\n  and\n    /* \"@openzeppelin/contracts/access/AccessControl.sol\":6382:6386  role */\n  dup5\n    /* \"@openzeppelin/contracts/access/AccessControl.sol\":6370:6410  RoleGranted(role, account, _msgSender()) */\n  0x2f8788117e7eff1d82e926ec794901d17c78024a50270940304540a733656f0d\n  mload(0x40)\n  mload(0x40)\n  dup1\n  swap2\n  sub\n  swap1\n  log4\n    /* \"@openzeppelin/contracts/access/AccessControl.sol\":6431:6435  true */\n  0x01\n    /* \"@openzeppelin/contracts/access/AccessControl.sol\":6424:6435  return true */\n  swap1\n  pop\n  jump(tag_10)\n    /* \"@openzeppelin/contracts/access/AccessControl.sol\":6272:6489  if (!hasRole(role, account)) {... */\ntag_13:\n    /* \"@openzeppelin/contracts/access/AccessControl.sol\":6473:6478  false */\n  0x00\n    /* \"@openzeppelin/contracts/access/AccessControl.sol\":6466:6478  return false */\n  swap1\n  pop\n    /* \"@openzeppelin/contracts/access/AccessControl.sol\":6179:6495  function _grantRole(bytes32 role, address account) internal virtual returns (bool) {... */\ntag_10:\n  swap3\n  swap2\n  pop\n  pop\n  jump\t// out\n    /* \"@openzeppelin/contracts/access/AccessControl.sol\":2854:2990  function hasRole(bytes32 role, address account) public view virtual returns (bool) {... */\ntag_12:\n    /* \"@openzeppelin/contracts/access/AccessControl.sol\":2931:2935  bool */\n  0x00\n    /* \"@openzeppelin/contracts/access/AccessControl.sol\":2954:2960  _roles */\n  dup1\n    /* \"@openzeppelin/contracts/access/AccessControl.sol\":2954:2966  _roles[role] */\n  0x00\n    /* \"@openzeppelin/contracts/access/AccessControl.sol\":2961:2965  role */\n  dup5\n    /* \"@openzeppelin/contracts/access/AccessControl.sol\":2954:2966  _roles[role] */\n  dup2\n  mstore\n  0x20\n  add\n  swap1\n  dup2\n  mstore\n  0x20\n  add\n  0x00\n  keccak256\n    /* \"@openzeppelin/contracts/access/AccessControl.sol\":2954:2974  _roles[role].hasRole */\n  0x00\n  add\n    /* \"@openzeppelin/contracts/access/AccessControl.sol\":2954:2983  _roles[role].hasRole[account] */\n  0x00\n    /* \"@openzeppelin/contracts/access/AccessControl.sol\":2975:2982  account */\n  dup4\n    /* \"@openzeppelin/contracts/access/AccessControl.sol\":2954:2983  _roles[role].hasRole[account] */\n  0xffffffffffffffffffffffffffffffffffffffff\n  and\n  0xffffffffffffffffffffffffffffffffffffffff\n  and\n  dup2\n  mstore\n  0x20\n  add\n  swap1\n  dup2\n  mstore\n  0x20\n  add\n  0x00\n  keccak256\n  0x00\n  swap1\n  sload\n  swap1\n  0x0100\n  exp\n  swap1\n  div\n  0xff\n  and\n    /* \"@openzeppelin/contracts/access/AccessControl.sol\":2947:2983  return _roles[role].hasRole[account] */\n  swap1\n  pop\n    /* \"@openzeppelin/contracts/access/AccessControl.sol\":2854:2990  function hasRole(bytes32 role, address account) public view virtual returns (bool) {... */\n  swap3\n  swap2\n  pop\n  pop\n  jump\t// out\n    /* \"@openzeppelin/contracts/utils/Context.sol\":656:752  function _msgSender() internal view virtual returns (address) {... */\ntag_15:\n    /* \"@openzeppelin/contracts/utils/Context.sol\":709:716  address */\n  0x00\n    /* \"@openzeppelin/contracts/utils/Context.sol\":735:745  msg.sender */\n  caller\n    /* \"@openzeppelin/contracts/utils/Context.sol\":728:745  return msg.sender */\n  swap1\n  pop\n    /* \"@openzeppelin/contracts/utils/Context.sol\":656:752  function _msgSender() internal view virtual returns (address) {... */\n  swap1\n  jump\t// out\n    /* \"contracts/assets/AssetRegistry.sol\":529:6186  contract AssetRegistry is AccessControl, Pausable {... */\ntag_9:\n  dataSize(sub_0)\n  dup1\n  dataOffset(sub_0)\n  0x00\n  codecopy\n  0x00\n  return\nstop\n\nsub_0: assembly {\n        /* \"contracts/assets/AssetRegistry.sol\":529:6186  contract AssetRegistry is AccessControl, Pausable {... */\n      mstore(0x40, 0x80)\n      callvalue\n      dup1\n      iszero\n      tag_1\n      jumpi\n      0x00\n      dup1\n      revert\n    tag_1:\n      pop\n      jumpi(tag_2, lt(calldatasize, 0x04))\n      shr(0xe0, calldataload(0x00))\n      dup1\n      0x804ea334\n      gt\n      tag_22\n      jumpi\n      dup1\n      0xd088194b\n      gt\n      tag_23\n      jumpi\n      dup1\n      0xd088194b\n      eq\n      tag_17\n      jumpi\n      dup1\n      0xd547741f\n      eq\n      tag_18\n      jumpi\n      dup1\n      0xf103167a\n      eq\n      tag_19\n      jumpi\n      dup1\n      0xf68e9553\n      eq\n      tag_20\n      jumpi\n      dup1\n      0xf7a452cb\n      eq\n      tag_21\n      jumpi\n      jump(tag_2)\n    tag_23:\n      dup1\n      0x804ea334\n      eq\n      tag_12\n      jumpi\n      dup1\n      0x8456cb59\n      eq\n      tag_13\n      jumpi\n      dup1\n      0x91d14854\n      eq\n      tag_14\n      jumpi\n      dup1\n      0xa217fddf\n      eq\n      tag_15\n      jumpi\n      dup1\n      0xaf83d4d8\n      eq\n      tag_16\n      jumpi\n      jump(tag_2)\n    tag_22:\n      dup1\n      0x2c321fb6\n      gt\n      tag_24\n      jumpi\n      dup1\n      0x2c321fb6\n      eq\n      tag_7\n      jumpi\n      dup1\n      0x2f2ff15d\n      eq\n      tag_8\n      jumpi\n      dup1\n      0x36568abe\n      eq\n      tag_9\n      jumpi\n      dup1\n      0x3f4ba83a\n      eq\n      tag_10\n      jumpi\n      dup1\n      0x5c975abb\n      eq\n      tag_11\n      jumpi\n      jump(tag_2)\n    tag_24:\n      dup1\n      0x01ffc9a7\n      eq\n      tag_3\n      jumpi\n      dup1\n      0x024237eb\n      eq\n      tag_4\n      jumpi\n      dup1\n      0x0f3f6b5b\n      eq\n      tag_5\n      jumpi\n      dup1\n      0x248a9ca3\n      eq\n      tag_6\n      jumpi\n    tag_2:\n      0x00\n      dup1\n      revert\n        /* \"@openzeppelin/contracts/access/AccessControl.sol\":2565:2767  function supportsInterface(bytes4 interfaceId) public view virtual override returns (bool) {... */\n    tag_3:\n      tag_25\n      0x04\n      dup1\n      calldatasize\n      sub\n      dup2\n      add\n      swap1\n      tag_26\n      swap2\n      swap1\n      tag_27\n      jump\t// in\n    tag_26:\n      tag_28\n      jump\t// in\n    tag_25:\n      mload(0x40)\n      tag_29\n      swap2\n      swap1\n      tag_30\n      jump\t// in\n    tag_29:\n      mload(0x40)\n      dup1\n      swap2\n      sub\n      swap1\n      return\n        /* \"contracts/assets/AssetRegistry.sol\":5774:5910  function getChainAssets(uint256 chainId) external view returns (address[] memory) {... */\n    tag_4:\n      tag_31\n      0x04\n      dup1\n      calldatasize\n      sub\n      dup2\n      add\n      swap1\n      tag_32\n      swap2\n      swap1\n      tag_33\n      jump\t// in\n    tag_32:\n      tag_34\n      jump\t// in\n    tag_31:\n      mload(0x40)\n      tag_35\n      swap2\n      swap1\n      tag_36\n      jump\t// in\n    tag_35:\n      mload(0x40)\n      dup1\n      swap2\n      sub\n      swap1\n      return\n        /* \"contracts/assets/AssetRegistry.sol\":4427:4697  function updateChainStatus(uint256 chainId, bool isActive) external onlyRole(REGISTRAR_ROLE) {... */\n    tag_5:\n      tag_37\n      0x04\n      dup1\n      calldatasize\n      sub\n      dup2\n      add\n      swap1\n      tag_38\n      swap2\n      swap1\n      tag_39\n      jump\t// in\n    tag_38:\n      tag_40\n      jump\t// in\n    tag_37:\n      stop\n        /* \"@openzeppelin/contracts/access/AccessControl.sol\":3810:3930  function getRoleAdmin(bytes32 role) public view virtual returns (bytes32) {... */\n    tag_6:\n      tag_41\n      0x04\n      dup1\n      calldatasize\n      sub\n      dup2\n      add\n      swap1\n      tag_42\n      swap2\n      swap1\n      tag_43\n      jump\t// in\n    tag_42:\n      tag_44\n      jump\t// in\n    tag_41:\n      mload(0x40)\n      tag_45\n      swap2\n      swap1\n      tag_46\n      jump\t// in\n    tag_45:\n      mload(0x40)\n      dup1\n      swap2\n      sub\n      swap1\n      return\n        /* \"contracts/assets/AssetRegistry.sol\":2277:3133  function registerAsset(... */\n    tag_7:\n      tag_47\n      0x04\n      dup1\n      calldatasize\n      sub\n      dup2\n      add\n      swap1\n      tag_48\n      swap2\n      swap1\n      tag_49\n      jump\t// in\n    tag_48:\n      tag_50\n      jump\t// in\n    tag_47:\n      stop\n        /* \"@openzeppelin/contracts/access/AccessControl.sol\":4226:4362  function grantRole(bytes32 role, address account) public virtual onlyRole(getRoleAdmin(role)) {... */\n    tag_8:\n      tag_51\n      0x04\n      dup1\n      calldatasize\n      sub\n      dup2\n      add\n      swap1\n      tag_52\n      swap2\n      swap1\n      tag_53\n      jump\t// in\n    tag_52:\n      tag_54\n      jump\t// in\n    tag_51:\n      stop\n        /* \"@openzeppelin/contracts/access/AccessControl.sol\":5328:5573  function renounceRole(bytes32 role, address callerConfirmation) public virtual {... */\n    tag_9:\n      tag_55\n      0x04\n      dup1\n      calldatasize\n      sub\n      dup2\n      add\n      swap1\n      tag_56\n      swap2\n      swap1\n      tag_53\n      jump\t// in\n    tag_56:\n      tag_57\n      jump\t// in\n    tag_55:\n      stop\n        /* \"contracts/assets/AssetRegistry.sol\":6100:6184  function unpause() external onlyRole(DEFAULT_ADMIN_ROLE) {... */\n    tag_10:\n      tag_58\n      tag_59\n      jump\t// in\n    tag_58:\n      stop\n        /* \"@openzeppelin/contracts/utils/Pausable.sol\":1850:1934  function paused() public view virtual returns (bool) {... */\n    tag_11:\n      tag_60\n      tag_61\n      jump\t// in\n    tag_60:\n      mload(0x40)\n      tag_62\n      swap2\n      swap1\n      tag_30\n      jump\t// in\n    tag_62:\n      mload(0x40)\n      dup1\n      swap2\n      sub\n      swap1\n      return\n        /* \"contracts/assets/AssetRegistry.sol\":5248:5368  function getChainInfo(uint256 chainId) external view returns (ChainInfo memory) {... */\n    tag_12:\n      tag_63\n      0x04\n      dup1\n      calldatasize\n      sub\n      dup2\n      add\n      swap1\n      tag_64\n      swap2\n      swap1\n      tag_33\n      jump\t// in\n    tag_64:\n      tag_65\n      jump\t// in\n    tag_63:\n      mload(0x40)\n      tag_66\n      swap2\n      swap1\n      tag_67\n      jump\t// in\n    tag_66:\n      mload(0x40)\n      dup1\n      swap2\n      sub\n      swap1\n      return\n        /* \"contracts/assets/AssetRegistry.sol\":5964:6044  function pause() external onlyRole(DEFAULT_ADMIN_ROLE) {... */\n    tag_13:\n      tag_68\n      tag_69\n      jump\t// in\n    tag_68:\n      stop\n        /* \"@openzeppelin/contracts/access/AccessControl.sol\":2854:2990  function hasRole(bytes32 role, address account) public view virtual returns (bool) {... */\n    tag_14:\n      tag_70\n      0x04\n      dup1\n      calldatasize\n      sub\n      dup2\n      add\n      swap1\n      tag_71\n      swap2\n      swap1\n      tag_53\n      jump\t// in\n    tag_71:\n      tag_72\n      jump\t// in\n    tag_70:\n      mload(0x40)\n      tag_73\n      swap2\n      swap1\n      tag_30\n      jump\t// in\n    tag_73:\n      mload(0x40)\n      dup1\n      swap2\n      sub\n      swap1\n      return\n        /* \"@openzeppelin/contracts/access/AccessControl.sol\":2187:2236  bytes32 public constant DEFAULT_ADMIN_ROLE = 0x00 */\n    tag_15:\n      tag_74\n      tag_75\n      jump\t// in\n    tag_74:\n      mload(0x40)\n      tag_76\n      swap2\n      swap1\n      tag_46\n      jump\t// in\n    tag_76:\n      mload(0x40)\n      dup1\n      swap2\n      sub\n      swap1\n      return\n        /* \"contracts/assets/AssetRegistry.sol\":3867:4259  function addChain(uint256 chainId, string memory name) external onlyRole(REGISTRAR_ROLE) {... */\n    tag_16:\n      tag_77\n      0x04\n      dup1\n      calldatasize\n      sub\n      dup2\n      add\n      swap1\n      tag_78\n      swap2\n      swap1\n      tag_79\n      jump\t// in\n    tag_78:\n      tag_80\n      jump\t// in\n    tag_77:\n      stop\n        /* \"contracts/assets/AssetRegistry.sol\":3369:3714  function updateAssetStatus(uint256 chainId, address assetAddress, bool isActive) external onlyRole(REGISTRAR_ROLE) {... */\n    tag_17:\n      tag_81\n      0x04\n      dup1\n      calldatasize\n      sub\n      dup2\n      add\n      swap1\n      tag_82\n      swap2\n      swap1\n      tag_83\n      jump\t// in\n    tag_82:\n      tag_84\n      jump\t// in\n    tag_81:\n      stop\n        /* \"@openzeppelin/contracts/access/AccessControl.sol\":4642:4780  function revokeRole(bytes32 role, address account) public virtual onlyRole(getRoleAdmin(role)) {... */\n    tag_18:\n      tag_85\n      0x04\n      dup1\n      calldatasize\n      sub\n      dup2\n      add\n      swap1\n      tag_86\n      swap2\n      swap1\n      tag_53\n      jump\t// in\n    tag_86:\n      tag_87\n      jump\t// in\n    tag_85:\n      stop\n        /* \"contracts/assets/AssetRegistry.sol\":4935:5083  function getAsset(uint256 chainId, address assetAddress) external view returns (Asset memory) {... */\n    tag_19:\n      tag_88\n      0x04\n      dup1\n      calldatasize\n      sub\n      dup2\n      add\n      swap1\n      tag_89\n      swap2\n      swap1\n      tag_90\n      jump\t// in\n    tag_89:\n      tag_91\n      jump\t// in\n    tag_88:\n      mload(0x40)\n      tag_92\n      swap2\n      swap1\n      tag_93\n      jump\t// in\n    tag_92:\n      mload(0x40)\n      dup1\n      swap2\n      sub\n      swap1\n      return\n        /* \"contracts/assets/AssetRegistry.sol\":691:759  bytes32 public constant REGISTRAR_ROLE = keccak256(\"REGISTRAR_ROLE\") */\n    tag_20:\n      tag_94\n      tag_95\n      jump\t// in\n    tag_94:\n      mload(0x40)\n      tag_96\n      swap2\n      swap1\n      tag_46\n      jump\t// in\n    tag_96:\n      mload(0x40)\n      dup1\n      swap2\n      sub\n      swap1\n      return\n        /* \"contracts/assets/AssetRegistry.sol\":5483:5607  function getSupportedChainIds() external view returns (uint256[] memory) {... */\n    tag_21:\n      tag_97\n      tag_98\n      jump\t// in\n    tag_97:\n      mload(0x40)\n      tag_99\n      swap2\n      swap1\n      tag_100\n      jump\t// in\n    tag_99:\n      mload(0x40)\n      dup1\n      swap2\n      sub\n      swap1\n      return\n        /* \"@openzeppelin/contracts/access/AccessControl.sol\":2565:2767  function supportsInterface(bytes4 interfaceId) public view virtual override returns (bool) {... */\n    tag_28:\n        /* \"@openzeppelin/contracts/access/AccessControl.sol\":2650:2654  bool */\n      0x00\n        /* \"@openzeppelin/contracts/access/AccessControl.sol\":2688:2720  type(IAccessControl).interfaceId */\n      0x7965db0b00000000000000000000000000000000000000000000000000000000\n        /* \"@openzeppelin/contracts/access/AccessControl.sol\":2673:2720  interfaceId == type(IAccessControl).interfaceId */\n      not(0xffffffffffffffffffffffffffffffffffffffffffffffffffffffff)\n      and\n        /* \"@openzeppelin/contracts/access/AccessControl.sol\":2673:2684  interfaceId */\n      dup3\n        /* \"@openzeppelin/contracts/access/AccessControl.sol\":2673:2720  interfaceId == type(IAccessControl).interfaceId */\n      not(0xffffffffffffffffffffffffffffffffffffffffffffffffffffffff)\n      and\n      eq\n        /* \"@openzeppelin/contracts/access/AccessControl.sol\":2673:2760  interfaceId == type(IAccessControl).interfaceId || super.supportsInterface(interfaceId) */\n      dup1\n      tag_102\n      jumpi\n      pop\n        /* \"@openzeppelin/contracts/access/AccessControl.sol\":2724:2760  super.supportsInterface(interfaceId) */\n      tag_103\n        /* \"@openzeppelin/contracts/access/AccessControl.sol\":2748:2759  interfaceId */\n      dup3\n        /* \"@openzeppelin/contracts/access/AccessControl.sol\":2724:2747  super.supportsInterface */\n      tag_104\n        /* \"@openzeppelin/contracts/access/AccessControl.sol\":2724:2760  super.supportsInterface(interfaceId) */\n      jump\t// in\n    tag_103:\n        /* \"@openzeppelin/contracts/access/AccessControl.sol\":2673:2760  interfaceId == type(IAccessControl).interfaceId || super.supportsInterface(interfaceId) */\n    tag_102:\n        /* \"@openzeppelin/contracts/access/AccessControl.sol\":2666:2760  return interfaceId == type(IAccessControl).interfaceId || super.supportsInterface(interfaceId) */\n      swap1\n      pop\n        /* \"@openzeppelin/contracts/access/AccessControl.sol\":2565:2767  function supportsInterface(bytes4 interfaceId) public view virtual override returns (bool) {... */\n      swap2\n      swap1\n      pop\n      jump\t// out\n        /* \"contracts/assets/AssetRegistry.sol\":5774:5910  function getChainAssets(uint256 chainId) external view returns (address[] memory) {... */\n    tag_34:\n        /* \"contracts/assets/AssetRegistry.sol\":5838:5854  address[] memory */\n      0x60\n        /* \"contracts/assets/AssetRegistry.sol\":5873:5903  _chainAssets[chainId].values() */\n      tag_106\n        /* \"contracts/assets/AssetRegistry.sol\":5873:5885  _chainAssets */\n      0x06\n        /* \"contracts/assets/AssetRegistry.sol\":5873:5894  _chainAssets[chainId] */\n      0x00\n        /* \"contracts/assets/AssetRegistry.sol\":5886:5893  chainId */\n      dup5\n        /* \"contracts/assets/AssetRegistry.sol\":5873:5894  _chainAssets[chainId] */\n      dup2\n      mstore\n      0x20\n      add\n      swap1\n      dup2\n      mstore\n      0x20\n      add\n      0x00\n      keccak256\n        /* \"contracts/assets/AssetRegistry.sol\":5873:5901  _chainAssets[chainId].values */\n      tag_107\n        /* \"contracts/assets/AssetRegistry.sol\":5873:5903  _chainAssets[chainId].values() */\n      jump\t// in\n    tag_106:\n        /* \"contracts/assets/AssetRegistry.sol\":5866:5903  return _chainAssets[chainId].values() */\n      swap1\n      pop\n        /* \"contracts/assets/AssetRegistry.sol\":5774:5910  function getChainAssets(uint256 chainId) external view returns (address[] memory) {... */\n      swap2\n      swap1\n      pop\n      jump\t// out\n        /* \"contracts/assets/AssetRegistry.sol\":4427:4697  function updateChainStatus(uint256 chainId, bool isActive) external onlyRole(REGISTRAR_ROLE) {... */\n    tag_40:\n        /* \"contracts/assets/AssetRegistry.sol\":732:759  keccak256(\"REGISTRAR_ROLE\") */\n      0xedcc084d3dcd65a1f7f23c65c46722faca6953d28e43150a467cf43e5c309238\n        /* \"@openzeppelin/contracts/access/AccessControl.sol\":2464:2480  _checkRole(role) */\n      tag_109\n        /* \"@openzeppelin/contracts/access/AccessControl.sol\":2475:2479  role */\n      dup2\n        /* \"@openzeppelin/contracts/access/AccessControl.sol\":2464:2474  _checkRole */\n      tag_110\n        /* \"@openzeppelin/contracts/access/AccessControl.sol\":2464:2480  _checkRole(role) */\n      jump\t// in\n    tag_109:\n        /* \"contracts/assets/AssetRegistry.sol\":4538:4574  _supportedChainIds.contains(chainId) */\n      tag_112\n        /* \"contracts/assets/AssetRegistry.sol\":4566:4573  chainId */\n      dup4\n        /* \"contracts/assets/AssetRegistry.sol\":4538:4556  _supportedChainIds */\n      0x04\n        /* \"contracts/assets/AssetRegistry.sol\":4538:4565  _supportedChainIds.contains */\n      tag_113\n      swap1\n        /* \"contracts/assets/AssetRegistry.sol\":4538:4574  _supportedChainIds.contains(chainId) */\n      swap2\n      swap1\n      0xffffffff\n      and\n      jump\t// in\n    tag_112:\n        /* \"contracts/assets/AssetRegistry.sol\":4530:4598  require(_supportedChainIds.contains(chainId), \"Chain not supported\") */\n      tag_114\n      jumpi\n      mload(0x40)\n      0x08c379a000000000000000000000000000000000000000000000000000000000\n      dup2\n      mstore\n      0x04\n      add\n      tag_115\n      swap1\n      tag_116\n      jump\t// in\n    tag_115:\n      mload(0x40)\n      dup1\n      swap2\n      sub\n      swap1\n      revert\n    tag_114:\n        /* \"contracts/assets/AssetRegistry.sol\":4636:4644  isActive */\n      dup2\n        /* \"contracts/assets/AssetRegistry.sol\":4608:4615  _chains */\n      0x03\n        /* \"contracts/assets/AssetRegistry.sol\":4608:4624  _chains[chainId] */\n      0x00\n        /* \"contracts/assets/AssetRegistry.sol\":4616:4623  chainId */\n      dup6\n        /* \"contracts/assets/AssetRegistry.sol\":4608:4624  _chains[chainId] */\n      dup2\n      mstore\n      0x20\n      add\n      swap1\n      dup2\n      mstore\n      0x20\n      add\n      0x00\n      keccak256\n        /* \"contracts/assets/AssetRegistry.sol\":4608:4633  _chains[chainId].isActive */\n      0x02\n      add\n      0x00\n        /* \"contracts/assets/AssetRegistry.sol\":4608:4644  _chains[chainId].isActive = isActive */\n      0x0100\n      exp\n      dup2\n      sload\n      dup2\n      0xff\n      mul\n      not\n      and\n      swap1\n      dup4\n      iszero\n      iszero\n      mul\n      or\n      swap1\n      sstore\n      pop\n        /* \"contracts/assets/AssetRegistry.sol\":4672:4679  chainId */\n      dup3\n        /* \"contracts/assets/AssetRegistry.sol\":4659:4690  ChainUpdated(chainId, isActive) */\n      0x87634784dcd711c95eeada7ac1b47534172532618b7c1938b456431c04dad214\n        /* \"contracts/assets/AssetRegistry.sol\":4681:4689  isActive */\n      dup4\n        /* \"contracts/assets/AssetRegistry.sol\":4659:4690  ChainUpdated(chainId, isActive) */\n      mload(0x40)\n      tag_117\n      swap2\n      swap1\n      tag_30\n      jump\t// in\n    tag_117:\n      mload(0x40)\n      dup1\n      swap2\n      sub\n      swap1\n      log2\n        /* \"contracts/assets/AssetRegistry.sol\":4427:4697  function updateChainStatus(uint256 chainId, bool isActive) external onlyRole(REGISTRAR_ROLE) {... */\n      pop\n      pop\n      pop\n      jump\t// out\n        /* \"@openzeppelin/contracts/access/AccessControl.sol\":3810:3930  function getRoleAdmin(bytes32 role) public view virtual returns (bytes32) {... */\n    tag_44:\n        /* \"@openzeppelin/contracts/access/AccessControl.sol\":3875:3882  bytes32 */\n      0x00\n        /* \"@openzeppelin/contracts/access/AccessControl.sol\":3901:3907  _roles */\n      dup1\n        /* \"@openzeppelin/contracts/access/AccessControl.sol\":3901:3913  _roles[role] */\n      0x00\n        /* \"@openzeppelin/contracts/access/AccessControl.sol\":3908:3912  role */\n      dup4\n        /* \"@openzeppelin/contracts/access/AccessControl.sol\":3901:3913  _roles[role] */\n      dup2\n      mstore\n      0x20\n      add\n      swap1\n      dup2\n      mstore\n      0x20\n      add\n      0x00\n      keccak256\n        /* \"@openzeppelin/contracts/access/AccessControl.sol\":3901:3923  _roles[role].adminRole */\n      0x01\n      add\n      sload\n        /* \"@openzeppelin/contracts/access/AccessControl.sol\":3894:3923  return _roles[role].adminRole */\n      swap1\n      pop\n        /* \"@openzeppelin/contracts/access/AccessControl.sol\":3810:3930  function getRoleAdmin(bytes32 role) public view virtual returns (bytes32) {... */\n      swap2\n      swap1\n      pop\n      jump\t// out\n        /* \"contracts/assets/AssetRegistry.sol\":2277:3133  function registerAsset(... */\n    tag_50:\n        /* \"contracts/assets/AssetRegistry.sol\":732:759  keccak256(\"REGISTRAR_ROLE\") */\n      0xedcc084d3dcd65a1f7f23c65c46722faca6953d28e43150a467cf43e5c309238\n        /* \"@openzeppelin/contracts/access/AccessControl.sol\":2464:2480  _checkRole(role) */\n      tag_120\n        /* \"@openzeppelin/contracts/access/AccessControl.sol\":2475:2479  role */\n      dup2\n        /* \"@openzeppelin/contracts/access/AccessControl.sol\":2464:2474  _checkRole */\n      tag_110\n        /* \"@openzeppelin/contracts/access/AccessControl.sol\":2464:2480  _checkRole(role) */\n      jump\t// in\n    tag_120:\n        /* \"@openzeppelin/contracts/utils/Pausable.sol\":1474:1493  _requireNotPaused() */\n      tag_122\n        /* \"@openzeppelin/contracts/utils/Pausable.sol\":1474:1491  _requireNotPaused */\n      tag_123\n        /* \"@openzeppelin/contracts/utils/Pausable.sol\":1474:1493  _requireNotPaused() */\n      jump\t// in\n    tag_122:\n        /* \"contracts/assets/AssetRegistry.sol\":2538:2574  _supportedChainIds.contains(chainId) */\n      tag_125\n        /* \"contracts/assets/AssetRegistry.sol\":2566:2573  chainId */\n      dup8\n        /* \"contracts/assets/AssetRegistry.sol\":2538:2556  _supportedChainIds */\n      0x04\n        /* \"contracts/assets/AssetRegistry.sol\":2538:2565  _supportedChainIds.contains */\n      tag_113\n      swap1\n        /* \"contracts/assets/AssetRegistry.sol\":2538:2574  _supportedChainIds.contains(chainId) */\n      swap2\n      swap1\n      0xffffffff\n      and\n      jump\t// in\n    tag_125:\n        /* \"contracts/assets/AssetRegistry.sol\":2530:2598  require(_supportedChainIds.contains(chainId), \"Chain not supported\") */\n      tag_126\n      jumpi\n      mload(0x40)\n      0x08c379a000000000000000000000000000000000000000000000000000000000\n      dup2\n      mstore\n      0x04\n      add\n      tag_127\n      swap1\n      tag_116\n      jump\t// in\n    tag_127:\n      mload(0x40)\n      dup1\n      swap2\n      sub\n      swap1\n      revert\n    tag_126:\n        /* \"contracts/assets/AssetRegistry.sol\":2674:2675  0 */\n      0x00\n        /* \"contracts/assets/AssetRegistry.sol\":2616:2676  _assets[chainId][assetAddress].contractAddress == address(0) */\n      0xffffffffffffffffffffffffffffffffffffffff\n      and\n        /* \"contracts/assets/AssetRegistry.sol\":2616:2623  _assets */\n      0x02\n        /* \"contracts/assets/AssetRegistry.sol\":2616:2632  _assets[chainId] */\n      0x00\n        /* \"contracts/assets/AssetRegistry.sol\":2624:2631  chainId */\n      dup10\n        /* \"contracts/assets/AssetRegistry.sol\":2616:2632  _assets[chainId] */\n      dup2\n      mstore\n      0x20\n      add\n      swap1\n      dup2\n      mstore\n      0x20\n      add\n      0x00\n      keccak256\n        /* \"contracts/assets/AssetRegistry.sol\":2616:2646  _assets[chainId][assetAddress] */\n      0x00\n        /* \"contracts/assets/AssetRegistry.sol\":2633:2645  assetAddress */\n      dup9\n        /* \"contracts/assets/AssetRegistry.sol\":2616:2646  _assets[chainId][assetAddress] */\n      0xffffffffffffffffffffffffffffffffffffffff\n      and\n      0xffffffffffffffffffffffffffffffffffffffff\n      and\n      dup2\n      mstore\n      0x20\n      add\n      swap1\n      dup2\n      mstore\n      0x20\n      add\n      0x00\n      keccak256\n        /* \"contracts/assets/AssetRegistry.sol\":2616:2662  _assets[chainId][assetAddress].contractAddress */\n      0x00\n      add\n      0x00\n      swap1\n      sload\n      swap1\n      0x0100\n      exp\n      swap1\n      div\n      0xffffffffffffffffffffffffffffffffffffffff\n      and\n        /* \"contracts/assets/AssetRegistry.sol\":2616:2676  _assets[chainId][assetAddress].contractAddress == address(0) */\n      0xffffffffffffffffffffffffffffffffffffffff\n      and\n      eq\n        /* \"contracts/assets/AssetRegistry.sol\":2608:2705  require(_assets[chainId][assetAddress].contractAddress == address(0), \"Asset already registered\") */\n      tag_128\n      jumpi\n      mload(0x40)\n      0x08c379a000000000000000000000000000000000000000000000000000000000\n      dup2\n      mstore\n      0x04\n      add\n      tag_129\n      swap1\n      tag_130\n      jump\t// in\n    tag_129:\n      mload(0x40)\n      dup1\n      swap2\n      sub\n      swap1\n      revert\n    tag_128:\n        /* \"contracts/assets/AssetRegistry.sol\":2716:2737  Asset memory newAsset */\n      0x00\n        /* \"contracts/assets/AssetRegistry.sol\":2740:2946  Asset({... */\n      mload(0x40)\n      dup1\n      0xc0\n      add\n      0x40\n      mstore\n      dup1\n        /* \"contracts/assets/AssetRegistry.sol\":2777:2789  assetAddress */\n      dup9\n        /* \"contracts/assets/AssetRegistry.sol\":2740:2946  Asset({... */\n      0xffffffffffffffffffffffffffffffffffffffff\n      and\n      dup2\n      mstore\n      0x20\n      add\n        /* \"contracts/assets/AssetRegistry.sol\":2814:2823  assetType */\n      dup8\n        /* \"contracts/assets/AssetRegistry.sol\":2740:2946  Asset({... */\n      0x03\n      dup2\n      gt\n      iszero\n      tag_131\n      jumpi\n      tag_132\n      tag_133\n      jump\t// in\n    tag_132:\n    tag_131:\n      dup2\n      mstore\n      0x20\n      add\n        /* \"contracts/assets/AssetRegistry.sol\":2843:2847  name */\n      dup7\n        /* \"contracts/assets/AssetRegistry.sol\":2740:2946  Asset({... */\n      dup2\n      mstore\n      0x20\n      add\n        /* \"contracts/assets/AssetRegistry.sol\":2869:2875  symbol */\n      dup6\n        /* \"contracts/assets/AssetRegistry.sol\":2740:2946  Asset({... */\n      dup2\n      mstore\n      0x20\n      add\n        /* \"contracts/assets/AssetRegistry.sol\":2899:2907  decimals */\n      dup5\n        /* \"contracts/assets/AssetRegistry.sol\":2740:2946  Asset({... */\n      0xff\n      and\n      dup2\n      mstore\n      0x20\n      add\n        /* \"contracts/assets/AssetRegistry.sol\":2931:2935  true */\n      0x01\n        /* \"contracts/assets/AssetRegistry.sol\":2740:2946  Asset({... */\n      iszero\n      iszero\n      dup2\n      mstore\n      pop\n        /* \"contracts/assets/AssetRegistry.sol\":2716:2946  Asset memory newAsset = Asset({... */\n      swap1\n      pop\n        /* \"contracts/assets/AssetRegistry.sol\":2990:2998  newAsset */\n      dup1\n        /* \"contracts/assets/AssetRegistry.sol\":2957:2964  _assets */\n      0x02\n        /* \"contracts/assets/AssetRegistry.sol\":2957:2973  _assets[chainId] */\n      0x00\n        /* \"contracts/assets/AssetRegistry.sol\":2965:2972  chainId */\n      dup11\n        /* \"contracts/assets/AssetRegistry.sol\":2957:2973  _assets[chainId] */\n      dup2\n      mstore\n      0x20\n      add\n      swap1\n      dup2\n      mstore\n      0x20\n      add\n      0x00\n      keccak256\n        /* \"contracts/assets/AssetRegistry.sol\":2957:2987  _assets[chainId][assetAddress] */\n      0x00\n        /* \"contracts/assets/AssetRegistry.sol\":2974:2986  assetAddress */\n      dup10\n        /* \"contracts/assets/AssetRegistry.sol\":2957:2987  _assets[chainId][assetAddress] */\n      0xffffffffffffffffffffffffffffffffffffffff\n      and\n      0xffffffffffffffffffffffffffffffffffffffff\n      and\n      dup2\n      mstore\n      0x20\n      add\n      swap1\n      dup2\n      mstore\n      0x20\n      add\n      0x00\n      keccak256\n        /* \"contracts/assets/AssetRegistry.sol\":2957:2998  _assets[chainId][assetAddress] = newAsset */\n      0x00\n      dup3\n      add\n      mload\n      dup2\n      0x00\n      add\n      exp(0x0100, 0x00)\n      dup2\n      sload\n      dup2\n      0xffffffffffffffffffffffffffffffffffffffff\n      mul\n      not\n      and\n      swap1\n      dup4\n      0xffffffffffffffffffffffffffffffffffffffff\n      and\n      mul\n      or\n      swap1\n      sstore\n      pop\n      0x20\n      dup3\n      add\n      mload\n      dup2\n      0x00\n      add\n      exp(0x0100, 0x14)\n      dup2\n      sload\n      dup2\n      0xff\n      mul\n      not\n      and\n      swap1\n      dup4\n      0x03\n      dup2\n      gt\n      iszero\n      tag_134\n      jumpi\n      tag_135\n      tag_133\n      jump\t// in\n    tag_135:\n    tag_134:\n      mul\n      or\n      swap1\n      sstore\n      pop\n      0x40\n      dup3\n      add\n      mload\n      dup2\n      0x01\n      add\n      swap1\n      dup2\n      tag_136\n      swap2\n      swap1\n      tag_137\n      jump\t// in\n    tag_136:\n      pop\n      0x60\n      dup3\n      add\n      mload\n      dup2\n      0x02\n      add\n      swap1\n      dup2\n      tag_138\n      swap2\n      swap1\n      tag_137\n      jump\t// in\n    tag_138:\n      pop\n      0x80\n      dup3\n      add\n      mload\n      dup2\n      0x03\n      add\n      exp(0x0100, 0x00)\n      dup2\n      sload\n      dup2\n      0xff\n      mul\n      not\n      and\n      swap1\n      dup4\n      0xff\n      and\n      mul\n      or\n      swap1\n      sstore\n      pop\n      0xa0\n      dup3\n      add\n      mload\n      dup2\n      0x03\n      add\n      exp(0x0100, 0x01)\n      dup2\n      sload\n      dup2\n      0xff\n      mul\n      not\n      and\n      swap1\n      dup4\n      iszero\n      iszero\n      mul\n      or\n      swap1\n      sstore\n      pop\n      swap1\n      pop\n      pop\n        /* \"contracts/assets/AssetRegistry.sol\":3008:3047  _chainAssets[chainId].add(assetAddress) */\n      tag_139\n        /* \"contracts/assets/AssetRegistry.sol\":3034:3046  assetAddress */\n      dup8\n        /* \"contracts/assets/AssetRegistry.sol\":3008:3020  _chainAssets */\n      0x06\n        /* \"contracts/assets/AssetRegistry.sol\":3008:3029  _chainAssets[chainId] */\n      0x00\n        /* \"contracts/assets/AssetRegistry.sol\":3021:3028  chainId */\n      dup12\n        /* \"contracts/assets/AssetRegistry.sol\":3008:3029  _chainAssets[chainId] */\n      dup2\n      mstore\n      0x20\n      add\n      swap1\n      dup2\n      mstore\n      0x20\n      add\n      0x00\n      keccak256\n        /* \"contracts/assets/AssetRegistry.sol\":3008:3033  _chainAssets[chainId].add */\n      tag_140\n      swap1\n        /* \"contracts/assets/AssetRegistry.sol\":3008:3047  _chainAssets[chainId].add(assetAddress) */\n      swap2\n      swap1\n      0xffffffff\n      and\n      jump\t// in\n    tag_139:\n      pop\n        /* \"contracts/assets/AssetRegistry.sol\":3088:3100  assetAddress */\n      dup7\n        /* \"contracts/assets/AssetRegistry.sol\":3063:3126  AssetRegistered(chainId, assetAddress, assetType, name, symbol) */\n      0xffffffffffffffffffffffffffffffffffffffff\n      and\n        /* \"contracts/assets/AssetRegistry.sol\":3079:3086  chainId */\n      dup9\n        /* \"contracts/assets/AssetRegistry.sol\":3063:3126  AssetRegistered(chainId, assetAddress, assetType, name, symbol) */\n      0x571d5cf62fac2ebf1649f188d2552d1c79b668f2b66d94172b9af912c2666f82\n        /* \"contracts/assets/AssetRegistry.sol\":3102:3111  assetType */\n      dup9\n        /* \"contracts/assets/AssetRegistry.sol\":3113:3117  name */\n      dup9\n        /* \"contracts/assets/AssetRegistry.sol\":3119:3125  symbol */\n      dup9\n        /* \"contracts/assets/AssetRegistry.sol\":3063:3126  AssetRegistered(chainId, assetAddress, assetType, name, symbol) */\n      mload(0x40)\n      tag_141\n      swap4\n      swap3\n      swap2\n      swap1\n      tag_142\n      jump\t// in\n    tag_141:\n      mload(0x40)\n      dup1\n      swap2\n      sub\n      swap1\n      log3\n        /* \"contracts/assets/AssetRegistry.sol\":2520:3133  {... */\n      pop\n        /* \"contracts/assets/AssetRegistry.sol\":2277:3133  function registerAsset(... */\n      pop\n      pop\n      pop\n      pop\n      pop\n      pop\n      pop\n      jump\t// out\n        /* \"@openzeppelin/contracts/access/AccessControl.sol\":4226:4362  function grantRole(bytes32 role, address account) public virtual onlyRole(getRoleAdmin(role)) {... */\n    tag_54:\n        /* \"@openzeppelin/contracts/access/AccessControl.sol\":4300:4318  getRoleAdmin(role) */\n      tag_143\n        /* \"@openzeppelin/contracts/access/AccessControl.sol\":4313:4317  role */\n      dup3\n        /* \"@openzeppelin/contracts/access/AccessControl.sol\":4300:4312  getRoleAdmin */\n      tag_44\n        /* \"@openzeppelin/contracts/access/AccessControl.sol\":4300:4318  getRoleAdmin(role) */\n      jump\t// in\n    tag_143:\n        /* \"@openzeppelin/contracts/access/AccessControl.sol\":2464:2480  _checkRole(role) */\n      tag_145\n        /* \"@openzeppelin/contracts/access/AccessControl.sol\":2475:2479  role */\n      dup2\n        /* \"@openzeppelin/contracts/access/AccessControl.sol\":2464:2474  _checkRole */\n      tag_110\n        /* \"@openzeppelin/contracts/access/AccessControl.sol\":2464:2480  _checkRole(role) */\n      jump\t// in\n    tag_145:\n        /* \"@openzeppelin/contracts/access/AccessControl.sol\":4330:4355  _grantRole(role, account) */\n      tag_147\n        /* \"@openzeppelin/contracts/access/AccessControl.sol\":4341:4345  role */\n      dup4\n        /* \"@openzeppelin/contracts/access/AccessControl.sol\":4347:4354  account */\n      dup4\n        /* \"@openzeppelin/contracts/access/AccessControl.sol\":4330:4340  _grantRole */\n      tag_148\n        /* \"@openzeppelin/contracts/access/AccessControl.sol\":4330:4355  _grantRole(role, account) */\n      jump\t// in\n    tag_147:\n      pop\n        /* \"@openzeppelin/contracts/access/AccessControl.sol\":4226:4362  function grantRole(bytes32 role, address account) public virtual onlyRole(getRoleAdmin(role)) {... */\n      pop\n      pop\n      pop\n      jump\t// out\n        /* \"@openzeppelin/contracts/access/AccessControl.sol\":5328:5573  function renounceRole(bytes32 role, address callerConfirmation) public virtual {... */\n    tag_57:\n        /* \"@openzeppelin/contracts/access/AccessControl.sol\":5443:5455  _msgSender() */\n      tag_150\n        /* \"@openzeppelin/contracts/access/AccessControl.sol\":5443:5453  _msgSender */\n      tag_151\n        /* \"@openzeppelin/contracts/access/AccessControl.sol\":5443:5455  _msgSender() */\n      jump\t// in\n    tag_150:\n        /* \"@openzeppelin/contracts/access/AccessControl.sol\":5421:5455  callerConfirmation != _msgSender() */\n      0xffffffffffffffffffffffffffffffffffffffff\n      and\n        /* \"@openzeppelin/contracts/access/AccessControl.sol\":5421:5439  callerConfirmation */\n      dup2\n        /* \"@openzeppelin/contracts/access/AccessControl.sol\":5421:5455  callerConfirmation != _msgSender() */\n      0xffffffffffffffffffffffffffffffffffffffff\n      and\n      eq\n        /* \"@openzeppelin/contracts/access/AccessControl.sol\":5417:5519  if (callerConfirmation != _msgSender()) {... */\n      tag_152\n      jumpi\n        /* \"@openzeppelin/contracts/access/AccessControl.sol\":5478:5508  AccessControlBadConfirmation() */\n      mload(0x40)\n      0x6697b23200000000000000000000000000000000000000000000000000000000\n      dup2\n      mstore\n      0x04\n      add\n      mload(0x40)\n      dup1\n      swap2\n      sub\n      swap1\n      revert\n        /* \"@openzeppelin/contracts/access/AccessControl.sol\":5417:5519  if (callerConfirmation != _msgSender()) {... */\n    tag_152:\n        /* \"@openzeppelin/contracts/access/AccessControl.sol\":5529:5566  _revokeRole(role, callerConfirmation) */\n      tag_153\n        /* \"@openzeppelin/contracts/access/AccessControl.sol\":5541:5545  role */\n      dup3\n        /* \"@openzeppelin/contracts/access/AccessControl.sol\":5547:5565  callerConfirmation */\n      dup3\n        /* \"@openzeppelin/contracts/access/AccessControl.sol\":5529:5540  _revokeRole */\n      tag_154\n        /* \"@openzeppelin/contracts/access/AccessControl.sol\":5529:5566  _revokeRole(role, callerConfirmation) */\n      jump\t// in\n    tag_153:\n      pop\n        /* \"@openzeppelin/contracts/access/AccessControl.sol\":5328:5573  function renounceRole(bytes32 role, address callerConfirmation) public virtual {... */\n      pop\n      pop\n      jump\t// out\n        /* \"contracts/assets/AssetRegistry.sol\":6100:6184  function unpause() external onlyRole(DEFAULT_ADMIN_ROLE) {... */\n    tag_59:\n        /* \"@openzeppelin/contracts/access/AccessControl.sol\":2232:2236  0x00 */\n      0x00\n        /* \"contracts/assets/AssetRegistry.sol\":6137:6155  DEFAULT_ADMIN_ROLE */\n      dup1\n      shl\n        /* \"@openzeppelin/contracts/access/AccessControl.sol\":2464:2480  _checkRole(role) */\n      tag_156\n        /* \"@openzeppelin/contracts/access/AccessControl.sol\":2475:2479  role */\n      dup2\n        /* \"@openzeppelin/contracts/access/AccessControl.sol\":2464:2474  _checkRole */\n      tag_110\n        /* \"@openzeppelin/contracts/access/AccessControl.sol\":2464:2480  _checkRole(role) */\n      jump\t// in\n    tag_156:\n        /* \"contracts/assets/AssetRegistry.sol\":6167:6177  _unpause() */\n      tag_158\n        /* \"contracts/assets/AssetRegistry.sol\":6167:6175  _unpause */\n      tag_159\n        /* \"contracts/assets/AssetRegistry.sol\":6167:6177  _unpause() */\n      jump\t// in\n    tag_158:\n        /* \"contracts/assets/AssetRegistry.sol\":6100:6184  function unpause() external onlyRole(DEFAULT_ADMIN_ROLE) {... */\n      pop\n      jump\t// out\n        /* \"@openzeppelin/contracts/utils/Pausable.sol\":1850:1934  function paused() public view virtual returns (bool) {... */\n    tag_61:\n        /* \"@openzeppelin/contracts/utils/Pausable.sol\":1897:1901  bool */\n      0x00\n        /* \"@openzeppelin/contracts/utils/Pausable.sol\":1920:1927  _paused */\n      0x01\n      0x00\n      swap1\n      sload\n      swap1\n      0x0100\n      exp\n      swap1\n      div\n      0xff\n      and\n        /* \"@openzeppelin/contracts/utils/Pausable.sol\":1913:1927  return _paused */\n      swap1\n      pop\n        /* \"@openzeppelin/contracts/utils/Pausable.sol\":1850:1934  function paused() public view virtual returns (bool) {... */\n      swap1\n      jump\t// out\n        /* \"contracts/assets/AssetRegistry.sol\":5248:5368  function getChainInfo(uint256 chainId) external view returns (ChainInfo memory) {... */\n    tag_65:\n        /* \"contracts/assets/AssetRegistry.sol\":5310:5326  ChainInfo memory */\n      tag_161\n      tag_162\n      jump\t// in\n    tag_161:\n        /* \"contracts/assets/AssetRegistry.sol\":5345:5352  _chains */\n      0x03\n        /* \"contracts/assets/AssetRegistry.sol\":5345:5361  _chains[chainId] */\n      0x00\n        /* \"contracts/assets/AssetRegistry.sol\":5353:5360  chainId */\n      dup4\n        /* \"contracts/assets/AssetRegistry.sol\":5345:5361  _chains[chainId] */\n      dup2\n      mstore\n      0x20\n      add\n      swap1\n      dup2\n      mstore\n      0x20\n      add\n      0x00\n      keccak256\n        /* \"contracts/assets/AssetRegistry.sol\":5338:5361  return _chains[chainId] */\n      mload(0x40)\n      dup1\n      0x60\n      add\n      0x40\n      mstore\n      swap1\n      dup2\n      0x00\n      dup3\n      add\n      sload\n      dup2\n      mstore\n      0x20\n      add\n      0x01\n      dup3\n      add\n      dup1\n      sload\n      tag_164\n      swap1\n      tag_165\n      jump\t// in\n    tag_164:\n      dup1\n      0x1f\n      add\n      0x20\n      dup1\n      swap2\n      div\n      mul\n      0x20\n      add\n      mload(0x40)\n      swap1\n      dup2\n      add\n      0x40\n      mstore\n      dup1\n      swap3\n      swap2\n      swap1\n      dup2\n      dup2\n      mstore\n      0x20\n      add\n      dup3\n      dup1\n      sload\n      tag_166\n      swap1\n      tag_165\n      jump\t// in\n    tag_166:\n      dup1\n      iszero\n      tag_167\n      jumpi\n      dup1\n      0x1f\n      lt\n      tag_168\n      jumpi\n      0x0100\n      dup1\n      dup4\n      sload\n      div\n      mul\n      dup4\n      mstore\n      swap2\n      0x20\n      add\n      swap2\n      jump(tag_167)\n    tag_168:\n      dup3\n      add\n      swap2\n      swap1\n      0x00\n      mstore\n      keccak256(0x00, 0x20)\n      swap1\n    tag_169:\n      dup2\n      sload\n      dup2\n      mstore\n      swap1\n      0x01\n      add\n      swap1\n      0x20\n      add\n      dup1\n      dup4\n      gt\n      tag_169\n      jumpi\n      dup3\n      swap1\n      sub\n      0x1f\n      and\n      dup3\n      add\n      swap2\n    tag_167:\n      pop\n      pop\n      pop\n      pop\n      pop\n      dup2\n      mstore\n      0x20\n      add\n      0x02\n      dup3\n      add\n      0x00\n      swap1\n      sload\n      swap1\n      0x0100\n      exp\n      swap1\n      div\n      0xff\n      and\n      iszero\n      iszero\n      iszero\n      iszero\n      dup2\n      mstore\n      pop\n      pop\n      swap1\n      pop\n        /* \"contracts/assets/AssetRegistry.sol\":5248:5368  function getChainInfo(uint256 chainId) external view returns (ChainInfo memory) {... */\n      swap2\n      swap1\n      pop\n      jump\t// out\n        /* \"contracts/assets/AssetRegistry.sol\":5964:6044  function pause() external onlyRole(DEFAULT_ADMIN_ROLE) {... */\n    tag_69:\n        /* \"@openzeppelin/contracts/access/AccessControl.sol\":2232:2236  0x00 */\n      0x00\n        /* \"contracts/assets/AssetRegistry.sol\":5999:6017  DEFAULT_ADMIN_ROLE */\n      dup1\n      shl\n        /* \"@openzeppelin/contracts/access/AccessControl.sol\":2464:2480  _checkRole(role) */\n      tag_171\n        /* \"@openzeppelin/contracts/access/AccessControl.sol\":2475:2479  role */\n      dup2\n        /* \"@openzeppelin/contracts/access/AccessControl.sol\":2464:2474  _checkRole */\n      tag_110\n        /* \"@openzeppelin/contracts/access/AccessControl.sol\":2464:2480  _checkRole(role) */\n      jump\t// in\n    tag_171:\n        /* \"contracts/assets/AssetRegistry.sol\":6029:6037  _pause() */\n      tag_173\n        /* \"contracts/assets/AssetRegistry.sol\":6029:6035  _pause */\n      tag_174\n        /* \"contracts/assets/AssetRegistry.sol\":6029:6037  _pause() */\n      jump\t// in\n    tag_173:\n        /* \"contracts/assets/AssetRegistry.sol\":5964:6044  function pause() external onlyRole(DEFAULT_ADMIN_ROLE) {... */\n      pop\n      jump\t// out\n        /* \"@openzeppelin/contracts/access/AccessControl.sol\":2854:2990  function hasRole(bytes32 role, address account) public view virtual returns (bool) {... */\n    tag_72:\n        /* \"@openzeppelin/contracts/access/AccessControl.sol\":2931:2935  bool */\n      0x00\n        /* \"@openzeppelin/contracts/access/AccessControl.sol\":2954:2960  _roles */\n      dup1\n        /* \"@openzeppelin/contracts/access/AccessControl.sol\":2954:2966  _roles[role] */\n      0x00\n        /* \"@openzeppelin/contracts/access/AccessControl.sol\":2961:2965  role */\n      dup5\n        /* \"@openzeppelin/contracts/access/AccessControl.sol\":2954:2966  _roles[role] */\n      dup2\n      mstore\n      0x20\n      add\n      swap1\n      dup2\n      mstore\n      0x20\n      add\n      0x00\n      keccak256\n        /* \"@openzeppelin/contracts/access/AccessControl.sol\":2954:2974  _roles[role].hasRole */\n      0x00\n      add\n        /* \"@openzeppelin/contracts/access/AccessControl.sol\":2954:2983  _roles[role].hasRole[account] */\n      0x00\n        /* \"@openzeppelin/contracts/access/AccessControl.sol\":2975:2982  account */\n      dup4\n        /* \"@openzeppelin/contracts/access/AccessControl.sol\":2954:2983  _roles[role].hasRole[account] */\n      0xffffffffffffffffffffffffffffffffffffffff\n      and\n      0xffffffffffffffffffffffffffffffffffffffff\n      and\n      dup2\n      mstore\n      0x20\n      add\n      swap1\n      dup2\n      mstore\n      0x20\n      add\n      0x00\n      keccak256\n      0x00\n      swap1\n      sload\n      swap1\n      0x0100\n      exp\n      swap1\n      div\n      0xff\n      and\n        /* \"@openzeppelin/contracts/access/AccessControl.sol\":2947:2983  return _roles[role].hasRole[account] */\n      swap1\n      pop\n        /* \"@openzeppelin/contracts/access/AccessControl.sol\":2854:2990  function hasRole(bytes32 role, address account) public view virtual returns (bool) {... */\n      swap3\n      swap2\n      pop\n      pop\n      jump\t// out\n        /* \"@openzeppelin/contracts/access/AccessControl.sol\":2187:2236  bytes32 public constant DEFAULT_ADMIN_ROLE = 0x00 */\n    tag_75:\n        /* \"@openzeppelin/contracts/access/AccessControl.sol\":2232:2236  0x00 */\n      0x00\n        /* \"@openzeppelin/contracts/access/AccessControl.sol\":2187:2236  bytes32 public constant DEFAULT_ADMIN_ROLE = 0x00 */\n      dup1\n      shl\n      dup2\n      jump\t// out\n        /* \"contracts/assets/AssetRegistry.sol\":3867:4259  function addChain(uint256 chainId, string memory name) external onlyRole(REGISTRAR_ROLE) {... */\n    tag_80:\n        /* \"contracts/assets/AssetRegistry.sol\":732:759  keccak256(\"REGISTRAR_ROLE\") */\n      0xedcc084d3dcd65a1f7f23c65c46722faca6953d28e43150a467cf43e5c309238\n        /* \"@openzeppelin/contracts/access/AccessControl.sol\":2464:2480  _checkRole(role) */\n      tag_177\n        /* \"@openzeppelin/contracts/access/AccessControl.sol\":2475:2479  role */\n      dup2\n        /* \"@openzeppelin/contracts/access/AccessControl.sol\":2464:2474  _checkRole */\n      tag_110\n        /* \"@openzeppelin/contracts/access/AccessControl.sol\":2464:2480  _checkRole(role) */\n      jump\t// in\n    tag_177:\n        /* \"contracts/assets/AssetRegistry.sol\":3975:4011  _supportedChainIds.contains(chainId) */\n      tag_179\n        /* \"contracts/assets/AssetRegistry.sol\":4003:4010  chainId */\n      dup4\n        /* \"contracts/assets/AssetRegistry.sol\":3975:3993  _supportedChainIds */\n      0x04\n        /* \"contracts/assets/AssetRegistry.sol\":3975:4002  _supportedChainIds.contains */\n      tag_113\n      swap1\n        /* \"contracts/assets/AssetRegistry.sol\":3975:4011  _supportedChainIds.contains(chainId) */\n      swap2\n      swap1\n      0xffffffff\n      and\n      jump\t// in\n    tag_179:\n        /* \"contracts/assets/AssetRegistry.sol\":3974:4011  !_supportedChainIds.contains(chainId) */\n      iszero\n        /* \"contracts/assets/AssetRegistry.sol\":3966:4039  require(!_supportedChainIds.contains(chainId), \"Chain already supported\") */\n      tag_180\n      jumpi\n      mload(0x40)\n      0x08c379a000000000000000000000000000000000000000000000000000000000\n      dup2\n      mstore\n      0x04\n      add\n      tag_181\n      swap1\n      tag_182\n      jump\t// in\n    tag_181:\n      mload(0x40)\n      dup1\n      swap2\n      sub\n      swap1\n      revert\n    tag_180:\n        /* \"contracts/assets/AssetRegistry.sol\":4049:4080  _supportedChainIds.add(chainId) */\n      tag_183\n        /* \"contracts/assets/AssetRegistry.sol\":4072:4079  chainId */\n      dup4\n        /* \"contracts/assets/AssetRegistry.sol\":4049:4067  _supportedChainIds */\n      0x04\n        /* \"contracts/assets/AssetRegistry.sol\":4049:4071  _supportedChainIds.add */\n      tag_184\n      swap1\n        /* \"contracts/assets/AssetRegistry.sol\":4049:4080  _supportedChainIds.add(chainId) */\n      swap2\n      swap1\n      0xffffffff\n      and\n      jump\t// in\n    tag_183:\n      pop\n        /* \"contracts/assets/AssetRegistry.sol\":4109:4212  ChainInfo({... */\n      mload(0x40)\n      dup1\n      0x60\n      add\n      0x40\n      mstore\n      dup1\n        /* \"contracts/assets/AssetRegistry.sol\":4142:4149  chainId */\n      dup5\n        /* \"contracts/assets/AssetRegistry.sol\":4109:4212  ChainInfo({... */\n      dup2\n      mstore\n      0x20\n      add\n        /* \"contracts/assets/AssetRegistry.sol\":4169:4173  name */\n      dup4\n        /* \"contracts/assets/AssetRegistry.sol\":4109:4212  ChainInfo({... */\n      dup2\n      mstore\n      0x20\n      add\n        /* \"contracts/assets/AssetRegistry.sol\":4197:4201  true */\n      0x01\n        /* \"contracts/assets/AssetRegistry.sol\":4109:4212  ChainInfo({... */\n      iszero\n      iszero\n      dup2\n      mstore\n      pop\n        /* \"contracts/assets/AssetRegistry.sol\":4090:4097  _chains */\n      0x03\n        /* \"contracts/assets/AssetRegistry.sol\":4090:4106  _chains[chainId] */\n      0x00\n        /* \"contracts/assets/AssetRegistry.sol\":4098:4105  chainId */\n      dup6\n        /* \"contracts/assets/AssetRegistry.sol\":4090:4106  _chains[chainId] */\n      dup2\n      mstore\n      0x20\n      add\n      swap1\n      dup2\n      mstore\n      0x20\n      add\n      0x00\n      keccak256\n        /* \"contracts/assets/AssetRegistry.sol\":4090:4212  _chains[chainId] = ChainInfo({... */\n      0x00\n      dup3\n      add\n      mload\n      dup2\n      0x00\n      add\n      sstore\n      0x20\n      dup3\n      add\n      mload\n      dup2\n      0x01\n      add\n      swap1\n      dup2\n      tag_185\n      swap2\n      swap1\n      tag_137\n      jump\t// in\n    tag_185:\n      pop\n      0x40\n      dup3\n      add\n      mload\n      dup2\n      0x02\n      add\n      exp(0x0100, 0x00)\n      dup2\n      sload\n      dup2\n      0xff\n      mul\n      not\n      and\n      swap1\n      dup4\n      iszero\n      iszero\n      mul\n      or\n      swap1\n      sstore\n      pop\n      swap1\n      pop\n      pop\n        /* \"contracts/assets/AssetRegistry.sol\":4238:4245  chainId */\n      dup3\n        /* \"contracts/assets/AssetRegistry.sol\":4227:4252  ChainAdded(chainId, name) */\n      0x12d56340507874cc704f6a6ea33cc1d871be90637f1fae4e6e1e1cbd77da3ffd\n        /* \"contracts/assets/AssetRegistry.sol\":4247:4251  name */\n      dup4\n        /* \"contracts/assets/AssetRegistry.sol\":4227:4252  ChainAdded(chainId, name) */\n      mload(0x40)\n      tag_186\n      swap2\n      swap1\n      tag_187\n      jump\t// in\n    tag_186:\n      mload(0x40)\n      dup1\n      swap2\n      sub\n      swap1\n      log2\n        /* \"contracts/assets/AssetRegistry.sol\":3867:4259  function addChain(uint256 chainId, string memory name) external onlyRole(REGISTRAR_ROLE) {... */\n      pop\n      pop\n      pop\n      jump\t// out\n        /* \"contracts/assets/AssetRegistry.sol\":3369:3714  function updateAssetStatus(uint256 chainId, address assetAddress, bool isActive) external onlyRole(REGISTRAR_ROLE) {... */\n    tag_84:\n        /* \"contracts/assets/AssetRegistry.sol\":732:759  keccak256(\"REGISTRAR_ROLE\") */\n      0xedcc084d3dcd65a1f7f23c65c46722faca6953d28e43150a467cf43e5c309238\n        /* \"@openzeppelin/contracts/access/AccessControl.sol\":2464:2480  _checkRole(role) */\n      tag_189\n        /* \"@openzeppelin/contracts/access/AccessControl.sol\":2475:2479  role */\n      dup2\n        /* \"@openzeppelin/contracts/access/AccessControl.sol\":2464:2474  _checkRole */\n      tag_110\n        /* \"@openzeppelin/contracts/access/AccessControl.sol\":2464:2480  _checkRole(role) */\n      jump\t// in\n    tag_189:\n        /* \"contracts/assets/AssetRegistry.sol\":3560:3561  0 */\n      0x00\n        /* \"contracts/assets/AssetRegistry.sol\":3502:3562  _assets[chainId][assetAddress].contractAddress != address(0) */\n      0xffffffffffffffffffffffffffffffffffffffff\n      and\n        /* \"contracts/assets/AssetRegistry.sol\":3502:3509  _assets */\n      0x02\n        /* \"contracts/assets/AssetRegistry.sol\":3502:3518  _assets[chainId] */\n      0x00\n        /* \"contracts/assets/AssetRegistry.sol\":3510:3517  chainId */\n      dup7\n        /* \"contracts/assets/AssetRegistry.sol\":3502:3518  _assets[chainId] */\n      dup2\n      mstore\n      0x20\n      add\n      swap1\n      dup2\n      mstore\n      0x20\n      add\n      0x00\n      keccak256\n        /* \"contracts/assets/AssetRegistry.sol\":3502:3532  _assets[chainId][assetAddress] */\n      0x00\n        /* \"contracts/assets/AssetRegistry.sol\":3519:3531  assetAddress */\n      dup6\n        /* \"contracts/assets/AssetRegistry.sol\":3502:3532  _assets[chainId][assetAddress] */\n      0xffffffffffffffffffffffffffffffffffffffff\n      and\n      0xffffffffffffffffffffffffffffffffffffffff\n      and\n      dup2\n      mstore\n      0x20\n      add\n      swap1\n      dup2\n      mstore\n      0x20\n      add\n      0x00\n      keccak256\n        /* \"contracts/assets/AssetRegistry.sol\":3502:3548  _assets[chainId][assetAddress].contractAddress */\n      0x00\n      add\n      0x00\n      swap1\n      sload\n      swap1\n      0x0100\n      exp\n      swap1\n      div\n      0xffffffffffffffffffffffffffffffffffffffff\n      and\n        /* \"contracts/assets/AssetRegistry.sol\":3502:3562  _assets[chainId][assetAddress].contractAddress != address(0) */\n      0xffffffffffffffffffffffffffffffffffffffff\n      and\n      sub\n        /* \"contracts/assets/AssetRegistry.sol\":3494:3587  require(_assets[chainId][assetAddress].contractAddress != address(0), \"Asset not registered\") */\n      tag_191\n      jumpi\n      mload(0x40)\n      0x08c379a000000000000000000000000000000000000000000000000000000000\n      dup2\n      mstore\n      0x04\n      add\n      tag_192\n      swap1\n      tag_193\n      jump\t// in\n    tag_192:\n      mload(0x40)\n      dup1\n      swap2\n      sub\n      swap1\n      revert\n    tag_191:\n        /* \"contracts/assets/AssetRegistry.sol\":3639:3647  isActive */\n      dup2\n        /* \"contracts/assets/AssetRegistry.sol\":3597:3604  _assets */\n      0x02\n        /* \"contracts/assets/AssetRegistry.sol\":3597:3613  _assets[chainId] */\n      0x00\n        /* \"contracts/assets/AssetRegistry.sol\":3605:3612  chainId */\n      dup7\n        /* \"contracts/assets/AssetRegistry.sol\":3597:3613  _assets[chainId] */\n      dup2\n      mstore\n      0x20\n      add\n      swap1\n      dup2\n      mstore\n      0x20\n      add\n      0x00\n      keccak256\n        /* \"contracts/assets/AssetRegistry.sol\":3597:3627  _assets[chainId][assetAddress] */\n      0x00\n        /* \"contracts/assets/AssetRegistry.sol\":3614:3626  assetAddress */\n      dup6\n        /* \"contracts/assets/AssetRegistry.sol\":3597:3627  _assets[chainId][assetAddress] */\n      0xffffffffffffffffffffffffffffffffffffffff\n      and\n      0xffffffffffffffffffffffffffffffffffffffff\n      and\n      dup2\n      mstore\n      0x20\n      add\n      swap1\n      dup2\n      mstore\n      0x20\n      add\n      0x00\n      keccak256\n        /* \"contracts/assets/AssetRegistry.sol\":3597:3636  _assets[chainId][assetAddress].isActive */\n      0x03\n      add\n      0x01\n        /* \"contracts/assets/AssetRegistry.sol\":3597:3647  _assets[chainId][assetAddress].isActive = isActive */\n      0x0100\n      exp\n      dup2\n      sload\n      dup2\n      0xff\n      mul\n      not\n      and\n      swap1\n      dup4\n      iszero\n      iszero\n      mul\n      or\n      swap1\n      sstore\n      pop\n        /* \"contracts/assets/AssetRegistry.sol\":3684:3696  assetAddress */\n      dup3\n        /* \"contracts/assets/AssetRegistry.sol\":3662:3707  AssetUpdated(chainId, assetAddress, isActive) */\n      0xffffffffffffffffffffffffffffffffffffffff\n      and\n        /* \"contracts/assets/AssetRegistry.sol\":3675:3682  chainId */\n      dup5\n        /* \"contracts/assets/AssetRegistry.sol\":3662:3707  AssetUpdated(chainId, assetAddress, isActive) */\n      0xce6315d17c79350e737a11e641e32024ae26a2500d55b7e62cc61268811c7fbb\n        /* \"contracts/assets/AssetRegistry.sol\":3698:3706  isActive */\n      dup5\n        /* \"contracts/assets/AssetRegistry.sol\":3662:3707  AssetUpdated(chainId, assetAddress, isActive) */\n      mload(0x40)\n      tag_194\n      swap2\n      swap1\n      tag_30\n      jump\t// in\n    tag_194:\n      mload(0x40)\n      dup1\n      swap2\n      sub\n      swap1\n      log3\n        /* \"contracts/assets/AssetRegistry.sol\":3369:3714  function updateAssetStatus(uint256 chainId, address assetAddress, bool isActive) external onlyRole(REGISTRAR_ROLE) {... */\n      pop\n      pop\n      pop\n      pop\n      jump\t// out\n        /* \"@openzeppelin/contracts/access/AccessControl.sol\":4642:4780  function revokeRole(bytes32 role, address account) public virtual onlyRole(getRoleAdmin(role)) {... */\n    tag_87:\n        /* \"@openzeppelin/contracts/access/AccessControl.sol\":4717:4735  getRoleAdmin(role) */\n      tag_195\n        /* \"@openzeppelin/contracts/access/AccessControl.sol\":4730:4734  role */\n      dup3\n        /* \"@openzeppelin/contracts/access/AccessControl.sol\":4717:4729  getRoleAdmin */\n      tag_44\n        /* \"@openzeppelin/contracts/access/AccessControl.sol\":4717:4735  getRoleAdmin(role) */\n      jump\t// in\n    tag_195:\n        /* \"@openzeppelin/contracts/access/AccessControl.sol\":2464:2480  _checkRole(role) */\n      tag_197\n        /* \"@openzeppelin/contracts/access/AccessControl.sol\":2475:2479  role */\n      dup2\n        /* \"@openzeppelin/contracts/access/AccessControl.sol\":2464:2474  _checkRole */\n      tag_110\n        /* \"@openzeppelin/contracts/access/AccessControl.sol\":2464:2480  _checkRole(role) */\n      jump\t// in\n    tag_197:\n        /* \"@openzeppelin/contracts/access/AccessControl.sol\":4747:4773  _revokeRole(role, account) */\n      tag_199\n        /* \"@openzeppelin/contracts/access/AccessControl.sol\":4759:4763  role */\n      dup4\n        /* \"@openzeppelin/contracts/access/AccessControl.sol\":4765:4772  account */\n      dup4\n        /* \"@openzeppelin/contracts/access/AccessControl.sol\":4747:4758  _revokeRole */\n      tag_154\n        /* \"@openzeppelin/contracts/access/AccessControl.sol\":4747:4773  _revokeRole(role, account) */\n      jump\t// in\n    tag_199:\n      pop\n        /* \"@openzeppelin/contracts/access/AccessControl.sol\":4642:4780  function revokeRole(bytes32 role, address account) public virtual onlyRole(getRoleAdmin(role)) {... */\n      pop\n      pop\n      pop\n      jump\t// out\n        /* \"contracts/assets/AssetRegistry.sol\":4935:5083  function getAsset(uint256 chainId, address assetAddress) external view returns (Asset memory) {... */\n    tag_91:\n        /* \"contracts/assets/AssetRegistry.sol\":5015:5027  Asset memory */\n      tag_200\n      tag_201\n      jump\t// in\n    tag_200:\n        /* \"contracts/assets/AssetRegistry.sol\":5046:5053  _assets */\n      0x02\n        /* \"contracts/assets/AssetRegistry.sol\":5046:5062  _assets[chainId] */\n      0x00\n        /* \"contracts/assets/AssetRegistry.sol\":5054:5061  chainId */\n      dup5\n        /* \"contracts/assets/AssetRegistry.sol\":5046:5062  _assets[chainId] */\n      dup2\n      mstore\n      0x20\n      add\n      swap1\n      dup2\n      mstore\n      0x20\n      add\n      0x00\n      keccak256\n        /* \"contracts/assets/AssetRegistry.sol\":5046:5076  _assets[chainId][assetAddress] */\n      0x00\n        /* \"contracts/assets/AssetRegistry.sol\":5063:5075  assetAddress */\n      dup4\n        /* \"contracts/assets/AssetRegistry.sol\":5046:5076  _assets[chainId][assetAddress] */\n      0xffffffffffffffffffffffffffffffffffffffff\n      and\n      0xffffffffffffffffffffffffffffffffffffffff\n      and\n      dup2\n      mstore\n      0x20\n      add\n      swap1\n      dup2\n      mstore\n      0x20\n      add\n      0x00\n      keccak256\n        /* \"contracts/assets/AssetRegistry.sol\":5039:5076  return _assets[chainId][assetAddress] */\n      mload(0x40)\n      dup1\n      0xc0\n      add\n      0x40\n      mstore\n      swap1\n      dup2\n      0x00\n      dup3\n      add\n      0x00\n      swap1\n      sload\n      swap1\n      0x0100\n      exp\n      swap1\n      div\n      0xffffffffffffffffffffffffffffffffffffffff\n      and\n      0xffffffffffffffffffffffffffffffffffffffff\n      and\n      0xffffffffffffffffffffffffffffffffffffffff\n      and\n      dup2\n      mstore\n      0x20\n      add\n      0x00\n      dup3\n      add\n      0x14\n      swap1\n      sload\n      swap1\n      0x0100\n      exp\n      swap1\n      div\n      0xff\n      and\n      0x03\n      dup2\n      gt\n      iszero\n      tag_203\n      jumpi\n      tag_204\n      tag_133\n      jump\t// in\n    tag_204:\n    tag_203:\n      0x03\n      dup2\n      gt\n      iszero\n      tag_205\n      jumpi\n      tag_206\n      tag_133\n      jump\t// in\n    tag_206:\n    tag_205:\n      dup2\n      mstore\n      0x20\n      add\n      0x01\n      dup3\n      add\n      dup1\n      sload\n      tag_207\n      swap1\n      tag_165\n      jump\t// in\n    tag_207:\n      dup1\n      0x1f\n      add\n      0x20\n      dup1\n      swap2\n      div\n      mul\n      0x20\n      add\n      mload(0x40)\n      swap1\n      dup2\n      add\n      0x40\n      mstore\n      dup1\n      swap3\n      swap2\n      swap1\n      dup2\n      dup2\n      mstore\n      0x20\n      add\n      dup3\n      dup1\n      sload\n      tag_208\n      swap1\n      tag_165\n      jump\t// in\n    tag_208:\n      dup1\n      iszero\n      tag_209\n      jumpi\n      dup1\n      0x1f\n      lt\n      tag_210\n      jumpi\n      0x0100\n      dup1\n      dup4\n      sload\n      div\n      mul\n      dup4\n      mstore\n      swap2\n      0x20\n      add\n      swap2\n      jump(tag_209)\n    tag_210:\n      dup3\n      add\n      swap2\n      swap1\n      0x00\n      mstore\n      keccak256(0x00, 0x20)\n      swap1\n    tag_211:\n      dup2\n      sload\n      dup2\n      mstore\n      swap1\n      0x01\n      add\n      swap1\n      0x20\n      add\n      dup1\n      dup4\n      gt\n      tag_211\n      jumpi\n      dup3\n      swap1\n      sub\n      0x1f\n      and\n      dup3\n      add\n      swap2\n    tag_209:\n      pop\n      pop\n      pop\n      pop\n      pop\n      dup2\n      mstore\n      0x20\n      add\n      0x02\n      dup3\n      add\n      dup1\n      sload\n      tag_212\n      swap1\n      tag_165\n      jump\t// in\n    tag_212:\n      dup1\n      0x1f\n      add\n      0x20\n      dup1\n      swap2\n      div\n      mul\n      0x20\n      add\n      mload(0x40)\n      swap1\n      dup2\n      add\n      0x40\n      mstore\n      dup1\n      swap3\n      swap2\n      swap1\n      dup2\n      dup2\n      mstore\n      0x20\n      add\n      dup3\n      dup1\n      sload\n      tag_213\n      swap1\n      tag_165\n      jump\t// in\n    tag_213:\n      dup1\n      iszero\n      tag_214\n      jumpi\n      dup1\n      0x1f\n      lt\n      tag_215\n      jumpi\n      0x0100\n      dup1\n      dup4\n      sload\n      div\n      mul\n      dup4\n      mstore\n      swap2\n      0x20\n      add\n      swap2\n      jump(tag_214)\n    tag_215:\n      dup3\n      add\n      swap2\n      swap1\n      0x00\n      mstore\n      keccak256(0x00, 0x20)\n      swap1\n    tag_216:\n      dup2\n      sload\n      dup2\n      mstore\n      swap1\n      0x01\n      add\n      swap1\n      0x20\n      add\n      dup1\n      dup4\n      gt\n      tag_216\n      jumpi\n      dup3\n      swap1\n      sub\n      0x1f\n      and\n      dup3\n      add\n      swap2\n    tag_214:\n      pop\n      pop\n      pop\n      pop\n      pop\n      dup2\n      mstore\n      0x20\n      add\n      0x03\n      dup3\n      add\n      0x00\n      swap1\n      sload\n      swap1\n      0x0100\n      exp\n      swap1\n      div\n      0xff\n      and\n      0xff\n      and\n      0xff\n      and\n      dup2\n      mstore\n      0x20\n      add\n      0x03\n      dup3\n      add\n      0x01\n      swap1\n      sload\n      swap1\n      0x0100\n      exp\n      swap1\n      div\n      0xff\n      and\n      iszero\n      iszero\n      iszero\n      iszero\n      dup2\n      mstore\n      pop\n      pop\n      swap1\n      pop\n        /* \"contracts/assets/AssetRegistry.sol\":4935:5083  function getAsset(uint256 chainId, address assetAddress) external view returns (Asset memory) {... */\n      swap3\n      swap2\n      pop\n      pop\n      jump\t// out\n        /* \"contracts/assets/AssetRegistry.sol\":691:759  bytes32 public constant REGISTRAR_ROLE = keccak256(\"REGISTRAR_ROLE\") */\n    tag_95:\n        /* \"contracts/assets/AssetRegistry.sol\":732:759  keccak256(\"REGISTRAR_ROLE\") */\n      0xedcc084d3dcd65a1f7f23c65c46722faca6953d28e43150a467cf43e5c309238\n        /* \"contracts/assets/AssetRegistry.sol\":691:759  bytes32 public constant REGISTRAR_ROLE = keccak256(\"REGISTRAR_ROLE\") */\n      dup2\n      jump\t// out\n        /* \"contracts/assets/AssetRegistry.sol\":5483:5607  function getSupportedChainIds() external view returns (uint256[] memory) {... */\n    tag_98:\n        /* \"contracts/assets/AssetRegistry.sol\":5538:5554  uint256[] memory */\n      0x60\n        /* \"contracts/assets/AssetRegistry.sol\":5573:5600  _supportedChainIds.values() */\n      tag_218\n        /* \"contracts/assets/AssetRegistry.sol\":5573:5591  _supportedChainIds */\n      0x04\n        /* \"contracts/assets/AssetRegistry.sol\":5573:5598  _supportedChainIds.values */\n      tag_219\n        /* \"contracts/assets/AssetRegistry.sol\":5573:5600  _supportedChainIds.values() */\n      jump\t// in\n    tag_218:\n        /* \"contracts/assets/AssetRegistry.sol\":5566:5600  return _supportedChainIds.values() */\n      swap1\n      pop\n        /* \"contracts/assets/AssetRegistry.sol\":5483:5607  function getSupportedChainIds() external view returns (uint256[] memory) {... */\n      swap1\n      jump\t// out\n        /* \"@openzeppelin/contracts/utils/introspection/ERC165.sol\":762:908  function supportsInterface(bytes4 interfaceId) public view virtual returns (bool) {... */\n    tag_104:\n        /* \"@openzeppelin/contracts/utils/introspection/ERC165.sol\":838:842  bool */\n      0x00\n        /* \"@openzeppelin/contracts/utils/introspection/ERC165.sol\":876:901  type(IERC165).interfaceId */\n      0x01ffc9a700000000000000000000000000000000000000000000000000000000\n        /* \"@openzeppelin/contracts/utils/introspection/ERC165.sol\":861:901  interfaceId == type(IERC165).interfaceId */\n      not(0xffffffffffffffffffffffffffffffffffffffffffffffffffffffff)\n      and\n        /* \"@openzeppelin/contracts/utils/introspection/ERC165.sol\":861:872  interfaceId */\n      dup3\n        /* \"@openzeppelin/contracts/utils/introspection/ERC165.sol\":861:901  interfaceId == type(IERC165).interfaceId */\n      not(0xffffffffffffffffffffffffffffffffffffffffffffffffffffffff)\n      and\n      eq\n        /* \"@openzeppelin/contracts/utils/introspection/ERC165.sol\":854:901  return interfaceId == type(IERC165).interfaceId */\n      swap1\n      pop\n        /* \"@openzeppelin/contracts/utils/introspection/ERC165.sol\":762:908  function supportsInterface(bytes4 interfaceId) public view virtual returns (bool) {... */\n      swap2\n      swap1\n      pop\n      jump\t// out\n        /* \"@openzeppelin/contracts/utils/structs/EnumerableSet.sol\":10270:10570  function values(AddressSet storage set) internal view returns (address[] memory) {... */\n    tag_107:\n        /* \"@openzeppelin/contracts/utils/structs/EnumerableSet.sol\":10333:10349  address[] memory */\n      0x60\n        /* \"@openzeppelin/contracts/utils/structs/EnumerableSet.sol\":10361:10383  bytes32[] memory store */\n      0x00\n        /* \"@openzeppelin/contracts/utils/structs/EnumerableSet.sol\":10386:10405  _values(set._inner) */\n      tag_222\n        /* \"@openzeppelin/contracts/utils/structs/EnumerableSet.sol\":10394:10397  set */\n      dup4\n        /* \"@openzeppelin/contracts/utils/structs/EnumerableSet.sol\":10394:10404  set._inner */\n      0x00\n      add\n        /* \"@openzeppelin/contracts/utils/structs/EnumerableSet.sol\":10386:10393  _values */\n      tag_223\n        /* \"@openzeppelin/contracts/utils/structs/EnumerableSet.sol\":10386:10405  _values(set._inner) */\n      jump\t// in\n    tag_222:\n        /* \"@openzeppelin/contracts/utils/structs/EnumerableSet.sol\":10361:10405  bytes32[] memory store = _values(set._inner) */\n      swap1\n      pop\n        /* \"@openzeppelin/contracts/utils/structs/EnumerableSet.sol\":10415:10438  address[] memory result */\n      0x60\n        /* \"@openzeppelin/contracts/utils/structs/EnumerableSet.sol\":10525:10530  store */\n      dup2\n        /* \"@openzeppelin/contracts/utils/structs/EnumerableSet.sol\":10515:10530  result := store */\n      swap1\n      pop\n        /* \"@openzeppelin/contracts/utils/structs/EnumerableSet.sol\":10557:10563  result */\n      dup1\n        /* \"@openzeppelin/contracts/utils/structs/EnumerableSet.sol\":10550:10563  return result */\n      swap3\n      pop\n      pop\n      pop\n        /* \"@openzeppelin/contracts/utils/structs/EnumerableSet.sol\":10270:10570  function values(AddressSet storage set) internal view returns (address[] memory) {... */\n      swap2\n      swap1\n      pop\n      jump\t// out\n        /* \"@openzeppelin/contracts/access/AccessControl.sol\":3199:3302  function _checkRole(bytes32 role) internal view virtual {... */\n    tag_110:\n        /* \"@openzeppelin/contracts/access/AccessControl.sol\":3265:3295  _checkRole(role, _msgSender()) */\n      tag_225\n        /* \"@openzeppelin/contracts/access/AccessControl.sol\":3276:3280  role */\n      dup2\n        /* \"@openzeppelin/contracts/access/AccessControl.sol\":3282:3294  _msgSender() */\n      tag_226\n        /* \"@openzeppelin/contracts/access/AccessControl.sol\":3282:3292  _msgSender */\n      tag_151\n        /* \"@openzeppelin/contracts/access/AccessControl.sol\":3282:3294  _msgSender() */\n      jump\t// in\n    tag_226:\n        /* \"@openzeppelin/contracts/access/AccessControl.sol\":3265:3275  _checkRole */\n      tag_227\n        /* \"@openzeppelin/contracts/access/AccessControl.sol\":3265:3295  _checkRole(role, _msgSender()) */\n      jump\t// in\n    tag_225:\n        /* \"@openzeppelin/contracts/access/AccessControl.sol\":3199:3302  function _checkRole(bytes32 role) internal view virtual {... */\n      pop\n      jump\t// out\n        /* \"@openzeppelin/contracts/utils/structs/EnumerableSet.sol\":11317:11461  function contains(UintSet storage set, uint256 value) internal view returns (bool) {... */\n    tag_113:\n        /* \"@openzeppelin/contracts/utils/structs/EnumerableSet.sol\":11394:11398  bool */\n      0x00\n        /* \"@openzeppelin/contracts/utils/structs/EnumerableSet.sol\":11417:11454  _contains(set._inner, bytes32(value)) */\n      tag_229\n        /* \"@openzeppelin/contracts/utils/structs/EnumerableSet.sol\":11427:11430  set */\n      dup4\n        /* \"@openzeppelin/contracts/utils/structs/EnumerableSet.sol\":11427:11437  set._inner */\n      0x00\n      add\n        /* \"@openzeppelin/contracts/utils/structs/EnumerableSet.sol\":11447:11452  value */\n      dup4\n        /* \"@openzeppelin/contracts/utils/structs/EnumerableSet.sol\":11439:11453  bytes32(value) */\n      0x00\n      shl\n        /* \"@openzeppelin/contracts/utils/structs/EnumerableSet.sol\":11417:11426  _contains */\n      tag_230\n        /* \"@openzeppelin/contracts/utils/structs/EnumerableSet.sol\":11417:11454  _contains(set._inner, bytes32(value)) */\n      jump\t// in\n    tag_229:\n        /* \"@openzeppelin/contracts/utils/structs/EnumerableSet.sol\":11410:11454  return _contains(set._inner, bytes32(value)) */\n      swap1\n      pop\n        /* \"@openzeppelin/contracts/utils/structs/EnumerableSet.sol\":11317:11461  function contains(UintSet storage set, uint256 value) internal view returns (bool) {... */\n      swap3\n      swap2\n      pop\n      pop\n      jump\t// out\n        /* \"@openzeppelin/contracts/utils/Pausable.sol\":2002:2130  function _requireNotPaused() internal view virtual {... */\n    tag_123:\n        /* \"@openzeppelin/contracts/utils/Pausable.sol\":2067:2075  paused() */\n      tag_232\n        /* \"@openzeppelin/contracts/utils/Pausable.sol\":2067:2073  paused */\n      tag_61\n        /* \"@openzeppelin/contracts/utils/Pausable.sol\":2067:2075  paused() */\n      jump\t// in\n    tag_232:\n        /* \"@openzeppelin/contracts/utils/Pausable.sol\":2063:2124  if (paused()) {... */\n      iszero\n      tag_233\n      jumpi\n        /* \"@openzeppelin/contracts/utils/Pausable.sol\":2098:2113  EnforcedPause() */\n      mload(0x40)\n      0xd93c066500000000000000000000000000000000000000000000000000000000\n      dup2\n      mstore\n      0x04\n      add\n      mload(0x40)\n      dup1\n      swap2\n      sub\n      swap1\n      revert\n        /* \"@openzeppelin/contracts/utils/Pausable.sol\":2063:2124  if (paused()) {... */\n    tag_233:\n        /* \"@openzeppelin/contracts/utils/Pausable.sol\":2002:2130  function _requireNotPaused() internal view virtual {... */\n      jump\t// out\n        /* \"@openzeppelin/contracts/utils/structs/EnumerableSet.sol\":8316:8466  function add(AddressSet storage set, address value) internal returns (bool) {... */\n    tag_140:\n        /* \"@openzeppelin/contracts/utils/structs/EnumerableSet.sol\":8386:8390  bool */\n      0x00\n        /* \"@openzeppelin/contracts/utils/structs/EnumerableSet.sol\":8409:8459  _add(set._inner, bytes32(uint256(uint160(value)))) */\n      tag_235\n        /* \"@openzeppelin/contracts/utils/structs/EnumerableSet.sol\":8414:8417  set */\n      dup4\n        /* \"@openzeppelin/contracts/utils/structs/EnumerableSet.sol\":8414:8424  set._inner */\n      0x00\n      add\n        /* \"@openzeppelin/contracts/utils/structs/EnumerableSet.sol\":8450:8455  value */\n      dup4\n        /* \"@openzeppelin/contracts/utils/structs/EnumerableSet.sol\":8434:8457  uint256(uint160(value)) */\n      0xffffffffffffffffffffffffffffffffffffffff\n      and\n        /* \"@openzeppelin/contracts/utils/structs/EnumerableSet.sol\":8426:8458  bytes32(uint256(uint160(value))) */\n      0x00\n      shl\n        /* \"@openzeppelin/contracts/utils/structs/EnumerableSet.sol\":8409:8413  _add */\n      tag_236\n        /* \"@openzeppelin/contracts/utils/structs/EnumerableSet.sol\":8409:8459  _add(set._inner, bytes32(uint256(uint160(value)))) */\n      jump\t// in\n    tag_235:\n        /* \"@openzeppelin/contracts/utils/structs/EnumerableSet.sol\":8402:8459  return _add(set._inner, bytes32(uint256(uint160(value)))) */\n      swap1\n      pop\n        /* \"@openzeppelin/contracts/utils/structs/EnumerableSet.sol\":8316:8466  function add(AddressSet storage set, address value) internal returns (bool) {... */\n      swap3\n      swap2\n      pop\n      pop\n      jump\t// out\n        /* \"@openzeppelin/contracts/access/AccessControl.sol\":6179:6495  function _grantRole(bytes32 role, address account) internal virtual returns (bool) {... */\n    tag_148:\n        /* \"@openzeppelin/contracts/access/AccessControl.sol\":6256:6260  bool */\n      0x00\n        /* \"@openzeppelin/contracts/access/AccessControl.sol\":6277:6299  hasRole(role, account) */\n      tag_238\n        /* \"@openzeppelin/contracts/access/AccessControl.sol\":6285:6289  role */\n      dup4\n        /* \"@openzeppelin/contracts/access/AccessControl.sol\":6291:6298  account */\n      dup4\n        /* \"@openzeppelin/contracts/access/AccessControl.sol\":6277:6284  hasRole */\n      tag_72\n        /* \"@openzeppelin/contracts/access/AccessControl.sol\":6277:6299  hasRole(role, account) */\n      jump\t// in\n    tag_238:\n        /* \"@openzeppelin/contracts/access/AccessControl.sol\":6272:6489  if (!hasRole(role, account)) {... */\n      tag_239\n      jumpi\n        /* \"@openzeppelin/contracts/access/AccessControl.sol\":6347:6351  true */\n      0x01\n        /* \"@openzeppelin/contracts/access/AccessControl.sol\":6315:6321  _roles */\n      0x00\n        /* \"@openzeppelin/contracts/access/AccessControl.sol\":6315:6327  _roles[role] */\n      dup1\n        /* \"@openzeppelin/contracts/access/AccessControl.sol\":6322:6326  role */\n      dup6\n        /* \"@openzeppelin/contracts/access/AccessControl.sol\":6315:6327  _roles[role] */\n      dup2\n      mstore\n      0x20\n      add\n      swap1\n      dup2\n      mstore\n      0x20\n      add\n      0x00\n      keccak256\n        /* \"@openzeppelin/contracts/access/AccessControl.sol\":6315:6335  _roles[role].hasRole */\n      0x00\n      add\n        /* \"@openzeppelin/contracts/access/AccessControl.sol\":6315:6344  _roles[role].hasRole[account] */\n      0x00\n        /* \"@openzeppelin/contracts/access/AccessControl.sol\":6336:6343  account */\n      dup5\n        /* \"@openzeppelin/contracts/access/AccessControl.sol\":6315:6344  _roles[role].hasRole[account] */\n      0xffffffffffffffffffffffffffffffffffffffff\n      and\n      0xffffffffffffffffffffffffffffffffffffffff\n      and\n      dup2\n      mstore\n      0x20\n      add\n      swap1\n      dup2\n      mstore\n      0x20\n      add\n      0x00\n      keccak256\n      0x00\n        /* \"@openzeppelin/contracts/access/AccessControl.sol\":6315:6351  _roles[role].hasRole[account] = true */\n      0x0100\n      exp\n      dup2\n      sload\n      dup2\n      0xff\n      mul\n      not\n      and\n      swap1\n      dup4\n      iszero\n      iszero\n      mul\n      or\n      swap1\n      sstore\n      pop\n        /* \"@openzeppelin/contracts/access/AccessControl.sol\":6397:6409  _msgSender() */\n      tag_240\n        /* \"@openzeppelin/contracts/access/AccessControl.sol\":6397:6407  _msgSender */\n      tag_151\n        /* \"@openzeppelin/contracts/access/AccessControl.sol\":6397:6409  _msgSender() */\n      jump\t// in\n    tag_240:\n        /* \"@openzeppelin/contracts/access/AccessControl.sol\":6370:6410  RoleGranted(role, account, _msgSender()) */\n      0xffffffffffffffffffffffffffffffffffffffff\n      and\n        /* \"@openzeppelin/contracts/access/AccessControl.sol\":6388:6395  account */\n      dup3\n        /* \"@openzeppelin/contracts/access/AccessControl.sol\":6370:6410  RoleGranted(role, account, _msgSender()) */\n      0xffffffffffffffffffffffffffffffffffffffff\n      and\n        /* \"@openzeppelin/contracts/access/AccessControl.sol\":6382:6386  role */\n      dup5\n        /* \"@openzeppelin/contracts/access/AccessControl.sol\":6370:6410  RoleGranted(role, account, _msgSender()) */\n      0x2f8788117e7eff1d82e926ec794901d17c78024a50270940304540a733656f0d\n      mload(0x40)\n      mload(0x40)\n      dup1\n      swap2\n      sub\n      swap1\n      log4\n        /* \"@openzeppelin/contracts/access/AccessControl.sol\":6431:6435  true */\n      0x01\n        /* \"@openzeppelin/contracts/access/AccessControl.sol\":6424:6435  return true */\n      swap1\n      pop\n      jump(tag_237)\n        /* \"@openzeppelin/contracts/access/AccessControl.sol\":6272:6489  if (!hasRole(role, account)) {... */\n    tag_239:\n        /* \"@openzeppelin/contracts/access/AccessControl.sol\":6473:6478  false */\n      0x00\n        /* \"@openzeppelin/contracts/access/AccessControl.sol\":6466:6478  return false */\n      swap1\n      pop\n        /* \"@openzeppelin/contracts/access/AccessControl.sol\":6179:6495  function _grantRole(bytes32 role, address account) internal virtual returns (bool) {... */\n    tag_237:\n      swap3\n      swap2\n      pop\n      pop\n      jump\t// out\n        /* \"@openzeppelin/contracts/utils/Context.sol\":656:752  function _msgSender() internal view virtual returns (address) {... */\n    tag_151:\n        /* \"@openzeppelin/contracts/utils/Context.sol\":709:716  address */\n      0x00\n        /* \"@openzeppelin/contracts/utils/Context.sol\":735:745  msg.sender */\n      caller\n        /* \"@openzeppelin/contracts/utils/Context.sol\":728:745  return msg.sender */\n      swap1\n      pop\n        /* \"@openzeppelin/contracts/utils/Context.sol\":656:752  function _msgSender() internal view virtual returns (address) {... */\n      swap1\n      jump\t// out\n        /* \"@openzeppelin/contracts/access/AccessControl.sol\":6730:7047  function _revokeRole(bytes32 role, address account) internal virtual returns (bool) {... */\n    tag_154:\n        /* \"@openzeppelin/contracts/access/AccessControl.sol\":6808:6812  bool */\n      0x00\n        /* \"@openzeppelin/contracts/access/AccessControl.sol\":6828:6850  hasRole(role, account) */\n      tag_244\n        /* \"@openzeppelin/contracts/access/AccessControl.sol\":6836:6840  role */\n      dup4\n        /* \"@openzeppelin/contracts/access/AccessControl.sol\":6842:6849  account */\n      dup4\n        /* \"@openzeppelin/contracts/access/AccessControl.sol\":6828:6835  hasRole */\n      tag_72\n        /* \"@openzeppelin/contracts/access/AccessControl.sol\":6828:6850  hasRole(role, account) */\n      jump\t// in\n    tag_244:\n        /* \"@openzeppelin/contracts/access/AccessControl.sol\":6824:7041  if (hasRole(role, account)) {... */\n      iszero\n      tag_245\n      jumpi\n        /* \"@openzeppelin/contracts/access/AccessControl.sol\":6898:6903  false */\n      0x00\n        /* \"@openzeppelin/contracts/access/AccessControl.sol\":6866:6872  _roles */\n      dup1\n        /* \"@openzeppelin/contracts/access/AccessControl.sol\":6866:6878  _roles[role] */\n      0x00\n        /* \"@openzeppelin/contracts/access/AccessControl.sol\":6873:6877  role */\n      dup6\n        /* \"@openzeppelin/contracts/access/AccessControl.sol\":6866:6878  _roles[role] */\n      dup2\n      mstore\n      0x20\n      add\n      swap1\n      dup2\n      mstore\n      0x20\n      add\n      0x00\n      keccak256\n        /* \"@openzeppelin/contracts/access/AccessControl.sol\":6866:6886  _roles[role].hasRole */\n      0x00\n      add\n        /* \"@openzeppelin/contracts/access/AccessControl.sol\":6866:6895  _roles[role].hasRole[account] */\n      0x00\n        /* \"@openzeppelin/contracts/access/AccessControl.sol\":6887:6894  account */\n      dup5\n        /* \"@openzeppelin/contracts/access/AccessControl.sol\":6866:6895  _roles[role].hasRole[account] */\n      0xffffffffffffffffffffffffffffffffffffffff\n      and\n      0xffffffffffffffffffffffffffffffffffffffff\n      and\n      dup2\n      mstore\n      0x20\n      add\n      swap1\n      dup2\n      mstore\n      0x20\n      add\n      0x00\n      keccak256\n      0x00\n        /* \"@openzeppelin/contracts/access/AccessControl.sol\":6866:6903  _roles[role].hasRole[account] = false */\n      0x0100\n      exp\n      dup2\n      sload\n      dup2\n      0xff\n      mul\n      not\n      and\n      swap1\n      dup4\n      iszero\n      iszero\n      mul\n      or\n      swap1\n      sstore\n      pop\n        /* \"@openzeppelin/contracts/access/AccessControl.sol\":6949:6961  _msgSender() */\n      tag_246\n        /* \"@openzeppelin/contracts/access/AccessControl.sol\":6949:6959  _msgSender */\n      tag_151\n        /* \"@openzeppelin/contracts/access/AccessControl.sol\":6949:6961  _msgSender() */\n      jump\t// in\n    tag_246:\n        /* \"@openzeppelin/contracts/access/AccessControl.sol\":6922:6962  RoleRevoked(role, account, _msgSender()) */\n      0xffffffffffffffffffffffffffffffffffffffff\n      and\n        /* \"@openzeppelin/contracts/access/AccessControl.sol\":6940:6947  account */\n      dup3\n        /* \"@openzeppelin/contracts/access/AccessControl.sol\":6922:6962  RoleRevoked(role, account, _msgSender()) */\n      0xffffffffffffffffffffffffffffffffffffffff\n      and\n        /* \"@openzeppelin/contracts/access/AccessControl.sol\":6934:6938  role */\n      dup5\n        /* \"@openzeppelin/contracts/access/AccessControl.sol\":6922:6962  RoleRevoked(role, account, _msgSender()) */\n      0xf6391f5c32d9c69d2a47ea670b442974b53935d1edc7fd64eb21e047a839171b\n      mload(0x40)\n      mload(0x40)\n      dup1\n      swap2\n      sub\n      swap1\n      log4\n        /* \"@openzeppelin/contracts/access/AccessControl.sol\":6983:6987  true */\n      0x01\n        /* \"@openzeppelin/contracts/access/AccessControl.sol\":6976:6987  return true */\n      swap1\n      pop\n      jump(tag_243)\n        /* \"@openzeppelin/contracts/access/AccessControl.sol\":6824:7041  if (hasRole(role, account)) {... */\n    tag_245:\n        /* \"@openzeppelin/contracts/access/AccessControl.sol\":7025:7030  false */\n      0x00\n        /* \"@openzeppelin/contracts/access/AccessControl.sol\":7018:7030  return false */\n      swap1\n      pop\n        /* \"@openzeppelin/contracts/access/AccessControl.sol\":6730:7047  function _revokeRole(bytes32 role, address account) internal virtual returns (bool) {... */\n    tag_243:\n      swap3\n      swap2\n      pop\n      pop\n      jump\t// out\n        /* \"@openzeppelin/contracts/utils/Pausable.sol\":2710:2827  function _unpause() internal virtual whenPaused {... */\n    tag_159:\n        /* \"@openzeppelin/contracts/utils/Pausable.sol\":1721:1737  _requirePaused() */\n      tag_249\n        /* \"@openzeppelin/contracts/utils/Pausable.sol\":1721:1735  _requirePaused */\n      tag_250\n        /* \"@openzeppelin/contracts/utils/Pausable.sol\":1721:1737  _requirePaused() */\n      jump\t// in\n    tag_249:\n        /* \"@openzeppelin/contracts/utils/Pausable.sol\":2778:2783  false */\n      0x00\n        /* \"@openzeppelin/contracts/utils/Pausable.sol\":2768:2775  _paused */\n      0x01\n      0x00\n        /* \"@openzeppelin/contracts/utils/Pausable.sol\":2768:2783  _paused = false */\n      0x0100\n      exp\n      dup2\n      sload\n      dup2\n      0xff\n      mul\n      not\n      and\n      swap1\n      dup4\n      iszero\n      iszero\n      mul\n      or\n      swap1\n      sstore\n      pop\n        /* \"@openzeppelin/contracts/utils/Pausable.sol\":2798:2820  Unpaused(_msgSender()) */\n      0x5db9ee0a495bf2e6ff9c91a7834c1ba4fdd244a5e8aa4e537bd38aeae4b073aa\n        /* \"@openzeppelin/contracts/utils/Pausable.sol\":2807:2819  _msgSender() */\n      tag_252\n        /* \"@openzeppelin/contracts/utils/Pausable.sol\":2807:2817  _msgSender */\n      tag_151\n        /* \"@openzeppelin/contracts/utils/Pausable.sol\":2807:2819  _msgSender() */\n      jump\t// in\n    tag_252:\n        /* \"@openzeppelin/contracts/utils/Pausable.sol\":2798:2820  Unpaused(_msgSender()) */\n      mload(0x40)\n      tag_253\n      swap2\n      swap1\n      tag_254\n      jump\t// in\n    tag_253:\n      mload(0x40)\n      dup1\n      swap2\n      sub\n      swap1\n      log1\n        /* \"@openzeppelin/contracts/utils/Pausable.sol\":2710:2827  function _unpause() internal virtual whenPaused {... */\n      jump\t// out\n        /* \"@openzeppelin/contracts/utils/Pausable.sol\":2463:2578  function _pause() internal virtual whenNotPaused {... */\n    tag_174:\n        /* \"@openzeppelin/contracts/utils/Pausable.sol\":1474:1493  _requireNotPaused() */\n      tag_256\n        /* \"@openzeppelin/contracts/utils/Pausable.sol\":1474:1491  _requireNotPaused */\n      tag_123\n        /* \"@openzeppelin/contracts/utils/Pausable.sol\":1474:1493  _requireNotPaused() */\n      jump\t// in\n    tag_256:\n        /* \"@openzeppelin/contracts/utils/Pausable.sol\":2532:2536  true */\n      0x01\n        /* \"@openzeppelin/contracts/utils/Pausable.sol\":2522:2529  _paused */\n      dup1\n      0x00\n        /* \"@openzeppelin/contracts/utils/Pausable.sol\":2522:2536  _paused = true */\n      0x0100\n      exp\n      dup2\n      sload\n      dup2\n      0xff\n      mul\n      not\n      and\n      swap1\n      dup4\n      iszero\n      iszero\n      mul\n      or\n      swap1\n      sstore\n      pop\n        /* \"@openzeppelin/contracts/utils/Pausable.sol\":2551:2571  Paused(_msgSender()) */\n      0x62e78cea01bee320cd4e420270b5ea74000d11b0c9f74754ebdbfc544b05a258\n        /* \"@openzeppelin/contracts/utils/Pausable.sol\":2558:2570  _msgSender() */\n      tag_258\n        /* \"@openzeppelin/contracts/utils/Pausable.sol\":2558:2568  _msgSender */\n      tag_151\n        /* \"@openzeppelin/contracts/utils/Pausable.sol\":2558:2570  _msgSender() */\n      jump\t// in\n    tag_258:\n        /* \"@openzeppelin/contracts/utils/Pausable.sol\":2551:2571  Paused(_msgSender()) */\n      mload(0x40)\n      tag_259\n      swap2\n      swap1\n      tag_254\n      jump\t// in\n    tag_259:\n      mload(0x40)\n      dup1\n      swap2\n      sub\n      swap1\n      log1\n        /* \"@openzeppelin/contracts/utils/Pausable.sol\":2463:2578  function _pause() internal virtual whenNotPaused {... */\n      jump\t// out\n        /* \"@openzeppelin/contracts/utils/structs/EnumerableSet.sol\":10804:10933  function add(UintSet storage set, uint256 value) internal returns (bool) {... */\n    tag_184:\n        /* \"@openzeppelin/contracts/utils/structs/EnumerableSet.sol\":10871:10875  bool */\n      0x00\n        /* \"@openzeppelin/contracts/utils/structs/EnumerableSet.sol\":10894:10926  _add(set._inner, bytes32(value)) */\n      tag_261\n        /* \"@openzeppelin/contracts/utils/structs/EnumerableSet.sol\":10899:10902  set */\n      dup4\n        /* \"@openzeppelin/contracts/utils/structs/EnumerableSet.sol\":10899:10909  set._inner */\n      0x00\n      add\n        /* \"@openzeppelin/contracts/utils/structs/EnumerableSet.sol\":10919:10924  value */\n      dup4\n        /* \"@openzeppelin/contracts/utils/structs/EnumerableSet.sol\":10911:10925  bytes32(value) */\n      0x00\n      shl\n        /* \"@openzeppelin/contracts/utils/structs/EnumerableSet.sol\":10894:10898  _add */\n      tag_236\n        /* \"@openzeppelin/contracts/utils/structs/EnumerableSet.sol\":10894:10926  _add(set._inner, bytes32(value)) */\n      jump\t// in\n    tag_261:\n        /* \"@openzeppelin/contracts/utils/structs/EnumerableSet.sol\":10887:10926  return _add(set._inner, bytes32(value)) */\n      swap1\n      pop\n        /* \"@openzeppelin/contracts/utils/structs/EnumerableSet.sol\":10804:10933  function add(UintSet storage set, uint256 value) internal returns (bool) {... */\n      swap3\n      swap2\n      pop\n      pop\n      jump\t// out\n        /* \"@openzeppelin/contracts/utils/structs/EnumerableSet.sol\":12671:12968  function values(UintSet storage set) internal view returns (uint256[] memory) {... */\n    tag_219:\n        /* \"@openzeppelin/contracts/utils/structs/EnumerableSet.sol\":12731:12747  uint256[] memory */\n      0x60\n        /* \"@openzeppelin/contracts/utils/structs/EnumerableSet.sol\":12759:12781  bytes32[] memory store */\n      0x00\n        /* \"@openzeppelin/contracts/utils/structs/EnumerableSet.sol\":12784:12803  _values(set._inner) */\n      tag_263\n        /* \"@openzeppelin/contracts/utils/structs/EnumerableSet.sol\":12792:12795  set */\n      dup4\n        /* \"@openzeppelin/contracts/utils/structs/EnumerableSet.sol\":12792:12802  set._inner */\n      0x00\n      add\n        /* \"@openzeppelin/contracts/utils/structs/EnumerableSet.sol\":12784:12791  _values */\n      tag_223\n        /* \"@openzeppelin/contracts/utils/structs/EnumerableSet.sol\":12784:12803  _values(set._inner) */\n      jump\t// in\n    tag_263:\n        /* \"@openzeppelin/contracts/utils/structs/EnumerableSet.sol\":12759:12803  bytes32[] memory store = _values(set._inner) */\n      swap1\n      pop\n        /* \"@openzeppelin/contracts/utils/structs/EnumerableSet.sol\":12813:12836  uint256[] memory result */\n      0x60\n        /* \"@openzeppelin/contracts/utils/structs/EnumerableSet.sol\":12923:12928  store */\n      dup2\n        /* \"@openzeppelin/contracts/utils/structs/EnumerableSet.sol\":12913:12928  result := store */\n      swap1\n      pop\n        /* \"@openzeppelin/contracts/utils/structs/EnumerableSet.sol\":12955:12961  result */\n      dup1\n        /* \"@openzeppelin/contracts/utils/structs/EnumerableSet.sol\":12948:12961  return result */\n      swap3\n      pop\n      pop\n      pop\n        /* \"@openzeppelin/contracts/utils/structs/EnumerableSet.sol\":12671:12968  function values(UintSet storage set) internal view returns (uint256[] memory) {... */\n      swap2\n      swap1\n      pop\n      jump\t// out\n        /* \"@openzeppelin/contracts/utils/structs/EnumerableSet.sol\":5581:5690  function _values(Set storage set) private view returns (bytes32[] memory) {... */\n    tag_223:\n        /* \"@openzeppelin/contracts/utils/structs/EnumerableSet.sol\":5637:5653  bytes32[] memory */\n      0x60\n        /* \"@openzeppelin/contracts/utils/structs/EnumerableSet.sol\":5672:5675  set */\n      dup2\n        /* \"@openzeppelin/contracts/utils/structs/EnumerableSet.sol\":5672:5683  set._values */\n      0x00\n      add\n        /* \"@openzeppelin/contracts/utils/structs/EnumerableSet.sol\":5665:5683  return set._values */\n      dup1\n      sload\n      dup1\n      0x20\n      mul\n      0x20\n      add\n      mload(0x40)\n      swap1\n      dup2\n      add\n      0x40\n      mstore\n      dup1\n      swap3\n      swap2\n      swap1\n      dup2\n      dup2\n      mstore\n      0x20\n      add\n      dup3\n      dup1\n      sload\n      dup1\n      iszero\n      tag_265\n      jumpi\n      0x20\n      mul\n      dup3\n      add\n      swap2\n      swap1\n      0x00\n      mstore\n      keccak256(0x00, 0x20)\n      swap1\n    tag_266:\n      dup2\n      sload\n      dup2\n      mstore\n      0x20\n      add\n      swap1\n      0x01\n      add\n      swap1\n      dup1\n      dup4\n      gt\n      tag_266\n      jumpi\n    tag_265:\n      pop\n      pop\n      pop\n      pop\n      pop\n      swap1\n      pop\n        /* \"@openzeppelin/contracts/utils/structs/EnumerableSet.sol\":5581:5690  function _values(Set storage set) private view returns (bytes32[] memory) {... */\n      swap2\n      swap1\n      pop\n      jump\t// out\n        /* \"@openzeppelin/contracts/access/AccessControl.sol\":3432:3629  function _checkRole(bytes32 role, address account) internal view virtual {... */\n    tag_227:\n        /* \"@openzeppelin/contracts/access/AccessControl.sol\":3520:3542  hasRole(role, account) */\n      tag_268\n        /* \"@openzeppelin/contracts/access/AccessControl.sol\":3528:3532  role */\n      dup3\n        /* \"@openzeppelin/contracts/access/AccessControl.sol\":3534:3541  account */\n      dup3\n        /* \"@openzeppelin/contracts/access/AccessControl.sol\":3520:3527  hasRole */\n      tag_72\n        /* \"@openzeppelin/contracts/access/AccessControl.sol\":3520:3542  hasRole(role, account) */\n      jump\t// in\n    tag_268:\n        /* \"@openzeppelin/contracts/access/AccessControl.sol\":3515:3623  if (!hasRole(role, account)) {... */\n      tag_269\n      jumpi\n        /* \"@openzeppelin/contracts/access/AccessControl.sol\":3598:3605  account */\n      dup1\n        /* \"@openzeppelin/contracts/access/AccessControl.sol\":3607:3611  role */\n      dup3\n        /* \"@openzeppelin/contracts/access/AccessControl.sol\":3565:3612  AccessControlUnauthorizedAccount(account, role) */\n      mload(0x40)\n      0xe2517d3f00000000000000000000000000000000000000000000000000000000\n      dup2\n      mstore\n      0x04\n      add\n      tag_270\n      swap3\n      swap2\n      swap1\n      tag_271\n      jump\t// in\n    tag_270:\n      mload(0x40)\n      dup1\n      swap2\n      sub\n      swap1\n      revert\n        /* \"@openzeppelin/contracts/access/AccessControl.sol\":3515:3623  if (!hasRole(role, account)) {... */\n    tag_269:\n        /* \"@openzeppelin/contracts/access/AccessControl.sol\":3432:3629  function _checkRole(bytes32 role, address account) internal view virtual {... */\n      pop\n      pop\n      jump\t// out\n        /* \"@openzeppelin/contracts/utils/structs/EnumerableSet.sol\":4264:4393  function _contains(Set storage set, bytes32 value) private view returns (bool) {... */\n    tag_230:\n        /* \"@openzeppelin/contracts/utils/structs/EnumerableSet.sol\":4337:4341  bool */\n      0x00\n        /* \"@openzeppelin/contracts/utils/structs/EnumerableSet.sol\":4385:4386  0 */\n      dup1\n        /* \"@openzeppelin/contracts/utils/structs/EnumerableSet.sol\":4360:4363  set */\n      dup4\n        /* \"@openzeppelin/contracts/utils/structs/EnumerableSet.sol\":4360:4374  set._positions */\n      0x01\n      add\n        /* \"@openzeppelin/contracts/utils/structs/EnumerableSet.sol\":4360:4381  set._positions[value] */\n      0x00\n        /* \"@openzeppelin/contracts/utils/structs/EnumerableSet.sol\":4375:4380  value */\n      dup5\n        /* \"@openzeppelin/contracts/utils/structs/EnumerableSet.sol\":4360:4381  set._positions[value] */\n      dup2\n      mstore\n      0x20\n      add\n      swap1\n      dup2\n      mstore\n      0x20\n      add\n      0x00\n      keccak256\n      sload\n        /* \"@openzeppelin/contracts/utils/structs/EnumerableSet.sol\":4360:4386  set._positions[value] != 0 */\n      eq\n      iszero\n        /* \"@openzeppelin/contracts/utils/structs/EnumerableSet.sol\":4353:4386  return set._positions[value] != 0 */\n      swap1\n      pop\n        /* \"@openzeppelin/contracts/utils/structs/EnumerableSet.sol\":4264:4393  function _contains(Set storage set, bytes32 value) private view returns (bool) {... */\n      swap3\n      swap2\n      pop\n      pop\n      jump\t// out\n        /* \"@openzeppelin/contracts/utils/structs/EnumerableSet.sol\":2241:2647  function _add(Set storage set, bytes32 value) private returns (bool) {... */\n    tag_236:\n        /* \"@openzeppelin/contracts/utils/structs/EnumerableSet.sol\":2304:2308  bool */\n      0x00\n        /* \"@openzeppelin/contracts/utils/structs/EnumerableSet.sol\":2325:2346  _contains(set, value) */\n      tag_274\n        /* \"@openzeppelin/contracts/utils/structs/EnumerableSet.sol\":2335:2338  set */\n      dup4\n        /* \"@openzeppelin/contracts/utils/structs/EnumerableSet.sol\":2340:2345  value */\n      dup4\n        /* \"@openzeppelin/contracts/utils/structs/EnumerableSet.sol\":2325:2334  _contains */\n      tag_230\n        /* \"@openzeppelin/contracts/utils/structs/EnumerableSet.sol\":2325:2346  _contains(set, value) */\n      jump\t// in\n    tag_274:\n        /* \"@openzeppelin/contracts/utils/structs/EnumerableSet.sol\":2320:2641  if (!_contains(set, value)) {... */\n      tag_275\n      jumpi\n        /* \"@openzeppelin/contracts/utils/structs/EnumerableSet.sol\":2362:2365  set */\n      dup3\n        /* \"@openzeppelin/contracts/utils/structs/EnumerableSet.sol\":2362:2373  set._values */\n      0x00\n      add\n        /* \"@openzeppelin/contracts/utils/structs/EnumerableSet.sol\":2379:2384  value */\n      dup3\n        /* \"@openzeppelin/contracts/utils/structs/EnumerableSet.sol\":2362:2385  set._values.push(value) */\n      swap1\n      dup1\n      0x01\n      dup2\n      sload\n      add\n      dup1\n      dup3\n      sstore\n      dup1\n      swap2\n      pop\n      pop\n      0x01\n      swap1\n      sub\n      swap1\n      0x00\n      mstore\n      keccak256(0x00, 0x20)\n      add\n      0x00\n      swap1\n      swap2\n      swap1\n      swap2\n      swap1\n      swap2\n      pop\n      sstore\n        /* \"@openzeppelin/contracts/utils/structs/EnumerableSet.sol\":2544:2547  set */\n      dup3\n        /* \"@openzeppelin/contracts/utils/structs/EnumerableSet.sol\":2544:2555  set._values */\n      0x00\n      add\n        /* \"@openzeppelin/contracts/utils/structs/EnumerableSet.sol\":2544:2562  set._values.length */\n      dup1\n      sload\n      swap1\n      pop\n        /* \"@openzeppelin/contracts/utils/structs/EnumerableSet.sol\":2520:2523  set */\n      dup4\n        /* \"@openzeppelin/contracts/utils/structs/EnumerableSet.sol\":2520:2534  set._positions */\n      0x01\n      add\n        /* \"@openzeppelin/contracts/utils/structs/EnumerableSet.sol\":2520:2541  set._positions[value] */\n      0x00\n        /* \"@openzeppelin/contracts/utils/structs/EnumerableSet.sol\":2535:2540  value */\n      dup5\n        /* \"@openzeppelin/contracts/utils/structs/EnumerableSet.sol\":2520:2541  set._positions[value] */\n      dup2\n      mstore\n      0x20\n      add\n      swap1\n      dup2\n      mstore\n      0x20\n      add\n      0x00\n      keccak256\n        /* \"@openzeppelin/contracts/utils/structs/EnumerableSet.sol\":2520:2562  set._positions[value] = set._values.length */\n      dup2\n      swap1\n      sstore\n      pop\n        /* \"@openzeppelin/contracts/utils/structs/EnumerableSet.sol\":2583:2587  true */\n      0x01\n        /* \"@openzeppelin/contracts/utils/structs/EnumerableSet.sol\":2576:2587  return true */\n      swap1\n      pop\n      jump(tag_273)\n        /* \"@openzeppelin/contracts/utils/structs/EnumerableSet.sol\":2320:2641  if (!_contains(set, value)) {... */\n    tag_275:\n        /* \"@openzeppelin/contracts/utils/structs/EnumerableSet.sol\":2625:2630  false */\n      0x00\n        /* \"@openzeppelin/contracts/utils/structs/EnumerableSet.sol\":2618:2630  return false */\n      swap1\n      pop\n        /* \"@openzeppelin/contracts/utils/structs/EnumerableSet.sol\":2241:2647  function _add(Set storage set, bytes32 value) private returns (bool) {... */\n    tag_273:\n      swap3\n      swap2\n      pop\n      pop\n      jump\t// out\n        /* \"@openzeppelin/contracts/utils/Pausable.sol\":2202:2328  function _requirePaused() internal view virtual {... */\n    tag_250:\n        /* \"@openzeppelin/contracts/utils/Pausable.sol\":2265:2273  paused() */\n      tag_279\n        /* \"@openzeppelin/contracts/utils/Pausable.sol\":2265:2271  paused */\n      tag_61\n        /* \"@openzeppelin/contracts/utils/Pausable.sol\":2265:2273  paused() */\n      jump\t// in\n    tag_279:\n        /* \"@openzeppelin/contracts/utils/Pausable.sol\":2260:2322  if (!paused()) {... */\n      tag_280\n      jumpi\n        /* \"@openzeppelin/contracts/utils/Pausable.sol\":2296:2311  ExpectedPause() */\n      mload(0x40)\n      0x8dfc202b00000000000000000000000000000000000000000000000000000000\n      dup2\n      mstore\n      0x04\n      add\n      mload(0x40)\n      dup1\n      swap2\n      sub\n      swap1\n      revert\n        /* \"@openzeppelin/contracts/utils/Pausable.sol\":2260:2322  if (!paused()) {... */\n    tag_280:\n        /* \"@openzeppelin/contracts/utils/Pausable.sol\":2202:2328  function _requirePaused() internal view virtual {... */\n      jump\t// out\n    tag_162:\n      mload(0x40)\n      dup1\n      0x60\n      add\n      0x40\n      mstore\n      dup1\n      0x00\n      dup2\n      mstore\n      0x20\n      add\n      0x60\n      dup2\n      mstore\n      0x20\n      add\n      iszero(iszero(0x00))\n      dup2\n      mstore\n      pop\n      swap1\n      jump\t// out\n    tag_201:\n      mload(0x40)\n      dup1\n      0xc0\n      add\n      0x40\n      mstore\n      dup1\n      and(0xffffffffffffffffffffffffffffffffffffffff, 0x00)\n      dup2\n      mstore\n      0x20\n      add\n      0x00\n      0x03\n      dup2\n      gt\n      iszero\n      tag_281\n      jumpi\n      tag_282\n      tag_133\n      jump\t// in\n    tag_282:\n    tag_281:\n      dup2\n      mstore\n      0x20\n      add\n      0x60\n      dup2\n      mstore\n      0x20\n      add\n      0x60\n      dup2\n      mstore\n      0x20\n      add\n      and(0xff, 0x00)\n      dup2\n      mstore\n      0x20\n      add\n      iszero(iszero(0x00))\n      dup2\n      mstore\n      pop\n      swap1\n      jump\t// out\n        /* \"#utility.yul\":7:82   */\n    tag_283:\n        /* \"#utility.yul\":40:46   */\n      0x00\n        /* \"#utility.yul\":73:75   */\n      0x40\n        /* \"#utility.yul\":67:76   */\n      mload\n        /* \"#utility.yul\":57:76   */\n      swap1\n      pop\n        /* \"#utility.yul\":7:82   */\n      swap1\n      jump\t// out\n        /* \"#utility.yul\":88:205   */\n    tag_284:\n        /* \"#utility.yul\":197:198   */\n      0x00\n        /* \"#utility.yul\":194:195   */\n      dup1\n        /* \"#utility.yul\":187:199   */\n      revert\n        /* \"#utility.yul\":211:328   */\n    tag_285:\n        /* \"#utility.yul\":320:321   */\n      0x00\n        /* \"#utility.yul\":317:318   */\n      dup1\n        /* \"#utility.yul\":310:322   */\n      revert\n        /* \"#utility.yul\":334:483   */\n    tag_286:\n        /* \"#utility.yul\":370:377   */\n      0x00\n        /* \"#utility.yul\":410:476   */\n      0xffffffff00000000000000000000000000000000000000000000000000000000\n        /* \"#utility.yul\":403:408   */\n      dup3\n        /* \"#utility.yul\":399:477   */\n      and\n        /* \"#utility.yul\":388:477   */\n      swap1\n      pop\n        /* \"#utility.yul\":334:483   */\n      swap2\n      swap1\n      pop\n      jump\t// out\n        /* \"#utility.yul\":489:609   */\n    tag_287:\n        /* \"#utility.yul\":561:584   */\n      tag_379\n        /* \"#utility.yul\":578:583   */\n      dup2\n        /* \"#utility.yul\":561:584   */\n      tag_286\n      jump\t// in\n    tag_379:\n        /* \"#utility.yul\":554:559   */\n      dup2\n        /* \"#utility.yul\":551:585   */\n      eq\n        /* \"#utility.yul\":541:603   */\n      tag_380\n      jumpi\n        /* \"#utility.yul\":599:600   */\n      0x00\n        /* \"#utility.yul\":596:597   */\n      dup1\n        /* \"#utility.yul\":589:601   */\n      revert\n        /* \"#utility.yul\":541:603   */\n    tag_380:\n        /* \"#utility.yul\":489:609   */\n      pop\n      jump\t// out\n        /* \"#utility.yul\":615:752   */\n    tag_288:\n        /* \"#utility.yul\":660:665   */\n      0x00\n        /* \"#utility.yul\":698:704   */\n      dup2\n        /* \"#utility.yul\":685:705   */\n      calldataload\n        /* \"#utility.yul\":676:705   */\n      swap1\n      pop\n        /* \"#utility.yul\":714:746   */\n      tag_382\n        /* \"#utility.yul\":740:745   */\n      dup2\n        /* \"#utility.yul\":714:746   */\n      tag_287\n      jump\t// in\n    tag_382:\n        /* \"#utility.yul\":615:752   */\n      swap3\n      swap2\n      pop\n      pop\n      jump\t// out\n        /* \"#utility.yul\":758:1085   */\n    tag_27:\n        /* \"#utility.yul\":816:822   */\n      0x00\n        /* \"#utility.yul\":865:867   */\n      0x20\n        /* \"#utility.yul\":853:862   */\n      dup3\n        /* \"#utility.yul\":844:851   */\n      dup5\n        /* \"#utility.yul\":840:863   */\n      sub\n        /* \"#utility.yul\":836:868   */\n      slt\n        /* \"#utility.yul\":833:952   */\n      iszero\n      tag_384\n      jumpi\n        /* \"#utility.yul\":871:950   */\n      tag_385\n      tag_284\n      jump\t// in\n    tag_385:\n        /* \"#utility.yul\":833:952   */\n    tag_384:\n        /* \"#utility.yul\":991:992   */\n      0x00\n        /* \"#utility.yul\":1016:1068   */\n      tag_386\n        /* \"#utility.yul\":1060:1067   */\n      dup5\n        /* \"#utility.yul\":1051:1057   */\n      dup3\n        /* \"#utility.yul\":1040:1049   */\n      dup6\n        /* \"#utility.yul\":1036:1058   */\n      add\n        /* \"#utility.yul\":1016:1068   */\n      tag_288\n      jump\t// in\n    tag_386:\n        /* \"#utility.yul\":1006:1068   */\n      swap2\n      pop\n        /* \"#utility.yul\":962:1078   */\n      pop\n        /* \"#utility.yul\":758:1085   */\n      swap3\n      swap2\n      pop\n      pop\n      jump\t// out\n        /* \"#utility.yul\":1091:1181   */\n    tag_289:\n        /* \"#utility.yul\":1125:1132   */\n      0x00\n        /* \"#utility.yul\":1168:1173   */\n      dup2\n        /* \"#utility.yul\":1161:1174   */\n      iszero\n        /* \"#utility.yul\":1154:1175   */\n      iszero\n        /* \"#utility.yul\":1143:1175   */\n      swap1\n      pop\n        /* \"#utility.yul\":1091:1181   */\n      swap2\n      swap1\n      pop\n      jump\t// out\n        /* \"#utility.yul\":1187:1296   */\n    tag_290:\n        /* \"#utility.yul\":1268:1289   */\n      tag_389\n        /* \"#utility.yul\":1283:1288   */\n      dup2\n        /* \"#utility.yul\":1268:1289   */\n      tag_289\n      jump\t// in\n    tag_389:\n        /* \"#utility.yul\":1263:1266   */\n      dup3\n        /* \"#utility.yul\":1256:1290   */\n      mstore\n        /* \"#utility.yul\":1187:1296   */\n      pop\n      pop\n      jump\t// out\n        /* \"#utility.yul\":1302:1512   */\n    tag_30:\n        /* \"#utility.yul\":1389:1393   */\n      0x00\n        /* \"#utility.yul\":1427:1429   */\n      0x20\n        /* \"#utility.yul\":1416:1425   */\n      dup3\n        /* \"#utility.yul\":1412:1430   */\n      add\n        /* \"#utility.yul\":1404:1430   */\n      swap1\n      pop\n        /* \"#utility.yul\":1440:1505   */\n      tag_391\n        /* \"#utility.yul\":1502:1503   */\n      0x00\n        /* \"#utility.yul\":1491:1500   */\n      dup4\n        /* \"#utility.yul\":1487:1504   */\n      add\n        /* \"#utility.yul\":1478:1484   */\n      dup5\n        /* \"#utility.yul\":1440:1505   */\n      tag_290\n      jump\t// in\n    tag_391:\n        /* \"#utility.yul\":1302:1512   */\n      swap3\n      swap2\n      pop\n      pop\n      jump\t// out\n        /* \"#utility.yul\":1518:1595   */\n    tag_291:\n        /* \"#utility.yul\":1555:1562   */\n      0x00\n        /* \"#utility.yul\":1584:1589   */\n      dup2\n        /* \"#utility.yul\":1573:1589   */\n      swap1\n      pop\n        /* \"#utility.yul\":1518:1595   */\n      swap2\n      swap1\n      pop\n      jump\t// out\n        /* \"#utility.yul\":1601:1723   */\n    tag_292:\n        /* \"#utility.yul\":1674:1698   */\n      tag_394\n        /* \"#utility.yul\":1692:1697   */\n      dup2\n        /* \"#utility.yul\":1674:1698   */\n      tag_291\n      jump\t// in\n    tag_394:\n        /* \"#utility.yul\":1667:1672   */\n      dup2\n        /* \"#utility.yul\":1664:1699   */\n      eq\n        /* \"#utility.yul\":1654:1717   */\n      tag_395\n      jumpi\n        /* \"#utility.yul\":1713:1714   */\n      0x00\n        /* \"#utility.yul\":1710:1711   */\n      dup1\n        /* \"#utility.yul\":1703:1715   */\n      revert\n        /* \"#utility.yul\":1654:1717   */\n    tag_395:\n        /* \"#utility.yul\":1601:1723   */\n      pop\n      jump\t// out\n        /* \"#utility.yul\":1729:1868   */\n    tag_293:\n        /* \"#utility.yul\":1775:1780   */\n      0x00\n        /* \"#utility.yul\":1813:1819   */\n      dup2\n        /* \"#utility.yul\":1800:1820   */\n      calldataload\n        /* \"#utility.yul\":1791:1820   */\n      swap1\n      pop\n        /* \"#utility.yul\":1829:1862   */\n      tag_397\n        /* \"#utility.yul\":1856:1861   */\n      dup2\n        /* \"#utility.yul\":1829:1862   */\n      tag_292\n      jump\t// in\n    tag_397:\n        /* \"#utility.yul\":1729:1868   */\n      swap3\n      swap2\n      pop\n      pop\n      jump\t// out\n        /* \"#utility.yul\":1874:2203   */\n    tag_33:\n        /* \"#utility.yul\":1933:1939   */\n      0x00\n        /* \"#utility.yul\":1982:1984   */\n      0x20\n        /* \"#utility.yul\":1970:1979   */\n      dup3\n        /* \"#utility.yul\":1961:1968   */\n      dup5\n        /* \"#utility.yul\":1957:1980   */\n      sub\n        /* \"#utility.yul\":1953:1985   */\n      slt\n        /* \"#utility.yul\":1950:2069   */\n      iszero\n      tag_399\n      jumpi\n        /* \"#utility.yul\":1988:2067   */\n      tag_400\n      tag_284\n      jump\t// in\n    tag_400:\n        /* \"#utility.yul\":1950:2069   */\n    tag_399:\n        /* \"#utility.yul\":2108:2109   */\n      0x00\n        /* \"#utility.yul\":2133:2186   */\n      tag_401\n        /* \"#utility.yul\":2178:2185   */\n      dup5\n        /* \"#utility.yul\":2169:2175   */\n      dup3\n        /* \"#utility.yul\":2158:2167   */\n      dup6\n        /* \"#utility.yul\":2154:2176   */\n      add\n        /* \"#utility.yul\":2133:2186   */\n      tag_293\n      jump\t// in\n    tag_401:\n        /* \"#utility.yul\":2123:2186   */\n      swap2\n      pop\n        /* \"#utility.yul\":2079:2196   */\n      pop\n        /* \"#utility.yul\":1874:2203   */\n      swap3\n      swap2\n      pop\n      pop\n      jump\t// out\n        /* \"#utility.yul\":2209:2323   */\n    tag_294:\n        /* \"#utility.yul\":2276:2282   */\n      0x00\n        /* \"#utility.yul\":2310:2315   */\n      dup2\n        /* \"#utility.yul\":2304:2316   */\n      mload\n        /* \"#utility.yul\":2294:2316   */\n      swap1\n      pop\n        /* \"#utility.yul\":2209:2323   */\n      swap2\n      swap1\n      pop\n      jump\t// out\n        /* \"#utility.yul\":2329:2513   */\n    tag_295:\n        /* \"#utility.yul\":2428:2439   */\n      0x00\n        /* \"#utility.yul\":2462:2468   */\n      dup3\n        /* \"#utility.yul\":2457:2460   */\n      dup3\n        /* \"#utility.yul\":2450:2469   */\n      mstore\n        /* \"#utility.yul\":2502:2506   */\n      0x20\n        /* \"#utility.yul\":2497:2500   */\n      dup3\n        /* \"#utility.yul\":2493:2507   */\n      add\n        /* \"#utility.yul\":2478:2507   */\n      swap1\n      pop\n        /* \"#utility.yul\":2329:2513   */\n      swap3\n      swap2\n      pop\n      pop\n      jump\t// out\n        /* \"#utility.yul\":2519:2651   */\n    tag_296:\n        /* \"#utility.yul\":2586:2590   */\n      0x00\n        /* \"#utility.yul\":2609:2612   */\n      dup2\n        /* \"#utility.yul\":2601:2612   */\n      swap1\n      pop\n        /* \"#utility.yul\":2639:2643   */\n      0x20\n        /* \"#utility.yul\":2634:2637   */\n      dup3\n        /* \"#utility.yul\":2630:2644   */\n      add\n        /* \"#utility.yul\":2622:2644   */\n      swap1\n      pop\n        /* \"#utility.yul\":2519:2651   */\n      swap2\n      swap1\n      pop\n      jump\t// out\n        /* \"#utility.yul\":2657:2783   */\n    tag_297:\n        /* \"#utility.yul\":2694:2701   */\n      0x00\n        /* \"#utility.yul\":2734:2776   */\n      0xffffffffffffffffffffffffffffffffffffffff\n        /* \"#utility.yul\":2727:2732   */\n      dup3\n        /* \"#utility.yul\":2723:2777   */\n      and\n        /* \"#utility.yul\":2712:2777   */\n      swap1\n      pop\n        /* \"#utility.yul\":2657:2783   */\n      swap2\n      swap1\n      pop\n      jump\t// out\n        /* \"#utility.yul\":2789:2885   */\n    tag_298:\n        /* \"#utility.yul\":2826:2833   */\n      0x00\n        /* \"#utility.yul\":2855:2879   */\n      tag_407\n        /* \"#utility.yul\":2873:2878   */\n      dup3\n        /* \"#utility.yul\":2855:2879   */\n      tag_297\n      jump\t// in\n    tag_407:\n        /* \"#utility.yul\":2844:2879   */\n      swap1\n      pop\n        /* \"#utility.yul\":2789:2885   */\n      swap2\n      swap1\n      pop\n      jump\t// out\n        /* \"#utility.yul\":2891:2999   */\n    tag_299:\n        /* \"#utility.yul\":2968:2992   */\n      tag_409\n        /* \"#utility.yul\":2986:2991   */\n      dup2\n        /* \"#utility.yul\":2968:2992   */\n      tag_298\n      jump\t// in\n    tag_409:\n        /* \"#utility.yul\":2963:2966   */\n      dup3\n        /* \"#utility.yul\":2956:2993   */\n      mstore\n        /* \"#utility.yul\":2891:2999   */\n      pop\n      pop\n      jump\t// out\n        /* \"#utility.yul\":3005:3184   */\n    tag_300:\n        /* \"#utility.yul\":3074:3084   */\n      0x00\n        /* \"#utility.yul\":3095:3141   */\n      tag_411\n        /* \"#utility.yul\":3137:3140   */\n      dup4\n        /* \"#utility.yul\":3129:3135   */\n      dup4\n        /* \"#utility.yul\":3095:3141   */\n      tag_299\n      jump\t// in\n    tag_411:\n        /* \"#utility.yul\":3173:3177   */\n      0x20\n        /* \"#utility.yul\":3168:3171   */\n      dup4\n        /* \"#utility.yul\":3164:3178   */\n      add\n        /* \"#utility.yul\":3150:3178   */\n      swap1\n      pop\n        /* \"#utility.yul\":3005:3184   */\n      swap3\n      swap2\n      pop\n      pop\n      jump\t// out\n        /* \"#utility.yul\":3190:3303   */\n    tag_301:\n        /* \"#utility.yul\":3260:3264   */\n      0x00\n        /* \"#utility.yul\":3292:3296   */\n      0x20\n        /* \"#utility.yul\":3287:3290   */\n      dup3\n        /* \"#utility.yul\":3283:3297   */\n      add\n        /* \"#utility.yul\":3275:3297   */\n      swap1\n      pop\n        /* \"#utility.yul\":3190:3303   */\n      swap2\n      swap1\n      pop\n      jump\t// out\n        /* \"#utility.yul\":3339:4071   */\n    tag_302:\n        /* \"#utility.yul\":3458:3461   */\n      0x00\n        /* \"#utility.yul\":3487:3541   */\n      tag_414\n        /* \"#utility.yul\":3535:3540   */\n      dup3\n        /* \"#utility.yul\":3487:3541   */\n      tag_294\n      jump\t// in\n    tag_414:\n        /* \"#utility.yul\":3557:3643   */\n      tag_415\n        /* \"#utility.yul\":3636:3642   */\n      dup2\n        /* \"#utility.yul\":3631:3634   */\n      dup6\n        /* \"#utility.yul\":3557:3643   */\n      tag_295\n      jump\t// in\n    tag_415:\n        /* \"#utility.yul\":3550:3643   */\n      swap4\n      pop\n        /* \"#utility.yul\":3667:3723   */\n      tag_416\n        /* \"#utility.yul\":3717:3722   */\n      dup4\n        /* \"#utility.yul\":3667:3723   */\n      tag_296\n      jump\t// in\n    tag_416:\n        /* \"#utility.yul\":3746:3753   */\n      dup1\n        /* \"#utility.yul\":3777:3778   */\n      0x00\n        /* \"#utility.yul\":3762:4046   */\n    tag_417:\n        /* \"#utility.yul\":3787:3793   */\n      dup4\n        /* \"#utility.yul\":3784:3785   */\n      dup2\n        /* \"#utility.yul\":3781:3794   */\n      lt\n        /* \"#utility.yul\":3762:4046   */\n      iszero\n      tag_419\n      jumpi\n        /* \"#utility.yul\":3863:3869   */\n      dup2\n        /* \"#utility.yul\":3857:3870   */\n      mload\n        /* \"#utility.yul\":3890:3953   */\n      tag_420\n        /* \"#utility.yul\":3949:3952   */\n      dup9\n        /* \"#utility.yul\":3934:3947   */\n      dup3\n        /* \"#utility.yul\":3890:3953   */\n      tag_300\n      jump\t// in\n    tag_420:\n        /* \"#utility.yul\":3883:3953   */\n      swap8\n      pop\n        /* \"#utility.yul\":3976:4036   */\n      tag_421\n        /* \"#utility.yul\":4029:4035   */\n      dup4\n        /* \"#utility.yul\":3976:4036   */\n      tag_301\n      jump\t// in\n    tag_421:\n        /* \"#utility.yul\":3966:4036   */\n      swap3\n      pop\n        /* \"#utility.yul\":3822:4046   */\n      pop\n        /* \"#utility.yul\":3809:3810   */\n      0x01\n        /* \"#utility.yul\":3806:3807   */\n      dup2\n        /* \"#utility.yul\":3802:3811   */\n      add\n        /* \"#utility.yul\":3797:3811   */\n      swap1\n      pop\n        /* \"#utility.yul\":3762:4046   */\n      jump(tag_417)\n    tag_419:\n        /* \"#utility.yul\":3766:3780   */\n      pop\n        /* \"#utility.yul\":4062:4065   */\n      dup6\n        /* \"#utility.yul\":4055:4065   */\n      swap4\n      pop\n        /* \"#utility.yul\":3463:4071   */\n      pop\n      pop\n      pop\n        /* \"#utility.yul\":3339:4071   */\n      swap3\n      swap2\n      pop\n      pop\n      jump\t// out\n        /* \"#utility.yul\":4077:4450   */\n    tag_36:\n        /* \"#utility.yul\":4220:4224   */\n      0x00\n        /* \"#utility.yul\":4258:4260   */\n      0x20\n        /* \"#utility.yul\":4247:4256   */\n      dup3\n        /* \"#utility.yul\":4243:4261   */\n      add\n        /* \"#utility.yul\":4235:4261   */\n      swap1\n      pop\n        /* \"#utility.yul\":4307:4316   */\n      dup2\n        /* \"#utility.yul\":4301:4305   */\n      dup2\n        /* \"#utility.yul\":4297:4317   */\n      sub\n        /* \"#utility.yul\":4293:4294   */\n      0x00\n        /* \"#utility.yul\":4282:4291   */\n      dup4\n        /* \"#utility.yul\":4278:4295   */\n      add\n        /* \"#utility.yul\":4271:4318   */\n      mstore\n        /* \"#utility.yul\":4335:4443   */\n      tag_423\n        /* \"#utility.yul\":4438:4442   */\n      dup2\n        /* \"#utility.yul\":4429:4435   */\n      dup5\n        /* \"#utility.yul\":4335:4443   */\n      tag_302\n      jump\t// in\n    tag_423:\n        /* \"#utility.yul\":4327:4443   */\n      swap1\n      pop\n        /* \"#utility.yul\":4077:4450   */\n      swap3\n      swap2\n      pop\n      pop\n      jump\t// out\n        /* \"#utility.yul\":4456:4572   */\n    tag_303:\n        /* \"#utility.yul\":4526:4547   */\n      tag_425\n        /* \"#utility.yul\":4541:4546   */\n      dup2\n        /* \"#utility.yul\":4526:4547   */\n      tag_289\n      jump\t// in\n    tag_425:\n        /* \"#utility.yul\":4519:4524   */\n      dup2\n        /* \"#utility.yul\":4516:4548   */\n      eq\n        /* \"#utility.yul\":4506:4566   */\n      tag_426\n      jumpi\n        /* \"#utility.yul\":4562:4563   */\n      0x00\n        /* \"#utility.yul\":4559:4560   */\n      dup1\n        /* \"#utility.yul\":4552:4564   */\n      revert\n        /* \"#utility.yul\":4506:4566   */\n    tag_426:\n        /* \"#utility.yul\":4456:4572   */\n      pop\n      jump\t// out\n        /* \"#utility.yul\":4578:4711   */\n    tag_304:\n        /* \"#utility.yul\":4621:4626   */\n      0x00\n        /* \"#utility.yul\":4659:4665   */\n      dup2\n        /* \"#utility.yul\":4646:4666   */\n      calldataload\n        /* \"#utility.yul\":4637:4666   */\n      swap1\n      pop\n        /* \"#utility.yul\":4675:4705   */\n      tag_428\n        /* \"#utility.yul\":4699:4704   */\n      dup2\n        /* \"#utility.yul\":4675:4705   */\n      tag_303\n      jump\t// in\n    tag_428:\n        /* \"#utility.yul\":4578:4711   */\n      swap3\n      swap2\n      pop\n      pop\n      jump\t// out\n        /* \"#utility.yul\":4717:5185   */\n    tag_39:\n        /* \"#utility.yul\":4782:4788   */\n      0x00\n        /* \"#utility.yul\":4790:4796   */\n      dup1\n        /* \"#utility.yul\":4839:4841   */\n      0x40\n        /* \"#utility.yul\":4827:4836   */\n      dup4\n        /* \"#utility.yul\":4818:4825   */\n      dup6\n        /* \"#utility.yul\":4814:4837   */\n      sub\n        /* \"#utility.yul\":4810:4842   */\n      slt\n        /* \"#utility.yul\":4807:4926   */\n      iszero\n      tag_430\n      jumpi\n        /* \"#utility.yul\":4845:4924   */\n      tag_431\n      tag_284\n      jump\t// in\n    tag_431:\n        /* \"#utility.yul\":4807:4926   */\n    tag_430:\n        /* \"#utility.yul\":4965:4966   */\n      0x00\n        /* \"#utility.yul\":4990:5043   */\n      tag_432\n        /* \"#utility.yul\":5035:5042   */\n      dup6\n        /* \"#utility.yul\":5026:5032   */\n      dup3\n        /* \"#utility.yul\":5015:5024   */\n      dup7\n        /* \"#utility.yul\":5011:5033   */\n      add\n        /* \"#utility.yul\":4990:5043   */\n      tag_293\n      jump\t// in\n    tag_432:\n        /* \"#utility.yul\":4980:5043   */\n      swap3\n      pop\n        /* \"#utility.yul\":4936:5053   */\n      pop\n        /* \"#utility.yul\":5092:5094   */\n      0x20\n        /* \"#utility.yul\":5118:5168   */\n      tag_433\n        /* \"#utility.yul\":5160:5167   */\n      dup6\n        /* \"#utility.yul\":5151:5157   */\n      dup3\n        /* \"#utility.yul\":5140:5149   */\n      dup7\n        /* \"#utility.yul\":5136:5158   */\n      add\n        /* \"#utility.yul\":5118:5168   */\n      tag_304\n      jump\t// in\n    tag_433:\n        /* \"#utility.yul\":5108:5168   */\n      swap2\n      pop\n        /* \"#utility.yul\":5063:5178   */\n      pop\n        /* \"#utility.yul\":4717:5185   */\n      swap3\n      pop\n      swap3\n      swap1\n      pop\n      jump\t// out\n        /* \"#utility.yul\":5191:5268   */\n    tag_305:\n        /* \"#utility.yul\":5228:5235   */\n      0x00\n        /* \"#utility.yul\":5257:5262   */\n      dup2\n        /* \"#utility.yul\":5246:5262   */\n      swap1\n      pop\n        /* \"#utility.yul\":5191:5268   */\n      swap2\n      swap1\n      pop\n      jump\t// out\n        /* \"#utility.yul\":5274:5396   */\n    tag_306:\n        /* \"#utility.yul\":5347:5371   */\n      tag_436\n        /* \"#utility.yul\":5365:5370   */\n      dup2\n        /* \"#utility.yul\":5347:5371   */\n      tag_305\n      jump\t// in\n    tag_436:\n        /* \"#utility.yul\":5340:5345   */\n      dup2\n        /* \"#utility.yul\":5337:5372   */\n      eq\n        /* \"#utility.yul\":5327:5390   */\n      tag_437\n      jumpi\n        /* \"#utility.yul\":5386:5387   */\n      0x00\n        /* \"#utility.yul\":5383:5384   */\n      dup1\n        /* \"#utility.yul\":5376:5388   */\n      revert\n        /* \"#utility.yul\":5327:5390   */\n    tag_437:\n        /* \"#utility.yul\":5274:5396   */\n      pop\n      jump\t// out\n        /* \"#utility.yul\":5402:5541   */\n    tag_307:\n        /* \"#utility.yul\":5448:5453   */\n      0x00\n        /* \"#utility.yul\":5486:5492   */\n      dup2\n        /* \"#utility.yul\":5473:5493   */\n      calldataload\n        /* \"#utility.yul\":5464:5493   */\n      swap1\n      pop\n        /* \"#utility.yul\":5502:5535   */\n      tag_439\n        /* \"#utility.yul\":5529:5534   */\n      dup2\n        /* \"#utility.yul\":5502:5535   */\n      tag_306\n      jump\t// in\n    tag_439:\n        /* \"#utility.yul\":5402:5541   */\n      swap3\n      swap2\n      pop\n      pop\n      jump\t// out\n        /* \"#utility.yul\":5547:5876   */\n    tag_43:\n        /* \"#utility.yul\":5606:5612   */\n      0x00\n        /* \"#utility.yul\":5655:5657   */\n      0x20\n        /* \"#utility.yul\":5643:5652   */\n      dup3\n        /* \"#utility.yul\":5634:5641   */\n      dup5\n        /* \"#utility.yul\":5630:5653   */\n      sub\n        /* \"#utility.yul\":5626:5658   */\n      slt\n        /* \"#utility.yul\":5623:5742   */\n      iszero\n      tag_441\n      jumpi\n        /* \"#utility.yul\":5661:5740   */\n      tag_442\n      tag_284\n      jump\t// in\n    tag_442:\n        /* \"#utility.yul\":5623:5742   */\n    tag_441:\n        /* \"#utility.yul\":5781:5782   */\n      0x00\n        /* \"#utility.yul\":5806:5859   */\n      tag_443\n        /* \"#utility.yul\":5851:5858   */\n      dup5\n        /* \"#utility.yul\":5842:5848   */\n      dup3\n        /* \"#utility.yul\":5831:5840   */\n      dup6\n        /* \"#utility.yul\":5827:5849   */\n      add\n        /* \"#utility.yul\":5806:5859   */\n      tag_307\n      jump\t// in\n    tag_443:\n        /* \"#utility.yul\":5796:5859   */\n      swap2\n      pop\n        /* \"#utility.yul\":5752:5869   */\n      pop\n        /* \"#utility.yul\":5547:5876   */\n      swap3\n      swap2\n      pop\n      pop\n      jump\t// out\n        /* \"#utility.yul\":5882:6000   */\n    tag_308:\n        /* \"#utility.yul\":5969:5993   */\n      tag_445\n        /* \"#utility.yul\":5987:5992   */\n      dup2\n        /* \"#utility.yul\":5969:5993   */\n      tag_305\n      jump\t// in\n    tag_445:\n        /* \"#utility.yul\":5964:5967   */\n      dup3\n        /* \"#utility.yul\":5957:5994   */\n      mstore\n        /* \"#utility.yul\":5882:6000   */\n      pop\n      pop\n      jump\t// out\n        /* \"#utility.yul\":6006:6228   */\n    tag_46:\n        /* \"#utility.yul\":6099:6103   */\n      0x00\n        /* \"#utility.yul\":6137:6139   */\n      0x20\n        /* \"#utility.yul\":6126:6135   */\n      dup3\n        /* \"#utility.yul\":6122:6140   */\n      add\n        /* \"#utility.yul\":6114:6140   */\n      swap1\n      pop\n        /* \"#utility.yul\":6150:6221   */\n      tag_447\n        /* \"#utility.yul\":6218:6219   */\n      0x00\n        /* \"#utility.yul\":6207:6216   */\n      dup4\n        /* \"#utility.yul\":6203:6220   */\n      add\n        /* \"#utility.yul\":6194:6200   */\n      dup5\n        /* \"#utility.yul\":6150:6221   */\n      tag_308\n      jump\t// in\n    tag_447:\n        /* \"#utility.yul\":6006:6228   */\n      swap3\n      swap2\n      pop\n      pop\n      jump\t// out\n        /* \"#utility.yul\":6234:6356   */\n    tag_309:\n        /* \"#utility.yul\":6307:6331   */\n      tag_449\n        /* \"#utility.yul\":6325:6330   */\n      dup2\n        /* \"#utility.yul\":6307:6331   */\n      tag_298\n      jump\t// in\n    tag_449:\n        /* \"#utility.yul\":6300:6305   */\n      dup2\n        /* \"#utility.yul\":6297:6332   */\n      eq\n        /* \"#utility.yul\":6287:6350   */\n      tag_450\n      jumpi\n        /* \"#utility.yul\":6346:6347   */\n      0x00\n        /* \"#utility.yul\":6343:6344   */\n      dup1\n        /* \"#utility.yul\":6336:6348   */\n      revert\n        /* \"#utility.yul\":6287:6350   */\n    tag_450:\n        /* \"#utility.yul\":6234:6356   */\n      pop\n      jump\t// out\n        /* \"#utility.yul\":6362:6501   */\n    tag_310:\n        /* \"#utility.yul\":6408:6413   */\n      0x00\n        /* \"#utility.yul\":6446:6452   */\n      dup2\n        /* \"#utility.yul\":6433:6453   */\n      calldataload\n        /* \"#utility.yul\":6424:6453   */\n      swap1\n      pop\n        /* \"#utility.yul\":6462:6495   */\n      tag_452\n        /* \"#utility.yul\":6489:6494   */\n      dup2\n        /* \"#utility.yul\":6462:6495   */\n      tag_309\n      jump\t// in\n    tag_452:\n        /* \"#utility.yul\":6362:6501   */\n      swap3\n      swap2\n      pop\n      pop\n      jump\t// out\n        /* \"#utility.yul\":6507:6620   */\n    tag_311:\n        /* \"#utility.yul\":6594:6595   */\n      0x04\n        /* \"#utility.yul\":6587:6592   */\n      dup2\n        /* \"#utility.yul\":6584:6596   */\n      lt\n        /* \"#utility.yul\":6574:6614   */\n      tag_454\n      jumpi\n        /* \"#utility.yul\":6610:6611   */\n      0x00\n        /* \"#utility.yul\":6607:6608   */\n      dup1\n        /* \"#utility.yul\":6600:6612   */\n      revert\n        /* \"#utility.yul\":6574:6614   */\n    tag_454:\n        /* \"#utility.yul\":6507:6620   */\n      pop\n      jump\t// out\n        /* \"#utility.yul\":6626:6793   */\n    tag_312:\n        /* \"#utility.yul\":6686:6691   */\n      0x00\n        /* \"#utility.yul\":6724:6730   */\n      dup2\n        /* \"#utility.yul\":6711:6731   */\n      calldataload\n        /* \"#utility.yul\":6702:6731   */\n      swap1\n      pop\n        /* \"#utility.yul\":6740:6787   */\n      tag_456\n        /* \"#utility.yul\":6781:6786   */\n      dup2\n        /* \"#utility.yul\":6740:6787   */\n      tag_311\n      jump\t// in\n    tag_456:\n        /* \"#utility.yul\":6626:6793   */\n      swap3\n      swap2\n      pop\n      pop\n      jump\t// out\n        /* \"#utility.yul\":6799:6916   */\n    tag_313:\n        /* \"#utility.yul\":6908:6909   */\n      0x00\n        /* \"#utility.yul\":6905:6906   */\n      dup1\n        /* \"#utility.yul\":6898:6910   */\n      revert\n        /* \"#utility.yul\":6922:7039   */\n    tag_314:\n        /* \"#utility.yul\":7031:7032   */\n      0x00\n        /* \"#utility.yul\":7028:7029   */\n      dup1\n        /* \"#utility.yul\":7021:7033   */\n      revert\n        /* \"#utility.yul\":7045:7147   */\n    tag_315:\n        /* \"#utility.yul\":7086:7092   */\n      0x00\n        /* \"#utility.yul\":7137:7139   */\n      0x1f\n        /* \"#utility.yul\":7133:7140   */\n      not\n        /* \"#utility.yul\":7128:7130   */\n      0x1f\n        /* \"#utility.yul\":7121:7126   */\n      dup4\n        /* \"#utility.yul\":7117:7131   */\n      add\n        /* \"#utility.yul\":7113:7141   */\n      and\n        /* \"#utility.yul\":7103:7141   */\n      swap1\n      pop\n        /* \"#utility.yul\":7045:7147   */\n      swap2\n      swap1\n      pop\n      jump\t// out\n        /* \"#utility.yul\":7153:7333   */\n    tag_316:\n        /* \"#utility.yul\":7201:7278   */\n      0x4e487b7100000000000000000000000000000000000000000000000000000000\n        /* \"#utility.yul\":7198:7199   */\n      0x00\n        /* \"#utility.yul\":7191:7279   */\n      mstore\n        /* \"#utility.yul\":7298:7302   */\n      0x41\n        /* \"#utility.yul\":7295:7296   */\n      0x04\n        /* \"#utility.yul\":7288:7303   */\n      mstore\n        /* \"#utility.yul\":7322:7326   */\n      0x24\n        /* \"#utility.yul\":7319:7320   */\n      0x00\n        /* \"#utility.yul\":7312:7327   */\n      revert\n        /* \"#utility.yul\":7339:7620   */\n    tag_317:\n        /* \"#utility.yul\":7422:7449   */\n      tag_462\n        /* \"#utility.yul\":7444:7448   */\n      dup3\n        /* \"#utility.yul\":7422:7449   */\n      tag_315\n      jump\t// in\n    tag_462:\n        /* \"#utility.yul\":7414:7420   */\n      dup2\n        /* \"#utility.yul\":7410:7450   */\n      add\n        /* \"#utility.yul\":7552:7558   */\n      dup2\n        /* \"#utility.yul\":7540:7550   */\n      dup2\n        /* \"#utility.yul\":7537:7559   */\n      lt\n        /* \"#utility.yul\":7516:7534   */\n      0xffffffffffffffff\n        /* \"#utility.yul\":7504:7514   */\n      dup3\n        /* \"#utility.yul\":7501:7535   */\n      gt\n        /* \"#utility.yul\":7498:7560   */\n      or\n        /* \"#utility.yul\":7495:7583   */\n      iszero\n      tag_463\n      jumpi\n        /* \"#utility.yul\":7563:7581   */\n      tag_464\n      tag_316\n      jump\t// in\n    tag_464:\n        /* \"#utility.yul\":7495:7583   */\n    tag_463:\n        /* \"#utility.yul\":7603:7613   */\n      dup1\n        /* \"#utility.yul\":7599:7601   */\n      0x40\n        /* \"#utility.yul\":7592:7614   */\n      mstore\n        /* \"#utility.yul\":7382:7620   */\n      pop\n        /* \"#utility.yul\":7339:7620   */\n      pop\n      pop\n      jump\t// out\n        /* \"#utility.yul\":7626:7755   */\n    tag_318:\n        /* \"#utility.yul\":7660:7666   */\n      0x00\n        /* \"#utility.yul\":7687:7707   */\n      tag_466\n      tag_283\n      jump\t// in\n    tag_466:\n        /* \"#utility.yul\":7677:7707   */\n      swap1\n      pop\n        /* \"#utility.yul\":7716:7749   */\n      tag_467\n        /* \"#utility.yul\":7744:7748   */\n      dup3\n        /* \"#utility.yul\":7736:7742   */\n      dup3\n        /* \"#utility.yul\":7716:7749   */\n      tag_317\n      jump\t// in\n    tag_467:\n        /* \"#utility.yul\":7626:7755   */\n      swap2\n      swap1\n      pop\n      jump\t// out\n        /* \"#utility.yul\":7761:8069   */\n    tag_319:\n        /* \"#utility.yul\":7823:7827   */\n      0x00\n        /* \"#utility.yul\":7913:7931   */\n      0xffffffffffffffff\n        /* \"#utility.yul\":7905:7911   */\n      dup3\n        /* \"#utility.yul\":7902:7932   */\n      gt\n        /* \"#utility.yul\":7899:7955   */\n      iszero\n      tag_469\n      jumpi\n        /* \"#utility.yul\":7935:7953   */\n      tag_470\n      tag_316\n      jump\t// in\n    tag_470:\n        /* \"#utility.yul\":7899:7955   */\n    tag_469:\n        /* \"#utility.yul\":7973:8002   */\n      tag_471\n        /* \"#utility.yul\":7995:8001   */\n      dup3\n        /* \"#utility.yul\":7973:8002   */\n      tag_315\n      jump\t// in\n    tag_471:\n        /* \"#utility.yul\":7965:8002   */\n      swap1\n      pop\n        /* \"#utility.yul\":8057:8061   */\n      0x20\n        /* \"#utility.yul\":8051:8055   */\n      dup2\n        /* \"#utility.yul\":8047:8062   */\n      add\n        /* \"#utility.yul\":8039:8062   */\n      swap1\n      pop\n        /* \"#utility.yul\":7761:8069   */\n      swap2\n      swap1\n      pop\n      jump\t// out\n        /* \"#utility.yul\":8075:8223   */\n    tag_320:\n        /* \"#utility.yul\":8173:8179   */\n      dup3\n        /* \"#utility.yul\":8168:8171   */\n      dup2\n        /* \"#utility.yul\":8163:8166   */\n      dup4\n        /* \"#utility.yul\":8150:8180   */\n      calldatacopy\n        /* \"#utility.yul\":8214:8215   */\n      0x00\n        /* \"#utility.yul\":8205:8211   */\n      dup4\n        /* \"#utility.yul\":8200:8203   */\n      dup4\n        /* \"#utility.yul\":8196:8212   */\n      add\n        /* \"#utility.yul\":8189:8216   */\n      mstore\n        /* \"#utility.yul\":8075:8223   */\n      pop\n      pop\n      pop\n      jump\t// out\n        /* \"#utility.yul\":8229:8654   */\n    tag_321:\n        /* \"#utility.yul\":8307:8312   */\n      0x00\n        /* \"#utility.yul\":8332:8398   */\n      tag_474\n        /* \"#utility.yul\":8348:8397   */\n      tag_475\n        /* \"#utility.yul\":8390:8396   */\n      dup5\n        /* \"#utility.yul\":8348:8397   */\n      tag_319\n      jump\t// in\n    tag_475:\n        /* \"#utility.yul\":8332:8398   */\n      tag_318\n      jump\t// in\n    tag_474:\n        /* \"#utility.yul\":8323:8398   */\n      swap1\n      pop\n        /* \"#utility.yul\":8421:8427   */\n      dup3\n        /* \"#utility.yul\":8414:8419   */\n      dup2\n        /* \"#utility.yul\":8407:8428   */\n      mstore\n        /* \"#utility.yul\":8459:8463   */\n      0x20\n        /* \"#utility.yul\":8452:8457   */\n      dup2\n        /* \"#utility.yul\":8448:8464   */\n      add\n        /* \"#utility.yul\":8497:8500   */\n      dup5\n        /* \"#utility.yul\":8488:8494   */\n      dup5\n        /* \"#utility.yul\":8483:8486   */\n      dup5\n        /* \"#utility.yul\":8479:8495   */\n      add\n        /* \"#utility.yul\":8476:8501   */\n      gt\n        /* \"#utility.yul\":8473:8585   */\n      iszero\n      tag_476\n      jumpi\n        /* \"#utility.yul\":8504:8583   */\n      tag_477\n      tag_314\n      jump\t// in\n    tag_477:\n        /* \"#utility.yul\":8473:8585   */\n    tag_476:\n        /* \"#utility.yul\":8594:8648   */\n      tag_478\n        /* \"#utility.yul\":8641:8647   */\n      dup5\n        /* \"#utility.yul\":8636:8639   */\n      dup3\n        /* \"#utility.yul\":8631:8634   */\n      dup6\n        /* \"#utility.yul\":8594:8648   */\n      tag_320\n      jump\t// in\n    tag_478:\n        /* \"#utility.yul\":8313:8654   */\n      pop\n        /* \"#utility.yul\":8229:8654   */\n      swap4\n      swap3\n      pop\n      pop\n      pop\n      jump\t// out\n        /* \"#utility.yul\":8674:9014   */\n    tag_322:\n        /* \"#utility.yul\":8730:8735   */\n      0x00\n        /* \"#utility.yul\":8779:8782   */\n      dup3\n        /* \"#utility.yul\":8772:8776   */\n      0x1f\n        /* \"#utility.yul\":8764:8770   */\n      dup4\n        /* \"#utility.yul\":8760:8777   */\n      add\n        /* \"#utility.yul\":8756:8783   */\n      slt\n        /* \"#utility.yul\":8746:8868   */\n      tag_480\n      jumpi\n        /* \"#utility.yul\":8787:8866   */\n      tag_481\n      tag_313\n      jump\t// in\n    tag_481:\n        /* \"#utility.yul\":8746:8868   */\n    tag_480:\n        /* \"#utility.yul\":8904:8910   */\n      dup2\n        /* \"#utility.yul\":8891:8911   */\n      calldataload\n        /* \"#utility.yul\":8929:9008   */\n      tag_482\n        /* \"#utility.yul\":9004:9007   */\n      dup5\n        /* \"#utility.yul\":8996:9002   */\n      dup3\n        /* \"#utility.yul\":8989:8993   */\n      0x20\n        /* \"#utility.yul\":8981:8987   */\n      dup7\n        /* \"#utility.yul\":8977:8994   */\n      add\n        /* \"#utility.yul\":8929:9008   */\n      tag_321\n      jump\t// in\n    tag_482:\n        /* \"#utility.yul\":8920:9008   */\n      swap2\n      pop\n        /* \"#utility.yul\":8736:9014   */\n      pop\n        /* \"#utility.yul\":8674:9014   */\n      swap3\n      swap2\n      pop\n      pop\n      jump\t// out\n        /* \"#utility.yul\":9020:9106   */\n    tag_323:\n        /* \"#utility.yul\":9055:9062   */\n      0x00\n        /* \"#utility.yul\":9095:9099   */\n      0xff\n        /* \"#utility.yul\":9088:9093   */\n      dup3\n        /* \"#utility.yul\":9084:9100   */\n      and\n        /* \"#utility.yul\":9073:9100   */\n      swap1\n      pop\n        /* \"#utility.yul\":9020:9106   */\n      swap2\n      swap1\n      pop\n      jump\t// out\n        /* \"#utility.yul\":9112:9230   */\n    tag_324:\n        /* \"#utility.yul\":9183:9205   */\n      tag_485\n        /* \"#utility.yul\":9199:9204   */\n      dup2\n        /* \"#utility.yul\":9183:9205   */\n      tag_323\n      jump\t// in\n    tag_485:\n        /* \"#utility.yul\":9176:9181   */\n      dup2\n        /* \"#utility.yul\":9173:9206   */\n      eq\n        /* \"#utility.yul\":9163:9224   */\n      tag_486\n      jumpi\n        /* \"#utility.yul\":9220:9221   */\n      0x00\n        /* \"#utility.yul\":9217:9218   */\n      dup1\n        /* \"#utility.yul\":9210:9222   */\n      revert\n        /* \"#utility.yul\":9163:9224   */\n    tag_486:\n        /* \"#utility.yul\":9112:9230   */\n      pop\n      jump\t// out\n        /* \"#utility.yul\":9236:9371   */\n    tag_325:\n        /* \"#utility.yul\":9280:9285   */\n      0x00\n        /* \"#utility.yul\":9318:9324   */\n      dup2\n        /* \"#utility.yul\":9305:9325   */\n      calldataload\n        /* \"#utility.yul\":9296:9325   */\n      swap1\n      pop\n        /* \"#utility.yul\":9334:9365   */\n      tag_488\n        /* \"#utility.yul\":9359:9364   */\n      dup2\n        /* \"#utility.yul\":9334:9365   */\n      tag_324\n      jump\t// in\n    tag_488:\n        /* \"#utility.yul\":9236:9371   */\n      swap3\n      swap2\n      pop\n      pop\n      jump\t// out\n        /* \"#utility.yul\":9377:10818   */\n    tag_49:\n        /* \"#utility.yul\":9513:9519   */\n      0x00\n        /* \"#utility.yul\":9521:9527   */\n      dup1\n        /* \"#utility.yul\":9529:9535   */\n      0x00\n        /* \"#utility.yul\":9537:9543   */\n      dup1\n        /* \"#utility.yul\":9545:9551   */\n      0x00\n        /* \"#utility.yul\":9553:9559   */\n      dup1\n        /* \"#utility.yul\":9602:9605   */\n      0xc0\n        /* \"#utility.yul\":9590:9599   */\n      dup8\n        /* \"#utility.yul\":9581:9588   */\n      dup10\n        /* \"#utility.yul\":9577:9600   */\n      sub\n        /* \"#utility.yul\":9573:9606   */\n      slt\n        /* \"#utility.yul\":9570:9690   */\n      iszero\n      tag_490\n      jumpi\n        /* \"#utility.yul\":9609:9688   */\n      tag_491\n      tag_284\n      jump\t// in\n    tag_491:\n        /* \"#utility.yul\":9570:9690   */\n    tag_490:\n        /* \"#utility.yul\":9729:9730   */\n      0x00\n        /* \"#utility.yul\":9754:9807   */\n      tag_492\n        /* \"#utility.yul\":9799:9806   */\n      dup10\n        /* \"#utility.yul\":9790:9796   */\n      dup3\n        /* \"#utility.yul\":9779:9788   */\n      dup11\n        /* \"#utility.yul\":9775:9797   */\n      add\n        /* \"#utility.yul\":9754:9807   */\n      tag_293\n      jump\t// in\n    tag_492:\n        /* \"#utility.yul\":9744:9807   */\n      swap7\n      pop\n        /* \"#utility.yul\":9700:9817   */\n      pop\n        /* \"#utility.yul\":9856:9858   */\n      0x20\n        /* \"#utility.yul\":9882:9935   */\n      tag_493\n        /* \"#utility.yul\":9927:9934   */\n      dup10\n        /* \"#utility.yul\":9918:9924   */\n      dup3\n        /* \"#utility.yul\":9907:9916   */\n      dup11\n        /* \"#utility.yul\":9903:9925   */\n      add\n        /* \"#utility.yul\":9882:9935   */\n      tag_310\n      jump\t// in\n    tag_493:\n        /* \"#utility.yul\":9872:9935   */\n      swap6\n      pop\n        /* \"#utility.yul\":9827:9945   */\n      pop\n        /* \"#utility.yul\":9984:9986   */\n      0x40\n        /* \"#utility.yul\":10010:10077   */\n      tag_494\n        /* \"#utility.yul\":10069:10076   */\n      dup10\n        /* \"#utility.yul\":10060:10066   */\n      dup3\n        /* \"#utility.yul\":10049:10058   */\n      dup11\n        /* \"#utility.yul\":10045:10067   */\n      add\n        /* \"#utility.yul\":10010:10077   */\n      tag_312\n      jump\t// in\n    tag_494:\n        /* \"#utility.yul\":10000:10077   */\n      swap5\n      pop\n        /* \"#utility.yul\":9955:10087   */\n      pop\n        /* \"#utility.yul\":10154:10156   */\n      0x60\n        /* \"#utility.yul\":10143:10152   */\n      dup8\n        /* \"#utility.yul\":10139:10157   */\n      add\n        /* \"#utility.yul\":10126:10158   */\n      calldataload\n        /* \"#utility.yul\":10185:10203   */\n      0xffffffffffffffff\n        /* \"#utility.yul\":10177:10183   */\n      dup2\n        /* \"#utility.yul\":10174:10204   */\n      gt\n        /* \"#utility.yul\":10171:10288   */\n      iszero\n      tag_495\n      jumpi\n        /* \"#utility.yul\":10207:10286   */\n      tag_496\n      tag_285\n      jump\t// in\n    tag_496:\n        /* \"#utility.yul\":10171:10288   */\n    tag_495:\n        /* \"#utility.yul\":10312:10375   */\n      tag_497\n        /* \"#utility.yul\":10367:10374   */\n      dup10\n        /* \"#utility.yul\":10358:10364   */\n      dup3\n        /* \"#utility.yul\":10347:10356   */\n      dup11\n        /* \"#utility.yul\":10343:10365   */\n      add\n        /* \"#utility.yul\":10312:10375   */\n      tag_322\n      jump\t// in\n    tag_497:\n        /* \"#utility.yul\":10302:10375   */\n      swap4\n      pop\n        /* \"#utility.yul\":10097:10385   */\n      pop\n        /* \"#utility.yul\":10452:10455   */\n      0x80\n        /* \"#utility.yul\":10441:10450   */\n      dup8\n        /* \"#utility.yul\":10437:10456   */\n      add\n        /* \"#utility.yul\":10424:10457   */\n      calldataload\n        /* \"#utility.yul\":10484:10502   */\n      0xffffffffffffffff\n        /* \"#utility.yul\":10476:10482   */\n      dup2\n        /* \"#utility.yul\":10473:10503   */\n      gt\n        /* \"#utility.yul\":10470:10587   */\n      iszero\n      tag_498\n      jumpi\n        /* \"#utility.yul\":10506:10585   */\n      tag_499\n      tag_285\n      jump\t// in\n    tag_499:\n        /* \"#utility.yul\":10470:10587   */\n    tag_498:\n        /* \"#utility.yul\":10611:10674   */\n      tag_500\n        /* \"#utility.yul\":10666:10673   */\n      dup10\n        /* \"#utility.yul\":10657:10663   */\n      dup3\n        /* \"#utility.yul\":10646:10655   */\n      dup11\n        /* \"#utility.yul\":10642:10664   */\n      add\n        /* \"#utility.yul\":10611:10674   */\n      tag_322\n      jump\t// in\n    tag_500:\n        /* \"#utility.yul\":10601:10674   */\n      swap3\n      pop\n        /* \"#utility.yul\":10395:10684   */\n      pop\n        /* \"#utility.yul\":10723:10726   */\n      0xa0\n        /* \"#utility.yul\":10750:10801   */\n      tag_501\n        /* \"#utility.yul\":10793:10800   */\n      dup10\n        /* \"#utility.yul\":10784:10790   */\n      dup3\n        /* \"#utility.yul\":10773:10782   */\n      dup11\n        /* \"#utility.yul\":10769:10791   */\n      add\n        /* \"#utility.yul\":10750:10801   */\n      tag_325\n      jump\t// in\n    tag_501:\n        /* \"#utility.yul\":10740:10801   */\n      swap2\n      pop\n        /* \"#utility.yul\":10694:10811   */\n      pop\n        /* \"#utility.yul\":9377:10818   */\n      swap3\n      swap6\n      pop\n      swap3\n      swap6\n      pop\n      swap3\n      swap6\n      jump\t// out\n        /* \"#utility.yul\":10824:11298   */\n    tag_53:\n        /* \"#utility.yul\":10892:10898   */\n      0x00\n        /* \"#utility.yul\":10900:10906   */\n      dup1\n        /* \"#utility.yul\":10949:10951   */\n      0x40\n        /* \"#utility.yul\":10937:10946   */\n      dup4\n        /* \"#utility.yul\":10928:10935   */\n      dup6\n        /* \"#utility.yul\":10924:10947   */\n      sub\n        /* \"#utility.yul\":10920:10952   */\n      slt\n        /* \"#utility.yul\":10917:11036   */\n      iszero\n      tag_503\n      jumpi\n        /* \"#utility.yul\":10955:11034   */\n      tag_504\n      tag_284\n      jump\t// in\n    tag_504:\n        /* \"#utility.yul\":10917:11036   */\n    tag_503:\n        /* \"#utility.yul\":11075:11076   */\n      0x00\n        /* \"#utility.yul\":11100:11153   */\n      tag_505\n        /* \"#utility.yul\":11145:11152   */\n      dup6\n        /* \"#utility.yul\":11136:11142   */\n      dup3\n        /* \"#utility.yul\":11125:11134   */\n      dup7\n        /* \"#utility.yul\":11121:11143   */\n      add\n        /* \"#utility.yul\":11100:11153   */\n      tag_307\n      jump\t// in\n    tag_505:\n        /* \"#utility.yul\":11090:11153   */\n      swap3\n      pop\n        /* \"#utility.yul\":11046:11163   */\n      pop\n        /* \"#utility.yul\":11202:11204   */\n      0x20\n        /* \"#utility.yul\":11228:11281   */\n      tag_506\n        /* \"#utility.yul\":11273:11280   */\n      dup6\n        /* \"#utility.yul\":11264:11270   */\n      dup3\n        /* \"#utility.yul\":11253:11262   */\n      dup7\n        /* \"#utility.yul\":11249:11271   */\n      add\n        /* \"#utility.yul\":11228:11281   */\n      tag_310\n      jump\t// in\n    tag_506:\n        /* \"#utility.yul\":11218:11281   */\n      swap2\n      pop\n        /* \"#utility.yul\":11173:11291   */\n      pop\n        /* \"#utility.yul\":10824:11298   */\n      swap3\n      pop\n      swap3\n      swap1\n      pop\n      jump\t// out\n        /* \"#utility.yul\":11304:11412   */\n    tag_326:\n        /* \"#utility.yul\":11381:11405   */\n      tag_508\n        /* \"#utility.yul\":11399:11404   */\n      dup2\n        /* \"#utility.yul\":11381:11405   */\n      tag_291\n      jump\t// in\n    tag_508:\n        /* \"#utility.yul\":11376:11379   */\n      dup3\n        /* \"#utility.yul\":11369:11406   */\n      mstore\n        /* \"#utility.yul\":11304:11412   */\n      pop\n      pop\n      jump\t// out\n        /* \"#utility.yul\":11418:11517   */\n    tag_327:\n        /* \"#utility.yul\":11470:11476   */\n      0x00\n        /* \"#utility.yul\":11504:11509   */\n      dup2\n        /* \"#utility.yul\":11498:11510   */\n      mload\n        /* \"#utility.yul\":11488:11510   */\n      swap1\n      pop\n        /* \"#utility.yul\":11418:11517   */\n      swap2\n      swap1\n      pop\n      jump\t// out\n        /* \"#utility.yul\":11523:11682   */\n    tag_328:\n        /* \"#utility.yul\":11597:11608   */\n      0x00\n        /* \"#utility.yul\":11631:11637   */\n      dup3\n        /* \"#utility.yul\":11626:11629   */\n      dup3\n        /* \"#utility.yul\":11619:11638   */\n      mstore\n        /* \"#utility.yul\":11671:11675   */\n      0x20\n        /* \"#utility.yul\":11666:11669   */\n      dup3\n        /* \"#utility.yul\":11662:11676   */\n      add\n        /* \"#utility.yul\":11647:11676   */\n      swap1\n      pop\n        /* \"#utility.yul\":11523:11682   */\n      swap3\n      swap2\n      pop\n      pop\n      jump\t// out\n        /* \"#utility.yul\":11688:11827   */\n    tag_329:\n        /* \"#utility.yul\":11777:11783   */\n      dup3\n        /* \"#utility.yul\":11772:11775   */\n      dup2\n        /* \"#utility.yul\":11767:11770   */\n      dup4\n        /* \"#utility.yul\":11761:11784   */\n      mcopy\n        /* \"#utility.yul\":11818:11819   */\n      0x00\n        /* \"#utility.yul\":11809:11815   */\n      dup4\n        /* \"#utility.yul\":11804:11807   */\n      dup4\n        /* \"#utility.yul\":11800:11816   */\n      add\n        /* \"#utility.yul\":11793:11820   */\n      mstore\n        /* \"#utility.yul\":11688:11827   */\n      pop\n      pop\n      pop\n      jump\t// out\n        /* \"#utility.yul\":11833:12190   */\n    tag_330:\n        /* \"#utility.yul\":11911:11914   */\n      0x00\n        /* \"#utility.yul\":11939:11978   */\n      tag_513\n        /* \"#utility.yul\":11972:11977   */\n      dup3\n        /* \"#utility.yul\":11939:11978   */\n      tag_327\n      jump\t// in\n    tag_513:\n        /* \"#utility.yul\":11994:12055   */\n      tag_514\n        /* \"#utility.yul\":12048:12054   */\n      dup2\n        /* \"#utility.yul\":12043:12046   */\n      dup6\n        /* \"#utility.yul\":11994:12055   */\n      tag_328\n      jump\t// in\n    tag_514:\n        /* \"#utility.yul\":11987:12055   */\n      swap4\n      pop\n        /* \"#utility.yul\":12064:12129   */\n      tag_515\n        /* \"#utility.yul\":12122:12128   */\n      dup2\n        /* \"#utility.yul\":12117:12120   */\n      dup6\n        /* \"#utility.yul\":12110:12114   */\n      0x20\n        /* \"#utility.yul\":12103:12108   */\n      dup7\n        /* \"#utility.yul\":12099:12115   */\n      add\n        /* \"#utility.yul\":12064:12129   */\n      tag_329\n      jump\t// in\n    tag_515:\n        /* \"#utility.yul\":12154:12183   */\n      tag_516\n        /* \"#utility.yul\":12176:12182   */\n      dup2\n        /* \"#utility.yul\":12154:12183   */\n      tag_315\n      jump\t// in\n    tag_516:\n        /* \"#utility.yul\":12149:12152   */\n      dup5\n        /* \"#utility.yul\":12145:12184   */\n      add\n        /* \"#utility.yul\":12138:12184   */\n      swap2\n      pop\n        /* \"#utility.yul\":11915:12190   */\n      pop\n        /* \"#utility.yul\":11833:12190   */\n      swap3\n      swap2\n      pop\n      pop\n      jump\t// out\n        /* \"#utility.yul\":12196:12295   */\n    tag_331:\n        /* \"#utility.yul\":12267:12288   */\n      tag_518\n        /* \"#utility.yul\":12282:12287   */\n      dup2\n        /* \"#utility.yul\":12267:12288   */\n      tag_289\n      jump\t// in\n    tag_518:\n        /* \"#utility.yul\":12262:12265   */\n      dup3\n        /* \"#utility.yul\":12255:12289   */\n      mstore\n        /* \"#utility.yul\":12196:12295   */\n      pop\n      pop\n      jump\t// out\n        /* \"#utility.yul\":12373:13158   */\n    tag_332:\n        /* \"#utility.yul\":12496:12499   */\n      0x00\n        /* \"#utility.yul\":12532:12536   */\n      0x60\n        /* \"#utility.yul\":12527:12530   */\n      dup4\n        /* \"#utility.yul\":12523:12537   */\n      add\n        /* \"#utility.yul\":12622:12626   */\n      0x00\n        /* \"#utility.yul\":12615:12620   */\n      dup4\n        /* \"#utility.yul\":12611:12627   */\n      add\n        /* \"#utility.yul\":12605:12628   */\n      mload\n        /* \"#utility.yul\":12641:12704   */\n      tag_520\n        /* \"#utility.yul\":12698:12702   */\n      0x00\n        /* \"#utility.yul\":12693:12696   */\n      dup7\n        /* \"#utility.yul\":12689:12703   */\n      add\n        /* \"#utility.yul\":12675:12687   */\n      dup3\n        /* \"#utility.yul\":12641:12704   */\n      tag_326\n      jump\t// in\n    tag_520:\n        /* \"#utility.yul\":12547:12714   */\n      pop\n        /* \"#utility.yul\":12796:12800   */\n      0x20\n        /* \"#utility.yul\":12789:12794   */\n      dup4\n        /* \"#utility.yul\":12785:12801   */\n      add\n        /* \"#utility.yul\":12779:12802   */\n      mload\n        /* \"#utility.yul\":12849:12852   */\n      dup5\n        /* \"#utility.yul\":12843:12847   */\n      dup3\n        /* \"#utility.yul\":12839:12853   */\n      sub\n        /* \"#utility.yul\":12832:12836   */\n      0x20\n        /* \"#utility.yul\":12827:12830   */\n      dup7\n        /* \"#utility.yul\":12823:12837   */\n      add\n        /* \"#utility.yul\":12816:12854   */\n      mstore\n        /* \"#utility.yul\":12875:12948   */\n      tag_521\n        /* \"#utility.yul\":12943:12947   */\n      dup3\n        /* \"#utility.yul\":12929:12941   */\n      dup3\n        /* \"#utility.yul\":12875:12948   */\n      tag_330\n      jump\t// in\n    tag_521:\n        /* \"#utility.yul\":12867:12948   */\n      swap2\n      pop\n        /* \"#utility.yul\":12724:12959   */\n      pop\n        /* \"#utility.yul\":13045:13049   */\n      0x40\n        /* \"#utility.yul\":13038:13043   */\n      dup4\n        /* \"#utility.yul\":13034:13050   */\n      add\n        /* \"#utility.yul\":13028:13051   */\n      mload\n        /* \"#utility.yul\":13064:13121   */\n      tag_522\n        /* \"#utility.yul\":13115:13119   */\n      0x40\n        /* \"#utility.yul\":13110:13113   */\n      dup7\n        /* \"#utility.yul\":13106:13120   */\n      add\n        /* \"#utility.yul\":13092:13104   */\n      dup3\n        /* \"#utility.yul\":13064:13121   */\n      tag_331\n      jump\t// in\n    tag_522:\n        /* \"#utility.yul\":12969:13131   */\n      pop\n        /* \"#utility.yul\":13148:13152   */\n      dup1\n        /* \"#utility.yul\":13141:13152   */\n      swap2\n      pop\n        /* \"#utility.yul\":12501:13158   */\n      pop\n        /* \"#utility.yul\":12373:13158   */\n      swap3\n      swap2\n      pop\n      pop\n      jump\t// out\n        /* \"#utility.yul\":13164:13545   */\n    tag_67:\n        /* \"#utility.yul\":13311:13315   */\n      0x00\n        /* \"#utility.yul\":13349:13351   */\n      0x20\n        /* \"#utility.yul\":13338:13347   */\n      dup3\n        /* \"#utility.yul\":13334:13352   */\n      add\n        /* \"#utility.yul\":13326:13352   */\n      swap1\n      pop\n        /* \"#utility.yul\":13398:13407   */\n      dup2\n        /* \"#utility.yul\":13392:13396   */\n      dup2\n        /* \"#utility.yul\":13388:13408   */\n      sub\n        /* \"#utility.yul\":13384:13385   */\n      0x00\n        /* \"#utility.yul\":13373:13382   */\n      dup4\n        /* \"#utility.yul\":13369:13386   */\n      add\n        /* \"#utility.yul\":13362:13409   */\n      mstore\n        /* \"#utility.yul\":13426:13538   */\n      tag_524\n        /* \"#utility.yul\":13533:13537   */\n      dup2\n        /* \"#utility.yul\":13524:13530   */\n      dup5\n        /* \"#utility.yul\":13426:13538   */\n      tag_332\n      jump\t// in\n    tag_524:\n        /* \"#utility.yul\":13418:13538   */\n      swap1\n      pop\n        /* \"#utility.yul\":13164:13545   */\n      swap3\n      swap2\n      pop\n      pop\n      jump\t// out\n        /* \"#utility.yul\":13551:14205   */\n    tag_79:\n        /* \"#utility.yul\":13629:13635   */\n      0x00\n        /* \"#utility.yul\":13637:13643   */\n      dup1\n        /* \"#utility.yul\":13686:13688   */\n      0x40\n        /* \"#utility.yul\":13674:13683   */\n      dup4\n        /* \"#utility.yul\":13665:13672   */\n      dup6\n        /* \"#utility.yul\":13661:13684   */\n      sub\n        /* \"#utility.yul\":13657:13689   */\n      slt\n        /* \"#utility.yul\":13654:13773   */\n      iszero\n      tag_526\n      jumpi\n        /* \"#utility.yul\":13692:13771   */\n      tag_527\n      tag_284\n      jump\t// in\n    tag_527:\n        /* \"#utility.yul\":13654:13773   */\n    tag_526:\n        /* \"#utility.yul\":13812:13813   */\n      0x00\n        /* \"#utility.yul\":13837:13890   */\n      tag_528\n        /* \"#utility.yul\":13882:13889   */\n      dup6\n        /* \"#utility.yul\":13873:13879   */\n      dup3\n        /* \"#utility.yul\":13862:13871   */\n      dup7\n        /* \"#utility.yul\":13858:13880   */\n      add\n        /* \"#utility.yul\":13837:13890   */\n      tag_293\n      jump\t// in\n    tag_528:\n        /* \"#utility.yul\":13827:13890   */\n      swap3\n      pop\n        /* \"#utility.yul\":13783:13900   */\n      pop\n        /* \"#utility.yul\":13967:13969   */\n      0x20\n        /* \"#utility.yul\":13956:13965   */\n      dup4\n        /* \"#utility.yul\":13952:13970   */\n      add\n        /* \"#utility.yul\":13939:13971   */\n      calldataload\n        /* \"#utility.yul\":13998:14016   */\n      0xffffffffffffffff\n        /* \"#utility.yul\":13990:13996   */\n      dup2\n        /* \"#utility.yul\":13987:14017   */\n      gt\n        /* \"#utility.yul\":13984:14101   */\n      iszero\n      tag_529\n      jumpi\n        /* \"#utility.yul\":14020:14099   */\n      tag_530\n      tag_285\n      jump\t// in\n    tag_530:\n        /* \"#utility.yul\":13984:14101   */\n    tag_529:\n        /* \"#utility.yul\":14125:14188   */\n      tag_531\n        /* \"#utility.yul\":14180:14187   */\n      dup6\n        /* \"#utility.yul\":14171:14177   */\n      dup3\n        /* \"#utility.yul\":14160:14169   */\n      dup7\n        /* \"#utility.yul\":14156:14178   */\n      add\n        /* \"#utility.yul\":14125:14188   */\n      tag_322\n      jump\t// in\n    tag_531:\n        /* \"#utility.yul\":14115:14188   */\n      swap2\n      pop\n        /* \"#utility.yul\":13910:14198   */\n      pop\n        /* \"#utility.yul\":13551:14205   */\n      swap3\n      pop\n      swap3\n      swap1\n      pop\n      jump\t// out\n        /* \"#utility.yul\":14211:14824   */\n    tag_83:\n        /* \"#utility.yul\":14285:14291   */\n      0x00\n        /* \"#utility.yul\":14293:14299   */\n      dup1\n        /* \"#utility.yul\":14301:14307   */\n      0x00\n        /* \"#utility.yul\":14350:14352   */\n      0x60\n        /* \"#utility.yul\":14338:14347   */\n      dup5\n        /* \"#utility.yul\":14329:14336   */\n      dup7\n        /* \"#utility.yul\":14325:14348   */\n      sub\n        /* \"#utility.yul\":14321:14353   */\n      slt\n        /* \"#utility.yul\":14318:14437   */\n      iszero\n      tag_533\n      jumpi\n        /* \"#utility.yul\":14356:14435   */\n      tag_534\n      tag_284\n      jump\t// in\n    tag_534:\n        /* \"#utility.yul\":14318:14437   */\n    tag_533:\n        /* \"#utility.yul\":14476:14477   */\n      0x00\n        /* \"#utility.yul\":14501:14554   */\n      tag_535\n        /* \"#utility.yul\":14546:14553   */\n      dup7\n        /* \"#utility.yul\":14537:14543   */\n      dup3\n        /* \"#utility.yul\":14526:14535   */\n      dup8\n        /* \"#utility.yul\":14522:14544   */\n      add\n        /* \"#utility.yul\":14501:14554   */\n      tag_293\n      jump\t// in\n    tag_535:\n        /* \"#utility.yul\":14491:14554   */\n      swap4\n      pop\n        /* \"#utility.yul\":14447:14564   */\n      pop\n        /* \"#utility.yul\":14603:14605   */\n      0x20\n        /* \"#utility.yul\":14629:14682   */\n      tag_536\n        /* \"#utility.yul\":14674:14681   */\n      dup7\n        /* \"#utility.yul\":14665:14671   */\n      dup3\n        /* \"#utility.yul\":14654:14663   */\n      dup8\n        /* \"#utility.yul\":14650:14672   */\n      add\n        /* \"#utility.yul\":14629:14682   */\n      tag_310\n      jump\t// in\n    tag_536:\n        /* \"#utility.yul\":14619:14682   */\n      swap3\n      pop\n        /* \"#utility.yul\":14574:14692   */\n      pop\n        /* \"#utility.yul\":14731:14733   */\n      0x40\n        /* \"#utility.yul\":14757:14807   */\n      tag_537\n        /* \"#utility.yul\":14799:14806   */\n      dup7\n        /* \"#utility.yul\":14790:14796   */\n      dup3\n        /* \"#utility.yul\":14779:14788   */\n      dup8\n        /* \"#utility.yul\":14775:14797   */\n      add\n        /* \"#utility.yul\":14757:14807   */\n      tag_304\n      jump\t// in\n    tag_537:\n        /* \"#utility.yul\":14747:14807   */\n      swap2\n      pop\n        /* \"#utility.yul\":14702:14817   */\n      pop\n        /* \"#utility.yul\":14211:14824   */\n      swap3\n      pop\n      swap3\n      pop\n      swap3\n      jump\t// out\n        /* \"#utility.yul\":14830:15304   */\n    tag_90:\n        /* \"#utility.yul\":14898:14904   */\n      0x00\n        /* \"#utility.yul\":14906:14912   */\n      dup1\n        /* \"#utility.yul\":14955:14957   */\n      0x40\n        /* \"#utility.yul\":14943:14952   */\n      dup4\n        /* \"#utility.yul\":14934:14941   */\n      dup6\n        /* \"#utility.yul\":14930:14953   */\n      sub\n        /* \"#utility.yul\":14926:14958   */\n      slt\n        /* \"#utility.yul\":14923:15042   */\n      iszero\n      tag_539\n      jumpi\n        /* \"#utility.yul\":14961:15040   */\n      tag_540\n      tag_284\n      jump\t// in\n    tag_540:\n        /* \"#utility.yul\":14923:15042   */\n    tag_539:\n        /* \"#utility.yul\":15081:15082   */\n      0x00\n        /* \"#utility.yul\":15106:15159   */\n      tag_541\n        /* \"#utility.yul\":15151:15158   */\n      dup6\n        /* \"#utility.yul\":15142:15148   */\n      dup3\n        /* \"#utility.yul\":15131:15140   */\n      dup7\n        /* \"#utility.yul\":15127:15149   */\n      add\n        /* \"#utility.yul\":15106:15159   */\n      tag_293\n      jump\t// in\n    tag_541:\n        /* \"#utility.yul\":15096:15159   */\n      swap3\n      pop\n        /* \"#utility.yul\":15052:15169   */\n      pop\n        /* \"#utility.yul\":15208:15210   */\n      0x20\n        /* \"#utility.yul\":15234:15287   */\n      tag_542\n        /* \"#utility.yul\":15279:15286   */\n      dup6\n        /* \"#utility.yul\":15270:15276   */\n      dup3\n        /* \"#utility.yul\":15259:15268   */\n      dup7\n        /* \"#utility.yul\":15255:15277   */\n      add\n        /* \"#utility.yul\":15234:15287   */\n      tag_310\n      jump\t// in\n    tag_542:\n        /* \"#utility.yul\":15224:15287   */\n      swap2\n      pop\n        /* \"#utility.yul\":15179:15297   */\n      pop\n        /* \"#utility.yul\":14830:15304   */\n      swap3\n      pop\n      swap3\n      swap1\n      pop\n      jump\t// out\n        /* \"#utility.yul\":15310:15490   */\n    tag_133:\n        /* \"#utility.yul\":15358:15435   */\n      0x4e487b7100000000000000000000000000000000000000000000000000000000\n        /* \"#utility.yul\":15355:15356   */\n      0x00\n        /* \"#utility.yul\":15348:15436   */\n      mstore\n        /* \"#utility.yul\":15455:15459   */\n      0x21\n        /* \"#utility.yul\":15452:15453   */\n      0x04\n        /* \"#utility.yul\":15445:15460   */\n      mstore\n        /* \"#utility.yul\":15479:15483   */\n      0x24\n        /* \"#utility.yul\":15476:15477   */\n      0x00\n        /* \"#utility.yul\":15469:15484   */\n      revert\n        /* \"#utility.yul\":15496:15615   */\n    tag_333:\n        /* \"#utility.yul\":15583:15584   */\n      0x04\n        /* \"#utility.yul\":15576:15581   */\n      dup2\n        /* \"#utility.yul\":15573:15585   */\n      lt\n        /* \"#utility.yul\":15563:15609   */\n      tag_545\n      jumpi\n        /* \"#utility.yul\":15589:15607   */\n      tag_546\n      tag_133\n      jump\t// in\n    tag_546:\n        /* \"#utility.yul\":15563:15609   */\n    tag_545:\n        /* \"#utility.yul\":15496:15615   */\n      pop\n      jump\t// out\n        /* \"#utility.yul\":15621:15760   */\n    tag_334:\n        /* \"#utility.yul\":15672:15679   */\n      0x00\n        /* \"#utility.yul\":15701:15706   */\n      dup2\n        /* \"#utility.yul\":15690:15706   */\n      swap1\n      pop\n        /* \"#utility.yul\":15707:15754   */\n      tag_548\n        /* \"#utility.yul\":15748:15753   */\n      dup3\n        /* \"#utility.yul\":15707:15754   */\n      tag_333\n      jump\t// in\n    tag_548:\n        /* \"#utility.yul\":15621:15760   */\n      swap2\n      swap1\n      pop\n      jump\t// out\n        /* \"#utility.yul\":15766:15905   */\n    tag_335:\n        /* \"#utility.yul\":15828:15837   */\n      0x00\n        /* \"#utility.yul\":15861:15899   */\n      tag_550\n        /* \"#utility.yul\":15893:15898   */\n      dup3\n        /* \"#utility.yul\":15861:15899   */\n      tag_334\n      jump\t// in\n    tag_550:\n        /* \"#utility.yul\":15848:15899   */\n      swap1\n      pop\n        /* \"#utility.yul\":15766:15905   */\n      swap2\n      swap1\n      pop\n      jump\t// out\n        /* \"#utility.yul\":15911:16056   */\n    tag_336:\n        /* \"#utility.yul\":16000:16049   */\n      tag_552\n        /* \"#utility.yul\":16043:16048   */\n      dup2\n        /* \"#utility.yul\":16000:16049   */\n      tag_335\n      jump\t// in\n    tag_552:\n        /* \"#utility.yul\":15995:15998   */\n      dup3\n        /* \"#utility.yul\":15988:16050   */\n      mstore\n        /* \"#utility.yul\":15911:16056   */\n      pop\n      pop\n      jump\t// out\n        /* \"#utility.yul\":16062:16164   */\n    tag_337:\n        /* \"#utility.yul\":16135:16157   */\n      tag_554\n        /* \"#utility.yul\":16151:16156   */\n      dup2\n        /* \"#utility.yul\":16135:16157   */\n      tag_323\n      jump\t// in\n    tag_554:\n        /* \"#utility.yul\":16130:16133   */\n      dup3\n        /* \"#utility.yul\":16123:16158   */\n      mstore\n        /* \"#utility.yul\":16062:16164   */\n      pop\n      pop\n      jump\t// out\n        /* \"#utility.yul\":16234:17631   */\n    tag_338:\n        /* \"#utility.yul\":16349:16352   */\n      0x00\n        /* \"#utility.yul\":16385:16389   */\n      0xc0\n        /* \"#utility.yul\":16380:16383   */\n      dup4\n        /* \"#utility.yul\":16376:16390   */\n      add\n        /* \"#utility.yul\":16483:16487   */\n      0x00\n        /* \"#utility.yul\":16476:16481   */\n      dup4\n        /* \"#utility.yul\":16472:16488   */\n      add\n        /* \"#utility.yul\":16466:16489   */\n      mload\n        /* \"#utility.yul\":16502:16565   */\n      tag_556\n        /* \"#utility.yul\":16559:16563   */\n      0x00\n        /* \"#utility.yul\":16554:16557   */\n      dup7\n        /* \"#utility.yul\":16550:16564   */\n      add\n        /* \"#utility.yul\":16536:16548   */\n      dup3\n        /* \"#utility.yul\":16502:16565   */\n      tag_299\n      jump\t// in\n    tag_556:\n        /* \"#utility.yul\":16400:16575   */\n      pop\n        /* \"#utility.yul\":16662:16666   */\n      0x20\n        /* \"#utility.yul\":16655:16660   */\n      dup4\n        /* \"#utility.yul\":16651:16667   */\n      add\n        /* \"#utility.yul\":16645:16668   */\n      mload\n        /* \"#utility.yul\":16681:16756   */\n      tag_557\n        /* \"#utility.yul\":16750:16754   */\n      0x20\n        /* \"#utility.yul\":16745:16748   */\n      dup7\n        /* \"#utility.yul\":16741:16755   */\n      add\n        /* \"#utility.yul\":16727:16739   */\n      dup3\n        /* \"#utility.yul\":16681:16756   */\n      tag_336\n      jump\t// in\n    tag_557:\n        /* \"#utility.yul\":16585:16766   */\n      pop\n        /* \"#utility.yul\":16848:16852   */\n      0x40\n        /* \"#utility.yul\":16841:16846   */\n      dup4\n        /* \"#utility.yul\":16837:16853   */\n      add\n        /* \"#utility.yul\":16831:16854   */\n      mload\n        /* \"#utility.yul\":16901:16904   */\n      dup5\n        /* \"#utility.yul\":16895:16899   */\n      dup3\n        /* \"#utility.yul\":16891:16905   */\n      sub\n        /* \"#utility.yul\":16884:16888   */\n      0x40\n        /* \"#utility.yul\":16879:16882   */\n      dup7\n        /* \"#utility.yul\":16875:16889   */\n      add\n        /* \"#utility.yul\":16868:16906   */\n      mstore\n        /* \"#utility.yul\":16927:17000   */\n      tag_558\n        /* \"#utility.yul\":16995:16999   */\n      dup3\n        /* \"#utility.yul\":16981:16993   */\n      dup3\n        /* \"#utility.yul\":16927:17000   */\n      tag_330\n      jump\t// in\n    tag_558:\n        /* \"#utility.yul\":16919:17000   */\n      swap2\n      pop\n        /* \"#utility.yul\":16776:17011   */\n      pop\n        /* \"#utility.yul\":17095:17099   */\n      0x60\n        /* \"#utility.yul\":17088:17093   */\n      dup4\n        /* \"#utility.yul\":17084:17100   */\n      add\n        /* \"#utility.yul\":17078:17101   */\n      mload\n        /* \"#utility.yul\":17148:17151   */\n      dup5\n        /* \"#utility.yul\":17142:17146   */\n      dup3\n        /* \"#utility.yul\":17138:17152   */\n      sub\n        /* \"#utility.yul\":17131:17135   */\n      0x60\n        /* \"#utility.yul\":17126:17129   */\n      dup7\n        /* \"#utility.yul\":17122:17136   */\n      add\n        /* \"#utility.yul\":17115:17153   */\n      mstore\n        /* \"#utility.yul\":17174:17247   */\n      tag_559\n        /* \"#utility.yul\":17242:17246   */\n      dup3\n        /* \"#utility.yul\":17228:17240   */\n      dup3\n        /* \"#utility.yul\":17174:17247   */\n      tag_330\n      jump\t// in\n    tag_559:\n        /* \"#utility.yul\":17166:17247   */\n      swap2\n      pop\n        /* \"#utility.yul\":17021:17258   */\n      pop\n        /* \"#utility.yul\":17344:17348   */\n      0x80\n        /* \"#utility.yul\":17337:17342   */\n      dup4\n        /* \"#utility.yul\":17333:17349   */\n      add\n        /* \"#utility.yul\":17327:17350   */\n      mload\n        /* \"#utility.yul\":17363:17422   */\n      tag_560\n        /* \"#utility.yul\":17416:17420   */\n      0x80\n        /* \"#utility.yul\":17411:17414   */\n      dup7\n        /* \"#utility.yul\":17407:17421   */\n      add\n        /* \"#utility.yul\":17393:17405   */\n      dup3\n        /* \"#utility.yul\":17363:17422   */\n      tag_337\n      jump\t// in\n    tag_560:\n        /* \"#utility.yul\":17268:17432   */\n      pop\n        /* \"#utility.yul\":17518:17522   */\n      0xa0\n        /* \"#utility.yul\":17511:17516   */\n      dup4\n        /* \"#utility.yul\":17507:17523   */\n      add\n        /* \"#utility.yul\":17501:17524   */\n      mload\n        /* \"#utility.yul\":17537:17594   */\n      tag_561\n        /* \"#utility.yul\":17588:17592   */\n      0xa0\n        /* \"#utility.yul\":17583:17586   */\n      dup7\n        /* \"#utility.yul\":17579:17593   */\n      add\n        /* \"#utility.yul\":17565:17577   */\n      dup3\n        /* \"#utility.yul\":17537:17594   */\n      tag_331\n      jump\t// in\n    tag_561:\n        /* \"#utility.yul\":17442:17604   */\n      pop\n        /* \"#utility.yul\":17621:17625   */\n      dup1\n        /* \"#utility.yul\":17614:17625   */\n      swap2\n      pop\n        /* \"#utility.yul\":16354:17631   */\n      pop\n        /* \"#utility.yul\":16234:17631   */\n      swap3\n      swap2\n      pop\n      pop\n      jump\t// out\n        /* \"#utility.yul\":17637:18002   */\n    tag_93:\n        /* \"#utility.yul\":17776:17780   */\n      0x00\n        /* \"#utility.yul\":17814:17816   */\n      0x20\n        /* \"#utility.yul\":17803:17812   */\n      dup3\n        /* \"#utility.yul\":17799:17817   */\n      add\n        /* \"#utility.yul\":17791:17817   */\n      swap1\n      pop\n        /* \"#utility.yul\":17863:17872   */\n      dup2\n        /* \"#utility.yul\":17857:17861   */\n      dup2\n        /* \"#utility.yul\":17853:17873   */\n      sub\n        /* \"#utility.yul\":17849:17850   */\n      0x00\n        /* \"#utility.yul\":17838:17847   */\n      dup4\n        /* \"#utility.yul\":17834:17851   */\n      add\n        /* \"#utility.yul\":17827:17874   */\n      mstore\n        /* \"#utility.yul\":17891:17995   */\n      tag_563\n        /* \"#utility.yul\":17990:17994   */\n      dup2\n        /* \"#utility.yul\":17981:17987   */\n      dup5\n        /* \"#utility.yul\":17891:17995   */\n      tag_338\n      jump\t// in\n    tag_563:\n        /* \"#utility.yul\":17883:17995   */\n      swap1\n      pop\n        /* \"#utility.yul\":17637:18002   */\n      swap3\n      swap2\n      pop\n      pop\n      jump\t// out\n        /* \"#utility.yul\":18008:18122   */\n    tag_339:\n        /* \"#utility.yul\":18075:18081   */\n      0x00\n        /* \"#utility.yul\":18109:18114   */\n      dup2\n        /* \"#utility.yul\":18103:18115   */\n      mload\n        /* \"#utility.yul\":18093:18115   */\n      swap1\n      pop\n        /* \"#utility.yul\":18008:18122   */\n      swap2\n      swap1\n      pop\n      jump\t// out\n        /* \"#utility.yul\":18128:18312   */\n    tag_340:\n        /* \"#utility.yul\":18227:18238   */\n      0x00\n        /* \"#utility.yul\":18261:18267   */\n      dup3\n        /* \"#utility.yul\":18256:18259   */\n      dup3\n        /* \"#utility.yul\":18249:18268   */\n      mstore\n        /* \"#utility.yul\":18301:18305   */\n      0x20\n        /* \"#utility.yul\":18296:18299   */\n      dup3\n        /* \"#utility.yul\":18292:18306   */\n      add\n        /* \"#utility.yul\":18277:18306   */\n      swap1\n      pop\n        /* \"#utility.yul\":18128:18312   */\n      swap3\n      swap2\n      pop\n      pop\n      jump\t// out\n        /* \"#utility.yul\":18318:18450   */\n    tag_341:\n        /* \"#utility.yul\":18385:18389   */\n      0x00\n        /* \"#utility.yul\":18408:18411   */\n      dup2\n        /* \"#utility.yul\":18400:18411   */\n      swap1\n      pop\n        /* \"#utility.yul\":18438:18442   */\n      0x20\n        /* \"#utility.yul\":18433:18436   */\n      dup3\n        /* \"#utility.yul\":18429:18443   */\n      add\n        /* \"#utility.yul\":18421:18443   */\n      swap1\n      pop\n        /* \"#utility.yul\":18318:18450   */\n      swap2\n      swap1\n      pop\n      jump\t// out\n        /* \"#utility.yul\":18456:18635   */\n    tag_342:\n        /* \"#utility.yul\":18525:18535   */\n      0x00\n        /* \"#utility.yul\":18546:18592   */\n      tag_568\n        /* \"#utility.yul\":18588:18591   */\n      dup4\n        /* \"#utility.yul\":18580:18586   */\n      dup4\n        /* \"#utility.yul\":18546:18592   */\n      tag_326\n      jump\t// in\n    tag_568:\n        /* \"#utility.yul\":18624:18628   */\n      0x20\n        /* \"#utility.yul\":18619:18622   */\n      dup4\n        /* \"#utility.yul\":18615:18629   */\n      add\n        /* \"#utility.yul\":18601:18629   */\n      swap1\n      pop\n        /* \"#utility.yul\":18456:18635   */\n      swap3\n      swap2\n      pop\n      pop\n      jump\t// out\n        /* \"#utility.yul\":18641:18754   */\n    tag_343:\n        /* \"#utility.yul\":18711:18715   */\n      0x00\n        /* \"#utility.yul\":18743:18747   */\n      0x20\n        /* \"#utility.yul\":18738:18741   */\n      dup3\n        /* \"#utility.yul\":18734:18748   */\n      add\n        /* \"#utility.yul\":18726:18748   */\n      swap1\n      pop\n        /* \"#utility.yul\":18641:18754   */\n      swap2\n      swap1\n      pop\n      jump\t// out\n        /* \"#utility.yul\":18790:19522   */\n    tag_344:\n        /* \"#utility.yul\":18909:18912   */\n      0x00\n        /* \"#utility.yul\":18938:18992   */\n      tag_571\n        /* \"#utility.yul\":18986:18991   */\n      dup3\n        /* \"#utility.yul\":18938:18992   */\n      tag_339\n      jump\t// in\n    tag_571:\n        /* \"#utility.yul\":19008:19094   */\n      tag_572\n        /* \"#utility.yul\":19087:19093   */\n      dup2\n        /* \"#utility.yul\":19082:19085   */\n      dup6\n        /* \"#utility.yul\":19008:19094   */\n      tag_340\n      jump\t// in\n    tag_572:\n        /* \"#utility.yul\":19001:19094   */\n      swap4\n      pop\n        /* \"#utility.yul\":19118:19174   */\n      tag_573\n        /* \"#utility.yul\":19168:19173   */\n      dup4\n        /* \"#utility.yul\":19118:19174   */\n      tag_341\n      jump\t// in\n    tag_573:\n        /* \"#utility.yul\":19197:19204   */\n      dup1\n        /* \"#utility.yul\":19228:19229   */\n      0x00\n        /* \"#utility.yul\":19213:19497   */\n    tag_574:\n        /* \"#utility.yul\":19238:19244   */\n      dup4\n        /* \"#utility.yul\":19235:19236   */\n      dup2\n        /* \"#utility.yul\":19232:19245   */\n      lt\n        /* \"#utility.yul\":19213:19497   */\n      iszero\n      tag_576\n      jumpi\n        /* \"#utility.yul\":19314:19320   */\n      dup2\n        /* \"#utility.yul\":19308:19321   */\n      mload\n        /* \"#utility.yul\":19341:19404   */\n      tag_577\n        /* \"#utility.yul\":19400:19403   */\n      dup9\n        /* \"#utility.yul\":19385:19398   */\n      dup3\n        /* \"#utility.yul\":19341:19404   */\n      tag_342\n      jump\t// in\n    tag_577:\n        /* \"#utility.yul\":19334:19404   */\n      swap8\n      pop\n        /* \"#utility.yul\":19427:19487   */\n      tag_578\n        /* \"#utility.yul\":19480:19486   */\n      dup4\n        /* \"#utility.yul\":19427:19487   */\n      tag_343\n      jump\t// in\n    tag_578:\n        /* \"#utility.yul\":19417:19487   */\n      swap3\n      pop\n        /* \"#utility.yul\":19273:19497   */\n      pop\n        /* \"#utility.yul\":19260:19261   */\n      0x01\n        /* \"#utility.yul\":19257:19258   */\n      dup2\n        /* \"#utility.yul\":19253:19262   */\n      add\n        /* \"#utility.yul\":19248:19262   */\n      swap1\n      pop\n        /* \"#utility.yul\":19213:19497   */\n      jump(tag_574)\n    tag_576:\n        /* \"#utility.yul\":19217:19231   */\n      pop\n        /* \"#utility.yul\":19513:19516   */\n      dup6\n        /* \"#utility.yul\":19506:19516   */\n      swap4\n      pop\n        /* \"#utility.yul\":18914:19522   */\n      pop\n      pop\n      pop\n        /* \"#utility.yul\":18790:19522   */\n      swap3\n      swap2\n      pop\n      pop\n      jump\t// out\n        /* \"#utility.yul\":19528:19901   */\n    tag_100:\n        /* \"#utility.yul\":19671:19675   */\n      0x00\n        /* \"#utility.yul\":19709:19711   */\n      0x20\n        /* \"#utility.yul\":19698:19707   */\n      dup3\n        /* \"#utility.yul\":19694:19712   */\n      add\n        /* \"#utility.yul\":19686:19712   */\n      swap1\n      pop\n        /* \"#utility.yul\":19758:19767   */\n      dup2\n        /* \"#utility.yul\":19752:19756   */\n      dup2\n        /* \"#utility.yul\":19748:19768   */\n      sub\n        /* \"#utility.yul\":19744:19745   */\n      0x00\n        /* \"#utility.yul\":19733:19742   */\n      dup4\n        /* \"#utility.yul\":19729:19746   */\n      add\n        /* \"#utility.yul\":19722:19769   */\n      mstore\n        /* \"#utility.yul\":19786:19894   */\n      tag_580\n        /* \"#utility.yul\":19889:19893   */\n      dup2\n        /* \"#utility.yul\":19880:19886   */\n      dup5\n        /* \"#utility.yul\":19786:19894   */\n      tag_344\n      jump\t// in\n    tag_580:\n        /* \"#utility.yul\":19778:19894   */\n      swap1\n      pop\n        /* \"#utility.yul\":19528:19901   */\n      swap3\n      swap2\n      pop\n      pop\n      jump\t// out\n        /* \"#utility.yul\":19907:20076   */\n    tag_345:\n        /* \"#utility.yul\":19991:20002   */\n      0x00\n        /* \"#utility.yul\":20025:20031   */\n      dup3\n        /* \"#utility.yul\":20020:20023   */\n      dup3\n        /* \"#utility.yul\":20013:20032   */\n      mstore\n        /* \"#utility.yul\":20065:20069   */\n      0x20\n        /* \"#utility.yul\":20060:20063   */\n      dup3\n        /* \"#utility.yul\":20056:20070   */\n      add\n        /* \"#utility.yul\":20041:20070   */\n      swap1\n      pop\n        /* \"#utility.yul\":19907:20076   */\n      swap3\n      swap2\n      pop\n      pop\n      jump\t// out\n        /* \"#utility.yul\":20082:20251   */\n    tag_346:\n        /* \"#utility.yul\":20222:20243   */\n      0x436861696e206e6f7420737570706f7274656400000000000000000000000000\n        /* \"#utility.yul\":20218:20219   */\n      0x00\n        /* \"#utility.yul\":20210:20216   */\n      dup3\n        /* \"#utility.yul\":20206:20220   */\n      add\n        /* \"#utility.yul\":20199:20244   */\n      mstore\n        /* \"#utility.yul\":20082:20251   */\n      pop\n      jump\t// out\n        /* \"#utility.yul\":20257:20623   */\n    tag_347:\n        /* \"#utility.yul\":20399:20402   */\n      0x00\n        /* \"#utility.yul\":20420:20487   */\n      tag_584\n        /* \"#utility.yul\":20484:20486   */\n      0x13\n        /* \"#utility.yul\":20479:20482   */\n      dup4\n        /* \"#utility.yul\":20420:20487   */\n      tag_345\n      jump\t// in\n    tag_584:\n        /* \"#utility.yul\":20413:20487   */\n      swap2\n      pop\n        /* \"#utility.yul\":20496:20589   */\n      tag_585\n        /* \"#utility.yul\":20585:20588   */\n      dup3\n        /* \"#utility.yul\":20496:20589   */\n      tag_346\n      jump\t// in\n    tag_585:\n        /* \"#utility.yul\":20614:20616   */\n      0x20\n        /* \"#utility.yul\":20609:20612   */\n      dup3\n        /* \"#utility.yul\":20605:20617   */\n      add\n        /* \"#utility.yul\":20598:20617   */\n      swap1\n      pop\n        /* \"#utility.yul\":20257:20623   */\n      swap2\n      swap1\n      pop\n      jump\t// out\n        /* \"#utility.yul\":20629:21048   */\n    tag_116:\n        /* \"#utility.yul\":20795:20799   */\n      0x00\n        /* \"#utility.yul\":20833:20835   */\n      0x20\n        /* \"#utility.yul\":20822:20831   */\n      dup3\n        /* \"#utility.yul\":20818:20836   */\n      add\n        /* \"#utility.yul\":20810:20836   */\n      swap1\n      pop\n        /* \"#utility.yul\":20882:20891   */\n      dup2\n        /* \"#utility.yul\":20876:20880   */\n      dup2\n        /* \"#utility.yul\":20872:20892   */\n      sub\n        /* \"#utility.yul\":20868:20869   */\n      0x00\n        /* \"#utility.yul\":20857:20866   */\n      dup4\n        /* \"#utility.yul\":20853:20870   */\n      add\n        /* \"#utility.yul\":20846:20893   */\n      mstore\n        /* \"#utility.yul\":20910:21041   */\n      tag_587\n        /* \"#utility.yul\":21036:21040   */\n      dup2\n        /* \"#utility.yul\":20910:21041   */\n      tag_347\n      jump\t// in\n    tag_587:\n        /* \"#utility.yul\":20902:21041   */\n      swap1\n      pop\n        /* \"#utility.yul\":20629:21048   */\n      swap2\n      swap1\n      pop\n      jump\t// out\n        /* \"#utility.yul\":21054:21228   */\n    tag_348:\n        /* \"#utility.yul\":21194:21220   */\n      0x417373657420616c726561647920726567697374657265640000000000000000\n        /* \"#utility.yul\":21190:21191   */\n      0x00\n        /* \"#utility.yul\":21182:21188   */\n      dup3\n        /* \"#utility.yul\":21178:21192   */\n      add\n        /* \"#utility.yul\":21171:21221   */\n      mstore\n        /* \"#utility.yul\":21054:21228   */\n      pop\n      jump\t// out\n        /* \"#utility.yul\":21234:21600   */\n    tag_349:\n        /* \"#utility.yul\":21376:21379   */\n      0x00\n        /* \"#utility.yul\":21397:21464   */\n      tag_590\n        /* \"#utility.yul\":21461:21463   */\n      0x18\n        /* \"#utility.yul\":21456:21459   */\n      dup4\n        /* \"#utility.yul\":21397:21464   */\n      tag_345\n      jump\t// in\n    tag_590:\n        /* \"#utility.yul\":21390:21464   */\n      swap2\n      pop\n        /* \"#utility.yul\":21473:21566   */\n      tag_591\n        /* \"#utility.yul\":21562:21565   */\n      dup3\n        /* \"#utility.yul\":21473:21566   */\n      tag_348\n      jump\t// in\n    tag_591:\n        /* \"#utility.yul\":21591:21593   */\n      0x20\n        /* \"#utility.yul\":21586:21589   */\n      dup3\n        /* \"#utility.yul\":21582:21594   */\n      add\n        /* \"#utility.yul\":21575:21594   */\n      swap1\n      pop\n        /* \"#utility.yul\":21234:21600   */\n      swap2\n      swap1\n      pop\n      jump\t// out\n        /* \"#utility.yul\":21606:22025   */\n    tag_130:\n        /* \"#utility.yul\":21772:21776   */\n      0x00\n        /* \"#utility.yul\":21810:21812   */\n      0x20\n        /* \"#utility.yul\":21799:21808   */\n      dup3\n        /* \"#utility.yul\":21795:21813   */\n      add\n        /* \"#utility.yul\":21787:21813   */\n      swap1\n      pop\n        /* \"#utility.yul\":21859:21868   */\n      dup2\n        /* \"#utility.yul\":21853:21857   */\n      dup2\n        /* \"#utility.yul\":21849:21869   */\n      sub\n        /* \"#utility.yul\":21845:21846   */\n      0x00\n        /* \"#utility.yul\":21834:21843   */\n      dup4\n        /* \"#utility.yul\":21830:21847   */\n      add\n        /* \"#utility.yul\":21823:21870   */\n      mstore\n        /* \"#utility.yul\":21887:22018   */\n      tag_593\n        /* \"#utility.yul\":22013:22017   */\n      dup2\n        /* \"#utility.yul\":21887:22018   */\n      tag_349\n      jump\t// in\n    tag_593:\n        /* \"#utility.yul\":21879:22018   */\n      swap1\n      pop\n        /* \"#utility.yul\":21606:22025   */\n      swap2\n      swap1\n      pop\n      jump\t// out\n        /* \"#utility.yul\":22031:22211   */\n    tag_350:\n        /* \"#utility.yul\":22079:22156   */\n      0x4e487b7100000000000000000000000000000000000000000000000000000000\n        /* \"#utility.yul\":22076:22077   */\n      0x00\n        /* \"#utility.yul\":22069:22157   */\n      mstore\n        /* \"#utility.yul\":22176:22180   */\n      0x22\n        /* \"#utility.yul\":22173:22174   */\n      0x04\n        /* \"#utility.yul\":22166:22181   */\n      mstore\n        /* \"#utility.yul\":22200:22204   */\n      0x24\n        /* \"#utility.yul\":22197:22198   */\n      0x00\n        /* \"#utility.yul\":22190:22205   */\n      revert\n        /* \"#utility.yul\":22217:22537   */\n    tag_165:\n        /* \"#utility.yul\":22261:22267   */\n      0x00\n        /* \"#utility.yul\":22298:22299   */\n      0x02\n        /* \"#utility.yul\":22292:22296   */\n      dup3\n        /* \"#utility.yul\":22288:22300   */\n      div\n        /* \"#utility.yul\":22278:22300   */\n      swap1\n      pop\n        /* \"#utility.yul\":22345:22346   */\n      0x01\n        /* \"#utility.yul\":22339:22343   */\n      dup3\n        /* \"#utility.yul\":22335:22347   */\n      and\n        /* \"#utility.yul\":22366:22384   */\n      dup1\n        /* \"#utility.yul\":22356:22437   */\n      tag_596\n      jumpi\n        /* \"#utility.yul\":22422:22426   */\n      0x7f\n        /* \"#utility.yul\":22414:22420   */\n      dup3\n        /* \"#utility.yul\":22410:22427   */\n      and\n        /* \"#utility.yul\":22400:22427   */\n      swap2\n      pop\n        /* \"#utility.yul\":22356:22437   */\n    tag_596:\n        /* \"#utility.yul\":22484:22486   */\n      0x20\n        /* \"#utility.yul\":22476:22482   */\n      dup3\n        /* \"#utility.yul\":22473:22487   */\n      lt\n        /* \"#utility.yul\":22453:22471   */\n      dup2\n        /* \"#utility.yul\":22450:22488   */\n      sub\n        /* \"#utility.yul\":22447:22531   */\n      tag_597\n      jumpi\n        /* \"#utility.yul\":22503:22521   */\n      tag_598\n      tag_350\n      jump\t// in\n    tag_598:\n        /* \"#utility.yul\":22447:22531   */\n    tag_597:\n        /* \"#utility.yul\":22268:22537   */\n      pop\n        /* \"#utility.yul\":22217:22537   */\n      swap2\n      swap1\n      pop\n      jump\t// out\n        /* \"#utility.yul\":22543:22684   */\n    tag_351:\n        /* \"#utility.yul\":22592:22596   */\n      0x00\n        /* \"#utility.yul\":22615:22618   */\n      dup2\n        /* \"#utility.yul\":22607:22618   */\n      swap1\n      pop\n        /* \"#utility.yul\":22638:22641   */\n      dup2\n        /* \"#utility.yul\":22635:22636   */\n      0x00\n        /* \"#utility.yul\":22628:22642   */\n      mstore\n        /* \"#utility.yul\":22672:22676   */\n      0x20\n        /* \"#utility.yul\":22669:22670   */\n      0x00\n        /* \"#utility.yul\":22659:22677   */\n      keccak256\n        /* \"#utility.yul\":22651:22677   */\n      swap1\n      pop\n        /* \"#utility.yul\":22543:22684   */\n      swap2\n      swap1\n      pop\n      jump\t// out\n        /* \"#utility.yul\":22690:22783   */\n    tag_352:\n        /* \"#utility.yul\":22727:22733   */\n      0x00\n        /* \"#utility.yul\":22774:22776   */\n      0x20\n        /* \"#utility.yul\":22769:22771   */\n      0x1f\n        /* \"#utility.yul\":22762:22767   */\n      dup4\n        /* \"#utility.yul\":22758:22772   */\n      add\n        /* \"#utility.yul\":22754:22777   */\n      div\n        /* \"#utility.yul\":22744:22777   */\n      swap1\n      pop\n        /* \"#utility.yul\":22690:22783   */\n      swap2\n      swap1\n      pop\n      jump\t// out\n        /* \"#utility.yul\":22789:22896   */\n    tag_353:\n        /* \"#utility.yul\":22833:22841   */\n      0x00\n        /* \"#utility.yul\":22883:22888   */\n      dup3\n        /* \"#utility.yul\":22877:22881   */\n      dup3\n        /* \"#utility.yul\":22873:22889   */\n      shl\n        /* \"#utility.yul\":22852:22889   */\n      swap1\n      pop\n        /* \"#utility.yul\":22789:22896   */\n      swap3\n      swap2\n      pop\n      pop\n      jump\t// out\n        /* \"#utility.yul\":22902:23295   */\n    tag_354:\n        /* \"#utility.yul\":22971:22977   */\n      0x00\n        /* \"#utility.yul\":23021:23022   */\n      0x08\n        /* \"#utility.yul\":23009:23019   */\n      dup4\n        /* \"#utility.yul\":23005:23023   */\n      mul\n        /* \"#utility.yul\":23044:23141   */\n      tag_603\n        /* \"#utility.yul\":23074:23140   */\n      0xffffffffffffffffffffffffffffffffffffffffffffffffffffffffffffffff\n        /* \"#utility.yul\":23063:23072   */\n      dup3\n        /* \"#utility.yul\":23044:23141   */\n      tag_353\n      jump\t// in\n    tag_603:\n        /* \"#utility.yul\":23162:23201   */\n      tag_604\n        /* \"#utility.yul\":23192:23200   */\n      dup7\n        /* \"#utility.yul\":23181:23190   */\n      dup4\n        /* \"#utility.yul\":23162:23201   */\n      tag_353\n      jump\t// in\n    tag_604:\n        /* \"#utility.yul\":23150:23201   */\n      swap6\n      pop\n        /* \"#utility.yul\":23234:23238   */\n      dup1\n        /* \"#utility.yul\":23230:23239   */\n      not\n        /* \"#utility.yul\":23223:23228   */\n      dup5\n        /* \"#utility.yul\":23219:23240   */\n      and\n        /* \"#utility.yul\":23210:23240   */\n      swap4\n      pop\n        /* \"#utility.yul\":23283:23287   */\n      dup1\n        /* \"#utility.yul\":23273:23281   */\n      dup7\n        /* \"#utility.yul\":23269:23288   */\n      and\n        /* \"#utility.yul\":23262:23267   */\n      dup5\n        /* \"#utility.yul\":23259:23289   */\n      or\n        /* \"#utility.yul\":23249:23289   */\n      swap3\n      pop\n        /* \"#utility.yul\":22978:23295   */\n      pop\n      pop\n        /* \"#utility.yul\":22902:23295   */\n      swap4\n      swap3\n      pop\n      pop\n      pop\n      jump\t// out\n        /* \"#utility.yul\":23301:23361   */\n    tag_355:\n        /* \"#utility.yul\":23329:23332   */\n      0x00\n        /* \"#utility.yul\":23350:23355   */\n      dup2\n        /* \"#utility.yul\":23343:23355   */\n      swap1\n      pop\n        /* \"#utility.yul\":23301:23361   */\n      swap2\n      swap1\n      pop\n      jump\t// out\n        /* \"#utility.yul\":23367:23509   */\n    tag_356:\n        /* \"#utility.yul\":23417:23426   */\n      0x00\n        /* \"#utility.yul\":23450:23503   */\n      tag_607\n        /* \"#utility.yul\":23468:23502   */\n      tag_608\n        /* \"#utility.yul\":23477:23501   */\n      tag_609\n        /* \"#utility.yul\":23495:23500   */\n      dup5\n        /* \"#utility.yul\":23477:23501   */\n      tag_291\n      jump\t// in\n    tag_609:\n        /* \"#utility.yul\":23468:23502   */\n      tag_355\n      jump\t// in\n    tag_608:\n        /* \"#utility.yul\":23450:23503   */\n      tag_291\n      jump\t// in\n    tag_607:\n        /* \"#utility.yul\":23437:23503   */\n      swap1\n      pop\n        /* \"#utility.yul\":23367:23509   */\n      swap2\n      swap1\n      pop\n      jump\t// out\n        /* \"#utility.yul\":23515:23590   */\n    tag_357:\n        /* \"#utility.yul\":23558:23561   */\n      0x00\n        /* \"#utility.yul\":23579:23584   */\n      dup2\n        /* \"#utility.yul\":23572:23584   */\n      swap1\n      pop\n        /* \"#utility.yul\":23515:23590   */\n      swap2\n      swap1\n      pop\n      jump\t// out\n        /* \"#utility.yul\":23596:23865   */\n    tag_358:\n        /* \"#utility.yul\":23706:23745   */\n      tag_612\n        /* \"#utility.yul\":23737:23744   */\n      dup4\n        /* \"#utility.yul\":23706:23745   */\n      tag_356\n      jump\t// in\n    tag_612:\n        /* \"#utility.yul\":23767:23858   */\n      tag_613\n        /* \"#utility.yul\":23816:23857   */\n      tag_614\n        /* \"#utility.yul\":23840:23856   */\n      dup3\n        /* \"#utility.yul\":23816:23857   */\n      tag_357\n      jump\t// in\n    tag_614:\n        /* \"#utility.yul\":23808:23814   */\n      dup5\n        /* \"#utility.yul\":23801:23805   */\n      dup5\n        /* \"#utility.yul\":23795:23806   */\n      sload\n        /* \"#utility.yul\":23767:23858   */\n      tag_354\n      jump\t// in\n    tag_613:\n        /* \"#utility.yul\":23761:23765   */\n      dup3\n        /* \"#utility.yul\":23754:23859   */\n      sstore\n        /* \"#utility.yul\":23672:23865   */\n      pop\n        /* \"#utility.yul\":23596:23865   */\n      pop\n      pop\n      pop\n      jump\t// out\n        /* \"#utility.yul\":23871:23944   */\n    tag_359:\n        /* \"#utility.yul\":23916:23919   */\n      0x00\n        /* \"#utility.yul\":23871:23944   */\n      swap1\n      jump\t// out\n        /* \"#utility.yul\":23950:24139   */\n    tag_360:\n        /* \"#utility.yul\":24027:24059   */\n      tag_617\n      tag_359\n      jump\t// in\n    tag_617:\n        /* \"#utility.yul\":24068:24133   */\n      tag_618\n        /* \"#utility.yul\":24126:24132   */\n      dup2\n        /* \"#utility.yul\":24118:24124   */\n      dup5\n        /* \"#utility.yul\":24112:24116   */\n      dup5\n        /* \"#utility.yul\":24068:24133   */\n      tag_358\n      jump\t// in\n    tag_618:\n        /* \"#utility.yul\":24003:24139   */\n      pop\n        /* \"#utility.yul\":23950:24139   */\n      pop\n      pop\n      jump\t// out\n        /* \"#utility.yul\":24145:24331   */\n    tag_361:\n        /* \"#utility.yul\":24205:24325   */\n    tag_620:\n        /* \"#utility.yul\":24222:24225   */\n      dup2\n        /* \"#utility.yul\":24215:24220   */\n      dup2\n        /* \"#utility.yul\":24212:24226   */\n      lt\n        /* \"#utility.yul\":24205:24325   */\n      iszero\n      tag_622\n      jumpi\n        /* \"#utility.yul\":24276:24315   */\n      tag_623\n        /* \"#utility.yul\":24313:24314   */\n      0x00\n        /* \"#utility.yul\":24306:24311   */\n      dup3\n        /* \"#utility.yul\":24276:24315   */\n      tag_360\n      jump\t// in\n    tag_623:\n        /* \"#utility.yul\":24249:24250   */\n      0x01\n        /* \"#utility.yul\":24242:24247   */\n      dup2\n        /* \"#utility.yul\":24238:24251   */\n      add\n        /* \"#utility.yul\":24229:24251   */\n      swap1\n      pop\n        /* \"#utility.yul\":24205:24325   */\n      jump(tag_620)\n    tag_622:\n        /* \"#utility.yul\":24145:24331   */\n      pop\n      pop\n      jump\t// out\n        /* \"#utility.yul\":24337:24880   */\n    tag_362:\n        /* \"#utility.yul\":24438:24440   */\n      0x1f\n        /* \"#utility.yul\":24433:24436   */\n      dup3\n        /* \"#utility.yul\":24430:24441   */\n      gt\n        /* \"#utility.yul\":24427:24873   */\n      iszero\n      tag_625\n      jumpi\n        /* \"#utility.yul\":24472:24510   */\n      tag_626\n        /* \"#utility.yul\":24504:24509   */\n      dup2\n        /* \"#utility.yul\":24472:24510   */\n      tag_351\n      jump\t// in\n    tag_626:\n        /* \"#utility.yul\":24556:24585   */\n      tag_627\n        /* \"#utility.yul\":24574:24584   */\n      dup5\n        /* \"#utility.yul\":24556:24585   */\n      tag_352\n      jump\t// in\n    tag_627:\n        /* \"#utility.yul\":24546:24554   */\n      dup2\n        /* \"#utility.yul\":24542:24586   */\n      add\n        /* \"#utility.yul\":24739:24741   */\n      0x20\n        /* \"#utility.yul\":24727:24737   */\n      dup6\n        /* \"#utility.yul\":24724:24742   */\n      lt\n        /* \"#utility.yul\":24721:24770   */\n      iszero\n      tag_628\n      jumpi\n        /* \"#utility.yul\":24760:24768   */\n      dup2\n        /* \"#utility.yul\":24745:24768   */\n      swap1\n      pop\n        /* \"#utility.yul\":24721:24770   */\n    tag_628:\n        /* \"#utility.yul\":24783:24863   */\n      tag_629\n        /* \"#utility.yul\":24839:24861   */\n      tag_630\n        /* \"#utility.yul\":24857:24860   */\n      dup6\n        /* \"#utility.yul\":24839:24861   */\n      tag_352\n      jump\t// in\n    tag_630:\n        /* \"#utility.yul\":24829:24837   */\n      dup4\n        /* \"#utility.yul\":24825:24862   */\n      add\n        /* \"#utility.yul\":24812:24823   */\n      dup3\n        /* \"#utility.yul\":24783:24863   */\n      tag_361\n      jump\t// in\n    tag_629:\n        /* \"#utility.yul\":24442:24873   */\n      pop\n      pop\n        /* \"#utility.yul\":24427:24873   */\n    tag_625:\n        /* \"#utility.yul\":24337:24880   */\n      pop\n      pop\n      pop\n      jump\t// out\n        /* \"#utility.yul\":24886:25003   */\n    tag_363:\n        /* \"#utility.yul\":24940:24948   */\n      0x00\n        /* \"#utility.yul\":24990:24995   */\n      dup3\n        /* \"#utility.yul\":24984:24988   */\n      dup3\n        /* \"#utility.yul\":24980:24996   */\n      shr\n        /* \"#utility.yul\":24959:24996   */\n      swap1\n      pop\n        /* \"#utility.yul\":24886:25003   */\n      swap3\n      swap2\n      pop\n      pop\n      jump\t// out\n        /* \"#utility.yul\":25009:25178   */\n    tag_364:\n        /* \"#utility.yul\":25053:25059   */\n      0x00\n        /* \"#utility.yul\":25086:25137   */\n      tag_633\n        /* \"#utility.yul\":25134:25135   */\n      0x00\n        /* \"#utility.yul\":25130:25136   */\n      not\n        /* \"#utility.yul\":25122:25127   */\n      dup5\n        /* \"#utility.yul\":25119:25120   */\n      0x08\n        /* \"#utility.yul\":25115:25128   */\n      mul\n        /* \"#utility.yul\":25086:25137   */\n      tag_363\n      jump\t// in\n    tag_633:\n        /* \"#utility.yul\":25082:25138   */\n      not\n        /* \"#utility.yul\":25167:25171   */\n      dup1\n        /* \"#utility.yul\":25161:25165   */\n      dup4\n        /* \"#utility.yul\":25157:25172   */\n      and\n        /* \"#utility.yul\":25147:25172   */\n      swap2\n      pop\n        /* \"#utility.yul\":25060:25178   */\n      pop\n        /* \"#utility.yul\":25009:25178   */\n      swap3\n      swap2\n      pop\n      pop\n      jump\t// out\n        /* \"#utility.yul\":25183:25478   */\n    tag_365:\n        /* \"#utility.yul\":25259:25263   */\n      0x00\n        /* \"#utility.yul\":25405:25434   */\n      tag_635\n        /* \"#utility.yul\":25430:25433   */\n      dup4\n        /* \"#utility.yul\":25424:25428   */\n      dup4\n        /* \"#utility.yul\":25405:25434   */\n      tag_364\n      jump\t// in\n    tag_635:\n        /* \"#utility.yul\":25397:25434   */\n      swap2\n      pop\n        /* \"#utility.yul\":25467:25470   */\n      dup3\n        /* \"#utility.yul\":25464:25465   */\n      0x02\n        /* \"#utility.yul\":25460:25471   */\n      mul\n        /* \"#utility.yul\":25454:25458   */\n      dup3\n        /* \"#utility.yul\":25451:25472   */\n      or\n        /* \"#utility.yul\":25443:25472   */\n      swap1\n      pop\n        /* \"#utility.yul\":25183:25478   */\n      swap3\n      swap2\n      pop\n      pop\n      jump\t// out\n        /* \"#utility.yul\":25483:26878   */\n    tag_137:\n        /* \"#utility.yul\":25600:25637   */\n      tag_637\n        /* \"#utility.yul\":25633:25636   */\n      dup3\n        /* \"#utility.yul\":25600:25637   */\n      tag_327\n      jump\t// in\n    tag_637:\n        /* \"#utility.yul\":25702:25720   */\n      0xffffffffffffffff\n        /* \"#utility.yul\":25694:25700   */\n      dup2\n        /* \"#utility.yul\":25691:25721   */\n      gt\n        /* \"#utility.yul\":25688:25744   */\n      iszero\n      tag_638\n      jumpi\n        /* \"#utility.yul\":25724:25742   */\n      tag_639\n      tag_316\n      jump\t// in\n    tag_639:\n        /* \"#utility.yul\":25688:25744   */\n    tag_638:\n        /* \"#utility.yul\":25768:25806   */\n      tag_640\n        /* \"#utility.yul\":25800:25804   */\n      dup3\n        /* \"#utility.yul\":25794:25805   */\n      sload\n        /* \"#utility.yul\":25768:25806   */\n      tag_165\n      jump\t// in\n    tag_640:\n        /* \"#utility.yul\":25853:25920   */\n      tag_641\n        /* \"#utility.yul\":25913:25919   */\n      dup3\n        /* \"#utility.yul\":25905:25911   */\n      dup3\n        /* \"#utility.yul\":25899:25903   */\n      dup6\n        /* \"#utility.yul\":25853:25920   */\n      tag_362\n      jump\t// in\n    tag_641:\n        /* \"#utility.yul\":25947:25948   */\n      0x00\n        /* \"#utility.yul\":25971:25975   */\n      0x20\n        /* \"#utility.yul\":25958:25975   */\n      swap1\n      pop\n        /* \"#utility.yul\":26003:26005   */\n      0x1f\n        /* \"#utility.yul\":25995:26001   */\n      dup4\n        /* \"#utility.yul\":25992:26006   */\n      gt\n        /* \"#utility.yul\":26020:26021   */\n      0x01\n        /* \"#utility.yul\":26015:26633   */\n      dup2\n      eq\n      tag_643\n      jumpi\n        /* \"#utility.yul\":26677:26678   */\n      0x00\n        /* \"#utility.yul\":26694:26700   */\n      dup5\n        /* \"#utility.yul\":26691:26768   */\n      iszero\n      tag_644\n      jumpi\n        /* \"#utility.yul\":26743:26752   */\n      dup3\n        /* \"#utility.yul\":26738:26741   */\n      dup8\n        /* \"#utility.yul\":26734:26753   */\n      add\n        /* \"#utility.yul\":26728:26754   */\n      mload\n        /* \"#utility.yul\":26719:26754   */\n      swap1\n      pop\n        /* \"#utility.yul\":26691:26768   */\n    tag_644:\n        /* \"#utility.yul\":26794:26861   */\n      tag_645\n        /* \"#utility.yul\":26854:26860   */\n      dup6\n        /* \"#utility.yul\":26847:26852   */\n      dup3\n        /* \"#utility.yul\":26794:26861   */\n      tag_365\n      jump\t// in\n    tag_645:\n        /* \"#utility.yul\":26788:26792   */\n      dup7\n        /* \"#utility.yul\":26781:26862   */\n      sstore\n        /* \"#utility.yul\":26650:26872   */\n      pop\n        /* \"#utility.yul\":25985:26872   */\n      jump(tag_642)\n        /* \"#utility.yul\":26015:26633   */\n    tag_643:\n        /* \"#utility.yul\":26067:26071   */\n      0x1f\n        /* \"#utility.yul\":26063:26072   */\n      not\n        /* \"#utility.yul\":26055:26061   */\n      dup5\n        /* \"#utility.yul\":26051:26073   */\n      and\n        /* \"#utility.yul\":26101:26138   */\n      tag_646\n        /* \"#utility.yul\":26133:26137   */\n      dup7\n        /* \"#utility.yul\":26101:26138   */\n      tag_351\n      jump\t// in\n    tag_646:\n        /* \"#utility.yul\":26160:26161   */\n      0x00\n        /* \"#utility.yul\":26174:26382   */\n    tag_647:\n        /* \"#utility.yul\":26188:26195   */\n      dup3\n        /* \"#utility.yul\":26185:26186   */\n      dup2\n        /* \"#utility.yul\":26182:26196   */\n      lt\n        /* \"#utility.yul\":26174:26382   */\n      iszero\n      tag_649\n      jumpi\n        /* \"#utility.yul\":26267:26276   */\n      dup5\n        /* \"#utility.yul\":26262:26265   */\n      dup10\n        /* \"#utility.yul\":26258:26277   */\n      add\n        /* \"#utility.yul\":26252:26278   */\n      mload\n        /* \"#utility.yul\":26244:26250   */\n      dup3\n        /* \"#utility.yul\":26237:26279   */\n      sstore\n        /* \"#utility.yul\":26318:26319   */\n      0x01\n        /* \"#utility.yul\":26310:26316   */\n      dup3\n        /* \"#utility.yul\":26306:26320   */\n      add\n        /* \"#utility.yul\":26296:26320   */\n      swap2\n      pop\n        /* \"#utility.yul\":26365:26367   */\n      0x20\n        /* \"#utility.yul\":26354:26363   */\n      dup6\n        /* \"#utility.yul\":26350:26368   */\n      add\n        /* \"#utility.yul\":26337:26368   */\n      swap5\n      pop\n        /* \"#utility.yul\":26211:26215   */\n      0x20\n        /* \"#utility.yul\":26208:26209   */\n      dup2\n        /* \"#utility.yul\":26204:26216   */\n      add\n        /* \"#utility.yul\":26199:26216   */\n      swap1\n      pop\n        /* \"#utility.yul\":26174:26382   */\n      jump(tag_647)\n    tag_649:\n        /* \"#utility.yul\":26410:26416   */\n      dup7\n        /* \"#utility.yul\":26401:26408   */\n      dup4\n        /* \"#utility.yul\":26398:26417   */\n      lt\n        /* \"#utility.yul\":26395:26574   */\n      iszero\n      tag_650\n      jumpi\n        /* \"#utility.yul\":26468:26477   */\n      dup5\n        /* \"#utility.yul\":26463:26466   */\n      dup10\n        /* \"#utility.yul\":26459:26478   */\n      add\n        /* \"#utility.yul\":26453:26479   */\n      mload\n        /* \"#utility.yul\":26511:26559   */\n      tag_651\n        /* \"#utility.yul\":26553:26557   */\n      0x1f\n        /* \"#utility.yul\":26545:26551   */\n      dup10\n        /* \"#utility.yul\":26541:26558   */\n      and\n        /* \"#utility.yul\":26530:26539   */\n      dup3\n        /* \"#utility.yul\":26511:26559   */\n      tag_364\n      jump\t// in\n    tag_651:\n        /* \"#utility.yul\":26503:26509   */\n      dup4\n        /* \"#utility.yul\":26496:26560   */\n      sstore\n        /* \"#utility.yul\":26418:26574   */\n      pop\n        /* \"#utility.yul\":26395:26574   */\n    tag_650:\n        /* \"#utility.yul\":26620:26621   */\n      0x01\n        /* \"#utility.yul\":26616:26617   */\n      0x02\n        /* \"#utility.yul\":26608:26614   */\n      dup9\n        /* \"#utility.yul\":26604:26618   */\n      mul\n        /* \"#utility.yul\":26600:26622   */\n      add\n        /* \"#utility.yul\":26594:26598   */\n      dup9\n        /* \"#utility.yul\":26587:26623   */\n      sstore\n        /* \"#utility.yul\":26022:26633   */\n      pop\n      pop\n      pop\n        /* \"#utility.yul\":25985:26872   */\n    tag_642:\n      pop\n        /* \"#utility.yul\":25575:26878   */\n      pop\n      pop\n      pop\n        /* \"#utility.yul\":25483:26878   */\n      pop\n      pop\n      jump\t// out\n        /* \"#utility.yul\":26884:27039   */\n    tag_366:\n        /* \"#utility.yul\":26983:27032   */\n      tag_653\n        /* \"#utility.yul\":27026:27031   */\n      dup2\n        /* \"#utility.yul\":26983:27032   */\n      tag_335\n      jump\t// in\n    tag_653:\n        /* \"#utility.yul\":26978:26981   */\n      dup3\n        /* \"#utility.yul\":26971:27033   */\n      mstore\n        /* \"#utility.yul\":26884:27039   */\n      pop\n      pop\n      jump\t// out\n        /* \"#utility.yul\":27045:27422   */\n    tag_367:\n        /* \"#utility.yul\":27133:27136   */\n      0x00\n        /* \"#utility.yul\":27161:27200   */\n      tag_655\n        /* \"#utility.yul\":27194:27199   */\n      dup3\n        /* \"#utility.yul\":27161:27200   */\n      tag_327\n      jump\t// in\n    tag_655:\n        /* \"#utility.yul\":27216:27287   */\n      tag_656\n        /* \"#utility.yul\":27280:27286   */\n      dup2\n        /* \"#utility.yul\":27275:27278   */\n      dup6\n        /* \"#utility.yul\":27216:27287   */\n      tag_345\n      jump\t// in\n    tag_656:\n        /* \"#utility.yul\":27209:27287   */\n      swap4\n      pop\n        /* \"#utility.yul\":27296:27361   */\n      tag_657\n        /* \"#utility.yul\":27354:27360   */\n      dup2\n        /* \"#utility.yul\":27349:27352   */\n      dup6\n        /* \"#utility.yul\":27342:27346   */\n      0x20\n        /* \"#utility.yul\":27335:27340   */\n      dup7\n        /* \"#utility.yul\":27331:27347   */\n      add\n        /* \"#utility.yul\":27296:27361   */\n      tag_329\n      jump\t// in\n    tag_657:\n        /* \"#utility.yul\":27386:27415   */\n      tag_658\n        /* \"#utility.yul\":27408:27414   */\n      dup2\n        /* \"#utility.yul\":27386:27415   */\n      tag_315\n      jump\t// in\n    tag_658:\n        /* \"#utility.yul\":27381:27384   */\n      dup5\n        /* \"#utility.yul\":27377:27416   */\n      add\n        /* \"#utility.yul\":27370:27416   */\n      swap2\n      pop\n        /* \"#utility.yul\":27137:27422   */\n      pop\n        /* \"#utility.yul\":27045:27422   */\n      swap3\n      swap2\n      pop\n      pop\n      jump\t// out\n        /* \"#utility.yul\":27428:28076   */\n    tag_142:\n        /* \"#utility.yul\":27629:27633   */\n      0x00\n        /* \"#utility.yul\":27667:27669   */\n      0x60\n        /* \"#utility.yul\":27656:27665   */\n      dup3\n        /* \"#utility.yul\":27652:27670   */\n      add\n        /* \"#utility.yul\":27644:27670   */\n      swap1\n      pop\n        /* \"#utility.yul\":27680:27763   */\n      tag_660\n        /* \"#utility.yul\":27760:27761   */\n      0x00\n        /* \"#utility.yul\":27749:27758   */\n      dup4\n        /* \"#utility.yul\":27745:27762   */\n      add\n        /* \"#utility.yul\":27736:27742   */\n      dup7\n        /* \"#utility.yul\":27680:27763   */\n      tag_366\n      jump\t// in\n    tag_660:\n        /* \"#utility.yul\":27810:27819   */\n      dup2\n        /* \"#utility.yul\":27804:27808   */\n      dup2\n        /* \"#utility.yul\":27800:27820   */\n      sub\n        /* \"#utility.yul\":27795:27797   */\n      0x20\n        /* \"#utility.yul\":27784:27793   */\n      dup4\n        /* \"#utility.yul\":27780:27798   */\n      add\n        /* \"#utility.yul\":27773:27821   */\n      mstore\n        /* \"#utility.yul\":27838:27916   */\n      tag_661\n        /* \"#utility.yul\":27911:27915   */\n      dup2\n        /* \"#utility.yul\":27902:27908   */\n      dup6\n        /* \"#utility.yul\":27838:27916   */\n      tag_367\n      jump\t// in\n    tag_661:\n        /* \"#utility.yul\":27830:27916   */\n      swap1\n      pop\n        /* \"#utility.yul\":27963:27972   */\n      dup2\n        /* \"#utility.yul\":27957:27961   */\n      dup2\n        /* \"#utility.yul\":27953:27973   */\n      sub\n        /* \"#utility.yul\":27948:27950   */\n      0x40\n        /* \"#utility.yul\":27937:27946   */\n      dup4\n        /* \"#utility.yul\":27933:27951   */\n      add\n        /* \"#utility.yul\":27926:27974   */\n      mstore\n        /* \"#utility.yul\":27991:28069   */\n      tag_662\n        /* \"#utility.yul\":28064:28068   */\n      dup2\n        /* \"#utility.yul\":28055:28061   */\n      dup5\n        /* \"#utility.yul\":27991:28069   */\n      tag_367\n      jump\t// in\n    tag_662:\n        /* \"#utility.yul\":27983:28069   */\n      swap1\n      pop\n        /* \"#utility.yul\":27428:28076   */\n      swap5\n      swap4\n      pop\n      pop\n      pop\n      pop\n      jump\t// out\n        /* \"#utility.yul\":28082:28255   */\n    tag_368:\n        /* \"#utility.yul\":28222:28247   */\n      0x436861696e20616c726561647920737570706f72746564000000000000000000\n        /* \"#utility.yul\":28218:28219   */\n      0x00\n        /* \"#utility.yul\":28210:28216   */\n      dup3\n        /* \"#utility.yul\":28206:28220   */\n      add\n        /* \"#utility.yul\":28199:28248   */\n      mstore\n        /* \"#utility.yul\":28082:28255   */\n      pop\n      jump\t// out\n        /* \"#utility.yul\":28261:28627   */\n    tag_369:\n        /* \"#utility.yul\":28403:28406   */\n      0x00\n        /* \"#utility.yul\":28424:28491   */\n      tag_665\n        /* \"#utility.yul\":28488:28490   */\n      0x17\n        /* \"#utility.yul\":28483:28486   */\n      dup4\n        /* \"#utility.yul\":28424:28491   */\n      tag_345\n      jump\t// in\n    tag_665:\n        /* \"#utility.yul\":28417:28491   */\n      swap2\n      pop\n        /* \"#utility.yul\":28500:28593   */\n      tag_666\n        /* \"#utility.yul\":28589:28592   */\n      dup3\n        /* \"#utility.yul\":28500:28593   */\n      tag_368\n      jump\t// in\n    tag_666:\n        /* \"#utility.yul\":28618:28620   */\n      0x20\n        /* \"#utility.yul\":28613:28616   */\n      dup3\n        /* \"#utility.yul\":28609:28621   */\n      add\n        /* \"#utility.yul\":28602:28621   */\n      swap1\n      pop\n        /* \"#utility.yul\":28261:28627   */\n      swap2\n      swap1\n      pop\n      jump\t// out\n        /* \"#utility.yul\":28633:29052   */\n    tag_182:\n        /* \"#utility.yul\":28799:28803   */\n      0x00\n        /* \"#utility.yul\":28837:28839   */\n      0x20\n        /* \"#utility.yul\":28826:28835   */\n      dup3\n        /* \"#utility.yul\":28822:28840   */\n      add\n        /* \"#utility.yul\":28814:28840   */\n      swap1\n      pop\n        /* \"#utility.yul\":28886:28895   */\n      dup2\n        /* \"#utility.yul\":28880:28884   */\n      dup2\n        /* \"#utility.yul\":28876:28896   */\n      sub\n        /* \"#utility.yul\":28872:28873   */\n      0x00\n        /* \"#utility.yul\":28861:28870   */\n      dup4\n        /* \"#utility.yul\":28857:28874   */\n      add\n        /* \"#utility.yul\":28850:28897   */\n      mstore\n        /* \"#utility.yul\":28914:29045   */\n      tag_668\n        /* \"#utility.yul\":29040:29044   */\n      dup2\n        /* \"#utility.yul\":28914:29045   */\n      tag_369\n      jump\t// in\n    tag_668:\n        /* \"#utility.yul\":28906:29045   */\n      swap1\n      pop\n        /* \"#utility.yul\":28633:29052   */\n      swap2\n      swap1\n      pop\n      jump\t// out\n        /* \"#utility.yul\":29058:29371   */\n    tag_187:\n        /* \"#utility.yul\":29171:29175   */\n      0x00\n        /* \"#utility.yul\":29209:29211   */\n      0x20\n        /* \"#utility.yul\":29198:29207   */\n      dup3\n        /* \"#utility.yul\":29194:29212   */\n      add\n        /* \"#utility.yul\":29186:29212   */\n      swap1\n      pop\n        /* \"#utility.yul\":29258:29267   */\n      dup2\n        /* \"#utility.yul\":29252:29256   */\n      dup2\n        /* \"#utility.yul\":29248:29268   */\n      sub\n        /* \"#utility.yul\":29244:29245   */\n      0x00\n        /* \"#utility.yul\":29233:29242   */\n      dup4\n        /* \"#utility.yul\":29229:29246   */\n      add\n        /* \"#utility.yul\":29222:29269   */\n      mstore\n        /* \"#utility.yul\":29286:29364   */\n      tag_670\n        /* \"#utility.yul\":29359:29363   */\n      dup2\n        /* \"#utility.yul\":29350:29356   */\n      dup5\n        /* \"#utility.yul\":29286:29364   */\n      tag_367\n      jump\t// in\n    tag_670:\n        /* \"#utility.yul\":29278:29364   */\n      swap1\n      pop\n        /* \"#utility.yul\":29058:29371   */\n      swap3\n      swap2\n      pop\n      pop\n      jump\t// out\n        /* \"#utility.yul\":29377:29547   */\n    tag_370:\n        /* \"#utility.yul\":29517:29539   */\n      0x4173736574206e6f742072656769737465726564000000000000000000000000\n        /* \"#utility.yul\":29513:29514   */\n      0x00\n        /* \"#utility.yul\":29505:29511   */\n      dup3\n        /* \"#utility.yul\":29501:29515   */\n      add\n        /* \"#utility.yul\":29494:29540   */\n      mstore\n        /* \"#utility.yul\":29377:29547   */\n      pop\n      jump\t// out\n        /* \"#utility.yul\":29553:29919   */\n    tag_371:\n        /* \"#utility.yul\":29695:29698   */\n      0x00\n        /* \"#utility.yul\":29716:29783   */\n      tag_673\n        /* \"#utility.yul\":29780:29782   */\n      0x14\n        /* \"#utility.yul\":29775:29778   */\n      dup4\n        /* \"#utility.yul\":29716:29783   */\n      tag_345\n      jump\t// in\n    tag_673:\n        /* \"#utility.yul\":29709:29783   */\n      swap2\n      pop\n        /* \"#utility.yul\":29792:29885   */\n      tag_674\n        /* \"#utility.yul\":29881:29884   */\n      dup3\n        /* \"#utility.yul\":29792:29885   */\n      tag_370\n      jump\t// in\n    tag_674:\n        /* \"#utility.yul\":29910:29912   */\n      0x20\n        /* \"#utility.yul\":29905:29908   */\n      dup3\n        /* \"#utility.yul\":29901:29913   */\n      add\n        /* \"#utility.yul\":29894:29913   */\n      swap1\n      pop\n        /* \"#utility.yul\":29553:29919   */\n      swap2\n      swap1\n      pop\n      jump\t// out\n        /* \"#utility.yul\":29925:30344   */\n    tag_193:\n        /* \"#utility.yul\":30091:30095   */\n      0x00\n        /* \"#utility.yul\":30129:30131   */\n      0x20\n        /* \"#utility.yul\":30118:30127   */\n      dup3\n        /* \"#utility.yul\":30114:30132   */\n      add\n        /* \"#utility.yul\":30106:30132   */\n      swap1\n      pop\n        /* \"#utility.yul\":30178:30187   */\n      dup2\n        /* \"#utility.yul\":30172:30176   */\n      dup2\n        /* \"#utility.yul\":30168:30188   */\n      sub\n        /* \"#utility.yul\":30164:30165   */\n      0x00\n        /* \"#utility.yul\":30153:30162   */\n      dup4\n        /* \"#utility.yul\":30149:30166   */\n      add\n        /* \"#utility.yul\":30142:30189   */\n      mstore\n        /* \"#utility.yul\":30206:30337   */\n      tag_676\n        /* \"#utility.yul\":30332:30336   */\n      dup2\n        /* \"#utility.yul\":30206:30337   */\n      tag_371\n      jump\t// in\n    tag_676:\n        /* \"#utility.yul\":30198:30337   */\n      swap1\n      pop\n        /* \"#utility.yul\":29925:30344   */\n      swap2\n      swap1\n      pop\n      jump\t// out\n        /* \"#utility.yul\":30350:30468   */\n    tag_372:\n        /* \"#utility.yul\":30437:30461   */\n      tag_678\n        /* \"#utility.yul\":30455:30460   */\n      dup2\n        /* \"#utility.yul\":30437:30461   */\n      tag_298\n      jump\t// in\n    tag_678:\n        /* \"#utility.yul\":30432:30435   */\n      dup3\n        /* \"#utility.yul\":30425:30462   */\n      mstore\n        /* \"#utility.yul\":30350:30468   */\n      pop\n      pop\n      jump\t// out\n        /* \"#utility.yul\":30474:30696   */\n    tag_254:\n        /* \"#utility.yul\":30567:30571   */\n      0x00\n        /* \"#utility.yul\":30605:30607   */\n      0x20\n        /* \"#utility.yul\":30594:30603   */\n      dup3\n        /* \"#utility.yul\":30590:30608   */\n      add\n        /* \"#utility.yul\":30582:30608   */\n      swap1\n      pop\n        /* \"#utility.yul\":30618:30689   */\n      tag_680\n        /* \"#utility.yul\":30686:30687   */\n      0x00\n        /* \"#utility.yul\":30675:30684   */\n      dup4\n        /* \"#utility.yul\":30671:30688   */\n      add\n        /* \"#utility.yul\":30662:30668   */\n      dup5\n        /* \"#utility.yul\":30618:30689   */\n      tag_372\n      jump\t// in\n    tag_680:\n        /* \"#utility.yul\":30474:30696   */\n      swap3\n      swap2\n      pop\n      pop\n      jump\t// out\n        /* \"#utility.yul\":30702:31034   */\n    tag_271:\n        /* \"#utility.yul\":30823:30827   */\n      0x00\n        /* \"#utility.yul\":30861:30863   */\n      0x40\n        /* \"#utility.yul\":30850:30859   */\n      dup3\n        /* \"#utility.yul\":30846:30864   */\n      add\n        /* \"#utility.yul\":30838:30864   */\n      swap1\n      pop\n        /* \"#utility.yul\":30874:30945   */\n      tag_682\n        /* \"#utility.yul\":30942:30943   */\n      0x00\n        /* \"#utility.yul\":30931:30940   */\n      dup4\n        /* \"#utility.yul\":30927:30944   */\n      add\n        /* \"#utility.yul\":30918:30924   */\n      dup6\n        /* \"#utility.yul\":30874:30945   */\n      tag_372\n      jump\t// in\n    tag_682:\n        /* \"#utility.yul\":30955:31027   */\n      tag_683\n        /* \"#utility.yul\":31023:31025   */\n      0x20\n        /* \"#utility.yul\":31012:31021   */\n      dup4\n        /* \"#utility.yul\":31008:31026   */\n      add\n        /* \"#utility.yul\":30999:31005   */\n      dup5\n        /* \"#utility.yul\":30955:31027   */\n      tag_308\n      jump\t// in\n    tag_683:\n        /* \"#utility.yul\":30702:31034   */\n      swap4\n      swap3\n      pop\n      pop\n      pop\n      jump\t// out\n\n    auxdata: 0xa2646970667358221220430341e8c3e0b51f8d021d717eec72014e1697c3edc4b8f609498f60e3723b7a64736f6c634300081a0033\n}\n",
				"bytecode": {
					"linkReferences": {},
					"object": "608060405234801561000f575f80fd5b505f60015f6101000a81548160ff02191690831515021790555061003b5f801b3361007260201b60201c565b5061006c7fedcc084d3dcd65a1f7f23c65c46722faca6953d28e43150a467cf43e5c3092383361007260201b60201c565b506101d1565b5f610083838361016760201b60201c565b61015d5760015f808581526020019081526020015f205f015f8473ffffffffffffffffffffffffffffffffffffffff1673ffffffffffffffffffffffffffffffffffffffff1681526020019081526020015f205f6101000a81548160ff0219169083151502179055506100fa6101ca60201b60201c565b73ffffffffffffffffffffffffffffffffffffffff168273ffffffffffffffffffffffffffffffffffffffff16847f2f8788117e7eff1d82e926ec794901d17c78024a50270940304540a733656f0d60405160405180910390a460019050610161565b5f90505b92915050565b5f805f8481526020019081526020015f205f015f8373ffffffffffffffffffffffffffffffffffffffff1673ffffffffffffffffffffffffffffffffffffffff1681526020019081526020015f205f9054906101000a900460ff16905092915050565b5f33905090565b612591806101de5f395ff3fe608060405234801561000f575f80fd5b506004361061011f575f3560e01c8063804ea334116100ab578063d088194b1161006f578063d088194b146102ef578063d547741f1461030b578063f103167a14610327578063f68e955314610357578063f7a452cb146103755761011f565b8063804ea3341461024b5780638456cb591461027b57806391d1485414610285578063a217fddf146102b5578063af83d4d8146102d35761011f565b80632c321fb6116100f25780632c321fb6146101cf5780632f2ff15d146101eb57806336568abe146102075780633f4ba83a146102235780635c975abb1461022d5761011f565b806301ffc9a714610123578063024237eb146101535780630f3f6b5b14610183578063248a9ca31461019f575b5f80fd5b61013d600480360381019061013891906116b0565b610393565b60405161014a91906116f5565b60405180910390f35b61016d60048036038101906101689190611741565b61040c565b60405161017a9190611853565b60405180910390f35b61019d6004803603810190610198919061189d565b61042e565b005b6101b960048036038101906101b4919061190e565b610513565b6040516101c69190611948565b60405180910390f35b6101e960048036038101906101e49190611b20565b61052f565b005b61020560048036038101906102009190611be1565b61089d565b005b610221600480360381019061021c9190611be1565b6108bf565b005b61022b61093a565b005b610235610951565b60405161024291906116f5565b60405180910390f35b61026560048036038101906102609190611741565b610966565b6040516102729190611cea565b60405180910390f35b610283610a44565b005b61029f600480360381019061029a9190611be1565b610a5b565b6040516102ac91906116f5565b60405180910390f35b6102bd610abe565b6040516102ca9190611948565b60405180910390f35b6102ed60048036038101906102e89190611d0a565b610ac4565b005b61030960048036038101906103049190611d64565b610c03565b005b61032560048036038101906103209190611be1565b610dc4565b005b610341600480360381019061033c9190611db4565b610de6565b60405161034e9190611f01565b60405180910390f35b61035f611032565b60405161036c9190611948565b60405180910390f35b61037d611056565b60405161038a9190611fc9565b60405180910390f35b5f7f7965db0b000000000000000000000000000000000000000000000000000000007bffffffffffffffffffffffffffffffffffffffffffffffffffffffff1916827bffffffffffffffffffffffffffffffffffffffffffffffffffffffff19161480610405575061040482611067565b5b9050919050565b606061042760065f8481526020019081526020015f206110d0565b9050919050565b7fedcc084d3dcd65a1f7f23c65c46722faca6953d28e43150a467cf43e5c309238610458816110ef565b61046c83600461110390919063ffffffff16565b6104ab576040517f08c379a00000000000000000000000000000000000000000000000000000000081526004016104a290612043565b60405180910390fd5b8160035f8581526020019081526020015f206002015f6101000a81548160ff021916908315150217905550827f87634784dcd711c95eeada7ac1b47534172532618b7c1938b456431c04dad2148360405161050691906116f5565b60405180910390a2505050565b5f805f8381526020019081526020015f20600101549050919050565b7fedcc084d3dcd65a1f7f23c65c46722faca6953d28e43150a467cf43e5c309238610559816110ef565b61056161111a565b61057587600461110390919063ffffffff16565b6105b4576040517f08c379a00000000000000000000000000000000000000000000000000000000081526004016105ab90612043565b60405180910390fd5b5f73ffffffffffffffffffffffffffffffffffffffff1660025f8981526020019081526020015f205f8873ffffffffffffffffffffffffffffffffffffffff1673ffffffffffffffffffffffffffffffffffffffff1681526020019081526020015f205f015f9054906101000a900473ffffffffffffffffffffffffffffffffffffffff1673ffffffffffffffffffffffffffffffffffffffff161461068f576040517f08c379a0000000000000000000000000000000000000000000000000000000008152600401610686906120ab565b60405180910390fd5b5f6040518060c001604052808873ffffffffffffffffffffffffffffffffffffffff1681526020018760038111156106ca576106c9611df2565b5b81526020018681526020018581526020018460ff1681526020016001151581525090508060025f8a81526020019081526020015f205f8973ffffffffffffffffffffffffffffffffffffffff1673ffffffffffffffffffffffffffffffffffffffff1681526020019081526020015f205f820151815f015f6101000a81548173ffffffffffffffffffffffffffffffffffffffff021916908373ffffffffffffffffffffffffffffffffffffffff1602179055506020820151815f0160146101000a81548160ff021916908360038111156107a8576107a7611df2565b5b021790555060408201518160010190816107c291906122c3565b5060608201518160020190816107d891906122c3565b506080820151816003015f6101000a81548160ff021916908360ff16021790555060a08201518160030160016101000a81548160ff02191690831515021790555090505061083f8760065f8b81526020019081526020015f2061115b90919063ffffffff16565b508673ffffffffffffffffffffffffffffffffffffffff16887f571d5cf62fac2ebf1649f188d2552d1c79b668f2b66d94172b9af912c2666f8288888860405161088b939291906123d9565b60405180910390a35050505050505050565b6108a682610513565b6108af816110ef565b6108b98383611188565b50505050565b6108c7611271565b73ffffffffffffffffffffffffffffffffffffffff168173ffffffffffffffffffffffffffffffffffffffff161461092b576040517f6697b23200000000000000000000000000000000000000000000000000000000815260040160405180910390fd5b6109358282611278565b505050565b5f801b610946816110ef565b61094e611361565b50565b5f60015f9054906101000a900460ff16905090565b61096e6115ca565b60035f8381526020019081526020015f206040518060600160405290815f82015481526020016001820180546109a3906120f6565b80601f01602080910402602001604051908101604052809291908181526020018280546109cf906120f6565b8015610a1a5780601f106109f157610100808354040283529160200191610a1a565b820191905f5260205f20905b8154815290600101906020018083116109fd57829003601f168201915b50505050508152602001600282015f9054906101000a900460ff1615151515815250509050919050565b5f801b610a50816110ef565b610a586113c2565b50565b5f805f8481526020019081526020015f205f015f8373ffffffffffffffffffffffffffffffffffffffff1673ffffffffffffffffffffffffffffffffffffffff1681526020019081526020015f205f9054906101000a900460ff16905092915050565b5f801b81565b7fedcc084d3dcd65a1f7f23c65c46722faca6953d28e43150a467cf43e5c309238610aee816110ef565b610b0283600461110390919063ffffffff16565b15610b42576040517f08c379a0000000000000000000000000000000000000000000000000000000008152600401610b3990612466565b60405180910390fd5b610b5683600461142390919063ffffffff16565b5060405180606001604052808481526020018381526020016001151581525060035f8581526020019081526020015f205f820151815f01556020820151816001019081610ba391906122c3565b506040820151816002015f6101000a81548160ff021916908315150217905550905050827f12d56340507874cc704f6a6ea33cc1d871be90637f1fae4e6e1e1cbd77da3ffd83604051610bf69190612484565b60405180910390a2505050565b7fedcc084d3dcd65a1f7f23c65c46722faca6953d28e43150a467cf43e5c309238610c2d816110ef565b5f73ffffffffffffffffffffffffffffffffffffffff1660025f8681526020019081526020015f205f8573ffffffffffffffffffffffffffffffffffffffff1673ffffffffffffffffffffffffffffffffffffffff1681526020019081526020015f205f015f9054906101000a900473ffffffffffffffffffffffffffffffffffffffff1673ffffffffffffffffffffffffffffffffffffffff1603610d08576040517f08c379a0000000000000000000000000000000000000000000000000000000008152600401610cff906124ee565b60405180910390fd5b8160025f8681526020019081526020015f205f8573ffffffffffffffffffffffffffffffffffffffff1673ffffffffffffffffffffffffffffffffffffffff1681526020019081526020015f2060030160016101000a81548160ff0219169083151502179055508273ffffffffffffffffffffffffffffffffffffffff16847fce6315d17c79350e737a11e641e32024ae26a2500d55b7e62cc61268811c7fbb84604051610db691906116f5565b60405180910390a350505050565b610dcd82610513565b610dd6816110ef565b610de08383611278565b50505050565b610dee6115eb565b60025f8481526020019081526020015f205f8373ffffffffffffffffffffffffffffffffffffffff1673ffffffffffffffffffffffffffffffffffffffff1681526020019081526020015f206040518060c00160405290815f82015f9054906101000a900473ffffffffffffffffffffffffffffffffffffffff1673ffffffffffffffffffffffffffffffffffffffff1673ffffffffffffffffffffffffffffffffffffffff1681526020015f820160149054906101000a900460ff166003811115610ebd57610ebc611df2565b5b6003811115610ecf57610ece611df2565b5b8152602001600182018054610ee3906120f6565b80601f0160208091040260200160405190810160405280929190818152602001828054610f0f906120f6565b8015610f5a5780601f10610f3157610100808354040283529160200191610f5a565b820191905f5260205f20905b815481529060010190602001808311610f3d57829003601f168201915b50505050508152602001600282018054610f73906120f6565b80601f0160208091040260200160405190810160405280929190818152602001828054610f9f906120f6565b8015610fea5780601f10610fc157610100808354040283529160200191610fea565b820191905f5260205f20905b815481529060010190602001808311610fcd57829003601f168201915b50505050508152602001600382015f9054906101000a900460ff1660ff1660ff1681526020016003820160019054906101000a900460ff161515151581525050905092915050565b7fedcc084d3dcd65a1f7f23c65c46722faca6953d28e43150a467cf43e5c30923881565b6060611062600461143a565b905090565b5f7f01ffc9a7000000000000000000000000000000000000000000000000000000007bffffffffffffffffffffffffffffffffffffffffffffffffffffffff1916827bffffffffffffffffffffffffffffffffffffffffffffffffffffffff1916149050919050565b60605f6110de835f01611459565b905060608190508092505050919050565b611100816110fb611271565b6114b2565b50565b5f611112835f01835f1b611503565b905092915050565b611122610951565b15611159576040517fd93c066500000000000000000000000000000000000000000000000000000000815260040160405180910390fd5b565b5f611180835f018373ffffffffffffffffffffffffffffffffffffffff165f1b611523565b905092915050565b5f6111938383610a5b565b6112675760015f808581526020019081526020015f205f015f8473ffffffffffffffffffffffffffffffffffffffff1673ffffffffffffffffffffffffffffffffffffffff1681526020019081526020015f205f6101000a81548160ff021916908315150217905550611204611271565b73ffffffffffffffffffffffffffffffffffffffff168273ffffffffffffffffffffffffffffffffffffffff16847f2f8788117e7eff1d82e926ec794901d17c78024a50270940304540a733656f0d60405160405180910390a46001905061126b565b5f90505b92915050565b5f33905090565b5f6112838383610a5b565b15611357575f805f8581526020019081526020015f205f015f8473ffffffffffffffffffffffffffffffffffffffff1673ffffffffffffffffffffffffffffffffffffffff1681526020019081526020015f205f6101000a81548160ff0219169083151502179055506112f4611271565b73ffffffffffffffffffffffffffffffffffffffff168273ffffffffffffffffffffffffffffffffffffffff16847ff6391f5c32d9c69d2a47ea670b442974b53935d1edc7fd64eb21e047a839171b60405160405180910390a46001905061135b565b5f90505b92915050565b61136961158a565b5f60015f6101000a81548160ff0219169083151502179055507f5db9ee0a495bf2e6ff9c91a7834c1ba4fdd244a5e8aa4e537bd38aeae4b073aa6113ab611271565b6040516113b8919061251b565b60405180910390a1565b6113ca61111a565b6001805f6101000a81548160ff0219169083151502179055507f62e78cea01bee320cd4e420270b5ea74000d11b0c9f74754ebdbfc544b05a25861140c611271565b604051611419919061251b565b60405180910390a1565b5f611432835f01835f1b611523565b905092915050565b60605f611448835f01611459565b905060608190508092505050919050565b6060815f018054806020026020016040519081016040528092919081815260200182805480156114a657602002820191905f5260205f20905b815481526020019060010190808311611492575b50505050509050919050565b6114bc8282610a5b565b6114ff5780826040517fe2517d3f0000000000000000000000000000000000000000000000000000000081526004016114f6929190612534565b60405180910390fd5b5050565b5f80836001015f8481526020019081526020015f20541415905092915050565b5f61152e8383611503565b61158057825f0182908060018154018082558091505060019003905f5260205f20015f9091909190915055825f0180549050836001015f8481526020019081526020015f208190555060019050611584565b5f90505b92915050565b611592610951565b6115c8576040517f8dfc202b00000000000000000000000000000000000000000000000000000000815260040160405180910390fd5b565b60405180606001604052805f8152602001606081526020015f151581525090565b6040518060c001604052805f73ffffffffffffffffffffffffffffffffffffffff1681526020015f600381111561162557611624611df2565b5b815260200160608152602001606081526020015f60ff1681526020015f151581525090565b5f604051905090565b5f80fd5b5f80fd5b5f7fffffffff0000000000000000000000000000000000000000000000000000000082169050919050565b61168f8161165b565b8114611699575f80fd5b50565b5f813590506116aa81611686565b92915050565b5f602082840312156116c5576116c4611653565b5b5f6116d28482850161169c565b91505092915050565b5f8115159050919050565b6116ef816116db565b82525050565b5f6020820190506117085f8301846116e6565b92915050565b5f819050919050565b6117208161170e565b811461172a575f80fd5b50565b5f8135905061173b81611717565b92915050565b5f6020828403121561175657611755611653565b5b5f6117638482850161172d565b91505092915050565b5f81519050919050565b5f82825260208201905092915050565b5f819050602082019050919050565b5f73ffffffffffffffffffffffffffffffffffffffff82169050919050565b5f6117be82611795565b9050919050565b6117ce816117b4565b82525050565b5f6117df83836117c5565b60208301905092915050565b5f602082019050919050565b5f6118018261176c565b61180b8185611776565b935061181683611786565b805f5b8381101561184657815161182d88826117d4565b9750611838836117eb565b925050600181019050611819565b5085935050505092915050565b5f6020820190508181035f83015261186b81846117f7565b905092915050565b61187c816116db565b8114611886575f80fd5b50565b5f8135905061189781611873565b92915050565b5f80604083850312156118b3576118b2611653565b5b5f6118c08582860161172d565b92505060206118d185828601611889565b9150509250929050565b5f819050919050565b6118ed816118db565b81146118f7575f80fd5b50565b5f81359050611908816118e4565b92915050565b5f6020828403121561192357611922611653565b5b5f611930848285016118fa565b91505092915050565b611942816118db565b82525050565b5f60208201905061195b5f830184611939565b92915050565b61196a816117b4565b8114611974575f80fd5b50565b5f8135905061198581611961565b92915050565b60048110611997575f80fd5b50565b5f813590506119a88161198b565b92915050565b5f80fd5b5f80fd5b5f601f19601f8301169050919050565b7f4e487b71000000000000000000000000000000000000000000000000000000005f52604160045260245ffd5b6119fc826119b6565b810181811067ffffffffffffffff82111715611a1b57611a1a6119c6565b5b80604052505050565b5f611a2d61164a565b9050611a3982826119f3565b919050565b5f67ffffffffffffffff821115611a5857611a576119c6565b5b611a61826119b6565b9050602081019050919050565b828183375f83830152505050565b5f611a8e611a8984611a3e565b611a24565b905082815260208101848484011115611aaa57611aa96119b2565b5b611ab5848285611a6e565b509392505050565b5f82601f830112611ad157611ad06119ae565b5b8135611ae1848260208601611a7c565b91505092915050565b5f60ff82169050919050565b611aff81611aea565b8114611b09575f80fd5b50565b5f81359050611b1a81611af6565b92915050565b5f805f805f8060c08789031215611b3a57611b39611653565b5b5f611b4789828a0161172d565b9650506020611b5889828a01611977565b9550506040611b6989828a0161199a565b945050606087013567ffffffffffffffff811115611b8a57611b89611657565b5b611b9689828a01611abd565b935050608087013567ffffffffffffffff811115611bb757611bb6611657565b5b611bc389828a01611abd565b92505060a0611bd489828a01611b0c565b9150509295509295509295565b5f8060408385031215611bf757611bf6611653565b5b5f611c04858286016118fa565b9250506020611c1585828601611977565b9150509250929050565b611c288161170e565b82525050565b5f81519050919050565b5f82825260208201905092915050565b8281835e5f83830152505050565b5f611c6082611c2e565b611c6a8185611c38565b9350611c7a818560208601611c48565b611c83816119b6565b840191505092915050565b611c97816116db565b82525050565b5f606083015f830151611cb25f860182611c1f565b5060208301518482036020860152611cca8282611c56565b9150506040830151611cdf6040860182611c8e565b508091505092915050565b5f6020820190508181035f830152611d028184611c9d565b905092915050565b5f8060408385031215611d2057611d1f611653565b5b5f611d2d8582860161172d565b925050602083013567ffffffffffffffff811115611d4e57611d4d611657565b5b611d5a85828601611abd565b9150509250929050565b5f805f60608486031215611d7b57611d7a611653565b5b5f611d888682870161172d565b9350506020611d9986828701611977565b9250506040611daa86828701611889565b9150509250925092565b5f8060408385031215611dca57611dc9611653565b5b5f611dd78582860161172d565b9250506020611de885828601611977565b9150509250929050565b7f4e487b71000000000000000000000000000000000000000000000000000000005f52602160045260245ffd5b60048110611e3057611e2f611df2565b5b50565b5f819050611e4082611e1f565b919050565b5f611e4f82611e33565b9050919050565b611e5f81611e45565b82525050565b611e6e81611aea565b82525050565b5f60c083015f830151611e895f8601826117c5565b506020830151611e9c6020860182611e56565b5060408301518482036040860152611eb48282611c56565b91505060608301518482036060860152611ece8282611c56565b9150506080830151611ee36080860182611e65565b5060a0830151611ef660a0860182611c8e565b508091505092915050565b5f6020820190508181035f830152611f198184611e74565b905092915050565b5f81519050919050565b5f82825260208201905092915050565b5f819050602082019050919050565b5f611f558383611c1f565b60208301905092915050565b5f602082019050919050565b5f611f7782611f21565b611f818185611f2b565b9350611f8c83611f3b565b805f5b83811015611fbc578151611fa38882611f4a565b9750611fae83611f61565b925050600181019050611f8f565b5085935050505092915050565b5f6020820190508181035f830152611fe18184611f6d565b905092915050565b5f82825260208201905092915050565b7f436861696e206e6f7420737570706f72746564000000000000000000000000005f82015250565b5f61202d601383611fe9565b915061203882611ff9565b602082019050919050565b5f6020820190508181035f83015261205a81612021565b9050919050565b7f417373657420616c7265616479207265676973746572656400000000000000005f82015250565b5f612095601883611fe9565b91506120a082612061565b602082019050919050565b5f6020820190508181035f8301526120c281612089565b9050919050565b7f4e487b71000000000000000000000000000000000000000000000000000000005f52602260045260245ffd5b5f600282049050600182168061210d57607f821691505b6020821081036121205761211f6120c9565b5b50919050565b5f819050815f5260205f209050919050565b5f6020601f8301049050919050565b5f82821b905092915050565b5f600883026121827fffffffffffffffffffffffffffffffffffffffffffffffffffffffffffffffff82612147565b61218c8683612147565b95508019841693508086168417925050509392505050565b5f819050919050565b5f6121c76121c26121bd8461170e565b6121a4565b61170e565b9050919050565b5f819050919050565b6121e0836121ad565b6121f46121ec826121ce565b848454612153565b825550505050565b5f90565b6122086121fc565b6122138184846121d7565b505050565b5b818110156122365761222b5f82612200565b600181019050612219565b5050565b601f82111561227b5761224c81612126565b61225584612138565b81016020851015612264578190505b61227861227085612138565b830182612218565b50505b505050565b5f82821c905092915050565b5f61229b5f1984600802612280565b1980831691505092915050565b5f6122b3838361228c565b9150826002028217905092915050565b6122cc82611c2e565b67ffffffffffffffff8111156122e5576122e46119c6565b5b6122ef82546120f6565b6122fa82828561223a565b5f60209050601f83116001811461232b575f8415612319578287015190505b61232385826122a8565b86555061238a565b601f19841661233986612126565b5f5b828110156123605784890151825560018201915060208501945060208101905061233b565b8683101561237d5784890151612379601f89168261228c565b8355505b6001600288020188555050505b505050505050565b61239b81611e45565b82525050565b5f6123ab82611c2e565b6123b58185611fe9565b93506123c5818560208601611c48565b6123ce816119b6565b840191505092915050565b5f6060820190506123ec5f830186612392565b81810360208301526123fe81856123a1565b9050818103604083015261241281846123a1565b9050949350505050565b7f436861696e20616c726561647920737570706f727465640000000000000000005f82015250565b5f612450601783611fe9565b915061245b8261241c565b602082019050919050565b5f6020820190508181035f83015261247d81612444565b9050919050565b5f6020820190508181035f83015261249c81846123a1565b905092915050565b7f4173736574206e6f7420726567697374657265640000000000000000000000005f82015250565b5f6124d8601483611fe9565b91506124e3826124a4565b602082019050919050565b5f6020820190508181035f830152612505816124cc565b9050919050565b612515816117b4565b82525050565b5f60208201905061252e5f83018461250c565b92915050565b5f6040820190506125475f83018561250c565b6125546020830184611939565b939250505056fea2646970667358221220430341e8c3e0b51f8d021d717eec72014e1697c3edc4b8f609498f60e3723b7a64736f6c634300081a0033",
					"opcodes": "PUSH1 0x80 PUSH1 0x40 MSTORE CALLVALUE DUP1 ISZERO PUSH2 0xF JUMPI PUSH0 DUP1 REVERT JUMPDEST POP PUSH0 PUSH1 0x1 PUSH0 PUSH2 0x100 EXP DUP2 SLOAD DUP2 PUSH1 0xFF MUL NOT AND SWAP1 DUP4 ISZERO ISZERO MUL OR SWAP1 SSTORE POP PUSH2 0x3B PUSH0 DUP1 SHL CALLER PUSH2 0x72 PUSH1 0x20 SHL PUSH1 0x20 SHR JUMP JUMPDEST POP PUSH2 0x6C PUSH32 0xEDCC084D3DCD65A1F7F23C65C46722FACA6953D28E43150A467CF43E5C309238 CALLER PUSH2 0x72 PUSH1 0x20 SHL PUSH1 0x20 SHR JUMP JUMPDEST POP PUSH2 0x1D1 JUMP JUMPDEST PUSH0 PUSH2 0x83 DUP4 DUP4 PUSH2 0x167 PUSH1 0x20 SHL PUSH1 0x20 SHR JUMP JUMPDEST PUSH2 0x15D JUMPI PUSH1 0x1 PUSH0 DUP1 DUP6 DUP2 MSTORE PUSH1 0x20 ADD SWAP1 DUP2 MSTORE PUSH1 0x20 ADD PUSH0 KECCAK256 PUSH0 ADD PUSH0 DUP5 PUSH20 0xFFFFFFFFFFFFFFFFFFFFFFFFFFFFFFFFFFFFFFFF AND PUSH20 0xFFFFFFFFFFFFFFFFFFFFFFFFFFFFFFFFFFFFFFFF AND DUP2 MSTORE PUSH1 0x20 ADD SWAP1 DUP2 MSTORE PUSH1 0x20 ADD PUSH0 KECCAK256 PUSH0 PUSH2 0x100 EXP DUP2 SLOAD DUP2 PUSH1 0xFF MUL NOT AND SWAP1 DUP4 ISZERO ISZERO MUL OR SWAP1 SSTORE POP PUSH2 0xFA PUSH2 0x1CA PUSH1 0x20 SHL PUSH1 0x20 SHR JUMP JUMPDEST PUSH20 0xFFFFFFFFFFFFFFFFFFFFFFFFFFFFFFFFFFFFFFFF AND DUP3 PUSH20 0xFFFFFFFFFFFFFFFFFFFFFFFFFFFFFFFFFFFFFFFF AND DUP5 PUSH32 0x2F8788117E7EFF1D82E926EC794901D17C78024A50270940304540A733656F0D PUSH1 0x40 MLOAD PUSH1 0x40 MLOAD DUP1 SWAP2 SUB SWAP1 LOG4 PUSH1 0x1 SWAP1 POP PUSH2 0x161 JUMP JUMPDEST PUSH0 SWAP1 POP JUMPDEST SWAP3 SWAP2 POP POP JUMP JUMPDEST PUSH0 DUP1 PUSH0 DUP5 DUP2 MSTORE PUSH1 0x20 ADD SWAP1 DUP2 MSTORE PUSH1 0x20 ADD PUSH0 KECCAK256 PUSH0 ADD PUSH0 DUP4 PUSH20 0xFFFFFFFFFFFFFFFFFFFFFFFFFFFFFFFFFFFFFFFF AND PUSH20 0xFFFFFFFFFFFFFFFFFFFFFFFFFFFFFFFFFFFFFFFF AND DUP2 MSTORE PUSH1 0x20 ADD SWAP1 DUP2 MSTORE PUSH1 0x20 ADD PUSH0 KECCAK256 PUSH0 SWAP1 SLOAD SWAP1 PUSH2 0x100 EXP SWAP1 DIV PUSH1 0xFF AND SWAP1 POP SWAP3 SWAP2 POP POP JUMP JUMPDEST PUSH0 CALLER SWAP1 POP SWAP1 JUMP JUMPDEST PUSH2 0x2591 DUP1 PUSH2 0x1DE PUSH0 CODECOPY PUSH0 RETURN INVALID PUSH1 0x80 PUSH1 0x40 MSTORE CALLVALUE DUP1 ISZERO PUSH2 0xF JUMPI PUSH0 DUP1 REVERT JUMPDEST POP PUSH1 0x4 CALLDATASIZE LT PUSH2 0x11F JUMPI PUSH0 CALLDATALOAD PUSH1 0xE0 SHR DUP1 PUSH4 0x804EA334 GT PUSH2 0xAB JUMPI DUP1 PUSH4 0xD088194B GT PUSH2 0x6F JUMPI DUP1 PUSH4 0xD088194B EQ PUSH2 0x2EF JUMPI DUP1 PUSH4 0xD547741F EQ PUSH2 0x30B JUMPI DUP1 PUSH4 0xF103167A EQ PUSH2 0x327 JUMPI DUP1 PUSH4 0xF68E9553 EQ PUSH2 0x357 JUMPI DUP1 PUSH4 0xF7A452CB EQ PUSH2 0x375 JUMPI PUSH2 0x11F JUMP JUMPDEST DUP1 PUSH4 0x804EA334 EQ PUSH2 0x24B JUMPI DUP1 PUSH4 0x8456CB59 EQ PUSH2 0x27B JUMPI DUP1 PUSH4 0x91D14854 EQ PUSH2 0x285 JUMPI DUP1 PUSH4 0xA217FDDF EQ PUSH2 0x2B5 JUMPI DUP1 PUSH4 0xAF83D4D8 EQ PUSH2 0x2D3 JUMPI PUSH2 0x11F JUMP JUMPDEST DUP1 PUSH4 0x2C321FB6 GT PUSH2 0xF2 JUMPI DUP1 PUSH4 0x2C321FB6 EQ PUSH2 0x1CF JUMPI DUP1 PUSH4 0x2F2FF15D EQ PUSH2 0x1EB JUMPI DUP1 PUSH4 0x36568ABE EQ PUSH2 0x207 JUMPI DUP1 PUSH4 0x3F4BA83A EQ PUSH2 0x223 JUMPI DUP1 PUSH4 0x5C975ABB EQ PUSH2 0x22D JUMPI PUSH2 0x11F JUMP JUMPDEST DUP1 PUSH4 0x1FFC9A7 EQ PUSH2 0x123 JUMPI DUP1 PUSH4 0x24237EB EQ PUSH2 0x153 JUMPI DUP1 PUSH4 0xF3F6B5B EQ PUSH2 0x183 JUMPI DUP1 PUSH4 0x248A9CA3 EQ PUSH2 0x19F JUMPI JUMPDEST PUSH0 DUP1 REVERT JUMPDEST PUSH2 0x13D PUSH1 0x4 DUP1 CALLDATASIZE SUB DUP2 ADD SWAP1 PUSH2 0x138 SWAP2 SWAP1 PUSH2 0x16B0 JUMP JUMPDEST PUSH2 0x393 JUMP JUMPDEST PUSH1 0x40 MLOAD PUSH2 0x14A SWAP2 SWAP1 PUSH2 0x16F5 JUMP JUMPDEST PUSH1 0x40 MLOAD DUP1 SWAP2 SUB SWAP1 RETURN JUMPDEST PUSH2 0x16D PUSH1 0x4 DUP1 CALLDATASIZE SUB DUP2 ADD SWAP1 PUSH2 0x168 SWAP2 SWAP1 PUSH2 0x1741 JUMP JUMPDEST PUSH2 0x40C JUMP JUMPDEST PUSH1 0x40 MLOAD PUSH2 0x17A SWAP2 SWAP1 PUSH2 0x1853 JUMP JUMPDEST PUSH1 0x40 MLOAD DUP1 SWAP2 SUB SWAP1 RETURN JUMPDEST PUSH2 0x19D PUSH1 0x4 DUP1 CALLDATASIZE SUB DUP2 ADD SWAP1 PUSH2 0x198 SWAP2 SWAP1 PUSH2 0x189D JUMP JUMPDEST PUSH2 0x42E JUMP JUMPDEST STOP JUMPDEST PUSH2 0x1B9 PUSH1 0x4 DUP1 CALLDATASIZE SUB DUP2 ADD SWAP1 PUSH2 0x1B4 SWAP2 SWAP1 PUSH2 0x190E JUMP JUMPDEST PUSH2 0x513 JUMP JUMPDEST PUSH1 0x40 MLOAD PUSH2 0x1C6 SWAP2 SWAP1 PUSH2 0x1948 JUMP JUMPDEST PUSH1 0x40 MLOAD DUP1 SWAP2 SUB SWAP1 RETURN JUMPDEST PUSH2 0x1E9 PUSH1 0x4 DUP1 CALLDATASIZE SUB DUP2 ADD SWAP1 PUSH2 0x1E4 SWAP2 SWAP1 PUSH2 0x1B20 JUMP JUMPDEST PUSH2 0x52F JUMP JUMPDEST STOP JUMPDEST PUSH2 0x205 PUSH1 0x4 DUP1 CALLDATASIZE SUB DUP2 ADD SWAP1 PUSH2 0x200 SWAP2 SWAP1 PUSH2 0x1BE1 JUMP JUMPDEST PUSH2 0x89D JUMP JUMPDEST STOP JUMPDEST PUSH2 0x221 PUSH1 0x4 DUP1 CALLDATASIZE SUB DUP2 ADD SWAP1 PUSH2 0x21C SWAP2 SWAP1 PUSH2 0x1BE1 JUMP JUMPDEST PUSH2 0x8BF JUMP JUMPDEST STOP JUMPDEST PUSH2 0x22B PUSH2 0x93A JUMP JUMPDEST STOP JUMPDEST PUSH2 0x235 PUSH2 0x951 JUMP JUMPDEST PUSH1 0x40 MLOAD PUSH2 0x242 SWAP2 SWAP1 PUSH2 0x16F5 JUMP JUMPDEST PUSH1 0x40 MLOAD DUP1 SWAP2 SUB SWAP1 RETURN JUMPDEST PUSH2 0x265 PUSH1 0x4 DUP1 CALLDATASIZE SUB DUP2 ADD SWAP1 PUSH2 0x260 SWAP2 SWAP1 PUSH2 0x1741 JUMP JUMPDEST PUSH2 0x966 JUMP JUMPDEST PUSH1 0x40 MLOAD PUSH2 0x272 SWAP2 SWAP1 PUSH2 0x1CEA JUMP JUMPDEST PUSH1 0x40 MLOAD DUP1 SWAP2 SUB SWAP1 RETURN JUMPDEST PUSH2 0x283 PUSH2 0xA44 JUMP JUMPDEST STOP JUMPDEST PUSH2 0x29F PUSH1 0x4 DUP1 CALLDATASIZE SUB DUP2 ADD SWAP1 PUSH2 0x29A SWAP2 SWAP1 PUSH2 0x1BE1 JUMP JUMPDEST PUSH2 0xA5B JUMP JUMPDEST PUSH1 0x40 MLOAD PUSH2 0x2AC SWAP2 SWAP1 PUSH2 0x16F5 JUMP JUMPDEST PUSH1 0x40 MLOAD DUP1 SWAP2 SUB SWAP1 RETURN JUMPDEST PUSH2 0x2BD PUSH2 0xABE JUMP JUMPDEST PUSH1 0x40 MLOAD PUSH2 0x2CA SWAP2 SWAP1 PUSH2 0x1948 JUMP JUMPDEST PUSH1 0x40 MLOAD DUP1 SWAP2 SUB SWAP1 RETURN JUMPDEST PUSH2 0x2ED PUSH1 0x4 DUP1 CALLDATASIZE SUB DUP2 ADD SWAP1 PUSH2 0x2E8 SWAP2 SWAP1 PUSH2 0x1D0A JUMP JUMPDEST PUSH2 0xAC4 JUMP JUMPDEST STOP JUMPDEST PUSH2 0x309 PUSH1 0x4 DUP1 CALLDATASIZE SUB DUP2 ADD SWAP1 PUSH2 0x304 SWAP2 SWAP1 PUSH2 0x1D64 JUMP JUMPDEST PUSH2 0xC03 JUMP JUMPDEST STOP JUMPDEST PUSH2 0x325 PUSH1 0x4 DUP1 CALLDATASIZE SUB DUP2 ADD SWAP1 PUSH2 0x320 SWAP2 SWAP1 PUSH2 0x1BE1 JUMP JUMPDEST PUSH2 0xDC4 JUMP JUMPDEST STOP JUMPDEST PUSH2 0x341 PUSH1 0x4 DUP1 CALLDATASIZE SUB DUP2 ADD SWAP1 PUSH2 0x33C SWAP2 SWAP1 PUSH2 0x1DB4 JUMP JUMPDEST PUSH2 0xDE6 JUMP JUMPDEST PUSH1 0x40 MLOAD PUSH2 0x34E SWAP2 SWAP1 PUSH2 0x1F01 JUMP JUMPDEST PUSH1 0x40 MLOAD DUP1 SWAP2 SUB SWAP1 RETURN JUMPDEST PUSH2 0x35F PUSH2 0x1032 JUMP JUMPDEST PUSH1 0x40 MLOAD PUSH2 0x36C SWAP2 SWAP1 PUSH2 0x1948 JUMP JUMPDEST PUSH1 0x40 MLOAD DUP1 SWAP2 SUB SWAP1 RETURN JUMPDEST PUSH2 0x37D PUSH2 0x1056 JUMP JUMPDEST PUSH1 0x40 MLOAD PUSH2 0x38A SWAP2 SWAP1 PUSH2 0x1FC9 JUMP JUMPDEST PUSH1 0x40 MLOAD DUP1 SWAP2 SUB SWAP1 RETURN JUMPDEST PUSH0 PUSH32 0x7965DB0B00000000000000000000000000000000000000000000000000000000 PUSH28 0xFFFFFFFFFFFFFFFFFFFFFFFFFFFFFFFFFFFFFFFFFFFFFFFFFFFFFFFF NOT AND DUP3 PUSH28 0xFFFFFFFFFFFFFFFFFFFFFFFFFFFFFFFFFFFFFFFFFFFFFFFFFFFFFFFF NOT AND EQ DUP1 PUSH2 0x405 JUMPI POP PUSH2 0x404 DUP3 PUSH2 0x1067 JUMP JUMPDEST JUMPDEST SWAP1 POP SWAP2 SWAP1 POP JUMP JUMPDEST PUSH1 0x60 PUSH2 0x427 PUSH1 0x6 PUSH0 DUP5 DUP2 MSTORE PUSH1 0x20 ADD SWAP1 DUP2 MSTORE PUSH1 0x20 ADD PUSH0 KECCAK256 PUSH2 0x10D0 JUMP JUMPDEST SWAP1 POP SWAP2 SWAP1 POP JUMP JUMPDEST PUSH32 0xEDCC084D3DCD65A1F7F23C65C46722FACA6953D28E43150A467CF43E5C309238 PUSH2 0x458 DUP2 PUSH2 0x10EF JUMP JUMPDEST PUSH2 0x46C DUP4 PUSH1 0x4 PUSH2 0x1103 SWAP1 SWAP2 SWAP1 PUSH4 0xFFFFFFFF AND JUMP JUMPDEST PUSH2 0x4AB JUMPI PUSH1 0x40 MLOAD PUSH32 0x8C379A000000000000000000000000000000000000000000000000000000000 DUP2 MSTORE PUSH1 0x4 ADD PUSH2 0x4A2 SWAP1 PUSH2 0x2043 JUMP JUMPDEST PUSH1 0x40 MLOAD DUP1 SWAP2 SUB SWAP1 REVERT JUMPDEST DUP2 PUSH1 0x3 PUSH0 DUP6 DUP2 MSTORE PUSH1 0x20 ADD SWAP1 DUP2 MSTORE PUSH1 0x20 ADD PUSH0 KECCAK256 PUSH1 0x2 ADD PUSH0 PUSH2 0x100 EXP DUP2 SLOAD DUP2 PUSH1 0xFF MUL NOT AND SWAP1 DUP4 ISZERO ISZERO MUL OR SWAP1 SSTORE POP DUP3 PUSH32 0x87634784DCD711C95EEADA7AC1B47534172532618B7C1938B456431C04DAD214 DUP4 PUSH1 0x40 MLOAD PUSH2 0x506 SWAP2 SWAP1 PUSH2 0x16F5 JUMP JUMPDEST PUSH1 0x40 MLOAD DUP1 SWAP2 SUB SWAP1 LOG2 POP POP POP JUMP JUMPDEST PUSH0 DUP1 PUSH0 DUP4 DUP2 MSTORE PUSH1 0x20 ADD SWAP1 DUP2 MSTORE PUSH1 0x20 ADD PUSH0 KECCAK256 PUSH1 0x1 ADD SLOAD SWAP1 POP SWAP2 SWAP1 POP JUMP JUMPDEST PUSH32 0xEDCC084D3DCD65A1F7F23C65C46722FACA6953D28E43150A467CF43E5C309238 PUSH2 0x559 DUP2 PUSH2 0x10EF JUMP JUMPDEST PUSH2 0x561 PUSH2 0x111A JUMP JUMPDEST PUSH2 0x575 DUP8 PUSH1 0x4 PUSH2 0x1103 SWAP1 SWAP2 SWAP1 PUSH4 0xFFFFFFFF AND JUMP JUMPDEST PUSH2 0x5B4 JUMPI PUSH1 0x40 MLOAD PUSH32 0x8C379A000000000000000000000000000000000000000000000000000000000 DUP2 MSTORE PUSH1 0x4 ADD PUSH2 0x5AB SWAP1 PUSH2 0x2043 JUMP JUMPDEST PUSH1 0x40 MLOAD DUP1 SWAP2 SUB SWAP1 REVERT JUMPDEST PUSH0 PUSH20 0xFFFFFFFFFFFFFFFFFFFFFFFFFFFFFFFFFFFFFFFF AND PUSH1 0x2 PUSH0 DUP10 DUP2 MSTORE PUSH1 0x20 ADD SWAP1 DUP2 MSTORE PUSH1 0x20 ADD PUSH0 KECCAK256 PUSH0 DUP9 PUSH20 0xFFFFFFFFFFFFFFFFFFFFFFFFFFFFFFFFFFFFFFFF AND PUSH20 0xFFFFFFFFFFFFFFFFFFFFFFFFFFFFFFFFFFFFFFFF AND DUP2 MSTORE PUSH1 0x20 ADD SWAP1 DUP2 MSTORE PUSH1 0x20 ADD PUSH0 KECCAK256 PUSH0 ADD PUSH0 SWAP1 SLOAD SWAP1 PUSH2 0x100 EXP SWAP1 DIV PUSH20 0xFFFFFFFFFFFFFFFFFFFFFFFFFFFFFFFFFFFFFFFF AND PUSH20 0xFFFFFFFFFFFFFFFFFFFFFFFFFFFFFFFFFFFFFFFF AND EQ PUSH2 0x68F JUMPI PUSH1 0x40 MLOAD PUSH32 0x8C379A000000000000000000000000000000000000000000000000000000000 DUP2 MSTORE PUSH1 0x4 ADD PUSH2 0x686 SWAP1 PUSH2 0x20AB JUMP JUMPDEST PUSH1 0x40 MLOAD DUP1 SWAP2 SUB SWAP1 REVERT JUMPDEST PUSH0 PUSH1 0x40 MLOAD DUP1 PUSH1 0xC0 ADD PUSH1 0x40 MSTORE DUP1 DUP9 PUSH20 0xFFFFFFFFFFFFFFFFFFFFFFFFFFFFFFFFFFFFFFFF AND DUP2 MSTORE PUSH1 0x20 ADD DUP8 PUSH1 0x3 DUP2 GT ISZERO PUSH2 0x6CA JUMPI PUSH2 0x6C9 PUSH2 0x1DF2 JUMP JUMPDEST JUMPDEST DUP2 MSTORE PUSH1 0x20 ADD DUP7 DUP2 MSTORE PUSH1 0x20 ADD DUP6 DUP2 MSTORE PUSH1 0x20 ADD DUP5 PUSH1 0xFF AND DUP2 MSTORE PUSH1 0x20 ADD PUSH1 0x1 ISZERO ISZERO DUP2 MSTORE POP SWAP1 POP DUP1 PUSH1 0x2 PUSH0 DUP11 DUP2 MSTORE PUSH1 0x20 ADD SWAP1 DUP2 MSTORE PUSH1 0x20 ADD PUSH0 KECCAK256 PUSH0 DUP10 PUSH20 0xFFFFFFFFFFFFFFFFFFFFFFFFFFFFFFFFFFFFFFFF AND PUSH20 0xFFFFFFFFFFFFFFFFFFFFFFFFFFFFFFFFFFFFFFFF AND DUP2 MSTORE PUSH1 0x20 ADD SWAP1 DUP2 MSTORE PUSH1 0x20 ADD PUSH0 KECCAK256 PUSH0 DUP3 ADD MLOAD DUP2 PUSH0 ADD PUSH0 PUSH2 0x100 EXP DUP2 SLOAD DUP2 PUSH20 0xFFFFFFFFFFFFFFFFFFFFFFFFFFFFFFFFFFFFFFFF MUL NOT AND SWAP1 DUP4 PUSH20 0xFFFFFFFFFFFFFFFFFFFFFFFFFFFFFFFFFFFFFFFF AND MUL OR SWAP1 SSTORE POP PUSH1 0x20 DUP3 ADD MLOAD DUP2 PUSH0 ADD PUSH1 0x14 PUSH2 0x100 EXP DUP2 SLOAD DUP2 PUSH1 0xFF MUL NOT AND SWAP1 DUP4 PUSH1 0x3 DUP2 GT ISZERO PUSH2 0x7A8 JUMPI PUSH2 0x7A7 PUSH2 0x1DF2 JUMP JUMPDEST JUMPDEST MUL OR SWAP1 SSTORE POP PUSH1 0x40 DUP3 ADD MLOAD DUP2 PUSH1 0x1 ADD SWAP1 DUP2 PUSH2 0x7C2 SWAP2 SWAP1 PUSH2 0x22C3 JUMP JUMPDEST POP PUSH1 0x60 DUP3 ADD MLOAD DUP2 PUSH1 0x2 ADD SWAP1 DUP2 PUSH2 0x7D8 SWAP2 SWAP1 PUSH2 0x22C3 JUMP JUMPDEST POP PUSH1 0x80 DUP3 ADD MLOAD DUP2 PUSH1 0x3 ADD PUSH0 PUSH2 0x100 EXP DUP2 SLOAD DUP2 PUSH1 0xFF MUL NOT AND SWAP1 DUP4 PUSH1 0xFF AND MUL OR SWAP1 SSTORE POP PUSH1 0xA0 DUP3 ADD MLOAD DUP2 PUSH1 0x3 ADD PUSH1 0x1 PUSH2 0x100 EXP DUP2 SLOAD DUP2 PUSH1 0xFF MUL NOT AND SWAP1 DUP4 ISZERO ISZERO MUL OR SWAP1 SSTORE POP SWAP1 POP POP PUSH2 0x83F DUP8 PUSH1 0x6 PUSH0 DUP12 DUP2 MSTORE PUSH1 0x20 ADD SWAP1 DUP2 MSTORE PUSH1 0x20 ADD PUSH0 KECCAK256 PUSH2 0x115B SWAP1 SWAP2 SWAP1 PUSH4 0xFFFFFFFF AND JUMP JUMPDEST POP DUP7 PUSH20 0xFFFFFFFFFFFFFFFFFFFFFFFFFFFFFFFFFFFFFFFF AND DUP9 PUSH32 0x571D5CF62FAC2EBF1649F188D2552D1C79B668F2B66D94172B9AF912C2666F82 DUP9 DUP9 DUP9 PUSH1 0x40 MLOAD PUSH2 0x88B SWAP4 SWAP3 SWAP2 SWAP1 PUSH2 0x23D9 JUMP JUMPDEST PUSH1 0x40 MLOAD DUP1 SWAP2 SUB SWAP1 LOG3 POP POP POP POP POP POP POP POP JUMP JUMPDEST PUSH2 0x8A6 DUP3 PUSH2 0x513 JUMP JUMPDEST PUSH2 0x8AF DUP2 PUSH2 0x10EF JUMP JUMPDEST PUSH2 0x8B9 DUP4 DUP4 PUSH2 0x1188 JUMP JUMPDEST POP POP POP POP JUMP JUMPDEST PUSH2 0x8C7 PUSH2 0x1271 JUMP JUMPDEST PUSH20 0xFFFFFFFFFFFFFFFFFFFFFFFFFFFFFFFFFFFFFFFF AND DUP2 PUSH20 0xFFFFFFFFFFFFFFFFFFFFFFFFFFFFFFFFFFFFFFFF AND EQ PUSH2 0x92B JUMPI PUSH1 0x40 MLOAD PUSH32 0x6697B23200000000000000000000000000000000000000000000000000000000 DUP2 MSTORE PUSH1 0x4 ADD PUSH1 0x40 MLOAD DUP1 SWAP2 SUB SWAP1 REVERT JUMPDEST PUSH2 0x935 DUP3 DUP3 PUSH2 0x1278 JUMP JUMPDEST POP POP POP JUMP JUMPDEST PUSH0 DUP1 SHL PUSH2 0x946 DUP2 PUSH2 0x10EF JUMP JUMPDEST PUSH2 0x94E PUSH2 0x1361 JUMP JUMPDEST POP JUMP JUMPDEST PUSH0 PUSH1 0x1 PUSH0 SWAP1 SLOAD SWAP1 PUSH2 0x100 EXP SWAP1 DIV PUSH1 0xFF AND SWAP1 POP SWAP1 JUMP JUMPDEST PUSH2 0x96E PUSH2 0x15CA JUMP JUMPDEST PUSH1 0x3 PUSH0 DUP4 DUP2 MSTORE PUSH1 0x20 ADD SWAP1 DUP2 MSTORE PUSH1 0x20 ADD PUSH0 KECCAK256 PUSH1 0x40 MLOAD DUP1 PUSH1 0x60 ADD PUSH1 0x40 MSTORE SWAP1 DUP2 PUSH0 DUP3 ADD SLOAD DUP2 MSTORE PUSH1 0x20 ADD PUSH1 0x1 DUP3 ADD DUP1 SLOAD PUSH2 0x9A3 SWAP1 PUSH2 0x20F6 JUMP JUMPDEST DUP1 PUSH1 0x1F ADD PUSH1 0x20 DUP1 SWAP2 DIV MUL PUSH1 0x20 ADD PUSH1 0x40 MLOAD SWAP1 DUP2 ADD PUSH1 0x40 MSTORE DUP1 SWAP3 SWAP2 SWAP1 DUP2 DUP2 MSTORE PUSH1 0x20 ADD DUP3 DUP1 SLOAD PUSH2 0x9CF SWAP1 PUSH2 0x20F6 JUMP JUMPDEST DUP1 ISZERO PUSH2 0xA1A JUMPI DUP1 PUSH1 0x1F LT PUSH2 0x9F1 JUMPI PUSH2 0x100 DUP1 DUP4 SLOAD DIV MUL DUP4 MSTORE SWAP2 PUSH1 0x20 ADD SWAP2 PUSH2 0xA1A JUMP JUMPDEST DUP3 ADD SWAP2 SWAP1 PUSH0 MSTORE PUSH1 0x20 PUSH0 KECCAK256 SWAP1 JUMPDEST DUP2 SLOAD DUP2 MSTORE SWAP1 PUSH1 0x1 ADD SWAP1 PUSH1 0x20 ADD DUP1 DUP4 GT PUSH2 0x9FD JUMPI DUP3 SWAP1 SUB PUSH1 0x1F AND DUP3 ADD SWAP2 JUMPDEST POP POP POP POP POP DUP2 MSTORE PUSH1 0x20 ADD PUSH1 0x2 DUP3 ADD PUSH0 SWAP1 SLOAD SWAP1 PUSH2 0x100 EXP SWAP1 DIV PUSH1 0xFF AND ISZERO ISZERO ISZERO ISZERO DUP2 MSTORE POP POP SWAP1 POP SWAP2 SWAP1 POP JUMP JUMPDEST PUSH0 DUP1 SHL PUSH2 0xA50 DUP2 PUSH2 0x10EF JUMP JUMPDEST PUSH2 0xA58 PUSH2 0x13C2 JUMP JUMPDEST POP JUMP JUMPDEST PUSH0 DUP1 PUSH0 DUP5 DUP2 MSTORE PUSH1 0x20 ADD SWAP1 DUP2 MSTORE PUSH1 0x20 ADD PUSH0 KECCAK256 PUSH0 ADD PUSH0 DUP4 PUSH20 0xFFFFFFFFFFFFFFFFFFFFFFFFFFFFFFFFFFFFFFFF AND PUSH20 0xFFFFFFFFFFFFFFFFFFFFFFFFFFFFFFFFFFFFFFFF AND DUP2 MSTORE PUSH1 0x20 ADD SWAP1 DUP2 MSTORE PUSH1 0x20 ADD PUSH0 KECCAK256 PUSH0 SWAP1 SLOAD SWAP1 PUSH2 0x100 EXP SWAP1 DIV PUSH1 0xFF AND SWAP1 POP SWAP3 SWAP2 POP POP JUMP JUMPDEST PUSH0 DUP1 SHL DUP2 JUMP JUMPDEST PUSH32 0xEDCC084D3DCD65A1F7F23C65C46722FACA6953D28E43150A467CF43E5C309238 PUSH2 0xAEE DUP2 PUSH2 0x10EF JUMP JUMPDEST PUSH2 0xB02 DUP4 PUSH1 0x4 PUSH2 0x1103 SWAP1 SWAP2 SWAP1 PUSH4 0xFFFFFFFF AND JUMP JUMPDEST ISZERO PUSH2 0xB42 JUMPI PUSH1 0x40 MLOAD PUSH32 0x8C379A000000000000000000000000000000000000000000000000000000000 DUP2 MSTORE PUSH1 0x4 ADD PUSH2 0xB39 SWAP1 PUSH2 0x2466 JUMP JUMPDEST PUSH1 0x40 MLOAD DUP1 SWAP2 SUB SWAP1 REVERT JUMPDEST PUSH2 0xB56 DUP4 PUSH1 0x4 PUSH2 0x1423 SWAP1 SWAP2 SWAP1 PUSH4 0xFFFFFFFF AND JUMP JUMPDEST POP PUSH1 0x40 MLOAD DUP1 PUSH1 0x60 ADD PUSH1 0x40 MSTORE DUP1 DUP5 DUP2 MSTORE PUSH1 0x20 ADD DUP4 DUP2 MSTORE PUSH1 0x20 ADD PUSH1 0x1 ISZERO ISZERO DUP2 MSTORE POP PUSH1 0x3 PUSH0 DUP6 DUP2 MSTORE PUSH1 0x20 ADD SWAP1 DUP2 MSTORE PUSH1 0x20 ADD PUSH0 KECCAK256 PUSH0 DUP3 ADD MLOAD DUP2 PUSH0 ADD SSTORE PUSH1 0x20 DUP3 ADD MLOAD DUP2 PUSH1 0x1 ADD SWAP1 DUP2 PUSH2 0xBA3 SWAP2 SWAP1 PUSH2 0x22C3 JUMP JUMPDEST POP PUSH1 0x40 DUP3 ADD MLOAD DUP2 PUSH1 0x2 ADD PUSH0 PUSH2 0x100 EXP DUP2 SLOAD DUP2 PUSH1 0xFF MUL NOT AND SWAP1 DUP4 ISZERO ISZERO MUL OR SWAP1 SSTORE POP SWAP1 POP POP DUP3 PUSH32 0x12D56340507874CC704F6A6EA33CC1D871BE90637F1FAE4E6E1E1CBD77DA3FFD DUP4 PUSH1 0x40 MLOAD PUSH2 0xBF6 SWAP2 SWAP1 PUSH2 0x2484 JUMP JUMPDEST PUSH1 0x40 MLOAD DUP1 SWAP2 SUB SWAP1 LOG2 POP POP POP JUMP JUMPDEST PUSH32 0xEDCC084D3DCD65A1F7F23C65C46722FACA6953D28E43150A467CF43E5C309238 PUSH2 0xC2D DUP2 PUSH2 0x10EF JUMP JUMPDEST PUSH0 PUSH20 0xFFFFFFFFFFFFFFFFFFFFFFFFFFFFFFFFFFFFFFFF AND PUSH1 0x2 PUSH0 DUP7 DUP2 MSTORE PUSH1 0x20 ADD SWAP1 DUP2 MSTORE PUSH1 0x20 ADD PUSH0 KECCAK256 PUSH0 DUP6 PUSH20 0xFFFFFFFFFFFFFFFFFFFFFFFFFFFFFFFFFFFFFFFF AND PUSH20 0xFFFFFFFFFFFFFFFFFFFFFFFFFFFFFFFFFFFFFFFF AND DUP2 MSTORE PUSH1 0x20 ADD SWAP1 DUP2 MSTORE PUSH1 0x20 ADD PUSH0 KECCAK256 PUSH0 ADD PUSH0 SWAP1 SLOAD SWAP1 PUSH2 0x100 EXP SWAP1 DIV PUSH20 0xFFFFFFFFFFFFFFFFFFFFFFFFFFFFFFFFFFFFFFFF AND PUSH20 0xFFFFFFFFFFFFFFFFFFFFFFFFFFFFFFFFFFFFFFFF AND SUB PUSH2 0xD08 JUMPI PUSH1 0x40 MLOAD PUSH32 0x8C379A000000000000000000000000000000000000000000000000000000000 DUP2 MSTORE PUSH1 0x4 ADD PUSH2 0xCFF SWAP1 PUSH2 0x24EE JUMP JUMPDEST PUSH1 0x40 MLOAD DUP1 SWAP2 SUB SWAP1 REVERT JUMPDEST DUP2 PUSH1 0x2 PUSH0 DUP7 DUP2 MSTORE PUSH1 0x20 ADD SWAP1 DUP2 MSTORE PUSH1 0x20 ADD PUSH0 KECCAK256 PUSH0 DUP6 PUSH20 0xFFFFFFFFFFFFFFFFFFFFFFFFFFFFFFFFFFFFFFFF AND PUSH20 0xFFFFFFFFFFFFFFFFFFFFFFFFFFFFFFFFFFFFFFFF AND DUP2 MSTORE PUSH1 0x20 ADD SWAP1 DUP2 MSTORE PUSH1 0x20 ADD PUSH0 KECCAK256 PUSH1 0x3 ADD PUSH1 0x1 PUSH2 0x100 EXP DUP2 SLOAD DUP2 PUSH1 0xFF MUL NOT AND SWAP1 DUP4 ISZERO ISZERO MUL OR SWAP1 SSTORE POP DUP3 PUSH20 0xFFFFFFFFFFFFFFFFFFFFFFFFFFFFFFFFFFFFFFFF AND DUP5 PUSH32 0xCE6315D17C79350E737A11E641E32024AE26A2500D55B7E62CC61268811C7FBB DUP5 PUSH1 0x40 MLOAD PUSH2 0xDB6 SWAP2 SWAP1 PUSH2 0x16F5 JUMP JUMPDEST PUSH1 0x40 MLOAD DUP1 SWAP2 SUB SWAP1 LOG3 POP POP POP POP JUMP JUMPDEST PUSH2 0xDCD DUP3 PUSH2 0x513 JUMP JUMPDEST PUSH2 0xDD6 DUP2 PUSH2 0x10EF JUMP JUMPDEST PUSH2 0xDE0 DUP4 DUP4 PUSH2 0x1278 JUMP JUMPDEST POP POP POP POP JUMP JUMPDEST PUSH2 0xDEE PUSH2 0x15EB JUMP JUMPDEST PUSH1 0x2 PUSH0 DUP5 DUP2 MSTORE PUSH1 0x20 ADD SWAP1 DUP2 MSTORE PUSH1 0x20 ADD PUSH0 KECCAK256 PUSH0 DUP4 PUSH20 0xFFFFFFFFFFFFFFFFFFFFFFFFFFFFFFFFFFFFFFFF AND PUSH20 0xFFFFFFFFFFFFFFFFFFFFFFFFFFFFFFFFFFFFFFFF AND DUP2 MSTORE PUSH1 0x20 ADD SWAP1 DUP2 MSTORE PUSH1 0x20 ADD PUSH0 KECCAK256 PUSH1 0x40 MLOAD DUP1 PUSH1 0xC0 ADD PUSH1 0x40 MSTORE SWAP1 DUP2 PUSH0 DUP3 ADD PUSH0 SWAP1 SLOAD SWAP1 PUSH2 0x100 EXP SWAP1 DIV PUSH20 0xFFFFFFFFFFFFFFFFFFFFFFFFFFFFFFFFFFFFFFFF AND PUSH20 0xFFFFFFFFFFFFFFFFFFFFFFFFFFFFFFFFFFFFFFFF AND PUSH20 0xFFFFFFFFFFFFFFFFFFFFFFFFFFFFFFFFFFFFFFFF AND DUP2 MSTORE PUSH1 0x20 ADD PUSH0 DUP3 ADD PUSH1 0x14 SWAP1 SLOAD SWAP1 PUSH2 0x100 EXP SWAP1 DIV PUSH1 0xFF AND PUSH1 0x3 DUP2 GT ISZERO PUSH2 0xEBD JUMPI PUSH2 0xEBC PUSH2 0x1DF2 JUMP JUMPDEST JUMPDEST PUSH1 0x3 DUP2 GT ISZERO PUSH2 0xECF JUMPI PUSH2 0xECE PUSH2 0x1DF2 JUMP JUMPDEST JUMPDEST DUP2 MSTORE PUSH1 0x20 ADD PUSH1 0x1 DUP3 ADD DUP1 SLOAD PUSH2 0xEE3 SWAP1 PUSH2 0x20F6 JUMP JUMPDEST DUP1 PUSH1 0x1F ADD PUSH1 0x20 DUP1 SWAP2 DIV MUL PUSH1 0x20 ADD PUSH1 0x40 MLOAD SWAP1 DUP2 ADD PUSH1 0x40 MSTORE DUP1 SWAP3 SWAP2 SWAP1 DUP2 DUP2 MSTORE PUSH1 0x20 ADD DUP3 DUP1 SLOAD PUSH2 0xF0F SWAP1 PUSH2 0x20F6 JUMP JUMPDEST DUP1 ISZERO PUSH2 0xF5A JUMPI DUP1 PUSH1 0x1F LT PUSH2 0xF31 JUMPI PUSH2 0x100 DUP1 DUP4 SLOAD DIV MUL DUP4 MSTORE SWAP2 PUSH1 0x20 ADD SWAP2 PUSH2 0xF5A JUMP JUMPDEST DUP3 ADD SWAP2 SWAP1 PUSH0 MSTORE PUSH1 0x20 PUSH0 KECCAK256 SWAP1 JUMPDEST DUP2 SLOAD DUP2 MSTORE SWAP1 PUSH1 0x1 ADD SWAP1 PUSH1 0x20 ADD DUP1 DUP4 GT PUSH2 0xF3D JUMPI DUP3 SWAP1 SUB PUSH1 0x1F AND DUP3 ADD SWAP2 JUMPDEST POP POP POP POP POP DUP2 MSTORE PUSH1 0x20 ADD PUSH1 0x2 DUP3 ADD DUP1 SLOAD PUSH2 0xF73 SWAP1 PUSH2 0x20F6 JUMP JUMPDEST DUP1 PUSH1 0x1F ADD PUSH1 0x20 DUP1 SWAP2 DIV MUL PUSH1 0x20 ADD PUSH1 0x40 MLOAD SWAP1 DUP2 ADD PUSH1 0x40 MSTORE DUP1 SWAP3 SWAP2 SWAP1 DUP2 DUP2 MSTORE PUSH1 0x20 ADD DUP3 DUP1 SLOAD PUSH2 0xF9F SWAP1 PUSH2 0x20F6 JUMP JUMPDEST DUP1 ISZERO PUSH2 0xFEA JUMPI DUP1 PUSH1 0x1F LT PUSH2 0xFC1 JUMPI PUSH2 0x100 DUP1 DUP4 SLOAD DIV MUL DUP4 MSTORE SWAP2 PUSH1 0x20 ADD SWAP2 PUSH2 0xFEA JUMP JUMPDEST DUP3 ADD SWAP2 SWAP1 PUSH0 MSTORE PUSH1 0x20 PUSH0 KECCAK256 SWAP1 JUMPDEST DUP2 SLOAD DUP2 MSTORE SWAP1 PUSH1 0x1 ADD SWAP1 PUSH1 0x20 ADD DUP1 DUP4 GT PUSH2 0xFCD JUMPI DUP3 SWAP1 SUB PUSH1 0x1F AND DUP3 ADD SWAP2 JUMPDEST POP POP POP POP POP DUP2 MSTORE PUSH1 0x20 ADD PUSH1 0x3 DUP3 ADD PUSH0 SWAP1 SLOAD SWAP1 PUSH2 0x100 EXP SWAP1 DIV PUSH1 0xFF AND PUSH1 0xFF AND PUSH1 0xFF AND DUP2 MSTORE PUSH1 0x20 ADD PUSH1 0x3 DUP3 ADD PUSH1 0x1 SWAP1 SLOAD SWAP1 PUSH2 0x100 EXP SWAP1 DIV PUSH1 0xFF AND ISZERO ISZERO ISZERO ISZERO DUP2 MSTORE POP POP SWAP1 POP SWAP3 SWAP2 POP POP JUMP JUMPDEST PUSH32 0xEDCC084D3DCD65A1F7F23C65C46722FACA6953D28E43150A467CF43E5C309238 DUP2 JUMP JUMPDEST PUSH1 0x60 PUSH2 0x1062 PUSH1 0x4 PUSH2 0x143A JUMP JUMPDEST SWAP1 POP SWAP1 JUMP JUMPDEST PUSH0 PUSH32 0x1FFC9A700000000000000000000000000000000000000000000000000000000 PUSH28 0xFFFFFFFFFFFFFFFFFFFFFFFFFFFFFFFFFFFFFFFFFFFFFFFFFFFFFFFF NOT AND DUP3 PUSH28 0xFFFFFFFFFFFFFFFFFFFFFFFFFFFFFFFFFFFFFFFFFFFFFFFFFFFFFFFF NOT AND EQ SWAP1 POP SWAP2 SWAP1 POP JUMP JUMPDEST PUSH1 0x60 PUSH0 PUSH2 0x10DE DUP4 PUSH0 ADD PUSH2 0x1459 JUMP JUMPDEST SWAP1 POP PUSH1 0x60 DUP2 SWAP1 POP DUP1 SWAP3 POP POP POP SWAP2 SWAP1 POP JUMP JUMPDEST PUSH2 0x1100 DUP2 PUSH2 0x10FB PUSH2 0x1271 JUMP JUMPDEST PUSH2 0x14B2 JUMP JUMPDEST POP JUMP JUMPDEST PUSH0 PUSH2 0x1112 DUP4 PUSH0 ADD DUP4 PUSH0 SHL PUSH2 0x1503 JUMP JUMPDEST SWAP1 POP SWAP3 SWAP2 POP POP JUMP JUMPDEST PUSH2 0x1122 PUSH2 0x951 JUMP JUMPDEST ISZERO PUSH2 0x1159 JUMPI PUSH1 0x40 MLOAD PUSH32 0xD93C066500000000000000000000000000000000000000000000000000000000 DUP2 MSTORE PUSH1 0x4 ADD PUSH1 0x40 MLOAD DUP1 SWAP2 SUB SWAP1 REVERT JUMPDEST JUMP JUMPDEST PUSH0 PUSH2 0x1180 DUP4 PUSH0 ADD DUP4 PUSH20 0xFFFFFFFFFFFFFFFFFFFFFFFFFFFFFFFFFFFFFFFF AND PUSH0 SHL PUSH2 0x1523 JUMP JUMPDEST SWAP1 POP SWAP3 SWAP2 POP POP JUMP JUMPDEST PUSH0 PUSH2 0x1193 DUP4 DUP4 PUSH2 0xA5B JUMP JUMPDEST PUSH2 0x1267 JUMPI PUSH1 0x1 PUSH0 DUP1 DUP6 DUP2 MSTORE PUSH1 0x20 ADD SWAP1 DUP2 MSTORE PUSH1 0x20 ADD PUSH0 KECCAK256 PUSH0 ADD PUSH0 DUP5 PUSH20 0xFFFFFFFFFFFFFFFFFFFFFFFFFFFFFFFFFFFFFFFF AND PUSH20 0xFFFFFFFFFFFFFFFFFFFFFFFFFFFFFFFFFFFFFFFF AND DUP2 MSTORE PUSH1 0x20 ADD SWAP1 DUP2 MSTORE PUSH1 0x20 ADD PUSH0 KECCAK256 PUSH0 PUSH2 0x100 EXP DUP2 SLOAD DUP2 PUSH1 0xFF MUL NOT AND SWAP1 DUP4 ISZERO ISZERO MUL OR SWAP1 SSTORE POP PUSH2 0x1204 PUSH2 0x1271 JUMP JUMPDEST PUSH20 0xFFFFFFFFFFFFFFFFFFFFFFFFFFFFFFFFFFFFFFFF AND DUP3 PUSH20 0xFFFFFFFFFFFFFFFFFFFFFFFFFFFFFFFFFFFFFFFF AND DUP5 PUSH32 0x2F8788117E7EFF1D82E926EC794901D17C78024A50270940304540A733656F0D PUSH1 0x40 MLOAD PUSH1 0x40 MLOAD DUP1 SWAP2 SUB SWAP1 LOG4 PUSH1 0x1 SWAP1 POP PUSH2 0x126B JUMP JUMPDEST PUSH0 SWAP1 POP JUMPDEST SWAP3 SWAP2 POP POP JUMP JUMPDEST PUSH0 CALLER SWAP1 POP SWAP1 JUMP JUMPDEST PUSH0 PUSH2 0x1283 DUP4 DUP4 PUSH2 0xA5B JUMP JUMPDEST ISZERO PUSH2 0x1357 JUMPI PUSH0 DUP1 PUSH0 DUP6 DUP2 MSTORE PUSH1 0x20 ADD SWAP1 DUP2 MSTORE PUSH1 0x20 ADD PUSH0 KECCAK256 PUSH0 ADD PUSH0 DUP5 PUSH20 0xFFFFFFFFFFFFFFFFFFFFFFFFFFFFFFFFFFFFFFFF AND PUSH20 0xFFFFFFFFFFFFFFFFFFFFFFFFFFFFFFFFFFFFFFFF AND DUP2 MSTORE PUSH1 0x20 ADD SWAP1 DUP2 MSTORE PUSH1 0x20 ADD PUSH0 KECCAK256 PUSH0 PUSH2 0x100 EXP DUP2 SLOAD DUP2 PUSH1 0xFF MUL NOT AND SWAP1 DUP4 ISZERO ISZERO MUL OR SWAP1 SSTORE POP PUSH2 0x12F4 PUSH2 0x1271 JUMP JUMPDEST PUSH20 0xFFFFFFFFFFFFFFFFFFFFFFFFFFFFFFFFFFFFFFFF AND DUP3 PUSH20 0xFFFFFFFFFFFFFFFFFFFFFFFFFFFFFFFFFFFFFFFF AND DUP5 PUSH32 0xF6391F5C32D9C69D2A47EA670B442974B53935D1EDC7FD64EB21E047A839171B PUSH1 0x40 MLOAD PUSH1 0x40 MLOAD DUP1 SWAP2 SUB SWAP1 LOG4 PUSH1 0x1 SWAP1 POP PUSH2 0x135B JUMP JUMPDEST PUSH0 SWAP1 POP JUMPDEST SWAP3 SWAP2 POP POP JUMP JUMPDEST PUSH2 0x1369 PUSH2 0x158A JUMP JUMPDEST PUSH0 PUSH1 0x1 PUSH0 PUSH2 0x100 EXP DUP2 SLOAD DUP2 PUSH1 0xFF MUL NOT AND SWAP1 DUP4 ISZERO ISZERO MUL OR SWAP1 SSTORE POP PUSH32 0x5DB9EE0A495BF2E6FF9C91A7834C1BA4FDD244A5E8AA4E537BD38AEAE4B073AA PUSH2 0x13AB PUSH2 0x1271 JUMP JUMPDEST PUSH1 0x40 MLOAD PUSH2 0x13B8 SWAP2 SWAP1 PUSH2 0x251B JUMP JUMPDEST PUSH1 0x40 MLOAD DUP1 SWAP2 SUB SWAP1 LOG1 JUMP JUMPDEST PUSH2 0x13CA PUSH2 0x111A JUMP JUMPDEST PUSH1 0x1 DUP1 PUSH0 PUSH2 0x100 EXP DUP2 SLOAD DUP2 PUSH1 0xFF MUL NOT AND SWAP1 DUP4 ISZERO ISZERO MUL OR SWAP1 SSTORE POP PUSH32 0x62E78CEA01BEE320CD4E420270B5EA74000D11B0C9F74754EBDBFC544B05A258 PUSH2 0x140C PUSH2 0x1271 JUMP JUMPDEST PUSH1 0x40 MLOAD PUSH2 0x1419 SWAP2 SWAP1 PUSH2 0x251B JUMP JUMPDEST PUSH1 0x40 MLOAD DUP1 SWAP2 SUB SWAP1 LOG1 JUMP JUMPDEST PUSH0 PUSH2 0x1432 DUP4 PUSH0 ADD DUP4 PUSH0 SHL PUSH2 0x1523 JUMP JUMPDEST SWAP1 POP SWAP3 SWAP2 POP POP JUMP JUMPDEST PUSH1 0x60 PUSH0 PUSH2 0x1448 DUP4 PUSH0 ADD PUSH2 0x1459 JUMP JUMPDEST SWAP1 POP PUSH1 0x60 DUP2 SWAP1 POP DUP1 SWAP3 POP POP POP SWAP2 SWAP1 POP JUMP JUMPDEST PUSH1 0x60 DUP2 PUSH0 ADD DUP1 SLOAD DUP1 PUSH1 0x20 MUL PUSH1 0x20 ADD PUSH1 0x40 MLOAD SWAP1 DUP2 ADD PUSH1 0x40 MSTORE DUP1 SWAP3 SWAP2 SWAP1 DUP2 DUP2 MSTORE PUSH1 0x20 ADD DUP3 DUP1 SLOAD DUP1 ISZERO PUSH2 0x14A6 JUMPI PUSH1 0x20 MUL DUP3 ADD SWAP2 SWAP1 PUSH0 MSTORE PUSH1 0x20 PUSH0 KECCAK256 SWAP1 JUMPDEST DUP2 SLOAD DUP2 MSTORE PUSH1 0x20 ADD SWAP1 PUSH1 0x1 ADD SWAP1 DUP1 DUP4 GT PUSH2 0x1492 JUMPI JUMPDEST POP POP POP POP POP SWAP1 POP SWAP2 SWAP1 POP JUMP JUMPDEST PUSH2 0x14BC DUP3 DUP3 PUSH2 0xA5B JUMP JUMPDEST PUSH2 0x14FF JUMPI DUP1 DUP3 PUSH1 0x40 MLOAD PUSH32 0xE2517D3F00000000000000000000000000000000000000000000000000000000 DUP2 MSTORE PUSH1 0x4 ADD PUSH2 0x14F6 SWAP3 SWAP2 SWAP1 PUSH2 0x2534 JUMP JUMPDEST PUSH1 0x40 MLOAD DUP1 SWAP2 SUB SWAP1 REVERT JUMPDEST POP POP JUMP JUMPDEST PUSH0 DUP1 DUP4 PUSH1 0x1 ADD PUSH0 DUP5 DUP2 MSTORE PUSH1 0x20 ADD SWAP1 DUP2 MSTORE PUSH1 0x20 ADD PUSH0 KECCAK256 SLOAD EQ ISZERO SWAP1 POP SWAP3 SWAP2 POP POP JUMP JUMPDEST PUSH0 PUSH2 0x152E DUP4 DUP4 PUSH2 0x1503 JUMP JUMPDEST PUSH2 0x1580 JUMPI DUP3 PUSH0 ADD DUP3 SWAP1 DUP1 PUSH1 0x1 DUP2 SLOAD ADD DUP1 DUP3 SSTORE DUP1 SWAP2 POP POP PUSH1 0x1 SWAP1 SUB SWAP1 PUSH0 MSTORE PUSH1 0x20 PUSH0 KECCAK256 ADD PUSH0 SWAP1 SWAP2 SWAP1 SWAP2 SWAP1 SWAP2 POP SSTORE DUP3 PUSH0 ADD DUP1 SLOAD SWAP1 POP DUP4 PUSH1 0x1 ADD PUSH0 DUP5 DUP2 MSTORE PUSH1 0x20 ADD SWAP1 DUP2 MSTORE PUSH1 0x20 ADD PUSH0 KECCAK256 DUP2 SWAP1 SSTORE POP PUSH1 0x1 SWAP1 POP PUSH2 0x1584 JUMP JUMPDEST PUSH0 SWAP1 POP JUMPDEST SWAP3 SWAP2 POP POP JUMP JUMPDEST PUSH2 0x1592 PUSH2 0x951 JUMP JUMPDEST PUSH2 0x15C8 JUMPI PUSH1 0x40 MLOAD PUSH32 0x8DFC202B00000000000000000000000000000000000000000000000000000000 DUP2 MSTORE PUSH1 0x4 ADD PUSH1 0x40 MLOAD DUP1 SWAP2 SUB SWAP1 REVERT JUMPDEST JUMP JUMPDEST PUSH1 0x40 MLOAD DUP1 PUSH1 0x60 ADD PUSH1 0x40 MSTORE DUP1 PUSH0 DUP2 MSTORE PUSH1 0x20 ADD PUSH1 0x60 DUP2 MSTORE PUSH1 0x20 ADD PUSH0 ISZERO ISZERO DUP2 MSTORE POP SWAP1 JUMP JUMPDEST PUSH1 0x40 MLOAD DUP1 PUSH1 0xC0 ADD PUSH1 0x40 MSTORE DUP1 PUSH0 PUSH20 0xFFFFFFFFFFFFFFFFFFFFFFFFFFFFFFFFFFFFFFFF AND DUP2 MSTORE PUSH1 0x20 ADD PUSH0 PUSH1 0x3 DUP2 GT ISZERO PUSH2 0x1625 JUMPI PUSH2 0x1624 PUSH2 0x1DF2 JUMP JUMPDEST JUMPDEST DUP2 MSTORE PUSH1 0x20 ADD PUSH1 0x60 DUP2 MSTORE PUSH1 0x20 ADD PUSH1 0x60 DUP2 MSTORE PUSH1 0x20 ADD PUSH0 PUSH1 0xFF AND DUP2 MSTORE PUSH1 0x20 ADD PUSH0 ISZERO ISZERO DUP2 MSTORE POP SWAP1 JUMP JUMPDEST PUSH0 PUSH1 0x40 MLOAD SWAP1 POP SWAP1 JUMP JUMPDEST PUSH0 DUP1 REVERT JUMPDEST PUSH0 DUP1 REVERT JUMPDEST PUSH0 PUSH32 0xFFFFFFFF00000000000000000000000000000000000000000000000000000000 DUP3 AND SWAP1 POP SWAP2 SWAP1 POP JUMP JUMPDEST PUSH2 0x168F DUP2 PUSH2 0x165B JUMP JUMPDEST DUP2 EQ PUSH2 0x1699 JUMPI PUSH0 DUP1 REVERT JUMPDEST POP JUMP JUMPDEST PUSH0 DUP2 CALLDATALOAD SWAP1 POP PUSH2 0x16AA DUP2 PUSH2 0x1686 JUMP JUMPDEST SWAP3 SWAP2 POP POP JUMP JUMPDEST PUSH0 PUSH1 0x20 DUP3 DUP5 SUB SLT ISZERO PUSH2 0x16C5 JUMPI PUSH2 0x16C4 PUSH2 0x1653 JUMP JUMPDEST JUMPDEST PUSH0 PUSH2 0x16D2 DUP5 DUP3 DUP6 ADD PUSH2 0x169C JUMP JUMPDEST SWAP2 POP POP SWAP3 SWAP2 POP POP JUMP JUMPDEST PUSH0 DUP2 ISZERO ISZERO SWAP1 POP SWAP2 SWAP1 POP JUMP JUMPDEST PUSH2 0x16EF DUP2 PUSH2 0x16DB JUMP JUMPDEST DUP3 MSTORE POP POP JUMP JUMPDEST PUSH0 PUSH1 0x20 DUP3 ADD SWAP1 POP PUSH2 0x1708 PUSH0 DUP4 ADD DUP5 PUSH2 0x16E6 JUMP JUMPDEST SWAP3 SWAP2 POP POP JUMP JUMPDEST PUSH0 DUP2 SWAP1 POP SWAP2 SWAP1 POP JUMP JUMPDEST PUSH2 0x1720 DUP2 PUSH2 0x170E JUMP JUMPDEST DUP2 EQ PUSH2 0x172A JUMPI PUSH0 DUP1 REVERT JUMPDEST POP JUMP JUMPDEST PUSH0 DUP2 CALLDATALOAD SWAP1 POP PUSH2 0x173B DUP2 PUSH2 0x1717 JUMP JUMPDEST SWAP3 SWAP2 POP POP JUMP JUMPDEST PUSH0 PUSH1 0x20 DUP3 DUP5 SUB SLT ISZERO PUSH2 0x1756 JUMPI PUSH2 0x1755 PUSH2 0x1653 JUMP JUMPDEST JUMPDEST PUSH0 PUSH2 0x1763 DUP5 DUP3 DUP6 ADD PUSH2 0x172D JUMP JUMPDEST SWAP2 POP POP SWAP3 SWAP2 POP POP JUMP JUMPDEST PUSH0 DUP2 MLOAD SWAP1 POP SWAP2 SWAP1 POP JUMP JUMPDEST PUSH0 DUP3 DUP3 MSTORE PUSH1 0x20 DUP3 ADD SWAP1 POP SWAP3 SWAP2 POP POP JUMP JUMPDEST PUSH0 DUP2 SWAP1 POP PUSH1 0x20 DUP3 ADD SWAP1 POP SWAP2 SWAP1 POP JUMP JUMPDEST PUSH0 PUSH20 0xFFFFFFFFFFFFFFFFFFFFFFFFFFFFFFFFFFFFFFFF DUP3 AND SWAP1 POP SWAP2 SWAP1 POP JUMP JUMPDEST PUSH0 PUSH2 0x17BE DUP3 PUSH2 0x1795 JUMP JUMPDEST SWAP1 POP SWAP2 SWAP1 POP JUMP JUMPDEST PUSH2 0x17CE DUP2 PUSH2 0x17B4 JUMP JUMPDEST DUP3 MSTORE POP POP JUMP JUMPDEST PUSH0 PUSH2 0x17DF DUP4 DUP4 PUSH2 0x17C5 JUMP JUMPDEST PUSH1 0x20 DUP4 ADD SWAP1 POP SWAP3 SWAP2 POP POP JUMP JUMPDEST PUSH0 PUSH1 0x20 DUP3 ADD SWAP1 POP SWAP2 SWAP1 POP JUMP JUMPDEST PUSH0 PUSH2 0x1801 DUP3 PUSH2 0x176C JUMP JUMPDEST PUSH2 0x180B DUP2 DUP6 PUSH2 0x1776 JUMP JUMPDEST SWAP4 POP PUSH2 0x1816 DUP4 PUSH2 0x1786 JUMP JUMPDEST DUP1 PUSH0 JUMPDEST DUP4 DUP2 LT ISZERO PUSH2 0x1846 JUMPI DUP2 MLOAD PUSH2 0x182D DUP9 DUP3 PUSH2 0x17D4 JUMP JUMPDEST SWAP8 POP PUSH2 0x1838 DUP4 PUSH2 0x17EB JUMP JUMPDEST SWAP3 POP POP PUSH1 0x1 DUP2 ADD SWAP1 POP PUSH2 0x1819 JUMP JUMPDEST POP DUP6 SWAP4 POP POP POP POP SWAP3 SWAP2 POP POP JUMP JUMPDEST PUSH0 PUSH1 0x20 DUP3 ADD SWAP1 POP DUP2 DUP2 SUB PUSH0 DUP4 ADD MSTORE PUSH2 0x186B DUP2 DUP5 PUSH2 0x17F7 JUMP JUMPDEST SWAP1 POP SWAP3 SWAP2 POP POP JUMP JUMPDEST PUSH2 0x187C DUP2 PUSH2 0x16DB JUMP JUMPDEST DUP2 EQ PUSH2 0x1886 JUMPI PUSH0 DUP1 REVERT JUMPDEST POP JUMP JUMPDEST PUSH0 DUP2 CALLDATALOAD SWAP1 POP PUSH2 0x1897 DUP2 PUSH2 0x1873 JUMP JUMPDEST SWAP3 SWAP2 POP POP JUMP JUMPDEST PUSH0 DUP1 PUSH1 0x40 DUP4 DUP6 SUB SLT ISZERO PUSH2 0x18B3 JUMPI PUSH2 0x18B2 PUSH2 0x1653 JUMP JUMPDEST JUMPDEST PUSH0 PUSH2 0x18C0 DUP6 DUP3 DUP7 ADD PUSH2 0x172D JUMP JUMPDEST SWAP3 POP POP PUSH1 0x20 PUSH2 0x18D1 DUP6 DUP3 DUP7 ADD PUSH2 0x1889 JUMP JUMPDEST SWAP2 POP POP SWAP3 POP SWAP3 SWAP1 POP JUMP JUMPDEST PUSH0 DUP2 SWAP1 POP SWAP2 SWAP1 POP JUMP JUMPDEST PUSH2 0x18ED DUP2 PUSH2 0x18DB JUMP JUMPDEST DUP2 EQ PUSH2 0x18F7 JUMPI PUSH0 DUP1 REVERT JUMPDEST POP JUMP JUMPDEST PUSH0 DUP2 CALLDATALOAD SWAP1 POP PUSH2 0x1908 DUP2 PUSH2 0x18E4 JUMP JUMPDEST SWAP3 SWAP2 POP POP JUMP JUMPDEST PUSH0 PUSH1 0x20 DUP3 DUP5 SUB SLT ISZERO PUSH2 0x1923 JUMPI PUSH2 0x1922 PUSH2 0x1653 JUMP JUMPDEST JUMPDEST PUSH0 PUSH2 0x1930 DUP5 DUP3 DUP6 ADD PUSH2 0x18FA JUMP JUMPDEST SWAP2 POP POP SWAP3 SWAP2 POP POP JUMP JUMPDEST PUSH2 0x1942 DUP2 PUSH2 0x18DB JUMP JUMPDEST DUP3 MSTORE POP POP JUMP JUMPDEST PUSH0 PUSH1 0x20 DUP3 ADD SWAP1 POP PUSH2 0x195B PUSH0 DUP4 ADD DUP5 PUSH2 0x1939 JUMP JUMPDEST SWAP3 SWAP2 POP POP JUMP JUMPDEST PUSH2 0x196A DUP2 PUSH2 0x17B4 JUMP JUMPDEST DUP2 EQ PUSH2 0x1974 JUMPI PUSH0 DUP1 REVERT JUMPDEST POP JUMP JUMPDEST PUSH0 DUP2 CALLDATALOAD SWAP1 POP PUSH2 0x1985 DUP2 PUSH2 0x1961 JUMP JUMPDEST SWAP3 SWAP2 POP POP JUMP JUMPDEST PUSH1 0x4 DUP2 LT PUSH2 0x1997 JUMPI PUSH0 DUP1 REVERT JUMPDEST POP JUMP JUMPDEST PUSH0 DUP2 CALLDATALOAD SWAP1 POP PUSH2 0x19A8 DUP2 PUSH2 0x198B JUMP JUMPDEST SWAP3 SWAP2 POP POP JUMP JUMPDEST PUSH0 DUP1 REVERT JUMPDEST PUSH0 DUP1 REVERT JUMPDEST PUSH0 PUSH1 0x1F NOT PUSH1 0x1F DUP4 ADD AND SWAP1 POP SWAP2 SWAP1 POP JUMP JUMPDEST PUSH32 0x4E487B7100000000000000000000000000000000000000000000000000000000 PUSH0 MSTORE PUSH1 0x41 PUSH1 0x4 MSTORE PUSH1 0x24 PUSH0 REVERT JUMPDEST PUSH2 0x19FC DUP3 PUSH2 0x19B6 JUMP JUMPDEST DUP2 ADD DUP2 DUP2 LT PUSH8 0xFFFFFFFFFFFFFFFF DUP3 GT OR ISZERO PUSH2 0x1A1B JUMPI PUSH2 0x1A1A PUSH2 0x19C6 JUMP JUMPDEST JUMPDEST DUP1 PUSH1 0x40 MSTORE POP POP POP JUMP JUMPDEST PUSH0 PUSH2 0x1A2D PUSH2 0x164A JUMP JUMPDEST SWAP1 POP PUSH2 0x1A39 DUP3 DUP3 PUSH2 0x19F3 JUMP JUMPDEST SWAP2 SWAP1 POP JUMP JUMPDEST PUSH0 PUSH8 0xFFFFFFFFFFFFFFFF DUP3 GT ISZERO PUSH2 0x1A58 JUMPI PUSH2 0x1A57 PUSH2 0x19C6 JUMP JUMPDEST JUMPDEST PUSH2 0x1A61 DUP3 PUSH2 0x19B6 JUMP JUMPDEST SWAP1 POP PUSH1 0x20 DUP2 ADD SWAP1 POP SWAP2 SWAP1 POP JUMP JUMPDEST DUP3 DUP2 DUP4 CALLDATACOPY PUSH0 DUP4 DUP4 ADD MSTORE POP POP POP JUMP JUMPDEST PUSH0 PUSH2 0x1A8E PUSH2 0x1A89 DUP5 PUSH2 0x1A3E JUMP JUMPDEST PUSH2 0x1A24 JUMP JUMPDEST SWAP1 POP DUP3 DUP2 MSTORE PUSH1 0x20 DUP2 ADD DUP5 DUP5 DUP5 ADD GT ISZERO PUSH2 0x1AAA JUMPI PUSH2 0x1AA9 PUSH2 0x19B2 JUMP JUMPDEST JUMPDEST PUSH2 0x1AB5 DUP5 DUP3 DUP6 PUSH2 0x1A6E JUMP JUMPDEST POP SWAP4 SWAP3 POP POP POP JUMP JUMPDEST PUSH0 DUP3 PUSH1 0x1F DUP4 ADD SLT PUSH2 0x1AD1 JUMPI PUSH2 0x1AD0 PUSH2 0x19AE JUMP JUMPDEST JUMPDEST DUP2 CALLDATALOAD PUSH2 0x1AE1 DUP5 DUP3 PUSH1 0x20 DUP7 ADD PUSH2 0x1A7C JUMP JUMPDEST SWAP2 POP POP SWAP3 SWAP2 POP POP JUMP JUMPDEST PUSH0 PUSH1 0xFF DUP3 AND SWAP1 POP SWAP2 SWAP1 POP JUMP JUMPDEST PUSH2 0x1AFF DUP2 PUSH2 0x1AEA JUMP JUMPDEST DUP2 EQ PUSH2 0x1B09 JUMPI PUSH0 DUP1 REVERT JUMPDEST POP JUMP JUMPDEST PUSH0 DUP2 CALLDATALOAD SWAP1 POP PUSH2 0x1B1A DUP2 PUSH2 0x1AF6 JUMP JUMPDEST SWAP3 SWAP2 POP POP JUMP JUMPDEST PUSH0 DUP1 PUSH0 DUP1 PUSH0 DUP1 PUSH1 0xC0 DUP8 DUP10 SUB SLT ISZERO PUSH2 0x1B3A JUMPI PUSH2 0x1B39 PUSH2 0x1653 JUMP JUMPDEST JUMPDEST PUSH0 PUSH2 0x1B47 DUP10 DUP3 DUP11 ADD PUSH2 0x172D JUMP JUMPDEST SWAP7 POP POP PUSH1 0x20 PUSH2 0x1B58 DUP10 DUP3 DUP11 ADD PUSH2 0x1977 JUMP JUMPDEST SWAP6 POP POP PUSH1 0x40 PUSH2 0x1B69 DUP10 DUP3 DUP11 ADD PUSH2 0x199A JUMP JUMPDEST SWAP5 POP POP PUSH1 0x60 DUP8 ADD CALLDATALOAD PUSH8 0xFFFFFFFFFFFFFFFF DUP2 GT ISZERO PUSH2 0x1B8A JUMPI PUSH2 0x1B89 PUSH2 0x1657 JUMP JUMPDEST JUMPDEST PUSH2 0x1B96 DUP10 DUP3 DUP11 ADD PUSH2 0x1ABD JUMP JUMPDEST SWAP4 POP POP PUSH1 0x80 DUP8 ADD CALLDATALOAD PUSH8 0xFFFFFFFFFFFFFFFF DUP2 GT ISZERO PUSH2 0x1BB7 JUMPI PUSH2 0x1BB6 PUSH2 0x1657 JUMP JUMPDEST JUMPDEST PUSH2 0x1BC3 DUP10 DUP3 DUP11 ADD PUSH2 0x1ABD JUMP JUMPDEST SWAP3 POP POP PUSH1 0xA0 PUSH2 0x1BD4 DUP10 DUP3 DUP11 ADD PUSH2 0x1B0C JUMP JUMPDEST SWAP2 POP POP SWAP3 SWAP6 POP SWAP3 SWAP6 POP SWAP3 SWAP6 JUMP JUMPDEST PUSH0 DUP1 PUSH1 0x40 DUP4 DUP6 SUB SLT ISZERO PUSH2 0x1BF7 JUMPI PUSH2 0x1BF6 PUSH2 0x1653 JUMP JUMPDEST JUMPDEST PUSH0 PUSH2 0x1C04 DUP6 DUP3 DUP7 ADD PUSH2 0x18FA JUMP JUMPDEST SWAP3 POP POP PUSH1 0x20 PUSH2 0x1C15 DUP6 DUP3 DUP7 ADD PUSH2 0x1977 JUMP JUMPDEST SWAP2 POP POP SWAP3 POP SWAP3 SWAP1 POP JUMP JUMPDEST PUSH2 0x1C28 DUP2 PUSH2 0x170E JUMP JUMPDEST DUP3 MSTORE POP POP JUMP JUMPDEST PUSH0 DUP2 MLOAD SWAP1 POP SWAP2 SWAP1 POP JUMP JUMPDEST PUSH0 DUP3 DUP3 MSTORE PUSH1 0x20 DUP3 ADD SWAP1 POP SWAP3 SWAP2 POP POP JUMP JUMPDEST DUP3 DUP2 DUP4 MCOPY PUSH0 DUP4 DUP4 ADD MSTORE POP POP POP JUMP JUMPDEST PUSH0 PUSH2 0x1C60 DUP3 PUSH2 0x1C2E JUMP JUMPDEST PUSH2 0x1C6A DUP2 DUP6 PUSH2 0x1C38 JUMP JUMPDEST SWAP4 POP PUSH2 0x1C7A DUP2 DUP6 PUSH1 0x20 DUP7 ADD PUSH2 0x1C48 JUMP JUMPDEST PUSH2 0x1C83 DUP2 PUSH2 0x19B6 JUMP JUMPDEST DUP5 ADD SWAP2 POP POP SWAP3 SWAP2 POP POP JUMP JUMPDEST PUSH2 0x1C97 DUP2 PUSH2 0x16DB JUMP JUMPDEST DUP3 MSTORE POP POP JUMP JUMPDEST PUSH0 PUSH1 0x60 DUP4 ADD PUSH0 DUP4 ADD MLOAD PUSH2 0x1CB2 PUSH0 DUP7 ADD DUP3 PUSH2 0x1C1F JUMP JUMPDEST POP PUSH1 0x20 DUP4 ADD MLOAD DUP5 DUP3 SUB PUSH1 0x20 DUP7 ADD MSTORE PUSH2 0x1CCA DUP3 DUP3 PUSH2 0x1C56 JUMP JUMPDEST SWAP2 POP POP PUSH1 0x40 DUP4 ADD MLOAD PUSH2 0x1CDF PUSH1 0x40 DUP7 ADD DUP3 PUSH2 0x1C8E JUMP JUMPDEST POP DUP1 SWAP2 POP POP SWAP3 SWAP2 POP POP JUMP JUMPDEST PUSH0 PUSH1 0x20 DUP3 ADD SWAP1 POP DUP2 DUP2 SUB PUSH0 DUP4 ADD MSTORE PUSH2 0x1D02 DUP2 DUP5 PUSH2 0x1C9D JUMP JUMPDEST SWAP1 POP SWAP3 SWAP2 POP POP JUMP JUMPDEST PUSH0 DUP1 PUSH1 0x40 DUP4 DUP6 SUB SLT ISZERO PUSH2 0x1D20 JUMPI PUSH2 0x1D1F PUSH2 0x1653 JUMP JUMPDEST JUMPDEST PUSH0 PUSH2 0x1D2D DUP6 DUP3 DUP7 ADD PUSH2 0x172D JUMP JUMPDEST SWAP3 POP POP PUSH1 0x20 DUP4 ADD CALLDATALOAD PUSH8 0xFFFFFFFFFFFFFFFF DUP2 GT ISZERO PUSH2 0x1D4E JUMPI PUSH2 0x1D4D PUSH2 0x1657 JUMP JUMPDEST JUMPDEST PUSH2 0x1D5A DUP6 DUP3 DUP7 ADD PUSH2 0x1ABD JUMP JUMPDEST SWAP2 POP POP SWAP3 POP SWAP3 SWAP1 POP JUMP JUMPDEST PUSH0 DUP1 PUSH0 PUSH1 0x60 DUP5 DUP7 SUB SLT ISZERO PUSH2 0x1D7B JUMPI PUSH2 0x1D7A PUSH2 0x1653 JUMP JUMPDEST JUMPDEST PUSH0 PUSH2 0x1D88 DUP7 DUP3 DUP8 ADD PUSH2 0x172D JUMP JUMPDEST SWAP4 POP POP PUSH1 0x20 PUSH2 0x1D99 DUP7 DUP3 DUP8 ADD PUSH2 0x1977 JUMP JUMPDEST SWAP3 POP POP PUSH1 0x40 PUSH2 0x1DAA DUP7 DUP3 DUP8 ADD PUSH2 0x1889 JUMP JUMPDEST SWAP2 POP POP SWAP3 POP SWAP3 POP SWAP3 JUMP JUMPDEST PUSH0 DUP1 PUSH1 0x40 DUP4 DUP6 SUB SLT ISZERO PUSH2 0x1DCA JUMPI PUSH2 0x1DC9 PUSH2 0x1653 JUMP JUMPDEST JUMPDEST PUSH0 PUSH2 0x1DD7 DUP6 DUP3 DUP7 ADD PUSH2 0x172D JUMP JUMPDEST SWAP3 POP POP PUSH1 0x20 PUSH2 0x1DE8 DUP6 DUP3 DUP7 ADD PUSH2 0x1977 JUMP JUMPDEST SWAP2 POP POP SWAP3 POP SWAP3 SWAP1 POP JUMP JUMPDEST PUSH32 0x4E487B7100000000000000000000000000000000000000000000000000000000 PUSH0 MSTORE PUSH1 0x21 PUSH1 0x4 MSTORE PUSH1 0x24 PUSH0 REVERT JUMPDEST PUSH1 0x4 DUP2 LT PUSH2 0x1E30 JUMPI PUSH2 0x1E2F PUSH2 0x1DF2 JUMP JUMPDEST JUMPDEST POP JUMP JUMPDEST PUSH0 DUP2 SWAP1 POP PUSH2 0x1E40 DUP3 PUSH2 0x1E1F JUMP JUMPDEST SWAP2 SWAP1 POP JUMP JUMPDEST PUSH0 PUSH2 0x1E4F DUP3 PUSH2 0x1E33 JUMP JUMPDEST SWAP1 POP SWAP2 SWAP1 POP JUMP JUMPDEST PUSH2 0x1E5F DUP2 PUSH2 0x1E45 JUMP JUMPDEST DUP3 MSTORE POP POP JUMP JUMPDEST PUSH2 0x1E6E DUP2 PUSH2 0x1AEA JUMP JUMPDEST DUP3 MSTORE POP POP JUMP JUMPDEST PUSH0 PUSH1 0xC0 DUP4 ADD PUSH0 DUP4 ADD MLOAD PUSH2 0x1E89 PUSH0 DUP7 ADD DUP3 PUSH2 0x17C5 JUMP JUMPDEST POP PUSH1 0x20 DUP4 ADD MLOAD PUSH2 0x1E9C PUSH1 0x20 DUP7 ADD DUP3 PUSH2 0x1E56 JUMP JUMPDEST POP PUSH1 0x40 DUP4 ADD MLOAD DUP5 DUP3 SUB PUSH1 0x40 DUP7 ADD MSTORE PUSH2 0x1EB4 DUP3 DUP3 PUSH2 0x1C56 JUMP JUMPDEST SWAP2 POP POP PUSH1 0x60 DUP4 ADD MLOAD DUP5 DUP3 SUB PUSH1 0x60 DUP7 ADD MSTORE PUSH2 0x1ECE DUP3 DUP3 PUSH2 0x1C56 JUMP JUMPDEST SWAP2 POP POP PUSH1 0x80 DUP4 ADD MLOAD PUSH2 0x1EE3 PUSH1 0x80 DUP7 ADD DUP3 PUSH2 0x1E65 JUMP JUMPDEST POP PUSH1 0xA0 DUP4 ADD MLOAD PUSH2 0x1EF6 PUSH1 0xA0 DUP7 ADD DUP3 PUSH2 0x1C8E JUMP JUMPDEST POP DUP1 SWAP2 POP POP SWAP3 SWAP2 POP POP JUMP JUMPDEST PUSH0 PUSH1 0x20 DUP3 ADD SWAP1 POP DUP2 DUP2 SUB PUSH0 DUP4 ADD MSTORE PUSH2 0x1F19 DUP2 DUP5 PUSH2 0x1E74 JUMP JUMPDEST SWAP1 POP SWAP3 SWAP2 POP POP JUMP JUMPDEST PUSH0 DUP2 MLOAD SWAP1 POP SWAP2 SWAP1 POP JUMP JUMPDEST PUSH0 DUP3 DUP3 MSTORE PUSH1 0x20 DUP3 ADD SWAP1 POP SWAP3 SWAP2 POP POP JUMP JUMPDEST PUSH0 DUP2 SWAP1 POP PUSH1 0x20 DUP3 ADD SWAP1 POP SWAP2 SWAP1 POP JUMP JUMPDEST PUSH0 PUSH2 0x1F55 DUP4 DUP4 PUSH2 0x1C1F JUMP JUMPDEST PUSH1 0x20 DUP4 ADD SWAP1 POP SWAP3 SWAP2 POP POP JUMP JUMPDEST PUSH0 PUSH1 0x20 DUP3 ADD SWAP1 POP SWAP2 SWAP1 POP JUMP JUMPDEST PUSH0 PUSH2 0x1F77 DUP3 PUSH2 0x1F21 JUMP JUMPDEST PUSH2 0x1F81 DUP2 DUP6 PUSH2 0x1F2B JUMP JUMPDEST SWAP4 POP PUSH2 0x1F8C DUP4 PUSH2 0x1F3B JUMP JUMPDEST DUP1 PUSH0 JUMPDEST DUP4 DUP2 LT ISZERO PUSH2 0x1FBC JUMPI DUP2 MLOAD PUSH2 0x1FA3 DUP9 DUP3 PUSH2 0x1F4A JUMP JUMPDEST SWAP8 POP PUSH2 0x1FAE DUP4 PUSH2 0x1F61 JUMP JUMPDEST SWAP3 POP POP PUSH1 0x1 DUP2 ADD SWAP1 POP PUSH2 0x1F8F JUMP JUMPDEST POP DUP6 SWAP4 POP POP POP POP SWAP3 SWAP2 POP POP JUMP JUMPDEST PUSH0 PUSH1 0x20 DUP3 ADD SWAP1 POP DUP2 DUP2 SUB PUSH0 DUP4 ADD MSTORE PUSH2 0x1FE1 DUP2 DUP5 PUSH2 0x1F6D JUMP JUMPDEST SWAP1 POP SWAP3 SWAP2 POP POP JUMP JUMPDEST PUSH0 DUP3 DUP3 MSTORE PUSH1 0x20 DUP3 ADD SWAP1 POP SWAP3 SWAP2 POP POP JUMP JUMPDEST PUSH32 0x436861696E206E6F7420737570706F7274656400000000000000000000000000 PUSH0 DUP3 ADD MSTORE POP JUMP JUMPDEST PUSH0 PUSH2 0x202D PUSH1 0x13 DUP4 PUSH2 0x1FE9 JUMP JUMPDEST SWAP2 POP PUSH2 0x2038 DUP3 PUSH2 0x1FF9 JUMP JUMPDEST PUSH1 0x20 DUP3 ADD SWAP1 POP SWAP2 SWAP1 POP JUMP JUMPDEST PUSH0 PUSH1 0x20 DUP3 ADD SWAP1 POP DUP2 DUP2 SUB PUSH0 DUP4 ADD MSTORE PUSH2 0x205A DUP2 PUSH2 0x2021 JUMP JUMPDEST SWAP1 POP SWAP2 SWAP1 POP JUMP JUMPDEST PUSH32 0x417373657420616C726561647920726567697374657265640000000000000000 PUSH0 DUP3 ADD MSTORE POP JUMP JUMPDEST PUSH0 PUSH2 0x2095 PUSH1 0x18 DUP4 PUSH2 0x1FE9 JUMP JUMPDEST SWAP2 POP PUSH2 0x20A0 DUP3 PUSH2 0x2061 JUMP JUMPDEST PUSH1 0x20 DUP3 ADD SWAP1 POP SWAP2 SWAP1 POP JUMP JUMPDEST PUSH0 PUSH1 0x20 DUP3 ADD SWAP1 POP DUP2 DUP2 SUB PUSH0 DUP4 ADD MSTORE PUSH2 0x20C2 DUP2 PUSH2 0x2089 JUMP JUMPDEST SWAP1 POP SWAP2 SWAP1 POP JUMP JUMPDEST PUSH32 0x4E487B7100000000000000000000000000000000000000000000000000000000 PUSH0 MSTORE PUSH1 0x22 PUSH1 0x4 MSTORE PUSH1 0x24 PUSH0 REVERT JUMPDEST PUSH0 PUSH1 0x2 DUP3 DIV SWAP1 POP PUSH1 0x1 DUP3 AND DUP1 PUSH2 0x210D JUMPI PUSH1 0x7F DUP3 AND SWAP2 POP JUMPDEST PUSH1 0x20 DUP3 LT DUP2 SUB PUSH2 0x2120 JUMPI PUSH2 0x211F PUSH2 0x20C9 JUMP JUMPDEST JUMPDEST POP SWAP2 SWAP1 POP JUMP JUMPDEST PUSH0 DUP2 SWAP1 POP DUP2 PUSH0 MSTORE PUSH1 0x20 PUSH0 KECCAK256 SWAP1 POP SWAP2 SWAP1 POP JUMP JUMPDEST PUSH0 PUSH1 0x20 PUSH1 0x1F DUP4 ADD DIV SWAP1 POP SWAP2 SWAP1 POP JUMP JUMPDEST PUSH0 DUP3 DUP3 SHL SWAP1 POP SWAP3 SWAP2 POP POP JUMP JUMPDEST PUSH0 PUSH1 0x8 DUP4 MUL PUSH2 0x2182 PUSH32 0xFFFFFFFFFFFFFFFFFFFFFFFFFFFFFFFFFFFFFFFFFFFFFFFFFFFFFFFFFFFFFFFF DUP3 PUSH2 0x2147 JUMP JUMPDEST PUSH2 0x218C DUP7 DUP4 PUSH2 0x2147 JUMP JUMPDEST SWAP6 POP DUP1 NOT DUP5 AND SWAP4 POP DUP1 DUP7 AND DUP5 OR SWAP3 POP POP POP SWAP4 SWAP3 POP POP POP JUMP JUMPDEST PUSH0 DUP2 SWAP1 POP SWAP2 SWAP1 POP JUMP JUMPDEST PUSH0 PUSH2 0x21C7 PUSH2 0x21C2 PUSH2 0x21BD DUP5 PUSH2 0x170E JUMP JUMPDEST PUSH2 0x21A4 JUMP JUMPDEST PUSH2 0x170E JUMP JUMPDEST SWAP1 POP SWAP2 SWAP1 POP JUMP JUMPDEST PUSH0 DUP2 SWAP1 POP SWAP2 SWAP1 POP JUMP JUMPDEST PUSH2 0x21E0 DUP4 PUSH2 0x21AD JUMP JUMPDEST PUSH2 0x21F4 PUSH2 0x21EC DUP3 PUSH2 0x21CE JUMP JUMPDEST DUP5 DUP5 SLOAD PUSH2 0x2153 JUMP JUMPDEST DUP3 SSTORE POP POP POP POP JUMP JUMPDEST PUSH0 SWAP1 JUMP JUMPDEST PUSH2 0x2208 PUSH2 0x21FC JUMP JUMPDEST PUSH2 0x2213 DUP2 DUP5 DUP5 PUSH2 0x21D7 JUMP JUMPDEST POP POP POP JUMP JUMPDEST JUMPDEST DUP2 DUP2 LT ISZERO PUSH2 0x2236 JUMPI PUSH2 0x222B PUSH0 DUP3 PUSH2 0x2200 JUMP JUMPDEST PUSH1 0x1 DUP2 ADD SWAP1 POP PUSH2 0x2219 JUMP JUMPDEST POP POP JUMP JUMPDEST PUSH1 0x1F DUP3 GT ISZERO PUSH2 0x227B JUMPI PUSH2 0x224C DUP2 PUSH2 0x2126 JUMP JUMPDEST PUSH2 0x2255 DUP5 PUSH2 0x2138 JUMP JUMPDEST DUP2 ADD PUSH1 0x20 DUP6 LT ISZERO PUSH2 0x2264 JUMPI DUP2 SWAP1 POP JUMPDEST PUSH2 0x2278 PUSH2 0x2270 DUP6 PUSH2 0x2138 JUMP JUMPDEST DUP4 ADD DUP3 PUSH2 0x2218 JUMP JUMPDEST POP POP JUMPDEST POP POP POP JUMP JUMPDEST PUSH0 DUP3 DUP3 SHR SWAP1 POP SWAP3 SWAP2 POP POP JUMP JUMPDEST PUSH0 PUSH2 0x229B PUSH0 NOT DUP5 PUSH1 0x8 MUL PUSH2 0x2280 JUMP JUMPDEST NOT DUP1 DUP4 AND SWAP2 POP POP SWAP3 SWAP2 POP POP JUMP JUMPDEST PUSH0 PUSH2 0x22B3 DUP4 DUP4 PUSH2 0x228C JUMP JUMPDEST SWAP2 POP DUP3 PUSH1 0x2 MUL DUP3 OR SWAP1 POP SWAP3 SWAP2 POP POP JUMP JUMPDEST PUSH2 0x22CC DUP3 PUSH2 0x1C2E JUMP JUMPDEST PUSH8 0xFFFFFFFFFFFFFFFF DUP2 GT ISZERO PUSH2 0x22E5 JUMPI PUSH2 0x22E4 PUSH2 0x19C6 JUMP JUMPDEST JUMPDEST PUSH2 0x22EF DUP3 SLOAD PUSH2 0x20F6 JUMP JUMPDEST PUSH2 0x22FA DUP3 DUP3 DUP6 PUSH2 0x223A JUMP JUMPDEST PUSH0 PUSH1 0x20 SWAP1 POP PUSH1 0x1F DUP4 GT PUSH1 0x1 DUP2 EQ PUSH2 0x232B JUMPI PUSH0 DUP5 ISZERO PUSH2 0x2319 JUMPI DUP3 DUP8 ADD MLOAD SWAP1 POP JUMPDEST PUSH2 0x2323 DUP6 DUP3 PUSH2 0x22A8 JUMP JUMPDEST DUP7 SSTORE POP PUSH2 0x238A JUMP JUMPDEST PUSH1 0x1F NOT DUP5 AND PUSH2 0x2339 DUP7 PUSH2 0x2126 JUMP JUMPDEST PUSH0 JUMPDEST DUP3 DUP2 LT ISZERO PUSH2 0x2360 JUMPI DUP5 DUP10 ADD MLOAD DUP3 SSTORE PUSH1 0x1 DUP3 ADD SWAP2 POP PUSH1 0x20 DUP6 ADD SWAP5 POP PUSH1 0x20 DUP2 ADD SWAP1 POP PUSH2 0x233B JUMP JUMPDEST DUP7 DUP4 LT ISZERO PUSH2 0x237D JUMPI DUP5 DUP10 ADD MLOAD PUSH2 0x2379 PUSH1 0x1F DUP10 AND DUP3 PUSH2 0x228C JUMP JUMPDEST DUP4 SSTORE POP JUMPDEST PUSH1 0x1 PUSH1 0x2 DUP9 MUL ADD DUP9 SSTORE POP POP POP JUMPDEST POP POP POP POP POP POP JUMP JUMPDEST PUSH2 0x239B DUP2 PUSH2 0x1E45 JUMP JUMPDEST DUP3 MSTORE POP POP JUMP JUMPDEST PUSH0 PUSH2 0x23AB DUP3 PUSH2 0x1C2E JUMP JUMPDEST PUSH2 0x23B5 DUP2 DUP6 PUSH2 0x1FE9 JUMP JUMPDEST SWAP4 POP PUSH2 0x23C5 DUP2 DUP6 PUSH1 0x20 DUP7 ADD PUSH2 0x1C48 JUMP JUMPDEST PUSH2 0x23CE DUP2 PUSH2 0x19B6 JUMP JUMPDEST DUP5 ADD SWAP2 POP POP SWAP3 SWAP2 POP POP JUMP JUMPDEST PUSH0 PUSH1 0x60 DUP3 ADD SWAP1 POP PUSH2 0x23EC PUSH0 DUP4 ADD DUP7 PUSH2 0x2392 JUMP JUMPDEST DUP2 DUP2 SUB PUSH1 0x20 DUP4 ADD MSTORE PUSH2 0x23FE DUP2 DUP6 PUSH2 0x23A1 JUMP JUMPDEST SWAP1 POP DUP2 DUP2 SUB PUSH1 0x40 DUP4 ADD MSTORE PUSH2 0x2412 DUP2 DUP5 PUSH2 0x23A1 JUMP JUMPDEST SWAP1 POP SWAP5 SWAP4 POP POP POP POP JUMP JUMPDEST PUSH32 0x436861696E20616C726561647920737570706F72746564000000000000000000 PUSH0 DUP3 ADD MSTORE POP JUMP JUMPDEST PUSH0 PUSH2 0x2450 PUSH1 0x17 DUP4 PUSH2 0x1FE9 JUMP JUMPDEST SWAP2 POP PUSH2 0x245B DUP3 PUSH2 0x241C JUMP JUMPDEST PUSH1 0x20 DUP3 ADD SWAP1 POP SWAP2 SWAP1 POP JUMP JUMPDEST PUSH0 PUSH1 0x20 DUP3 ADD SWAP1 POP DUP2 DUP2 SUB PUSH0 DUP4 ADD MSTORE PUSH2 0x247D DUP2 PUSH2 0x2444 JUMP JUMPDEST SWAP1 POP SWAP2 SWAP1 POP JUMP JUMPDEST PUSH0 PUSH1 0x20 DUP3 ADD SWAP1 POP DUP2 DUP2 SUB PUSH0 DUP4 ADD MSTORE PUSH2 0x249C DUP2 DUP5 PUSH2 0x23A1 JUMP JUMPDEST SWAP1 POP SWAP3 SWAP2 POP POP JUMP JUMPDEST PUSH32 0x4173736574206E6F742072656769737465726564000000000000000000000000 PUSH0 DUP3 ADD MSTORE POP JUMP JUMPDEST PUSH0 PUSH2 0x24D8 PUSH1 0x14 DUP4 PUSH2 0x1FE9 JUMP JUMPDEST SWAP2 POP PUSH2 0x24E3 DUP3 PUSH2 0x24A4 JUMP JUMPDEST PUSH1 0x20 DUP3 ADD SWAP1 POP SWAP2 SWAP1 POP JUMP JUMPDEST PUSH0 PUSH1 0x20 DUP3 ADD SWAP1 POP DUP2 DUP2 SUB PUSH0 DUP4 ADD MSTORE PUSH2 0x2505 DUP2 PUSH2 0x24CC JUMP JUMPDEST SWAP1 POP SWAP2 SWAP1 POP JUMP JUMPDEST PUSH2 0x2515 DUP2 PUSH2 0x17B4 JUMP JUMPDEST DUP3 MSTORE POP POP JUMP JUMPDEST PUSH0 PUSH1 0x20 DUP3 ADD SWAP1 POP PUSH2 0x252E PUSH0 DUP4 ADD DUP5 PUSH2 0x250C JUMP JUMPDEST SWAP3 SWAP2 POP POP JUMP JUMPDEST PUSH0 PUSH1 0x40 DUP3 ADD SWAP1 POP PUSH2 0x2547 PUSH0 DUP4 ADD DUP6 PUSH2 0x250C JUMP JUMPDEST PUSH2 0x2554 PUSH1 0x20 DUP4 ADD DUP5 PUSH2 0x1939 JUMP JUMPDEST SWAP4 SWAP3 POP POP POP JUMP INVALID LOG2 PUSH5 0x6970667358 0x22 SLT KECCAK256 NUMBER SUB COINBASE 0xE8 0xC3 0xE0 0xB5 0x1F DUP14 MUL SAR PUSH18 0x7EEC72014E1697C3EDC4B8F609498F60E372 EXTCODESIZE PUSH27 0x64736F6C634300081A003300000000000000000000000000000000 "
				},
				"gasEstimates": {
					"creation": {
						"codeDepositCost": "1923400",
						"executionCost": "infinite",
						"totalCost": "infinite"
					},
					"external": {
						"DEFAULT_ADMIN_ROLE()": "419",
						"REGISTRAR_ROLE()": "413",
						"addChain(uint256,string)": "infinite",
						"getAsset(uint256,address)": "infinite",
						"getChainAssets(uint256)": "infinite",
						"getChainInfo(uint256)": "infinite",
						"getRoleAdmin(bytes32)": "infinite",
						"getSupportedChainIds()": "infinite",
						"grantRole(bytes32,address)": "infinite",
						"hasRole(bytes32,address)": "3189",
						"pause()": "infinite",
						"paused()": "2584",
						"registerAsset(uint256,address,uint8,string,string,uint8)": "infinite",
						"renounceRole(bytes32,address)": "infinite",
						"revokeRole(bytes32,address)": "infinite",
						"supportsInterface(bytes4)": "741",
						"unpause()": "infinite",
						"updateAssetStatus(uint256,address,bool)": "infinite",
						"updateChainStatus(uint256,bool)": "infinite"
					}
				},
				"methodIdentifiers": {
					"DEFAULT_ADMIN_ROLE()": "a217fddf",
					"REGISTRAR_ROLE()": "f68e9553",
					"addChain(uint256,string)": "af83d4d8",
					"getAsset(uint256,address)": "f103167a",
					"getChainAssets(uint256)": "024237eb",
					"getChainInfo(uint256)": "804ea334",
					"getRoleAdmin(bytes32)": "248a9ca3",
					"getSupportedChainIds()": "f7a452cb",
					"grantRole(bytes32,address)": "2f2ff15d",
					"hasRole(bytes32,address)": "91d14854",
					"pause()": "8456cb59",
					"paused()": "5c975abb",
					"registerAsset(uint256,address,uint8,string,string,uint8)": "2c321fb6",
					"renounceRole(bytes32,address)": "36568abe",
					"revokeRole(bytes32,address)": "d547741f",
					"supportsInterface(bytes4)": "01ffc9a7",
					"unpause()": "3f4ba83a",
					"updateAssetStatus(uint256,address,bool)": "d088194b",
					"updateChainStatus(uint256,bool)": "0f3f6b5b"
				}
			},
			"storageLayout": {
				"storage": [
					{
						"astId": 26,
						"contract": "contracts/assets/AssetRegistry.sol:AssetRegistry",
						"label": "_roles",
						"offset": 0,
						"slot": "0",
						"type": "t_mapping(t_bytes32,t_struct(RoleData)21_storage)"
					},
					{
						"astId": 735,
						"contract": "contracts/assets/AssetRegistry.sol:AssetRegistry",
						"label": "_paused",
						"offset": 0,
						"slot": "1",
						"type": "t_bool"
					},
					{
						"astId": 1551,
						"contract": "contracts/assets/AssetRegistry.sol:AssetRegistry",
						"label": "_assets",
						"offset": 0,
						"slot": "2",
						"type": "t_mapping(t_uint256,t_mapping(t_address,t_struct(Asset)1537_storage))"
					},
					{
						"astId": 1556,
						"contract": "contracts/assets/AssetRegistry.sol:AssetRegistry",
						"label": "_chains",
						"offset": 0,
						"slot": "3",
						"type": "t_mapping(t_uint256,t_struct(ChainInfo)1544_storage)"
					},
					{
						"astId": 1559,
						"contract": "contracts/assets/AssetRegistry.sol:AssetRegistry",
						"label": "_supportedChainIds",
						"offset": 0,
						"slot": "4",
						"type": "t_struct(UintSet)1362_storage"
					},
					{
						"astId": 1564,
						"contract": "contracts/assets/AssetRegistry.sol:AssetRegistry",
						"label": "_chainAssets",
						"offset": 0,
						"slot": "6",
						"type": "t_mapping(t_uint256,t_struct(AddressSet)1205_storage)"
					}
				],
				"types": {
					"t_address": {
						"encoding": "inplace",
						"label": "address",
						"numberOfBytes": "20"
					},
					"t_array(t_bytes32)dyn_storage": {
						"base": "t_bytes32",
						"encoding": "dynamic_array",
						"label": "bytes32[]",
						"numberOfBytes": "32"
					},
					"t_bool": {
						"encoding": "inplace",
						"label": "bool",
						"numberOfBytes": "1"
					},
					"t_bytes32": {
						"encoding": "inplace",
						"label": "bytes32",
						"numberOfBytes": "32"
					},
					"t_enum(AssetType)1523": {
						"encoding": "inplace",
						"label": "enum AssetRegistry.AssetType",
						"numberOfBytes": "1"
					},
					"t_mapping(t_address,t_bool)": {
						"encoding": "mapping",
						"key": "t_address",
						"label": "mapping(address => bool)",
						"numberOfBytes": "32",
						"value": "t_bool"
					},
					"t_mapping(t_address,t_struct(Asset)1537_storage)": {
						"encoding": "mapping",
						"key": "t_address",
						"label": "mapping(address => struct AssetRegistry.Asset)",
						"numberOfBytes": "32",
						"value": "t_struct(Asset)1537_storage"
					},
					"t_mapping(t_bytes32,t_struct(RoleData)21_storage)": {
						"encoding": "mapping",
						"key": "t_bytes32",
						"label": "mapping(bytes32 => struct AccessControl.RoleData)",
						"numberOfBytes": "32",
						"value": "t_struct(RoleData)21_storage"
					},
					"t_mapping(t_bytes32,t_uint256)": {
						"encoding": "mapping",
						"key": "t_bytes32",
						"label": "mapping(bytes32 => uint256)",
						"numberOfBytes": "32",
						"value": "t_uint256"
					},
					"t_mapping(t_uint256,t_mapping(t_address,t_struct(Asset)1537_storage))": {
						"encoding": "mapping",
						"key": "t_uint256",
						"label": "mapping(uint256 => mapping(address => struct AssetRegistry.Asset))",
						"numberOfBytes": "32",
						"value": "t_mapping(t_address,t_struct(Asset)1537_storage)"
					},
					"t_mapping(t_uint256,t_struct(AddressSet)1205_storage)": {
						"encoding": "mapping",
						"key": "t_uint256",
						"label": "mapping(uint256 => struct EnumerableSet.AddressSet)",
						"numberOfBytes": "32",
						"value": "t_struct(AddressSet)1205_storage"
					},
					"t_mapping(t_uint256,t_struct(ChainInfo)1544_storage)": {
						"encoding": "mapping",
						"key": "t_uint256",
						"label": "mapping(uint256 => struct AssetRegistry.ChainInfo)",
						"numberOfBytes": "32",
						"value": "t_struct(ChainInfo)1544_storage"
					},
					"t_string_storage": {
						"encoding": "bytes",
						"label": "string",
						"numberOfBytes": "32"
					},
					"t_struct(AddressSet)1205_storage": {
						"encoding": "inplace",
						"label": "struct EnumerableSet.AddressSet",
						"members": [
							{
								"astId": 1204,
								"contract": "contracts/assets/AssetRegistry.sol:AssetRegistry",
								"label": "_inner",
								"offset": 0,
								"slot": "0",
								"type": "t_struct(Set)890_storage"
							}
						],
						"numberOfBytes": "64"
					},
					"t_struct(Asset)1537_storage": {
						"encoding": "inplace",
						"label": "struct AssetRegistry.Asset",
						"members": [
							{
								"astId": 1525,
								"contract": "contracts/assets/AssetRegistry.sol:AssetRegistry",
								"label": "contractAddress",
								"offset": 0,
								"slot": "0",
								"type": "t_address"
							},
							{
								"astId": 1528,
								"contract": "contracts/assets/AssetRegistry.sol:AssetRegistry",
								"label": "assetType",
								"offset": 20,
								"slot": "0",
								"type": "t_enum(AssetType)1523"
							},
							{
								"astId": 1530,
								"contract": "contracts/assets/AssetRegistry.sol:AssetRegistry",
								"label": "name",
								"offset": 0,
								"slot": "1",
								"type": "t_string_storage"
							},
							{
								"astId": 1532,
								"contract": "contracts/assets/AssetRegistry.sol:AssetRegistry",
								"label": "symbol",
								"offset": 0,
								"slot": "2",
								"type": "t_string_storage"
							},
							{
								"astId": 1534,
								"contract": "contracts/assets/AssetRegistry.sol:AssetRegistry",
								"label": "decimals",
								"offset": 0,
								"slot": "3",
								"type": "t_uint8"
							},
							{
								"astId": 1536,
								"contract": "contracts/assets/AssetRegistry.sol:AssetRegistry",
								"label": "isActive",
								"offset": 1,
								"slot": "3",
								"type": "t_bool"
							}
						],
						"numberOfBytes": "128"
					},
					"t_struct(ChainInfo)1544_storage": {
						"encoding": "inplace",
						"label": "struct AssetRegistry.ChainInfo",
						"members": [
							{
								"astId": 1539,
								"contract": "contracts/assets/AssetRegistry.sol:AssetRegistry",
								"label": "chainId",
								"offset": 0,
								"slot": "0",
								"type": "t_uint256"
							},
							{
								"astId": 1541,
								"contract": "contracts/assets/AssetRegistry.sol:AssetRegistry",
								"label": "name",
								"offset": 0,
								"slot": "1",
								"type": "t_string_storage"
							},
							{
								"astId": 1543,
								"contract": "contracts/assets/AssetRegistry.sol:AssetRegistry",
								"label": "isActive",
								"offset": 0,
								"slot": "2",
								"type": "t_bool"
							}
						],
						"numberOfBytes": "96"
					},
					"t_struct(RoleData)21_storage": {
						"encoding": "inplace",
						"label": "struct AccessControl.RoleData",
						"members": [
							{
								"astId": 18,
								"contract": "contracts/assets/AssetRegistry.sol:AssetRegistry",
								"label": "hasRole",
								"offset": 0,
								"slot": "0",
								"type": "t_mapping(t_address,t_bool)"
							},
							{
								"astId": 20,
								"contract": "contracts/assets/AssetRegistry.sol:AssetRegistry",
								"label": "adminRole",
								"offset": 0,
								"slot": "1",
								"type": "t_bytes32"
							}
						],
						"numberOfBytes": "64"
					},
					"t_struct(Set)890_storage": {
						"encoding": "inplace",
						"label": "struct EnumerableSet.Set",
						"members": [
							{
								"astId": 885,
								"contract": "contracts/assets/AssetRegistry.sol:AssetRegistry",
								"label": "_values",
								"offset": 0,
								"slot": "0",
								"type": "t_array(t_bytes32)dyn_storage"
							},
							{
								"astId": 889,
								"contract": "contracts/assets/AssetRegistry.sol:AssetRegistry",
								"label": "_positions",
								"offset": 0,
								"slot": "1",
								"type": "t_mapping(t_bytes32,t_uint256)"
							}
						],
						"numberOfBytes": "64"
					},
					"t_struct(UintSet)1362_storage": {
						"encoding": "inplace",
						"label": "struct EnumerableSet.UintSet",
						"members": [
							{
								"astId": 1361,
								"contract": "contracts/assets/AssetRegistry.sol:AssetRegistry",
								"label": "_inner",
								"offset": 0,
								"slot": "0",
								"type": "t_struct(Set)890_storage"
							}
						],
						"numberOfBytes": "64"
					},
					"t_uint256": {
						"encoding": "inplace",
						"label": "uint256",
						"numberOfBytes": "32"
					},
					"t_uint8": {
						"encoding": "inplace",
						"label": "uint8",
						"numberOfBytes": "1"
					}
				}
			},
			"userdoc": {
				"kind": "user",
				"methods": {},
				"version": 1
			}
		}
	}
}