{
	"data": {
		"bytecode": {
			"linkReferences": {},
			"object": "608060405234801561000f575f80fd5b506100225f801b3361005960201b60201c565b506100537f59a1c48e5837ad7a7f3dcedcbe129bf3249ec4fbf651fd4f5e2600ead39fe2f53361005960201b60201c565b506101b8565b5f61006a838361014e60201b60201c565b6101445760015f808581526020019081526020015f205f015f8473ffffffffffffffffffffffffffffffffffffffff1673ffffffffffffffffffffffffffffffffffffffff1681526020019081526020015f205f6101000a81548160ff0219169083151502179055506100e16101b160201b60201c565b73ffffffffffffffffffffffffffffffffffffffff168273ffffffffffffffffffffffffffffffffffffffff16847f2f8788117e7eff1d82e926ec794901d17c78024a50270940304540a733656f0d60405160405180910390a460019050610148565b5f90505b92915050565b5f805f8481526020019081526020015f205f015f8373ffffffffffffffffffffffffffffffffffffffff1673ffffffffffffffffffffffffffffffffffffffff1681526020019081526020015f205f9054906101000a900460ff16905092915050565b5f33905090565b6114e3806101c55f395ff3fe608060405234801561000f575f80fd5b50600436106100cd575f3560e01c806350c17b101161008a578063a217fddf11610064578063a217fddf14610223578063a5ce262a14610241578063abaa536f1461025d578063d547741f1461028d576100cd565b806350c17b10146101b95780636e1d616e146101d557806391d14854146101f3576100cd565b806301ffc9a7146100d1578063248a9ca3146101015780632f2ff15d1461013157806333ea3dc81461014d57806336568abe146101815780633e2515181461019d575b5f80fd5b6100eb60048036038101906100e69190610bec565b6102a9565b6040516100f89190610c31565b60405180910390f35b61011b60048036038101906101169190610c7d565b610322565b6040516101289190610cb7565b60405180910390f35b61014b60048036038101906101469190610d2a565b61033e565b005b61016760048036038101906101629190610d9b565b610360565b604051610178959493929190610e54565b60405180910390f35b61019b60048036038101906101969190610d2a565b610542565b005b6101b760048036038101906101b29190610eac565b6105bd565b005b6101d360048036038101906101ce9190610eac565b6105f7565b005b6101dd610631565b6040516101ea9190610cb7565b60405180910390f35b61020d60048036038101906102089190610d2a565b610655565b60405161021a9190610c31565b60405180910390f35b61022b6106b8565b6040516102389190610cb7565b60405180910390f35b61025b60048036038101906102569190611003565b6106be565b005b61027760048036038101906102729190610eac565b61088b565b6040516102849190610c31565b60405180910390f35b6102a760048036038101906102a29190610d2a565b6108bd565b005b5f7f7965db0b000000000000000000000000000000000000000000000000000000007bffffffffffffffffffffffffffffffffffffffffffffffffffffffff1916827bffffffffffffffffffffffffffffffffffffffffffffffffffffffff1916148061031b575061031a826108df565b5b9050919050565b5f805f8381526020019081526020015f20600101549050919050565b61034782610322565b61035081610948565b61035a838361095c565b50505050565b5f805f80606060025486106103aa576040517f08c379a00000000000000000000000000000000000000000000000000000000081526004016103a1906110ef565b60405180910390fd5b5f60015f8881526020019081526020015f206040518060a00160405290815f82015f9054906101000a900473ffffffffffffffffffffffffffffffffffffffff1673ffffffffffffffffffffffffffffffffffffffff1673ffffffffffffffffffffffffffffffffffffffff168152602001600182015f9054906101000a900473ffffffffffffffffffffffffffffffffffffffff1673ffffffffffffffffffffffffffffffffffffffff1673ffffffffffffffffffffffffffffffffffffffff16815260200160028201548152602001600382015481526020016004820180546104949061113a565b80601f01602080910402602001604051908101604052809291908181526020018280546104c09061113a565b801561050b5780601f106104e25761010080835404028352916020019161050b565b820191905f5260205f20905b8154815290600101906020018083116104ee57829003601f168201915b5050505050815250509050805f01518160200151826040015183606001518460800151955095509550955095505091939590929450565b61054a610a45565b73ffffffffffffffffffffffffffffffffffffffff168173ffffffffffffffffffffffffffffffffffffffff16146105ae576040517f6697b23200000000000000000000000000000000000000000000000000000000815260040160405180910390fd5b6105b88282610a4c565b505050565b5f801b6105c981610948565b6105f37f59a1c48e5837ad7a7f3dcedcbe129bf3249ec4fbf651fd4f5e2600ead39fe2f5836108bd565b5050565b5f801b61060381610948565b61062d7f59a1c48e5837ad7a7f3dcedcbe129bf3249ec4fbf651fd4f5e2600ead39fe2f58361033e565b5050565b7f59a1c48e5837ad7a7f3dcedcbe129bf3249ec4fbf651fd4f5e2600ead39fe2f581565b5f805f8481526020019081526020015f205f015f8373ffffffffffffffffffffffffffffffffffffffff1673ffffffffffffffffffffffffffffffffffffffff1681526020019081526020015f205f9054906101000a900460ff16905092915050565b5f801b81565b7f59a1c48e5837ad7a7f3dcedcbe129bf3249ec4fbf651fd4f5e2600ead39fe2f56106e881610948565b6040518060a001604052803373ffffffffffffffffffffffffffffffffffffffff1681526020018573ffffffffffffffffffffffffffffffffffffffff1681526020018481526020014281526020018381525060015f60025481526020019081526020015f205f820151815f015f6101000a81548173ffffffffffffffffffffffffffffffffffffffff021916908373ffffffffffffffffffffffffffffffffffffffff1602179055506020820151816001015f6101000a81548173ffffffffffffffffffffffffffffffffffffffff021916908373ffffffffffffffffffffffffffffffffffffffff160217905550604082015181600201556060820151816003015560808201518160040190816108019190611307565b509050508373ffffffffffffffffffffffffffffffffffffffff163373ffffffffffffffffffffffffffffffffffffffff167f7a3993c6b9e7ffde005a46806d748d5ebf15e7ba5a715db53bb6c9073f3cf9cd854286604051610866939291906113d6565b60405180910390a360025f8154809291906108809061143f565b919050555050505050565b5f6108b67f59a1c48e5837ad7a7f3dcedcbe129bf3249ec4fbf651fd4f5e2600ead39fe2f583610655565b9050919050565b6108c682610322565b6108cf81610948565b6108d98383610a4c565b50505050565b5f7f01ffc9a7000000000000000000000000000000000000000000000000000000007bffffffffffffffffffffffffffffffffffffffffffffffffffffffff1916827bffffffffffffffffffffffffffffffffffffffffffffffffffffffff1916149050919050565b61095981610954610a45565b610b35565b50565b5f6109678383610655565b610a3b5760015f808581526020019081526020015f205f015f8473ffffffffffffffffffffffffffffffffffffffff1673ffffffffffffffffffffffffffffffffffffffff1681526020019081526020015f205f6101000a81548160ff0219169083151502179055506109d8610a45565b73ffffffffffffffffffffffffffffffffffffffff168273ffffffffffffffffffffffffffffffffffffffff16847f2f8788117e7eff1d82e926ec794901d17c78024a50270940304540a733656f0d60405160405180910390a460019050610a3f565b5f90505b92915050565b5f33905090565b5f610a578383610655565b15610b2b575f805f8581526020019081526020015f205f015f8473ffffffffffffffffffffffffffffffffffffffff1673ffffffffffffffffffffffffffffffffffffffff1681526020019081526020015f205f6101000a81548160ff021916908315150217905550610ac8610a45565b73ffffffffffffffffffffffffffffffffffffffff168273ffffffffffffffffffffffffffffffffffffffff16847ff6391f5c32d9c69d2a47ea670b442974b53935d1edc7fd64eb21e047a839171b60405160405180910390a460019050610b2f565b5f90505b92915050565b610b3f8282610655565b610b825780826040517fe2517d3f000000000000000000000000000000000000000000000000000000008152600401610b79929190611486565b60405180910390fd5b5050565b5f604051905090565b5f80fd5b5f80fd5b5f7fffffffff0000000000000000000000000000000000000000000000000000000082169050919050565b610bcb81610b97565b8114610bd5575f80fd5b50565b5f81359050610be681610bc2565b92915050565b5f60208284031215610c0157610c00610b8f565b5b5f610c0e84828501610bd8565b91505092915050565b5f8115159050919050565b610c2b81610c17565b82525050565b5f602082019050610c445f830184610c22565b92915050565b5f819050919050565b610c5c81610c4a565b8114610c66575f80fd5b50565b5f81359050610c7781610c53565b92915050565b5f60208284031215610c9257610c91610b8f565b5b5f610c9f84828501610c69565b91505092915050565b610cb181610c4a565b82525050565b5f602082019050610cca5f830184610ca8565b92915050565b5f73ffffffffffffffffffffffffffffffffffffffff82169050919050565b5f610cf982610cd0565b9050919050565b610d0981610cef565b8114610d13575f80fd5b50565b5f81359050610d2481610d00565b92915050565b5f8060408385031215610d4057610d3f610b8f565b5b5f610d4d85828601610c69565b9250506020610d5e85828601610d16565b9150509250929050565b5f819050919050565b610d7a81610d68565b8114610d84575f80fd5b50565b5f81359050610d9581610d71565b92915050565b5f60208284031215610db057610daf610b8f565b5b5f610dbd84828501610d87565b91505092915050565b610dcf81610cef565b82525050565b610dde81610d68565b82525050565b5f81519050919050565b5f82825260208201905092915050565b8281835e5f83830152505050565b5f601f19601f8301169050919050565b5f610e2682610de4565b610e308185610dee565b9350610e40818560208601610dfe565b610e4981610e0c565b840191505092915050565b5f60a082019050610e675f830188610dc6565b610e746020830187610dc6565b610e816040830186610dd5565b610e8e6060830185610dd5565b8181036080830152610ea08184610e1c565b90509695505050505050565b5f60208284031215610ec157610ec0610b8f565b5b5f610ece84828501610d16565b91505092915050565b5f80fd5b5f80fd5b7f4e487b71000000000000000000000000000000000000000000000000000000005f52604160045260245ffd5b610f1582610e0c565b810181811067ffffffffffffffff82111715610f3457610f33610edf565b5b80604052505050565b5f610f46610b86565b9050610f528282610f0c565b919050565b5f67ffffffffffffffff821115610f7157610f70610edf565b5b610f7a82610e0c565b9050602081019050919050565b828183375f83830152505050565b5f610fa7610fa284610f57565b610f3d565b905082815260208101848484011115610fc357610fc2610edb565b5b610fce848285610f87565b509392505050565b5f82601f830112610fea57610fe9610ed7565b5b8135610ffa848260208601610f95565b91505092915050565b5f805f6060848603121561101a57611019610b8f565b5b5f61102786828701610d16565b935050602061103886828701610d87565b925050604084013567ffffffffffffffff81111561105957611058610b93565b5b61106586828701610fd6565b9150509250925092565b5f82825260208201905092915050565b7f5472616e73616374696f6e4c6f676765723a20496e646578206f7574206f66205f8201527f626f756e64730000000000000000000000000000000000000000000000000000602082015250565b5f6110d960268361106f565b91506110e48261107f565b604082019050919050565b5f6020820190508181035f830152611106816110cd565b9050919050565b7f4e487b71000000000000000000000000000000000000000000000000000000005f52602260045260245ffd5b5f600282049050600182168061115157607f821691505b6020821081036111645761116361110d565b5b50919050565b5f819050815f5260205f209050919050565b5f6020601f8301049050919050565b5f82821b905092915050565b5f600883026111c67fffffffffffffffffffffffffffffffffffffffffffffffffffffffffffffffff8261118b565b6111d0868361118b565b95508019841693508086168417925050509392505050565b5f819050919050565b5f61120b61120661120184610d68565b6111e8565b610d68565b9050919050565b5f819050919050565b611224836111f1565b61123861123082611212565b848454611197565b825550505050565b5f90565b61124c611240565b61125781848461121b565b505050565b5b8181101561127a5761126f5f82611244565b60018101905061125d565b5050565b601f8211156112bf576112908161116a565b6112998461117c565b810160208510156112a8578190505b6112bc6112b48561117c565b83018261125c565b50505b505050565b5f82821c905092915050565b5f6112df5f19846008026112c4565b1980831691505092915050565b5f6112f783836112d0565b9150826002028217905092915050565b61131082610de4565b67ffffffffffffffff81111561132957611328610edf565b5b611333825461113a565b61133e82828561127e565b5f60209050601f83116001811461136f575f841561135d578287015190505b61136785826112ec565b8655506113ce565b601f19841661137d8661116a565b5f5b828110156113a45784890151825560018201915060208501945060208101905061137f565b868310156113c157848901516113bd601f8916826112d0565b8355505b6001600288020188555050505b505050505050565b5f6060820190506113e95f830186610dd5565b6113f66020830185610dd5565b81810360408301526114088184610e1c565b9050949350505050565b7f4e487b71000000000000000000000000000000000000000000000000000000005f52601160045260245ffd5b5f61144982610d68565b91507fffffffffffffffffffffffffffffffffffffffffffffffffffffffffffffffff820361147b5761147a611412565b5b600182019050919050565b5f6040820190506114995f830185610dc6565b6114a66020830184610ca8565b939250505056fea2646970667358221220d995bdba6ed672f6e577e643824732a23436ed2b2b40cce9468e473156d2d27264736f6c634300081a0033",
			"opcodes": "PUSH1 0x80 PUSH1 0x40 MSTORE CALLVALUE DUP1 ISZERO PUSH2 0xF JUMPI PUSH0 DUP1 REVERT JUMPDEST POP PUSH2 0x22 PUSH0 DUP1 SHL CALLER PUSH2 0x59 PUSH1 0x20 SHL PUSH1 0x20 SHR JUMP JUMPDEST POP PUSH2 0x53 PUSH32 0x59A1C48E5837AD7A7F3DCEDCBE129BF3249EC4FBF651FD4F5E2600EAD39FE2F5 CALLER PUSH2 0x59 PUSH1 0x20 SHL PUSH1 0x20 SHR JUMP JUMPDEST POP PUSH2 0x1B8 JUMP JUMPDEST PUSH0 PUSH2 0x6A DUP4 DUP4 PUSH2 0x14E PUSH1 0x20 SHL PUSH1 0x20 SHR JUMP JUMPDEST PUSH2 0x144 JUMPI PUSH1 0x1 PUSH0 DUP1 DUP6 DUP2 MSTORE PUSH1 0x20 ADD SWAP1 DUP2 MSTORE PUSH1 0x20 ADD PUSH0 KECCAK256 PUSH0 ADD PUSH0 DUP5 PUSH20 0xFFFFFFFFFFFFFFFFFFFFFFFFFFFFFFFFFFFFFFFF AND PUSH20 0xFFFFFFFFFFFFFFFFFFFFFFFFFFFFFFFFFFFFFFFF AND DUP2 MSTORE PUSH1 0x20 ADD SWAP1 DUP2 MSTORE PUSH1 0x20 ADD PUSH0 KECCAK256 PUSH0 PUSH2 0x100 EXP DUP2 SLOAD DUP2 PUSH1 0xFF MUL NOT AND SWAP1 DUP4 ISZERO ISZERO MUL OR SWAP1 SSTORE POP PUSH2 0xE1 PUSH2 0x1B1 PUSH1 0x20 SHL PUSH1 0x20 SHR JUMP JUMPDEST PUSH20 0xFFFFFFFFFFFFFFFFFFFFFFFFFFFFFFFFFFFFFFFF AND DUP3 PUSH20 0xFFFFFFFFFFFFFFFFFFFFFFFFFFFFFFFFFFFFFFFF AND DUP5 PUSH32 0x2F8788117E7EFF1D82E926EC794901D17C78024A50270940304540A733656F0D PUSH1 0x40 MLOAD PUSH1 0x40 MLOAD DUP1 SWAP2 SUB SWAP1 LOG4 PUSH1 0x1 SWAP1 POP PUSH2 0x148 JUMP JUMPDEST PUSH0 SWAP1 POP JUMPDEST SWAP3 SWAP2 POP POP JUMP JUMPDEST PUSH0 DUP1 PUSH0 DUP5 DUP2 MSTORE PUSH1 0x20 ADD SWAP1 DUP2 MSTORE PUSH1 0x20 ADD PUSH0 KECCAK256 PUSH0 ADD PUSH0 DUP4 PUSH20 0xFFFFFFFFFFFFFFFFFFFFFFFFFFFFFFFFFFFFFFFF AND PUSH20 0xFFFFFFFFFFFFFFFFFFFFFFFFFFFFFFFFFFFFFFFF AND DUP2 MSTORE PUSH1 0x20 ADD SWAP1 DUP2 MSTORE PUSH1 0x20 ADD PUSH0 KECCAK256 PUSH0 SWAP1 SLOAD SWAP1 PUSH2 0x100 EXP SWAP1 DIV PUSH1 0xFF AND SWAP1 POP SWAP3 SWAP2 POP POP JUMP JUMPDEST PUSH0 CALLER SWAP1 POP SWAP1 JUMP JUMPDEST PUSH2 0x14E3 DUP1 PUSH2 0x1C5 PUSH0 CODECOPY PUSH0 RETURN INVALID PUSH1 0x80 PUSH1 0x40 MSTORE CALLVALUE DUP1 ISZERO PUSH2 0xF JUMPI PUSH0 DUP1 REVERT JUMPDEST POP PUSH1 0x4 CALLDATASIZE LT PUSH2 0xCD JUMPI PUSH0 CALLDATALOAD PUSH1 0xE0 SHR DUP1 PUSH4 0x50C17B10 GT PUSH2 0x8A JUMPI DUP1 PUSH4 0xA217FDDF GT PUSH2 0x64 JUMPI DUP1 PUSH4 0xA217FDDF EQ PUSH2 0x223 JUMPI DUP1 PUSH4 0xA5CE262A EQ PUSH2 0x241 JUMPI DUP1 PUSH4 0xABAA536F EQ PUSH2 0x25D JUMPI DUP1 PUSH4 0xD547741F EQ PUSH2 0x28D JUMPI PUSH2 0xCD JUMP JUMPDEST DUP1 PUSH4 0x50C17B10 EQ PUSH2 0x1B9 JUMPI DUP1 PUSH4 0x6E1D616E EQ PUSH2 0x1D5 JUMPI DUP1 PUSH4 0x91D14854 EQ PUSH2 0x1F3 JUMPI PUSH2 0xCD JUMP JUMPDEST DUP1 PUSH4 0x1FFC9A7 EQ PUSH2 0xD1 JUMPI DUP1 PUSH4 0x248A9CA3 EQ PUSH2 0x101 JUMPI DUP1 PUSH4 0x2F2FF15D EQ PUSH2 0x131 JUMPI DUP1 PUSH4 0x33EA3DC8 EQ PUSH2 0x14D JUMPI DUP1 PUSH4 0x36568ABE EQ PUSH2 0x181 JUMPI DUP1 PUSH4 0x3E251518 EQ PUSH2 0x19D JUMPI JUMPDEST PUSH0 DUP1 REVERT JUMPDEST PUSH2 0xEB PUSH1 0x4 DUP1 CALLDATASIZE SUB DUP2 ADD SWAP1 PUSH2 0xE6 SWAP2 SWAP1 PUSH2 0xBEC JUMP JUMPDEST PUSH2 0x2A9 JUMP JUMPDEST PUSH1 0x40 MLOAD PUSH2 0xF8 SWAP2 SWAP1 PUSH2 0xC31 JUMP JUMPDEST PUSH1 0x40 MLOAD DUP1 SWAP2 SUB SWAP1 RETURN JUMPDEST PUSH2 0x11B PUSH1 0x4 DUP1 CALLDATASIZE SUB DUP2 ADD SWAP1 PUSH2 0x116 SWAP2 SWAP1 PUSH2 0xC7D JUMP JUMPDEST PUSH2 0x322 JUMP JUMPDEST PUSH1 0x40 MLOAD PUSH2 0x128 SWAP2 SWAP1 PUSH2 0xCB7 JUMP JUMPDEST PUSH1 0x40 MLOAD DUP1 SWAP2 SUB SWAP1 RETURN JUMPDEST PUSH2 0x14B PUSH1 0x4 DUP1 CALLDATASIZE SUB DUP2 ADD SWAP1 PUSH2 0x146 SWAP2 SWAP1 PUSH2 0xD2A JUMP JUMPDEST PUSH2 0x33E JUMP JUMPDEST STOP JUMPDEST PUSH2 0x167 PUSH1 0x4 DUP1 CALLDATASIZE SUB DUP2 ADD SWAP1 PUSH2 0x162 SWAP2 SWAP1 PUSH2 0xD9B JUMP JUMPDEST PUSH2 0x360 JUMP JUMPDEST PUSH1 0x40 MLOAD PUSH2 0x178 SWAP6 SWAP5 SWAP4 SWAP3 SWAP2 SWAP1 PUSH2 0xE54 JUMP JUMPDEST PUSH1 0x40 MLOAD DUP1 SWAP2 SUB SWAP1 RETURN JUMPDEST PUSH2 0x19B PUSH1 0x4 DUP1 CALLDATASIZE SUB DUP2 ADD SWAP1 PUSH2 0x196 SWAP2 SWAP1 PUSH2 0xD2A JUMP JUMPDEST PUSH2 0x542 JUMP JUMPDEST STOP JUMPDEST PUSH2 0x1B7 PUSH1 0x4 DUP1 CALLDATASIZE SUB DUP2 ADD SWAP1 PUSH2 0x1B2 SWAP2 SWAP1 PUSH2 0xEAC JUMP JUMPDEST PUSH2 0x5BD JUMP JUMPDEST STOP JUMPDEST PUSH2 0x1D3 PUSH1 0x4 DUP1 CALLDATASIZE SUB DUP2 ADD SWAP1 PUSH2 0x1CE SWAP2 SWAP1 PUSH2 0xEAC JUMP JUMPDEST PUSH2 0x5F7 JUMP JUMPDEST STOP JUMPDEST PUSH2 0x1DD PUSH2 0x631 JUMP JUMPDEST PUSH1 0x40 MLOAD PUSH2 0x1EA SWAP2 SWAP1 PUSH2 0xCB7 JUMP JUMPDEST PUSH1 0x40 MLOAD DUP1 SWAP2 SUB SWAP1 RETURN JUMPDEST PUSH2 0x20D PUSH1 0x4 DUP1 CALLDATASIZE SUB DUP2 ADD SWAP1 PUSH2 0x208 SWAP2 SWAP1 PUSH2 0xD2A JUMP JUMPDEST PUSH2 0x655 JUMP JUMPDEST PUSH1 0x40 MLOAD PUSH2 0x21A SWAP2 SWAP1 PUSH2 0xC31 JUMP JUMPDEST PUSH1 0x40 MLOAD DUP1 SWAP2 SUB SWAP1 RETURN JUMPDEST PUSH2 0x22B PUSH2 0x6B8 JUMP JUMPDEST PUSH1 0x40 MLOAD PUSH2 0x238 SWAP2 SWAP1 PUSH2 0xCB7 JUMP JUMPDEST PUSH1 0x40 MLOAD DUP1 SWAP2 SUB SWAP1 RETURN JUMPDEST PUSH2 0x25B PUSH1 0x4 DUP1 CALLDATASIZE SUB DUP2 ADD SWAP1 PUSH2 0x256 SWAP2 SWAP1 PUSH2 0x1003 JUMP JUMPDEST PUSH2 0x6BE JUMP JUMPDEST STOP JUMPDEST PUSH2 0x277 PUSH1 0x4 DUP1 CALLDATASIZE SUB DUP2 ADD SWAP1 PUSH2 0x272 SWAP2 SWAP1 PUSH2 0xEAC JUMP JUMPDEST PUSH2 0x88B JUMP JUMPDEST PUSH1 0x40 MLOAD PUSH2 0x284 SWAP2 SWAP1 PUSH2 0xC31 JUMP JUMPDEST PUSH1 0x40 MLOAD DUP1 SWAP2 SUB SWAP1 RETURN JUMPDEST PUSH2 0x2A7 PUSH1 0x4 DUP1 CALLDATASIZE SUB DUP2 ADD SWAP1 PUSH2 0x2A2 SWAP2 SWAP1 PUSH2 0xD2A JUMP JUMPDEST PUSH2 0x8BD JUMP JUMPDEST STOP JUMPDEST PUSH0 PUSH32 0x7965DB0B00000000000000000000000000000000000000000000000000000000 PUSH28 0xFFFFFFFFFFFFFFFFFFFFFFFFFFFFFFFFFFFFFFFFFFFFFFFFFFFFFFFF NOT AND DUP3 PUSH28 0xFFFFFFFFFFFFFFFFFFFFFFFFFFFFFFFFFFFFFFFFFFFFFFFFFFFFFFFF NOT AND EQ DUP1 PUSH2 0x31B JUMPI POP PUSH2 0x31A DUP3 PUSH2 0x8DF JUMP JUMPDEST JUMPDEST SWAP1 POP SWAP2 SWAP1 POP JUMP JUMPDEST PUSH0 DUP1 PUSH0 DUP4 DUP2 MSTORE PUSH1 0x20 ADD SWAP1 DUP2 MSTORE PUSH1 0x20 ADD PUSH0 KECCAK256 PUSH1 0x1 ADD SLOAD SWAP1 POP SWAP2 SWAP1 POP JUMP JUMPDEST PUSH2 0x347 DUP3 PUSH2 0x322 JUMP JUMPDEST PUSH2 0x350 DUP2 PUSH2 0x948 JUMP JUMPDEST PUSH2 0x35A DUP4 DUP4 PUSH2 0x95C JUMP JUMPDEST POP POP POP POP JUMP JUMPDEST PUSH0 DUP1 PUSH0 DUP1 PUSH1 0x60 PUSH1 0x2 SLOAD DUP7 LT PUSH2 0x3AA JUMPI PUSH1 0x40 MLOAD PUSH32 0x8C379A000000000000000000000000000000000000000000000000000000000 DUP2 MSTORE PUSH1 0x4 ADD PUSH2 0x3A1 SWAP1 PUSH2 0x10EF JUMP JUMPDEST PUSH1 0x40 MLOAD DUP1 SWAP2 SUB SWAP1 REVERT JUMPDEST PUSH0 PUSH1 0x1 PUSH0 DUP9 DUP2 MSTORE PUSH1 0x20 ADD SWAP1 DUP2 MSTORE PUSH1 0x20 ADD PUSH0 KECCAK256 PUSH1 0x40 MLOAD DUP1 PUSH1 0xA0 ADD PUSH1 0x40 MSTORE SWAP1 DUP2 PUSH0 DUP3 ADD PUSH0 SWAP1 SLOAD SWAP1 PUSH2 0x100 EXP SWAP1 DIV PUSH20 0xFFFFFFFFFFFFFFFFFFFFFFFFFFFFFFFFFFFFFFFF AND PUSH20 0xFFFFFFFFFFFFFFFFFFFFFFFFFFFFFFFFFFFFFFFF AND PUSH20 0xFFFFFFFFFFFFFFFFFFFFFFFFFFFFFFFFFFFFFFFF AND DUP2 MSTORE PUSH1 0x20 ADD PUSH1 0x1 DUP3 ADD PUSH0 SWAP1 SLOAD SWAP1 PUSH2 0x100 EXP SWAP1 DIV PUSH20 0xFFFFFFFFFFFFFFFFFFFFFFFFFFFFFFFFFFFFFFFF AND PUSH20 0xFFFFFFFFFFFFFFFFFFFFFFFFFFFFFFFFFFFFFFFF AND PUSH20 0xFFFFFFFFFFFFFFFFFFFFFFFFFFFFFFFFFFFFFFFF AND DUP2 MSTORE PUSH1 0x20 ADD PUSH1 0x2 DUP3 ADD SLOAD DUP2 MSTORE PUSH1 0x20 ADD PUSH1 0x3 DUP3 ADD SLOAD DUP2 MSTORE PUSH1 0x20 ADD PUSH1 0x4 DUP3 ADD DUP1 SLOAD PUSH2 0x494 SWAP1 PUSH2 0x113A JUMP JUMPDEST DUP1 PUSH1 0x1F ADD PUSH1 0x20 DUP1 SWAP2 DIV MUL PUSH1 0x20 ADD PUSH1 0x40 MLOAD SWAP1 DUP2 ADD PUSH1 0x40 MSTORE DUP1 SWAP3 SWAP2 SWAP1 DUP2 DUP2 MSTORE PUSH1 0x20 ADD DUP3 DUP1 SLOAD PUSH2 0x4C0 SWAP1 PUSH2 0x113A JUMP JUMPDEST DUP1 ISZERO PUSH2 0x50B JUMPI DUP1 PUSH1 0x1F LT PUSH2 0x4E2 JUMPI PUSH2 0x100 DUP1 DUP4 SLOAD DIV MUL DUP4 MSTORE SWAP2 PUSH1 0x20 ADD SWAP2 PUSH2 0x50B JUMP JUMPDEST DUP3 ADD SWAP2 SWAP1 PUSH0 MSTORE PUSH1 0x20 PUSH0 KECCAK256 SWAP1 JUMPDEST DUP2 SLOAD DUP2 MSTORE SWAP1 PUSH1 0x1 ADD SWAP1 PUSH1 0x20 ADD DUP1 DUP4 GT PUSH2 0x4EE JUMPI DUP3 SWAP1 SUB PUSH1 0x1F AND DUP3 ADD SWAP2 JUMPDEST POP POP POP POP POP DUP2 MSTORE POP POP SWAP1 POP DUP1 PUSH0 ADD MLOAD DUP2 PUSH1 0x20 ADD MLOAD DUP3 PUSH1 0x40 ADD MLOAD DUP4 PUSH1 0x60 ADD MLOAD DUP5 PUSH1 0x80 ADD MLOAD SWAP6 POP SWAP6 POP SWAP6 POP SWAP6 POP SWAP6 POP POP SWAP2 SWAP4 SWAP6 SWAP1 SWAP3 SWAP5 POP JUMP JUMPDEST PUSH2 0x54A PUSH2 0xA45 JUMP JUMPDEST PUSH20 0xFFFFFFFFFFFFFFFFFFFFFFFFFFFFFFFFFFFFFFFF AND DUP2 PUSH20 0xFFFFFFFFFFFFFFFFFFFFFFFFFFFFFFFFFFFFFFFF AND EQ PUSH2 0x5AE JUMPI PUSH1 0x40 MLOAD PUSH32 0x6697B23200000000000000000000000000000000000000000000000000000000 DUP2 MSTORE PUSH1 0x4 ADD PUSH1 0x40 MLOAD DUP1 SWAP2 SUB SWAP1 REVERT JUMPDEST PUSH2 0x5B8 DUP3 DUP3 PUSH2 0xA4C JUMP JUMPDEST POP POP POP JUMP JUMPDEST PUSH0 DUP1 SHL PUSH2 0x5C9 DUP2 PUSH2 0x948 JUMP JUMPDEST PUSH2 0x5F3 PUSH32 0x59A1C48E5837AD7A7F3DCEDCBE129BF3249EC4FBF651FD4F5E2600EAD39FE2F5 DUP4 PUSH2 0x8BD JUMP JUMPDEST POP POP JUMP JUMPDEST PUSH0 DUP1 SHL PUSH2 0x603 DUP2 PUSH2 0x948 JUMP JUMPDEST PUSH2 0x62D PUSH32 0x59A1C48E5837AD7A7F3DCEDCBE129BF3249EC4FBF651FD4F5E2600EAD39FE2F5 DUP4 PUSH2 0x33E JUMP JUMPDEST POP POP JUMP JUMPDEST PUSH32 0x59A1C48E5837AD7A7F3DCEDCBE129BF3249EC4FBF651FD4F5E2600EAD39FE2F5 DUP2 JUMP JUMPDEST PUSH0 DUP1 PUSH0 DUP5 DUP2 MSTORE PUSH1 0x20 ADD SWAP1 DUP2 MSTORE PUSH1 0x20 ADD PUSH0 KECCAK256 PUSH0 ADD PUSH0 DUP4 PUSH20 0xFFFFFFFFFFFFFFFFFFFFFFFFFFFFFFFFFFFFFFFF AND PUSH20 0xFFFFFFFFFFFFFFFFFFFFFFFFFFFFFFFFFFFFFFFF AND DUP2 MSTORE PUSH1 0x20 ADD SWAP1 DUP2 MSTORE PUSH1 0x20 ADD PUSH0 KECCAK256 PUSH0 SWAP1 SLOAD SWAP1 PUSH2 0x100 EXP SWAP1 DIV PUSH1 0xFF AND SWAP1 POP SWAP3 SWAP2 POP POP JUMP JUMPDEST PUSH0 DUP1 SHL DUP2 JUMP JUMPDEST PUSH32 0x59A1C48E5837AD7A7F3DCEDCBE129BF3249EC4FBF651FD4F5E2600EAD39FE2F5 PUSH2 0x6E8 DUP2 PUSH2 0x948 JUMP JUMPDEST PUSH1 0x40 MLOAD DUP1 PUSH1 0xA0 ADD PUSH1 0x40 MSTORE DUP1 CALLER PUSH20 0xFFFFFFFFFFFFFFFFFFFFFFFFFFFFFFFFFFFFFFFF AND DUP2 MSTORE PUSH1 0x20 ADD DUP6 PUSH20 0xFFFFFFFFFFFFFFFFFFFFFFFFFFFFFFFFFFFFFFFF AND DUP2 MSTORE PUSH1 0x20 ADD DUP5 DUP2 MSTORE PUSH1 0x20 ADD TIMESTAMP DUP2 MSTORE PUSH1 0x20 ADD DUP4 DUP2 MSTORE POP PUSH1 0x1 PUSH0 PUSH1 0x2 SLOAD DUP2 MSTORE PUSH1 0x20 ADD SWAP1 DUP2 MSTORE PUSH1 0x20 ADD PUSH0 KECCAK256 PUSH0 DUP3 ADD MLOAD DUP2 PUSH0 ADD PUSH0 PUSH2 0x100 EXP DUP2 SLOAD DUP2 PUSH20 0xFFFFFFFFFFFFFFFFFFFFFFFFFFFFFFFFFFFFFFFF MUL NOT AND SWAP1 DUP4 PUSH20 0xFFFFFFFFFFFFFFFFFFFFFFFFFFFFFFFFFFFFFFFF AND MUL OR SWAP1 SSTORE POP PUSH1 0x20 DUP3 ADD MLOAD DUP2 PUSH1 0x1 ADD PUSH0 PUSH2 0x100 EXP DUP2 SLOAD DUP2 PUSH20 0xFFFFFFFFFFFFFFFFFFFFFFFFFFFFFFFFFFFFFFFF MUL NOT AND SWAP1 DUP4 PUSH20 0xFFFFFFFFFFFFFFFFFFFFFFFFFFFFFFFFFFFFFFFF AND MUL OR SWAP1 SSTORE POP PUSH1 0x40 DUP3 ADD MLOAD DUP2 PUSH1 0x2 ADD SSTORE PUSH1 0x60 DUP3 ADD MLOAD DUP2 PUSH1 0x3 ADD SSTORE PUSH1 0x80 DUP3 ADD MLOAD DUP2 PUSH1 0x4 ADD SWAP1 DUP2 PUSH2 0x801 SWAP2 SWAP1 PUSH2 0x1307 JUMP JUMPDEST POP SWAP1 POP POP DUP4 PUSH20 0xFFFFFFFFFFFFFFFFFFFFFFFFFFFFFFFFFFFFFFFF AND CALLER PUSH20 0xFFFFFFFFFFFFFFFFFFFFFFFFFFFFFFFFFFFFFFFF AND PUSH32 0x7A3993C6B9E7FFDE005A46806D748D5EBF15E7BA5A715DB53BB6C9073F3CF9CD DUP6 TIMESTAMP DUP7 PUSH1 0x40 MLOAD PUSH2 0x866 SWAP4 SWAP3 SWAP2 SWAP1 PUSH2 0x13D6 JUMP JUMPDEST PUSH1 0x40 MLOAD DUP1 SWAP2 SUB SWAP1 LOG3 PUSH1 0x2 PUSH0 DUP2 SLOAD DUP1 SWAP3 SWAP2 SWAP1 PUSH2 0x880 SWAP1 PUSH2 0x143F JUMP JUMPDEST SWAP2 SWAP1 POP SSTORE POP POP POP POP POP JUMP JUMPDEST PUSH0 PUSH2 0x8B6 PUSH32 0x59A1C48E5837AD7A7F3DCEDCBE129BF3249EC4FBF651FD4F5E2600EAD39FE2F5 DUP4 PUSH2 0x655 JUMP JUMPDEST SWAP1 POP SWAP2 SWAP1 POP JUMP JUMPDEST PUSH2 0x8C6 DUP3 PUSH2 0x322 JUMP JUMPDEST PUSH2 0x8CF DUP2 PUSH2 0x948 JUMP JUMPDEST PUSH2 0x8D9 DUP4 DUP4 PUSH2 0xA4C JUMP JUMPDEST POP POP POP POP JUMP JUMPDEST PUSH0 PUSH32 0x1FFC9A700000000000000000000000000000000000000000000000000000000 PUSH28 0xFFFFFFFFFFFFFFFFFFFFFFFFFFFFFFFFFFFFFFFFFFFFFFFFFFFFFFFF NOT AND DUP3 PUSH28 0xFFFFFFFFFFFFFFFFFFFFFFFFFFFFFFFFFFFFFFFFFFFFFFFFFFFFFFFF NOT AND EQ SWAP1 POP SWAP2 SWAP1 POP JUMP JUMPDEST PUSH2 0x959 DUP2 PUSH2 0x954 PUSH2 0xA45 JUMP JUMPDEST PUSH2 0xB35 JUMP JUMPDEST POP JUMP JUMPDEST PUSH0 PUSH2 0x967 DUP4 DUP4 PUSH2 0x655 JUMP JUMPDEST PUSH2 0xA3B JUMPI PUSH1 0x1 PUSH0 DUP1 DUP6 DUP2 MSTORE PUSH1 0x20 ADD SWAP1 DUP2 MSTORE PUSH1 0x20 ADD PUSH0 KECCAK256 PUSH0 ADD PUSH0 DUP5 PUSH20 0xFFFFFFFFFFFFFFFFFFFFFFFFFFFFFFFFFFFFFFFF AND PUSH20 0xFFFFFFFFFFFFFFFFFFFFFFFFFFFFFFFFFFFFFFFF AND DUP2 MSTORE PUSH1 0x20 ADD SWAP1 DUP2 MSTORE PUSH1 0x20 ADD PUSH0 KECCAK256 PUSH0 PUSH2 0x100 EXP DUP2 SLOAD DUP2 PUSH1 0xFF MUL NOT AND SWAP1 DUP4 ISZERO ISZERO MUL OR SWAP1 SSTORE POP PUSH2 0x9D8 PUSH2 0xA45 JUMP JUMPDEST PUSH20 0xFFFFFFFFFFFFFFFFFFFFFFFFFFFFFFFFFFFFFFFF AND DUP3 PUSH20 0xFFFFFFFFFFFFFFFFFFFFFFFFFFFFFFFFFFFFFFFF AND DUP5 PUSH32 0x2F8788117E7EFF1D82E926EC794901D17C78024A50270940304540A733656F0D PUSH1 0x40 MLOAD PUSH1 0x40 MLOAD DUP1 SWAP2 SUB SWAP1 LOG4 PUSH1 0x1 SWAP1 POP PUSH2 0xA3F JUMP JUMPDEST PUSH0 SWAP1 POP JUMPDEST SWAP3 SWAP2 POP POP JUMP JUMPDEST PUSH0 CALLER SWAP1 POP SWAP1 JUMP JUMPDEST PUSH0 PUSH2 0xA57 DUP4 DUP4 PUSH2 0x655 JUMP JUMPDEST ISZERO PUSH2 0xB2B JUMPI PUSH0 DUP1 PUSH0 DUP6 DUP2 MSTORE PUSH1 0x20 ADD SWAP1 DUP2 MSTORE PUSH1 0x20 ADD PUSH0 KECCAK256 PUSH0 ADD PUSH0 DUP5 PUSH20 0xFFFFFFFFFFFFFFFFFFFFFFFFFFFFFFFFFFFFFFFF AND PUSH20 0xFFFFFFFFFFFFFFFFFFFFFFFFFFFFFFFFFFFFFFFF AND DUP2 MSTORE PUSH1 0x20 ADD SWAP1 DUP2 MSTORE PUSH1 0x20 ADD PUSH0 KECCAK256 PUSH0 PUSH2 0x100 EXP DUP2 SLOAD DUP2 PUSH1 0xFF MUL NOT AND SWAP1 DUP4 ISZERO ISZERO MUL OR SWAP1 SSTORE POP PUSH2 0xAC8 PUSH2 0xA45 JUMP JUMPDEST PUSH20 0xFFFFFFFFFFFFFFFFFFFFFFFFFFFFFFFFFFFFFFFF AND DUP3 PUSH20 0xFFFFFFFFFFFFFFFFFFFFFFFFFFFFFFFFFFFFFFFF AND DUP5 PUSH32 0xF6391F5C32D9C69D2A47EA670B442974B53935D1EDC7FD64EB21E047A839171B PUSH1 0x40 MLOAD PUSH1 0x40 MLOAD DUP1 SWAP2 SUB SWAP1 LOG4 PUSH1 0x1 SWAP1 POP PUSH2 0xB2F JUMP JUMPDEST PUSH0 SWAP1 POP JUMPDEST SWAP3 SWAP2 POP POP JUMP JUMPDEST PUSH2 0xB3F DUP3 DUP3 PUSH2 0x655 JUMP JUMPDEST PUSH2 0xB82 JUMPI DUP1 DUP3 PUSH1 0x40 MLOAD PUSH32 0xE2517D3F00000000000000000000000000000000000000000000000000000000 DUP2 MSTORE PUSH1 0x4 ADD PUSH2 0xB79 SWAP3 SWAP2 SWAP1 PUSH2 0x1486 JUMP JUMPDEST PUSH1 0x40 MLOAD DUP1 SWAP2 SUB SWAP1 REVERT JUMPDEST POP POP JUMP JUMPDEST PUSH0 PUSH1 0x40 MLOAD SWAP1 POP SWAP1 JUMP JUMPDEST PUSH0 DUP1 REVERT JUMPDEST PUSH0 DUP1 REVERT JUMPDEST PUSH0 PUSH32 0xFFFFFFFF00000000000000000000000000000000000000000000000000000000 DUP3 AND SWAP1 POP SWAP2 SWAP1 POP JUMP JUMPDEST PUSH2 0xBCB DUP2 PUSH2 0xB97 JUMP JUMPDEST DUP2 EQ PUSH2 0xBD5 JUMPI PUSH0 DUP1 REVERT JUMPDEST POP JUMP JUMPDEST PUSH0 DUP2 CALLDATALOAD SWAP1 POP PUSH2 0xBE6 DUP2 PUSH2 0xBC2 JUMP JUMPDEST SWAP3 SWAP2 POP POP JUMP JUMPDEST PUSH0 PUSH1 0x20 DUP3 DUP5 SUB SLT ISZERO PUSH2 0xC01 JUMPI PUSH2 0xC00 PUSH2 0xB8F JUMP JUMPDEST JUMPDEST PUSH0 PUSH2 0xC0E DUP5 DUP3 DUP6 ADD PUSH2 0xBD8 JUMP JUMPDEST SWAP2 POP POP SWAP3 SWAP2 POP POP JUMP JUMPDEST PUSH0 DUP2 ISZERO ISZERO SWAP1 POP SWAP2 SWAP1 POP JUMP JUMPDEST PUSH2 0xC2B DUP2 PUSH2 0xC17 JUMP JUMPDEST DUP3 MSTORE POP POP JUMP JUMPDEST PUSH0 PUSH1 0x20 DUP3 ADD SWAP1 POP PUSH2 0xC44 PUSH0 DUP4 ADD DUP5 PUSH2 0xC22 JUMP JUMPDEST SWAP3 SWAP2 POP POP JUMP JUMPDEST PUSH0 DUP2 SWAP1 POP SWAP2 SWAP1 POP JUMP JUMPDEST PUSH2 0xC5C DUP2 PUSH2 0xC4A JUMP JUMPDEST DUP2 EQ PUSH2 0xC66 JUMPI PUSH0 DUP1 REVERT JUMPDEST POP JUMP JUMPDEST PUSH0 DUP2 CALLDATALOAD SWAP1 POP PUSH2 0xC77 DUP2 PUSH2 0xC53 JUMP JUMPDEST SWAP3 SWAP2 POP POP JUMP JUMPDEST PUSH0 PUSH1 0x20 DUP3 DUP5 SUB SLT ISZERO PUSH2 0xC92 JUMPI PUSH2 0xC91 PUSH2 0xB8F JUMP JUMPDEST JUMPDEST PUSH0 PUSH2 0xC9F DUP5 DUP3 DUP6 ADD PUSH2 0xC69 JUMP JUMPDEST SWAP2 POP POP SWAP3 SWAP2 POP POP JUMP JUMPDEST PUSH2 0xCB1 DUP2 PUSH2 0xC4A JUMP JUMPDEST DUP3 MSTORE POP POP JUMP JUMPDEST PUSH0 PUSH1 0x20 DUP3 ADD SWAP1 POP PUSH2 0xCCA PUSH0 DUP4 ADD DUP5 PUSH2 0xCA8 JUMP JUMPDEST SWAP3 SWAP2 POP POP JUMP JUMPDEST PUSH0 PUSH20 0xFFFFFFFFFFFFFFFFFFFFFFFFFFFFFFFFFFFFFFFF DUP3 AND SWAP1 POP SWAP2 SWAP1 POP JUMP JUMPDEST PUSH0 PUSH2 0xCF9 DUP3 PUSH2 0xCD0 JUMP JUMPDEST SWAP1 POP SWAP2 SWAP1 POP JUMP JUMPDEST PUSH2 0xD09 DUP2 PUSH2 0xCEF JUMP JUMPDEST DUP2 EQ PUSH2 0xD13 JUMPI PUSH0 DUP1 REVERT JUMPDEST POP JUMP JUMPDEST PUSH0 DUP2 CALLDATALOAD SWAP1 POP PUSH2 0xD24 DUP2 PUSH2 0xD00 JUMP JUMPDEST SWAP3 SWAP2 POP POP JUMP JUMPDEST PUSH0 DUP1 PUSH1 0x40 DUP4 DUP6 SUB SLT ISZERO PUSH2 0xD40 JUMPI PUSH2 0xD3F PUSH2 0xB8F JUMP JUMPDEST JUMPDEST PUSH0 PUSH2 0xD4D DUP6 DUP3 DUP7 ADD PUSH2 0xC69 JUMP JUMPDEST SWAP3 POP POP PUSH1 0x20 PUSH2 0xD5E DUP6 DUP3 DUP7 ADD PUSH2 0xD16 JUMP JUMPDEST SWAP2 POP POP SWAP3 POP SWAP3 SWAP1 POP JUMP JUMPDEST PUSH0 DUP2 SWAP1 POP SWAP2 SWAP1 POP JUMP JUMPDEST PUSH2 0xD7A DUP2 PUSH2 0xD68 JUMP JUMPDEST DUP2 EQ PUSH2 0xD84 JUMPI PUSH0 DUP1 REVERT JUMPDEST POP JUMP JUMPDEST PUSH0 DUP2 CALLDATALOAD SWAP1 POP PUSH2 0xD95 DUP2 PUSH2 0xD71 JUMP JUMPDEST SWAP3 SWAP2 POP POP JUMP JUMPDEST PUSH0 PUSH1 0x20 DUP3 DUP5 SUB SLT ISZERO PUSH2 0xDB0 JUMPI PUSH2 0xDAF PUSH2 0xB8F JUMP JUMPDEST JUMPDEST PUSH0 PUSH2 0xDBD DUP5 DUP3 DUP6 ADD PUSH2 0xD87 JUMP JUMPDEST SWAP2 POP POP SWAP3 SWAP2 POP POP JUMP JUMPDEST PUSH2 0xDCF DUP2 PUSH2 0xCEF JUMP JUMPDEST DUP3 MSTORE POP POP JUMP JUMPDEST PUSH2 0xDDE DUP2 PUSH2 0xD68 JUMP JUMPDEST DUP3 MSTORE POP POP JUMP JUMPDEST PUSH0 DUP2 MLOAD SWAP1 POP SWAP2 SWAP1 POP JUMP JUMPDEST PUSH0 DUP3 DUP3 MSTORE PUSH1 0x20 DUP3 ADD SWAP1 POP SWAP3 SWAP2 POP POP JUMP JUMPDEST DUP3 DUP2 DUP4 MCOPY PUSH0 DUP4 DUP4 ADD MSTORE POP POP POP JUMP JUMPDEST PUSH0 PUSH1 0x1F NOT PUSH1 0x1F DUP4 ADD AND SWAP1 POP SWAP2 SWAP1 POP JUMP JUMPDEST PUSH0 PUSH2 0xE26 DUP3 PUSH2 0xDE4 JUMP JUMPDEST PUSH2 0xE30 DUP2 DUP6 PUSH2 0xDEE JUMP JUMPDEST SWAP4 POP PUSH2 0xE40 DUP2 DUP6 PUSH1 0x20 DUP7 ADD PUSH2 0xDFE JUMP JUMPDEST PUSH2 0xE49 DUP2 PUSH2 0xE0C JUMP JUMPDEST DUP5 ADD SWAP2 POP POP SWAP3 SWAP2 POP POP JUMP JUMPDEST PUSH0 PUSH1 0xA0 DUP3 ADD SWAP1 POP PUSH2 0xE67 PUSH0 DUP4 ADD DUP9 PUSH2 0xDC6 JUMP JUMPDEST PUSH2 0xE74 PUSH1 0x20 DUP4 ADD DUP8 PUSH2 0xDC6 JUMP JUMPDEST PUSH2 0xE81 PUSH1 0x40 DUP4 ADD DUP7 PUSH2 0xDD5 JUMP JUMPDEST PUSH2 0xE8E PUSH1 0x60 DUP4 ADD DUP6 PUSH2 0xDD5 JUMP JUMPDEST DUP2 DUP2 SUB PUSH1 0x80 DUP4 ADD MSTORE PUSH2 0xEA0 DUP2 DUP5 PUSH2 0xE1C JUMP JUMPDEST SWAP1 POP SWAP7 SWAP6 POP POP POP POP POP POP JUMP JUMPDEST PUSH0 PUSH1 0x20 DUP3 DUP5 SUB SLT ISZERO PUSH2 0xEC1 JUMPI PUSH2 0xEC0 PUSH2 0xB8F JUMP JUMPDEST JUMPDEST PUSH0 PUSH2 0xECE DUP5 DUP3 DUP6 ADD PUSH2 0xD16 JUMP JUMPDEST SWAP2 POP POP SWAP3 SWAP2 POP POP JUMP JUMPDEST PUSH0 DUP1 REVERT JUMPDEST PUSH0 DUP1 REVERT JUMPDEST PUSH32 0x4E487B7100000000000000000000000000000000000000000000000000000000 PUSH0 MSTORE PUSH1 0x41 PUSH1 0x4 MSTORE PUSH1 0x24 PUSH0 REVERT JUMPDEST PUSH2 0xF15 DUP3 PUSH2 0xE0C JUMP JUMPDEST DUP2 ADD DUP2 DUP2 LT PUSH8 0xFFFFFFFFFFFFFFFF DUP3 GT OR ISZERO PUSH2 0xF34 JUMPI PUSH2 0xF33 PUSH2 0xEDF JUMP JUMPDEST JUMPDEST DUP1 PUSH1 0x40 MSTORE POP POP POP JUMP JUMPDEST PUSH0 PUSH2 0xF46 PUSH2 0xB86 JUMP JUMPDEST SWAP1 POP PUSH2 0xF52 DUP3 DUP3 PUSH2 0xF0C JUMP JUMPDEST SWAP2 SWAP1 POP JUMP JUMPDEST PUSH0 PUSH8 0xFFFFFFFFFFFFFFFF DUP3 GT ISZERO PUSH2 0xF71 JUMPI PUSH2 0xF70 PUSH2 0xEDF JUMP JUMPDEST JUMPDEST PUSH2 0xF7A DUP3 PUSH2 0xE0C JUMP JUMPDEST SWAP1 POP PUSH1 0x20 DUP2 ADD SWAP1 POP SWAP2 SWAP1 POP JUMP JUMPDEST DUP3 DUP2 DUP4 CALLDATACOPY PUSH0 DUP4 DUP4 ADD MSTORE POP POP POP JUMP JUMPDEST PUSH0 PUSH2 0xFA7 PUSH2 0xFA2 DUP5 PUSH2 0xF57 JUMP JUMPDEST PUSH2 0xF3D JUMP JUMPDEST SWAP1 POP DUP3 DUP2 MSTORE PUSH1 0x20 DUP2 ADD DUP5 DUP5 DUP5 ADD GT ISZERO PUSH2 0xFC3 JUMPI PUSH2 0xFC2 PUSH2 0xEDB JUMP JUMPDEST JUMPDEST PUSH2 0xFCE DUP5 DUP3 DUP6 PUSH2 0xF87 JUMP JUMPDEST POP SWAP4 SWAP3 POP POP POP JUMP JUMPDEST PUSH0 DUP3 PUSH1 0x1F DUP4 ADD SLT PUSH2 0xFEA JUMPI PUSH2 0xFE9 PUSH2 0xED7 JUMP JUMPDEST JUMPDEST DUP2 CALLDATALOAD PUSH2 0xFFA DUP5 DUP3 PUSH1 0x20 DUP7 ADD PUSH2 0xF95 JUMP JUMPDEST SWAP2 POP POP SWAP3 SWAP2 POP POP JUMP JUMPDEST PUSH0 DUP1 PUSH0 PUSH1 0x60 DUP5 DUP7 SUB SLT ISZERO PUSH2 0x101A JUMPI PUSH2 0x1019 PUSH2 0xB8F JUMP JUMPDEST JUMPDEST PUSH0 PUSH2 0x1027 DUP7 DUP3 DUP8 ADD PUSH2 0xD16 JUMP JUMPDEST SWAP4 POP POP PUSH1 0x20 PUSH2 0x1038 DUP7 DUP3 DUP8 ADD PUSH2 0xD87 JUMP JUMPDEST SWAP3 POP POP PUSH1 0x40 DUP5 ADD CALLDATALOAD PUSH8 0xFFFFFFFFFFFFFFFF DUP2 GT ISZERO PUSH2 0x1059 JUMPI PUSH2 0x1058 PUSH2 0xB93 JUMP JUMPDEST JUMPDEST PUSH2 0x1065 DUP7 DUP3 DUP8 ADD PUSH2 0xFD6 JUMP JUMPDEST SWAP2 POP POP SWAP3 POP SWAP3 POP SWAP3 JUMP JUMPDEST PUSH0 DUP3 DUP3 MSTORE PUSH1 0x20 DUP3 ADD SWAP1 POP SWAP3 SWAP2 POP POP JUMP JUMPDEST PUSH32 0x5472616E73616374696F6E4C6F676765723A20496E646578206F7574206F6620 PUSH0 DUP3 ADD MSTORE PUSH32 0x626F756E64730000000000000000000000000000000000000000000000000000 PUSH1 0x20 DUP3 ADD MSTORE POP JUMP JUMPDEST PUSH0 PUSH2 0x10D9 PUSH1 0x26 DUP4 PUSH2 0x106F JUMP JUMPDEST SWAP2 POP PUSH2 0x10E4 DUP3 PUSH2 0x107F JUMP JUMPDEST PUSH1 0x40 DUP3 ADD SWAP1 POP SWAP2 SWAP1 POP JUMP JUMPDEST PUSH0 PUSH1 0x20 DUP3 ADD SWAP1 POP DUP2 DUP2 SUB PUSH0 DUP4 ADD MSTORE PUSH2 0x1106 DUP2 PUSH2 0x10CD JUMP JUMPDEST SWAP1 POP SWAP2 SWAP1 POP JUMP JUMPDEST PUSH32 0x4E487B7100000000000000000000000000000000000000000000000000000000 PUSH0 MSTORE PUSH1 0x22 PUSH1 0x4 MSTORE PUSH1 0x24 PUSH0 REVERT JUMPDEST PUSH0 PUSH1 0x2 DUP3 DIV SWAP1 POP PUSH1 0x1 DUP3 AND DUP1 PUSH2 0x1151 JUMPI PUSH1 0x7F DUP3 AND SWAP2 POP JUMPDEST PUSH1 0x20 DUP3 LT DUP2 SUB PUSH2 0x1164 JUMPI PUSH2 0x1163 PUSH2 0x110D JUMP JUMPDEST JUMPDEST POP SWAP2 SWAP1 POP JUMP JUMPDEST PUSH0 DUP2 SWAP1 POP DUP2 PUSH0 MSTORE PUSH1 0x20 PUSH0 KECCAK256 SWAP1 POP SWAP2 SWAP1 POP JUMP JUMPDEST PUSH0 PUSH1 0x20 PUSH1 0x1F DUP4 ADD DIV SWAP1 POP SWAP2 SWAP1 POP JUMP JUMPDEST PUSH0 DUP3 DUP3 SHL SWAP1 POP SWAP3 SWAP2 POP POP JUMP JUMPDEST PUSH0 PUSH1 0x8 DUP4 MUL PUSH2 0x11C6 PUSH32 0xFFFFFFFFFFFFFFFFFFFFFFFFFFFFFFFFFFFFFFFFFFFFFFFFFFFFFFFFFFFFFFFF DUP3 PUSH2 0x118B JUMP JUMPDEST PUSH2 0x11D0 DUP7 DUP4 PUSH2 0x118B JUMP JUMPDEST SWAP6 POP DUP1 NOT DUP5 AND SWAP4 POP DUP1 DUP7 AND DUP5 OR SWAP3 POP POP POP SWAP4 SWAP3 POP POP POP JUMP JUMPDEST PUSH0 DUP2 SWAP1 POP SWAP2 SWAP1 POP JUMP JUMPDEST PUSH0 PUSH2 0x120B PUSH2 0x1206 PUSH2 0x1201 DUP5 PUSH2 0xD68 JUMP JUMPDEST PUSH2 0x11E8 JUMP JUMPDEST PUSH2 0xD68 JUMP JUMPDEST SWAP1 POP SWAP2 SWAP1 POP JUMP JUMPDEST PUSH0 DUP2 SWAP1 POP SWAP2 SWAP1 POP JUMP JUMPDEST PUSH2 0x1224 DUP4 PUSH2 0x11F1 JUMP JUMPDEST PUSH2 0x1238 PUSH2 0x1230 DUP3 PUSH2 0x1212 JUMP JUMPDEST DUP5 DUP5 SLOAD PUSH2 0x1197 JUMP JUMPDEST DUP3 SSTORE POP POP POP POP JUMP JUMPDEST PUSH0 SWAP1 JUMP JUMPDEST PUSH2 0x124C PUSH2 0x1240 JUMP JUMPDEST PUSH2 0x1257 DUP2 DUP5 DUP5 PUSH2 0x121B JUMP JUMPDEST POP POP POP JUMP JUMPDEST JUMPDEST DUP2 DUP2 LT ISZERO PUSH2 0x127A JUMPI PUSH2 0x126F PUSH0 DUP3 PUSH2 0x1244 JUMP JUMPDEST PUSH1 0x1 DUP2 ADD SWAP1 POP PUSH2 0x125D JUMP JUMPDEST POP POP JUMP JUMPDEST PUSH1 0x1F DUP3 GT ISZERO PUSH2 0x12BF JUMPI PUSH2 0x1290 DUP2 PUSH2 0x116A JUMP JUMPDEST PUSH2 0x1299 DUP5 PUSH2 0x117C JUMP JUMPDEST DUP2 ADD PUSH1 0x20 DUP6 LT ISZERO PUSH2 0x12A8 JUMPI DUP2 SWAP1 POP JUMPDEST PUSH2 0x12BC PUSH2 0x12B4 DUP6 PUSH2 0x117C JUMP JUMPDEST DUP4 ADD DUP3 PUSH2 0x125C JUMP JUMPDEST POP POP JUMPDEST POP POP POP JUMP JUMPDEST PUSH0 DUP3 DUP3 SHR SWAP1 POP SWAP3 SWAP2 POP POP JUMP JUMPDEST PUSH0 PUSH2 0x12DF PUSH0 NOT DUP5 PUSH1 0x8 MUL PUSH2 0x12C4 JUMP JUMPDEST NOT DUP1 DUP4 AND SWAP2 POP POP SWAP3 SWAP2 POP POP JUMP JUMPDEST PUSH0 PUSH2 0x12F7 DUP4 DUP4 PUSH2 0x12D0 JUMP JUMPDEST SWAP2 POP DUP3 PUSH1 0x2 MUL DUP3 OR SWAP1 POP SWAP3 SWAP2 POP POP JUMP JUMPDEST PUSH2 0x1310 DUP3 PUSH2 0xDE4 JUMP JUMPDEST PUSH8 0xFFFFFFFFFFFFFFFF DUP2 GT ISZERO PUSH2 0x1329 JUMPI PUSH2 0x1328 PUSH2 0xEDF JUMP JUMPDEST JUMPDEST PUSH2 0x1333 DUP3 SLOAD PUSH2 0x113A JUMP JUMPDEST PUSH2 0x133E DUP3 DUP3 DUP6 PUSH2 0x127E JUMP JUMPDEST PUSH0 PUSH1 0x20 SWAP1 POP PUSH1 0x1F DUP4 GT PUSH1 0x1 DUP2 EQ PUSH2 0x136F JUMPI PUSH0 DUP5 ISZERO PUSH2 0x135D JUMPI DUP3 DUP8 ADD MLOAD SWAP1 POP JUMPDEST PUSH2 0x1367 DUP6 DUP3 PUSH2 0x12EC JUMP JUMPDEST DUP7 SSTORE POP PUSH2 0x13CE JUMP JUMPDEST PUSH1 0x1F NOT DUP5 AND PUSH2 0x137D DUP7 PUSH2 0x116A JUMP JUMPDEST PUSH0 JUMPDEST DUP3 DUP2 LT ISZERO PUSH2 0x13A4 JUMPI DUP5 DUP10 ADD MLOAD DUP3 SSTORE PUSH1 0x1 DUP3 ADD SWAP2 POP PUSH1 0x20 DUP6 ADD SWAP5 POP PUSH1 0x20 DUP2 ADD SWAP1 POP PUSH2 0x137F JUMP JUMPDEST DUP7 DUP4 LT ISZERO PUSH2 0x13C1 JUMPI DUP5 DUP10 ADD MLOAD PUSH2 0x13BD PUSH1 0x1F DUP10 AND DUP3 PUSH2 0x12D0 JUMP JUMPDEST DUP4 SSTORE POP JUMPDEST PUSH1 0x1 PUSH1 0x2 DUP9 MUL ADD DUP9 SSTORE POP POP POP JUMPDEST POP POP POP POP POP POP JUMP JUMPDEST PUSH0 PUSH1 0x60 DUP3 ADD SWAP1 POP PUSH2 0x13E9 PUSH0 DUP4 ADD DUP7 PUSH2 0xDD5 JUMP JUMPDEST PUSH2 0x13F6 PUSH1 0x20 DUP4 ADD DUP6 PUSH2 0xDD5 JUMP JUMPDEST DUP2 DUP2 SUB PUSH1 0x40 DUP4 ADD MSTORE PUSH2 0x1408 DUP2 DUP5 PUSH2 0xE1C JUMP JUMPDEST SWAP1 POP SWAP5 SWAP4 POP POP POP POP JUMP JUMPDEST PUSH32 0x4E487B7100000000000000000000000000000000000000000000000000000000 PUSH0 MSTORE PUSH1 0x11 PUSH1 0x4 MSTORE PUSH1 0x24 PUSH0 REVERT JUMPDEST PUSH0 PUSH2 0x1449 DUP3 PUSH2 0xD68 JUMP JUMPDEST SWAP2 POP PUSH32 0xFFFFFFFFFFFFFFFFFFFFFFFFFFFFFFFFFFFFFFFFFFFFFFFFFFFFFFFFFFFFFFFF DUP3 SUB PUSH2 0x147B JUMPI PUSH2 0x147A PUSH2 0x1412 JUMP JUMPDEST JUMPDEST PUSH1 0x1 DUP3 ADD SWAP1 POP SWAP2 SWAP1 POP JUMP JUMPDEST PUSH0 PUSH1 0x40 DUP3 ADD SWAP1 POP PUSH2 0x1499 PUSH0 DUP4 ADD DUP6 PUSH2 0xDC6 JUMP JUMPDEST PUSH2 0x14A6 PUSH1 0x20 DUP4 ADD DUP5 PUSH2 0xCA8 JUMP JUMPDEST SWAP4 SWAP3 POP POP POP JUMP INVALID LOG2 PUSH5 0x6970667358 0x22 SLT KECCAK256 0xD9 SWAP6 0xBD 0xBA PUSH15 0xD672F6E577E643824732A23436ED2B 0x2B BLOCKHASH 0xCC 0xE9 CHAINID DUP15 SELFBALANCE BALANCE JUMP 0xD2 0xD2 PUSH19 0x64736F6C634300081A00330000000000000000 "
		},
		"gasEstimates": {
			"creation": {
				"codeDepositCost": "1069400",
				"executionCost": "infinite",
				"totalCost": "infinite"
			},
			"external": {
				"AUDITOR_ROLE()": "370",
				"DEFAULT_ADMIN_ROLE()": "352",
				"getRoleAdmin(bytes32)": "infinite",
				"getTransaction(uint256)": "infinite",
				"grantAuditorRole(address)": "infinite",
				"grantRole(bytes32,address)": "infinite",
				"hasAuditorRole(address)": "3064",
				"hasRole(bytes32,address)": "3189",
				"logTransaction(address,uint256,bytes)": "infinite",
				"renounceRole(bytes32,address)": "infinite",
				"revokeAuditorRole(address)": "infinite",
				"revokeRole(bytes32,address)": "infinite",
				"supportsInterface(bytes4)": "718"
			}
		},
		"methodIdentifiers": {
			"AUDITOR_ROLE()": "6e1d616e",
			"DEFAULT_ADMIN_ROLE()": "a217fddf",
			"getRoleAdmin(bytes32)": "248a9ca3",
			"getTransaction(uint256)": "33ea3dc8",
			"grantAuditorRole(address)": "50c17b10",
			"grantRole(bytes32,address)": "2f2ff15d",
			"hasAuditorRole(address)": "abaa536f",
			"hasRole(bytes32,address)": "91d14854",
			"logTransaction(address,uint256,bytes)": "a5ce262a",
			"renounceRole(bytes32,address)": "36568abe",
			"revokeAuditorRole(address)": "3e251518",
			"revokeRole(bytes32,address)": "d547741f",
			"supportsInterface(bytes4)": "01ffc9a7"
		}
	},
	"abi": [
		{
			"inputs": [],
			"stateMutability": "nonpayable",
			"type": "constructor"
		},
		{
			"inputs": [],
			"name": "AccessControlBadConfirmation",
			"type": "error"
		},
		{
			"inputs": [
				{
					"internalType": "address",
					"name": "account",
					"type": "address"
				},
				{
					"internalType": "bytes32",
					"name": "neededRole",
					"type": "bytes32"
				}
			],
			"name": "AccessControlUnauthorizedAccount",
			"type": "error"
		},
		{
			"anonymous": false,
			"inputs": [
				{
					"indexed": true,
					"internalType": "bytes32",
					"name": "role",
					"type": "bytes32"
				},
				{
					"indexed": true,
					"internalType": "bytes32",
					"name": "previousAdminRole",
					"type": "bytes32"
				},
				{
					"indexed": true,
					"internalType": "bytes32",
					"name": "newAdminRole",
					"type": "bytes32"
				}
			],
			"name": "RoleAdminChanged",
			"type": "event"
		},
		{
			"anonymous": false,
			"inputs": [
				{
					"indexed": true,
					"internalType": "bytes32",
					"name": "role",
					"type": "bytes32"
				},
				{
					"indexed": true,
					"internalType": "address",
					"name": "account",
					"type": "address"
				},
				{
					"indexed": true,
					"internalType": "address",
					"name": "sender",
					"type": "address"
				}
			],
			"name": "RoleGranted",
			"type": "event"
		},
		{
			"anonymous": false,
			"inputs": [
				{
					"indexed": true,
					"internalType": "bytes32",
					"name": "role",
					"type": "bytes32"
				},
				{
					"indexed": true,
					"internalType": "address",
					"name": "account",
					"type": "address"
				},
				{
					"indexed": true,
					"internalType": "address",
					"name": "sender",
					"type": "address"
				}
			],
			"name": "RoleRevoked",
			"type": "event"
		},
		{
			"anonymous": false,
			"inputs": [
				{
					"indexed": true,
					"internalType": "address",
					"name": "sender",
					"type": "address"
				},
				{
					"indexed": true,
					"internalType": "address",
					"name": "receiver",
					"type": "address"
				},
				{
					"indexed": false,
					"internalType": "uint256",
					"name": "amount",
					"type": "uint256"
				},
				{
					"indexed": false,
					"internalType": "uint256",
					"name": "timestamp",
					"type": "uint256"
				},
				{
					"indexed": false,
					"internalType": "bytes",
					"name": "details",
					"type": "bytes"
				}
			],
			"name": "TransactionLogged",
			"type": "event"
		},
		{
			"inputs": [],
			"name": "AUDITOR_ROLE",
			"outputs": [
				{
					"internalType": "bytes32",
					"name": "",
					"type": "bytes32"
				}
			],
			"stateMutability": "view",
			"type": "function"
		},
		{
			"inputs": [],
			"name": "DEFAULT_ADMIN_ROLE",
			"outputs": [
				{
					"internalType": "bytes32",
					"name": "",
					"type": "bytes32"
				}
			],
			"stateMutability": "view",
			"type": "function"
		},
		{
			"inputs": [
				{
					"internalType": "bytes32",
					"name": "role",
					"type": "bytes32"
				}
			],
			"name": "getRoleAdmin",
			"outputs": [
				{
					"internalType": "bytes32",
					"name": "",
					"type": "bytes32"
				}
			],
			"stateMutability": "view",
			"type": "function"
		},
		{
			"inputs": [
				{
					"internalType": "uint256",
					"name": "index",
					"type": "uint256"
				}
			],
			"name": "getTransaction",
			"outputs": [
				{
					"internalType": "address",
					"name": "sender",
					"type": "address"
				},
				{
					"internalType": "address",
					"name": "receiver",
					"type": "address"
				},
				{
					"internalType": "uint256",
					"name": "amount",
					"type": "uint256"
				},
				{
					"internalType": "uint256",
					"name": "timestamp",
					"type": "uint256"
				},
				{
					"internalType": "bytes",
					"name": "details",
					"type": "bytes"
				}
			],
			"stateMutability": "view",
			"type": "function"
		},
		{
			"inputs": [
				{
					"internalType": "address",
					"name": "account",
					"type": "address"
				}
			],
			"name": "grantAuditorRole",
			"outputs": [],
			"stateMutability": "nonpayable",
			"type": "function"
		},
		{
			"inputs": [
				{
					"internalType": "bytes32",
					"name": "role",
					"type": "bytes32"
				},
				{
					"internalType": "address",
					"name": "account",
					"type": "address"
				}
			],
			"name": "grantRole",
			"outputs": [],
			"stateMutability": "nonpayable",
			"type": "function"
		},
		{
			"inputs": [
				{
					"internalType": "address",
					"name": "account",
					"type": "address"
				}
			],
			"name": "hasAuditorRole",
			"outputs": [
				{
					"internalType": "bool",
					"name": "",
					"type": "bool"
				}
			],
			"stateMutability": "view",
			"type": "function"
		},
		{
			"inputs": [
				{
					"internalType": "bytes32",
					"name": "role",
					"type": "bytes32"
				},
				{
					"internalType": "address",
					"name": "account",
					"type": "address"
				}
			],
			"name": "hasRole",
			"outputs": [
				{
					"internalType": "bool",
					"name": "",
					"type": "bool"
				}
			],
			"stateMutability": "view",
			"type": "function"
		},
		{
			"inputs": [
				{
					"internalType": "address",
					"name": "receiver",
					"type": "address"
				},
				{
					"internalType": "uint256",
					"name": "amount",
					"type": "uint256"
				},
				{
					"internalType": "bytes",
					"name": "details",
					"type": "bytes"
				}
			],
			"name": "logTransaction",
			"outputs": [],
			"stateMutability": "nonpayable",
			"type": "function"
		},
		{
			"inputs": [
				{
					"internalType": "bytes32",
					"name": "role",
					"type": "bytes32"
				},
				{
					"internalType": "address",
					"name": "callerConfirmation",
					"type": "address"
				}
			],
			"name": "renounceRole",
			"outputs": [],
			"stateMutability": "nonpayable",
			"type": "function"
		},
		{
			"inputs": [
				{
					"internalType": "address",
					"name": "account",
					"type": "address"
				}
			],
			"name": "revokeAuditorRole",
			"outputs": [],
			"stateMutability": "nonpayable",
			"type": "function"
		},
		{
			"inputs": [
				{
					"internalType": "bytes32",
					"name": "role",
					"type": "bytes32"
				},
				{
					"internalType": "address",
					"name": "account",
					"type": "address"
				}
			],
			"name": "revokeRole",
			"outputs": [],
			"stateMutability": "nonpayable",
			"type": "function"
		},
		{
			"inputs": [
				{
					"internalType": "bytes4",
					"name": "interfaceId",
					"type": "bytes4"
				}
			],
			"name": "supportsInterface",
			"outputs": [
				{
					"internalType": "bool",
					"name": "",
					"type": "bool"
				}
			],
			"stateMutability": "view",
			"type": "function"
		}
	]
}