{
  "contractName": "AchievementsBadges",
  "abi": [
    {
      "anonymous": false,
      "inputs": [
        {
          "indexed": true,
          "internalType": "address",
          "name": "user",
          "type": "address"
        },
        {
          "indexed": false,
          "internalType": "string",
          "name": "achievement",
          "type": "string"
        }
      ],
      "name": "AchievementUnlocked",
      "type": "event"
    },
    {
      "inputs": [
        {
          "internalType": "address",
          "name": "",
          "type": "address"
        },
        {
          "internalType": "uint256",
          "name": "",
          "type": "uint256"
        }
      ],
      "name": "achievements",
      "outputs": [
        {
          "internalType": "string",
          "name": "",
          "type": "string"
        }
      ],
      "stateMutability": "view",
      "type": "function"
    },
    {
      "inputs": [
        {
          "internalType": "address",
          "name": "user",
          "type": "address"
        },
        {
          "internalType": "string",
          "name": "achievement",
          "type": "string"
        }
      ],
      "name": "unlockAchievement",
      "outputs": [],
      "stateMutability": "nonpayable",
      "type": "function"
    },
    {
      "inputs": [
        {
          "internalType": "address",
          "name": "user",
          "type": "address"
        }
      ],
      "name": "getAchievements",
      "outputs": [
        {
          "internalType": "string[]",
          "name": "",
          "type": "string[]"
        }
      ],
      "stateMutability": "view",
      "type": "function"
    }
  ],
  "bytecode": "0x6080604052348015600e575f80fd5b50610a7c8061001c5f395ff3fe608060405234801561000f575f80fd5b506004361061003f575f3560e01c806316064572146100435780638ef578f61461005f578063bf882e731461008f575b5f80fd5b61005d600480360381019061005891906104e4565b6100bf565b005b6100796004803603810190610074919061053e565b61017d565b6040516100869190610684565b60405180910390f35b6100a960048036038101906100a491906106d7565b61028d565b6040516100b6919061075d565b60405180910390f35b5f808373ffffffffffffffffffffffffffffffffffffffff1673ffffffffffffffffffffffffffffffffffffffff1681526020019081526020015f2081908060018154018082558091505060019003905f5260205f20015f90919091909150908161012a9190610977565b508173ffffffffffffffffffffffffffffffffffffffff167fca8c9accce1ea9b1e88e76d666c26849f39052a6344521346b739cdd29ad4ae682604051610171919061075d565b60405180910390a25050565b60605f808373ffffffffffffffffffffffffffffffffffffffff1673ffffffffffffffffffffffffffffffffffffffff1681526020019081526020015f20805480602002602001604051908101604052809291908181526020015f905b82821015610282578382905f5260205f200180546101f7906107aa565b80601f0160208091040260200160405190810160405280929190818152602001828054610223906107aa565b801561026e5780601f106102455761010080835404028352916020019161026e565b820191905f5260205f20905b81548152906001019060200180831161025157829003601f168201915b5050505050815260200190600101906101da565b505050509050919050565b5f602052815f5260405f2081815481106102a5575f80fd5b905f5260205f20015f915091505080546102be906107aa565b80601f01602080910402602001604051908101604052809291908181526020018280546102ea906107aa565b80156103355780601f1061030c57610100808354040283529160200191610335565b820191905f5260205f20905b81548152906001019060200180831161031857829003601f168201915b505050505081565b5f604051905090565b5f80fd5b5f80fd5b5f73ffffffffffffffffffffffffffffffffffffffff82169050919050565b5f6103778261034e565b9050919050565b6103878161036d565b8114610391575f80fd5b50565b5f813590506103a28161037e565b92915050565b5f80fd5b5f80fd5b5f601f19601f8301169050919050565b7f4e487b71000000000000000000000000000000000000000000000000000000005f52604160045260245ffd5b6103f6826103b0565b810181811067ffffffffffffffff82111715610415576104146103c0565b5b80604052505050565b5f61042761033d565b905061043382826103ed565b919050565b5f67ffffffffffffffff821115610452576104516103c0565b5b61045b826103b0565b9050602081019050919050565b828183375f83830152505050565b5f61048861048384610438565b61041e565b9050828152602081018484840111156104a4576104a36103ac565b5b6104af848285610468565b509392505050565b5f82601f8301126104cb576104ca6103a8565b5b81356104db848260208601610476565b91505092915050565b5f80604083850312156104fa576104f9610346565b5b5f61050785828601610394565b925050602083013567ffffffffffffffff8111156105285761052761034a565b5b610534858286016104b7565b9150509250929050565b5f6020828403121561055357610552610346565b5b5f61056084828501610394565b91505092915050565b5f81519050919050565b5f82825260208201905092915050565b5f819050602082019050919050565b5f81519050919050565b5f82825260208201905092915050565b8281835e5f83830152505050565b5f6105c482610592565b6105ce818561059c565b93506105de8185602086016105ac565b6105e7816103b0565b840191505092915050565b5f6105fd83836105ba565b905092915050565b5f602082019050919050565b5f61061b82610569565b6106258185610573565b93508360208202850161063785610583565b805f5b85811015610672578484038952815161065385826105f2565b945061065e83610605565b925060208a0199505060018101905061063a565b50829750879550505050505092915050565b5f6020820190508181035f83015261069c8184610611565b905092915050565b5f819050919050565b6106b6816106a4565b81146106c0575f80fd5b50565b5f813590506106d1816106ad565b92915050565b5f80604083850312156106ed576106ec610346565b5b5f6106fa85828601610394565b925050602061070b858286016106c3565b9150509250929050565b5f82825260208201905092915050565b5f61072f82610592565b6107398185610715565b93506107498185602086016105ac565b610752816103b0565b840191505092915050565b5f6020820190508181035f8301526107758184610725565b905092915050565b7f4e487b71000000000000000000000000000000000000000000000000000000005f52602260045260245ffd5b5f60028204905060018216806107c157607f821691505b6020821081036107d4576107d361077d565b5b50919050565b5f819050815f5260205f209050919050565b5f6020601f8301049050919050565b5f82821b905092915050565b5f600883026108367fffffffffffffffffffffffffffffffffffffffffffffffffffffffffffffffff826107fb565b61084086836107fb565b95508019841693508086168417925050509392505050565b5f819050919050565b5f61087b610876610871846106a4565b610858565b6106a4565b9050919050565b5f819050919050565b61089483610861565b6108a86108a082610882565b848454610807565b825550505050565b5f90565b6108bc6108b0565b6108c781848461088b565b505050565b5b818110156108ea576108df5f826108b4565b6001810190506108cd565b5050565b601f82111561092f57610900816107da565b610909846107ec565b81016020851015610918578190505b61092c610924856107ec565b8301826108cc565b50505b505050565b5f82821c905092915050565b5f61094f5f1984600802610934565b1980831691505092915050565b5f6109678383610940565b9150826002028217905092915050565b61098082610592565b67ffffffffffffffff811115610999576109986103c0565b5b6109a382546107aa565b6109ae8282856108ee565b5f60209050601f8311600181146109df575f84156109cd578287015190505b6109d7858261095c565b865550610a3e565b601f1984166109ed866107da565b5f5b82811015610a14578489015182556001820191506020850194506020810190506109ef565b86831015610a315784890151610a2d601f891682610940565b8355505b6001600288020188555050505b50505050505056fea264697066735822122067c70bb60ad702753ebe982fce8f06ce72199767beb41e9b8cc59479885f53b564736f6c634300081a0033",
  "immutableReferences": {},
  "source": "// SPDX-License-Identifier: MIT\npragma solidity ^0.8.26;\n\ncontract AchievementsBadges {\n    mapping(address => string[]) public achievements;\n    event AchievementUnlocked(address indexed user, string achievement);\n\n    function unlockAchievement(address user, string memory achievement) external {\n        achievements[user].push(achievement);\n        emit AchievementUnlocked(user, achievement);\n    }\n\n    function getAchievements(address user) external view returns (string[] memory) {\n        return achievements[user];\n    }\n}\n",
  "sourcePath": "/home/arhan/BitThetaSecure/contracts/bitthetasecure/contracts/Gamification/AchievementsBadges.sol",
  "compiler": {
    "name": "solc",
    "version": "0.8.26+commit.8a97fa7a.Emscripten.clang"
  },
  "schemaVersion": "3.4.16",
  "updatedAt": "2024-07-19T19:01:04.808Z",
  "devdoc": {
    "kind": "dev",
    "methods": {},
    "version": 1
  },
  "userdoc": {
    "kind": "user",
    "methods": {},
    "version": 1
  }
}