{
  "contractName": "Analytics",
  "abi": [
    {
      "anonymous": false,
      "inputs": [
        {
          "indexed": true,
          "internalType": "address",
          "name": "user",
          "type": "address"
        },
        {
          "indexed": false,
          "internalType": "uint256",
          "name": "amount",
          "type": "uint256"
        }
      ],
      "name": "UsageRecorded",
      "type": "event"
    },
    {
      "inputs": [
        {
          "internalType": "address",
          "name": "",
          "type": "address"
        }
      ],
      "name": "dataUsage",
      "outputs": [
        {
          "internalType": "uint256",
          "name": "",
          "type": "uint256"
        }
      ],
      "stateMutability": "view",
      "type": "function"
    },
    {
      "inputs": [
        {
          "internalType": "address",
          "name": "user",
          "type": "address"
        },
        {
          "internalType": "uint256",
          "name": "amount",
          "type": "uint256"
        }
      ],
      "name": "recordUsage",
      "outputs": [],
      "stateMutability": "nonpayable",
      "type": "function"
    },
    {
      "inputs": [
        {
          "internalType": "address",
          "name": "user",
          "type": "address"
        }
      ],
      "name": "getUsage",
      "outputs": [
        {
          "internalType": "uint256",
          "name": "",
          "type": "uint256"
        }
      ],
      "stateMutability": "view",
      "type": "function"
    }
  ],
  "bytecode": "0x6080604052348015600e575f80fd5b506103748061001c5f395ff3fe608060405234801561000f575f80fd5b506004361061003f575f3560e01c806359b9b15e146100435780635be38fc0146100735780639b1ecf411461008f575b5f80fd5b61005d6004803603810190610058919061021a565b6100bf565b60405161006a919061025d565b60405180910390f35b61008d600480360381019061008891906102a0565b610104565b005b6100a960048036038101906100a4919061021a565b6101a8565b6040516100b6919061025d565b60405180910390f35b5f805f8373ffffffffffffffffffffffffffffffffffffffff1673ffffffffffffffffffffffffffffffffffffffff1681526020019081526020015f20549050919050565b805f808473ffffffffffffffffffffffffffffffffffffffff1673ffffffffffffffffffffffffffffffffffffffff1681526020019081526020015f205f82825461014f919061030b565b925050819055508173ffffffffffffffffffffffffffffffffffffffff167f37fb69d0c06f8ff57c3e929322e46a20c0d354fc372883b64e4f48da03e2f43b8260405161019c919061025d565b60405180910390a25050565b5f602052805f5260405f205f915090505481565b5f80fd5b5f73ffffffffffffffffffffffffffffffffffffffff82169050919050565b5f6101e9826101c0565b9050919050565b6101f9816101df565b8114610203575f80fd5b50565b5f81359050610214816101f0565b92915050565b5f6020828403121561022f5761022e6101bc565b5b5f61023c84828501610206565b91505092915050565b5f819050919050565b61025781610245565b82525050565b5f6020820190506102705f83018461024e565b92915050565b61027f81610245565b8114610289575f80fd5b50565b5f8135905061029a81610276565b92915050565b5f80604083850312156102b6576102b56101bc565b5b5f6102c385828601610206565b92505060206102d48582860161028c565b9150509250929050565b7f4e487b71000000000000000000000000000000000000000000000000000000005f52601160045260245ffd5b5f61031582610245565b915061032083610245565b9250828201905080821115610338576103376102de565b5b9291505056fea26469706673582212200122cb908302e4ab96dbefc0dc5fc4078b234c59474e80107f22e49b12c8b48664736f6c634300081a0033",
  "immutableReferences": {},
  "source": "// SPDX-License-Identifier: MIT\npragma solidity ^0.8.26;\n\ncontract Analytics {\n    mapping(address => uint256) public dataUsage;\n    event UsageRecorded(address indexed user, uint256 amount);\n\n    function recordUsage(address user, uint256 amount) external {\n        dataUsage[user] += amount;\n        emit UsageRecorded(user, amount);\n    }\n\n    function getUsage(address user) external view returns (uint256) {\n        return dataUsage[user];\n    }\n}\n",
  "sourcePath": "/home/arhan/BitThetaSecure/contracts/bitthetasecure/contracts/Analytics/Analytics.sol",
  "compiler": {
    "name": "solc",
    "version": "0.8.26+commit.8a97fa7a.Emscripten.clang"
  },
  "schemaVersion": "3.4.16",
  "updatedAt": "2024-07-19T19:01:04.796Z",
  "devdoc": {
    "kind": "dev",
    "methods": {},
    "version": 1
  },
  "userdoc": {
    "kind": "user",
    "methods": {},
    "version": 1
  }
}