{
  "contractName": "ChallengesContests",
  "abi": [
    {
      "anonymous": false,
      "inputs": [
        {
          "indexed": true,
          "internalType": "address",
          "name": "user",
          "type": "address"
        },
        {
          "indexed": false,
          "internalType": "uint256",
          "name": "points",
          "type": "uint256"
        }
      ],
      "name": "ChallengeCompleted",
      "type": "event"
    },
    {
      "inputs": [
        {
          "internalType": "address",
          "name": "",
          "type": "address"
        }
      ],
      "name": "challengePoints",
      "outputs": [
        {
          "internalType": "uint256",
          "name": "",
          "type": "uint256"
        }
      ],
      "stateMutability": "view",
      "type": "function"
    },
    {
      "inputs": [
        {
          "internalType": "address",
          "name": "user",
          "type": "address"
        },
        {
          "internalType": "uint256",
          "name": "points",
          "type": "uint256"
        }
      ],
      "name": "completeChallenge",
      "outputs": [],
      "stateMutability": "nonpayable",
      "type": "function"
    },
    {
      "inputs": [
        {
          "internalType": "address",
          "name": "user",
          "type": "address"
        }
      ],
      "name": "getChallengePoints",
      "outputs": [
        {
          "internalType": "uint256",
          "name": "",
          "type": "uint256"
        }
      ],
      "stateMutability": "view",
      "type": "function"
    }
  ],
  "bytecode": "0x6080604052348015600e575f80fd5b506103748061001c5f395ff3fe608060405234801561000f575f80fd5b506004361061003f575f3560e01c80636e9b992514610043578063892a20791461005f578063e5edbbf81461008f575b5f80fd5b61005d6004803603810190610058919061024d565b6100bf565b005b6100796004803603810190610074919061028b565b610163565b60405161008691906102c5565b60405180910390f35b6100a960048036038101906100a4919061028b565b610177565b6040516100b691906102c5565b60405180910390f35b805f808473ffffffffffffffffffffffffffffffffffffffff1673ffffffffffffffffffffffffffffffffffffffff1681526020019081526020015f205f82825461010a919061030b565b925050819055508173ffffffffffffffffffffffffffffffffffffffff167f57213678a1941131f1846559e4f0509e68d1a52c4d05bf0c3e8514c7a00b5d0b8260405161015791906102c5565b60405180910390a25050565b5f602052805f5260405f205f915090505481565b5f805f8373ffffffffffffffffffffffffffffffffffffffff1673ffffffffffffffffffffffffffffffffffffffff1681526020019081526020015f20549050919050565b5f80fd5b5f73ffffffffffffffffffffffffffffffffffffffff82169050919050565b5f6101e9826101c0565b9050919050565b6101f9816101df565b8114610203575f80fd5b50565b5f81359050610214816101f0565b92915050565b5f819050919050565b61022c8161021a565b8114610236575f80fd5b50565b5f8135905061024781610223565b92915050565b5f8060408385031215610263576102626101bc565b5b5f61027085828601610206565b925050602061028185828601610239565b9150509250929050565b5f602082840312156102a05761029f6101bc565b5b5f6102ad84828501610206565b91505092915050565b6102bf8161021a565b82525050565b5f6020820190506102d85f8301846102b6565b92915050565b7f4e487b71000000000000000000000000000000000000000000000000000000005f52601160045260245ffd5b5f6103158261021a565b91506103208361021a565b9250828201905080821115610338576103376102de565b5b9291505056fea2646970667358221220d26dcc3d8ef9474a4c11130295dd687768b6f580aebfe0befa4f13f697bf352e64736f6c634300081a0033",
  "immutableReferences": {},
  "source": "// SPDX-License-Identifier: MIT\npragma solidity ^0.8.26;\n\ncontract ChallengesContests {\n    mapping(address => uint256) public challengePoints;\n    event ChallengeCompleted(address indexed user, uint256 points);\n\n    function completeChallenge(address user, uint256 points) external {\n        challengePoints[user] += points;\n        emit ChallengeCompleted(user, points);\n    }\n\n    function getChallengePoints(address user) external view returns (uint256) {\n        return challengePoints[user];\n    }\n}\n",
  "sourcePath": "/home/arhan/BitThetaSecure/contracts/bitthetasecure/contracts/Gamification/ChallengesContests.sol",
  "compiler": {
    "name": "solc",
    "version": "0.8.26+commit.8a97fa7a.Emscripten.clang"
  },
  "schemaVersion": "3.4.16",
  "updatedAt": "2024-07-19T19:01:04.810Z",
  "devdoc": {
    "kind": "dev",
    "methods": {},
    "version": 1
  },
  "userdoc": {
    "kind": "user",
    "methods": {},
    "version": 1
  }
}