{
  "contractName": "CommunityChannels",
  "abi": [
    {
      "anonymous": false,
      "inputs": [
        {
          "indexed": true,
          "internalType": "string",
          "name": "channelName",
          "type": "string"
        }
      ],
      "name": "ChannelCreated",
      "type": "event"
    },
    {
      "anonymous": false,
      "inputs": [
        {
          "indexed": true,
          "internalType": "string",
          "name": "channelName",
          "type": "string"
        },
        {
          "indexed": false,
          "internalType": "address",
          "name": "user",
          "type": "address"
        }
      ],
      "name": "UserJoinedChannel",
      "type": "event"
    },
    {
      "inputs": [
        {
          "internalType": "string",
          "name": "",
          "type": "string"
        },
        {
          "internalType": "uint256",
          "name": "",
          "type": "uint256"
        }
      ],
      "name": "channels",
      "outputs": [
        {
          "internalType": "address",
          "name": "",
          "type": "address"
        }
      ],
      "stateMutability": "view",
      "type": "function"
    },
    {
      "inputs": [
        {
          "internalType": "string",
          "name": "channelName",
          "type": "string"
        }
      ],
      "name": "createChannel",
      "outputs": [],
      "stateMutability": "nonpayable",
      "type": "function"
    },
    {
      "inputs": [
        {
          "internalType": "string",
          "name": "channelName",
          "type": "string"
        }
      ],
      "name": "joinChannel",
      "outputs": [],
      "stateMutability": "nonpayable",
      "type": "function"
    }
  ],
  "bytecode": "0x6080604052348015600e575f80fd5b506105ac8061001c5f395ff3fe608060405234801561000f575f80fd5b506004361061003f575f3560e01c80632949411a14610043578063734f15f814610073578063cb6af4cb1461008f575b5f80fd5b61005d60048036038101906100589190610415565b6100ab565b60405161006a91906104ae565b60405180910390f35b61008d600480360381019061008891906104c7565b61010a565b005b6100a960048036038101906100a491906104c7565b6101d5565b005b5f8280516020810182018051848252602083016020850120818352809550505050505081815481106100db575f80fd5b905f5260205f20015f915091509054906101000a900473ffffffffffffffffffffffffffffffffffffffff1681565b5f816040516101199190610560565b908152602001604051809103902033908060018154018082558091505060019003905f5260205f20015f9091909190916101000a81548173ffffffffffffffffffffffffffffffffffffffff021916908373ffffffffffffffffffffffffffffffffffffffff160217905550806040516101939190610560565b60405180910390207f536a7ffeeecbb8b5e023d5f53c8beb21b8e0d0ffe0c0da6f8fe7e5c24ca2b3d3336040516101ca91906104ae565b60405180910390a250565b5f816040516101e49190610560565b908152602001604051809103902033908060018154018082558091505060019003905f5260205f20015f9091909190916101000a81548173ffffffffffffffffffffffffffffffffffffffff021916908373ffffffffffffffffffffffffffffffffffffffff1602179055508060405161025e9190610560565b60405180910390207fcf3bc676593dbd38dcb2832540b70f009982838d486233f971ebd306a79b27af60405160405180910390a250565b5f604051905090565b5f80fd5b5f80fd5b5f80fd5b5f80fd5b5f601f19601f8301169050919050565b7f4e487b71000000000000000000000000000000000000000000000000000000005f52604160045260245ffd5b6102f4826102ae565b810181811067ffffffffffffffff82111715610313576103126102be565b5b80604052505050565b5f610325610295565b905061033182826102eb565b919050565b5f67ffffffffffffffff8211156103505761034f6102be565b5b610359826102ae565b9050602081019050919050565b828183375f83830152505050565b5f61038661038184610336565b61031c565b9050828152602081018484840111156103a2576103a16102aa565b5b6103ad848285610366565b509392505050565b5f82601f8301126103c9576103c86102a6565b5b81356103d9848260208601610374565b91505092915050565b5f819050919050565b6103f4816103e2565b81146103fe575f80fd5b50565b5f8135905061040f816103eb565b92915050565b5f806040838503121561042b5761042a61029e565b5b5f83013567ffffffffffffffff811115610448576104476102a2565b5b610454858286016103b5565b925050602061046585828601610401565b9150509250929050565b5f73ffffffffffffffffffffffffffffffffffffffff82169050919050565b5f6104988261046f565b9050919050565b6104a88161048e565b82525050565b5f6020820190506104c15f83018461049f565b92915050565b5f602082840312156104dc576104db61029e565b5b5f82013567ffffffffffffffff8111156104f9576104f86102a2565b5b610505848285016103b5565b91505092915050565b5f81519050919050565b5f81905092915050565b8281835e5f83830152505050565b5f61053a8261050e565b6105448185610518565b9350610554818560208601610522565b80840191505092915050565b5f61056b8284610530565b91508190509291505056fea2646970667358221220ce70dd1a3b81c522f6bdea4f01c48bfca510092891cc7cfa1d85df474b3780a964736f6c634300081a0033",
  "immutableReferences": {},
  "source": "// SPDX-License-Identifier: MIT\npragma solidity ^0.8.26;\n\ncontract CommunityChannels {\n    mapping(string => address[]) public channels;\n    event ChannelCreated(string indexed channelName);\n    event UserJoinedChannel(string indexed channelName, address user);\n\n    function createChannel(string memory channelName) external {\n        channels[channelName].push(msg.sender);\n        emit ChannelCreated(channelName);\n    }\n\n    function joinChannel(string memory channelName) external {\n        channels[channelName].push(msg.sender);\n        emit UserJoinedChannel(channelName, msg.sender);\n    }\n}\n",
  "sourcePath": "/home/arhan/BitThetaSecure/contracts/bitthetasecure/contracts/Community/CommunityChannels.sol",
  "compiler": {
    "name": "solc",
    "version": "0.8.26+commit.8a97fa7a.Emscripten.clang"
  },
  "schemaVersion": "3.4.16",
  "updatedAt": "2024-07-19T19:01:04.798Z",
  "devdoc": {
    "kind": "dev",
    "methods": {},
    "version": 1
  },
  "userdoc": {
    "kind": "user",
    "methods": {},
    "version": 1
  }
}