{
  "contractName": "CrossChainTransfers",
  "abi": [
    {
      "anonymous": false,
      "inputs": [
        {
          "indexed": true,
          "internalType": "address",
          "name": "from",
          "type": "address"
        },
        {
          "indexed": true,
          "internalType": "address",
          "name": "to",
          "type": "address"
        },
        {
          "indexed": false,
          "internalType": "uint256",
          "name": "amount",
          "type": "uint256"
        },
        {
          "indexed": false,
          "internalType": "string",
          "name": "targetChain",
          "type": "string"
        }
      ],
      "name": "CrossChainTransferInitiated",
      "type": "event"
    },
    {
      "inputs": [
        {
          "internalType": "address",
          "name": "to",
          "type": "address"
        },
        {
          "internalType": "uint256",
          "name": "amount",
          "type": "uint256"
        },
        {
          "internalType": "string",
          "name": "targetChain",
          "type": "string"
        }
      ],
      "name": "transferToOtherChain",
      "outputs": [],
      "stateMutability": "nonpayable",
      "type": "function"
    }
  ],
  "bytecode": "0x6080604052348015600e575f80fd5b5061046e8061001c5f395ff3fe608060405234801561000f575f80fd5b5060043610610029575f3560e01c80633aa9c67b1461002d575b5f80fd5b610047600480360381019061004291906102f9565b610049565b005b5f8073ffffffffffffffffffffffffffffffffffffffff1663a9059cbb85856040518363ffffffff1660e01b8152600401610085929190610383565b5f604051808303815f87803b15801561009c575f80fd5b505af11580156100ae573d5f803e3d5ffd5b505050508373ffffffffffffffffffffffffffffffffffffffff163373ffffffffffffffffffffffffffffffffffffffff167f59dd583cbcda9e9cf539498a9114ed20568f9800fe492a6e58ddd44a7494f472858560405161011192919061040a565b60405180910390a350505050565b5f604051905090565b5f80fd5b5f80fd5b5f73ffffffffffffffffffffffffffffffffffffffff82169050919050565b5f61015982610130565b9050919050565b6101698161014f565b8114610173575f80fd5b50565b5f8135905061018481610160565b92915050565b5f819050919050565b61019c8161018a565b81146101a6575f80fd5b50565b5f813590506101b781610193565b92915050565b5f80fd5b5f80fd5b5f601f19601f8301169050919050565b7f4e487b71000000000000000000000000000000000000000000000000000000005f52604160045260245ffd5b61020b826101c5565b810181811067ffffffffffffffff8211171561022a576102296101d5565b5b80604052505050565b5f61023c61011f565b90506102488282610202565b919050565b5f67ffffffffffffffff821115610267576102666101d5565b5b610270826101c5565b9050602081019050919050565b828183375f83830152505050565b5f61029d6102988461024d565b610233565b9050828152602081018484840111156102b9576102b86101c1565b5b6102c484828561027d565b509392505050565b5f82601f8301126102e0576102df6101bd565b5b81356102f084826020860161028b565b91505092915050565b5f805f606084860312156103105761030f610128565b5b5f61031d86828701610176565b935050602061032e868287016101a9565b925050604084013567ffffffffffffffff81111561034f5761034e61012c565b5b61035b868287016102cc565b9150509250925092565b61036e8161014f565b82525050565b61037d8161018a565b82525050565b5f6040820190506103965f830185610365565b6103a36020830184610374565b9392505050565b5f81519050919050565b5f82825260208201905092915050565b8281835e5f83830152505050565b5f6103dc826103aa565b6103e681856103b4565b93506103f68185602086016103c4565b6103ff816101c5565b840191505092915050565b5f60408201905061041d5f830185610374565b818103602083015261042f81846103d2565b9050939250505056fea2646970667358221220b29b32d14489e080e30ef8741ed089e60492937578c9894f800a0b501561dc4064736f6c634300081a0033",
  "immutableReferences": {},
  "source": "// SPDX-License-Identifier: MIT\npragma solidity ^0.8.26;\n\ninterface ICrossChain {\n    function transfer(address to, uint256 amount) external;\n}\n\ncontract CrossChainTransfers {\n    event CrossChainTransferInitiated(address indexed from, address indexed to, uint256 amount, string targetChain);\n\n    function transferToOtherChain(address to, uint256 amount, string memory targetChain) external {\n        ICrossChain crossChainManager = ICrossChain(address(0)); // Replace with actual address\n        crossChainManager.transfer(to, amount);\n        emit CrossChainTransferInitiated(msg.sender, to, amount, targetChain);\n    }\n}\n",
  "sourcePath": "/home/arhan/BitThetaSecure/contracts/bitthetasecure/contracts/CrossChain/CrossChainTransfers.sol",
  "compiler": {
    "name": "solc",
    "version": "0.8.26+commit.8a97fa7a.Emscripten.clang"
  },
  "schemaVersion": "3.4.16",
  "updatedAt": "2024-07-19T19:01:04.799Z",
  "devdoc": {
    "kind": "dev",
    "methods": {},
    "version": 1
  },
  "userdoc": {
    "kind": "user",
    "methods": {},
    "version": 1
  }
}