{
  "contractName": "DIDIntegration",
  "abi": [
    {
      "anonymous": false,
      "inputs": [
        {
          "indexed": true,
          "internalType": "address",
          "name": "user",
          "type": "address"
        },
        {
          "indexed": false,
          "internalType": "string",
          "name": "did",
          "type": "string"
        }
      ],
      "name": "DIDRegistered",
      "type": "event"
    },
    {
      "inputs": [
        {
          "internalType": "address",
          "name": "",
          "type": "address"
        }
      ],
      "name": "didRegistry",
      "outputs": [
        {
          "internalType": "string",
          "name": "",
          "type": "string"
        }
      ],
      "stateMutability": "view",
      "type": "function"
    },
    {
      "inputs": [
        {
          "internalType": "string",
          "name": "did",
          "type": "string"
        }
      ],
      "name": "registerDID",
      "outputs": [],
      "stateMutability": "nonpayable",
      "type": "function"
    },
    {
      "inputs": [
        {
          "internalType": "address",
          "name": "user",
          "type": "address"
        }
      ],
      "name": "getDID",
      "outputs": [
        {
          "internalType": "string",
          "name": "",
          "type": "string"
        }
      ],
      "stateMutability": "view",
      "type": "function"
    }
  ],
  "bytecode": "0x6080604052348015600e575f80fd5b506108278061001c5f395ff3fe608060405234801561000f575f80fd5b506004361061003f575f3560e01c80631775df0914610043578063570810e214610073578063f64e30b01461008f575b5f80fd5b61005d60048036038101906100589190610327565b6100bf565b60405161006a91906103c2565b60405180910390f35b61008d60048036038101906100889190610443565b610159565b005b6100a960048036038101906100a49190610327565b6101f9565b6040516100b691906103c2565b60405180910390f35b5f602052805f5260405f205f9150905080546100da906104bb565b80601f0160208091040260200160405190810160405280929190818152602001828054610106906104bb565b80156101515780601f1061012857610100808354040283529160200191610151565b820191905f5260205f20905b81548152906001019060200180831161013457829003601f168201915b505050505081565b81815f803373ffffffffffffffffffffffffffffffffffffffff1673ffffffffffffffffffffffffffffffffffffffff1681526020019081526020015f2091826101a49291906106c8565b503373ffffffffffffffffffffffffffffffffffffffff167fbfab59a7af78dfc896c3096604749fcee2db2e850297de42de5e6369f54bd3fb83836040516101ed9291906107cf565b60405180910390a25050565b60605f808373ffffffffffffffffffffffffffffffffffffffff1673ffffffffffffffffffffffffffffffffffffffff1681526020019081526020015f208054610242906104bb565b80601f016020809104026020016040519081016040528092919081815260200182805461026e906104bb565b80156102b95780601f10610290576101008083540402835291602001916102b9565b820191905f5260205f20905b81548152906001019060200180831161029c57829003601f168201915b50505050509050919050565b5f80fd5b5f80fd5b5f73ffffffffffffffffffffffffffffffffffffffff82169050919050565b5f6102f6826102cd565b9050919050565b610306816102ec565b8114610310575f80fd5b50565b5f81359050610321816102fd565b92915050565b5f6020828403121561033c5761033b6102c5565b5b5f61034984828501610313565b91505092915050565b5f81519050919050565b5f82825260208201905092915050565b8281835e5f83830152505050565b5f601f19601f8301169050919050565b5f61039482610352565b61039e818561035c565b93506103ae81856020860161036c565b6103b78161037a565b840191505092915050565b5f6020820190508181035f8301526103da818461038a565b905092915050565b5f80fd5b5f80fd5b5f80fd5b5f8083601f840112610403576104026103e2565b5b8235905067ffffffffffffffff8111156104205761041f6103e6565b5b60208301915083600182028301111561043c5761043b6103ea565b5b9250929050565b5f8060208385031215610459576104586102c5565b5b5f83013567ffffffffffffffff811115610476576104756102c9565b5b610482858286016103ee565b92509250509250929050565b7f4e487b71000000000000000000000000000000000000000000000000000000005f52602260045260245ffd5b5f60028204905060018216806104d257607f821691505b6020821081036104e5576104e461048e565b5b50919050565b5f82905092915050565b7f4e487b71000000000000000000000000000000000000000000000000000000005f52604160045260245ffd5b5f819050815f5260205f209050919050565b5f6020601f8301049050919050565b5f82821b905092915050565b5f6008830261057e7fffffffffffffffffffffffffffffffffffffffffffffffffffffffffffffffff82610543565b6105888683610543565b95508019841693508086168417925050509392505050565b5f819050919050565b5f819050919050565b5f6105cc6105c76105c2846105a0565b6105a9565b6105a0565b9050919050565b5f819050919050565b6105e5836105b2565b6105f96105f1826105d3565b84845461054f565b825550505050565b5f90565b61060d610601565b6106188184846105dc565b505050565b5b8181101561063b576106305f82610605565b60018101905061061e565b5050565b601f8211156106805761065181610522565b61065a84610534565b81016020851015610669578190505b61067d61067585610534565b83018261061d565b50505b505050565b5f82821c905092915050565b5f6106a05f1984600802610685565b1980831691505092915050565b5f6106b88383610691565b9150826002028217905092915050565b6106d283836104eb565b67ffffffffffffffff8111156106eb576106ea6104f5565b5b6106f582546104bb565b61070082828561063f565b5f601f83116001811461072d575f841561071b578287013590505b61072585826106ad565b86555061078c565b601f19841661073b86610522565b5f5b828110156107625784890135825560018201915060208501945060208101905061073d565b8683101561077f578489013561077b601f891682610691565b8355505b6001600288020188555050505b50505050505050565b828183375f83830152505050565b5f6107ae838561035c565b93506107bb838584610795565b6107c48361037a565b840190509392505050565b5f6020820190508181035f8301526107e88184866107a3565b9050939250505056fea26469706673582212200b8750a79621cebb2b7b2cca674020d6f2f6f23cacd19c0374730ed468f2b60b64736f6c634300081a0033",
  "immutableReferences": {},
  "source": "// SPDX-License-Identifier: MIT\npragma solidity ^0.8.26;\n\ncontract DIDIntegration {\n    mapping(address => string) public didRegistry;\n    event DIDRegistered(address indexed user, string did);\n\n    function registerDID(string calldata did) external {\n        didRegistry[msg.sender] = did;\n        emit DIDRegistered(msg.sender, did);\n    }\n\n    function getDID(address user) external view returns (string memory) {\n        return didRegistry[user];\n    }\n}\n",
  "sourcePath": "/home/arhan/BitThetaSecure/contracts/bitthetasecure/contracts/Identity/DIDIntegration.sol",
  "compiler": {
    "name": "solc",
    "version": "0.8.26+commit.8a97fa7a.Emscripten.clang"
  },
  "schemaVersion": "3.4.16",
  "updatedAt": "2024-07-19T19:01:04.810Z",
  "devdoc": {
    "kind": "dev",
    "methods": {},
    "version": 1
  },
  "userdoc": {
    "kind": "user",
    "methods": {},
    "version": 1
  }
}