{
  "contractName": "FileSharingIncentives",
  "abi": [
    {
      "anonymous": false,
      "inputs": [
        {
          "indexed": true,
          "internalType": "address",
          "name": "user",
          "type": "address"
        },
        {
          "indexed": false,
          "internalType": "uint256",
          "name": "amount",
          "type": "uint256"
        }
      ],
      "name": "RewardGiven",
      "type": "event"
    },
    {
      "inputs": [
        {
          "internalType": "address",
          "name": "",
          "type": "address"
        }
      ],
      "name": "rewards",
      "outputs": [
        {
          "internalType": "uint256",
          "name": "",
          "type": "uint256"
        }
      ],
      "stateMutability": "view",
      "type": "function"
    },
    {
      "inputs": [
        {
          "internalType": "address",
          "name": "user",
          "type": "address"
        },
        {
          "internalType": "uint256",
          "name": "amount",
          "type": "uint256"
        }
      ],
      "name": "rewardUser",
      "outputs": [],
      "stateMutability": "nonpayable",
      "type": "function"
    },
    {
      "inputs": [],
      "name": "claimRewards",
      "outputs": [],
      "stateMutability": "nonpayable",
      "type": "function"
    }
  ],
  "bytecode": "0x6080604052348015600e575f80fd5b506104478061001c5f395ff3fe608060405234801561000f575f80fd5b506004361061003f575f3560e01c80630700037d14610043578063372500ab14610073578063e4e103dc1461007d575b5f80fd5b61005d60048036038101906100589190610275565b610099565b60405161006a91906102b8565b60405180910390f35b61007b6100ad565b005b610097600480360381019061009291906102fb565b610173565b005b5f602052805f5260405f205f915090505481565b5f805f3373ffffffffffffffffffffffffffffffffffffffff1673ffffffffffffffffffffffffffffffffffffffff1681526020019081526020015f205490505f811161012f576040517f08c379a000000000000000000000000000000000000000000000000000000000815260040161012690610393565b60405180910390fd5b5f805f3373ffffffffffffffffffffffffffffffffffffffff1673ffffffffffffffffffffffffffffffffffffffff1681526020019081526020015f208190555050565b805f808473ffffffffffffffffffffffffffffffffffffffff1673ffffffffffffffffffffffffffffffffffffffff1681526020019081526020015f205f8282546101be91906103de565b925050819055508173ffffffffffffffffffffffffffffffffffffffff167f3ad0c8d1bbd63d54c5f14180eae95cab7c2420b2dbb90603a6e5d206668f52ec8260405161020b91906102b8565b60405180910390a25050565b5f80fd5b5f73ffffffffffffffffffffffffffffffffffffffff82169050919050565b5f6102448261021b565b9050919050565b6102548161023a565b811461025e575f80fd5b50565b5f8135905061026f8161024b565b92915050565b5f6020828403121561028a57610289610217565b5b5f61029784828501610261565b91505092915050565b5f819050919050565b6102b2816102a0565b82525050565b5f6020820190506102cb5f8301846102a9565b92915050565b6102da816102a0565b81146102e4575f80fd5b50565b5f813590506102f5816102d1565b92915050565b5f806040838503121561031157610310610217565b5b5f61031e85828601610261565b925050602061032f858286016102e7565b9150509250929050565b5f82825260208201905092915050565b7f4e6f207265776172647320746f20636c61696d000000000000000000000000005f82015250565b5f61037d601383610339565b915061038882610349565b602082019050919050565b5f6020820190508181035f8301526103aa81610371565b9050919050565b7f4e487b71000000000000000000000000000000000000000000000000000000005f52601160045260245ffd5b5f6103e8826102a0565b91506103f3836102a0565b925082820190508082111561040b5761040a6103b1565b5b9291505056fea2646970667358221220f2b6ce3129450c8d6c8ca2d8e5540bb02ec80aa999bda29906787b3d2ea7525f64736f6c634300081a0033",
  "immutableReferences": {},
  "source": "// SPDX-License-Identifier: MIT\npragma solidity ^0.8.26;\n\ncontract FileSharingIncentives {\n    mapping(address => uint256) public rewards;\n    event RewardGiven(address indexed user, uint256 amount);\n\n    function rewardUser(address user, uint256 amount) external {\n        rewards[user] += amount;\n        emit RewardGiven(user, amount);\n    }\n\n    function claimRewards() external {\n        uint256 reward = rewards[msg.sender];\n        require(reward > 0, \"No rewards to claim\");\n        rewards[msg.sender] = 0;\n        // Transfer tokens logic\n    }\n}\n",
  "sourcePath": "/home/arhan/BitThetaSecure/contracts/bitthetasecure/contracts/Incentives/FileSharingIncentives.sol",
  "compiler": {
    "name": "solc",
    "version": "0.8.26+commit.8a97fa7a.Emscripten.clang"
  },
  "schemaVersion": "3.4.16",
  "updatedAt": "2024-07-19T19:01:04.811Z",
  "devdoc": {
    "kind": "dev",
    "methods": {},
    "version": 1
  },
  "userdoc": {
    "kind": "user",
    "methods": {},
    "version": 1
  }
}