{
  "contractName": "OnDemandContent",
  "abi": [
    {
      "anonymous": false,
      "inputs": [
        {
          "indexed": true,
          "internalType": "address",
          "name": "user",
          "type": "address"
        },
        {
          "indexed": false,
          "internalType": "string",
          "name": "contentId",
          "type": "string"
        },
        {
          "indexed": false,
          "internalType": "uint256",
          "name": "amount",
          "type": "uint256"
        }
      ],
      "name": "ContentMonetized",
      "type": "event"
    },
    {
      "anonymous": false,
      "inputs": [
        {
          "indexed": true,
          "internalType": "address",
          "name": "user",
          "type": "address"
        },
        {
          "indexed": false,
          "internalType": "string",
          "name": "contentId",
          "type": "string"
        }
      ],
      "name": "ContentUploaded",
      "type": "event"
    },
    {
      "inputs": [
        {
          "internalType": "string",
          "name": "contentId",
          "type": "string"
        }
      ],
      "name": "uploadContent",
      "outputs": [],
      "stateMutability": "nonpayable",
      "type": "function"
    },
    {
      "inputs": [
        {
          "internalType": "string",
          "name": "contentId",
          "type": "string"
        },
        {
          "internalType": "uint256",
          "name": "amount",
          "type": "uint256"
        }
      ],
      "name": "monetizeContent",
      "outputs": [],
      "stateMutability": "nonpayable",
      "type": "function"
    }
  ],
  "bytecode": "0x6080604052348015600e575f80fd5b506104298061001c5f395ff3fe608060405234801561000f575f80fd5b5060043610610034575f3560e01c80630bb953b314610038578063be74cf5a14610054575b5f80fd5b610052600480360381019061004d9190610295565b610070565b005b61006e600480360381019061006991906102ef565b6100c4565b005b3373ffffffffffffffffffffffffffffffffffffffff167f93c8be84c19a15f78dd8bf2752c3aef1357c0f601badc4a68fa1292d4088db4683836040516100b89291906103a5565b60405180910390a25050565b3373ffffffffffffffffffffffffffffffffffffffff167f9be9ef56a95e3010a36ef2c15f7fdc45ecc0c0de2948eb36465cd91b6fb98eb88260405161010a91906103d3565b60405180910390a250565b5f604051905090565b5f80fd5b5f80fd5b5f80fd5b5f80fd5b5f601f19601f8301169050919050565b7f4e487b71000000000000000000000000000000000000000000000000000000005f52604160045260245ffd5b6101748261012e565b810181811067ffffffffffffffff821117156101935761019261013e565b5b80604052505050565b5f6101a5610115565b90506101b1828261016b565b919050565b5f67ffffffffffffffff8211156101d0576101cf61013e565b5b6101d98261012e565b9050602081019050919050565b828183375f83830152505050565b5f610206610201846101b6565b61019c565b9050828152602081018484840111156102225761022161012a565b5b61022d8482856101e6565b509392505050565b5f82601f83011261024957610248610126565b5b81356102598482602086016101f4565b91505092915050565b5f819050919050565b61027481610262565b811461027e575f80fd5b50565b5f8135905061028f8161026b565b92915050565b5f80604083850312156102ab576102aa61011e565b5b5f83013567ffffffffffffffff8111156102c8576102c7610122565b5b6102d485828601610235565b92505060206102e585828601610281565b9150509250929050565b5f602082840312156103045761030361011e565b5b5f82013567ffffffffffffffff81111561032157610320610122565b5b61032d84828501610235565b91505092915050565b5f81519050919050565b5f82825260208201905092915050565b8281835e5f83830152505050565b5f61036882610336565b6103728185610340565b9350610382818560208601610350565b61038b8161012e565b840191505092915050565b61039f81610262565b82525050565b5f6040820190508181035f8301526103bd818561035e565b90506103cc6020830184610396565b9392505050565b5f6020820190508181035f8301526103eb818461035e565b90509291505056fea26469706673582212201a8898a7fa67196ff46d7b655deb157db481a413fa267024f806a068196c973264736f6c634300081a0033",
  "immutableReferences": {},
  "source": "// SPDX-License-Identifier: MIT\npragma solidity ^0.8.26;\n\ncontract OnDemandContent {\n    event ContentUploaded(address indexed user, string contentId);\n    event ContentMonetized(address indexed user, string contentId, uint256 amount);\n\n    function uploadContent(string memory contentId) external {\n        emit ContentUploaded(msg.sender, contentId);\n    }\n\n    function monetizeContent(string memory contentId, uint256 amount) external {\n        emit ContentMonetized(msg.sender, contentId, amount);\n    }\n}\n",
  "sourcePath": "/home/arhan/BitThetaSecure/contracts/bitthetasecure/contracts/VideoStreaming/OnDemandContent.sol",
  "compiler": {
    "name": "solc",
    "version": "0.8.26+commit.8a97fa7a.Emscripten.clang"
  },
  "schemaVersion": "3.4.16",
  "updatedAt": "2024-07-19T19:01:04.813Z",
  "devdoc": {
    "kind": "dev",
    "methods": {},
    "version": 1
  },
  "userdoc": {
    "kind": "user",
    "methods": {},
    "version": 1
  }
}