{
  "contractName": "OracleIntegration",
  "abi": [
    {
      "inputs": [
        {
          "internalType": "address",
          "name": "_oracle",
          "type": "address"
        }
      ],
      "stateMutability": "nonpayable",
      "type": "constructor"
    },
    {
      "inputs": [],
      "name": "oracle",
      "outputs": [
        {
          "internalType": "contract IOracle",
          "name": "",
          "type": "address"
        }
      ],
      "stateMutability": "view",
      "type": "function"
    },
    {
      "inputs": [],
      "name": "getOracleData",
      "outputs": [
        {
          "internalType": "uint256",
          "name": "",
          "type": "uint256"
        }
      ],
      "stateMutability": "view",
      "type": "function"
    }
  ],
  "bytecode": "0x608060405234801561000f575f80fd5b50604051610389380380610389833981810160405281019061003191906100d4565b805f806101000a81548173ffffffffffffffffffffffffffffffffffffffff021916908373ffffffffffffffffffffffffffffffffffffffff160217905550506100ff565b5f80fd5b5f73ffffffffffffffffffffffffffffffffffffffff82169050919050565b5f6100a38261007a565b9050919050565b6100b381610099565b81146100bd575f80fd5b50565b5f815190506100ce816100aa565b92915050565b5f602082840312156100e9576100e8610076565b5b5f6100f6848285016100c0565b91505092915050565b61027d8061010c5f395ff3fe608060405234801561000f575f80fd5b5060043610610034575f3560e01c80636481c5e6146100385780637dc0d1d014610056575b5f80fd5b610040610074565b60405161004d9190610142565b60405180910390f35b61005e610107565b60405161006b91906101d5565b60405180910390f35b5f805f9054906101000a900473ffffffffffffffffffffffffffffffffffffffff1673ffffffffffffffffffffffffffffffffffffffff1663ab757d616040518163ffffffff1660e01b8152600401602060405180830381865afa1580156100de573d5f803e3d5ffd5b505050506040513d601f19601f82011682018060405250810190610102919061021c565b905090565b5f8054906101000a900473ffffffffffffffffffffffffffffffffffffffff1681565b5f819050919050565b61013c8161012a565b82525050565b5f6020820190506101555f830184610133565b92915050565b5f73ffffffffffffffffffffffffffffffffffffffff82169050919050565b5f819050919050565b5f61019d6101986101938461015b565b61017a565b61015b565b9050919050565b5f6101ae82610183565b9050919050565b5f6101bf826101a4565b9050919050565b6101cf816101b5565b82525050565b5f6020820190506101e85f8301846101c6565b92915050565b5f80fd5b6101fb8161012a565b8114610205575f80fd5b50565b5f81519050610216816101f2565b92915050565b5f60208284031215610231576102306101ee565b5b5f61023e84828501610208565b9150509291505056fea264697066735822122040d7bcba8083e96d9366ab73c6c59f6a34716d57a365290949fd9a3b85e419ea64736f6c634300081a0033",
  "immutableReferences": {},
  "source": "// SPDX-License-Identifier: MIT\npragma solidity ^0.8.26;\n\ninterface IOracle {\n    function getLatestData() external view returns (uint256);\n}\n\ncontract OracleIntegration {\n    IOracle public oracle;\n\n    constructor(address _oracle) {\n        oracle = IOracle(_oracle);\n    }\n\n    function getOracleData() external view returns (uint256) {\n        return oracle.getLatestData();\n    }\n}\n",
  "sourcePath": "/home/arhan/BitThetaSecure/contracts/bitthetasecure/contracts/Automation/OracleIntegration.sol",
  "compiler": {
    "name": "solc",
    "version": "0.8.26+commit.8a97fa7a.Emscripten.clang"
  },
  "schemaVersion": "3.4.16",
  "updatedAt": "2024-07-19T19:01:04.797Z",
  "devdoc": {
    "kind": "dev",
    "methods": {},
    "version": 1
  },
  "userdoc": {
    "kind": "user",
    "methods": {},
    "version": 1
  }
}