{
  "contractName": "RealTimeMonitoring",
  "abi": [
    {
      "anonymous": false,
      "inputs": [
        {
          "indexed": true,
          "internalType": "address",
          "name": "from",
          "type": "address"
        },
        {
          "indexed": true,
          "internalType": "address",
          "name": "to",
          "type": "address"
        },
        {
          "indexed": false,
          "internalType": "uint256",
          "name": "amount",
          "type": "uint256"
        }
      ],
      "name": "TransferMonitored",
      "type": "event"
    },
    {
      "inputs": [
        {
          "internalType": "address",
          "name": "from",
          "type": "address"
        },
        {
          "internalType": "address",
          "name": "to",
          "type": "address"
        },
        {
          "internalType": "uint256",
          "name": "amount",
          "type": "uint256"
        }
      ],
      "name": "monitorTransfer",
      "outputs": [],
      "stateMutability": "nonpayable",
      "type": "function"
    }
  ],
  "bytecode": "0x6080604052348015600e575f80fd5b506101f28061001c5f395ff3fe608060405234801561000f575f80fd5b5060043610610029575f3560e01c8063a12793061461002d575b5f80fd5b61004760048036038101906100429190610144565b610049565b005b8173ffffffffffffffffffffffffffffffffffffffff168373ffffffffffffffffffffffffffffffffffffffff167fc3bf1ff64078e9f13122da9b1bfe5fdd3bf64375d4ade7f6580dc24c72f0f011836040516100a691906101a3565b60405180910390a3505050565b5f80fd5b5f73ffffffffffffffffffffffffffffffffffffffff82169050919050565b5f6100e0826100b7565b9050919050565b6100f0816100d6565b81146100fa575f80fd5b50565b5f8135905061010b816100e7565b92915050565b5f819050919050565b61012381610111565b811461012d575f80fd5b50565b5f8135905061013e8161011a565b92915050565b5f805f6060848603121561015b5761015a6100b3565b5b5f610168868287016100fd565b9350506020610179868287016100fd565b925050604061018a86828701610130565b9150509250925092565b61019d81610111565b82525050565b5f6020820190506101b65f830184610194565b9291505056fea2646970667358221220c1666d44a82404cfc18098f8958daef94009a6ff20dc58707b3998fc3979a6b464736f6c634300081a0033",
  "immutableReferences": {},
  "source": "// SPDX-License-Identifier: MIT\npragma solidity ^0.8.26;\n\ncontract RealTimeMonitoring {\n    event TransferMonitored(address indexed from, address indexed to, uint256 amount);\n\n    function monitorTransfer(address from, address to, uint256 amount) external {\n        emit TransferMonitored(from, to, amount);\n    }\n}\n",
  "sourcePath": "/home/arhan/BitThetaSecure/contracts/bitthetasecure/contracts/Analytics/RealTimeMonitoring.sol",
  "compiler": {
    "name": "solc",
    "version": "0.8.26+commit.8a97fa7a.Emscripten.clang"
  },
  "schemaVersion": "3.4.16",
  "updatedAt": "2024-07-19T19:01:04.796Z",
  "devdoc": {
    "kind": "dev",
    "methods": {},
    "version": 1
  },
  "userdoc": {
    "kind": "user",
    "methods": {},
    "version": 1
  }
}