{
  "contractName": "ReputationSystem",
  "abi": [
    {
      "anonymous": false,
      "inputs": [
        {
          "indexed": true,
          "internalType": "address",
          "name": "user",
          "type": "address"
        },
        {
          "indexed": false,
          "internalType": "uint256",
          "name": "newReputation",
          "type": "uint256"
        }
      ],
      "name": "ReputationUpdated",
      "type": "event"
    },
    {
      "inputs": [
        {
          "internalType": "address",
          "name": "",
          "type": "address"
        }
      ],
      "name": "reputation",
      "outputs": [
        {
          "internalType": "uint256",
          "name": "",
          "type": "uint256"
        }
      ],
      "stateMutability": "view",
      "type": "function"
    },
    {
      "inputs": [
        {
          "internalType": "address",
          "name": "user",
          "type": "address"
        },
        {
          "internalType": "uint256",
          "name": "change",
          "type": "uint256"
        }
      ],
      "name": "updateReputation",
      "outputs": [],
      "stateMutability": "nonpayable",
      "type": "function"
    },
    {
      "inputs": [
        {
          "internalType": "address",
          "name": "user",
          "type": "address"
        }
      ],
      "name": "getReputation",
      "outputs": [
        {
          "internalType": "uint256",
          "name": "",
          "type": "uint256"
        }
      ],
      "stateMutability": "view",
      "type": "function"
    }
  ],
  "bytecode": "0x6080604052348015600e575f80fd5b506103b08061001c5f395ff3fe608060405234801561000f575f80fd5b506004361061003f575f3560e01c80639c89a0e214610043578063b9f7945114610073578063f5c91a08146100a3575b5f80fd5b61005d60048036038101906100589190610256565b6100bf565b60405161006a9190610299565b60405180910390f35b61008d60048036038101906100889190610256565b610104565b60405161009a9190610299565b60405180910390f35b6100bd60048036038101906100b891906102dc565b610118565b005b5f805f8373ffffffffffffffffffffffffffffffffffffffff1673ffffffffffffffffffffffffffffffffffffffff1681526020019081526020015f20549050919050565b5f602052805f5260405f205f915090505481565b805f808473ffffffffffffffffffffffffffffffffffffffff1673ffffffffffffffffffffffffffffffffffffffff1681526020019081526020015f205f8282546101639190610347565b925050819055508173ffffffffffffffffffffffffffffffffffffffff167ffc577563f1b9a0461e24abef1e1fcc0d33d3d881f20b5df6dda59de4aae2c8215f808573ffffffffffffffffffffffffffffffffffffffff1673ffffffffffffffffffffffffffffffffffffffff1681526020019081526020015f20546040516101ec9190610299565b60405180910390a25050565b5f80fd5b5f73ffffffffffffffffffffffffffffffffffffffff82169050919050565b5f610225826101fc565b9050919050565b6102358161021b565b811461023f575f80fd5b50565b5f813590506102508161022c565b92915050565b5f6020828403121561026b5761026a6101f8565b5b5f61027884828501610242565b91505092915050565b5f819050919050565b61029381610281565b82525050565b5f6020820190506102ac5f83018461028a565b92915050565b6102bb81610281565b81146102c5575f80fd5b50565b5f813590506102d6816102b2565b92915050565b5f80604083850312156102f2576102f16101f8565b5b5f6102ff85828601610242565b9250506020610310858286016102c8565b9150509250929050565b7f4e487b71000000000000000000000000000000000000000000000000000000005f52601160045260245ffd5b5f61035182610281565b915061035c83610281565b92508282019050808211156103745761037361031a565b5b9291505056fea2646970667358221220a722214b8dd101fac3c37ae0563c36da61c7f7dc69b71c02615d027996c2f34c64736f6c634300081a0033",
  "immutableReferences": {},
  "source": "// SPDX-License-Identifier: MIT\npragma solidity ^0.8.26;\n\ncontract ReputationSystem {\n    mapping(address => uint256) public reputation;\n    event ReputationUpdated(address indexed user, uint256 newReputation);\n\n    function updateReputation(address user, uint256 change) external {\n        reputation[user] += change;\n        emit ReputationUpdated(user, reputation[user]);\n    }\n\n    function getReputation(address user) external view returns (uint256) {\n        return reputation[user];\n    }\n}\n",
  "sourcePath": "/home/arhan/BitThetaSecure/contracts/bitthetasecure/contracts/Identity/ReputationSystem.sol",
  "compiler": {
    "name": "solc",
    "version": "0.8.26+commit.8a97fa7a.Emscripten.clang"
  },
  "schemaVersion": "3.4.16",
  "updatedAt": "2024-07-19T19:01:04.811Z",
  "devdoc": {
    "kind": "dev",
    "methods": {},
    "version": 1
  },
  "userdoc": {
    "kind": "user",
    "methods": {},
    "version": 1
  }
}