{
  "contractName": "SocialSharing",
  "abi": [
    {
      "anonymous": false,
      "inputs": [
        {
          "indexed": true,
          "internalType": "address",
          "name": "user",
          "type": "address"
        },
        {
          "indexed": false,
          "internalType": "string",
          "name": "content",
          "type": "string"
        }
      ],
      "name": "ContentShared",
      "type": "event"
    },
    {
      "inputs": [
        {
          "internalType": "string",
          "name": "content",
          "type": "string"
        }
      ],
      "name": "shareContent",
      "outputs": [],
      "stateMutability": "nonpayable",
      "type": "function"
    }
  ],
  "bytecode": "0x6080604052348015600e575f80fd5b506102e48061001c5f395ff3fe608060405234801561000f575f80fd5b5060043610610029575f3560e01c8063f1b690821461002d575b5f80fd5b610047600480360381019061004291906101e7565b610049565b005b3373ffffffffffffffffffffffffffffffffffffffff167f98f9171120b073551431ba2a1eebe4aaf4def1c06da102758dac1e5626a7d97b8260405161008f919061028e565b60405180910390a250565b5f604051905090565b5f80fd5b5f80fd5b5f80fd5b5f80fd5b5f601f19601f8301169050919050565b7f4e487b71000000000000000000000000000000000000000000000000000000005f52604160045260245ffd5b6100f9826100b3565b810181811067ffffffffffffffff82111715610118576101176100c3565b5b80604052505050565b5f61012a61009a565b905061013682826100f0565b919050565b5f67ffffffffffffffff821115610155576101546100c3565b5b61015e826100b3565b9050602081019050919050565b828183375f83830152505050565b5f61018b6101868461013b565b610121565b9050828152602081018484840111156101a7576101a66100af565b5b6101b284828561016b565b509392505050565b5f82601f8301126101ce576101cd6100ab565b5b81356101de848260208601610179565b91505092915050565b5f602082840312156101fc576101fb6100a3565b5b5f82013567ffffffffffffffff811115610219576102186100a7565b5b610225848285016101ba565b91505092915050565b5f81519050919050565b5f82825260208201905092915050565b8281835e5f83830152505050565b5f6102608261022e565b61026a8185610238565b935061027a818560208601610248565b610283816100b3565b840191505092915050565b5f6020820190508181035f8301526102a68184610256565b90509291505056fea2646970667358221220f25509449cfe476c4cf0fcad0ec409b5e2c51925323ebbc53c4f073dec434c3a64736f6c634300081a0033",
  "immutableReferences": {},
  "source": "// SPDX-License-Identifier: MIT\npragma solidity ^0.8.26;\n\ncontract SocialSharing {\n    event ContentShared(address indexed user, string content);\n\n    function shareContent(string memory content) external {\n        emit ContentShared(msg.sender, content);\n    }\n}\n",
  "sourcePath": "/home/arhan/BitThetaSecure/contracts/bitthetasecure/contracts/Community/SocialSharing.sol",
  "compiler": {
    "name": "solc",
    "version": "0.8.26+commit.8a97fa7a.Emscripten.clang"
  },
  "schemaVersion": "3.4.16",
  "updatedAt": "2024-07-19T19:01:04.798Z",
  "devdoc": {
    "kind": "dev",
    "methods": {},
    "version": 1
  },
  "userdoc": {
    "kind": "user",
    "methods": {},
    "version": 1
  }
}