{
  "contractName": "Staking",
  "abi": [
    {
      "anonymous": false,
      "inputs": [
        {
          "indexed": true,
          "internalType": "address",
          "name": "user",
          "type": "address"
        },
        {
          "indexed": false,
          "internalType": "uint256",
          "name": "amount",
          "type": "uint256"
        }
      ],
      "name": "Staked",
      "type": "event"
    },
    {
      "anonymous": false,
      "inputs": [
        {
          "indexed": true,
          "internalType": "address",
          "name": "user",
          "type": "address"
        },
        {
          "indexed": false,
          "internalType": "uint256",
          "name": "amount",
          "type": "uint256"
        }
      ],
      "name": "Unstaked",
      "type": "event"
    },
    {
      "inputs": [
        {
          "internalType": "address",
          "name": "",
          "type": "address"
        }
      ],
      "name": "stakes",
      "outputs": [
        {
          "internalType": "uint256",
          "name": "",
          "type": "uint256"
        }
      ],
      "stateMutability": "view",
      "type": "function"
    },
    {
      "inputs": [
        {
          "internalType": "uint256",
          "name": "amount",
          "type": "uint256"
        }
      ],
      "name": "stake",
      "outputs": [],
      "stateMutability": "nonpayable",
      "type": "function"
    },
    {
      "inputs": [
        {
          "internalType": "uint256",
          "name": "amount",
          "type": "uint256"
        }
      ],
      "name": "unstake",
      "outputs": [],
      "stateMutability": "nonpayable",
      "type": "function"
    }
  ],
  "bytecode": "0x6080604052348015600e575f80fd5b506104d48061001c5f395ff3fe608060405234801561000f575f80fd5b506004361061003f575f3560e01c806316934fc4146100435780632e17de7814610073578063a694fc3a1461008f575b5f80fd5b61005d600480360381019061005891906102e2565b6100ab565b60405161006a9190610325565b60405180910390f35b61008d60048036038101906100889190610368565b6100bf565b005b6100a960048036038101906100a49190610368565b6101e1565b005b5f602052805f5260405f205f915090505481565b805f803373ffffffffffffffffffffffffffffffffffffffff1673ffffffffffffffffffffffffffffffffffffffff1681526020019081526020015f2054101561013e576040517f08c379a0000000000000000000000000000000000000000000000000000000008152600401610135906103ed565b60405180910390fd5b805f803373ffffffffffffffffffffffffffffffffffffffff1673ffffffffffffffffffffffffffffffffffffffff1681526020019081526020015f205f8282546101899190610438565b925050819055503373ffffffffffffffffffffffffffffffffffffffff167f0f5bb82176feb1b5e747e28471aa92156a04d9f3ab9f45f28e2d704232b93f75826040516101d69190610325565b60405180910390a250565b805f803373ffffffffffffffffffffffffffffffffffffffff1673ffffffffffffffffffffffffffffffffffffffff1681526020019081526020015f205f82825461022c919061046b565b925050819055503373ffffffffffffffffffffffffffffffffffffffff167f9e71bc8eea02a63969f509818f2dafb9254532904319f9dbda79b67bd34a5f3d826040516102799190610325565b60405180910390a250565b5f80fd5b5f73ffffffffffffffffffffffffffffffffffffffff82169050919050565b5f6102b182610288565b9050919050565b6102c1816102a7565b81146102cb575f80fd5b50565b5f813590506102dc816102b8565b92915050565b5f602082840312156102f7576102f6610284565b5b5f610304848285016102ce565b91505092915050565b5f819050919050565b61031f8161030d565b82525050565b5f6020820190506103385f830184610316565b92915050565b6103478161030d565b8114610351575f80fd5b50565b5f813590506103628161033e565b92915050565b5f6020828403121561037d5761037c610284565b5b5f61038a84828501610354565b91505092915050565b5f82825260208201905092915050565b7f496e73756666696369656e74207374616b6500000000000000000000000000005f82015250565b5f6103d7601283610393565b91506103e2826103a3565b602082019050919050565b5f6020820190508181035f830152610404816103cb565b9050919050565b7f4e487b71000000000000000000000000000000000000000000000000000000005f52601160045260245ffd5b5f6104428261030d565b915061044d8361030d565b92508282039050818111156104655761046461040b565b5b92915050565b5f6104758261030d565b91506104808361030d565b92508282019050808211156104985761049761040b565b5b9291505056fea26469706673582212205555c72b5bc152502182662df843a9af253f0e64f7eb7de228aa2cd7bc05434464736f6c634300081a0033",
  "immutableReferences": {},
  "source": "// SPDX-License-Identifier: MIT\npragma solidity ^0.8.26;\n\ncontract Staking {\n    mapping(address => uint256) public stakes;\n    event Staked(address indexed user, uint256 amount);\n    event Unstaked(address indexed user, uint256 amount);\n\n    function stake(uint256 amount) external {\n        stakes[msg.sender] += amount;\n        emit Staked(msg.sender, amount);\n    }\n\n    function unstake(uint256 amount) external {\n        require(stakes[msg.sender] >= amount, \"Insufficient stake\");\n        stakes[msg.sender] -= amount;\n        emit Unstaked(msg.sender, amount);\n    }\n}\n",
  "sourcePath": "/home/arhan/BitThetaSecure/contracts/bitthetasecure/contracts/Incentives/Staking.sol",
  "compiler": {
    "name": "solc",
    "version": "0.8.26+commit.8a97fa7a.Emscripten.clang"
  },
  "schemaVersion": "3.4.16",
  "updatedAt": "2024-07-19T19:01:04.812Z",
  "devdoc": {
    "kind": "dev",
    "methods": {},
    "version": 1
  },
  "userdoc": {
    "kind": "user",
    "methods": {},
    "version": 1
  }
}