{
  "contractName": "Verifier",
  "abi": [
    {
      "inputs": [],
      "name": "verificationKeyHash",
      "outputs": [
        {
          "internalType": "bytes32",
          "name": "vkHash",
          "type": "bytes32"
        }
      ],
      "stateMutability": "pure",
      "type": "function"
    },
    {
      "inputs": [
        {
          "internalType": "uint256[]",
          "name": "",
          "type": "uint256[]"
        },
        {
          "internalType": "uint256[]",
          "name": "",
          "type": "uint256[]"
        },
        {
          "internalType": "uint256[]",
          "name": "",
          "type": "uint256[]"
        }
      ],
      "name": "verify",
      "outputs": [
        {
          "internalType": "bool",
          "name": "",
          "type": "bool"
        }
      ],
      "stateMutability": "view",
      "type": "function"
    }
  ],
  "bytecode": "0x6080604052348015600e575f80fd5b50613f288061001c5f395ff3fe608060405234801561000f575f80fd5b5060043610610034575f3560e01c806387d9d023146100385780639e8945d214610068575b5f80fd5b610052600480360381019061004d9190613dde565b610086565b60405161005f9190613ea8565b60405180910390f35b610070613788565b60405161007d9190613ed9565b60405180910390f35b5f61008f6137a8565b61374f565b7f08c379a0000000000000000000000000000000000000000000000000000000005f526020600452806024528160445260645ffd5b5f60205f5260208052602060405281606052826080527f30644e72e131a029b85045b68181585d2833e84879b9709143e1f593f000000160a05260205f60c05f60055afa61013d5761013c7f6d6f6465787020707265636f6d70696c65206661696c656400000000000000006018610094565b5b5f51905092915050565b80515f5260208101516020528160405260408360605f60075afa610191576101907f706f696e744d756c496e746f446573743a2065634d756c206661696c65640000601e610094565b5b505050565b80515f5260208101516020528151604052602082015160605260408360805f60065afa6101e9576101e87f706f696e74416464496e746f446573743a206563416464206661696c65640000601e610094565b5b505050565b80515f526020810151602052815160405260208201517f30644e72e131a029b85045b68181585d97816a916871ca8d3c208c16d87cfd470360605260408160805f60065afa610263576102627f706f696e7453756241737369676e3a206563416464206661696c656400000000601c610094565b5b5050565b80515f5260208101516020528151604052602082015160605260408160805f60065afa6102ba576102b97f706f696e7441646441737369676e3a206563416464206661696c656400000000601c610094565b5b5050565b80515f5260208101516020528160405260405f60605f60075afa8351604052602084015160605260408460805f60065afa8116905080610324576103237f706f696e744d756c416e64416464496e746f44657374000000000000000000006016610094565b5b50505050565b6020810151805f811461036457817f30644e72e131a029b85045b68181585d97816a916871ca8d3c208c16d87cfd47036020840152610398565b825115610397576103967f706f696e744e65676174653a20696e76616c696420706f696e74000000000000601a610094565b5b5b505050565b5f610d435380610d84526064610d40206001610d43536064610d402080610d645281610d4452505050565b5f6002610d43538160e01b610d84527f1fffffffffffffffffffffffffffffffffffffffffffffffffffffffffffffff6048610d4020169050919050565b6004356004810135600181147f1fffffffffffffffffffffffffffffffffffffffffffffffffffffffffffffff602484013516610720526024359250600483013581602c82141691507f30644e72e131a029b85045b68181585d97816a916871ca8d3c208c16d87cfd476024850135067f30644e72e131a029b85045b68181585d97816a916871ca8d3c208c16d87cfd476044860135067f30644e72e131a029b85045b68181585d97816a916871ca8d3c208c16d87cfd47828309847f30644e72e131a029b85045b68181585d97816a916871ca8d3c208c16d87cfd4760037f30644e72e131a029b85045b68181585d97816a916871ca8d3c208c16d87cfd47848709087f30644e72e131a029b85045b68181585d97816a916871ca8d3c208c16d87cfd4784850914169450826107405281610760525050507f30644e72e131a029b85045b68181585d97816a916871ca8d3c208c16d87cfd476064850135067f30644e72e131a029b85045b68181585d97816a916871ca8d3c208c16d87cfd476084860135067f30644e72e131a029b85045b68181585d97816a916871ca8d3c208c16d87cfd47828309847f30644e72e131a029b85045b68181585d97816a916871ca8d3c208c16d87cfd4760037f30644e72e131a029b85045b68181585d97816a916871ca8d3c208c16d87cfd47848709087f30644e72e131a029b85045b68181585d97816a916871ca8d3c208c16d87cfd47848509141694508261078052816107a0525050507f30644e72e131a029b85045b68181585d97816a916871ca8d3c208c16d87cfd4760a4850135067f30644e72e131a029b85045b68181585d97816a916871ca8d3c208c16d87cfd4760c4860135067f30644e72e131a029b85045b68181585d97816a916871ca8d3c208c16d87cfd47828309847f30644e72e131a029b85045b68181585d97816a916871ca8d3c208c16d87cfd4760037f30644e72e131a029b85045b68181585d97816a916871ca8d3c208c16d87cfd47848709087f30644e72e131a029b85045b68181585d97816a916871ca8d3c208c16d87cfd4784850914169450826107c052816107e0525050507f30644e72e131a029b85045b68181585d97816a916871ca8d3c208c16d87cfd4760e4850135067f30644e72e131a029b85045b68181585d97816a916871ca8d3c208c16d87cfd47610104860135067f30644e72e131a029b85045b68181585d97816a916871ca8d3c208c16d87cfd47828309847f30644e72e131a029b85045b68181585d97816a916871ca8d3c208c16d87cfd4760037f30644e72e131a029b85045b68181585d97816a916871ca8d3c208c16d87cfd47848709087f30644e72e131a029b85045b68181585d97816a916871ca8d3c208c16d87cfd4784850914169450826108005281610820525050507f30644e72e131a029b85045b68181585d97816a916871ca8d3c208c16d87cfd47610124850135067f30644e72e131a029b85045b68181585d97816a916871ca8d3c208c16d87cfd47610144860135067f30644e72e131a029b85045b68181585d97816a916871ca8d3c208c16d87cfd47828309847f30644e72e131a029b85045b68181585d97816a916871ca8d3c208c16d87cfd4760037f30644e72e131a029b85045b68181585d97816a916871ca8d3c208c16d87cfd47848709087f30644e72e131a029b85045b68181585d97816a916871ca8d3c208c16d87cfd4784850914169450826108405281610860525050507f30644e72e131a029b85045b68181585d97816a916871ca8d3c208c16d87cfd47610164850135067f30644e72e131a029b85045b68181585d97816a916871ca8d3c208c16d87cfd47610184860135067f30644e72e131a029b85045b68181585d97816a916871ca8d3c208c16d87cfd47828309847f30644e72e131a029b85045b68181585d97816a916871ca8d3c208c16d87cfd4760037f30644e72e131a029b85045b68181585d97816a916871ca8d3c208c16d87cfd47848709087f30644e72e131a029b85045b68181585d97816a916871ca8d3c208c16d87cfd47848509141694508261088052816108a0525050507f30644e72e131a029b85045b68181585d97816a916871ca8d3c208c16d87cfd476101a4850135067f30644e72e131a029b85045b68181585d97816a916871ca8d3c208c16d87cfd476101c4860135067f30644e72e131a029b85045b68181585d97816a916871ca8d3c208c16d87cfd47828309847f30644e72e131a029b85045b68181585d97816a916871ca8d3c208c16d87cfd4760037f30644e72e131a029b85045b68181585d97816a916871ca8d3c208c16d87cfd47848709087f30644e72e131a029b85045b68181585d97816a916871ca8d3c208c16d87cfd4784850914169450826108c052816108e0525050507f30644e72e131a029b85045b68181585d97816a916871ca8d3c208c16d87cfd476101e4850135067f30644e72e131a029b85045b68181585d97816a916871ca8d3c208c16d87cfd47610204860135067f30644e72e131a029b85045b68181585d97816a916871ca8d3c208c16d87cfd47828309847f30644e72e131a029b85045b68181585d97816a916871ca8d3c208c16d87cfd4760037f30644e72e131a029b85045b68181585d97816a916871ca8d3c208c16d87cfd47848709087f30644e72e131a029b85045b68181585d97816a916871ca8d3c208c16d87cfd4784850914169450826109005281610920525050507f30644e72e131a029b85045b68181585d97816a916871ca8d3c208c16d87cfd47610224850135067f30644e72e131a029b85045b68181585d97816a916871ca8d3c208c16d87cfd47610244860135067f30644e72e131a029b85045b68181585d97816a916871ca8d3c208c16d87cfd47828309847f30644e72e131a029b85045b68181585d97816a916871ca8d3c208c16d87cfd4760037f30644e72e131a029b85045b68181585d97816a916871ca8d3c208c16d87cfd47848709087f30644e72e131a029b85045b68181585d97816a916871ca8d3c208c16d87cfd4784850914169450826109405281610960525050507f30644e72e131a029b85045b68181585d97816a916871ca8d3c208c16d87cfd47610264850135067f30644e72e131a029b85045b68181585d97816a916871ca8d3c208c16d87cfd47610284860135067f30644e72e131a029b85045b68181585d97816a916871ca8d3c208c16d87cfd47828309847f30644e72e131a029b85045b68181585d97816a916871ca8d3c208c16d87cfd4760037f30644e72e131a029b85045b68181585d97816a916871ca8d3c208c16d87cfd47848709087f30644e72e131a029b85045b68181585d97816a916871ca8d3c208c16d87cfd47848509141694508261098052816109a0525050507f30644e72e131a029b85045b68181585d97816a916871ca8d3c208c16d87cfd476102a4850135067f30644e72e131a029b85045b68181585d97816a916871ca8d3c208c16d87cfd476102c4860135067f30644e72e131a029b85045b68181585d97816a916871ca8d3c208c16d87cfd47828309847f30644e72e131a029b85045b68181585d97816a916871ca8d3c208c16d87cfd4760037f30644e72e131a029b85045b68181585d97816a916871ca8d3c208c16d87cfd47848709087f30644e72e131a029b85045b68181585d97816a916871ca8d3c208c16d87cfd4784850914169450826109c052816109e0525050507f30644e72e131a029b85045b68181585d2833e84879b9709143e1f593f00000016102e485013506610a00527f30644e72e131a029b85045b68181585d2833e84879b9709143e1f593f000000161030485013506610a20527f30644e72e131a029b85045b68181585d2833e84879b9709143e1f593f000000161032485013506610a40527f30644e72e131a029b85045b68181585d2833e84879b9709143e1f593f000000161034485013506610a60527f30644e72e131a029b85045b68181585d2833e84879b9709143e1f593f000000161036485013506610a80527f30644e72e131a029b85045b68181585d2833e84879b9709143e1f593f000000161038485013506610aa0527f30644e72e131a029b85045b68181585d2833e84879b9709143e1f593f00000016103a485013506610ac0527f30644e72e131a029b85045b68181585d2833e84879b9709143e1f593f00000016103c485013506610ae0527f30644e72e131a029b85045b68181585d2833e84879b9709143e1f593f00000016103e485013506610b00527f30644e72e131a029b85045b68181585d2833e84879b9709143e1f593f000000161040485013506610b20527f30644e72e131a029b85045b68181585d2833e84879b9709143e1f593f000000161042485013506610b40527f30644e72e131a029b85045b68181585d2833e84879b9709143e1f593f000000161044485013506610b60527f30644e72e131a029b85045b68181585d2833e84879b9709143e1f593f000000161046485013506610b80527f30644e72e131a029b85045b68181585d2833e84879b9709143e1f593f000000161048485013506610ba0527f30644e72e131a029b85045b68181585d2833e84879b9709143e1f593f00000016104a485013506610bc0527f30644e72e131a029b85045b68181585d2833e84879b9709143e1f593f00000016104c485013506610be0527f30644e72e131a029b85045b68181585d2833e84879b9709143e1f593f00000016104e485013506610c00527f30644e72e131a029b85045b68181585d2833e84879b9709143e1f593f000000161050485013506610c20527f30644e72e131a029b85045b68181585d97816a916871ca8d3c208c16d87cfd47610524850135067f30644e72e131a029b85045b68181585d97816a916871ca8d3c208c16d87cfd47610544860135067f30644e72e131a029b85045b68181585d97816a916871ca8d3c208c16d87cfd47828309847f30644e72e131a029b85045b68181585d97816a916871ca8d3c208c16d87cfd4760037f30644e72e131a029b85045b68181585d97816a916871ca8d3c208c16d87cfd47848709087f30644e72e131a029b85045b68181585d97816a916871ca8d3c208c16d87cfd478485091416945082610c405281610c60525050507f30644e72e131a029b85045b68181585d97816a916871ca8d3c208c16d87cfd47610564850135067f30644e72e131a029b85045b68181585d97816a916871ca8d3c208c16d87cfd47610584860135067f30644e72e131a029b85045b68181585d97816a916871ca8d3c208c16d87cfd47828309847f30644e72e131a029b85045b68181585d97816a916871ca8d3c208c16d87cfd4760037f30644e72e131a029b85045b68181585d97816a916871ca8d3c208c16d87cfd47848709087f30644e72e131a029b85045b68181585d97816a916871ca8d3c208c16d87cfd478485091416945082610c805281610ca05250505060443593506004840135610700515f81146115ac5783600483141693507f30644e72e131a029b85045b68181585d97816a916871ca8d3c208c16d87cfd476024870135067f30644e72e131a029b85045b68181585d97816a916871ca8d3c208c16d87cfd476044880135067f30644e72e131a029b85045b68181585d97816a916871ca8d3c208c16d87cfd47828309867f30644e72e131a029b85045b68181585d97816a916871ca8d3c208c16d87cfd4760037f30644e72e131a029b85045b68181585d97816a916871ca8d3c208c16d87cfd47848709087f30644e72e131a029b85045b68181585d97816a916871ca8d3c208c16d87cfd478485091416965082610cc05281610ce0525050507f30644e72e131a029b85045b68181585d97816a916871ca8d3c208c16d87cfd476064870135067f30644e72e131a029b85045b68181585d97816a916871ca8d3c208c16d87cfd476084880135067f30644e72e131a029b85045b68181585d97816a916871ca8d3c208c16d87cfd47828309867f30644e72e131a029b85045b68181585d97816a916871ca8d3c208c16d87cfd4760037f30644e72e131a029b85045b68181585d97816a916871ca8d3c208c16d87cfd47848709087f30644e72e131a029b85045b68181585d97816a916871ca8d3c208c16d87cfd478485091416965082610d005281610d20525050506115b3565b8382151693505b50826115e5576115e47f6c6f616450726f6f663a2050726f6f6620697320696e76616c69640000000000601b610094565b5b5050505050565b6115f86107205161039d565b6116046107405161039d565b6116106107605161039d565b61161c6107805161039d565b6116286107a05161039d565b6116346107c05161039d565b6116406107e05161039d565b61164c6108005161039d565b6116586108205161039d565b6116615f6103c8565b610f00526116716108805161039d565b61167d6108a05161039d565b61168760016103c8565b610de05261169560026103c8565b610e00526116a56108405161039d565b6116b16108605161039d565b6116bb60036103c8565b610f20526116c960046103c8565b610f40526116d96108c05161039d565b6116e56108e05161039d565b6116ef60056103c8565b610dc0526116ff6109005161039d565b61170b6109205161039d565b6117176109405161039d565b6117236109605161039d565b61172f6109805161039d565b61173b6109a05161039d565b6117476109c05161039d565b6117536109e05161039d565b61175d60066103c8565b80610fe0526117706304000000826100c9565b6110605250611781610c005161039d565b61178d610a005161039d565b611799610a205161039d565b6117a5610a405161039d565b6117b1610a605161039d565b6117bd610a805161039d565b6117c9610aa05161039d565b6117d5610ac05161039d565b6117e1610ae05161039d565b6117ed610b005161039d565b6117f9610b205161039d565b611805610b805161039d565b611811610bc05161039d565b61181d610be05161039d565b611829610b405161039d565b611835610b605161039d565b611841610ba05161039d565b61184d610c205161039d565b61185760076103c8565b610fa052611867610c405161039d565b611873610c605161039d565b61187f610c805161039d565b61188b610ca05161039d565b61189560086103c8565b610fc052565b610dc0517f30644e72e131a029b85045b68181585d2833e84879b9709143e1f593f000000181820980610e20527f30644e72e131a029b85045b68181585d2833e84879b9709143e1f593f0000001828209905080610e40527f30644e72e131a029b85045b68181585d2833e84879b9709143e1f593f0000001828209905080610e60527f30644e72e131a029b85045b68181585d2833e84879b9709143e1f593f0000001828209905080610e80527f30644e72e131a029b85045b68181585d2833e84879b9709143e1f593f0000001828209905080610ea0527f30644e72e131a029b85045b68181585d2833e84879b9709143e1f593f0000001828209905080610ec0527f30644e72e131a029b85045b68181585d2833e84879b9709143e1f593f0000001828209905080610ee0525050610fe0516119da815f611b72565b611020526119ef816001630400000003611b72565b611040527f30644e72e131a029b85045b68181585d2833e84879b9709143e1f593f00000016107205161102051097f30644e72e131a029b85045b68181585d2833e84879b9709143e1f593f0000001610aa05182097f30644e72e131a029b85045b68181585d2833e84879b9709143e1f593f0000001611a6d611d22565b820890507f30644e72e131a029b85045b68181585d2833e84879b9709143e1f593f0000001611a9a611fff565b820890507f30644e72e131a029b85045b68181585d2833e84879b9709143e1f593f000000181610c20510890507f30644e72e131a029b85045b68181585d2833e84879b9709143e1f593f000000160017f30644e72e131a029b85045b68181585d2833e84879b9709143e1f593f00000010361106051087f30644e72e131a029b85045b68181585d2833e84879b9709143e1f593f000000181610c005109828114611b6b57611b6a7f696e76616c69642071756f7469656e74206576616c756174696f6e0000000000601b610094565b5b5050505050565b5f60018215611ba857611ba5837f1dba8b5bdd64ef6ce29a9039aca3c0e524395c43b9227b96c75090cc6cc7ec976100c9565b90505b7f30644e72e131a029b85045b68181585d2833e84879b9709143e1f593f000000160017f30644e72e131a029b85045b68181585d2833e84879b9709143e1f593f000000103611bfb6304000000876100c9565b08915081611c2f57611c2e7f696e76616c69642076616e697368696e6720706f6c796e6f6d69616c00000000601c610094565b5b7f30644e72e131a029b85045b68181585d2833e84879b9709143e1f593f000000181830991507f30644e72e131a029b85045b68181585d2833e84879b9709143e1f593f0000001817f30644e72e131a029b85045b68181585d2833e84879b9709143e1f593f00000010385087f30644e72e131a029b85045b68181585d2833e84879b9709143e1f593f0000001630400000082099050611cf260027f30644e72e131a029b85045b68181585d2833e84879b9709143e1f593f000000103826100c9565b90507f30644e72e131a029b85045b68181585d2833e84879b9709143e1f593f00000018184099250505092915050565b5f7f30644e72e131a029b85045b68181585d2833e84879b9709143e1f593f0000001610b2051610e6051099050610e0051610de0515f7f30644e72e131a029b85045b68181585d2833e84879b9709143e1f593f000000182610ac0510990507f30644e72e131a029b85045b68181585d2833e84879b9709143e1f593f000000183820890507f30644e72e131a029b85045b68181585d2833e84879b9709143e1f593f0000001610a0051820890507f30644e72e131a029b85045b68181585d2833e84879b9709143e1f593f000000181850993507f30644e72e131a029b85045b68181585d2833e84879b9709143e1f593f000000182610ae0510990507f30644e72e131a029b85045b68181585d2833e84879b9709143e1f593f000000183820890507f30644e72e131a029b85045b68181585d2833e84879b9709143e1f593f0000001610a2051820890507f30644e72e131a029b85045b68181585d2833e84879b9709143e1f593f000000181850993507f30644e72e131a029b85045b68181585d2833e84879b9709143e1f593f000000182610b00510990507f30644e72e131a029b85045b68181585d2833e84879b9709143e1f593f000000183820890507f30644e72e131a029b85045b68181585d2833e84879b9709143e1f593f0000001610a4051820890507f30644e72e131a029b85045b68181585d2833e84879b9709143e1f593f000000181850993507f30644e72e131a029b85045b68181585d2833e84879b9709143e1f593f00000018084610a60510885099350505050807f30644e72e131a029b85045b68181585d2833e84879b9709143e1f593f0000001039050611020517f30644e72e131a029b85045b68181585d2833e84879b9709143e1f593f0000001610e8051820990507f30644e72e131a029b85045b68181585d2833e84879b9709143e1f593f0000001817f30644e72e131a029b85045b68181585d2833e84879b9709143e1f593f000000103830891505090565b5f610f2051610f40517f30644e72e131a029b85045b68181585d2833e84879b9709143e1f593f0000001600183087f30644e72e131a029b85045b68181585d2833e84879b9709143e1f593f000000182820981610f605280610f80527f30644e72e131a029b85045b68181585d2833e84879b9709143e1f593f000000184610b40510994507f30644e72e131a029b85045b68181585d2833e84879b9709143e1f593f000000181860894507f30644e72e131a029b85045b68181585d2833e84879b9709143e1f593f0000001610b6051860994507f30644e72e131a029b85045b68181585d2833e84879b9709143e1f593f0000001610ea0518609945061212d60016304000000037f1dba8b5bdd64ef6ce29a9039aca3c0e524395c43b9227b96c75090cc6cc7ec976100c9565b7f30644e72e131a029b85045b68181585d2833e84879b9709143e1f593f0000001817f30644e72e131a029b85045b68181585d2833e84879b9709143e1f593f000000103610fe0510880611000527f30644e72e131a029b85045b68181585d2833e84879b9709143e1f593f0000001818809965050507f30644e72e131a029b85045b68181585d2833e84879b9709143e1f593f0000001610ec05161102051097f30644e72e131a029b85045b68181585d2833e84879b9709143e1f593f0000001817f30644e72e131a029b85045b68181585d2833e84879b9709143e1f593f00000010387089550506110405161222b6001630400000003836100c9565b610ee0517f30644e72e131a029b85045b68181585d2833e84879b9709143e1f593f0000001817f30644e72e131a029b85045b68181585d2833e84879b9709143e1f593f0000001848609097f30644e72e131a029b85045b68181585d2833e84879b9709143e1f593f0000001817f30644e72e131a029b85045b68181585d2833e84879b9709143e1f593f0000001038a089850505050505050505090565b6122d68183610200610147565b6122e381846102406102be565b6122f081856102806102be565b6122fd81866102c06102be565b61232d817f30644e72e131a029b85045b68181585d2833e84879b9709143e1f593f00000018585096103006102be565b61235d817f30644e72e131a029b85045b68181585d2833e84879b9709143e1f593f00000018685096103406102be565b61236961038082610267565b61237981610a80516103c06102be565b7f30644e72e131a029b85045b68181585d2833e84879b9709143e1f593f0000001610fa051610aa051096123ae828284610147565b505050505050565b5f807f30644e72e131a029b85045b68181585d2833e84879b9709143e1f593f000000184850991507f30644e72e131a029b85045b68181585d2833e84879b9709143e1f593f0000001857f30644e72e131a029b85045b68181585d2833e84879b9709143e1f593f000000103830891507f30644e72e131a029b85045b68181585d2833e84879b9709143e1f593f0000001610dc051830991507f30644e72e131a029b85045b68181585d2833e84879b9709143e1f593f000000185860990507f30644e72e131a029b85045b68181585d2833e84879b9709143e1f593f0000001867f30644e72e131a029b85045b68181585d2833e84879b9709143e1f593f000000103820890507f30644e72e131a029b85045b68181585d2833e84879b9709143e1f593f0000001610e2051820990507f30644e72e131a029b85045b68181585d2833e84879b9709143e1f593f000000181830891507f30644e72e131a029b85045b68181585d2833e84879b9709143e1f593f000000184870990507f30644e72e131a029b85045b68181585d2833e84879b9709143e1f593f0000001877f30644e72e131a029b85045b68181585d2833e84879b9709143e1f593f000000103820890507f30644e72e131a029b85045b68181585d2833e84879b9709143e1f593f0000001610e4051820990507f30644e72e131a029b85045b68181585d2833e84879b9709143e1f593f000000181830891507f30644e72e131a029b85045b68181585d2833e84879b9709143e1f593f0000001610fa051830991506125ff83836104406102be565b50505050505050565b610e60517f30644e72e131a029b85045b68181585d2833e84879b9709143e1f593f0000001610de051610fe05109610e00517f30644e72e131a029b85045b68181585d2833e84879b9709143e1f593f0000001857f30644e72e131a029b85045b68181585d2833e84879b9709143e1f593f0000001838508087f30644e72e131a029b85045b68181585d2833e84879b9709143e1f593f000000181850993507f30644e72e131a029b85045b68181585d2833e84879b9709143e1f593f0000001877f30644e72e131a029b85045b68181585d2833e84879b9709143e1f593f0000001847f30644e72e131a029b85045b68181585d2833e84879b9709143e1f593f000000160058809080890507f30644e72e131a029b85045b68181585d2833e84879b9709143e1f593f000000181850993507f30644e72e131a029b85045b68181585d2833e84879b9709143e1f593f0000001887f30644e72e131a029b85045b68181585d2833e84879b9709143e1f593f0000001847f30644e72e131a029b85045b68181585d2833e84879b9709143e1f593f000000160078809080890507f30644e72e131a029b85045b68181585d2833e84879b9709143e1f593f000000181850993507f30644e72e131a029b85045b68181585d2833e84879b9709143e1f593f0000001897f30644e72e131a029b85045b68181585d2833e84879b9709143e1f593f0000001847f30644e72e131a029b85045b68181585d2833e84879b9709143e1f593f0000001600a8809080890507f30644e72e131a029b85045b68181585d2833e84879b9709143e1f593f00000018185099350505050611020517f30644e72e131a029b85045b68181585d2833e84879b9709143e1f593f000000180610e80518309830891507f30644e72e131a029b85045b68181585d2833e84879b9709143e1f593f0000001610fa0518309915081611340527f30644e72e131a029b85045b68181585d2833e84879b9709143e1f593f0000001610de051610e60510991507f30644e72e131a029b85045b68181585d2833e84879b9709143e1f593f0000001610b205183099150610de051610e00517f30644e72e131a029b85045b68181585d2833e84879b9709143e1f593f0000001867f30644e72e131a029b85045b68181585d2833e84879b9709143e1f593f0000001837f30644e72e131a029b85045b68181585d2833e84879b9709143e1f593f000000186610ac0510908087f30644e72e131a029b85045b68181585d2833e84879b9709143e1f593f000000181860994507f30644e72e131a029b85045b68181585d2833e84879b9709143e1f593f0000001887f30644e72e131a029b85045b68181585d2833e84879b9709143e1f593f0000001847f30644e72e131a029b85045b68181585d2833e84879b9709143e1f593f000000187610ae05109080890507f30644e72e131a029b85045b68181585d2833e84879b9709143e1f593f000000181860994507f30644e72e131a029b85045b68181585d2833e84879b9709143e1f593f0000001897f30644e72e131a029b85045b68181585d2833e84879b9709143e1f593f0000001847f30644e72e131a029b85045b68181585d2833e84879b9709143e1f593f000000187610b005109080890507f30644e72e131a029b85045b68181585d2833e84879b9709143e1f593f000000181860994505050507f30644e72e131a029b85045b68181585d2833e84879b9709143e1f593f0000001610fa05183099150612b1661108083610540610147565b612b22611080846101ee565b50505050505050565b610b60517f30644e72e131a029b85045b68181585d2833e84879b9709143e1f593f0000001610ea051820990507f30644e72e131a029b85045b68181585d2833e84879b9709143e1f593f000000161100051820990507f30644e72e131a029b85045b68181585d2833e84879b9709143e1f593f0000001610fa051820990508061138052610ba05190507f30644e72e131a029b85045b68181585d2833e84879b9709143e1f593f0000001610f2051820990507f30644e72e131a029b85045b68181585d2833e84879b9709143e1f593f0000001610b8051820890507f30644e72e131a029b85045b68181585d2833e84879b9709143e1f593f0000001610f8051820890505f839050610f0051807f30644e72e131a029b85045b68181585d2833e84879b9709143e1f593f000000180888309840892507f30644e72e131a029b85045b68181585d2833e84879b9709143e1f593f000000182820990507f30644e72e131a029b85045b68181585d2833e84879b9709143e1f593f000000180898309840892507f30644e72e131a029b85045b68181585d2833e84879b9709143e1f593f000000182820990507f30644e72e131a029b85045b68181585d2833e84879b9709143e1f593f00000018082610be05109840892507f30644e72e131a029b85045b68181585d2833e84879b9709143e1f593f0000001610bc051840992507f30644e72e131a029b85045b68181585d2833e84879b9709143e1f593f0000001610f40518408925050507f30644e72e131a029b85045b68181585d2833e84879b9709143e1f593f000000181830991507f30644e72e131a029b85045b68181585d2833e84879b9709143e1f593f0000001610f605183099150817f30644e72e131a029b85045b68181585d2833e84879b9709143e1f593f00000010391507f30644e72e131a029b85045b68181585d2833e84879b9709143e1f593f0000001610ea051830991507f30644e72e131a029b85045b68181585d2833e84879b9709143e1f593f000000161100051830991507f30644e72e131a029b85045b68181585d2833e84879b9709143e1f593f000000180610ec0516110205109830891507f30644e72e131a029b85045b68181585d2833e84879b9709143e1f593f000000180610ee0516110405109830891507f30644e72e131a029b85045b68181585d2833e84879b9709143e1f593f0000001610fa051830991508161136052505050505050565b6110605180610900516110c052610920516110e052612ed56110c0826109406102be565b7f30644e72e131a029b85045b68181585d2833e84879b9709143e1f593f00000018282099050612f0a6110c0826109806102be565b7f30644e72e131a029b85045b68181585d2833e84879b9709143e1f593f00000018282099050612f3f6110c0826109c06102be565b5050610a0051610a2051610a4051610a6051612f60818385876111006122c9565b612f6f818385876111006123b6565b612f7e81838587611100612608565b612f8c828486611100612b2b565b505050506105c051611140526105e05161116052610f005180612fb4611140826106006102be565b7f30644e72e131a029b85045b68181585d2833e84879b9709143e1f593f00000018282099050612fe9611140826106406102be565b7f30644e72e131a029b85045b68181585d2833e84879b9709143e1f593f0000001828209905061301e611140826106806102be565b5050565b60015f806110c051611180526110e0516111a052610c00516130aa565b5f807f30644e72e131a029b85045b68181585d2833e84879b9709143e1f593f0000001610fa0518609915061307761118083856102be565b7f30644e72e131a029b85045b68181585d2833e84879b9709143e1f593f000000180855184098708905094509492505050565b6130bb611180611100611180610196565b7f30644e72e131a029b85045b68181585d2833e84879b9709143e1f593f0000001610fa051850993507f30644e72e131a029b85045b68181585d2833e84879b9709143e1f593f000000180610c20518609820890506131208185610a0061074061303f565b915093506131348185610a2061078061303f565b915093506131488185610a406107c061303f565b915093507f30644e72e131a029b85045b68181585d2833e84879b9709143e1f593f0000001610fa051850993508392507f30644e72e131a029b85045b68181585d2833e84879b9709143e1f593f000000180610a60518609820890506131b48185610aa061040061303f565b915093506131c88185610ac061048061303f565b915093506131dc8185610ae06104c061303f565b915093506131f08185610b0061050061303f565b915093507f30644e72e131a029b85045b68181585d2833e84879b9709143e1f593f0000001610fa051850993508391507f30644e72e131a029b85045b68181585d2833e84879b9709143e1f593f000000180610b805186098208905061325c8185610bc061058061303f565b915093506132708185610be06106c061303f565b9150935080611200527f30644e72e131a029b85045b68181585d2833e84879b9709143e1f593f0000001610fa051850993507f30644e72e131a029b85045b68181585d2833e84879b9709143e1f593f000000180610fc051860961134051086132de6111c082610840610147565b7f30644e72e131a029b85045b68181585d2833e84879b9709143e1f593f000000185610b2051096133a1565b5f807f30644e72e131a029b85045b68181585d2833e84879b9709143e1f593f0000001610fa051870991507f30644e72e131a029b85045b68181585d2833e84879b9709143e1f593f000000180610fc0518409860861336c6111c082866102be565b7f30644e72e131a029b85045b68181585d2833e84879b9709143e1f593f0000001808651850989089150509550959350505050565b6133b2818787610a8061080061330a565b915095506133ca818761138051610b4061088061330a565b915095506133e2818761136051610b606108c061330a565b915095506133f7818786610ba061114061330a565b915095508061122052610fc0516134156112806111c0611180610196565b7f30644e72e131a029b85045b68181585d2833e84879b9709143e1f593f0000001611200517f30644e72e131a029b85045b68181585d2833e84879b9709143e1f593f00000018361122051090860016112405260026112605261347d61124082611240610147565b5050505050505050565b610fc051610fe0517f30644e72e131a029b85045b68181585d2833e84879b9709143e1f593f00000017f1dba8b5bdd64ef6ce29a9039aca3c0e524395c43b9227b96c75090cc6cc7ec97610fe051096134e46112406112806101ee565b6134f361128083610c406102be565b6135256112807f30644e72e131a029b85045b68181585d2833e84879b9709143e1f593f0000001858409610c806102be565b610c405161130052610c60516113205261354461130084610c806102be565b61354f61130061032a565b610700511561359c577f30644e72e131a029b85045b68181585d2833e84879b9709143e1f593f000000183840961358b61128082610cc06102be565b61359a61130082610d006102be565b505b611280515f526112a0516020527f198e9393920d483a7260bfb731fb5d25f1aa493335a9e71297e485b7aef312c26040527f1800deef121f1e76426a00665e5c4479674322d4f75edadd46debd5cd992f6ed6060527f090689d0585ff075ec9e99ad690c3395bc4b313370b38ef355acdadcd122975b6080527f12c85ea5db8c6deb4aab71808dcb408fe3d1e7690c43d37b4ce6cc0166fa7daa60a0526113005160c0526113205160e0527f260e01b251f6f1c7e7ff4e580791dee8ea51d87a358e038b4efe30fac09383c1610100527f0118c4d5b837bcc2bc89b5b398b5974e9f5944073b32078b7e231fec938883b0610120527f04fc6369f7110fe3d25156c1bb9a72859cf2a04641f99ba4ee413c80da6a5fe4610140527f22febda3c0c0632a56475b4214e5615e11e6dd3f96e6cea2854a87d4dacc5e556101605260205f6101805f60085afa80613717576137167f66696e616c50616972696e673a20707265636f6d70696c65206661696c7572656020610094565b5b5f51613749576137487f66696e616c50616972696e673a2070616972696e67206661696c757265000000601d610094565b5b50505050565b613757610406565b61375f6115ec565b61376761189b565b61376f612eb1565b613777613022565b61377f613487565b60015f5260205ff35b5f6137916137a8565b610200610700602082820301808320935050505090565b7f13598f50f1a62920416dd9f16d46032cbe810bb384da5b0ff42bdf6ab1e69662610200527f19df99dfa60feb4bd15ddb271efac0179104c5b7a27078115a91079ca2826d51610220527f2cf47b2a9e17ea94be18ecb13eec2e5706880527ed0d88fd5969ac069a8aac06610240527f2e3294b57b45a03075ee2e89c9e7d2ab5f261b5e2408578112b6aa7bf12a2e5f610260527f0377df0615f3f859583ca885861a6c0f885778f0633d082b9883afcbcb186c6c610280527f0cde99a920bf69e9ff1d42b719e2895f0da6d6a334f2a2a4e135cc93bf515a4a6102a0527f042222cc79ad515fdae98dddc09d8e78fc8af37a69baf36a04188ca54334c4436102c0527f0f0158e345c08da2021b703aac1b697d2f3553617fef778bf2c5fafc40324be16102e0527f0102fab7a43b3ac26db87f53bd303cf44d6f7c963046681422c32dea20a526df610300527f221a29c1df2e5822d060261802073700a285082ebb1263e53814b017a8bfb14b610320527f269fbe8da379085e789a60720c12324ee4efc0f9215bfc30a65134ecbe875682610340527f0134b14e94b7a719d213a0e7136547add67e71723ed82c87e8a0f8926fb002ac610360527f07d50d604f391c8f7331ce2df7115aa8a6db6bcc1ad246255b12da2e80f7d815610380527f16f31ebefd077f85029a1af6136a2d63e8e92015ea44bac6386cb05fc7aca56e6103a0527f1ceeda30b083c5b748a1dbbefc4b8324e35cb9830c630b8064ece3a7c30e5f4a6103c0527e37029b76eb626e15fefc39fb9c142499e9ee283063b2811afff7211b9a0b636103e0527f1885051503e3667eac61262e28b7cedd16a619d19e8820a522a269dc98262c69610400527f0daf7bffe99c0357aefcd6ccaf363ce5096e48d105fc8583e649589cc149183d610420527f215a735844e0035f245a45154f19635bdc70d8f48eef46384c2c948002af0c81610440527f1faecf6813ffbc0a2eeeb50ca035d4542ca557f15e2b82ffffb24024cf3df2d1610460527f2f24b1ffdea08385d0ca89b32db8601b3b95b255903edceac52402dfece9eee4610480527f1e90e41ecb35e8455c55bf4cfd41e80bb4e5dd845b65c6f77e2ac0821b09a8836104a0527f128d006b473b50bc85a1a2707c278e08186e4402010178bf930b7ea24e203ed06104c0527f0fa100f35e66d3c2429f1c20be00fe21b79a65e9de665ba420ee388ee0b47b3c6104e0527f3026de72fd5e47f96c7d0f4f0c15cfd5f50438991fdbb18d4c5d18561b0e87cd610500527f20162d33d551a2599be33cfba40358bdab4338891cfe7e028355e5a50442b5a4610520527f0a811f316900d60021c0ef765bcfc2070cc3a8b38b09a3b4be04e37e292ebaf1610540527f192c167388faa4266ced24b8e3687e81974aa8caaf1ac3e8a3fab3947c7b65d1610560527f2c513ed74d9d57a5ec901e074032741036353a2c4513422e96e7b53b302d765b6105c0527f04dd964427e430f16004076d708c0cb21e225056cc1d57418cfbd3d4729814686105e0527f1ea83e5e65c6f8068f4677e2911678cf329b28259642a32db1f14b8347828aac610600527f1d22bc884a2da4962a893ba8de13f57aaeb785ed52c5e686994839cab8f7475d610620527f0b2e7212d0d9cff26d0bdf3d79b2cac029a25dfeb1cafdf49e2349d7db348d89610640527f1301f9b252419ea240eb67fda720ca0b16d92364027285f95e9b1349490fa283610660527f02f7b99fdfa5b418548c2d777785820e02383cfc87e7085e280a375a358153bf610680527f09d004fe08dc4d19c382df36fad22ef676185663543703e6a4b40203e50fd8a66106a0527f300223627d9e977c0b02a64b49cb1c6c7833b82e25bacb420ef6f48b6deeed06610580527f2d0bd4b927912e6509088fb7167a30b85bd5d031e75b057b687e62fc6d779f916105a0527e6f5f6969088413e15abe92418dd7668c6c5fa2dcca168e71a98d84a9fe39de6106c0527f18550c804fadc55861b6a34d5341d594486833e62bd6137089f3335566ca40ee6106e0525f61070052565b5f80fd5b5f80fd5b5f80fd5b5f80fd5b5f80fd5b5f8083601f840112613d9e57613d9d613d7d565b5b8235905067ffffffffffffffff811115613dbb57613dba613d81565b5b602083019150836020820283011115613dd757613dd6613d85565b5b9250929050565b5f805f805f8060608789031215613df857613df7613d75565b5b5f87013567ffffffffffffffff811115613e1557613e14613d79565b5b613e2189828a01613d89565b9650965050602087013567ffffffffffffffff811115613e4457613e43613d79565b5b613e5089828a01613d89565b9450945050604087013567ffffffffffffffff811115613e7357613e72613d79565b5b613e7f89828a01613d89565b92509250509295509295509295565b5f8115159050919050565b613ea281613e8e565b82525050565b5f602082019050613ebb5f830184613e99565b92915050565b5f819050919050565b613ed381613ec1565b82525050565b5f602082019050613eec5f830184613eca565b9291505056fea2646970667358221220176515e870bac9aa420a455eebf5fb859cc55e39c348fc5c953423ef4967baa064736f6c634300081a0033",
  "immutableReferences": {},
  "source": "// SPDX-License-Identifier: MIT\n\npragma solidity ^0.8.26;\n\nimport \"./interfaces/IVerifier.sol\";\n\n/* solhint-disable max-line-length */\n/// @author Matter Labs\n/// @notice Modified version of the Permutations over Lagrange-bases for Oecumenical Noninteractive arguments of\n/// Knowledge (PLONK) verifier.\n/// Modifications have been made to optimize the proof system for zkSync Era circuits.\n/// @dev It uses a custom memory layout inside the inline assembly block. Each reserved memory cell is declared in the\n/// constants below.\n/// @dev For a better understanding of the verifier algorithm please refer to the following papers:\n/// * Original Plonk Article: https://eprint.iacr.org/2019/953.pdf\n/// * Original LookUp Article: https://eprint.iacr.org/2020/315.pdf\n/// * Plonk for zkSync v1.1: https://github.com/matter-labs/solidity_plonk_verifier/raw/recursive/bellman_vk_codegen_recursive/RecursivePlonkUnrolledForEthereum.pdf\n/// The notation used in the code is the same as in the papers.\n/* solhint-enable max-line-length */\ncontract Verifier is IVerifier {\n    /*//////////////////////////////////////////////////////////////\n                             Verification keys\n    //////////////////////////////////////////////////////////////*/\n\n    // Memory slots from 0x000 to 0x200 are reserved for intermediate computations and call to precompiles.\n\n    uint256 internal constant VK_GATE_SETUP_0_X_SLOT = 0x200 + 0x000;\n    uint256 internal constant VK_GATE_SETUP_0_Y_SLOT = 0x200 + 0x020;\n    uint256 internal constant VK_GATE_SETUP_1_X_SLOT = 0x200 + 0x040;\n    uint256 internal constant VK_GATE_SETUP_1_Y_SLOT = 0x200 + 0x060;\n    uint256 internal constant VK_GATE_SETUP_2_X_SLOT = 0x200 + 0x080;\n    uint256 internal constant VK_GATE_SETUP_2_Y_SLOT = 0x200 + 0x0a0;\n    uint256 internal constant VK_GATE_SETUP_3_X_SLOT = 0x200 + 0x0c0;\n    uint256 internal constant VK_GATE_SETUP_3_Y_SLOT = 0x200 + 0x0e0;\n    uint256 internal constant VK_GATE_SETUP_4_X_SLOT = 0x200 + 0x100;\n    uint256 internal constant VK_GATE_SETUP_4_Y_SLOT = 0x200 + 0x120;\n    uint256 internal constant VK_GATE_SETUP_5_X_SLOT = 0x200 + 0x140;\n    uint256 internal constant VK_GATE_SETUP_5_Y_SLOT = 0x200 + 0x160;\n    uint256 internal constant VK_GATE_SETUP_6_X_SLOT = 0x200 + 0x180;\n    uint256 internal constant VK_GATE_SETUP_6_Y_SLOT = 0x200 + 0x1a0;\n    uint256 internal constant VK_GATE_SETUP_7_X_SLOT = 0x200 + 0x1c0;\n    uint256 internal constant VK_GATE_SETUP_7_Y_SLOT = 0x200 + 0x1e0;\n\n    uint256 internal constant VK_GATE_SELECTORS_0_X_SLOT = 0x200 + 0x200;\n    uint256 internal constant VK_GATE_SELECTORS_0_Y_SLOT = 0x200 + 0x220;\n    uint256 internal constant VK_GATE_SELECTORS_1_X_SLOT = 0x200 + 0x240;\n    uint256 internal constant VK_GATE_SELECTORS_1_Y_SLOT = 0x200 + 0x260;\n\n    uint256 internal constant VK_PERMUTATION_0_X_SLOT = 0x200 + 0x280;\n    uint256 internal constant VK_PERMUTATION_0_Y_SLOT = 0x200 + 0x2a0;\n    uint256 internal constant VK_PERMUTATION_1_X_SLOT = 0x200 + 0x2c0;\n    uint256 internal constant VK_PERMUTATION_1_Y_SLOT = 0x200 + 0x2e0;\n    uint256 internal constant VK_PERMUTATION_2_X_SLOT = 0x200 + 0x300;\n    uint256 internal constant VK_PERMUTATION_2_Y_SLOT = 0x200 + 0x320;\n    uint256 internal constant VK_PERMUTATION_3_X_SLOT = 0x200 + 0x340;\n    uint256 internal constant VK_PERMUTATION_3_Y_SLOT = 0x200 + 0x360;\n\n    uint256 internal constant VK_LOOKUP_SELECTOR_X_SLOT = 0x200 + 0x380;\n    uint256 internal constant VK_LOOKUP_SELECTOR_Y_SLOT = 0x200 + 0x3a0;\n\n    uint256 internal constant VK_LOOKUP_TABLE_0_X_SLOT = 0x200 + 0x3c0;\n    uint256 internal constant VK_LOOKUP_TABLE_0_Y_SLOT = 0x200 + 0x3e0;\n    uint256 internal constant VK_LOOKUP_TABLE_1_X_SLOT = 0x200 + 0x400;\n    uint256 internal constant VK_LOOKUP_TABLE_1_Y_SLOT = 0x200 + 0x420;\n    uint256 internal constant VK_LOOKUP_TABLE_2_X_SLOT = 0x200 + 0x440;\n    uint256 internal constant VK_LOOKUP_TABLE_2_Y_SLOT = 0x200 + 0x460;\n    uint256 internal constant VK_LOOKUP_TABLE_3_X_SLOT = 0x200 + 0x480;\n    uint256 internal constant VK_LOOKUP_TABLE_3_Y_SLOT = 0x200 + 0x4a0;\n\n    uint256 internal constant VK_LOOKUP_TABLE_TYPE_X_SLOT = 0x200 + 0x4c0;\n    uint256 internal constant VK_LOOKUP_TABLE_TYPE_Y_SLOT = 0x200 + 0x4e0;\n\n    uint256 internal constant VK_RECURSIVE_FLAG_SLOT = 0x200 + 0x500;\n\n    /*//////////////////////////////////////////////////////////////\n                             Proof\n    //////////////////////////////////////////////////////////////*/\n\n    uint256 internal constant PROOF_PUBLIC_INPUT = 0x200 + 0x520 + 0x000;\n\n    uint256 internal constant PROOF_STATE_POLYS_0_X_SLOT = 0x200 + 0x520 + 0x020;\n    uint256 internal constant PROOF_STATE_POLYS_0_Y_SLOT = 0x200 + 0x520 + 0x040;\n    uint256 internal constant PROOF_STATE_POLYS_1_X_SLOT = 0x200 + 0x520 + 0x060;\n    uint256 internal constant PROOF_STATE_POLYS_1_Y_SLOT = 0x200 + 0x520 + 0x080;\n    uint256 internal constant PROOF_STATE_POLYS_2_X_SLOT = 0x200 + 0x520 + 0x0a0;\n    uint256 internal constant PROOF_STATE_POLYS_2_Y_SLOT = 0x200 + 0x520 + 0x0c0;\n    uint256 internal constant PROOF_STATE_POLYS_3_X_SLOT = 0x200 + 0x520 + 0x0e0;\n    uint256 internal constant PROOF_STATE_POLYS_3_Y_SLOT = 0x200 + 0x520 + 0x100;\n\n    uint256 internal constant PROOF_COPY_PERMUTATION_GRAND_PRODUCT_X_SLOT = 0x200 + 0x520 + 0x120;\n    uint256 internal constant PROOF_COPY_PERMUTATION_GRAND_PRODUCT_Y_SLOT = 0x200 + 0x520 + 0x140;\n\n    uint256 internal constant PROOF_LOOKUP_S_POLY_X_SLOT = 0x200 + 0x520 + 0x160;\n    uint256 internal constant PROOF_LOOKUP_S_POLY_Y_SLOT = 0x200 + 0x520 + 0x180;\n\n    uint256 internal constant PROOF_LOOKUP_GRAND_PRODUCT_X_SLOT = 0x200 + 0x520 + 0x1a0;\n    uint256 internal constant PROOF_LOOKUP_GRAND_PRODUCT_Y_SLOT = 0x200 + 0x520 + 0x1c0;\n\n    uint256 internal constant PROOF_QUOTIENT_POLY_PARTS_0_X_SLOT = 0x200 + 0x520 + 0x1e0;\n    uint256 internal constant PROOF_QUOTIENT_POLY_PARTS_0_Y_SLOT = 0x200 + 0x520 + 0x200;\n    uint256 internal constant PROOF_QUOTIENT_POLY_PARTS_1_X_SLOT = 0x200 + 0x520 + 0x220;\n    uint256 internal constant PROOF_QUOTIENT_POLY_PARTS_1_Y_SLOT = 0x200 + 0x520 + 0x240;\n    uint256 internal constant PROOF_QUOTIENT_POLY_PARTS_2_X_SLOT = 0x200 + 0x520 + 0x260;\n    uint256 internal constant PROOF_QUOTIENT_POLY_PARTS_2_Y_SLOT = 0x200 + 0x520 + 0x280;\n    uint256 internal constant PROOF_QUOTIENT_POLY_PARTS_3_X_SLOT = 0x200 + 0x520 + 0x2a0;\n    uint256 internal constant PROOF_QUOTIENT_POLY_PARTS_3_Y_SLOT = 0x200 + 0x520 + 0x2c0;\n\n    uint256 internal constant PROOF_STATE_POLYS_0_OPENING_AT_Z_SLOT = 0x200 + 0x520 + 0x2e0;\n    uint256 internal constant PROOF_STATE_POLYS_1_OPENING_AT_Z_SLOT = 0x200 + 0x520 + 0x300;\n    uint256 internal constant PROOF_STATE_POLYS_2_OPENING_AT_Z_SLOT = 0x200 + 0x520 + 0x320;\n    uint256 internal constant PROOF_STATE_POLYS_3_OPENING_AT_Z_SLOT = 0x200 + 0x520 + 0x340;\n\n    uint256 internal constant PROOF_STATE_POLYS_3_OPENING_AT_Z_OMEGA_SLOT = 0x200 + 0x520 + 0x360;\n    uint256 internal constant PROOF_GATE_SELECTORS_0_OPENING_AT_Z_SLOT = 0x200 + 0x520 + 0x380;\n\n    uint256 internal constant PROOF_COPY_PERMUTATION_POLYS_0_OPENING_AT_Z_SLOT = 0x200 + 0x520 + 0x3a0;\n    uint256 internal constant PROOF_COPY_PERMUTATION_POLYS_1_OPENING_AT_Z_SLOT = 0x200 + 0x520 + 0x3c0;\n    uint256 internal constant PROOF_COPY_PERMUTATION_POLYS_2_OPENING_AT_Z_SLOT = 0x200 + 0x520 + 0x3e0;\n\n    uint256 internal constant PROOF_COPY_PERMUTATION_GRAND_PRODUCT_OPENING_AT_Z_OMEGA_SLOT = 0x200 + 0x520 + 0x400;\n    uint256 internal constant PROOF_LOOKUP_S_POLY_OPENING_AT_Z_OMEGA_SLOT = 0x200 + 0x520 + 0x420;\n    uint256 internal constant PROOF_LOOKUP_GRAND_PRODUCT_OPENING_AT_Z_OMEGA_SLOT = 0x200 + 0x520 + 0x440;\n    uint256 internal constant PROOF_LOOKUP_T_POLY_OPENING_AT_Z_SLOT = 0x200 + 0x520 + 0x460;\n    uint256 internal constant PROOF_LOOKUP_T_POLY_OPENING_AT_Z_OMEGA_SLOT = 0x200 + 0x520 + 0x480;\n    uint256 internal constant PROOF_LOOKUP_SELECTOR_POLY_OPENING_AT_Z_SLOT = 0x200 + 0x520 + 0x4a0;\n    uint256 internal constant PROOF_LOOKUP_TABLE_TYPE_POLY_OPENING_AT_Z_SLOT = 0x200 + 0x520 + 0x4c0;\n    uint256 internal constant PROOF_QUOTIENT_POLY_OPENING_AT_Z_SLOT = 0x200 + 0x520 + 0x4e0;\n    uint256 internal constant PROOF_LINEARISATION_POLY_OPENING_AT_Z_SLOT = 0x200 + 0x520 + 0x500;\n\n    uint256 internal constant PROOF_OPENING_PROOF_AT_Z_X_SLOT = 0x200 + 0x520 + 0x520;\n    uint256 internal constant PROOF_OPENING_PROOF_AT_Z_Y_SLOT = 0x200 + 0x520 + 0x540;\n    uint256 internal constant PROOF_OPENING_PROOF_AT_Z_OMEGA_X_SLOT = 0x200 + 0x520 + 0x560;\n    uint256 internal constant PROOF_OPENING_PROOF_AT_Z_OMEGA_Y_SLOT = 0x200 + 0x520 + 0x580;\n\n    uint256 internal constant PROOF_RECURSIVE_PART_P1_X_SLOT = 0x200 + 0x520 + 0x5a0;\n    uint256 internal constant PROOF_RECURSIVE_PART_P1_Y_SLOT = 0x200 + 0x520 + 0x5c0;\n\n    uint256 internal constant PROOF_RECURSIVE_PART_P2_X_SLOT = 0x200 + 0x520 + 0x5e0;\n    uint256 internal constant PROOF_RECURSIVE_PART_P2_Y_SLOT = 0x200 + 0x520 + 0x600;\n\n    /*//////////////////////////////////////////////////////////////\n                             Transcript slot\n    //////////////////////////////////////////////////////////////*/\n\n    uint256 internal constant TRANSCRIPT_BEGIN_SLOT = 0x200 + 0x520 + 0x620 + 0x00;\n    uint256 internal constant TRANSCRIPT_DST_BYTE_SLOT = 0x200 + 0x520 + 0x620 + 0x03;\n    uint256 internal constant TRANSCRIPT_STATE_0_SLOT = 0x200 + 0x520 + 0x620 + 0x04;\n    uint256 internal constant TRANSCRIPT_STATE_1_SLOT = 0x200 + 0x520 + 0x620 + 0x24;\n    uint256 internal constant TRANSCRIPT_CHALLENGE_SLOT = 0x200 + 0x520 + 0x620 + 0x44;\n\n    /*//////////////////////////////////////////////////////////////\n                             Partial verifier state\n    //////////////////////////////////////////////////////////////*/\n\n    uint256 internal constant STATE_ALPHA_SLOT = 0x200 + 0x520 + 0x620 + 0x80 + 0x000;\n    uint256 internal constant STATE_BETA_SLOT = 0x200 + 0x520 + 0x620 + 0x80 + 0x020;\n    uint256 internal constant STATE_GAMMA_SLOT = 0x200 + 0x520 + 0x620 + 0x80 + 0x040;\n    uint256 internal constant STATE_POWER_OF_ALPHA_2_SLOT = 0x200 + 0x520 + 0x620 + 0x80 + 0x060;\n    uint256 internal constant STATE_POWER_OF_ALPHA_3_SLOT = 0x200 + 0x520 + 0x620 + 0x80 + 0x080;\n    uint256 internal constant STATE_POWER_OF_ALPHA_4_SLOT = 0x200 + 0x520 + 0x620 + 0x80 + 0x0a0;\n    uint256 internal constant STATE_POWER_OF_ALPHA_5_SLOT = 0x200 + 0x520 + 0x620 + 0x80 + 0x0c0;\n    uint256 internal constant STATE_POWER_OF_ALPHA_6_SLOT = 0x200 + 0x520 + 0x620 + 0x80 + 0x0e0;\n    uint256 internal constant STATE_POWER_OF_ALPHA_7_SLOT = 0x200 + 0x520 + 0x620 + 0x80 + 0x100;\n    uint256 internal constant STATE_POWER_OF_ALPHA_8_SLOT = 0x200 + 0x520 + 0x620 + 0x80 + 0x120;\n    uint256 internal constant STATE_ETA_SLOT = 0x200 + 0x520 + 0x620 + 0x80 + 0x140;\n    uint256 internal constant STATE_BETA_LOOKUP_SLOT = 0x200 + 0x520 + 0x620 + 0x80 + 0x160;\n    uint256 internal constant STATE_GAMMA_LOOKUP_SLOT = 0x200 + 0x520 + 0x620 + 0x80 + 0x180;\n    uint256 internal constant STATE_BETA_PLUS_ONE_SLOT = 0x200 + 0x520 + 0x620 + 0x80 + 0x1a0;\n    uint256 internal constant STATE_BETA_GAMMA_PLUS_GAMMA_SLOT = 0x200 + 0x520 + 0x620 + 0x80 + 0x1c0;\n    uint256 internal constant STATE_V_SLOT = 0x200 + 0x520 + 0x620 + 0x80 + 0x1e0;\n    uint256 internal constant STATE_U_SLOT = 0x200 + 0x520 + 0x620 + 0x80 + 0x200;\n    uint256 internal constant STATE_Z_SLOT = 0x200 + 0x520 + 0x620 + 0x80 + 0x220;\n    uint256 internal constant STATE_Z_MINUS_LAST_OMEGA_SLOT = 0x200 + 0x520 + 0x620 + 0x80 + 0x240;\n    uint256 internal constant STATE_L_0_AT_Z_SLOT = 0x200 + 0x520 + 0x620 + 0x80 + 0x260;\n    uint256 internal constant STATE_L_N_MINUS_ONE_AT_Z_SLOT = 0x200 + 0x520 + 0x620 + 0x80 + 0x280;\n    uint256 internal constant STATE_Z_IN_DOMAIN_SIZE = 0x200 + 0x520 + 0x620 + 0x80 + 0x2a0;\n\n    /*//////////////////////////////////////////////////////////////\n                             Queries\n    //////////////////////////////////////////////////////////////*/\n\n    uint256 internal constant QUERIES_BUFFER_POINT_SLOT = 0x200 + 0x520 + 0x620 + 0x80 + 0x2c0 + 0x00;\n\n    uint256 internal constant QUERIES_AT_Z_0_X_SLOT = 0x200 + 0x520 + 0x620 + 0x80 + 0x2c0 + 0x40;\n    uint256 internal constant QUERIES_AT_Z_0_Y_SLOT = 0x200 + 0x520 + 0x620 + 0x80 + 0x2c0 + 0x60;\n    uint256 internal constant QUERIES_AT_Z_1_X_SLOT = 0x200 + 0x520 + 0x620 + 0x80 + 0x2c0 + 0x80;\n    uint256 internal constant QUERIES_AT_Z_1_Y_SLOT = 0x200 + 0x520 + 0x620 + 0x80 + 0x2c0 + 0xa0;\n\n    uint256 internal constant QUERIES_T_POLY_AGGREGATED_X_SLOT = 0x200 + 0x520 + 0x620 + 0x80 + 0x2c0 + 0xc0;\n    uint256 internal constant QUERIES_T_POLY_AGGREGATED_Y_SLOT = 0x200 + 0x520 + 0x620 + 0x80 + 0x2c0 + 0xe0;\n\n    /*//////////////////////////////////////////////////////////////\n                             Aggregated commitment\n    //////////////////////////////////////////////////////////////*/\n\n    uint256 internal constant AGGREGATED_AT_Z_X_SLOT = 0x200 + 0x520 + 0x620 + 0x80 + 0x2c0 + 0x100 + 0x00;\n    uint256 internal constant AGGREGATED_AT_Z_Y_SLOT = 0x200 + 0x520 + 0x620 + 0x80 + 0x2c0 + 0x100 + 0x20;\n\n    uint256 internal constant AGGREGATED_AT_Z_OMEGA_X_SLOT = 0x200 + 0x520 + 0x620 + 0x80 + 0x2c0 + 0x100 + 0x40;\n    uint256 internal constant AGGREGATED_AT_Z_OMEGA_Y_SLOT = 0x200 + 0x520 + 0x620 + 0x80 + 0x2c0 + 0x100 + 0x60;\n\n    uint256 internal constant AGGREGATED_OPENING_AT_Z_SLOT = 0x200 + 0x520 + 0x620 + 0x80 + 0x2c0 + 0x100 + 0x80;\n    uint256 internal constant AGGREGATED_OPENING_AT_Z_OMEGA_SLOT = 0x200 + 0x520 + 0x620 + 0x80 + 0x2c0 + 0x100 + 0xa0;\n\n    /*//////////////////////////////////////////////////////////////\n                             Pairing data\n    //////////////////////////////////////////////////////////////*/\n\n    uint256 internal constant PAIRING_BUFFER_POINT_X_SLOT = 0x200 + 0x520 + 0x620 + 0x80 + 0x2c0 + 0x100 + 0xc0 + 0x00;\n    uint256 internal constant PAIRING_BUFFER_POINT_Y_SLOT = 0x200 + 0x520 + 0x620 + 0x80 + 0x2c0 + 0x100 + 0xc0 + 0x20;\n\n    uint256 internal constant PAIRING_PAIR_WITH_GENERATOR_X_SLOT =\n        0x200 + 0x520 + 0x620 + 0x80 + 0x2c0 + 0x100 + 0xc0 + 0x40;\n    uint256 internal constant PAIRING_PAIR_WITH_GENERATOR_Y_SLOT =\n        0x200 + 0x520 + 0x620 + 0x80 + 0x2c0 + 0x100 + 0xc0 + 0x60;\n\n    uint256 internal constant PAIRING_PAIR_WITH_X_X_SLOT = 0x200 + 0x520 + 0x620 + 0x80 + 0x2c0 + 0x100 + 0x100 + 0x80;\n    uint256 internal constant PAIRING_PAIR_WITH_X_Y_SLOT = 0x200 + 0x520 + 0x620 + 0x80 + 0x2c0 + 0x100 + 0x100 + 0xa0;\n\n    /*//////////////////////////////////////////////////////////////\n               Slots for scalar multiplication optimizations\n    //////////////////////////////////////////////////////////////*/\n\n    uint256 internal constant COPY_PERMUTATION_FIRST_AGGREGATED_COMMITMENT_COEFF =\n        0x200 + 0x520 + 0x620 + 0x80 + 0x2c0 + 0x100 + 0x100 + 0xc0;\n    uint256 internal constant LOOKUP_GRAND_PRODUCT_FIRST_AGGREGATED_COMMITMENT_COEFF =\n        0x200 + 0x520 + 0x620 + 0x80 + 0x2c0 + 0x100 + 0x100 + 0xe0;\n    uint256 internal constant LOOKUP_S_FIRST_AGGREGATED_COMMITMENT_COEFF =\n        0x200 + 0x520 + 0x620 + 0x80 + 0x2c0 + 0x100 + 0x100 + 0x100;\n\n    /*//////////////////////////////////////////////////////////////\n                             Constants\n    //////////////////////////////////////////////////////////////*/\n\n    uint256 internal constant OMEGA = 0x1dba8b5bdd64ef6ce29a9039aca3c0e524395c43b9227b96c75090cc6cc7ec97;\n    uint256 internal constant DOMAIN_SIZE = 0x4000000; // 2^26\n    uint256 internal constant Q_MOD = 21888242871839275222246405745257275088696311157297823662689037894645226208583;\n    uint256 internal constant R_MOD = 21888242871839275222246405745257275088548364400416034343698204186575808495617;\n\n    /// @dev flip of 0xe000000000000000000000000000000000000000000000000000000000000000;\n    uint256 internal constant FR_MASK = 0x1fffffffffffffffffffffffffffffffffffffffffffffffffffffffffffffff;\n\n    // non residues\n    uint256 internal constant NON_RESIDUES_0 = 0x05;\n    uint256 internal constant NON_RESIDUES_1 = 0x07;\n    uint256 internal constant NON_RESIDUES_2 = 0x0a;\n\n    // trusted setup g2 elements\n    uint256 internal constant G2_ELEMENTS_0_X1 = 0x198e9393920d483a7260bfb731fb5d25f1aa493335a9e71297e485b7aef312c2;\n    uint256 internal constant G2_ELEMENTS_0_X2 = 0x1800deef121f1e76426a00665e5c4479674322d4f75edadd46debd5cd992f6ed;\n    uint256 internal constant G2_ELEMENTS_0_Y1 = 0x090689d0585ff075ec9e99ad690c3395bc4b313370b38ef355acdadcd122975b;\n    uint256 internal constant G2_ELEMENTS_0_Y2 = 0x12c85ea5db8c6deb4aab71808dcb408fe3d1e7690c43d37b4ce6cc0166fa7daa;\n    uint256 internal constant G2_ELEMENTS_1_X1 = 0x260e01b251f6f1c7e7ff4e580791dee8ea51d87a358e038b4efe30fac09383c1;\n    uint256 internal constant G2_ELEMENTS_1_X2 = 0x0118c4d5b837bcc2bc89b5b398b5974e9f5944073b32078b7e231fec938883b0;\n    uint256 internal constant G2_ELEMENTS_1_Y1 = 0x04fc6369f7110fe3d25156c1bb9a72859cf2a04641f99ba4ee413c80da6a5fe4;\n    uint256 internal constant G2_ELEMENTS_1_Y2 = 0x22febda3c0c0632a56475b4214e5615e11e6dd3f96e6cea2854a87d4dacc5e55;\n\n    /// @notice Calculates a keccak256 hash of the runtime loaded verification keys.\n    /// @return vkHash The keccak256 hash of the loaded verification keys.\n    function verificationKeyHash() external pure returns (bytes32 vkHash) {\n        _loadVerificationKey();\n\n        assembly {\n            let start := VK_GATE_SETUP_0_X_SLOT\n            let end := VK_RECURSIVE_FLAG_SLOT\n            let length := add(sub(end, start), 0x20)\n\n            vkHash := keccak256(start, length)\n        }\n    }\n\n    /// @notice Load verification keys to memory in runtime.\n    /// @dev The constants are loaded into memory in a specific layout declared in the constants starting from\n    /// `VK_` prefix.\n    /// NOTE: Function may corrupt the memory state if some memory was used before this function was called.\n    /// The VK consists of commitments to setup polynomials:\n    /// [q_a], [q_b], [q_c], [q_d],                  - main gate setup commitments\n    /// [q_{d_next}], [q_ab], [q_ac], [q_const]      /\n    /// [main_gate_selector], [custom_gate_selector] - gate selectors commitments\n    /// [sigma_0], [sigma_1], [sigma_2], [sigma_3]   - permutation polynomials commitments\n    /// [lookup_selector]                            - lookup selector commitment\n    /// [col_0], [col_1], [col_2], [col_3]           - lookup columns commitments\n    /// [table_type]                                 - lookup table type commitment\n    function _loadVerificationKey() internal pure virtual {\n        assembly {\n            // gate setup commitments\n            mstore(VK_GATE_SETUP_0_X_SLOT, 0x13598f50f1a62920416dd9f16d46032cbe810bb384da5b0ff42bdf6ab1e69662)\n            mstore(VK_GATE_SETUP_0_Y_SLOT, 0x19df99dfa60feb4bd15ddb271efac0179104c5b7a27078115a91079ca2826d51)\n            mstore(VK_GATE_SETUP_1_X_SLOT, 0x2cf47b2a9e17ea94be18ecb13eec2e5706880527ed0d88fd5969ac069a8aac06)\n            mstore(VK_GATE_SETUP_1_Y_SLOT, 0x2e3294b57b45a03075ee2e89c9e7d2ab5f261b5e2408578112b6aa7bf12a2e5f)\n            mstore(VK_GATE_SETUP_2_X_SLOT, 0x0377df0615f3f859583ca885861a6c0f885778f0633d082b9883afcbcb186c6c)\n            mstore(VK_GATE_SETUP_2_Y_SLOT, 0x0cde99a920bf69e9ff1d42b719e2895f0da6d6a334f2a2a4e135cc93bf515a4a)\n            mstore(VK_GATE_SETUP_3_X_SLOT, 0x042222cc79ad515fdae98dddc09d8e78fc8af37a69baf36a04188ca54334c443)\n            mstore(VK_GATE_SETUP_3_Y_SLOT, 0x0f0158e345c08da2021b703aac1b697d2f3553617fef778bf2c5fafc40324be1)\n            mstore(VK_GATE_SETUP_4_X_SLOT, 0x0102fab7a43b3ac26db87f53bd303cf44d6f7c963046681422c32dea20a526df)\n            mstore(VK_GATE_SETUP_4_Y_SLOT, 0x221a29c1df2e5822d060261802073700a285082ebb1263e53814b017a8bfb14b)\n            mstore(VK_GATE_SETUP_5_X_SLOT, 0x269fbe8da379085e789a60720c12324ee4efc0f9215bfc30a65134ecbe875682)\n            mstore(VK_GATE_SETUP_5_Y_SLOT, 0x0134b14e94b7a719d213a0e7136547add67e71723ed82c87e8a0f8926fb002ac)\n            mstore(VK_GATE_SETUP_6_X_SLOT, 0x07d50d604f391c8f7331ce2df7115aa8a6db6bcc1ad246255b12da2e80f7d815)\n            mstore(VK_GATE_SETUP_6_Y_SLOT, 0x16f31ebefd077f85029a1af6136a2d63e8e92015ea44bac6386cb05fc7aca56e)\n            mstore(VK_GATE_SETUP_7_X_SLOT, 0x1ceeda30b083c5b748a1dbbefc4b8324e35cb9830c630b8064ece3a7c30e5f4a)\n            mstore(VK_GATE_SETUP_7_Y_SLOT, 0x0037029b76eb626e15fefc39fb9c142499e9ee283063b2811afff7211b9a0b63)\n\n            // gate selectors commitments\n            mstore(VK_GATE_SELECTORS_0_X_SLOT, 0x1885051503e3667eac61262e28b7cedd16a619d19e8820a522a269dc98262c69)\n            mstore(VK_GATE_SELECTORS_0_Y_SLOT, 0x0daf7bffe99c0357aefcd6ccaf363ce5096e48d105fc8583e649589cc149183d)\n            mstore(VK_GATE_SELECTORS_1_X_SLOT, 0x215a735844e0035f245a45154f19635bdc70d8f48eef46384c2c948002af0c81)\n            mstore(VK_GATE_SELECTORS_1_Y_SLOT, 0x1faecf6813ffbc0a2eeeb50ca035d4542ca557f15e2b82ffffb24024cf3df2d1)\n\n            // permutation commitments\n            mstore(VK_PERMUTATION_0_X_SLOT, 0x2f24b1ffdea08385d0ca89b32db8601b3b95b255903edceac52402dfece9eee4)\n            mstore(VK_PERMUTATION_0_Y_SLOT, 0x1e90e41ecb35e8455c55bf4cfd41e80bb4e5dd845b65c6f77e2ac0821b09a883)\n            mstore(VK_PERMUTATION_1_X_SLOT, 0x128d006b473b50bc85a1a2707c278e08186e4402010178bf930b7ea24e203ed0)\n            mstore(VK_PERMUTATION_1_Y_SLOT, 0x0fa100f35e66d3c2429f1c20be00fe21b79a65e9de665ba420ee388ee0b47b3c)\n            mstore(VK_PERMUTATION_2_X_SLOT, 0x3026de72fd5e47f96c7d0f4f0c15cfd5f50438991fdbb18d4c5d18561b0e87cd)\n            mstore(VK_PERMUTATION_2_Y_SLOT, 0x20162d33d551a2599be33cfba40358bdab4338891cfe7e028355e5a50442b5a4)\n            mstore(VK_PERMUTATION_3_X_SLOT, 0x0a811f316900d60021c0ef765bcfc2070cc3a8b38b09a3b4be04e37e292ebaf1)\n            mstore(VK_PERMUTATION_3_Y_SLOT, 0x192c167388faa4266ced24b8e3687e81974aa8caaf1ac3e8a3fab3947c7b65d1)\n\n            // lookup tables commitments\n            mstore(VK_LOOKUP_TABLE_0_X_SLOT, 0x2c513ed74d9d57a5ec901e074032741036353a2c4513422e96e7b53b302d765b)\n            mstore(VK_LOOKUP_TABLE_0_Y_SLOT, 0x04dd964427e430f16004076d708c0cb21e225056cc1d57418cfbd3d472981468)\n            mstore(VK_LOOKUP_TABLE_1_X_SLOT, 0x1ea83e5e65c6f8068f4677e2911678cf329b28259642a32db1f14b8347828aac)\n            mstore(VK_LOOKUP_TABLE_1_Y_SLOT, 0x1d22bc884a2da4962a893ba8de13f57aaeb785ed52c5e686994839cab8f7475d)\n            mstore(VK_LOOKUP_TABLE_2_X_SLOT, 0x0b2e7212d0d9cff26d0bdf3d79b2cac029a25dfeb1cafdf49e2349d7db348d89)\n            mstore(VK_LOOKUP_TABLE_2_Y_SLOT, 0x1301f9b252419ea240eb67fda720ca0b16d92364027285f95e9b1349490fa283)\n            mstore(VK_LOOKUP_TABLE_3_X_SLOT, 0x02f7b99fdfa5b418548c2d777785820e02383cfc87e7085e280a375a358153bf)\n            mstore(VK_LOOKUP_TABLE_3_Y_SLOT, 0x09d004fe08dc4d19c382df36fad22ef676185663543703e6a4b40203e50fd8a6)\n\n            // lookup selector commitment\n            mstore(VK_LOOKUP_SELECTOR_X_SLOT, 0x300223627d9e977c0b02a64b49cb1c6c7833b82e25bacb420ef6f48b6deeed06)\n            mstore(VK_LOOKUP_SELECTOR_Y_SLOT, 0x2d0bd4b927912e6509088fb7167a30b85bd5d031e75b057b687e62fc6d779f91)\n\n            // table type commitment\n            mstore(VK_LOOKUP_TABLE_TYPE_X_SLOT, 0x006f5f6969088413e15abe92418dd7668c6c5fa2dcca168e71a98d84a9fe39de)\n            mstore(VK_LOOKUP_TABLE_TYPE_Y_SLOT, 0x18550c804fadc55861b6a34d5341d594486833e62bd6137089f3335566ca40ee)\n\n            // flag for using recursive part\n            mstore(VK_RECURSIVE_FLAG_SLOT, 0)\n        }\n    }\n\n    /// @dev Verifies a zk-SNARK proof.\n    /// @return A boolean value indicating whether the zk-SNARK proof is valid.\n    /// Note: The function may revert execution instead of returning false in some cases.\n    function verify(\n        uint256[] calldata, // _publicInputs\n        uint256[] calldata, // _proof\n        uint256[] calldata // _recursiveAggregationInput\n    ) external view returns (bool) {\n        // No memory was accessed yet, so keys can be loaded into the right place and not corrupt any other memory.\n        _loadVerificationKey();\n\n        // Begining of the big inline assembly block that makes all the verification work.\n        // Note: We use the custom memory layout, so the return value should be returned from the assembly, not\n        // Solidity code.\n        assembly {\n            /*//////////////////////////////////////////////////////////////\n                                    Utils\n            //////////////////////////////////////////////////////////////*/\n\n            /// @dev Reverts execution with a provided revert reason.\n            /// @param len The byte length of the error message string, which is expected to be no more than 32.\n            /// @param reason The 1-word revert reason string, encoded in ASCII.\n            function revertWithMessage(len, reason) {\n                // \"Error(string)\" signature: bytes32(bytes4(keccak256(\"Error(string)\")))\n                mstore(0x00, 0x08c379a000000000000000000000000000000000000000000000000000000000)\n                // Data offset\n                mstore(0x04, 0x0000000000000000000000000000000000000000000000000000000000000020)\n                // Length of revert string\n                mstore(0x24, len)\n                // Revert reason\n                mstore(0x44, reason)\n                // Revert\n                revert(0x00, 0x64)\n            }\n\n            /// @dev Performs modular exponentiation using the formula (value ^ power) mod R_MOD.\n            function modexp(value, power) -> res {\n                mstore(0x00, 0x20)\n                mstore(0x20, 0x20)\n                mstore(0x40, 0x20)\n                mstore(0x60, value)\n                mstore(0x80, power)\n                mstore(0xa0, R_MOD)\n                if iszero(staticcall(gas(), 5, 0, 0xc0, 0x00, 0x20)) {\n                    revertWithMessage(24, \"modexp precompile failed\")\n                }\n                res := mload(0x00)\n            }\n\n            /// @dev Performs a point multiplication operation and stores the result in a given memory destination.\n            function pointMulIntoDest(point, s, dest) {\n                mstore(0x00, mload(point))\n                mstore(0x20, mload(add(point, 0x20)))\n                mstore(0x40, s)\n                if iszero(staticcall(gas(), 7, 0, 0x60, dest, 0x40)) {\n                    revertWithMessage(30, \"pointMulIntoDest: ecMul failed\")\n                }\n            }\n\n            /// @dev Performs a point addition operation and stores the result in a given memory destination.\n            function pointAddIntoDest(p1, p2, dest) {\n                mstore(0x00, mload(p1))\n                mstore(0x20, mload(add(p1, 0x20)))\n                mstore(0x40, mload(p2))\n                mstore(0x60, mload(add(p2, 0x20)))\n                if iszero(staticcall(gas(), 6, 0x00, 0x80, dest, 0x40)) {\n                    revertWithMessage(30, \"pointAddIntoDest: ecAdd failed\")\n                }\n            }\n\n            /// @dev Performs a point subtraction operation and updates the first point with the result.\n            function pointSubAssign(p1, p2) {\n                mstore(0x00, mload(p1))\n                mstore(0x20, mload(add(p1, 0x20)))\n                mstore(0x40, mload(p2))\n                mstore(0x60, sub(Q_MOD, mload(add(p2, 0x20))))\n                if iszero(staticcall(gas(), 6, 0x00, 0x80, p1, 0x40)) {\n                    revertWithMessage(28, \"pointSubAssign: ecAdd failed\")\n                }\n            }\n\n            /// @dev Performs a point addition operation and updates the first point with the result.\n            function pointAddAssign(p1, p2) {\n                mstore(0x00, mload(p1))\n                mstore(0x20, mload(add(p1, 0x20)))\n                mstore(0x40, mload(p2))\n                mstore(0x60, mload(add(p2, 0x20)))\n                if iszero(staticcall(gas(), 6, 0x00, 0x80, p1, 0x40)) {\n                    revertWithMessage(28, \"pointAddAssign: ecAdd failed\")\n                }\n            }\n\n            /// @dev Performs a point multiplication operation and then adds the result to the destination point.\n            function pointMulAndAddIntoDest(point, s, dest) {\n                mstore(0x00, mload(point))\n                mstore(0x20, mload(add(point, 0x20)))\n                mstore(0x40, s)\n                let success := staticcall(gas(), 7, 0, 0x60, 0, 0x40)\n\n                mstore(0x40, mload(dest))\n                mstore(0x60, mload(add(dest, 0x20)))\n                success := and(success, staticcall(gas(), 6, 0x00, 0x80, dest, 0x40))\n\n                if iszero(success) {\n                    revertWithMessage(22, \"pointMulAndAddIntoDest\")\n                }\n            }\n\n            /// @dev Negates an elliptic curve point by changing the sign of the y-coordinate.\n            function pointNegate(point) {\n                let pY := mload(add(point, 0x20))\n                switch pY\n                case 0 {\n                    if mload(point) {\n                        revertWithMessage(26, \"pointNegate: invalid point\")\n                    }\n                }\n                default {\n                    mstore(add(point, 0x20), sub(Q_MOD, pY))\n                }\n            }\n\n            /*//////////////////////////////////////////////////////////////\n                                    Transcript helpers\n            //////////////////////////////////////////////////////////////*/\n\n            /// @dev Updates the transcript state with a new challenge value.\n            function updateTranscript(value) {\n                mstore8(TRANSCRIPT_DST_BYTE_SLOT, 0x00)\n                mstore(TRANSCRIPT_CHALLENGE_SLOT, value)\n                let newState0 := keccak256(TRANSCRIPT_BEGIN_SLOT, 0x64)\n                mstore8(TRANSCRIPT_DST_BYTE_SLOT, 0x01)\n                let newState1 := keccak256(TRANSCRIPT_BEGIN_SLOT, 0x64)\n                mstore(TRANSCRIPT_STATE_1_SLOT, newState1)\n                mstore(TRANSCRIPT_STATE_0_SLOT, newState0)\n            }\n\n            /// @dev Retrieves a transcript challenge.\n            function getTranscriptChallenge(numberOfChallenge) -> challenge {\n                mstore8(TRANSCRIPT_DST_BYTE_SLOT, 0x02)\n                mstore(TRANSCRIPT_CHALLENGE_SLOT, shl(224, numberOfChallenge))\n                challenge := and(keccak256(TRANSCRIPT_BEGIN_SLOT, 0x48), FR_MASK)\n            }\n\n            /*//////////////////////////////////////////////////////////////\n                                    1. Load Proof\n            //////////////////////////////////////////////////////////////*/\n\n            /// @dev This function loads a zk-SNARK proof, ensures it's properly formatted, and stores it in memory.\n            /// It ensures the number of inputs and the elliptic curve point's validity.\n            /// Note: It does NOT reject inputs that exceed these module sizes, but rather wraps them within the\n            /// module bounds.\n            /// The proof consists of:\n            /// 1. Public input: (1 field element from F_r)\n            ///\n            /// 2. Polynomial commitments (elliptic curve points over F_q):\n            ///     [a], [b], [c], [d]         - state polynomials commitments\n            ///     [z_perm]                   - copy-permutation grand product commitment\n            ///     [s]                        - polynomial for lookup argument commitment\n            ///     [z_lookup]                 - lookup grand product commitment\n            ///     [t_0], [t_1], [t_2], [t_3] - quotient polynomial parts commitments\n            ///     [W], [W']                  - proof openings commitments\n            ///\n            /// 3. Polynomial evaluations at z and z*omega (field elements from F_r):\n            ///     t(z)                                  - quotient polynomial opening\n            ///     a(z), b(z), c(z), d(z), d(z*omega)    - state polynomials openings\n            ///     main_gate_selector(z)                 - main gate selector opening\n            ///     sigma_0(z), sigma_1(z), sigma_2(z)    - permutation polynomials openings\n            ///     z_perm(z*omega)                       - copy-permutation grand product opening\n            ///     z_lookup(z*omega)                     - lookup grand product opening\n            ///     lookup_selector(z)                    - lookup selector opening\n            ///     s(x*omega), t(z*omega), table_type(z) - lookup argument polynomial openings\n            ///     r(z)                                  - linearisation polynomial opening\n            ///\n            /// 4. Recursive proof (0 or 2 elliptic curve points over F_q)\n            function loadProof() {\n                // 1. Load public input\n                let offset := calldataload(0x04)\n                let publicInputLengthInWords := calldataload(add(offset, 0x04))\n                let isValid := eq(publicInputLengthInWords, 1) // We expect only one public input\n                mstore(PROOF_PUBLIC_INPUT, and(calldataload(add(offset, 0x24)), FR_MASK))\n\n                // 2. Load the proof (except for the recursive part)\n                offset := calldataload(0x24)\n                let proofLengthInWords := calldataload(add(offset, 0x04))\n                isValid := and(eq(proofLengthInWords, 44), isValid)\n\n                // PROOF_STATE_POLYS_0\n                {\n                    let x := mod(calldataload(add(offset, 0x024)), Q_MOD)\n                    let y := mod(calldataload(add(offset, 0x044)), Q_MOD)\n                    let xx := mulmod(x, x, Q_MOD)\n                    isValid := and(eq(mulmod(y, y, Q_MOD), addmod(mulmod(x, xx, Q_MOD), 3, Q_MOD)), isValid)\n                    mstore(PROOF_STATE_POLYS_0_X_SLOT, x)\n                    mstore(PROOF_STATE_POLYS_0_Y_SLOT, y)\n                }\n                // PROOF_STATE_POLYS_1\n                {\n                    let x := mod(calldataload(add(offset, 0x064)), Q_MOD)\n                    let y := mod(calldataload(add(offset, 0x084)), Q_MOD)\n                    let xx := mulmod(x, x, Q_MOD)\n                    isValid := and(eq(mulmod(y, y, Q_MOD), addmod(mulmod(x, xx, Q_MOD), 3, Q_MOD)), isValid)\n                    mstore(PROOF_STATE_POLYS_1_X_SLOT, x)\n                    mstore(PROOF_STATE_POLYS_1_Y_SLOT, y)\n                }\n                // PROOF_STATE_POLYS_2\n                {\n                    let x := mod(calldataload(add(offset, 0x0a4)), Q_MOD)\n                    let y := mod(calldataload(add(offset, 0x0c4)), Q_MOD)\n                    let xx := mulmod(x, x, Q_MOD)\n                    isValid := and(eq(mulmod(y, y, Q_MOD), addmod(mulmod(x, xx, Q_MOD), 3, Q_MOD)), isValid)\n                    mstore(PROOF_STATE_POLYS_2_X_SLOT, x)\n                    mstore(PROOF_STATE_POLYS_2_Y_SLOT, y)\n                }\n                // PROOF_STATE_POLYS_3\n                {\n                    let x := mod(calldataload(add(offset, 0x0e4)), Q_MOD)\n                    let y := mod(calldataload(add(offset, 0x104)), Q_MOD)\n                    let xx := mulmod(x, x, Q_MOD)\n                    isValid := and(eq(mulmod(y, y, Q_MOD), addmod(mulmod(x, xx, Q_MOD), 3, Q_MOD)), isValid)\n                    mstore(PROOF_STATE_POLYS_3_X_SLOT, x)\n                    mstore(PROOF_STATE_POLYS_3_Y_SLOT, y)\n                }\n                // PROOF_COPY_PERMUTATION_GRAND_PRODUCT\n                {\n                    let x := mod(calldataload(add(offset, 0x124)), Q_MOD)\n                    let y := mod(calldataload(add(offset, 0x144)), Q_MOD)\n                    let xx := mulmod(x, x, Q_MOD)\n                    isValid := and(eq(mulmod(y, y, Q_MOD), addmod(mulmod(x, xx, Q_MOD), 3, Q_MOD)), isValid)\n                    mstore(PROOF_COPY_PERMUTATION_GRAND_PRODUCT_X_SLOT, x)\n                    mstore(PROOF_COPY_PERMUTATION_GRAND_PRODUCT_Y_SLOT, y)\n                }\n                // PROOF_LOOKUP_S_POLY\n                {\n                    let x := mod(calldataload(add(offset, 0x164)), Q_MOD)\n                    let y := mod(calldataload(add(offset, 0x184)), Q_MOD)\n                    let xx := mulmod(x, x, Q_MOD)\n                    isValid := and(eq(mulmod(y, y, Q_MOD), addmod(mulmod(x, xx, Q_MOD), 3, Q_MOD)), isValid)\n                    mstore(PROOF_LOOKUP_S_POLY_X_SLOT, x)\n                    mstore(PROOF_LOOKUP_S_POLY_Y_SLOT, y)\n                }\n                // PROOF_LOOKUP_GRAND_PRODUCT\n                {\n                    let x := mod(calldataload(add(offset, 0x1a4)), Q_MOD)\n                    let y := mod(calldataload(add(offset, 0x1c4)), Q_MOD)\n                    let xx := mulmod(x, x, Q_MOD)\n                    isValid := and(eq(mulmod(y, y, Q_MOD), addmod(mulmod(x, xx, Q_MOD), 3, Q_MOD)), isValid)\n                    mstore(PROOF_LOOKUP_GRAND_PRODUCT_X_SLOT, x)\n                    mstore(PROOF_LOOKUP_GRAND_PRODUCT_Y_SLOT, y)\n                }\n                // PROOF_QUOTIENT_POLY_PARTS_0\n                {\n                    let x := mod(calldataload(add(offset, 0x1e4)), Q_MOD)\n                    let y := mod(calldataload(add(offset, 0x204)), Q_MOD)\n                    let xx := mulmod(x, x, Q_MOD)\n                    isValid := and(eq(mulmod(y, y, Q_MOD), addmod(mulmod(x, xx, Q_MOD), 3, Q_MOD)), isValid)\n                    mstore(PROOF_QUOTIENT_POLY_PARTS_0_X_SLOT, x)\n                    mstore(PROOF_QUOTIENT_POLY_PARTS_0_Y_SLOT, y)\n                }\n                // PROOF_QUOTIENT_POLY_PARTS_1\n                {\n                    let x := mod(calldataload(add(offset, 0x224)), Q_MOD)\n                    let y := mod(calldataload(add(offset, 0x244)), Q_MOD)\n                    let xx := mulmod(x, x, Q_MOD)\n                    isValid := and(eq(mulmod(y, y, Q_MOD), addmod(mulmod(x, xx, Q_MOD), 3, Q_MOD)), isValid)\n                    mstore(PROOF_QUOTIENT_POLY_PARTS_1_X_SLOT, x)\n                    mstore(PROOF_QUOTIENT_POLY_PARTS_1_Y_SLOT, y)\n                }\n                // PROOF_QUOTIENT_POLY_PARTS_2\n                {\n                    let x := mod(calldataload(add(offset, 0x264)), Q_MOD)\n                    let y := mod(calldataload(add(offset, 0x284)), Q_MOD)\n                    let xx := mulmod(x, x, Q_MOD)\n                    isValid := and(eq(mulmod(y, y, Q_MOD), addmod(mulmod(x, xx, Q_MOD), 3, Q_MOD)), isValid)\n                    mstore(PROOF_QUOTIENT_POLY_PARTS_2_X_SLOT, x)\n                    mstore(PROOF_QUOTIENT_POLY_PARTS_2_Y_SLOT, y)\n                }\n                // PROOF_QUOTIENT_POLY_PARTS_3\n                {\n                    let x := mod(calldataload(add(offset, 0x2a4)), Q_MOD)\n                    let y := mod(calldataload(add(offset, 0x2c4)), Q_MOD)\n                    let xx := mulmod(x, x, Q_MOD)\n                    isValid := and(eq(mulmod(y, y, Q_MOD), addmod(mulmod(x, xx, Q_MOD), 3, Q_MOD)), isValid)\n                    mstore(PROOF_QUOTIENT_POLY_PARTS_3_X_SLOT, x)\n                    mstore(PROOF_QUOTIENT_POLY_PARTS_3_Y_SLOT, y)\n                }\n\n                mstore(PROOF_STATE_POLYS_0_OPENING_AT_Z_SLOT, mod(calldataload(add(offset, 0x2e4)), R_MOD))\n                mstore(PROOF_STATE_POLYS_1_OPENING_AT_Z_SLOT, mod(calldataload(add(offset, 0x304)), R_MOD))\n                mstore(PROOF_STATE_POLYS_2_OPENING_AT_Z_SLOT, mod(calldataload(add(offset, 0x324)), R_MOD))\n                mstore(PROOF_STATE_POLYS_3_OPENING_AT_Z_SLOT, mod(calldataload(add(offset, 0x344)), R_MOD))\n\n                mstore(PROOF_STATE_POLYS_3_OPENING_AT_Z_OMEGA_SLOT, mod(calldataload(add(offset, 0x364)), R_MOD))\n                mstore(PROOF_GATE_SELECTORS_0_OPENING_AT_Z_SLOT, mod(calldataload(add(offset, 0x384)), R_MOD))\n\n                mstore(PROOF_COPY_PERMUTATION_POLYS_0_OPENING_AT_Z_SLOT, mod(calldataload(add(offset, 0x3a4)), R_MOD))\n                mstore(PROOF_COPY_PERMUTATION_POLYS_1_OPENING_AT_Z_SLOT, mod(calldataload(add(offset, 0x3c4)), R_MOD))\n                mstore(PROOF_COPY_PERMUTATION_POLYS_2_OPENING_AT_Z_SLOT, mod(calldataload(add(offset, 0x3e4)), R_MOD))\n\n                mstore(\n                    PROOF_COPY_PERMUTATION_GRAND_PRODUCT_OPENING_AT_Z_OMEGA_SLOT,\n                    mod(calldataload(add(offset, 0x404)), R_MOD)\n                )\n                mstore(PROOF_LOOKUP_S_POLY_OPENING_AT_Z_OMEGA_SLOT, mod(calldataload(add(offset, 0x424)), R_MOD))\n                mstore(PROOF_LOOKUP_GRAND_PRODUCT_OPENING_AT_Z_OMEGA_SLOT, mod(calldataload(add(offset, 0x444)), R_MOD))\n                mstore(PROOF_LOOKUP_T_POLY_OPENING_AT_Z_SLOT, mod(calldataload(add(offset, 0x464)), R_MOD))\n                mstore(PROOF_LOOKUP_T_POLY_OPENING_AT_Z_OMEGA_SLOT, mod(calldataload(add(offset, 0x484)), R_MOD))\n                mstore(PROOF_LOOKUP_SELECTOR_POLY_OPENING_AT_Z_SLOT, mod(calldataload(add(offset, 0x4a4)), R_MOD))\n                mstore(PROOF_LOOKUP_TABLE_TYPE_POLY_OPENING_AT_Z_SLOT, mod(calldataload(add(offset, 0x4c4)), R_MOD))\n                mstore(PROOF_QUOTIENT_POLY_OPENING_AT_Z_SLOT, mod(calldataload(add(offset, 0x4e4)), R_MOD))\n                mstore(PROOF_LINEARISATION_POLY_OPENING_AT_Z_SLOT, mod(calldataload(add(offset, 0x504)), R_MOD))\n\n                // PROOF_OPENING_PROOF_AT_Z\n                {\n                    let x := mod(calldataload(add(offset, 0x524)), Q_MOD)\n                    let y := mod(calldataload(add(offset, 0x544)), Q_MOD)\n                    let xx := mulmod(x, x, Q_MOD)\n                    isValid := and(eq(mulmod(y, y, Q_MOD), addmod(mulmod(x, xx, Q_MOD), 3, Q_MOD)), isValid)\n                    mstore(PROOF_OPENING_PROOF_AT_Z_X_SLOT, x)\n                    mstore(PROOF_OPENING_PROOF_AT_Z_Y_SLOT, y)\n                }\n                // PROOF_OPENING_PROOF_AT_Z_OMEGA\n                {\n                    let x := mod(calldataload(add(offset, 0x564)), Q_MOD)\n                    let y := mod(calldataload(add(offset, 0x584)), Q_MOD)\n                    let xx := mulmod(x, x, Q_MOD)\n                    isValid := and(eq(mulmod(y, y, Q_MOD), addmod(mulmod(x, xx, Q_MOD), 3, Q_MOD)), isValid)\n                    mstore(PROOF_OPENING_PROOF_AT_Z_OMEGA_X_SLOT, x)\n                    mstore(PROOF_OPENING_PROOF_AT_Z_OMEGA_Y_SLOT, y)\n                }\n\n                // 3. Load the recursive part of the proof\n                offset := calldataload(0x44)\n                let recursiveProofLengthInWords := calldataload(add(offset, 0x04))\n\n                switch mload(VK_RECURSIVE_FLAG_SLOT)\n                case 0 {\n                    // recursive part should be empty\n                    isValid := and(iszero(recursiveProofLengthInWords), isValid)\n                }\n                default {\n                    // recursive part should be consist of 2 points\n                    isValid := and(eq(recursiveProofLengthInWords, 4), isValid)\n                    // PROOF_RECURSIVE_PART_P1\n                    {\n                        let x := mod(calldataload(add(offset, 0x024)), Q_MOD)\n                        let y := mod(calldataload(add(offset, 0x044)), Q_MOD)\n                        let xx := mulmod(x, x, Q_MOD)\n                        isValid := and(eq(mulmod(y, y, Q_MOD), addmod(mulmod(x, xx, Q_MOD), 3, Q_MOD)), isValid)\n                        mstore(PROOF_RECURSIVE_PART_P1_X_SLOT, x)\n                        mstore(PROOF_RECURSIVE_PART_P1_Y_SLOT, y)\n                    }\n                    // PROOF_RECURSIVE_PART_P2\n                    {\n                        let x := mod(calldataload(add(offset, 0x064)), Q_MOD)\n                        let y := mod(calldataload(add(offset, 0x084)), Q_MOD)\n                        let xx := mulmod(x, x, Q_MOD)\n                        isValid := and(eq(mulmod(y, y, Q_MOD), addmod(mulmod(x, xx, Q_MOD), 3, Q_MOD)), isValid)\n                        mstore(PROOF_RECURSIVE_PART_P2_X_SLOT, x)\n                        mstore(PROOF_RECURSIVE_PART_P2_Y_SLOT, y)\n                    }\n                }\n\n                // Revert if a proof is not valid\n                if iszero(isValid) {\n                    revertWithMessage(27, \"loadProof: Proof is invalid\")\n                }\n            }\n\n            /*//////////////////////////////////////////////////////////////\n                                    2. Transcript initialization\n            //////////////////////////////////////////////////////////////*/\n\n            /// @notice Recomputes all challenges\n            /// @dev The process is the following:\n            /// Commit:   PI, [a], [b], [c], [d]\n            /// Get:      eta\n            /// Commit:   [s]\n            /// Get:      beta, gamma\n            /// Commit:   [z_perm]\n            /// Get:      beta', gamma'\n            /// Commit:   [z_lookup]\n            /// Get:      alpha\n            /// Commit:   [t_0], [t_1], [t_2], [t_3]\n            /// Get:      z\n            /// Commit:   t(z), a(z), b(z), c(z), d(z), d(z*omega),\n            ///           main_gate_selector(z),\n            ///           sigma_0(z), sigma_1(z), sigma_2(z),\n            ///           z_perm(z*omega),\n            ///           t(z), lookup_selector(z), table_type(z),\n            ///           s(x*omega), z_lookup(z*omega), t(z*omega),\n            ///           r(z)\n            /// Get:      v\n            /// Commit:   [W], [W']\n            /// Get:      u\n            function initializeTranscript() {\n                // Round 1\n                updateTranscript(mload(PROOF_PUBLIC_INPUT))\n                updateTranscript(mload(PROOF_STATE_POLYS_0_X_SLOT))\n                updateTranscript(mload(PROOF_STATE_POLYS_0_Y_SLOT))\n                updateTranscript(mload(PROOF_STATE_POLYS_1_X_SLOT))\n                updateTranscript(mload(PROOF_STATE_POLYS_1_Y_SLOT))\n                updateTranscript(mload(PROOF_STATE_POLYS_2_X_SLOT))\n                updateTranscript(mload(PROOF_STATE_POLYS_2_Y_SLOT))\n                updateTranscript(mload(PROOF_STATE_POLYS_3_X_SLOT))\n                updateTranscript(mload(PROOF_STATE_POLYS_3_Y_SLOT))\n\n                mstore(STATE_ETA_SLOT, getTranscriptChallenge(0))\n\n                // Round 1.5\n                updateTranscript(mload(PROOF_LOOKUP_S_POLY_X_SLOT))\n                updateTranscript(mload(PROOF_LOOKUP_S_POLY_Y_SLOT))\n\n                mstore(STATE_BETA_SLOT, getTranscriptChallenge(1))\n                mstore(STATE_GAMMA_SLOT, getTranscriptChallenge(2))\n\n                // Round 2\n                updateTranscript(mload(PROOF_COPY_PERMUTATION_GRAND_PRODUCT_X_SLOT))\n                updateTranscript(mload(PROOF_COPY_PERMUTATION_GRAND_PRODUCT_Y_SLOT))\n\n                mstore(STATE_BETA_LOOKUP_SLOT, getTranscriptChallenge(3))\n                mstore(STATE_GAMMA_LOOKUP_SLOT, getTranscriptChallenge(4))\n\n                // Round 2.5\n                updateTranscript(mload(PROOF_LOOKUP_GRAND_PRODUCT_X_SLOT))\n                updateTranscript(mload(PROOF_LOOKUP_GRAND_PRODUCT_Y_SLOT))\n\n                mstore(STATE_ALPHA_SLOT, getTranscriptChallenge(5))\n\n                // Round 3\n                updateTranscript(mload(PROOF_QUOTIENT_POLY_PARTS_0_X_SLOT))\n                updateTranscript(mload(PROOF_QUOTIENT_POLY_PARTS_0_Y_SLOT))\n                updateTranscript(mload(PROOF_QUOTIENT_POLY_PARTS_1_X_SLOT))\n                updateTranscript(mload(PROOF_QUOTIENT_POLY_PARTS_1_Y_SLOT))\n                updateTranscript(mload(PROOF_QUOTIENT_POLY_PARTS_2_X_SLOT))\n                updateTranscript(mload(PROOF_QUOTIENT_POLY_PARTS_2_Y_SLOT))\n                updateTranscript(mload(PROOF_QUOTIENT_POLY_PARTS_3_X_SLOT))\n                updateTranscript(mload(PROOF_QUOTIENT_POLY_PARTS_3_Y_SLOT))\n\n                {\n                    let z := getTranscriptChallenge(6)\n\n                    mstore(STATE_Z_SLOT, z)\n                    mstore(STATE_Z_IN_DOMAIN_SIZE, modexp(z, DOMAIN_SIZE))\n                }\n\n                // Round 4\n                updateTranscript(mload(PROOF_QUOTIENT_POLY_OPENING_AT_Z_SLOT))\n\n                updateTranscript(mload(PROOF_STATE_POLYS_0_OPENING_AT_Z_SLOT))\n                updateTranscript(mload(PROOF_STATE_POLYS_1_OPENING_AT_Z_SLOT))\n                updateTranscript(mload(PROOF_STATE_POLYS_2_OPENING_AT_Z_SLOT))\n                updateTranscript(mload(PROOF_STATE_POLYS_3_OPENING_AT_Z_SLOT))\n\n                updateTranscript(mload(PROOF_STATE_POLYS_3_OPENING_AT_Z_OMEGA_SLOT))\n                updateTranscript(mload(PROOF_GATE_SELECTORS_0_OPENING_AT_Z_SLOT))\n\n                updateTranscript(mload(PROOF_COPY_PERMUTATION_POLYS_0_OPENING_AT_Z_SLOT))\n                updateTranscript(mload(PROOF_COPY_PERMUTATION_POLYS_1_OPENING_AT_Z_SLOT))\n                updateTranscript(mload(PROOF_COPY_PERMUTATION_POLYS_2_OPENING_AT_Z_SLOT))\n\n                updateTranscript(mload(PROOF_COPY_PERMUTATION_GRAND_PRODUCT_OPENING_AT_Z_OMEGA_SLOT))\n                updateTranscript(mload(PROOF_LOOKUP_T_POLY_OPENING_AT_Z_SLOT))\n                updateTranscript(mload(PROOF_LOOKUP_SELECTOR_POLY_OPENING_AT_Z_SLOT))\n                updateTranscript(mload(PROOF_LOOKUP_TABLE_TYPE_POLY_OPENING_AT_Z_SLOT))\n                updateTranscript(mload(PROOF_LOOKUP_S_POLY_OPENING_AT_Z_OMEGA_SLOT))\n                updateTranscript(mload(PROOF_LOOKUP_GRAND_PRODUCT_OPENING_AT_Z_OMEGA_SLOT))\n                updateTranscript(mload(PROOF_LOOKUP_T_POLY_OPENING_AT_Z_OMEGA_SLOT))\n                updateTranscript(mload(PROOF_LINEARISATION_POLY_OPENING_AT_Z_SLOT))\n\n                mstore(STATE_V_SLOT, getTranscriptChallenge(7))\n\n                // Round 5\n                updateTranscript(mload(PROOF_OPENING_PROOF_AT_Z_X_SLOT))\n                updateTranscript(mload(PROOF_OPENING_PROOF_AT_Z_Y_SLOT))\n                updateTranscript(mload(PROOF_OPENING_PROOF_AT_Z_OMEGA_X_SLOT))\n                updateTranscript(mload(PROOF_OPENING_PROOF_AT_Z_OMEGA_Y_SLOT))\n\n                mstore(STATE_U_SLOT, getTranscriptChallenge(8))\n            }\n\n            /*//////////////////////////////////////////////////////////////\n                                    3. Verifying quotient evaluation\n            //////////////////////////////////////////////////////////////*/\n\n            /// @notice Compute linearisation polynomial's constant term: r_0\n            /// @dev To save a verifier scalar multiplication, we split linearisation polynomial\n            /// into its constant and non-constant terms. The constant term is computed with the formula:\n            ///\n            /// r_0 = alpha^0 * L_0(z) * PI * q_{main selector}(z) + r(z)         -- main gate contribution\n            ///\n            ///     - alpha^4 * z_perm(z*omega)(sigma_0(z) * beta + gamma + a(z)) \\\n            ///                           (sigma_1(z) * beta + gamma + b(z))      |\n            ///                           (sigma_2(z) * beta + gamma + c(z))      | - permutation contribution\n            ///                           (sigma_3(z) + gamma)                    |\n            ///     - alpha^5 * L_0(z)                                            /\n            ///\n            ///     + alpha^6 * (s(z*omega) * beta' + gamma' (beta' + 1))         \\\n            ///               * (z - omega^{n-1}) * z_lookup(z*omega)             | - lookup contribution\n            ///     - alpha^7 * L_0(z)                                            |\n            ///     - alpha^8 * L_{n-1}(z) * (gamma' (beta' + 1))^{n-1}           /\n            ///\n            /// In the end we should check that t(z)*Z_H(z) = r(z) + r_0!\n            function verifyQuotientEvaluation() {\n                // Compute power of alpha\n                {\n                    let alpha := mload(STATE_ALPHA_SLOT)\n                    let currentAlpha := mulmod(alpha, alpha, R_MOD)\n                    mstore(STATE_POWER_OF_ALPHA_2_SLOT, currentAlpha)\n                    currentAlpha := mulmod(currentAlpha, alpha, R_MOD)\n                    mstore(STATE_POWER_OF_ALPHA_3_SLOT, currentAlpha)\n                    currentAlpha := mulmod(currentAlpha, alpha, R_MOD)\n                    mstore(STATE_POWER_OF_ALPHA_4_SLOT, currentAlpha)\n                    currentAlpha := mulmod(currentAlpha, alpha, R_MOD)\n                    mstore(STATE_POWER_OF_ALPHA_5_SLOT, currentAlpha)\n                    currentAlpha := mulmod(currentAlpha, alpha, R_MOD)\n                    mstore(STATE_POWER_OF_ALPHA_6_SLOT, currentAlpha)\n                    currentAlpha := mulmod(currentAlpha, alpha, R_MOD)\n                    mstore(STATE_POWER_OF_ALPHA_7_SLOT, currentAlpha)\n                    currentAlpha := mulmod(currentAlpha, alpha, R_MOD)\n                    mstore(STATE_POWER_OF_ALPHA_8_SLOT, currentAlpha)\n                }\n\n                // z\n                let stateZ := mload(STATE_Z_SLOT)\n                // L_0(z)\n                mstore(STATE_L_0_AT_Z_SLOT, evaluateLagrangePolyOutOfDomain(0, stateZ))\n                // L_{n-1}(z)\n                mstore(STATE_L_N_MINUS_ONE_AT_Z_SLOT, evaluateLagrangePolyOutOfDomain(sub(DOMAIN_SIZE, 1), stateZ))\n                // L_0(z) * PI\n                let stateT := mulmod(mload(STATE_L_0_AT_Z_SLOT), mload(PROOF_PUBLIC_INPUT), R_MOD)\n\n                // Compute main gate contribution\n                let result := mulmod(stateT, mload(PROOF_GATE_SELECTORS_0_OPENING_AT_Z_SLOT), R_MOD)\n\n                // Compute permutation contribution\n                result := addmod(result, permutationQuotientContribution(), R_MOD)\n\n                // Compute lookup contribution\n                result := addmod(result, lookupQuotientContribution(), R_MOD)\n\n                // Check that r(z) + r_0 = t(z) * Z_H(z)\n                result := addmod(mload(PROOF_LINEARISATION_POLY_OPENING_AT_Z_SLOT), result, R_MOD)\n\n                let vanishing := addmod(mload(STATE_Z_IN_DOMAIN_SIZE), sub(R_MOD, 1), R_MOD)\n                let lhs := mulmod(mload(PROOF_QUOTIENT_POLY_OPENING_AT_Z_SLOT), vanishing, R_MOD)\n                if iszero(eq(lhs, result)) {\n                    revertWithMessage(27, \"invalid quotient evaluation\")\n                }\n            }\n\n            /// @notice Evaluating L_{polyNum}(at) out of domain\n            /// @dev L_i is a Lagrange polynomial for our domain such that:\n            /// L_i(omega^i) = 1 and L_i(omega^j) = 0 for all j != i\n            function evaluateLagrangePolyOutOfDomain(polyNum, at) -> res {\n                let omegaPower := 1\n                if polyNum {\n                    omegaPower := modexp(OMEGA, polyNum)\n                }\n\n                res := addmod(modexp(at, DOMAIN_SIZE), sub(R_MOD, 1), R_MOD)\n\n                // Vanishing polynomial can not be zero at point `at`\n                if iszero(res) {\n                    revertWithMessage(28, \"invalid vanishing polynomial\")\n                }\n                res := mulmod(res, omegaPower, R_MOD)\n                let denominator := addmod(at, sub(R_MOD, omegaPower), R_MOD)\n                denominator := mulmod(denominator, DOMAIN_SIZE, R_MOD)\n                denominator := modexp(denominator, sub(R_MOD, 2))\n                res := mulmod(res, denominator, R_MOD)\n            }\n\n            /// @notice Compute permutation contribution to linearisation polynomial's constant term\n            function permutationQuotientContribution() -> res {\n                // res = alpha^4 * z_perm(z*omega)\n                res := mulmod(\n                    mload(STATE_POWER_OF_ALPHA_4_SLOT),\n                    mload(PROOF_COPY_PERMUTATION_GRAND_PRODUCT_OPENING_AT_Z_OMEGA_SLOT),\n                    R_MOD\n                )\n\n                {\n                    let gamma := mload(STATE_GAMMA_SLOT)\n                    let beta := mload(STATE_BETA_SLOT)\n\n                    let factorMultiplier\n                    {\n                        // res *= sigma_0(z) * beta + gamma + a(z)\n                        factorMultiplier := mulmod(mload(PROOF_COPY_PERMUTATION_POLYS_0_OPENING_AT_Z_SLOT), beta, R_MOD)\n                        factorMultiplier := addmod(factorMultiplier, gamma, R_MOD)\n                        factorMultiplier := addmod(\n                            factorMultiplier,\n                            mload(PROOF_STATE_POLYS_0_OPENING_AT_Z_SLOT),\n                            R_MOD\n                        )\n                        res := mulmod(res, factorMultiplier, R_MOD)\n                    }\n                    {\n                        // res *= sigma_1(z) * beta + gamma + b(z)\n                        factorMultiplier := mulmod(mload(PROOF_COPY_PERMUTATION_POLYS_1_OPENING_AT_Z_SLOT), beta, R_MOD)\n                        factorMultiplier := addmod(factorMultiplier, gamma, R_MOD)\n                        factorMultiplier := addmod(\n                            factorMultiplier,\n                            mload(PROOF_STATE_POLYS_1_OPENING_AT_Z_SLOT),\n                            R_MOD\n                        )\n                        res := mulmod(res, factorMultiplier, R_MOD)\n                    }\n                    {\n                        // res *= sigma_2(z) * beta + gamma + c(z)\n                        factorMultiplier := mulmod(mload(PROOF_COPY_PERMUTATION_POLYS_2_OPENING_AT_Z_SLOT), beta, R_MOD)\n                        factorMultiplier := addmod(factorMultiplier, gamma, R_MOD)\n                        factorMultiplier := addmod(\n                            factorMultiplier,\n                            mload(PROOF_STATE_POLYS_2_OPENING_AT_Z_SLOT),\n                            R_MOD\n                        )\n                        res := mulmod(res, factorMultiplier, R_MOD)\n                    }\n\n                    // res *= sigma_3(z) + gamma\n                    res := mulmod(res, addmod(mload(PROOF_STATE_POLYS_3_OPENING_AT_Z_SLOT), gamma, R_MOD), R_MOD)\n                }\n\n                // res = -res\n                res := sub(R_MOD, res)\n\n                // -= L_0(z) * alpha^5\n                let l0AtZ := mload(STATE_L_0_AT_Z_SLOT)\n                l0AtZ := mulmod(l0AtZ, mload(STATE_POWER_OF_ALPHA_5_SLOT), R_MOD)\n                res := addmod(res, sub(R_MOD, l0AtZ), R_MOD)\n            }\n\n            /// @notice Compute lookup contribution to linearisation polynomial's constant term\n            function lookupQuotientContribution() -> res {\n                let betaLookup := mload(STATE_BETA_LOOKUP_SLOT)\n                let gammaLookup := mload(STATE_GAMMA_LOOKUP_SLOT)\n                let betaPlusOne := addmod(betaLookup, 1, R_MOD)\n                let betaGamma := mulmod(betaPlusOne, gammaLookup, R_MOD)\n\n                mstore(STATE_BETA_PLUS_ONE_SLOT, betaPlusOne)\n                mstore(STATE_BETA_GAMMA_PLUS_GAMMA_SLOT, betaGamma)\n\n                // res =  alpha^6 * (s(z*omega) * beta' + gamma' (beta' + 1)) * z_lookup(z*omega)\n                res := mulmod(mload(PROOF_LOOKUP_S_POLY_OPENING_AT_Z_OMEGA_SLOT), betaLookup, R_MOD)\n                res := addmod(res, betaGamma, R_MOD)\n                res := mulmod(res, mload(PROOF_LOOKUP_GRAND_PRODUCT_OPENING_AT_Z_OMEGA_SLOT), R_MOD)\n                res := mulmod(res, mload(STATE_POWER_OF_ALPHA_6_SLOT), R_MOD)\n\n                // res *= z - omega^{n-1}\n                {\n                    let lastOmega := modexp(OMEGA, sub(DOMAIN_SIZE, 1))\n                    let zMinusLastOmega := addmod(mload(STATE_Z_SLOT), sub(R_MOD, lastOmega), R_MOD)\n                    mstore(STATE_Z_MINUS_LAST_OMEGA_SLOT, zMinusLastOmega)\n                    res := mulmod(res, zMinusLastOmega, R_MOD)\n                }\n\n                // res -= alpha^7 * L_{0}(z)\n                {\n                    let intermediateValue := mulmod(\n                        mload(STATE_L_0_AT_Z_SLOT),\n                        mload(STATE_POWER_OF_ALPHA_7_SLOT),\n                        R_MOD\n                    )\n                    res := addmod(res, sub(R_MOD, intermediateValue), R_MOD)\n                }\n\n                // res -= alpha^8 * L_{n-1}(z) * (gamma' (beta' + 1))^{n-1}\n                {\n                    let lnMinusOneAtZ := mload(STATE_L_N_MINUS_ONE_AT_Z_SLOT)\n                    let betaGammaPowered := modexp(betaGamma, sub(DOMAIN_SIZE, 1))\n                    let alphaPower8 := mload(STATE_POWER_OF_ALPHA_8_SLOT)\n\n                    let subtrahend := mulmod(mulmod(lnMinusOneAtZ, betaGammaPowered, R_MOD), alphaPower8, R_MOD)\n                    res := addmod(res, sub(R_MOD, subtrahend), R_MOD)\n                }\n            }\n\n            /// @notice Compute main gate contribution to linearisation polynomial commitment multiplied by v\n            function mainGateLinearisationContributionWithV(\n                dest,\n                stateOpening0AtZ,\n                stateOpening1AtZ,\n                stateOpening2AtZ,\n                stateOpening3AtZ\n            ) {\n                // += a(z) * [q_a]\n                pointMulIntoDest(VK_GATE_SETUP_0_X_SLOT, stateOpening0AtZ, dest)\n                // += b(z) * [q_b]\n                pointMulAndAddIntoDest(VK_GATE_SETUP_1_X_SLOT, stateOpening1AtZ, dest)\n                // += c(z) * [q_c]\n                pointMulAndAddIntoDest(VK_GATE_SETUP_2_X_SLOT, stateOpening2AtZ, dest)\n                // += d(z) * [q_d]\n                pointMulAndAddIntoDest(VK_GATE_SETUP_3_X_SLOT, stateOpening3AtZ, dest)\n                // += a(z) * b(z) * [q_ab]\n                pointMulAndAddIntoDest(VK_GATE_SETUP_4_X_SLOT, mulmod(stateOpening0AtZ, stateOpening1AtZ, R_MOD), dest)\n                // += a(z) * c(z) * [q_ac]\n                pointMulAndAddIntoDest(VK_GATE_SETUP_5_X_SLOT, mulmod(stateOpening0AtZ, stateOpening2AtZ, R_MOD), dest)\n                // += [q_const]\n                pointAddAssign(dest, VK_GATE_SETUP_6_X_SLOT)\n                // += d(z*omega) * [q_{d_next}]\n                pointMulAndAddIntoDest(VK_GATE_SETUP_7_X_SLOT, mload(PROOF_STATE_POLYS_3_OPENING_AT_Z_OMEGA_SLOT), dest)\n\n                // *= v * main_gate_selector(z)\n                let coeff := mulmod(mload(PROOF_GATE_SELECTORS_0_OPENING_AT_Z_SLOT), mload(STATE_V_SLOT), R_MOD)\n                pointMulIntoDest(dest, coeff, dest)\n            }\n\n            /// @notice Compute custom gate contribution to linearisation polynomial commitment multiplied by v\n            function addAssignRescueCustomGateLinearisationContributionWithV(\n                dest,\n                stateOpening0AtZ,\n                stateOpening1AtZ,\n                stateOpening2AtZ,\n                stateOpening3AtZ\n            ) {\n                let accumulator\n                let intermediateValue\n                //  = alpha * (a(z)^2 - b(z))\n                accumulator := mulmod(stateOpening0AtZ, stateOpening0AtZ, R_MOD)\n                accumulator := addmod(accumulator, sub(R_MOD, stateOpening1AtZ), R_MOD)\n                accumulator := mulmod(accumulator, mload(STATE_ALPHA_SLOT), R_MOD)\n                // += alpha^2 * (b(z)^2 - c(z))\n                intermediateValue := mulmod(stateOpening1AtZ, stateOpening1AtZ, R_MOD)\n                intermediateValue := addmod(intermediateValue, sub(R_MOD, stateOpening2AtZ), R_MOD)\n                intermediateValue := mulmod(intermediateValue, mload(STATE_POWER_OF_ALPHA_2_SLOT), R_MOD)\n                accumulator := addmod(accumulator, intermediateValue, R_MOD)\n                // += alpha^3 * (c(z) * a(z) - d(z))\n                intermediateValue := mulmod(stateOpening2AtZ, stateOpening0AtZ, R_MOD)\n                intermediateValue := addmod(intermediateValue, sub(R_MOD, stateOpening3AtZ), R_MOD)\n                intermediateValue := mulmod(intermediateValue, mload(STATE_POWER_OF_ALPHA_3_SLOT), R_MOD)\n                accumulator := addmod(accumulator, intermediateValue, R_MOD)\n\n                // *= v * [custom_gate_selector]\n                accumulator := mulmod(accumulator, mload(STATE_V_SLOT), R_MOD)\n                pointMulAndAddIntoDest(VK_GATE_SELECTORS_1_X_SLOT, accumulator, dest)\n            }\n\n            /// @notice Compute copy-permutation contribution to linearisation polynomial commitment multiplied by v\n            function addAssignPermutationLinearisationContributionWithV(\n                dest,\n                stateOpening0AtZ,\n                stateOpening1AtZ,\n                stateOpening2AtZ,\n                stateOpening3AtZ\n            ) {\n                // alpha^4\n                let factor := mload(STATE_POWER_OF_ALPHA_4_SLOT)\n                // Calculate the factor\n                {\n                    // *= (a(z) + beta * z + gamma)\n                    let zMulBeta := mulmod(mload(STATE_Z_SLOT), mload(STATE_BETA_SLOT), R_MOD)\n                    let gamma := mload(STATE_GAMMA_SLOT)\n\n                    let intermediateValue := addmod(addmod(zMulBeta, gamma, R_MOD), stateOpening0AtZ, R_MOD)\n                    factor := mulmod(factor, intermediateValue, R_MOD)\n\n                    // (b(z) + beta * z * k0 + gamma)\n                    intermediateValue := addmod(\n                        addmod(mulmod(zMulBeta, NON_RESIDUES_0, R_MOD), gamma, R_MOD),\n                        stateOpening1AtZ,\n                        R_MOD\n                    )\n                    factor := mulmod(factor, intermediateValue, R_MOD)\n\n                    // (c(z) + beta * z * k1 + gamma)\n                    intermediateValue := addmod(\n                        addmod(mulmod(zMulBeta, NON_RESIDUES_1, R_MOD), gamma, R_MOD),\n                        stateOpening2AtZ,\n                        R_MOD\n                    )\n                    factor := mulmod(factor, intermediateValue, R_MOD)\n\n                    // (d(z) + beta * z * k2 + gamma)\n                    intermediateValue := addmod(\n                        addmod(mulmod(zMulBeta, NON_RESIDUES_2, R_MOD), gamma, R_MOD),\n                        stateOpening3AtZ,\n                        R_MOD\n                    )\n                    factor := mulmod(factor, intermediateValue, R_MOD)\n                }\n\n                // += alpha^5 * L_0(z)\n                let l0AtZ := mload(STATE_L_0_AT_Z_SLOT)\n                factor := addmod(factor, mulmod(l0AtZ, mload(STATE_POWER_OF_ALPHA_5_SLOT), R_MOD), R_MOD)\n\n                // Here we can optimize one scalar multiplication by aggregating coefficients near [z_perm] during\n                // computing [F]\n                // We will sum them and add and make one scalar multiplication: (coeff1 + coeff2) * [z_perm]\n                factor := mulmod(factor, mload(STATE_V_SLOT), R_MOD)\n                mstore(COPY_PERMUTATION_FIRST_AGGREGATED_COMMITMENT_COEFF, factor)\n\n                // alpha^4 * beta * z_perm(z*omega)\n                factor := mulmod(mload(STATE_POWER_OF_ALPHA_4_SLOT), mload(STATE_BETA_SLOT), R_MOD)\n                factor := mulmod(factor, mload(PROOF_COPY_PERMUTATION_GRAND_PRODUCT_OPENING_AT_Z_OMEGA_SLOT), R_MOD)\n                {\n                    // *= (a(z) + beta * sigma_0(z) + gamma)\n                    let beta := mload(STATE_BETA_SLOT)\n                    let gamma := mload(STATE_GAMMA_SLOT)\n\n                    let intermediateValue := addmod(\n                        addmod(\n                            mulmod(mload(PROOF_COPY_PERMUTATION_POLYS_0_OPENING_AT_Z_SLOT), beta, R_MOD),\n                            gamma,\n                            R_MOD\n                        ),\n                        stateOpening0AtZ,\n                        R_MOD\n                    )\n                    factor := mulmod(factor, intermediateValue, R_MOD)\n\n                    // *= (b(z) + beta * sigma_1(z) + gamma)\n                    intermediateValue := addmod(\n                        addmod(\n                            mulmod(mload(PROOF_COPY_PERMUTATION_POLYS_1_OPENING_AT_Z_SLOT), beta, R_MOD),\n                            gamma,\n                            R_MOD\n                        ),\n                        stateOpening1AtZ,\n                        R_MOD\n                    )\n                    factor := mulmod(factor, intermediateValue, R_MOD)\n\n                    // *= (c(z) + beta * sigma_2(z) + gamma)\n                    intermediateValue := addmod(\n                        addmod(\n                            mulmod(mload(PROOF_COPY_PERMUTATION_POLYS_2_OPENING_AT_Z_SLOT), beta, R_MOD),\n                            gamma,\n                            R_MOD\n                        ),\n                        stateOpening2AtZ,\n                        R_MOD\n                    )\n                    factor := mulmod(factor, intermediateValue, R_MOD)\n                }\n\n                // *= v * [sigma_3]\n                factor := mulmod(factor, mload(STATE_V_SLOT), R_MOD)\n                pointMulIntoDest(VK_PERMUTATION_3_X_SLOT, factor, QUERIES_BUFFER_POINT_SLOT)\n\n                pointSubAssign(dest, QUERIES_BUFFER_POINT_SLOT)\n            }\n\n            /// @notice Compute lookup contribution to linearisation polynomial commitment multiplied by v\n            function addAssignLookupLinearisationContributionWithV(\n                dest,\n                stateOpening0AtZ,\n                stateOpening1AtZ,\n                stateOpening2AtZ\n            ) {\n                // alpha^6 * v * z_lookup(z*omega) * (z - omega^{n-1}) * [s]\n                let factor := mload(PROOF_LOOKUP_GRAND_PRODUCT_OPENING_AT_Z_OMEGA_SLOT)\n                factor := mulmod(factor, mload(STATE_POWER_OF_ALPHA_6_SLOT), R_MOD)\n                factor := mulmod(factor, mload(STATE_Z_MINUS_LAST_OMEGA_SLOT), R_MOD)\n                factor := mulmod(factor, mload(STATE_V_SLOT), R_MOD)\n\n                // Here we can optimize one scalar multiplication by aggregating coefficients near [s] during\n                // computing [F]\n                // We will sum them and add and make one scalar multiplication: (coeff1 + coeff2) * [s]\n                mstore(LOOKUP_S_FIRST_AGGREGATED_COMMITMENT_COEFF, factor)\n\n                // gamma(1 + beta) + t(x) + beta * t(x*omega)\n                factor := mload(PROOF_LOOKUP_T_POLY_OPENING_AT_Z_OMEGA_SLOT)\n                factor := mulmod(factor, mload(STATE_BETA_LOOKUP_SLOT), R_MOD)\n                factor := addmod(factor, mload(PROOF_LOOKUP_T_POLY_OPENING_AT_Z_SLOT), R_MOD)\n                factor := addmod(factor, mload(STATE_BETA_GAMMA_PLUS_GAMMA_SLOT), R_MOD)\n\n                // *= (gamma + f(z))\n                // We should use fact that f(x) =\n                // lookup_selector(x) * (a(x) + eta * b(x) + eta^2 * c(x) + eta^3 * table_type(x))\n                // to restore f(z)\n                let fReconstructed\n                {\n                    fReconstructed := stateOpening0AtZ\n                    let eta := mload(STATE_ETA_SLOT)\n                    let currentEta := eta\n\n                    fReconstructed := addmod(fReconstructed, mulmod(currentEta, stateOpening1AtZ, R_MOD), R_MOD)\n                    currentEta := mulmod(currentEta, eta, R_MOD)\n                    fReconstructed := addmod(fReconstructed, mulmod(currentEta, stateOpening2AtZ, R_MOD), R_MOD)\n                    currentEta := mulmod(currentEta, eta, R_MOD)\n\n                    // add type of table\n                    fReconstructed := addmod(\n                        fReconstructed,\n                        mulmod(mload(PROOF_LOOKUP_TABLE_TYPE_POLY_OPENING_AT_Z_SLOT), currentEta, R_MOD),\n                        R_MOD\n                    )\n                    fReconstructed := mulmod(fReconstructed, mload(PROOF_LOOKUP_SELECTOR_POLY_OPENING_AT_Z_SLOT), R_MOD)\n                    fReconstructed := addmod(fReconstructed, mload(STATE_GAMMA_LOOKUP_SLOT), R_MOD)\n                }\n                // *= -alpha^6 * (beta + 1) * (z - omega^{n-1})\n                factor := mulmod(factor, fReconstructed, R_MOD)\n                factor := mulmod(factor, mload(STATE_BETA_PLUS_ONE_SLOT), R_MOD)\n                factor := sub(R_MOD, factor)\n                factor := mulmod(factor, mload(STATE_POWER_OF_ALPHA_6_SLOT), R_MOD)\n\n                factor := mulmod(factor, mload(STATE_Z_MINUS_LAST_OMEGA_SLOT), R_MOD)\n\n                // += alpha^7 * L_0(z)\n                factor := addmod(\n                    factor,\n                    mulmod(mload(STATE_L_0_AT_Z_SLOT), mload(STATE_POWER_OF_ALPHA_7_SLOT), R_MOD),\n                    R_MOD\n                )\n\n                // += alpha^8 * L_{n-1}(z)\n                factor := addmod(\n                    factor,\n                    mulmod(mload(STATE_L_N_MINUS_ONE_AT_Z_SLOT), mload(STATE_POWER_OF_ALPHA_8_SLOT), R_MOD),\n                    R_MOD\n                )\n\n                // Here we can optimize one scalar multiplication by aggregating coefficients near [z_lookup] during\n                // computing [F]\n                // We will sum them and add and make one scalar multiplication: (coeff1 + coeff2) * [z_lookup]\n                factor := mulmod(factor, mload(STATE_V_SLOT), R_MOD)\n                mstore(LOOKUP_GRAND_PRODUCT_FIRST_AGGREGATED_COMMITMENT_COEFF, factor)\n            }\n\n            /*//////////////////////////////////////////////////////////////\n                                    4. Prepare queries\n            //////////////////////////////////////////////////////////////*/\n\n            /// @dev Here we compute the first and second parts of batched polynomial commitment\n            /// We use the formula:\n            ///     [D0] = [t_0] + z^n * [t_1] + z^{2n} * [t_2] + z^{3n} * [t_3]\n            /// and\n            ///     [D1] = main_gate_selector(z) * (                                        \\\n            ///                a(z) * [q_a] + b(z) * [q_b] + c(z) * [q_c] + d(z) * [q_d] +  | - main gate contribution\n            ///                a(z) * b(z) * [q_ab] + a(z) * c(z) * [q_ac] +                |\n            ///                [q_const] + d(z*omega) * [q_{d_next}])                       /\n            ///\n            ///            + alpha * [custom_gate_selector] * (                             \\\n            ///                (a(z)^2 - b(z))              +                               | - custom gate contribution\n            ///                (b(z)^2 - c(z))    * alpha   +                               |\n            ///                (a(z)*c(z) - d(z)) * alpha^2 )                               /\n            ///\n            ///            + alpha^4 * [z_perm] *                                           \\\n            ///                (a(z) + beta * z      + gamma) *                             |\n            ///                (b(z) + beta * z * k0 + gamma) *                             |\n            ///                (c(z) + beta * z * k1 + gamma) *                             |\n            ///                (d(z) + beta * z * k2 + gamma)                               | - permutation contribution\n            ///            - alpha^4 * z_perm(z*omega) * beta * [sigma_3] *                 |\n            ///                (a(z) + beta * sigma_0(z) + gamma) *                         |\n            ///                (b(z) + beta * sigma_1(z) + gamma) *                         |\n            ///                (c(z) + beta * sigma_2(z) + gamma) *                         |\n            ///            + alpha^5 * L_0(z) * [z_perm]                                    /\n            ///\n            ///            - alpha^6 * (1 + beta') * (gamma' + f(z)) * (z - omega^{n-1}) *  \\\n            ///                (gamma'(1 + beta') + t(z) + beta' * t(z*omega)) * [z_lookup] |\n            ///            + alpha^6 * z_lookup(z*omega) * (z - omega^{n-1}) * [s]          | - lookup contribution\n            ///            + alpha^7 * L_0(z) * [z_lookup]                                  |\n            ///            + alpha^8 * L_{n-1}(z) * [z_lookup]                              /\n            function prepareQueries() {\n                // Calculate [D0]\n                {\n                    let zInDomainSize := mload(STATE_Z_IN_DOMAIN_SIZE)\n                    let currentZ := zInDomainSize\n\n                    mstore(QUERIES_AT_Z_0_X_SLOT, mload(PROOF_QUOTIENT_POLY_PARTS_0_X_SLOT))\n                    mstore(QUERIES_AT_Z_0_Y_SLOT, mload(PROOF_QUOTIENT_POLY_PARTS_0_Y_SLOT))\n\n                    pointMulAndAddIntoDest(PROOF_QUOTIENT_POLY_PARTS_1_X_SLOT, currentZ, QUERIES_AT_Z_0_X_SLOT)\n                    currentZ := mulmod(currentZ, zInDomainSize, R_MOD)\n\n                    pointMulAndAddIntoDest(PROOF_QUOTIENT_POLY_PARTS_2_X_SLOT, currentZ, QUERIES_AT_Z_0_X_SLOT)\n                    currentZ := mulmod(currentZ, zInDomainSize, R_MOD)\n\n                    pointMulAndAddIntoDest(PROOF_QUOTIENT_POLY_PARTS_3_X_SLOT, currentZ, QUERIES_AT_Z_0_X_SLOT)\n                }\n\n                // Calculate v * [D1]\n                // We are going to multiply all the points in the sum by v to save\n                // one scalar multiplication during [F] computation\n                {\n                    let stateOpening0AtZ := mload(PROOF_STATE_POLYS_0_OPENING_AT_Z_SLOT)\n                    let stateOpening1AtZ := mload(PROOF_STATE_POLYS_1_OPENING_AT_Z_SLOT)\n                    let stateOpening2AtZ := mload(PROOF_STATE_POLYS_2_OPENING_AT_Z_SLOT)\n                    let stateOpening3AtZ := mload(PROOF_STATE_POLYS_3_OPENING_AT_Z_SLOT)\n\n                    mainGateLinearisationContributionWithV(\n                        QUERIES_AT_Z_1_X_SLOT,\n                        stateOpening0AtZ,\n                        stateOpening1AtZ,\n                        stateOpening2AtZ,\n                        stateOpening3AtZ\n                    )\n\n                    addAssignRescueCustomGateLinearisationContributionWithV(\n                        QUERIES_AT_Z_1_X_SLOT,\n                        stateOpening0AtZ,\n                        stateOpening1AtZ,\n                        stateOpening2AtZ,\n                        stateOpening3AtZ\n                    )\n\n                    addAssignPermutationLinearisationContributionWithV(\n                        QUERIES_AT_Z_1_X_SLOT,\n                        stateOpening0AtZ,\n                        stateOpening1AtZ,\n                        stateOpening2AtZ,\n                        stateOpening3AtZ\n                    )\n\n                    addAssignLookupLinearisationContributionWithV(\n                        QUERIES_AT_Z_1_X_SLOT,\n                        stateOpening0AtZ,\n                        stateOpening1AtZ,\n                        stateOpening2AtZ\n                    )\n                }\n\n                // Also we should restore [t] for future computations\n                // [t] = [col_0] + eta*[col_1] + eta^2*[col_2] + eta^3*[col_3]\n                {\n                    mstore(QUERIES_T_POLY_AGGREGATED_X_SLOT, mload(VK_LOOKUP_TABLE_0_X_SLOT))\n                    mstore(QUERIES_T_POLY_AGGREGATED_Y_SLOT, mload(VK_LOOKUP_TABLE_0_Y_SLOT))\n\n                    let eta := mload(STATE_ETA_SLOT)\n                    let currentEta := eta\n\n                    pointMulAndAddIntoDest(VK_LOOKUP_TABLE_1_X_SLOT, currentEta, QUERIES_T_POLY_AGGREGATED_X_SLOT)\n                    currentEta := mulmod(currentEta, eta, R_MOD)\n\n                    pointMulAndAddIntoDest(VK_LOOKUP_TABLE_2_X_SLOT, currentEta, QUERIES_T_POLY_AGGREGATED_X_SLOT)\n                    currentEta := mulmod(currentEta, eta, R_MOD)\n\n                    pointMulAndAddIntoDest(VK_LOOKUP_TABLE_3_X_SLOT, currentEta, QUERIES_T_POLY_AGGREGATED_X_SLOT)\n                }\n            }\n\n            /*//////////////////////////////////////////////////////////////\n                                    5. Prepare aggregated commitment\n            //////////////////////////////////////////////////////////////*/\n\n            /// @dev Here we compute aggregated commitment for the final pairing\n            /// We use the formula:\n            /// [E] = ( t(z) + v * r(z)\n            ///       + v^2*a(z) + v^3*b(z) + v^4*c(z) + v^5*d(z)\n            ///       + v^6*main_gate_selector(z)\n            ///       + v^7*sigma_0(z) + v^8*sigma_1(z) + v^9*sigma_2(z)\n            ///       + v^10*t(z) + v^11*lookup_selector(z) + v^12*table_type(z)\n            ///       + u * (v^13*z_perm(z*omega) + v^14*d(z*omega)\n            ///           + v^15*s(z*omega) + v^16*z_lookup(z*omega) + v^17*t(z*omega)\n            ///       )\n            ///  ) * [1]\n            /// and\n            /// [F] = [D0] + v * [D1]\n            ///       + v^2*[a] + v^3*[b] + v^4*[c] + v^5*[d]\n            ///       + v^6*[main_gate_selector]\n            ///       + v^7*[sigma_0] + v^8*[sigma_1] + v^9*[sigma_2]\n            ///       + v^10*[t] + v^11*[lookup_selector] + v^12*[table_type]\n            ///       + u * ( v^13*[z_perm] + v^14*[d]\n            ///           + v^15*[s] + v^16*[z_lookup] + v^17*[t]\n            ///       )\n            function prepareAggregatedCommitment() {\n                // Here we compute parts of [E] and [F] without u multiplier\n                let aggregationChallenge := 1\n                let firstDCoeff\n                let firstTCoeff\n\n                mstore(AGGREGATED_AT_Z_X_SLOT, mload(QUERIES_AT_Z_0_X_SLOT))\n                mstore(AGGREGATED_AT_Z_Y_SLOT, mload(QUERIES_AT_Z_0_Y_SLOT))\n                let aggregatedOpeningAtZ := mload(PROOF_QUOTIENT_POLY_OPENING_AT_Z_SLOT)\n                {\n                    function updateAggregationChallenge(\n                        queriesCommitmentPoint,\n                        valueAtZ,\n                        curAggregationChallenge,\n                        curAggregatedOpeningAtZ\n                    ) -> newAggregationChallenge, newAggregatedOpeningAtZ {\n                        newAggregationChallenge := mulmod(curAggregationChallenge, mload(STATE_V_SLOT), R_MOD)\n                        pointMulAndAddIntoDest(queriesCommitmentPoint, newAggregationChallenge, AGGREGATED_AT_Z_X_SLOT)\n                        newAggregatedOpeningAtZ := addmod(\n                            curAggregatedOpeningAtZ,\n                            mulmod(newAggregationChallenge, mload(valueAtZ), R_MOD),\n                            R_MOD\n                        )\n                    }\n\n                    // We don't need to multiply by v, because we have already computed v * [D1]\n                    pointAddIntoDest(AGGREGATED_AT_Z_X_SLOT, QUERIES_AT_Z_1_X_SLOT, AGGREGATED_AT_Z_X_SLOT)\n                    aggregationChallenge := mulmod(aggregationChallenge, mload(STATE_V_SLOT), R_MOD)\n                    aggregatedOpeningAtZ := addmod(\n                        aggregatedOpeningAtZ,\n                        mulmod(aggregationChallenge, mload(PROOF_LINEARISATION_POLY_OPENING_AT_Z_SLOT), R_MOD),\n                        R_MOD\n                    )\n\n                    aggregationChallenge, aggregatedOpeningAtZ := updateAggregationChallenge(\n                        PROOF_STATE_POLYS_0_X_SLOT,\n                        PROOF_STATE_POLYS_0_OPENING_AT_Z_SLOT,\n                        aggregationChallenge,\n                        aggregatedOpeningAtZ\n                    )\n                    aggregationChallenge, aggregatedOpeningAtZ := updateAggregationChallenge(\n                        PROOF_STATE_POLYS_1_X_SLOT,\n                        PROOF_STATE_POLYS_1_OPENING_AT_Z_SLOT,\n                        aggregationChallenge,\n                        aggregatedOpeningAtZ\n                    )\n                    aggregationChallenge, aggregatedOpeningAtZ := updateAggregationChallenge(\n                        PROOF_STATE_POLYS_2_X_SLOT,\n                        PROOF_STATE_POLYS_2_OPENING_AT_Z_SLOT,\n                        aggregationChallenge,\n                        aggregatedOpeningAtZ\n                    )\n\n                    // Here we can optimize one scalar multiplication by aggregating coefficients near [d]\n                    // We will sum them and add and make one scalar multiplication: (coeff1 + coeff2) * [d]\n                    aggregationChallenge := mulmod(aggregationChallenge, mload(STATE_V_SLOT), R_MOD)\n                    firstDCoeff := aggregationChallenge\n                    aggregatedOpeningAtZ := addmod(\n                        aggregatedOpeningAtZ,\n                        mulmod(aggregationChallenge, mload(PROOF_STATE_POLYS_3_OPENING_AT_Z_SLOT), R_MOD),\n                        R_MOD\n                    )\n\n                    aggregationChallenge, aggregatedOpeningAtZ := updateAggregationChallenge(\n                        VK_GATE_SELECTORS_0_X_SLOT,\n                        PROOF_GATE_SELECTORS_0_OPENING_AT_Z_SLOT,\n                        aggregationChallenge,\n                        aggregatedOpeningAtZ\n                    )\n                    aggregationChallenge, aggregatedOpeningAtZ := updateAggregationChallenge(\n                        VK_PERMUTATION_0_X_SLOT,\n                        PROOF_COPY_PERMUTATION_POLYS_0_OPENING_AT_Z_SLOT,\n                        aggregationChallenge,\n                        aggregatedOpeningAtZ\n                    )\n                    aggregationChallenge, aggregatedOpeningAtZ := updateAggregationChallenge(\n                        VK_PERMUTATION_1_X_SLOT,\n                        PROOF_COPY_PERMUTATION_POLYS_1_OPENING_AT_Z_SLOT,\n                        aggregationChallenge,\n                        aggregatedOpeningAtZ\n                    )\n                    aggregationChallenge, aggregatedOpeningAtZ := updateAggregationChallenge(\n                        VK_PERMUTATION_2_X_SLOT,\n                        PROOF_COPY_PERMUTATION_POLYS_2_OPENING_AT_Z_SLOT,\n                        aggregationChallenge,\n                        aggregatedOpeningAtZ\n                    )\n\n                    // Here we can optimize one scalar multiplication by aggregating coefficients near [t]\n                    // We will sum them and add and make one scalar multiplication: (coeff1 + coeff2) * [t]\n                    aggregationChallenge := mulmod(aggregationChallenge, mload(STATE_V_SLOT), R_MOD)\n                    firstTCoeff := aggregationChallenge\n                    aggregatedOpeningAtZ := addmod(\n                        aggregatedOpeningAtZ,\n                        mulmod(aggregationChallenge, mload(PROOF_LOOKUP_T_POLY_OPENING_AT_Z_SLOT), R_MOD),\n                        R_MOD\n                    )\n\n                    aggregationChallenge, aggregatedOpeningAtZ := updateAggregationChallenge(\n                        VK_LOOKUP_SELECTOR_X_SLOT,\n                        PROOF_LOOKUP_SELECTOR_POLY_OPENING_AT_Z_SLOT,\n                        aggregationChallenge,\n                        aggregatedOpeningAtZ\n                    )\n                    aggregationChallenge, aggregatedOpeningAtZ := updateAggregationChallenge(\n                        VK_LOOKUP_TABLE_TYPE_X_SLOT,\n                        PROOF_LOOKUP_TABLE_TYPE_POLY_OPENING_AT_Z_SLOT,\n                        aggregationChallenge,\n                        aggregatedOpeningAtZ\n                    )\n                }\n                mstore(AGGREGATED_OPENING_AT_Z_SLOT, aggregatedOpeningAtZ)\n\n                // Here we compute parts of [E] and [F] with u multiplier\n                aggregationChallenge := mulmod(aggregationChallenge, mload(STATE_V_SLOT), R_MOD)\n\n                let copyPermutationCoeff := addmod(\n                    mload(COPY_PERMUTATION_FIRST_AGGREGATED_COMMITMENT_COEFF),\n                    mulmod(aggregationChallenge, mload(STATE_U_SLOT), R_MOD),\n                    R_MOD\n                )\n\n                pointMulIntoDest(\n                    PROOF_COPY_PERMUTATION_GRAND_PRODUCT_X_SLOT,\n                    copyPermutationCoeff,\n                    AGGREGATED_AT_Z_OMEGA_X_SLOT\n                )\n                let aggregatedOpeningAtZOmega := mulmod(\n                    mload(PROOF_COPY_PERMUTATION_GRAND_PRODUCT_OPENING_AT_Z_OMEGA_SLOT),\n                    aggregationChallenge,\n                    R_MOD\n                )\n\n                {\n                    function updateAggregationChallenge(\n                        queriesCommitmentPoint,\n                        valueAtZ_Omega,\n                        previousCoeff,\n                        curAggregationChallenge,\n                        curAggregatedOpeningAtZ_Omega\n                    ) -> newAggregationChallenge, newAggregatedOpeningAtZ_Omega {\n                        newAggregationChallenge := mulmod(curAggregationChallenge, mload(STATE_V_SLOT), R_MOD)\n                        let finalCoeff := addmod(\n                            previousCoeff,\n                            mulmod(newAggregationChallenge, mload(STATE_U_SLOT), R_MOD),\n                            R_MOD\n                        )\n                        pointMulAndAddIntoDest(queriesCommitmentPoint, finalCoeff, AGGREGATED_AT_Z_OMEGA_X_SLOT)\n                        newAggregatedOpeningAtZ_Omega := addmod(\n                            curAggregatedOpeningAtZ_Omega,\n                            mulmod(newAggregationChallenge, mload(valueAtZ_Omega), R_MOD),\n                            R_MOD\n                        )\n                    }\n\n                    aggregationChallenge, aggregatedOpeningAtZOmega := updateAggregationChallenge(\n                        PROOF_STATE_POLYS_3_X_SLOT,\n                        PROOF_STATE_POLYS_3_OPENING_AT_Z_OMEGA_SLOT,\n                        firstDCoeff,\n                        aggregationChallenge,\n                        aggregatedOpeningAtZOmega\n                    )\n                    aggregationChallenge, aggregatedOpeningAtZOmega := updateAggregationChallenge(\n                        PROOF_LOOKUP_S_POLY_X_SLOT,\n                        PROOF_LOOKUP_S_POLY_OPENING_AT_Z_OMEGA_SLOT,\n                        mload(LOOKUP_S_FIRST_AGGREGATED_COMMITMENT_COEFF),\n                        aggregationChallenge,\n                        aggregatedOpeningAtZOmega\n                    )\n                    aggregationChallenge, aggregatedOpeningAtZOmega := updateAggregationChallenge(\n                        PROOF_LOOKUP_GRAND_PRODUCT_X_SLOT,\n                        PROOF_LOOKUP_GRAND_PRODUCT_OPENING_AT_Z_OMEGA_SLOT,\n                        mload(LOOKUP_GRAND_PRODUCT_FIRST_AGGREGATED_COMMITMENT_COEFF),\n                        aggregationChallenge,\n                        aggregatedOpeningAtZOmega\n                    )\n                    aggregationChallenge, aggregatedOpeningAtZOmega := updateAggregationChallenge(\n                        QUERIES_T_POLY_AGGREGATED_X_SLOT,\n                        PROOF_LOOKUP_T_POLY_OPENING_AT_Z_OMEGA_SLOT,\n                        firstTCoeff,\n                        aggregationChallenge,\n                        aggregatedOpeningAtZOmega\n                    )\n                }\n                mstore(AGGREGATED_OPENING_AT_Z_OMEGA_SLOT, aggregatedOpeningAtZOmega)\n\n                // Now we can merge both parts and get [E] and [F]\n                let u := mload(STATE_U_SLOT)\n\n                // [F]\n                pointAddIntoDest(\n                    AGGREGATED_AT_Z_X_SLOT,\n                    AGGREGATED_AT_Z_OMEGA_X_SLOT,\n                    PAIRING_PAIR_WITH_GENERATOR_X_SLOT\n                )\n\n                // [E] = (aggregatedOpeningAtZ + u * aggregatedOpeningAtZOmega) * [1]\n                let aggregatedValue := addmod(\n                    mulmod(mload(AGGREGATED_OPENING_AT_Z_OMEGA_SLOT), u, R_MOD),\n                    mload(AGGREGATED_OPENING_AT_Z_SLOT),\n                    R_MOD\n                )\n\n                mstore(PAIRING_BUFFER_POINT_X_SLOT, 1)\n                mstore(PAIRING_BUFFER_POINT_Y_SLOT, 2)\n                pointMulIntoDest(PAIRING_BUFFER_POINT_X_SLOT, aggregatedValue, PAIRING_BUFFER_POINT_X_SLOT)\n            }\n\n            /*//////////////////////////////////////////////////////////////\n                                    5. Pairing\n            //////////////////////////////////////////////////////////////*/\n\n            /// @notice Checks the final pairing\n            /// @dev We should check the equation:\n            /// e([W] + u * [W'], [x]_2) = e(z * [W] + u * z * omega * [W'] + [F] - [E], [1]_2),\n            /// where [F] and [E] were computed previously\n            ///\n            /// Also we need to check that e([P1], [x]_2) = e([P2], [1]_2)\n            /// if we have the recursive part of the proof\n            /// where [P1] and [P2] are parts of the recursive proof\n            ///\n            /// We can aggregate both pairings into one for gas optimization:\n            /// e([W] + u * [W'] + u^2 * [P1], [x]_2) =\n            /// e(z * [W] + u * z * omega * [W'] + [F] - [E] + u^2 * [P2], [1]_2)\n            ///\n            /// u is a valid challenge for such aggregation,\n            /// because [P1] and [P2] are used in PI\n            function finalPairing() {\n                let u := mload(STATE_U_SLOT)\n                let z := mload(STATE_Z_SLOT)\n                let zOmega := mulmod(mload(STATE_Z_SLOT), OMEGA, R_MOD)\n\n                // [F] - [E]\n                pointSubAssign(PAIRING_PAIR_WITH_GENERATOR_X_SLOT, PAIRING_BUFFER_POINT_X_SLOT)\n\n                // +z * [W] + u * z * omega * [W']\n                pointMulAndAddIntoDest(PROOF_OPENING_PROOF_AT_Z_X_SLOT, z, PAIRING_PAIR_WITH_GENERATOR_X_SLOT)\n                pointMulAndAddIntoDest(\n                    PROOF_OPENING_PROOF_AT_Z_OMEGA_X_SLOT,\n                    mulmod(zOmega, u, R_MOD),\n                    PAIRING_PAIR_WITH_GENERATOR_X_SLOT\n                )\n\n                // [W] + u * [W']\n                mstore(PAIRING_PAIR_WITH_X_X_SLOT, mload(PROOF_OPENING_PROOF_AT_Z_X_SLOT))\n                mstore(PAIRING_PAIR_WITH_X_Y_SLOT, mload(PROOF_OPENING_PROOF_AT_Z_Y_SLOT))\n                pointMulAndAddIntoDest(PROOF_OPENING_PROOF_AT_Z_OMEGA_X_SLOT, u, PAIRING_PAIR_WITH_X_X_SLOT)\n                pointNegate(PAIRING_PAIR_WITH_X_X_SLOT)\n\n                // Add recursive proof part if needed\n                if mload(VK_RECURSIVE_FLAG_SLOT) {\n                    let uu := mulmod(u, u, R_MOD)\n                    pointMulAndAddIntoDest(PROOF_RECURSIVE_PART_P1_X_SLOT, uu, PAIRING_PAIR_WITH_GENERATOR_X_SLOT)\n                    pointMulAndAddIntoDest(PROOF_RECURSIVE_PART_P2_X_SLOT, uu, PAIRING_PAIR_WITH_X_X_SLOT)\n                }\n\n                // Calculate pairing\n                {\n                    mstore(0x000, mload(PAIRING_PAIR_WITH_GENERATOR_X_SLOT))\n                    mstore(0x020, mload(PAIRING_PAIR_WITH_GENERATOR_Y_SLOT))\n\n                    mstore(0x040, G2_ELEMENTS_0_X1)\n                    mstore(0x060, G2_ELEMENTS_0_X2)\n                    mstore(0x080, G2_ELEMENTS_0_Y1)\n                    mstore(0x0a0, G2_ELEMENTS_0_Y2)\n\n                    mstore(0x0c0, mload(PAIRING_PAIR_WITH_X_X_SLOT))\n                    mstore(0x0e0, mload(PAIRING_PAIR_WITH_X_Y_SLOT))\n\n                    mstore(0x100, G2_ELEMENTS_1_X1)\n                    mstore(0x120, G2_ELEMENTS_1_X2)\n                    mstore(0x140, G2_ELEMENTS_1_Y1)\n                    mstore(0x160, G2_ELEMENTS_1_Y2)\n\n                    let success := staticcall(gas(), 8, 0, 0x180, 0x00, 0x20)\n                    if iszero(success) {\n                        revertWithMessage(32, \"finalPairing: precompile failure\")\n                    }\n                    if iszero(mload(0)) {\n                        revertWithMessage(29, \"finalPairing: pairing failure\")\n                    }\n                }\n            }\n\n            /*//////////////////////////////////////////////////////////////\n                                    Verification\n            //////////////////////////////////////////////////////////////*/\n\n            // Step 1: Load the proof and check the correctness of its parts\n            loadProof()\n\n            // Step 2: Recompute all the challenges with the transcript\n            initializeTranscript()\n\n            // Step 3: Check the quotient equality\n            verifyQuotientEvaluation()\n\n            // Step 4: Compute queries [D0] and v * [D1]\n            prepareQueries()\n\n            // Step 5: Compute [E] and [F]\n            prepareAggregatedCommitment()\n\n            // Step 6: Check the final pairing with aggregated recursive proof\n            finalPairing()\n\n            mstore(0, true)\n            return(0, 32)\n        }\n    }\n}",
  "sourcePath": "/home/arhan/BitThetaSecure/contracts/bitthetasecure/contracts/Encryption/Verifier.sol",
  "compiler": {
    "name": "solc",
    "version": "0.8.26+commit.8a97fa7a.Emscripten.clang"
  },
  "schemaVersion": "3.4.16",
  "updatedAt": "2024-07-19T19:01:04.802Z",
  "devdoc": {
    "author": "Matter Labs",
    "details": "It uses a custom memory layout inside the inline assembly block. Each reserved memory cell is declared in the constants below.For a better understanding of the verifier algorithm please refer to the following papers: * Original Plonk Article: https://eprint.iacr.org/2019/953.pdf * Original LookUp Article: https://eprint.iacr.org/2020/315.pdf * Plonk for zkSync v1.1: https://github.com/matter-labs/solidity_plonk_verifier/raw/recursive/bellman_vk_codegen_recursive/RecursivePlonkUnrolledForEthereum.pdf The notation used in the code is the same as in the papers.",
    "kind": "dev",
    "methods": {
      "verificationKeyHash()": {
        "returns": {
          "vkHash": "The keccak256 hash of the loaded verification keys."
        }
      },
      "verify(uint256[],uint256[],uint256[])": {
        "details": "Verifies a zk-SNARK proof.",
        "returns": {
          "_0": "A boolean value indicating whether the zk-SNARK proof is valid. Note: The function may revert execution instead of returning false in some cases."
        }
      }
    },
    "stateVariables": {
      "FR_MASK": {
        "details": "flip of 0xe000000000000000000000000000000000000000000000000000000000000000;"
      }
    },
    "version": 1
  },
  "userdoc": {
    "kind": "user",
    "methods": {
      "verificationKeyHash()": {
        "notice": "Calculates a keccak256 hash of the runtime loaded verification keys."
      }
    },
    "notice": "Modified version of the Permutations over Lagrange-bases for Oecumenical Noninteractive arguments of Knowledge (PLONK) verifier. Modifications have been made to optimize the proof system for zkSync Era circuits.",
    "version": 1
  }
}