{
	"contracts/security/identity/DID.sol": {
		"DIDSystem": {
			"abi": [
				{
					"anonymous": false,
					"inputs": [
						{
							"indexed": true,
							"internalType": "address",
							"name": "owner",
							"type": "address"
						},
						{
							"indexed": false,
							"internalType": "string",
							"name": "did",
							"type": "string"
						}
					],
					"name": "IdentityRegistered",
					"type": "event"
				},
				{
					"anonymous": false,
					"inputs": [
						{
							"indexed": true,
							"internalType": "address",
							"name": "owner",
							"type": "address"
						},
						{
							"indexed": false,
							"internalType": "string",
							"name": "did",
							"type": "string"
						}
					],
					"name": "IdentityUpdated",
					"type": "event"
				},
				{
					"inputs": [
						{
							"internalType": "address",
							"name": "_owner",
							"type": "address"
						}
					],
					"name": "getIdentity",
					"outputs": [
						{
							"internalType": "string",
							"name": "",
							"type": "string"
						},
						{
							"internalType": "string",
							"name": "",
							"type": "string"
						},
						{
							"internalType": "string",
							"name": "",
							"type": "string"
						}
					],
					"stateMutability": "view",
					"type": "function"
				},
				{
					"inputs": [
						{
							"internalType": "string",
							"name": "_did",
							"type": "string"
						}
					],
					"name": "getIdentityByDID",
					"outputs": [
						{
							"internalType": "string",
							"name": "",
							"type": "string"
						},
						{
							"internalType": "string",
							"name": "",
							"type": "string"
						},
						{
							"internalType": "string",
							"name": "",
							"type": "string"
						}
					],
					"stateMutability": "view",
					"type": "function"
				},
				{
					"inputs": [
						{
							"internalType": "string",
							"name": "_did",
							"type": "string"
						},
						{
							"internalType": "string",
							"name": "_publicKey",
							"type": "string"
						},
						{
							"internalType": "string",
							"name": "_document",
							"type": "string"
						}
					],
					"name": "registerIdentity",
					"outputs": [],
					"stateMutability": "nonpayable",
					"type": "function"
				},
				{
					"inputs": [
						{
							"internalType": "string",
							"name": "_did",
							"type": "string"
						},
						{
							"internalType": "string",
							"name": "_publicKey",
							"type": "string"
						},
						{
							"internalType": "string",
							"name": "_document",
							"type": "string"
						}
					],
					"name": "updateIdentity",
					"outputs": [],
					"stateMutability": "nonpayable",
					"type": "function"
				}
			],
			"devdoc": {
				"details": "This contract manages Decentralized Identifiers (DIDs) and their associated identities.",
				"kind": "dev",
				"methods": {},
				"title": "DID",
				"version": 1
			},
			"evm": {
				"assembly": "    /* \"contracts/security/identity/DID.sol\":379:2382  contract DIDSystem {... */\n  mstore(0x40, 0x80)\n  callvalue\n  dup1\n  iszero\n  tag_1\n  jumpi\n  0x00\n  dup1\n  revert\ntag_1:\n  pop\n  dataSize(sub_0)\n  dup1\n  dataOffset(sub_0)\n  0x00\n  codecopy\n  0x00\n  return\nstop\n\nsub_0: assembly {\n        /* \"contracts/security/identity/DID.sol\":379:2382  contract DIDSystem {... */\n      mstore(0x40, 0x80)\n      callvalue\n      dup1\n      iszero\n      tag_1\n      jumpi\n      0x00\n      dup1\n      revert\n    tag_1:\n      pop\n      jumpi(tag_2, lt(calldatasize, 0x04))\n      shr(0xe0, calldataload(0x00))\n      dup1\n      0x2fea7b81\n      eq\n      tag_3\n      jumpi\n      dup1\n      0x8414dc3d\n      eq\n      tag_4\n      jumpi\n      dup1\n      0x9318ca66\n      eq\n      tag_5\n      jumpi\n      dup1\n      0xbdc95b32\n      eq\n      tag_6\n      jumpi\n    tag_2:\n      0x00\n      dup1\n      revert\n        /* \"contracts/security/identity/DID.sol\":1852:2087  function getIdentity(address _owner) public view returns (string memory, string memory, string memory) {... */\n    tag_3:\n      tag_7\n      0x04\n      dup1\n      calldatasize\n      sub\n      dup2\n      add\n      swap1\n      tag_8\n      swap2\n      swap1\n      tag_9\n      jump\t// in\n    tag_8:\n      tag_10\n      jump\t// in\n    tag_7:\n      mload(0x40)\n      tag_11\n      swap4\n      swap3\n      swap2\n      swap1\n      tag_12\n      jump\t// in\n    tag_11:\n      mload(0x40)\n      dup1\n      swap2\n      sub\n      swap1\n      return\n        /* \"contracts/security/identity/DID.sol\":2093:2380  function getIdentityByDID(string memory _did) public view returns (string memory, string memory, string memory) {... */\n    tag_4:\n      tag_13\n      0x04\n      dup1\n      calldatasize\n      sub\n      dup2\n      add\n      swap1\n      tag_14\n      swap2\n      swap1\n      tag_15\n      jump\t// in\n    tag_14:\n      tag_16\n      jump\t// in\n    tag_13:\n      mload(0x40)\n      tag_17\n      swap4\n      swap3\n      swap2\n      swap1\n      tag_12\n      jump\t// in\n    tag_17:\n      mload(0x40)\n      dup1\n      swap2\n      sub\n      swap1\n      return\n        /* \"contracts/security/identity/DID.sol\":1344:1846  function updateIdentity(string memory _did, string memory _publicKey, string memory _document) public {... */\n    tag_5:\n      tag_18\n      0x04\n      dup1\n      calldatasize\n      sub\n      dup2\n      add\n      swap1\n      tag_19\n      swap2\n      swap1\n      tag_20\n      jump\t// in\n    tag_19:\n      tag_21\n      jump\t// in\n    tag_18:\n      stop\n        /* \"contracts/security/identity/DID.sol\":801:1338  function registerIdentity(string memory _did, string memory _publicKey, string memory _document) public {... */\n    tag_6:\n      tag_22\n      0x04\n      dup1\n      calldatasize\n      sub\n      dup2\n      add\n      swap1\n      tag_23\n      swap2\n      swap1\n      tag_20\n      jump\t// in\n    tag_23:\n      tag_24\n      jump\t// in\n    tag_22:\n      stop\n        /* \"contracts/security/identity/DID.sol\":1852:2087  function getIdentity(address _owner) public view returns (string memory, string memory, string memory) {... */\n    tag_10:\n        /* \"contracts/security/identity/DID.sol\":1910:1923  string memory */\n      0x60\n        /* \"contracts/security/identity/DID.sol\":1925:1938  string memory */\n      dup1\n        /* \"contracts/security/identity/DID.sol\":1940:1953  string memory */\n      0x60\n        /* \"contracts/security/identity/DID.sol\":1965:1989  Identity memory identity */\n      0x00\n        /* \"contracts/security/identity/DID.sol\":1992:2002  identities */\n      dup1\n        /* \"contracts/security/identity/DID.sol\":1992:2010  identities[_owner] */\n      0x00\n        /* \"contracts/security/identity/DID.sol\":2003:2009  _owner */\n      dup7\n        /* \"contracts/security/identity/DID.sol\":1992:2010  identities[_owner] */\n      0xffffffffffffffffffffffffffffffffffffffff\n      and\n      0xffffffffffffffffffffffffffffffffffffffff\n      and\n      dup2\n      mstore\n      0x20\n      add\n      swap1\n      dup2\n      mstore\n      0x20\n      add\n      0x00\n      keccak256\n        /* \"contracts/security/identity/DID.sol\":1965:2010  Identity memory identity = identities[_owner] */\n      mload(0x40)\n      dup1\n      0x60\n      add\n      0x40\n      mstore\n      swap1\n      dup2\n      0x00\n      dup3\n      add\n      dup1\n      sload\n      tag_26\n      swap1\n      tag_27\n      jump\t// in\n    tag_26:\n      dup1\n      0x1f\n      add\n      0x20\n      dup1\n      swap2\n      div\n      mul\n      0x20\n      add\n      mload(0x40)\n      swap1\n      dup2\n      add\n      0x40\n      mstore\n      dup1\n      swap3\n      swap2\n      swap1\n      dup2\n      dup2\n      mstore\n      0x20\n      add\n      dup3\n      dup1\n      sload\n      tag_28\n      swap1\n      tag_27\n      jump\t// in\n    tag_28:\n      dup1\n      iszero\n      tag_29\n      jumpi\n      dup1\n      0x1f\n      lt\n      tag_30\n      jumpi\n      0x0100\n      dup1\n      dup4\n      sload\n      div\n      mul\n      dup4\n      mstore\n      swap2\n      0x20\n      add\n      swap2\n      jump(tag_29)\n    tag_30:\n      dup3\n      add\n      swap2\n      swap1\n      0x00\n      mstore\n      keccak256(0x00, 0x20)\n      swap1\n    tag_31:\n      dup2\n      sload\n      dup2\n      mstore\n      swap1\n      0x01\n      add\n      swap1\n      0x20\n      add\n      dup1\n      dup4\n      gt\n      tag_31\n      jumpi\n      dup3\n      swap1\n      sub\n      0x1f\n      and\n      dup3\n      add\n      swap2\n    tag_29:\n      pop\n      pop\n      pop\n      pop\n      pop\n      dup2\n      mstore\n      0x20\n      add\n      0x01\n      dup3\n      add\n      dup1\n      sload\n      tag_32\n      swap1\n      tag_27\n      jump\t// in\n    tag_32:\n      dup1\n      0x1f\n      add\n      0x20\n      dup1\n      swap2\n      div\n      mul\n      0x20\n      add\n      mload(0x40)\n      swap1\n      dup2\n      add\n      0x40\n      mstore\n      dup1\n      swap3\n      swap2\n      swap1\n      dup2\n      dup2\n      mstore\n      0x20\n      add\n      dup3\n      dup1\n      sload\n      tag_33\n      swap1\n      tag_27\n      jump\t// in\n    tag_33:\n      dup1\n      iszero\n      tag_34\n      jumpi\n      dup1\n      0x1f\n      lt\n      tag_35\n      jumpi\n      0x0100\n      dup1\n      dup4\n      sload\n      div\n      mul\n      dup4\n      mstore\n      swap2\n      0x20\n      add\n      swap2\n      jump(tag_34)\n    tag_35:\n      dup3\n      add\n      swap2\n      swap1\n      0x00\n      mstore\n      keccak256(0x00, 0x20)\n      swap1\n    tag_36:\n      dup2\n      sload\n      dup2\n      mstore\n      swap1\n      0x01\n      add\n      swap1\n      0x20\n      add\n      dup1\n      dup4\n      gt\n      tag_36\n      jumpi\n      dup3\n      swap1\n      sub\n      0x1f\n      and\n      dup3\n      add\n      swap2\n    tag_34:\n      pop\n      pop\n      pop\n      pop\n      pop\n      dup2\n      mstore\n      0x20\n      add\n      0x02\n      dup3\n      add\n      dup1\n      sload\n      tag_37\n      swap1\n      tag_27\n      jump\t// in\n    tag_37:\n      dup1\n      0x1f\n      add\n      0x20\n      dup1\n      swap2\n      div\n      mul\n      0x20\n      add\n      mload(0x40)\n      swap1\n      dup2\n      add\n      0x40\n      mstore\n      dup1\n      swap3\n      swap2\n      swap1\n      dup2\n      dup2\n      mstore\n      0x20\n      add\n      dup3\n      dup1\n      sload\n      tag_38\n      swap1\n      tag_27\n      jump\t// in\n    tag_38:\n      dup1\n      iszero\n      tag_39\n      jumpi\n      dup1\n      0x1f\n      lt\n      tag_40\n      jumpi\n      0x0100\n      dup1\n      dup4\n      sload\n      div\n      mul\n      dup4\n      mstore\n      swap2\n      0x20\n      add\n      swap2\n      jump(tag_39)\n    tag_40:\n      dup3\n      add\n      swap2\n      swap1\n      0x00\n      mstore\n      keccak256(0x00, 0x20)\n      swap1\n    tag_41:\n      dup2\n      sload\n      dup2\n      mstore\n      swap1\n      0x01\n      add\n      swap1\n      0x20\n      add\n      dup1\n      dup4\n      gt\n      tag_41\n      jumpi\n      dup3\n      swap1\n      sub\n      0x1f\n      and\n      dup3\n      add\n      swap2\n    tag_39:\n      pop\n      pop\n      pop\n      pop\n      pop\n      dup2\n      mstore\n      pop\n      pop\n      swap1\n      pop\n        /* \"contracts/security/identity/DID.sol\":2028:2036  identity */\n      dup1\n        /* \"contracts/security/identity/DID.sol\":2028:2040  identity.did */\n      0x00\n      add\n      mload\n        /* \"contracts/security/identity/DID.sol\":2042:2050  identity */\n      dup2\n        /* \"contracts/security/identity/DID.sol\":2042:2060  identity.publicKey */\n      0x20\n      add\n      mload\n        /* \"contracts/security/identity/DID.sol\":2062:2070  identity */\n      dup3\n        /* \"contracts/security/identity/DID.sol\":2062:2079  identity.document */\n      0x40\n      add\n      mload\n        /* \"contracts/security/identity/DID.sol\":2020:2080  return (identity.did, identity.publicKey, identity.document) */\n      swap4\n      pop\n      swap4\n      pop\n      swap4\n      pop\n      pop\n        /* \"contracts/security/identity/DID.sol\":1852:2087  function getIdentity(address _owner) public view returns (string memory, string memory, string memory) {... */\n      swap2\n      swap4\n      swap1\n      swap3\n      pop\n      jump\t// out\n        /* \"contracts/security/identity/DID.sol\":2093:2380  function getIdentityByDID(string memory _did) public view returns (string memory, string memory, string memory) {... */\n    tag_16:\n        /* \"contracts/security/identity/DID.sol\":2160:2173  string memory */\n      0x60\n        /* \"contracts/security/identity/DID.sol\":2175:2188  string memory */\n      dup1\n        /* \"contracts/security/identity/DID.sol\":2190:2203  string memory */\n      0x60\n        /* \"contracts/security/identity/DID.sol\":2215:2228  address owner */\n      0x00\n        /* \"contracts/security/identity/DID.sol\":2231:2243  didToAddress */\n      0x01\n        /* \"contracts/security/identity/DID.sol\":2244:2248  _did */\n      dup6\n        /* \"contracts/security/identity/DID.sol\":2231:2249  didToAddress[_did] */\n      mload(0x40)\n      tag_43\n      swap2\n      swap1\n      tag_44\n      jump\t// in\n    tag_43:\n      swap1\n      dup2\n      mstore\n      0x20\n      add\n      mload(0x40)\n      dup1\n      swap2\n      sub\n      swap1\n      keccak256\n      0x00\n      swap1\n      sload\n      swap1\n      0x0100\n      exp\n      swap1\n      div\n      0xffffffffffffffffffffffffffffffffffffffff\n      and\n        /* \"contracts/security/identity/DID.sol\":2215:2249  address owner = didToAddress[_did] */\n      swap1\n      pop\n        /* \"contracts/security/identity/DID.sol\":2259:2283  Identity memory identity */\n      0x00\n        /* \"contracts/security/identity/DID.sol\":2286:2296  identities */\n      dup1\n        /* \"contracts/security/identity/DID.sol\":2286:2303  identities[owner] */\n      0x00\n        /* \"contracts/security/identity/DID.sol\":2297:2302  owner */\n      dup4\n        /* \"contracts/security/identity/DID.sol\":2286:2303  identities[owner] */\n      0xffffffffffffffffffffffffffffffffffffffff\n      and\n      0xffffffffffffffffffffffffffffffffffffffff\n      and\n      dup2\n      mstore\n      0x20\n      add\n      swap1\n      dup2\n      mstore\n      0x20\n      add\n      0x00\n      keccak256\n        /* \"contracts/security/identity/DID.sol\":2259:2303  Identity memory identity = identities[owner] */\n      mload(0x40)\n      dup1\n      0x60\n      add\n      0x40\n      mstore\n      swap1\n      dup2\n      0x00\n      dup3\n      add\n      dup1\n      sload\n      tag_45\n      swap1\n      tag_27\n      jump\t// in\n    tag_45:\n      dup1\n      0x1f\n      add\n      0x20\n      dup1\n      swap2\n      div\n      mul\n      0x20\n      add\n      mload(0x40)\n      swap1\n      dup2\n      add\n      0x40\n      mstore\n      dup1\n      swap3\n      swap2\n      swap1\n      dup2\n      dup2\n      mstore\n      0x20\n      add\n      dup3\n      dup1\n      sload\n      tag_46\n      swap1\n      tag_27\n      jump\t// in\n    tag_46:\n      dup1\n      iszero\n      tag_47\n      jumpi\n      dup1\n      0x1f\n      lt\n      tag_48\n      jumpi\n      0x0100\n      dup1\n      dup4\n      sload\n      div\n      mul\n      dup4\n      mstore\n      swap2\n      0x20\n      add\n      swap2\n      jump(tag_47)\n    tag_48:\n      dup3\n      add\n      swap2\n      swap1\n      0x00\n      mstore\n      keccak256(0x00, 0x20)\n      swap1\n    tag_49:\n      dup2\n      sload\n      dup2\n      mstore\n      swap1\n      0x01\n      add\n      swap1\n      0x20\n      add\n      dup1\n      dup4\n      gt\n      tag_49\n      jumpi\n      dup3\n      swap1\n      sub\n      0x1f\n      and\n      dup3\n      add\n      swap2\n    tag_47:\n      pop\n      pop\n      pop\n      pop\n      pop\n      dup2\n      mstore\n      0x20\n      add\n      0x01\n      dup3\n      add\n      dup1\n      sload\n      tag_50\n      swap1\n      tag_27\n      jump\t// in\n    tag_50:\n      dup1\n      0x1f\n      add\n      0x20\n      dup1\n      swap2\n      div\n      mul\n      0x20\n      add\n      mload(0x40)\n      swap1\n      dup2\n      add\n      0x40\n      mstore\n      dup1\n      swap3\n      swap2\n      swap1\n      dup2\n      dup2\n      mstore\n      0x20\n      add\n      dup3\n      dup1\n      sload\n      tag_51\n      swap1\n      tag_27\n      jump\t// in\n    tag_51:\n      dup1\n      iszero\n      tag_52\n      jumpi\n      dup1\n      0x1f\n      lt\n      tag_53\n      jumpi\n      0x0100\n      dup1\n      dup4\n      sload\n      div\n      mul\n      dup4\n      mstore\n      swap2\n      0x20\n      add\n      swap2\n      jump(tag_52)\n    tag_53:\n      dup3\n      add\n      swap2\n      swap1\n      0x00\n      mstore\n      keccak256(0x00, 0x20)\n      swap1\n    tag_54:\n      dup2\n      sload\n      dup2\n      mstore\n      swap1\n      0x01\n      add\n      swap1\n      0x20\n      add\n      dup1\n      dup4\n      gt\n      tag_54\n      jumpi\n      dup3\n      swap1\n      sub\n      0x1f\n      and\n      dup3\n      add\n      swap2\n    tag_52:\n      pop\n      pop\n      pop\n      pop\n      pop\n      dup2\n      mstore\n      0x20\n      add\n      0x02\n      dup3\n      add\n      dup1\n      sload\n      tag_55\n      swap1\n      tag_27\n      jump\t// in\n    tag_55:\n      dup1\n      0x1f\n      add\n      0x20\n      dup1\n      swap2\n      div\n      mul\n      0x20\n      add\n      mload(0x40)\n      swap1\n      dup2\n      add\n      0x40\n      mstore\n      dup1\n      swap3\n      swap2\n      swap1\n      dup2\n      dup2\n      mstore\n      0x20\n      add\n      dup3\n      dup1\n      sload\n      tag_56\n      swap1\n      tag_27\n      jump\t// in\n    tag_56:\n      dup1\n      iszero\n      tag_57\n      jumpi\n      dup1\n      0x1f\n      lt\n      tag_58\n      jumpi\n      0x0100\n      dup1\n      dup4\n      sload\n      div\n      mul\n      dup4\n      mstore\n      swap2\n      0x20\n      add\n      swap2\n      jump(tag_57)\n    tag_58:\n      dup3\n      add\n      swap2\n      swap1\n      0x00\n      mstore\n      keccak256(0x00, 0x20)\n      swap1\n    tag_59:\n      dup2\n      sload\n      dup2\n      mstore\n      swap1\n      0x01\n      add\n      swap1\n      0x20\n      add\n      dup1\n      dup4\n      gt\n      tag_59\n      jumpi\n      dup3\n      swap1\n      sub\n      0x1f\n      and\n      dup3\n      add\n      swap2\n    tag_57:\n      pop\n      pop\n      pop\n      pop\n      pop\n      dup2\n      mstore\n      pop\n      pop\n      swap1\n      pop\n        /* \"contracts/security/identity/DID.sol\":2321:2329  identity */\n      dup1\n        /* \"contracts/security/identity/DID.sol\":2321:2333  identity.did */\n      0x00\n      add\n      mload\n        /* \"contracts/security/identity/DID.sol\":2335:2343  identity */\n      dup2\n        /* \"contracts/security/identity/DID.sol\":2335:2353  identity.publicKey */\n      0x20\n      add\n      mload\n        /* \"contracts/security/identity/DID.sol\":2355:2363  identity */\n      dup3\n        /* \"contracts/security/identity/DID.sol\":2355:2372  identity.document */\n      0x40\n      add\n      mload\n        /* \"contracts/security/identity/DID.sol\":2313:2373  return (identity.did, identity.publicKey, identity.document) */\n      swap5\n      pop\n      swap5\n      pop\n      swap5\n      pop\n      pop\n      pop\n        /* \"contracts/security/identity/DID.sol\":2093:2380  function getIdentityByDID(string memory _did) public view returns (string memory, string memory, string memory) {... */\n      swap2\n      swap4\n      swap1\n      swap3\n      pop\n      jump\t// out\n        /* \"contracts/security/identity/DID.sol\":1344:1846  function updateIdentity(string memory _did, string memory _publicKey, string memory _document) public {... */\n    tag_21:\n        /* \"contracts/security/identity/DID.sol\":1508:1509  0 */\n      0x00\n        /* \"contracts/security/identity/DID.sol\":1470:1480  identities */\n      dup1\n        /* \"contracts/security/identity/DID.sol\":1470:1492  identities[msg.sender] */\n      0x00\n        /* \"contracts/security/identity/DID.sol\":1481:1491  msg.sender */\n      caller\n        /* \"contracts/security/identity/DID.sol\":1470:1492  identities[msg.sender] */\n      0xffffffffffffffffffffffffffffffffffffffff\n      and\n      0xffffffffffffffffffffffffffffffffffffffff\n      and\n      dup2\n      mstore\n      0x20\n      add\n      swap1\n      dup2\n      mstore\n      0x20\n      add\n      0x00\n      keccak256\n        /* \"contracts/security/identity/DID.sol\":1470:1496  identities[msg.sender].did */\n      0x00\n      add\n        /* \"contracts/security/identity/DID.sol\":1464:1504  bytes(identities[msg.sender].did).length */\n      dup1\n      sload\n      tag_61\n      swap1\n      tag_27\n      jump\t// in\n    tag_61:\n      swap1\n      pop\n        /* \"contracts/security/identity/DID.sol\":1464:1509  bytes(identities[msg.sender].did).length != 0 */\n      sub\n        /* \"contracts/security/identity/DID.sol\":1456:1554  require(bytes(identities[msg.sender].did).length != 0, \"Identity does not exist for this address\") */\n      tag_62\n      jumpi\n      mload(0x40)\n      0x08c379a000000000000000000000000000000000000000000000000000000000\n      dup2\n      mstore\n      0x04\n      add\n      tag_63\n      swap1\n      tag_64\n      jump\t// in\n    tag_63:\n      mload(0x40)\n      dup1\n      swap2\n      sub\n      swap1\n      revert\n    tag_62:\n        /* \"contracts/security/identity/DID.sol\":1658:1662  _did */\n      dup3\n        /* \"contracts/security/identity/DID.sol\":1641:1663  abi.encodePacked(_did) */\n      add(0x20, mload(0x40))\n      tag_65\n      swap2\n      swap1\n      tag_44\n      jump\t// in\n    tag_65:\n      mload(0x40)\n      0x20\n      dup2\n      dup4\n      sub\n      sub\n      dup2\n      mstore\n      swap1\n      0x40\n      mstore\n        /* \"contracts/security/identity/DID.sol\":1631:1664  keccak256(abi.encodePacked(_did)) */\n      dup1\n      mload\n      swap1\n      0x20\n      add\n      keccak256\n        /* \"contracts/security/identity/DID.sol\":1599:1609  identities */\n      0x00\n        /* \"contracts/security/identity/DID.sol\":1599:1621  identities[msg.sender] */\n      dup1\n        /* \"contracts/security/identity/DID.sol\":1610:1620  msg.sender */\n      caller\n        /* \"contracts/security/identity/DID.sol\":1599:1621  identities[msg.sender] */\n      0xffffffffffffffffffffffffffffffffffffffff\n      and\n      0xffffffffffffffffffffffffffffffffffffffff\n      and\n      dup2\n      mstore\n      0x20\n      add\n      swap1\n      dup2\n      mstore\n      0x20\n      add\n      0x00\n      keccak256\n        /* \"contracts/security/identity/DID.sol\":1599:1625  identities[msg.sender].did */\n      0x00\n      add\n        /* \"contracts/security/identity/DID.sol\":1582:1626  abi.encodePacked(identities[msg.sender].did) */\n      add(0x20, mload(0x40))\n      tag_66\n      swap2\n      swap1\n      tag_67\n      jump\t// in\n    tag_66:\n      mload(0x40)\n      0x20\n      dup2\n      dup4\n      sub\n      sub\n      dup2\n      mstore\n      swap1\n      0x40\n      mstore\n        /* \"contracts/security/identity/DID.sol\":1572:1627  keccak256(abi.encodePacked(identities[msg.sender].did)) */\n      dup1\n      mload\n      swap1\n      0x20\n      add\n      keccak256\n        /* \"contracts/security/identity/DID.sol\":1572:1664  keccak256(abi.encodePacked(identities[msg.sender].did)) == keccak256(abi.encodePacked(_did)) */\n      eq\n        /* \"contracts/security/identity/DID.sol\":1564:1681  require(keccak256(abi.encodePacked(identities[msg.sender].did)) == keccak256(abi.encodePacked(_did)), \"DID mismatch\") */\n      tag_68\n      jumpi\n      mload(0x40)\n      0x08c379a000000000000000000000000000000000000000000000000000000000\n      dup2\n      mstore\n      0x04\n      add\n      tag_69\n      swap1\n      tag_70\n      jump\t// in\n    tag_69:\n      mload(0x40)\n      dup1\n      swap2\n      sub\n      swap1\n      revert\n    tag_68:\n        /* \"contracts/security/identity/DID.sol\":1727:1737  _publicKey */\n      dup2\n        /* \"contracts/security/identity/DID.sol\":1692:1702  identities */\n      0x00\n        /* \"contracts/security/identity/DID.sol\":1692:1714  identities[msg.sender] */\n      dup1\n        /* \"contracts/security/identity/DID.sol\":1703:1713  msg.sender */\n      caller\n        /* \"contracts/security/identity/DID.sol\":1692:1714  identities[msg.sender] */\n      0xffffffffffffffffffffffffffffffffffffffff\n      and\n      0xffffffffffffffffffffffffffffffffffffffff\n      and\n      dup2\n      mstore\n      0x20\n      add\n      swap1\n      dup2\n      mstore\n      0x20\n      add\n      0x00\n      keccak256\n        /* \"contracts/security/identity/DID.sol\":1692:1724  identities[msg.sender].publicKey */\n      0x01\n      add\n        /* \"contracts/security/identity/DID.sol\":1692:1737  identities[msg.sender].publicKey = _publicKey */\n      swap1\n      dup2\n      tag_71\n      swap2\n      swap1\n      tag_72\n      jump\t// in\n    tag_71:\n      pop\n        /* \"contracts/security/identity/DID.sol\":1781:1790  _document */\n      dup1\n        /* \"contracts/security/identity/DID.sol\":1747:1757  identities */\n      0x00\n        /* \"contracts/security/identity/DID.sol\":1747:1769  identities[msg.sender] */\n      dup1\n        /* \"contracts/security/identity/DID.sol\":1758:1768  msg.sender */\n      caller\n        /* \"contracts/security/identity/DID.sol\":1747:1769  identities[msg.sender] */\n      0xffffffffffffffffffffffffffffffffffffffff\n      and\n      0xffffffffffffffffffffffffffffffffffffffff\n      and\n      dup2\n      mstore\n      0x20\n      add\n      swap1\n      dup2\n      mstore\n      0x20\n      add\n      0x00\n      keccak256\n        /* \"contracts/security/identity/DID.sol\":1747:1778  identities[msg.sender].document */\n      0x02\n      add\n        /* \"contracts/security/identity/DID.sol\":1747:1790  identities[msg.sender].document = _document */\n      swap1\n      dup2\n      tag_73\n      swap2\n      swap1\n      tag_72\n      jump\t// in\n    tag_73:\n      pop\n        /* \"contracts/security/identity/DID.sol\":1822:1832  msg.sender */\n      caller\n        /* \"contracts/security/identity/DID.sol\":1806:1839  IdentityUpdated(msg.sender, _did) */\n      0xffffffffffffffffffffffffffffffffffffffff\n      and\n      0x8b59ec232bae8e23fe031d1cacdaae5d1c57fb36ad6ca568850b6efbfb0d76b0\n        /* \"contracts/security/identity/DID.sol\":1834:1838  _did */\n      dup5\n        /* \"contracts/security/identity/DID.sol\":1806:1839  IdentityUpdated(msg.sender, _did) */\n      mload(0x40)\n      tag_74\n      swap2\n      swap1\n      tag_75\n      jump\t// in\n    tag_74:\n      mload(0x40)\n      dup1\n      swap2\n      sub\n      swap1\n      log2\n        /* \"contracts/security/identity/DID.sol\":1344:1846  function updateIdentity(string memory _did, string memory _publicKey, string memory _document) public {... */\n      pop\n      pop\n      pop\n      jump\t// out\n        /* \"contracts/security/identity/DID.sol\":801:1338  function registerIdentity(string memory _did, string memory _publicKey, string memory _document) public {... */\n    tag_24:\n        /* \"contracts/security/identity/DID.sol\":967:968  0 */\n      0x00\n        /* \"contracts/security/identity/DID.sol\":929:939  identities */\n      dup1\n        /* \"contracts/security/identity/DID.sol\":929:951  identities[msg.sender] */\n      0x00\n        /* \"contracts/security/identity/DID.sol\":940:950  msg.sender */\n      caller\n        /* \"contracts/security/identity/DID.sol\":929:951  identities[msg.sender] */\n      0xffffffffffffffffffffffffffffffffffffffff\n      and\n      0xffffffffffffffffffffffffffffffffffffffff\n      and\n      dup2\n      mstore\n      0x20\n      add\n      swap1\n      dup2\n      mstore\n      0x20\n      add\n      0x00\n      keccak256\n        /* \"contracts/security/identity/DID.sol\":929:955  identities[msg.sender].did */\n      0x00\n      add\n        /* \"contracts/security/identity/DID.sol\":923:963  bytes(identities[msg.sender].did).length */\n      dup1\n      sload\n      tag_77\n      swap1\n      tag_27\n      jump\t// in\n    tag_77:\n      swap1\n      pop\n        /* \"contracts/security/identity/DID.sol\":923:968  bytes(identities[msg.sender].did).length == 0 */\n      eq\n        /* \"contracts/security/identity/DID.sol\":915:1013  require(bytes(identities[msg.sender].did).length == 0, \"Identity already exists for this address\") */\n      tag_78\n      jumpi\n      mload(0x40)\n      0x08c379a000000000000000000000000000000000000000000000000000000000\n      dup2\n      mstore\n      0x04\n      add\n      tag_79\n      swap1\n      tag_80\n      jump\t// in\n    tag_79:\n      mload(0x40)\n      dup1\n      swap2\n      sub\n      swap1\n      revert\n    tag_78:\n        /* \"contracts/security/identity/DID.sol\":1061:1062  0 */\n      0x00\n        /* \"contracts/security/identity/DID.sol\":1031:1063  didToAddress[_did] == address(0) */\n      0xffffffffffffffffffffffffffffffffffffffff\n      and\n        /* \"contracts/security/identity/DID.sol\":1031:1043  didToAddress */\n      0x01\n        /* \"contracts/security/identity/DID.sol\":1044:1048  _did */\n      dup5\n        /* \"contracts/security/identity/DID.sol\":1031:1049  didToAddress[_did] */\n      mload(0x40)\n      tag_81\n      swap2\n      swap1\n      tag_44\n      jump\t// in\n    tag_81:\n      swap1\n      dup2\n      mstore\n      0x20\n      add\n      mload(0x40)\n      dup1\n      swap2\n      sub\n      swap1\n      keccak256\n      0x00\n      swap1\n      sload\n      swap1\n      0x0100\n      exp\n      swap1\n      div\n      0xffffffffffffffffffffffffffffffffffffffff\n      and\n        /* \"contracts/security/identity/DID.sol\":1031:1063  didToAddress[_did] == address(0) */\n      0xffffffffffffffffffffffffffffffffffffffff\n      and\n      eq\n        /* \"contracts/security/identity/DID.sol\":1023:1090  require(didToAddress[_did] == address(0), \"DID already registered\") */\n      tag_82\n      jumpi\n      mload(0x40)\n      0x08c379a000000000000000000000000000000000000000000000000000000000\n      dup2\n      mstore\n      0x04\n      add\n      tag_83\n      swap1\n      tag_84\n      jump\t// in\n    tag_83:\n      mload(0x40)\n      dup1\n      swap2\n      sub\n      swap1\n      revert\n    tag_82:\n        /* \"contracts/security/identity/DID.sol\":1126:1237  Identity({... */\n      mload(0x40)\n      dup1\n      0x60\n      add\n      0x40\n      mstore\n      dup1\n        /* \"contracts/security/identity/DID.sol\":1154:1158  _did */\n      dup5\n        /* \"contracts/security/identity/DID.sol\":1126:1237  Identity({... */\n      dup2\n      mstore\n      0x20\n      add\n        /* \"contracts/security/identity/DID.sol\":1183:1193  _publicKey */\n      dup4\n        /* \"contracts/security/identity/DID.sol\":1126:1237  Identity({... */\n      dup2\n      mstore\n      0x20\n      add\n        /* \"contracts/security/identity/DID.sol\":1217:1226  _document */\n      dup3\n        /* \"contracts/security/identity/DID.sol\":1126:1237  Identity({... */\n      dup2\n      mstore\n      pop\n        /* \"contracts/security/identity/DID.sol\":1101:1111  identities */\n      0x00\n        /* \"contracts/security/identity/DID.sol\":1101:1123  identities[msg.sender] */\n      dup1\n        /* \"contracts/security/identity/DID.sol\":1112:1122  msg.sender */\n      caller\n        /* \"contracts/security/identity/DID.sol\":1101:1123  identities[msg.sender] */\n      0xffffffffffffffffffffffffffffffffffffffff\n      and\n      0xffffffffffffffffffffffffffffffffffffffff\n      and\n      dup2\n      mstore\n      0x20\n      add\n      swap1\n      dup2\n      mstore\n      0x20\n      add\n      0x00\n      keccak256\n        /* \"contracts/security/identity/DID.sol\":1101:1237  identities[msg.sender] = Identity({... */\n      0x00\n      dup3\n      add\n      mload\n      dup2\n      0x00\n      add\n      swap1\n      dup2\n      tag_85\n      swap2\n      swap1\n      tag_72\n      jump\t// in\n    tag_85:\n      pop\n      0x20\n      dup3\n      add\n      mload\n      dup2\n      0x01\n      add\n      swap1\n      dup2\n      tag_86\n      swap2\n      swap1\n      tag_72\n      jump\t// in\n    tag_86:\n      pop\n      0x40\n      dup3\n      add\n      mload\n      dup2\n      0x02\n      add\n      swap1\n      dup2\n      tag_87\n      swap2\n      swap1\n      tag_72\n      jump\t// in\n    tag_87:\n      pop\n      swap1\n      pop\n      pop\n        /* \"contracts/security/identity/DID.sol\":1269:1279  msg.sender */\n      caller\n        /* \"contracts/security/identity/DID.sol\":1248:1260  didToAddress */\n      0x01\n        /* \"contracts/security/identity/DID.sol\":1261:1265  _did */\n      dup5\n        /* \"contracts/security/identity/DID.sol\":1248:1266  didToAddress[_did] */\n      mload(0x40)\n      tag_88\n      swap2\n      swap1\n      tag_44\n      jump\t// in\n    tag_88:\n      swap1\n      dup2\n      mstore\n      0x20\n      add\n      mload(0x40)\n      dup1\n      swap2\n      sub\n      swap1\n      keccak256\n      0x00\n        /* \"contracts/security/identity/DID.sol\":1248:1279  didToAddress[_did] = msg.sender */\n      0x0100\n      exp\n      dup2\n      sload\n      dup2\n      0xffffffffffffffffffffffffffffffffffffffff\n      mul\n      not\n      and\n      swap1\n      dup4\n      0xffffffffffffffffffffffffffffffffffffffff\n      and\n      mul\n      or\n      swap1\n      sstore\n      pop\n        /* \"contracts/security/identity/DID.sol\":1314:1324  msg.sender */\n      caller\n        /* \"contracts/security/identity/DID.sol\":1295:1331  IdentityRegistered(msg.sender, _did) */\n      0xffffffffffffffffffffffffffffffffffffffff\n      and\n      0x9b6805eb7a1bee8a797c79c5f2a39a182f3d37f8b8cce5ec42371000c8115dfd\n        /* \"contracts/security/identity/DID.sol\":1326:1330  _did */\n      dup5\n        /* \"contracts/security/identity/DID.sol\":1295:1331  IdentityRegistered(msg.sender, _did) */\n      mload(0x40)\n      tag_89\n      swap2\n      swap1\n      tag_75\n      jump\t// in\n    tag_89:\n      mload(0x40)\n      dup1\n      swap2\n      sub\n      swap1\n      log2\n        /* \"contracts/security/identity/DID.sol\":801:1338  function registerIdentity(string memory _did, string memory _publicKey, string memory _document) public {... */\n      pop\n      pop\n      pop\n      jump\t// out\n        /* \"#utility.yul\":7:82   */\n    tag_90:\n        /* \"#utility.yul\":40:46   */\n      0x00\n        /* \"#utility.yul\":73:75   */\n      0x40\n        /* \"#utility.yul\":67:76   */\n      mload\n        /* \"#utility.yul\":57:76   */\n      swap1\n      pop\n        /* \"#utility.yul\":7:82   */\n      swap1\n      jump\t// out\n        /* \"#utility.yul\":88:205   */\n    tag_91:\n        /* \"#utility.yul\":197:198   */\n      0x00\n        /* \"#utility.yul\":194:195   */\n      dup1\n        /* \"#utility.yul\":187:199   */\n      revert\n        /* \"#utility.yul\":211:328   */\n    tag_92:\n        /* \"#utility.yul\":320:321   */\n      0x00\n        /* \"#utility.yul\":317:318   */\n      dup1\n        /* \"#utility.yul\":310:322   */\n      revert\n        /* \"#utility.yul\":334:460   */\n    tag_93:\n        /* \"#utility.yul\":371:378   */\n      0x00\n        /* \"#utility.yul\":411:453   */\n      0xffffffffffffffffffffffffffffffffffffffff\n        /* \"#utility.yul\":404:409   */\n      dup3\n        /* \"#utility.yul\":400:454   */\n      and\n        /* \"#utility.yul\":389:454   */\n      swap1\n      pop\n        /* \"#utility.yul\":334:460   */\n      swap2\n      swap1\n      pop\n      jump\t// out\n        /* \"#utility.yul\":466:562   */\n    tag_94:\n        /* \"#utility.yul\":503:510   */\n      0x00\n        /* \"#utility.yul\":532:556   */\n      tag_145\n        /* \"#utility.yul\":550:555   */\n      dup3\n        /* \"#utility.yul\":532:556   */\n      tag_93\n      jump\t// in\n    tag_145:\n        /* \"#utility.yul\":521:556   */\n      swap1\n      pop\n        /* \"#utility.yul\":466:562   */\n      swap2\n      swap1\n      pop\n      jump\t// out\n        /* \"#utility.yul\":568:690   */\n    tag_95:\n        /* \"#utility.yul\":641:665   */\n      tag_147\n        /* \"#utility.yul\":659:664   */\n      dup2\n        /* \"#utility.yul\":641:665   */\n      tag_94\n      jump\t// in\n    tag_147:\n        /* \"#utility.yul\":634:639   */\n      dup2\n        /* \"#utility.yul\":631:666   */\n      eq\n        /* \"#utility.yul\":621:684   */\n      tag_148\n      jumpi\n        /* \"#utility.yul\":680:681   */\n      0x00\n        /* \"#utility.yul\":677:678   */\n      dup1\n        /* \"#utility.yul\":670:682   */\n      revert\n        /* \"#utility.yul\":621:684   */\n    tag_148:\n        /* \"#utility.yul\":568:690   */\n      pop\n      jump\t// out\n        /* \"#utility.yul\":696:835   */\n    tag_96:\n        /* \"#utility.yul\":742:747   */\n      0x00\n        /* \"#utility.yul\":780:786   */\n      dup2\n        /* \"#utility.yul\":767:787   */\n      calldataload\n        /* \"#utility.yul\":758:787   */\n      swap1\n      pop\n        /* \"#utility.yul\":796:829   */\n      tag_150\n        /* \"#utility.yul\":823:828   */\n      dup2\n        /* \"#utility.yul\":796:829   */\n      tag_95\n      jump\t// in\n    tag_150:\n        /* \"#utility.yul\":696:835   */\n      swap3\n      swap2\n      pop\n      pop\n      jump\t// out\n        /* \"#utility.yul\":841:1170   */\n    tag_9:\n        /* \"#utility.yul\":900:906   */\n      0x00\n        /* \"#utility.yul\":949:951   */\n      0x20\n        /* \"#utility.yul\":937:946   */\n      dup3\n        /* \"#utility.yul\":928:935   */\n      dup5\n        /* \"#utility.yul\":924:947   */\n      sub\n        /* \"#utility.yul\":920:952   */\n      slt\n        /* \"#utility.yul\":917:1036   */\n      iszero\n      tag_152\n      jumpi\n        /* \"#utility.yul\":955:1034   */\n      tag_153\n      tag_91\n      jump\t// in\n    tag_153:\n        /* \"#utility.yul\":917:1036   */\n    tag_152:\n        /* \"#utility.yul\":1075:1076   */\n      0x00\n        /* \"#utility.yul\":1100:1153   */\n      tag_154\n        /* \"#utility.yul\":1145:1152   */\n      dup5\n        /* \"#utility.yul\":1136:1142   */\n      dup3\n        /* \"#utility.yul\":1125:1134   */\n      dup6\n        /* \"#utility.yul\":1121:1143   */\n      add\n        /* \"#utility.yul\":1100:1153   */\n      tag_96\n      jump\t// in\n    tag_154:\n        /* \"#utility.yul\":1090:1153   */\n      swap2\n      pop\n        /* \"#utility.yul\":1046:1163   */\n      pop\n        /* \"#utility.yul\":841:1170   */\n      swap3\n      swap2\n      pop\n      pop\n      jump\t// out\n        /* \"#utility.yul\":1176:1275   */\n    tag_97:\n        /* \"#utility.yul\":1228:1234   */\n      0x00\n        /* \"#utility.yul\":1262:1267   */\n      dup2\n        /* \"#utility.yul\":1256:1268   */\n      mload\n        /* \"#utility.yul\":1246:1268   */\n      swap1\n      pop\n        /* \"#utility.yul\":1176:1275   */\n      swap2\n      swap1\n      pop\n      jump\t// out\n        /* \"#utility.yul\":1281:1450   */\n    tag_98:\n        /* \"#utility.yul\":1365:1376   */\n      0x00\n        /* \"#utility.yul\":1399:1405   */\n      dup3\n        /* \"#utility.yul\":1394:1397   */\n      dup3\n        /* \"#utility.yul\":1387:1406   */\n      mstore\n        /* \"#utility.yul\":1439:1443   */\n      0x20\n        /* \"#utility.yul\":1434:1437   */\n      dup3\n        /* \"#utility.yul\":1430:1444   */\n      add\n        /* \"#utility.yul\":1415:1444   */\n      swap1\n      pop\n        /* \"#utility.yul\":1281:1450   */\n      swap3\n      swap2\n      pop\n      pop\n      jump\t// out\n        /* \"#utility.yul\":1456:1595   */\n    tag_99:\n        /* \"#utility.yul\":1545:1551   */\n      dup3\n        /* \"#utility.yul\":1540:1543   */\n      dup2\n        /* \"#utility.yul\":1535:1538   */\n      dup4\n        /* \"#utility.yul\":1529:1552   */\n      mcopy\n        /* \"#utility.yul\":1586:1587   */\n      0x00\n        /* \"#utility.yul\":1577:1583   */\n      dup4\n        /* \"#utility.yul\":1572:1575   */\n      dup4\n        /* \"#utility.yul\":1568:1584   */\n      add\n        /* \"#utility.yul\":1561:1588   */\n      mstore\n        /* \"#utility.yul\":1456:1595   */\n      pop\n      pop\n      pop\n      jump\t// out\n        /* \"#utility.yul\":1601:1703   */\n    tag_100:\n        /* \"#utility.yul\":1642:1648   */\n      0x00\n        /* \"#utility.yul\":1693:1695   */\n      0x1f\n        /* \"#utility.yul\":1689:1696   */\n      not\n        /* \"#utility.yul\":1684:1686   */\n      0x1f\n        /* \"#utility.yul\":1677:1682   */\n      dup4\n        /* \"#utility.yul\":1673:1687   */\n      add\n        /* \"#utility.yul\":1669:1697   */\n      and\n        /* \"#utility.yul\":1659:1697   */\n      swap1\n      pop\n        /* \"#utility.yul\":1601:1703   */\n      swap2\n      swap1\n      pop\n      jump\t// out\n        /* \"#utility.yul\":1709:2086   */\n    tag_101:\n        /* \"#utility.yul\":1797:1800   */\n      0x00\n        /* \"#utility.yul\":1825:1864   */\n      tag_160\n        /* \"#utility.yul\":1858:1863   */\n      dup3\n        /* \"#utility.yul\":1825:1864   */\n      tag_97\n      jump\t// in\n    tag_160:\n        /* \"#utility.yul\":1880:1951   */\n      tag_161\n        /* \"#utility.yul\":1944:1950   */\n      dup2\n        /* \"#utility.yul\":1939:1942   */\n      dup6\n        /* \"#utility.yul\":1880:1951   */\n      tag_98\n      jump\t// in\n    tag_161:\n        /* \"#utility.yul\":1873:1951   */\n      swap4\n      pop\n        /* \"#utility.yul\":1960:2025   */\n      tag_162\n        /* \"#utility.yul\":2018:2024   */\n      dup2\n        /* \"#utility.yul\":2013:2016   */\n      dup6\n        /* \"#utility.yul\":2006:2010   */\n      0x20\n        /* \"#utility.yul\":1999:2004   */\n      dup7\n        /* \"#utility.yul\":1995:2011   */\n      add\n        /* \"#utility.yul\":1960:2025   */\n      tag_99\n      jump\t// in\n    tag_162:\n        /* \"#utility.yul\":2050:2079   */\n      tag_163\n        /* \"#utility.yul\":2072:2078   */\n      dup2\n        /* \"#utility.yul\":2050:2079   */\n      tag_100\n      jump\t// in\n    tag_163:\n        /* \"#utility.yul\":2045:2048   */\n      dup5\n        /* \"#utility.yul\":2041:2080   */\n      add\n        /* \"#utility.yul\":2034:2080   */\n      swap2\n      pop\n        /* \"#utility.yul\":1801:2086   */\n      pop\n        /* \"#utility.yul\":1709:2086   */\n      swap3\n      swap2\n      pop\n      pop\n      jump\t// out\n        /* \"#utility.yul\":2092:2807   */\n    tag_12:\n        /* \"#utility.yul\":2301:2305   */\n      0x00\n        /* \"#utility.yul\":2339:2341   */\n      0x60\n        /* \"#utility.yul\":2328:2337   */\n      dup3\n        /* \"#utility.yul\":2324:2342   */\n      add\n        /* \"#utility.yul\":2316:2342   */\n      swap1\n      pop\n        /* \"#utility.yul\":2388:2397   */\n      dup2\n        /* \"#utility.yul\":2382:2386   */\n      dup2\n        /* \"#utility.yul\":2378:2398   */\n      sub\n        /* \"#utility.yul\":2374:2375   */\n      0x00\n        /* \"#utility.yul\":2363:2372   */\n      dup4\n        /* \"#utility.yul\":2359:2376   */\n      add\n        /* \"#utility.yul\":2352:2399   */\n      mstore\n        /* \"#utility.yul\":2416:2494   */\n      tag_165\n        /* \"#utility.yul\":2489:2493   */\n      dup2\n        /* \"#utility.yul\":2480:2486   */\n      dup7\n        /* \"#utility.yul\":2416:2494   */\n      tag_101\n      jump\t// in\n    tag_165:\n        /* \"#utility.yul\":2408:2494   */\n      swap1\n      pop\n        /* \"#utility.yul\":2541:2550   */\n      dup2\n        /* \"#utility.yul\":2535:2539   */\n      dup2\n        /* \"#utility.yul\":2531:2551   */\n      sub\n        /* \"#utility.yul\":2526:2528   */\n      0x20\n        /* \"#utility.yul\":2515:2524   */\n      dup4\n        /* \"#utility.yul\":2511:2529   */\n      add\n        /* \"#utility.yul\":2504:2552   */\n      mstore\n        /* \"#utility.yul\":2569:2647   */\n      tag_166\n        /* \"#utility.yul\":2642:2646   */\n      dup2\n        /* \"#utility.yul\":2633:2639   */\n      dup6\n        /* \"#utility.yul\":2569:2647   */\n      tag_101\n      jump\t// in\n    tag_166:\n        /* \"#utility.yul\":2561:2647   */\n      swap1\n      pop\n        /* \"#utility.yul\":2694:2703   */\n      dup2\n        /* \"#utility.yul\":2688:2692   */\n      dup2\n        /* \"#utility.yul\":2684:2704   */\n      sub\n        /* \"#utility.yul\":2679:2681   */\n      0x40\n        /* \"#utility.yul\":2668:2677   */\n      dup4\n        /* \"#utility.yul\":2664:2682   */\n      add\n        /* \"#utility.yul\":2657:2705   */\n      mstore\n        /* \"#utility.yul\":2722:2800   */\n      tag_167\n        /* \"#utility.yul\":2795:2799   */\n      dup2\n        /* \"#utility.yul\":2786:2792   */\n      dup5\n        /* \"#utility.yul\":2722:2800   */\n      tag_101\n      jump\t// in\n    tag_167:\n        /* \"#utility.yul\":2714:2800   */\n      swap1\n      pop\n        /* \"#utility.yul\":2092:2807   */\n      swap5\n      swap4\n      pop\n      pop\n      pop\n      pop\n      jump\t// out\n        /* \"#utility.yul\":2813:2930   */\n    tag_102:\n        /* \"#utility.yul\":2922:2923   */\n      0x00\n        /* \"#utility.yul\":2919:2920   */\n      dup1\n        /* \"#utility.yul\":2912:2924   */\n      revert\n        /* \"#utility.yul\":2936:3053   */\n    tag_103:\n        /* \"#utility.yul\":3045:3046   */\n      0x00\n        /* \"#utility.yul\":3042:3043   */\n      dup1\n        /* \"#utility.yul\":3035:3047   */\n      revert\n        /* \"#utility.yul\":3059:3239   */\n    tag_104:\n        /* \"#utility.yul\":3107:3184   */\n      0x4e487b7100000000000000000000000000000000000000000000000000000000\n        /* \"#utility.yul\":3104:3105   */\n      0x00\n        /* \"#utility.yul\":3097:3185   */\n      mstore\n        /* \"#utility.yul\":3204:3208   */\n      0x41\n        /* \"#utility.yul\":3201:3202   */\n      0x04\n        /* \"#utility.yul\":3194:3209   */\n      mstore\n        /* \"#utility.yul\":3228:3232   */\n      0x24\n        /* \"#utility.yul\":3225:3226   */\n      0x00\n        /* \"#utility.yul\":3218:3233   */\n      revert\n        /* \"#utility.yul\":3245:3526   */\n    tag_105:\n        /* \"#utility.yul\":3328:3355   */\n      tag_172\n        /* \"#utility.yul\":3350:3354   */\n      dup3\n        /* \"#utility.yul\":3328:3355   */\n      tag_100\n      jump\t// in\n    tag_172:\n        /* \"#utility.yul\":3320:3326   */\n      dup2\n        /* \"#utility.yul\":3316:3356   */\n      add\n        /* \"#utility.yul\":3458:3464   */\n      dup2\n        /* \"#utility.yul\":3446:3456   */\n      dup2\n        /* \"#utility.yul\":3443:3465   */\n      lt\n        /* \"#utility.yul\":3422:3440   */\n      0xffffffffffffffff\n        /* \"#utility.yul\":3410:3420   */\n      dup3\n        /* \"#utility.yul\":3407:3441   */\n      gt\n        /* \"#utility.yul\":3404:3466   */\n      or\n        /* \"#utility.yul\":3401:3489   */\n      iszero\n      tag_173\n      jumpi\n        /* \"#utility.yul\":3469:3487   */\n      tag_174\n      tag_104\n      jump\t// in\n    tag_174:\n        /* \"#utility.yul\":3401:3489   */\n    tag_173:\n        /* \"#utility.yul\":3509:3519   */\n      dup1\n        /* \"#utility.yul\":3505:3507   */\n      0x40\n        /* \"#utility.yul\":3498:3520   */\n      mstore\n        /* \"#utility.yul\":3288:3526   */\n      pop\n        /* \"#utility.yul\":3245:3526   */\n      pop\n      pop\n      jump\t// out\n        /* \"#utility.yul\":3532:3661   */\n    tag_106:\n        /* \"#utility.yul\":3566:3572   */\n      0x00\n        /* \"#utility.yul\":3593:3613   */\n      tag_176\n      tag_90\n      jump\t// in\n    tag_176:\n        /* \"#utility.yul\":3583:3613   */\n      swap1\n      pop\n        /* \"#utility.yul\":3622:3655   */\n      tag_177\n        /* \"#utility.yul\":3650:3654   */\n      dup3\n        /* \"#utility.yul\":3642:3648   */\n      dup3\n        /* \"#utility.yul\":3622:3655   */\n      tag_105\n      jump\t// in\n    tag_177:\n        /* \"#utility.yul\":3532:3661   */\n      swap2\n      swap1\n      pop\n      jump\t// out\n        /* \"#utility.yul\":3667:3975   */\n    tag_107:\n        /* \"#utility.yul\":3729:3733   */\n      0x00\n        /* \"#utility.yul\":3819:3837   */\n      0xffffffffffffffff\n        /* \"#utility.yul\":3811:3817   */\n      dup3\n        /* \"#utility.yul\":3808:3838   */\n      gt\n        /* \"#utility.yul\":3805:3861   */\n      iszero\n      tag_179\n      jumpi\n        /* \"#utility.yul\":3841:3859   */\n      tag_180\n      tag_104\n      jump\t// in\n    tag_180:\n        /* \"#utility.yul\":3805:3861   */\n    tag_179:\n        /* \"#utility.yul\":3879:3908   */\n      tag_181\n        /* \"#utility.yul\":3901:3907   */\n      dup3\n        /* \"#utility.yul\":3879:3908   */\n      tag_100\n      jump\t// in\n    tag_181:\n        /* \"#utility.yul\":3871:3908   */\n      swap1\n      pop\n        /* \"#utility.yul\":3963:3967   */\n      0x20\n        /* \"#utility.yul\":3957:3961   */\n      dup2\n        /* \"#utility.yul\":3953:3968   */\n      add\n        /* \"#utility.yul\":3945:3968   */\n      swap1\n      pop\n        /* \"#utility.yul\":3667:3975   */\n      swap2\n      swap1\n      pop\n      jump\t// out\n        /* \"#utility.yul\":3981:4129   */\n    tag_108:\n        /* \"#utility.yul\":4079:4085   */\n      dup3\n        /* \"#utility.yul\":4074:4077   */\n      dup2\n        /* \"#utility.yul\":4069:4072   */\n      dup4\n        /* \"#utility.yul\":4056:4086   */\n      calldatacopy\n        /* \"#utility.yul\":4120:4121   */\n      0x00\n        /* \"#utility.yul\":4111:4117   */\n      dup4\n        /* \"#utility.yul\":4106:4109   */\n      dup4\n        /* \"#utility.yul\":4102:4118   */\n      add\n        /* \"#utility.yul\":4095:4122   */\n      mstore\n        /* \"#utility.yul\":3981:4129   */\n      pop\n      pop\n      pop\n      jump\t// out\n        /* \"#utility.yul\":4135:4560   */\n    tag_109:\n        /* \"#utility.yul\":4213:4218   */\n      0x00\n        /* \"#utility.yul\":4238:4304   */\n      tag_184\n        /* \"#utility.yul\":4254:4303   */\n      tag_185\n        /* \"#utility.yul\":4296:4302   */\n      dup5\n        /* \"#utility.yul\":4254:4303   */\n      tag_107\n      jump\t// in\n    tag_185:\n        /* \"#utility.yul\":4238:4304   */\n      tag_106\n      jump\t// in\n    tag_184:\n        /* \"#utility.yul\":4229:4304   */\n      swap1\n      pop\n        /* \"#utility.yul\":4327:4333   */\n      dup3\n        /* \"#utility.yul\":4320:4325   */\n      dup2\n        /* \"#utility.yul\":4313:4334   */\n      mstore\n        /* \"#utility.yul\":4365:4369   */\n      0x20\n        /* \"#utility.yul\":4358:4363   */\n      dup2\n        /* \"#utility.yul\":4354:4370   */\n      add\n        /* \"#utility.yul\":4403:4406   */\n      dup5\n        /* \"#utility.yul\":4394:4400   */\n      dup5\n        /* \"#utility.yul\":4389:4392   */\n      dup5\n        /* \"#utility.yul\":4385:4401   */\n      add\n        /* \"#utility.yul\":4382:4407   */\n      gt\n        /* \"#utility.yul\":4379:4491   */\n      iszero\n      tag_186\n      jumpi\n        /* \"#utility.yul\":4410:4489   */\n      tag_187\n      tag_103\n      jump\t// in\n    tag_187:\n        /* \"#utility.yul\":4379:4491   */\n    tag_186:\n        /* \"#utility.yul\":4500:4554   */\n      tag_188\n        /* \"#utility.yul\":4547:4553   */\n      dup5\n        /* \"#utility.yul\":4542:4545   */\n      dup3\n        /* \"#utility.yul\":4537:4540   */\n      dup6\n        /* \"#utility.yul\":4500:4554   */\n      tag_108\n      jump\t// in\n    tag_188:\n        /* \"#utility.yul\":4219:4560   */\n      pop\n        /* \"#utility.yul\":4135:4560   */\n      swap4\n      swap3\n      pop\n      pop\n      pop\n      jump\t// out\n        /* \"#utility.yul\":4580:4920   */\n    tag_110:\n        /* \"#utility.yul\":4636:4641   */\n      0x00\n        /* \"#utility.yul\":4685:4688   */\n      dup3\n        /* \"#utility.yul\":4678:4682   */\n      0x1f\n        /* \"#utility.yul\":4670:4676   */\n      dup4\n        /* \"#utility.yul\":4666:4683   */\n      add\n        /* \"#utility.yul\":4662:4689   */\n      slt\n        /* \"#utility.yul\":4652:4774   */\n      tag_190\n      jumpi\n        /* \"#utility.yul\":4693:4772   */\n      tag_191\n      tag_102\n      jump\t// in\n    tag_191:\n        /* \"#utility.yul\":4652:4774   */\n    tag_190:\n        /* \"#utility.yul\":4810:4816   */\n      dup2\n        /* \"#utility.yul\":4797:4817   */\n      calldataload\n        /* \"#utility.yul\":4835:4914   */\n      tag_192\n        /* \"#utility.yul\":4910:4913   */\n      dup5\n        /* \"#utility.yul\":4902:4908   */\n      dup3\n        /* \"#utility.yul\":4895:4899   */\n      0x20\n        /* \"#utility.yul\":4887:4893   */\n      dup7\n        /* \"#utility.yul\":4883:4900   */\n      add\n        /* \"#utility.yul\":4835:4914   */\n      tag_109\n      jump\t// in\n    tag_192:\n        /* \"#utility.yul\":4826:4914   */\n      swap2\n      pop\n        /* \"#utility.yul\":4642:4920   */\n      pop\n        /* \"#utility.yul\":4580:4920   */\n      swap3\n      swap2\n      pop\n      pop\n      jump\t// out\n        /* \"#utility.yul\":4926:5435   */\n    tag_15:\n        /* \"#utility.yul\":4995:5001   */\n      0x00\n        /* \"#utility.yul\":5044:5046   */\n      0x20\n        /* \"#utility.yul\":5032:5041   */\n      dup3\n        /* \"#utility.yul\":5023:5030   */\n      dup5\n        /* \"#utility.yul\":5019:5042   */\n      sub\n        /* \"#utility.yul\":5015:5047   */\n      slt\n        /* \"#utility.yul\":5012:5131   */\n      iszero\n      tag_194\n      jumpi\n        /* \"#utility.yul\":5050:5129   */\n      tag_195\n      tag_91\n      jump\t// in\n    tag_195:\n        /* \"#utility.yul\":5012:5131   */\n    tag_194:\n        /* \"#utility.yul\":5198:5199   */\n      0x00\n        /* \"#utility.yul\":5187:5196   */\n      dup3\n        /* \"#utility.yul\":5183:5200   */\n      add\n        /* \"#utility.yul\":5170:5201   */\n      calldataload\n        /* \"#utility.yul\":5228:5246   */\n      0xffffffffffffffff\n        /* \"#utility.yul\":5220:5226   */\n      dup2\n        /* \"#utility.yul\":5217:5247   */\n      gt\n        /* \"#utility.yul\":5214:5331   */\n      iszero\n      tag_196\n      jumpi\n        /* \"#utility.yul\":5250:5329   */\n      tag_197\n      tag_92\n      jump\t// in\n    tag_197:\n        /* \"#utility.yul\":5214:5331   */\n    tag_196:\n        /* \"#utility.yul\":5355:5418   */\n      tag_198\n        /* \"#utility.yul\":5410:5417   */\n      dup5\n        /* \"#utility.yul\":5401:5407   */\n      dup3\n        /* \"#utility.yul\":5390:5399   */\n      dup6\n        /* \"#utility.yul\":5386:5408   */\n      add\n        /* \"#utility.yul\":5355:5418   */\n      tag_110\n      jump\t// in\n    tag_198:\n        /* \"#utility.yul\":5345:5418   */\n      swap2\n      pop\n        /* \"#utility.yul\":5141:5428   */\n      pop\n        /* \"#utility.yul\":4926:5435   */\n      swap3\n      swap2\n      pop\n      pop\n      jump\t// out\n        /* \"#utility.yul\":5441:6600   */\n    tag_20:\n        /* \"#utility.yul\":5548:5554   */\n      0x00\n        /* \"#utility.yul\":5556:5562   */\n      dup1\n        /* \"#utility.yul\":5564:5570   */\n      0x00\n        /* \"#utility.yul\":5613:5615   */\n      0x60\n        /* \"#utility.yul\":5601:5610   */\n      dup5\n        /* \"#utility.yul\":5592:5599   */\n      dup7\n        /* \"#utility.yul\":5588:5611   */\n      sub\n        /* \"#utility.yul\":5584:5616   */\n      slt\n        /* \"#utility.yul\":5581:5700   */\n      iszero\n      tag_200\n      jumpi\n        /* \"#utility.yul\":5619:5698   */\n      tag_201\n      tag_91\n      jump\t// in\n    tag_201:\n        /* \"#utility.yul\":5581:5700   */\n    tag_200:\n        /* \"#utility.yul\":5767:5768   */\n      0x00\n        /* \"#utility.yul\":5756:5765   */\n      dup5\n        /* \"#utility.yul\":5752:5769   */\n      add\n        /* \"#utility.yul\":5739:5770   */\n      calldataload\n        /* \"#utility.yul\":5797:5815   */\n      0xffffffffffffffff\n        /* \"#utility.yul\":5789:5795   */\n      dup2\n        /* \"#utility.yul\":5786:5816   */\n      gt\n        /* \"#utility.yul\":5783:5900   */\n      iszero\n      tag_202\n      jumpi\n        /* \"#utility.yul\":5819:5898   */\n      tag_203\n      tag_92\n      jump\t// in\n    tag_203:\n        /* \"#utility.yul\":5783:5900   */\n    tag_202:\n        /* \"#utility.yul\":5924:5987   */\n      tag_204\n        /* \"#utility.yul\":5979:5986   */\n      dup7\n        /* \"#utility.yul\":5970:5976   */\n      dup3\n        /* \"#utility.yul\":5959:5968   */\n      dup8\n        /* \"#utility.yul\":5955:5977   */\n      add\n        /* \"#utility.yul\":5924:5987   */\n      tag_110\n      jump\t// in\n    tag_204:\n        /* \"#utility.yul\":5914:5987   */\n      swap4\n      pop\n        /* \"#utility.yul\":5710:5997   */\n      pop\n        /* \"#utility.yul\":6064:6066   */\n      0x20\n        /* \"#utility.yul\":6053:6062   */\n      dup5\n        /* \"#utility.yul\":6049:6067   */\n      add\n        /* \"#utility.yul\":6036:6068   */\n      calldataload\n        /* \"#utility.yul\":6095:6113   */\n      0xffffffffffffffff\n        /* \"#utility.yul\":6087:6093   */\n      dup2\n        /* \"#utility.yul\":6084:6114   */\n      gt\n        /* \"#utility.yul\":6081:6198   */\n      iszero\n      tag_205\n      jumpi\n        /* \"#utility.yul\":6117:6196   */\n      tag_206\n      tag_92\n      jump\t// in\n    tag_206:\n        /* \"#utility.yul\":6081:6198   */\n    tag_205:\n        /* \"#utility.yul\":6222:6285   */\n      tag_207\n        /* \"#utility.yul\":6277:6284   */\n      dup7\n        /* \"#utility.yul\":6268:6274   */\n      dup3\n        /* \"#utility.yul\":6257:6266   */\n      dup8\n        /* \"#utility.yul\":6253:6275   */\n      add\n        /* \"#utility.yul\":6222:6285   */\n      tag_110\n      jump\t// in\n    tag_207:\n        /* \"#utility.yul\":6212:6285   */\n      swap3\n      pop\n        /* \"#utility.yul\":6007:6295   */\n      pop\n        /* \"#utility.yul\":6362:6364   */\n      0x40\n        /* \"#utility.yul\":6351:6360   */\n      dup5\n        /* \"#utility.yul\":6347:6365   */\n      add\n        /* \"#utility.yul\":6334:6366   */\n      calldataload\n        /* \"#utility.yul\":6393:6411   */\n      0xffffffffffffffff\n        /* \"#utility.yul\":6385:6391   */\n      dup2\n        /* \"#utility.yul\":6382:6412   */\n      gt\n        /* \"#utility.yul\":6379:6496   */\n      iszero\n      tag_208\n      jumpi\n        /* \"#utility.yul\":6415:6494   */\n      tag_209\n      tag_92\n      jump\t// in\n    tag_209:\n        /* \"#utility.yul\":6379:6496   */\n    tag_208:\n        /* \"#utility.yul\":6520:6583   */\n      tag_210\n        /* \"#utility.yul\":6575:6582   */\n      dup7\n        /* \"#utility.yul\":6566:6572   */\n      dup3\n        /* \"#utility.yul\":6555:6564   */\n      dup8\n        /* \"#utility.yul\":6551:6573   */\n      add\n        /* \"#utility.yul\":6520:6583   */\n      tag_110\n      jump\t// in\n    tag_210:\n        /* \"#utility.yul\":6510:6583   */\n      swap2\n      pop\n        /* \"#utility.yul\":6305:6593   */\n      pop\n        /* \"#utility.yul\":5441:6600   */\n      swap3\n      pop\n      swap3\n      pop\n      swap3\n      jump\t// out\n        /* \"#utility.yul\":6606:6786   */\n    tag_111:\n        /* \"#utility.yul\":6654:6731   */\n      0x4e487b7100000000000000000000000000000000000000000000000000000000\n        /* \"#utility.yul\":6651:6652   */\n      0x00\n        /* \"#utility.yul\":6644:6732   */\n      mstore\n        /* \"#utility.yul\":6751:6755   */\n      0x22\n        /* \"#utility.yul\":6748:6749   */\n      0x04\n        /* \"#utility.yul\":6741:6756   */\n      mstore\n        /* \"#utility.yul\":6775:6779   */\n      0x24\n        /* \"#utility.yul\":6772:6773   */\n      0x00\n        /* \"#utility.yul\":6765:6780   */\n      revert\n        /* \"#utility.yul\":6792:7112   */\n    tag_27:\n        /* \"#utility.yul\":6836:6842   */\n      0x00\n        /* \"#utility.yul\":6873:6874   */\n      0x02\n        /* \"#utility.yul\":6867:6871   */\n      dup3\n        /* \"#utility.yul\":6863:6875   */\n      div\n        /* \"#utility.yul\":6853:6875   */\n      swap1\n      pop\n        /* \"#utility.yul\":6920:6921   */\n      0x01\n        /* \"#utility.yul\":6914:6918   */\n      dup3\n        /* \"#utility.yul\":6910:6922   */\n      and\n        /* \"#utility.yul\":6941:6959   */\n      dup1\n        /* \"#utility.yul\":6931:7012   */\n      tag_213\n      jumpi\n        /* \"#utility.yul\":6997:7001   */\n      0x7f\n        /* \"#utility.yul\":6989:6995   */\n      dup3\n        /* \"#utility.yul\":6985:7002   */\n      and\n        /* \"#utility.yul\":6975:7002   */\n      swap2\n      pop\n        /* \"#utility.yul\":6931:7012   */\n    tag_213:\n        /* \"#utility.yul\":7059:7061   */\n      0x20\n        /* \"#utility.yul\":7051:7057   */\n      dup3\n        /* \"#utility.yul\":7048:7062   */\n      lt\n        /* \"#utility.yul\":7028:7046   */\n      dup2\n        /* \"#utility.yul\":7025:7063   */\n      sub\n        /* \"#utility.yul\":7022:7106   */\n      tag_214\n      jumpi\n        /* \"#utility.yul\":7078:7096   */\n      tag_215\n      tag_111\n      jump\t// in\n    tag_215:\n        /* \"#utility.yul\":7022:7106   */\n    tag_214:\n        /* \"#utility.yul\":6843:7112   */\n      pop\n        /* \"#utility.yul\":6792:7112   */\n      swap2\n      swap1\n      pop\n      jump\t// out\n        /* \"#utility.yul\":7118:7266   */\n    tag_112:\n        /* \"#utility.yul\":7220:7231   */\n      0x00\n        /* \"#utility.yul\":7257:7260   */\n      dup2\n        /* \"#utility.yul\":7242:7260   */\n      swap1\n      pop\n        /* \"#utility.yul\":7118:7266   */\n      swap3\n      swap2\n      pop\n      pop\n      jump\t// out\n        /* \"#utility.yul\":7272:7662   */\n    tag_113:\n        /* \"#utility.yul\":7378:7381   */\n      0x00\n        /* \"#utility.yul\":7406:7445   */\n      tag_218\n        /* \"#utility.yul\":7439:7444   */\n      dup3\n        /* \"#utility.yul\":7406:7445   */\n      tag_97\n      jump\t// in\n    tag_218:\n        /* \"#utility.yul\":7461:7550   */\n      tag_219\n        /* \"#utility.yul\":7543:7549   */\n      dup2\n        /* \"#utility.yul\":7538:7541   */\n      dup6\n        /* \"#utility.yul\":7461:7550   */\n      tag_112\n      jump\t// in\n    tag_219:\n        /* \"#utility.yul\":7454:7550   */\n      swap4\n      pop\n        /* \"#utility.yul\":7559:7624   */\n      tag_220\n        /* \"#utility.yul\":7617:7623   */\n      dup2\n        /* \"#utility.yul\":7612:7615   */\n      dup6\n        /* \"#utility.yul\":7605:7609   */\n      0x20\n        /* \"#utility.yul\":7598:7603   */\n      dup7\n        /* \"#utility.yul\":7594:7610   */\n      add\n        /* \"#utility.yul\":7559:7624   */\n      tag_99\n      jump\t// in\n    tag_220:\n        /* \"#utility.yul\":7649:7655   */\n      dup1\n        /* \"#utility.yul\":7644:7647   */\n      dup5\n        /* \"#utility.yul\":7640:7656   */\n      add\n        /* \"#utility.yul\":7633:7656   */\n      swap2\n      pop\n        /* \"#utility.yul\":7382:7662   */\n      pop\n        /* \"#utility.yul\":7272:7662   */\n      swap3\n      swap2\n      pop\n      pop\n      jump\t// out\n        /* \"#utility.yul\":7668:7943   */\n    tag_44:\n        /* \"#utility.yul\":7800:7803   */\n      0x00\n        /* \"#utility.yul\":7822:7917   */\n      tag_222\n        /* \"#utility.yul\":7913:7916   */\n      dup3\n        /* \"#utility.yul\":7904:7910   */\n      dup5\n        /* \"#utility.yul\":7822:7917   */\n      tag_113\n      jump\t// in\n    tag_222:\n        /* \"#utility.yul\":7815:7917   */\n      swap2\n      pop\n        /* \"#utility.yul\":7934:7937   */\n      dup2\n        /* \"#utility.yul\":7927:7937   */\n      swap1\n      pop\n        /* \"#utility.yul\":7668:7943   */\n      swap3\n      swap2\n      pop\n      pop\n      jump\t// out\n        /* \"#utility.yul\":7949:8176   */\n    tag_114:\n        /* \"#utility.yul\":8089:8123   */\n      0x4964656e7469747920646f6573206e6f7420657869737420666f722074686973\n        /* \"#utility.yul\":8085:8086   */\n      0x00\n        /* \"#utility.yul\":8077:8083   */\n      dup3\n        /* \"#utility.yul\":8073:8087   */\n      add\n        /* \"#utility.yul\":8066:8124   */\n      mstore\n        /* \"#utility.yul\":8158:8168   */\n      0x2061646472657373000000000000000000000000000000000000000000000000\n        /* \"#utility.yul\":8153:8155   */\n      0x20\n        /* \"#utility.yul\":8145:8151   */\n      dup3\n        /* \"#utility.yul\":8141:8156   */\n      add\n        /* \"#utility.yul\":8134:8169   */\n      mstore\n        /* \"#utility.yul\":7949:8176   */\n      pop\n      jump\t// out\n        /* \"#utility.yul\":8182:8548   */\n    tag_115:\n        /* \"#utility.yul\":8324:8327   */\n      0x00\n        /* \"#utility.yul\":8345:8412   */\n      tag_225\n        /* \"#utility.yul\":8409:8411   */\n      0x28\n        /* \"#utility.yul\":8404:8407   */\n      dup4\n        /* \"#utility.yul\":8345:8412   */\n      tag_98\n      jump\t// in\n    tag_225:\n        /* \"#utility.yul\":8338:8412   */\n      swap2\n      pop\n        /* \"#utility.yul\":8421:8514   */\n      tag_226\n        /* \"#utility.yul\":8510:8513   */\n      dup3\n        /* \"#utility.yul\":8421:8514   */\n      tag_114\n      jump\t// in\n    tag_226:\n        /* \"#utility.yul\":8539:8541   */\n      0x40\n        /* \"#utility.yul\":8534:8537   */\n      dup3\n        /* \"#utility.yul\":8530:8542   */\n      add\n        /* \"#utility.yul\":8523:8542   */\n      swap1\n      pop\n        /* \"#utility.yul\":8182:8548   */\n      swap2\n      swap1\n      pop\n      jump\t// out\n        /* \"#utility.yul\":8554:8973   */\n    tag_64:\n        /* \"#utility.yul\":8720:8724   */\n      0x00\n        /* \"#utility.yul\":8758:8760   */\n      0x20\n        /* \"#utility.yul\":8747:8756   */\n      dup3\n        /* \"#utility.yul\":8743:8761   */\n      add\n        /* \"#utility.yul\":8735:8761   */\n      swap1\n      pop\n        /* \"#utility.yul\":8807:8816   */\n      dup2\n        /* \"#utility.yul\":8801:8805   */\n      dup2\n        /* \"#utility.yul\":8797:8817   */\n      sub\n        /* \"#utility.yul\":8793:8794   */\n      0x00\n        /* \"#utility.yul\":8782:8791   */\n      dup4\n        /* \"#utility.yul\":8778:8795   */\n      add\n        /* \"#utility.yul\":8771:8818   */\n      mstore\n        /* \"#utility.yul\":8835:8966   */\n      tag_228\n        /* \"#utility.yul\":8961:8965   */\n      dup2\n        /* \"#utility.yul\":8835:8966   */\n      tag_115\n      jump\t// in\n    tag_228:\n        /* \"#utility.yul\":8827:8966   */\n      swap1\n      pop\n        /* \"#utility.yul\":8554:8973   */\n      swap2\n      swap1\n      pop\n      jump\t// out\n        /* \"#utility.yul\":8979:9120   */\n    tag_116:\n        /* \"#utility.yul\":9028:9032   */\n      0x00\n        /* \"#utility.yul\":9051:9054   */\n      dup2\n        /* \"#utility.yul\":9043:9054   */\n      swap1\n      pop\n        /* \"#utility.yul\":9074:9077   */\n      dup2\n        /* \"#utility.yul\":9071:9072   */\n      0x00\n        /* \"#utility.yul\":9064:9078   */\n      mstore\n        /* \"#utility.yul\":9108:9112   */\n      0x20\n        /* \"#utility.yul\":9105:9106   */\n      0x00\n        /* \"#utility.yul\":9095:9113   */\n      keccak256\n        /* \"#utility.yul\":9087:9113   */\n      swap1\n      pop\n        /* \"#utility.yul\":8979:9120   */\n      swap2\n      swap1\n      pop\n      jump\t// out\n        /* \"#utility.yul\":9150:10024   */\n    tag_117:\n        /* \"#utility.yul\":9253:9256   */\n      0x00\n        /* \"#utility.yul\":9290:9295   */\n      dup2\n        /* \"#utility.yul\":9284:9296   */\n      sload\n        /* \"#utility.yul\":9319:9355   */\n      tag_231\n        /* \"#utility.yul\":9345:9354   */\n      dup2\n        /* \"#utility.yul\":9319:9355   */\n      tag_27\n      jump\t// in\n    tag_231:\n        /* \"#utility.yul\":9371:9460   */\n      tag_232\n        /* \"#utility.yul\":9453:9459   */\n      dup2\n        /* \"#utility.yul\":9448:9451   */\n      dup7\n        /* \"#utility.yul\":9371:9460   */\n      tag_112\n      jump\t// in\n    tag_232:\n        /* \"#utility.yul\":9364:9460   */\n      swap5\n      pop\n        /* \"#utility.yul\":9491:9492   */\n      0x01\n        /* \"#utility.yul\":9480:9489   */\n      dup3\n        /* \"#utility.yul\":9476:9493   */\n      and\n        /* \"#utility.yul\":9507:9508   */\n      0x00\n        /* \"#utility.yul\":9502:9668   */\n      dup2\n      eq\n      tag_234\n      jumpi\n        /* \"#utility.yul\":9682:9683   */\n      0x01\n        /* \"#utility.yul\":9677:10018   */\n      dup2\n      eq\n      tag_235\n      jumpi\n        /* \"#utility.yul\":9469:10018   */\n      jump(tag_233)\n        /* \"#utility.yul\":9502:9668   */\n    tag_234:\n        /* \"#utility.yul\":9586:9590   */\n      0xff\n        /* \"#utility.yul\":9582:9591   */\n      not\n        /* \"#utility.yul\":9571:9580   */\n      dup4\n        /* \"#utility.yul\":9567:9592   */\n      and\n        /* \"#utility.yul\":9562:9565   */\n      dup7\n        /* \"#utility.yul\":9555:9593   */\n      mstore\n        /* \"#utility.yul\":9648:9654   */\n      dup2\n        /* \"#utility.yul\":9641:9655   */\n      iszero\n        /* \"#utility.yul\":9634:9656   */\n      iszero\n        /* \"#utility.yul\":9626:9632   */\n      dup3\n        /* \"#utility.yul\":9622:9657   */\n      mul\n        /* \"#utility.yul\":9617:9620   */\n      dup7\n        /* \"#utility.yul\":9613:9658   */\n      add\n        /* \"#utility.yul\":9606:9658   */\n      swap4\n      pop\n        /* \"#utility.yul\":9502:9668   */\n      jump(tag_233)\n        /* \"#utility.yul\":9677:10018   */\n    tag_235:\n        /* \"#utility.yul\":9744:9782   */\n      tag_236\n        /* \"#utility.yul\":9776:9781   */\n      dup6\n        /* \"#utility.yul\":9744:9782   */\n      tag_116\n      jump\t// in\n    tag_236:\n        /* \"#utility.yul\":9804:9805   */\n      0x00\n        /* \"#utility.yul\":9818:9972   */\n    tag_237:\n        /* \"#utility.yul\":9832:9838   */\n      dup4\n        /* \"#utility.yul\":9829:9830   */\n      dup2\n        /* \"#utility.yul\":9826:9839   */\n      lt\n        /* \"#utility.yul\":9818:9972   */\n      iszero\n      tag_239\n      jumpi\n        /* \"#utility.yul\":9906:9913   */\n      dup2\n        /* \"#utility.yul\":9900:9914   */\n      sload\n        /* \"#utility.yul\":9896:9897   */\n      dup2\n        /* \"#utility.yul\":9891:9894   */\n      dup10\n        /* \"#utility.yul\":9887:9898   */\n      add\n        /* \"#utility.yul\":9880:9915   */\n      mstore\n        /* \"#utility.yul\":9956:9957   */\n      0x01\n        /* \"#utility.yul\":9947:9954   */\n      dup3\n        /* \"#utility.yul\":9943:9958   */\n      add\n        /* \"#utility.yul\":9932:9958   */\n      swap2\n      pop\n        /* \"#utility.yul\":9854:9858   */\n      0x20\n        /* \"#utility.yul\":9851:9852   */\n      dup2\n        /* \"#utility.yul\":9847:9859   */\n      add\n        /* \"#utility.yul\":9842:9859   */\n      swap1\n      pop\n        /* \"#utility.yul\":9818:9972   */\n      jump(tag_237)\n    tag_239:\n        /* \"#utility.yul\":10001:10007   */\n      dup4\n        /* \"#utility.yul\":9996:9999   */\n      dup9\n        /* \"#utility.yul\":9992:10008   */\n      add\n        /* \"#utility.yul\":9985:10008   */\n      swap6\n      pop\n        /* \"#utility.yul\":9684:10018   */\n      pop\n      pop\n        /* \"#utility.yul\":9469:10018   */\n    tag_233:\n      pop\n        /* \"#utility.yul\":9257:10024   */\n      pop\n      pop\n        /* \"#utility.yul\":9150:10024   */\n      swap3\n      swap2\n      pop\n      pop\n      jump\t// out\n        /* \"#utility.yul\":10030:10299   */\n    tag_67:\n        /* \"#utility.yul\":10159:10162   */\n      0x00\n        /* \"#utility.yul\":10181:10273   */\n      tag_241\n        /* \"#utility.yul\":10269:10272   */\n      dup3\n        /* \"#utility.yul\":10260:10266   */\n      dup5\n        /* \"#utility.yul\":10181:10273   */\n      tag_117\n      jump\t// in\n    tag_241:\n        /* \"#utility.yul\":10174:10273   */\n      swap2\n      pop\n        /* \"#utility.yul\":10290:10293   */\n      dup2\n        /* \"#utility.yul\":10283:10293   */\n      swap1\n      pop\n        /* \"#utility.yul\":10030:10299   */\n      swap3\n      swap2\n      pop\n      pop\n      jump\t// out\n        /* \"#utility.yul\":10305:10467   */\n    tag_118:\n        /* \"#utility.yul\":10445:10459   */\n      0x444944206d69736d617463680000000000000000000000000000000000000000\n        /* \"#utility.yul\":10441:10442   */\n      0x00\n        /* \"#utility.yul\":10433:10439   */\n      dup3\n        /* \"#utility.yul\":10429:10443   */\n      add\n        /* \"#utility.yul\":10422:10460   */\n      mstore\n        /* \"#utility.yul\":10305:10467   */\n      pop\n      jump\t// out\n        /* \"#utility.yul\":10473:10839   */\n    tag_119:\n        /* \"#utility.yul\":10615:10618   */\n      0x00\n        /* \"#utility.yul\":10636:10703   */\n      tag_244\n        /* \"#utility.yul\":10700:10702   */\n      0x0c\n        /* \"#utility.yul\":10695:10698   */\n      dup4\n        /* \"#utility.yul\":10636:10703   */\n      tag_98\n      jump\t// in\n    tag_244:\n        /* \"#utility.yul\":10629:10703   */\n      swap2\n      pop\n        /* \"#utility.yul\":10712:10805   */\n      tag_245\n        /* \"#utility.yul\":10801:10804   */\n      dup3\n        /* \"#utility.yul\":10712:10805   */\n      tag_118\n      jump\t// in\n    tag_245:\n        /* \"#utility.yul\":10830:10832   */\n      0x20\n        /* \"#utility.yul\":10825:10828   */\n      dup3\n        /* \"#utility.yul\":10821:10833   */\n      add\n        /* \"#utility.yul\":10814:10833   */\n      swap1\n      pop\n        /* \"#utility.yul\":10473:10839   */\n      swap2\n      swap1\n      pop\n      jump\t// out\n        /* \"#utility.yul\":10845:11264   */\n    tag_70:\n        /* \"#utility.yul\":11011:11015   */\n      0x00\n        /* \"#utility.yul\":11049:11051   */\n      0x20\n        /* \"#utility.yul\":11038:11047   */\n      dup3\n        /* \"#utility.yul\":11034:11052   */\n      add\n        /* \"#utility.yul\":11026:11052   */\n      swap1\n      pop\n        /* \"#utility.yul\":11098:11107   */\n      dup2\n        /* \"#utility.yul\":11092:11096   */\n      dup2\n        /* \"#utility.yul\":11088:11108   */\n      sub\n        /* \"#utility.yul\":11084:11085   */\n      0x00\n        /* \"#utility.yul\":11073:11082   */\n      dup4\n        /* \"#utility.yul\":11069:11086   */\n      add\n        /* \"#utility.yul\":11062:11109   */\n      mstore\n        /* \"#utility.yul\":11126:11257   */\n      tag_247\n        /* \"#utility.yul\":11252:11256   */\n      dup2\n        /* \"#utility.yul\":11126:11257   */\n      tag_119\n      jump\t// in\n    tag_247:\n        /* \"#utility.yul\":11118:11257   */\n      swap1\n      pop\n        /* \"#utility.yul\":10845:11264   */\n      swap2\n      swap1\n      pop\n      jump\t// out\n        /* \"#utility.yul\":11270:11363   */\n    tag_120:\n        /* \"#utility.yul\":11307:11313   */\n      0x00\n        /* \"#utility.yul\":11354:11356   */\n      0x20\n        /* \"#utility.yul\":11349:11351   */\n      0x1f\n        /* \"#utility.yul\":11342:11347   */\n      dup4\n        /* \"#utility.yul\":11338:11352   */\n      add\n        /* \"#utility.yul\":11334:11357   */\n      div\n        /* \"#utility.yul\":11324:11357   */\n      swap1\n      pop\n        /* \"#utility.yul\":11270:11363   */\n      swap2\n      swap1\n      pop\n      jump\t// out\n        /* \"#utility.yul\":11369:11476   */\n    tag_121:\n        /* \"#utility.yul\":11413:11421   */\n      0x00\n        /* \"#utility.yul\":11463:11468   */\n      dup3\n        /* \"#utility.yul\":11457:11461   */\n      dup3\n        /* \"#utility.yul\":11453:11469   */\n      shl\n        /* \"#utility.yul\":11432:11469   */\n      swap1\n      pop\n        /* \"#utility.yul\":11369:11476   */\n      swap3\n      swap2\n      pop\n      pop\n      jump\t// out\n        /* \"#utility.yul\":11482:11875   */\n    tag_122:\n        /* \"#utility.yul\":11551:11557   */\n      0x00\n        /* \"#utility.yul\":11601:11602   */\n      0x08\n        /* \"#utility.yul\":11589:11599   */\n      dup4\n        /* \"#utility.yul\":11585:11603   */\n      mul\n        /* \"#utility.yul\":11624:11721   */\n      tag_251\n        /* \"#utility.yul\":11654:11720   */\n      0xffffffffffffffffffffffffffffffffffffffffffffffffffffffffffffffff\n        /* \"#utility.yul\":11643:11652   */\n      dup3\n        /* \"#utility.yul\":11624:11721   */\n      tag_121\n      jump\t// in\n    tag_251:\n        /* \"#utility.yul\":11742:11781   */\n      tag_252\n        /* \"#utility.yul\":11772:11780   */\n      dup7\n        /* \"#utility.yul\":11761:11770   */\n      dup4\n        /* \"#utility.yul\":11742:11781   */\n      tag_121\n      jump\t// in\n    tag_252:\n        /* \"#utility.yul\":11730:11781   */\n      swap6\n      pop\n        /* \"#utility.yul\":11814:11818   */\n      dup1\n        /* \"#utility.yul\":11810:11819   */\n      not\n        /* \"#utility.yul\":11803:11808   */\n      dup5\n        /* \"#utility.yul\":11799:11820   */\n      and\n        /* \"#utility.yul\":11790:11820   */\n      swap4\n      pop\n        /* \"#utility.yul\":11863:11867   */\n      dup1\n        /* \"#utility.yul\":11853:11861   */\n      dup7\n        /* \"#utility.yul\":11849:11868   */\n      and\n        /* \"#utility.yul\":11842:11847   */\n      dup5\n        /* \"#utility.yul\":11839:11869   */\n      or\n        /* \"#utility.yul\":11829:11869   */\n      swap3\n      pop\n        /* \"#utility.yul\":11558:11875   */\n      pop\n      pop\n        /* \"#utility.yul\":11482:11875   */\n      swap4\n      swap3\n      pop\n      pop\n      pop\n      jump\t// out\n        /* \"#utility.yul\":11881:11958   */\n    tag_123:\n        /* \"#utility.yul\":11918:11925   */\n      0x00\n        /* \"#utility.yul\":11947:11952   */\n      dup2\n        /* \"#utility.yul\":11936:11952   */\n      swap1\n      pop\n        /* \"#utility.yul\":11881:11958   */\n      swap2\n      swap1\n      pop\n      jump\t// out\n        /* \"#utility.yul\":11964:12024   */\n    tag_124:\n        /* \"#utility.yul\":11992:11995   */\n      0x00\n        /* \"#utility.yul\":12013:12018   */\n      dup2\n        /* \"#utility.yul\":12006:12018   */\n      swap1\n      pop\n        /* \"#utility.yul\":11964:12024   */\n      swap2\n      swap1\n      pop\n      jump\t// out\n        /* \"#utility.yul\":12030:12172   */\n    tag_125:\n        /* \"#utility.yul\":12080:12089   */\n      0x00\n        /* \"#utility.yul\":12113:12166   */\n      tag_256\n        /* \"#utility.yul\":12131:12165   */\n      tag_257\n        /* \"#utility.yul\":12140:12164   */\n      tag_258\n        /* \"#utility.yul\":12158:12163   */\n      dup5\n        /* \"#utility.yul\":12140:12164   */\n      tag_123\n      jump\t// in\n    tag_258:\n        /* \"#utility.yul\":12131:12165   */\n      tag_124\n      jump\t// in\n    tag_257:\n        /* \"#utility.yul\":12113:12166   */\n      tag_123\n      jump\t// in\n    tag_256:\n        /* \"#utility.yul\":12100:12166   */\n      swap1\n      pop\n        /* \"#utility.yul\":12030:12172   */\n      swap2\n      swap1\n      pop\n      jump\t// out\n        /* \"#utility.yul\":12178:12253   */\n    tag_126:\n        /* \"#utility.yul\":12221:12224   */\n      0x00\n        /* \"#utility.yul\":12242:12247   */\n      dup2\n        /* \"#utility.yul\":12235:12247   */\n      swap1\n      pop\n        /* \"#utility.yul\":12178:12253   */\n      swap2\n      swap1\n      pop\n      jump\t// out\n        /* \"#utility.yul\":12259:12528   */\n    tag_127:\n        /* \"#utility.yul\":12369:12408   */\n      tag_261\n        /* \"#utility.yul\":12400:12407   */\n      dup4\n        /* \"#utility.yul\":12369:12408   */\n      tag_125\n      jump\t// in\n    tag_261:\n        /* \"#utility.yul\":12430:12521   */\n      tag_262\n        /* \"#utility.yul\":12479:12520   */\n      tag_263\n        /* \"#utility.yul\":12503:12519   */\n      dup3\n        /* \"#utility.yul\":12479:12520   */\n      tag_126\n      jump\t// in\n    tag_263:\n        /* \"#utility.yul\":12471:12477   */\n      dup5\n        /* \"#utility.yul\":12464:12468   */\n      dup5\n        /* \"#utility.yul\":12458:12469   */\n      sload\n        /* \"#utility.yul\":12430:12521   */\n      tag_122\n      jump\t// in\n    tag_262:\n        /* \"#utility.yul\":12424:12428   */\n      dup3\n        /* \"#utility.yul\":12417:12522   */\n      sstore\n        /* \"#utility.yul\":12335:12528   */\n      pop\n        /* \"#utility.yul\":12259:12528   */\n      pop\n      pop\n      pop\n      jump\t// out\n        /* \"#utility.yul\":12534:12607   */\n    tag_128:\n        /* \"#utility.yul\":12579:12582   */\n      0x00\n        /* \"#utility.yul\":12534:12607   */\n      swap1\n      jump\t// out\n        /* \"#utility.yul\":12613:12802   */\n    tag_129:\n        /* \"#utility.yul\":12690:12722   */\n      tag_266\n      tag_128\n      jump\t// in\n    tag_266:\n        /* \"#utility.yul\":12731:12796   */\n      tag_267\n        /* \"#utility.yul\":12789:12795   */\n      dup2\n        /* \"#utility.yul\":12781:12787   */\n      dup5\n        /* \"#utility.yul\":12775:12779   */\n      dup5\n        /* \"#utility.yul\":12731:12796   */\n      tag_127\n      jump\t// in\n    tag_267:\n        /* \"#utility.yul\":12666:12802   */\n      pop\n        /* \"#utility.yul\":12613:12802   */\n      pop\n      pop\n      jump\t// out\n        /* \"#utility.yul\":12808:12994   */\n    tag_130:\n        /* \"#utility.yul\":12868:12988   */\n    tag_269:\n        /* \"#utility.yul\":12885:12888   */\n      dup2\n        /* \"#utility.yul\":12878:12883   */\n      dup2\n        /* \"#utility.yul\":12875:12889   */\n      lt\n        /* \"#utility.yul\":12868:12988   */\n      iszero\n      tag_271\n      jumpi\n        /* \"#utility.yul\":12939:12978   */\n      tag_272\n        /* \"#utility.yul\":12976:12977   */\n      0x00\n        /* \"#utility.yul\":12969:12974   */\n      dup3\n        /* \"#utility.yul\":12939:12978   */\n      tag_129\n      jump\t// in\n    tag_272:\n        /* \"#utility.yul\":12912:12913   */\n      0x01\n        /* \"#utility.yul\":12905:12910   */\n      dup2\n        /* \"#utility.yul\":12901:12914   */\n      add\n        /* \"#utility.yul\":12892:12914   */\n      swap1\n      pop\n        /* \"#utility.yul\":12868:12988   */\n      jump(tag_269)\n    tag_271:\n        /* \"#utility.yul\":12808:12994   */\n      pop\n      pop\n      jump\t// out\n        /* \"#utility.yul\":13000:13543   */\n    tag_131:\n        /* \"#utility.yul\":13101:13103   */\n      0x1f\n        /* \"#utility.yul\":13096:13099   */\n      dup3\n        /* \"#utility.yul\":13093:13104   */\n      gt\n        /* \"#utility.yul\":13090:13536   */\n      iszero\n      tag_274\n      jumpi\n        /* \"#utility.yul\":13135:13173   */\n      tag_275\n        /* \"#utility.yul\":13167:13172   */\n      dup2\n        /* \"#utility.yul\":13135:13173   */\n      tag_116\n      jump\t// in\n    tag_275:\n        /* \"#utility.yul\":13219:13248   */\n      tag_276\n        /* \"#utility.yul\":13237:13247   */\n      dup5\n        /* \"#utility.yul\":13219:13248   */\n      tag_120\n      jump\t// in\n    tag_276:\n        /* \"#utility.yul\":13209:13217   */\n      dup2\n        /* \"#utility.yul\":13205:13249   */\n      add\n        /* \"#utility.yul\":13402:13404   */\n      0x20\n        /* \"#utility.yul\":13390:13400   */\n      dup6\n        /* \"#utility.yul\":13387:13405   */\n      lt\n        /* \"#utility.yul\":13384:13433   */\n      iszero\n      tag_277\n      jumpi\n        /* \"#utility.yul\":13423:13431   */\n      dup2\n        /* \"#utility.yul\":13408:13431   */\n      swap1\n      pop\n        /* \"#utility.yul\":13384:13433   */\n    tag_277:\n        /* \"#utility.yul\":13446:13526   */\n      tag_278\n        /* \"#utility.yul\":13502:13524   */\n      tag_279\n        /* \"#utility.yul\":13520:13523   */\n      dup6\n        /* \"#utility.yul\":13502:13524   */\n      tag_120\n      jump\t// in\n    tag_279:\n        /* \"#utility.yul\":13492:13500   */\n      dup4\n        /* \"#utility.yul\":13488:13525   */\n      add\n        /* \"#utility.yul\":13475:13486   */\n      dup3\n        /* \"#utility.yul\":13446:13526   */\n      tag_130\n      jump\t// in\n    tag_278:\n        /* \"#utility.yul\":13105:13536   */\n      pop\n      pop\n        /* \"#utility.yul\":13090:13536   */\n    tag_274:\n        /* \"#utility.yul\":13000:13543   */\n      pop\n      pop\n      pop\n      jump\t// out\n        /* \"#utility.yul\":13549:13666   */\n    tag_132:\n        /* \"#utility.yul\":13603:13611   */\n      0x00\n        /* \"#utility.yul\":13653:13658   */\n      dup3\n        /* \"#utility.yul\":13647:13651   */\n      dup3\n        /* \"#utility.yul\":13643:13659   */\n      shr\n        /* \"#utility.yul\":13622:13659   */\n      swap1\n      pop\n        /* \"#utility.yul\":13549:13666   */\n      swap3\n      swap2\n      pop\n      pop\n      jump\t// out\n        /* \"#utility.yul\":13672:13841   */\n    tag_133:\n        /* \"#utility.yul\":13716:13722   */\n      0x00\n        /* \"#utility.yul\":13749:13800   */\n      tag_282\n        /* \"#utility.yul\":13797:13798   */\n      0x00\n        /* \"#utility.yul\":13793:13799   */\n      not\n        /* \"#utility.yul\":13785:13790   */\n      dup5\n        /* \"#utility.yul\":13782:13783   */\n      0x08\n        /* \"#utility.yul\":13778:13791   */\n      mul\n        /* \"#utility.yul\":13749:13800   */\n      tag_132\n      jump\t// in\n    tag_282:\n        /* \"#utility.yul\":13745:13801   */\n      not\n        /* \"#utility.yul\":13830:13834   */\n      dup1\n        /* \"#utility.yul\":13824:13828   */\n      dup4\n        /* \"#utility.yul\":13820:13835   */\n      and\n        /* \"#utility.yul\":13810:13835   */\n      swap2\n      pop\n        /* \"#utility.yul\":13723:13841   */\n      pop\n        /* \"#utility.yul\":13672:13841   */\n      swap3\n      swap2\n      pop\n      pop\n      jump\t// out\n        /* \"#utility.yul\":13846:14141   */\n    tag_134:\n        /* \"#utility.yul\":13922:13926   */\n      0x00\n        /* \"#utility.yul\":14068:14097   */\n      tag_284\n        /* \"#utility.yul\":14093:14096   */\n      dup4\n        /* \"#utility.yul\":14087:14091   */\n      dup4\n        /* \"#utility.yul\":14068:14097   */\n      tag_133\n      jump\t// in\n    tag_284:\n        /* \"#utility.yul\":14060:14097   */\n      swap2\n      pop\n        /* \"#utility.yul\":14130:14133   */\n      dup3\n        /* \"#utility.yul\":14127:14128   */\n      0x02\n        /* \"#utility.yul\":14123:14134   */\n      mul\n        /* \"#utility.yul\":14117:14121   */\n      dup3\n        /* \"#utility.yul\":14114:14135   */\n      or\n        /* \"#utility.yul\":14106:14135   */\n      swap1\n      pop\n        /* \"#utility.yul\":13846:14141   */\n      swap3\n      swap2\n      pop\n      pop\n      jump\t// out\n        /* \"#utility.yul\":14146:15541   */\n    tag_72:\n        /* \"#utility.yul\":14263:14300   */\n      tag_286\n        /* \"#utility.yul\":14296:14299   */\n      dup3\n        /* \"#utility.yul\":14263:14300   */\n      tag_97\n      jump\t// in\n    tag_286:\n        /* \"#utility.yul\":14365:14383   */\n      0xffffffffffffffff\n        /* \"#utility.yul\":14357:14363   */\n      dup2\n        /* \"#utility.yul\":14354:14384   */\n      gt\n        /* \"#utility.yul\":14351:14407   */\n      iszero\n      tag_287\n      jumpi\n        /* \"#utility.yul\":14387:14405   */\n      tag_288\n      tag_104\n      jump\t// in\n    tag_288:\n        /* \"#utility.yul\":14351:14407   */\n    tag_287:\n        /* \"#utility.yul\":14431:14469   */\n      tag_289\n        /* \"#utility.yul\":14463:14467   */\n      dup3\n        /* \"#utility.yul\":14457:14468   */\n      sload\n        /* \"#utility.yul\":14431:14469   */\n      tag_27\n      jump\t// in\n    tag_289:\n        /* \"#utility.yul\":14516:14583   */\n      tag_290\n        /* \"#utility.yul\":14576:14582   */\n      dup3\n        /* \"#utility.yul\":14568:14574   */\n      dup3\n        /* \"#utility.yul\":14562:14566   */\n      dup6\n        /* \"#utility.yul\":14516:14583   */\n      tag_131\n      jump\t// in\n    tag_290:\n        /* \"#utility.yul\":14610:14611   */\n      0x00\n        /* \"#utility.yul\":14634:14638   */\n      0x20\n        /* \"#utility.yul\":14621:14638   */\n      swap1\n      pop\n        /* \"#utility.yul\":14666:14668   */\n      0x1f\n        /* \"#utility.yul\":14658:14664   */\n      dup4\n        /* \"#utility.yul\":14655:14669   */\n      gt\n        /* \"#utility.yul\":14683:14684   */\n      0x01\n        /* \"#utility.yul\":14678:15296   */\n      dup2\n      eq\n      tag_292\n      jumpi\n        /* \"#utility.yul\":15340:15341   */\n      0x00\n        /* \"#utility.yul\":15357:15363   */\n      dup5\n        /* \"#utility.yul\":15354:15431   */\n      iszero\n      tag_293\n      jumpi\n        /* \"#utility.yul\":15406:15415   */\n      dup3\n        /* \"#utility.yul\":15401:15404   */\n      dup8\n        /* \"#utility.yul\":15397:15416   */\n      add\n        /* \"#utility.yul\":15391:15417   */\n      mload\n        /* \"#utility.yul\":15382:15417   */\n      swap1\n      pop\n        /* \"#utility.yul\":15354:15431   */\n    tag_293:\n        /* \"#utility.yul\":15457:15524   */\n      tag_294\n        /* \"#utility.yul\":15517:15523   */\n      dup6\n        /* \"#utility.yul\":15510:15515   */\n      dup3\n        /* \"#utility.yul\":15457:15524   */\n      tag_134\n      jump\t// in\n    tag_294:\n        /* \"#utility.yul\":15451:15455   */\n      dup7\n        /* \"#utility.yul\":15444:15525   */\n      sstore\n        /* \"#utility.yul\":15313:15535   */\n      pop\n        /* \"#utility.yul\":14648:15535   */\n      jump(tag_291)\n        /* \"#utility.yul\":14678:15296   */\n    tag_292:\n        /* \"#utility.yul\":14730:14734   */\n      0x1f\n        /* \"#utility.yul\":14726:14735   */\n      not\n        /* \"#utility.yul\":14718:14724   */\n      dup5\n        /* \"#utility.yul\":14714:14736   */\n      and\n        /* \"#utility.yul\":14764:14801   */\n      tag_295\n        /* \"#utility.yul\":14796:14800   */\n      dup7\n        /* \"#utility.yul\":14764:14801   */\n      tag_116\n      jump\t// in\n    tag_295:\n        /* \"#utility.yul\":14823:14824   */\n      0x00\n        /* \"#utility.yul\":14837:15045   */\n    tag_296:\n        /* \"#utility.yul\":14851:14858   */\n      dup3\n        /* \"#utility.yul\":14848:14849   */\n      dup2\n        /* \"#utility.yul\":14845:14859   */\n      lt\n        /* \"#utility.yul\":14837:15045   */\n      iszero\n      tag_298\n      jumpi\n        /* \"#utility.yul\":14930:14939   */\n      dup5\n        /* \"#utility.yul\":14925:14928   */\n      dup10\n        /* \"#utility.yul\":14921:14940   */\n      add\n        /* \"#utility.yul\":14915:14941   */\n      mload\n        /* \"#utility.yul\":14907:14913   */\n      dup3\n        /* \"#utility.yul\":14900:14942   */\n      sstore\n        /* \"#utility.yul\":14981:14982   */\n      0x01\n        /* \"#utility.yul\":14973:14979   */\n      dup3\n        /* \"#utility.yul\":14969:14983   */\n      add\n        /* \"#utility.yul\":14959:14983   */\n      swap2\n      pop\n        /* \"#utility.yul\":15028:15030   */\n      0x20\n        /* \"#utility.yul\":15017:15026   */\n      dup6\n        /* \"#utility.yul\":15013:15031   */\n      add\n        /* \"#utility.yul\":15000:15031   */\n      swap5\n      pop\n        /* \"#utility.yul\":14874:14878   */\n      0x20\n        /* \"#utility.yul\":14871:14872   */\n      dup2\n        /* \"#utility.yul\":14867:14879   */\n      add\n        /* \"#utility.yul\":14862:14879   */\n      swap1\n      pop\n        /* \"#utility.yul\":14837:15045   */\n      jump(tag_296)\n    tag_298:\n        /* \"#utility.yul\":15073:15079   */\n      dup7\n        /* \"#utility.yul\":15064:15071   */\n      dup4\n        /* \"#utility.yul\":15061:15080   */\n      lt\n        /* \"#utility.yul\":15058:15237   */\n      iszero\n      tag_299\n      jumpi\n        /* \"#utility.yul\":15131:15140   */\n      dup5\n        /* \"#utility.yul\":15126:15129   */\n      dup10\n        /* \"#utility.yul\":15122:15141   */\n      add\n        /* \"#utility.yul\":15116:15142   */\n      mload\n        /* \"#utility.yul\":15174:15222   */\n      tag_300\n        /* \"#utility.yul\":15216:15220   */\n      0x1f\n        /* \"#utility.yul\":15208:15214   */\n      dup10\n        /* \"#utility.yul\":15204:15221   */\n      and\n        /* \"#utility.yul\":15193:15202   */\n      dup3\n        /* \"#utility.yul\":15174:15222   */\n      tag_133\n      jump\t// in\n    tag_300:\n        /* \"#utility.yul\":15166:15172   */\n      dup4\n        /* \"#utility.yul\":15159:15223   */\n      sstore\n        /* \"#utility.yul\":15081:15237   */\n      pop\n        /* \"#utility.yul\":15058:15237   */\n    tag_299:\n        /* \"#utility.yul\":15283:15284   */\n      0x01\n        /* \"#utility.yul\":15279:15280   */\n      0x02\n        /* \"#utility.yul\":15271:15277   */\n      dup9\n        /* \"#utility.yul\":15267:15281   */\n      mul\n        /* \"#utility.yul\":15263:15285   */\n      add\n        /* \"#utility.yul\":15257:15261   */\n      dup9\n        /* \"#utility.yul\":15250:15286   */\n      sstore\n        /* \"#utility.yul\":14685:15296   */\n      pop\n      pop\n      pop\n        /* \"#utility.yul\":14648:15535   */\n    tag_291:\n      pop\n        /* \"#utility.yul\":14238:15541   */\n      pop\n      pop\n      pop\n        /* \"#utility.yul\":14146:15541   */\n      pop\n      pop\n      jump\t// out\n        /* \"#utility.yul\":15547:15860   */\n    tag_75:\n        /* \"#utility.yul\":15660:15664   */\n      0x00\n        /* \"#utility.yul\":15698:15700   */\n      0x20\n        /* \"#utility.yul\":15687:15696   */\n      dup3\n        /* \"#utility.yul\":15683:15701   */\n      add\n        /* \"#utility.yul\":15675:15701   */\n      swap1\n      pop\n        /* \"#utility.yul\":15747:15756   */\n      dup2\n        /* \"#utility.yul\":15741:15745   */\n      dup2\n        /* \"#utility.yul\":15737:15757   */\n      sub\n        /* \"#utility.yul\":15733:15734   */\n      0x00\n        /* \"#utility.yul\":15722:15731   */\n      dup4\n        /* \"#utility.yul\":15718:15735   */\n      add\n        /* \"#utility.yul\":15711:15758   */\n      mstore\n        /* \"#utility.yul\":15775:15853   */\n      tag_302\n        /* \"#utility.yul\":15848:15852   */\n      dup2\n        /* \"#utility.yul\":15839:15845   */\n      dup5\n        /* \"#utility.yul\":15775:15853   */\n      tag_101\n      jump\t// in\n    tag_302:\n        /* \"#utility.yul\":15767:15853   */\n      swap1\n      pop\n        /* \"#utility.yul\":15547:15860   */\n      swap3\n      swap2\n      pop\n      pop\n      jump\t// out\n        /* \"#utility.yul\":15866:16093   */\n    tag_135:\n        /* \"#utility.yul\":16006:16040   */\n      0x4964656e7469747920616c72656164792065786973747320666f722074686973\n        /* \"#utility.yul\":16002:16003   */\n      0x00\n        /* \"#utility.yul\":15994:16000   */\n      dup3\n        /* \"#utility.yul\":15990:16004   */\n      add\n        /* \"#utility.yul\":15983:16041   */\n      mstore\n        /* \"#utility.yul\":16075:16085   */\n      0x2061646472657373000000000000000000000000000000000000000000000000\n        /* \"#utility.yul\":16070:16072   */\n      0x20\n        /* \"#utility.yul\":16062:16068   */\n      dup3\n        /* \"#utility.yul\":16058:16073   */\n      add\n        /* \"#utility.yul\":16051:16086   */\n      mstore\n        /* \"#utility.yul\":15866:16093   */\n      pop\n      jump\t// out\n        /* \"#utility.yul\":16099:16465   */\n    tag_136:\n        /* \"#utility.yul\":16241:16244   */\n      0x00\n        /* \"#utility.yul\":16262:16329   */\n      tag_305\n        /* \"#utility.yul\":16326:16328   */\n      0x28\n        /* \"#utility.yul\":16321:16324   */\n      dup4\n        /* \"#utility.yul\":16262:16329   */\n      tag_98\n      jump\t// in\n    tag_305:\n        /* \"#utility.yul\":16255:16329   */\n      swap2\n      pop\n        /* \"#utility.yul\":16338:16431   */\n      tag_306\n        /* \"#utility.yul\":16427:16430   */\n      dup3\n        /* \"#utility.yul\":16338:16431   */\n      tag_135\n      jump\t// in\n    tag_306:\n        /* \"#utility.yul\":16456:16458   */\n      0x40\n        /* \"#utility.yul\":16451:16454   */\n      dup3\n        /* \"#utility.yul\":16447:16459   */\n      add\n        /* \"#utility.yul\":16440:16459   */\n      swap1\n      pop\n        /* \"#utility.yul\":16099:16465   */\n      swap2\n      swap1\n      pop\n      jump\t// out\n        /* \"#utility.yul\":16471:16890   */\n    tag_80:\n        /* \"#utility.yul\":16637:16641   */\n      0x00\n        /* \"#utility.yul\":16675:16677   */\n      0x20\n        /* \"#utility.yul\":16664:16673   */\n      dup3\n        /* \"#utility.yul\":16660:16678   */\n      add\n        /* \"#utility.yul\":16652:16678   */\n      swap1\n      pop\n        /* \"#utility.yul\":16724:16733   */\n      dup2\n        /* \"#utility.yul\":16718:16722   */\n      dup2\n        /* \"#utility.yul\":16714:16734   */\n      sub\n        /* \"#utility.yul\":16710:16711   */\n      0x00\n        /* \"#utility.yul\":16699:16708   */\n      dup4\n        /* \"#utility.yul\":16695:16712   */\n      add\n        /* \"#utility.yul\":16688:16735   */\n      mstore\n        /* \"#utility.yul\":16752:16883   */\n      tag_308\n        /* \"#utility.yul\":16878:16882   */\n      dup2\n        /* \"#utility.yul\":16752:16883   */\n      tag_136\n      jump\t// in\n    tag_308:\n        /* \"#utility.yul\":16744:16883   */\n      swap1\n      pop\n        /* \"#utility.yul\":16471:16890   */\n      swap2\n      swap1\n      pop\n      jump\t// out\n        /* \"#utility.yul\":16896:17068   */\n    tag_137:\n        /* \"#utility.yul\":17036:17060   */\n      0x44494420616c7265616479207265676973746572656400000000000000000000\n        /* \"#utility.yul\":17032:17033   */\n      0x00\n        /* \"#utility.yul\":17024:17030   */\n      dup3\n        /* \"#utility.yul\":17020:17034   */\n      add\n        /* \"#utility.yul\":17013:17061   */\n      mstore\n        /* \"#utility.yul\":16896:17068   */\n      pop\n      jump\t// out\n        /* \"#utility.yul\":17074:17440   */\n    tag_138:\n        /* \"#utility.yul\":17216:17219   */\n      0x00\n        /* \"#utility.yul\":17237:17304   */\n      tag_311\n        /* \"#utility.yul\":17301:17303   */\n      0x16\n        /* \"#utility.yul\":17296:17299   */\n      dup4\n        /* \"#utility.yul\":17237:17304   */\n      tag_98\n      jump\t// in\n    tag_311:\n        /* \"#utility.yul\":17230:17304   */\n      swap2\n      pop\n        /* \"#utility.yul\":17313:17406   */\n      tag_312\n        /* \"#utility.yul\":17402:17405   */\n      dup3\n        /* \"#utility.yul\":17313:17406   */\n      tag_137\n      jump\t// in\n    tag_312:\n        /* \"#utility.yul\":17431:17433   */\n      0x20\n        /* \"#utility.yul\":17426:17429   */\n      dup3\n        /* \"#utility.yul\":17422:17434   */\n      add\n        /* \"#utility.yul\":17415:17434   */\n      swap1\n      pop\n        /* \"#utility.yul\":17074:17440   */\n      swap2\n      swap1\n      pop\n      jump\t// out\n        /* \"#utility.yul\":17446:17865   */\n    tag_84:\n        /* \"#utility.yul\":17612:17616   */\n      0x00\n        /* \"#utility.yul\":17650:17652   */\n      0x20\n        /* \"#utility.yul\":17639:17648   */\n      dup3\n        /* \"#utility.yul\":17635:17653   */\n      add\n        /* \"#utility.yul\":17627:17653   */\n      swap1\n      pop\n        /* \"#utility.yul\":17699:17708   */\n      dup2\n        /* \"#utility.yul\":17693:17697   */\n      dup2\n        /* \"#utility.yul\":17689:17709   */\n      sub\n        /* \"#utility.yul\":17685:17686   */\n      0x00\n        /* \"#utility.yul\":17674:17683   */\n      dup4\n        /* \"#utility.yul\":17670:17687   */\n      add\n        /* \"#utility.yul\":17663:17710   */\n      mstore\n        /* \"#utility.yul\":17727:17858   */\n      tag_314\n        /* \"#utility.yul\":17853:17857   */\n      dup2\n        /* \"#utility.yul\":17727:17858   */\n      tag_138\n      jump\t// in\n    tag_314:\n        /* \"#utility.yul\":17719:17858   */\n      swap1\n      pop\n        /* \"#utility.yul\":17446:17865   */\n      swap2\n      swap1\n      pop\n      jump\t// out\n\n    auxdata: 0xa264697066735822122093536a24653d8ed9ced45fea3beffd6d12bc63f48e5894b2196a16ed0f84855364736f6c634300081a0033\n}\n",
				"bytecode": {
					"linkReferences": {},
					"object": "6080604052348015600e575f80fd5b506113858061001c5f395ff3fe608060405234801561000f575f80fd5b506004361061004a575f3560e01c80632fea7b811461004e5780638414dc3d146100805780639318ca66146100b2578063bdc95b32146100ce575b5f80fd5b61006860048036038101906100639190610a8f565b6100ea565b60405161007793929190610b2a565b60405180910390f35b61009a60048036038101906100959190610ca0565b610304565b6040516100a993929190610b2a565b60405180910390f35b6100cc60048036038101906100c79190610ce7565b610560565b005b6100e860048036038101906100e39190610ce7565b6107a4565b005b60608060605f805f8673ffffffffffffffffffffffffffffffffffffffff1673ffffffffffffffffffffffffffffffffffffffff1681526020019081526020015f206040518060600160405290815f8201805461014690610db8565b80601f016020809104026020016040519081016040528092919081815260200182805461017290610db8565b80156101bd5780601f10610194576101008083540402835291602001916101bd565b820191905f5260205f20905b8154815290600101906020018083116101a057829003601f168201915b505050505081526020016001820180546101d690610db8565b80601f016020809104026020016040519081016040528092919081815260200182805461020290610db8565b801561024d5780601f106102245761010080835404028352916020019161024d565b820191905f5260205f20905b81548152906001019060200180831161023057829003601f168201915b5050505050815260200160028201805461026690610db8565b80601f016020809104026020016040519081016040528092919081815260200182805461029290610db8565b80156102dd5780601f106102b4576101008083540402835291602001916102dd565b820191905f5260205f20905b8154815290600101906020018083116102c057829003601f168201915b5050505050815250509050805f015181602001518260400151935093509350509193909250565b60608060605f60018560405161031a9190610e22565b90815260200160405180910390205f9054906101000a900473ffffffffffffffffffffffffffffffffffffffff1690505f805f8373ffffffffffffffffffffffffffffffffffffffff1673ffffffffffffffffffffffffffffffffffffffff1681526020019081526020015f206040518060600160405290815f820180546103a190610db8565b80601f01602080910402602001604051908101604052809291908181526020018280546103cd90610db8565b80156104185780601f106103ef57610100808354040283529160200191610418565b820191905f5260205f20905b8154815290600101906020018083116103fb57829003601f168201915b5050505050815260200160018201805461043190610db8565b80601f016020809104026020016040519081016040528092919081815260200182805461045d90610db8565b80156104a85780601f1061047f576101008083540402835291602001916104a8565b820191905f5260205f20905b81548152906001019060200180831161048b57829003601f168201915b505050505081526020016002820180546104c190610db8565b80601f01602080910402602001604051908101604052809291908181526020018280546104ed90610db8565b80156105385780601f1061050f57610100808354040283529160200191610538565b820191905f5260205f20905b81548152906001019060200180831161051b57829003601f168201915b5050505050815250509050805f01518160200151826040015194509450945050509193909250565b5f805f3373ffffffffffffffffffffffffffffffffffffffff1673ffffffffffffffffffffffffffffffffffffffff1681526020019081526020015f205f0180546105aa90610db8565b9050036105ec576040517f08c379a00000000000000000000000000000000000000000000000000000000081526004016105e390610ea8565b60405180910390fd5b826040516020016105fd9190610e22565b604051602081830303815290604052805190602001205f803373ffffffffffffffffffffffffffffffffffffffff1673ffffffffffffffffffffffffffffffffffffffff1681526020019081526020015f205f016040516020016106619190610f58565b60405160208183030381529060405280519060200120146106b7576040517f08c379a00000000000000000000000000000000000000000000000000000000081526004016106ae90610fb8565b60405180910390fd5b815f803373ffffffffffffffffffffffffffffffffffffffff1673ffffffffffffffffffffffffffffffffffffffff1681526020019081526020015f206001019081610703919061116a565b50805f803373ffffffffffffffffffffffffffffffffffffffff1673ffffffffffffffffffffffffffffffffffffffff1681526020019081526020015f206002019081610750919061116a565b503373ffffffffffffffffffffffffffffffffffffffff167f8b59ec232bae8e23fe031d1cacdaae5d1c57fb36ad6ca568850b6efbfb0d76b0846040516107979190611239565b60405180910390a2505050565b5f805f3373ffffffffffffffffffffffffffffffffffffffff1673ffffffffffffffffffffffffffffffffffffffff1681526020019081526020015f205f0180546107ee90610db8565b905014610830576040517f08c379a0000000000000000000000000000000000000000000000000000000008152600401610827906112c9565b60405180910390fd5b5f73ffffffffffffffffffffffffffffffffffffffff166001846040516108579190610e22565b90815260200160405180910390205f9054906101000a900473ffffffffffffffffffffffffffffffffffffffff1673ffffffffffffffffffffffffffffffffffffffff16146108db576040517f08c379a00000000000000000000000000000000000000000000000000000000081526004016108d290611331565b60405180910390fd5b6040518060600160405280848152602001838152602001828152505f803373ffffffffffffffffffffffffffffffffffffffff1673ffffffffffffffffffffffffffffffffffffffff1681526020019081526020015f205f820151815f019081610945919061116a565b50602082015181600101908161095b919061116a565b506040820151816002019081610971919061116a565b50905050336001846040516109869190610e22565b90815260200160405180910390205f6101000a81548173ffffffffffffffffffffffffffffffffffffffff021916908373ffffffffffffffffffffffffffffffffffffffff1602179055503373ffffffffffffffffffffffffffffffffffffffff167f9b6805eb7a1bee8a797c79c5f2a39a182f3d37f8b8cce5ec42371000c8115dfd84604051610a179190611239565b60405180910390a2505050565b5f604051905090565b5f80fd5b5f80fd5b5f73ffffffffffffffffffffffffffffffffffffffff82169050919050565b5f610a5e82610a35565b9050919050565b610a6e81610a54565b8114610a78575f80fd5b50565b5f81359050610a8981610a65565b92915050565b5f60208284031215610aa457610aa3610a2d565b5b5f610ab184828501610a7b565b91505092915050565b5f81519050919050565b5f82825260208201905092915050565b8281835e5f83830152505050565b5f601f19601f8301169050919050565b5f610afc82610aba565b610b068185610ac4565b9350610b16818560208601610ad4565b610b1f81610ae2565b840191505092915050565b5f6060820190508181035f830152610b428186610af2565b90508181036020830152610b568185610af2565b90508181036040830152610b6a8184610af2565b9050949350505050565b5f80fd5b5f80fd5b7f4e487b71000000000000000000000000000000000000000000000000000000005f52604160045260245ffd5b610bb282610ae2565b810181811067ffffffffffffffff82111715610bd157610bd0610b7c565b5b80604052505050565b5f610be3610a24565b9050610bef8282610ba9565b919050565b5f67ffffffffffffffff821115610c0e57610c0d610b7c565b5b610c1782610ae2565b9050602081019050919050565b828183375f83830152505050565b5f610c44610c3f84610bf4565b610bda565b905082815260208101848484011115610c6057610c5f610b78565b5b610c6b848285610c24565b509392505050565b5f82601f830112610c8757610c86610b74565b5b8135610c97848260208601610c32565b91505092915050565b5f60208284031215610cb557610cb4610a2d565b5b5f82013567ffffffffffffffff811115610cd257610cd1610a31565b5b610cde84828501610c73565b91505092915050565b5f805f60608486031215610cfe57610cfd610a2d565b5b5f84013567ffffffffffffffff811115610d1b57610d1a610a31565b5b610d2786828701610c73565b935050602084013567ffffffffffffffff811115610d4857610d47610a31565b5b610d5486828701610c73565b925050604084013567ffffffffffffffff811115610d7557610d74610a31565b5b610d8186828701610c73565b9150509250925092565b7f4e487b71000000000000000000000000000000000000000000000000000000005f52602260045260245ffd5b5f6002820490506001821680610dcf57607f821691505b602082108103610de257610de1610d8b565b5b50919050565b5f81905092915050565b5f610dfc82610aba565b610e068185610de8565b9350610e16818560208601610ad4565b80840191505092915050565b5f610e2d8284610df2565b915081905092915050565b7f4964656e7469747920646f6573206e6f7420657869737420666f7220746869735f8201527f2061646472657373000000000000000000000000000000000000000000000000602082015250565b5f610e92602883610ac4565b9150610e9d82610e38565b604082019050919050565b5f6020820190508181035f830152610ebf81610e86565b9050919050565b5f819050815f5260205f209050919050565b5f8154610ee481610db8565b610eee8186610de8565b9450600182165f8114610f085760018114610f1d57610f4f565b60ff1983168652811515820286019350610f4f565b610f2685610ec6565b5f5b83811015610f4757815481890152600182019150602081019050610f28565b838801955050505b50505092915050565b5f610f638284610ed8565b915081905092915050565b7f444944206d69736d6174636800000000000000000000000000000000000000005f82015250565b5f610fa2600c83610ac4565b9150610fad82610f6e565b602082019050919050565b5f6020820190508181035f830152610fcf81610f96565b9050919050565b5f6020601f8301049050919050565b5f82821b905092915050565b5f600883026110207fffffffffffffffffffffffffffffffffffffffffffffffffffffffffffffffff82610fe5565b61102a8683610fe5565b95508019841693508086168417925050509392505050565b5f819050919050565b5f819050919050565b5f61106e61106961106484611042565b61104b565b611042565b9050919050565b5f819050919050565b61108783611054565b61109b61109382611075565b848454610ff1565b825550505050565b5f90565b6110af6110a3565b6110ba81848461107e565b505050565b5b818110156110dd576110d25f826110a7565b6001810190506110c0565b5050565b601f821115611122576110f381610ec6565b6110fc84610fd6565b8101602085101561110b578190505b61111f61111785610fd6565b8301826110bf565b50505b505050565b5f82821c905092915050565b5f6111425f1984600802611127565b1980831691505092915050565b5f61115a8383611133565b9150826002028217905092915050565b61117382610aba565b67ffffffffffffffff81111561118c5761118b610b7c565b5b6111968254610db8565b6111a18282856110e1565b5f60209050601f8311600181146111d2575f84156111c0578287015190505b6111ca858261114f565b865550611231565b601f1984166111e086610ec6565b5f5b82811015611207578489015182556001820191506020850194506020810190506111e2565b868310156112245784890151611220601f891682611133565b8355505b6001600288020188555050505b505050505050565b5f6020820190508181035f8301526112518184610af2565b905092915050565b7f4964656e7469747920616c72656164792065786973747320666f7220746869735f8201527f2061646472657373000000000000000000000000000000000000000000000000602082015250565b5f6112b3602883610ac4565b91506112be82611259565b604082019050919050565b5f6020820190508181035f8301526112e0816112a7565b9050919050565b7f44494420616c72656164792072656769737465726564000000000000000000005f82015250565b5f61131b601683610ac4565b9150611326826112e7565b602082019050919050565b5f6020820190508181035f8301526113488161130f565b905091905056fea264697066735822122093536a24653d8ed9ced45fea3beffd6d12bc63f48e5894b2196a16ed0f84855364736f6c634300081a0033",
					"opcodes": "PUSH1 0x80 PUSH1 0x40 MSTORE CALLVALUE DUP1 ISZERO PUSH1 0xE JUMPI PUSH0 DUP1 REVERT JUMPDEST POP PUSH2 0x1385 DUP1 PUSH2 0x1C PUSH0 CODECOPY PUSH0 RETURN INVALID PUSH1 0x80 PUSH1 0x40 MSTORE CALLVALUE DUP1 ISZERO PUSH2 0xF JUMPI PUSH0 DUP1 REVERT JUMPDEST POP PUSH1 0x4 CALLDATASIZE LT PUSH2 0x4A JUMPI PUSH0 CALLDATALOAD PUSH1 0xE0 SHR DUP1 PUSH4 0x2FEA7B81 EQ PUSH2 0x4E JUMPI DUP1 PUSH4 0x8414DC3D EQ PUSH2 0x80 JUMPI DUP1 PUSH4 0x9318CA66 EQ PUSH2 0xB2 JUMPI DUP1 PUSH4 0xBDC95B32 EQ PUSH2 0xCE JUMPI JUMPDEST PUSH0 DUP1 REVERT JUMPDEST PUSH2 0x68 PUSH1 0x4 DUP1 CALLDATASIZE SUB DUP2 ADD SWAP1 PUSH2 0x63 SWAP2 SWAP1 PUSH2 0xA8F JUMP JUMPDEST PUSH2 0xEA JUMP JUMPDEST PUSH1 0x40 MLOAD PUSH2 0x77 SWAP4 SWAP3 SWAP2 SWAP1 PUSH2 0xB2A JUMP JUMPDEST PUSH1 0x40 MLOAD DUP1 SWAP2 SUB SWAP1 RETURN JUMPDEST PUSH2 0x9A PUSH1 0x4 DUP1 CALLDATASIZE SUB DUP2 ADD SWAP1 PUSH2 0x95 SWAP2 SWAP1 PUSH2 0xCA0 JUMP JUMPDEST PUSH2 0x304 JUMP JUMPDEST PUSH1 0x40 MLOAD PUSH2 0xA9 SWAP4 SWAP3 SWAP2 SWAP1 PUSH2 0xB2A JUMP JUMPDEST PUSH1 0x40 MLOAD DUP1 SWAP2 SUB SWAP1 RETURN JUMPDEST PUSH2 0xCC PUSH1 0x4 DUP1 CALLDATASIZE SUB DUP2 ADD SWAP1 PUSH2 0xC7 SWAP2 SWAP1 PUSH2 0xCE7 JUMP JUMPDEST PUSH2 0x560 JUMP JUMPDEST STOP JUMPDEST PUSH2 0xE8 PUSH1 0x4 DUP1 CALLDATASIZE SUB DUP2 ADD SWAP1 PUSH2 0xE3 SWAP2 SWAP1 PUSH2 0xCE7 JUMP JUMPDEST PUSH2 0x7A4 JUMP JUMPDEST STOP JUMPDEST PUSH1 0x60 DUP1 PUSH1 0x60 PUSH0 DUP1 PUSH0 DUP7 PUSH20 0xFFFFFFFFFFFFFFFFFFFFFFFFFFFFFFFFFFFFFFFF AND PUSH20 0xFFFFFFFFFFFFFFFFFFFFFFFFFFFFFFFFFFFFFFFF AND DUP2 MSTORE PUSH1 0x20 ADD SWAP1 DUP2 MSTORE PUSH1 0x20 ADD PUSH0 KECCAK256 PUSH1 0x40 MLOAD DUP1 PUSH1 0x60 ADD PUSH1 0x40 MSTORE SWAP1 DUP2 PUSH0 DUP3 ADD DUP1 SLOAD PUSH2 0x146 SWAP1 PUSH2 0xDB8 JUMP JUMPDEST DUP1 PUSH1 0x1F ADD PUSH1 0x20 DUP1 SWAP2 DIV MUL PUSH1 0x20 ADD PUSH1 0x40 MLOAD SWAP1 DUP2 ADD PUSH1 0x40 MSTORE DUP1 SWAP3 SWAP2 SWAP1 DUP2 DUP2 MSTORE PUSH1 0x20 ADD DUP3 DUP1 SLOAD PUSH2 0x172 SWAP1 PUSH2 0xDB8 JUMP JUMPDEST DUP1 ISZERO PUSH2 0x1BD JUMPI DUP1 PUSH1 0x1F LT PUSH2 0x194 JUMPI PUSH2 0x100 DUP1 DUP4 SLOAD DIV MUL DUP4 MSTORE SWAP2 PUSH1 0x20 ADD SWAP2 PUSH2 0x1BD JUMP JUMPDEST DUP3 ADD SWAP2 SWAP1 PUSH0 MSTORE PUSH1 0x20 PUSH0 KECCAK256 SWAP1 JUMPDEST DUP2 SLOAD DUP2 MSTORE SWAP1 PUSH1 0x1 ADD SWAP1 PUSH1 0x20 ADD DUP1 DUP4 GT PUSH2 0x1A0 JUMPI DUP3 SWAP1 SUB PUSH1 0x1F AND DUP3 ADD SWAP2 JUMPDEST POP POP POP POP POP DUP2 MSTORE PUSH1 0x20 ADD PUSH1 0x1 DUP3 ADD DUP1 SLOAD PUSH2 0x1D6 SWAP1 PUSH2 0xDB8 JUMP JUMPDEST DUP1 PUSH1 0x1F ADD PUSH1 0x20 DUP1 SWAP2 DIV MUL PUSH1 0x20 ADD PUSH1 0x40 MLOAD SWAP1 DUP2 ADD PUSH1 0x40 MSTORE DUP1 SWAP3 SWAP2 SWAP1 DUP2 DUP2 MSTORE PUSH1 0x20 ADD DUP3 DUP1 SLOAD PUSH2 0x202 SWAP1 PUSH2 0xDB8 JUMP JUMPDEST DUP1 ISZERO PUSH2 0x24D JUMPI DUP1 PUSH1 0x1F LT PUSH2 0x224 JUMPI PUSH2 0x100 DUP1 DUP4 SLOAD DIV MUL DUP4 MSTORE SWAP2 PUSH1 0x20 ADD SWAP2 PUSH2 0x24D JUMP JUMPDEST DUP3 ADD SWAP2 SWAP1 PUSH0 MSTORE PUSH1 0x20 PUSH0 KECCAK256 SWAP1 JUMPDEST DUP2 SLOAD DUP2 MSTORE SWAP1 PUSH1 0x1 ADD SWAP1 PUSH1 0x20 ADD DUP1 DUP4 GT PUSH2 0x230 JUMPI DUP3 SWAP1 SUB PUSH1 0x1F AND DUP3 ADD SWAP2 JUMPDEST POP POP POP POP POP DUP2 MSTORE PUSH1 0x20 ADD PUSH1 0x2 DUP3 ADD DUP1 SLOAD PUSH2 0x266 SWAP1 PUSH2 0xDB8 JUMP JUMPDEST DUP1 PUSH1 0x1F ADD PUSH1 0x20 DUP1 SWAP2 DIV MUL PUSH1 0x20 ADD PUSH1 0x40 MLOAD SWAP1 DUP2 ADD PUSH1 0x40 MSTORE DUP1 SWAP3 SWAP2 SWAP1 DUP2 DUP2 MSTORE PUSH1 0x20 ADD DUP3 DUP1 SLOAD PUSH2 0x292 SWAP1 PUSH2 0xDB8 JUMP JUMPDEST DUP1 ISZERO PUSH2 0x2DD JUMPI DUP1 PUSH1 0x1F LT PUSH2 0x2B4 JUMPI PUSH2 0x100 DUP1 DUP4 SLOAD DIV MUL DUP4 MSTORE SWAP2 PUSH1 0x20 ADD SWAP2 PUSH2 0x2DD JUMP JUMPDEST DUP3 ADD SWAP2 SWAP1 PUSH0 MSTORE PUSH1 0x20 PUSH0 KECCAK256 SWAP1 JUMPDEST DUP2 SLOAD DUP2 MSTORE SWAP1 PUSH1 0x1 ADD SWAP1 PUSH1 0x20 ADD DUP1 DUP4 GT PUSH2 0x2C0 JUMPI DUP3 SWAP1 SUB PUSH1 0x1F AND DUP3 ADD SWAP2 JUMPDEST POP POP POP POP POP DUP2 MSTORE POP POP SWAP1 POP DUP1 PUSH0 ADD MLOAD DUP2 PUSH1 0x20 ADD MLOAD DUP3 PUSH1 0x40 ADD MLOAD SWAP4 POP SWAP4 POP SWAP4 POP POP SWAP2 SWAP4 SWAP1 SWAP3 POP JUMP JUMPDEST PUSH1 0x60 DUP1 PUSH1 0x60 PUSH0 PUSH1 0x1 DUP6 PUSH1 0x40 MLOAD PUSH2 0x31A SWAP2 SWAP1 PUSH2 0xE22 JUMP JUMPDEST SWAP1 DUP2 MSTORE PUSH1 0x20 ADD PUSH1 0x40 MLOAD DUP1 SWAP2 SUB SWAP1 KECCAK256 PUSH0 SWAP1 SLOAD SWAP1 PUSH2 0x100 EXP SWAP1 DIV PUSH20 0xFFFFFFFFFFFFFFFFFFFFFFFFFFFFFFFFFFFFFFFF AND SWAP1 POP PUSH0 DUP1 PUSH0 DUP4 PUSH20 0xFFFFFFFFFFFFFFFFFFFFFFFFFFFFFFFFFFFFFFFF AND PUSH20 0xFFFFFFFFFFFFFFFFFFFFFFFFFFFFFFFFFFFFFFFF AND DUP2 MSTORE PUSH1 0x20 ADD SWAP1 DUP2 MSTORE PUSH1 0x20 ADD PUSH0 KECCAK256 PUSH1 0x40 MLOAD DUP1 PUSH1 0x60 ADD PUSH1 0x40 MSTORE SWAP1 DUP2 PUSH0 DUP3 ADD DUP1 SLOAD PUSH2 0x3A1 SWAP1 PUSH2 0xDB8 JUMP JUMPDEST DUP1 PUSH1 0x1F ADD PUSH1 0x20 DUP1 SWAP2 DIV MUL PUSH1 0x20 ADD PUSH1 0x40 MLOAD SWAP1 DUP2 ADD PUSH1 0x40 MSTORE DUP1 SWAP3 SWAP2 SWAP1 DUP2 DUP2 MSTORE PUSH1 0x20 ADD DUP3 DUP1 SLOAD PUSH2 0x3CD SWAP1 PUSH2 0xDB8 JUMP JUMPDEST DUP1 ISZERO PUSH2 0x418 JUMPI DUP1 PUSH1 0x1F LT PUSH2 0x3EF JUMPI PUSH2 0x100 DUP1 DUP4 SLOAD DIV MUL DUP4 MSTORE SWAP2 PUSH1 0x20 ADD SWAP2 PUSH2 0x418 JUMP JUMPDEST DUP3 ADD SWAP2 SWAP1 PUSH0 MSTORE PUSH1 0x20 PUSH0 KECCAK256 SWAP1 JUMPDEST DUP2 SLOAD DUP2 MSTORE SWAP1 PUSH1 0x1 ADD SWAP1 PUSH1 0x20 ADD DUP1 DUP4 GT PUSH2 0x3FB JUMPI DUP3 SWAP1 SUB PUSH1 0x1F AND DUP3 ADD SWAP2 JUMPDEST POP POP POP POP POP DUP2 MSTORE PUSH1 0x20 ADD PUSH1 0x1 DUP3 ADD DUP1 SLOAD PUSH2 0x431 SWAP1 PUSH2 0xDB8 JUMP JUMPDEST DUP1 PUSH1 0x1F ADD PUSH1 0x20 DUP1 SWAP2 DIV MUL PUSH1 0x20 ADD PUSH1 0x40 MLOAD SWAP1 DUP2 ADD PUSH1 0x40 MSTORE DUP1 SWAP3 SWAP2 SWAP1 DUP2 DUP2 MSTORE PUSH1 0x20 ADD DUP3 DUP1 SLOAD PUSH2 0x45D SWAP1 PUSH2 0xDB8 JUMP JUMPDEST DUP1 ISZERO PUSH2 0x4A8 JUMPI DUP1 PUSH1 0x1F LT PUSH2 0x47F JUMPI PUSH2 0x100 DUP1 DUP4 SLOAD DIV MUL DUP4 MSTORE SWAP2 PUSH1 0x20 ADD SWAP2 PUSH2 0x4A8 JUMP JUMPDEST DUP3 ADD SWAP2 SWAP1 PUSH0 MSTORE PUSH1 0x20 PUSH0 KECCAK256 SWAP1 JUMPDEST DUP2 SLOAD DUP2 MSTORE SWAP1 PUSH1 0x1 ADD SWAP1 PUSH1 0x20 ADD DUP1 DUP4 GT PUSH2 0x48B JUMPI DUP3 SWAP1 SUB PUSH1 0x1F AND DUP3 ADD SWAP2 JUMPDEST POP POP POP POP POP DUP2 MSTORE PUSH1 0x20 ADD PUSH1 0x2 DUP3 ADD DUP1 SLOAD PUSH2 0x4C1 SWAP1 PUSH2 0xDB8 JUMP JUMPDEST DUP1 PUSH1 0x1F ADD PUSH1 0x20 DUP1 SWAP2 DIV MUL PUSH1 0x20 ADD PUSH1 0x40 MLOAD SWAP1 DUP2 ADD PUSH1 0x40 MSTORE DUP1 SWAP3 SWAP2 SWAP1 DUP2 DUP2 MSTORE PUSH1 0x20 ADD DUP3 DUP1 SLOAD PUSH2 0x4ED SWAP1 PUSH2 0xDB8 JUMP JUMPDEST DUP1 ISZERO PUSH2 0x538 JUMPI DUP1 PUSH1 0x1F LT PUSH2 0x50F JUMPI PUSH2 0x100 DUP1 DUP4 SLOAD DIV MUL DUP4 MSTORE SWAP2 PUSH1 0x20 ADD SWAP2 PUSH2 0x538 JUMP JUMPDEST DUP3 ADD SWAP2 SWAP1 PUSH0 MSTORE PUSH1 0x20 PUSH0 KECCAK256 SWAP1 JUMPDEST DUP2 SLOAD DUP2 MSTORE SWAP1 PUSH1 0x1 ADD SWAP1 PUSH1 0x20 ADD DUP1 DUP4 GT PUSH2 0x51B JUMPI DUP3 SWAP1 SUB PUSH1 0x1F AND DUP3 ADD SWAP2 JUMPDEST POP POP POP POP POP DUP2 MSTORE POP POP SWAP1 POP DUP1 PUSH0 ADD MLOAD DUP2 PUSH1 0x20 ADD MLOAD DUP3 PUSH1 0x40 ADD MLOAD SWAP5 POP SWAP5 POP SWAP5 POP POP POP SWAP2 SWAP4 SWAP1 SWAP3 POP JUMP JUMPDEST PUSH0 DUP1 PUSH0 CALLER PUSH20 0xFFFFFFFFFFFFFFFFFFFFFFFFFFFFFFFFFFFFFFFF AND PUSH20 0xFFFFFFFFFFFFFFFFFFFFFFFFFFFFFFFFFFFFFFFF AND DUP2 MSTORE PUSH1 0x20 ADD SWAP1 DUP2 MSTORE PUSH1 0x20 ADD PUSH0 KECCAK256 PUSH0 ADD DUP1 SLOAD PUSH2 0x5AA SWAP1 PUSH2 0xDB8 JUMP JUMPDEST SWAP1 POP SUB PUSH2 0x5EC JUMPI PUSH1 0x40 MLOAD PUSH32 0x8C379A000000000000000000000000000000000000000000000000000000000 DUP2 MSTORE PUSH1 0x4 ADD PUSH2 0x5E3 SWAP1 PUSH2 0xEA8 JUMP JUMPDEST PUSH1 0x40 MLOAD DUP1 SWAP2 SUB SWAP1 REVERT JUMPDEST DUP3 PUSH1 0x40 MLOAD PUSH1 0x20 ADD PUSH2 0x5FD SWAP2 SWAP1 PUSH2 0xE22 JUMP JUMPDEST PUSH1 0x40 MLOAD PUSH1 0x20 DUP2 DUP4 SUB SUB DUP2 MSTORE SWAP1 PUSH1 0x40 MSTORE DUP1 MLOAD SWAP1 PUSH1 0x20 ADD KECCAK256 PUSH0 DUP1 CALLER PUSH20 0xFFFFFFFFFFFFFFFFFFFFFFFFFFFFFFFFFFFFFFFF AND PUSH20 0xFFFFFFFFFFFFFFFFFFFFFFFFFFFFFFFFFFFFFFFF AND DUP2 MSTORE PUSH1 0x20 ADD SWAP1 DUP2 MSTORE PUSH1 0x20 ADD PUSH0 KECCAK256 PUSH0 ADD PUSH1 0x40 MLOAD PUSH1 0x20 ADD PUSH2 0x661 SWAP2 SWAP1 PUSH2 0xF58 JUMP JUMPDEST PUSH1 0x40 MLOAD PUSH1 0x20 DUP2 DUP4 SUB SUB DUP2 MSTORE SWAP1 PUSH1 0x40 MSTORE DUP1 MLOAD SWAP1 PUSH1 0x20 ADD KECCAK256 EQ PUSH2 0x6B7 JUMPI PUSH1 0x40 MLOAD PUSH32 0x8C379A000000000000000000000000000000000000000000000000000000000 DUP2 MSTORE PUSH1 0x4 ADD PUSH2 0x6AE SWAP1 PUSH2 0xFB8 JUMP JUMPDEST PUSH1 0x40 MLOAD DUP1 SWAP2 SUB SWAP1 REVERT JUMPDEST DUP2 PUSH0 DUP1 CALLER PUSH20 0xFFFFFFFFFFFFFFFFFFFFFFFFFFFFFFFFFFFFFFFF AND PUSH20 0xFFFFFFFFFFFFFFFFFFFFFFFFFFFFFFFFFFFFFFFF AND DUP2 MSTORE PUSH1 0x20 ADD SWAP1 DUP2 MSTORE PUSH1 0x20 ADD PUSH0 KECCAK256 PUSH1 0x1 ADD SWAP1 DUP2 PUSH2 0x703 SWAP2 SWAP1 PUSH2 0x116A JUMP JUMPDEST POP DUP1 PUSH0 DUP1 CALLER PUSH20 0xFFFFFFFFFFFFFFFFFFFFFFFFFFFFFFFFFFFFFFFF AND PUSH20 0xFFFFFFFFFFFFFFFFFFFFFFFFFFFFFFFFFFFFFFFF AND DUP2 MSTORE PUSH1 0x20 ADD SWAP1 DUP2 MSTORE PUSH1 0x20 ADD PUSH0 KECCAK256 PUSH1 0x2 ADD SWAP1 DUP2 PUSH2 0x750 SWAP2 SWAP1 PUSH2 0x116A JUMP JUMPDEST POP CALLER PUSH20 0xFFFFFFFFFFFFFFFFFFFFFFFFFFFFFFFFFFFFFFFF AND PUSH32 0x8B59EC232BAE8E23FE031D1CACDAAE5D1C57FB36AD6CA568850B6EFBFB0D76B0 DUP5 PUSH1 0x40 MLOAD PUSH2 0x797 SWAP2 SWAP1 PUSH2 0x1239 JUMP JUMPDEST PUSH1 0x40 MLOAD DUP1 SWAP2 SUB SWAP1 LOG2 POP POP POP JUMP JUMPDEST PUSH0 DUP1 PUSH0 CALLER PUSH20 0xFFFFFFFFFFFFFFFFFFFFFFFFFFFFFFFFFFFFFFFF AND PUSH20 0xFFFFFFFFFFFFFFFFFFFFFFFFFFFFFFFFFFFFFFFF AND DUP2 MSTORE PUSH1 0x20 ADD SWAP1 DUP2 MSTORE PUSH1 0x20 ADD PUSH0 KECCAK256 PUSH0 ADD DUP1 SLOAD PUSH2 0x7EE SWAP1 PUSH2 0xDB8 JUMP JUMPDEST SWAP1 POP EQ PUSH2 0x830 JUMPI PUSH1 0x40 MLOAD PUSH32 0x8C379A000000000000000000000000000000000000000000000000000000000 DUP2 MSTORE PUSH1 0x4 ADD PUSH2 0x827 SWAP1 PUSH2 0x12C9 JUMP JUMPDEST PUSH1 0x40 MLOAD DUP1 SWAP2 SUB SWAP1 REVERT JUMPDEST PUSH0 PUSH20 0xFFFFFFFFFFFFFFFFFFFFFFFFFFFFFFFFFFFFFFFF AND PUSH1 0x1 DUP5 PUSH1 0x40 MLOAD PUSH2 0x857 SWAP2 SWAP1 PUSH2 0xE22 JUMP JUMPDEST SWAP1 DUP2 MSTORE PUSH1 0x20 ADD PUSH1 0x40 MLOAD DUP1 SWAP2 SUB SWAP1 KECCAK256 PUSH0 SWAP1 SLOAD SWAP1 PUSH2 0x100 EXP SWAP1 DIV PUSH20 0xFFFFFFFFFFFFFFFFFFFFFFFFFFFFFFFFFFFFFFFF AND PUSH20 0xFFFFFFFFFFFFFFFFFFFFFFFFFFFFFFFFFFFFFFFF AND EQ PUSH2 0x8DB JUMPI PUSH1 0x40 MLOAD PUSH32 0x8C379A000000000000000000000000000000000000000000000000000000000 DUP2 MSTORE PUSH1 0x4 ADD PUSH2 0x8D2 SWAP1 PUSH2 0x1331 JUMP JUMPDEST PUSH1 0x40 MLOAD DUP1 SWAP2 SUB SWAP1 REVERT JUMPDEST PUSH1 0x40 MLOAD DUP1 PUSH1 0x60 ADD PUSH1 0x40 MSTORE DUP1 DUP5 DUP2 MSTORE PUSH1 0x20 ADD DUP4 DUP2 MSTORE PUSH1 0x20 ADD DUP3 DUP2 MSTORE POP PUSH0 DUP1 CALLER PUSH20 0xFFFFFFFFFFFFFFFFFFFFFFFFFFFFFFFFFFFFFFFF AND PUSH20 0xFFFFFFFFFFFFFFFFFFFFFFFFFFFFFFFFFFFFFFFF AND DUP2 MSTORE PUSH1 0x20 ADD SWAP1 DUP2 MSTORE PUSH1 0x20 ADD PUSH0 KECCAK256 PUSH0 DUP3 ADD MLOAD DUP2 PUSH0 ADD SWAP1 DUP2 PUSH2 0x945 SWAP2 SWAP1 PUSH2 0x116A JUMP JUMPDEST POP PUSH1 0x20 DUP3 ADD MLOAD DUP2 PUSH1 0x1 ADD SWAP1 DUP2 PUSH2 0x95B SWAP2 SWAP1 PUSH2 0x116A JUMP JUMPDEST POP PUSH1 0x40 DUP3 ADD MLOAD DUP2 PUSH1 0x2 ADD SWAP1 DUP2 PUSH2 0x971 SWAP2 SWAP1 PUSH2 0x116A JUMP JUMPDEST POP SWAP1 POP POP CALLER PUSH1 0x1 DUP5 PUSH1 0x40 MLOAD PUSH2 0x986 SWAP2 SWAP1 PUSH2 0xE22 JUMP JUMPDEST SWAP1 DUP2 MSTORE PUSH1 0x20 ADD PUSH1 0x40 MLOAD DUP1 SWAP2 SUB SWAP1 KECCAK256 PUSH0 PUSH2 0x100 EXP DUP2 SLOAD DUP2 PUSH20 0xFFFFFFFFFFFFFFFFFFFFFFFFFFFFFFFFFFFFFFFF MUL NOT AND SWAP1 DUP4 PUSH20 0xFFFFFFFFFFFFFFFFFFFFFFFFFFFFFFFFFFFFFFFF AND MUL OR SWAP1 SSTORE POP CALLER PUSH20 0xFFFFFFFFFFFFFFFFFFFFFFFFFFFFFFFFFFFFFFFF AND PUSH32 0x9B6805EB7A1BEE8A797C79C5F2A39A182F3D37F8B8CCE5EC42371000C8115DFD DUP5 PUSH1 0x40 MLOAD PUSH2 0xA17 SWAP2 SWAP1 PUSH2 0x1239 JUMP JUMPDEST PUSH1 0x40 MLOAD DUP1 SWAP2 SUB SWAP1 LOG2 POP POP POP JUMP JUMPDEST PUSH0 PUSH1 0x40 MLOAD SWAP1 POP SWAP1 JUMP JUMPDEST PUSH0 DUP1 REVERT JUMPDEST PUSH0 DUP1 REVERT JUMPDEST PUSH0 PUSH20 0xFFFFFFFFFFFFFFFFFFFFFFFFFFFFFFFFFFFFFFFF DUP3 AND SWAP1 POP SWAP2 SWAP1 POP JUMP JUMPDEST PUSH0 PUSH2 0xA5E DUP3 PUSH2 0xA35 JUMP JUMPDEST SWAP1 POP SWAP2 SWAP1 POP JUMP JUMPDEST PUSH2 0xA6E DUP2 PUSH2 0xA54 JUMP JUMPDEST DUP2 EQ PUSH2 0xA78 JUMPI PUSH0 DUP1 REVERT JUMPDEST POP JUMP JUMPDEST PUSH0 DUP2 CALLDATALOAD SWAP1 POP PUSH2 0xA89 DUP2 PUSH2 0xA65 JUMP JUMPDEST SWAP3 SWAP2 POP POP JUMP JUMPDEST PUSH0 PUSH1 0x20 DUP3 DUP5 SUB SLT ISZERO PUSH2 0xAA4 JUMPI PUSH2 0xAA3 PUSH2 0xA2D JUMP JUMPDEST JUMPDEST PUSH0 PUSH2 0xAB1 DUP5 DUP3 DUP6 ADD PUSH2 0xA7B JUMP JUMPDEST SWAP2 POP POP SWAP3 SWAP2 POP POP JUMP JUMPDEST PUSH0 DUP2 MLOAD SWAP1 POP SWAP2 SWAP1 POP JUMP JUMPDEST PUSH0 DUP3 DUP3 MSTORE PUSH1 0x20 DUP3 ADD SWAP1 POP SWAP3 SWAP2 POP POP JUMP JUMPDEST DUP3 DUP2 DUP4 MCOPY PUSH0 DUP4 DUP4 ADD MSTORE POP POP POP JUMP JUMPDEST PUSH0 PUSH1 0x1F NOT PUSH1 0x1F DUP4 ADD AND SWAP1 POP SWAP2 SWAP1 POP JUMP JUMPDEST PUSH0 PUSH2 0xAFC DUP3 PUSH2 0xABA JUMP JUMPDEST PUSH2 0xB06 DUP2 DUP6 PUSH2 0xAC4 JUMP JUMPDEST SWAP4 POP PUSH2 0xB16 DUP2 DUP6 PUSH1 0x20 DUP7 ADD PUSH2 0xAD4 JUMP JUMPDEST PUSH2 0xB1F DUP2 PUSH2 0xAE2 JUMP JUMPDEST DUP5 ADD SWAP2 POP POP SWAP3 SWAP2 POP POP JUMP JUMPDEST PUSH0 PUSH1 0x60 DUP3 ADD SWAP1 POP DUP2 DUP2 SUB PUSH0 DUP4 ADD MSTORE PUSH2 0xB42 DUP2 DUP7 PUSH2 0xAF2 JUMP JUMPDEST SWAP1 POP DUP2 DUP2 SUB PUSH1 0x20 DUP4 ADD MSTORE PUSH2 0xB56 DUP2 DUP6 PUSH2 0xAF2 JUMP JUMPDEST SWAP1 POP DUP2 DUP2 SUB PUSH1 0x40 DUP4 ADD MSTORE PUSH2 0xB6A DUP2 DUP5 PUSH2 0xAF2 JUMP JUMPDEST SWAP1 POP SWAP5 SWAP4 POP POP POP POP JUMP JUMPDEST PUSH0 DUP1 REVERT JUMPDEST PUSH0 DUP1 REVERT JUMPDEST PUSH32 0x4E487B7100000000000000000000000000000000000000000000000000000000 PUSH0 MSTORE PUSH1 0x41 PUSH1 0x4 MSTORE PUSH1 0x24 PUSH0 REVERT JUMPDEST PUSH2 0xBB2 DUP3 PUSH2 0xAE2 JUMP JUMPDEST DUP2 ADD DUP2 DUP2 LT PUSH8 0xFFFFFFFFFFFFFFFF DUP3 GT OR ISZERO PUSH2 0xBD1 JUMPI PUSH2 0xBD0 PUSH2 0xB7C JUMP JUMPDEST JUMPDEST DUP1 PUSH1 0x40 MSTORE POP POP POP JUMP JUMPDEST PUSH0 PUSH2 0xBE3 PUSH2 0xA24 JUMP JUMPDEST SWAP1 POP PUSH2 0xBEF DUP3 DUP3 PUSH2 0xBA9 JUMP JUMPDEST SWAP2 SWAP1 POP JUMP JUMPDEST PUSH0 PUSH8 0xFFFFFFFFFFFFFFFF DUP3 GT ISZERO PUSH2 0xC0E JUMPI PUSH2 0xC0D PUSH2 0xB7C JUMP JUMPDEST JUMPDEST PUSH2 0xC17 DUP3 PUSH2 0xAE2 JUMP JUMPDEST SWAP1 POP PUSH1 0x20 DUP2 ADD SWAP1 POP SWAP2 SWAP1 POP JUMP JUMPDEST DUP3 DUP2 DUP4 CALLDATACOPY PUSH0 DUP4 DUP4 ADD MSTORE POP POP POP JUMP JUMPDEST PUSH0 PUSH2 0xC44 PUSH2 0xC3F DUP5 PUSH2 0xBF4 JUMP JUMPDEST PUSH2 0xBDA JUMP JUMPDEST SWAP1 POP DUP3 DUP2 MSTORE PUSH1 0x20 DUP2 ADD DUP5 DUP5 DUP5 ADD GT ISZERO PUSH2 0xC60 JUMPI PUSH2 0xC5F PUSH2 0xB78 JUMP JUMPDEST JUMPDEST PUSH2 0xC6B DUP5 DUP3 DUP6 PUSH2 0xC24 JUMP JUMPDEST POP SWAP4 SWAP3 POP POP POP JUMP JUMPDEST PUSH0 DUP3 PUSH1 0x1F DUP4 ADD SLT PUSH2 0xC87 JUMPI PUSH2 0xC86 PUSH2 0xB74 JUMP JUMPDEST JUMPDEST DUP2 CALLDATALOAD PUSH2 0xC97 DUP5 DUP3 PUSH1 0x20 DUP7 ADD PUSH2 0xC32 JUMP JUMPDEST SWAP2 POP POP SWAP3 SWAP2 POP POP JUMP JUMPDEST PUSH0 PUSH1 0x20 DUP3 DUP5 SUB SLT ISZERO PUSH2 0xCB5 JUMPI PUSH2 0xCB4 PUSH2 0xA2D JUMP JUMPDEST JUMPDEST PUSH0 DUP3 ADD CALLDATALOAD PUSH8 0xFFFFFFFFFFFFFFFF DUP2 GT ISZERO PUSH2 0xCD2 JUMPI PUSH2 0xCD1 PUSH2 0xA31 JUMP JUMPDEST JUMPDEST PUSH2 0xCDE DUP5 DUP3 DUP6 ADD PUSH2 0xC73 JUMP JUMPDEST SWAP2 POP POP SWAP3 SWAP2 POP POP JUMP JUMPDEST PUSH0 DUP1 PUSH0 PUSH1 0x60 DUP5 DUP7 SUB SLT ISZERO PUSH2 0xCFE JUMPI PUSH2 0xCFD PUSH2 0xA2D JUMP JUMPDEST JUMPDEST PUSH0 DUP5 ADD CALLDATALOAD PUSH8 0xFFFFFFFFFFFFFFFF DUP2 GT ISZERO PUSH2 0xD1B JUMPI PUSH2 0xD1A PUSH2 0xA31 JUMP JUMPDEST JUMPDEST PUSH2 0xD27 DUP7 DUP3 DUP8 ADD PUSH2 0xC73 JUMP JUMPDEST SWAP4 POP POP PUSH1 0x20 DUP5 ADD CALLDATALOAD PUSH8 0xFFFFFFFFFFFFFFFF DUP2 GT ISZERO PUSH2 0xD48 JUMPI PUSH2 0xD47 PUSH2 0xA31 JUMP JUMPDEST JUMPDEST PUSH2 0xD54 DUP7 DUP3 DUP8 ADD PUSH2 0xC73 JUMP JUMPDEST SWAP3 POP POP PUSH1 0x40 DUP5 ADD CALLDATALOAD PUSH8 0xFFFFFFFFFFFFFFFF DUP2 GT ISZERO PUSH2 0xD75 JUMPI PUSH2 0xD74 PUSH2 0xA31 JUMP JUMPDEST JUMPDEST PUSH2 0xD81 DUP7 DUP3 DUP8 ADD PUSH2 0xC73 JUMP JUMPDEST SWAP2 POP POP SWAP3 POP SWAP3 POP SWAP3 JUMP JUMPDEST PUSH32 0x4E487B7100000000000000000000000000000000000000000000000000000000 PUSH0 MSTORE PUSH1 0x22 PUSH1 0x4 MSTORE PUSH1 0x24 PUSH0 REVERT JUMPDEST PUSH0 PUSH1 0x2 DUP3 DIV SWAP1 POP PUSH1 0x1 DUP3 AND DUP1 PUSH2 0xDCF JUMPI PUSH1 0x7F DUP3 AND SWAP2 POP JUMPDEST PUSH1 0x20 DUP3 LT DUP2 SUB PUSH2 0xDE2 JUMPI PUSH2 0xDE1 PUSH2 0xD8B JUMP JUMPDEST JUMPDEST POP SWAP2 SWAP1 POP JUMP JUMPDEST PUSH0 DUP2 SWAP1 POP SWAP3 SWAP2 POP POP JUMP JUMPDEST PUSH0 PUSH2 0xDFC DUP3 PUSH2 0xABA JUMP JUMPDEST PUSH2 0xE06 DUP2 DUP6 PUSH2 0xDE8 JUMP JUMPDEST SWAP4 POP PUSH2 0xE16 DUP2 DUP6 PUSH1 0x20 DUP7 ADD PUSH2 0xAD4 JUMP JUMPDEST DUP1 DUP5 ADD SWAP2 POP POP SWAP3 SWAP2 POP POP JUMP JUMPDEST PUSH0 PUSH2 0xE2D DUP3 DUP5 PUSH2 0xDF2 JUMP JUMPDEST SWAP2 POP DUP2 SWAP1 POP SWAP3 SWAP2 POP POP JUMP JUMPDEST PUSH32 0x4964656E7469747920646F6573206E6F7420657869737420666F722074686973 PUSH0 DUP3 ADD MSTORE PUSH32 0x2061646472657373000000000000000000000000000000000000000000000000 PUSH1 0x20 DUP3 ADD MSTORE POP JUMP JUMPDEST PUSH0 PUSH2 0xE92 PUSH1 0x28 DUP4 PUSH2 0xAC4 JUMP JUMPDEST SWAP2 POP PUSH2 0xE9D DUP3 PUSH2 0xE38 JUMP JUMPDEST PUSH1 0x40 DUP3 ADD SWAP1 POP SWAP2 SWAP1 POP JUMP JUMPDEST PUSH0 PUSH1 0x20 DUP3 ADD SWAP1 POP DUP2 DUP2 SUB PUSH0 DUP4 ADD MSTORE PUSH2 0xEBF DUP2 PUSH2 0xE86 JUMP JUMPDEST SWAP1 POP SWAP2 SWAP1 POP JUMP JUMPDEST PUSH0 DUP2 SWAP1 POP DUP2 PUSH0 MSTORE PUSH1 0x20 PUSH0 KECCAK256 SWAP1 POP SWAP2 SWAP1 POP JUMP JUMPDEST PUSH0 DUP2 SLOAD PUSH2 0xEE4 DUP2 PUSH2 0xDB8 JUMP JUMPDEST PUSH2 0xEEE DUP2 DUP7 PUSH2 0xDE8 JUMP JUMPDEST SWAP5 POP PUSH1 0x1 DUP3 AND PUSH0 DUP2 EQ PUSH2 0xF08 JUMPI PUSH1 0x1 DUP2 EQ PUSH2 0xF1D JUMPI PUSH2 0xF4F JUMP JUMPDEST PUSH1 0xFF NOT DUP4 AND DUP7 MSTORE DUP2 ISZERO ISZERO DUP3 MUL DUP7 ADD SWAP4 POP PUSH2 0xF4F JUMP JUMPDEST PUSH2 0xF26 DUP6 PUSH2 0xEC6 JUMP JUMPDEST PUSH0 JUMPDEST DUP4 DUP2 LT ISZERO PUSH2 0xF47 JUMPI DUP2 SLOAD DUP2 DUP10 ADD MSTORE PUSH1 0x1 DUP3 ADD SWAP2 POP PUSH1 0x20 DUP2 ADD SWAP1 POP PUSH2 0xF28 JUMP JUMPDEST DUP4 DUP9 ADD SWAP6 POP POP POP JUMPDEST POP POP POP SWAP3 SWAP2 POP POP JUMP JUMPDEST PUSH0 PUSH2 0xF63 DUP3 DUP5 PUSH2 0xED8 JUMP JUMPDEST SWAP2 POP DUP2 SWAP1 POP SWAP3 SWAP2 POP POP JUMP JUMPDEST PUSH32 0x444944206D69736D617463680000000000000000000000000000000000000000 PUSH0 DUP3 ADD MSTORE POP JUMP JUMPDEST PUSH0 PUSH2 0xFA2 PUSH1 0xC DUP4 PUSH2 0xAC4 JUMP JUMPDEST SWAP2 POP PUSH2 0xFAD DUP3 PUSH2 0xF6E JUMP JUMPDEST PUSH1 0x20 DUP3 ADD SWAP1 POP SWAP2 SWAP1 POP JUMP JUMPDEST PUSH0 PUSH1 0x20 DUP3 ADD SWAP1 POP DUP2 DUP2 SUB PUSH0 DUP4 ADD MSTORE PUSH2 0xFCF DUP2 PUSH2 0xF96 JUMP JUMPDEST SWAP1 POP SWAP2 SWAP1 POP JUMP JUMPDEST PUSH0 PUSH1 0x20 PUSH1 0x1F DUP4 ADD DIV SWAP1 POP SWAP2 SWAP1 POP JUMP JUMPDEST PUSH0 DUP3 DUP3 SHL SWAP1 POP SWAP3 SWAP2 POP POP JUMP JUMPDEST PUSH0 PUSH1 0x8 DUP4 MUL PUSH2 0x1020 PUSH32 0xFFFFFFFFFFFFFFFFFFFFFFFFFFFFFFFFFFFFFFFFFFFFFFFFFFFFFFFFFFFFFFFF DUP3 PUSH2 0xFE5 JUMP JUMPDEST PUSH2 0x102A DUP7 DUP4 PUSH2 0xFE5 JUMP JUMPDEST SWAP6 POP DUP1 NOT DUP5 AND SWAP4 POP DUP1 DUP7 AND DUP5 OR SWAP3 POP POP POP SWAP4 SWAP3 POP POP POP JUMP JUMPDEST PUSH0 DUP2 SWAP1 POP SWAP2 SWAP1 POP JUMP JUMPDEST PUSH0 DUP2 SWAP1 POP SWAP2 SWAP1 POP JUMP JUMPDEST PUSH0 PUSH2 0x106E PUSH2 0x1069 PUSH2 0x1064 DUP5 PUSH2 0x1042 JUMP JUMPDEST PUSH2 0x104B JUMP JUMPDEST PUSH2 0x1042 JUMP JUMPDEST SWAP1 POP SWAP2 SWAP1 POP JUMP JUMPDEST PUSH0 DUP2 SWAP1 POP SWAP2 SWAP1 POP JUMP JUMPDEST PUSH2 0x1087 DUP4 PUSH2 0x1054 JUMP JUMPDEST PUSH2 0x109B PUSH2 0x1093 DUP3 PUSH2 0x1075 JUMP JUMPDEST DUP5 DUP5 SLOAD PUSH2 0xFF1 JUMP JUMPDEST DUP3 SSTORE POP POP POP POP JUMP JUMPDEST PUSH0 SWAP1 JUMP JUMPDEST PUSH2 0x10AF PUSH2 0x10A3 JUMP JUMPDEST PUSH2 0x10BA DUP2 DUP5 DUP5 PUSH2 0x107E JUMP JUMPDEST POP POP POP JUMP JUMPDEST JUMPDEST DUP2 DUP2 LT ISZERO PUSH2 0x10DD JUMPI PUSH2 0x10D2 PUSH0 DUP3 PUSH2 0x10A7 JUMP JUMPDEST PUSH1 0x1 DUP2 ADD SWAP1 POP PUSH2 0x10C0 JUMP JUMPDEST POP POP JUMP JUMPDEST PUSH1 0x1F DUP3 GT ISZERO PUSH2 0x1122 JUMPI PUSH2 0x10F3 DUP2 PUSH2 0xEC6 JUMP JUMPDEST PUSH2 0x10FC DUP5 PUSH2 0xFD6 JUMP JUMPDEST DUP2 ADD PUSH1 0x20 DUP6 LT ISZERO PUSH2 0x110B JUMPI DUP2 SWAP1 POP JUMPDEST PUSH2 0x111F PUSH2 0x1117 DUP6 PUSH2 0xFD6 JUMP JUMPDEST DUP4 ADD DUP3 PUSH2 0x10BF JUMP JUMPDEST POP POP JUMPDEST POP POP POP JUMP JUMPDEST PUSH0 DUP3 DUP3 SHR SWAP1 POP SWAP3 SWAP2 POP POP JUMP JUMPDEST PUSH0 PUSH2 0x1142 PUSH0 NOT DUP5 PUSH1 0x8 MUL PUSH2 0x1127 JUMP JUMPDEST NOT DUP1 DUP4 AND SWAP2 POP POP SWAP3 SWAP2 POP POP JUMP JUMPDEST PUSH0 PUSH2 0x115A DUP4 DUP4 PUSH2 0x1133 JUMP JUMPDEST SWAP2 POP DUP3 PUSH1 0x2 MUL DUP3 OR SWAP1 POP SWAP3 SWAP2 POP POP JUMP JUMPDEST PUSH2 0x1173 DUP3 PUSH2 0xABA JUMP JUMPDEST PUSH8 0xFFFFFFFFFFFFFFFF DUP2 GT ISZERO PUSH2 0x118C JUMPI PUSH2 0x118B PUSH2 0xB7C JUMP JUMPDEST JUMPDEST PUSH2 0x1196 DUP3 SLOAD PUSH2 0xDB8 JUMP JUMPDEST PUSH2 0x11A1 DUP3 DUP3 DUP6 PUSH2 0x10E1 JUMP JUMPDEST PUSH0 PUSH1 0x20 SWAP1 POP PUSH1 0x1F DUP4 GT PUSH1 0x1 DUP2 EQ PUSH2 0x11D2 JUMPI PUSH0 DUP5 ISZERO PUSH2 0x11C0 JUMPI DUP3 DUP8 ADD MLOAD SWAP1 POP JUMPDEST PUSH2 0x11CA DUP6 DUP3 PUSH2 0x114F JUMP JUMPDEST DUP7 SSTORE POP PUSH2 0x1231 JUMP JUMPDEST PUSH1 0x1F NOT DUP5 AND PUSH2 0x11E0 DUP7 PUSH2 0xEC6 JUMP JUMPDEST PUSH0 JUMPDEST DUP3 DUP2 LT ISZERO PUSH2 0x1207 JUMPI DUP5 DUP10 ADD MLOAD DUP3 SSTORE PUSH1 0x1 DUP3 ADD SWAP2 POP PUSH1 0x20 DUP6 ADD SWAP5 POP PUSH1 0x20 DUP2 ADD SWAP1 POP PUSH2 0x11E2 JUMP JUMPDEST DUP7 DUP4 LT ISZERO PUSH2 0x1224 JUMPI DUP5 DUP10 ADD MLOAD PUSH2 0x1220 PUSH1 0x1F DUP10 AND DUP3 PUSH2 0x1133 JUMP JUMPDEST DUP4 SSTORE POP JUMPDEST PUSH1 0x1 PUSH1 0x2 DUP9 MUL ADD DUP9 SSTORE POP POP POP JUMPDEST POP POP POP POP POP POP JUMP JUMPDEST PUSH0 PUSH1 0x20 DUP3 ADD SWAP1 POP DUP2 DUP2 SUB PUSH0 DUP4 ADD MSTORE PUSH2 0x1251 DUP2 DUP5 PUSH2 0xAF2 JUMP JUMPDEST SWAP1 POP SWAP3 SWAP2 POP POP JUMP JUMPDEST PUSH32 0x4964656E7469747920616C72656164792065786973747320666F722074686973 PUSH0 DUP3 ADD MSTORE PUSH32 0x2061646472657373000000000000000000000000000000000000000000000000 PUSH1 0x20 DUP3 ADD MSTORE POP JUMP JUMPDEST PUSH0 PUSH2 0x12B3 PUSH1 0x28 DUP4 PUSH2 0xAC4 JUMP JUMPDEST SWAP2 POP PUSH2 0x12BE DUP3 PUSH2 0x1259 JUMP JUMPDEST PUSH1 0x40 DUP3 ADD SWAP1 POP SWAP2 SWAP1 POP JUMP JUMPDEST PUSH0 PUSH1 0x20 DUP3 ADD SWAP1 POP DUP2 DUP2 SUB PUSH0 DUP4 ADD MSTORE PUSH2 0x12E0 DUP2 PUSH2 0x12A7 JUMP JUMPDEST SWAP1 POP SWAP2 SWAP1 POP JUMP JUMPDEST PUSH32 0x44494420616C7265616479207265676973746572656400000000000000000000 PUSH0 DUP3 ADD MSTORE POP JUMP JUMPDEST PUSH0 PUSH2 0x131B PUSH1 0x16 DUP4 PUSH2 0xAC4 JUMP JUMPDEST SWAP2 POP PUSH2 0x1326 DUP3 PUSH2 0x12E7 JUMP JUMPDEST PUSH1 0x20 DUP3 ADD SWAP1 POP SWAP2 SWAP1 POP JUMP JUMPDEST PUSH0 PUSH1 0x20 DUP3 ADD SWAP1 POP DUP2 DUP2 SUB PUSH0 DUP4 ADD MSTORE PUSH2 0x1348 DUP2 PUSH2 0x130F JUMP JUMPDEST SWAP1 POP SWAP2 SWAP1 POP JUMP INVALID LOG2 PUSH5 0x6970667358 0x22 SLT KECCAK256 SWAP4 MSTORE8 PUSH11 0x24653D8ED9CED45FEA3BEF REVERT PUSH14 0x12BC63F48E5894B2196A16ED0F84 DUP6 MSTORE8 PUSH5 0x736F6C6343 STOP ADDMOD BYTE STOP CALLER "
				},
				"gasEstimates": {
					"creation": {
						"codeDepositCost": "999400",
						"executionCost": "1039",
						"totalCost": "1000439"
					},
					"external": {
						"getIdentity(address)": "infinite",
						"getIdentityByDID(string)": "infinite",
						"registerIdentity(string,string,string)": "infinite",
						"updateIdentity(string,string,string)": "infinite"
					}
				},
				"methodIdentifiers": {
					"getIdentity(address)": "2fea7b81",
					"getIdentityByDID(string)": "8414dc3d",
					"registerIdentity(string,string,string)": "bdc95b32",
					"updateIdentity(string,string,string)": "9318ca66"
				}
			},
			"storageLayout": {
				"storage": [
					{
						"astId": 2225,
						"contract": "contracts/security/identity/DID.sol:DIDSystem",
						"label": "identities",
						"offset": 0,
						"slot": "0",
						"type": "t_mapping(t_address,t_struct(Identity)2220_storage)"
					},
					{
						"astId": 2229,
						"contract": "contracts/security/identity/DID.sol:DIDSystem",
						"label": "didToAddress",
						"offset": 0,
						"slot": "1",
						"type": "t_mapping(t_string_memory_ptr,t_address)"
					}
				],
				"types": {
					"t_address": {
						"encoding": "inplace",
						"label": "address",
						"numberOfBytes": "20"
					},
					"t_mapping(t_address,t_struct(Identity)2220_storage)": {
						"encoding": "mapping",
						"key": "t_address",
						"label": "mapping(address => struct DIDSystem.Identity)",
						"numberOfBytes": "32",
						"value": "t_struct(Identity)2220_storage"
					},
					"t_mapping(t_string_memory_ptr,t_address)": {
						"encoding": "mapping",
						"key": "t_string_memory_ptr",
						"label": "mapping(string => address)",
						"numberOfBytes": "32",
						"value": "t_address"
					},
					"t_string_memory_ptr": {
						"encoding": "bytes",
						"label": "string",
						"numberOfBytes": "32"
					},
					"t_string_storage": {
						"encoding": "bytes",
						"label": "string",
						"numberOfBytes": "32"
					},
					"t_struct(Identity)2220_storage": {
						"encoding": "inplace",
						"label": "struct DIDSystem.Identity",
						"members": [
							{
								"astId": 2215,
								"contract": "contracts/security/identity/DID.sol:DIDSystem",
								"label": "did",
								"offset": 0,
								"slot": "0",
								"type": "t_string_storage"
							},
							{
								"astId": 2217,
								"contract": "contracts/security/identity/DID.sol:DIDSystem",
								"label": "publicKey",
								"offset": 0,
								"slot": "1",
								"type": "t_string_storage"
							},
							{
								"astId": 2219,
								"contract": "contracts/security/identity/DID.sol:DIDSystem",
								"label": "document",
								"offset": 0,
								"slot": "2",
								"type": "t_string_storage"
							}
						],
						"numberOfBytes": "96"
					}
				}
			},
			"userdoc": {
				"kind": "user",
				"methods": {},
				"version": 1
			}
		}
	}
}