{
	"data": {
		"bytecode": {
			"linkReferences": {},
			"object": "608060405234801561000f575f80fd5b506040516108a73803806108a78339818101604052810190610031919061014e565b815f806101000a81548173ffffffffffffffffffffffffffffffffffffffff021916908373ffffffffffffffffffffffffffffffffffffffff1602179055508060015f6101000a81548173ffffffffffffffffffffffffffffffffffffffff021916908373ffffffffffffffffffffffffffffffffffffffff1602179055507f6b19281420ed5047ac7fa36c14bdf06e7b083352e5816b485a2c9cea4acf2ab282826040516100e192919061019b565b60405180910390a150506101c2565b5f80fd5b5f73ffffffffffffffffffffffffffffffffffffffff82169050919050565b5f61011d826100f4565b9050919050565b61012d81610113565b8114610137575f80fd5b50565b5f8151905061014881610124565b92915050565b5f8060408385031215610164576101636100f0565b5b5f6101718582860161013a565b92505060206101828582860161013a565b9150509250929050565b61019581610113565b82525050565b5f6040820190506101ae5f83018561018c565b6101bb602083018461018c565b9392505050565b6106d8806101cf5f395ff3fe608060405234801561000f575f80fd5b506004361061004a575f3560e01c80632f7ca46a1461004e578063343414cc1461006a57806353243aa114610088578063b241331a146100a4575b5f80fd5b61006860048036038101906100639190610405565b6100c2565b005b610072610153565b60405161007f91906104e0565b60405180910390f35b6100a2600480360381019061009d91906104f9565b610176565b005b6100ac610206565b6040516100b99190610585565b60405180910390f35b5f8054906101000a900473ffffffffffffffffffffffffffffffffffffffff1673ffffffffffffffffffffffffffffffffffffffff16632f7ca46a858585856040518563ffffffff1660e01b8152600401610120949392919061061c565b5f604051808303815f87803b158015610137575f80fd5b505af1158015610149573d5f803e3d5ffd5b5050505050505050565b5f8054906101000a900473ffffffffffffffffffffffffffffffffffffffff1681565b60015f9054906101000a900473ffffffffffffffffffffffffffffffffffffffff1673ffffffffffffffffffffffffffffffffffffffff16633aa9c67b8484846040518463ffffffff1660e01b81526004016101d493929190610666565b5f604051808303815f87803b1580156101eb575f80fd5b505af11580156101fd573d5f803e3d5ffd5b50505050505050565b60015f9054906101000a900473ffffffffffffffffffffffffffffffffffffffff1681565b5f604051905090565b5f80fd5b5f80fd5b5f73ffffffffffffffffffffffffffffffffffffffff82169050919050565b5f6102658261023c565b9050919050565b6102758161025b565b811461027f575f80fd5b50565b5f813590506102908161026c565b92915050565b5f819050919050565b6102a881610296565b81146102b2575f80fd5b50565b5f813590506102c38161029f565b92915050565b5f80fd5b5f80fd5b5f601f19601f8301169050919050565b7f4e487b71000000000000000000000000000000000000000000000000000000005f52604160045260245ffd5b610317826102d1565b810181811067ffffffffffffffff82111715610336576103356102e1565b5b80604052505050565b5f61034861022b565b9050610354828261030e565b919050565b5f67ffffffffffffffff821115610373576103726102e1565b5b61037c826102d1565b9050602081019050919050565b828183375f83830152505050565b5f6103a96103a484610359565b61033f565b9050828152602081018484840111156103c5576103c46102cd565b5b6103d0848285610389565b509392505050565b5f82601f8301126103ec576103eb6102c9565b5b81356103fc848260208601610397565b91505092915050565b5f805f806080858703121561041d5761041c610234565b5b5f61042a87828801610282565b945050602061043b87828801610282565b935050604061044c878288016102b5565b925050606085013567ffffffffffffffff81111561046d5761046c610238565b5b610479878288016103d8565b91505092959194509250565b5f819050919050565b5f6104a86104a361049e8461023c565b610485565b61023c565b9050919050565b5f6104b98261048e565b9050919050565b5f6104ca826104af565b9050919050565b6104da816104c0565b82525050565b5f6020820190506104f35f8301846104d1565b92915050565b5f805f606084860312156105105761050f610234565b5b5f61051d86828701610282565b935050602061052e868287016102b5565b925050604084013567ffffffffffffffff81111561054f5761054e610238565b5b61055b868287016103d8565b9150509250925092565b5f61056f826104af565b9050919050565b61057f81610565565b82525050565b5f6020820190506105985f830184610576565b92915050565b6105a78161025b565b82525050565b6105b681610296565b82525050565b5f81519050919050565b5f82825260208201905092915050565b8281835e5f83830152505050565b5f6105ee826105bc565b6105f881856105c6565b93506106088185602086016105d6565b610611816102d1565b840191505092915050565b5f60808201905061062f5f83018761059e565b61063c602083018661059e565b61064960408301856105ad565b818103606083015261065b81846105e4565b905095945050505050565b5f6060820190506106795f83018661059e565b61068660208301856105ad565b818103604083015261069881846105e4565b905094935050505056fea264697066735822122060280dad1fd0e1412d132308950a1795df0228883049f07202b914cfe9b14fd264736f6c634300081a0033",
			"opcodes": "PUSH1 0x80 PUSH1 0x40 MSTORE CALLVALUE DUP1 ISZERO PUSH2 0xF JUMPI PUSH0 DUP1 REVERT JUMPDEST POP PUSH1 0x40 MLOAD PUSH2 0x8A7 CODESIZE SUB DUP1 PUSH2 0x8A7 DUP4 CODECOPY DUP2 DUP2 ADD PUSH1 0x40 MSTORE DUP2 ADD SWAP1 PUSH2 0x31 SWAP2 SWAP1 PUSH2 0x14E JUMP JUMPDEST DUP2 PUSH0 DUP1 PUSH2 0x100 EXP DUP2 SLOAD DUP2 PUSH20 0xFFFFFFFFFFFFFFFFFFFFFFFFFFFFFFFFFFFFFFFF MUL NOT AND SWAP1 DUP4 PUSH20 0xFFFFFFFFFFFFFFFFFFFFFFFFFFFFFFFFFFFFFFFF AND MUL OR SWAP1 SSTORE POP DUP1 PUSH1 0x1 PUSH0 PUSH2 0x100 EXP DUP2 SLOAD DUP2 PUSH20 0xFFFFFFFFFFFFFFFFFFFFFFFFFFFFFFFFFFFFFFFF MUL NOT AND SWAP1 DUP4 PUSH20 0xFFFFFFFFFFFFFFFFFFFFFFFFFFFFFFFFFFFFFFFF AND MUL OR SWAP1 SSTORE POP PUSH32 0x6B19281420ED5047AC7FA36C14BDF06E7B083352E5816B485A2C9CEA4ACF2AB2 DUP3 DUP3 PUSH1 0x40 MLOAD PUSH2 0xE1 SWAP3 SWAP2 SWAP1 PUSH2 0x19B JUMP JUMPDEST PUSH1 0x40 MLOAD DUP1 SWAP2 SUB SWAP1 LOG1 POP POP PUSH2 0x1C2 JUMP JUMPDEST PUSH0 DUP1 REVERT JUMPDEST PUSH0 PUSH20 0xFFFFFFFFFFFFFFFFFFFFFFFFFFFFFFFFFFFFFFFF DUP3 AND SWAP1 POP SWAP2 SWAP1 POP JUMP JUMPDEST PUSH0 PUSH2 0x11D DUP3 PUSH2 0xF4 JUMP JUMPDEST SWAP1 POP SWAP2 SWAP1 POP JUMP JUMPDEST PUSH2 0x12D DUP2 PUSH2 0x113 JUMP JUMPDEST DUP2 EQ PUSH2 0x137 JUMPI PUSH0 DUP1 REVERT JUMPDEST POP JUMP JUMPDEST PUSH0 DUP2 MLOAD SWAP1 POP PUSH2 0x148 DUP2 PUSH2 0x124 JUMP JUMPDEST SWAP3 SWAP2 POP POP JUMP JUMPDEST PUSH0 DUP1 PUSH1 0x40 DUP4 DUP6 SUB SLT ISZERO PUSH2 0x164 JUMPI PUSH2 0x163 PUSH2 0xF0 JUMP JUMPDEST JUMPDEST PUSH0 PUSH2 0x171 DUP6 DUP3 DUP7 ADD PUSH2 0x13A JUMP JUMPDEST SWAP3 POP POP PUSH1 0x20 PUSH2 0x182 DUP6 DUP3 DUP7 ADD PUSH2 0x13A JUMP JUMPDEST SWAP2 POP POP SWAP3 POP SWAP3 SWAP1 POP JUMP JUMPDEST PUSH2 0x195 DUP2 PUSH2 0x113 JUMP JUMPDEST DUP3 MSTORE POP POP JUMP JUMPDEST PUSH0 PUSH1 0x40 DUP3 ADD SWAP1 POP PUSH2 0x1AE PUSH0 DUP4 ADD DUP6 PUSH2 0x18C JUMP JUMPDEST PUSH2 0x1BB PUSH1 0x20 DUP4 ADD DUP5 PUSH2 0x18C JUMP JUMPDEST SWAP4 SWAP3 POP POP POP JUMP JUMPDEST PUSH2 0x6D8 DUP1 PUSH2 0x1CF PUSH0 CODECOPY PUSH0 RETURN INVALID PUSH1 0x80 PUSH1 0x40 MSTORE CALLVALUE DUP1 ISZERO PUSH2 0xF JUMPI PUSH0 DUP1 REVERT JUMPDEST POP PUSH1 0x4 CALLDATASIZE LT PUSH2 0x4A JUMPI PUSH0 CALLDATALOAD PUSH1 0xE0 SHR DUP1 PUSH4 0x2F7CA46A EQ PUSH2 0x4E JUMPI DUP1 PUSH4 0x343414CC EQ PUSH2 0x6A JUMPI DUP1 PUSH4 0x53243AA1 EQ PUSH2 0x88 JUMPI DUP1 PUSH4 0xB241331A EQ PUSH2 0xA4 JUMPI JUMPDEST PUSH0 DUP1 REVERT JUMPDEST PUSH2 0x68 PUSH1 0x4 DUP1 CALLDATASIZE SUB DUP2 ADD SWAP1 PUSH2 0x63 SWAP2 SWAP1 PUSH2 0x405 JUMP JUMPDEST PUSH2 0xC2 JUMP JUMPDEST STOP JUMPDEST PUSH2 0x72 PUSH2 0x153 JUMP JUMPDEST PUSH1 0x40 MLOAD PUSH2 0x7F SWAP2 SWAP1 PUSH2 0x4E0 JUMP JUMPDEST PUSH1 0x40 MLOAD DUP1 SWAP2 SUB SWAP1 RETURN JUMPDEST PUSH2 0xA2 PUSH1 0x4 DUP1 CALLDATASIZE SUB DUP2 ADD SWAP1 PUSH2 0x9D SWAP2 SWAP1 PUSH2 0x4F9 JUMP JUMPDEST PUSH2 0x176 JUMP JUMPDEST STOP JUMPDEST PUSH2 0xAC PUSH2 0x206 JUMP JUMPDEST PUSH1 0x40 MLOAD PUSH2 0xB9 SWAP2 SWAP1 PUSH2 0x585 JUMP JUMPDEST PUSH1 0x40 MLOAD DUP1 SWAP2 SUB SWAP1 RETURN JUMPDEST PUSH0 DUP1 SLOAD SWAP1 PUSH2 0x100 EXP SWAP1 DIV PUSH20 0xFFFFFFFFFFFFFFFFFFFFFFFFFFFFFFFFFFFFFFFF AND PUSH20 0xFFFFFFFFFFFFFFFFFFFFFFFFFFFFFFFFFFFFFFFF AND PUSH4 0x2F7CA46A DUP6 DUP6 DUP6 DUP6 PUSH1 0x40 MLOAD DUP6 PUSH4 0xFFFFFFFF AND PUSH1 0xE0 SHL DUP2 MSTORE PUSH1 0x4 ADD PUSH2 0x120 SWAP5 SWAP4 SWAP3 SWAP2 SWAP1 PUSH2 0x61C JUMP JUMPDEST PUSH0 PUSH1 0x40 MLOAD DUP1 DUP4 SUB DUP2 PUSH0 DUP8 DUP1 EXTCODESIZE ISZERO DUP1 ISZERO PUSH2 0x137 JUMPI PUSH0 DUP1 REVERT JUMPDEST POP GAS CALL ISZERO DUP1 ISZERO PUSH2 0x149 JUMPI RETURNDATASIZE PUSH0 DUP1 RETURNDATACOPY RETURNDATASIZE PUSH0 REVERT JUMPDEST POP POP POP POP POP POP POP POP JUMP JUMPDEST PUSH0 DUP1 SLOAD SWAP1 PUSH2 0x100 EXP SWAP1 DIV PUSH20 0xFFFFFFFFFFFFFFFFFFFFFFFFFFFFFFFFFFFFFFFF AND DUP2 JUMP JUMPDEST PUSH1 0x1 PUSH0 SWAP1 SLOAD SWAP1 PUSH2 0x100 EXP SWAP1 DIV PUSH20 0xFFFFFFFFFFFFFFFFFFFFFFFFFFFFFFFFFFFFFFFF AND PUSH20 0xFFFFFFFFFFFFFFFFFFFFFFFFFFFFFFFFFFFFFFFF AND PUSH4 0x3AA9C67B DUP5 DUP5 DUP5 PUSH1 0x40 MLOAD DUP5 PUSH4 0xFFFFFFFF AND PUSH1 0xE0 SHL DUP2 MSTORE PUSH1 0x4 ADD PUSH2 0x1D4 SWAP4 SWAP3 SWAP2 SWAP1 PUSH2 0x666 JUMP JUMPDEST PUSH0 PUSH1 0x40 MLOAD DUP1 DUP4 SUB DUP2 PUSH0 DUP8 DUP1 EXTCODESIZE ISZERO DUP1 ISZERO PUSH2 0x1EB JUMPI PUSH0 DUP1 REVERT JUMPDEST POP GAS CALL ISZERO DUP1 ISZERO PUSH2 0x1FD JUMPI RETURNDATASIZE PUSH0 DUP1 RETURNDATACOPY RETURNDATASIZE PUSH0 REVERT JUMPDEST POP POP POP POP POP POP POP JUMP JUMPDEST PUSH1 0x1 PUSH0 SWAP1 SLOAD SWAP1 PUSH2 0x100 EXP SWAP1 DIV PUSH20 0xFFFFFFFFFFFFFFFFFFFFFFFFFFFFFFFFFFFFFFFF AND DUP2 JUMP JUMPDEST PUSH0 PUSH1 0x40 MLOAD SWAP1 POP SWAP1 JUMP JUMPDEST PUSH0 DUP1 REVERT JUMPDEST PUSH0 DUP1 REVERT JUMPDEST PUSH0 PUSH20 0xFFFFFFFFFFFFFFFFFFFFFFFFFFFFFFFFFFFFFFFF DUP3 AND SWAP1 POP SWAP2 SWAP1 POP JUMP JUMPDEST PUSH0 PUSH2 0x265 DUP3 PUSH2 0x23C JUMP JUMPDEST SWAP1 POP SWAP2 SWAP1 POP JUMP JUMPDEST PUSH2 0x275 DUP2 PUSH2 0x25B JUMP JUMPDEST DUP2 EQ PUSH2 0x27F JUMPI PUSH0 DUP1 REVERT JUMPDEST POP JUMP JUMPDEST PUSH0 DUP2 CALLDATALOAD SWAP1 POP PUSH2 0x290 DUP2 PUSH2 0x26C JUMP JUMPDEST SWAP3 SWAP2 POP POP JUMP JUMPDEST PUSH0 DUP2 SWAP1 POP SWAP2 SWAP1 POP JUMP JUMPDEST PUSH2 0x2A8 DUP2 PUSH2 0x296 JUMP JUMPDEST DUP2 EQ PUSH2 0x2B2 JUMPI PUSH0 DUP1 REVERT JUMPDEST POP JUMP JUMPDEST PUSH0 DUP2 CALLDATALOAD SWAP1 POP PUSH2 0x2C3 DUP2 PUSH2 0x29F JUMP JUMPDEST SWAP3 SWAP2 POP POP JUMP JUMPDEST PUSH0 DUP1 REVERT JUMPDEST PUSH0 DUP1 REVERT JUMPDEST PUSH0 PUSH1 0x1F NOT PUSH1 0x1F DUP4 ADD AND SWAP1 POP SWAP2 SWAP1 POP JUMP JUMPDEST PUSH32 0x4E487B7100000000000000000000000000000000000000000000000000000000 PUSH0 MSTORE PUSH1 0x41 PUSH1 0x4 MSTORE PUSH1 0x24 PUSH0 REVERT JUMPDEST PUSH2 0x317 DUP3 PUSH2 0x2D1 JUMP JUMPDEST DUP2 ADD DUP2 DUP2 LT PUSH8 0xFFFFFFFFFFFFFFFF DUP3 GT OR ISZERO PUSH2 0x336 JUMPI PUSH2 0x335 PUSH2 0x2E1 JUMP JUMPDEST JUMPDEST DUP1 PUSH1 0x40 MSTORE POP POP POP JUMP JUMPDEST PUSH0 PUSH2 0x348 PUSH2 0x22B JUMP JUMPDEST SWAP1 POP PUSH2 0x354 DUP3 DUP3 PUSH2 0x30E JUMP JUMPDEST SWAP2 SWAP1 POP JUMP JUMPDEST PUSH0 PUSH8 0xFFFFFFFFFFFFFFFF DUP3 GT ISZERO PUSH2 0x373 JUMPI PUSH2 0x372 PUSH2 0x2E1 JUMP JUMPDEST JUMPDEST PUSH2 0x37C DUP3 PUSH2 0x2D1 JUMP JUMPDEST SWAP1 POP PUSH1 0x20 DUP2 ADD SWAP1 POP SWAP2 SWAP1 POP JUMP JUMPDEST DUP3 DUP2 DUP4 CALLDATACOPY PUSH0 DUP4 DUP4 ADD MSTORE POP POP POP JUMP JUMPDEST PUSH0 PUSH2 0x3A9 PUSH2 0x3A4 DUP5 PUSH2 0x359 JUMP JUMPDEST PUSH2 0x33F JUMP JUMPDEST SWAP1 POP DUP3 DUP2 MSTORE PUSH1 0x20 DUP2 ADD DUP5 DUP5 DUP5 ADD GT ISZERO PUSH2 0x3C5 JUMPI PUSH2 0x3C4 PUSH2 0x2CD JUMP JUMPDEST JUMPDEST PUSH2 0x3D0 DUP5 DUP3 DUP6 PUSH2 0x389 JUMP JUMPDEST POP SWAP4 SWAP3 POP POP POP JUMP JUMPDEST PUSH0 DUP3 PUSH1 0x1F DUP4 ADD SLT PUSH2 0x3EC JUMPI PUSH2 0x3EB PUSH2 0x2C9 JUMP JUMPDEST JUMPDEST DUP2 CALLDATALOAD PUSH2 0x3FC DUP5 DUP3 PUSH1 0x20 DUP7 ADD PUSH2 0x397 JUMP JUMPDEST SWAP2 POP POP SWAP3 SWAP2 POP POP JUMP JUMPDEST PUSH0 DUP1 PUSH0 DUP1 PUSH1 0x80 DUP6 DUP8 SUB SLT ISZERO PUSH2 0x41D JUMPI PUSH2 0x41C PUSH2 0x234 JUMP JUMPDEST JUMPDEST PUSH0 PUSH2 0x42A DUP8 DUP3 DUP9 ADD PUSH2 0x282 JUMP JUMPDEST SWAP5 POP POP PUSH1 0x20 PUSH2 0x43B DUP8 DUP3 DUP9 ADD PUSH2 0x282 JUMP JUMPDEST SWAP4 POP POP PUSH1 0x40 PUSH2 0x44C DUP8 DUP3 DUP9 ADD PUSH2 0x2B5 JUMP JUMPDEST SWAP3 POP POP PUSH1 0x60 DUP6 ADD CALLDATALOAD PUSH8 0xFFFFFFFFFFFFFFFF DUP2 GT ISZERO PUSH2 0x46D JUMPI PUSH2 0x46C PUSH2 0x238 JUMP JUMPDEST JUMPDEST PUSH2 0x479 DUP8 DUP3 DUP9 ADD PUSH2 0x3D8 JUMP JUMPDEST SWAP2 POP POP SWAP3 SWAP6 SWAP2 SWAP5 POP SWAP3 POP JUMP JUMPDEST PUSH0 DUP2 SWAP1 POP SWAP2 SWAP1 POP JUMP JUMPDEST PUSH0 PUSH2 0x4A8 PUSH2 0x4A3 PUSH2 0x49E DUP5 PUSH2 0x23C JUMP JUMPDEST PUSH2 0x485 JUMP JUMPDEST PUSH2 0x23C JUMP JUMPDEST SWAP1 POP SWAP2 SWAP1 POP JUMP JUMPDEST PUSH0 PUSH2 0x4B9 DUP3 PUSH2 0x48E JUMP JUMPDEST SWAP1 POP SWAP2 SWAP1 POP JUMP JUMPDEST PUSH0 PUSH2 0x4CA DUP3 PUSH2 0x4AF JUMP JUMPDEST SWAP1 POP SWAP2 SWAP1 POP JUMP JUMPDEST PUSH2 0x4DA DUP2 PUSH2 0x4C0 JUMP JUMPDEST DUP3 MSTORE POP POP JUMP JUMPDEST PUSH0 PUSH1 0x20 DUP3 ADD SWAP1 POP PUSH2 0x4F3 PUSH0 DUP4 ADD DUP5 PUSH2 0x4D1 JUMP JUMPDEST SWAP3 SWAP2 POP POP JUMP JUMPDEST PUSH0 DUP1 PUSH0 PUSH1 0x60 DUP5 DUP7 SUB SLT ISZERO PUSH2 0x510 JUMPI PUSH2 0x50F PUSH2 0x234 JUMP JUMPDEST JUMPDEST PUSH0 PUSH2 0x51D DUP7 DUP3 DUP8 ADD PUSH2 0x282 JUMP JUMPDEST SWAP4 POP POP PUSH1 0x20 PUSH2 0x52E DUP7 DUP3 DUP8 ADD PUSH2 0x2B5 JUMP JUMPDEST SWAP3 POP POP PUSH1 0x40 DUP5 ADD CALLDATALOAD PUSH8 0xFFFFFFFFFFFFFFFF DUP2 GT ISZERO PUSH2 0x54F JUMPI PUSH2 0x54E PUSH2 0x238 JUMP JUMPDEST JUMPDEST PUSH2 0x55B DUP7 DUP3 DUP8 ADD PUSH2 0x3D8 JUMP JUMPDEST SWAP2 POP POP SWAP3 POP SWAP3 POP SWAP3 JUMP JUMPDEST PUSH0 PUSH2 0x56F DUP3 PUSH2 0x4AF JUMP JUMPDEST SWAP1 POP SWAP2 SWAP1 POP JUMP JUMPDEST PUSH2 0x57F DUP2 PUSH2 0x565 JUMP JUMPDEST DUP3 MSTORE POP POP JUMP JUMPDEST PUSH0 PUSH1 0x20 DUP3 ADD SWAP1 POP PUSH2 0x598 PUSH0 DUP4 ADD DUP5 PUSH2 0x576 JUMP JUMPDEST SWAP3 SWAP2 POP POP JUMP JUMPDEST PUSH2 0x5A7 DUP2 PUSH2 0x25B JUMP JUMPDEST DUP3 MSTORE POP POP JUMP JUMPDEST PUSH2 0x5B6 DUP2 PUSH2 0x296 JUMP JUMPDEST DUP3 MSTORE POP POP JUMP JUMPDEST PUSH0 DUP2 MLOAD SWAP1 POP SWAP2 SWAP1 POP JUMP JUMPDEST PUSH0 DUP3 DUP3 MSTORE PUSH1 0x20 DUP3 ADD SWAP1 POP SWAP3 SWAP2 POP POP JUMP JUMPDEST DUP3 DUP2 DUP4 MCOPY PUSH0 DUP4 DUP4 ADD MSTORE POP POP POP JUMP JUMPDEST PUSH0 PUSH2 0x5EE DUP3 PUSH2 0x5BC JUMP JUMPDEST PUSH2 0x5F8 DUP2 DUP6 PUSH2 0x5C6 JUMP JUMPDEST SWAP4 POP PUSH2 0x608 DUP2 DUP6 PUSH1 0x20 DUP7 ADD PUSH2 0x5D6 JUMP JUMPDEST PUSH2 0x611 DUP2 PUSH2 0x2D1 JUMP JUMPDEST DUP5 ADD SWAP2 POP POP SWAP3 SWAP2 POP POP JUMP JUMPDEST PUSH0 PUSH1 0x80 DUP3 ADD SWAP1 POP PUSH2 0x62F PUSH0 DUP4 ADD DUP8 PUSH2 0x59E JUMP JUMPDEST PUSH2 0x63C PUSH1 0x20 DUP4 ADD DUP7 PUSH2 0x59E JUMP JUMPDEST PUSH2 0x649 PUSH1 0x40 DUP4 ADD DUP6 PUSH2 0x5AD JUMP JUMPDEST DUP2 DUP2 SUB PUSH1 0x60 DUP4 ADD MSTORE PUSH2 0x65B DUP2 DUP5 PUSH2 0x5E4 JUMP JUMPDEST SWAP1 POP SWAP6 SWAP5 POP POP POP POP POP JUMP JUMPDEST PUSH0 PUSH1 0x60 DUP3 ADD SWAP1 POP PUSH2 0x679 PUSH0 DUP4 ADD DUP7 PUSH2 0x59E JUMP JUMPDEST PUSH2 0x686 PUSH1 0x20 DUP4 ADD DUP6 PUSH2 0x5AD JUMP JUMPDEST DUP2 DUP2 SUB PUSH1 0x40 DUP4 ADD MSTORE PUSH2 0x698 DUP2 DUP5 PUSH2 0x5E4 JUMP JUMPDEST SWAP1 POP SWAP5 SWAP4 POP POP POP POP JUMP INVALID LOG2 PUSH5 0x6970667358 0x22 SLT KECCAK256 PUSH1 0x28 0xD 0xAD 0x1F 0xD0 0xE1 COINBASE 0x2D SGT 0x23 ADDMOD SWAP6 EXP OR SWAP6 0xDF MUL 0x28 DUP9 ADDRESS BLOBHASH CREATE PUSH19 0x2B914CFE9B14FD264736F6C634300081A0033 "
		},
		"gasEstimates": {
			"creation": {
				"codeDepositCost": "350400",
				"executionCost": "infinite",
				"totalCost": "infinite"
			},
			"external": {
				"crossChainTransfers()": "infinite",
				"initiateCrossChainTransfer(address,uint256,string)": "infinite",
				"interoperability()": "infinite",
				"transferTokens(address,address,uint256,string)": "infinite"
			}
		},
		"methodIdentifiers": {
			"crossChainTransfers()": "b241331a",
			"initiateCrossChainTransfer(address,uint256,string)": "53243aa1",
			"interoperability()": "343414cc",
			"transferTokens(address,address,uint256,string)": "2f7ca46a"
		}
	},
	"abi": [
		{
			"inputs": [
				{
					"internalType": "address",
					"name": "_interoperability",
					"type": "address"
				},
				{
					"internalType": "address",
					"name": "_crossChainTransfers",
					"type": "address"
				}
			],
			"stateMutability": "nonpayable",
			"type": "constructor"
		},
		{
			"anonymous": false,
			"inputs": [
				{
					"indexed": false,
					"internalType": "address",
					"name": "interoperability",
					"type": "address"
				},
				{
					"indexed": false,
					"internalType": "address",
					"name": "crossChainTransfers",
					"type": "address"
				}
			],
			"name": "InteroperabilityInitialized",
			"type": "event"
		},
		{
			"inputs": [],
			"name": "crossChainTransfers",
			"outputs": [
				{
					"internalType": "contract CrossChainTransfers",
					"name": "",
					"type": "address"
				}
			],
			"stateMutability": "view",
			"type": "function"
		},
		{
			"inputs": [
				{
					"internalType": "address",
					"name": "to",
					"type": "address"
				},
				{
					"internalType": "uint256",
					"name": "amount",
					"type": "uint256"
				},
				{
					"internalType": "string",
					"name": "targetChain",
					"type": "string"
				}
			],
			"name": "initiateCrossChainTransfer",
			"outputs": [],
			"stateMutability": "nonpayable",
			"type": "function"
		},
		{
			"inputs": [],
			"name": "interoperability",
			"outputs": [
				{
					"internalType": "contract Interoperability",
					"name": "",
					"type": "address"
				}
			],
			"stateMutability": "view",
			"type": "function"
		},
		{
			"inputs": [
				{
					"internalType": "address",
					"name": "token",
					"type": "address"
				},
				{
					"internalType": "address",
					"name": "to",
					"type": "address"
				},
				{
					"internalType": "uint256",
					"name": "amount",
					"type": "uint256"
				},
				{
					"internalType": "string",
					"name": "targetChain",
					"type": "string"
				}
			],
			"name": "transferTokens",
			"outputs": [],
			"stateMutability": "nonpayable",
			"type": "function"
		}
	]
}