{
	"contracts/bridges/bridge/zksync/facets/Getters.sol": {
		"GettersFacet": {
			"abi": [
				{
					"inputs": [
						{
							"internalType": "bytes4",
							"name": "_selector",
							"type": "bytes4"
						}
					],
					"name": "facetAddress",
					"outputs": [
						{
							"internalType": "address",
							"name": "",
							"type": "address"
						}
					],
					"stateMutability": "view",
					"type": "function"
				},
				{
					"inputs": [],
					"name": "facetAddresses",
					"outputs": [
						{
							"internalType": "address[]",
							"name": "",
							"type": "address[]"
						}
					],
					"stateMutability": "view",
					"type": "function"
				},
				{
					"inputs": [
						{
							"internalType": "address",
							"name": "_facet",
							"type": "address"
						}
					],
					"name": "facetFunctionSelectors",
					"outputs": [
						{
							"internalType": "bytes4[]",
							"name": "",
							"type": "bytes4[]"
						}
					],
					"stateMutability": "view",
					"type": "function"
				},
				{
					"inputs": [],
					"name": "facets",
					"outputs": [
						{
							"components": [
								{
									"internalType": "address",
									"name": "addr",
									"type": "address"
								},
								{
									"internalType": "bytes4[]",
									"name": "selectors",
									"type": "bytes4[]"
								}
							],
							"internalType": "struct IGetters.Facet[]",
							"name": "result",
							"type": "tuple[]"
						}
					],
					"stateMutability": "view",
					"type": "function"
				},
				{
					"inputs": [],
					"name": "getAllowList",
					"outputs": [
						{
							"internalType": "address",
							"name": "",
							"type": "address"
						}
					],
					"stateMutability": "view",
					"type": "function"
				},
				{
					"inputs": [],
					"name": "getFirstUnprocessedPriorityTx",
					"outputs": [
						{
							"internalType": "uint256",
							"name": "",
							"type": "uint256"
						}
					],
					"stateMutability": "view",
					"type": "function"
				},
				{
					"inputs": [],
					"name": "getGovernor",
					"outputs": [
						{
							"internalType": "address",
							"name": "",
							"type": "address"
						}
					],
					"stateMutability": "view",
					"type": "function"
				},
				{
					"inputs": [],
					"name": "getL2BootloaderBytecodeHash",
					"outputs": [
						{
							"internalType": "bytes32",
							"name": "",
							"type": "bytes32"
						}
					],
					"stateMutability": "view",
					"type": "function"
				},
				{
					"inputs": [],
					"name": "getL2DefaultAccountBytecodeHash",
					"outputs": [
						{
							"internalType": "bytes32",
							"name": "",
							"type": "bytes32"
						}
					],
					"stateMutability": "view",
					"type": "function"
				},
				{
					"inputs": [],
					"name": "getL2SystemContractsUpgradeBatchNumber",
					"outputs": [
						{
							"internalType": "uint256",
							"name": "",
							"type": "uint256"
						}
					],
					"stateMutability": "view",
					"type": "function"
				},
				{
					"inputs": [],
					"name": "getL2SystemContractsUpgradeBlockNumber",
					"outputs": [
						{
							"internalType": "uint256",
							"name": "",
							"type": "uint256"
						}
					],
					"stateMutability": "view",
					"type": "function"
				},
				{
					"inputs": [],
					"name": "getL2SystemContractsUpgradeTxHash",
					"outputs": [
						{
							"internalType": "bytes32",
							"name": "",
							"type": "bytes32"
						}
					],
					"stateMutability": "view",
					"type": "function"
				},
				{
					"inputs": [],
					"name": "getName",
					"outputs": [
						{
							"internalType": "string",
							"name": "",
							"type": "string"
						}
					],
					"stateMutability": "view",
					"type": "function"
				},
				{
					"inputs": [],
					"name": "getPendingGovernor",
					"outputs": [
						{
							"internalType": "address",
							"name": "",
							"type": "address"
						}
					],
					"stateMutability": "view",
					"type": "function"
				},
				{
					"inputs": [],
					"name": "getPriorityQueueSize",
					"outputs": [
						{
							"internalType": "uint256",
							"name": "",
							"type": "uint256"
						}
					],
					"stateMutability": "view",
					"type": "function"
				},
				{
					"inputs": [],
					"name": "getPriorityTxMaxGasLimit",
					"outputs": [
						{
							"internalType": "uint256",
							"name": "",
							"type": "uint256"
						}
					],
					"stateMutability": "view",
					"type": "function"
				},
				{
					"inputs": [],
					"name": "getProtocolVersion",
					"outputs": [
						{
							"internalType": "uint256",
							"name": "",
							"type": "uint256"
						}
					],
					"stateMutability": "view",
					"type": "function"
				},
				{
					"inputs": [],
					"name": "getTotalBatchesCommitted",
					"outputs": [
						{
							"internalType": "uint256",
							"name": "",
							"type": "uint256"
						}
					],
					"stateMutability": "view",
					"type": "function"
				},
				{
					"inputs": [],
					"name": "getTotalBatchesExecuted",
					"outputs": [
						{
							"internalType": "uint256",
							"name": "",
							"type": "uint256"
						}
					],
					"stateMutability": "view",
					"type": "function"
				},
				{
					"inputs": [],
					"name": "getTotalBatchesVerified",
					"outputs": [
						{
							"internalType": "uint256",
							"name": "",
							"type": "uint256"
						}
					],
					"stateMutability": "view",
					"type": "function"
				},
				{
					"inputs": [],
					"name": "getTotalBlocksCommitted",
					"outputs": [
						{
							"internalType": "uint256",
							"name": "",
							"type": "uint256"
						}
					],
					"stateMutability": "view",
					"type": "function"
				},
				{
					"inputs": [],
					"name": "getTotalBlocksExecuted",
					"outputs": [
						{
							"internalType": "uint256",
							"name": "",
							"type": "uint256"
						}
					],
					"stateMutability": "view",
					"type": "function"
				},
				{
					"inputs": [],
					"name": "getTotalBlocksVerified",
					"outputs": [
						{
							"internalType": "uint256",
							"name": "",
							"type": "uint256"
						}
					],
					"stateMutability": "view",
					"type": "function"
				},
				{
					"inputs": [],
					"name": "getTotalPriorityTxs",
					"outputs": [
						{
							"internalType": "uint256",
							"name": "",
							"type": "uint256"
						}
					],
					"stateMutability": "view",
					"type": "function"
				},
				{
					"inputs": [],
					"name": "getVerifier",
					"outputs": [
						{
							"internalType": "address",
							"name": "",
							"type": "address"
						}
					],
					"stateMutability": "view",
					"type": "function"
				},
				{
					"inputs": [],
					"name": "getVerifierParams",
					"outputs": [
						{
							"components": [
								{
									"internalType": "bytes32",
									"name": "recursionNodeLevelVkHash",
									"type": "bytes32"
								},
								{
									"internalType": "bytes32",
									"name": "recursionLeafLevelVkHash",
									"type": "bytes32"
								},
								{
									"internalType": "bytes32",
									"name": "recursionCircuitsSetVksHash",
									"type": "bytes32"
								}
							],
							"internalType": "struct VerifierParams",
							"name": "",
							"type": "tuple"
						}
					],
					"stateMutability": "view",
					"type": "function"
				},
				{
					"inputs": [],
					"name": "isDiamondStorageFrozen",
					"outputs": [
						{
							"internalType": "bool",
							"name": "",
							"type": "bool"
						}
					],
					"stateMutability": "view",
					"type": "function"
				},
				{
					"inputs": [
						{
							"internalType": "uint256",
							"name": "_l2BatchNumber",
							"type": "uint256"
						},
						{
							"internalType": "uint256",
							"name": "_l2MessageIndex",
							"type": "uint256"
						}
					],
					"name": "isEthWithdrawalFinalized",
					"outputs": [
						{
							"internalType": "bool",
							"name": "",
							"type": "bool"
						}
					],
					"stateMutability": "view",
					"type": "function"
				},
				{
					"inputs": [
						{
							"internalType": "address",
							"name": "_facet",
							"type": "address"
						}
					],
					"name": "isFacetFreezable",
					"outputs": [
						{
							"internalType": "bool",
							"name": "isFreezable",
							"type": "bool"
						}
					],
					"stateMutability": "view",
					"type": "function"
				},
				{
					"inputs": [
						{
							"internalType": "bytes4",
							"name": "_selector",
							"type": "bytes4"
						}
					],
					"name": "isFunctionFreezable",
					"outputs": [
						{
							"internalType": "bool",
							"name": "",
							"type": "bool"
						}
					],
					"stateMutability": "view",
					"type": "function"
				},
				{
					"inputs": [
						{
							"internalType": "address",
							"name": "_address",
							"type": "address"
						}
					],
					"name": "isValidator",
					"outputs": [
						{
							"internalType": "bool",
							"name": "",
							"type": "bool"
						}
					],
					"stateMutability": "view",
					"type": "function"
				},
				{
					"inputs": [
						{
							"internalType": "uint256",
							"name": "_batchNumber",
							"type": "uint256"
						}
					],
					"name": "l2LogsRootHash",
					"outputs": [
						{
							"internalType": "bytes32",
							"name": "",
							"type": "bytes32"
						}
					],
					"stateMutability": "view",
					"type": "function"
				},
				{
					"inputs": [],
					"name": "priorityQueueFrontOperation",
					"outputs": [
						{
							"components": [
								{
									"internalType": "bytes32",
									"name": "canonicalTxHash",
									"type": "bytes32"
								},
								{
									"internalType": "uint64",
									"name": "expirationTimestamp",
									"type": "uint64"
								},
								{
									"internalType": "uint192",
									"name": "layer2Tip",
									"type": "uint192"
								}
							],
							"internalType": "struct PriorityOperation",
							"name": "",
							"type": "tuple"
						}
					],
					"stateMutability": "view",
					"type": "function"
				},
				{
					"inputs": [
						{
							"internalType": "uint256",
							"name": "_batchNumber",
							"type": "uint256"
						}
					],
					"name": "storedBatchHash",
					"outputs": [
						{
							"internalType": "bytes32",
							"name": "",
							"type": "bytes32"
						}
					],
					"stateMutability": "view",
					"type": "function"
				},
				{
					"inputs": [
						{
							"internalType": "uint256",
							"name": "_batchNumber",
							"type": "uint256"
						}
					],
					"name": "storedBlockHash",
					"outputs": [
						{
							"internalType": "bytes32",
							"name": "",
							"type": "bytes32"
						}
					],
					"stateMutability": "view",
					"type": "function"
				}
			],
			"devdoc": {
				"author": "Matter Labs",
				"custom:security-contact": "security@matterlabs.dev",
				"kind": "dev",
				"methods": {
					"facetAddress(bytes4)": {
						"returns": {
							"_0": "Facet address associated with a selector. Zero if the selector is not added to the diamond"
						}
					},
					"facetAddresses()": {
						"returns": {
							"_0": "NON-sorted array of facet addresses supported on diamond"
						}
					},
					"facetFunctionSelectors(address)": {
						"returns": {
							"_0": "NON-sorted array with function selectors supported by a specific facet"
						}
					},
					"facets()": {
						"returns": {
							"result": "All facet addresses and their function selectors"
						}
					},
					"getAllowList()": {
						"returns": {
							"_0": "The allow list smart contract"
						}
					},
					"getFirstUnprocessedPriorityTx()": {
						"returns": {
							"_0": "Index of the oldest priority operation that wasn't processed yet"
						}
					},
					"getGovernor()": {
						"returns": {
							"_0": "The address of the current governor"
						}
					},
					"getL2BootloaderBytecodeHash()": {
						"returns": {
							"_0": "Bytecode hash of bootloader program."
						}
					},
					"getL2DefaultAccountBytecodeHash()": {
						"returns": {
							"_0": "Bytecode hash of default account (bytecode for EOA)."
						}
					},
					"getL2SystemContractsUpgradeBatchNumber()": {
						"details": "It is equal to 0 in the following two cases: - No upgrade transaction has ever been processed. - The upgrade transaction has been processed and the batch with such transaction has been executed (i.e. finalized).",
						"returns": {
							"_0": "The L2 batch number in which the upgrade transaction was processed."
						}
					},
					"getL2SystemContractsUpgradeBlockNumber()": {
						"details": "It is a *deprecated* method, please use `getL2SystemContractsUpgradeBatchNumber` instead.It is equal to 0 in the following two cases: - No upgrade transaction has ever been processed. - The upgrade transaction has been processed and the batch with such transaction has been executed (i.e. finalized).",
						"returns": {
							"_0": "The L2 batch number in which the upgrade transaction was processed."
						}
					},
					"getL2SystemContractsUpgradeTxHash()": {
						"returns": {
							"_0": "The upgrade system contract transaction hash, 0 if the upgrade is not initialized"
						}
					},
					"getPendingGovernor()": {
						"returns": {
							"_0": "The address of the pending governor"
						}
					},
					"getPriorityQueueSize()": {
						"returns": {
							"_0": "The number of priority operations currently in the queue"
						}
					},
					"getPriorityTxMaxGasLimit()": {
						"returns": {
							"_0": "The maximum number of L2 gas that a user can request for L1 -> L2 transactions"
						}
					},
					"getProtocolVersion()": {
						"returns": {
							"_0": "The current protocol version"
						}
					},
					"getTotalBatchesCommitted()": {
						"returns": {
							"_0": "The total number of batches that were committed"
						}
					},
					"getTotalBatchesExecuted()": {
						"returns": {
							"_0": "The total number of batches that were committed & verified & executed"
						}
					},
					"getTotalBatchesVerified()": {
						"returns": {
							"_0": "The total number of batches that were committed & verified"
						}
					},
					"getTotalBlocksCommitted()": {
						"details": "It is a *deprecated* method, please use `getTotalBatchesCommitted` instead",
						"returns": {
							"_0": "The total number of batches that were committed"
						}
					},
					"getTotalBlocksExecuted()": {
						"details": "It is a *deprecated* method, please use `getTotalBatchesExecuted` instead.",
						"returns": {
							"_0": "The total number of batches that were committed & verified & executed"
						}
					},
					"getTotalBlocksVerified()": {
						"details": "It is a *deprecated* method, please use `getTotalBatchesVerified` instead.",
						"returns": {
							"_0": "The total number of batches that were committed & verified"
						}
					},
					"getTotalPriorityTxs()": {
						"returns": {
							"_0": "The total number of priority operations that were added to the priority queue, including all processed ones"
						}
					},
					"getVerifier()": {
						"returns": {
							"_0": "The address of the verifier smart contract"
						}
					},
					"getVerifierParams()": {
						"returns": {
							"_0": "Verifier parameters."
						}
					},
					"isDiamondStorageFrozen()": {
						"returns": {
							"_0": "Whether the diamond is frozen or not"
						}
					},
					"isEthWithdrawalFinalized(uint256,uint256)": {
						"params": {
							"_l2BatchNumber": "The L2 batch number within which the withdrawal happened.",
							"_l2MessageIndex": "The index of the L2->L1 message denoting the withdrawal."
						},
						"returns": {
							"_0": "Whether a withdrawal has been finalized."
						}
					},
					"isFacetFreezable(address)": {
						"returns": {
							"isFreezable": "Whether the facet can be frozen by the governor or always accessible"
						}
					},
					"isFunctionFreezable(bytes4)": {
						"returns": {
							"_0": "Whether the selector can be frozen by the governor or always accessible"
						}
					},
					"isValidator(address)": {
						"returns": {
							"_0": "Whether the address has a validator access"
						}
					},
					"l2LogsRootHash(uint256)": {
						"returns": {
							"_0": "Merkle root of the tree with L2 logs for the selected batch"
						}
					},
					"priorityQueueFrontOperation()": {
						"returns": {
							"_0": "The first unprocessed priority operation from the queue"
						}
					},
					"storedBatchHash(uint256)": {
						"details": "returns zero for non-committed batches",
						"returns": {
							"_0": "The hash of committed L2 batch."
						}
					},
					"storedBlockHash(uint256)": {
						"details": "It is a *deprecated* method, please use `storedBatchHash` instead.returns zero for non-committed batches",
						"returns": {
							"_0": "The hash of committed L2 batch."
						}
					}
				},
				"title": "Getters Contract implements functions for getting contract state from outside the batchchain.",
				"version": 1
			},
			"evm": {
				"assembly": "    /* \"contracts/bridges/bridge/zksync/facets/Getters.sol\":484:11131  contract GettersFacet is Base, IGetters, ILegacyGetters {... */\n  mstore(0x40, 0x80)\n  callvalue\n  dup1\n  iszero\n  tag_1\n  jumpi\n  0x00\n  dup1\n  revert\ntag_1:\n  pop\n  dataSize(sub_0)\n  dup1\n  dataOffset(sub_0)\n  0x00\n  codecopy\n  0x00\n  return\nstop\n\nsub_0: assembly {\n        /* \"contracts/bridges/bridge/zksync/facets/Getters.sol\":484:11131  contract GettersFacet is Base, IGetters, ILegacyGetters {... */\n      mstore(0x40, 0x80)\n      callvalue\n      dup1\n      iszero\n      tag_1\n      jumpi\n      0x00\n      dup1\n      revert\n    tag_1:\n      pop\n      jumpi(tag_2, lt(calldatasize, 0x04))\n      shr(0xe0, calldataload(0x00))\n      dup1\n      0x9d1b5a81\n      gt\n      tag_38\n      jumpi\n      dup1\n      0xcdffacc6\n      gt\n      tag_39\n      jumpi\n      dup1\n      0xe81e0ba1\n      gt\n      tag_40\n      jumpi\n      dup1\n      0xe81e0ba1\n      eq\n      tag_33\n      jumpi\n      dup1\n      0xef3f0bae\n      eq\n      tag_34\n      jumpi\n      dup1\n      0xfacd743b\n      eq\n      tag_35\n      jumpi\n      dup1\n      0xfd791f3c\n      eq\n      tag_36\n      jumpi\n      dup1\n      0xfe26699e\n      eq\n      tag_37\n      jumpi\n      jump(tag_2)\n    tag_40:\n      dup1\n      0xcdffacc6\n      eq\n      tag_29\n      jumpi\n      dup1\n      0xd86970d8\n      eq\n      tag_30\n      jumpi\n      dup1\n      0xdb1f0bf9\n      eq\n      tag_31\n      jumpi\n      dup1\n      0xe5355c75\n      eq\n      tag_32\n      jumpi\n      jump(tag_2)\n    tag_39:\n      dup1\n      0xaf6a2dcd\n      gt\n      tag_41\n      jumpi\n      dup1\n      0xaf6a2dcd\n      eq\n      tag_24\n      jumpi\n      dup1\n      0xb22dd78e\n      eq\n      tag_25\n      jumpi\n      dup1\n      0xb8c2f66f\n      eq\n      tag_26\n      jumpi\n      dup1\n      0xbd7c5412\n      eq\n      tag_27\n      jumpi\n      dup1\n      0xc3bbd2d7\n      eq\n      tag_28\n      jumpi\n      jump(tag_2)\n    tag_41:\n      dup1\n      0x9d1b5a81\n      eq\n      tag_20\n      jumpi\n      dup1\n      0xa1954fc5\n      eq\n      tag_21\n      jumpi\n      dup1\n      0xa7cd63b7\n      eq\n      tag_22\n      jumpi\n      dup1\n      0xadfca15e\n      eq\n      tag_23\n      jumpi\n      jump(tag_2)\n    tag_38:\n      dup1\n      0x52ef6b2c\n      gt\n      tag_42\n      jumpi\n      dup1\n      0x79823c9a\n      gt\n      tag_43\n      jumpi\n      dup1\n      0x79823c9a\n      eq\n      tag_15\n      jumpi\n      dup1\n      0x7a0ed627\n      eq\n      tag_16\n      jumpi\n      dup1\n      0x7b30c8da\n      eq\n      tag_17\n      jumpi\n      dup1\n      0x8665b150\n      eq\n      tag_18\n      jumpi\n      dup1\n      0x9cd939e4\n      eq\n      tag_19\n      jumpi\n      jump(tag_2)\n    tag_43:\n      dup1\n      0x52ef6b2c\n      eq\n      tag_11\n      jumpi\n      dup1\n      0x56142d7a\n      eq\n      tag_12\n      jumpi\n      dup1\n      0x631f4bac\n      eq\n      tag_13\n      jumpi\n      dup1\n      0x74f4d30d\n      eq\n      tag_14\n      jumpi\n      jump(tag_2)\n    tag_42:\n      dup1\n      0x33ce93fe\n      gt\n      tag_44\n      jumpi\n      dup1\n      0x33ce93fe\n      eq\n      tag_7\n      jumpi\n      dup1\n      0x39607382\n      eq\n      tag_8\n      jumpi\n      dup1\n      0x46657fe9\n      eq\n      tag_9\n      jumpi\n      dup1\n      0x4fc07d75\n      eq\n      tag_10\n      jumpi\n      jump(tag_2)\n    tag_44:\n      dup1\n      0x0ec6b0b7\n      eq\n      tag_3\n      jumpi\n      dup1\n      0x17d7de7c\n      eq\n      tag_4\n      jumpi\n      dup1\n      0x18e3a941\n      eq\n      tag_5\n      jumpi\n      dup1\n      0x29b98c67\n      eq\n      tag_6\n      jumpi\n    tag_2:\n      0x00\n      dup1\n      revert\n        /* \"contracts/bridges/bridge/zksync/facets/Getters.sol\":6267:6384  function getPriorityTxMaxGasLimit() external view returns (uint256) {... */\n    tag_3:\n      tag_45\n      tag_46\n      jump\t// in\n    tag_45:\n      mload(0x40)\n      tag_47\n      swap2\n      swap1\n      tag_48\n      jump\t// in\n    tag_47:\n      mload(0x40)\n      dup1\n      swap2\n      sub\n      swap1\n      return\n        /* \"contracts/bridges/bridge/zksync/facets/Getters.sol\":637:693  string public constant override getName = \"GettersFacet\" */\n    tag_4:\n      tag_49\n      tag_50\n      jump\t// in\n    tag_49:\n      mload(0x40)\n      tag_51\n      swap2\n      swap1\n      tag_52\n      jump\t// in\n    tag_51:\n      mload(0x40)\n      dup1\n      swap2\n      sub\n      swap1\n      return\n        /* \"contracts/bridges/bridge/zksync/facets/Getters.sol\":4199:4316  function getVerifierParams() external view returns (VerifierParams memory) {... */\n    tag_5:\n      tag_53\n      tag_54\n      jump\t// in\n    tag_53:\n      mload(0x40)\n      tag_55\n      swap2\n      swap1\n      tag_56\n      jump\t// in\n    tag_55:\n      mload(0x40)\n      dup1\n      swap2\n      sub\n      swap1\n      return\n        /* \"contracts/bridges/bridge/zksync/facets/Getters.sol\":5270:5444  function isDiamondStorageFrozen() external view returns (bool) {... */\n    tag_6:\n      tag_57\n      tag_58\n      jump\t// in\n    tag_57:\n      mload(0x40)\n      tag_59\n      swap2\n      swap1\n      tag_60\n      jump\t// in\n    tag_59:\n      mload(0x40)\n      dup1\n      swap2\n      sub\n      swap1\n      return\n        /* \"contracts/bridges/bridge/zksync/facets/Getters.sol\":4370:4475  function getProtocolVersion() external view returns (uint256) {... */\n    tag_7:\n      tag_61\n      tag_62\n      jump\t// in\n    tag_61:\n      mload(0x40)\n      tag_63\n      swap2\n      swap1\n      tag_48\n      jump\t// in\n    tag_63:\n      mload(0x40)\n      dup1\n      swap2\n      sub\n      swap1\n      return\n        /* \"contracts/bridges/bridge/zksync/facets/Getters.sol\":10023:10137  function getTotalBlocksExecuted() external view returns (uint256) {... */\n    tag_8:\n      tag_64\n      tag_65\n      jump\t// in\n    tag_64:\n      mload(0x40)\n      tag_66\n      swap2\n      swap1\n      tag_48\n      jump\t// in\n    tag_66:\n      mload(0x40)\n      dup1\n      swap2\n      sub\n      swap1\n      return\n        /* \"contracts/bridges/bridge/zksync/facets/Getters.sol\":948:1048  function getVerifier() external view returns (address) {... */\n    tag_9:\n      tag_67\n      tag_68\n      jump\t// in\n    tag_67:\n      mload(0x40)\n      tag_69\n      swap2\n      swap1\n      tag_70\n      jump\t// in\n    tag_69:\n      mload(0x40)\n      dup1\n      swap2\n      sub\n      swap1\n      return\n        /* \"contracts/bridges/bridge/zksync/facets/Getters.sol\":1109:1200  function getGovernor() external view returns (address) {... */\n    tag_10:\n      tag_71\n      tag_72\n      jump\t// in\n    tag_71:\n      mload(0x40)\n      tag_73\n      swap2\n      swap1\n      tag_70\n      jump\t// in\n    tag_73:\n      mload(0x40)\n      dup1\n      swap2\n      sub\n      swap1\n      return\n        /* \"contracts/bridges/bridge/zksync/facets/Getters.sol\":8582:8758  function facetAddresses() external view returns (address[] memory) {... */\n    tag_11:\n      tag_74\n      tag_75\n      jump\t// in\n    tag_74:\n      mload(0x40)\n      tag_76\n      swap2\n      swap1\n      tag_77\n      jump\t// in\n    tag_76:\n      mload(0x40)\n      dup1\n      swap2\n      sub\n      swap1\n      return\n        /* \"contracts/bridges/bridge/zksync/facets/Getters.sol\":2902:3039  function priorityQueueFrontOperation() external view returns (PriorityOperation memory) {... */\n    tag_12:\n      tag_78\n      tag_79\n      jump\t// in\n    tag_78:\n      mload(0x40)\n      tag_80\n      swap2\n      swap1\n      tag_81\n      jump\t// in\n    tag_80:\n      mload(0x40)\n      dup1\n      swap2\n      sub\n      swap1\n      return\n        /* \"contracts/bridges/bridge/zksync/facets/Getters.sol\":2706:2821  function getPriorityQueueSize() external view returns (uint256) {... */\n    tag_13:\n      tag_82\n      tag_83\n      jump\t// in\n    tag_82:\n      mload(0x40)\n      tag_84\n      swap2\n      swap1\n      tag_48\n      jump\t// in\n    tag_84:\n      mload(0x40)\n      dup1\n      swap2\n      sub\n      swap1\n      return\n        /* \"contracts/bridges/bridge/zksync/facets/Getters.sol\":10395:10533  function storedBlockHash(uint256 _batchNumber) external view returns (bytes32) {... */\n    tag_14:\n      tag_85\n      0x04\n      dup1\n      calldatasize\n      sub\n      dup2\n      add\n      swap1\n      tag_86\n      swap2\n      swap1\n      tag_87\n      jump\t// in\n    tag_86:\n      tag_88\n      jump\t// in\n    tag_85:\n      mload(0x40)\n      tag_89\n      swap2\n      swap1\n      tag_90\n      jump\t// in\n    tag_89:\n      mload(0x40)\n      dup1\n      swap2\n      sub\n      swap1\n      return\n        /* \"contracts/bridges/bridge/zksync/facets/Getters.sol\":2478:2624  function getFirstUnprocessedPriorityTx() external view returns (uint256) {... */\n    tag_15:\n      tag_91\n      tag_92\n      jump\t// in\n    tag_91:\n      mload(0x40)\n      tag_93\n      swap2\n      swap1\n      tag_48\n      jump\t// in\n    tag_93:\n      mload(0x40)\n      dup1\n      swap2\n      sub\n      swap1\n      return\n        /* \"contracts/bridges/bridge/zksync/facets/Getters.sol\":7645:8179  function facets() external view returns (Facet[] memory result) {... */\n    tag_16:\n      tag_94\n      tag_95\n      jump\t// in\n    tag_94:\n      mload(0x40)\n      tag_96\n      swap2\n      swap1\n      tag_97\n      jump\t// in\n    tag_96:\n      mload(0x40)\n      dup1\n      swap2\n      sub\n      swap1\n      return\n        /* \"contracts/bridges/bridge/zksync/facets/Getters.sol\":4582:4717  function getL2SystemContractsUpgradeTxHash() external view returns (bytes32) {... */\n    tag_17:\n      tag_98\n      tag_99\n      jump\t// in\n    tag_98:\n      mload(0x40)\n      tag_100\n      swap2\n      swap1\n      tag_90\n      jump\t// in\n    tag_100:\n      mload(0x40)\n      dup1\n      swap2\n      sub\n      swap1\n      return\n        /* \"contracts/bridges/bridge/zksync/facets/Getters.sol\":1261:1366  function getPendingGovernor() external view returns (address) {... */\n    tag_18:\n      tag_101\n      tag_102\n      jump\t// in\n    tag_101:\n      mload(0x40)\n      tag_103\n      swap2\n      swap1\n      tag_70\n      jump\t// in\n    tag_103:\n      mload(0x40)\n      dup1\n      swap2\n      sub\n      swap1\n      return\n        /* \"contracts/bridges/bridge/zksync/facets/Getters.sol\":3308:3444  function l2LogsRootHash(uint256 _batchNumber) external view returns (bytes32) {... */\n    tag_19:\n      tag_104\n      0x04\n      dup1\n      calldatasize\n      sub\n      dup2\n      add\n      swap1\n      tag_105\n      swap2\n      swap1\n      tag_87\n      jump\t// in\n    tag_105:\n      tag_106\n      jump\t// in\n    tag_104:\n      mload(0x40)\n      tag_107\n      swap2\n      swap1\n      tag_90\n      jump\t// in\n    tag_107:\n      mload(0x40)\n      dup1\n      swap2\n      sub\n      swap1\n      return\n        /* \"contracts/bridges/bridge/zksync/facets/Getters.sol\":10983:11128  function getL2SystemContractsUpgradeBlockNumber() external view returns (uint256) {... */\n    tag_20:\n      tag_108\n      tag_109\n      jump\t// in\n    tag_108:\n      mload(0x40)\n      tag_110\n      swap2\n      swap1\n      tag_48\n      jump\t// in\n    tag_110:\n      mload(0x40)\n      dup1\n      swap2\n      sub\n      swap1\n      return\n        /* \"contracts/bridges/bridge/zksync/facets/Getters.sol\":2098:2224  function getTotalPriorityTxs() external view returns (uint256) {... */\n    tag_21:\n      tag_111\n      tag_112\n      jump\t// in\n    tag_111:\n      mload(0x40)\n      tag_113\n      swap2\n      swap1\n      tag_48\n      jump\t// in\n    tag_113:\n      mload(0x40)\n      dup1\n      swap2\n      sub\n      swap1\n      return\n        /* \"contracts/bridges/bridge/zksync/facets/Getters.sol\":6439:6541  function getAllowList() external view returns (address) {... */\n    tag_22:\n      tag_114\n      tag_115\n      jump\t// in\n    tag_114:\n      mload(0x40)\n      tag_116\n      swap2\n      swap1\n      tag_70\n      jump\t// in\n    tag_116:\n      mload(0x40)\n      dup1\n      swap2\n      sub\n      swap1\n      return\n        /* \"contracts/bridges/bridge/zksync/facets/Getters.sol\":8275:8500  function facetFunctionSelectors(address _facet) external view returns (bytes4[] memory) {... */\n    tag_23:\n      tag_117\n      0x04\n      dup1\n      calldatasize\n      sub\n      dup2\n      add\n      swap1\n      tag_118\n      swap2\n      swap1\n      tag_119\n      jump\t// in\n    tag_118:\n      tag_120\n      jump\t// in\n    tag_117:\n      mload(0x40)\n      tag_121\n      swap2\n      swap1\n      tag_122\n      jump\t// in\n    tag_121:\n      mload(0x40)\n      dup1\n      swap2\n      sub\n      swap1\n      return\n        /* \"contracts/bridges/bridge/zksync/facets/Getters.sol\":9725:9839  function getTotalBlocksVerified() external view returns (uint256) {... */\n    tag_24:\n      tag_123\n      tag_124\n      jump\t// in\n    tag_123:\n      mload(0x40)\n      tag_125\n      swap2\n      swap1\n      tag_48\n      jump\t// in\n    tag_125:\n      mload(0x40)\n      dup1\n      swap2\n      sub\n      swap1\n      return\n        /* \"contracts/bridges/bridge/zksync/facets/Getters.sol\":3621:3759  function storedBatchHash(uint256 _batchNumber) external view returns (bytes32) {... */\n    tag_25:\n      tag_126\n      0x04\n      dup1\n      calldatasize\n      sub\n      dup2\n      add\n      swap1\n      tag_127\n      swap2\n      swap1\n      tag_87\n      jump\t// in\n    tag_127:\n      tag_128\n      jump\t// in\n    tag_126:\n      mload(0x40)\n      tag_129\n      swap2\n      swap1\n      tag_90\n      jump\t// in\n    tag_129:\n      mload(0x40)\n      dup1\n      swap2\n      sub\n      swap1\n      return\n        /* \"contracts/bridges/bridge/zksync/facets/Getters.sol\":1850:1965  function getTotalBatchesExecuted() external view returns (uint256) {... */\n    tag_26:\n      tag_130\n      tag_131\n      jump\t// in\n    tag_130:\n      mload(0x40)\n      tag_132\n      swap2\n      swap1\n      tag_48\n      jump\t// in\n    tag_132:\n      mload(0x40)\n      dup1\n      swap2\n      sub\n      swap1\n      return\n        /* \"contracts/bridges/bridge/zksync/facets/Getters.sol\":7181:7378  function isEthWithdrawalFinalized(uint256 _l2BatchNumber, uint256 _l2MessageIndex) external view returns (bool) {... */\n    tag_27:\n      tag_133\n      0x04\n      dup1\n      calldatasize\n      sub\n      dup2\n      add\n      swap1\n      tag_134\n      swap2\n      swap1\n      tag_135\n      jump\t// in\n    tag_134:\n      tag_136\n      jump\t// in\n    tag_133:\n      mload(0x40)\n      tag_137\n      swap2\n      swap1\n      tag_60\n      jump\t// in\n    tag_137:\n      mload(0x40)\n      dup1\n      swap2\n      sub\n      swap1\n      return\n        /* \"contracts/bridges/bridge/zksync/facets/Getters.sol\":5550:6163  function isFacetFreezable(address _facet) external view returns (bool isFreezable) {... */\n    tag_28:\n      tag_138\n      0x04\n      dup1\n      calldatasize\n      sub\n      dup2\n      add\n      swap1\n      tag_139\n      swap2\n      swap1\n      tag_119\n      jump\t// in\n    tag_139:\n      tag_140\n      jump\t// in\n    tag_138:\n      mload(0x40)\n      tag_141\n      swap2\n      swap1\n      tag_60\n      jump\t// in\n    tag_141:\n      mload(0x40)\n      dup1\n      swap2\n      sub\n      swap1\n      return\n        /* \"contracts/bridges/bridge/zksync/facets/Getters.sol\":8874:9088  function facetAddress(bytes4 _selector) external view returns (address) {... */\n    tag_29:\n      tag_142\n      0x04\n      dup1\n      calldatasize\n      sub\n      dup2\n      add\n      swap1\n      tag_143\n      swap2\n      swap1\n      tag_144\n      jump\t// in\n    tag_143:\n      tag_145\n      jump\t// in\n    tag_142:\n      mload(0x40)\n      tag_146\n      swap2\n      swap1\n      tag_70\n      jump\t// in\n    tag_146:\n      mload(0x40)\n      dup1\n      swap2\n      sub\n      swap1\n      return\n        /* \"contracts/bridges/bridge/zksync/facets/Getters.sol\":3821:3944  function getL2BootloaderBytecodeHash() external view returns (bytes32) {... */\n    tag_30:\n      tag_147\n      tag_148\n      jump\t// in\n    tag_147:\n      mload(0x40)\n      tag_149\n      swap2\n      swap1\n      tag_90\n      jump\t// in\n    tag_149:\n      mload(0x40)\n      dup1\n      swap2\n      sub\n      swap1\n      return\n        /* \"contracts/bridges/bridge/zksync/facets/Getters.sol\":1439:1556  function getTotalBatchesCommitted() external view returns (uint256) {... */\n    tag_31:\n      tag_150\n      tag_151\n      jump\t// in\n    tag_150:\n      mload(0x40)\n      tag_152\n      swap2\n      swap1\n      tag_48\n      jump\t// in\n    tag_152:\n      mload(0x40)\n      dup1\n      swap2\n      sub\n      swap1\n      return\n        /* \"contracts/bridges/bridge/zksync/facets/Getters.sol\":5063:5208  function getL2SystemContractsUpgradeBatchNumber() external view returns (uint256) {... */\n    tag_32:\n      tag_153\n      tag_154\n      jump\t// in\n    tag_153:\n      mload(0x40)\n      tag_155\n      swap2\n      swap1\n      tag_48\n      jump\t// in\n    tag_155:\n      mload(0x40)\n      dup1\n      swap2\n      sub\n      swap1\n      return\n        /* \"contracts/bridges/bridge/zksync/facets/Getters.sol\":6638:6937  function isFunctionFreezable(bytes4 _selector) external view returns (bool) {... */\n    tag_33:\n      tag_156\n      0x04\n      dup1\n      calldatasize\n      sub\n      dup2\n      add\n      swap1\n      tag_157\n      swap2\n      swap1\n      tag_144\n      jump\t// in\n    tag_157:\n      tag_158\n      jump\t// in\n    tag_156:\n      mload(0x40)\n      tag_159\n      swap2\n      swap1\n      tag_60\n      jump\t// in\n    tag_159:\n      mload(0x40)\n      dup1\n      swap2\n      sub\n      swap1\n      return\n        /* \"contracts/bridges/bridge/zksync/facets/Getters.sol\":1640:1755  function getTotalBatchesVerified() external view returns (uint256) {... */\n    tag_34:\n      tag_160\n      tag_161\n      jump\t// in\n    tag_160:\n      mload(0x40)\n      tag_162\n      swap2\n      swap1\n      tag_48\n      jump\t// in\n    tag_162:\n      mload(0x40)\n      dup1\n      swap2\n      sub\n      swap1\n      return\n        /* \"contracts/bridges/bridge/zksync/facets/Getters.sol\":3107:3223  function isValidator(address _address) external view returns (bool) {... */\n    tag_35:\n      tag_163\n      0x04\n      dup1\n      calldatasize\n      sub\n      dup2\n      add\n      swap1\n      tag_164\n      swap2\n      swap1\n      tag_119\n      jump\t// in\n    tag_164:\n      tag_165\n      jump\t// in\n    tag_163:\n      mload(0x40)\n      tag_166\n      swap2\n      swap1\n      tag_60\n      jump\t// in\n    tag_166:\n      mload(0x40)\n      dup1\n      swap2\n      sub\n      swap1\n      return\n        /* \"contracts/bridges/bridge/zksync/facets/Getters.sol\":4022:4153  function getL2DefaultAccountBytecodeHash() external view returns (bytes32) {... */\n    tag_36:\n      tag_167\n      tag_168\n      jump\t// in\n    tag_167:\n      mload(0x40)\n      tag_169\n      swap2\n      swap1\n      tag_90\n      jump\t// in\n    tag_169:\n      mload(0x40)\n      dup1\n      swap2\n      sub\n      swap1\n      return\n        /* \"contracts/bridges/bridge/zksync/facets/Getters.sol\":9436:9552  function getTotalBlocksCommitted() external view returns (uint256) {... */\n    tag_37:\n      tag_170\n      tag_171\n      jump\t// in\n    tag_170:\n      mload(0x40)\n      tag_172\n      swap2\n      swap1\n      tag_48\n      jump\t// in\n    tag_172:\n      mload(0x40)\n      dup1\n      swap2\n      sub\n      swap1\n      return\n        /* \"contracts/bridges/bridge/zksync/facets/Getters.sol\":6267:6384  function getPriorityTxMaxGasLimit() external view returns (uint256) {... */\n    tag_46:\n        /* \"contracts/bridges/bridge/zksync/facets/Getters.sol\":6326:6333  uint256 */\n      0x00\n        /* \"contracts/bridges/bridge/zksync/facets/Getters.sol\":6353:6354  s */\n      dup1\n        /* \"contracts/bridges/bridge/zksync/facets/Getters.sol\":6353:6376  s.priorityTxMaxGasLimit */\n      0x1a\n      add\n      sload\n        /* \"contracts/bridges/bridge/zksync/facets/Getters.sol\":6346:6376  return s.priorityTxMaxGasLimit */\n      swap1\n      pop\n        /* \"contracts/bridges/bridge/zksync/facets/Getters.sol\":6267:6384  function getPriorityTxMaxGasLimit() external view returns (uint256) {... */\n      swap1\n      jump\t// out\n        /* \"contracts/bridges/bridge/zksync/facets/Getters.sol\":637:693  string public constant override getName = \"GettersFacet\" */\n    tag_50:\n      mload(0x40)\n      dup1\n      0x40\n      add\n      0x40\n      mstore\n      dup1\n      0x0c\n      dup2\n      mstore\n      0x20\n      add\n      0x4765747465727346616365740000000000000000000000000000000000000000\n      dup2\n      mstore\n      pop\n      dup2\n      jump\t// out\n        /* \"contracts/bridges/bridge/zksync/facets/Getters.sol\":4199:4316  function getVerifierParams() external view returns (VerifierParams memory) {... */\n    tag_54:\n        /* \"contracts/bridges/bridge/zksync/facets/Getters.sol\":4251:4272  VerifierParams memory */\n      tag_174\n      tag_175\n      jump\t// in\n    tag_174:\n        /* \"contracts/bridges/bridge/zksync/facets/Getters.sol\":4292:4293  s */\n      0x00\n        /* \"contracts/bridges/bridge/zksync/facets/Getters.sol\":4292:4308  s.verifierParams */\n      0x14\n      add\n        /* \"contracts/bridges/bridge/zksync/facets/Getters.sol\":4285:4308  return s.verifierParams */\n      mload(0x40)\n      dup1\n      0x60\n      add\n      0x40\n      mstore\n      swap1\n      dup2\n      0x00\n      dup3\n      add\n      sload\n      dup2\n      mstore\n      0x20\n      add\n      0x01\n      dup3\n      add\n      sload\n      dup2\n      mstore\n      0x20\n      add\n      0x02\n      dup3\n      add\n      sload\n      dup2\n      mstore\n      pop\n      pop\n      swap1\n      pop\n        /* \"contracts/bridges/bridge/zksync/facets/Getters.sol\":4199:4316  function getVerifierParams() external view returns (VerifierParams memory) {... */\n      swap1\n      jump\t// out\n        /* \"contracts/bridges/bridge/zksync/facets/Getters.sol\":5270:5444  function isDiamondStorageFrozen() external view returns (bool) {... */\n    tag_58:\n        /* \"contracts/bridges/bridge/zksync/facets/Getters.sol\":5327:5331  bool */\n      0x00\n        /* \"contracts/bridges/bridge/zksync/facets/Getters.sol\":5344:5377  Diamond.DiamondStorage storage ds */\n      dup1\n        /* \"contracts/bridges/bridge/zksync/facets/Getters.sol\":5380:5407  Diamond.getDiamondStorage() */\n      tag_178\n        /* \"contracts/bridges/bridge/zksync/facets/Getters.sol\":5380:5405  Diamond.getDiamondStorage */\n      tag_179\n        /* \"contracts/bridges/bridge/zksync/facets/Getters.sol\":5380:5407  Diamond.getDiamondStorage() */\n      jump\t// in\n    tag_178:\n        /* \"contracts/bridges/bridge/zksync/facets/Getters.sol\":5344:5407  Diamond.DiamondStorage storage ds = Diamond.getDiamondStorage() */\n      swap1\n      pop\n        /* \"contracts/bridges/bridge/zksync/facets/Getters.sol\":5425:5427  ds */\n      dup1\n        /* \"contracts/bridges/bridge/zksync/facets/Getters.sol\":5425:5436  ds.isFrozen */\n      0x03\n      add\n      0x00\n      swap1\n      sload\n      swap1\n      0x0100\n      exp\n      swap1\n      div\n      0xff\n      and\n        /* \"contracts/bridges/bridge/zksync/facets/Getters.sol\":5418:5436  return ds.isFrozen */\n      swap2\n      pop\n      pop\n        /* \"contracts/bridges/bridge/zksync/facets/Getters.sol\":5270:5444  function isDiamondStorageFrozen() external view returns (bool) {... */\n      swap1\n      jump\t// out\n        /* \"contracts/bridges/bridge/zksync/facets/Getters.sol\":4370:4475  function getProtocolVersion() external view returns (uint256) {... */\n    tag_62:\n        /* \"contracts/bridges/bridge/zksync/facets/Getters.sol\":4423:4430  uint256 */\n      0x00\n        /* \"contracts/bridges/bridge/zksync/facets/Getters.sol\":4450:4451  s */\n      dup1\n        /* \"contracts/bridges/bridge/zksync/facets/Getters.sol\":4450:4467  s.protocolVersion */\n      0x21\n      add\n      sload\n        /* \"contracts/bridges/bridge/zksync/facets/Getters.sol\":4443:4467  return s.protocolVersion */\n      swap1\n      pop\n        /* \"contracts/bridges/bridge/zksync/facets/Getters.sol\":4370:4475  function getProtocolVersion() external view returns (uint256) {... */\n      swap1\n      jump\t// out\n        /* \"contracts/bridges/bridge/zksync/facets/Getters.sol\":10023:10137  function getTotalBlocksExecuted() external view returns (uint256) {... */\n    tag_65:\n        /* \"contracts/bridges/bridge/zksync/facets/Getters.sol\":10080:10087  uint256 */\n      0x00\n        /* \"contracts/bridges/bridge/zksync/facets/Getters.sol\":10107:10108  s */\n      dup1\n        /* \"contracts/bridges/bridge/zksync/facets/Getters.sol\":10107:10129  s.totalBatchesExecuted */\n      0x0b\n      add\n      sload\n        /* \"contracts/bridges/bridge/zksync/facets/Getters.sol\":10100:10129  return s.totalBatchesExecuted */\n      swap1\n      pop\n        /* \"contracts/bridges/bridge/zksync/facets/Getters.sol\":10023:10137  function getTotalBlocksExecuted() external view returns (uint256) {... */\n      swap1\n      jump\t// out\n        /* \"contracts/bridges/bridge/zksync/facets/Getters.sol\":948:1048  function getVerifier() external view returns (address) {... */\n    tag_68:\n        /* \"contracts/bridges/bridge/zksync/facets/Getters.sol\":994:1001  address */\n      0x00\n        /* \"contracts/bridges/bridge/zksync/facets/Getters.sol\":1029:1030  s */\n      dup1\n        /* \"contracts/bridges/bridge/zksync/facets/Getters.sol\":1029:1039  s.verifier */\n      0x0a\n      add\n      0x00\n      swap1\n      sload\n      swap1\n      0x0100\n      exp\n      swap1\n      div\n      0xffffffffffffffffffffffffffffffffffffffff\n      and\n        /* \"contracts/bridges/bridge/zksync/facets/Getters.sol\":1014:1040  return address(s.verifier) */\n      swap1\n      pop\n        /* \"contracts/bridges/bridge/zksync/facets/Getters.sol\":948:1048  function getVerifier() external view returns (address) {... */\n      swap1\n      jump\t// out\n        /* \"contracts/bridges/bridge/zksync/facets/Getters.sol\":1109:1200  function getGovernor() external view returns (address) {... */\n    tag_72:\n        /* \"contracts/bridges/bridge/zksync/facets/Getters.sol\":1155:1162  address */\n      0x00\n        /* \"contracts/bridges/bridge/zksync/facets/Getters.sol\":1182:1183  s */\n      dup1\n        /* \"contracts/bridges/bridge/zksync/facets/Getters.sol\":1182:1192  s.governor */\n      0x07\n      add\n      0x00\n      swap1\n      sload\n      swap1\n      0x0100\n      exp\n      swap1\n      div\n      0xffffffffffffffffffffffffffffffffffffffff\n      and\n        /* \"contracts/bridges/bridge/zksync/facets/Getters.sol\":1175:1192  return s.governor */\n      swap1\n      pop\n        /* \"contracts/bridges/bridge/zksync/facets/Getters.sol\":1109:1200  function getGovernor() external view returns (address) {... */\n      swap1\n      jump\t// out\n        /* \"contracts/bridges/bridge/zksync/facets/Getters.sol\":8582:8758  function facetAddresses() external view returns (address[] memory) {... */\n    tag_75:\n        /* \"contracts/bridges/bridge/zksync/facets/Getters.sol\":8631:8647  address[] memory */\n      0x60\n        /* \"contracts/bridges/bridge/zksync/facets/Getters.sol\":8660:8693  Diamond.DiamondStorage storage ds */\n      0x00\n        /* \"contracts/bridges/bridge/zksync/facets/Getters.sol\":8696:8723  Diamond.getDiamondStorage() */\n      tag_185\n        /* \"contracts/bridges/bridge/zksync/facets/Getters.sol\":8696:8721  Diamond.getDiamondStorage */\n      tag_179\n        /* \"contracts/bridges/bridge/zksync/facets/Getters.sol\":8696:8723  Diamond.getDiamondStorage() */\n      jump\t// in\n    tag_185:\n        /* \"contracts/bridges/bridge/zksync/facets/Getters.sol\":8660:8723  Diamond.DiamondStorage storage ds = Diamond.getDiamondStorage() */\n      swap1\n      pop\n        /* \"contracts/bridges/bridge/zksync/facets/Getters.sol\":8741:8743  ds */\n      dup1\n        /* \"contracts/bridges/bridge/zksync/facets/Getters.sol\":8741:8750  ds.facets */\n      0x02\n      add\n        /* \"contracts/bridges/bridge/zksync/facets/Getters.sol\":8734:8750  return ds.facets */\n      dup1\n      sload\n      dup1\n      0x20\n      mul\n      0x20\n      add\n      mload(0x40)\n      swap1\n      dup2\n      add\n      0x40\n      mstore\n      dup1\n      swap3\n      swap2\n      swap1\n      dup2\n      dup2\n      mstore\n      0x20\n      add\n      dup3\n      dup1\n      sload\n      dup1\n      iszero\n      tag_186\n      jumpi\n      0x20\n      mul\n      dup3\n      add\n      swap2\n      swap1\n      0x00\n      mstore\n      keccak256(0x00, 0x20)\n      swap1\n    tag_187:\n      dup2\n      0x00\n      swap1\n      sload\n      swap1\n      0x0100\n      exp\n      swap1\n      div\n      0xffffffffffffffffffffffffffffffffffffffff\n      and\n      0xffffffffffffffffffffffffffffffffffffffff\n      and\n      dup2\n      mstore\n      0x20\n      add\n      swap1\n      0x01\n      add\n      swap1\n      dup1\n      dup4\n      gt\n      tag_187\n      jumpi\n    tag_186:\n      pop\n      pop\n      pop\n      pop\n      pop\n      swap2\n      pop\n      pop\n        /* \"contracts/bridges/bridge/zksync/facets/Getters.sol\":8582:8758  function facetAddresses() external view returns (address[] memory) {... */\n      swap1\n      jump\t// out\n        /* \"contracts/bridges/bridge/zksync/facets/Getters.sol\":2902:3039  function priorityQueueFrontOperation() external view returns (PriorityOperation memory) {... */\n    tag_79:\n        /* \"contracts/bridges/bridge/zksync/facets/Getters.sol\":2964:2988  PriorityOperation memory */\n      tag_188\n      tag_189\n      jump\t// in\n    tag_188:\n        /* \"contracts/bridges/bridge/zksync/facets/Getters.sol\":3008:3031  s.priorityQueue.front() */\n      tag_191\n        /* \"contracts/bridges/bridge/zksync/facets/Getters.sol\":3008:3009  s */\n      0x00\n        /* \"contracts/bridges/bridge/zksync/facets/Getters.sol\":3008:3023  s.priorityQueue */\n      0x10\n      add\n        /* \"contracts/bridges/bridge/zksync/facets/Getters.sol\":3008:3029  s.priorityQueue.front */\n      tag_192\n        /* \"contracts/bridges/bridge/zksync/facets/Getters.sol\":3008:3031  s.priorityQueue.front() */\n      jump\t// in\n    tag_191:\n        /* \"contracts/bridges/bridge/zksync/facets/Getters.sol\":3001:3031  return s.priorityQueue.front() */\n      swap1\n      pop\n        /* \"contracts/bridges/bridge/zksync/facets/Getters.sol\":2902:3039  function priorityQueueFrontOperation() external view returns (PriorityOperation memory) {... */\n      swap1\n      jump\t// out\n        /* \"contracts/bridges/bridge/zksync/facets/Getters.sol\":2706:2821  function getPriorityQueueSize() external view returns (uint256) {... */\n    tag_83:\n        /* \"contracts/bridges/bridge/zksync/facets/Getters.sol\":2761:2768  uint256 */\n      0x00\n        /* \"contracts/bridges/bridge/zksync/facets/Getters.sol\":2788:2813  s.priorityQueue.getSize() */\n      tag_194\n        /* \"contracts/bridges/bridge/zksync/facets/Getters.sol\":2788:2789  s */\n      0x00\n        /* \"contracts/bridges/bridge/zksync/facets/Getters.sol\":2788:2803  s.priorityQueue */\n      0x10\n      add\n        /* \"contracts/bridges/bridge/zksync/facets/Getters.sol\":2788:2811  s.priorityQueue.getSize */\n      tag_195\n        /* \"contracts/bridges/bridge/zksync/facets/Getters.sol\":2788:2813  s.priorityQueue.getSize() */\n      jump\t// in\n    tag_194:\n        /* \"contracts/bridges/bridge/zksync/facets/Getters.sol\":2781:2813  return s.priorityQueue.getSize() */\n      swap1\n      pop\n        /* \"contracts/bridges/bridge/zksync/facets/Getters.sol\":2706:2821  function getPriorityQueueSize() external view returns (uint256) {... */\n      swap1\n      jump\t// out\n        /* \"contracts/bridges/bridge/zksync/facets/Getters.sol\":10395:10533  function storedBlockHash(uint256 _batchNumber) external view returns (bytes32) {... */\n    tag_88:\n        /* \"contracts/bridges/bridge/zksync/facets/Getters.sol\":10465:10472  bytes32 */\n      0x00\n        /* \"contracts/bridges/bridge/zksync/facets/Getters.sol\":10492:10493  s */\n      dup1\n        /* \"contracts/bridges/bridge/zksync/facets/Getters.sol\":10492:10511  s.storedBatchHashes */\n      0x0e\n      add\n        /* \"contracts/bridges/bridge/zksync/facets/Getters.sol\":10492:10525  s.storedBatchHashes[_batchNumber] */\n      0x00\n        /* \"contracts/bridges/bridge/zksync/facets/Getters.sol\":10512:10524  _batchNumber */\n      dup4\n        /* \"contracts/bridges/bridge/zksync/facets/Getters.sol\":10492:10525  s.storedBatchHashes[_batchNumber] */\n      dup2\n      mstore\n      0x20\n      add\n      swap1\n      dup2\n      mstore\n      0x20\n      add\n      0x00\n      keccak256\n      sload\n        /* \"contracts/bridges/bridge/zksync/facets/Getters.sol\":10485:10525  return s.storedBatchHashes[_batchNumber] */\n      swap1\n      pop\n        /* \"contracts/bridges/bridge/zksync/facets/Getters.sol\":10395:10533  function storedBlockHash(uint256 _batchNumber) external view returns (bytes32) {... */\n      swap2\n      swap1\n      pop\n      jump\t// out\n        /* \"contracts/bridges/bridge/zksync/facets/Getters.sol\":2478:2624  function getFirstUnprocessedPriorityTx() external view returns (uint256) {... */\n    tag_92:\n        /* \"contracts/bridges/bridge/zksync/facets/Getters.sol\":2542:2549  uint256 */\n      0x00\n        /* \"contracts/bridges/bridge/zksync/facets/Getters.sol\":2569:2616  s.priorityQueue.getFirstUnprocessedPriorityTx() */\n      tag_198\n        /* \"contracts/bridges/bridge/zksync/facets/Getters.sol\":2569:2570  s */\n      0x00\n        /* \"contracts/bridges/bridge/zksync/facets/Getters.sol\":2569:2584  s.priorityQueue */\n      0x10\n      add\n        /* \"contracts/bridges/bridge/zksync/facets/Getters.sol\":2569:2614  s.priorityQueue.getFirstUnprocessedPriorityTx */\n      tag_199\n        /* \"contracts/bridges/bridge/zksync/facets/Getters.sol\":2569:2616  s.priorityQueue.getFirstUnprocessedPriorityTx() */\n      jump\t// in\n    tag_198:\n        /* \"contracts/bridges/bridge/zksync/facets/Getters.sol\":2562:2616  return s.priorityQueue.getFirstUnprocessedPriorityTx() */\n      swap1\n      pop\n        /* \"contracts/bridges/bridge/zksync/facets/Getters.sol\":2478:2624  function getFirstUnprocessedPriorityTx() external view returns (uint256) {... */\n      swap1\n      jump\t// out\n        /* \"contracts/bridges/bridge/zksync/facets/Getters.sol\":7645:8179  function facets() external view returns (Facet[] memory result) {... */\n    tag_95:\n        /* \"contracts/bridges/bridge/zksync/facets/Getters.sol\":7686:7707  Facet[] memory result */\n      0x60\n        /* \"contracts/bridges/bridge/zksync/facets/Getters.sol\":7720:7753  Diamond.DiamondStorage storage ds */\n      0x00\n        /* \"contracts/bridges/bridge/zksync/facets/Getters.sol\":7756:7783  Diamond.getDiamondStorage() */\n      tag_201\n        /* \"contracts/bridges/bridge/zksync/facets/Getters.sol\":7756:7781  Diamond.getDiamondStorage */\n      tag_179\n        /* \"contracts/bridges/bridge/zksync/facets/Getters.sol\":7756:7783  Diamond.getDiamondStorage() */\n      jump\t// in\n    tag_201:\n        /* \"contracts/bridges/bridge/zksync/facets/Getters.sol\":7720:7783  Diamond.DiamondStorage storage ds = Diamond.getDiamondStorage() */\n      swap1\n      pop\n        /* \"contracts/bridges/bridge/zksync/facets/Getters.sol\":7796:7813  uint256 facetsLen */\n      0x00\n        /* \"contracts/bridges/bridge/zksync/facets/Getters.sol\":7816:7818  ds */\n      dup2\n        /* \"contracts/bridges/bridge/zksync/facets/Getters.sol\":7816:7825  ds.facets */\n      0x02\n      add\n        /* \"contracts/bridges/bridge/zksync/facets/Getters.sol\":7816:7832  ds.facets.length */\n      dup1\n      sload\n      swap1\n      pop\n        /* \"contracts/bridges/bridge/zksync/facets/Getters.sol\":7796:7832  uint256 facetsLen = ds.facets.length */\n      swap1\n      pop\n        /* \"contracts/bridges/bridge/zksync/facets/Getters.sol\":7864:7873  facetsLen */\n      dup1\n        /* \"contracts/bridges/bridge/zksync/facets/Getters.sol\":7852:7874  new Facet[](facetsLen) */\n      0xffffffffffffffff\n      dup2\n      gt\n      iszero\n      tag_202\n      jumpi\n      tag_203\n      tag_204\n      jump\t// in\n    tag_203:\n    tag_202:\n      mload(0x40)\n      swap1\n      dup1\n      dup3\n      mstore\n      dup1\n      0x20\n      mul\n      0x20\n      add\n      dup3\n      add\n      0x40\n      mstore\n      dup1\n      iszero\n      tag_205\n      jumpi\n      dup2\n      0x20\n      add\n    tag_206:\n      tag_207\n      tag_208\n      jump\t// in\n    tag_207:\n      dup2\n      mstore\n      0x20\n      add\n      swap1\n      0x01\n      swap1\n      sub\n      swap1\n      dup2\n      tag_206\n      jumpi\n      swap1\n      pop\n    tag_205:\n      pop\n        /* \"contracts/bridges/bridge/zksync/facets/Getters.sol\":7843:7874  result = new Facet[](facetsLen) */\n      swap3\n      pop\n        /* \"contracts/bridges/bridge/zksync/facets/Getters.sol\":7892:7901  uint256 i */\n      0x00\n        /* \"contracts/bridges/bridge/zksync/facets/Getters.sol\":7887:8172  for (uint256 i = 0; i < facetsLen; i = i.uncheckedInc()) {... */\n    tag_209:\n        /* \"contracts/bridges/bridge/zksync/facets/Getters.sol\":7911:7920  facetsLen */\n      dup2\n        /* \"contracts/bridges/bridge/zksync/facets/Getters.sol\":7907:7908  i */\n      dup2\n        /* \"contracts/bridges/bridge/zksync/facets/Getters.sol\":7907:7920  i < facetsLen */\n      lt\n        /* \"contracts/bridges/bridge/zksync/facets/Getters.sol\":7887:8172  for (uint256 i = 0; i < facetsLen; i = i.uncheckedInc()) {... */\n      iszero\n      tag_210\n      jumpi\n        /* \"contracts/bridges/bridge/zksync/facets/Getters.sol\":7959:7976  address facetAddr */\n      0x00\n        /* \"contracts/bridges/bridge/zksync/facets/Getters.sol\":7979:7981  ds */\n      dup4\n        /* \"contracts/bridges/bridge/zksync/facets/Getters.sol\":7979:7988  ds.facets */\n      0x02\n      add\n        /* \"contracts/bridges/bridge/zksync/facets/Getters.sol\":7989:7990  i */\n      dup3\n        /* \"contracts/bridges/bridge/zksync/facets/Getters.sol\":7979:7991  ds.facets[i] */\n      dup2\n      sload\n      dup2\n      lt\n      tag_212\n      jumpi\n      tag_213\n      tag_214\n      jump\t// in\n    tag_213:\n    tag_212:\n      swap1\n      0x00\n      mstore\n      keccak256(0x00, 0x20)\n      add\n      0x00\n      swap1\n      sload\n      swap1\n      0x0100\n      exp\n      swap1\n      div\n      0xffffffffffffffffffffffffffffffffffffffff\n      and\n        /* \"contracts/bridges/bridge/zksync/facets/Getters.sol\":7959:7991  address facetAddr = ds.facets[i] */\n      swap1\n      pop\n        /* \"contracts/bridges/bridge/zksync/facets/Getters.sol\":8006:8054  Diamond.FacetToSelectors memory facetToSelectors */\n      0x00\n        /* \"contracts/bridges/bridge/zksync/facets/Getters.sol\":8057:8059  ds */\n      dup5\n        /* \"contracts/bridges/bridge/zksync/facets/Getters.sol\":8057:8076  ds.facetToSelectors */\n      0x01\n      add\n        /* \"contracts/bridges/bridge/zksync/facets/Getters.sol\":8057:8087  ds.facetToSelectors[facetAddr] */\n      0x00\n        /* \"contracts/bridges/bridge/zksync/facets/Getters.sol\":8077:8086  facetAddr */\n      dup4\n        /* \"contracts/bridges/bridge/zksync/facets/Getters.sol\":8057:8087  ds.facetToSelectors[facetAddr] */\n      0xffffffffffffffffffffffffffffffffffffffff\n      and\n      0xffffffffffffffffffffffffffffffffffffffff\n      and\n      dup2\n      mstore\n      0x20\n      add\n      swap1\n      dup2\n      mstore\n      0x20\n      add\n      0x00\n      keccak256\n        /* \"contracts/bridges/bridge/zksync/facets/Getters.sol\":8006:8087  Diamond.FacetToSelectors memory facetToSelectors = ds.facetToSelectors[facetAddr] */\n      mload(0x40)\n      dup1\n      0x40\n      add\n      0x40\n      mstore\n      swap1\n      dup2\n      0x00\n      dup3\n      add\n      dup1\n      sload\n      dup1\n      0x20\n      mul\n      0x20\n      add\n      mload(0x40)\n      swap1\n      dup2\n      add\n      0x40\n      mstore\n      dup1\n      swap3\n      swap2\n      swap1\n      dup2\n      dup2\n      mstore\n      0x20\n      add\n      dup3\n      dup1\n      sload\n      dup1\n      iszero\n      tag_216\n      jumpi\n      0x20\n      mul\n      dup3\n      add\n      swap2\n      swap1\n      0x00\n      mstore\n      keccak256(0x00, 0x20)\n      swap1\n      0x00\n      swap1\n    tag_217:\n      dup3\n      dup3\n      swap1\n      sload\n      swap1\n      0x0100\n      exp\n      swap1\n      div\n      0xe0\n      shl\n      not(0xffffffffffffffffffffffffffffffffffffffffffffffffffffffff)\n      and\n      dup2\n      mstore\n      0x20\n      add\n      swap1\n      0x04\n      add\n      swap1\n      0x20\n      dup3\n      0x03\n      add\n      div\n      swap3\n      dup4\n      add\n      swap3\n      0x01\n      sub\n      dup3\n      mul\n      swap2\n      pop\n      dup1\n      dup5\n      gt\n      tag_217\n      jumpi\n      swap1\n      pop\n    tag_216:\n      pop\n      pop\n      pop\n      pop\n      pop\n      dup2\n      mstore\n      0x20\n      add\n      0x01\n      dup3\n      add\n      0x00\n      swap1\n      sload\n      swap1\n      0x0100\n      exp\n      swap1\n      div\n      0xffff\n      and\n      0xffff\n      and\n      0xffff\n      and\n      dup2\n      mstore\n      pop\n      pop\n      swap1\n      pop\n        /* \"contracts/bridges/bridge/zksync/facets/Getters.sol\":8116:8160  Facet(facetAddr, facetToSelectors.selectors) */\n      mload(0x40)\n      dup1\n      0x40\n      add\n      0x40\n      mstore\n      dup1\n        /* \"contracts/bridges/bridge/zksync/facets/Getters.sol\":8122:8131  facetAddr */\n      dup4\n        /* \"contracts/bridges/bridge/zksync/facets/Getters.sol\":8116:8160  Facet(facetAddr, facetToSelectors.selectors) */\n      0xffffffffffffffffffffffffffffffffffffffff\n      and\n      dup2\n      mstore\n      0x20\n      add\n        /* \"contracts/bridges/bridge/zksync/facets/Getters.sol\":8133:8149  facetToSelectors */\n      dup3\n        /* \"contracts/bridges/bridge/zksync/facets/Getters.sol\":8133:8159  facetToSelectors.selectors */\n      0x00\n      add\n      mload\n        /* \"contracts/bridges/bridge/zksync/facets/Getters.sol\":8116:8160  Facet(facetAddr, facetToSelectors.selectors) */\n      dup2\n      mstore\n      pop\n        /* \"contracts/bridges/bridge/zksync/facets/Getters.sol\":8104:8110  result */\n      dup7\n        /* \"contracts/bridges/bridge/zksync/facets/Getters.sol\":8111:8112  i */\n      dup5\n        /* \"contracts/bridges/bridge/zksync/facets/Getters.sol\":8104:8113  result[i] */\n      dup2\n      mload\n      dup2\n      lt\n      tag_218\n      jumpi\n      tag_219\n      tag_214\n      jump\t// in\n    tag_219:\n    tag_218:\n      0x20\n      mul\n      0x20\n      add\n      add\n        /* \"contracts/bridges/bridge/zksync/facets/Getters.sol\":8104:8160  result[i] = Facet(facetAddr, facetToSelectors.selectors) */\n      dup2\n      swap1\n      mstore\n      pop\n        /* \"contracts/bridges/bridge/zksync/facets/Getters.sol\":7944:8172  {... */\n      pop\n      pop\n        /* \"contracts/bridges/bridge/zksync/facets/Getters.sol\":7926:7942  i.uncheckedInc() */\n      tag_220\n        /* \"contracts/bridges/bridge/zksync/facets/Getters.sol\":7926:7927  i */\n      dup2\n        /* \"contracts/bridges/bridge/zksync/facets/Getters.sol\":7926:7940  i.uncheckedInc */\n      tag_221\n        /* \"contracts/bridges/bridge/zksync/facets/Getters.sol\":7926:7942  i.uncheckedInc() */\n      jump\t// in\n    tag_220:\n        /* \"contracts/bridges/bridge/zksync/facets/Getters.sol\":7922:7942  i = i.uncheckedInc() */\n      swap1\n      pop\n        /* \"contracts/bridges/bridge/zksync/facets/Getters.sol\":7887:8172  for (uint256 i = 0; i < facetsLen; i = i.uncheckedInc()) {... */\n      jump(tag_209)\n    tag_210:\n      pop\n        /* \"contracts/bridges/bridge/zksync/facets/Getters.sol\":7709:8179  {... */\n      pop\n      pop\n        /* \"contracts/bridges/bridge/zksync/facets/Getters.sol\":7645:8179  function facets() external view returns (Facet[] memory result) {... */\n      swap1\n      jump\t// out\n        /* \"contracts/bridges/bridge/zksync/facets/Getters.sol\":4582:4717  function getL2SystemContractsUpgradeTxHash() external view returns (bytes32) {... */\n    tag_99:\n        /* \"contracts/bridges/bridge/zksync/facets/Getters.sol\":4650:4657  bytes32 */\n      0x00\n        /* \"contracts/bridges/bridge/zksync/facets/Getters.sol\":4677:4678  s */\n      dup1\n        /* \"contracts/bridges/bridge/zksync/facets/Getters.sol\":4677:4709  s.l2SystemContractsUpgradeTxHash */\n      0x22\n      add\n      sload\n        /* \"contracts/bridges/bridge/zksync/facets/Getters.sol\":4670:4709  return s.l2SystemContractsUpgradeTxHash */\n      swap1\n      pop\n        /* \"contracts/bridges/bridge/zksync/facets/Getters.sol\":4582:4717  function getL2SystemContractsUpgradeTxHash() external view returns (bytes32) {... */\n      swap1\n      jump\t// out\n        /* \"contracts/bridges/bridge/zksync/facets/Getters.sol\":1261:1366  function getPendingGovernor() external view returns (address) {... */\n    tag_102:\n        /* \"contracts/bridges/bridge/zksync/facets/Getters.sol\":1314:1321  address */\n      0x00\n        /* \"contracts/bridges/bridge/zksync/facets/Getters.sol\":1341:1342  s */\n      dup1\n        /* \"contracts/bridges/bridge/zksync/facets/Getters.sol\":1341:1358  s.pendingGovernor */\n      0x08\n      add\n      0x00\n      swap1\n      sload\n      swap1\n      0x0100\n      exp\n      swap1\n      div\n      0xffffffffffffffffffffffffffffffffffffffff\n      and\n        /* \"contracts/bridges/bridge/zksync/facets/Getters.sol\":1334:1358  return s.pendingGovernor */\n      swap1\n      pop\n        /* \"contracts/bridges/bridge/zksync/facets/Getters.sol\":1261:1366  function getPendingGovernor() external view returns (address) {... */\n      swap1\n      jump\t// out\n        /* \"contracts/bridges/bridge/zksync/facets/Getters.sol\":3308:3444  function l2LogsRootHash(uint256 _batchNumber) external view returns (bytes32) {... */\n    tag_106:\n        /* \"contracts/bridges/bridge/zksync/facets/Getters.sol\":3377:3384  bytes32 */\n      0x00\n        /* \"contracts/bridges/bridge/zksync/facets/Getters.sol\":3404:3405  s */\n      dup1\n        /* \"contracts/bridges/bridge/zksync/facets/Getters.sol\":3404:3422  s.l2LogsRootHashes */\n      0x0f\n      add\n        /* \"contracts/bridges/bridge/zksync/facets/Getters.sol\":3404:3436  s.l2LogsRootHashes[_batchNumber] */\n      0x00\n        /* \"contracts/bridges/bridge/zksync/facets/Getters.sol\":3423:3435  _batchNumber */\n      dup4\n        /* \"contracts/bridges/bridge/zksync/facets/Getters.sol\":3404:3436  s.l2LogsRootHashes[_batchNumber] */\n      dup2\n      mstore\n      0x20\n      add\n      swap1\n      dup2\n      mstore\n      0x20\n      add\n      0x00\n      keccak256\n      sload\n        /* \"contracts/bridges/bridge/zksync/facets/Getters.sol\":3397:3436  return s.l2LogsRootHashes[_batchNumber] */\n      swap1\n      pop\n        /* \"contracts/bridges/bridge/zksync/facets/Getters.sol\":3308:3444  function l2LogsRootHash(uint256 _batchNumber) external view returns (bytes32) {... */\n      swap2\n      swap1\n      pop\n      jump\t// out\n        /* \"contracts/bridges/bridge/zksync/facets/Getters.sol\":10983:11128  function getL2SystemContractsUpgradeBlockNumber() external view returns (uint256) {... */\n    tag_109:\n        /* \"contracts/bridges/bridge/zksync/facets/Getters.sol\":11056:11063  uint256 */\n      0x00\n        /* \"contracts/bridges/bridge/zksync/facets/Getters.sol\":11083:11084  s */\n      dup1\n        /* \"contracts/bridges/bridge/zksync/facets/Getters.sol\":11083:11120  s.l2SystemContractsUpgradeBatchNumber */\n      0x23\n      add\n      sload\n        /* \"contracts/bridges/bridge/zksync/facets/Getters.sol\":11076:11120  return s.l2SystemContractsUpgradeBatchNumber */\n      swap1\n      pop\n        /* \"contracts/bridges/bridge/zksync/facets/Getters.sol\":10983:11128  function getL2SystemContractsUpgradeBlockNumber() external view returns (uint256) {... */\n      swap1\n      jump\t// out\n        /* \"contracts/bridges/bridge/zksync/facets/Getters.sol\":2098:2224  function getTotalPriorityTxs() external view returns (uint256) {... */\n    tag_112:\n        /* \"contracts/bridges/bridge/zksync/facets/Getters.sol\":2152:2159  uint256 */\n      0x00\n        /* \"contracts/bridges/bridge/zksync/facets/Getters.sol\":2179:2216  s.priorityQueue.getTotalPriorityTxs() */\n      tag_227\n        /* \"contracts/bridges/bridge/zksync/facets/Getters.sol\":2179:2180  s */\n      0x00\n        /* \"contracts/bridges/bridge/zksync/facets/Getters.sol\":2179:2194  s.priorityQueue */\n      0x10\n      add\n        /* \"contracts/bridges/bridge/zksync/facets/Getters.sol\":2179:2214  s.priorityQueue.getTotalPriorityTxs */\n      tag_228\n        /* \"contracts/bridges/bridge/zksync/facets/Getters.sol\":2179:2216  s.priorityQueue.getTotalPriorityTxs() */\n      jump\t// in\n    tag_227:\n        /* \"contracts/bridges/bridge/zksync/facets/Getters.sol\":2172:2216  return s.priorityQueue.getTotalPriorityTxs() */\n      swap1\n      pop\n        /* \"contracts/bridges/bridge/zksync/facets/Getters.sol\":2098:2224  function getTotalPriorityTxs() external view returns (uint256) {... */\n      swap1\n      jump\t// out\n        /* \"contracts/bridges/bridge/zksync/facets/Getters.sol\":6439:6541  function getAllowList() external view returns (address) {... */\n    tag_115:\n        /* \"contracts/bridges/bridge/zksync/facets/Getters.sol\":6486:6493  address */\n      0x00\n        /* \"contracts/bridges/bridge/zksync/facets/Getters.sol\":6521:6522  s */\n      dup1\n        /* \"contracts/bridges/bridge/zksync/facets/Getters.sol\":6521:6532  s.allowList */\n      0x13\n      add\n      0x00\n      swap1\n      sload\n      swap1\n      0x0100\n      exp\n      swap1\n      div\n      0xffffffffffffffffffffffffffffffffffffffff\n      and\n        /* \"contracts/bridges/bridge/zksync/facets/Getters.sol\":6506:6533  return address(s.allowList) */\n      swap1\n      pop\n        /* \"contracts/bridges/bridge/zksync/facets/Getters.sol\":6439:6541  function getAllowList() external view returns (address) {... */\n      swap1\n      jump\t// out\n        /* \"contracts/bridges/bridge/zksync/facets/Getters.sol\":8275:8500  function facetFunctionSelectors(address _facet) external view returns (bytes4[] memory) {... */\n    tag_120:\n        /* \"contracts/bridges/bridge/zksync/facets/Getters.sol\":8346:8361  bytes4[] memory */\n      0x60\n        /* \"contracts/bridges/bridge/zksync/facets/Getters.sol\":8374:8407  Diamond.DiamondStorage storage ds */\n      0x00\n        /* \"contracts/bridges/bridge/zksync/facets/Getters.sol\":8410:8437  Diamond.getDiamondStorage() */\n      tag_231\n        /* \"contracts/bridges/bridge/zksync/facets/Getters.sol\":8410:8435  Diamond.getDiamondStorage */\n      tag_179\n        /* \"contracts/bridges/bridge/zksync/facets/Getters.sol\":8410:8437  Diamond.getDiamondStorage() */\n      jump\t// in\n    tag_231:\n        /* \"contracts/bridges/bridge/zksync/facets/Getters.sol\":8374:8437  Diamond.DiamondStorage storage ds = Diamond.getDiamondStorage() */\n      swap1\n      pop\n        /* \"contracts/bridges/bridge/zksync/facets/Getters.sol\":8455:8457  ds */\n      dup1\n        /* \"contracts/bridges/bridge/zksync/facets/Getters.sol\":8455:8474  ds.facetToSelectors */\n      0x01\n      add\n        /* \"contracts/bridges/bridge/zksync/facets/Getters.sol\":8455:8482  ds.facetToSelectors[_facet] */\n      0x00\n        /* \"contracts/bridges/bridge/zksync/facets/Getters.sol\":8475:8481  _facet */\n      dup5\n        /* \"contracts/bridges/bridge/zksync/facets/Getters.sol\":8455:8482  ds.facetToSelectors[_facet] */\n      0xffffffffffffffffffffffffffffffffffffffff\n      and\n      0xffffffffffffffffffffffffffffffffffffffff\n      and\n      dup2\n      mstore\n      0x20\n      add\n      swap1\n      dup2\n      mstore\n      0x20\n      add\n      0x00\n      keccak256\n        /* \"contracts/bridges/bridge/zksync/facets/Getters.sol\":8455:8492  ds.facetToSelectors[_facet].selectors */\n      0x00\n      add\n        /* \"contracts/bridges/bridge/zksync/facets/Getters.sol\":8448:8492  return ds.facetToSelectors[_facet].selectors */\n      dup1\n      sload\n      dup1\n      0x20\n      mul\n      0x20\n      add\n      mload(0x40)\n      swap1\n      dup2\n      add\n      0x40\n      mstore\n      dup1\n      swap3\n      swap2\n      swap1\n      dup2\n      dup2\n      mstore\n      0x20\n      add\n      dup3\n      dup1\n      sload\n      dup1\n      iszero\n      tag_232\n      jumpi\n      0x20\n      mul\n      dup3\n      add\n      swap2\n      swap1\n      0x00\n      mstore\n      keccak256(0x00, 0x20)\n      swap1\n      0x00\n      swap1\n    tag_233:\n      dup3\n      dup3\n      swap1\n      sload\n      swap1\n      0x0100\n      exp\n      swap1\n      div\n      0xe0\n      shl\n      not(0xffffffffffffffffffffffffffffffffffffffffffffffffffffffff)\n      and\n      dup2\n      mstore\n      0x20\n      add\n      swap1\n      0x04\n      add\n      swap1\n      0x20\n      dup3\n      0x03\n      add\n      div\n      swap3\n      dup4\n      add\n      swap3\n      0x01\n      sub\n      dup3\n      mul\n      swap2\n      pop\n      dup1\n      dup5\n      gt\n      tag_233\n      jumpi\n      swap1\n      pop\n    tag_232:\n      pop\n      pop\n      pop\n      pop\n      pop\n      swap2\n      pop\n      pop\n        /* \"contracts/bridges/bridge/zksync/facets/Getters.sol\":8275:8500  function facetFunctionSelectors(address _facet) external view returns (bytes4[] memory) {... */\n      swap2\n      swap1\n      pop\n      jump\t// out\n        /* \"contracts/bridges/bridge/zksync/facets/Getters.sol\":9725:9839  function getTotalBlocksVerified() external view returns (uint256) {... */\n    tag_124:\n        /* \"contracts/bridges/bridge/zksync/facets/Getters.sol\":9782:9789  uint256 */\n      0x00\n        /* \"contracts/bridges/bridge/zksync/facets/Getters.sol\":9809:9810  s */\n      dup1\n        /* \"contracts/bridges/bridge/zksync/facets/Getters.sol\":9809:9831  s.totalBatchesVerified */\n      0x0c\n      add\n      sload\n        /* \"contracts/bridges/bridge/zksync/facets/Getters.sol\":9802:9831  return s.totalBatchesVerified */\n      swap1\n      pop\n        /* \"contracts/bridges/bridge/zksync/facets/Getters.sol\":9725:9839  function getTotalBlocksVerified() external view returns (uint256) {... */\n      swap1\n      jump\t// out\n        /* \"contracts/bridges/bridge/zksync/facets/Getters.sol\":3621:3759  function storedBatchHash(uint256 _batchNumber) external view returns (bytes32) {... */\n    tag_128:\n        /* \"contracts/bridges/bridge/zksync/facets/Getters.sol\":3691:3698  bytes32 */\n      0x00\n        /* \"contracts/bridges/bridge/zksync/facets/Getters.sol\":3718:3719  s */\n      dup1\n        /* \"contracts/bridges/bridge/zksync/facets/Getters.sol\":3718:3737  s.storedBatchHashes */\n      0x0e\n      add\n        /* \"contracts/bridges/bridge/zksync/facets/Getters.sol\":3718:3751  s.storedBatchHashes[_batchNumber] */\n      0x00\n        /* \"contracts/bridges/bridge/zksync/facets/Getters.sol\":3738:3750  _batchNumber */\n      dup4\n        /* \"contracts/bridges/bridge/zksync/facets/Getters.sol\":3718:3751  s.storedBatchHashes[_batchNumber] */\n      dup2\n      mstore\n      0x20\n      add\n      swap1\n      dup2\n      mstore\n      0x20\n      add\n      0x00\n      keccak256\n      sload\n        /* \"contracts/bridges/bridge/zksync/facets/Getters.sol\":3711:3751  return s.storedBatchHashes[_batchNumber] */\n      swap1\n      pop\n        /* \"contracts/bridges/bridge/zksync/facets/Getters.sol\":3621:3759  function storedBatchHash(uint256 _batchNumber) external view returns (bytes32) {... */\n      swap2\n      swap1\n      pop\n      jump\t// out\n        /* \"contracts/bridges/bridge/zksync/facets/Getters.sol\":1850:1965  function getTotalBatchesExecuted() external view returns (uint256) {... */\n    tag_131:\n        /* \"contracts/bridges/bridge/zksync/facets/Getters.sol\":1908:1915  uint256 */\n      0x00\n        /* \"contracts/bridges/bridge/zksync/facets/Getters.sol\":1935:1936  s */\n      dup1\n        /* \"contracts/bridges/bridge/zksync/facets/Getters.sol\":1935:1957  s.totalBatchesExecuted */\n      0x0b\n      add\n      sload\n        /* \"contracts/bridges/bridge/zksync/facets/Getters.sol\":1928:1957  return s.totalBatchesExecuted */\n      swap1\n      pop\n        /* \"contracts/bridges/bridge/zksync/facets/Getters.sol\":1850:1965  function getTotalBatchesExecuted() external view returns (uint256) {... */\n      swap1\n      jump\t// out\n        /* \"contracts/bridges/bridge/zksync/facets/Getters.sol\":7181:7378  function isEthWithdrawalFinalized(uint256 _l2BatchNumber, uint256 _l2MessageIndex) external view returns (bool) {... */\n    tag_136:\n        /* \"contracts/bridges/bridge/zksync/facets/Getters.sol\":7287:7291  bool */\n      0x00\n        /* \"contracts/bridges/bridge/zksync/facets/Getters.sol\":7311:7312  s */\n      dup1\n        /* \"contracts/bridges/bridge/zksync/facets/Getters.sol\":7311:7337  s.isEthWithdrawalFinalized */\n      0x1d\n      add\n        /* \"contracts/bridges/bridge/zksync/facets/Getters.sol\":7311:7353  s.isEthWithdrawalFinalized[_l2BatchNumber] */\n      0x00\n        /* \"contracts/bridges/bridge/zksync/facets/Getters.sol\":7338:7352  _l2BatchNumber */\n      dup5\n        /* \"contracts/bridges/bridge/zksync/facets/Getters.sol\":7311:7353  s.isEthWithdrawalFinalized[_l2BatchNumber] */\n      dup2\n      mstore\n      0x20\n      add\n      swap1\n      dup2\n      mstore\n      0x20\n      add\n      0x00\n      keccak256\n        /* \"contracts/bridges/bridge/zksync/facets/Getters.sol\":7311:7370  s.isEthWithdrawalFinalized[_l2BatchNumber][_l2MessageIndex] */\n      0x00\n        /* \"contracts/bridges/bridge/zksync/facets/Getters.sol\":7354:7369  _l2MessageIndex */\n      dup4\n        /* \"contracts/bridges/bridge/zksync/facets/Getters.sol\":7311:7370  s.isEthWithdrawalFinalized[_l2BatchNumber][_l2MessageIndex] */\n      dup2\n      mstore\n      0x20\n      add\n      swap1\n      dup2\n      mstore\n      0x20\n      add\n      0x00\n      keccak256\n      0x00\n      swap1\n      sload\n      swap1\n      0x0100\n      exp\n      swap1\n      div\n      0xff\n      and\n        /* \"contracts/bridges/bridge/zksync/facets/Getters.sol\":7304:7370  return s.isEthWithdrawalFinalized[_l2BatchNumber][_l2MessageIndex] */\n      swap1\n      pop\n        /* \"contracts/bridges/bridge/zksync/facets/Getters.sol\":7181:7378  function isEthWithdrawalFinalized(uint256 _l2BatchNumber, uint256 _l2MessageIndex) external view returns (bool) {... */\n      swap3\n      swap2\n      pop\n      pop\n      jump\t// out\n        /* \"contracts/bridges/bridge/zksync/facets/Getters.sol\":5550:6163  function isFacetFreezable(address _facet) external view returns (bool isFreezable) {... */\n    tag_140:\n        /* \"contracts/bridges/bridge/zksync/facets/Getters.sol\":5615:5631  bool isFreezable */\n      0x00\n        /* \"contracts/bridges/bridge/zksync/facets/Getters.sol\":5644:5677  Diamond.DiamondStorage storage ds */\n      dup1\n        /* \"contracts/bridges/bridge/zksync/facets/Getters.sol\":5680:5707  Diamond.getDiamondStorage() */\n      tag_239\n        /* \"contracts/bridges/bridge/zksync/facets/Getters.sol\":5680:5705  Diamond.getDiamondStorage */\n      tag_179\n        /* \"contracts/bridges/bridge/zksync/facets/Getters.sol\":5680:5707  Diamond.getDiamondStorage() */\n      jump\t// in\n    tag_239:\n        /* \"contracts/bridges/bridge/zksync/facets/Getters.sol\":5644:5707  Diamond.DiamondStorage storage ds = Diamond.getDiamondStorage() */\n      swap1\n      pop\n        /* \"contracts/bridges/bridge/zksync/facets/Getters.sol\":5889:5914  uint256 selectorsArrayLen */\n      0x00\n        /* \"contracts/bridges/bridge/zksync/facets/Getters.sol\":5917:5919  ds */\n      dup2\n        /* \"contracts/bridges/bridge/zksync/facets/Getters.sol\":5917:5936  ds.facetToSelectors */\n      0x01\n      add\n        /* \"contracts/bridges/bridge/zksync/facets/Getters.sol\":5917:5944  ds.facetToSelectors[_facet] */\n      0x00\n        /* \"contracts/bridges/bridge/zksync/facets/Getters.sol\":5937:5943  _facet */\n      dup6\n        /* \"contracts/bridges/bridge/zksync/facets/Getters.sol\":5917:5944  ds.facetToSelectors[_facet] */\n      0xffffffffffffffffffffffffffffffffffffffff\n      and\n      0xffffffffffffffffffffffffffffffffffffffff\n      and\n      dup2\n      mstore\n      0x20\n      add\n      swap1\n      dup2\n      mstore\n      0x20\n      add\n      0x00\n      keccak256\n        /* \"contracts/bridges/bridge/zksync/facets/Getters.sol\":5917:5954  ds.facetToSelectors[_facet].selectors */\n      0x00\n      add\n        /* \"contracts/bridges/bridge/zksync/facets/Getters.sol\":5917:5961  ds.facetToSelectors[_facet].selectors.length */\n      dup1\n      sload\n      swap1\n      pop\n        /* \"contracts/bridges/bridge/zksync/facets/Getters.sol\":5889:5961  uint256 selectorsArrayLen = ds.facetToSelectors[_facet].selectors.length */\n      swap1\n      pop\n        /* \"contracts/bridges/bridge/zksync/facets/Getters.sol\":5997:5998  0 */\n      0x00\n        /* \"contracts/bridges/bridge/zksync/facets/Getters.sol\":5976:5993  selectorsArrayLen */\n      dup2\n        /* \"contracts/bridges/bridge/zksync/facets/Getters.sol\":5976:5998  selectorsArrayLen != 0 */\n      eq\n        /* \"contracts/bridges/bridge/zksync/facets/Getters.sol\":5972:6156  if (selectorsArrayLen != 0) {... */\n      tag_240\n      jumpi\n        /* \"contracts/bridges/bridge/zksync/facets/Getters.sol\":6015:6031  bytes4 selector0 */\n      0x00\n        /* \"contracts/bridges/bridge/zksync/facets/Getters.sol\":6034:6036  ds */\n      dup3\n        /* \"contracts/bridges/bridge/zksync/facets/Getters.sol\":6034:6053  ds.facetToSelectors */\n      0x01\n      add\n        /* \"contracts/bridges/bridge/zksync/facets/Getters.sol\":6034:6061  ds.facetToSelectors[_facet] */\n      0x00\n        /* \"contracts/bridges/bridge/zksync/facets/Getters.sol\":6054:6060  _facet */\n      dup7\n        /* \"contracts/bridges/bridge/zksync/facets/Getters.sol\":6034:6061  ds.facetToSelectors[_facet] */\n      0xffffffffffffffffffffffffffffffffffffffff\n      and\n      0xffffffffffffffffffffffffffffffffffffffff\n      and\n      dup2\n      mstore\n      0x20\n      add\n      swap1\n      dup2\n      mstore\n      0x20\n      add\n      0x00\n      keccak256\n        /* \"contracts/bridges/bridge/zksync/facets/Getters.sol\":6034:6071  ds.facetToSelectors[_facet].selectors */\n      0x00\n      add\n        /* \"contracts/bridges/bridge/zksync/facets/Getters.sol\":6072:6073  0 */\n      0x00\n        /* \"contracts/bridges/bridge/zksync/facets/Getters.sol\":6034:6074  ds.facetToSelectors[_facet].selectors[0] */\n      dup2\n      sload\n      dup2\n      lt\n      tag_241\n      jumpi\n      tag_242\n      tag_214\n      jump\t// in\n    tag_242:\n    tag_241:\n      swap1\n      0x00\n      mstore\n      keccak256(0x00, 0x20)\n      swap1\n      0x08\n      swap2\n      dup3\n      dup3\n      div\n      add\n      swap2\n      swap1\n      mod\n      0x04\n      mul\n      swap1\n      sload\n      swap1\n      0x0100\n      exp\n      swap1\n      div\n      0xe0\n      shl\n        /* \"contracts/bridges/bridge/zksync/facets/Getters.sol\":6015:6074  bytes4 selector0 = ds.facetToSelectors[_facet].selectors[0] */\n      swap1\n      pop\n        /* \"contracts/bridges/bridge/zksync/facets/Getters.sol\":6103:6105  ds */\n      dup3\n        /* \"contracts/bridges/bridge/zksync/facets/Getters.sol\":6103:6121  ds.selectorToFacet */\n      0x00\n      add\n        /* \"contracts/bridges/bridge/zksync/facets/Getters.sol\":6103:6132  ds.selectorToFacet[selector0] */\n      0x00\n        /* \"contracts/bridges/bridge/zksync/facets/Getters.sol\":6122:6131  selector0 */\n      dup3\n        /* \"contracts/bridges/bridge/zksync/facets/Getters.sol\":6103:6132  ds.selectorToFacet[selector0] */\n      not(0xffffffffffffffffffffffffffffffffffffffffffffffffffffffff)\n      and\n      not(0xffffffffffffffffffffffffffffffffffffffffffffffffffffffff)\n      and\n      dup2\n      mstore\n      0x20\n      add\n      swap1\n      dup2\n      mstore\n      0x20\n      add\n      0x00\n      keccak256\n        /* \"contracts/bridges/bridge/zksync/facets/Getters.sol\":6103:6144  ds.selectorToFacet[selector0].isFreezable */\n      0x00\n      add\n      0x16\n      swap1\n      sload\n      swap1\n      0x0100\n      exp\n      swap1\n      div\n      0xff\n      and\n        /* \"contracts/bridges/bridge/zksync/facets/Getters.sol\":6089:6144  isFreezable = ds.selectorToFacet[selector0].isFreezable */\n      swap4\n      pop\n        /* \"contracts/bridges/bridge/zksync/facets/Getters.sol\":6000:6156  {... */\n      pop\n        /* \"contracts/bridges/bridge/zksync/facets/Getters.sol\":5972:6156  if (selectorsArrayLen != 0) {... */\n    tag_240:\n        /* \"contracts/bridges/bridge/zksync/facets/Getters.sol\":5633:6163  {... */\n      pop\n      pop\n        /* \"contracts/bridges/bridge/zksync/facets/Getters.sol\":5550:6163  function isFacetFreezable(address _facet) external view returns (bool isFreezable) {... */\n      swap2\n      swap1\n      pop\n      jump\t// out\n        /* \"contracts/bridges/bridge/zksync/facets/Getters.sol\":8874:9088  function facetAddress(bytes4 _selector) external view returns (address) {... */\n    tag_145:\n        /* \"contracts/bridges/bridge/zksync/facets/Getters.sol\":8937:8944  address */\n      0x00\n        /* \"contracts/bridges/bridge/zksync/facets/Getters.sol\":8957:8990  Diamond.DiamondStorage storage ds */\n      dup1\n        /* \"contracts/bridges/bridge/zksync/facets/Getters.sol\":8993:9020  Diamond.getDiamondStorage() */\n      tag_245\n        /* \"contracts/bridges/bridge/zksync/facets/Getters.sol\":8993:9018  Diamond.getDiamondStorage */\n      tag_179\n        /* \"contracts/bridges/bridge/zksync/facets/Getters.sol\":8993:9020  Diamond.getDiamondStorage() */\n      jump\t// in\n    tag_245:\n        /* \"contracts/bridges/bridge/zksync/facets/Getters.sol\":8957:9020  Diamond.DiamondStorage storage ds = Diamond.getDiamondStorage() */\n      swap1\n      pop\n        /* \"contracts/bridges/bridge/zksync/facets/Getters.sol\":9038:9040  ds */\n      dup1\n        /* \"contracts/bridges/bridge/zksync/facets/Getters.sol\":9038:9056  ds.selectorToFacet */\n      0x00\n      add\n        /* \"contracts/bridges/bridge/zksync/facets/Getters.sol\":9038:9067  ds.selectorToFacet[_selector] */\n      0x00\n        /* \"contracts/bridges/bridge/zksync/facets/Getters.sol\":9057:9066  _selector */\n      dup5\n        /* \"contracts/bridges/bridge/zksync/facets/Getters.sol\":9038:9067  ds.selectorToFacet[_selector] */\n      not(0xffffffffffffffffffffffffffffffffffffffffffffffffffffffff)\n      and\n      not(0xffffffffffffffffffffffffffffffffffffffffffffffffffffffff)\n      and\n      dup2\n      mstore\n      0x20\n      add\n      swap1\n      dup2\n      mstore\n      0x20\n      add\n      0x00\n      keccak256\n        /* \"contracts/bridges/bridge/zksync/facets/Getters.sol\":9038:9080  ds.selectorToFacet[_selector].facetAddress */\n      0x00\n      add\n      0x00\n      swap1\n      sload\n      swap1\n      0x0100\n      exp\n      swap1\n      div\n      0xffffffffffffffffffffffffffffffffffffffff\n      and\n        /* \"contracts/bridges/bridge/zksync/facets/Getters.sol\":9031:9080  return ds.selectorToFacet[_selector].facetAddress */\n      swap2\n      pop\n      pop\n        /* \"contracts/bridges/bridge/zksync/facets/Getters.sol\":8874:9088  function facetAddress(bytes4 _selector) external view returns (address) {... */\n      swap2\n      swap1\n      pop\n      jump\t// out\n        /* \"contracts/bridges/bridge/zksync/facets/Getters.sol\":3821:3944  function getL2BootloaderBytecodeHash() external view returns (bytes32) {... */\n    tag_148:\n        /* \"contracts/bridges/bridge/zksync/facets/Getters.sol\":3883:3890  bytes32 */\n      0x00\n        /* \"contracts/bridges/bridge/zksync/facets/Getters.sol\":3910:3911  s */\n      dup1\n        /* \"contracts/bridges/bridge/zksync/facets/Getters.sol\":3910:3936  s.l2BootloaderBytecodeHash */\n      0x17\n      add\n      sload\n        /* \"contracts/bridges/bridge/zksync/facets/Getters.sol\":3903:3936  return s.l2BootloaderBytecodeHash */\n      swap1\n      pop\n        /* \"contracts/bridges/bridge/zksync/facets/Getters.sol\":3821:3944  function getL2BootloaderBytecodeHash() external view returns (bytes32) {... */\n      swap1\n      jump\t// out\n        /* \"contracts/bridges/bridge/zksync/facets/Getters.sol\":1439:1556  function getTotalBatchesCommitted() external view returns (uint256) {... */\n    tag_151:\n        /* \"contracts/bridges/bridge/zksync/facets/Getters.sol\":1498:1505  uint256 */\n      0x00\n        /* \"contracts/bridges/bridge/zksync/facets/Getters.sol\":1525:1526  s */\n      dup1\n        /* \"contracts/bridges/bridge/zksync/facets/Getters.sol\":1525:1548  s.totalBatchesCommitted */\n      0x0d\n      add\n      sload\n        /* \"contracts/bridges/bridge/zksync/facets/Getters.sol\":1518:1548  return s.totalBatchesCommitted */\n      swap1\n      pop\n        /* \"contracts/bridges/bridge/zksync/facets/Getters.sol\":1439:1556  function getTotalBatchesCommitted() external view returns (uint256) {... */\n      swap1\n      jump\t// out\n        /* \"contracts/bridges/bridge/zksync/facets/Getters.sol\":5063:5208  function getL2SystemContractsUpgradeBatchNumber() external view returns (uint256) {... */\n    tag_154:\n        /* \"contracts/bridges/bridge/zksync/facets/Getters.sol\":5136:5143  uint256 */\n      0x00\n        /* \"contracts/bridges/bridge/zksync/facets/Getters.sol\":5163:5164  s */\n      dup1\n        /* \"contracts/bridges/bridge/zksync/facets/Getters.sol\":5163:5200  s.l2SystemContractsUpgradeBatchNumber */\n      0x23\n      add\n      sload\n        /* \"contracts/bridges/bridge/zksync/facets/Getters.sol\":5156:5200  return s.l2SystemContractsUpgradeBatchNumber */\n      swap1\n      pop\n        /* \"contracts/bridges/bridge/zksync/facets/Getters.sol\":5063:5208  function getL2SystemContractsUpgradeBatchNumber() external view returns (uint256) {... */\n      swap1\n      jump\t// out\n        /* \"contracts/bridges/bridge/zksync/facets/Getters.sol\":6638:6937  function isFunctionFreezable(bytes4 _selector) external view returns (bool) {... */\n    tag_158:\n        /* \"contracts/bridges/bridge/zksync/facets/Getters.sol\":6708:6712  bool */\n      0x00\n        /* \"contracts/bridges/bridge/zksync/facets/Getters.sol\":6725:6758  Diamond.DiamondStorage storage ds */\n      dup1\n        /* \"contracts/bridges/bridge/zksync/facets/Getters.sol\":6761:6788  Diamond.getDiamondStorage() */\n      tag_250\n        /* \"contracts/bridges/bridge/zksync/facets/Getters.sol\":6761:6786  Diamond.getDiamondStorage */\n      tag_179\n        /* \"contracts/bridges/bridge/zksync/facets/Getters.sol\":6761:6788  Diamond.getDiamondStorage() */\n      jump\t// in\n    tag_250:\n        /* \"contracts/bridges/bridge/zksync/facets/Getters.sol\":6725:6788  Diamond.DiamondStorage storage ds = Diamond.getDiamondStorage() */\n      swap1\n      pop\n        /* \"contracts/bridges/bridge/zksync/facets/Getters.sol\":6861:6862  0 */\n      0x00\n        /* \"contracts/bridges/bridge/zksync/facets/Getters.sol\":6807:6863  ds.selectorToFacet[_selector].facetAddress != address(0) */\n      0xffffffffffffffffffffffffffffffffffffffff\n      and\n        /* \"contracts/bridges/bridge/zksync/facets/Getters.sol\":6807:6809  ds */\n      dup2\n        /* \"contracts/bridges/bridge/zksync/facets/Getters.sol\":6807:6825  ds.selectorToFacet */\n      0x00\n      add\n        /* \"contracts/bridges/bridge/zksync/facets/Getters.sol\":6807:6836  ds.selectorToFacet[_selector] */\n      0x00\n        /* \"contracts/bridges/bridge/zksync/facets/Getters.sol\":6826:6835  _selector */\n      dup6\n        /* \"contracts/bridges/bridge/zksync/facets/Getters.sol\":6807:6836  ds.selectorToFacet[_selector] */\n      not(0xffffffffffffffffffffffffffffffffffffffffffffffffffffffff)\n      and\n      not(0xffffffffffffffffffffffffffffffffffffffffffffffffffffffff)\n      and\n      dup2\n      mstore\n      0x20\n      add\n      swap1\n      dup2\n      mstore\n      0x20\n      add\n      0x00\n      keccak256\n        /* \"contracts/bridges/bridge/zksync/facets/Getters.sol\":6807:6849  ds.selectorToFacet[_selector].facetAddress */\n      0x00\n      add\n      0x00\n      swap1\n      sload\n      swap1\n      0x0100\n      exp\n      swap1\n      div\n      0xffffffffffffffffffffffffffffffffffffffff\n      and\n        /* \"contracts/bridges/bridge/zksync/facets/Getters.sol\":6807:6863  ds.selectorToFacet[_selector].facetAddress != address(0) */\n      0xffffffffffffffffffffffffffffffffffffffff\n      and\n      sub\n        /* \"contracts/bridges/bridge/zksync/facets/Getters.sol\":6799:6870  require(ds.selectorToFacet[_selector].facetAddress != address(0), \"g2\") */\n      tag_251\n      jumpi\n      mload(0x40)\n      0x08c379a000000000000000000000000000000000000000000000000000000000\n      dup2\n      mstore\n      0x04\n      add\n      tag_252\n      swap1\n      tag_253\n      jump\t// in\n    tag_252:\n      mload(0x40)\n      dup1\n      swap2\n      sub\n      swap1\n      revert\n    tag_251:\n        /* \"contracts/bridges/bridge/zksync/facets/Getters.sol\":6888:6890  ds */\n      dup1\n        /* \"contracts/bridges/bridge/zksync/facets/Getters.sol\":6888:6906  ds.selectorToFacet */\n      0x00\n      add\n        /* \"contracts/bridges/bridge/zksync/facets/Getters.sol\":6888:6917  ds.selectorToFacet[_selector] */\n      0x00\n        /* \"contracts/bridges/bridge/zksync/facets/Getters.sol\":6907:6916  _selector */\n      dup5\n        /* \"contracts/bridges/bridge/zksync/facets/Getters.sol\":6888:6917  ds.selectorToFacet[_selector] */\n      not(0xffffffffffffffffffffffffffffffffffffffffffffffffffffffff)\n      and\n      not(0xffffffffffffffffffffffffffffffffffffffffffffffffffffffff)\n      and\n      dup2\n      mstore\n      0x20\n      add\n      swap1\n      dup2\n      mstore\n      0x20\n      add\n      0x00\n      keccak256\n        /* \"contracts/bridges/bridge/zksync/facets/Getters.sol\":6888:6929  ds.selectorToFacet[_selector].isFreezable */\n      0x00\n      add\n      0x16\n      swap1\n      sload\n      swap1\n      0x0100\n      exp\n      swap1\n      div\n      0xff\n      and\n        /* \"contracts/bridges/bridge/zksync/facets/Getters.sol\":6881:6929  return ds.selectorToFacet[_selector].isFreezable */\n      swap2\n      pop\n      pop\n        /* \"contracts/bridges/bridge/zksync/facets/Getters.sol\":6638:6937  function isFunctionFreezable(bytes4 _selector) external view returns (bool) {... */\n      swap2\n      swap1\n      pop\n      jump\t// out\n        /* \"contracts/bridges/bridge/zksync/facets/Getters.sol\":1640:1755  function getTotalBatchesVerified() external view returns (uint256) {... */\n    tag_161:\n        /* \"contracts/bridges/bridge/zksync/facets/Getters.sol\":1698:1705  uint256 */\n      0x00\n        /* \"contracts/bridges/bridge/zksync/facets/Getters.sol\":1725:1726  s */\n      dup1\n        /* \"contracts/bridges/bridge/zksync/facets/Getters.sol\":1725:1747  s.totalBatchesVerified */\n      0x0c\n      add\n      sload\n        /* \"contracts/bridges/bridge/zksync/facets/Getters.sol\":1718:1747  return s.totalBatchesVerified */\n      swap1\n      pop\n        /* \"contracts/bridges/bridge/zksync/facets/Getters.sol\":1640:1755  function getTotalBatchesVerified() external view returns (uint256) {... */\n      swap1\n      jump\t// out\n        /* \"contracts/bridges/bridge/zksync/facets/Getters.sol\":3107:3223  function isValidator(address _address) external view returns (bool) {... */\n    tag_165:\n        /* \"contracts/bridges/bridge/zksync/facets/Getters.sol\":3169:3173  bool */\n      0x00\n        /* \"contracts/bridges/bridge/zksync/facets/Getters.sol\":3193:3194  s */\n      dup1\n        /* \"contracts/bridges/bridge/zksync/facets/Getters.sol\":3193:3205  s.validators */\n      0x09\n      add\n        /* \"contracts/bridges/bridge/zksync/facets/Getters.sol\":3193:3215  s.validators[_address] */\n      0x00\n        /* \"contracts/bridges/bridge/zksync/facets/Getters.sol\":3206:3214  _address */\n      dup4\n        /* \"contracts/bridges/bridge/zksync/facets/Getters.sol\":3193:3215  s.validators[_address] */\n      0xffffffffffffffffffffffffffffffffffffffff\n      and\n      0xffffffffffffffffffffffffffffffffffffffff\n      and\n      dup2\n      mstore\n      0x20\n      add\n      swap1\n      dup2\n      mstore\n      0x20\n      add\n      0x00\n      keccak256\n      0x00\n      swap1\n      sload\n      swap1\n      0x0100\n      exp\n      swap1\n      div\n      0xff\n      and\n        /* \"contracts/bridges/bridge/zksync/facets/Getters.sol\":3186:3215  return s.validators[_address] */\n      swap1\n      pop\n        /* \"contracts/bridges/bridge/zksync/facets/Getters.sol\":3107:3223  function isValidator(address _address) external view returns (bool) {... */\n      swap2\n      swap1\n      pop\n      jump\t// out\n        /* \"contracts/bridges/bridge/zksync/facets/Getters.sol\":4022:4153  function getL2DefaultAccountBytecodeHash() external view returns (bytes32) {... */\n    tag_168:\n        /* \"contracts/bridges/bridge/zksync/facets/Getters.sol\":4088:4095  bytes32 */\n      0x00\n        /* \"contracts/bridges/bridge/zksync/facets/Getters.sol\":4115:4116  s */\n      dup1\n        /* \"contracts/bridges/bridge/zksync/facets/Getters.sol\":4115:4145  s.l2DefaultAccountBytecodeHash */\n      0x18\n      add\n      sload\n        /* \"contracts/bridges/bridge/zksync/facets/Getters.sol\":4108:4145  return s.l2DefaultAccountBytecodeHash */\n      swap1\n      pop\n        /* \"contracts/bridges/bridge/zksync/facets/Getters.sol\":4022:4153  function getL2DefaultAccountBytecodeHash() external view returns (bytes32) {... */\n      swap1\n      jump\t// out\n        /* \"contracts/bridges/bridge/zksync/facets/Getters.sol\":9436:9552  function getTotalBlocksCommitted() external view returns (uint256) {... */\n    tag_171:\n        /* \"contracts/bridges/bridge/zksync/facets/Getters.sol\":9494:9501  uint256 */\n      0x00\n        /* \"contracts/bridges/bridge/zksync/facets/Getters.sol\":9521:9522  s */\n      dup1\n        /* \"contracts/bridges/bridge/zksync/facets/Getters.sol\":9521:9544  s.totalBatchesCommitted */\n      0x0d\n      add\n      sload\n        /* \"contracts/bridges/bridge/zksync/facets/Getters.sol\":9514:9544  return s.totalBatchesCommitted */\n      swap1\n      pop\n        /* \"contracts/bridges/bridge/zksync/facets/Getters.sol\":9436:9552  function getTotalBlocksCommitted() external view returns (uint256) {... */\n      swap1\n      jump\t// out\n        /* \"contracts/bridges/bridge/zksync/libraries/Diamond.sol\":4032:4261  function getDiamondStorage() internal pure returns (DiamondStorage storage diamondStorage) {... */\n    tag_179:\n        /* \"contracts/bridges/bridge/zksync/libraries/Diamond.sol\":4084:4121  DiamondStorage storage diamondStorage */\n      0x00\n        /* \"contracts/bridges/bridge/zksync/libraries/Diamond.sol\":4134:4150  bytes32 position */\n      dup1\n        /* \"contracts/bridges/bridge/zksync/libraries/Diamond.sol\":922:988  0xc8fcad8db84d3cc18b4c41d551ea0ee66dd599cde068d998e57d5e09332c131b */\n      0xc8fcad8db84d3cc18b4c41d551ea0ee66dd599cde068d998e57d5e09332c131b\n        /* \"contracts/bridges/bridge/zksync/libraries/Diamond.sol\":4153:4177  DIAMOND_STORAGE_POSITION */\n      0x00\n      shl\n        /* \"contracts/bridges/bridge/zksync/libraries/Diamond.sol\":4134:4177  bytes32 position = DIAMOND_STORAGE_POSITION */\n      swap1\n      pop\n        /* \"contracts/bridges/bridge/zksync/libraries/Diamond.sol\":4235:4243  position */\n      dup1\n        /* \"contracts/bridges/bridge/zksync/libraries/Diamond.sol\":4212:4243  diamondStorage.slot := position */\n      swap2\n      pop\n        /* \"contracts/bridges/bridge/zksync/libraries/Diamond.sol\":4197:4254  {... */\n      pop\n        /* \"contracts/bridges/bridge/zksync/libraries/Diamond.sol\":4032:4261  function getDiamondStorage() internal pure returns (DiamondStorage storage diamondStorage) {... */\n      swap1\n      jump\t// out\n        /* \"contracts/bridges/bridge/zksync/libraries/PriorityQueue.sol\":2848:3055  function front(Queue storage _queue) internal view returns (PriorityOperation memory) {... */\n    tag_192:\n        /* \"contracts/bridges/bridge/zksync/libraries/PriorityQueue.sol\":2908:2932  PriorityOperation memory */\n      tag_259\n      tag_189\n      jump\t// in\n    tag_259:\n        /* \"contracts/bridges/bridge/zksync/libraries/PriorityQueue.sol\":2954:2970  _queue.isEmpty() */\n      tag_261\n        /* \"contracts/bridges/bridge/zksync/libraries/PriorityQueue.sol\":2954:2960  _queue */\n      dup3\n        /* \"contracts/bridges/bridge/zksync/libraries/PriorityQueue.sol\":2954:2968  _queue.isEmpty */\n      tag_262\n        /* \"contracts/bridges/bridge/zksync/libraries/PriorityQueue.sol\":2954:2970  _queue.isEmpty() */\n      jump\t// in\n    tag_261:\n        /* \"contracts/bridges/bridge/zksync/libraries/PriorityQueue.sol\":2953:2970  !_queue.isEmpty() */\n      iszero\n        /* \"contracts/bridges/bridge/zksync/libraries/PriorityQueue.sol\":2945:2976  require(!_queue.isEmpty(), \"D\") */\n      tag_263\n      jumpi\n      mload(0x40)\n      0x08c379a000000000000000000000000000000000000000000000000000000000\n      dup2\n      mstore\n      0x04\n      add\n      tag_264\n      swap1\n      tag_265\n      jump\t// in\n    tag_264:\n      mload(0x40)\n      dup1\n      swap2\n      sub\n      swap1\n      revert\n    tag_263:\n        /* \"contracts/bridges/bridge/zksync/libraries/PriorityQueue.sol\":3023:3029  _queue */\n      dup2\n        /* \"contracts/bridges/bridge/zksync/libraries/PriorityQueue.sol\":3023:3034  _queue.data */\n      0x00\n      add\n        /* \"contracts/bridges/bridge/zksync/libraries/PriorityQueue.sol\":3023:3047  _queue.data[_queue.head] */\n      0x00\n        /* \"contracts/bridges/bridge/zksync/libraries/PriorityQueue.sol\":3035:3041  _queue */\n      dup4\n        /* \"contracts/bridges/bridge/zksync/libraries/PriorityQueue.sol\":3035:3046  _queue.head */\n      0x02\n      add\n      sload\n        /* \"contracts/bridges/bridge/zksync/libraries/PriorityQueue.sol\":3023:3047  _queue.data[_queue.head] */\n      dup2\n      mstore\n      0x20\n      add\n      swap1\n      dup2\n      mstore\n      0x20\n      add\n      0x00\n      keccak256\n        /* \"contracts/bridges/bridge/zksync/libraries/PriorityQueue.sol\":3016:3047  return _queue.data[_queue.head] */\n      mload(0x40)\n      dup1\n      0x60\n      add\n      0x40\n      mstore\n      swap1\n      dup2\n      0x00\n      dup3\n      add\n      sload\n      dup2\n      mstore\n      0x20\n      add\n      0x01\n      dup3\n      add\n      0x00\n      swap1\n      sload\n      swap1\n      0x0100\n      exp\n      swap1\n      div\n      0xffffffffffffffff\n      and\n      0xffffffffffffffff\n      and\n      0xffffffffffffffff\n      and\n      dup2\n      mstore\n      0x20\n      add\n      0x01\n      dup3\n      add\n      0x08\n      swap1\n      sload\n      swap1\n      0x0100\n      exp\n      swap1\n      div\n      0xffffffffffffffffffffffffffffffffffffffffffffffff\n      and\n      0xffffffffffffffffffffffffffffffffffffffffffffffff\n      and\n      0xffffffffffffffffffffffffffffffffffffffffffffffff\n      and\n      dup2\n      mstore\n      pop\n      pop\n      swap1\n      pop\n        /* \"contracts/bridges/bridge/zksync/libraries/PriorityQueue.sol\":2848:3055  function front(Queue storage _queue) internal view returns (PriorityOperation memory) {... */\n      swap2\n      swap1\n      pop\n      jump\t// out\n        /* \"contracts/bridges/bridge/zksync/libraries/PriorityQueue.sol\":2070:2201  function getSize(Queue storage _queue) internal view returns (uint256) {... */\n    tag_195:\n        /* \"contracts/bridges/bridge/zksync/libraries/PriorityQueue.sol\":2132:2139  uint256 */\n      0x00\n        /* \"contracts/bridges/bridge/zksync/libraries/PriorityQueue.sol\":2181:2187  _queue */\n      dup2\n        /* \"contracts/bridges/bridge/zksync/libraries/PriorityQueue.sol\":2181:2192  _queue.head */\n      0x02\n      add\n      sload\n        /* \"contracts/bridges/bridge/zksync/libraries/PriorityQueue.sol\":2167:2173  _queue */\n      dup3\n        /* \"contracts/bridges/bridge/zksync/libraries/PriorityQueue.sol\":2167:2178  _queue.tail */\n      0x01\n      add\n      sload\n        /* \"contracts/bridges/bridge/zksync/libraries/PriorityQueue.sol\":2167:2192  _queue.tail - _queue.head */\n      tag_267\n      swap2\n      swap1\n      tag_268\n      jump\t// in\n    tag_267:\n        /* \"contracts/bridges/bridge/zksync/libraries/PriorityQueue.sol\":2152:2193  return uint256(_queue.tail - _queue.head) */\n      swap1\n      pop\n        /* \"contracts/bridges/bridge/zksync/libraries/PriorityQueue.sol\":2070:2201  function getSize(Queue storage _queue) internal view returns (uint256) {... */\n      swap2\n      swap1\n      pop\n      jump\t// out\n        /* \"contracts/bridges/bridge/zksync/libraries/PriorityQueue.sol\":1590:1720  function getFirstUnprocessedPriorityTx(Queue storage _queue) internal view returns (uint256) {... */\n    tag_199:\n        /* \"contracts/bridges/bridge/zksync/libraries/PriorityQueue.sol\":1674:1681  uint256 */\n      0x00\n        /* \"contracts/bridges/bridge/zksync/libraries/PriorityQueue.sol\":1701:1707  _queue */\n      dup2\n        /* \"contracts/bridges/bridge/zksync/libraries/PriorityQueue.sol\":1701:1712  _queue.head */\n      0x02\n      add\n      sload\n        /* \"contracts/bridges/bridge/zksync/libraries/PriorityQueue.sol\":1694:1712  return _queue.head */\n      swap1\n      pop\n        /* \"contracts/bridges/bridge/zksync/libraries/PriorityQueue.sol\":1590:1720  function getFirstUnprocessedPriorityTx(Queue storage _queue) internal view returns (uint256) {... */\n      swap2\n      swap1\n      pop\n      jump\t// out\n        /* \"contracts/bridges/bridge/common/libraries/UncheckedMath.sol\":223:367  function uncheckedInc(uint256 _number) internal pure returns (uint256) {... */\n    tag_221:\n        /* \"contracts/bridges/bridge/common/libraries/UncheckedMath.sol\":285:292  uint256 */\n      0x00\n        /* \"contracts/bridges/bridge/common/libraries/UncheckedMath.sol\":347:348  1 */\n      0x01\n        /* \"contracts/bridges/bridge/common/libraries/UncheckedMath.sol\":337:344  _number */\n      dup3\n        /* \"contracts/bridges/bridge/common/libraries/UncheckedMath.sol\":337:348  _number + 1 */\n      add\n        /* \"contracts/bridges/bridge/common/libraries/UncheckedMath.sol\":330:348  return _number + 1 */\n      swap1\n      pop\n        /* \"contracts/bridges/bridge/common/libraries/UncheckedMath.sol\":223:367  function uncheckedInc(uint256 _number) internal pure returns (uint256) {... */\n      swap2\n      swap1\n      pop\n      jump\t// out\n        /* \"contracts/bridges/bridge/zksync/libraries/PriorityQueue.sol\":1853:1973  function getTotalPriorityTxs(Queue storage _queue) internal view returns (uint256) {... */\n    tag_228:\n        /* \"contracts/bridges/bridge/zksync/libraries/PriorityQueue.sol\":1927:1934  uint256 */\n      0x00\n        /* \"contracts/bridges/bridge/zksync/libraries/PriorityQueue.sol\":1954:1960  _queue */\n      dup2\n        /* \"contracts/bridges/bridge/zksync/libraries/PriorityQueue.sol\":1954:1965  _queue.tail */\n      0x01\n      add\n      sload\n        /* \"contracts/bridges/bridge/zksync/libraries/PriorityQueue.sol\":1947:1965  return _queue.tail */\n      swap1\n      pop\n        /* \"contracts/bridges/bridge/zksync/libraries/PriorityQueue.sol\":1853:1973  function getTotalPriorityTxs(Queue storage _queue) internal view returns (uint256) {... */\n      swap2\n      swap1\n      pop\n      jump\t// out\n        /* \"contracts/bridges/bridge/zksync/libraries/PriorityQueue.sol\":2276:2396  function isEmpty(Queue storage _queue) internal view returns (bool) {... */\n    tag_262:\n        /* \"contracts/bridges/bridge/zksync/libraries/PriorityQueue.sol\":2338:2342  bool */\n      0x00\n        /* \"contracts/bridges/bridge/zksync/libraries/PriorityQueue.sol\":2377:2383  _queue */\n      dup2\n        /* \"contracts/bridges/bridge/zksync/libraries/PriorityQueue.sol\":2377:2388  _queue.head */\n      0x02\n      add\n      sload\n        /* \"contracts/bridges/bridge/zksync/libraries/PriorityQueue.sol\":2362:2368  _queue */\n      dup3\n        /* \"contracts/bridges/bridge/zksync/libraries/PriorityQueue.sol\":2362:2373  _queue.tail */\n      0x01\n      add\n      sload\n        /* \"contracts/bridges/bridge/zksync/libraries/PriorityQueue.sol\":2362:2388  _queue.tail == _queue.head */\n      eq\n        /* \"contracts/bridges/bridge/zksync/libraries/PriorityQueue.sol\":2355:2388  return _queue.tail == _queue.head */\n      swap1\n      pop\n        /* \"contracts/bridges/bridge/zksync/libraries/PriorityQueue.sol\":2276:2396  function isEmpty(Queue storage _queue) internal view returns (bool) {... */\n      swap2\n      swap1\n      pop\n      jump\t// out\n    tag_175:\n      mload(0x40)\n      dup1\n      0x60\n      add\n      0x40\n      mstore\n      dup1\n      0x00\n      dup1\n      not\n      and\n      dup2\n      mstore\n      0x20\n      add\n      0x00\n      dup1\n      not\n      and\n      dup2\n      mstore\n      0x20\n      add\n      0x00\n      dup1\n      not\n      and\n      dup2\n      mstore\n      pop\n      swap1\n      jump\t// out\n    tag_189:\n      mload(0x40)\n      dup1\n      0x60\n      add\n      0x40\n      mstore\n      dup1\n      0x00\n      dup1\n      not\n      and\n      dup2\n      mstore\n      0x20\n      add\n      and(0xffffffffffffffff, 0x00)\n      dup2\n      mstore\n      0x20\n      add\n      and(0xffffffffffffffffffffffffffffffffffffffffffffffff, 0x00)\n      dup2\n      mstore\n      pop\n      swap1\n      jump\t// out\n    tag_208:\n      mload(0x40)\n      dup1\n      0x40\n      add\n      0x40\n      mstore\n      dup1\n      and(0xffffffffffffffffffffffffffffffffffffffff, 0x00)\n      dup2\n      mstore\n      0x20\n      add\n      0x60\n      dup2\n      mstore\n      pop\n      swap1\n      jump\t// out\n        /* \"#utility.yul\":7:84   */\n    tag_273:\n        /* \"#utility.yul\":44:51   */\n      0x00\n        /* \"#utility.yul\":73:78   */\n      dup2\n        /* \"#utility.yul\":62:78   */\n      swap1\n      pop\n        /* \"#utility.yul\":7:84   */\n      swap2\n      swap1\n      pop\n      jump\t// out\n        /* \"#utility.yul\":90:208   */\n    tag_274:\n        /* \"#utility.yul\":177:201   */\n      tag_335\n        /* \"#utility.yul\":195:200   */\n      dup2\n        /* \"#utility.yul\":177:201   */\n      tag_273\n      jump\t// in\n    tag_335:\n        /* \"#utility.yul\":172:175   */\n      dup3\n        /* \"#utility.yul\":165:202   */\n      mstore\n        /* \"#utility.yul\":90:208   */\n      pop\n      pop\n      jump\t// out\n        /* \"#utility.yul\":214:436   */\n    tag_48:\n        /* \"#utility.yul\":307:311   */\n      0x00\n        /* \"#utility.yul\":345:347   */\n      0x20\n        /* \"#utility.yul\":334:343   */\n      dup3\n        /* \"#utility.yul\":330:348   */\n      add\n        /* \"#utility.yul\":322:348   */\n      swap1\n      pop\n        /* \"#utility.yul\":358:429   */\n      tag_337\n        /* \"#utility.yul\":426:427   */\n      0x00\n        /* \"#utility.yul\":415:424   */\n      dup4\n        /* \"#utility.yul\":411:428   */\n      add\n        /* \"#utility.yul\":402:408   */\n      dup5\n        /* \"#utility.yul\":358:429   */\n      tag_274\n      jump\t// in\n    tag_337:\n        /* \"#utility.yul\":214:436   */\n      swap3\n      swap2\n      pop\n      pop\n      jump\t// out\n        /* \"#utility.yul\":442:541   */\n    tag_275:\n        /* \"#utility.yul\":494:500   */\n      0x00\n        /* \"#utility.yul\":528:533   */\n      dup2\n        /* \"#utility.yul\":522:534   */\n      mload\n        /* \"#utility.yul\":512:534   */\n      swap1\n      pop\n        /* \"#utility.yul\":442:541   */\n      swap2\n      swap1\n      pop\n      jump\t// out\n        /* \"#utility.yul\":547:716   */\n    tag_276:\n        /* \"#utility.yul\":631:642   */\n      0x00\n        /* \"#utility.yul\":665:671   */\n      dup3\n        /* \"#utility.yul\":660:663   */\n      dup3\n        /* \"#utility.yul\":653:672   */\n      mstore\n        /* \"#utility.yul\":705:709   */\n      0x20\n        /* \"#utility.yul\":700:703   */\n      dup3\n        /* \"#utility.yul\":696:710   */\n      add\n        /* \"#utility.yul\":681:710   */\n      swap1\n      pop\n        /* \"#utility.yul\":547:716   */\n      swap3\n      swap2\n      pop\n      pop\n      jump\t// out\n        /* \"#utility.yul\":722:861   */\n    tag_277:\n        /* \"#utility.yul\":811:817   */\n      dup3\n        /* \"#utility.yul\":806:809   */\n      dup2\n        /* \"#utility.yul\":801:804   */\n      dup4\n        /* \"#utility.yul\":795:818   */\n      mcopy\n        /* \"#utility.yul\":852:853   */\n      0x00\n        /* \"#utility.yul\":843:849   */\n      dup4\n        /* \"#utility.yul\":838:841   */\n      dup4\n        /* \"#utility.yul\":834:850   */\n      add\n        /* \"#utility.yul\":827:854   */\n      mstore\n        /* \"#utility.yul\":722:861   */\n      pop\n      pop\n      pop\n      jump\t// out\n        /* \"#utility.yul\":867:969   */\n    tag_278:\n        /* \"#utility.yul\":908:914   */\n      0x00\n        /* \"#utility.yul\":959:961   */\n      0x1f\n        /* \"#utility.yul\":955:962   */\n      not\n        /* \"#utility.yul\":950:952   */\n      0x1f\n        /* \"#utility.yul\":943:948   */\n      dup4\n        /* \"#utility.yul\":939:953   */\n      add\n        /* \"#utility.yul\":935:963   */\n      and\n        /* \"#utility.yul\":925:963   */\n      swap1\n      pop\n        /* \"#utility.yul\":867:969   */\n      swap2\n      swap1\n      pop\n      jump\t// out\n        /* \"#utility.yul\":975:1352   */\n    tag_279:\n        /* \"#utility.yul\":1063:1066   */\n      0x00\n        /* \"#utility.yul\":1091:1130   */\n      tag_343\n        /* \"#utility.yul\":1124:1129   */\n      dup3\n        /* \"#utility.yul\":1091:1130   */\n      tag_275\n      jump\t// in\n    tag_343:\n        /* \"#utility.yul\":1146:1217   */\n      tag_344\n        /* \"#utility.yul\":1210:1216   */\n      dup2\n        /* \"#utility.yul\":1205:1208   */\n      dup6\n        /* \"#utility.yul\":1146:1217   */\n      tag_276\n      jump\t// in\n    tag_344:\n        /* \"#utility.yul\":1139:1217   */\n      swap4\n      pop\n        /* \"#utility.yul\":1226:1291   */\n      tag_345\n        /* \"#utility.yul\":1284:1290   */\n      dup2\n        /* \"#utility.yul\":1279:1282   */\n      dup6\n        /* \"#utility.yul\":1272:1276   */\n      0x20\n        /* \"#utility.yul\":1265:1270   */\n      dup7\n        /* \"#utility.yul\":1261:1277   */\n      add\n        /* \"#utility.yul\":1226:1291   */\n      tag_277\n      jump\t// in\n    tag_345:\n        /* \"#utility.yul\":1316:1345   */\n      tag_346\n        /* \"#utility.yul\":1338:1344   */\n      dup2\n        /* \"#utility.yul\":1316:1345   */\n      tag_278\n      jump\t// in\n    tag_346:\n        /* \"#utility.yul\":1311:1314   */\n      dup5\n        /* \"#utility.yul\":1307:1346   */\n      add\n        /* \"#utility.yul\":1300:1346   */\n      swap2\n      pop\n        /* \"#utility.yul\":1067:1352   */\n      pop\n        /* \"#utility.yul\":975:1352   */\n      swap3\n      swap2\n      pop\n      pop\n      jump\t// out\n        /* \"#utility.yul\":1358:1671   */\n    tag_52:\n        /* \"#utility.yul\":1471:1475   */\n      0x00\n        /* \"#utility.yul\":1509:1511   */\n      0x20\n        /* \"#utility.yul\":1498:1507   */\n      dup3\n        /* \"#utility.yul\":1494:1512   */\n      add\n        /* \"#utility.yul\":1486:1512   */\n      swap1\n      pop\n        /* \"#utility.yul\":1558:1567   */\n      dup2\n        /* \"#utility.yul\":1552:1556   */\n      dup2\n        /* \"#utility.yul\":1548:1568   */\n      sub\n        /* \"#utility.yul\":1544:1545   */\n      0x00\n        /* \"#utility.yul\":1533:1542   */\n      dup4\n        /* \"#utility.yul\":1529:1546   */\n      add\n        /* \"#utility.yul\":1522:1569   */\n      mstore\n        /* \"#utility.yul\":1586:1664   */\n      tag_348\n        /* \"#utility.yul\":1659:1663   */\n      dup2\n        /* \"#utility.yul\":1650:1656   */\n      dup5\n        /* \"#utility.yul\":1586:1664   */\n      tag_279\n      jump\t// in\n    tag_348:\n        /* \"#utility.yul\":1578:1664   */\n      swap1\n      pop\n        /* \"#utility.yul\":1358:1671   */\n      swap3\n      swap2\n      pop\n      pop\n      jump\t// out\n        /* \"#utility.yul\":1677:1754   */\n    tag_280:\n        /* \"#utility.yul\":1714:1721   */\n      0x00\n        /* \"#utility.yul\":1743:1748   */\n      dup2\n        /* \"#utility.yul\":1732:1748   */\n      swap1\n      pop\n        /* \"#utility.yul\":1677:1754   */\n      swap2\n      swap1\n      pop\n      jump\t// out\n        /* \"#utility.yul\":1760:1868   */\n    tag_281:\n        /* \"#utility.yul\":1837:1861   */\n      tag_351\n        /* \"#utility.yul\":1855:1860   */\n      dup2\n        /* \"#utility.yul\":1837:1861   */\n      tag_280\n      jump\t// in\n    tag_351:\n        /* \"#utility.yul\":1832:1835   */\n      dup3\n        /* \"#utility.yul\":1825:1862   */\n      mstore\n        /* \"#utility.yul\":1760:1868   */\n      pop\n      pop\n      jump\t// out\n        /* \"#utility.yul\":1928:2686   */\n    tag_282:\n        /* \"#utility.yul\":2089:2093   */\n      0x60\n        /* \"#utility.yul\":2084:2087   */\n      dup3\n        /* \"#utility.yul\":2080:2094   */\n      add\n        /* \"#utility.yul\":2196:2200   */\n      0x00\n        /* \"#utility.yul\":2189:2194   */\n      dup3\n        /* \"#utility.yul\":2185:2201   */\n      add\n        /* \"#utility.yul\":2179:2202   */\n      mload\n        /* \"#utility.yul\":2215:2278   */\n      tag_353\n        /* \"#utility.yul\":2272:2276   */\n      0x00\n        /* \"#utility.yul\":2267:2270   */\n      dup6\n        /* \"#utility.yul\":2263:2277   */\n      add\n        /* \"#utility.yul\":2249:2261   */\n      dup3\n        /* \"#utility.yul\":2215:2278   */\n      tag_281\n      jump\t// in\n    tag_353:\n        /* \"#utility.yul\":2104:2288   */\n      pop\n        /* \"#utility.yul\":2390:2394   */\n      0x20\n        /* \"#utility.yul\":2383:2388   */\n      dup3\n        /* \"#utility.yul\":2379:2395   */\n      add\n        /* \"#utility.yul\":2373:2396   */\n      mload\n        /* \"#utility.yul\":2409:2472   */\n      tag_354\n        /* \"#utility.yul\":2466:2470   */\n      0x20\n        /* \"#utility.yul\":2461:2464   */\n      dup6\n        /* \"#utility.yul\":2457:2471   */\n      add\n        /* \"#utility.yul\":2443:2455   */\n      dup3\n        /* \"#utility.yul\":2409:2472   */\n      tag_281\n      jump\t// in\n    tag_354:\n        /* \"#utility.yul\":2298:2482   */\n      pop\n        /* \"#utility.yul\":2587:2591   */\n      0x40\n        /* \"#utility.yul\":2580:2585   */\n      dup3\n        /* \"#utility.yul\":2576:2592   */\n      add\n        /* \"#utility.yul\":2570:2593   */\n      mload\n        /* \"#utility.yul\":2606:2669   */\n      tag_355\n        /* \"#utility.yul\":2663:2667   */\n      0x40\n        /* \"#utility.yul\":2658:2661   */\n      dup6\n        /* \"#utility.yul\":2654:2668   */\n      add\n        /* \"#utility.yul\":2640:2652   */\n      dup3\n        /* \"#utility.yul\":2606:2669   */\n      tag_281\n      jump\t// in\n    tag_355:\n        /* \"#utility.yul\":2492:2679   */\n      pop\n        /* \"#utility.yul\":2058:2686   */\n      pop\n        /* \"#utility.yul\":1928:2686   */\n      pop\n      pop\n      jump\t// out\n        /* \"#utility.yul\":2692:3042   */\n    tag_56:\n        /* \"#utility.yul\":2849:2853   */\n      0x00\n        /* \"#utility.yul\":2887:2889   */\n      0x60\n        /* \"#utility.yul\":2876:2885   */\n      dup3\n        /* \"#utility.yul\":2872:2890   */\n      add\n        /* \"#utility.yul\":2864:2890   */\n      swap1\n      pop\n        /* \"#utility.yul\":2900:3035   */\n      tag_357\n        /* \"#utility.yul\":3032:3033   */\n      0x00\n        /* \"#utility.yul\":3021:3030   */\n      dup4\n        /* \"#utility.yul\":3017:3034   */\n      add\n        /* \"#utility.yul\":3008:3014   */\n      dup5\n        /* \"#utility.yul\":2900:3035   */\n      tag_282\n      jump\t// in\n    tag_357:\n        /* \"#utility.yul\":2692:3042   */\n      swap3\n      swap2\n      pop\n      pop\n      jump\t// out\n        /* \"#utility.yul\":3048:3138   */\n    tag_283:\n        /* \"#utility.yul\":3082:3089   */\n      0x00\n        /* \"#utility.yul\":3125:3130   */\n      dup2\n        /* \"#utility.yul\":3118:3131   */\n      iszero\n        /* \"#utility.yul\":3111:3132   */\n      iszero\n        /* \"#utility.yul\":3100:3132   */\n      swap1\n      pop\n        /* \"#utility.yul\":3048:3138   */\n      swap2\n      swap1\n      pop\n      jump\t// out\n        /* \"#utility.yul\":3144:3253   */\n    tag_284:\n        /* \"#utility.yul\":3225:3246   */\n      tag_360\n        /* \"#utility.yul\":3240:3245   */\n      dup2\n        /* \"#utility.yul\":3225:3246   */\n      tag_283\n      jump\t// in\n    tag_360:\n        /* \"#utility.yul\":3220:3223   */\n      dup3\n        /* \"#utility.yul\":3213:3247   */\n      mstore\n        /* \"#utility.yul\":3144:3253   */\n      pop\n      pop\n      jump\t// out\n        /* \"#utility.yul\":3259:3469   */\n    tag_60:\n        /* \"#utility.yul\":3346:3350   */\n      0x00\n        /* \"#utility.yul\":3384:3386   */\n      0x20\n        /* \"#utility.yul\":3373:3382   */\n      dup3\n        /* \"#utility.yul\":3369:3387   */\n      add\n        /* \"#utility.yul\":3361:3387   */\n      swap1\n      pop\n        /* \"#utility.yul\":3397:3462   */\n      tag_362\n        /* \"#utility.yul\":3459:3460   */\n      0x00\n        /* \"#utility.yul\":3448:3457   */\n      dup4\n        /* \"#utility.yul\":3444:3461   */\n      add\n        /* \"#utility.yul\":3435:3441   */\n      dup5\n        /* \"#utility.yul\":3397:3462   */\n      tag_284\n      jump\t// in\n    tag_362:\n        /* \"#utility.yul\":3259:3469   */\n      swap3\n      swap2\n      pop\n      pop\n      jump\t// out\n        /* \"#utility.yul\":3475:3601   */\n    tag_285:\n        /* \"#utility.yul\":3512:3519   */\n      0x00\n        /* \"#utility.yul\":3552:3594   */\n      0xffffffffffffffffffffffffffffffffffffffff\n        /* \"#utility.yul\":3545:3550   */\n      dup3\n        /* \"#utility.yul\":3541:3595   */\n      and\n        /* \"#utility.yul\":3530:3595   */\n      swap1\n      pop\n        /* \"#utility.yul\":3475:3601   */\n      swap2\n      swap1\n      pop\n      jump\t// out\n        /* \"#utility.yul\":3607:3703   */\n    tag_286:\n        /* \"#utility.yul\":3644:3651   */\n      0x00\n        /* \"#utility.yul\":3673:3697   */\n      tag_365\n        /* \"#utility.yul\":3691:3696   */\n      dup3\n        /* \"#utility.yul\":3673:3697   */\n      tag_285\n      jump\t// in\n    tag_365:\n        /* \"#utility.yul\":3662:3697   */\n      swap1\n      pop\n        /* \"#utility.yul\":3607:3703   */\n      swap2\n      swap1\n      pop\n      jump\t// out\n        /* \"#utility.yul\":3709:3827   */\n    tag_287:\n        /* \"#utility.yul\":3796:3820   */\n      tag_367\n        /* \"#utility.yul\":3814:3819   */\n      dup2\n        /* \"#utility.yul\":3796:3820   */\n      tag_286\n      jump\t// in\n    tag_367:\n        /* \"#utility.yul\":3791:3794   */\n      dup3\n        /* \"#utility.yul\":3784:3821   */\n      mstore\n        /* \"#utility.yul\":3709:3827   */\n      pop\n      pop\n      jump\t// out\n        /* \"#utility.yul\":3833:4055   */\n    tag_70:\n        /* \"#utility.yul\":3926:3930   */\n      0x00\n        /* \"#utility.yul\":3964:3966   */\n      0x20\n        /* \"#utility.yul\":3953:3962   */\n      dup3\n        /* \"#utility.yul\":3949:3967   */\n      add\n        /* \"#utility.yul\":3941:3967   */\n      swap1\n      pop\n        /* \"#utility.yul\":3977:4048   */\n      tag_369\n        /* \"#utility.yul\":4045:4046   */\n      0x00\n        /* \"#utility.yul\":4034:4043   */\n      dup4\n        /* \"#utility.yul\":4030:4047   */\n      add\n        /* \"#utility.yul\":4021:4027   */\n      dup5\n        /* \"#utility.yul\":3977:4048   */\n      tag_287\n      jump\t// in\n    tag_369:\n        /* \"#utility.yul\":3833:4055   */\n      swap3\n      swap2\n      pop\n      pop\n      jump\t// out\n        /* \"#utility.yul\":4061:4175   */\n    tag_288:\n        /* \"#utility.yul\":4128:4134   */\n      0x00\n        /* \"#utility.yul\":4162:4167   */\n      dup2\n        /* \"#utility.yul\":4156:4168   */\n      mload\n        /* \"#utility.yul\":4146:4168   */\n      swap1\n      pop\n        /* \"#utility.yul\":4061:4175   */\n      swap2\n      swap1\n      pop\n      jump\t// out\n        /* \"#utility.yul\":4181:4365   */\n    tag_289:\n        /* \"#utility.yul\":4280:4291   */\n      0x00\n        /* \"#utility.yul\":4314:4320   */\n      dup3\n        /* \"#utility.yul\":4309:4312   */\n      dup3\n        /* \"#utility.yul\":4302:4321   */\n      mstore\n        /* \"#utility.yul\":4354:4358   */\n      0x20\n        /* \"#utility.yul\":4349:4352   */\n      dup3\n        /* \"#utility.yul\":4345:4359   */\n      add\n        /* \"#utility.yul\":4330:4359   */\n      swap1\n      pop\n        /* \"#utility.yul\":4181:4365   */\n      swap3\n      swap2\n      pop\n      pop\n      jump\t// out\n        /* \"#utility.yul\":4371:4503   */\n    tag_290:\n        /* \"#utility.yul\":4438:4442   */\n      0x00\n        /* \"#utility.yul\":4461:4464   */\n      dup2\n        /* \"#utility.yul\":4453:4464   */\n      swap1\n      pop\n        /* \"#utility.yul\":4491:4495   */\n      0x20\n        /* \"#utility.yul\":4486:4489   */\n      dup3\n        /* \"#utility.yul\":4482:4496   */\n      add\n        /* \"#utility.yul\":4474:4496   */\n      swap1\n      pop\n        /* \"#utility.yul\":4371:4503   */\n      swap2\n      swap1\n      pop\n      jump\t// out\n        /* \"#utility.yul\":4509:4617   */\n    tag_291:\n        /* \"#utility.yul\":4586:4610   */\n      tag_374\n        /* \"#utility.yul\":4604:4609   */\n      dup2\n        /* \"#utility.yul\":4586:4610   */\n      tag_286\n      jump\t// in\n    tag_374:\n        /* \"#utility.yul\":4581:4584   */\n      dup3\n        /* \"#utility.yul\":4574:4611   */\n      mstore\n        /* \"#utility.yul\":4509:4617   */\n      pop\n      pop\n      jump\t// out\n        /* \"#utility.yul\":4623:4802   */\n    tag_292:\n        /* \"#utility.yul\":4692:4702   */\n      0x00\n        /* \"#utility.yul\":4713:4759   */\n      tag_376\n        /* \"#utility.yul\":4755:4758   */\n      dup4\n        /* \"#utility.yul\":4747:4753   */\n      dup4\n        /* \"#utility.yul\":4713:4759   */\n      tag_291\n      jump\t// in\n    tag_376:\n        /* \"#utility.yul\":4791:4795   */\n      0x20\n        /* \"#utility.yul\":4786:4789   */\n      dup4\n        /* \"#utility.yul\":4782:4796   */\n      add\n        /* \"#utility.yul\":4768:4796   */\n      swap1\n      pop\n        /* \"#utility.yul\":4623:4802   */\n      swap3\n      swap2\n      pop\n      pop\n      jump\t// out\n        /* \"#utility.yul\":4808:4921   */\n    tag_293:\n        /* \"#utility.yul\":4878:4882   */\n      0x00\n        /* \"#utility.yul\":4910:4914   */\n      0x20\n        /* \"#utility.yul\":4905:4908   */\n      dup3\n        /* \"#utility.yul\":4901:4915   */\n      add\n        /* \"#utility.yul\":4893:4915   */\n      swap1\n      pop\n        /* \"#utility.yul\":4808:4921   */\n      swap2\n      swap1\n      pop\n      jump\t// out\n        /* \"#utility.yul\":4957:5689   */\n    tag_294:\n        /* \"#utility.yul\":5076:5079   */\n      0x00\n        /* \"#utility.yul\":5105:5159   */\n      tag_379\n        /* \"#utility.yul\":5153:5158   */\n      dup3\n        /* \"#utility.yul\":5105:5159   */\n      tag_288\n      jump\t// in\n    tag_379:\n        /* \"#utility.yul\":5175:5261   */\n      tag_380\n        /* \"#utility.yul\":5254:5260   */\n      dup2\n        /* \"#utility.yul\":5249:5252   */\n      dup6\n        /* \"#utility.yul\":5175:5261   */\n      tag_289\n      jump\t// in\n    tag_380:\n        /* \"#utility.yul\":5168:5261   */\n      swap4\n      pop\n        /* \"#utility.yul\":5285:5341   */\n      tag_381\n        /* \"#utility.yul\":5335:5340   */\n      dup4\n        /* \"#utility.yul\":5285:5341   */\n      tag_290\n      jump\t// in\n    tag_381:\n        /* \"#utility.yul\":5364:5371   */\n      dup1\n        /* \"#utility.yul\":5395:5396   */\n      0x00\n        /* \"#utility.yul\":5380:5664   */\n    tag_382:\n        /* \"#utility.yul\":5405:5411   */\n      dup4\n        /* \"#utility.yul\":5402:5403   */\n      dup2\n        /* \"#utility.yul\":5399:5412   */\n      lt\n        /* \"#utility.yul\":5380:5664   */\n      iszero\n      tag_384\n      jumpi\n        /* \"#utility.yul\":5481:5487   */\n      dup2\n        /* \"#utility.yul\":5475:5488   */\n      mload\n        /* \"#utility.yul\":5508:5571   */\n      tag_385\n        /* \"#utility.yul\":5567:5570   */\n      dup9\n        /* \"#utility.yul\":5552:5565   */\n      dup3\n        /* \"#utility.yul\":5508:5571   */\n      tag_292\n      jump\t// in\n    tag_385:\n        /* \"#utility.yul\":5501:5571   */\n      swap8\n      pop\n        /* \"#utility.yul\":5594:5654   */\n      tag_386\n        /* \"#utility.yul\":5647:5653   */\n      dup4\n        /* \"#utility.yul\":5594:5654   */\n      tag_293\n      jump\t// in\n    tag_386:\n        /* \"#utility.yul\":5584:5654   */\n      swap3\n      pop\n        /* \"#utility.yul\":5440:5664   */\n      pop\n        /* \"#utility.yul\":5427:5428   */\n      0x01\n        /* \"#utility.yul\":5424:5425   */\n      dup2\n        /* \"#utility.yul\":5420:5429   */\n      add\n        /* \"#utility.yul\":5415:5429   */\n      swap1\n      pop\n        /* \"#utility.yul\":5380:5664   */\n      jump(tag_382)\n    tag_384:\n        /* \"#utility.yul\":5384:5398   */\n      pop\n        /* \"#utility.yul\":5680:5683   */\n      dup6\n        /* \"#utility.yul\":5673:5683   */\n      swap4\n      pop\n        /* \"#utility.yul\":5081:5689   */\n      pop\n      pop\n      pop\n        /* \"#utility.yul\":4957:5689   */\n      swap3\n      swap2\n      pop\n      pop\n      jump\t// out\n        /* \"#utility.yul\":5695:6068   */\n    tag_77:\n        /* \"#utility.yul\":5838:5842   */\n      0x00\n        /* \"#utility.yul\":5876:5878   */\n      0x20\n        /* \"#utility.yul\":5865:5874   */\n      dup3\n        /* \"#utility.yul\":5861:5879   */\n      add\n        /* \"#utility.yul\":5853:5879   */\n      swap1\n      pop\n        /* \"#utility.yul\":5925:5934   */\n      dup2\n        /* \"#utility.yul\":5919:5923   */\n      dup2\n        /* \"#utility.yul\":5915:5935   */\n      sub\n        /* \"#utility.yul\":5911:5912   */\n      0x00\n        /* \"#utility.yul\":5900:5909   */\n      dup4\n        /* \"#utility.yul\":5896:5913   */\n      add\n        /* \"#utility.yul\":5889:5936   */\n      mstore\n        /* \"#utility.yul\":5953:6061   */\n      tag_388\n        /* \"#utility.yul\":6056:6060   */\n      dup2\n        /* \"#utility.yul\":6047:6053   */\n      dup5\n        /* \"#utility.yul\":5953:6061   */\n      tag_294\n      jump\t// in\n    tag_388:\n        /* \"#utility.yul\":5945:6061   */\n      swap1\n      pop\n        /* \"#utility.yul\":5695:6068   */\n      swap3\n      swap2\n      pop\n      pop\n      jump\t// out\n        /* \"#utility.yul\":6074:6175   */\n    tag_295:\n        /* \"#utility.yul\":6110:6117   */\n      0x00\n        /* \"#utility.yul\":6150:6168   */\n      0xffffffffffffffff\n        /* \"#utility.yul\":6143:6148   */\n      dup3\n        /* \"#utility.yul\":6139:6169   */\n      and\n        /* \"#utility.yul\":6128:6169   */\n      swap1\n      pop\n        /* \"#utility.yul\":6074:6175   */\n      swap2\n      swap1\n      pop\n      jump\t// out\n        /* \"#utility.yul\":6181:6286   */\n    tag_296:\n        /* \"#utility.yul\":6256:6279   */\n      tag_391\n        /* \"#utility.yul\":6273:6278   */\n      dup2\n        /* \"#utility.yul\":6256:6279   */\n      tag_295\n      jump\t// in\n    tag_391:\n        /* \"#utility.yul\":6251:6254   */\n      dup3\n        /* \"#utility.yul\":6244:6280   */\n      mstore\n        /* \"#utility.yul\":6181:6286   */\n      pop\n      pop\n      jump\t// out\n        /* \"#utility.yul\":6292:6426   */\n    tag_297:\n        /* \"#utility.yul\":6329:6336   */\n      0x00\n        /* \"#utility.yul\":6369:6419   */\n      0xffffffffffffffffffffffffffffffffffffffffffffffff\n        /* \"#utility.yul\":6362:6367   */\n      dup3\n        /* \"#utility.yul\":6358:6420   */\n      and\n        /* \"#utility.yul\":6347:6420   */\n      swap1\n      pop\n        /* \"#utility.yul\":6292:6426   */\n      swap2\n      swap1\n      pop\n      jump\t// out\n        /* \"#utility.yul\":6432:6540   */\n    tag_298:\n        /* \"#utility.yul\":6509:6533   */\n      tag_394\n        /* \"#utility.yul\":6527:6532   */\n      dup2\n        /* \"#utility.yul\":6509:6533   */\n      tag_297\n      jump\t// in\n    tag_394:\n        /* \"#utility.yul\":6504:6507   */\n      dup3\n        /* \"#utility.yul\":6497:6534   */\n      mstore\n        /* \"#utility.yul\":6432:6540   */\n      pop\n      pop\n      jump\t// out\n        /* \"#utility.yul\":6606:7336   */\n    tag_299:\n        /* \"#utility.yul\":6773:6777   */\n      0x60\n        /* \"#utility.yul\":6768:6771   */\n      dup3\n        /* \"#utility.yul\":6764:6778   */\n      add\n        /* \"#utility.yul\":6871:6875   */\n      0x00\n        /* \"#utility.yul\":6864:6869   */\n      dup3\n        /* \"#utility.yul\":6860:6876   */\n      add\n        /* \"#utility.yul\":6854:6877   */\n      mload\n        /* \"#utility.yul\":6890:6953   */\n      tag_396\n        /* \"#utility.yul\":6947:6951   */\n      0x00\n        /* \"#utility.yul\":6942:6945   */\n      dup6\n        /* \"#utility.yul\":6938:6952   */\n      add\n        /* \"#utility.yul\":6924:6936   */\n      dup3\n        /* \"#utility.yul\":6890:6953   */\n      tag_281\n      jump\t// in\n    tag_396:\n        /* \"#utility.yul\":6788:6963   */\n      pop\n        /* \"#utility.yul\":7060:7064   */\n      0x20\n        /* \"#utility.yul\":7053:7058   */\n      dup3\n        /* \"#utility.yul\":7049:7065   */\n      add\n        /* \"#utility.yul\":7043:7066   */\n      mload\n        /* \"#utility.yul\":7079:7140   */\n      tag_397\n        /* \"#utility.yul\":7134:7138   */\n      0x20\n        /* \"#utility.yul\":7129:7132   */\n      dup6\n        /* \"#utility.yul\":7125:7139   */\n      add\n        /* \"#utility.yul\":7111:7123   */\n      dup3\n        /* \"#utility.yul\":7079:7140   */\n      tag_296\n      jump\t// in\n    tag_397:\n        /* \"#utility.yul\":6973:7150   */\n      pop\n        /* \"#utility.yul\":7237:7241   */\n      0x40\n        /* \"#utility.yul\":7230:7235   */\n      dup3\n        /* \"#utility.yul\":7226:7242   */\n      add\n        /* \"#utility.yul\":7220:7243   */\n      mload\n        /* \"#utility.yul\":7256:7319   */\n      tag_398\n        /* \"#utility.yul\":7313:7317   */\n      0x40\n        /* \"#utility.yul\":7308:7311   */\n      dup6\n        /* \"#utility.yul\":7304:7318   */\n      add\n        /* \"#utility.yul\":7290:7302   */\n      dup3\n        /* \"#utility.yul\":7256:7319   */\n      tag_298\n      jump\t// in\n    tag_398:\n        /* \"#utility.yul\":7160:7329   */\n      pop\n        /* \"#utility.yul\":6742:7336   */\n      pop\n        /* \"#utility.yul\":6606:7336   */\n      pop\n      pop\n      jump\t// out\n        /* \"#utility.yul\":7342:7704   */\n    tag_81:\n        /* \"#utility.yul\":7505:7509   */\n      0x00\n        /* \"#utility.yul\":7543:7545   */\n      0x60\n        /* \"#utility.yul\":7532:7541   */\n      dup3\n        /* \"#utility.yul\":7528:7546   */\n      add\n        /* \"#utility.yul\":7520:7546   */\n      swap1\n      pop\n        /* \"#utility.yul\":7556:7697   */\n      tag_400\n        /* \"#utility.yul\":7694:7695   */\n      0x00\n        /* \"#utility.yul\":7683:7692   */\n      dup4\n        /* \"#utility.yul\":7679:7696   */\n      add\n        /* \"#utility.yul\":7670:7676   */\n      dup5\n        /* \"#utility.yul\":7556:7697   */\n      tag_299\n      jump\t// in\n    tag_400:\n        /* \"#utility.yul\":7342:7704   */\n      swap3\n      swap2\n      pop\n      pop\n      jump\t// out\n        /* \"#utility.yul\":7791:7908   */\n    tag_301:\n        /* \"#utility.yul\":7900:7901   */\n      0x00\n        /* \"#utility.yul\":7897:7898   */\n      dup1\n        /* \"#utility.yul\":7890:7902   */\n      revert\n        /* \"#utility.yul\":8037:8159   */\n    tag_303:\n        /* \"#utility.yul\":8110:8134   */\n      tag_405\n        /* \"#utility.yul\":8128:8133   */\n      dup2\n        /* \"#utility.yul\":8110:8134   */\n      tag_273\n      jump\t// in\n    tag_405:\n        /* \"#utility.yul\":8103:8108   */\n      dup2\n        /* \"#utility.yul\":8100:8135   */\n      eq\n        /* \"#utility.yul\":8090:8153   */\n      tag_406\n      jumpi\n        /* \"#utility.yul\":8149:8150   */\n      0x00\n        /* \"#utility.yul\":8146:8147   */\n      dup1\n        /* \"#utility.yul\":8139:8151   */\n      revert\n        /* \"#utility.yul\":8090:8153   */\n    tag_406:\n        /* \"#utility.yul\":8037:8159   */\n      pop\n      jump\t// out\n        /* \"#utility.yul\":8165:8304   */\n    tag_304:\n        /* \"#utility.yul\":8211:8216   */\n      0x00\n        /* \"#utility.yul\":8249:8255   */\n      dup2\n        /* \"#utility.yul\":8236:8256   */\n      calldataload\n        /* \"#utility.yul\":8227:8256   */\n      swap1\n      pop\n        /* \"#utility.yul\":8265:8298   */\n      tag_408\n        /* \"#utility.yul\":8292:8297   */\n      dup2\n        /* \"#utility.yul\":8265:8298   */\n      tag_303\n      jump\t// in\n    tag_408:\n        /* \"#utility.yul\":8165:8304   */\n      swap3\n      swap2\n      pop\n      pop\n      jump\t// out\n        /* \"#utility.yul\":8310:8639   */\n    tag_87:\n        /* \"#utility.yul\":8369:8375   */\n      0x00\n        /* \"#utility.yul\":8418:8420   */\n      0x20\n        /* \"#utility.yul\":8406:8415   */\n      dup3\n        /* \"#utility.yul\":8397:8404   */\n      dup5\n        /* \"#utility.yul\":8393:8416   */\n      sub\n        /* \"#utility.yul\":8389:8421   */\n      slt\n        /* \"#utility.yul\":8386:8505   */\n      iszero\n      tag_410\n      jumpi\n        /* \"#utility.yul\":8424:8503   */\n      tag_411\n      tag_301\n      jump\t// in\n    tag_411:\n        /* \"#utility.yul\":8386:8505   */\n    tag_410:\n        /* \"#utility.yul\":8544:8545   */\n      0x00\n        /* \"#utility.yul\":8569:8622   */\n      tag_412\n        /* \"#utility.yul\":8614:8621   */\n      dup5\n        /* \"#utility.yul\":8605:8611   */\n      dup3\n        /* \"#utility.yul\":8594:8603   */\n      dup6\n        /* \"#utility.yul\":8590:8612   */\n      add\n        /* \"#utility.yul\":8569:8622   */\n      tag_304\n      jump\t// in\n    tag_412:\n        /* \"#utility.yul\":8559:8622   */\n      swap2\n      pop\n        /* \"#utility.yul\":8515:8632   */\n      pop\n        /* \"#utility.yul\":8310:8639   */\n      swap3\n      swap2\n      pop\n      pop\n      jump\t// out\n        /* \"#utility.yul\":8645:8763   */\n    tag_305:\n        /* \"#utility.yul\":8732:8756   */\n      tag_414\n        /* \"#utility.yul\":8750:8755   */\n      dup2\n        /* \"#utility.yul\":8732:8756   */\n      tag_280\n      jump\t// in\n    tag_414:\n        /* \"#utility.yul\":8727:8730   */\n      dup3\n        /* \"#utility.yul\":8720:8757   */\n      mstore\n        /* \"#utility.yul\":8645:8763   */\n      pop\n      pop\n      jump\t// out\n        /* \"#utility.yul\":8769:8991   */\n    tag_90:\n        /* \"#utility.yul\":8862:8866   */\n      0x00\n        /* \"#utility.yul\":8900:8902   */\n      0x20\n        /* \"#utility.yul\":8889:8898   */\n      dup3\n        /* \"#utility.yul\":8885:8903   */\n      add\n        /* \"#utility.yul\":8877:8903   */\n      swap1\n      pop\n        /* \"#utility.yul\":8913:8984   */\n      tag_416\n        /* \"#utility.yul\":8981:8982   */\n      0x00\n        /* \"#utility.yul\":8970:8979   */\n      dup4\n        /* \"#utility.yul\":8966:8983   */\n      add\n        /* \"#utility.yul\":8957:8963   */\n      dup5\n        /* \"#utility.yul\":8913:8984   */\n      tag_305\n      jump\t// in\n    tag_416:\n        /* \"#utility.yul\":8769:8991   */\n      swap3\n      swap2\n      pop\n      pop\n      jump\t// out\n        /* \"#utility.yul\":8997:9134   */\n    tag_306:\n        /* \"#utility.yul\":9087:9093   */\n      0x00\n        /* \"#utility.yul\":9121:9126   */\n      dup2\n        /* \"#utility.yul\":9115:9127   */\n      mload\n        /* \"#utility.yul\":9105:9127   */\n      swap1\n      pop\n        /* \"#utility.yul\":8997:9134   */\n      swap2\n      swap1\n      pop\n      jump\t// out\n        /* \"#utility.yul\":9140:9347   */\n    tag_307:\n        /* \"#utility.yul\":9262:9273   */\n      0x00\n        /* \"#utility.yul\":9296:9302   */\n      dup3\n        /* \"#utility.yul\":9291:9294   */\n      dup3\n        /* \"#utility.yul\":9284:9303   */\n      mstore\n        /* \"#utility.yul\":9336:9340   */\n      0x20\n        /* \"#utility.yul\":9331:9334   */\n      dup3\n        /* \"#utility.yul\":9327:9341   */\n      add\n        /* \"#utility.yul\":9312:9341   */\n      swap1\n      pop\n        /* \"#utility.yul\":9140:9347   */\n      swap3\n      swap2\n      pop\n      pop\n      jump\t// out\n        /* \"#utility.yul\":9353:9508   */\n    tag_308:\n        /* \"#utility.yul\":9443:9447   */\n      0x00\n        /* \"#utility.yul\":9466:9469   */\n      dup2\n        /* \"#utility.yul\":9458:9469   */\n      swap1\n      pop\n        /* \"#utility.yul\":9496:9500   */\n      0x20\n        /* \"#utility.yul\":9491:9494   */\n      dup3\n        /* \"#utility.yul\":9487:9501   */\n      add\n        /* \"#utility.yul\":9479:9501   */\n      swap1\n      pop\n        /* \"#utility.yul\":9353:9508   */\n      swap2\n      swap1\n      pop\n      jump\t// out\n        /* \"#utility.yul\":9514:9627   */\n    tag_309:\n        /* \"#utility.yul\":9580:9586   */\n      0x00\n        /* \"#utility.yul\":9614:9619   */\n      dup2\n        /* \"#utility.yul\":9608:9620   */\n      mload\n        /* \"#utility.yul\":9598:9620   */\n      swap1\n      pop\n        /* \"#utility.yul\":9514:9627   */\n      swap2\n      swap1\n      pop\n      jump\t// out\n        /* \"#utility.yul\":9633:9806   */\n    tag_310:\n        /* \"#utility.yul\":9721:9732   */\n      0x00\n        /* \"#utility.yul\":9755:9761   */\n      dup3\n        /* \"#utility.yul\":9750:9753   */\n      dup3\n        /* \"#utility.yul\":9743:9762   */\n      mstore\n        /* \"#utility.yul\":9795:9799   */\n      0x20\n        /* \"#utility.yul\":9790:9793   */\n      dup3\n        /* \"#utility.yul\":9786:9800   */\n      add\n        /* \"#utility.yul\":9771:9800   */\n      swap1\n      pop\n        /* \"#utility.yul\":9633:9806   */\n      swap3\n      swap2\n      pop\n      pop\n      jump\t// out\n        /* \"#utility.yul\":9812:9943   */\n    tag_311:\n        /* \"#utility.yul\":9878:9882   */\n      0x00\n        /* \"#utility.yul\":9901:9904   */\n      dup2\n        /* \"#utility.yul\":9893:9904   */\n      swap1\n      pop\n        /* \"#utility.yul\":9931:9935   */\n      0x20\n        /* \"#utility.yul\":9926:9929   */\n      dup3\n        /* \"#utility.yul\":9922:9936   */\n      add\n        /* \"#utility.yul\":9914:9936   */\n      swap1\n      pop\n        /* \"#utility.yul\":9812:9943   */\n      swap2\n      swap1\n      pop\n      jump\t// out\n        /* \"#utility.yul\":9949:10098   */\n    tag_312:\n        /* \"#utility.yul\":9985:9992   */\n      0x00\n        /* \"#utility.yul\":10025:10091   */\n      0xffffffff00000000000000000000000000000000000000000000000000000000\n        /* \"#utility.yul\":10018:10023   */\n      dup3\n        /* \"#utility.yul\":10014:10092   */\n      and\n        /* \"#utility.yul\":10003:10092   */\n      swap1\n      pop\n        /* \"#utility.yul\":9949:10098   */\n      swap2\n      swap1\n      pop\n      jump\t// out\n        /* \"#utility.yul\":10104:10209   */\n    tag_313:\n        /* \"#utility.yul\":10179:10202   */\n      tag_425\n        /* \"#utility.yul\":10196:10201   */\n      dup2\n        /* \"#utility.yul\":10179:10202   */\n      tag_312\n      jump\t// in\n    tag_425:\n        /* \"#utility.yul\":10174:10177   */\n      dup3\n        /* \"#utility.yul\":10167:10203   */\n      mstore\n        /* \"#utility.yul\":10104:10209   */\n      pop\n      pop\n      jump\t// out\n        /* \"#utility.yul\":10215:10390   */\n    tag_314:\n        /* \"#utility.yul\":10282:10292   */\n      0x00\n        /* \"#utility.yul\":10303:10347   */\n      tag_427\n        /* \"#utility.yul\":10343:10346   */\n      dup4\n        /* \"#utility.yul\":10335:10341   */\n      dup4\n        /* \"#utility.yul\":10303:10347   */\n      tag_313\n      jump\t// in\n    tag_427:\n        /* \"#utility.yul\":10379:10383   */\n      0x20\n        /* \"#utility.yul\":10374:10377   */\n      dup4\n        /* \"#utility.yul\":10370:10384   */\n      add\n        /* \"#utility.yul\":10356:10384   */\n      swap1\n      pop\n        /* \"#utility.yul\":10215:10390   */\n      swap3\n      swap2\n      pop\n      pop\n      jump\t// out\n        /* \"#utility.yul\":10396:10508   */\n    tag_315:\n        /* \"#utility.yul\":10465:10469   */\n      0x00\n        /* \"#utility.yul\":10497:10501   */\n      0x20\n        /* \"#utility.yul\":10492:10495   */\n      dup3\n        /* \"#utility.yul\":10488:10502   */\n      add\n        /* \"#utility.yul\":10480:10502   */\n      swap1\n      pop\n        /* \"#utility.yul\":10396:10508   */\n      swap2\n      swap1\n      pop\n      jump\t// out\n        /* \"#utility.yul\":10542:11246   */\n    tag_316:\n        /* \"#utility.yul\":10649:10652   */\n      0x00\n        /* \"#utility.yul\":10678:10731   */\n      tag_430\n        /* \"#utility.yul\":10725:10730   */\n      dup3\n        /* \"#utility.yul\":10678:10731   */\n      tag_309\n      jump\t// in\n    tag_430:\n        /* \"#utility.yul\":10747:10822   */\n      tag_431\n        /* \"#utility.yul\":10815:10821   */\n      dup2\n        /* \"#utility.yul\":10810:10813   */\n      dup6\n        /* \"#utility.yul\":10747:10822   */\n      tag_310\n      jump\t// in\n    tag_431:\n        /* \"#utility.yul\":10740:10822   */\n      swap4\n      pop\n        /* \"#utility.yul\":10846:10901   */\n      tag_432\n        /* \"#utility.yul\":10895:10900   */\n      dup4\n        /* \"#utility.yul\":10846:10901   */\n      tag_311\n      jump\t// in\n    tag_432:\n        /* \"#utility.yul\":10924:10931   */\n      dup1\n        /* \"#utility.yul\":10955:10956   */\n      0x00\n        /* \"#utility.yul\":10940:11221   */\n    tag_433:\n        /* \"#utility.yul\":10965:10971   */\n      dup4\n        /* \"#utility.yul\":10962:10963   */\n      dup2\n        /* \"#utility.yul\":10959:10972   */\n      lt\n        /* \"#utility.yul\":10940:11221   */\n      iszero\n      tag_435\n      jumpi\n        /* \"#utility.yul\":11041:11047   */\n      dup2\n        /* \"#utility.yul\":11035:11048   */\n      mload\n        /* \"#utility.yul\":11068:11129   */\n      tag_436\n        /* \"#utility.yul\":11125:11128   */\n      dup9\n        /* \"#utility.yul\":11110:11123   */\n      dup3\n        /* \"#utility.yul\":11068:11129   */\n      tag_314\n      jump\t// in\n    tag_436:\n        /* \"#utility.yul\":11061:11129   */\n      swap8\n      pop\n        /* \"#utility.yul\":11152:11211   */\n      tag_437\n        /* \"#utility.yul\":11204:11210   */\n      dup4\n        /* \"#utility.yul\":11152:11211   */\n      tag_315\n      jump\t// in\n    tag_437:\n        /* \"#utility.yul\":11142:11211   */\n      swap3\n      pop\n        /* \"#utility.yul\":11000:11221   */\n      pop\n        /* \"#utility.yul\":10987:10988   */\n      0x01\n        /* \"#utility.yul\":10984:10985   */\n      dup2\n        /* \"#utility.yul\":10980:10989   */\n      add\n        /* \"#utility.yul\":10975:10989   */\n      swap1\n      pop\n        /* \"#utility.yul\":10940:11221   */\n      jump(tag_433)\n    tag_435:\n        /* \"#utility.yul\":10944:10958   */\n      pop\n        /* \"#utility.yul\":11237:11240   */\n      dup6\n        /* \"#utility.yul\":11230:11240   */\n      swap4\n      pop\n        /* \"#utility.yul\":10654:11246   */\n      pop\n      pop\n      pop\n        /* \"#utility.yul\":10542:11246   */\n      swap3\n      swap2\n      pop\n      pop\n      jump\t// out\n        /* \"#utility.yul\":11306:11931   */\n    tag_317:\n        /* \"#utility.yul\":11411:11414   */\n      0x00\n        /* \"#utility.yul\":11447:11451   */\n      0x40\n        /* \"#utility.yul\":11442:11445   */\n      dup4\n        /* \"#utility.yul\":11438:11452   */\n      add\n        /* \"#utility.yul\":11534:11538   */\n      0x00\n        /* \"#utility.yul\":11527:11532   */\n      dup4\n        /* \"#utility.yul\":11523:11539   */\n      add\n        /* \"#utility.yul\":11517:11540   */\n      mload\n        /* \"#utility.yul\":11553:11616   */\n      tag_439\n        /* \"#utility.yul\":11610:11614   */\n      0x00\n        /* \"#utility.yul\":11605:11608   */\n      dup7\n        /* \"#utility.yul\":11601:11615   */\n      add\n        /* \"#utility.yul\":11587:11599   */\n      dup3\n        /* \"#utility.yul\":11553:11616   */\n      tag_291\n      jump\t// in\n    tag_439:\n        /* \"#utility.yul\":11462:11626   */\n      pop\n        /* \"#utility.yul\":11713:11717   */\n      0x20\n        /* \"#utility.yul\":11706:11711   */\n      dup4\n        /* \"#utility.yul\":11702:11718   */\n      add\n        /* \"#utility.yul\":11696:11719   */\n      mload\n        /* \"#utility.yul\":11766:11769   */\n      dup5\n        /* \"#utility.yul\":11760:11764   */\n      dup3\n        /* \"#utility.yul\":11756:11770   */\n      sub\n        /* \"#utility.yul\":11749:11753   */\n      0x20\n        /* \"#utility.yul\":11744:11747   */\n      dup7\n        /* \"#utility.yul\":11740:11754   */\n      add\n        /* \"#utility.yul\":11733:11771   */\n      mstore\n        /* \"#utility.yul\":11792:11893   */\n      tag_440\n        /* \"#utility.yul\":11888:11892   */\n      dup3\n        /* \"#utility.yul\":11874:11886   */\n      dup3\n        /* \"#utility.yul\":11792:11893   */\n      tag_316\n      jump\t// in\n    tag_440:\n        /* \"#utility.yul\":11784:11893   */\n      swap2\n      pop\n        /* \"#utility.yul\":11636:11904   */\n      pop\n        /* \"#utility.yul\":11921:11925   */\n      dup1\n        /* \"#utility.yul\":11914:11925   */\n      swap2\n      pop\n        /* \"#utility.yul\":11416:11931   */\n      pop\n        /* \"#utility.yul\":11306:11931   */\n      swap3\n      swap2\n      pop\n      pop\n      jump\t// out\n        /* \"#utility.yul\":11937:12185   */\n    tag_318:\n        /* \"#utility.yul\":12052:12062   */\n      0x00\n        /* \"#utility.yul\":12087:12179   */\n      tag_442\n        /* \"#utility.yul\":12175:12178   */\n      dup4\n        /* \"#utility.yul\":12167:12173   */\n      dup4\n        /* \"#utility.yul\":12087:12179   */\n      tag_317\n      jump\t// in\n    tag_442:\n        /* \"#utility.yul\":12073:12179   */\n      swap1\n      pop\n        /* \"#utility.yul\":11937:12185   */\n      swap3\n      swap2\n      pop\n      pop\n      jump\t// out\n        /* \"#utility.yul\":12191:12327   */\n    tag_319:\n        /* \"#utility.yul\":12284:12288   */\n      0x00\n        /* \"#utility.yul\":12316:12320   */\n      0x20\n        /* \"#utility.yul\":12311:12314   */\n      dup3\n        /* \"#utility.yul\":12307:12321   */\n      add\n        /* \"#utility.yul\":12299:12321   */\n      swap1\n      pop\n        /* \"#utility.yul\":12191:12327   */\n      swap2\n      swap1\n      pop\n      jump\t// out\n        /* \"#utility.yul\":12391:13486   */\n    tag_320:\n        /* \"#utility.yul\":12556:12559   */\n      0x00\n        /* \"#utility.yul\":12585:12662   */\n      tag_445\n        /* \"#utility.yul\":12656:12661   */\n      dup3\n        /* \"#utility.yul\":12585:12662   */\n      tag_306\n      jump\t// in\n    tag_445:\n        /* \"#utility.yul\":12678:12787   */\n      tag_446\n        /* \"#utility.yul\":12780:12786   */\n      dup2\n        /* \"#utility.yul\":12775:12778   */\n      dup6\n        /* \"#utility.yul\":12678:12787   */\n      tag_307\n      jump\t// in\n    tag_446:\n        /* \"#utility.yul\":12671:12787   */\n      swap4\n      pop\n        /* \"#utility.yul\":12813:12816   */\n      dup4\n        /* \"#utility.yul\":12858:12862   */\n      0x20\n        /* \"#utility.yul\":12850:12856   */\n      dup3\n        /* \"#utility.yul\":12846:12863   */\n      mul\n        /* \"#utility.yul\":12841:12844   */\n      dup6\n        /* \"#utility.yul\":12837:12864   */\n      add\n        /* \"#utility.yul\":12888:12967   */\n      tag_447\n        /* \"#utility.yul\":12961:12966   */\n      dup6\n        /* \"#utility.yul\":12888:12967   */\n      tag_308\n      jump\t// in\n    tag_447:\n        /* \"#utility.yul\":12990:12997   */\n      dup1\n        /* \"#utility.yul\":13021:13022   */\n      0x00\n        /* \"#utility.yul\":13006:13441   */\n    tag_448:\n        /* \"#utility.yul\":13031:13037   */\n      dup6\n        /* \"#utility.yul\":13028:13029   */\n      dup2\n        /* \"#utility.yul\":13025:13038   */\n      lt\n        /* \"#utility.yul\":13006:13441   */\n      iszero\n      tag_450\n      jumpi\n        /* \"#utility.yul\":13102:13111   */\n      dup5\n        /* \"#utility.yul\":13096:13100   */\n      dup5\n        /* \"#utility.yul\":13092:13112   */\n      sub\n        /* \"#utility.yul\":13087:13090   */\n      dup10\n        /* \"#utility.yul\":13080:13113   */\n      mstore\n        /* \"#utility.yul\":13153:13159   */\n      dup2\n        /* \"#utility.yul\":13147:13160   */\n      mload\n        /* \"#utility.yul\":13181:13291   */\n      tag_451\n        /* \"#utility.yul\":13286:13290   */\n      dup6\n        /* \"#utility.yul\":13271:13284   */\n      dup3\n        /* \"#utility.yul\":13181:13291   */\n      tag_318\n      jump\t// in\n    tag_451:\n        /* \"#utility.yul\":13173:13291   */\n      swap5\n      pop\n        /* \"#utility.yul\":13314:13397   */\n      tag_452\n        /* \"#utility.yul\":13390:13396   */\n      dup4\n        /* \"#utility.yul\":13314:13397   */\n      tag_319\n      jump\t// in\n    tag_452:\n        /* \"#utility.yul\":13304:13397   */\n      swap3\n      pop\n        /* \"#utility.yul\":13426:13430   */\n      0x20\n        /* \"#utility.yul\":13421:13424   */\n      dup11\n        /* \"#utility.yul\":13417:13431   */\n      add\n        /* \"#utility.yul\":13410:13431   */\n      swap10\n      pop\n        /* \"#utility.yul\":13066:13441   */\n      pop\n        /* \"#utility.yul\":13053:13054   */\n      0x01\n        /* \"#utility.yul\":13050:13051   */\n      dup2\n        /* \"#utility.yul\":13046:13055   */\n      add\n        /* \"#utility.yul\":13041:13055   */\n      swap1\n      pop\n        /* \"#utility.yul\":13006:13441   */\n      jump(tag_448)\n    tag_450:\n        /* \"#utility.yul\":13010:13024   */\n      pop\n        /* \"#utility.yul\":13457:13461   */\n      dup3\n        /* \"#utility.yul\":13450:13461   */\n      swap8\n      pop\n        /* \"#utility.yul\":13477:13480   */\n      dup8\n        /* \"#utility.yul\":13470:13480   */\n      swap6\n      pop\n        /* \"#utility.yul\":12561:13486   */\n      pop\n      pop\n      pop\n      pop\n      pop\n        /* \"#utility.yul\":12391:13486   */\n      swap3\n      swap2\n      pop\n      pop\n      jump\t// out\n        /* \"#utility.yul\":13492:13957   */\n    tag_97:\n        /* \"#utility.yul\":13681:13685   */\n      0x00\n        /* \"#utility.yul\":13719:13721   */\n      0x20\n        /* \"#utility.yul\":13708:13717   */\n      dup3\n        /* \"#utility.yul\":13704:13722   */\n      add\n        /* \"#utility.yul\":13696:13722   */\n      swap1\n      pop\n        /* \"#utility.yul\":13768:13777   */\n      dup2\n        /* \"#utility.yul\":13762:13766   */\n      dup2\n        /* \"#utility.yul\":13758:13778   */\n      sub\n        /* \"#utility.yul\":13754:13755   */\n      0x00\n        /* \"#utility.yul\":13743:13752   */\n      dup4\n        /* \"#utility.yul\":13739:13756   */\n      add\n        /* \"#utility.yul\":13732:13779   */\n      mstore\n        /* \"#utility.yul\":13796:13950   */\n      tag_454\n        /* \"#utility.yul\":13945:13949   */\n      dup2\n        /* \"#utility.yul\":13936:13942   */\n      dup5\n        /* \"#utility.yul\":13796:13950   */\n      tag_320\n      jump\t// in\n    tag_454:\n        /* \"#utility.yul\":13788:13950   */\n      swap1\n      pop\n        /* \"#utility.yul\":13492:13957   */\n      swap3\n      swap2\n      pop\n      pop\n      jump\t// out\n        /* \"#utility.yul\":13963:14085   */\n    tag_321:\n        /* \"#utility.yul\":14036:14060   */\n      tag_456\n        /* \"#utility.yul\":14054:14059   */\n      dup2\n        /* \"#utility.yul\":14036:14060   */\n      tag_286\n      jump\t// in\n    tag_456:\n        /* \"#utility.yul\":14029:14034   */\n      dup2\n        /* \"#utility.yul\":14026:14061   */\n      eq\n        /* \"#utility.yul\":14016:14079   */\n      tag_457\n      jumpi\n        /* \"#utility.yul\":14075:14076   */\n      0x00\n        /* \"#utility.yul\":14072:14073   */\n      dup1\n        /* \"#utility.yul\":14065:14077   */\n      revert\n        /* \"#utility.yul\":14016:14079   */\n    tag_457:\n        /* \"#utility.yul\":13963:14085   */\n      pop\n      jump\t// out\n        /* \"#utility.yul\":14091:14230   */\n    tag_322:\n        /* \"#utility.yul\":14137:14142   */\n      0x00\n        /* \"#utility.yul\":14175:14181   */\n      dup2\n        /* \"#utility.yul\":14162:14182   */\n      calldataload\n        /* \"#utility.yul\":14153:14182   */\n      swap1\n      pop\n        /* \"#utility.yul\":14191:14224   */\n      tag_459\n        /* \"#utility.yul\":14218:14223   */\n      dup2\n        /* \"#utility.yul\":14191:14224   */\n      tag_321\n      jump\t// in\n    tag_459:\n        /* \"#utility.yul\":14091:14230   */\n      swap3\n      swap2\n      pop\n      pop\n      jump\t// out\n        /* \"#utility.yul\":14236:14565   */\n    tag_119:\n        /* \"#utility.yul\":14295:14301   */\n      0x00\n        /* \"#utility.yul\":14344:14346   */\n      0x20\n        /* \"#utility.yul\":14332:14341   */\n      dup3\n        /* \"#utility.yul\":14323:14330   */\n      dup5\n        /* \"#utility.yul\":14319:14342   */\n      sub\n        /* \"#utility.yul\":14315:14347   */\n      slt\n        /* \"#utility.yul\":14312:14431   */\n      iszero\n      tag_461\n      jumpi\n        /* \"#utility.yul\":14350:14429   */\n      tag_462\n      tag_301\n      jump\t// in\n    tag_462:\n        /* \"#utility.yul\":14312:14431   */\n    tag_461:\n        /* \"#utility.yul\":14470:14471   */\n      0x00\n        /* \"#utility.yul\":14495:14548   */\n      tag_463\n        /* \"#utility.yul\":14540:14547   */\n      dup5\n        /* \"#utility.yul\":14531:14537   */\n      dup3\n        /* \"#utility.yul\":14520:14529   */\n      dup6\n        /* \"#utility.yul\":14516:14538   */\n      add\n        /* \"#utility.yul\":14495:14548   */\n      tag_322\n      jump\t// in\n    tag_463:\n        /* \"#utility.yul\":14485:14548   */\n      swap2\n      pop\n        /* \"#utility.yul\":14441:14558   */\n      pop\n        /* \"#utility.yul\":14236:14565   */\n      swap3\n      swap2\n      pop\n      pop\n      jump\t// out\n        /* \"#utility.yul\":14571:14754   */\n    tag_323:\n        /* \"#utility.yul\":14669:14680   */\n      0x00\n        /* \"#utility.yul\":14703:14709   */\n      dup3\n        /* \"#utility.yul\":14698:14701   */\n      dup3\n        /* \"#utility.yul\":14691:14710   */\n      mstore\n        /* \"#utility.yul\":14743:14747   */\n      0x20\n        /* \"#utility.yul\":14738:14741   */\n      dup3\n        /* \"#utility.yul\":14734:14748   */\n      add\n        /* \"#utility.yul\":14719:14748   */\n      swap1\n      pop\n        /* \"#utility.yul\":14571:14754   */\n      swap3\n      swap2\n      pop\n      pop\n      jump\t// out\n        /* \"#utility.yul\":14788:15512   */\n    tag_324:\n        /* \"#utility.yul\":14905:14908   */\n      0x00\n        /* \"#utility.yul\":14934:14987   */\n      tag_466\n        /* \"#utility.yul\":14981:14986   */\n      dup3\n        /* \"#utility.yul\":14934:14987   */\n      tag_309\n      jump\t// in\n    tag_466:\n        /* \"#utility.yul\":15003:15088   */\n      tag_467\n        /* \"#utility.yul\":15081:15087   */\n      dup2\n        /* \"#utility.yul\":15076:15079   */\n      dup6\n        /* \"#utility.yul\":15003:15088   */\n      tag_323\n      jump\t// in\n    tag_467:\n        /* \"#utility.yul\":14996:15088   */\n      swap4\n      pop\n        /* \"#utility.yul\":15112:15167   */\n      tag_468\n        /* \"#utility.yul\":15161:15166   */\n      dup4\n        /* \"#utility.yul\":15112:15167   */\n      tag_311\n      jump\t// in\n    tag_468:\n        /* \"#utility.yul\":15190:15197   */\n      dup1\n        /* \"#utility.yul\":15221:15222   */\n      0x00\n        /* \"#utility.yul\":15206:15487   */\n    tag_469:\n        /* \"#utility.yul\":15231:15237   */\n      dup4\n        /* \"#utility.yul\":15228:15229   */\n      dup2\n        /* \"#utility.yul\":15225:15238   */\n      lt\n        /* \"#utility.yul\":15206:15487   */\n      iszero\n      tag_471\n      jumpi\n        /* \"#utility.yul\":15307:15313   */\n      dup2\n        /* \"#utility.yul\":15301:15314   */\n      mload\n        /* \"#utility.yul\":15334:15395   */\n      tag_472\n        /* \"#utility.yul\":15391:15394   */\n      dup9\n        /* \"#utility.yul\":15376:15389   */\n      dup3\n        /* \"#utility.yul\":15334:15395   */\n      tag_314\n      jump\t// in\n    tag_472:\n        /* \"#utility.yul\":15327:15395   */\n      swap8\n      pop\n        /* \"#utility.yul\":15418:15477   */\n      tag_473\n        /* \"#utility.yul\":15470:15476   */\n      dup4\n        /* \"#utility.yul\":15418:15477   */\n      tag_315\n      jump\t// in\n    tag_473:\n        /* \"#utility.yul\":15408:15477   */\n      swap3\n      pop\n        /* \"#utility.yul\":15266:15487   */\n      pop\n        /* \"#utility.yul\":15253:15254   */\n      0x01\n        /* \"#utility.yul\":15250:15251   */\n      dup2\n        /* \"#utility.yul\":15246:15255   */\n      add\n        /* \"#utility.yul\":15241:15255   */\n      swap1\n      pop\n        /* \"#utility.yul\":15206:15487   */\n      jump(tag_469)\n    tag_471:\n        /* \"#utility.yul\":15210:15224   */\n      pop\n        /* \"#utility.yul\":15503:15506   */\n      dup6\n        /* \"#utility.yul\":15496:15506   */\n      swap4\n      pop\n        /* \"#utility.yul\":14910:15512   */\n      pop\n      pop\n      pop\n        /* \"#utility.yul\":14788:15512   */\n      swap3\n      swap2\n      pop\n      pop\n      jump\t// out\n        /* \"#utility.yul\":15518:15887   */\n    tag_122:\n        /* \"#utility.yul\":15659:15663   */\n      0x00\n        /* \"#utility.yul\":15697:15699   */\n      0x20\n        /* \"#utility.yul\":15686:15695   */\n      dup3\n        /* \"#utility.yul\":15682:15700   */\n      add\n        /* \"#utility.yul\":15674:15700   */\n      swap1\n      pop\n        /* \"#utility.yul\":15746:15755   */\n      dup2\n        /* \"#utility.yul\":15740:15744   */\n      dup2\n        /* \"#utility.yul\":15736:15756   */\n      sub\n        /* \"#utility.yul\":15732:15733   */\n      0x00\n        /* \"#utility.yul\":15721:15730   */\n      dup4\n        /* \"#utility.yul\":15717:15734   */\n      add\n        /* \"#utility.yul\":15710:15757   */\n      mstore\n        /* \"#utility.yul\":15774:15880   */\n      tag_475\n        /* \"#utility.yul\":15875:15879   */\n      dup2\n        /* \"#utility.yul\":15866:15872   */\n      dup5\n        /* \"#utility.yul\":15774:15880   */\n      tag_324\n      jump\t// in\n    tag_475:\n        /* \"#utility.yul\":15766:15880   */\n      swap1\n      pop\n        /* \"#utility.yul\":15518:15887   */\n      swap3\n      swap2\n      pop\n      pop\n      jump\t// out\n        /* \"#utility.yul\":15893:16367   */\n    tag_135:\n        /* \"#utility.yul\":15961:15967   */\n      0x00\n        /* \"#utility.yul\":15969:15975   */\n      dup1\n        /* \"#utility.yul\":16018:16020   */\n      0x40\n        /* \"#utility.yul\":16006:16015   */\n      dup4\n        /* \"#utility.yul\":15997:16004   */\n      dup6\n        /* \"#utility.yul\":15993:16016   */\n      sub\n        /* \"#utility.yul\":15989:16021   */\n      slt\n        /* \"#utility.yul\":15986:16105   */\n      iszero\n      tag_477\n      jumpi\n        /* \"#utility.yul\":16024:16103   */\n      tag_478\n      tag_301\n      jump\t// in\n    tag_478:\n        /* \"#utility.yul\":15986:16105   */\n    tag_477:\n        /* \"#utility.yul\":16144:16145   */\n      0x00\n        /* \"#utility.yul\":16169:16222   */\n      tag_479\n        /* \"#utility.yul\":16214:16221   */\n      dup6\n        /* \"#utility.yul\":16205:16211   */\n      dup3\n        /* \"#utility.yul\":16194:16203   */\n      dup7\n        /* \"#utility.yul\":16190:16212   */\n      add\n        /* \"#utility.yul\":16169:16222   */\n      tag_304\n      jump\t// in\n    tag_479:\n        /* \"#utility.yul\":16159:16222   */\n      swap3\n      pop\n        /* \"#utility.yul\":16115:16232   */\n      pop\n        /* \"#utility.yul\":16271:16273   */\n      0x20\n        /* \"#utility.yul\":16297:16350   */\n      tag_480\n        /* \"#utility.yul\":16342:16349   */\n      dup6\n        /* \"#utility.yul\":16333:16339   */\n      dup3\n        /* \"#utility.yul\":16322:16331   */\n      dup7\n        /* \"#utility.yul\":16318:16340   */\n      add\n        /* \"#utility.yul\":16297:16350   */\n      tag_304\n      jump\t// in\n    tag_480:\n        /* \"#utility.yul\":16287:16350   */\n      swap2\n      pop\n        /* \"#utility.yul\":16242:16360   */\n      pop\n        /* \"#utility.yul\":15893:16367   */\n      swap3\n      pop\n      swap3\n      swap1\n      pop\n      jump\t// out\n        /* \"#utility.yul\":16373:16493   */\n    tag_325:\n        /* \"#utility.yul\":16445:16468   */\n      tag_482\n        /* \"#utility.yul\":16462:16467   */\n      dup2\n        /* \"#utility.yul\":16445:16468   */\n      tag_312\n      jump\t// in\n    tag_482:\n        /* \"#utility.yul\":16438:16443   */\n      dup2\n        /* \"#utility.yul\":16435:16469   */\n      eq\n        /* \"#utility.yul\":16425:16487   */\n      tag_483\n      jumpi\n        /* \"#utility.yul\":16483:16484   */\n      0x00\n        /* \"#utility.yul\":16480:16481   */\n      dup1\n        /* \"#utility.yul\":16473:16485   */\n      revert\n        /* \"#utility.yul\":16425:16487   */\n    tag_483:\n        /* \"#utility.yul\":16373:16493   */\n      pop\n      jump\t// out\n        /* \"#utility.yul\":16499:16636   */\n    tag_326:\n        /* \"#utility.yul\":16544:16549   */\n      0x00\n        /* \"#utility.yul\":16582:16588   */\n      dup2\n        /* \"#utility.yul\":16569:16589   */\n      calldataload\n        /* \"#utility.yul\":16560:16589   */\n      swap1\n      pop\n        /* \"#utility.yul\":16598:16630   */\n      tag_485\n        /* \"#utility.yul\":16624:16629   */\n      dup2\n        /* \"#utility.yul\":16598:16630   */\n      tag_325\n      jump\t// in\n    tag_485:\n        /* \"#utility.yul\":16499:16636   */\n      swap3\n      swap2\n      pop\n      pop\n      jump\t// out\n        /* \"#utility.yul\":16642:16969   */\n    tag_144:\n        /* \"#utility.yul\":16700:16706   */\n      0x00\n        /* \"#utility.yul\":16749:16751   */\n      0x20\n        /* \"#utility.yul\":16737:16746   */\n      dup3\n        /* \"#utility.yul\":16728:16735   */\n      dup5\n        /* \"#utility.yul\":16724:16747   */\n      sub\n        /* \"#utility.yul\":16720:16752   */\n      slt\n        /* \"#utility.yul\":16717:16836   */\n      iszero\n      tag_487\n      jumpi\n        /* \"#utility.yul\":16755:16834   */\n      tag_488\n      tag_301\n      jump\t// in\n    tag_488:\n        /* \"#utility.yul\":16717:16836   */\n    tag_487:\n        /* \"#utility.yul\":16875:16876   */\n      0x00\n        /* \"#utility.yul\":16900:16952   */\n      tag_489\n        /* \"#utility.yul\":16944:16951   */\n      dup5\n        /* \"#utility.yul\":16935:16941   */\n      dup3\n        /* \"#utility.yul\":16924:16933   */\n      dup6\n        /* \"#utility.yul\":16920:16942   */\n      add\n        /* \"#utility.yul\":16900:16952   */\n      tag_326\n      jump\t// in\n    tag_489:\n        /* \"#utility.yul\":16890:16952   */\n      swap2\n      pop\n        /* \"#utility.yul\":16846:16962   */\n      pop\n        /* \"#utility.yul\":16642:16969   */\n      swap3\n      swap2\n      pop\n      pop\n      jump\t// out\n        /* \"#utility.yul\":16975:17155   */\n    tag_204:\n        /* \"#utility.yul\":17023:17100   */\n      0x4e487b7100000000000000000000000000000000000000000000000000000000\n        /* \"#utility.yul\":17020:17021   */\n      0x00\n        /* \"#utility.yul\":17013:17101   */\n      mstore\n        /* \"#utility.yul\":17120:17124   */\n      0x41\n        /* \"#utility.yul\":17117:17118   */\n      0x04\n        /* \"#utility.yul\":17110:17125   */\n      mstore\n        /* \"#utility.yul\":17144:17148   */\n      0x24\n        /* \"#utility.yul\":17141:17142   */\n      0x00\n        /* \"#utility.yul\":17134:17149   */\n      revert\n        /* \"#utility.yul\":17161:17341   */\n    tag_214:\n        /* \"#utility.yul\":17209:17286   */\n      0x4e487b7100000000000000000000000000000000000000000000000000000000\n        /* \"#utility.yul\":17206:17207   */\n      0x00\n        /* \"#utility.yul\":17199:17287   */\n      mstore\n        /* \"#utility.yul\":17306:17310   */\n      0x32\n        /* \"#utility.yul\":17303:17304   */\n      0x04\n        /* \"#utility.yul\":17296:17311   */\n      mstore\n        /* \"#utility.yul\":17330:17334   */\n      0x24\n        /* \"#utility.yul\":17327:17328   */\n      0x00\n        /* \"#utility.yul\":17320:17335   */\n      revert\n        /* \"#utility.yul\":17347:17499   */\n    tag_327:\n        /* \"#utility.yul\":17487:17491   */\n      0x6732000000000000000000000000000000000000000000000000000000000000\n        /* \"#utility.yul\":17483:17484   */\n      0x00\n        /* \"#utility.yul\":17475:17481   */\n      dup3\n        /* \"#utility.yul\":17471:17485   */\n      add\n        /* \"#utility.yul\":17464:17492   */\n      mstore\n        /* \"#utility.yul\":17347:17499   */\n      pop\n      jump\t// out\n        /* \"#utility.yul\":17505:17870   */\n    tag_328:\n        /* \"#utility.yul\":17647:17650   */\n      0x00\n        /* \"#utility.yul\":17668:17734   */\n      tag_494\n        /* \"#utility.yul\":17732:17733   */\n      0x02\n        /* \"#utility.yul\":17727:17730   */\n      dup4\n        /* \"#utility.yul\":17668:17734   */\n      tag_276\n      jump\t// in\n    tag_494:\n        /* \"#utility.yul\":17661:17734   */\n      swap2\n      pop\n        /* \"#utility.yul\":17743:17836   */\n      tag_495\n        /* \"#utility.yul\":17832:17835   */\n      dup3\n        /* \"#utility.yul\":17743:17836   */\n      tag_327\n      jump\t// in\n    tag_495:\n        /* \"#utility.yul\":17861:17863   */\n      0x20\n        /* \"#utility.yul\":17856:17859   */\n      dup3\n        /* \"#utility.yul\":17852:17864   */\n      add\n        /* \"#utility.yul\":17845:17864   */\n      swap1\n      pop\n        /* \"#utility.yul\":17505:17870   */\n      swap2\n      swap1\n      pop\n      jump\t// out\n        /* \"#utility.yul\":17876:18295   */\n    tag_253:\n        /* \"#utility.yul\":18042:18046   */\n      0x00\n        /* \"#utility.yul\":18080:18082   */\n      0x20\n        /* \"#utility.yul\":18069:18078   */\n      dup3\n        /* \"#utility.yul\":18065:18083   */\n      add\n        /* \"#utility.yul\":18057:18083   */\n      swap1\n      pop\n        /* \"#utility.yul\":18129:18138   */\n      dup2\n        /* \"#utility.yul\":18123:18127   */\n      dup2\n        /* \"#utility.yul\":18119:18139   */\n      sub\n        /* \"#utility.yul\":18115:18116   */\n      0x00\n        /* \"#utility.yul\":18104:18113   */\n      dup4\n        /* \"#utility.yul\":18100:18117   */\n      add\n        /* \"#utility.yul\":18093:18140   */\n      mstore\n        /* \"#utility.yul\":18157:18288   */\n      tag_497\n        /* \"#utility.yul\":18283:18287   */\n      dup2\n        /* \"#utility.yul\":18157:18288   */\n      tag_328\n      jump\t// in\n    tag_497:\n        /* \"#utility.yul\":18149:18288   */\n      swap1\n      pop\n        /* \"#utility.yul\":17876:18295   */\n      swap2\n      swap1\n      pop\n      jump\t// out\n        /* \"#utility.yul\":18301:18452   */\n    tag_329:\n        /* \"#utility.yul\":18441:18444   */\n      0x4400000000000000000000000000000000000000000000000000000000000000\n        /* \"#utility.yul\":18437:18438   */\n      0x00\n        /* \"#utility.yul\":18429:18435   */\n      dup3\n        /* \"#utility.yul\":18425:18439   */\n      add\n        /* \"#utility.yul\":18418:18445   */\n      mstore\n        /* \"#utility.yul\":18301:18452   */\n      pop\n      jump\t// out\n        /* \"#utility.yul\":18458:18823   */\n    tag_330:\n        /* \"#utility.yul\":18600:18603   */\n      0x00\n        /* \"#utility.yul\":18621:18687   */\n      tag_500\n        /* \"#utility.yul\":18685:18686   */\n      0x01\n        /* \"#utility.yul\":18680:18683   */\n      dup4\n        /* \"#utility.yul\":18621:18687   */\n      tag_276\n      jump\t// in\n    tag_500:\n        /* \"#utility.yul\":18614:18687   */\n      swap2\n      pop\n        /* \"#utility.yul\":18696:18789   */\n      tag_501\n        /* \"#utility.yul\":18785:18788   */\n      dup3\n        /* \"#utility.yul\":18696:18789   */\n      tag_329\n      jump\t// in\n    tag_501:\n        /* \"#utility.yul\":18814:18816   */\n      0x20\n        /* \"#utility.yul\":18809:18812   */\n      dup3\n        /* \"#utility.yul\":18805:18817   */\n      add\n        /* \"#utility.yul\":18798:18817   */\n      swap1\n      pop\n        /* \"#utility.yul\":18458:18823   */\n      swap2\n      swap1\n      pop\n      jump\t// out\n        /* \"#utility.yul\":18829:19248   */\n    tag_265:\n        /* \"#utility.yul\":18995:18999   */\n      0x00\n        /* \"#utility.yul\":19033:19035   */\n      0x20\n        /* \"#utility.yul\":19022:19031   */\n      dup3\n        /* \"#utility.yul\":19018:19036   */\n      add\n        /* \"#utility.yul\":19010:19036   */\n      swap1\n      pop\n        /* \"#utility.yul\":19082:19091   */\n      dup2\n        /* \"#utility.yul\":19076:19080   */\n      dup2\n        /* \"#utility.yul\":19072:19092   */\n      sub\n        /* \"#utility.yul\":19068:19069   */\n      0x00\n        /* \"#utility.yul\":19057:19066   */\n      dup4\n        /* \"#utility.yul\":19053:19070   */\n      add\n        /* \"#utility.yul\":19046:19093   */\n      mstore\n        /* \"#utility.yul\":19110:19241   */\n      tag_503\n        /* \"#utility.yul\":19236:19240   */\n      dup2\n        /* \"#utility.yul\":19110:19241   */\n      tag_330\n      jump\t// in\n    tag_503:\n        /* \"#utility.yul\":19102:19241   */\n      swap1\n      pop\n        /* \"#utility.yul\":18829:19248   */\n      swap2\n      swap1\n      pop\n      jump\t// out\n        /* \"#utility.yul\":19254:19434   */\n    tag_331:\n        /* \"#utility.yul\":19302:19379   */\n      0x4e487b7100000000000000000000000000000000000000000000000000000000\n        /* \"#utility.yul\":19299:19300   */\n      0x00\n        /* \"#utility.yul\":19292:19380   */\n      mstore\n        /* \"#utility.yul\":19399:19403   */\n      0x11\n        /* \"#utility.yul\":19396:19397   */\n      0x04\n        /* \"#utility.yul\":19389:19404   */\n      mstore\n        /* \"#utility.yul\":19423:19427   */\n      0x24\n        /* \"#utility.yul\":19420:19421   */\n      0x00\n        /* \"#utility.yul\":19413:19428   */\n      revert\n        /* \"#utility.yul\":19440:19634   */\n    tag_268:\n        /* \"#utility.yul\":19480:19484   */\n      0x00\n        /* \"#utility.yul\":19500:19520   */\n      tag_506\n        /* \"#utility.yul\":19518:19519   */\n      dup3\n        /* \"#utility.yul\":19500:19520   */\n      tag_273\n      jump\t// in\n    tag_506:\n        /* \"#utility.yul\":19495:19520   */\n      swap2\n      pop\n        /* \"#utility.yul\":19534:19554   */\n      tag_507\n        /* \"#utility.yul\":19552:19553   */\n      dup4\n        /* \"#utility.yul\":19534:19554   */\n      tag_273\n      jump\t// in\n    tag_507:\n        /* \"#utility.yul\":19529:19554   */\n      swap3\n      pop\n        /* \"#utility.yul\":19578:19579   */\n      dup3\n        /* \"#utility.yul\":19575:19576   */\n      dup3\n        /* \"#utility.yul\":19571:19580   */\n      sub\n        /* \"#utility.yul\":19563:19580   */\n      swap1\n      pop\n        /* \"#utility.yul\":19602:19603   */\n      dup2\n        /* \"#utility.yul\":19596:19600   */\n      dup2\n        /* \"#utility.yul\":19593:19604   */\n      gt\n        /* \"#utility.yul\":19590:19627   */\n      iszero\n      tag_508\n      jumpi\n        /* \"#utility.yul\":19607:19625   */\n      tag_509\n      tag_331\n      jump\t// in\n    tag_509:\n        /* \"#utility.yul\":19590:19627   */\n    tag_508:\n        /* \"#utility.yul\":19440:19634   */\n      swap3\n      swap2\n      pop\n      pop\n      jump\t// out\n\n    auxdata: 0xa2646970667358221220c788d0fe9b1eed6ab0b9015c10d626ada0d0e5c41ac7d13b116b9fc5925ec7e164736f6c634300081a0033\n}\n",
				"bytecode": {
					"linkReferences": {},
					"object": "6080604052348015600e575f80fd5b50611b9c8061001c5f395ff3fe608060405234801561000f575f80fd5b506004361061020f575f3560e01c80639d1b5a8111610123578063cdffacc6116100ab578063e81e0ba11161007a578063e81e0ba114610615578063ef3f0bae14610645578063facd743b14610663578063fd791f3c14610693578063fe26699e146106b15761020f565b8063cdffacc61461058b578063d86970d8146105bb578063db1f0bf9146105d9578063e5355c75146105f75761020f565b8063af6a2dcd116100f2578063af6a2dcd146104bf578063b22dd78e146104dd578063b8c2f66f1461050d578063bd7c54121461052b578063c3bbd2d71461055b5761020f565b80639d1b5a8114610435578063a1954fc514610453578063a7cd63b714610471578063adfca15e1461048f5761020f565b806352ef6b2c116101a657806379823c9a1161017557806379823c9a1461038d5780637a0ed627146103ab5780637b30c8da146103c95780638665b150146103e75780639cd939e4146104055761020f565b806352ef6b2c1461030357806356142d7a14610321578063631f4bac1461033f57806374f4d30d1461035d5761020f565b806333ce93fe116101e257806333ce93fe1461028b57806339607382146102a957806346657fe9146102c75780634fc07d75146102e55761020f565b80630ec6b0b71461021357806317d7de7c1461023157806318e3a9411461024f57806329b98c671461026d575b5f80fd5b61021b6106cf565b60405161022891906112c7565b60405180910390f35b6102396106da565b6040516102469190611350565b60405180910390f35b610257610713565b60405161026491906113c8565b60405180910390f35b61027561074c565b60405161028291906113fb565b60405180910390f35b61029361076f565b6040516102a091906112c7565b60405180910390f35b6102b161077a565b6040516102be91906112c7565b60405180910390f35b6102cf610785565b6040516102dc9190611453565b60405180910390f35b6102ed6107af565b6040516102fa9190611453565b60405180910390f35b61030b6107d9565b6040516103189190611523565b60405180910390f35b610329610872565b60405161033691906115d7565b60405180910390f35b61034761088b565b60405161035491906112c7565b60405180910390f35b6103776004803603810190610372919061161e565b61089d565b6040516103849190611658565b60405180910390f35b6103956108b9565b6040516103a291906112c7565b60405180910390f35b6103b36108cb565b6040516103c09190611848565b60405180910390f35b6103d1610aea565b6040516103de9190611658565b60405180910390f35b6103ef610af5565b6040516103fc9190611453565b60405180910390f35b61041f600480360381019061041a919061161e565b610b1f565b60405161042c9190611658565b60405180910390f35b61043d610b3b565b60405161044a91906112c7565b60405180910390f35b61045b610b46565b60405161046891906112c7565b60405180910390f35b610479610b58565b6040516104869190611453565b60405180910390f35b6104a960048036038101906104a49190611892565b610b82565b6040516104b69190611929565b60405180910390f35b6104c7610c66565b6040516104d491906112c7565b60405180910390f35b6104f760048036038101906104f2919061161e565b610c71565b6040516105049190611658565b60405180910390f35b610515610c8d565b60405161052291906112c7565b60405180910390f35b61054560048036038101906105409190611949565b610c98565b60405161055291906113fb565b60405180910390f35b61057560048036038101906105709190611892565b610cd0565b60405161058291906113fb565b60405180910390f35b6105a560048036038101906105a091906119b1565b610e0d565b6040516105b29190611453565b60405180910390f35b6105c3610e93565b6040516105d09190611658565b60405180910390f35b6105e1610e9e565b6040516105ee91906112c7565b60405180910390f35b6105ff610ea9565b60405161060c91906112c7565b60405180910390f35b61062f600480360381019061062a91906119b1565b610eb4565b60405161063c91906113fb565b60405180910390f35b61064d611007565b60405161065a91906112c7565b60405180910390f35b61067d60048036038101906106789190611892565b611012565b60405161068a91906113fb565b60405180910390f35b61069b611066565b6040516106a89190611658565b60405180910390f35b6106b9611071565b6040516106c691906112c7565b60405180910390f35b5f80601a0154905090565b6040518060400160405280600c81526020017f476574746572734661636574000000000000000000000000000000000000000081525081565b61071b611214565b5f6014016040518060600160405290815f820154815260200160018201548152602001600282015481525050905090565b5f8061075661107c565b9050806003015f9054906101000a900460ff1691505090565b5f8060210154905090565b5f80600b0154905090565b5f80600a015f9054906101000a900473ffffffffffffffffffffffffffffffffffffffff16905090565b5f806007015f9054906101000a900473ffffffffffffffffffffffffffffffffffffffff16905090565b60605f6107e461107c565b90508060020180548060200260200160405190810160405280929190818152602001828054801561086757602002820191905f5260205f20905b815f9054906101000a900473ffffffffffffffffffffffffffffffffffffffff1673ffffffffffffffffffffffffffffffffffffffff168152602001906001019080831161081e575b505050505091505090565b61087a61123b565b6108865f6010016110aa565b905090565b5f6108985f6010016111bf565b905090565b5f80600e015f8381526020019081526020015f20549050919050565b5f6108c65f6010016111db565b905090565b60605f6108d661107c565b90505f816002018054905090508067ffffffffffffffff8111156108fd576108fc6119dc565b5b60405190808252806020026020018201604052801561093657816020015b610923611280565b81526020019060019003908161091b5790505b5092505f5b81811015610ae4575f83600201828154811061095a57610959611a09565b5b905f5260205f20015f9054906101000a900473ffffffffffffffffffffffffffffffffffffffff1690505f846001015f8373ffffffffffffffffffffffffffffffffffffffff1673ffffffffffffffffffffffffffffffffffffffff1681526020019081526020015f206040518060400160405290815f8201805480602002602001604051908101604052809291908181526020018280548015610a5c57602002820191905f5260205f20905f905b82829054906101000a900460e01b7bffffffffffffffffffffffffffffffffffffffffffffffffffffffff191681526020019060040190602082600301049283019260010382029150808411610a095790505b50505050508152602001600182015f9054906101000a900461ffff1661ffff1661ffff1681525050905060405180604001604052808373ffffffffffffffffffffffffffffffffffffffff168152602001825f0151815250868481518110610ac757610ac6611a09565b5b60200260200101819052505050610add816111e8565b905061093b565b50505090565b5f8060220154905090565b5f806008015f9054906101000a900473ffffffffffffffffffffffffffffffffffffffff16905090565b5f80600f015f8381526020019081526020015f20549050919050565b5f8060230154905090565b5f610b535f6010016111f4565b905090565b5f806013015f9054906101000a900473ffffffffffffffffffffffffffffffffffffffff16905090565b60605f610b8d61107c565b9050806001015f8473ffffffffffffffffffffffffffffffffffffffff1673ffffffffffffffffffffffffffffffffffffffff1681526020019081526020015f205f01805480602002602001604051908101604052809291908181526020018280548015610c5957602002820191905f5260205f20905f905b82829054906101000a900460e01b7bffffffffffffffffffffffffffffffffffffffffffffffffffffffff191681526020019060040190602082600301049283019260010382029150808411610c065790505b5050505050915050919050565b5f80600c0154905090565b5f80600e015f8381526020019081526020015f20549050919050565b5f80600b0154905090565b5f80601d015f8481526020019081526020015f205f8381526020019081526020015f205f9054906101000a900460ff16905092915050565b5f80610cda61107c565b90505f816001015f8573ffffffffffffffffffffffffffffffffffffffff1673ffffffffffffffffffffffffffffffffffffffff1681526020019081526020015f205f018054905090505f8114610e06575f826001015f8673ffffffffffffffffffffffffffffffffffffffff1673ffffffffffffffffffffffffffffffffffffffff1681526020019081526020015f205f015f81548110610d7f57610d7e611a09565b5b905f5260205f2090600891828204019190066004029054906101000a900460e01b9050825f015f827bffffffffffffffffffffffffffffffffffffffffffffffffffffffff19167bffffffffffffffffffffffffffffffffffffffffffffffffffffffff191681526020019081526020015f205f0160169054906101000a900460ff169350505b5050919050565b5f80610e1761107c565b9050805f015f847bffffffffffffffffffffffffffffffffffffffffffffffffffffffff19167bffffffffffffffffffffffffffffffffffffffffffffffffffffffff191681526020019081526020015f205f015f9054906101000a900473ffffffffffffffffffffffffffffffffffffffff16915050919050565b5f8060170154905090565b5f80600d0154905090565b5f8060230154905090565b5f80610ebe61107c565b90505f73ffffffffffffffffffffffffffffffffffffffff16815f015f857bffffffffffffffffffffffffffffffffffffffffffffffffffffffff19167bffffffffffffffffffffffffffffffffffffffffffffffffffffffff191681526020019081526020015f205f015f9054906101000a900473ffffffffffffffffffffffffffffffffffffffff1673ffffffffffffffffffffffffffffffffffffffff1603610f9f576040517f08c379a0000000000000000000000000000000000000000000000000000000008152600401610f9690611a80565b60405180910390fd5b805f015f847bffffffffffffffffffffffffffffffffffffffffffffffffffffffff19167bffffffffffffffffffffffffffffffffffffffffffffffffffffffff191681526020019081526020015f205f0160169054906101000a900460ff16915050919050565b5f80600c0154905090565b5f806009015f8373ffffffffffffffffffffffffffffffffffffffff1673ffffffffffffffffffffffffffffffffffffffff1681526020019081526020015f205f9054906101000a900460ff169050919050565b5f8060180154905090565b5f80600d0154905090565b5f807fc8fcad8db84d3cc18b4c41d551ea0ee66dd599cde068d998e57d5e09332c131b5f1b90508091505090565b6110b261123b565b6110bb82611201565b156110fb576040517f08c379a00000000000000000000000000000000000000000000000000000000081526004016110f290611ae8565b60405180910390fd5b815f015f836002015481526020019081526020015f206040518060600160405290815f8201548152602001600182015f9054906101000a900467ffffffffffffffff1667ffffffffffffffff1667ffffffffffffffff1681526020016001820160089054906101000a900477ffffffffffffffffffffffffffffffffffffffffffffffff1677ffffffffffffffffffffffffffffffffffffffffffffffff1677ffffffffffffffffffffffffffffffffffffffffffffffff16815250509050919050565b5f816002015482600101546111d49190611b33565b9050919050565b5f81600201549050919050565b5f600182019050919050565b5f81600101549050919050565b5f81600201548260010154149050919050565b60405180606001604052805f80191681526020015f80191681526020015f80191681525090565b60405180606001604052805f80191681526020015f67ffffffffffffffff1681526020015f77ffffffffffffffffffffffffffffffffffffffffffffffff1681525090565b60405180604001604052805f73ffffffffffffffffffffffffffffffffffffffff168152602001606081525090565b5f819050919050565b6112c1816112af565b82525050565b5f6020820190506112da5f8301846112b8565b92915050565b5f81519050919050565b5f82825260208201905092915050565b8281835e5f83830152505050565b5f601f19601f8301169050919050565b5f611322826112e0565b61132c81856112ea565b935061133c8185602086016112fa565b61134581611308565b840191505092915050565b5f6020820190508181035f8301526113688184611318565b905092915050565b5f819050919050565b61138281611370565b82525050565b606082015f82015161139c5f850182611379565b5060208201516113af6020850182611379565b5060408201516113c26040850182611379565b50505050565b5f6060820190506113db5f830184611388565b92915050565b5f8115159050919050565b6113f5816113e1565b82525050565b5f60208201905061140e5f8301846113ec565b92915050565b5f73ffffffffffffffffffffffffffffffffffffffff82169050919050565b5f61143d82611414565b9050919050565b61144d81611433565b82525050565b5f6020820190506114665f830184611444565b92915050565b5f81519050919050565b5f82825260208201905092915050565b5f819050602082019050919050565b61149e81611433565b82525050565b5f6114af8383611495565b60208301905092915050565b5f602082019050919050565b5f6114d18261146c565b6114db8185611476565b93506114e683611486565b805f5b838110156115165781516114fd88826114a4565b9750611508836114bb565b9250506001810190506114e9565b5085935050505092915050565b5f6020820190508181035f83015261153b81846114c7565b905092915050565b5f67ffffffffffffffff82169050919050565b61155f81611543565b82525050565b5f77ffffffffffffffffffffffffffffffffffffffffffffffff82169050919050565b61159181611565565b82525050565b606082015f8201516115ab5f850182611379565b5060208201516115be6020850182611556565b5060408201516115d16040850182611588565b50505050565b5f6060820190506115ea5f830184611597565b92915050565b5f80fd5b6115fd816112af565b8114611607575f80fd5b50565b5f81359050611618816115f4565b92915050565b5f60208284031215611633576116326115f0565b5b5f6116408482850161160a565b91505092915050565b61165281611370565b82525050565b5f60208201905061166b5f830184611649565b92915050565b5f81519050919050565b5f82825260208201905092915050565b5f819050602082019050919050565b5f81519050919050565b5f82825260208201905092915050565b5f819050602082019050919050565b5f7fffffffff0000000000000000000000000000000000000000000000000000000082169050919050565b6116f7816116c3565b82525050565b5f61170883836116ee565b60208301905092915050565b5f602082019050919050565b5f61172a8261169a565b61173481856116a4565b935061173f836116b4565b805f5b8381101561176f57815161175688826116fd565b975061176183611714565b925050600181019050611742565b5085935050505092915050565b5f604083015f8301516117915f860182611495565b50602083015184820360208601526117a98282611720565b9150508091505092915050565b5f6117c1838361177c565b905092915050565b5f602082019050919050565b5f6117df82611671565b6117e9818561167b565b9350836020820285016117fb8561168b565b805f5b85811015611836578484038952815161181785826117b6565b9450611822836117c9565b925060208a019950506001810190506117fe565b50829750879550505050505092915050565b5f6020820190508181035f83015261186081846117d5565b905092915050565b61187181611433565b811461187b575f80fd5b50565b5f8135905061188c81611868565b92915050565b5f602082840312156118a7576118a66115f0565b5b5f6118b48482850161187e565b91505092915050565b5f82825260208201905092915050565b5f6118d78261169a565b6118e181856118bd565b93506118ec836116b4565b805f5b8381101561191c57815161190388826116fd565b975061190e83611714565b9250506001810190506118ef565b5085935050505092915050565b5f6020820190508181035f83015261194181846118cd565b905092915050565b5f806040838503121561195f5761195e6115f0565b5b5f61196c8582860161160a565b925050602061197d8582860161160a565b9150509250929050565b611990816116c3565b811461199a575f80fd5b50565b5f813590506119ab81611987565b92915050565b5f602082840312156119c6576119c56115f0565b5b5f6119d38482850161199d565b91505092915050565b7f4e487b71000000000000000000000000000000000000000000000000000000005f52604160045260245ffd5b7f4e487b71000000000000000000000000000000000000000000000000000000005f52603260045260245ffd5b7f67320000000000000000000000000000000000000000000000000000000000005f82015250565b5f611a6a6002836112ea565b9150611a7582611a36565b602082019050919050565b5f6020820190508181035f830152611a9781611a5e565b9050919050565b7f44000000000000000000000000000000000000000000000000000000000000005f82015250565b5f611ad26001836112ea565b9150611add82611a9e565b602082019050919050565b5f6020820190508181035f830152611aff81611ac6565b9050919050565b7f4e487b71000000000000000000000000000000000000000000000000000000005f52601160045260245ffd5b5f611b3d826112af565b9150611b48836112af565b9250828203905081811115611b6057611b5f611b06565b5b9291505056fea2646970667358221220c788d0fe9b1eed6ab0b9015c10d626ada0d0e5c41ac7d13b116b9fc5925ec7e164736f6c634300081a0033",
					"opcodes": "PUSH1 0x80 PUSH1 0x40 MSTORE CALLVALUE DUP1 ISZERO PUSH1 0xE JUMPI PUSH0 DUP1 REVERT JUMPDEST POP PUSH2 0x1B9C DUP1 PUSH2 0x1C PUSH0 CODECOPY PUSH0 RETURN INVALID PUSH1 0x80 PUSH1 0x40 MSTORE CALLVALUE DUP1 ISZERO PUSH2 0xF JUMPI PUSH0 DUP1 REVERT JUMPDEST POP PUSH1 0x4 CALLDATASIZE LT PUSH2 0x20F JUMPI PUSH0 CALLDATALOAD PUSH1 0xE0 SHR DUP1 PUSH4 0x9D1B5A81 GT PUSH2 0x123 JUMPI DUP1 PUSH4 0xCDFFACC6 GT PUSH2 0xAB JUMPI DUP1 PUSH4 0xE81E0BA1 GT PUSH2 0x7A JUMPI DUP1 PUSH4 0xE81E0BA1 EQ PUSH2 0x615 JUMPI DUP1 PUSH4 0xEF3F0BAE EQ PUSH2 0x645 JUMPI DUP1 PUSH4 0xFACD743B EQ PUSH2 0x663 JUMPI DUP1 PUSH4 0xFD791F3C EQ PUSH2 0x693 JUMPI DUP1 PUSH4 0xFE26699E EQ PUSH2 0x6B1 JUMPI PUSH2 0x20F JUMP JUMPDEST DUP1 PUSH4 0xCDFFACC6 EQ PUSH2 0x58B JUMPI DUP1 PUSH4 0xD86970D8 EQ PUSH2 0x5BB JUMPI DUP1 PUSH4 0xDB1F0BF9 EQ PUSH2 0x5D9 JUMPI DUP1 PUSH4 0xE5355C75 EQ PUSH2 0x5F7 JUMPI PUSH2 0x20F JUMP JUMPDEST DUP1 PUSH4 0xAF6A2DCD GT PUSH2 0xF2 JUMPI DUP1 PUSH4 0xAF6A2DCD EQ PUSH2 0x4BF JUMPI DUP1 PUSH4 0xB22DD78E EQ PUSH2 0x4DD JUMPI DUP1 PUSH4 0xB8C2F66F EQ PUSH2 0x50D JUMPI DUP1 PUSH4 0xBD7C5412 EQ PUSH2 0x52B JUMPI DUP1 PUSH4 0xC3BBD2D7 EQ PUSH2 0x55B JUMPI PUSH2 0x20F JUMP JUMPDEST DUP1 PUSH4 0x9D1B5A81 EQ PUSH2 0x435 JUMPI DUP1 PUSH4 0xA1954FC5 EQ PUSH2 0x453 JUMPI DUP1 PUSH4 0xA7CD63B7 EQ PUSH2 0x471 JUMPI DUP1 PUSH4 0xADFCA15E EQ PUSH2 0x48F JUMPI PUSH2 0x20F JUMP JUMPDEST DUP1 PUSH4 0x52EF6B2C GT PUSH2 0x1A6 JUMPI DUP1 PUSH4 0x79823C9A GT PUSH2 0x175 JUMPI DUP1 PUSH4 0x79823C9A EQ PUSH2 0x38D JUMPI DUP1 PUSH4 0x7A0ED627 EQ PUSH2 0x3AB JUMPI DUP1 PUSH4 0x7B30C8DA EQ PUSH2 0x3C9 JUMPI DUP1 PUSH4 0x8665B150 EQ PUSH2 0x3E7 JUMPI DUP1 PUSH4 0x9CD939E4 EQ PUSH2 0x405 JUMPI PUSH2 0x20F JUMP JUMPDEST DUP1 PUSH4 0x52EF6B2C EQ PUSH2 0x303 JUMPI DUP1 PUSH4 0x56142D7A EQ PUSH2 0x321 JUMPI DUP1 PUSH4 0x631F4BAC EQ PUSH2 0x33F JUMPI DUP1 PUSH4 0x74F4D30D EQ PUSH2 0x35D JUMPI PUSH2 0x20F JUMP JUMPDEST DUP1 PUSH4 0x33CE93FE GT PUSH2 0x1E2 JUMPI DUP1 PUSH4 0x33CE93FE EQ PUSH2 0x28B JUMPI DUP1 PUSH4 0x39607382 EQ PUSH2 0x2A9 JUMPI DUP1 PUSH4 0x46657FE9 EQ PUSH2 0x2C7 JUMPI DUP1 PUSH4 0x4FC07D75 EQ PUSH2 0x2E5 JUMPI PUSH2 0x20F JUMP JUMPDEST DUP1 PUSH4 0xEC6B0B7 EQ PUSH2 0x213 JUMPI DUP1 PUSH4 0x17D7DE7C EQ PUSH2 0x231 JUMPI DUP1 PUSH4 0x18E3A941 EQ PUSH2 0x24F JUMPI DUP1 PUSH4 0x29B98C67 EQ PUSH2 0x26D JUMPI JUMPDEST PUSH0 DUP1 REVERT JUMPDEST PUSH2 0x21B PUSH2 0x6CF JUMP JUMPDEST PUSH1 0x40 MLOAD PUSH2 0x228 SWAP2 SWAP1 PUSH2 0x12C7 JUMP JUMPDEST PUSH1 0x40 MLOAD DUP1 SWAP2 SUB SWAP1 RETURN JUMPDEST PUSH2 0x239 PUSH2 0x6DA JUMP JUMPDEST PUSH1 0x40 MLOAD PUSH2 0x246 SWAP2 SWAP1 PUSH2 0x1350 JUMP JUMPDEST PUSH1 0x40 MLOAD DUP1 SWAP2 SUB SWAP1 RETURN JUMPDEST PUSH2 0x257 PUSH2 0x713 JUMP JUMPDEST PUSH1 0x40 MLOAD PUSH2 0x264 SWAP2 SWAP1 PUSH2 0x13C8 JUMP JUMPDEST PUSH1 0x40 MLOAD DUP1 SWAP2 SUB SWAP1 RETURN JUMPDEST PUSH2 0x275 PUSH2 0x74C JUMP JUMPDEST PUSH1 0x40 MLOAD PUSH2 0x282 SWAP2 SWAP1 PUSH2 0x13FB JUMP JUMPDEST PUSH1 0x40 MLOAD DUP1 SWAP2 SUB SWAP1 RETURN JUMPDEST PUSH2 0x293 PUSH2 0x76F JUMP JUMPDEST PUSH1 0x40 MLOAD PUSH2 0x2A0 SWAP2 SWAP1 PUSH2 0x12C7 JUMP JUMPDEST PUSH1 0x40 MLOAD DUP1 SWAP2 SUB SWAP1 RETURN JUMPDEST PUSH2 0x2B1 PUSH2 0x77A JUMP JUMPDEST PUSH1 0x40 MLOAD PUSH2 0x2BE SWAP2 SWAP1 PUSH2 0x12C7 JUMP JUMPDEST PUSH1 0x40 MLOAD DUP1 SWAP2 SUB SWAP1 RETURN JUMPDEST PUSH2 0x2CF PUSH2 0x785 JUMP JUMPDEST PUSH1 0x40 MLOAD PUSH2 0x2DC SWAP2 SWAP1 PUSH2 0x1453 JUMP JUMPDEST PUSH1 0x40 MLOAD DUP1 SWAP2 SUB SWAP1 RETURN JUMPDEST PUSH2 0x2ED PUSH2 0x7AF JUMP JUMPDEST PUSH1 0x40 MLOAD PUSH2 0x2FA SWAP2 SWAP1 PUSH2 0x1453 JUMP JUMPDEST PUSH1 0x40 MLOAD DUP1 SWAP2 SUB SWAP1 RETURN JUMPDEST PUSH2 0x30B PUSH2 0x7D9 JUMP JUMPDEST PUSH1 0x40 MLOAD PUSH2 0x318 SWAP2 SWAP1 PUSH2 0x1523 JUMP JUMPDEST PUSH1 0x40 MLOAD DUP1 SWAP2 SUB SWAP1 RETURN JUMPDEST PUSH2 0x329 PUSH2 0x872 JUMP JUMPDEST PUSH1 0x40 MLOAD PUSH2 0x336 SWAP2 SWAP1 PUSH2 0x15D7 JUMP JUMPDEST PUSH1 0x40 MLOAD DUP1 SWAP2 SUB SWAP1 RETURN JUMPDEST PUSH2 0x347 PUSH2 0x88B JUMP JUMPDEST PUSH1 0x40 MLOAD PUSH2 0x354 SWAP2 SWAP1 PUSH2 0x12C7 JUMP JUMPDEST PUSH1 0x40 MLOAD DUP1 SWAP2 SUB SWAP1 RETURN JUMPDEST PUSH2 0x377 PUSH1 0x4 DUP1 CALLDATASIZE SUB DUP2 ADD SWAP1 PUSH2 0x372 SWAP2 SWAP1 PUSH2 0x161E JUMP JUMPDEST PUSH2 0x89D JUMP JUMPDEST PUSH1 0x40 MLOAD PUSH2 0x384 SWAP2 SWAP1 PUSH2 0x1658 JUMP JUMPDEST PUSH1 0x40 MLOAD DUP1 SWAP2 SUB SWAP1 RETURN JUMPDEST PUSH2 0x395 PUSH2 0x8B9 JUMP JUMPDEST PUSH1 0x40 MLOAD PUSH2 0x3A2 SWAP2 SWAP1 PUSH2 0x12C7 JUMP JUMPDEST PUSH1 0x40 MLOAD DUP1 SWAP2 SUB SWAP1 RETURN JUMPDEST PUSH2 0x3B3 PUSH2 0x8CB JUMP JUMPDEST PUSH1 0x40 MLOAD PUSH2 0x3C0 SWAP2 SWAP1 PUSH2 0x1848 JUMP JUMPDEST PUSH1 0x40 MLOAD DUP1 SWAP2 SUB SWAP1 RETURN JUMPDEST PUSH2 0x3D1 PUSH2 0xAEA JUMP JUMPDEST PUSH1 0x40 MLOAD PUSH2 0x3DE SWAP2 SWAP1 PUSH2 0x1658 JUMP JUMPDEST PUSH1 0x40 MLOAD DUP1 SWAP2 SUB SWAP1 RETURN JUMPDEST PUSH2 0x3EF PUSH2 0xAF5 JUMP JUMPDEST PUSH1 0x40 MLOAD PUSH2 0x3FC SWAP2 SWAP1 PUSH2 0x1453 JUMP JUMPDEST PUSH1 0x40 MLOAD DUP1 SWAP2 SUB SWAP1 RETURN JUMPDEST PUSH2 0x41F PUSH1 0x4 DUP1 CALLDATASIZE SUB DUP2 ADD SWAP1 PUSH2 0x41A SWAP2 SWAP1 PUSH2 0x161E JUMP JUMPDEST PUSH2 0xB1F JUMP JUMPDEST PUSH1 0x40 MLOAD PUSH2 0x42C SWAP2 SWAP1 PUSH2 0x1658 JUMP JUMPDEST PUSH1 0x40 MLOAD DUP1 SWAP2 SUB SWAP1 RETURN JUMPDEST PUSH2 0x43D PUSH2 0xB3B JUMP JUMPDEST PUSH1 0x40 MLOAD PUSH2 0x44A SWAP2 SWAP1 PUSH2 0x12C7 JUMP JUMPDEST PUSH1 0x40 MLOAD DUP1 SWAP2 SUB SWAP1 RETURN JUMPDEST PUSH2 0x45B PUSH2 0xB46 JUMP JUMPDEST PUSH1 0x40 MLOAD PUSH2 0x468 SWAP2 SWAP1 PUSH2 0x12C7 JUMP JUMPDEST PUSH1 0x40 MLOAD DUP1 SWAP2 SUB SWAP1 RETURN JUMPDEST PUSH2 0x479 PUSH2 0xB58 JUMP JUMPDEST PUSH1 0x40 MLOAD PUSH2 0x486 SWAP2 SWAP1 PUSH2 0x1453 JUMP JUMPDEST PUSH1 0x40 MLOAD DUP1 SWAP2 SUB SWAP1 RETURN JUMPDEST PUSH2 0x4A9 PUSH1 0x4 DUP1 CALLDATASIZE SUB DUP2 ADD SWAP1 PUSH2 0x4A4 SWAP2 SWAP1 PUSH2 0x1892 JUMP JUMPDEST PUSH2 0xB82 JUMP JUMPDEST PUSH1 0x40 MLOAD PUSH2 0x4B6 SWAP2 SWAP1 PUSH2 0x1929 JUMP JUMPDEST PUSH1 0x40 MLOAD DUP1 SWAP2 SUB SWAP1 RETURN JUMPDEST PUSH2 0x4C7 PUSH2 0xC66 JUMP JUMPDEST PUSH1 0x40 MLOAD PUSH2 0x4D4 SWAP2 SWAP1 PUSH2 0x12C7 JUMP JUMPDEST PUSH1 0x40 MLOAD DUP1 SWAP2 SUB SWAP1 RETURN JUMPDEST PUSH2 0x4F7 PUSH1 0x4 DUP1 CALLDATASIZE SUB DUP2 ADD SWAP1 PUSH2 0x4F2 SWAP2 SWAP1 PUSH2 0x161E JUMP JUMPDEST PUSH2 0xC71 JUMP JUMPDEST PUSH1 0x40 MLOAD PUSH2 0x504 SWAP2 SWAP1 PUSH2 0x1658 JUMP JUMPDEST PUSH1 0x40 MLOAD DUP1 SWAP2 SUB SWAP1 RETURN JUMPDEST PUSH2 0x515 PUSH2 0xC8D JUMP JUMPDEST PUSH1 0x40 MLOAD PUSH2 0x522 SWAP2 SWAP1 PUSH2 0x12C7 JUMP JUMPDEST PUSH1 0x40 MLOAD DUP1 SWAP2 SUB SWAP1 RETURN JUMPDEST PUSH2 0x545 PUSH1 0x4 DUP1 CALLDATASIZE SUB DUP2 ADD SWAP1 PUSH2 0x540 SWAP2 SWAP1 PUSH2 0x1949 JUMP JUMPDEST PUSH2 0xC98 JUMP JUMPDEST PUSH1 0x40 MLOAD PUSH2 0x552 SWAP2 SWAP1 PUSH2 0x13FB JUMP JUMPDEST PUSH1 0x40 MLOAD DUP1 SWAP2 SUB SWAP1 RETURN JUMPDEST PUSH2 0x575 PUSH1 0x4 DUP1 CALLDATASIZE SUB DUP2 ADD SWAP1 PUSH2 0x570 SWAP2 SWAP1 PUSH2 0x1892 JUMP JUMPDEST PUSH2 0xCD0 JUMP JUMPDEST PUSH1 0x40 MLOAD PUSH2 0x582 SWAP2 SWAP1 PUSH2 0x13FB JUMP JUMPDEST PUSH1 0x40 MLOAD DUP1 SWAP2 SUB SWAP1 RETURN JUMPDEST PUSH2 0x5A5 PUSH1 0x4 DUP1 CALLDATASIZE SUB DUP2 ADD SWAP1 PUSH2 0x5A0 SWAP2 SWAP1 PUSH2 0x19B1 JUMP JUMPDEST PUSH2 0xE0D JUMP JUMPDEST PUSH1 0x40 MLOAD PUSH2 0x5B2 SWAP2 SWAP1 PUSH2 0x1453 JUMP JUMPDEST PUSH1 0x40 MLOAD DUP1 SWAP2 SUB SWAP1 RETURN JUMPDEST PUSH2 0x5C3 PUSH2 0xE93 JUMP JUMPDEST PUSH1 0x40 MLOAD PUSH2 0x5D0 SWAP2 SWAP1 PUSH2 0x1658 JUMP JUMPDEST PUSH1 0x40 MLOAD DUP1 SWAP2 SUB SWAP1 RETURN JUMPDEST PUSH2 0x5E1 PUSH2 0xE9E JUMP JUMPDEST PUSH1 0x40 MLOAD PUSH2 0x5EE SWAP2 SWAP1 PUSH2 0x12C7 JUMP JUMPDEST PUSH1 0x40 MLOAD DUP1 SWAP2 SUB SWAP1 RETURN JUMPDEST PUSH2 0x5FF PUSH2 0xEA9 JUMP JUMPDEST PUSH1 0x40 MLOAD PUSH2 0x60C SWAP2 SWAP1 PUSH2 0x12C7 JUMP JUMPDEST PUSH1 0x40 MLOAD DUP1 SWAP2 SUB SWAP1 RETURN JUMPDEST PUSH2 0x62F PUSH1 0x4 DUP1 CALLDATASIZE SUB DUP2 ADD SWAP1 PUSH2 0x62A SWAP2 SWAP1 PUSH2 0x19B1 JUMP JUMPDEST PUSH2 0xEB4 JUMP JUMPDEST PUSH1 0x40 MLOAD PUSH2 0x63C SWAP2 SWAP1 PUSH2 0x13FB JUMP JUMPDEST PUSH1 0x40 MLOAD DUP1 SWAP2 SUB SWAP1 RETURN JUMPDEST PUSH2 0x64D PUSH2 0x1007 JUMP JUMPDEST PUSH1 0x40 MLOAD PUSH2 0x65A SWAP2 SWAP1 PUSH2 0x12C7 JUMP JUMPDEST PUSH1 0x40 MLOAD DUP1 SWAP2 SUB SWAP1 RETURN JUMPDEST PUSH2 0x67D PUSH1 0x4 DUP1 CALLDATASIZE SUB DUP2 ADD SWAP1 PUSH2 0x678 SWAP2 SWAP1 PUSH2 0x1892 JUMP JUMPDEST PUSH2 0x1012 JUMP JUMPDEST PUSH1 0x40 MLOAD PUSH2 0x68A SWAP2 SWAP1 PUSH2 0x13FB JUMP JUMPDEST PUSH1 0x40 MLOAD DUP1 SWAP2 SUB SWAP1 RETURN JUMPDEST PUSH2 0x69B PUSH2 0x1066 JUMP JUMPDEST PUSH1 0x40 MLOAD PUSH2 0x6A8 SWAP2 SWAP1 PUSH2 0x1658 JUMP JUMPDEST PUSH1 0x40 MLOAD DUP1 SWAP2 SUB SWAP1 RETURN JUMPDEST PUSH2 0x6B9 PUSH2 0x1071 JUMP JUMPDEST PUSH1 0x40 MLOAD PUSH2 0x6C6 SWAP2 SWAP1 PUSH2 0x12C7 JUMP JUMPDEST PUSH1 0x40 MLOAD DUP1 SWAP2 SUB SWAP1 RETURN JUMPDEST PUSH0 DUP1 PUSH1 0x1A ADD SLOAD SWAP1 POP SWAP1 JUMP JUMPDEST PUSH1 0x40 MLOAD DUP1 PUSH1 0x40 ADD PUSH1 0x40 MSTORE DUP1 PUSH1 0xC DUP2 MSTORE PUSH1 0x20 ADD PUSH32 0x4765747465727346616365740000000000000000000000000000000000000000 DUP2 MSTORE POP DUP2 JUMP JUMPDEST PUSH2 0x71B PUSH2 0x1214 JUMP JUMPDEST PUSH0 PUSH1 0x14 ADD PUSH1 0x40 MLOAD DUP1 PUSH1 0x60 ADD PUSH1 0x40 MSTORE SWAP1 DUP2 PUSH0 DUP3 ADD SLOAD DUP2 MSTORE PUSH1 0x20 ADD PUSH1 0x1 DUP3 ADD SLOAD DUP2 MSTORE PUSH1 0x20 ADD PUSH1 0x2 DUP3 ADD SLOAD DUP2 MSTORE POP POP SWAP1 POP SWAP1 JUMP JUMPDEST PUSH0 DUP1 PUSH2 0x756 PUSH2 0x107C JUMP JUMPDEST SWAP1 POP DUP1 PUSH1 0x3 ADD PUSH0 SWAP1 SLOAD SWAP1 PUSH2 0x100 EXP SWAP1 DIV PUSH1 0xFF AND SWAP2 POP POP SWAP1 JUMP JUMPDEST PUSH0 DUP1 PUSH1 0x21 ADD SLOAD SWAP1 POP SWAP1 JUMP JUMPDEST PUSH0 DUP1 PUSH1 0xB ADD SLOAD SWAP1 POP SWAP1 JUMP JUMPDEST PUSH0 DUP1 PUSH1 0xA ADD PUSH0 SWAP1 SLOAD SWAP1 PUSH2 0x100 EXP SWAP1 DIV PUSH20 0xFFFFFFFFFFFFFFFFFFFFFFFFFFFFFFFFFFFFFFFF AND SWAP1 POP SWAP1 JUMP JUMPDEST PUSH0 DUP1 PUSH1 0x7 ADD PUSH0 SWAP1 SLOAD SWAP1 PUSH2 0x100 EXP SWAP1 DIV PUSH20 0xFFFFFFFFFFFFFFFFFFFFFFFFFFFFFFFFFFFFFFFF AND SWAP1 POP SWAP1 JUMP JUMPDEST PUSH1 0x60 PUSH0 PUSH2 0x7E4 PUSH2 0x107C JUMP JUMPDEST SWAP1 POP DUP1 PUSH1 0x2 ADD DUP1 SLOAD DUP1 PUSH1 0x20 MUL PUSH1 0x20 ADD PUSH1 0x40 MLOAD SWAP1 DUP2 ADD PUSH1 0x40 MSTORE DUP1 SWAP3 SWAP2 SWAP1 DUP2 DUP2 MSTORE PUSH1 0x20 ADD DUP3 DUP1 SLOAD DUP1 ISZERO PUSH2 0x867 JUMPI PUSH1 0x20 MUL DUP3 ADD SWAP2 SWAP1 PUSH0 MSTORE PUSH1 0x20 PUSH0 KECCAK256 SWAP1 JUMPDEST DUP2 PUSH0 SWAP1 SLOAD SWAP1 PUSH2 0x100 EXP SWAP1 DIV PUSH20 0xFFFFFFFFFFFFFFFFFFFFFFFFFFFFFFFFFFFFFFFF AND PUSH20 0xFFFFFFFFFFFFFFFFFFFFFFFFFFFFFFFFFFFFFFFF AND DUP2 MSTORE PUSH1 0x20 ADD SWAP1 PUSH1 0x1 ADD SWAP1 DUP1 DUP4 GT PUSH2 0x81E JUMPI JUMPDEST POP POP POP POP POP SWAP2 POP POP SWAP1 JUMP JUMPDEST PUSH2 0x87A PUSH2 0x123B JUMP JUMPDEST PUSH2 0x886 PUSH0 PUSH1 0x10 ADD PUSH2 0x10AA JUMP JUMPDEST SWAP1 POP SWAP1 JUMP JUMPDEST PUSH0 PUSH2 0x898 PUSH0 PUSH1 0x10 ADD PUSH2 0x11BF JUMP JUMPDEST SWAP1 POP SWAP1 JUMP JUMPDEST PUSH0 DUP1 PUSH1 0xE ADD PUSH0 DUP4 DUP2 MSTORE PUSH1 0x20 ADD SWAP1 DUP2 MSTORE PUSH1 0x20 ADD PUSH0 KECCAK256 SLOAD SWAP1 POP SWAP2 SWAP1 POP JUMP JUMPDEST PUSH0 PUSH2 0x8C6 PUSH0 PUSH1 0x10 ADD PUSH2 0x11DB JUMP JUMPDEST SWAP1 POP SWAP1 JUMP JUMPDEST PUSH1 0x60 PUSH0 PUSH2 0x8D6 PUSH2 0x107C JUMP JUMPDEST SWAP1 POP PUSH0 DUP2 PUSH1 0x2 ADD DUP1 SLOAD SWAP1 POP SWAP1 POP DUP1 PUSH8 0xFFFFFFFFFFFFFFFF DUP2 GT ISZERO PUSH2 0x8FD JUMPI PUSH2 0x8FC PUSH2 0x19DC JUMP JUMPDEST JUMPDEST PUSH1 0x40 MLOAD SWAP1 DUP1 DUP3 MSTORE DUP1 PUSH1 0x20 MUL PUSH1 0x20 ADD DUP3 ADD PUSH1 0x40 MSTORE DUP1 ISZERO PUSH2 0x936 JUMPI DUP2 PUSH1 0x20 ADD JUMPDEST PUSH2 0x923 PUSH2 0x1280 JUMP JUMPDEST DUP2 MSTORE PUSH1 0x20 ADD SWAP1 PUSH1 0x1 SWAP1 SUB SWAP1 DUP2 PUSH2 0x91B JUMPI SWAP1 POP JUMPDEST POP SWAP3 POP PUSH0 JUMPDEST DUP2 DUP2 LT ISZERO PUSH2 0xAE4 JUMPI PUSH0 DUP4 PUSH1 0x2 ADD DUP3 DUP2 SLOAD DUP2 LT PUSH2 0x95A JUMPI PUSH2 0x959 PUSH2 0x1A09 JUMP JUMPDEST JUMPDEST SWAP1 PUSH0 MSTORE PUSH1 0x20 PUSH0 KECCAK256 ADD PUSH0 SWAP1 SLOAD SWAP1 PUSH2 0x100 EXP SWAP1 DIV PUSH20 0xFFFFFFFFFFFFFFFFFFFFFFFFFFFFFFFFFFFFFFFF AND SWAP1 POP PUSH0 DUP5 PUSH1 0x1 ADD PUSH0 DUP4 PUSH20 0xFFFFFFFFFFFFFFFFFFFFFFFFFFFFFFFFFFFFFFFF AND PUSH20 0xFFFFFFFFFFFFFFFFFFFFFFFFFFFFFFFFFFFFFFFF AND DUP2 MSTORE PUSH1 0x20 ADD SWAP1 DUP2 MSTORE PUSH1 0x20 ADD PUSH0 KECCAK256 PUSH1 0x40 MLOAD DUP1 PUSH1 0x40 ADD PUSH1 0x40 MSTORE SWAP1 DUP2 PUSH0 DUP3 ADD DUP1 SLOAD DUP1 PUSH1 0x20 MUL PUSH1 0x20 ADD PUSH1 0x40 MLOAD SWAP1 DUP2 ADD PUSH1 0x40 MSTORE DUP1 SWAP3 SWAP2 SWAP1 DUP2 DUP2 MSTORE PUSH1 0x20 ADD DUP3 DUP1 SLOAD DUP1 ISZERO PUSH2 0xA5C JUMPI PUSH1 0x20 MUL DUP3 ADD SWAP2 SWAP1 PUSH0 MSTORE PUSH1 0x20 PUSH0 KECCAK256 SWAP1 PUSH0 SWAP1 JUMPDEST DUP3 DUP3 SWAP1 SLOAD SWAP1 PUSH2 0x100 EXP SWAP1 DIV PUSH1 0xE0 SHL PUSH28 0xFFFFFFFFFFFFFFFFFFFFFFFFFFFFFFFFFFFFFFFFFFFFFFFFFFFFFFFF NOT AND DUP2 MSTORE PUSH1 0x20 ADD SWAP1 PUSH1 0x4 ADD SWAP1 PUSH1 0x20 DUP3 PUSH1 0x3 ADD DIV SWAP3 DUP4 ADD SWAP3 PUSH1 0x1 SUB DUP3 MUL SWAP2 POP DUP1 DUP5 GT PUSH2 0xA09 JUMPI SWAP1 POP JUMPDEST POP POP POP POP POP DUP2 MSTORE PUSH1 0x20 ADD PUSH1 0x1 DUP3 ADD PUSH0 SWAP1 SLOAD SWAP1 PUSH2 0x100 EXP SWAP1 DIV PUSH2 0xFFFF AND PUSH2 0xFFFF AND PUSH2 0xFFFF AND DUP2 MSTORE POP POP SWAP1 POP PUSH1 0x40 MLOAD DUP1 PUSH1 0x40 ADD PUSH1 0x40 MSTORE DUP1 DUP4 PUSH20 0xFFFFFFFFFFFFFFFFFFFFFFFFFFFFFFFFFFFFFFFF AND DUP2 MSTORE PUSH1 0x20 ADD DUP3 PUSH0 ADD MLOAD DUP2 MSTORE POP DUP7 DUP5 DUP2 MLOAD DUP2 LT PUSH2 0xAC7 JUMPI PUSH2 0xAC6 PUSH2 0x1A09 JUMP JUMPDEST JUMPDEST PUSH1 0x20 MUL PUSH1 0x20 ADD ADD DUP2 SWAP1 MSTORE POP POP POP PUSH2 0xADD DUP2 PUSH2 0x11E8 JUMP JUMPDEST SWAP1 POP PUSH2 0x93B JUMP JUMPDEST POP POP POP SWAP1 JUMP JUMPDEST PUSH0 DUP1 PUSH1 0x22 ADD SLOAD SWAP1 POP SWAP1 JUMP JUMPDEST PUSH0 DUP1 PUSH1 0x8 ADD PUSH0 SWAP1 SLOAD SWAP1 PUSH2 0x100 EXP SWAP1 DIV PUSH20 0xFFFFFFFFFFFFFFFFFFFFFFFFFFFFFFFFFFFFFFFF AND SWAP1 POP SWAP1 JUMP JUMPDEST PUSH0 DUP1 PUSH1 0xF ADD PUSH0 DUP4 DUP2 MSTORE PUSH1 0x20 ADD SWAP1 DUP2 MSTORE PUSH1 0x20 ADD PUSH0 KECCAK256 SLOAD SWAP1 POP SWAP2 SWAP1 POP JUMP JUMPDEST PUSH0 DUP1 PUSH1 0x23 ADD SLOAD SWAP1 POP SWAP1 JUMP JUMPDEST PUSH0 PUSH2 0xB53 PUSH0 PUSH1 0x10 ADD PUSH2 0x11F4 JUMP JUMPDEST SWAP1 POP SWAP1 JUMP JUMPDEST PUSH0 DUP1 PUSH1 0x13 ADD PUSH0 SWAP1 SLOAD SWAP1 PUSH2 0x100 EXP SWAP1 DIV PUSH20 0xFFFFFFFFFFFFFFFFFFFFFFFFFFFFFFFFFFFFFFFF AND SWAP1 POP SWAP1 JUMP JUMPDEST PUSH1 0x60 PUSH0 PUSH2 0xB8D PUSH2 0x107C JUMP JUMPDEST SWAP1 POP DUP1 PUSH1 0x1 ADD PUSH0 DUP5 PUSH20 0xFFFFFFFFFFFFFFFFFFFFFFFFFFFFFFFFFFFFFFFF AND PUSH20 0xFFFFFFFFFFFFFFFFFFFFFFFFFFFFFFFFFFFFFFFF AND DUP2 MSTORE PUSH1 0x20 ADD SWAP1 DUP2 MSTORE PUSH1 0x20 ADD PUSH0 KECCAK256 PUSH0 ADD DUP1 SLOAD DUP1 PUSH1 0x20 MUL PUSH1 0x20 ADD PUSH1 0x40 MLOAD SWAP1 DUP2 ADD PUSH1 0x40 MSTORE DUP1 SWAP3 SWAP2 SWAP1 DUP2 DUP2 MSTORE PUSH1 0x20 ADD DUP3 DUP1 SLOAD DUP1 ISZERO PUSH2 0xC59 JUMPI PUSH1 0x20 MUL DUP3 ADD SWAP2 SWAP1 PUSH0 MSTORE PUSH1 0x20 PUSH0 KECCAK256 SWAP1 PUSH0 SWAP1 JUMPDEST DUP3 DUP3 SWAP1 SLOAD SWAP1 PUSH2 0x100 EXP SWAP1 DIV PUSH1 0xE0 SHL PUSH28 0xFFFFFFFFFFFFFFFFFFFFFFFFFFFFFFFFFFFFFFFFFFFFFFFFFFFFFFFF NOT AND DUP2 MSTORE PUSH1 0x20 ADD SWAP1 PUSH1 0x4 ADD SWAP1 PUSH1 0x20 DUP3 PUSH1 0x3 ADD DIV SWAP3 DUP4 ADD SWAP3 PUSH1 0x1 SUB DUP3 MUL SWAP2 POP DUP1 DUP5 GT PUSH2 0xC06 JUMPI SWAP1 POP JUMPDEST POP POP POP POP POP SWAP2 POP POP SWAP2 SWAP1 POP JUMP JUMPDEST PUSH0 DUP1 PUSH1 0xC ADD SLOAD SWAP1 POP SWAP1 JUMP JUMPDEST PUSH0 DUP1 PUSH1 0xE ADD PUSH0 DUP4 DUP2 MSTORE PUSH1 0x20 ADD SWAP1 DUP2 MSTORE PUSH1 0x20 ADD PUSH0 KECCAK256 SLOAD SWAP1 POP SWAP2 SWAP1 POP JUMP JUMPDEST PUSH0 DUP1 PUSH1 0xB ADD SLOAD SWAP1 POP SWAP1 JUMP JUMPDEST PUSH0 DUP1 PUSH1 0x1D ADD PUSH0 DUP5 DUP2 MSTORE PUSH1 0x20 ADD SWAP1 DUP2 MSTORE PUSH1 0x20 ADD PUSH0 KECCAK256 PUSH0 DUP4 DUP2 MSTORE PUSH1 0x20 ADD SWAP1 DUP2 MSTORE PUSH1 0x20 ADD PUSH0 KECCAK256 PUSH0 SWAP1 SLOAD SWAP1 PUSH2 0x100 EXP SWAP1 DIV PUSH1 0xFF AND SWAP1 POP SWAP3 SWAP2 POP POP JUMP JUMPDEST PUSH0 DUP1 PUSH2 0xCDA PUSH2 0x107C JUMP JUMPDEST SWAP1 POP PUSH0 DUP2 PUSH1 0x1 ADD PUSH0 DUP6 PUSH20 0xFFFFFFFFFFFFFFFFFFFFFFFFFFFFFFFFFFFFFFFF AND PUSH20 0xFFFFFFFFFFFFFFFFFFFFFFFFFFFFFFFFFFFFFFFF AND DUP2 MSTORE PUSH1 0x20 ADD SWAP1 DUP2 MSTORE PUSH1 0x20 ADD PUSH0 KECCAK256 PUSH0 ADD DUP1 SLOAD SWAP1 POP SWAP1 POP PUSH0 DUP2 EQ PUSH2 0xE06 JUMPI PUSH0 DUP3 PUSH1 0x1 ADD PUSH0 DUP7 PUSH20 0xFFFFFFFFFFFFFFFFFFFFFFFFFFFFFFFFFFFFFFFF AND PUSH20 0xFFFFFFFFFFFFFFFFFFFFFFFFFFFFFFFFFFFFFFFF AND DUP2 MSTORE PUSH1 0x20 ADD SWAP1 DUP2 MSTORE PUSH1 0x20 ADD PUSH0 KECCAK256 PUSH0 ADD PUSH0 DUP2 SLOAD DUP2 LT PUSH2 0xD7F JUMPI PUSH2 0xD7E PUSH2 0x1A09 JUMP JUMPDEST JUMPDEST SWAP1 PUSH0 MSTORE PUSH1 0x20 PUSH0 KECCAK256 SWAP1 PUSH1 0x8 SWAP2 DUP3 DUP3 DIV ADD SWAP2 SWAP1 MOD PUSH1 0x4 MUL SWAP1 SLOAD SWAP1 PUSH2 0x100 EXP SWAP1 DIV PUSH1 0xE0 SHL SWAP1 POP DUP3 PUSH0 ADD PUSH0 DUP3 PUSH28 0xFFFFFFFFFFFFFFFFFFFFFFFFFFFFFFFFFFFFFFFFFFFFFFFFFFFFFFFF NOT AND PUSH28 0xFFFFFFFFFFFFFFFFFFFFFFFFFFFFFFFFFFFFFFFFFFFFFFFFFFFFFFFF NOT AND DUP2 MSTORE PUSH1 0x20 ADD SWAP1 DUP2 MSTORE PUSH1 0x20 ADD PUSH0 KECCAK256 PUSH0 ADD PUSH1 0x16 SWAP1 SLOAD SWAP1 PUSH2 0x100 EXP SWAP1 DIV PUSH1 0xFF AND SWAP4 POP POP JUMPDEST POP POP SWAP2 SWAP1 POP JUMP JUMPDEST PUSH0 DUP1 PUSH2 0xE17 PUSH2 0x107C JUMP JUMPDEST SWAP1 POP DUP1 PUSH0 ADD PUSH0 DUP5 PUSH28 0xFFFFFFFFFFFFFFFFFFFFFFFFFFFFFFFFFFFFFFFFFFFFFFFFFFFFFFFF NOT AND PUSH28 0xFFFFFFFFFFFFFFFFFFFFFFFFFFFFFFFFFFFFFFFFFFFFFFFFFFFFFFFF NOT AND DUP2 MSTORE PUSH1 0x20 ADD SWAP1 DUP2 MSTORE PUSH1 0x20 ADD PUSH0 KECCAK256 PUSH0 ADD PUSH0 SWAP1 SLOAD SWAP1 PUSH2 0x100 EXP SWAP1 DIV PUSH20 0xFFFFFFFFFFFFFFFFFFFFFFFFFFFFFFFFFFFFFFFF AND SWAP2 POP POP SWAP2 SWAP1 POP JUMP JUMPDEST PUSH0 DUP1 PUSH1 0x17 ADD SLOAD SWAP1 POP SWAP1 JUMP JUMPDEST PUSH0 DUP1 PUSH1 0xD ADD SLOAD SWAP1 POP SWAP1 JUMP JUMPDEST PUSH0 DUP1 PUSH1 0x23 ADD SLOAD SWAP1 POP SWAP1 JUMP JUMPDEST PUSH0 DUP1 PUSH2 0xEBE PUSH2 0x107C JUMP JUMPDEST SWAP1 POP PUSH0 PUSH20 0xFFFFFFFFFFFFFFFFFFFFFFFFFFFFFFFFFFFFFFFF AND DUP2 PUSH0 ADD PUSH0 DUP6 PUSH28 0xFFFFFFFFFFFFFFFFFFFFFFFFFFFFFFFFFFFFFFFFFFFFFFFFFFFFFFFF NOT AND PUSH28 0xFFFFFFFFFFFFFFFFFFFFFFFFFFFFFFFFFFFFFFFFFFFFFFFFFFFFFFFF NOT AND DUP2 MSTORE PUSH1 0x20 ADD SWAP1 DUP2 MSTORE PUSH1 0x20 ADD PUSH0 KECCAK256 PUSH0 ADD PUSH0 SWAP1 SLOAD SWAP1 PUSH2 0x100 EXP SWAP1 DIV PUSH20 0xFFFFFFFFFFFFFFFFFFFFFFFFFFFFFFFFFFFFFFFF AND PUSH20 0xFFFFFFFFFFFFFFFFFFFFFFFFFFFFFFFFFFFFFFFF AND SUB PUSH2 0xF9F JUMPI PUSH1 0x40 MLOAD PUSH32 0x8C379A000000000000000000000000000000000000000000000000000000000 DUP2 MSTORE PUSH1 0x4 ADD PUSH2 0xF96 SWAP1 PUSH2 0x1A80 JUMP JUMPDEST PUSH1 0x40 MLOAD DUP1 SWAP2 SUB SWAP1 REVERT JUMPDEST DUP1 PUSH0 ADD PUSH0 DUP5 PUSH28 0xFFFFFFFFFFFFFFFFFFFFFFFFFFFFFFFFFFFFFFFFFFFFFFFFFFFFFFFF NOT AND PUSH28 0xFFFFFFFFFFFFFFFFFFFFFFFFFFFFFFFFFFFFFFFFFFFFFFFFFFFFFFFF NOT AND DUP2 MSTORE PUSH1 0x20 ADD SWAP1 DUP2 MSTORE PUSH1 0x20 ADD PUSH0 KECCAK256 PUSH0 ADD PUSH1 0x16 SWAP1 SLOAD SWAP1 PUSH2 0x100 EXP SWAP1 DIV PUSH1 0xFF AND SWAP2 POP POP SWAP2 SWAP1 POP JUMP JUMPDEST PUSH0 DUP1 PUSH1 0xC ADD SLOAD SWAP1 POP SWAP1 JUMP JUMPDEST PUSH0 DUP1 PUSH1 0x9 ADD PUSH0 DUP4 PUSH20 0xFFFFFFFFFFFFFFFFFFFFFFFFFFFFFFFFFFFFFFFF AND PUSH20 0xFFFFFFFFFFFFFFFFFFFFFFFFFFFFFFFFFFFFFFFF AND DUP2 MSTORE PUSH1 0x20 ADD SWAP1 DUP2 MSTORE PUSH1 0x20 ADD PUSH0 KECCAK256 PUSH0 SWAP1 SLOAD SWAP1 PUSH2 0x100 EXP SWAP1 DIV PUSH1 0xFF AND SWAP1 POP SWAP2 SWAP1 POP JUMP JUMPDEST PUSH0 DUP1 PUSH1 0x18 ADD SLOAD SWAP1 POP SWAP1 JUMP JUMPDEST PUSH0 DUP1 PUSH1 0xD ADD SLOAD SWAP1 POP SWAP1 JUMP JUMPDEST PUSH0 DUP1 PUSH32 0xC8FCAD8DB84D3CC18B4C41D551EA0EE66DD599CDE068D998E57D5E09332C131B PUSH0 SHL SWAP1 POP DUP1 SWAP2 POP POP SWAP1 JUMP JUMPDEST PUSH2 0x10B2 PUSH2 0x123B JUMP JUMPDEST PUSH2 0x10BB DUP3 PUSH2 0x1201 JUMP JUMPDEST ISZERO PUSH2 0x10FB JUMPI PUSH1 0x40 MLOAD PUSH32 0x8C379A000000000000000000000000000000000000000000000000000000000 DUP2 MSTORE PUSH1 0x4 ADD PUSH2 0x10F2 SWAP1 PUSH2 0x1AE8 JUMP JUMPDEST PUSH1 0x40 MLOAD DUP1 SWAP2 SUB SWAP1 REVERT JUMPDEST DUP2 PUSH0 ADD PUSH0 DUP4 PUSH1 0x2 ADD SLOAD DUP2 MSTORE PUSH1 0x20 ADD SWAP1 DUP2 MSTORE PUSH1 0x20 ADD PUSH0 KECCAK256 PUSH1 0x40 MLOAD DUP1 PUSH1 0x60 ADD PUSH1 0x40 MSTORE SWAP1 DUP2 PUSH0 DUP3 ADD SLOAD DUP2 MSTORE PUSH1 0x20 ADD PUSH1 0x1 DUP3 ADD PUSH0 SWAP1 SLOAD SWAP1 PUSH2 0x100 EXP SWAP1 DIV PUSH8 0xFFFFFFFFFFFFFFFF AND PUSH8 0xFFFFFFFFFFFFFFFF AND PUSH8 0xFFFFFFFFFFFFFFFF AND DUP2 MSTORE PUSH1 0x20 ADD PUSH1 0x1 DUP3 ADD PUSH1 0x8 SWAP1 SLOAD SWAP1 PUSH2 0x100 EXP SWAP1 DIV PUSH24 0xFFFFFFFFFFFFFFFFFFFFFFFFFFFFFFFFFFFFFFFFFFFFFFFF AND PUSH24 0xFFFFFFFFFFFFFFFFFFFFFFFFFFFFFFFFFFFFFFFFFFFFFFFF AND PUSH24 0xFFFFFFFFFFFFFFFFFFFFFFFFFFFFFFFFFFFFFFFFFFFFFFFF AND DUP2 MSTORE POP POP SWAP1 POP SWAP2 SWAP1 POP JUMP JUMPDEST PUSH0 DUP2 PUSH1 0x2 ADD SLOAD DUP3 PUSH1 0x1 ADD SLOAD PUSH2 0x11D4 SWAP2 SWAP1 PUSH2 0x1B33 JUMP JUMPDEST SWAP1 POP SWAP2 SWAP1 POP JUMP JUMPDEST PUSH0 DUP2 PUSH1 0x2 ADD SLOAD SWAP1 POP SWAP2 SWAP1 POP JUMP JUMPDEST PUSH0 PUSH1 0x1 DUP3 ADD SWAP1 POP SWAP2 SWAP1 POP JUMP JUMPDEST PUSH0 DUP2 PUSH1 0x1 ADD SLOAD SWAP1 POP SWAP2 SWAP1 POP JUMP JUMPDEST PUSH0 DUP2 PUSH1 0x2 ADD SLOAD DUP3 PUSH1 0x1 ADD SLOAD EQ SWAP1 POP SWAP2 SWAP1 POP JUMP JUMPDEST PUSH1 0x40 MLOAD DUP1 PUSH1 0x60 ADD PUSH1 0x40 MSTORE DUP1 PUSH0 DUP1 NOT AND DUP2 MSTORE PUSH1 0x20 ADD PUSH0 DUP1 NOT AND DUP2 MSTORE PUSH1 0x20 ADD PUSH0 DUP1 NOT AND DUP2 MSTORE POP SWAP1 JUMP JUMPDEST PUSH1 0x40 MLOAD DUP1 PUSH1 0x60 ADD PUSH1 0x40 MSTORE DUP1 PUSH0 DUP1 NOT AND DUP2 MSTORE PUSH1 0x20 ADD PUSH0 PUSH8 0xFFFFFFFFFFFFFFFF AND DUP2 MSTORE PUSH1 0x20 ADD PUSH0 PUSH24 0xFFFFFFFFFFFFFFFFFFFFFFFFFFFFFFFFFFFFFFFFFFFFFFFF AND DUP2 MSTORE POP SWAP1 JUMP JUMPDEST PUSH1 0x40 MLOAD DUP1 PUSH1 0x40 ADD PUSH1 0x40 MSTORE DUP1 PUSH0 PUSH20 0xFFFFFFFFFFFFFFFFFFFFFFFFFFFFFFFFFFFFFFFF AND DUP2 MSTORE PUSH1 0x20 ADD PUSH1 0x60 DUP2 MSTORE POP SWAP1 JUMP JUMPDEST PUSH0 DUP2 SWAP1 POP SWAP2 SWAP1 POP JUMP JUMPDEST PUSH2 0x12C1 DUP2 PUSH2 0x12AF JUMP JUMPDEST DUP3 MSTORE POP POP JUMP JUMPDEST PUSH0 PUSH1 0x20 DUP3 ADD SWAP1 POP PUSH2 0x12DA PUSH0 DUP4 ADD DUP5 PUSH2 0x12B8 JUMP JUMPDEST SWAP3 SWAP2 POP POP JUMP JUMPDEST PUSH0 DUP2 MLOAD SWAP1 POP SWAP2 SWAP1 POP JUMP JUMPDEST PUSH0 DUP3 DUP3 MSTORE PUSH1 0x20 DUP3 ADD SWAP1 POP SWAP3 SWAP2 POP POP JUMP JUMPDEST DUP3 DUP2 DUP4 MCOPY PUSH0 DUP4 DUP4 ADD MSTORE POP POP POP JUMP JUMPDEST PUSH0 PUSH1 0x1F NOT PUSH1 0x1F DUP4 ADD AND SWAP1 POP SWAP2 SWAP1 POP JUMP JUMPDEST PUSH0 PUSH2 0x1322 DUP3 PUSH2 0x12E0 JUMP JUMPDEST PUSH2 0x132C DUP2 DUP6 PUSH2 0x12EA JUMP JUMPDEST SWAP4 POP PUSH2 0x133C DUP2 DUP6 PUSH1 0x20 DUP7 ADD PUSH2 0x12FA JUMP JUMPDEST PUSH2 0x1345 DUP2 PUSH2 0x1308 JUMP JUMPDEST DUP5 ADD SWAP2 POP POP SWAP3 SWAP2 POP POP JUMP JUMPDEST PUSH0 PUSH1 0x20 DUP3 ADD SWAP1 POP DUP2 DUP2 SUB PUSH0 DUP4 ADD MSTORE PUSH2 0x1368 DUP2 DUP5 PUSH2 0x1318 JUMP JUMPDEST SWAP1 POP SWAP3 SWAP2 POP POP JUMP JUMPDEST PUSH0 DUP2 SWAP1 POP SWAP2 SWAP1 POP JUMP JUMPDEST PUSH2 0x1382 DUP2 PUSH2 0x1370 JUMP JUMPDEST DUP3 MSTORE POP POP JUMP JUMPDEST PUSH1 0x60 DUP3 ADD PUSH0 DUP3 ADD MLOAD PUSH2 0x139C PUSH0 DUP6 ADD DUP3 PUSH2 0x1379 JUMP JUMPDEST POP PUSH1 0x20 DUP3 ADD MLOAD PUSH2 0x13AF PUSH1 0x20 DUP6 ADD DUP3 PUSH2 0x1379 JUMP JUMPDEST POP PUSH1 0x40 DUP3 ADD MLOAD PUSH2 0x13C2 PUSH1 0x40 DUP6 ADD DUP3 PUSH2 0x1379 JUMP JUMPDEST POP POP POP POP JUMP JUMPDEST PUSH0 PUSH1 0x60 DUP3 ADD SWAP1 POP PUSH2 0x13DB PUSH0 DUP4 ADD DUP5 PUSH2 0x1388 JUMP JUMPDEST SWAP3 SWAP2 POP POP JUMP JUMPDEST PUSH0 DUP2 ISZERO ISZERO SWAP1 POP SWAP2 SWAP1 POP JUMP JUMPDEST PUSH2 0x13F5 DUP2 PUSH2 0x13E1 JUMP JUMPDEST DUP3 MSTORE POP POP JUMP JUMPDEST PUSH0 PUSH1 0x20 DUP3 ADD SWAP1 POP PUSH2 0x140E PUSH0 DUP4 ADD DUP5 PUSH2 0x13EC JUMP JUMPDEST SWAP3 SWAP2 POP POP JUMP JUMPDEST PUSH0 PUSH20 0xFFFFFFFFFFFFFFFFFFFFFFFFFFFFFFFFFFFFFFFF DUP3 AND SWAP1 POP SWAP2 SWAP1 POP JUMP JUMPDEST PUSH0 PUSH2 0x143D DUP3 PUSH2 0x1414 JUMP JUMPDEST SWAP1 POP SWAP2 SWAP1 POP JUMP JUMPDEST PUSH2 0x144D DUP2 PUSH2 0x1433 JUMP JUMPDEST DUP3 MSTORE POP POP JUMP JUMPDEST PUSH0 PUSH1 0x20 DUP3 ADD SWAP1 POP PUSH2 0x1466 PUSH0 DUP4 ADD DUP5 PUSH2 0x1444 JUMP JUMPDEST SWAP3 SWAP2 POP POP JUMP JUMPDEST PUSH0 DUP2 MLOAD SWAP1 POP SWAP2 SWAP1 POP JUMP JUMPDEST PUSH0 DUP3 DUP3 MSTORE PUSH1 0x20 DUP3 ADD SWAP1 POP SWAP3 SWAP2 POP POP JUMP JUMPDEST PUSH0 DUP2 SWAP1 POP PUSH1 0x20 DUP3 ADD SWAP1 POP SWAP2 SWAP1 POP JUMP JUMPDEST PUSH2 0x149E DUP2 PUSH2 0x1433 JUMP JUMPDEST DUP3 MSTORE POP POP JUMP JUMPDEST PUSH0 PUSH2 0x14AF DUP4 DUP4 PUSH2 0x1495 JUMP JUMPDEST PUSH1 0x20 DUP4 ADD SWAP1 POP SWAP3 SWAP2 POP POP JUMP JUMPDEST PUSH0 PUSH1 0x20 DUP3 ADD SWAP1 POP SWAP2 SWAP1 POP JUMP JUMPDEST PUSH0 PUSH2 0x14D1 DUP3 PUSH2 0x146C JUMP JUMPDEST PUSH2 0x14DB DUP2 DUP6 PUSH2 0x1476 JUMP JUMPDEST SWAP4 POP PUSH2 0x14E6 DUP4 PUSH2 0x1486 JUMP JUMPDEST DUP1 PUSH0 JUMPDEST DUP4 DUP2 LT ISZERO PUSH2 0x1516 JUMPI DUP2 MLOAD PUSH2 0x14FD DUP9 DUP3 PUSH2 0x14A4 JUMP JUMPDEST SWAP8 POP PUSH2 0x1508 DUP4 PUSH2 0x14BB JUMP JUMPDEST SWAP3 POP POP PUSH1 0x1 DUP2 ADD SWAP1 POP PUSH2 0x14E9 JUMP JUMPDEST POP DUP6 SWAP4 POP POP POP POP SWAP3 SWAP2 POP POP JUMP JUMPDEST PUSH0 PUSH1 0x20 DUP3 ADD SWAP1 POP DUP2 DUP2 SUB PUSH0 DUP4 ADD MSTORE PUSH2 0x153B DUP2 DUP5 PUSH2 0x14C7 JUMP JUMPDEST SWAP1 POP SWAP3 SWAP2 POP POP JUMP JUMPDEST PUSH0 PUSH8 0xFFFFFFFFFFFFFFFF DUP3 AND SWAP1 POP SWAP2 SWAP1 POP JUMP JUMPDEST PUSH2 0x155F DUP2 PUSH2 0x1543 JUMP JUMPDEST DUP3 MSTORE POP POP JUMP JUMPDEST PUSH0 PUSH24 0xFFFFFFFFFFFFFFFFFFFFFFFFFFFFFFFFFFFFFFFFFFFFFFFF DUP3 AND SWAP1 POP SWAP2 SWAP1 POP JUMP JUMPDEST PUSH2 0x1591 DUP2 PUSH2 0x1565 JUMP JUMPDEST DUP3 MSTORE POP POP JUMP JUMPDEST PUSH1 0x60 DUP3 ADD PUSH0 DUP3 ADD MLOAD PUSH2 0x15AB PUSH0 DUP6 ADD DUP3 PUSH2 0x1379 JUMP JUMPDEST POP PUSH1 0x20 DUP3 ADD MLOAD PUSH2 0x15BE PUSH1 0x20 DUP6 ADD DUP3 PUSH2 0x1556 JUMP JUMPDEST POP PUSH1 0x40 DUP3 ADD MLOAD PUSH2 0x15D1 PUSH1 0x40 DUP6 ADD DUP3 PUSH2 0x1588 JUMP JUMPDEST POP POP POP POP JUMP JUMPDEST PUSH0 PUSH1 0x60 DUP3 ADD SWAP1 POP PUSH2 0x15EA PUSH0 DUP4 ADD DUP5 PUSH2 0x1597 JUMP JUMPDEST SWAP3 SWAP2 POP POP JUMP JUMPDEST PUSH0 DUP1 REVERT JUMPDEST PUSH2 0x15FD DUP2 PUSH2 0x12AF JUMP JUMPDEST DUP2 EQ PUSH2 0x1607 JUMPI PUSH0 DUP1 REVERT JUMPDEST POP JUMP JUMPDEST PUSH0 DUP2 CALLDATALOAD SWAP1 POP PUSH2 0x1618 DUP2 PUSH2 0x15F4 JUMP JUMPDEST SWAP3 SWAP2 POP POP JUMP JUMPDEST PUSH0 PUSH1 0x20 DUP3 DUP5 SUB SLT ISZERO PUSH2 0x1633 JUMPI PUSH2 0x1632 PUSH2 0x15F0 JUMP JUMPDEST JUMPDEST PUSH0 PUSH2 0x1640 DUP5 DUP3 DUP6 ADD PUSH2 0x160A JUMP JUMPDEST SWAP2 POP POP SWAP3 SWAP2 POP POP JUMP JUMPDEST PUSH2 0x1652 DUP2 PUSH2 0x1370 JUMP JUMPDEST DUP3 MSTORE POP POP JUMP JUMPDEST PUSH0 PUSH1 0x20 DUP3 ADD SWAP1 POP PUSH2 0x166B PUSH0 DUP4 ADD DUP5 PUSH2 0x1649 JUMP JUMPDEST SWAP3 SWAP2 POP POP JUMP JUMPDEST PUSH0 DUP2 MLOAD SWAP1 POP SWAP2 SWAP1 POP JUMP JUMPDEST PUSH0 DUP3 DUP3 MSTORE PUSH1 0x20 DUP3 ADD SWAP1 POP SWAP3 SWAP2 POP POP JUMP JUMPDEST PUSH0 DUP2 SWAP1 POP PUSH1 0x20 DUP3 ADD SWAP1 POP SWAP2 SWAP1 POP JUMP JUMPDEST PUSH0 DUP2 MLOAD SWAP1 POP SWAP2 SWAP1 POP JUMP JUMPDEST PUSH0 DUP3 DUP3 MSTORE PUSH1 0x20 DUP3 ADD SWAP1 POP SWAP3 SWAP2 POP POP JUMP JUMPDEST PUSH0 DUP2 SWAP1 POP PUSH1 0x20 DUP3 ADD SWAP1 POP SWAP2 SWAP1 POP JUMP JUMPDEST PUSH0 PUSH32 0xFFFFFFFF00000000000000000000000000000000000000000000000000000000 DUP3 AND SWAP1 POP SWAP2 SWAP1 POP JUMP JUMPDEST PUSH2 0x16F7 DUP2 PUSH2 0x16C3 JUMP JUMPDEST DUP3 MSTORE POP POP JUMP JUMPDEST PUSH0 PUSH2 0x1708 DUP4 DUP4 PUSH2 0x16EE JUMP JUMPDEST PUSH1 0x20 DUP4 ADD SWAP1 POP SWAP3 SWAP2 POP POP JUMP JUMPDEST PUSH0 PUSH1 0x20 DUP3 ADD SWAP1 POP SWAP2 SWAP1 POP JUMP JUMPDEST PUSH0 PUSH2 0x172A DUP3 PUSH2 0x169A JUMP JUMPDEST PUSH2 0x1734 DUP2 DUP6 PUSH2 0x16A4 JUMP JUMPDEST SWAP4 POP PUSH2 0x173F DUP4 PUSH2 0x16B4 JUMP JUMPDEST DUP1 PUSH0 JUMPDEST DUP4 DUP2 LT ISZERO PUSH2 0x176F JUMPI DUP2 MLOAD PUSH2 0x1756 DUP9 DUP3 PUSH2 0x16FD JUMP JUMPDEST SWAP8 POP PUSH2 0x1761 DUP4 PUSH2 0x1714 JUMP JUMPDEST SWAP3 POP POP PUSH1 0x1 DUP2 ADD SWAP1 POP PUSH2 0x1742 JUMP JUMPDEST POP DUP6 SWAP4 POP POP POP POP SWAP3 SWAP2 POP POP JUMP JUMPDEST PUSH0 PUSH1 0x40 DUP4 ADD PUSH0 DUP4 ADD MLOAD PUSH2 0x1791 PUSH0 DUP7 ADD DUP3 PUSH2 0x1495 JUMP JUMPDEST POP PUSH1 0x20 DUP4 ADD MLOAD DUP5 DUP3 SUB PUSH1 0x20 DUP7 ADD MSTORE PUSH2 0x17A9 DUP3 DUP3 PUSH2 0x1720 JUMP JUMPDEST SWAP2 POP POP DUP1 SWAP2 POP POP SWAP3 SWAP2 POP POP JUMP JUMPDEST PUSH0 PUSH2 0x17C1 DUP4 DUP4 PUSH2 0x177C JUMP JUMPDEST SWAP1 POP SWAP3 SWAP2 POP POP JUMP JUMPDEST PUSH0 PUSH1 0x20 DUP3 ADD SWAP1 POP SWAP2 SWAP1 POP JUMP JUMPDEST PUSH0 PUSH2 0x17DF DUP3 PUSH2 0x1671 JUMP JUMPDEST PUSH2 0x17E9 DUP2 DUP6 PUSH2 0x167B JUMP JUMPDEST SWAP4 POP DUP4 PUSH1 0x20 DUP3 MUL DUP6 ADD PUSH2 0x17FB DUP6 PUSH2 0x168B JUMP JUMPDEST DUP1 PUSH0 JUMPDEST DUP6 DUP2 LT ISZERO PUSH2 0x1836 JUMPI DUP5 DUP5 SUB DUP10 MSTORE DUP2 MLOAD PUSH2 0x1817 DUP6 DUP3 PUSH2 0x17B6 JUMP JUMPDEST SWAP5 POP PUSH2 0x1822 DUP4 PUSH2 0x17C9 JUMP JUMPDEST SWAP3 POP PUSH1 0x20 DUP11 ADD SWAP10 POP POP PUSH1 0x1 DUP2 ADD SWAP1 POP PUSH2 0x17FE JUMP JUMPDEST POP DUP3 SWAP8 POP DUP8 SWAP6 POP POP POP POP POP POP SWAP3 SWAP2 POP POP JUMP JUMPDEST PUSH0 PUSH1 0x20 DUP3 ADD SWAP1 POP DUP2 DUP2 SUB PUSH0 DUP4 ADD MSTORE PUSH2 0x1860 DUP2 DUP5 PUSH2 0x17D5 JUMP JUMPDEST SWAP1 POP SWAP3 SWAP2 POP POP JUMP JUMPDEST PUSH2 0x1871 DUP2 PUSH2 0x1433 JUMP JUMPDEST DUP2 EQ PUSH2 0x187B JUMPI PUSH0 DUP1 REVERT JUMPDEST POP JUMP JUMPDEST PUSH0 DUP2 CALLDATALOAD SWAP1 POP PUSH2 0x188C DUP2 PUSH2 0x1868 JUMP JUMPDEST SWAP3 SWAP2 POP POP JUMP JUMPDEST PUSH0 PUSH1 0x20 DUP3 DUP5 SUB SLT ISZERO PUSH2 0x18A7 JUMPI PUSH2 0x18A6 PUSH2 0x15F0 JUMP JUMPDEST JUMPDEST PUSH0 PUSH2 0x18B4 DUP5 DUP3 DUP6 ADD PUSH2 0x187E JUMP JUMPDEST SWAP2 POP POP SWAP3 SWAP2 POP POP JUMP JUMPDEST PUSH0 DUP3 DUP3 MSTORE PUSH1 0x20 DUP3 ADD SWAP1 POP SWAP3 SWAP2 POP POP JUMP JUMPDEST PUSH0 PUSH2 0x18D7 DUP3 PUSH2 0x169A JUMP JUMPDEST PUSH2 0x18E1 DUP2 DUP6 PUSH2 0x18BD JUMP JUMPDEST SWAP4 POP PUSH2 0x18EC DUP4 PUSH2 0x16B4 JUMP JUMPDEST DUP1 PUSH0 JUMPDEST DUP4 DUP2 LT ISZERO PUSH2 0x191C JUMPI DUP2 MLOAD PUSH2 0x1903 DUP9 DUP3 PUSH2 0x16FD JUMP JUMPDEST SWAP8 POP PUSH2 0x190E DUP4 PUSH2 0x1714 JUMP JUMPDEST SWAP3 POP POP PUSH1 0x1 DUP2 ADD SWAP1 POP PUSH2 0x18EF JUMP JUMPDEST POP DUP6 SWAP4 POP POP POP POP SWAP3 SWAP2 POP POP JUMP JUMPDEST PUSH0 PUSH1 0x20 DUP3 ADD SWAP1 POP DUP2 DUP2 SUB PUSH0 DUP4 ADD MSTORE PUSH2 0x1941 DUP2 DUP5 PUSH2 0x18CD JUMP JUMPDEST SWAP1 POP SWAP3 SWAP2 POP POP JUMP JUMPDEST PUSH0 DUP1 PUSH1 0x40 DUP4 DUP6 SUB SLT ISZERO PUSH2 0x195F JUMPI PUSH2 0x195E PUSH2 0x15F0 JUMP JUMPDEST JUMPDEST PUSH0 PUSH2 0x196C DUP6 DUP3 DUP7 ADD PUSH2 0x160A JUMP JUMPDEST SWAP3 POP POP PUSH1 0x20 PUSH2 0x197D DUP6 DUP3 DUP7 ADD PUSH2 0x160A JUMP JUMPDEST SWAP2 POP POP SWAP3 POP SWAP3 SWAP1 POP JUMP JUMPDEST PUSH2 0x1990 DUP2 PUSH2 0x16C3 JUMP JUMPDEST DUP2 EQ PUSH2 0x199A JUMPI PUSH0 DUP1 REVERT JUMPDEST POP JUMP JUMPDEST PUSH0 DUP2 CALLDATALOAD SWAP1 POP PUSH2 0x19AB DUP2 PUSH2 0x1987 JUMP JUMPDEST SWAP3 SWAP2 POP POP JUMP JUMPDEST PUSH0 PUSH1 0x20 DUP3 DUP5 SUB SLT ISZERO PUSH2 0x19C6 JUMPI PUSH2 0x19C5 PUSH2 0x15F0 JUMP JUMPDEST JUMPDEST PUSH0 PUSH2 0x19D3 DUP5 DUP3 DUP6 ADD PUSH2 0x199D JUMP JUMPDEST SWAP2 POP POP SWAP3 SWAP2 POP POP JUMP JUMPDEST PUSH32 0x4E487B7100000000000000000000000000000000000000000000000000000000 PUSH0 MSTORE PUSH1 0x41 PUSH1 0x4 MSTORE PUSH1 0x24 PUSH0 REVERT JUMPDEST PUSH32 0x4E487B7100000000000000000000000000000000000000000000000000000000 PUSH0 MSTORE PUSH1 0x32 PUSH1 0x4 MSTORE PUSH1 0x24 PUSH0 REVERT JUMPDEST PUSH32 0x6732000000000000000000000000000000000000000000000000000000000000 PUSH0 DUP3 ADD MSTORE POP JUMP JUMPDEST PUSH0 PUSH2 0x1A6A PUSH1 0x2 DUP4 PUSH2 0x12EA JUMP JUMPDEST SWAP2 POP PUSH2 0x1A75 DUP3 PUSH2 0x1A36 JUMP JUMPDEST PUSH1 0x20 DUP3 ADD SWAP1 POP SWAP2 SWAP1 POP JUMP JUMPDEST PUSH0 PUSH1 0x20 DUP3 ADD SWAP1 POP DUP2 DUP2 SUB PUSH0 DUP4 ADD MSTORE PUSH2 0x1A97 DUP2 PUSH2 0x1A5E JUMP JUMPDEST SWAP1 POP SWAP2 SWAP1 POP JUMP JUMPDEST PUSH32 0x4400000000000000000000000000000000000000000000000000000000000000 PUSH0 DUP3 ADD MSTORE POP JUMP JUMPDEST PUSH0 PUSH2 0x1AD2 PUSH1 0x1 DUP4 PUSH2 0x12EA JUMP JUMPDEST SWAP2 POP PUSH2 0x1ADD DUP3 PUSH2 0x1A9E JUMP JUMPDEST PUSH1 0x20 DUP3 ADD SWAP1 POP SWAP2 SWAP1 POP JUMP JUMPDEST PUSH0 PUSH1 0x20 DUP3 ADD SWAP1 POP DUP2 DUP2 SUB PUSH0 DUP4 ADD MSTORE PUSH2 0x1AFF DUP2 PUSH2 0x1AC6 JUMP JUMPDEST SWAP1 POP SWAP2 SWAP1 POP JUMP JUMPDEST PUSH32 0x4E487B7100000000000000000000000000000000000000000000000000000000 PUSH0 MSTORE PUSH1 0x11 PUSH1 0x4 MSTORE PUSH1 0x24 PUSH0 REVERT JUMPDEST PUSH0 PUSH2 0x1B3D DUP3 PUSH2 0x12AF JUMP JUMPDEST SWAP2 POP PUSH2 0x1B48 DUP4 PUSH2 0x12AF JUMP JUMPDEST SWAP3 POP DUP3 DUP3 SUB SWAP1 POP DUP2 DUP2 GT ISZERO PUSH2 0x1B60 JUMPI PUSH2 0x1B5F PUSH2 0x1B06 JUMP JUMPDEST JUMPDEST SWAP3 SWAP2 POP POP JUMP INVALID LOG2 PUSH5 0x6970667358 0x22 SLT KECCAK256 0xC7 DUP9 0xD0 INVALID SWAP12 0x1E 0xED PUSH11 0xB0B9015C10D626ADA0D0E5 0xC4 BYTE 0xC7 0xD1 EXTCODESIZE GT PUSH12 0x9FC5925EC7E164736F6C6343 STOP ADDMOD BYTE STOP CALLER "
				},
				"gasEstimates": {
					"creation": {
						"codeDepositCost": "1413600",
						"executionCost": "1470",
						"totalCost": "1415070"
					},
					"external": {
						"facetAddress(bytes4)": "2996",
						"facetAddresses()": "infinite",
						"facetFunctionSelectors(address)": "infinite",
						"facets()": "infinite",
						"getAllowList()": "2611",
						"getFirstUnprocessedPriorityTx()": "2530",
						"getGovernor()": "2633",
						"getL2BootloaderBytecodeHash()": "2505",
						"getL2DefaultAccountBytecodeHash()": "2548",
						"getL2SystemContractsUpgradeBatchNumber()": "2549",
						"getL2SystemContractsUpgradeBlockNumber()": "2484",
						"getL2SystemContractsUpgradeTxHash()": "2527",
						"getName()": "infinite",
						"getPendingGovernor()": "2632",
						"getPriorityQueueSize()": "infinite",
						"getPriorityTxMaxGasLimit()": "2485",
						"getProtocolVersion()": "2484",
						"getTotalBatchesCommitted()": "2527",
						"getTotalBatchesExecuted()": "2527",
						"getTotalBatchesVerified()": "2504",
						"getTotalBlocksCommitted()": "2570",
						"getTotalBlocksExecuted()": "2506",
						"getTotalBlocksVerified()": "2483",
						"getTotalPriorityTxs()": "2553",
						"getVerifier()": "2611",
						"getVerifierParams()": "infinite",
						"isDiamondStorageFrozen()": "2657",
						"isEthWithdrawalFinalized(uint256,uint256)": "infinite",
						"isFacetFreezable(address)": "9836",
						"isFunctionFreezable(bytes4)": "5277",
						"isValidator(address)": "2964",
						"l2LogsRootHash(uint256)": "2908",
						"priorityQueueFrontOperation()": "infinite",
						"storedBatchHash(uint256)": "2842",
						"storedBlockHash(uint256)": "2887"
					}
				},
				"methodIdentifiers": {
					"facetAddress(bytes4)": "cdffacc6",
					"facetAddresses()": "52ef6b2c",
					"facetFunctionSelectors(address)": "adfca15e",
					"facets()": "7a0ed627",
					"getAllowList()": "a7cd63b7",
					"getFirstUnprocessedPriorityTx()": "79823c9a",
					"getGovernor()": "4fc07d75",
					"getL2BootloaderBytecodeHash()": "d86970d8",
					"getL2DefaultAccountBytecodeHash()": "fd791f3c",
					"getL2SystemContractsUpgradeBatchNumber()": "e5355c75",
					"getL2SystemContractsUpgradeBlockNumber()": "9d1b5a81",
					"getL2SystemContractsUpgradeTxHash()": "7b30c8da",
					"getName()": "17d7de7c",
					"getPendingGovernor()": "8665b150",
					"getPriorityQueueSize()": "631f4bac",
					"getPriorityTxMaxGasLimit()": "0ec6b0b7",
					"getProtocolVersion()": "33ce93fe",
					"getTotalBatchesCommitted()": "db1f0bf9",
					"getTotalBatchesExecuted()": "b8c2f66f",
					"getTotalBatchesVerified()": "ef3f0bae",
					"getTotalBlocksCommitted()": "fe26699e",
					"getTotalBlocksExecuted()": "39607382",
					"getTotalBlocksVerified()": "af6a2dcd",
					"getTotalPriorityTxs()": "a1954fc5",
					"getVerifier()": "46657fe9",
					"getVerifierParams()": "18e3a941",
					"isDiamondStorageFrozen()": "29b98c67",
					"isEthWithdrawalFinalized(uint256,uint256)": "bd7c5412",
					"isFacetFreezable(address)": "c3bbd2d7",
					"isFunctionFreezable(bytes4)": "e81e0ba1",
					"isValidator(address)": "facd743b",
					"l2LogsRootHash(uint256)": "9cd939e4",
					"priorityQueueFrontOperation()": "56142d7a",
					"storedBatchHash(uint256)": "b22dd78e",
					"storedBlockHash(uint256)": "74f4d30d"
				}
			},
			"storageLayout": {
				"storage": [
					{
						"astId": 2344,
						"contract": "contracts/bridges/bridge/zksync/facets/Getters.sol:GettersFacet",
						"label": "s",
						"offset": 0,
						"slot": "0",
						"type": "t_struct(AppStorage)2330_storage"
					}
				],
				"types": {
					"t_address": {
						"encoding": "inplace",
						"label": "address",
						"numberOfBytes": "20"
					},
					"t_array(t_uint256)7_storage": {
						"base": "t_uint256",
						"encoding": "inplace",
						"label": "uint256[7]",
						"numberOfBytes": "224"
					},
					"t_bool": {
						"encoding": "inplace",
						"label": "bool",
						"numberOfBytes": "1"
					},
					"t_bytes32": {
						"encoding": "inplace",
						"label": "bytes32",
						"numberOfBytes": "32"
					},
					"t_contract(IAllowList)2141": {
						"encoding": "inplace",
						"label": "contract IAllowList",
						"numberOfBytes": "20"
					},
					"t_contract(IVerifier)3232": {
						"encoding": "inplace",
						"label": "contract IVerifier",
						"numberOfBytes": "20"
					},
					"t_enum(UpgradeState)2183": {
						"encoding": "inplace",
						"label": "enum UpgradeState",
						"numberOfBytes": "1"
					},
					"t_mapping(t_address,t_bool)": {
						"encoding": "mapping",
						"key": "t_address",
						"label": "mapping(address => bool)",
						"numberOfBytes": "32",
						"value": "t_bool"
					},
					"t_mapping(t_address,t_uint256)": {
						"encoding": "mapping",
						"key": "t_address",
						"label": "mapping(address => uint256)",
						"numberOfBytes": "32",
						"value": "t_uint256"
					},
					"t_mapping(t_uint256,t_bool)": {
						"encoding": "mapping",
						"key": "t_uint256",
						"label": "mapping(uint256 => bool)",
						"numberOfBytes": "32",
						"value": "t_bool"
					},
					"t_mapping(t_uint256,t_bytes32)": {
						"encoding": "mapping",
						"key": "t_uint256",
						"label": "mapping(uint256 => bytes32)",
						"numberOfBytes": "32",
						"value": "t_bytes32"
					},
					"t_mapping(t_uint256,t_mapping(t_uint256,t_bool))": {
						"encoding": "mapping",
						"key": "t_uint256",
						"label": "mapping(uint256 => mapping(uint256 => bool))",
						"numberOfBytes": "32",
						"value": "t_mapping(t_uint256,t_bool)"
					},
					"t_mapping(t_uint256,t_struct(PriorityOperation)4088_storage)": {
						"encoding": "mapping",
						"key": "t_uint256",
						"label": "mapping(uint256 => struct PriorityOperation)",
						"numberOfBytes": "32",
						"value": "t_struct(PriorityOperation)4088_storage"
					},
					"t_struct(AppStorage)2330_storage": {
						"encoding": "inplace",
						"label": "struct AppStorage",
						"members": [
							{
								"astId": 2234,
								"contract": "contracts/bridges/bridge/zksync/facets/Getters.sol:GettersFacet",
								"label": "__DEPRECATED_diamondCutStorage",
								"offset": 0,
								"slot": "0",
								"type": "t_array(t_uint256)7_storage"
							},
							{
								"astId": 2237,
								"contract": "contracts/bridges/bridge/zksync/facets/Getters.sol:GettersFacet",
								"label": "governor",
								"offset": 0,
								"slot": "7",
								"type": "t_address"
							},
							{
								"astId": 2240,
								"contract": "contracts/bridges/bridge/zksync/facets/Getters.sol:GettersFacet",
								"label": "pendingGovernor",
								"offset": 0,
								"slot": "8",
								"type": "t_address"
							},
							{
								"astId": 2245,
								"contract": "contracts/bridges/bridge/zksync/facets/Getters.sol:GettersFacet",
								"label": "validators",
								"offset": 0,
								"slot": "9",
								"type": "t_mapping(t_address,t_bool)"
							},
							{
								"astId": 2249,
								"contract": "contracts/bridges/bridge/zksync/facets/Getters.sol:GettersFacet",
								"label": "verifier",
								"offset": 0,
								"slot": "10",
								"type": "t_contract(IVerifier)3232"
							},
							{
								"astId": 2252,
								"contract": "contracts/bridges/bridge/zksync/facets/Getters.sol:GettersFacet",
								"label": "totalBatchesExecuted",
								"offset": 0,
								"slot": "11",
								"type": "t_uint256"
							},
							{
								"astId": 2255,
								"contract": "contracts/bridges/bridge/zksync/facets/Getters.sol:GettersFacet",
								"label": "totalBatchesVerified",
								"offset": 0,
								"slot": "12",
								"type": "t_uint256"
							},
							{
								"astId": 2258,
								"contract": "contracts/bridges/bridge/zksync/facets/Getters.sol:GettersFacet",
								"label": "totalBatchesCommitted",
								"offset": 0,
								"slot": "13",
								"type": "t_uint256"
							},
							{
								"astId": 2263,
								"contract": "contracts/bridges/bridge/zksync/facets/Getters.sol:GettersFacet",
								"label": "storedBatchHashes",
								"offset": 0,
								"slot": "14",
								"type": "t_mapping(t_uint256,t_bytes32)"
							},
							{
								"astId": 2268,
								"contract": "contracts/bridges/bridge/zksync/facets/Getters.sol:GettersFacet",
								"label": "l2LogsRootHashes",
								"offset": 0,
								"slot": "15",
								"type": "t_mapping(t_uint256,t_bytes32)"
							},
							{
								"astId": 2272,
								"contract": "contracts/bridges/bridge/zksync/facets/Getters.sol:GettersFacet",
								"label": "priorityQueue",
								"offset": 0,
								"slot": "16",
								"type": "t_struct(Queue)4104_storage"
							},
							{
								"astId": 2276,
								"contract": "contracts/bridges/bridge/zksync/facets/Getters.sol:GettersFacet",
								"label": "allowList",
								"offset": 0,
								"slot": "19",
								"type": "t_contract(IAllowList)2141"
							},
							{
								"astId": 2280,
								"contract": "contracts/bridges/bridge/zksync/facets/Getters.sol:GettersFacet",
								"label": "verifierParams",
								"offset": 0,
								"slot": "20",
								"type": "t_struct(VerifierParams)2228_storage"
							},
							{
								"astId": 2283,
								"contract": "contracts/bridges/bridge/zksync/facets/Getters.sol:GettersFacet",
								"label": "l2BootloaderBytecodeHash",
								"offset": 0,
								"slot": "23",
								"type": "t_bytes32"
							},
							{
								"astId": 2286,
								"contract": "contracts/bridges/bridge/zksync/facets/Getters.sol:GettersFacet",
								"label": "l2DefaultAccountBytecodeHash",
								"offset": 0,
								"slot": "24",
								"type": "t_bytes32"
							},
							{
								"astId": 2289,
								"contract": "contracts/bridges/bridge/zksync/facets/Getters.sol:GettersFacet",
								"label": "zkPorterIsAvailable",
								"offset": 0,
								"slot": "25",
								"type": "t_bool"
							},
							{
								"astId": 2292,
								"contract": "contracts/bridges/bridge/zksync/facets/Getters.sol:GettersFacet",
								"label": "priorityTxMaxGasLimit",
								"offset": 0,
								"slot": "26",
								"type": "t_uint256"
							},
							{
								"astId": 2296,
								"contract": "contracts/bridges/bridge/zksync/facets/Getters.sol:GettersFacet",
								"label": "__DEPRECATED_upgrades",
								"offset": 0,
								"slot": "27",
								"type": "t_struct(UpgradeStorage)2198_storage"
							},
							{
								"astId": 2303,
								"contract": "contracts/bridges/bridge/zksync/facets/Getters.sol:GettersFacet",
								"label": "isEthWithdrawalFinalized",
								"offset": 0,
								"slot": "29",
								"type": "t_mapping(t_uint256,t_mapping(t_uint256,t_bool))"
							},
							{
								"astId": 2306,
								"contract": "contracts/bridges/bridge/zksync/facets/Getters.sol:GettersFacet",
								"label": "__DEPRECATED_lastWithdrawalLimitReset",
								"offset": 0,
								"slot": "30",
								"type": "t_uint256"
							},
							{
								"astId": 2309,
								"contract": "contracts/bridges/bridge/zksync/facets/Getters.sol:GettersFacet",
								"label": "__DEPRECATED_withdrawnAmountInWindow",
								"offset": 0,
								"slot": "31",
								"type": "t_uint256"
							},
							{
								"astId": 2314,
								"contract": "contracts/bridges/bridge/zksync/facets/Getters.sol:GettersFacet",
								"label": "totalDepositedAmountPerUser",
								"offset": 0,
								"slot": "32",
								"type": "t_mapping(t_address,t_uint256)"
							},
							{
								"astId": 2317,
								"contract": "contracts/bridges/bridge/zksync/facets/Getters.sol:GettersFacet",
								"label": "protocolVersion",
								"offset": 0,
								"slot": "33",
								"type": "t_uint256"
							},
							{
								"astId": 2320,
								"contract": "contracts/bridges/bridge/zksync/facets/Getters.sol:GettersFacet",
								"label": "l2SystemContractsUpgradeTxHash",
								"offset": 0,
								"slot": "34",
								"type": "t_bytes32"
							},
							{
								"astId": 2323,
								"contract": "contracts/bridges/bridge/zksync/facets/Getters.sol:GettersFacet",
								"label": "l2SystemContractsUpgradeBatchNumber",
								"offset": 0,
								"slot": "35",
								"type": "t_uint256"
							},
							{
								"astId": 2326,
								"contract": "contracts/bridges/bridge/zksync/facets/Getters.sol:GettersFacet",
								"label": "admin",
								"offset": 0,
								"slot": "36",
								"type": "t_address"
							},
							{
								"astId": 2329,
								"contract": "contracts/bridges/bridge/zksync/facets/Getters.sol:GettersFacet",
								"label": "pendingAdmin",
								"offset": 0,
								"slot": "37",
								"type": "t_address"
							}
						],
						"numberOfBytes": "1216"
					},
					"t_struct(PriorityOperation)4088_storage": {
						"encoding": "inplace",
						"label": "struct PriorityOperation",
						"members": [
							{
								"astId": 4083,
								"contract": "contracts/bridges/bridge/zksync/facets/Getters.sol:GettersFacet",
								"label": "canonicalTxHash",
								"offset": 0,
								"slot": "0",
								"type": "t_bytes32"
							},
							{
								"astId": 4085,
								"contract": "contracts/bridges/bridge/zksync/facets/Getters.sol:GettersFacet",
								"label": "expirationTimestamp",
								"offset": 0,
								"slot": "1",
								"type": "t_uint64"
							},
							{
								"astId": 4087,
								"contract": "contracts/bridges/bridge/zksync/facets/Getters.sol:GettersFacet",
								"label": "layer2Tip",
								"offset": 8,
								"slot": "1",
								"type": "t_uint192"
							}
						],
						"numberOfBytes": "64"
					},
					"t_struct(Queue)4104_storage": {
						"encoding": "inplace",
						"label": "struct PriorityQueue.Queue",
						"members": [
							{
								"astId": 4099,
								"contract": "contracts/bridges/bridge/zksync/facets/Getters.sol:GettersFacet",
								"label": "data",
								"offset": 0,
								"slot": "0",
								"type": "t_mapping(t_uint256,t_struct(PriorityOperation)4088_storage)"
							},
							{
								"astId": 4101,
								"contract": "contracts/bridges/bridge/zksync/facets/Getters.sol:GettersFacet",
								"label": "tail",
								"offset": 0,
								"slot": "1",
								"type": "t_uint256"
							},
							{
								"astId": 4103,
								"contract": "contracts/bridges/bridge/zksync/facets/Getters.sol:GettersFacet",
								"label": "head",
								"offset": 0,
								"slot": "2",
								"type": "t_uint256"
							}
						],
						"numberOfBytes": "96"
					},
					"t_struct(UpgradeStorage)2198_storage": {
						"encoding": "inplace",
						"label": "struct UpgradeStorage",
						"members": [
							{
								"astId": 2186,
								"contract": "contracts/bridges/bridge/zksync/facets/Getters.sol:GettersFacet",
								"label": "proposedUpgradeHash",
								"offset": 0,
								"slot": "0",
								"type": "t_bytes32"
							},
							{
								"astId": 2189,
								"contract": "contracts/bridges/bridge/zksync/facets/Getters.sol:GettersFacet",
								"label": "state",
								"offset": 0,
								"slot": "1",
								"type": "t_enum(UpgradeState)2183"
							},
							{
								"astId": 2191,
								"contract": "contracts/bridges/bridge/zksync/facets/Getters.sol:GettersFacet",
								"label": "securityCouncil",
								"offset": 1,
								"slot": "1",
								"type": "t_address"
							},
							{
								"astId": 2193,
								"contract": "contracts/bridges/bridge/zksync/facets/Getters.sol:GettersFacet",
								"label": "approvedBySecurityCouncil",
								"offset": 21,
								"slot": "1",
								"type": "t_bool"
							},
							{
								"astId": 2195,
								"contract": "contracts/bridges/bridge/zksync/facets/Getters.sol:GettersFacet",
								"label": "proposedUpgradeTimestamp",
								"offset": 22,
								"slot": "1",
								"type": "t_uint40"
							},
							{
								"astId": 2197,
								"contract": "contracts/bridges/bridge/zksync/facets/Getters.sol:GettersFacet",
								"label": "currentProposalId",
								"offset": 27,
								"slot": "1",
								"type": "t_uint40"
							}
						],
						"numberOfBytes": "64"
					},
					"t_struct(VerifierParams)2228_storage": {
						"encoding": "inplace",
						"label": "struct VerifierParams",
						"members": [
							{
								"astId": 2223,
								"contract": "contracts/bridges/bridge/zksync/facets/Getters.sol:GettersFacet",
								"label": "recursionNodeLevelVkHash",
								"offset": 0,
								"slot": "0",
								"type": "t_bytes32"
							},
							{
								"astId": 2225,
								"contract": "contracts/bridges/bridge/zksync/facets/Getters.sol:GettersFacet",
								"label": "recursionLeafLevelVkHash",
								"offset": 0,
								"slot": "1",
								"type": "t_bytes32"
							},
							{
								"astId": 2227,
								"contract": "contracts/bridges/bridge/zksync/facets/Getters.sol:GettersFacet",
								"label": "recursionCircuitsSetVksHash",
								"offset": 0,
								"slot": "2",
								"type": "t_bytes32"
							}
						],
						"numberOfBytes": "96"
					},
					"t_uint192": {
						"encoding": "inplace",
						"label": "uint192",
						"numberOfBytes": "24"
					},
					"t_uint256": {
						"encoding": "inplace",
						"label": "uint256",
						"numberOfBytes": "32"
					},
					"t_uint40": {
						"encoding": "inplace",
						"label": "uint40",
						"numberOfBytes": "5"
					},
					"t_uint64": {
						"encoding": "inplace",
						"label": "uint64",
						"numberOfBytes": "8"
					}
				}
			},
			"userdoc": {
				"kind": "user",
				"methods": {
					"getFirstUnprocessedPriorityTx()": {
						"notice": "Returns zero if and only if no operations were processed from the queueReverts if there are no unprocessed priority transactions"
					},
					"storedBatchHash(uint256)": {
						"notice": "For unfinalized (non executed) batches may change"
					},
					"storedBlockHash(uint256)": {
						"notice": "For unfinalized (non executed) batches may change"
					}
				},
				"version": 1
			}
		}
	}
}