{
	"contracts/cipherzero/Storage.sol": {
		"Storage": {
			"abi": [
				{
					"inputs": [
						{
							"internalType": "address",
							"name": "_address",
							"type": "address"
						}
					],
					"name": "retrieveData",
					"outputs": [
						{
							"internalType": "string",
							"name": "",
							"type": "string"
						}
					],
					"stateMutability": "view",
					"type": "function"
				},
				{
					"inputs": [
						{
							"internalType": "string",
							"name": "_data",
							"type": "string"
						}
					],
					"name": "storeData",
					"outputs": [],
					"stateMutability": "nonpayable",
					"type": "function"
				}
			],
			"devdoc": {
				"kind": "dev",
				"methods": {},
				"version": 1
			},
			"evm": {
				"assembly": "    /* \"contracts/cipherzero/Storage.sol\":95:410  contract Storage is IStorage {... */\n  mstore(0x40, 0x80)\n  callvalue\n  dup1\n  iszero\n  tag_1\n  jumpi\n  0x00\n  dup1\n  revert\ntag_1:\n  pop\n  dataSize(sub_0)\n  dup1\n  dataOffset(sub_0)\n  0x00\n  codecopy\n  0x00\n  return\nstop\n\nsub_0: assembly {\n        /* \"contracts/cipherzero/Storage.sol\":95:410  contract Storage is IStorage {... */\n      mstore(0x40, 0x80)\n      callvalue\n      dup1\n      iszero\n      tag_1\n      jumpi\n      0x00\n      dup1\n      revert\n    tag_1:\n      pop\n      jumpi(tag_2, lt(calldatasize, 0x04))\n      shr(0xe0, calldataload(0x00))\n      dup1\n      0x2a77d707\n      eq\n      tag_3\n      jumpi\n      dup1\n      0xfb218f5f\n      eq\n      tag_4\n      jumpi\n    tag_2:\n      0x00\n      dup1\n      revert\n        /* \"contracts/cipherzero/Storage.sol\":283:408  function retrieveData(address _address) external view override returns (string memory) {... */\n    tag_3:\n      tag_5\n      0x04\n      dup1\n      calldatasize\n      sub\n      dup2\n      add\n      swap1\n      tag_6\n      swap2\n      swap1\n      tag_7\n      jump\t// in\n    tag_6:\n      tag_8\n      jump\t// in\n    tag_5:\n      mload(0x40)\n      tag_9\n      swap2\n      swap1\n      tag_10\n      jump\t// in\n    tag_9:\n      mload(0x40)\n      dup1\n      swap2\n      sub\n      swap1\n      return\n        /* \"contracts/cipherzero/Storage.sol\":176:277  function storeData(string calldata _data) external override {... */\n    tag_4:\n      tag_11\n      0x04\n      dup1\n      calldatasize\n      sub\n      dup2\n      add\n      swap1\n      tag_12\n      swap2\n      swap1\n      tag_13\n      jump\t// in\n    tag_12:\n      tag_14\n      jump\t// in\n    tag_11:\n      stop\n        /* \"contracts/cipherzero/Storage.sol\":283:408  function retrieveData(address _address) external view override returns (string memory) {... */\n    tag_8:\n        /* \"contracts/cipherzero/Storage.sol\":355:368  string memory */\n      0x60\n        /* \"contracts/cipherzero/Storage.sol\":387:391  data */\n      0x00\n        /* \"contracts/cipherzero/Storage.sol\":387:401  data[_address] */\n      dup1\n        /* \"contracts/cipherzero/Storage.sol\":392:400  _address */\n      dup4\n        /* \"contracts/cipherzero/Storage.sol\":387:401  data[_address] */\n      0xffffffffffffffffffffffffffffffffffffffff\n      and\n      0xffffffffffffffffffffffffffffffffffffffff\n      and\n      dup2\n      mstore\n      0x20\n      add\n      swap1\n      dup2\n      mstore\n      0x20\n      add\n      0x00\n      keccak256\n        /* \"contracts/cipherzero/Storage.sol\":380:401  return data[_address] */\n      dup1\n      sload\n      tag_16\n      swap1\n      tag_17\n      jump\t// in\n    tag_16:\n      dup1\n      0x1f\n      add\n      0x20\n      dup1\n      swap2\n      div\n      mul\n      0x20\n      add\n      mload(0x40)\n      swap1\n      dup2\n      add\n      0x40\n      mstore\n      dup1\n      swap3\n      swap2\n      swap1\n      dup2\n      dup2\n      mstore\n      0x20\n      add\n      dup3\n      dup1\n      sload\n      tag_18\n      swap1\n      tag_17\n      jump\t// in\n    tag_18:\n      dup1\n      iszero\n      tag_19\n      jumpi\n      dup1\n      0x1f\n      lt\n      tag_20\n      jumpi\n      0x0100\n      dup1\n      dup4\n      sload\n      div\n      mul\n      dup4\n      mstore\n      swap2\n      0x20\n      add\n      swap2\n      jump(tag_19)\n    tag_20:\n      dup3\n      add\n      swap2\n      swap1\n      0x00\n      mstore\n      keccak256(0x00, 0x20)\n      swap1\n    tag_21:\n      dup2\n      sload\n      dup2\n      mstore\n      swap1\n      0x01\n      add\n      swap1\n      0x20\n      add\n      dup1\n      dup4\n      gt\n      tag_21\n      jumpi\n      dup3\n      swap1\n      sub\n      0x1f\n      and\n      dup3\n      add\n      swap2\n    tag_19:\n      pop\n      pop\n      pop\n      pop\n      pop\n      swap1\n      pop\n        /* \"contracts/cipherzero/Storage.sol\":283:408  function retrieveData(address _address) external view override returns (string memory) {... */\n      swap2\n      swap1\n      pop\n      jump\t// out\n        /* \"contracts/cipherzero/Storage.sol\":176:277  function storeData(string calldata _data) external override {... */\n    tag_14:\n        /* \"contracts/cipherzero/Storage.sol\":265:270  _data */\n      dup2\n      dup2\n        /* \"contracts/cipherzero/Storage.sol\":246:250  data */\n      0x00\n        /* \"contracts/cipherzero/Storage.sol\":246:262  data[msg.sender] */\n      dup1\n        /* \"contracts/cipherzero/Storage.sol\":251:261  msg.sender */\n      caller\n        /* \"contracts/cipherzero/Storage.sol\":246:262  data[msg.sender] */\n      0xffffffffffffffffffffffffffffffffffffffff\n      and\n      0xffffffffffffffffffffffffffffffffffffffff\n      and\n      dup2\n      mstore\n      0x20\n      add\n      swap1\n      dup2\n      mstore\n      0x20\n      add\n      0x00\n      keccak256\n        /* \"contracts/cipherzero/Storage.sol\":246:270  data[msg.sender] = _data */\n      swap2\n      dup3\n      tag_23\n      swap3\n      swap2\n      swap1\n      tag_24\n      jump\t// in\n    tag_23:\n      pop\n        /* \"contracts/cipherzero/Storage.sol\":176:277  function storeData(string calldata _data) external override {... */\n      pop\n      pop\n      jump\t// out\n        /* \"#utility.yul\":88:205   */\n    tag_26:\n        /* \"#utility.yul\":197:198   */\n      0x00\n        /* \"#utility.yul\":194:195   */\n      dup1\n        /* \"#utility.yul\":187:199   */\n      revert\n        /* \"#utility.yul\":211:328   */\n    tag_27:\n        /* \"#utility.yul\":320:321   */\n      0x00\n        /* \"#utility.yul\":317:318   */\n      dup1\n        /* \"#utility.yul\":310:322   */\n      revert\n        /* \"#utility.yul\":334:460   */\n    tag_28:\n        /* \"#utility.yul\":371:378   */\n      0x00\n        /* \"#utility.yul\":411:453   */\n      0xffffffffffffffffffffffffffffffffffffffff\n        /* \"#utility.yul\":404:409   */\n      dup3\n        /* \"#utility.yul\":400:454   */\n      and\n        /* \"#utility.yul\":389:454   */\n      swap1\n      pop\n        /* \"#utility.yul\":334:460   */\n      swap2\n      swap1\n      pop\n      jump\t// out\n        /* \"#utility.yul\":466:562   */\n    tag_29:\n        /* \"#utility.yul\":503:510   */\n      0x00\n        /* \"#utility.yul\":532:556   */\n      tag_66\n        /* \"#utility.yul\":550:555   */\n      dup3\n        /* \"#utility.yul\":532:556   */\n      tag_28\n      jump\t// in\n    tag_66:\n        /* \"#utility.yul\":521:556   */\n      swap1\n      pop\n        /* \"#utility.yul\":466:562   */\n      swap2\n      swap1\n      pop\n      jump\t// out\n        /* \"#utility.yul\":568:690   */\n    tag_30:\n        /* \"#utility.yul\":641:665   */\n      tag_68\n        /* \"#utility.yul\":659:664   */\n      dup2\n        /* \"#utility.yul\":641:665   */\n      tag_29\n      jump\t// in\n    tag_68:\n        /* \"#utility.yul\":634:639   */\n      dup2\n        /* \"#utility.yul\":631:666   */\n      eq\n        /* \"#utility.yul\":621:684   */\n      tag_69\n      jumpi\n        /* \"#utility.yul\":680:681   */\n      0x00\n        /* \"#utility.yul\":677:678   */\n      dup1\n        /* \"#utility.yul\":670:682   */\n      revert\n        /* \"#utility.yul\":621:684   */\n    tag_69:\n        /* \"#utility.yul\":568:690   */\n      pop\n      jump\t// out\n        /* \"#utility.yul\":696:835   */\n    tag_31:\n        /* \"#utility.yul\":742:747   */\n      0x00\n        /* \"#utility.yul\":780:786   */\n      dup2\n        /* \"#utility.yul\":767:787   */\n      calldataload\n        /* \"#utility.yul\":758:787   */\n      swap1\n      pop\n        /* \"#utility.yul\":796:829   */\n      tag_71\n        /* \"#utility.yul\":823:828   */\n      dup2\n        /* \"#utility.yul\":796:829   */\n      tag_30\n      jump\t// in\n    tag_71:\n        /* \"#utility.yul\":696:835   */\n      swap3\n      swap2\n      pop\n      pop\n      jump\t// out\n        /* \"#utility.yul\":841:1170   */\n    tag_7:\n        /* \"#utility.yul\":900:906   */\n      0x00\n        /* \"#utility.yul\":949:951   */\n      0x20\n        /* \"#utility.yul\":937:946   */\n      dup3\n        /* \"#utility.yul\":928:935   */\n      dup5\n        /* \"#utility.yul\":924:947   */\n      sub\n        /* \"#utility.yul\":920:952   */\n      slt\n        /* \"#utility.yul\":917:1036   */\n      iszero\n      tag_73\n      jumpi\n        /* \"#utility.yul\":955:1034   */\n      tag_74\n      tag_26\n      jump\t// in\n    tag_74:\n        /* \"#utility.yul\":917:1036   */\n    tag_73:\n        /* \"#utility.yul\":1075:1076   */\n      0x00\n        /* \"#utility.yul\":1100:1153   */\n      tag_75\n        /* \"#utility.yul\":1145:1152   */\n      dup5\n        /* \"#utility.yul\":1136:1142   */\n      dup3\n        /* \"#utility.yul\":1125:1134   */\n      dup6\n        /* \"#utility.yul\":1121:1143   */\n      add\n        /* \"#utility.yul\":1100:1153   */\n      tag_31\n      jump\t// in\n    tag_75:\n        /* \"#utility.yul\":1090:1153   */\n      swap2\n      pop\n        /* \"#utility.yul\":1046:1163   */\n      pop\n        /* \"#utility.yul\":841:1170   */\n      swap3\n      swap2\n      pop\n      pop\n      jump\t// out\n        /* \"#utility.yul\":1176:1275   */\n    tag_32:\n        /* \"#utility.yul\":1228:1234   */\n      0x00\n        /* \"#utility.yul\":1262:1267   */\n      dup2\n        /* \"#utility.yul\":1256:1268   */\n      mload\n        /* \"#utility.yul\":1246:1268   */\n      swap1\n      pop\n        /* \"#utility.yul\":1176:1275   */\n      swap2\n      swap1\n      pop\n      jump\t// out\n        /* \"#utility.yul\":1281:1450   */\n    tag_33:\n        /* \"#utility.yul\":1365:1376   */\n      0x00\n        /* \"#utility.yul\":1399:1405   */\n      dup3\n        /* \"#utility.yul\":1394:1397   */\n      dup3\n        /* \"#utility.yul\":1387:1406   */\n      mstore\n        /* \"#utility.yul\":1439:1443   */\n      0x20\n        /* \"#utility.yul\":1434:1437   */\n      dup3\n        /* \"#utility.yul\":1430:1444   */\n      add\n        /* \"#utility.yul\":1415:1444   */\n      swap1\n      pop\n        /* \"#utility.yul\":1281:1450   */\n      swap3\n      swap2\n      pop\n      pop\n      jump\t// out\n        /* \"#utility.yul\":1456:1595   */\n    tag_34:\n        /* \"#utility.yul\":1545:1551   */\n      dup3\n        /* \"#utility.yul\":1540:1543   */\n      dup2\n        /* \"#utility.yul\":1535:1538   */\n      dup4\n        /* \"#utility.yul\":1529:1552   */\n      mcopy\n        /* \"#utility.yul\":1586:1587   */\n      0x00\n        /* \"#utility.yul\":1577:1583   */\n      dup4\n        /* \"#utility.yul\":1572:1575   */\n      dup4\n        /* \"#utility.yul\":1568:1584   */\n      add\n        /* \"#utility.yul\":1561:1588   */\n      mstore\n        /* \"#utility.yul\":1456:1595   */\n      pop\n      pop\n      pop\n      jump\t// out\n        /* \"#utility.yul\":1601:1703   */\n    tag_35:\n        /* \"#utility.yul\":1642:1648   */\n      0x00\n        /* \"#utility.yul\":1693:1695   */\n      0x1f\n        /* \"#utility.yul\":1689:1696   */\n      not\n        /* \"#utility.yul\":1684:1686   */\n      0x1f\n        /* \"#utility.yul\":1677:1682   */\n      dup4\n        /* \"#utility.yul\":1673:1687   */\n      add\n        /* \"#utility.yul\":1669:1697   */\n      and\n        /* \"#utility.yul\":1659:1697   */\n      swap1\n      pop\n        /* \"#utility.yul\":1601:1703   */\n      swap2\n      swap1\n      pop\n      jump\t// out\n        /* \"#utility.yul\":1709:2086   */\n    tag_36:\n        /* \"#utility.yul\":1797:1800   */\n      0x00\n        /* \"#utility.yul\":1825:1864   */\n      tag_81\n        /* \"#utility.yul\":1858:1863   */\n      dup3\n        /* \"#utility.yul\":1825:1864   */\n      tag_32\n      jump\t// in\n    tag_81:\n        /* \"#utility.yul\":1880:1951   */\n      tag_82\n        /* \"#utility.yul\":1944:1950   */\n      dup2\n        /* \"#utility.yul\":1939:1942   */\n      dup6\n        /* \"#utility.yul\":1880:1951   */\n      tag_33\n      jump\t// in\n    tag_82:\n        /* \"#utility.yul\":1873:1951   */\n      swap4\n      pop\n        /* \"#utility.yul\":1960:2025   */\n      tag_83\n        /* \"#utility.yul\":2018:2024   */\n      dup2\n        /* \"#utility.yul\":2013:2016   */\n      dup6\n        /* \"#utility.yul\":2006:2010   */\n      0x20\n        /* \"#utility.yul\":1999:2004   */\n      dup7\n        /* \"#utility.yul\":1995:2011   */\n      add\n        /* \"#utility.yul\":1960:2025   */\n      tag_34\n      jump\t// in\n    tag_83:\n        /* \"#utility.yul\":2050:2079   */\n      tag_84\n        /* \"#utility.yul\":2072:2078   */\n      dup2\n        /* \"#utility.yul\":2050:2079   */\n      tag_35\n      jump\t// in\n    tag_84:\n        /* \"#utility.yul\":2045:2048   */\n      dup5\n        /* \"#utility.yul\":2041:2080   */\n      add\n        /* \"#utility.yul\":2034:2080   */\n      swap2\n      pop\n        /* \"#utility.yul\":1801:2086   */\n      pop\n        /* \"#utility.yul\":1709:2086   */\n      swap3\n      swap2\n      pop\n      pop\n      jump\t// out\n        /* \"#utility.yul\":2092:2405   */\n    tag_10:\n        /* \"#utility.yul\":2205:2209   */\n      0x00\n        /* \"#utility.yul\":2243:2245   */\n      0x20\n        /* \"#utility.yul\":2232:2241   */\n      dup3\n        /* \"#utility.yul\":2228:2246   */\n      add\n        /* \"#utility.yul\":2220:2246   */\n      swap1\n      pop\n        /* \"#utility.yul\":2292:2301   */\n      dup2\n        /* \"#utility.yul\":2286:2290   */\n      dup2\n        /* \"#utility.yul\":2282:2302   */\n      sub\n        /* \"#utility.yul\":2278:2279   */\n      0x00\n        /* \"#utility.yul\":2267:2276   */\n      dup4\n        /* \"#utility.yul\":2263:2280   */\n      add\n        /* \"#utility.yul\":2256:2303   */\n      mstore\n        /* \"#utility.yul\":2320:2398   */\n      tag_86\n        /* \"#utility.yul\":2393:2397   */\n      dup2\n        /* \"#utility.yul\":2384:2390   */\n      dup5\n        /* \"#utility.yul\":2320:2398   */\n      tag_36\n      jump\t// in\n    tag_86:\n        /* \"#utility.yul\":2312:2398   */\n      swap1\n      pop\n        /* \"#utility.yul\":2092:2405   */\n      swap3\n      swap2\n      pop\n      pop\n      jump\t// out\n        /* \"#utility.yul\":2411:2528   */\n    tag_37:\n        /* \"#utility.yul\":2520:2521   */\n      0x00\n        /* \"#utility.yul\":2517:2518   */\n      dup1\n        /* \"#utility.yul\":2510:2522   */\n      revert\n        /* \"#utility.yul\":2534:2651   */\n    tag_38:\n        /* \"#utility.yul\":2643:2644   */\n      0x00\n        /* \"#utility.yul\":2640:2641   */\n      dup1\n        /* \"#utility.yul\":2633:2645   */\n      revert\n        /* \"#utility.yul\":2657:2774   */\n    tag_39:\n        /* \"#utility.yul\":2766:2767   */\n      0x00\n        /* \"#utility.yul\":2763:2764   */\n      dup1\n        /* \"#utility.yul\":2756:2768   */\n      revert\n        /* \"#utility.yul\":2794:3347   */\n    tag_40:\n        /* \"#utility.yul\":2852:2860   */\n      0x00\n        /* \"#utility.yul\":2862:2868   */\n      dup1\n        /* \"#utility.yul\":2912:2915   */\n      dup4\n        /* \"#utility.yul\":2905:2909   */\n      0x1f\n        /* \"#utility.yul\":2897:2903   */\n      dup5\n        /* \"#utility.yul\":2893:2910   */\n      add\n        /* \"#utility.yul\":2889:2916   */\n      slt\n        /* \"#utility.yul\":2879:3001   */\n      tag_91\n      jumpi\n        /* \"#utility.yul\":2920:2999   */\n      tag_92\n      tag_37\n      jump\t// in\n    tag_92:\n        /* \"#utility.yul\":2879:3001   */\n    tag_91:\n        /* \"#utility.yul\":3033:3039   */\n      dup3\n        /* \"#utility.yul\":3020:3040   */\n      calldataload\n        /* \"#utility.yul\":3010:3040   */\n      swap1\n      pop\n        /* \"#utility.yul\":3063:3081   */\n      0xffffffffffffffff\n        /* \"#utility.yul\":3055:3061   */\n      dup2\n        /* \"#utility.yul\":3052:3082   */\n      gt\n        /* \"#utility.yul\":3049:3166   */\n      iszero\n      tag_93\n      jumpi\n        /* \"#utility.yul\":3085:3164   */\n      tag_94\n      tag_38\n      jump\t// in\n    tag_94:\n        /* \"#utility.yul\":3049:3166   */\n    tag_93:\n        /* \"#utility.yul\":3199:3203   */\n      0x20\n        /* \"#utility.yul\":3191:3197   */\n      dup4\n        /* \"#utility.yul\":3187:3204   */\n      add\n        /* \"#utility.yul\":3175:3204   */\n      swap2\n      pop\n        /* \"#utility.yul\":3253:3256   */\n      dup4\n        /* \"#utility.yul\":3245:3249   */\n      0x01\n        /* \"#utility.yul\":3237:3243   */\n      dup3\n        /* \"#utility.yul\":3233:3250   */\n      mul\n        /* \"#utility.yul\":3223:3231   */\n      dup4\n        /* \"#utility.yul\":3219:3251   */\n      add\n        /* \"#utility.yul\":3216:3257   */\n      gt\n        /* \"#utility.yul\":3213:3341   */\n      iszero\n      tag_95\n      jumpi\n        /* \"#utility.yul\":3260:3339   */\n      tag_96\n      tag_39\n      jump\t// in\n    tag_96:\n        /* \"#utility.yul\":3213:3341   */\n    tag_95:\n        /* \"#utility.yul\":2794:3347   */\n      swap3\n      pop\n      swap3\n      swap1\n      pop\n      jump\t// out\n        /* \"#utility.yul\":3353:3882   */\n    tag_13:\n        /* \"#utility.yul\":3424:3430   */\n      0x00\n        /* \"#utility.yul\":3432:3438   */\n      dup1\n        /* \"#utility.yul\":3481:3483   */\n      0x20\n        /* \"#utility.yul\":3469:3478   */\n      dup4\n        /* \"#utility.yul\":3460:3467   */\n      dup6\n        /* \"#utility.yul\":3456:3479   */\n      sub\n        /* \"#utility.yul\":3452:3484   */\n      slt\n        /* \"#utility.yul\":3449:3568   */\n      iszero\n      tag_98\n      jumpi\n        /* \"#utility.yul\":3487:3566   */\n      tag_99\n      tag_26\n      jump\t// in\n    tag_99:\n        /* \"#utility.yul\":3449:3568   */\n    tag_98:\n        /* \"#utility.yul\":3635:3636   */\n      0x00\n        /* \"#utility.yul\":3624:3633   */\n      dup4\n        /* \"#utility.yul\":3620:3637   */\n      add\n        /* \"#utility.yul\":3607:3638   */\n      calldataload\n        /* \"#utility.yul\":3665:3683   */\n      0xffffffffffffffff\n        /* \"#utility.yul\":3657:3663   */\n      dup2\n        /* \"#utility.yul\":3654:3684   */\n      gt\n        /* \"#utility.yul\":3651:3768   */\n      iszero\n      tag_100\n      jumpi\n        /* \"#utility.yul\":3687:3766   */\n      tag_101\n      tag_27\n      jump\t// in\n    tag_101:\n        /* \"#utility.yul\":3651:3768   */\n    tag_100:\n        /* \"#utility.yul\":3800:3865   */\n      tag_102\n        /* \"#utility.yul\":3857:3864   */\n      dup6\n        /* \"#utility.yul\":3848:3854   */\n      dup3\n        /* \"#utility.yul\":3837:3846   */\n      dup7\n        /* \"#utility.yul\":3833:3855   */\n      add\n        /* \"#utility.yul\":3800:3865   */\n      tag_40\n      jump\t// in\n    tag_102:\n        /* \"#utility.yul\":3782:3865   */\n      swap3\n      pop\n      swap3\n      pop\n        /* \"#utility.yul\":3578:3875   */\n      pop\n        /* \"#utility.yul\":3353:3882   */\n      swap3\n      pop\n      swap3\n      swap1\n      pop\n      jump\t// out\n        /* \"#utility.yul\":3888:4068   */\n    tag_41:\n        /* \"#utility.yul\":3936:4013   */\n      0x4e487b7100000000000000000000000000000000000000000000000000000000\n        /* \"#utility.yul\":3933:3934   */\n      0x00\n        /* \"#utility.yul\":3926:4014   */\n      mstore\n        /* \"#utility.yul\":4033:4037   */\n      0x22\n        /* \"#utility.yul\":4030:4031   */\n      0x04\n        /* \"#utility.yul\":4023:4038   */\n      mstore\n        /* \"#utility.yul\":4057:4061   */\n      0x24\n        /* \"#utility.yul\":4054:4055   */\n      0x00\n        /* \"#utility.yul\":4047:4062   */\n      revert\n        /* \"#utility.yul\":4074:4394   */\n    tag_17:\n        /* \"#utility.yul\":4118:4124   */\n      0x00\n        /* \"#utility.yul\":4155:4156   */\n      0x02\n        /* \"#utility.yul\":4149:4153   */\n      dup3\n        /* \"#utility.yul\":4145:4157   */\n      div\n        /* \"#utility.yul\":4135:4157   */\n      swap1\n      pop\n        /* \"#utility.yul\":4202:4203   */\n      0x01\n        /* \"#utility.yul\":4196:4200   */\n      dup3\n        /* \"#utility.yul\":4192:4204   */\n      and\n        /* \"#utility.yul\":4223:4241   */\n      dup1\n        /* \"#utility.yul\":4213:4294   */\n      tag_105\n      jumpi\n        /* \"#utility.yul\":4279:4283   */\n      0x7f\n        /* \"#utility.yul\":4271:4277   */\n      dup3\n        /* \"#utility.yul\":4267:4284   */\n      and\n        /* \"#utility.yul\":4257:4284   */\n      swap2\n      pop\n        /* \"#utility.yul\":4213:4294   */\n    tag_105:\n        /* \"#utility.yul\":4341:4343   */\n      0x20\n        /* \"#utility.yul\":4333:4339   */\n      dup3\n        /* \"#utility.yul\":4330:4344   */\n      lt\n        /* \"#utility.yul\":4310:4328   */\n      dup2\n        /* \"#utility.yul\":4307:4345   */\n      sub\n        /* \"#utility.yul\":4304:4388   */\n      tag_106\n      jumpi\n        /* \"#utility.yul\":4360:4378   */\n      tag_107\n      tag_41\n      jump\t// in\n    tag_107:\n        /* \"#utility.yul\":4304:4388   */\n    tag_106:\n        /* \"#utility.yul\":4125:4394   */\n      pop\n        /* \"#utility.yul\":4074:4394   */\n      swap2\n      swap1\n      pop\n      jump\t// out\n        /* \"#utility.yul\":4400:4497   */\n    tag_42:\n        /* \"#utility.yul\":4459:4465   */\n      0x00\n        /* \"#utility.yul\":4487:4490   */\n      dup3\n        /* \"#utility.yul\":4477:4490   */\n      swap1\n      pop\n        /* \"#utility.yul\":4400:4497   */\n      swap3\n      swap2\n      pop\n      pop\n      jump\t// out\n        /* \"#utility.yul\":4503:4683   */\n    tag_43:\n        /* \"#utility.yul\":4551:4628   */\n      0x4e487b7100000000000000000000000000000000000000000000000000000000\n        /* \"#utility.yul\":4548:4549   */\n      0x00\n        /* \"#utility.yul\":4541:4629   */\n      mstore\n        /* \"#utility.yul\":4648:4652   */\n      0x41\n        /* \"#utility.yul\":4645:4646   */\n      0x04\n        /* \"#utility.yul\":4638:4653   */\n      mstore\n        /* \"#utility.yul\":4672:4676   */\n      0x24\n        /* \"#utility.yul\":4669:4670   */\n      0x00\n        /* \"#utility.yul\":4662:4677   */\n      revert\n        /* \"#utility.yul\":4689:4830   */\n    tag_44:\n        /* \"#utility.yul\":4738:4742   */\n      0x00\n        /* \"#utility.yul\":4761:4764   */\n      dup2\n        /* \"#utility.yul\":4753:4764   */\n      swap1\n      pop\n        /* \"#utility.yul\":4784:4787   */\n      dup2\n        /* \"#utility.yul\":4781:4782   */\n      0x00\n        /* \"#utility.yul\":4774:4788   */\n      mstore\n        /* \"#utility.yul\":4818:4822   */\n      0x20\n        /* \"#utility.yul\":4815:4816   */\n      0x00\n        /* \"#utility.yul\":4805:4823   */\n      keccak256\n        /* \"#utility.yul\":4797:4823   */\n      swap1\n      pop\n        /* \"#utility.yul\":4689:4830   */\n      swap2\n      swap1\n      pop\n      jump\t// out\n        /* \"#utility.yul\":4836:4929   */\n    tag_45:\n        /* \"#utility.yul\":4873:4879   */\n      0x00\n        /* \"#utility.yul\":4920:4922   */\n      0x20\n        /* \"#utility.yul\":4915:4917   */\n      0x1f\n        /* \"#utility.yul\":4908:4913   */\n      dup4\n        /* \"#utility.yul\":4904:4918   */\n      add\n        /* \"#utility.yul\":4900:4923   */\n      div\n        /* \"#utility.yul\":4890:4923   */\n      swap1\n      pop\n        /* \"#utility.yul\":4836:4929   */\n      swap2\n      swap1\n      pop\n      jump\t// out\n        /* \"#utility.yul\":4935:5042   */\n    tag_46:\n        /* \"#utility.yul\":4979:4987   */\n      0x00\n        /* \"#utility.yul\":5029:5034   */\n      dup3\n        /* \"#utility.yul\":5023:5027   */\n      dup3\n        /* \"#utility.yul\":5019:5035   */\n      shl\n        /* \"#utility.yul\":4998:5035   */\n      swap1\n      pop\n        /* \"#utility.yul\":4935:5042   */\n      swap3\n      swap2\n      pop\n      pop\n      jump\t// out\n        /* \"#utility.yul\":5048:5441   */\n    tag_47:\n        /* \"#utility.yul\":5117:5123   */\n      0x00\n        /* \"#utility.yul\":5167:5168   */\n      0x08\n        /* \"#utility.yul\":5155:5165   */\n      dup4\n        /* \"#utility.yul\":5151:5169   */\n      mul\n        /* \"#utility.yul\":5190:5287   */\n      tag_114\n        /* \"#utility.yul\":5220:5286   */\n      0xffffffffffffffffffffffffffffffffffffffffffffffffffffffffffffffff\n        /* \"#utility.yul\":5209:5218   */\n      dup3\n        /* \"#utility.yul\":5190:5287   */\n      tag_46\n      jump\t// in\n    tag_114:\n        /* \"#utility.yul\":5308:5347   */\n      tag_115\n        /* \"#utility.yul\":5338:5346   */\n      dup7\n        /* \"#utility.yul\":5327:5336   */\n      dup4\n        /* \"#utility.yul\":5308:5347   */\n      tag_46\n      jump\t// in\n    tag_115:\n        /* \"#utility.yul\":5296:5347   */\n      swap6\n      pop\n        /* \"#utility.yul\":5380:5384   */\n      dup1\n        /* \"#utility.yul\":5376:5385   */\n      not\n        /* \"#utility.yul\":5369:5374   */\n      dup5\n        /* \"#utility.yul\":5365:5386   */\n      and\n        /* \"#utility.yul\":5356:5386   */\n      swap4\n      pop\n        /* \"#utility.yul\":5429:5433   */\n      dup1\n        /* \"#utility.yul\":5419:5427   */\n      dup7\n        /* \"#utility.yul\":5415:5434   */\n      and\n        /* \"#utility.yul\":5408:5413   */\n      dup5\n        /* \"#utility.yul\":5405:5435   */\n      or\n        /* \"#utility.yul\":5395:5435   */\n      swap3\n      pop\n        /* \"#utility.yul\":5124:5441   */\n      pop\n      pop\n        /* \"#utility.yul\":5048:5441   */\n      swap4\n      swap3\n      pop\n      pop\n      pop\n      jump\t// out\n        /* \"#utility.yul\":5447:5524   */\n    tag_48:\n        /* \"#utility.yul\":5484:5491   */\n      0x00\n        /* \"#utility.yul\":5513:5518   */\n      dup2\n        /* \"#utility.yul\":5502:5518   */\n      swap1\n      pop\n        /* \"#utility.yul\":5447:5524   */\n      swap2\n      swap1\n      pop\n      jump\t// out\n        /* \"#utility.yul\":5530:5590   */\n    tag_49:\n        /* \"#utility.yul\":5558:5561   */\n      0x00\n        /* \"#utility.yul\":5579:5584   */\n      dup2\n        /* \"#utility.yul\":5572:5584   */\n      swap1\n      pop\n        /* \"#utility.yul\":5530:5590   */\n      swap2\n      swap1\n      pop\n      jump\t// out\n        /* \"#utility.yul\":5596:5738   */\n    tag_50:\n        /* \"#utility.yul\":5646:5655   */\n      0x00\n        /* \"#utility.yul\":5679:5732   */\n      tag_119\n        /* \"#utility.yul\":5697:5731   */\n      tag_120\n        /* \"#utility.yul\":5706:5730   */\n      tag_121\n        /* \"#utility.yul\":5724:5729   */\n      dup5\n        /* \"#utility.yul\":5706:5730   */\n      tag_48\n      jump\t// in\n    tag_121:\n        /* \"#utility.yul\":5697:5731   */\n      tag_49\n      jump\t// in\n    tag_120:\n        /* \"#utility.yul\":5679:5732   */\n      tag_48\n      jump\t// in\n    tag_119:\n        /* \"#utility.yul\":5666:5732   */\n      swap1\n      pop\n        /* \"#utility.yul\":5596:5738   */\n      swap2\n      swap1\n      pop\n      jump\t// out\n        /* \"#utility.yul\":5744:5819   */\n    tag_51:\n        /* \"#utility.yul\":5787:5790   */\n      0x00\n        /* \"#utility.yul\":5808:5813   */\n      dup2\n        /* \"#utility.yul\":5801:5813   */\n      swap1\n      pop\n        /* \"#utility.yul\":5744:5819   */\n      swap2\n      swap1\n      pop\n      jump\t// out\n        /* \"#utility.yul\":5825:6094   */\n    tag_52:\n        /* \"#utility.yul\":5935:5974   */\n      tag_124\n        /* \"#utility.yul\":5966:5973   */\n      dup4\n        /* \"#utility.yul\":5935:5974   */\n      tag_50\n      jump\t// in\n    tag_124:\n        /* \"#utility.yul\":5996:6087   */\n      tag_125\n        /* \"#utility.yul\":6045:6086   */\n      tag_126\n        /* \"#utility.yul\":6069:6085   */\n      dup3\n        /* \"#utility.yul\":6045:6086   */\n      tag_51\n      jump\t// in\n    tag_126:\n        /* \"#utility.yul\":6037:6043   */\n      dup5\n        /* \"#utility.yul\":6030:6034   */\n      dup5\n        /* \"#utility.yul\":6024:6035   */\n      sload\n        /* \"#utility.yul\":5996:6087   */\n      tag_47\n      jump\t// in\n    tag_125:\n        /* \"#utility.yul\":5990:5994   */\n      dup3\n        /* \"#utility.yul\":5983:6088   */\n      sstore\n        /* \"#utility.yul\":5901:6094   */\n      pop\n        /* \"#utility.yul\":5825:6094   */\n      pop\n      pop\n      pop\n      jump\t// out\n        /* \"#utility.yul\":6100:6173   */\n    tag_53:\n        /* \"#utility.yul\":6145:6148   */\n      0x00\n        /* \"#utility.yul\":6100:6173   */\n      swap1\n      jump\t// out\n        /* \"#utility.yul\":6179:6368   */\n    tag_54:\n        /* \"#utility.yul\":6256:6288   */\n      tag_129\n      tag_53\n      jump\t// in\n    tag_129:\n        /* \"#utility.yul\":6297:6362   */\n      tag_130\n        /* \"#utility.yul\":6355:6361   */\n      dup2\n        /* \"#utility.yul\":6347:6353   */\n      dup5\n        /* \"#utility.yul\":6341:6345   */\n      dup5\n        /* \"#utility.yul\":6297:6362   */\n      tag_52\n      jump\t// in\n    tag_130:\n        /* \"#utility.yul\":6232:6368   */\n      pop\n        /* \"#utility.yul\":6179:6368   */\n      pop\n      pop\n      jump\t// out\n        /* \"#utility.yul\":6374:6560   */\n    tag_55:\n        /* \"#utility.yul\":6434:6554   */\n    tag_132:\n        /* \"#utility.yul\":6451:6454   */\n      dup2\n        /* \"#utility.yul\":6444:6449   */\n      dup2\n        /* \"#utility.yul\":6441:6455   */\n      lt\n        /* \"#utility.yul\":6434:6554   */\n      iszero\n      tag_134\n      jumpi\n        /* \"#utility.yul\":6505:6544   */\n      tag_135\n        /* \"#utility.yul\":6542:6543   */\n      0x00\n        /* \"#utility.yul\":6535:6540   */\n      dup3\n        /* \"#utility.yul\":6505:6544   */\n      tag_54\n      jump\t// in\n    tag_135:\n        /* \"#utility.yul\":6478:6479   */\n      0x01\n        /* \"#utility.yul\":6471:6476   */\n      dup2\n        /* \"#utility.yul\":6467:6480   */\n      add\n        /* \"#utility.yul\":6458:6480   */\n      swap1\n      pop\n        /* \"#utility.yul\":6434:6554   */\n      jump(tag_132)\n    tag_134:\n        /* \"#utility.yul\":6374:6560   */\n      pop\n      pop\n      jump\t// out\n        /* \"#utility.yul\":6566:7109   */\n    tag_56:\n        /* \"#utility.yul\":6667:6669   */\n      0x1f\n        /* \"#utility.yul\":6662:6665   */\n      dup3\n        /* \"#utility.yul\":6659:6670   */\n      gt\n        /* \"#utility.yul\":6656:7102   */\n      iszero\n      tag_137\n      jumpi\n        /* \"#utility.yul\":6701:6739   */\n      tag_138\n        /* \"#utility.yul\":6733:6738   */\n      dup2\n        /* \"#utility.yul\":6701:6739   */\n      tag_44\n      jump\t// in\n    tag_138:\n        /* \"#utility.yul\":6785:6814   */\n      tag_139\n        /* \"#utility.yul\":6803:6813   */\n      dup5\n        /* \"#utility.yul\":6785:6814   */\n      tag_45\n      jump\t// in\n    tag_139:\n        /* \"#utility.yul\":6775:6783   */\n      dup2\n        /* \"#utility.yul\":6771:6815   */\n      add\n        /* \"#utility.yul\":6968:6970   */\n      0x20\n        /* \"#utility.yul\":6956:6966   */\n      dup6\n        /* \"#utility.yul\":6953:6971   */\n      lt\n        /* \"#utility.yul\":6950:6999   */\n      iszero\n      tag_140\n      jumpi\n        /* \"#utility.yul\":6989:6997   */\n      dup2\n        /* \"#utility.yul\":6974:6997   */\n      swap1\n      pop\n        /* \"#utility.yul\":6950:6999   */\n    tag_140:\n        /* \"#utility.yul\":7012:7092   */\n      tag_141\n        /* \"#utility.yul\":7068:7090   */\n      tag_142\n        /* \"#utility.yul\":7086:7089   */\n      dup6\n        /* \"#utility.yul\":7068:7090   */\n      tag_45\n      jump\t// in\n    tag_142:\n        /* \"#utility.yul\":7058:7066   */\n      dup4\n        /* \"#utility.yul\":7054:7091   */\n      add\n        /* \"#utility.yul\":7041:7052   */\n      dup3\n        /* \"#utility.yul\":7012:7092   */\n      tag_55\n      jump\t// in\n    tag_141:\n        /* \"#utility.yul\":6671:7102   */\n      pop\n      pop\n        /* \"#utility.yul\":6656:7102   */\n    tag_137:\n        /* \"#utility.yul\":6566:7109   */\n      pop\n      pop\n      pop\n      jump\t// out\n        /* \"#utility.yul\":7115:7232   */\n    tag_57:\n        /* \"#utility.yul\":7169:7177   */\n      0x00\n        /* \"#utility.yul\":7219:7224   */\n      dup3\n        /* \"#utility.yul\":7213:7217   */\n      dup3\n        /* \"#utility.yul\":7209:7225   */\n      shr\n        /* \"#utility.yul\":7188:7225   */\n      swap1\n      pop\n        /* \"#utility.yul\":7115:7232   */\n      swap3\n      swap2\n      pop\n      pop\n      jump\t// out\n        /* \"#utility.yul\":7238:7407   */\n    tag_58:\n        /* \"#utility.yul\":7282:7288   */\n      0x00\n        /* \"#utility.yul\":7315:7366   */\n      tag_145\n        /* \"#utility.yul\":7363:7364   */\n      0x00\n        /* \"#utility.yul\":7359:7365   */\n      not\n        /* \"#utility.yul\":7351:7356   */\n      dup5\n        /* \"#utility.yul\":7348:7349   */\n      0x08\n        /* \"#utility.yul\":7344:7357   */\n      mul\n        /* \"#utility.yul\":7315:7366   */\n      tag_57\n      jump\t// in\n    tag_145:\n        /* \"#utility.yul\":7311:7367   */\n      not\n        /* \"#utility.yul\":7396:7400   */\n      dup1\n        /* \"#utility.yul\":7390:7394   */\n      dup4\n        /* \"#utility.yul\":7386:7401   */\n      and\n        /* \"#utility.yul\":7376:7401   */\n      swap2\n      pop\n        /* \"#utility.yul\":7289:7407   */\n      pop\n        /* \"#utility.yul\":7238:7407   */\n      swap3\n      swap2\n      pop\n      pop\n      jump\t// out\n        /* \"#utility.yul\":7412:7707   */\n    tag_59:\n        /* \"#utility.yul\":7488:7492   */\n      0x00\n        /* \"#utility.yul\":7634:7663   */\n      tag_147\n        /* \"#utility.yul\":7659:7662   */\n      dup4\n        /* \"#utility.yul\":7653:7657   */\n      dup4\n        /* \"#utility.yul\":7634:7663   */\n      tag_58\n      jump\t// in\n    tag_147:\n        /* \"#utility.yul\":7626:7663   */\n      swap2\n      pop\n        /* \"#utility.yul\":7696:7699   */\n      dup3\n        /* \"#utility.yul\":7693:7694   */\n      0x02\n        /* \"#utility.yul\":7689:7700   */\n      mul\n        /* \"#utility.yul\":7683:7687   */\n      dup3\n        /* \"#utility.yul\":7680:7701   */\n      or\n        /* \"#utility.yul\":7672:7701   */\n      swap1\n      pop\n        /* \"#utility.yul\":7412:7707   */\n      swap3\n      swap2\n      pop\n      pop\n      jump\t// out\n        /* \"#utility.yul\":7712:9115   */\n    tag_24:\n        /* \"#utility.yul\":7836:7880   */\n      tag_149\n        /* \"#utility.yul\":7876:7879   */\n      dup4\n        /* \"#utility.yul\":7871:7874   */\n      dup4\n        /* \"#utility.yul\":7836:7880   */\n      tag_42\n      jump\t// in\n    tag_149:\n        /* \"#utility.yul\":7945:7963   */\n      0xffffffffffffffff\n        /* \"#utility.yul\":7937:7943   */\n      dup2\n        /* \"#utility.yul\":7934:7964   */\n      gt\n        /* \"#utility.yul\":7931:7987   */\n      iszero\n      tag_150\n      jumpi\n        /* \"#utility.yul\":7967:7985   */\n      tag_151\n      tag_43\n      jump\t// in\n    tag_151:\n        /* \"#utility.yul\":7931:7987   */\n    tag_150:\n        /* \"#utility.yul\":8011:8049   */\n      tag_152\n        /* \"#utility.yul\":8043:8047   */\n      dup3\n        /* \"#utility.yul\":8037:8048   */\n      sload\n        /* \"#utility.yul\":8011:8049   */\n      tag_17\n      jump\t// in\n    tag_152:\n        /* \"#utility.yul\":8096:8163   */\n      tag_153\n        /* \"#utility.yul\":8156:8162   */\n      dup3\n        /* \"#utility.yul\":8148:8154   */\n      dup3\n        /* \"#utility.yul\":8142:8146   */\n      dup6\n        /* \"#utility.yul\":8096:8163   */\n      tag_56\n      jump\t// in\n    tag_153:\n        /* \"#utility.yul\":8190:8191   */\n      0x00\n        /* \"#utility.yul\":8219:8221   */\n      0x1f\n        /* \"#utility.yul\":8211:8217   */\n      dup4\n        /* \"#utility.yul\":8208:8222   */\n      gt\n        /* \"#utility.yul\":8236:8237   */\n      0x01\n        /* \"#utility.yul\":8231:8863   */\n      dup2\n      eq\n      tag_155\n      jumpi\n        /* \"#utility.yul\":8907:8908   */\n      0x00\n        /* \"#utility.yul\":8924:8930   */\n      dup5\n        /* \"#utility.yul\":8921:9005   */\n      iszero\n      tag_156\n      jumpi\n        /* \"#utility.yul\":8980:8989   */\n      dup3\n        /* \"#utility.yul\":8975:8978   */\n      dup8\n        /* \"#utility.yul\":8971:8990   */\n      add\n        /* \"#utility.yul\":8958:8991   */\n      calldataload\n        /* \"#utility.yul\":8949:8991   */\n      swap1\n      pop\n        /* \"#utility.yul\":8921:9005   */\n    tag_156:\n        /* \"#utility.yul\":9031:9098   */\n      tag_157\n        /* \"#utility.yul\":9091:9097   */\n      dup6\n        /* \"#utility.yul\":9084:9089   */\n      dup3\n        /* \"#utility.yul\":9031:9098   */\n      tag_59\n      jump\t// in\n    tag_157:\n        /* \"#utility.yul\":9025:9029   */\n      dup7\n        /* \"#utility.yul\":9018:9099   */\n      sstore\n        /* \"#utility.yul\":8880:9109   */\n      pop\n        /* \"#utility.yul\":8201:9109   */\n      jump(tag_154)\n        /* \"#utility.yul\":8231:8863   */\n    tag_155:\n        /* \"#utility.yul\":8283:8287   */\n      0x1f\n        /* \"#utility.yul\":8279:8288   */\n      not\n        /* \"#utility.yul\":8271:8277   */\n      dup5\n        /* \"#utility.yul\":8267:8289   */\n      and\n        /* \"#utility.yul\":8317:8354   */\n      tag_158\n        /* \"#utility.yul\":8349:8353   */\n      dup7\n        /* \"#utility.yul\":8317:8354   */\n      tag_44\n      jump\t// in\n    tag_158:\n        /* \"#utility.yul\":8376:8377   */\n      0x00\n        /* \"#utility.yul\":8390:8605   */\n    tag_159:\n        /* \"#utility.yul\":8404:8411   */\n      dup3\n        /* \"#utility.yul\":8401:8402   */\n      dup2\n        /* \"#utility.yul\":8398:8412   */\n      lt\n        /* \"#utility.yul\":8390:8605   */\n      iszero\n      tag_161\n      jumpi\n        /* \"#utility.yul\":8490:8499   */\n      dup5\n        /* \"#utility.yul\":8485:8488   */\n      dup10\n        /* \"#utility.yul\":8481:8500   */\n      add\n        /* \"#utility.yul\":8468:8501   */\n      calldataload\n        /* \"#utility.yul\":8460:8466   */\n      dup3\n        /* \"#utility.yul\":8453:8502   */\n      sstore\n        /* \"#utility.yul\":8541:8542   */\n      0x01\n        /* \"#utility.yul\":8533:8539   */\n      dup3\n        /* \"#utility.yul\":8529:8543   */\n      add\n        /* \"#utility.yul\":8519:8543   */\n      swap2\n      pop\n        /* \"#utility.yul\":8588:8590   */\n      0x20\n        /* \"#utility.yul\":8577:8586   */\n      dup6\n        /* \"#utility.yul\":8573:8591   */\n      add\n        /* \"#utility.yul\":8560:8591   */\n      swap5\n      pop\n        /* \"#utility.yul\":8427:8431   */\n      0x20\n        /* \"#utility.yul\":8424:8425   */\n      dup2\n        /* \"#utility.yul\":8420:8432   */\n      add\n        /* \"#utility.yul\":8415:8432   */\n      swap1\n      pop\n        /* \"#utility.yul\":8390:8605   */\n      jump(tag_159)\n    tag_161:\n        /* \"#utility.yul\":8633:8639   */\n      dup7\n        /* \"#utility.yul\":8624:8631   */\n      dup4\n        /* \"#utility.yul\":8621:8640   */\n      lt\n        /* \"#utility.yul\":8618:8804   */\n      iszero\n      tag_162\n      jumpi\n        /* \"#utility.yul\":8698:8707   */\n      dup5\n        /* \"#utility.yul\":8693:8696   */\n      dup10\n        /* \"#utility.yul\":8689:8708   */\n      add\n        /* \"#utility.yul\":8676:8709   */\n      calldataload\n        /* \"#utility.yul\":8741:8789   */\n      tag_163\n        /* \"#utility.yul\":8783:8787   */\n      0x1f\n        /* \"#utility.yul\":8775:8781   */\n      dup10\n        /* \"#utility.yul\":8771:8788   */\n      and\n        /* \"#utility.yul\":8760:8769   */\n      dup3\n        /* \"#utility.yul\":8741:8789   */\n      tag_58\n      jump\t// in\n    tag_163:\n        /* \"#utility.yul\":8733:8739   */\n      dup4\n        /* \"#utility.yul\":8726:8790   */\n      sstore\n        /* \"#utility.yul\":8641:8804   */\n      pop\n        /* \"#utility.yul\":8618:8804   */\n    tag_162:\n        /* \"#utility.yul\":8850:8851   */\n      0x01\n        /* \"#utility.yul\":8846:8847   */\n      0x02\n        /* \"#utility.yul\":8838:8844   */\n      dup9\n        /* \"#utility.yul\":8834:8848   */\n      mul\n        /* \"#utility.yul\":8830:8852   */\n      add\n        /* \"#utility.yul\":8824:8828   */\n      dup9\n        /* \"#utility.yul\":8817:8853   */\n      sstore\n        /* \"#utility.yul\":8238:8863   */\n      pop\n      pop\n      pop\n        /* \"#utility.yul\":8201:9109   */\n    tag_154:\n      pop\n        /* \"#utility.yul\":7811:9115   */\n      pop\n      pop\n      pop\n        /* \"#utility.yul\":7712:9115   */\n      pop\n      pop\n      pop\n      jump\t// out\n\n    auxdata: 0xa2646970667358221220a985b1b4126851f40648500bc36a92a31f302dc287d7e46e5a4fd57b89a464f164736f6c634300081a0033\n}\n",
				"bytecode": {
					"linkReferences": {},
					"object": "6080604052348015600e575f80fd5b506106a68061001c5f395ff3fe608060405234801561000f575f80fd5b5060043610610034575f3560e01c80632a77d70714610038578063fb218f5f14610068575b5f80fd5b610052600480360381019061004d9190610202565b610084565b60405161005f919061029d565b60405180910390f35b610082600480360381019061007d919061031e565b610150565b005b60605f808373ffffffffffffffffffffffffffffffffffffffff1673ffffffffffffffffffffffffffffffffffffffff1681526020019081526020015f2080546100cd90610396565b80601f01602080910402602001604051908101604052809291908181526020018280546100f990610396565b80156101445780601f1061011b57610100808354040283529160200191610144565b820191905f5260205f20905b81548152906001019060200180831161012757829003601f168201915b50505050509050919050565b81815f803373ffffffffffffffffffffffffffffffffffffffff1673ffffffffffffffffffffffffffffffffffffffff1681526020019081526020015f20918261019b9291906105a3565b505050565b5f80fd5b5f80fd5b5f73ffffffffffffffffffffffffffffffffffffffff82169050919050565b5f6101d1826101a8565b9050919050565b6101e1816101c7565b81146101eb575f80fd5b50565b5f813590506101fc816101d8565b92915050565b5f60208284031215610217576102166101a0565b5b5f610224848285016101ee565b91505092915050565b5f81519050919050565b5f82825260208201905092915050565b8281835e5f83830152505050565b5f601f19601f8301169050919050565b5f61026f8261022d565b6102798185610237565b9350610289818560208601610247565b61029281610255565b840191505092915050565b5f6020820190508181035f8301526102b58184610265565b905092915050565b5f80fd5b5f80fd5b5f80fd5b5f8083601f8401126102de576102dd6102bd565b5b8235905067ffffffffffffffff8111156102fb576102fa6102c1565b5b602083019150836001820283011115610317576103166102c5565b5b9250929050565b5f8060208385031215610334576103336101a0565b5b5f83013567ffffffffffffffff811115610351576103506101a4565b5b61035d858286016102c9565b92509250509250929050565b7f4e487b71000000000000000000000000000000000000000000000000000000005f52602260045260245ffd5b5f60028204905060018216806103ad57607f821691505b6020821081036103c0576103bf610369565b5b50919050565b5f82905092915050565b7f4e487b71000000000000000000000000000000000000000000000000000000005f52604160045260245ffd5b5f819050815f5260205f209050919050565b5f6020601f8301049050919050565b5f82821b905092915050565b5f600883026104597fffffffffffffffffffffffffffffffffffffffffffffffffffffffffffffffff8261041e565b610463868361041e565b95508019841693508086168417925050509392505050565b5f819050919050565b5f819050919050565b5f6104a76104a261049d8461047b565b610484565b61047b565b9050919050565b5f819050919050565b6104c08361048d565b6104d46104cc826104ae565b84845461042a565b825550505050565b5f90565b6104e86104dc565b6104f38184846104b7565b505050565b5b818110156105165761050b5f826104e0565b6001810190506104f9565b5050565b601f82111561055b5761052c816103fd565b6105358461040f565b81016020851015610544578190505b6105586105508561040f565b8301826104f8565b50505b505050565b5f82821c905092915050565b5f61057b5f1984600802610560565b1980831691505092915050565b5f610593838361056c565b9150826002028217905092915050565b6105ad83836103c6565b67ffffffffffffffff8111156105c6576105c56103d0565b5b6105d08254610396565b6105db82828561051a565b5f601f831160018114610608575f84156105f6578287013590505b6106008582610588565b865550610667565b601f198416610616866103fd565b5f5b8281101561063d57848901358255600182019150602085019450602081019050610618565b8683101561065a5784890135610656601f89168261056c565b8355505b6001600288020188555050505b5050505050505056fea2646970667358221220a985b1b4126851f40648500bc36a92a31f302dc287d7e46e5a4fd57b89a464f164736f6c634300081a0033",
					"opcodes": "PUSH1 0x80 PUSH1 0x40 MSTORE CALLVALUE DUP1 ISZERO PUSH1 0xE JUMPI PUSH0 DUP1 REVERT JUMPDEST POP PUSH2 0x6A6 DUP1 PUSH2 0x1C PUSH0 CODECOPY PUSH0 RETURN INVALID PUSH1 0x80 PUSH1 0x40 MSTORE CALLVALUE DUP1 ISZERO PUSH2 0xF JUMPI PUSH0 DUP1 REVERT JUMPDEST POP PUSH1 0x4 CALLDATASIZE LT PUSH2 0x34 JUMPI PUSH0 CALLDATALOAD PUSH1 0xE0 SHR DUP1 PUSH4 0x2A77D707 EQ PUSH2 0x38 JUMPI DUP1 PUSH4 0xFB218F5F EQ PUSH2 0x68 JUMPI JUMPDEST PUSH0 DUP1 REVERT JUMPDEST PUSH2 0x52 PUSH1 0x4 DUP1 CALLDATASIZE SUB DUP2 ADD SWAP1 PUSH2 0x4D SWAP2 SWAP1 PUSH2 0x202 JUMP JUMPDEST PUSH2 0x84 JUMP JUMPDEST PUSH1 0x40 MLOAD PUSH2 0x5F SWAP2 SWAP1 PUSH2 0x29D JUMP JUMPDEST PUSH1 0x40 MLOAD DUP1 SWAP2 SUB SWAP1 RETURN JUMPDEST PUSH2 0x82 PUSH1 0x4 DUP1 CALLDATASIZE SUB DUP2 ADD SWAP1 PUSH2 0x7D SWAP2 SWAP1 PUSH2 0x31E JUMP JUMPDEST PUSH2 0x150 JUMP JUMPDEST STOP JUMPDEST PUSH1 0x60 PUSH0 DUP1 DUP4 PUSH20 0xFFFFFFFFFFFFFFFFFFFFFFFFFFFFFFFFFFFFFFFF AND PUSH20 0xFFFFFFFFFFFFFFFFFFFFFFFFFFFFFFFFFFFFFFFF AND DUP2 MSTORE PUSH1 0x20 ADD SWAP1 DUP2 MSTORE PUSH1 0x20 ADD PUSH0 KECCAK256 DUP1 SLOAD PUSH2 0xCD SWAP1 PUSH2 0x396 JUMP JUMPDEST DUP1 PUSH1 0x1F ADD PUSH1 0x20 DUP1 SWAP2 DIV MUL PUSH1 0x20 ADD PUSH1 0x40 MLOAD SWAP1 DUP2 ADD PUSH1 0x40 MSTORE DUP1 SWAP3 SWAP2 SWAP1 DUP2 DUP2 MSTORE PUSH1 0x20 ADD DUP3 DUP1 SLOAD PUSH2 0xF9 SWAP1 PUSH2 0x396 JUMP JUMPDEST DUP1 ISZERO PUSH2 0x144 JUMPI DUP1 PUSH1 0x1F LT PUSH2 0x11B JUMPI PUSH2 0x100 DUP1 DUP4 SLOAD DIV MUL DUP4 MSTORE SWAP2 PUSH1 0x20 ADD SWAP2 PUSH2 0x144 JUMP JUMPDEST DUP3 ADD SWAP2 SWAP1 PUSH0 MSTORE PUSH1 0x20 PUSH0 KECCAK256 SWAP1 JUMPDEST DUP2 SLOAD DUP2 MSTORE SWAP1 PUSH1 0x1 ADD SWAP1 PUSH1 0x20 ADD DUP1 DUP4 GT PUSH2 0x127 JUMPI DUP3 SWAP1 SUB PUSH1 0x1F AND DUP3 ADD SWAP2 JUMPDEST POP POP POP POP POP SWAP1 POP SWAP2 SWAP1 POP JUMP JUMPDEST DUP2 DUP2 PUSH0 DUP1 CALLER PUSH20 0xFFFFFFFFFFFFFFFFFFFFFFFFFFFFFFFFFFFFFFFF AND PUSH20 0xFFFFFFFFFFFFFFFFFFFFFFFFFFFFFFFFFFFFFFFF AND DUP2 MSTORE PUSH1 0x20 ADD SWAP1 DUP2 MSTORE PUSH1 0x20 ADD PUSH0 KECCAK256 SWAP2 DUP3 PUSH2 0x19B SWAP3 SWAP2 SWAP1 PUSH2 0x5A3 JUMP JUMPDEST POP POP POP JUMP JUMPDEST PUSH0 DUP1 REVERT JUMPDEST PUSH0 DUP1 REVERT JUMPDEST PUSH0 PUSH20 0xFFFFFFFFFFFFFFFFFFFFFFFFFFFFFFFFFFFFFFFF DUP3 AND SWAP1 POP SWAP2 SWAP1 POP JUMP JUMPDEST PUSH0 PUSH2 0x1D1 DUP3 PUSH2 0x1A8 JUMP JUMPDEST SWAP1 POP SWAP2 SWAP1 POP JUMP JUMPDEST PUSH2 0x1E1 DUP2 PUSH2 0x1C7 JUMP JUMPDEST DUP2 EQ PUSH2 0x1EB JUMPI PUSH0 DUP1 REVERT JUMPDEST POP JUMP JUMPDEST PUSH0 DUP2 CALLDATALOAD SWAP1 POP PUSH2 0x1FC DUP2 PUSH2 0x1D8 JUMP JUMPDEST SWAP3 SWAP2 POP POP JUMP JUMPDEST PUSH0 PUSH1 0x20 DUP3 DUP5 SUB SLT ISZERO PUSH2 0x217 JUMPI PUSH2 0x216 PUSH2 0x1A0 JUMP JUMPDEST JUMPDEST PUSH0 PUSH2 0x224 DUP5 DUP3 DUP6 ADD PUSH2 0x1EE JUMP JUMPDEST SWAP2 POP POP SWAP3 SWAP2 POP POP JUMP JUMPDEST PUSH0 DUP2 MLOAD SWAP1 POP SWAP2 SWAP1 POP JUMP JUMPDEST PUSH0 DUP3 DUP3 MSTORE PUSH1 0x20 DUP3 ADD SWAP1 POP SWAP3 SWAP2 POP POP JUMP JUMPDEST DUP3 DUP2 DUP4 MCOPY PUSH0 DUP4 DUP4 ADD MSTORE POP POP POP JUMP JUMPDEST PUSH0 PUSH1 0x1F NOT PUSH1 0x1F DUP4 ADD AND SWAP1 POP SWAP2 SWAP1 POP JUMP JUMPDEST PUSH0 PUSH2 0x26F DUP3 PUSH2 0x22D JUMP JUMPDEST PUSH2 0x279 DUP2 DUP6 PUSH2 0x237 JUMP JUMPDEST SWAP4 POP PUSH2 0x289 DUP2 DUP6 PUSH1 0x20 DUP7 ADD PUSH2 0x247 JUMP JUMPDEST PUSH2 0x292 DUP2 PUSH2 0x255 JUMP JUMPDEST DUP5 ADD SWAP2 POP POP SWAP3 SWAP2 POP POP JUMP JUMPDEST PUSH0 PUSH1 0x20 DUP3 ADD SWAP1 POP DUP2 DUP2 SUB PUSH0 DUP4 ADD MSTORE PUSH2 0x2B5 DUP2 DUP5 PUSH2 0x265 JUMP JUMPDEST SWAP1 POP SWAP3 SWAP2 POP POP JUMP JUMPDEST PUSH0 DUP1 REVERT JUMPDEST PUSH0 DUP1 REVERT JUMPDEST PUSH0 DUP1 REVERT JUMPDEST PUSH0 DUP1 DUP4 PUSH1 0x1F DUP5 ADD SLT PUSH2 0x2DE JUMPI PUSH2 0x2DD PUSH2 0x2BD JUMP JUMPDEST JUMPDEST DUP3 CALLDATALOAD SWAP1 POP PUSH8 0xFFFFFFFFFFFFFFFF DUP2 GT ISZERO PUSH2 0x2FB JUMPI PUSH2 0x2FA PUSH2 0x2C1 JUMP JUMPDEST JUMPDEST PUSH1 0x20 DUP4 ADD SWAP2 POP DUP4 PUSH1 0x1 DUP3 MUL DUP4 ADD GT ISZERO PUSH2 0x317 JUMPI PUSH2 0x316 PUSH2 0x2C5 JUMP JUMPDEST JUMPDEST SWAP3 POP SWAP3 SWAP1 POP JUMP JUMPDEST PUSH0 DUP1 PUSH1 0x20 DUP4 DUP6 SUB SLT ISZERO PUSH2 0x334 JUMPI PUSH2 0x333 PUSH2 0x1A0 JUMP JUMPDEST JUMPDEST PUSH0 DUP4 ADD CALLDATALOAD PUSH8 0xFFFFFFFFFFFFFFFF DUP2 GT ISZERO PUSH2 0x351 JUMPI PUSH2 0x350 PUSH2 0x1A4 JUMP JUMPDEST JUMPDEST PUSH2 0x35D DUP6 DUP3 DUP7 ADD PUSH2 0x2C9 JUMP JUMPDEST SWAP3 POP SWAP3 POP POP SWAP3 POP SWAP3 SWAP1 POP JUMP JUMPDEST PUSH32 0x4E487B7100000000000000000000000000000000000000000000000000000000 PUSH0 MSTORE PUSH1 0x22 PUSH1 0x4 MSTORE PUSH1 0x24 PUSH0 REVERT JUMPDEST PUSH0 PUSH1 0x2 DUP3 DIV SWAP1 POP PUSH1 0x1 DUP3 AND DUP1 PUSH2 0x3AD JUMPI PUSH1 0x7F DUP3 AND SWAP2 POP JUMPDEST PUSH1 0x20 DUP3 LT DUP2 SUB PUSH2 0x3C0 JUMPI PUSH2 0x3BF PUSH2 0x369 JUMP JUMPDEST JUMPDEST POP SWAP2 SWAP1 POP JUMP JUMPDEST PUSH0 DUP3 SWAP1 POP SWAP3 SWAP2 POP POP JUMP JUMPDEST PUSH32 0x4E487B7100000000000000000000000000000000000000000000000000000000 PUSH0 MSTORE PUSH1 0x41 PUSH1 0x4 MSTORE PUSH1 0x24 PUSH0 REVERT JUMPDEST PUSH0 DUP2 SWAP1 POP DUP2 PUSH0 MSTORE PUSH1 0x20 PUSH0 KECCAK256 SWAP1 POP SWAP2 SWAP1 POP JUMP JUMPDEST PUSH0 PUSH1 0x20 PUSH1 0x1F DUP4 ADD DIV SWAP1 POP SWAP2 SWAP1 POP JUMP JUMPDEST PUSH0 DUP3 DUP3 SHL SWAP1 POP SWAP3 SWAP2 POP POP JUMP JUMPDEST PUSH0 PUSH1 0x8 DUP4 MUL PUSH2 0x459 PUSH32 0xFFFFFFFFFFFFFFFFFFFFFFFFFFFFFFFFFFFFFFFFFFFFFFFFFFFFFFFFFFFFFFFF DUP3 PUSH2 0x41E JUMP JUMPDEST PUSH2 0x463 DUP7 DUP4 PUSH2 0x41E JUMP JUMPDEST SWAP6 POP DUP1 NOT DUP5 AND SWAP4 POP DUP1 DUP7 AND DUP5 OR SWAP3 POP POP POP SWAP4 SWAP3 POP POP POP JUMP JUMPDEST PUSH0 DUP2 SWAP1 POP SWAP2 SWAP1 POP JUMP JUMPDEST PUSH0 DUP2 SWAP1 POP SWAP2 SWAP1 POP JUMP JUMPDEST PUSH0 PUSH2 0x4A7 PUSH2 0x4A2 PUSH2 0x49D DUP5 PUSH2 0x47B JUMP JUMPDEST PUSH2 0x484 JUMP JUMPDEST PUSH2 0x47B JUMP JUMPDEST SWAP1 POP SWAP2 SWAP1 POP JUMP JUMPDEST PUSH0 DUP2 SWAP1 POP SWAP2 SWAP1 POP JUMP JUMPDEST PUSH2 0x4C0 DUP4 PUSH2 0x48D JUMP JUMPDEST PUSH2 0x4D4 PUSH2 0x4CC DUP3 PUSH2 0x4AE JUMP JUMPDEST DUP5 DUP5 SLOAD PUSH2 0x42A JUMP JUMPDEST DUP3 SSTORE POP POP POP POP JUMP JUMPDEST PUSH0 SWAP1 JUMP JUMPDEST PUSH2 0x4E8 PUSH2 0x4DC JUMP JUMPDEST PUSH2 0x4F3 DUP2 DUP5 DUP5 PUSH2 0x4B7 JUMP JUMPDEST POP POP POP JUMP JUMPDEST JUMPDEST DUP2 DUP2 LT ISZERO PUSH2 0x516 JUMPI PUSH2 0x50B PUSH0 DUP3 PUSH2 0x4E0 JUMP JUMPDEST PUSH1 0x1 DUP2 ADD SWAP1 POP PUSH2 0x4F9 JUMP JUMPDEST POP POP JUMP JUMPDEST PUSH1 0x1F DUP3 GT ISZERO PUSH2 0x55B JUMPI PUSH2 0x52C DUP2 PUSH2 0x3FD JUMP JUMPDEST PUSH2 0x535 DUP5 PUSH2 0x40F JUMP JUMPDEST DUP2 ADD PUSH1 0x20 DUP6 LT ISZERO PUSH2 0x544 JUMPI DUP2 SWAP1 POP JUMPDEST PUSH2 0x558 PUSH2 0x550 DUP6 PUSH2 0x40F JUMP JUMPDEST DUP4 ADD DUP3 PUSH2 0x4F8 JUMP JUMPDEST POP POP JUMPDEST POP POP POP JUMP JUMPDEST PUSH0 DUP3 DUP3 SHR SWAP1 POP SWAP3 SWAP2 POP POP JUMP JUMPDEST PUSH0 PUSH2 0x57B PUSH0 NOT DUP5 PUSH1 0x8 MUL PUSH2 0x560 JUMP JUMPDEST NOT DUP1 DUP4 AND SWAP2 POP POP SWAP3 SWAP2 POP POP JUMP JUMPDEST PUSH0 PUSH2 0x593 DUP4 DUP4 PUSH2 0x56C JUMP JUMPDEST SWAP2 POP DUP3 PUSH1 0x2 MUL DUP3 OR SWAP1 POP SWAP3 SWAP2 POP POP JUMP JUMPDEST PUSH2 0x5AD DUP4 DUP4 PUSH2 0x3C6 JUMP JUMPDEST PUSH8 0xFFFFFFFFFFFFFFFF DUP2 GT ISZERO PUSH2 0x5C6 JUMPI PUSH2 0x5C5 PUSH2 0x3D0 JUMP JUMPDEST JUMPDEST PUSH2 0x5D0 DUP3 SLOAD PUSH2 0x396 JUMP JUMPDEST PUSH2 0x5DB DUP3 DUP3 DUP6 PUSH2 0x51A JUMP JUMPDEST PUSH0 PUSH1 0x1F DUP4 GT PUSH1 0x1 DUP2 EQ PUSH2 0x608 JUMPI PUSH0 DUP5 ISZERO PUSH2 0x5F6 JUMPI DUP3 DUP8 ADD CALLDATALOAD SWAP1 POP JUMPDEST PUSH2 0x600 DUP6 DUP3 PUSH2 0x588 JUMP JUMPDEST DUP7 SSTORE POP PUSH2 0x667 JUMP JUMPDEST PUSH1 0x1F NOT DUP5 AND PUSH2 0x616 DUP7 PUSH2 0x3FD JUMP JUMPDEST PUSH0 JUMPDEST DUP3 DUP2 LT ISZERO PUSH2 0x63D JUMPI DUP5 DUP10 ADD CALLDATALOAD DUP3 SSTORE PUSH1 0x1 DUP3 ADD SWAP2 POP PUSH1 0x20 DUP6 ADD SWAP5 POP PUSH1 0x20 DUP2 ADD SWAP1 POP PUSH2 0x618 JUMP JUMPDEST DUP7 DUP4 LT ISZERO PUSH2 0x65A JUMPI DUP5 DUP10 ADD CALLDATALOAD PUSH2 0x656 PUSH1 0x1F DUP10 AND DUP3 PUSH2 0x56C JUMP JUMPDEST DUP4 SSTORE POP JUMPDEST PUSH1 0x1 PUSH1 0x2 DUP9 MUL ADD DUP9 SSTORE POP POP POP JUMPDEST POP POP POP POP POP POP POP JUMP INVALID LOG2 PUSH5 0x6970667358 0x22 SLT KECCAK256 0xA9 DUP6 0xB1 0xB4 SLT PUSH9 0x51F40648500BC36A92 LOG3 0x1F ADDRESS 0x2D 0xC2 DUP8 0xD7 0xE4 PUSH15 0x5A4FD57B89A464F164736F6C634300 ADDMOD BYTE STOP CALLER "
				},
				"gasEstimates": {
					"creation": {
						"codeDepositCost": "340400",
						"executionCost": "378",
						"totalCost": "340778"
					},
					"external": {
						"retrieveData(address)": "infinite",
						"storeData(string)": "infinite"
					}
				},
				"methodIdentifiers": {
					"retrieveData(address)": "2a77d707",
					"storeData(string)": "fb218f5f"
				}
			},
			"storageLayout": {
				"storage": [
					{
						"astId": 8,
						"contract": "contracts/cipherzero/Storage.sol:Storage",
						"label": "data",
						"offset": 0,
						"slot": "0",
						"type": "t_mapping(t_address,t_string_storage)"
					}
				],
				"types": {
					"t_address": {
						"encoding": "inplace",
						"label": "address",
						"numberOfBytes": "20"
					},
					"t_mapping(t_address,t_string_storage)": {
						"encoding": "mapping",
						"key": "t_address",
						"label": "mapping(address => string)",
						"numberOfBytes": "32",
						"value": "t_string_storage"
					},
					"t_string_storage": {
						"encoding": "bytes",
						"label": "string",
						"numberOfBytes": "32"
					}
				}
			},
			"userdoc": {
				"kind": "user",
				"methods": {},
				"version": 1
			}
		}
	}
}