{
	"contracts/cipherzero/cipherTorrentIntegration.sol": {
		"BitTorrentIntegration": {
			"abi": [
				{
					"inputs": [
						{
							"internalType": "address",
							"name": "user",
							"type": "address"
						}
					],
					"name": "getFiles",
					"outputs": [
						{
							"internalType": "string[]",
							"name": "",
							"type": "string[]"
						}
					],
					"stateMutability": "view",
					"type": "function"
				},
				{
					"inputs": [
						{
							"internalType": "string",
							"name": "fileHash",
							"type": "string"
						}
					],
					"name": "uploadFile",
					"outputs": [],
					"stateMutability": "nonpayable",
					"type": "function"
				}
			],
			"devdoc": {
				"kind": "dev",
				"methods": {},
				"version": 1
			},
			"evm": {
				"assembly": "    /* \"contracts/cipherzero/cipherTorrentIntegration.sol\":98:448  contract BitTorrentIntegration is IBitTorrent {... */\n  mstore(0x40, 0x80)\n  callvalue\n  dup1\n  iszero\n  tag_1\n  jumpi\n  0x00\n  dup1\n  revert\ntag_1:\n  pop\n  dataSize(sub_0)\n  dup1\n  dataOffset(sub_0)\n  0x00\n  codecopy\n  0x00\n  return\nstop\n\nsub_0: assembly {\n        /* \"contracts/cipherzero/cipherTorrentIntegration.sol\":98:448  contract BitTorrentIntegration is IBitTorrent {... */\n      mstore(0x40, 0x80)\n      callvalue\n      dup1\n      iszero\n      tag_1\n      jumpi\n      0x00\n      dup1\n      revert\n    tag_1:\n      pop\n      jumpi(tag_2, lt(calldatasize, 0x04))\n      shr(0xe0, calldataload(0x00))\n      dup1\n      0x433bf37b\n      eq\n      tag_3\n      jumpi\n      dup1\n      0xe37ffc30\n      eq\n      tag_4\n      jumpi\n    tag_2:\n      0x00\n      dup1\n      revert\n        /* \"contracts/cipherzero/cipherTorrentIntegration.sol\":326:446  function getFiles(address user) external view override returns (string[] memory) {... */\n    tag_3:\n      tag_5\n      0x04\n      dup1\n      calldatasize\n      sub\n      dup2\n      add\n      swap1\n      tag_6\n      swap2\n      swap1\n      tag_7\n      jump\t// in\n    tag_6:\n      tag_8\n      jump\t// in\n    tag_5:\n      mload(0x40)\n      tag_9\n      swap2\n      swap1\n      tag_10\n      jump\t// in\n    tag_9:\n      mload(0x40)\n      dup1\n      swap2\n      sub\n      swap1\n      return\n        /* \"contracts/cipherzero/cipherTorrentIntegration.sol\":203:320  function uploadFile(string calldata fileHash) external override {... */\n    tag_4:\n      tag_11\n      0x04\n      dup1\n      calldatasize\n      sub\n      dup2\n      add\n      swap1\n      tag_12\n      swap2\n      swap1\n      tag_13\n      jump\t// in\n    tag_12:\n      tag_14\n      jump\t// in\n    tag_11:\n      stop\n        /* \"contracts/cipherzero/cipherTorrentIntegration.sol\":326:446  function getFiles(address user) external view override returns (string[] memory) {... */\n    tag_8:\n        /* \"contracts/cipherzero/cipherTorrentIntegration.sol\":390:405  string[] memory */\n      0x60\n        /* \"contracts/cipherzero/cipherTorrentIntegration.sol\":424:433  userFiles */\n      0x00\n        /* \"contracts/cipherzero/cipherTorrentIntegration.sol\":424:439  userFiles[user] */\n      dup1\n        /* \"contracts/cipherzero/cipherTorrentIntegration.sol\":434:438  user */\n      dup4\n        /* \"contracts/cipherzero/cipherTorrentIntegration.sol\":424:439  userFiles[user] */\n      0xffffffffffffffffffffffffffffffffffffffff\n      and\n      0xffffffffffffffffffffffffffffffffffffffff\n      and\n      dup2\n      mstore\n      0x20\n      add\n      swap1\n      dup2\n      mstore\n      0x20\n      add\n      0x00\n      keccak256\n        /* \"contracts/cipherzero/cipherTorrentIntegration.sol\":417:439  return userFiles[user] */\n      dup1\n      sload\n      dup1\n      0x20\n      mul\n      0x20\n      add\n      mload(0x40)\n      swap1\n      dup2\n      add\n      0x40\n      mstore\n      dup1\n      swap3\n      swap2\n      swap1\n      dup2\n      dup2\n      mstore\n      0x20\n      add\n      0x00\n      swap1\n    tag_16:\n      dup3\n      dup3\n      lt\n      iszero\n      tag_17\n      jumpi\n      dup4\n      dup3\n      swap1\n      0x00\n      mstore\n      keccak256(0x00, 0x20)\n      add\n      dup1\n      sload\n      tag_19\n      swap1\n      tag_20\n      jump\t// in\n    tag_19:\n      dup1\n      0x1f\n      add\n      0x20\n      dup1\n      swap2\n      div\n      mul\n      0x20\n      add\n      mload(0x40)\n      swap1\n      dup2\n      add\n      0x40\n      mstore\n      dup1\n      swap3\n      swap2\n      swap1\n      dup2\n      dup2\n      mstore\n      0x20\n      add\n      dup3\n      dup1\n      sload\n      tag_21\n      swap1\n      tag_20\n      jump\t// in\n    tag_21:\n      dup1\n      iszero\n      tag_22\n      jumpi\n      dup1\n      0x1f\n      lt\n      tag_23\n      jumpi\n      0x0100\n      dup1\n      dup4\n      sload\n      div\n      mul\n      dup4\n      mstore\n      swap2\n      0x20\n      add\n      swap2\n      jump(tag_22)\n    tag_23:\n      dup3\n      add\n      swap2\n      swap1\n      0x00\n      mstore\n      keccak256(0x00, 0x20)\n      swap1\n    tag_24:\n      dup2\n      sload\n      dup2\n      mstore\n      swap1\n      0x01\n      add\n      swap1\n      0x20\n      add\n      dup1\n      dup4\n      gt\n      tag_24\n      jumpi\n      dup3\n      swap1\n      sub\n      0x1f\n      and\n      dup3\n      add\n      swap2\n    tag_22:\n      pop\n      pop\n      pop\n      pop\n      pop\n      dup2\n      mstore\n      0x20\n      add\n      swap1\n      0x01\n      add\n      swap1\n      jump(tag_16)\n    tag_17:\n      pop\n      pop\n      pop\n      pop\n      swap1\n      pop\n        /* \"contracts/cipherzero/cipherTorrentIntegration.sol\":326:446  function getFiles(address user) external view override returns (string[] memory) {... */\n      swap2\n      swap1\n      pop\n      jump\t// out\n        /* \"contracts/cipherzero/cipherTorrentIntegration.sol\":203:320  function uploadFile(string calldata fileHash) external override {... */\n    tag_14:\n        /* \"contracts/cipherzero/cipherTorrentIntegration.sol\":277:286  userFiles */\n      0x00\n        /* \"contracts/cipherzero/cipherTorrentIntegration.sol\":277:298  userFiles[msg.sender] */\n      dup1\n        /* \"contracts/cipherzero/cipherTorrentIntegration.sol\":287:297  msg.sender */\n      caller\n        /* \"contracts/cipherzero/cipherTorrentIntegration.sol\":277:298  userFiles[msg.sender] */\n      0xffffffffffffffffffffffffffffffffffffffff\n      and\n      0xffffffffffffffffffffffffffffffffffffffff\n      and\n      dup2\n      mstore\n      0x20\n      add\n      swap1\n      dup2\n      mstore\n      0x20\n      add\n      0x00\n      keccak256\n        /* \"contracts/cipherzero/cipherTorrentIntegration.sol\":304:312  fileHash */\n      dup3\n      dup3\n        /* \"contracts/cipherzero/cipherTorrentIntegration.sol\":277:313  userFiles[msg.sender].push(fileHash) */\n      swap1\n      swap2\n      dup1\n      0x01\n      dup2\n      sload\n      add\n      dup1\n      dup3\n      sstore\n      dup1\n      swap2\n      pop\n      pop\n      0x01\n      swap1\n      sub\n      swap1\n      0x00\n      mstore\n      keccak256(0x00, 0x20)\n      add\n      0x00\n      swap1\n      swap2\n      swap3\n      swap1\n      swap2\n      swap3\n      swap1\n      swap2\n      swap3\n      swap1\n      swap2\n      swap3\n      pop\n      swap2\n      dup3\n      tag_27\n      swap3\n      swap2\n      swap1\n      tag_28\n      jump\t// in\n    tag_27:\n      pop\n        /* \"contracts/cipherzero/cipherTorrentIntegration.sol\":203:320  function uploadFile(string calldata fileHash) external override {... */\n      pop\n      pop\n      jump\t// out\n        /* \"#utility.yul\":88:205   */\n    tag_30:\n        /* \"#utility.yul\":197:198   */\n      0x00\n        /* \"#utility.yul\":194:195   */\n      dup1\n        /* \"#utility.yul\":187:199   */\n      revert\n        /* \"#utility.yul\":211:328   */\n    tag_31:\n        /* \"#utility.yul\":320:321   */\n      0x00\n        /* \"#utility.yul\":317:318   */\n      dup1\n        /* \"#utility.yul\":310:322   */\n      revert\n        /* \"#utility.yul\":334:460   */\n    tag_32:\n        /* \"#utility.yul\":371:378   */\n      0x00\n        /* \"#utility.yul\":411:453   */\n      0xffffffffffffffffffffffffffffffffffffffff\n        /* \"#utility.yul\":404:409   */\n      dup3\n        /* \"#utility.yul\":400:454   */\n      and\n        /* \"#utility.yul\":389:454   */\n      swap1\n      pop\n        /* \"#utility.yul\":334:460   */\n      swap2\n      swap1\n      pop\n      jump\t// out\n        /* \"#utility.yul\":466:562   */\n    tag_33:\n        /* \"#utility.yul\":503:510   */\n      0x00\n        /* \"#utility.yul\":532:556   */\n      tag_76\n        /* \"#utility.yul\":550:555   */\n      dup3\n        /* \"#utility.yul\":532:556   */\n      tag_32\n      jump\t// in\n    tag_76:\n        /* \"#utility.yul\":521:556   */\n      swap1\n      pop\n        /* \"#utility.yul\":466:562   */\n      swap2\n      swap1\n      pop\n      jump\t// out\n        /* \"#utility.yul\":568:690   */\n    tag_34:\n        /* \"#utility.yul\":641:665   */\n      tag_78\n        /* \"#utility.yul\":659:664   */\n      dup2\n        /* \"#utility.yul\":641:665   */\n      tag_33\n      jump\t// in\n    tag_78:\n        /* \"#utility.yul\":634:639   */\n      dup2\n        /* \"#utility.yul\":631:666   */\n      eq\n        /* \"#utility.yul\":621:684   */\n      tag_79\n      jumpi\n        /* \"#utility.yul\":680:681   */\n      0x00\n        /* \"#utility.yul\":677:678   */\n      dup1\n        /* \"#utility.yul\":670:682   */\n      revert\n        /* \"#utility.yul\":621:684   */\n    tag_79:\n        /* \"#utility.yul\":568:690   */\n      pop\n      jump\t// out\n        /* \"#utility.yul\":696:835   */\n    tag_35:\n        /* \"#utility.yul\":742:747   */\n      0x00\n        /* \"#utility.yul\":780:786   */\n      dup2\n        /* \"#utility.yul\":767:787   */\n      calldataload\n        /* \"#utility.yul\":758:787   */\n      swap1\n      pop\n        /* \"#utility.yul\":796:829   */\n      tag_81\n        /* \"#utility.yul\":823:828   */\n      dup2\n        /* \"#utility.yul\":796:829   */\n      tag_34\n      jump\t// in\n    tag_81:\n        /* \"#utility.yul\":696:835   */\n      swap3\n      swap2\n      pop\n      pop\n      jump\t// out\n        /* \"#utility.yul\":841:1170   */\n    tag_7:\n        /* \"#utility.yul\":900:906   */\n      0x00\n        /* \"#utility.yul\":949:951   */\n      0x20\n        /* \"#utility.yul\":937:946   */\n      dup3\n        /* \"#utility.yul\":928:935   */\n      dup5\n        /* \"#utility.yul\":924:947   */\n      sub\n        /* \"#utility.yul\":920:952   */\n      slt\n        /* \"#utility.yul\":917:1036   */\n      iszero\n      tag_83\n      jumpi\n        /* \"#utility.yul\":955:1034   */\n      tag_84\n      tag_30\n      jump\t// in\n    tag_84:\n        /* \"#utility.yul\":917:1036   */\n    tag_83:\n        /* \"#utility.yul\":1075:1076   */\n      0x00\n        /* \"#utility.yul\":1100:1153   */\n      tag_85\n        /* \"#utility.yul\":1145:1152   */\n      dup5\n        /* \"#utility.yul\":1136:1142   */\n      dup3\n        /* \"#utility.yul\":1125:1134   */\n      dup6\n        /* \"#utility.yul\":1121:1143   */\n      add\n        /* \"#utility.yul\":1100:1153   */\n      tag_35\n      jump\t// in\n    tag_85:\n        /* \"#utility.yul\":1090:1153   */\n      swap2\n      pop\n        /* \"#utility.yul\":1046:1163   */\n      pop\n        /* \"#utility.yul\":841:1170   */\n      swap3\n      swap2\n      pop\n      pop\n      jump\t// out\n        /* \"#utility.yul\":1176:1300   */\n    tag_36:\n        /* \"#utility.yul\":1253:1259   */\n      0x00\n        /* \"#utility.yul\":1287:1292   */\n      dup2\n        /* \"#utility.yul\":1281:1293   */\n      mload\n        /* \"#utility.yul\":1271:1293   */\n      swap1\n      pop\n        /* \"#utility.yul\":1176:1300   */\n      swap2\n      swap1\n      pop\n      jump\t// out\n        /* \"#utility.yul\":1306:1500   */\n    tag_37:\n        /* \"#utility.yul\":1415:1426   */\n      0x00\n        /* \"#utility.yul\":1449:1455   */\n      dup3\n        /* \"#utility.yul\":1444:1447   */\n      dup3\n        /* \"#utility.yul\":1437:1456   */\n      mstore\n        /* \"#utility.yul\":1489:1493   */\n      0x20\n        /* \"#utility.yul\":1484:1487   */\n      dup3\n        /* \"#utility.yul\":1480:1494   */\n      add\n        /* \"#utility.yul\":1465:1494   */\n      swap1\n      pop\n        /* \"#utility.yul\":1306:1500   */\n      swap3\n      swap2\n      pop\n      pop\n      jump\t// out\n        /* \"#utility.yul\":1506:1648   */\n    tag_38:\n        /* \"#utility.yul\":1583:1587   */\n      0x00\n        /* \"#utility.yul\":1606:1609   */\n      dup2\n        /* \"#utility.yul\":1598:1609   */\n      swap1\n      pop\n        /* \"#utility.yul\":1636:1640   */\n      0x20\n        /* \"#utility.yul\":1631:1634   */\n      dup3\n        /* \"#utility.yul\":1627:1641   */\n      add\n        /* \"#utility.yul\":1619:1641   */\n      swap1\n      pop\n        /* \"#utility.yul\":1506:1648   */\n      swap2\n      swap1\n      pop\n      jump\t// out\n        /* \"#utility.yul\":1654:1753   */\n    tag_39:\n        /* \"#utility.yul\":1706:1712   */\n      0x00\n        /* \"#utility.yul\":1740:1745   */\n      dup2\n        /* \"#utility.yul\":1734:1746   */\n      mload\n        /* \"#utility.yul\":1724:1746   */\n      swap1\n      pop\n        /* \"#utility.yul\":1654:1753   */\n      swap2\n      swap1\n      pop\n      jump\t// out\n        /* \"#utility.yul\":1759:1918   */\n    tag_40:\n        /* \"#utility.yul\":1833:1844   */\n      0x00\n        /* \"#utility.yul\":1867:1873   */\n      dup3\n        /* \"#utility.yul\":1862:1865   */\n      dup3\n        /* \"#utility.yul\":1855:1874   */\n      mstore\n        /* \"#utility.yul\":1907:1911   */\n      0x20\n        /* \"#utility.yul\":1902:1905   */\n      dup3\n        /* \"#utility.yul\":1898:1912   */\n      add\n        /* \"#utility.yul\":1883:1912   */\n      swap1\n      pop\n        /* \"#utility.yul\":1759:1918   */\n      swap3\n      swap2\n      pop\n      pop\n      jump\t// out\n        /* \"#utility.yul\":1924:2063   */\n    tag_41:\n        /* \"#utility.yul\":2013:2019   */\n      dup3\n        /* \"#utility.yul\":2008:2011   */\n      dup2\n        /* \"#utility.yul\":2003:2006   */\n      dup4\n        /* \"#utility.yul\":1997:2020   */\n      mcopy\n        /* \"#utility.yul\":2054:2055   */\n      0x00\n        /* \"#utility.yul\":2045:2051   */\n      dup4\n        /* \"#utility.yul\":2040:2043   */\n      dup4\n        /* \"#utility.yul\":2036:2052   */\n      add\n        /* \"#utility.yul\":2029:2056   */\n      mstore\n        /* \"#utility.yul\":1924:2063   */\n      pop\n      pop\n      pop\n      jump\t// out\n        /* \"#utility.yul\":2069:2171   */\n    tag_42:\n        /* \"#utility.yul\":2110:2116   */\n      0x00\n        /* \"#utility.yul\":2161:2163   */\n      0x1f\n        /* \"#utility.yul\":2157:2164   */\n      not\n        /* \"#utility.yul\":2152:2154   */\n      0x1f\n        /* \"#utility.yul\":2145:2150   */\n      dup4\n        /* \"#utility.yul\":2141:2155   */\n      add\n        /* \"#utility.yul\":2137:2165   */\n      and\n        /* \"#utility.yul\":2127:2165   */\n      swap1\n      pop\n        /* \"#utility.yul\":2069:2171   */\n      swap2\n      swap1\n      pop\n      jump\t// out\n        /* \"#utility.yul\":2177:2534   */\n    tag_43:\n        /* \"#utility.yul\":2255:2258   */\n      0x00\n        /* \"#utility.yul\":2283:2322   */\n      tag_94\n        /* \"#utility.yul\":2316:2321   */\n      dup3\n        /* \"#utility.yul\":2283:2322   */\n      tag_39\n      jump\t// in\n    tag_94:\n        /* \"#utility.yul\":2338:2399   */\n      tag_95\n        /* \"#utility.yul\":2392:2398   */\n      dup2\n        /* \"#utility.yul\":2387:2390   */\n      dup6\n        /* \"#utility.yul\":2338:2399   */\n      tag_40\n      jump\t// in\n    tag_95:\n        /* \"#utility.yul\":2331:2399   */\n      swap4\n      pop\n        /* \"#utility.yul\":2408:2473   */\n      tag_96\n        /* \"#utility.yul\":2466:2472   */\n      dup2\n        /* \"#utility.yul\":2461:2464   */\n      dup6\n        /* \"#utility.yul\":2454:2458   */\n      0x20\n        /* \"#utility.yul\":2447:2452   */\n      dup7\n        /* \"#utility.yul\":2443:2459   */\n      add\n        /* \"#utility.yul\":2408:2473   */\n      tag_41\n      jump\t// in\n    tag_96:\n        /* \"#utility.yul\":2498:2527   */\n      tag_97\n        /* \"#utility.yul\":2520:2526   */\n      dup2\n        /* \"#utility.yul\":2498:2527   */\n      tag_42\n      jump\t// in\n    tag_97:\n        /* \"#utility.yul\":2493:2496   */\n      dup5\n        /* \"#utility.yul\":2489:2528   */\n      add\n        /* \"#utility.yul\":2482:2528   */\n      swap2\n      pop\n        /* \"#utility.yul\":2259:2534   */\n      pop\n        /* \"#utility.yul\":2177:2534   */\n      swap3\n      swap2\n      pop\n      pop\n      jump\t// out\n        /* \"#utility.yul\":2540:2736   */\n    tag_44:\n        /* \"#utility.yul\":2629:2639   */\n      0x00\n        /* \"#utility.yul\":2664:2730   */\n      tag_99\n        /* \"#utility.yul\":2726:2729   */\n      dup4\n        /* \"#utility.yul\":2718:2724   */\n      dup4\n        /* \"#utility.yul\":2664:2730   */\n      tag_43\n      jump\t// in\n    tag_99:\n        /* \"#utility.yul\":2650:2730   */\n      swap1\n      pop\n        /* \"#utility.yul\":2540:2736   */\n      swap3\n      swap2\n      pop\n      pop\n      jump\t// out\n        /* \"#utility.yul\":2742:2865   */\n    tag_45:\n        /* \"#utility.yul\":2822:2826   */\n      0x00\n        /* \"#utility.yul\":2854:2858   */\n      0x20\n        /* \"#utility.yul\":2849:2852   */\n      dup3\n        /* \"#utility.yul\":2845:2859   */\n      add\n        /* \"#utility.yul\":2837:2859   */\n      swap1\n      pop\n        /* \"#utility.yul\":2742:2865   */\n      swap2\n      swap1\n      pop\n      jump\t// out\n        /* \"#utility.yul\":2899:3890   */\n    tag_46:\n        /* \"#utility.yul\":3038:3041   */\n      0x00\n        /* \"#utility.yul\":3067:3131   */\n      tag_102\n        /* \"#utility.yul\":3125:3130   */\n      dup3\n        /* \"#utility.yul\":3067:3131   */\n      tag_36\n      jump\t// in\n    tag_102:\n        /* \"#utility.yul\":3147:3243   */\n      tag_103\n        /* \"#utility.yul\":3236:3242   */\n      dup2\n        /* \"#utility.yul\":3231:3234   */\n      dup6\n        /* \"#utility.yul\":3147:3243   */\n      tag_37\n      jump\t// in\n    tag_103:\n        /* \"#utility.yul\":3140:3243   */\n      swap4\n      pop\n        /* \"#utility.yul\":3269:3272   */\n      dup4\n        /* \"#utility.yul\":3314:3318   */\n      0x20\n        /* \"#utility.yul\":3306:3312   */\n      dup3\n        /* \"#utility.yul\":3302:3319   */\n      mul\n        /* \"#utility.yul\":3297:3300   */\n      dup6\n        /* \"#utility.yul\":3293:3320   */\n      add\n        /* \"#utility.yul\":3344:3410   */\n      tag_104\n        /* \"#utility.yul\":3404:3409   */\n      dup6\n        /* \"#utility.yul\":3344:3410   */\n      tag_38\n      jump\t// in\n    tag_104:\n        /* \"#utility.yul\":3433:3440   */\n      dup1\n        /* \"#utility.yul\":3464:3465   */\n      0x00\n        /* \"#utility.yul\":3449:3845   */\n    tag_105:\n        /* \"#utility.yul\":3474:3480   */\n      dup6\n        /* \"#utility.yul\":3471:3472   */\n      dup2\n        /* \"#utility.yul\":3468:3481   */\n      lt\n        /* \"#utility.yul\":3449:3845   */\n      iszero\n      tag_107\n      jumpi\n        /* \"#utility.yul\":3545:3554   */\n      dup5\n        /* \"#utility.yul\":3539:3543   */\n      dup5\n        /* \"#utility.yul\":3535:3555   */\n      sub\n        /* \"#utility.yul\":3530:3533   */\n      dup10\n        /* \"#utility.yul\":3523:3556   */\n      mstore\n        /* \"#utility.yul\":3596:3602   */\n      dup2\n        /* \"#utility.yul\":3590:3603   */\n      mload\n        /* \"#utility.yul\":3624:3708   */\n      tag_108\n        /* \"#utility.yul\":3703:3707   */\n      dup6\n        /* \"#utility.yul\":3688:3701   */\n      dup3\n        /* \"#utility.yul\":3624:3708   */\n      tag_44\n      jump\t// in\n    tag_108:\n        /* \"#utility.yul\":3616:3708   */\n      swap5\n      pop\n        /* \"#utility.yul\":3731:3801   */\n      tag_109\n        /* \"#utility.yul\":3794:3800   */\n      dup4\n        /* \"#utility.yul\":3731:3801   */\n      tag_45\n      jump\t// in\n    tag_109:\n        /* \"#utility.yul\":3721:3801   */\n      swap3\n      pop\n        /* \"#utility.yul\":3830:3834   */\n      0x20\n        /* \"#utility.yul\":3825:3828   */\n      dup11\n        /* \"#utility.yul\":3821:3835   */\n      add\n        /* \"#utility.yul\":3814:3835   */\n      swap10\n      pop\n        /* \"#utility.yul\":3509:3845   */\n      pop\n        /* \"#utility.yul\":3496:3497   */\n      0x01\n        /* \"#utility.yul\":3493:3494   */\n      dup2\n        /* \"#utility.yul\":3489:3498   */\n      add\n        /* \"#utility.yul\":3484:3498   */\n      swap1\n      pop\n        /* \"#utility.yul\":3449:3845   */\n      jump(tag_105)\n    tag_107:\n        /* \"#utility.yul\":3453:3467   */\n      pop\n        /* \"#utility.yul\":3861:3865   */\n      dup3\n        /* \"#utility.yul\":3854:3865   */\n      swap8\n      pop\n        /* \"#utility.yul\":3881:3884   */\n      dup8\n        /* \"#utility.yul\":3874:3884   */\n      swap6\n      pop\n        /* \"#utility.yul\":3043:3890   */\n      pop\n      pop\n      pop\n      pop\n      pop\n        /* \"#utility.yul\":2899:3890   */\n      swap3\n      swap2\n      pop\n      pop\n      jump\t// out\n        /* \"#utility.yul\":3896:4309   */\n    tag_10:\n        /* \"#utility.yul\":4059:4063   */\n      0x00\n        /* \"#utility.yul\":4097:4099   */\n      0x20\n        /* \"#utility.yul\":4086:4095   */\n      dup3\n        /* \"#utility.yul\":4082:4100   */\n      add\n        /* \"#utility.yul\":4074:4100   */\n      swap1\n      pop\n        /* \"#utility.yul\":4146:4155   */\n      dup2\n        /* \"#utility.yul\":4140:4144   */\n      dup2\n        /* \"#utility.yul\":4136:4156   */\n      sub\n        /* \"#utility.yul\":4132:4133   */\n      0x00\n        /* \"#utility.yul\":4121:4130   */\n      dup4\n        /* \"#utility.yul\":4117:4134   */\n      add\n        /* \"#utility.yul\":4110:4157   */\n      mstore\n        /* \"#utility.yul\":4174:4302   */\n      tag_111\n        /* \"#utility.yul\":4297:4301   */\n      dup2\n        /* \"#utility.yul\":4288:4294   */\n      dup5\n        /* \"#utility.yul\":4174:4302   */\n      tag_46\n      jump\t// in\n    tag_111:\n        /* \"#utility.yul\":4166:4302   */\n      swap1\n      pop\n        /* \"#utility.yul\":3896:4309   */\n      swap3\n      swap2\n      pop\n      pop\n      jump\t// out\n        /* \"#utility.yul\":4315:4432   */\n    tag_47:\n        /* \"#utility.yul\":4424:4425   */\n      0x00\n        /* \"#utility.yul\":4421:4422   */\n      dup1\n        /* \"#utility.yul\":4414:4426   */\n      revert\n        /* \"#utility.yul\":4438:4555   */\n    tag_48:\n        /* \"#utility.yul\":4547:4548   */\n      0x00\n        /* \"#utility.yul\":4544:4545   */\n      dup1\n        /* \"#utility.yul\":4537:4549   */\n      revert\n        /* \"#utility.yul\":4561:4678   */\n    tag_49:\n        /* \"#utility.yul\":4670:4671   */\n      0x00\n        /* \"#utility.yul\":4667:4668   */\n      dup1\n        /* \"#utility.yul\":4660:4672   */\n      revert\n        /* \"#utility.yul\":4698:5251   */\n    tag_50:\n        /* \"#utility.yul\":4756:4764   */\n      0x00\n        /* \"#utility.yul\":4766:4772   */\n      dup1\n        /* \"#utility.yul\":4816:4819   */\n      dup4\n        /* \"#utility.yul\":4809:4813   */\n      0x1f\n        /* \"#utility.yul\":4801:4807   */\n      dup5\n        /* \"#utility.yul\":4797:4814   */\n      add\n        /* \"#utility.yul\":4793:4820   */\n      slt\n        /* \"#utility.yul\":4783:4905   */\n      tag_116\n      jumpi\n        /* \"#utility.yul\":4824:4903   */\n      tag_117\n      tag_47\n      jump\t// in\n    tag_117:\n        /* \"#utility.yul\":4783:4905   */\n    tag_116:\n        /* \"#utility.yul\":4937:4943   */\n      dup3\n        /* \"#utility.yul\":4924:4944   */\n      calldataload\n        /* \"#utility.yul\":4914:4944   */\n      swap1\n      pop\n        /* \"#utility.yul\":4967:4985   */\n      0xffffffffffffffff\n        /* \"#utility.yul\":4959:4965   */\n      dup2\n        /* \"#utility.yul\":4956:4986   */\n      gt\n        /* \"#utility.yul\":4953:5070   */\n      iszero\n      tag_118\n      jumpi\n        /* \"#utility.yul\":4989:5068   */\n      tag_119\n      tag_48\n      jump\t// in\n    tag_119:\n        /* \"#utility.yul\":4953:5070   */\n    tag_118:\n        /* \"#utility.yul\":5103:5107   */\n      0x20\n        /* \"#utility.yul\":5095:5101   */\n      dup4\n        /* \"#utility.yul\":5091:5108   */\n      add\n        /* \"#utility.yul\":5079:5108   */\n      swap2\n      pop\n        /* \"#utility.yul\":5157:5160   */\n      dup4\n        /* \"#utility.yul\":5149:5153   */\n      0x01\n        /* \"#utility.yul\":5141:5147   */\n      dup3\n        /* \"#utility.yul\":5137:5154   */\n      mul\n        /* \"#utility.yul\":5127:5135   */\n      dup4\n        /* \"#utility.yul\":5123:5155   */\n      add\n        /* \"#utility.yul\":5120:5161   */\n      gt\n        /* \"#utility.yul\":5117:5245   */\n      iszero\n      tag_120\n      jumpi\n        /* \"#utility.yul\":5164:5243   */\n      tag_121\n      tag_49\n      jump\t// in\n    tag_121:\n        /* \"#utility.yul\":5117:5245   */\n    tag_120:\n        /* \"#utility.yul\":4698:5251   */\n      swap3\n      pop\n      swap3\n      swap1\n      pop\n      jump\t// out\n        /* \"#utility.yul\":5257:5786   */\n    tag_13:\n        /* \"#utility.yul\":5328:5334   */\n      0x00\n        /* \"#utility.yul\":5336:5342   */\n      dup1\n        /* \"#utility.yul\":5385:5387   */\n      0x20\n        /* \"#utility.yul\":5373:5382   */\n      dup4\n        /* \"#utility.yul\":5364:5371   */\n      dup6\n        /* \"#utility.yul\":5360:5383   */\n      sub\n        /* \"#utility.yul\":5356:5388   */\n      slt\n        /* \"#utility.yul\":5353:5472   */\n      iszero\n      tag_123\n      jumpi\n        /* \"#utility.yul\":5391:5470   */\n      tag_124\n      tag_30\n      jump\t// in\n    tag_124:\n        /* \"#utility.yul\":5353:5472   */\n    tag_123:\n        /* \"#utility.yul\":5539:5540   */\n      0x00\n        /* \"#utility.yul\":5528:5537   */\n      dup4\n        /* \"#utility.yul\":5524:5541   */\n      add\n        /* \"#utility.yul\":5511:5542   */\n      calldataload\n        /* \"#utility.yul\":5569:5587   */\n      0xffffffffffffffff\n        /* \"#utility.yul\":5561:5567   */\n      dup2\n        /* \"#utility.yul\":5558:5588   */\n      gt\n        /* \"#utility.yul\":5555:5672   */\n      iszero\n      tag_125\n      jumpi\n        /* \"#utility.yul\":5591:5670   */\n      tag_126\n      tag_31\n      jump\t// in\n    tag_126:\n        /* \"#utility.yul\":5555:5672   */\n    tag_125:\n        /* \"#utility.yul\":5704:5769   */\n      tag_127\n        /* \"#utility.yul\":5761:5768   */\n      dup6\n        /* \"#utility.yul\":5752:5758   */\n      dup3\n        /* \"#utility.yul\":5741:5750   */\n      dup7\n        /* \"#utility.yul\":5737:5759   */\n      add\n        /* \"#utility.yul\":5704:5769   */\n      tag_50\n      jump\t// in\n    tag_127:\n        /* \"#utility.yul\":5686:5769   */\n      swap3\n      pop\n      swap3\n      pop\n        /* \"#utility.yul\":5482:5779   */\n      pop\n        /* \"#utility.yul\":5257:5786   */\n      swap3\n      pop\n      swap3\n      swap1\n      pop\n      jump\t// out\n        /* \"#utility.yul\":5792:5972   */\n    tag_51:\n        /* \"#utility.yul\":5840:5917   */\n      0x4e487b7100000000000000000000000000000000000000000000000000000000\n        /* \"#utility.yul\":5837:5838   */\n      0x00\n        /* \"#utility.yul\":5830:5918   */\n      mstore\n        /* \"#utility.yul\":5937:5941   */\n      0x22\n        /* \"#utility.yul\":5934:5935   */\n      0x04\n        /* \"#utility.yul\":5927:5942   */\n      mstore\n        /* \"#utility.yul\":5961:5965   */\n      0x24\n        /* \"#utility.yul\":5958:5959   */\n      0x00\n        /* \"#utility.yul\":5951:5966   */\n      revert\n        /* \"#utility.yul\":5978:6298   */\n    tag_20:\n        /* \"#utility.yul\":6022:6028   */\n      0x00\n        /* \"#utility.yul\":6059:6060   */\n      0x02\n        /* \"#utility.yul\":6053:6057   */\n      dup3\n        /* \"#utility.yul\":6049:6061   */\n      div\n        /* \"#utility.yul\":6039:6061   */\n      swap1\n      pop\n        /* \"#utility.yul\":6106:6107   */\n      0x01\n        /* \"#utility.yul\":6100:6104   */\n      dup3\n        /* \"#utility.yul\":6096:6108   */\n      and\n        /* \"#utility.yul\":6127:6145   */\n      dup1\n        /* \"#utility.yul\":6117:6198   */\n      tag_130\n      jumpi\n        /* \"#utility.yul\":6183:6187   */\n      0x7f\n        /* \"#utility.yul\":6175:6181   */\n      dup3\n        /* \"#utility.yul\":6171:6188   */\n      and\n        /* \"#utility.yul\":6161:6188   */\n      swap2\n      pop\n        /* \"#utility.yul\":6117:6198   */\n    tag_130:\n        /* \"#utility.yul\":6245:6247   */\n      0x20\n        /* \"#utility.yul\":6237:6243   */\n      dup3\n        /* \"#utility.yul\":6234:6248   */\n      lt\n        /* \"#utility.yul\":6214:6232   */\n      dup2\n        /* \"#utility.yul\":6211:6249   */\n      sub\n        /* \"#utility.yul\":6208:6292   */\n      tag_131\n      jumpi\n        /* \"#utility.yul\":6264:6282   */\n      tag_132\n      tag_51\n      jump\t// in\n    tag_132:\n        /* \"#utility.yul\":6208:6292   */\n    tag_131:\n        /* \"#utility.yul\":6029:6298   */\n      pop\n        /* \"#utility.yul\":5978:6298   */\n      swap2\n      swap1\n      pop\n      jump\t// out\n        /* \"#utility.yul\":6304:6401   */\n    tag_52:\n        /* \"#utility.yul\":6363:6369   */\n      0x00\n        /* \"#utility.yul\":6391:6394   */\n      dup3\n        /* \"#utility.yul\":6381:6394   */\n      swap1\n      pop\n        /* \"#utility.yul\":6304:6401   */\n      swap3\n      swap2\n      pop\n      pop\n      jump\t// out\n        /* \"#utility.yul\":6407:6587   */\n    tag_53:\n        /* \"#utility.yul\":6455:6532   */\n      0x4e487b7100000000000000000000000000000000000000000000000000000000\n        /* \"#utility.yul\":6452:6453   */\n      0x00\n        /* \"#utility.yul\":6445:6533   */\n      mstore\n        /* \"#utility.yul\":6552:6556   */\n      0x41\n        /* \"#utility.yul\":6549:6550   */\n      0x04\n        /* \"#utility.yul\":6542:6557   */\n      mstore\n        /* \"#utility.yul\":6576:6580   */\n      0x24\n        /* \"#utility.yul\":6573:6574   */\n      0x00\n        /* \"#utility.yul\":6566:6581   */\n      revert\n        /* \"#utility.yul\":6593:6734   */\n    tag_54:\n        /* \"#utility.yul\":6642:6646   */\n      0x00\n        /* \"#utility.yul\":6665:6668   */\n      dup2\n        /* \"#utility.yul\":6657:6668   */\n      swap1\n      pop\n        /* \"#utility.yul\":6688:6691   */\n      dup2\n        /* \"#utility.yul\":6685:6686   */\n      0x00\n        /* \"#utility.yul\":6678:6692   */\n      mstore\n        /* \"#utility.yul\":6722:6726   */\n      0x20\n        /* \"#utility.yul\":6719:6720   */\n      0x00\n        /* \"#utility.yul\":6709:6727   */\n      keccak256\n        /* \"#utility.yul\":6701:6727   */\n      swap1\n      pop\n        /* \"#utility.yul\":6593:6734   */\n      swap2\n      swap1\n      pop\n      jump\t// out\n        /* \"#utility.yul\":6740:6833   */\n    tag_55:\n        /* \"#utility.yul\":6777:6783   */\n      0x00\n        /* \"#utility.yul\":6824:6826   */\n      0x20\n        /* \"#utility.yul\":6819:6821   */\n      0x1f\n        /* \"#utility.yul\":6812:6817   */\n      dup4\n        /* \"#utility.yul\":6808:6822   */\n      add\n        /* \"#utility.yul\":6804:6827   */\n      div\n        /* \"#utility.yul\":6794:6827   */\n      swap1\n      pop\n        /* \"#utility.yul\":6740:6833   */\n      swap2\n      swap1\n      pop\n      jump\t// out\n        /* \"#utility.yul\":6839:6946   */\n    tag_56:\n        /* \"#utility.yul\":6883:6891   */\n      0x00\n        /* \"#utility.yul\":6933:6938   */\n      dup3\n        /* \"#utility.yul\":6927:6931   */\n      dup3\n        /* \"#utility.yul\":6923:6939   */\n      shl\n        /* \"#utility.yul\":6902:6939   */\n      swap1\n      pop\n        /* \"#utility.yul\":6839:6946   */\n      swap3\n      swap2\n      pop\n      pop\n      jump\t// out\n        /* \"#utility.yul\":6952:7345   */\n    tag_57:\n        /* \"#utility.yul\":7021:7027   */\n      0x00\n        /* \"#utility.yul\":7071:7072   */\n      0x08\n        /* \"#utility.yul\":7059:7069   */\n      dup4\n        /* \"#utility.yul\":7055:7073   */\n      mul\n        /* \"#utility.yul\":7094:7191   */\n      tag_139\n        /* \"#utility.yul\":7124:7190   */\n      0xffffffffffffffffffffffffffffffffffffffffffffffffffffffffffffffff\n        /* \"#utility.yul\":7113:7122   */\n      dup3\n        /* \"#utility.yul\":7094:7191   */\n      tag_56\n      jump\t// in\n    tag_139:\n        /* \"#utility.yul\":7212:7251   */\n      tag_140\n        /* \"#utility.yul\":7242:7250   */\n      dup7\n        /* \"#utility.yul\":7231:7240   */\n      dup4\n        /* \"#utility.yul\":7212:7251   */\n      tag_56\n      jump\t// in\n    tag_140:\n        /* \"#utility.yul\":7200:7251   */\n      swap6\n      pop\n        /* \"#utility.yul\":7284:7288   */\n      dup1\n        /* \"#utility.yul\":7280:7289   */\n      not\n        /* \"#utility.yul\":7273:7278   */\n      dup5\n        /* \"#utility.yul\":7269:7290   */\n      and\n        /* \"#utility.yul\":7260:7290   */\n      swap4\n      pop\n        /* \"#utility.yul\":7333:7337   */\n      dup1\n        /* \"#utility.yul\":7323:7331   */\n      dup7\n        /* \"#utility.yul\":7319:7338   */\n      and\n        /* \"#utility.yul\":7312:7317   */\n      dup5\n        /* \"#utility.yul\":7309:7339   */\n      or\n        /* \"#utility.yul\":7299:7339   */\n      swap3\n      pop\n        /* \"#utility.yul\":7028:7345   */\n      pop\n      pop\n        /* \"#utility.yul\":6952:7345   */\n      swap4\n      swap3\n      pop\n      pop\n      pop\n      jump\t// out\n        /* \"#utility.yul\":7351:7428   */\n    tag_58:\n        /* \"#utility.yul\":7388:7395   */\n      0x00\n        /* \"#utility.yul\":7417:7422   */\n      dup2\n        /* \"#utility.yul\":7406:7422   */\n      swap1\n      pop\n        /* \"#utility.yul\":7351:7428   */\n      swap2\n      swap1\n      pop\n      jump\t// out\n        /* \"#utility.yul\":7434:7494   */\n    tag_59:\n        /* \"#utility.yul\":7462:7465   */\n      0x00\n        /* \"#utility.yul\":7483:7488   */\n      dup2\n        /* \"#utility.yul\":7476:7488   */\n      swap1\n      pop\n        /* \"#utility.yul\":7434:7494   */\n      swap2\n      swap1\n      pop\n      jump\t// out\n        /* \"#utility.yul\":7500:7642   */\n    tag_60:\n        /* \"#utility.yul\":7550:7559   */\n      0x00\n        /* \"#utility.yul\":7583:7636   */\n      tag_144\n        /* \"#utility.yul\":7601:7635   */\n      tag_145\n        /* \"#utility.yul\":7610:7634   */\n      tag_146\n        /* \"#utility.yul\":7628:7633   */\n      dup5\n        /* \"#utility.yul\":7610:7634   */\n      tag_58\n      jump\t// in\n    tag_146:\n        /* \"#utility.yul\":7601:7635   */\n      tag_59\n      jump\t// in\n    tag_145:\n        /* \"#utility.yul\":7583:7636   */\n      tag_58\n      jump\t// in\n    tag_144:\n        /* \"#utility.yul\":7570:7636   */\n      swap1\n      pop\n        /* \"#utility.yul\":7500:7642   */\n      swap2\n      swap1\n      pop\n      jump\t// out\n        /* \"#utility.yul\":7648:7723   */\n    tag_61:\n        /* \"#utility.yul\":7691:7694   */\n      0x00\n        /* \"#utility.yul\":7712:7717   */\n      dup2\n        /* \"#utility.yul\":7705:7717   */\n      swap1\n      pop\n        /* \"#utility.yul\":7648:7723   */\n      swap2\n      swap1\n      pop\n      jump\t// out\n        /* \"#utility.yul\":7729:7998   */\n    tag_62:\n        /* \"#utility.yul\":7839:7878   */\n      tag_149\n        /* \"#utility.yul\":7870:7877   */\n      dup4\n        /* \"#utility.yul\":7839:7878   */\n      tag_60\n      jump\t// in\n    tag_149:\n        /* \"#utility.yul\":7900:7991   */\n      tag_150\n        /* \"#utility.yul\":7949:7990   */\n      tag_151\n        /* \"#utility.yul\":7973:7989   */\n      dup3\n        /* \"#utility.yul\":7949:7990   */\n      tag_61\n      jump\t// in\n    tag_151:\n        /* \"#utility.yul\":7941:7947   */\n      dup5\n        /* \"#utility.yul\":7934:7938   */\n      dup5\n        /* \"#utility.yul\":7928:7939   */\n      sload\n        /* \"#utility.yul\":7900:7991   */\n      tag_57\n      jump\t// in\n    tag_150:\n        /* \"#utility.yul\":7894:7898   */\n      dup3\n        /* \"#utility.yul\":7887:7992   */\n      sstore\n        /* \"#utility.yul\":7805:7998   */\n      pop\n        /* \"#utility.yul\":7729:7998   */\n      pop\n      pop\n      pop\n      jump\t// out\n        /* \"#utility.yul\":8004:8077   */\n    tag_63:\n        /* \"#utility.yul\":8049:8052   */\n      0x00\n        /* \"#utility.yul\":8004:8077   */\n      swap1\n      jump\t// out\n        /* \"#utility.yul\":8083:8272   */\n    tag_64:\n        /* \"#utility.yul\":8160:8192   */\n      tag_154\n      tag_63\n      jump\t// in\n    tag_154:\n        /* \"#utility.yul\":8201:8266   */\n      tag_155\n        /* \"#utility.yul\":8259:8265   */\n      dup2\n        /* \"#utility.yul\":8251:8257   */\n      dup5\n        /* \"#utility.yul\":8245:8249   */\n      dup5\n        /* \"#utility.yul\":8201:8266   */\n      tag_62\n      jump\t// in\n    tag_155:\n        /* \"#utility.yul\":8136:8272   */\n      pop\n        /* \"#utility.yul\":8083:8272   */\n      pop\n      pop\n      jump\t// out\n        /* \"#utility.yul\":8278:8464   */\n    tag_65:\n        /* \"#utility.yul\":8338:8458   */\n    tag_157:\n        /* \"#utility.yul\":8355:8358   */\n      dup2\n        /* \"#utility.yul\":8348:8353   */\n      dup2\n        /* \"#utility.yul\":8345:8359   */\n      lt\n        /* \"#utility.yul\":8338:8458   */\n      iszero\n      tag_159\n      jumpi\n        /* \"#utility.yul\":8409:8448   */\n      tag_160\n        /* \"#utility.yul\":8446:8447   */\n      0x00\n        /* \"#utility.yul\":8439:8444   */\n      dup3\n        /* \"#utility.yul\":8409:8448   */\n      tag_64\n      jump\t// in\n    tag_160:\n        /* \"#utility.yul\":8382:8383   */\n      0x01\n        /* \"#utility.yul\":8375:8380   */\n      dup2\n        /* \"#utility.yul\":8371:8384   */\n      add\n        /* \"#utility.yul\":8362:8384   */\n      swap1\n      pop\n        /* \"#utility.yul\":8338:8458   */\n      jump(tag_157)\n    tag_159:\n        /* \"#utility.yul\":8278:8464   */\n      pop\n      pop\n      jump\t// out\n        /* \"#utility.yul\":8470:9013   */\n    tag_66:\n        /* \"#utility.yul\":8571:8573   */\n      0x1f\n        /* \"#utility.yul\":8566:8569   */\n      dup3\n        /* \"#utility.yul\":8563:8574   */\n      gt\n        /* \"#utility.yul\":8560:9006   */\n      iszero\n      tag_162\n      jumpi\n        /* \"#utility.yul\":8605:8643   */\n      tag_163\n        /* \"#utility.yul\":8637:8642   */\n      dup2\n        /* \"#utility.yul\":8605:8643   */\n      tag_54\n      jump\t// in\n    tag_163:\n        /* \"#utility.yul\":8689:8718   */\n      tag_164\n        /* \"#utility.yul\":8707:8717   */\n      dup5\n        /* \"#utility.yul\":8689:8718   */\n      tag_55\n      jump\t// in\n    tag_164:\n        /* \"#utility.yul\":8679:8687   */\n      dup2\n        /* \"#utility.yul\":8675:8719   */\n      add\n        /* \"#utility.yul\":8872:8874   */\n      0x20\n        /* \"#utility.yul\":8860:8870   */\n      dup6\n        /* \"#utility.yul\":8857:8875   */\n      lt\n        /* \"#utility.yul\":8854:8903   */\n      iszero\n      tag_165\n      jumpi\n        /* \"#utility.yul\":8893:8901   */\n      dup2\n        /* \"#utility.yul\":8878:8901   */\n      swap1\n      pop\n        /* \"#utility.yul\":8854:8903   */\n    tag_165:\n        /* \"#utility.yul\":8916:8996   */\n      tag_166\n        /* \"#utility.yul\":8972:8994   */\n      tag_167\n        /* \"#utility.yul\":8990:8993   */\n      dup6\n        /* \"#utility.yul\":8972:8994   */\n      tag_55\n      jump\t// in\n    tag_167:\n        /* \"#utility.yul\":8962:8970   */\n      dup4\n        /* \"#utility.yul\":8958:8995   */\n      add\n        /* \"#utility.yul\":8945:8956   */\n      dup3\n        /* \"#utility.yul\":8916:8996   */\n      tag_65\n      jump\t// in\n    tag_166:\n        /* \"#utility.yul\":8575:9006   */\n      pop\n      pop\n        /* \"#utility.yul\":8560:9006   */\n    tag_162:\n        /* \"#utility.yul\":8470:9013   */\n      pop\n      pop\n      pop\n      jump\t// out\n        /* \"#utility.yul\":9019:9136   */\n    tag_67:\n        /* \"#utility.yul\":9073:9081   */\n      0x00\n        /* \"#utility.yul\":9123:9128   */\n      dup3\n        /* \"#utility.yul\":9117:9121   */\n      dup3\n        /* \"#utility.yul\":9113:9129   */\n      shr\n        /* \"#utility.yul\":9092:9129   */\n      swap1\n      pop\n        /* \"#utility.yul\":9019:9136   */\n      swap3\n      swap2\n      pop\n      pop\n      jump\t// out\n        /* \"#utility.yul\":9142:9311   */\n    tag_68:\n        /* \"#utility.yul\":9186:9192   */\n      0x00\n        /* \"#utility.yul\":9219:9270   */\n      tag_170\n        /* \"#utility.yul\":9267:9268   */\n      0x00\n        /* \"#utility.yul\":9263:9269   */\n      not\n        /* \"#utility.yul\":9255:9260   */\n      dup5\n        /* \"#utility.yul\":9252:9253   */\n      0x08\n        /* \"#utility.yul\":9248:9261   */\n      mul\n        /* \"#utility.yul\":9219:9270   */\n      tag_67\n      jump\t// in\n    tag_170:\n        /* \"#utility.yul\":9215:9271   */\n      not\n        /* \"#utility.yul\":9300:9304   */\n      dup1\n        /* \"#utility.yul\":9294:9298   */\n      dup4\n        /* \"#utility.yul\":9290:9305   */\n      and\n        /* \"#utility.yul\":9280:9305   */\n      swap2\n      pop\n        /* \"#utility.yul\":9193:9311   */\n      pop\n        /* \"#utility.yul\":9142:9311   */\n      swap3\n      swap2\n      pop\n      pop\n      jump\t// out\n        /* \"#utility.yul\":9316:9611   */\n    tag_69:\n        /* \"#utility.yul\":9392:9396   */\n      0x00\n        /* \"#utility.yul\":9538:9567   */\n      tag_172\n        /* \"#utility.yul\":9563:9566   */\n      dup4\n        /* \"#utility.yul\":9557:9561   */\n      dup4\n        /* \"#utility.yul\":9538:9567   */\n      tag_68\n      jump\t// in\n    tag_172:\n        /* \"#utility.yul\":9530:9567   */\n      swap2\n      pop\n        /* \"#utility.yul\":9600:9603   */\n      dup3\n        /* \"#utility.yul\":9597:9598   */\n      0x02\n        /* \"#utility.yul\":9593:9604   */\n      mul\n        /* \"#utility.yul\":9587:9591   */\n      dup3\n        /* \"#utility.yul\":9584:9605   */\n      or\n        /* \"#utility.yul\":9576:9605   */\n      swap1\n      pop\n        /* \"#utility.yul\":9316:9611   */\n      swap3\n      swap2\n      pop\n      pop\n      jump\t// out\n        /* \"#utility.yul\":9616:11019   */\n    tag_28:\n        /* \"#utility.yul\":9740:9784   */\n      tag_174\n        /* \"#utility.yul\":9780:9783   */\n      dup4\n        /* \"#utility.yul\":9775:9778   */\n      dup4\n        /* \"#utility.yul\":9740:9784   */\n      tag_52\n      jump\t// in\n    tag_174:\n        /* \"#utility.yul\":9849:9867   */\n      0xffffffffffffffff\n        /* \"#utility.yul\":9841:9847   */\n      dup2\n        /* \"#utility.yul\":9838:9868   */\n      gt\n        /* \"#utility.yul\":9835:9891   */\n      iszero\n      tag_175\n      jumpi\n        /* \"#utility.yul\":9871:9889   */\n      tag_176\n      tag_53\n      jump\t// in\n    tag_176:\n        /* \"#utility.yul\":9835:9891   */\n    tag_175:\n        /* \"#utility.yul\":9915:9953   */\n      tag_177\n        /* \"#utility.yul\":9947:9951   */\n      dup3\n        /* \"#utility.yul\":9941:9952   */\n      sload\n        /* \"#utility.yul\":9915:9953   */\n      tag_20\n      jump\t// in\n    tag_177:\n        /* \"#utility.yul\":10000:10067   */\n      tag_178\n        /* \"#utility.yul\":10060:10066   */\n      dup3\n        /* \"#utility.yul\":10052:10058   */\n      dup3\n        /* \"#utility.yul\":10046:10050   */\n      dup6\n        /* \"#utility.yul\":10000:10067   */\n      tag_66\n      jump\t// in\n    tag_178:\n        /* \"#utility.yul\":10094:10095   */\n      0x00\n        /* \"#utility.yul\":10123:10125   */\n      0x1f\n        /* \"#utility.yul\":10115:10121   */\n      dup4\n        /* \"#utility.yul\":10112:10126   */\n      gt\n        /* \"#utility.yul\":10140:10141   */\n      0x01\n        /* \"#utility.yul\":10135:10767   */\n      dup2\n      eq\n      tag_180\n      jumpi\n        /* \"#utility.yul\":10811:10812   */\n      0x00\n        /* \"#utility.yul\":10828:10834   */\n      dup5\n        /* \"#utility.yul\":10825:10909   */\n      iszero\n      tag_181\n      jumpi\n        /* \"#utility.yul\":10884:10893   */\n      dup3\n        /* \"#utility.yul\":10879:10882   */\n      dup8\n        /* \"#utility.yul\":10875:10894   */\n      add\n        /* \"#utility.yul\":10862:10895   */\n      calldataload\n        /* \"#utility.yul\":10853:10895   */\n      swap1\n      pop\n        /* \"#utility.yul\":10825:10909   */\n    tag_181:\n        /* \"#utility.yul\":10935:11002   */\n      tag_182\n        /* \"#utility.yul\":10995:11001   */\n      dup6\n        /* \"#utility.yul\":10988:10993   */\n      dup3\n        /* \"#utility.yul\":10935:11002   */\n      tag_69\n      jump\t// in\n    tag_182:\n        /* \"#utility.yul\":10929:10933   */\n      dup7\n        /* \"#utility.yul\":10922:11003   */\n      sstore\n        /* \"#utility.yul\":10784:11013   */\n      pop\n        /* \"#utility.yul\":10105:11013   */\n      jump(tag_179)\n        /* \"#utility.yul\":10135:10767   */\n    tag_180:\n        /* \"#utility.yul\":10187:10191   */\n      0x1f\n        /* \"#utility.yul\":10183:10192   */\n      not\n        /* \"#utility.yul\":10175:10181   */\n      dup5\n        /* \"#utility.yul\":10171:10193   */\n      and\n        /* \"#utility.yul\":10221:10258   */\n      tag_183\n        /* \"#utility.yul\":10253:10257   */\n      dup7\n        /* \"#utility.yul\":10221:10258   */\n      tag_54\n      jump\t// in\n    tag_183:\n        /* \"#utility.yul\":10280:10281   */\n      0x00\n        /* \"#utility.yul\":10294:10509   */\n    tag_184:\n        /* \"#utility.yul\":10308:10315   */\n      dup3\n        /* \"#utility.yul\":10305:10306   */\n      dup2\n        /* \"#utility.yul\":10302:10316   */\n      lt\n        /* \"#utility.yul\":10294:10509   */\n      iszero\n      tag_186\n      jumpi\n        /* \"#utility.yul\":10394:10403   */\n      dup5\n        /* \"#utility.yul\":10389:10392   */\n      dup10\n        /* \"#utility.yul\":10385:10404   */\n      add\n        /* \"#utility.yul\":10372:10405   */\n      calldataload\n        /* \"#utility.yul\":10364:10370   */\n      dup3\n        /* \"#utility.yul\":10357:10406   */\n      sstore\n        /* \"#utility.yul\":10445:10446   */\n      0x01\n        /* \"#utility.yul\":10437:10443   */\n      dup3\n        /* \"#utility.yul\":10433:10447   */\n      add\n        /* \"#utility.yul\":10423:10447   */\n      swap2\n      pop\n        /* \"#utility.yul\":10492:10494   */\n      0x20\n        /* \"#utility.yul\":10481:10490   */\n      dup6\n        /* \"#utility.yul\":10477:10495   */\n      add\n        /* \"#utility.yul\":10464:10495   */\n      swap5\n      pop\n        /* \"#utility.yul\":10331:10335   */\n      0x20\n        /* \"#utility.yul\":10328:10329   */\n      dup2\n        /* \"#utility.yul\":10324:10336   */\n      add\n        /* \"#utility.yul\":10319:10336   */\n      swap1\n      pop\n        /* \"#utility.yul\":10294:10509   */\n      jump(tag_184)\n    tag_186:\n        /* \"#utility.yul\":10537:10543   */\n      dup7\n        /* \"#utility.yul\":10528:10535   */\n      dup4\n        /* \"#utility.yul\":10525:10544   */\n      lt\n        /* \"#utility.yul\":10522:10708   */\n      iszero\n      tag_187\n      jumpi\n        /* \"#utility.yul\":10602:10611   */\n      dup5\n        /* \"#utility.yul\":10597:10600   */\n      dup10\n        /* \"#utility.yul\":10593:10612   */\n      add\n        /* \"#utility.yul\":10580:10613   */\n      calldataload\n        /* \"#utility.yul\":10645:10693   */\n      tag_188\n        /* \"#utility.yul\":10687:10691   */\n      0x1f\n        /* \"#utility.yul\":10679:10685   */\n      dup10\n        /* \"#utility.yul\":10675:10692   */\n      and\n        /* \"#utility.yul\":10664:10673   */\n      dup3\n        /* \"#utility.yul\":10645:10693   */\n      tag_68\n      jump\t// in\n    tag_188:\n        /* \"#utility.yul\":10637:10643   */\n      dup4\n        /* \"#utility.yul\":10630:10694   */\n      sstore\n        /* \"#utility.yul\":10545:10708   */\n      pop\n        /* \"#utility.yul\":10522:10708   */\n    tag_187:\n        /* \"#utility.yul\":10754:10755   */\n      0x01\n        /* \"#utility.yul\":10750:10751   */\n      0x02\n        /* \"#utility.yul\":10742:10748   */\n      dup9\n        /* \"#utility.yul\":10738:10752   */\n      mul\n        /* \"#utility.yul\":10734:10756   */\n      add\n        /* \"#utility.yul\":10728:10732   */\n      dup9\n        /* \"#utility.yul\":10721:10757   */\n      sstore\n        /* \"#utility.yul\":10142:10767   */\n      pop\n      pop\n      pop\n        /* \"#utility.yul\":10105:11013   */\n    tag_179:\n      pop\n        /* \"#utility.yul\":9715:11019   */\n      pop\n      pop\n      pop\n        /* \"#utility.yul\":9616:11019   */\n      pop\n      pop\n      pop\n      jump\t// out\n\n    auxdata: 0xa2646970667358221220d080ede9787f0b02368397a2b687e3cffaa97654b3b0395c4b8b06cf1e64a7b164736f6c634300081a0033\n}\n",
				"bytecode": {
					"linkReferences": {},
					"object": "6080604052348015600e575f80fd5b506107ce8061001c5f395ff3fe608060405234801561000f575f80fd5b5060043610610034575f3560e01c8063433bf37b14610038578063e37ffc3014610068575b5f80fd5b610052600480360381019061004d919061026f565b610084565b60405161005f91906103c5565b60405180910390f35b610082600480360381019061007d9190610446565b610194565b005b60605f808373ffffffffffffffffffffffffffffffffffffffff1673ffffffffffffffffffffffffffffffffffffffff1681526020019081526020015f20805480602002602001604051908101604052809291908181526020015f905b82821015610189578382905f5260205f200180546100fe906104be565b80601f016020809104026020016040519081016040528092919081815260200182805461012a906104be565b80156101755780601f1061014c57610100808354040283529160200191610175565b820191905f5260205f20905b81548152906001019060200180831161015857829003601f168201915b5050505050815260200190600101906100e1565b505050509050919050565b5f803373ffffffffffffffffffffffffffffffffffffffff1673ffffffffffffffffffffffffffffffffffffffff1681526020019081526020015f20828290918060018154018082558091505060019003905f5260205f20015f9091929091929091929091925091826102089291906106cb565b505050565b5f80fd5b5f80fd5b5f73ffffffffffffffffffffffffffffffffffffffff82169050919050565b5f61023e82610215565b9050919050565b61024e81610234565b8114610258575f80fd5b50565b5f8135905061026981610245565b92915050565b5f602082840312156102845761028361020d565b5b5f6102918482850161025b565b91505092915050565b5f81519050919050565b5f82825260208201905092915050565b5f819050602082019050919050565b5f81519050919050565b5f82825260208201905092915050565b8281835e5f83830152505050565b5f601f19601f8301169050919050565b5f610305826102c3565b61030f81856102cd565b935061031f8185602086016102dd565b610328816102eb565b840191505092915050565b5f61033e83836102fb565b905092915050565b5f602082019050919050565b5f61035c8261029a565b61036681856102a4565b935083602082028501610378856102b4565b805f5b858110156103b357848403895281516103948582610333565b945061039f83610346565b925060208a0199505060018101905061037b565b50829750879550505050505092915050565b5f6020820190508181035f8301526103dd8184610352565b905092915050565b5f80fd5b5f80fd5b5f80fd5b5f8083601f840112610406576104056103e5565b5b8235905067ffffffffffffffff811115610423576104226103e9565b5b60208301915083600182028301111561043f5761043e6103ed565b5b9250929050565b5f806020838503121561045c5761045b61020d565b5b5f83013567ffffffffffffffff81111561047957610478610211565b5b610485858286016103f1565b92509250509250929050565b7f4e487b71000000000000000000000000000000000000000000000000000000005f52602260045260245ffd5b5f60028204905060018216806104d557607f821691505b6020821081036104e8576104e7610491565b5b50919050565b5f82905092915050565b7f4e487b71000000000000000000000000000000000000000000000000000000005f52604160045260245ffd5b5f819050815f5260205f209050919050565b5f6020601f8301049050919050565b5f82821b905092915050565b5f600883026105817fffffffffffffffffffffffffffffffffffffffffffffffffffffffffffffffff82610546565b61058b8683610546565b95508019841693508086168417925050509392505050565b5f819050919050565b5f819050919050565b5f6105cf6105ca6105c5846105a3565b6105ac565b6105a3565b9050919050565b5f819050919050565b6105e8836105b5565b6105fc6105f4826105d6565b848454610552565b825550505050565b5f90565b610610610604565b61061b8184846105df565b505050565b5b8181101561063e576106335f82610608565b600181019050610621565b5050565b601f8211156106835761065481610525565b61065d84610537565b8101602085101561066c578190505b61068061067885610537565b830182610620565b50505b505050565b5f82821c905092915050565b5f6106a35f1984600802610688565b1980831691505092915050565b5f6106bb8383610694565b9150826002028217905092915050565b6106d583836104ee565b67ffffffffffffffff8111156106ee576106ed6104f8565b5b6106f882546104be565b610703828285610642565b5f601f831160018114610730575f841561071e578287013590505b61072885826106b0565b86555061078f565b601f19841661073e86610525565b5f5b8281101561076557848901358255600182019150602085019450602081019050610740565b86831015610782578489013561077e601f891682610694565b8355505b6001600288020188555050505b5050505050505056fea2646970667358221220d080ede9787f0b02368397a2b687e3cffaa97654b3b0395c4b8b06cf1e64a7b164736f6c634300081a0033",
					"opcodes": "PUSH1 0x80 PUSH1 0x40 MSTORE CALLVALUE DUP1 ISZERO PUSH1 0xE JUMPI PUSH0 DUP1 REVERT JUMPDEST POP PUSH2 0x7CE DUP1 PUSH2 0x1C PUSH0 CODECOPY PUSH0 RETURN INVALID PUSH1 0x80 PUSH1 0x40 MSTORE CALLVALUE DUP1 ISZERO PUSH2 0xF JUMPI PUSH0 DUP1 REVERT JUMPDEST POP PUSH1 0x4 CALLDATASIZE LT PUSH2 0x34 JUMPI PUSH0 CALLDATALOAD PUSH1 0xE0 SHR DUP1 PUSH4 0x433BF37B EQ PUSH2 0x38 JUMPI DUP1 PUSH4 0xE37FFC30 EQ PUSH2 0x68 JUMPI JUMPDEST PUSH0 DUP1 REVERT JUMPDEST PUSH2 0x52 PUSH1 0x4 DUP1 CALLDATASIZE SUB DUP2 ADD SWAP1 PUSH2 0x4D SWAP2 SWAP1 PUSH2 0x26F JUMP JUMPDEST PUSH2 0x84 JUMP JUMPDEST PUSH1 0x40 MLOAD PUSH2 0x5F SWAP2 SWAP1 PUSH2 0x3C5 JUMP JUMPDEST PUSH1 0x40 MLOAD DUP1 SWAP2 SUB SWAP1 RETURN JUMPDEST PUSH2 0x82 PUSH1 0x4 DUP1 CALLDATASIZE SUB DUP2 ADD SWAP1 PUSH2 0x7D SWAP2 SWAP1 PUSH2 0x446 JUMP JUMPDEST PUSH2 0x194 JUMP JUMPDEST STOP JUMPDEST PUSH1 0x60 PUSH0 DUP1 DUP4 PUSH20 0xFFFFFFFFFFFFFFFFFFFFFFFFFFFFFFFFFFFFFFFF AND PUSH20 0xFFFFFFFFFFFFFFFFFFFFFFFFFFFFFFFFFFFFFFFF AND DUP2 MSTORE PUSH1 0x20 ADD SWAP1 DUP2 MSTORE PUSH1 0x20 ADD PUSH0 KECCAK256 DUP1 SLOAD DUP1 PUSH1 0x20 MUL PUSH1 0x20 ADD PUSH1 0x40 MLOAD SWAP1 DUP2 ADD PUSH1 0x40 MSTORE DUP1 SWAP3 SWAP2 SWAP1 DUP2 DUP2 MSTORE PUSH1 0x20 ADD PUSH0 SWAP1 JUMPDEST DUP3 DUP3 LT ISZERO PUSH2 0x189 JUMPI DUP4 DUP3 SWAP1 PUSH0 MSTORE PUSH1 0x20 PUSH0 KECCAK256 ADD DUP1 SLOAD PUSH2 0xFE SWAP1 PUSH2 0x4BE JUMP JUMPDEST DUP1 PUSH1 0x1F ADD PUSH1 0x20 DUP1 SWAP2 DIV MUL PUSH1 0x20 ADD PUSH1 0x40 MLOAD SWAP1 DUP2 ADD PUSH1 0x40 MSTORE DUP1 SWAP3 SWAP2 SWAP1 DUP2 DUP2 MSTORE PUSH1 0x20 ADD DUP3 DUP1 SLOAD PUSH2 0x12A SWAP1 PUSH2 0x4BE JUMP JUMPDEST DUP1 ISZERO PUSH2 0x175 JUMPI DUP1 PUSH1 0x1F LT PUSH2 0x14C JUMPI PUSH2 0x100 DUP1 DUP4 SLOAD DIV MUL DUP4 MSTORE SWAP2 PUSH1 0x20 ADD SWAP2 PUSH2 0x175 JUMP JUMPDEST DUP3 ADD SWAP2 SWAP1 PUSH0 MSTORE PUSH1 0x20 PUSH0 KECCAK256 SWAP1 JUMPDEST DUP2 SLOAD DUP2 MSTORE SWAP1 PUSH1 0x1 ADD SWAP1 PUSH1 0x20 ADD DUP1 DUP4 GT PUSH2 0x158 JUMPI DUP3 SWAP1 SUB PUSH1 0x1F AND DUP3 ADD SWAP2 JUMPDEST POP POP POP POP POP DUP2 MSTORE PUSH1 0x20 ADD SWAP1 PUSH1 0x1 ADD SWAP1 PUSH2 0xE1 JUMP JUMPDEST POP POP POP POP SWAP1 POP SWAP2 SWAP1 POP JUMP JUMPDEST PUSH0 DUP1 CALLER PUSH20 0xFFFFFFFFFFFFFFFFFFFFFFFFFFFFFFFFFFFFFFFF AND PUSH20 0xFFFFFFFFFFFFFFFFFFFFFFFFFFFFFFFFFFFFFFFF AND DUP2 MSTORE PUSH1 0x20 ADD SWAP1 DUP2 MSTORE PUSH1 0x20 ADD PUSH0 KECCAK256 DUP3 DUP3 SWAP1 SWAP2 DUP1 PUSH1 0x1 DUP2 SLOAD ADD DUP1 DUP3 SSTORE DUP1 SWAP2 POP POP PUSH1 0x1 SWAP1 SUB SWAP1 PUSH0 MSTORE PUSH1 0x20 PUSH0 KECCAK256 ADD PUSH0 SWAP1 SWAP2 SWAP3 SWAP1 SWAP2 SWAP3 SWAP1 SWAP2 SWAP3 SWAP1 SWAP2 SWAP3 POP SWAP2 DUP3 PUSH2 0x208 SWAP3 SWAP2 SWAP1 PUSH2 0x6CB JUMP JUMPDEST POP POP POP JUMP JUMPDEST PUSH0 DUP1 REVERT JUMPDEST PUSH0 DUP1 REVERT JUMPDEST PUSH0 PUSH20 0xFFFFFFFFFFFFFFFFFFFFFFFFFFFFFFFFFFFFFFFF DUP3 AND SWAP1 POP SWAP2 SWAP1 POP JUMP JUMPDEST PUSH0 PUSH2 0x23E DUP3 PUSH2 0x215 JUMP JUMPDEST SWAP1 POP SWAP2 SWAP1 POP JUMP JUMPDEST PUSH2 0x24E DUP2 PUSH2 0x234 JUMP JUMPDEST DUP2 EQ PUSH2 0x258 JUMPI PUSH0 DUP1 REVERT JUMPDEST POP JUMP JUMPDEST PUSH0 DUP2 CALLDATALOAD SWAP1 POP PUSH2 0x269 DUP2 PUSH2 0x245 JUMP JUMPDEST SWAP3 SWAP2 POP POP JUMP JUMPDEST PUSH0 PUSH1 0x20 DUP3 DUP5 SUB SLT ISZERO PUSH2 0x284 JUMPI PUSH2 0x283 PUSH2 0x20D JUMP JUMPDEST JUMPDEST PUSH0 PUSH2 0x291 DUP5 DUP3 DUP6 ADD PUSH2 0x25B JUMP JUMPDEST SWAP2 POP POP SWAP3 SWAP2 POP POP JUMP JUMPDEST PUSH0 DUP2 MLOAD SWAP1 POP SWAP2 SWAP1 POP JUMP JUMPDEST PUSH0 DUP3 DUP3 MSTORE PUSH1 0x20 DUP3 ADD SWAP1 POP SWAP3 SWAP2 POP POP JUMP JUMPDEST PUSH0 DUP2 SWAP1 POP PUSH1 0x20 DUP3 ADD SWAP1 POP SWAP2 SWAP1 POP JUMP JUMPDEST PUSH0 DUP2 MLOAD SWAP1 POP SWAP2 SWAP1 POP JUMP JUMPDEST PUSH0 DUP3 DUP3 MSTORE PUSH1 0x20 DUP3 ADD SWAP1 POP SWAP3 SWAP2 POP POP JUMP JUMPDEST DUP3 DUP2 DUP4 MCOPY PUSH0 DUP4 DUP4 ADD MSTORE POP POP POP JUMP JUMPDEST PUSH0 PUSH1 0x1F NOT PUSH1 0x1F DUP4 ADD AND SWAP1 POP SWAP2 SWAP1 POP JUMP JUMPDEST PUSH0 PUSH2 0x305 DUP3 PUSH2 0x2C3 JUMP JUMPDEST PUSH2 0x30F DUP2 DUP6 PUSH2 0x2CD JUMP JUMPDEST SWAP4 POP PUSH2 0x31F DUP2 DUP6 PUSH1 0x20 DUP7 ADD PUSH2 0x2DD JUMP JUMPDEST PUSH2 0x328 DUP2 PUSH2 0x2EB JUMP JUMPDEST DUP5 ADD SWAP2 POP POP SWAP3 SWAP2 POP POP JUMP JUMPDEST PUSH0 PUSH2 0x33E DUP4 DUP4 PUSH2 0x2FB JUMP JUMPDEST SWAP1 POP SWAP3 SWAP2 POP POP JUMP JUMPDEST PUSH0 PUSH1 0x20 DUP3 ADD SWAP1 POP SWAP2 SWAP1 POP JUMP JUMPDEST PUSH0 PUSH2 0x35C DUP3 PUSH2 0x29A JUMP JUMPDEST PUSH2 0x366 DUP2 DUP6 PUSH2 0x2A4 JUMP JUMPDEST SWAP4 POP DUP4 PUSH1 0x20 DUP3 MUL DUP6 ADD PUSH2 0x378 DUP6 PUSH2 0x2B4 JUMP JUMPDEST DUP1 PUSH0 JUMPDEST DUP6 DUP2 LT ISZERO PUSH2 0x3B3 JUMPI DUP5 DUP5 SUB DUP10 MSTORE DUP2 MLOAD PUSH2 0x394 DUP6 DUP3 PUSH2 0x333 JUMP JUMPDEST SWAP5 POP PUSH2 0x39F DUP4 PUSH2 0x346 JUMP JUMPDEST SWAP3 POP PUSH1 0x20 DUP11 ADD SWAP10 POP POP PUSH1 0x1 DUP2 ADD SWAP1 POP PUSH2 0x37B JUMP JUMPDEST POP DUP3 SWAP8 POP DUP8 SWAP6 POP POP POP POP POP POP SWAP3 SWAP2 POP POP JUMP JUMPDEST PUSH0 PUSH1 0x20 DUP3 ADD SWAP1 POP DUP2 DUP2 SUB PUSH0 DUP4 ADD MSTORE PUSH2 0x3DD DUP2 DUP5 PUSH2 0x352 JUMP JUMPDEST SWAP1 POP SWAP3 SWAP2 POP POP JUMP JUMPDEST PUSH0 DUP1 REVERT JUMPDEST PUSH0 DUP1 REVERT JUMPDEST PUSH0 DUP1 REVERT JUMPDEST PUSH0 DUP1 DUP4 PUSH1 0x1F DUP5 ADD SLT PUSH2 0x406 JUMPI PUSH2 0x405 PUSH2 0x3E5 JUMP JUMPDEST JUMPDEST DUP3 CALLDATALOAD SWAP1 POP PUSH8 0xFFFFFFFFFFFFFFFF DUP2 GT ISZERO PUSH2 0x423 JUMPI PUSH2 0x422 PUSH2 0x3E9 JUMP JUMPDEST JUMPDEST PUSH1 0x20 DUP4 ADD SWAP2 POP DUP4 PUSH1 0x1 DUP3 MUL DUP4 ADD GT ISZERO PUSH2 0x43F JUMPI PUSH2 0x43E PUSH2 0x3ED JUMP JUMPDEST JUMPDEST SWAP3 POP SWAP3 SWAP1 POP JUMP JUMPDEST PUSH0 DUP1 PUSH1 0x20 DUP4 DUP6 SUB SLT ISZERO PUSH2 0x45C JUMPI PUSH2 0x45B PUSH2 0x20D JUMP JUMPDEST JUMPDEST PUSH0 DUP4 ADD CALLDATALOAD PUSH8 0xFFFFFFFFFFFFFFFF DUP2 GT ISZERO PUSH2 0x479 JUMPI PUSH2 0x478 PUSH2 0x211 JUMP JUMPDEST JUMPDEST PUSH2 0x485 DUP6 DUP3 DUP7 ADD PUSH2 0x3F1 JUMP JUMPDEST SWAP3 POP SWAP3 POP POP SWAP3 POP SWAP3 SWAP1 POP JUMP JUMPDEST PUSH32 0x4E487B7100000000000000000000000000000000000000000000000000000000 PUSH0 MSTORE PUSH1 0x22 PUSH1 0x4 MSTORE PUSH1 0x24 PUSH0 REVERT JUMPDEST PUSH0 PUSH1 0x2 DUP3 DIV SWAP1 POP PUSH1 0x1 DUP3 AND DUP1 PUSH2 0x4D5 JUMPI PUSH1 0x7F DUP3 AND SWAP2 POP JUMPDEST PUSH1 0x20 DUP3 LT DUP2 SUB PUSH2 0x4E8 JUMPI PUSH2 0x4E7 PUSH2 0x491 JUMP JUMPDEST JUMPDEST POP SWAP2 SWAP1 POP JUMP JUMPDEST PUSH0 DUP3 SWAP1 POP SWAP3 SWAP2 POP POP JUMP JUMPDEST PUSH32 0x4E487B7100000000000000000000000000000000000000000000000000000000 PUSH0 MSTORE PUSH1 0x41 PUSH1 0x4 MSTORE PUSH1 0x24 PUSH0 REVERT JUMPDEST PUSH0 DUP2 SWAP1 POP DUP2 PUSH0 MSTORE PUSH1 0x20 PUSH0 KECCAK256 SWAP1 POP SWAP2 SWAP1 POP JUMP JUMPDEST PUSH0 PUSH1 0x20 PUSH1 0x1F DUP4 ADD DIV SWAP1 POP SWAP2 SWAP1 POP JUMP JUMPDEST PUSH0 DUP3 DUP3 SHL SWAP1 POP SWAP3 SWAP2 POP POP JUMP JUMPDEST PUSH0 PUSH1 0x8 DUP4 MUL PUSH2 0x581 PUSH32 0xFFFFFFFFFFFFFFFFFFFFFFFFFFFFFFFFFFFFFFFFFFFFFFFFFFFFFFFFFFFFFFFF DUP3 PUSH2 0x546 JUMP JUMPDEST PUSH2 0x58B DUP7 DUP4 PUSH2 0x546 JUMP JUMPDEST SWAP6 POP DUP1 NOT DUP5 AND SWAP4 POP DUP1 DUP7 AND DUP5 OR SWAP3 POP POP POP SWAP4 SWAP3 POP POP POP JUMP JUMPDEST PUSH0 DUP2 SWAP1 POP SWAP2 SWAP1 POP JUMP JUMPDEST PUSH0 DUP2 SWAP1 POP SWAP2 SWAP1 POP JUMP JUMPDEST PUSH0 PUSH2 0x5CF PUSH2 0x5CA PUSH2 0x5C5 DUP5 PUSH2 0x5A3 JUMP JUMPDEST PUSH2 0x5AC JUMP JUMPDEST PUSH2 0x5A3 JUMP JUMPDEST SWAP1 POP SWAP2 SWAP1 POP JUMP JUMPDEST PUSH0 DUP2 SWAP1 POP SWAP2 SWAP1 POP JUMP JUMPDEST PUSH2 0x5E8 DUP4 PUSH2 0x5B5 JUMP JUMPDEST PUSH2 0x5FC PUSH2 0x5F4 DUP3 PUSH2 0x5D6 JUMP JUMPDEST DUP5 DUP5 SLOAD PUSH2 0x552 JUMP JUMPDEST DUP3 SSTORE POP POP POP POP JUMP JUMPDEST PUSH0 SWAP1 JUMP JUMPDEST PUSH2 0x610 PUSH2 0x604 JUMP JUMPDEST PUSH2 0x61B DUP2 DUP5 DUP5 PUSH2 0x5DF JUMP JUMPDEST POP POP POP JUMP JUMPDEST JUMPDEST DUP2 DUP2 LT ISZERO PUSH2 0x63E JUMPI PUSH2 0x633 PUSH0 DUP3 PUSH2 0x608 JUMP JUMPDEST PUSH1 0x1 DUP2 ADD SWAP1 POP PUSH2 0x621 JUMP JUMPDEST POP POP JUMP JUMPDEST PUSH1 0x1F DUP3 GT ISZERO PUSH2 0x683 JUMPI PUSH2 0x654 DUP2 PUSH2 0x525 JUMP JUMPDEST PUSH2 0x65D DUP5 PUSH2 0x537 JUMP JUMPDEST DUP2 ADD PUSH1 0x20 DUP6 LT ISZERO PUSH2 0x66C JUMPI DUP2 SWAP1 POP JUMPDEST PUSH2 0x680 PUSH2 0x678 DUP6 PUSH2 0x537 JUMP JUMPDEST DUP4 ADD DUP3 PUSH2 0x620 JUMP JUMPDEST POP POP JUMPDEST POP POP POP JUMP JUMPDEST PUSH0 DUP3 DUP3 SHR SWAP1 POP SWAP3 SWAP2 POP POP JUMP JUMPDEST PUSH0 PUSH2 0x6A3 PUSH0 NOT DUP5 PUSH1 0x8 MUL PUSH2 0x688 JUMP JUMPDEST NOT DUP1 DUP4 AND SWAP2 POP POP SWAP3 SWAP2 POP POP JUMP JUMPDEST PUSH0 PUSH2 0x6BB DUP4 DUP4 PUSH2 0x694 JUMP JUMPDEST SWAP2 POP DUP3 PUSH1 0x2 MUL DUP3 OR SWAP1 POP SWAP3 SWAP2 POP POP JUMP JUMPDEST PUSH2 0x6D5 DUP4 DUP4 PUSH2 0x4EE JUMP JUMPDEST PUSH8 0xFFFFFFFFFFFFFFFF DUP2 GT ISZERO PUSH2 0x6EE JUMPI PUSH2 0x6ED PUSH2 0x4F8 JUMP JUMPDEST JUMPDEST PUSH2 0x6F8 DUP3 SLOAD PUSH2 0x4BE JUMP JUMPDEST PUSH2 0x703 DUP3 DUP3 DUP6 PUSH2 0x642 JUMP JUMPDEST PUSH0 PUSH1 0x1F DUP4 GT PUSH1 0x1 DUP2 EQ PUSH2 0x730 JUMPI PUSH0 DUP5 ISZERO PUSH2 0x71E JUMPI DUP3 DUP8 ADD CALLDATALOAD SWAP1 POP JUMPDEST PUSH2 0x728 DUP6 DUP3 PUSH2 0x6B0 JUMP JUMPDEST DUP7 SSTORE POP PUSH2 0x78F JUMP JUMPDEST PUSH1 0x1F NOT DUP5 AND PUSH2 0x73E DUP7 PUSH2 0x525 JUMP JUMPDEST PUSH0 JUMPDEST DUP3 DUP2 LT ISZERO PUSH2 0x765 JUMPI DUP5 DUP10 ADD CALLDATALOAD DUP3 SSTORE PUSH1 0x1 DUP3 ADD SWAP2 POP PUSH1 0x20 DUP6 ADD SWAP5 POP PUSH1 0x20 DUP2 ADD SWAP1 POP PUSH2 0x740 JUMP JUMPDEST DUP7 DUP4 LT ISZERO PUSH2 0x782 JUMPI DUP5 DUP10 ADD CALLDATALOAD PUSH2 0x77E PUSH1 0x1F DUP10 AND DUP3 PUSH2 0x694 JUMP JUMPDEST DUP4 SSTORE POP JUMPDEST PUSH1 0x1 PUSH1 0x2 DUP9 MUL ADD DUP9 SSTORE POP POP POP JUMPDEST POP POP POP POP POP POP POP JUMP INVALID LOG2 PUSH5 0x6970667358 0x22 SLT KECCAK256 0xD0 DUP1 0xED 0xE9 PUSH25 0x7F0B02368397A2B687E3CFFAA97654B3B0395C4B8B06CF1E64 0xA7 0xB1 PUSH5 0x736F6C6343 STOP ADDMOD BYTE STOP CALLER "
				},
				"gasEstimates": {
					"creation": {
						"codeDepositCost": "399600",
						"executionCost": "434",
						"totalCost": "400034"
					},
					"external": {
						"getFiles(address)": "infinite",
						"uploadFile(string)": "infinite"
					}
				},
				"methodIdentifiers": {
					"getFiles(address)": "433bf37b",
					"uploadFile(string)": "e37ffc30"
				}
			},
			"storageLayout": {
				"storage": [
					{
						"astId": 9,
						"contract": "contracts/cipherzero/cipherTorrentIntegration.sol:BitTorrentIntegration",
						"label": "userFiles",
						"offset": 0,
						"slot": "0",
						"type": "t_mapping(t_address,t_array(t_string_storage)dyn_storage)"
					}
				],
				"types": {
					"t_address": {
						"encoding": "inplace",
						"label": "address",
						"numberOfBytes": "20"
					},
					"t_array(t_string_storage)dyn_storage": {
						"base": "t_string_storage",
						"encoding": "dynamic_array",
						"label": "string[]",
						"numberOfBytes": "32"
					},
					"t_mapping(t_address,t_array(t_string_storage)dyn_storage)": {
						"encoding": "mapping",
						"key": "t_address",
						"label": "mapping(address => string[])",
						"numberOfBytes": "32",
						"value": "t_array(t_string_storage)dyn_storage"
					},
					"t_string_storage": {
						"encoding": "bytes",
						"label": "string",
						"numberOfBytes": "32"
					}
				}
			},
			"userdoc": {
				"kind": "user",
				"methods": {},
				"version": 1
			}
		}
	}
}