{
	"data": {
		"bytecode": {
			"linkReferences": {},
			"object": "6080604052730290fb167208af455bb137780163b7b7a9a10c165f806101000a81548173ffffffffffffffffffffffffffffffffffffffff021916908373ffffffffffffffffffffffffffffffffffffffff1602179055505f8054906101000a900473ffffffffffffffffffffffffffffffffffffffff1660015f6101000a81548173ffffffffffffffffffffffffffffffffffffffff021916908373ffffffffffffffffffffffffffffffffffffffff160217905550732d8be6bf0baa74e0a907016679cae9190e80dd0a60025f6101000a81548173ffffffffffffffffffffffffffffffffffffffff021916908373ffffffffffffffffffffffffffffffffffffffff16021790555060025f9054906101000a900473ffffffffffffffffffffffffffffffffffffffff1660035f6101000a81548173ffffffffffffffffffffffffffffffffffffffff021916908373ffffffffffffffffffffffffffffffffffffffff1602179055505f600360146101000a81548163ffffffff021916908363ffffffff160217905550348015610197575f80fd5b503360065f6101000a81548173ffffffffffffffffffffffffffffffffffffffff021916908373ffffffffffffffffffffffffffffffffffffffff160217905550610aaa806101e55f395ff3fe608060405234801561000f575f80fd5b5060043610610055575f3560e01c80630fc7d69014610059578063584fef73146100895780635f327e1c146100a757806368a3e36d146100c357806383b3ac5e146100f3575b5f80fd5b610073600480360381019061006e919061050e565b610123565b6040516100809190610553565b60405180910390f35b6100916101e6565b60405161009e919061057b565b60405180910390f35b6100c160048036038101906100bc91906105fe565b610285565b005b6100dd60048036038101906100d891906106a7565b610336565b6040516100ea919061057b565b60405180910390f35b61010d600480360381019061010891906106d2565b6103b6565b60405161011a9190610744565b60405180910390f35b5f60035f9054906101000a900473ffffffffffffffffffffffffffffffffffffffff1673ffffffffffffffffffffffffffffffffffffffff1663095ea7b35f8054906101000a900473ffffffffffffffffffffffffffffffffffffffff16846040518363ffffffff1660e01b815260040161019f92919061076c565b6020604051808303815f875af11580156101bb573d5f803e3d5ffd5b505050506040513d601f19601f820116820180604052508101906101df91906107bd565b9050919050565b5f60035f9054906101000a900473ffffffffffffffffffffffffffffffffffffffff1673ffffffffffffffffffffffffffffffffffffffff166370a08231306040518263ffffffff1660e01b815260040161024191906107e8565b602060405180830381865afa15801561025c573d5f803e3d5ffd5b505050506040513d601f19601f820116820180604052508101906102809190610815565b905090565b60065f9054906101000a900473ffffffffffffffffffffffffffffffffffffffff1673ffffffffffffffffffffffffffffffffffffffff163373ffffffffffffffffffffffffffffffffffffffff1614610314576040517f08c379a000000000000000000000000000000000000000000000000000000000815260040161030b906108c0565b60405180910390fd5b8060045f8461ffff1661ffff1681526020019081526020015f20819055505050565b5f8173ffffffffffffffffffffffffffffffffffffffff166370a08231306040518263ffffffff1660e01b815260040161037091906107e8565b602060405180830381865afa15801561038b573d5f803e3d5ffd5b505050506040513d601f19601f820116820180604052508101906103af9190610815565b9050919050565b5f6001600360148282829054906101000a900463ffffffff166103d9919061091a565b92506101000a81548163ffffffff021916908363ffffffff16021790555060015f9054906101000a900473ffffffffffffffffffffffffffffffffffffffff1673ffffffffffffffffffffffffffffffffffffffff16630f5287b060025f9054906101000a900473ffffffffffffffffffffffffffffffffffffffff168686865f600360149054906101000a900463ffffffff166040518763ffffffff1660e01b815260040161048e969594939291906109c0565b6020604051808303815f875af11580156104aa573d5f803e3d5ffd5b505050506040513d601f19601f820116820180604052508101906104ce9190610a49565b90509392505050565b5f80fd5b5f819050919050565b6104ed816104db565b81146104f7575f80fd5b50565b5f81359050610508816104e4565b92915050565b5f60208284031215610523576105226104d7565b5b5f610530848285016104fa565b91505092915050565b5f8115159050919050565b61054d81610539565b82525050565b5f6020820190506105665f830184610544565b92915050565b610575816104db565b82525050565b5f60208201905061058e5f83018461056c565b92915050565b5f61ffff82169050919050565b6105aa81610594565b81146105b4575f80fd5b50565b5f813590506105c5816105a1565b92915050565b5f819050919050565b6105dd816105cb565b81146105e7575f80fd5b50565b5f813590506105f8816105d4565b92915050565b5f8060408385031215610614576106136104d7565b5b5f610621858286016105b7565b9250506020610632858286016105ea565b9150509250929050565b5f73ffffffffffffffffffffffffffffffffffffffff82169050919050565b5f6106658261063c565b9050919050565b5f6106768261065b565b9050919050565b6106868161066c565b8114610690575f80fd5b50565b5f813590506106a18161067d565b92915050565b5f602082840312156106bc576106bb6104d7565b5b5f6106c984828501610693565b91505092915050565b5f805f606084860312156106e9576106e86104d7565b5b5f6106f6868287016104fa565b9350506020610707868287016105b7565b9250506040610718868287016105ea565b9150509250925092565b5f67ffffffffffffffff82169050919050565b61073e81610722565b82525050565b5f6020820190506107575f830184610735565b92915050565b6107668161065b565b82525050565b5f60408201905061077f5f83018561075d565b61078c602083018461056c565b9392505050565b61079c81610539565b81146107a6575f80fd5b50565b5f815190506107b781610793565b92915050565b5f602082840312156107d2576107d16104d7565b5b5f6107df848285016107a9565b91505092915050565b5f6020820190506107fb5f83018461075d565b92915050565b5f8151905061080f816104e4565b92915050565b5f6020828403121561082a576108296104d7565b5b5f61083784828501610801565b91505092915050565b5f82825260208201905092915050565b7f4f6e6c79206f776e65722063616e207265676973746572206e657720636861695f8201527f6e73210000000000000000000000000000000000000000000000000000000000602082015250565b5f6108aa602383610840565b91506108b582610850565b604082019050919050565b5f6020820190508181035f8301526108d78161089e565b9050919050565b5f63ffffffff82169050919050565b7f4e487b71000000000000000000000000000000000000000000000000000000005f52601160045260245ffd5b5f610924826108de565b915061092f836108de565b9250828201905063ffffffff81111561094b5761094a6108ed565b5b92915050565b61095a81610594565b82525050565b610969816105cb565b82525050565b5f819050919050565b5f819050919050565b5f61099b6109966109918461096f565b610978565b6104db565b9050919050565b6109ab81610981565b82525050565b6109ba816108de565b82525050565b5f60c0820190506109d35f83018961075d565b6109e0602083018861056c565b6109ed6040830187610951565b6109fa6060830186610960565b610a0760808301856109a2565b610a1460a08301846109b1565b979650505050505050565b610a2881610722565b8114610a32575f80fd5b50565b5f81519050610a4381610a1f565b92915050565b5f60208284031215610a5e57610a5d6104d7565b5b5f610a6b84828501610a35565b9150509291505056fea2646970667358221220b3bb63d5970c3c797a89bd0f27ee0a7206c21dbb7a8424469ffc19989e80af2264736f6c634300081a0033",
			"opcodes": "PUSH1 0x80 PUSH1 0x40 MSTORE PUSH20 0x290FB167208AF455BB137780163B7B7A9A10C16 PUSH0 DUP1 PUSH2 0x100 EXP DUP2 SLOAD DUP2 PUSH20 0xFFFFFFFFFFFFFFFFFFFFFFFFFFFFFFFFFFFFFFFF MUL NOT AND SWAP1 DUP4 PUSH20 0xFFFFFFFFFFFFFFFFFFFFFFFFFFFFFFFFFFFFFFFF AND MUL OR SWAP1 SSTORE POP PUSH0 DUP1 SLOAD SWAP1 PUSH2 0x100 EXP SWAP1 DIV PUSH20 0xFFFFFFFFFFFFFFFFFFFFFFFFFFFFFFFFFFFFFFFF AND PUSH1 0x1 PUSH0 PUSH2 0x100 EXP DUP2 SLOAD DUP2 PUSH20 0xFFFFFFFFFFFFFFFFFFFFFFFFFFFFFFFFFFFFFFFF MUL NOT AND SWAP1 DUP4 PUSH20 0xFFFFFFFFFFFFFFFFFFFFFFFFFFFFFFFFFFFFFFFF AND MUL OR SWAP1 SSTORE POP PUSH20 0x2D8BE6BF0BAA74E0A907016679CAE9190E80DD0A PUSH1 0x2 PUSH0 PUSH2 0x100 EXP DUP2 SLOAD DUP2 PUSH20 0xFFFFFFFFFFFFFFFFFFFFFFFFFFFFFFFFFFFFFFFF MUL NOT AND SWAP1 DUP4 PUSH20 0xFFFFFFFFFFFFFFFFFFFFFFFFFFFFFFFFFFFFFFFF AND MUL OR SWAP1 SSTORE POP PUSH1 0x2 PUSH0 SWAP1 SLOAD SWAP1 PUSH2 0x100 EXP SWAP1 DIV PUSH20 0xFFFFFFFFFFFFFFFFFFFFFFFFFFFFFFFFFFFFFFFF AND PUSH1 0x3 PUSH0 PUSH2 0x100 EXP DUP2 SLOAD DUP2 PUSH20 0xFFFFFFFFFFFFFFFFFFFFFFFFFFFFFFFFFFFFFFFF MUL NOT AND SWAP1 DUP4 PUSH20 0xFFFFFFFFFFFFFFFFFFFFFFFFFFFFFFFFFFFFFFFF AND MUL OR SWAP1 SSTORE POP PUSH0 PUSH1 0x3 PUSH1 0x14 PUSH2 0x100 EXP DUP2 SLOAD DUP2 PUSH4 0xFFFFFFFF MUL NOT AND SWAP1 DUP4 PUSH4 0xFFFFFFFF AND MUL OR SWAP1 SSTORE POP CALLVALUE DUP1 ISZERO PUSH2 0x197 JUMPI PUSH0 DUP1 REVERT JUMPDEST POP CALLER PUSH1 0x6 PUSH0 PUSH2 0x100 EXP DUP2 SLOAD DUP2 PUSH20 0xFFFFFFFFFFFFFFFFFFFFFFFFFFFFFFFFFFFFFFFF MUL NOT AND SWAP1 DUP4 PUSH20 0xFFFFFFFFFFFFFFFFFFFFFFFFFFFFFFFFFFFFFFFF AND MUL OR SWAP1 SSTORE POP PUSH2 0xAAA DUP1 PUSH2 0x1E5 PUSH0 CODECOPY PUSH0 RETURN INVALID PUSH1 0x80 PUSH1 0x40 MSTORE CALLVALUE DUP1 ISZERO PUSH2 0xF JUMPI PUSH0 DUP1 REVERT JUMPDEST POP PUSH1 0x4 CALLDATASIZE LT PUSH2 0x55 JUMPI PUSH0 CALLDATALOAD PUSH1 0xE0 SHR DUP1 PUSH4 0xFC7D690 EQ PUSH2 0x59 JUMPI DUP1 PUSH4 0x584FEF73 EQ PUSH2 0x89 JUMPI DUP1 PUSH4 0x5F327E1C EQ PUSH2 0xA7 JUMPI DUP1 PUSH4 0x68A3E36D EQ PUSH2 0xC3 JUMPI DUP1 PUSH4 0x83B3AC5E EQ PUSH2 0xF3 JUMPI JUMPDEST PUSH0 DUP1 REVERT JUMPDEST PUSH2 0x73 PUSH1 0x4 DUP1 CALLDATASIZE SUB DUP2 ADD SWAP1 PUSH2 0x6E SWAP2 SWAP1 PUSH2 0x50E JUMP JUMPDEST PUSH2 0x123 JUMP JUMPDEST PUSH1 0x40 MLOAD PUSH2 0x80 SWAP2 SWAP1 PUSH2 0x553 JUMP JUMPDEST PUSH1 0x40 MLOAD DUP1 SWAP2 SUB SWAP1 RETURN JUMPDEST PUSH2 0x91 PUSH2 0x1E6 JUMP JUMPDEST PUSH1 0x40 MLOAD PUSH2 0x9E SWAP2 SWAP1 PUSH2 0x57B JUMP JUMPDEST PUSH1 0x40 MLOAD DUP1 SWAP2 SUB SWAP1 RETURN JUMPDEST PUSH2 0xC1 PUSH1 0x4 DUP1 CALLDATASIZE SUB DUP2 ADD SWAP1 PUSH2 0xBC SWAP2 SWAP1 PUSH2 0x5FE JUMP JUMPDEST PUSH2 0x285 JUMP JUMPDEST STOP JUMPDEST PUSH2 0xDD PUSH1 0x4 DUP1 CALLDATASIZE SUB DUP2 ADD SWAP1 PUSH2 0xD8 SWAP2 SWAP1 PUSH2 0x6A7 JUMP JUMPDEST PUSH2 0x336 JUMP JUMPDEST PUSH1 0x40 MLOAD PUSH2 0xEA SWAP2 SWAP1 PUSH2 0x57B JUMP JUMPDEST PUSH1 0x40 MLOAD DUP1 SWAP2 SUB SWAP1 RETURN JUMPDEST PUSH2 0x10D PUSH1 0x4 DUP1 CALLDATASIZE SUB DUP2 ADD SWAP1 PUSH2 0x108 SWAP2 SWAP1 PUSH2 0x6D2 JUMP JUMPDEST PUSH2 0x3B6 JUMP JUMPDEST PUSH1 0x40 MLOAD PUSH2 0x11A SWAP2 SWAP1 PUSH2 0x744 JUMP JUMPDEST PUSH1 0x40 MLOAD DUP1 SWAP2 SUB SWAP1 RETURN JUMPDEST PUSH0 PUSH1 0x3 PUSH0 SWAP1 SLOAD SWAP1 PUSH2 0x100 EXP SWAP1 DIV PUSH20 0xFFFFFFFFFFFFFFFFFFFFFFFFFFFFFFFFFFFFFFFF AND PUSH20 0xFFFFFFFFFFFFFFFFFFFFFFFFFFFFFFFFFFFFFFFF AND PUSH4 0x95EA7B3 PUSH0 DUP1 SLOAD SWAP1 PUSH2 0x100 EXP SWAP1 DIV PUSH20 0xFFFFFFFFFFFFFFFFFFFFFFFFFFFFFFFFFFFFFFFF AND DUP5 PUSH1 0x40 MLOAD DUP4 PUSH4 0xFFFFFFFF AND PUSH1 0xE0 SHL DUP2 MSTORE PUSH1 0x4 ADD PUSH2 0x19F SWAP3 SWAP2 SWAP1 PUSH2 0x76C JUMP JUMPDEST PUSH1 0x20 PUSH1 0x40 MLOAD DUP1 DUP4 SUB DUP2 PUSH0 DUP8 GAS CALL ISZERO DUP1 ISZERO PUSH2 0x1BB JUMPI RETURNDATASIZE PUSH0 DUP1 RETURNDATACOPY RETURNDATASIZE PUSH0 REVERT JUMPDEST POP POP POP POP PUSH1 0x40 MLOAD RETURNDATASIZE PUSH1 0x1F NOT PUSH1 0x1F DUP3 ADD AND DUP3 ADD DUP1 PUSH1 0x40 MSTORE POP DUP2 ADD SWAP1 PUSH2 0x1DF SWAP2 SWAP1 PUSH2 0x7BD JUMP JUMPDEST SWAP1 POP SWAP2 SWAP1 POP JUMP JUMPDEST PUSH0 PUSH1 0x3 PUSH0 SWAP1 SLOAD SWAP1 PUSH2 0x100 EXP SWAP1 DIV PUSH20 0xFFFFFFFFFFFFFFFFFFFFFFFFFFFFFFFFFFFFFFFF AND PUSH20 0xFFFFFFFFFFFFFFFFFFFFFFFFFFFFFFFFFFFFFFFF AND PUSH4 0x70A08231 ADDRESS PUSH1 0x40 MLOAD DUP3 PUSH4 0xFFFFFFFF AND PUSH1 0xE0 SHL DUP2 MSTORE PUSH1 0x4 ADD PUSH2 0x241 SWAP2 SWAP1 PUSH2 0x7E8 JUMP JUMPDEST PUSH1 0x20 PUSH1 0x40 MLOAD DUP1 DUP4 SUB DUP2 DUP7 GAS STATICCALL ISZERO DUP1 ISZERO PUSH2 0x25C JUMPI RETURNDATASIZE PUSH0 DUP1 RETURNDATACOPY RETURNDATASIZE PUSH0 REVERT JUMPDEST POP POP POP POP PUSH1 0x40 MLOAD RETURNDATASIZE PUSH1 0x1F NOT PUSH1 0x1F DUP3 ADD AND DUP3 ADD DUP1 PUSH1 0x40 MSTORE POP DUP2 ADD SWAP1 PUSH2 0x280 SWAP2 SWAP1 PUSH2 0x815 JUMP JUMPDEST SWAP1 POP SWAP1 JUMP JUMPDEST PUSH1 0x6 PUSH0 SWAP1 SLOAD SWAP1 PUSH2 0x100 EXP SWAP1 DIV PUSH20 0xFFFFFFFFFFFFFFFFFFFFFFFFFFFFFFFFFFFFFFFF AND PUSH20 0xFFFFFFFFFFFFFFFFFFFFFFFFFFFFFFFFFFFFFFFF AND CALLER PUSH20 0xFFFFFFFFFFFFFFFFFFFFFFFFFFFFFFFFFFFFFFFF AND EQ PUSH2 0x314 JUMPI PUSH1 0x40 MLOAD PUSH32 0x8C379A000000000000000000000000000000000000000000000000000000000 DUP2 MSTORE PUSH1 0x4 ADD PUSH2 0x30B SWAP1 PUSH2 0x8C0 JUMP JUMPDEST PUSH1 0x40 MLOAD DUP1 SWAP2 SUB SWAP1 REVERT JUMPDEST DUP1 PUSH1 0x4 PUSH0 DUP5 PUSH2 0xFFFF AND PUSH2 0xFFFF AND DUP2 MSTORE PUSH1 0x20 ADD SWAP1 DUP2 MSTORE PUSH1 0x20 ADD PUSH0 KECCAK256 DUP2 SWAP1 SSTORE POP POP POP JUMP JUMPDEST PUSH0 DUP2 PUSH20 0xFFFFFFFFFFFFFFFFFFFFFFFFFFFFFFFFFFFFFFFF AND PUSH4 0x70A08231 ADDRESS PUSH1 0x40 MLOAD DUP3 PUSH4 0xFFFFFFFF AND PUSH1 0xE0 SHL DUP2 MSTORE PUSH1 0x4 ADD PUSH2 0x370 SWAP2 SWAP1 PUSH2 0x7E8 JUMP JUMPDEST PUSH1 0x20 PUSH1 0x40 MLOAD DUP1 DUP4 SUB DUP2 DUP7 GAS STATICCALL ISZERO DUP1 ISZERO PUSH2 0x38B JUMPI RETURNDATASIZE PUSH0 DUP1 RETURNDATACOPY RETURNDATASIZE PUSH0 REVERT JUMPDEST POP POP POP POP PUSH1 0x40 MLOAD RETURNDATASIZE PUSH1 0x1F NOT PUSH1 0x1F DUP3 ADD AND DUP3 ADD DUP1 PUSH1 0x40 MSTORE POP DUP2 ADD SWAP1 PUSH2 0x3AF SWAP2 SWAP1 PUSH2 0x815 JUMP JUMPDEST SWAP1 POP SWAP2 SWAP1 POP JUMP JUMPDEST PUSH0 PUSH1 0x1 PUSH1 0x3 PUSH1 0x14 DUP3 DUP3 DUP3 SWAP1 SLOAD SWAP1 PUSH2 0x100 EXP SWAP1 DIV PUSH4 0xFFFFFFFF AND PUSH2 0x3D9 SWAP2 SWAP1 PUSH2 0x91A JUMP JUMPDEST SWAP3 POP PUSH2 0x100 EXP DUP2 SLOAD DUP2 PUSH4 0xFFFFFFFF MUL NOT AND SWAP1 DUP4 PUSH4 0xFFFFFFFF AND MUL OR SWAP1 SSTORE POP PUSH1 0x1 PUSH0 SWAP1 SLOAD SWAP1 PUSH2 0x100 EXP SWAP1 DIV PUSH20 0xFFFFFFFFFFFFFFFFFFFFFFFFFFFFFFFFFFFFFFFF AND PUSH20 0xFFFFFFFFFFFFFFFFFFFFFFFFFFFFFFFFFFFFFFFF AND PUSH4 0xF5287B0 PUSH1 0x2 PUSH0 SWAP1 SLOAD SWAP1 PUSH2 0x100 EXP SWAP1 DIV PUSH20 0xFFFFFFFFFFFFFFFFFFFFFFFFFFFFFFFFFFFFFFFF AND DUP7 DUP7 DUP7 PUSH0 PUSH1 0x3 PUSH1 0x14 SWAP1 SLOAD SWAP1 PUSH2 0x100 EXP SWAP1 DIV PUSH4 0xFFFFFFFF AND PUSH1 0x40 MLOAD DUP8 PUSH4 0xFFFFFFFF AND PUSH1 0xE0 SHL DUP2 MSTORE PUSH1 0x4 ADD PUSH2 0x48E SWAP7 SWAP6 SWAP5 SWAP4 SWAP3 SWAP2 SWAP1 PUSH2 0x9C0 JUMP JUMPDEST PUSH1 0x20 PUSH1 0x40 MLOAD DUP1 DUP4 SUB DUP2 PUSH0 DUP8 GAS CALL ISZERO DUP1 ISZERO PUSH2 0x4AA JUMPI RETURNDATASIZE PUSH0 DUP1 RETURNDATACOPY RETURNDATASIZE PUSH0 REVERT JUMPDEST POP POP POP POP PUSH1 0x40 MLOAD RETURNDATASIZE PUSH1 0x1F NOT PUSH1 0x1F DUP3 ADD AND DUP3 ADD DUP1 PUSH1 0x40 MSTORE POP DUP2 ADD SWAP1 PUSH2 0x4CE SWAP2 SWAP1 PUSH2 0xA49 JUMP JUMPDEST SWAP1 POP SWAP4 SWAP3 POP POP POP JUMP JUMPDEST PUSH0 DUP1 REVERT JUMPDEST PUSH0 DUP2 SWAP1 POP SWAP2 SWAP1 POP JUMP JUMPDEST PUSH2 0x4ED DUP2 PUSH2 0x4DB JUMP JUMPDEST DUP2 EQ PUSH2 0x4F7 JUMPI PUSH0 DUP1 REVERT JUMPDEST POP JUMP JUMPDEST PUSH0 DUP2 CALLDATALOAD SWAP1 POP PUSH2 0x508 DUP2 PUSH2 0x4E4 JUMP JUMPDEST SWAP3 SWAP2 POP POP JUMP JUMPDEST PUSH0 PUSH1 0x20 DUP3 DUP5 SUB SLT ISZERO PUSH2 0x523 JUMPI PUSH2 0x522 PUSH2 0x4D7 JUMP JUMPDEST JUMPDEST PUSH0 PUSH2 0x530 DUP5 DUP3 DUP6 ADD PUSH2 0x4FA JUMP JUMPDEST SWAP2 POP POP SWAP3 SWAP2 POP POP JUMP JUMPDEST PUSH0 DUP2 ISZERO ISZERO SWAP1 POP SWAP2 SWAP1 POP JUMP JUMPDEST PUSH2 0x54D DUP2 PUSH2 0x539 JUMP JUMPDEST DUP3 MSTORE POP POP JUMP JUMPDEST PUSH0 PUSH1 0x20 DUP3 ADD SWAP1 POP PUSH2 0x566 PUSH0 DUP4 ADD DUP5 PUSH2 0x544 JUMP JUMPDEST SWAP3 SWAP2 POP POP JUMP JUMPDEST PUSH2 0x575 DUP2 PUSH2 0x4DB JUMP JUMPDEST DUP3 MSTORE POP POP JUMP JUMPDEST PUSH0 PUSH1 0x20 DUP3 ADD SWAP1 POP PUSH2 0x58E PUSH0 DUP4 ADD DUP5 PUSH2 0x56C JUMP JUMPDEST SWAP3 SWAP2 POP POP JUMP JUMPDEST PUSH0 PUSH2 0xFFFF DUP3 AND SWAP1 POP SWAP2 SWAP1 POP JUMP JUMPDEST PUSH2 0x5AA DUP2 PUSH2 0x594 JUMP JUMPDEST DUP2 EQ PUSH2 0x5B4 JUMPI PUSH0 DUP1 REVERT JUMPDEST POP JUMP JUMPDEST PUSH0 DUP2 CALLDATALOAD SWAP1 POP PUSH2 0x5C5 DUP2 PUSH2 0x5A1 JUMP JUMPDEST SWAP3 SWAP2 POP POP JUMP JUMPDEST PUSH0 DUP2 SWAP1 POP SWAP2 SWAP1 POP JUMP JUMPDEST PUSH2 0x5DD DUP2 PUSH2 0x5CB JUMP JUMPDEST DUP2 EQ PUSH2 0x5E7 JUMPI PUSH0 DUP1 REVERT JUMPDEST POP JUMP JUMPDEST PUSH0 DUP2 CALLDATALOAD SWAP1 POP PUSH2 0x5F8 DUP2 PUSH2 0x5D4 JUMP JUMPDEST SWAP3 SWAP2 POP POP JUMP JUMPDEST PUSH0 DUP1 PUSH1 0x40 DUP4 DUP6 SUB SLT ISZERO PUSH2 0x614 JUMPI PUSH2 0x613 PUSH2 0x4D7 JUMP JUMPDEST JUMPDEST PUSH0 PUSH2 0x621 DUP6 DUP3 DUP7 ADD PUSH2 0x5B7 JUMP JUMPDEST SWAP3 POP POP PUSH1 0x20 PUSH2 0x632 DUP6 DUP3 DUP7 ADD PUSH2 0x5EA JUMP JUMPDEST SWAP2 POP POP SWAP3 POP SWAP3 SWAP1 POP JUMP JUMPDEST PUSH0 PUSH20 0xFFFFFFFFFFFFFFFFFFFFFFFFFFFFFFFFFFFFFFFF DUP3 AND SWAP1 POP SWAP2 SWAP1 POP JUMP JUMPDEST PUSH0 PUSH2 0x665 DUP3 PUSH2 0x63C JUMP JUMPDEST SWAP1 POP SWAP2 SWAP1 POP JUMP JUMPDEST PUSH0 PUSH2 0x676 DUP3 PUSH2 0x65B JUMP JUMPDEST SWAP1 POP SWAP2 SWAP1 POP JUMP JUMPDEST PUSH2 0x686 DUP2 PUSH2 0x66C JUMP JUMPDEST DUP2 EQ PUSH2 0x690 JUMPI PUSH0 DUP1 REVERT JUMPDEST POP JUMP JUMPDEST PUSH0 DUP2 CALLDATALOAD SWAP1 POP PUSH2 0x6A1 DUP2 PUSH2 0x67D JUMP JUMPDEST SWAP3 SWAP2 POP POP JUMP JUMPDEST PUSH0 PUSH1 0x20 DUP3 DUP5 SUB SLT ISZERO PUSH2 0x6BC JUMPI PUSH2 0x6BB PUSH2 0x4D7 JUMP JUMPDEST JUMPDEST PUSH0 PUSH2 0x6C9 DUP5 DUP3 DUP6 ADD PUSH2 0x693 JUMP JUMPDEST SWAP2 POP POP SWAP3 SWAP2 POP POP JUMP JUMPDEST PUSH0 DUP1 PUSH0 PUSH1 0x60 DUP5 DUP7 SUB SLT ISZERO PUSH2 0x6E9 JUMPI PUSH2 0x6E8 PUSH2 0x4D7 JUMP JUMPDEST JUMPDEST PUSH0 PUSH2 0x6F6 DUP7 DUP3 DUP8 ADD PUSH2 0x4FA JUMP JUMPDEST SWAP4 POP POP PUSH1 0x20 PUSH2 0x707 DUP7 DUP3 DUP8 ADD PUSH2 0x5B7 JUMP JUMPDEST SWAP3 POP POP PUSH1 0x40 PUSH2 0x718 DUP7 DUP3 DUP8 ADD PUSH2 0x5EA JUMP JUMPDEST SWAP2 POP POP SWAP3 POP SWAP3 POP SWAP3 JUMP JUMPDEST PUSH0 PUSH8 0xFFFFFFFFFFFFFFFF DUP3 AND SWAP1 POP SWAP2 SWAP1 POP JUMP JUMPDEST PUSH2 0x73E DUP2 PUSH2 0x722 JUMP JUMPDEST DUP3 MSTORE POP POP JUMP JUMPDEST PUSH0 PUSH1 0x20 DUP3 ADD SWAP1 POP PUSH2 0x757 PUSH0 DUP4 ADD DUP5 PUSH2 0x735 JUMP JUMPDEST SWAP3 SWAP2 POP POP JUMP JUMPDEST PUSH2 0x766 DUP2 PUSH2 0x65B JUMP JUMPDEST DUP3 MSTORE POP POP JUMP JUMPDEST PUSH0 PUSH1 0x40 DUP3 ADD SWAP1 POP PUSH2 0x77F PUSH0 DUP4 ADD DUP6 PUSH2 0x75D JUMP JUMPDEST PUSH2 0x78C PUSH1 0x20 DUP4 ADD DUP5 PUSH2 0x56C JUMP JUMPDEST SWAP4 SWAP3 POP POP POP JUMP JUMPDEST PUSH2 0x79C DUP2 PUSH2 0x539 JUMP JUMPDEST DUP2 EQ PUSH2 0x7A6 JUMPI PUSH0 DUP1 REVERT JUMPDEST POP JUMP JUMPDEST PUSH0 DUP2 MLOAD SWAP1 POP PUSH2 0x7B7 DUP2 PUSH2 0x793 JUMP JUMPDEST SWAP3 SWAP2 POP POP JUMP JUMPDEST PUSH0 PUSH1 0x20 DUP3 DUP5 SUB SLT ISZERO PUSH2 0x7D2 JUMPI PUSH2 0x7D1 PUSH2 0x4D7 JUMP JUMPDEST JUMPDEST PUSH0 PUSH2 0x7DF DUP5 DUP3 DUP6 ADD PUSH2 0x7A9 JUMP JUMPDEST SWAP2 POP POP SWAP3 SWAP2 POP POP JUMP JUMPDEST PUSH0 PUSH1 0x20 DUP3 ADD SWAP1 POP PUSH2 0x7FB PUSH0 DUP4 ADD DUP5 PUSH2 0x75D JUMP JUMPDEST SWAP3 SWAP2 POP POP JUMP JUMPDEST PUSH0 DUP2 MLOAD SWAP1 POP PUSH2 0x80F DUP2 PUSH2 0x4E4 JUMP JUMPDEST SWAP3 SWAP2 POP POP JUMP JUMPDEST PUSH0 PUSH1 0x20 DUP3 DUP5 SUB SLT ISZERO PUSH2 0x82A JUMPI PUSH2 0x829 PUSH2 0x4D7 JUMP JUMPDEST JUMPDEST PUSH0 PUSH2 0x837 DUP5 DUP3 DUP6 ADD PUSH2 0x801 JUMP JUMPDEST SWAP2 POP POP SWAP3 SWAP2 POP POP JUMP JUMPDEST PUSH0 DUP3 DUP3 MSTORE PUSH1 0x20 DUP3 ADD SWAP1 POP SWAP3 SWAP2 POP POP JUMP JUMPDEST PUSH32 0x4F6E6C79206F776E65722063616E207265676973746572206E65772063686169 PUSH0 DUP3 ADD MSTORE PUSH32 0x6E73210000000000000000000000000000000000000000000000000000000000 PUSH1 0x20 DUP3 ADD MSTORE POP JUMP JUMPDEST PUSH0 PUSH2 0x8AA PUSH1 0x23 DUP4 PUSH2 0x840 JUMP JUMPDEST SWAP2 POP PUSH2 0x8B5 DUP3 PUSH2 0x850 JUMP JUMPDEST PUSH1 0x40 DUP3 ADD SWAP1 POP SWAP2 SWAP1 POP JUMP JUMPDEST PUSH0 PUSH1 0x20 DUP3 ADD SWAP1 POP DUP2 DUP2 SUB PUSH0 DUP4 ADD MSTORE PUSH2 0x8D7 DUP2 PUSH2 0x89E JUMP JUMPDEST SWAP1 POP SWAP2 SWAP1 POP JUMP JUMPDEST PUSH0 PUSH4 0xFFFFFFFF DUP3 AND SWAP1 POP SWAP2 SWAP1 POP JUMP JUMPDEST PUSH32 0x4E487B7100000000000000000000000000000000000000000000000000000000 PUSH0 MSTORE PUSH1 0x11 PUSH1 0x4 MSTORE PUSH1 0x24 PUSH0 REVERT JUMPDEST PUSH0 PUSH2 0x924 DUP3 PUSH2 0x8DE JUMP JUMPDEST SWAP2 POP PUSH2 0x92F DUP4 PUSH2 0x8DE JUMP JUMPDEST SWAP3 POP DUP3 DUP3 ADD SWAP1 POP PUSH4 0xFFFFFFFF DUP2 GT ISZERO PUSH2 0x94B JUMPI PUSH2 0x94A PUSH2 0x8ED JUMP JUMPDEST JUMPDEST SWAP3 SWAP2 POP POP JUMP JUMPDEST PUSH2 0x95A DUP2 PUSH2 0x594 JUMP JUMPDEST DUP3 MSTORE POP POP JUMP JUMPDEST PUSH2 0x969 DUP2 PUSH2 0x5CB JUMP JUMPDEST DUP3 MSTORE POP POP JUMP JUMPDEST PUSH0 DUP2 SWAP1 POP SWAP2 SWAP1 POP JUMP JUMPDEST PUSH0 DUP2 SWAP1 POP SWAP2 SWAP1 POP JUMP JUMPDEST PUSH0 PUSH2 0x99B PUSH2 0x996 PUSH2 0x991 DUP5 PUSH2 0x96F JUMP JUMPDEST PUSH2 0x978 JUMP JUMPDEST PUSH2 0x4DB JUMP JUMPDEST SWAP1 POP SWAP2 SWAP1 POP JUMP JUMPDEST PUSH2 0x9AB DUP2 PUSH2 0x981 JUMP JUMPDEST DUP3 MSTORE POP POP JUMP JUMPDEST PUSH2 0x9BA DUP2 PUSH2 0x8DE JUMP JUMPDEST DUP3 MSTORE POP POP JUMP JUMPDEST PUSH0 PUSH1 0xC0 DUP3 ADD SWAP1 POP PUSH2 0x9D3 PUSH0 DUP4 ADD DUP10 PUSH2 0x75D JUMP JUMPDEST PUSH2 0x9E0 PUSH1 0x20 DUP4 ADD DUP9 PUSH2 0x56C JUMP JUMPDEST PUSH2 0x9ED PUSH1 0x40 DUP4 ADD DUP8 PUSH2 0x951 JUMP JUMPDEST PUSH2 0x9FA PUSH1 0x60 DUP4 ADD DUP7 PUSH2 0x960 JUMP JUMPDEST PUSH2 0xA07 PUSH1 0x80 DUP4 ADD DUP6 PUSH2 0x9A2 JUMP JUMPDEST PUSH2 0xA14 PUSH1 0xA0 DUP4 ADD DUP5 PUSH2 0x9B1 JUMP JUMPDEST SWAP8 SWAP7 POP POP POP POP POP POP POP JUMP JUMPDEST PUSH2 0xA28 DUP2 PUSH2 0x722 JUMP JUMPDEST DUP2 EQ PUSH2 0xA32 JUMPI PUSH0 DUP1 REVERT JUMPDEST POP JUMP JUMPDEST PUSH0 DUP2 MLOAD SWAP1 POP PUSH2 0xA43 DUP2 PUSH2 0xA1F JUMP JUMPDEST SWAP3 SWAP2 POP POP JUMP JUMPDEST PUSH0 PUSH1 0x20 DUP3 DUP5 SUB SLT ISZERO PUSH2 0xA5E JUMPI PUSH2 0xA5D PUSH2 0x4D7 JUMP JUMPDEST JUMPDEST PUSH0 PUSH2 0xA6B DUP5 DUP3 DUP6 ADD PUSH2 0xA35 JUMP JUMPDEST SWAP2 POP POP SWAP3 SWAP2 POP POP JUMP INVALID LOG2 PUSH5 0x6970667358 0x22 SLT KECCAK256 0xB3 0xBB PUSH4 0xD5970C3C PUSH26 0x7A89BD0F27EE0A7206C21DBB7A8424469FFC19989E80AF226473 PUSH16 0x6C634300081A00330000000000000000 "
		},
		"gasEstimates": {
			"creation": {
				"codeDepositCost": "546000",
				"executionCost": "150491",
				"totalCost": "696491"
			},
			"external": {
				"approveTokenBridge(uint256)": "infinite",
				"bridgeToken(uint256,uint16,bytes32)": "infinite",
				"getTKNCount()": "infinite",
				"getWrappedCount(address)": "infinite",
				"registerApplicationContracts(uint16,bytes32)": "24971"
			}
		},
		"methodIdentifiers": {
			"approveTokenBridge(uint256)": "0fc7d690",
			"bridgeToken(uint256,uint16,bytes32)": "83b3ac5e",
			"getTKNCount()": "584fef73",
			"getWrappedCount(address)": "68a3e36d",
			"registerApplicationContracts(uint16,bytes32)": "5f327e1c"
		}
	},
	"abi": [
		{
			"inputs": [],
			"stateMutability": "nonpayable",
			"type": "constructor"
		},
		{
			"inputs": [
				{
					"internalType": "uint256",
					"name": "amt",
					"type": "uint256"
				}
			],
			"name": "approveTokenBridge",
			"outputs": [
				{
					"internalType": "bool",
					"name": "",
					"type": "bool"
				}
			],
			"stateMutability": "nonpayable",
			"type": "function"
		},
		{
			"inputs": [
				{
					"internalType": "uint256",
					"name": "amt",
					"type": "uint256"
				},
				{
					"internalType": "uint16",
					"name": "receipientChainId",
					"type": "uint16"
				},
				{
					"internalType": "bytes32",
					"name": "recipient",
					"type": "bytes32"
				}
			],
			"name": "bridgeToken",
			"outputs": [
				{
					"internalType": "uint64",
					"name": "sequence",
					"type": "uint64"
				}
			],
			"stateMutability": "nonpayable",
			"type": "function"
		},
		{
			"inputs": [],
			"name": "getTKNCount",
			"outputs": [
				{
					"internalType": "uint256",
					"name": "",
					"type": "uint256"
				}
			],
			"stateMutability": "view",
			"type": "function"
		},
		{
			"inputs": [
				{
					"internalType": "contract PortalWrappedToken",
					"name": "wrappedToken",
					"type": "address"
				}
			],
			"name": "getWrappedCount",
			"outputs": [
				{
					"internalType": "uint256",
					"name": "",
					"type": "uint256"
				}
			],
			"stateMutability": "view",
			"type": "function"
		},
		{
			"inputs": [
				{
					"internalType": "uint16",
					"name": "chainId",
					"type": "uint16"
				},
				{
					"internalType": "bytes32",
					"name": "applicationAddr",
					"type": "bytes32"
				}
			],
			"name": "registerApplicationContracts",
			"outputs": [],
			"stateMutability": "nonpayable",
			"type": "function"
		}
	]
}