{
	"data": {
		"bytecode": {
			"linkReferences": {},
			"object": "608060405234801561000f575f80fd5b506040516108ff3803806108ff83398181016040528101906100319190610115565b815f806101000a81548173ffffffffffffffffffffffffffffffffffffffff021916908373ffffffffffffffffffffffffffffffffffffffff1602179055508060015f6101000a81548173ffffffffffffffffffffffffffffffffffffffff021916908373ffffffffffffffffffffffffffffffffffffffff1602179055505050610153565b5f80fd5b5f73ffffffffffffffffffffffffffffffffffffffff82169050919050565b5f6100e4826100bb565b9050919050565b6100f4816100da565b81146100fe575f80fd5b50565b5f8151905061010f816100eb565b92915050565b5f806040838503121561012b5761012a6100b7565b5b5f61013885828601610101565b925050602061014985828601610101565b9150509250929050565b61079f806101605f395ff3fe608060405234801561000f575f80fd5b506004361061004a575f3560e01c80635ccc0d681461004e57806384acd1bb1461006a578063dd8724ce14610088578063fc0c546a146100a4575b5f80fd5b61006860048036038101906100639190610341565b6100c2565b005b61007261018a565b60405161007f919061041f565b60405180910390f35b6100a2600480360381019061009d9190610574565b6101ad565b005b6100ac610235565b6040516100b991906105db565b60405180910390f35b5f8054906101000a900473ffffffffffffffffffffffffffffffffffffffff1673ffffffffffffffffffffffffffffffffffffffff1663a084175360015f9054906101000a900473ffffffffffffffffffffffffffffffffffffffff16868686866040518663ffffffff1660e01b8152600401610143959493929190610630565b6020604051808303815f875af115801561015f573d5f803e3d5ffd5b505050506040513d601f19601f8201168201806040525081019061018391906106be565b5050505050565b5f8054906101000a900473ffffffffffffffffffffffffffffffffffffffff1681565b5f8054906101000a900473ffffffffffffffffffffffffffffffffffffffff1673ffffffffffffffffffffffffffffffffffffffff1663c6878519826040518263ffffffff1660e01b81526004016102059190610749565b5f604051808303815f87803b15801561021c575f80fd5b505af115801561022e573d5f803e3d5ffd5b5050505050565b60015f9054906101000a900473ffffffffffffffffffffffffffffffffffffffff1681565b5f604051905090565b5f80fd5b5f80fd5b5f819050919050565b61027d8161026b565b8114610287575f80fd5b50565b5f8135905061029881610274565b92915050565b5f61ffff82169050919050565b6102b48161029e565b81146102be575f80fd5b50565b5f813590506102cf816102ab565b92915050565b5f819050919050565b6102e7816102d5565b81146102f1575f80fd5b50565b5f81359050610302816102de565b92915050565b5f63ffffffff82169050919050565b61032081610308565b811461032a575f80fd5b50565b5f8135905061033b81610317565b92915050565b5f805f806080858703121561035957610358610263565b5b5f6103668782880161028a565b9450506020610377878288016102c1565b9350506040610388878288016102f4565b92505060606103998782880161032d565b91505092959194509250565b5f73ffffffffffffffffffffffffffffffffffffffff82169050919050565b5f819050919050565b5f6103e76103e26103dd846103a5565b6103c4565b6103a5565b9050919050565b5f6103f8826103cd565b9050919050565b5f610409826103ee565b9050919050565b610419816103ff565b82525050565b5f6020820190506104325f830184610410565b92915050565b5f80fd5b5f80fd5b5f601f19601f8301169050919050565b7f4e487b71000000000000000000000000000000000000000000000000000000005f52604160045260245ffd5b61048682610440565b810181811067ffffffffffffffff821117156104a5576104a4610450565b5b80604052505050565b5f6104b761025a565b90506104c3828261047d565b919050565b5f67ffffffffffffffff8211156104e2576104e1610450565b5b6104eb82610440565b9050602081019050919050565b828183375f83830152505050565b5f610518610513846104c8565b6104ae565b9050828152602081018484840111156105345761053361043c565b5b61053f8482856104f8565b509392505050565b5f82601f83011261055b5761055a610438565b5b813561056b848260208601610506565b91505092915050565b5f6020828403121561058957610588610263565b5b5f82013567ffffffffffffffff8111156105a6576105a5610267565b5b6105b284828501610547565b91505092915050565b5f6105c5826103a5565b9050919050565b6105d5816105bb565b82525050565b5f6020820190506105ee5f8301846105cc565b92915050565b6105fd8161026b565b82525050565b61060c8161029e565b82525050565b61061b816102d5565b82525050565b61062a81610308565b82525050565b5f60a0820190506106435f8301886105cc565b61065060208301876105f4565b61065d6040830186610603565b61066a6060830185610612565b6106776080830184610621565b9695505050505050565b5f67ffffffffffffffff82169050919050565b61069d81610681565b81146106a7575f80fd5b50565b5f815190506106b881610694565b92915050565b5f602082840312156106d3576106d2610263565b5b5f6106e0848285016106aa565b91505092915050565b5f81519050919050565b5f82825260208201905092915050565b8281835e5f83830152505050565b5f61071b826106e9565b61072581856106f3565b9350610735818560208601610703565b61073e81610440565b840191505092915050565b5f6020820190508181035f8301526107618184610711565b90509291505056fea2646970667358221220a93eac02929eeadfee032963fdd2413fd9180dddc97611d627b3895a61af404964736f6c634300081a0033",
			"opcodes": "PUSH1 0x80 PUSH1 0x40 MSTORE CALLVALUE DUP1 ISZERO PUSH2 0xF JUMPI PUSH0 DUP1 REVERT JUMPDEST POP PUSH1 0x40 MLOAD PUSH2 0x8FF CODESIZE SUB DUP1 PUSH2 0x8FF DUP4 CODECOPY DUP2 DUP2 ADD PUSH1 0x40 MSTORE DUP2 ADD SWAP1 PUSH2 0x31 SWAP2 SWAP1 PUSH2 0x115 JUMP JUMPDEST DUP2 PUSH0 DUP1 PUSH2 0x100 EXP DUP2 SLOAD DUP2 PUSH20 0xFFFFFFFFFFFFFFFFFFFFFFFFFFFFFFFFFFFFFFFF MUL NOT AND SWAP1 DUP4 PUSH20 0xFFFFFFFFFFFFFFFFFFFFFFFFFFFFFFFFFFFFFFFF AND MUL OR SWAP1 SSTORE POP DUP1 PUSH1 0x1 PUSH0 PUSH2 0x100 EXP DUP2 SLOAD DUP2 PUSH20 0xFFFFFFFFFFFFFFFFFFFFFFFFFFFFFFFFFFFFFFFF MUL NOT AND SWAP1 DUP4 PUSH20 0xFFFFFFFFFFFFFFFFFFFFFFFFFFFFFFFFFFFFFFFF AND MUL OR SWAP1 SSTORE POP POP POP PUSH2 0x153 JUMP JUMPDEST PUSH0 DUP1 REVERT JUMPDEST PUSH0 PUSH20 0xFFFFFFFFFFFFFFFFFFFFFFFFFFFFFFFFFFFFFFFF DUP3 AND SWAP1 POP SWAP2 SWAP1 POP JUMP JUMPDEST PUSH0 PUSH2 0xE4 DUP3 PUSH2 0xBB JUMP JUMPDEST SWAP1 POP SWAP2 SWAP1 POP JUMP JUMPDEST PUSH2 0xF4 DUP2 PUSH2 0xDA JUMP JUMPDEST DUP2 EQ PUSH2 0xFE JUMPI PUSH0 DUP1 REVERT JUMPDEST POP JUMP JUMPDEST PUSH0 DUP2 MLOAD SWAP1 POP PUSH2 0x10F DUP2 PUSH2 0xEB JUMP JUMPDEST SWAP3 SWAP2 POP POP JUMP JUMPDEST PUSH0 DUP1 PUSH1 0x40 DUP4 DUP6 SUB SLT ISZERO PUSH2 0x12B JUMPI PUSH2 0x12A PUSH2 0xB7 JUMP JUMPDEST JUMPDEST PUSH0 PUSH2 0x138 DUP6 DUP3 DUP7 ADD PUSH2 0x101 JUMP JUMPDEST SWAP3 POP POP PUSH1 0x20 PUSH2 0x149 DUP6 DUP3 DUP7 ADD PUSH2 0x101 JUMP JUMPDEST SWAP2 POP POP SWAP3 POP SWAP3 SWAP1 POP JUMP JUMPDEST PUSH2 0x79F DUP1 PUSH2 0x160 PUSH0 CODECOPY PUSH0 RETURN INVALID PUSH1 0x80 PUSH1 0x40 MSTORE CALLVALUE DUP1 ISZERO PUSH2 0xF JUMPI PUSH0 DUP1 REVERT JUMPDEST POP PUSH1 0x4 CALLDATASIZE LT PUSH2 0x4A JUMPI PUSH0 CALLDATALOAD PUSH1 0xE0 SHR DUP1 PUSH4 0x5CCC0D68 EQ PUSH2 0x4E JUMPI DUP1 PUSH4 0x84ACD1BB EQ PUSH2 0x6A JUMPI DUP1 PUSH4 0xDD8724CE EQ PUSH2 0x88 JUMPI DUP1 PUSH4 0xFC0C546A EQ PUSH2 0xA4 JUMPI JUMPDEST PUSH0 DUP1 REVERT JUMPDEST PUSH2 0x68 PUSH1 0x4 DUP1 CALLDATASIZE SUB DUP2 ADD SWAP1 PUSH2 0x63 SWAP2 SWAP1 PUSH2 0x341 JUMP JUMPDEST PUSH2 0xC2 JUMP JUMPDEST STOP JUMPDEST PUSH2 0x72 PUSH2 0x18A JUMP JUMPDEST PUSH1 0x40 MLOAD PUSH2 0x7F SWAP2 SWAP1 PUSH2 0x41F JUMP JUMPDEST PUSH1 0x40 MLOAD DUP1 SWAP2 SUB SWAP1 RETURN JUMPDEST PUSH2 0xA2 PUSH1 0x4 DUP1 CALLDATASIZE SUB DUP2 ADD SWAP1 PUSH2 0x9D SWAP2 SWAP1 PUSH2 0x574 JUMP JUMPDEST PUSH2 0x1AD JUMP JUMPDEST STOP JUMPDEST PUSH2 0xAC PUSH2 0x235 JUMP JUMPDEST PUSH1 0x40 MLOAD PUSH2 0xB9 SWAP2 SWAP1 PUSH2 0x5DB JUMP JUMPDEST PUSH1 0x40 MLOAD DUP1 SWAP2 SUB SWAP1 RETURN JUMPDEST PUSH0 DUP1 SLOAD SWAP1 PUSH2 0x100 EXP SWAP1 DIV PUSH20 0xFFFFFFFFFFFFFFFFFFFFFFFFFFFFFFFFFFFFFFFF AND PUSH20 0xFFFFFFFFFFFFFFFFFFFFFFFFFFFFFFFFFFFFFFFF AND PUSH4 0xA0841753 PUSH1 0x1 PUSH0 SWAP1 SLOAD SWAP1 PUSH2 0x100 EXP SWAP1 DIV PUSH20 0xFFFFFFFFFFFFFFFFFFFFFFFFFFFFFFFFFFFFFFFF AND DUP7 DUP7 DUP7 DUP7 PUSH1 0x40 MLOAD DUP7 PUSH4 0xFFFFFFFF AND PUSH1 0xE0 SHL DUP2 MSTORE PUSH1 0x4 ADD PUSH2 0x143 SWAP6 SWAP5 SWAP4 SWAP3 SWAP2 SWAP1 PUSH2 0x630 JUMP JUMPDEST PUSH1 0x20 PUSH1 0x40 MLOAD DUP1 DUP4 SUB DUP2 PUSH0 DUP8 GAS CALL ISZERO DUP1 ISZERO PUSH2 0x15F JUMPI RETURNDATASIZE PUSH0 DUP1 RETURNDATACOPY RETURNDATASIZE PUSH0 REVERT JUMPDEST POP POP POP POP PUSH1 0x40 MLOAD RETURNDATASIZE PUSH1 0x1F NOT PUSH1 0x1F DUP3 ADD AND DUP3 ADD DUP1 PUSH1 0x40 MSTORE POP DUP2 ADD SWAP1 PUSH2 0x183 SWAP2 SWAP1 PUSH2 0x6BE JUMP JUMPDEST POP POP POP POP POP JUMP JUMPDEST PUSH0 DUP1 SLOAD SWAP1 PUSH2 0x100 EXP SWAP1 DIV PUSH20 0xFFFFFFFFFFFFFFFFFFFFFFFFFFFFFFFFFFFFFFFF AND DUP2 JUMP JUMPDEST PUSH0 DUP1 SLOAD SWAP1 PUSH2 0x100 EXP SWAP1 DIV PUSH20 0xFFFFFFFFFFFFFFFFFFFFFFFFFFFFFFFFFFFFFFFF AND PUSH20 0xFFFFFFFFFFFFFFFFFFFFFFFFFFFFFFFFFFFFFFFF AND PUSH4 0xC6878519 DUP3 PUSH1 0x40 MLOAD DUP3 PUSH4 0xFFFFFFFF AND PUSH1 0xE0 SHL DUP2 MSTORE PUSH1 0x4 ADD PUSH2 0x205 SWAP2 SWAP1 PUSH2 0x749 JUMP JUMPDEST PUSH0 PUSH1 0x40 MLOAD DUP1 DUP4 SUB DUP2 PUSH0 DUP8 DUP1 EXTCODESIZE ISZERO DUP1 ISZERO PUSH2 0x21C JUMPI PUSH0 DUP1 REVERT JUMPDEST POP GAS CALL ISZERO DUP1 ISZERO PUSH2 0x22E JUMPI RETURNDATASIZE PUSH0 DUP1 RETURNDATACOPY RETURNDATASIZE PUSH0 REVERT JUMPDEST POP POP POP POP POP JUMP JUMPDEST PUSH1 0x1 PUSH0 SWAP1 SLOAD SWAP1 PUSH2 0x100 EXP SWAP1 DIV PUSH20 0xFFFFFFFFFFFFFFFFFFFFFFFFFFFFFFFFFFFFFFFF AND DUP2 JUMP JUMPDEST PUSH0 PUSH1 0x40 MLOAD SWAP1 POP SWAP1 JUMP JUMPDEST PUSH0 DUP1 REVERT JUMPDEST PUSH0 DUP1 REVERT JUMPDEST PUSH0 DUP2 SWAP1 POP SWAP2 SWAP1 POP JUMP JUMPDEST PUSH2 0x27D DUP2 PUSH2 0x26B JUMP JUMPDEST DUP2 EQ PUSH2 0x287 JUMPI PUSH0 DUP1 REVERT JUMPDEST POP JUMP JUMPDEST PUSH0 DUP2 CALLDATALOAD SWAP1 POP PUSH2 0x298 DUP2 PUSH2 0x274 JUMP JUMPDEST SWAP3 SWAP2 POP POP JUMP JUMPDEST PUSH0 PUSH2 0xFFFF DUP3 AND SWAP1 POP SWAP2 SWAP1 POP JUMP JUMPDEST PUSH2 0x2B4 DUP2 PUSH2 0x29E JUMP JUMPDEST DUP2 EQ PUSH2 0x2BE JUMPI PUSH0 DUP1 REVERT JUMPDEST POP JUMP JUMPDEST PUSH0 DUP2 CALLDATALOAD SWAP1 POP PUSH2 0x2CF DUP2 PUSH2 0x2AB JUMP JUMPDEST SWAP3 SWAP2 POP POP JUMP JUMPDEST PUSH0 DUP2 SWAP1 POP SWAP2 SWAP1 POP JUMP JUMPDEST PUSH2 0x2E7 DUP2 PUSH2 0x2D5 JUMP JUMPDEST DUP2 EQ PUSH2 0x2F1 JUMPI PUSH0 DUP1 REVERT JUMPDEST POP JUMP JUMPDEST PUSH0 DUP2 CALLDATALOAD SWAP1 POP PUSH2 0x302 DUP2 PUSH2 0x2DE JUMP JUMPDEST SWAP3 SWAP2 POP POP JUMP JUMPDEST PUSH0 PUSH4 0xFFFFFFFF DUP3 AND SWAP1 POP SWAP2 SWAP1 POP JUMP JUMPDEST PUSH2 0x320 DUP2 PUSH2 0x308 JUMP JUMPDEST DUP2 EQ PUSH2 0x32A JUMPI PUSH0 DUP1 REVERT JUMPDEST POP JUMP JUMPDEST PUSH0 DUP2 CALLDATALOAD SWAP1 POP PUSH2 0x33B DUP2 PUSH2 0x317 JUMP JUMPDEST SWAP3 SWAP2 POP POP JUMP JUMPDEST PUSH0 DUP1 PUSH0 DUP1 PUSH1 0x80 DUP6 DUP8 SUB SLT ISZERO PUSH2 0x359 JUMPI PUSH2 0x358 PUSH2 0x263 JUMP JUMPDEST JUMPDEST PUSH0 PUSH2 0x366 DUP8 DUP3 DUP9 ADD PUSH2 0x28A JUMP JUMPDEST SWAP5 POP POP PUSH1 0x20 PUSH2 0x377 DUP8 DUP3 DUP9 ADD PUSH2 0x2C1 JUMP JUMPDEST SWAP4 POP POP PUSH1 0x40 PUSH2 0x388 DUP8 DUP3 DUP9 ADD PUSH2 0x2F4 JUMP JUMPDEST SWAP3 POP POP PUSH1 0x60 PUSH2 0x399 DUP8 DUP3 DUP9 ADD PUSH2 0x32D JUMP JUMPDEST SWAP2 POP POP SWAP3 SWAP6 SWAP2 SWAP5 POP SWAP3 POP JUMP JUMPDEST PUSH0 PUSH20 0xFFFFFFFFFFFFFFFFFFFFFFFFFFFFFFFFFFFFFFFF DUP3 AND SWAP1 POP SWAP2 SWAP1 POP JUMP JUMPDEST PUSH0 DUP2 SWAP1 POP SWAP2 SWAP1 POP JUMP JUMPDEST PUSH0 PUSH2 0x3E7 PUSH2 0x3E2 PUSH2 0x3DD DUP5 PUSH2 0x3A5 JUMP JUMPDEST PUSH2 0x3C4 JUMP JUMPDEST PUSH2 0x3A5 JUMP JUMPDEST SWAP1 POP SWAP2 SWAP1 POP JUMP JUMPDEST PUSH0 PUSH2 0x3F8 DUP3 PUSH2 0x3CD JUMP JUMPDEST SWAP1 POP SWAP2 SWAP1 POP JUMP JUMPDEST PUSH0 PUSH2 0x409 DUP3 PUSH2 0x3EE JUMP JUMPDEST SWAP1 POP SWAP2 SWAP1 POP JUMP JUMPDEST PUSH2 0x419 DUP2 PUSH2 0x3FF JUMP JUMPDEST DUP3 MSTORE POP POP JUMP JUMPDEST PUSH0 PUSH1 0x20 DUP3 ADD SWAP1 POP PUSH2 0x432 PUSH0 DUP4 ADD DUP5 PUSH2 0x410 JUMP JUMPDEST SWAP3 SWAP2 POP POP JUMP JUMPDEST PUSH0 DUP1 REVERT JUMPDEST PUSH0 DUP1 REVERT JUMPDEST PUSH0 PUSH1 0x1F NOT PUSH1 0x1F DUP4 ADD AND SWAP1 POP SWAP2 SWAP1 POP JUMP JUMPDEST PUSH32 0x4E487B7100000000000000000000000000000000000000000000000000000000 PUSH0 MSTORE PUSH1 0x41 PUSH1 0x4 MSTORE PUSH1 0x24 PUSH0 REVERT JUMPDEST PUSH2 0x486 DUP3 PUSH2 0x440 JUMP JUMPDEST DUP2 ADD DUP2 DUP2 LT PUSH8 0xFFFFFFFFFFFFFFFF DUP3 GT OR ISZERO PUSH2 0x4A5 JUMPI PUSH2 0x4A4 PUSH2 0x450 JUMP JUMPDEST JUMPDEST DUP1 PUSH1 0x40 MSTORE POP POP POP JUMP JUMPDEST PUSH0 PUSH2 0x4B7 PUSH2 0x25A JUMP JUMPDEST SWAP1 POP PUSH2 0x4C3 DUP3 DUP3 PUSH2 0x47D JUMP JUMPDEST SWAP2 SWAP1 POP JUMP JUMPDEST PUSH0 PUSH8 0xFFFFFFFFFFFFFFFF DUP3 GT ISZERO PUSH2 0x4E2 JUMPI PUSH2 0x4E1 PUSH2 0x450 JUMP JUMPDEST JUMPDEST PUSH2 0x4EB DUP3 PUSH2 0x440 JUMP JUMPDEST SWAP1 POP PUSH1 0x20 DUP2 ADD SWAP1 POP SWAP2 SWAP1 POP JUMP JUMPDEST DUP3 DUP2 DUP4 CALLDATACOPY PUSH0 DUP4 DUP4 ADD MSTORE POP POP POP JUMP JUMPDEST PUSH0 PUSH2 0x518 PUSH2 0x513 DUP5 PUSH2 0x4C8 JUMP JUMPDEST PUSH2 0x4AE JUMP JUMPDEST SWAP1 POP DUP3 DUP2 MSTORE PUSH1 0x20 DUP2 ADD DUP5 DUP5 DUP5 ADD GT ISZERO PUSH2 0x534 JUMPI PUSH2 0x533 PUSH2 0x43C JUMP JUMPDEST JUMPDEST PUSH2 0x53F DUP5 DUP3 DUP6 PUSH2 0x4F8 JUMP JUMPDEST POP SWAP4 SWAP3 POP POP POP JUMP JUMPDEST PUSH0 DUP3 PUSH1 0x1F DUP4 ADD SLT PUSH2 0x55B JUMPI PUSH2 0x55A PUSH2 0x438 JUMP JUMPDEST JUMPDEST DUP2 CALLDATALOAD PUSH2 0x56B DUP5 DUP3 PUSH1 0x20 DUP7 ADD PUSH2 0x506 JUMP JUMPDEST SWAP2 POP POP SWAP3 SWAP2 POP POP JUMP JUMPDEST PUSH0 PUSH1 0x20 DUP3 DUP5 SUB SLT ISZERO PUSH2 0x589 JUMPI PUSH2 0x588 PUSH2 0x263 JUMP JUMPDEST JUMPDEST PUSH0 DUP3 ADD CALLDATALOAD PUSH8 0xFFFFFFFFFFFFFFFF DUP2 GT ISZERO PUSH2 0x5A6 JUMPI PUSH2 0x5A5 PUSH2 0x267 JUMP JUMPDEST JUMPDEST PUSH2 0x5B2 DUP5 DUP3 DUP6 ADD PUSH2 0x547 JUMP JUMPDEST SWAP2 POP POP SWAP3 SWAP2 POP POP JUMP JUMPDEST PUSH0 PUSH2 0x5C5 DUP3 PUSH2 0x3A5 JUMP JUMPDEST SWAP1 POP SWAP2 SWAP1 POP JUMP JUMPDEST PUSH2 0x5D5 DUP2 PUSH2 0x5BB JUMP JUMPDEST DUP3 MSTORE POP POP JUMP JUMPDEST PUSH0 PUSH1 0x20 DUP3 ADD SWAP1 POP PUSH2 0x5EE PUSH0 DUP4 ADD DUP5 PUSH2 0x5CC JUMP JUMPDEST SWAP3 SWAP2 POP POP JUMP JUMPDEST PUSH2 0x5FD DUP2 PUSH2 0x26B JUMP JUMPDEST DUP3 MSTORE POP POP JUMP JUMPDEST PUSH2 0x60C DUP2 PUSH2 0x29E JUMP JUMPDEST DUP3 MSTORE POP POP JUMP JUMPDEST PUSH2 0x61B DUP2 PUSH2 0x2D5 JUMP JUMPDEST DUP3 MSTORE POP POP JUMP JUMPDEST PUSH2 0x62A DUP2 PUSH2 0x308 JUMP JUMPDEST DUP3 MSTORE POP POP JUMP JUMPDEST PUSH0 PUSH1 0xA0 DUP3 ADD SWAP1 POP PUSH2 0x643 PUSH0 DUP4 ADD DUP9 PUSH2 0x5CC JUMP JUMPDEST PUSH2 0x650 PUSH1 0x20 DUP4 ADD DUP8 PUSH2 0x5F4 JUMP JUMPDEST PUSH2 0x65D PUSH1 0x40 DUP4 ADD DUP7 PUSH2 0x603 JUMP JUMPDEST PUSH2 0x66A PUSH1 0x60 DUP4 ADD DUP6 PUSH2 0x612 JUMP JUMPDEST PUSH2 0x677 PUSH1 0x80 DUP4 ADD DUP5 PUSH2 0x621 JUMP JUMPDEST SWAP7 SWAP6 POP POP POP POP POP POP JUMP JUMPDEST PUSH0 PUSH8 0xFFFFFFFFFFFFFFFF DUP3 AND SWAP1 POP SWAP2 SWAP1 POP JUMP JUMPDEST PUSH2 0x69D DUP2 PUSH2 0x681 JUMP JUMPDEST DUP2 EQ PUSH2 0x6A7 JUMPI PUSH0 DUP1 REVERT JUMPDEST POP JUMP JUMPDEST PUSH0 DUP2 MLOAD SWAP1 POP PUSH2 0x6B8 DUP2 PUSH2 0x694 JUMP JUMPDEST SWAP3 SWAP2 POP POP JUMP JUMPDEST PUSH0 PUSH1 0x20 DUP3 DUP5 SUB SLT ISZERO PUSH2 0x6D3 JUMPI PUSH2 0x6D2 PUSH2 0x263 JUMP JUMPDEST JUMPDEST PUSH0 PUSH2 0x6E0 DUP5 DUP3 DUP6 ADD PUSH2 0x6AA JUMP JUMPDEST SWAP2 POP POP SWAP3 SWAP2 POP POP JUMP JUMPDEST PUSH0 DUP2 MLOAD SWAP1 POP SWAP2 SWAP1 POP JUMP JUMPDEST PUSH0 DUP3 DUP3 MSTORE PUSH1 0x20 DUP3 ADD SWAP1 POP SWAP3 SWAP2 POP POP JUMP JUMPDEST DUP3 DUP2 DUP4 MCOPY PUSH0 DUP4 DUP4 ADD MSTORE POP POP POP JUMP JUMPDEST PUSH0 PUSH2 0x71B DUP3 PUSH2 0x6E9 JUMP JUMPDEST PUSH2 0x725 DUP2 DUP6 PUSH2 0x6F3 JUMP JUMPDEST SWAP4 POP PUSH2 0x735 DUP2 DUP6 PUSH1 0x20 DUP7 ADD PUSH2 0x703 JUMP JUMPDEST PUSH2 0x73E DUP2 PUSH2 0x440 JUMP JUMPDEST DUP5 ADD SWAP2 POP POP SWAP3 SWAP2 POP POP JUMP JUMPDEST PUSH0 PUSH1 0x20 DUP3 ADD SWAP1 POP DUP2 DUP2 SUB PUSH0 DUP4 ADD MSTORE PUSH2 0x761 DUP2 DUP5 PUSH2 0x711 JUMP JUMPDEST SWAP1 POP SWAP3 SWAP2 POP POP JUMP INVALID LOG2 PUSH5 0x6970667358 0x22 SLT KECCAK256 0xA9 RETURNDATACOPY 0xAC MUL SWAP3 SWAP15 0xEA 0xDF 0xEE SUB 0x29 PUSH4 0xFDD2413F 0xD9 XOR 0xD 0xDD 0xC9 PUSH23 0x11D627B3895A61AF404964736F6C634300081A00330000 "
		},
		"gasEstimates": {
			"creation": {
				"codeDepositCost": "390200",
				"executionCost": "infinite",
				"totalCost": "infinite"
			},
			"external": {
				"complete(bytes)": "infinite",
				"token()": "2552",
				"transfer(uint256,uint16,bytes32,uint32)": "infinite",
				"wormhole()": "infinite"
			}
		},
		"methodIdentifiers": {
			"complete(bytes)": "dd8724ce",
			"token()": "fc0c546a",
			"transfer(uint256,uint16,bytes32,uint32)": "5ccc0d68",
			"wormhole()": "84acd1bb"
		}
	},
	"abi": [
		{
			"inputs": [
				{
					"internalType": "address",
					"name": "_wormhole",
					"type": "address"
				},
				{
					"internalType": "address",
					"name": "_token",
					"type": "address"
				}
			],
			"stateMutability": "nonpayable",
			"type": "constructor"
		},
		{
			"inputs": [
				{
					"internalType": "bytes",
					"name": "encodedVm",
					"type": "bytes"
				}
			],
			"name": "complete",
			"outputs": [],
			"stateMutability": "nonpayable",
			"type": "function"
		},
		{
			"inputs": [],
			"name": "token",
			"outputs": [
				{
					"internalType": "address",
					"name": "",
					"type": "address"
				}
			],
			"stateMutability": "view",
			"type": "function"
		},
		{
			"inputs": [
				{
					"internalType": "uint256",
					"name": "amount",
					"type": "uint256"
				},
				{
					"internalType": "uint16",
					"name": "recipientChain",
					"type": "uint16"
				},
				{
					"internalType": "bytes32",
					"name": "recipient",
					"type": "bytes32"
				},
				{
					"internalType": "uint32",
					"name": "nonce",
					"type": "uint32"
				}
			],
			"name": "transfer",
			"outputs": [],
			"stateMutability": "nonpayable",
			"type": "function"
		},
		{
			"inputs": [],
			"name": "wormhole",
			"outputs": [
				{
					"internalType": "contract IWormhole",
					"name": "",
					"type": "address"
				}
			],
			"stateMutability": "view",
			"type": "function"
		}
	]
}