{
	"contracts/security/zkSnarks/ProofGeneration.sol": {
		"ProofGeneration": {
			"abi": [
				{
					"inputs": [
						{
							"internalType": "string",
							"name": "name",
							"type": "string"
						},
						{
							"internalType": "string",
							"name": "version",
							"type": "string"
						},
						{
							"internalType": "address",
							"name": "_proofVerifier",
							"type": "address"
						}
					],
					"stateMutability": "nonpayable",
					"type": "constructor"
				},
				{
					"inputs": [],
					"name": "AccessControlBadConfirmation",
					"type": "error"
				},
				{
					"inputs": [
						{
							"internalType": "address",
							"name": "account",
							"type": "address"
						},
						{
							"internalType": "bytes32",
							"name": "neededRole",
							"type": "bytes32"
						}
					],
					"name": "AccessControlUnauthorizedAccount",
					"type": "error"
				},
				{
					"inputs": [],
					"name": "InvalidShortString",
					"type": "error"
				},
				{
					"inputs": [
						{
							"internalType": "string",
							"name": "str",
							"type": "string"
						}
					],
					"name": "StringTooLong",
					"type": "error"
				},
				{
					"anonymous": false,
					"inputs": [],
					"name": "EIP712DomainChanged",
					"type": "event"
				},
				{
					"anonymous": false,
					"inputs": [
						{
							"indexed": true,
							"internalType": "address",
							"name": "user",
							"type": "address"
						},
						{
							"indexed": false,
							"internalType": "string",
							"name": "proofId",
							"type": "string"
						}
					],
					"name": "ProofGenerated",
					"type": "event"
				},
				{
					"anonymous": false,
					"inputs": [
						{
							"indexed": true,
							"internalType": "bytes32",
							"name": "role",
							"type": "bytes32"
						},
						{
							"indexed": true,
							"internalType": "bytes32",
							"name": "previousAdminRole",
							"type": "bytes32"
						},
						{
							"indexed": true,
							"internalType": "bytes32",
							"name": "newAdminRole",
							"type": "bytes32"
						}
					],
					"name": "RoleAdminChanged",
					"type": "event"
				},
				{
					"anonymous": false,
					"inputs": [
						{
							"indexed": true,
							"internalType": "bytes32",
							"name": "role",
							"type": "bytes32"
						},
						{
							"indexed": true,
							"internalType": "address",
							"name": "account",
							"type": "address"
						},
						{
							"indexed": true,
							"internalType": "address",
							"name": "sender",
							"type": "address"
						}
					],
					"name": "RoleGranted",
					"type": "event"
				},
				{
					"anonymous": false,
					"inputs": [
						{
							"indexed": true,
							"internalType": "bytes32",
							"name": "role",
							"type": "bytes32"
						},
						{
							"indexed": true,
							"internalType": "address",
							"name": "account",
							"type": "address"
						},
						{
							"indexed": true,
							"internalType": "address",
							"name": "sender",
							"type": "address"
						}
					],
					"name": "RoleRevoked",
					"type": "event"
				},
				{
					"inputs": [],
					"name": "ADMIN_ROLE",
					"outputs": [
						{
							"internalType": "bytes32",
							"name": "",
							"type": "bytes32"
						}
					],
					"stateMutability": "view",
					"type": "function"
				},
				{
					"inputs": [],
					"name": "DEFAULT_ADMIN_ROLE",
					"outputs": [
						{
							"internalType": "bytes32",
							"name": "",
							"type": "bytes32"
						}
					],
					"stateMutability": "view",
					"type": "function"
				},
				{
					"inputs": [],
					"name": "VERIFIER_ROLE",
					"outputs": [
						{
							"internalType": "bytes32",
							"name": "",
							"type": "bytes32"
						}
					],
					"stateMutability": "view",
					"type": "function"
				},
				{
					"inputs": [],
					"name": "eip712Domain",
					"outputs": [
						{
							"internalType": "bytes1",
							"name": "fields",
							"type": "bytes1"
						},
						{
							"internalType": "string",
							"name": "name",
							"type": "string"
						},
						{
							"internalType": "string",
							"name": "version",
							"type": "string"
						},
						{
							"internalType": "uint256",
							"name": "chainId",
							"type": "uint256"
						},
						{
							"internalType": "address",
							"name": "verifyingContract",
							"type": "address"
						},
						{
							"internalType": "bytes32",
							"name": "salt",
							"type": "bytes32"
						},
						{
							"internalType": "uint256[]",
							"name": "extensions",
							"type": "uint256[]"
						}
					],
					"stateMutability": "view",
					"type": "function"
				},
				{
					"inputs": [
						{
							"internalType": "bytes",
							"name": "proof",
							"type": "bytes"
						},
						{
							"internalType": "uint256[]",
							"name": "inputs",
							"type": "uint256[]"
						},
						{
							"internalType": "string",
							"name": "proofId",
							"type": "string"
						}
					],
					"name": "generateProof",
					"outputs": [],
					"stateMutability": "nonpayable",
					"type": "function"
				},
				{
					"inputs": [
						{
							"internalType": "bytes32",
							"name": "role",
							"type": "bytes32"
						}
					],
					"name": "getRoleAdmin",
					"outputs": [
						{
							"internalType": "bytes32",
							"name": "",
							"type": "bytes32"
						}
					],
					"stateMutability": "view",
					"type": "function"
				},
				{
					"inputs": [
						{
							"internalType": "bytes32",
							"name": "role",
							"type": "bytes32"
						},
						{
							"internalType": "address",
							"name": "account",
							"type": "address"
						}
					],
					"name": "grantRole",
					"outputs": [],
					"stateMutability": "nonpayable",
					"type": "function"
				},
				{
					"inputs": [
						{
							"internalType": "address",
							"name": "account",
							"type": "address"
						}
					],
					"name": "grantVerifierRole",
					"outputs": [],
					"stateMutability": "nonpayable",
					"type": "function"
				},
				{
					"inputs": [
						{
							"internalType": "bytes32",
							"name": "role",
							"type": "bytes32"
						},
						{
							"internalType": "address",
							"name": "account",
							"type": "address"
						}
					],
					"name": "hasRole",
					"outputs": [
						{
							"internalType": "bool",
							"name": "",
							"type": "bool"
						}
					],
					"stateMutability": "view",
					"type": "function"
				},
				{
					"inputs": [
						{
							"internalType": "address",
							"name": "account",
							"type": "address"
						}
					],
					"name": "hasVerifierRole",
					"outputs": [
						{
							"internalType": "bool",
							"name": "",
							"type": "bool"
						}
					],
					"stateMutability": "view",
					"type": "function"
				},
				{
					"inputs": [],
					"name": "proofVerifier",
					"outputs": [
						{
							"internalType": "contract IProofVerifier",
							"name": "",
							"type": "address"
						}
					],
					"stateMutability": "view",
					"type": "function"
				},
				{
					"inputs": [
						{
							"internalType": "bytes32",
							"name": "role",
							"type": "bytes32"
						},
						{
							"internalType": "address",
							"name": "callerConfirmation",
							"type": "address"
						}
					],
					"name": "renounceRole",
					"outputs": [],
					"stateMutability": "nonpayable",
					"type": "function"
				},
				{
					"inputs": [
						{
							"internalType": "bytes32",
							"name": "role",
							"type": "bytes32"
						},
						{
							"internalType": "address",
							"name": "account",
							"type": "address"
						}
					],
					"name": "revokeRole",
					"outputs": [],
					"stateMutability": "nonpayable",
					"type": "function"
				},
				{
					"inputs": [
						{
							"internalType": "address",
							"name": "account",
							"type": "address"
						}
					],
					"name": "revokeVerifierRole",
					"outputs": [],
					"stateMutability": "nonpayable",
					"type": "function"
				},
				{
					"inputs": [
						{
							"internalType": "address",
							"name": "_proofVerifier",
							"type": "address"
						}
					],
					"name": "setProofVerifier",
					"outputs": [],
					"stateMutability": "nonpayable",
					"type": "function"
				},
				{
					"inputs": [
						{
							"internalType": "bytes4",
							"name": "interfaceId",
							"type": "bytes4"
						}
					],
					"name": "supportsInterface",
					"outputs": [
						{
							"internalType": "bool",
							"name": "",
							"type": "bool"
						}
					],
					"stateMutability": "view",
					"type": "function"
				}
			],
			"devdoc": {
				"details": "This contract is responsible for generating zk-SNARKs proofs for transactions and data validation.",
				"errors": {
					"AccessControlBadConfirmation()": [
						{
							"details": "The caller of a function is not the expected one. NOTE: Don't confuse with {AccessControlUnauthorizedAccount}."
						}
					],
					"AccessControlUnauthorizedAccount(address,bytes32)": [
						{
							"details": "The `account` is missing a role."
						}
					]
				},
				"events": {
					"EIP712DomainChanged()": {
						"details": "MAY be emitted to signal that the domain could have changed."
					},
					"RoleAdminChanged(bytes32,bytes32,bytes32)": {
						"details": "Emitted when `newAdminRole` is set as ``role``'s admin role, replacing `previousAdminRole` `DEFAULT_ADMIN_ROLE` is the starting admin for all roles, despite {RoleAdminChanged} not being emitted signaling this."
					},
					"RoleGranted(bytes32,address,address)": {
						"details": "Emitted when `account` is granted `role`. `sender` is the account that originated the contract call, an admin role bearer except when using {AccessControl-_setupRole}."
					},
					"RoleRevoked(bytes32,address,address)": {
						"details": "Emitted when `account` is revoked `role`. `sender` is the account that originated the contract call:   - if using `revokeRole`, it is the admin role bearer   - if using `renounceRole`, it is the role bearer (i.e. `account`)"
					}
				},
				"kind": "dev",
				"methods": {
					"eip712Domain()": {
						"details": "See {IERC-5267}."
					},
					"generateProof(bytes,uint256[],string)": {
						"details": "Generate zk-SNARK proof for a transaction or data.",
						"params": {
							"inputs": "The inputs used for the proof.",
							"proof": "The zk-SNARK proof.",
							"proofId": "Unique identifier for the proof."
						}
					},
					"getRoleAdmin(bytes32)": {
						"details": "Returns the admin role that controls `role`. See {grantRole} and {revokeRole}. To change a role's admin, use {_setRoleAdmin}."
					},
					"grantRole(bytes32,address)": {
						"details": "Grants `role` to `account`. If `account` had not been already granted `role`, emits a {RoleGranted} event. Requirements: - the caller must have ``role``'s admin role. May emit a {RoleGranted} event."
					},
					"grantVerifierRole(address)": {
						"details": "Grant the verifier role to an account.",
						"params": {
							"account": "The account to grant the verifier role to."
						}
					},
					"hasRole(bytes32,address)": {
						"details": "Returns `true` if `account` has been granted `role`."
					},
					"hasVerifierRole(address)": {
						"details": "Check if an account has the verifier role.",
						"params": {
							"account": "The account to check."
						},
						"returns": {
							"_0": "True if the account has the verifier role, false otherwise."
						}
					},
					"renounceRole(bytes32,address)": {
						"details": "Revokes `role` from the calling account. Roles are often managed via {grantRole} and {revokeRole}: this function's purpose is to provide a mechanism for accounts to lose their privileges if they are compromised (such as when a trusted device is misplaced). If the calling account had been revoked `role`, emits a {RoleRevoked} event. Requirements: - the caller must be `callerConfirmation`. May emit a {RoleRevoked} event."
					},
					"revokeRole(bytes32,address)": {
						"details": "Revokes `role` from `account`. If `account` had been granted `role`, emits a {RoleRevoked} event. Requirements: - the caller must have ``role``'s admin role. May emit a {RoleRevoked} event."
					},
					"revokeVerifierRole(address)": {
						"details": "Revoke the verifier role from an account.",
						"params": {
							"account": "The account to revoke the verifier role from."
						}
					},
					"setProofVerifier(address)": {
						"details": "Set a new proof verifier contract address.",
						"params": {
							"_proofVerifier": "The address of the new proof verifier contract."
						}
					},
					"supportsInterface(bytes4)": {
						"details": "See {IERC165-supportsInterface}."
					}
				},
				"title": "ProofGeneration",
				"version": 1
			},
			"evm": {
				"assembly": "    /* \"contracts/security/zkSnarks/ProofGeneration.sol\":897:3156  contract ProofGeneration is AccessControl, EIP712 {... */\n  mstore(0x40, 0x0160)\n    /* \"contracts/security/zkSnarks/ProofGeneration.sol\":1258:1474  constructor(string memory name, string memory version, address _proofVerifier) EIP712(name, version) {... */\n  callvalue\n  dup1\n  iszero\n  tag_1\n  jumpi\n  0x00\n  dup1\n  revert\ntag_1:\n  pop\n  mload(0x40)\n  sub(codesize, bytecodeSize)\n  dup1\n  bytecodeSize\n  dup4\n  codecopy\n  dup2\n  dup2\n  add\n  0x40\n  mstore\n  dup2\n  add\n  swap1\n  tag_2\n  swap2\n  swap1\n  tag_3\n  jump\t// in\ntag_2:\n    /* \"contracts/security/zkSnarks/ProofGeneration.sol\":1344:1348  name */\n  dup3\n    /* \"contracts/security/zkSnarks/ProofGeneration.sol\":1350:1357  version */\n  dup3\n    /* \"@openzeppelin/contracts/utils/cryptography/EIP712.sol\":3401:3446  name.toShortStringWithFallback(_nameFallback) */\n  tag_7\n    /* \"@openzeppelin/contracts/utils/cryptography/EIP712.sol\":3432:3445  _nameFallback */\n  0x01\n    /* \"@openzeppelin/contracts/utils/cryptography/EIP712.sol\":3401:3405  name */\n  dup4\n    /* \"@openzeppelin/contracts/utils/cryptography/EIP712.sol\":3401:3431  name.toShortStringWithFallback */\n  shl(0x20, tag_8)\n  swap1\n    /* \"@openzeppelin/contracts/utils/cryptography/EIP712.sol\":3401:3446  name.toShortStringWithFallback(_nameFallback) */\n  swap2\n  swap1\n  0x20\n  shr\n  jump\t// in\ntag_7:\n    /* \"@openzeppelin/contracts/utils/cryptography/EIP712.sol\":3393:3446  _name = name.toShortStringWithFallback(_nameFallback) */\n  0x0120\n  dup2\n  dup2\n  mstore\n  pop\n  pop\n    /* \"@openzeppelin/contracts/utils/cryptography/EIP712.sol\":3467:3518  version.toShortStringWithFallback(_versionFallback) */\n  tag_9\n    /* \"@openzeppelin/contracts/utils/cryptography/EIP712.sol\":3501:3517  _versionFallback */\n  0x02\n    /* \"@openzeppelin/contracts/utils/cryptography/EIP712.sol\":3467:3474  version */\n  dup3\n    /* \"@openzeppelin/contracts/utils/cryptography/EIP712.sol\":3467:3500  version.toShortStringWithFallback */\n  shl(0x20, tag_8)\n  swap1\n    /* \"@openzeppelin/contracts/utils/cryptography/EIP712.sol\":3467:3518  version.toShortStringWithFallback(_versionFallback) */\n  swap2\n  swap1\n  0x20\n  shr\n  jump\t// in\ntag_9:\n    /* \"@openzeppelin/contracts/utils/cryptography/EIP712.sol\":3456:3518  _version = version.toShortStringWithFallback(_versionFallback) */\n  0x0140\n  dup2\n  dup2\n  mstore\n  pop\n  pop\n    /* \"@openzeppelin/contracts/utils/cryptography/EIP712.sol\":3558:3562  name */\n  dup2\n    /* \"@openzeppelin/contracts/utils/cryptography/EIP712.sol\":3542:3564  keccak256(bytes(name)) */\n  dup1\n  mload\n  swap1\n  0x20\n  add\n  keccak256\n    /* \"@openzeppelin/contracts/utils/cryptography/EIP712.sol\":3528:3564  _hashedName = keccak256(bytes(name)) */\n  0xe0\n  dup2\n  dup2\n  mstore\n  pop\n  pop\n    /* \"@openzeppelin/contracts/utils/cryptography/EIP712.sol\":3607:3614  version */\n  dup1\n    /* \"@openzeppelin/contracts/utils/cryptography/EIP712.sol\":3591:3616  keccak256(bytes(version)) */\n  dup1\n  mload\n  swap1\n  0x20\n  add\n  keccak256\n    /* \"@openzeppelin/contracts/utils/cryptography/EIP712.sol\":3574:3616  _hashedVersion = keccak256(bytes(version)) */\n  0x0100\n  dup2\n  dup2\n  mstore\n  pop\n  pop\n    /* \"@openzeppelin/contracts/utils/cryptography/EIP712.sol\":3644:3657  block.chainid */\n  chainid\n    /* \"@openzeppelin/contracts/utils/cryptography/EIP712.sol\":3627:3657  _cachedChainId = block.chainid */\n  0xa0\n  dup2\n  dup2\n  mstore\n  pop\n  pop\n    /* \"@openzeppelin/contracts/utils/cryptography/EIP712.sol\":3692:3715  _buildDomainSeparator() */\n  tag_10\n    /* \"@openzeppelin/contracts/utils/cryptography/EIP712.sol\":3692:3713  _buildDomainSeparator */\n  shl(0x20, tag_11)\n    /* \"@openzeppelin/contracts/utils/cryptography/EIP712.sol\":3692:3715  _buildDomainSeparator() */\n  0x20\n  shr\n  jump\t// in\ntag_10:\n    /* \"@openzeppelin/contracts/utils/cryptography/EIP712.sol\":3667:3715  _cachedDomainSeparator = _buildDomainSeparator() */\n  0x80\n  dup2\n  dup2\n  mstore\n  pop\n  pop\n    /* \"@openzeppelin/contracts/utils/cryptography/EIP712.sol\":3747:3751  this */\n  address\n    /* \"@openzeppelin/contracts/utils/cryptography/EIP712.sol\":3725:3752  _cachedThis = address(this) */\n  0xffffffffffffffffffffffffffffffffffffffff\n  and\n  0xc0\n  dup2\n  0xffffffffffffffffffffffffffffffffffffffff\n  and\n  dup2\n  mstore\n  pop\n  pop\n    /* \"@openzeppelin/contracts/utils/cryptography/EIP712.sol\":3328:3759  constructor(string memory name, string memory version) {... */\n  pop\n  pop\n    /* \"contracts/security/zkSnarks/ProofGeneration.sol\":1369:1411  _grantRole(DEFAULT_ADMIN_ROLE, msg.sender) */\n  tag_13\n    /* \"@openzeppelin/contracts/access/AccessControl.sol\":2232:2236  0x00 */\n  0x00\n    /* \"contracts/security/zkSnarks/ProofGeneration.sol\":1380:1398  DEFAULT_ADMIN_ROLE */\n  dup1\n  shl\n    /* \"contracts/security/zkSnarks/ProofGeneration.sol\":1400:1410  msg.sender */\n  caller\n    /* \"contracts/security/zkSnarks/ProofGeneration.sol\":1369:1379  _grantRole */\n  shl(0x20, tag_14)\n    /* \"contracts/security/zkSnarks/ProofGeneration.sol\":1369:1411  _grantRole(DEFAULT_ADMIN_ROLE, msg.sender) */\n  0x20\n  shr\n  jump\t// in\ntag_13:\n  pop\n    /* \"contracts/security/zkSnarks/ProofGeneration.sol\":1452:1466  _proofVerifier */\n  dup1\n    /* \"contracts/security/zkSnarks/ProofGeneration.sol\":1421:1434  proofVerifier */\n  0x03\n  0x00\n    /* \"contracts/security/zkSnarks/ProofGeneration.sol\":1421:1467  proofVerifier = IProofVerifier(_proofVerifier) */\n  0x0100\n  exp\n  dup2\n  sload\n  dup2\n  0xffffffffffffffffffffffffffffffffffffffff\n  mul\n  not\n  and\n  swap1\n  dup4\n  0xffffffffffffffffffffffffffffffffffffffff\n  and\n  mul\n  or\n  swap1\n  sstore\n  pop\n    /* \"contracts/security/zkSnarks/ProofGeneration.sol\":1258:1474  constructor(string memory name, string memory version, address _proofVerifier) EIP712(name, version) {... */\n  pop\n  pop\n  pop\n    /* \"contracts/security/zkSnarks/ProofGeneration.sol\":897:3156  contract ProofGeneration is AccessControl, EIP712 {... */\n  jump(tag_15)\n    /* \"@openzeppelin/contracts/utils/ShortStrings.sol\":2914:3254  function toShortStringWithFallback(string memory value, string storage store) internal returns (ShortString) {... */\ntag_8:\n    /* \"@openzeppelin/contracts/utils/ShortStrings.sol\":3010:3021  ShortString */\n  0x00\n    /* \"@openzeppelin/contracts/utils/ShortStrings.sol\":3059:3061  32 */\n  0x20\n    /* \"@openzeppelin/contracts/utils/ShortStrings.sol\":3043:3048  value */\n  dup4\n    /* \"@openzeppelin/contracts/utils/ShortStrings.sol\":3037:3056  bytes(value).length */\n  mload\n    /* \"@openzeppelin/contracts/utils/ShortStrings.sol\":3037:3061  bytes(value).length < 32 */\n  lt\n    /* \"@openzeppelin/contracts/utils/ShortStrings.sol\":3033:3248  if (bytes(value).length < 32) {... */\n  iszero\n  tag_17\n  jumpi\n    /* \"@openzeppelin/contracts/utils/ShortStrings.sol\":3084:3104  toShortString(value) */\n  tag_18\n    /* \"@openzeppelin/contracts/utils/ShortStrings.sol\":3098:3103  value */\n  dup4\n    /* \"@openzeppelin/contracts/utils/ShortStrings.sol\":3084:3097  toShortString */\n  shl(0x20, tag_19)\n    /* \"@openzeppelin/contracts/utils/ShortStrings.sol\":3084:3104  toShortString(value) */\n  0x20\n  shr\n  jump\t// in\ntag_18:\n    /* \"@openzeppelin/contracts/utils/ShortStrings.sol\":3077:3104  return toShortString(value) */\n  swap1\n  pop\n  jump(tag_16)\n    /* \"@openzeppelin/contracts/utils/ShortStrings.sol\":3033:3248  if (bytes(value).length < 32) {... */\ntag_17:\n    /* \"@openzeppelin/contracts/utils/ShortStrings.sol\":3176:3181  value */\n  dup3\n    /* \"@openzeppelin/contracts/utils/ShortStrings.sol\":3135:3167  StorageSlot.getStringSlot(store) */\n  tag_21\n    /* \"@openzeppelin/contracts/utils/ShortStrings.sol\":3161:3166  store */\n  dup4\n    /* \"@openzeppelin/contracts/utils/ShortStrings.sol\":3135:3160  StorageSlot.getStringSlot */\n  shl(0x20, tag_22)\n    /* \"@openzeppelin/contracts/utils/ShortStrings.sol\":3135:3167  StorageSlot.getStringSlot(store) */\n  0x20\n  shr\n  jump\t// in\ntag_21:\n    /* \"@openzeppelin/contracts/utils/ShortStrings.sol\":3135:3173  StorageSlot.getStringSlot(store).value */\n  0x00\n  add\n    /* \"@openzeppelin/contracts/utils/ShortStrings.sol\":3135:3181  StorageSlot.getStringSlot(store).value = value */\n  swap1\n  dup2\n  tag_23\n  swap2\n  swap1\n  tag_24\n  jump\t// in\ntag_23:\n  pop\n    /* \"@openzeppelin/contracts/utils/ShortStrings.sol\":1390:1456  0x00000000000000000000000000000000000000000000000000000000000000FF */\n  0xff\n    /* \"@openzeppelin/contracts/utils/ShortStrings.sol\":3219:3236  FALLBACK_SENTINEL */\n  0x00\n  shl\n    /* \"@openzeppelin/contracts/utils/ShortStrings.sol\":3195:3237  return ShortString.wrap(FALLBACK_SENTINEL) */\n  swap1\n  pop\n    /* \"@openzeppelin/contracts/utils/ShortStrings.sol\":2914:3254  function toShortStringWithFallback(string memory value, string storage store) internal returns (ShortString) {... */\ntag_16:\n  swap3\n  swap2\n  pop\n  pop\n  jump\t// out\n    /* \"@openzeppelin/contracts/utils/cryptography/EIP712.sol\":4113:4292  function _buildDomainSeparator() private view returns (bytes32) {... */\ntag_11:\n    /* \"@openzeppelin/contracts/utils/cryptography/EIP712.sol\":4168:4175  bytes32 */\n  0x00\n    /* \"@openzeppelin/contracts/utils/cryptography/EIP712.sol\":2079:2174  keccak256(\"EIP712Domain(string name,string version,uint256 chainId,address verifyingContract)\") */\n  0x8b73c3c69bb8fe3d512ecc4cf759cc79239f7b179b0ffacaa9a75d522b39400f\n    /* \"@openzeppelin/contracts/utils/cryptography/EIP712.sol\":4226:4237  _hashedName */\n  mload(0xe0)\n    /* \"@openzeppelin/contracts/utils/cryptography/EIP712.sol\":4239:4253  _hashedVersion */\n  mload(0x0100)\n    /* \"@openzeppelin/contracts/utils/cryptography/EIP712.sol\":4255:4268  block.chainid */\n  chainid\n    /* \"@openzeppelin/contracts/utils/cryptography/EIP712.sol\":4278:4282  this */\n  address\n    /* \"@openzeppelin/contracts/utils/cryptography/EIP712.sol\":4204:4284  abi.encode(TYPE_HASH, _hashedName, _hashedVersion, block.chainid, address(this)) */\n  add(0x20, mload(0x40))\n  tag_26\n  swap6\n  swap5\n  swap4\n  swap3\n  swap2\n  swap1\n  tag_27\n  jump\t// in\ntag_26:\n  mload(0x40)\n  0x20\n  dup2\n  dup4\n  sub\n  sub\n  dup2\n  mstore\n  swap1\n  0x40\n  mstore\n    /* \"@openzeppelin/contracts/utils/cryptography/EIP712.sol\":4194:4285  keccak256(abi.encode(TYPE_HASH, _hashedName, _hashedVersion, block.chainid, address(this))) */\n  dup1\n  mload\n  swap1\n  0x20\n  add\n  keccak256\n    /* \"@openzeppelin/contracts/utils/cryptography/EIP712.sol\":4187:4285  return keccak256(abi.encode(TYPE_HASH, _hashedName, _hashedVersion, block.chainid, address(this))) */\n  swap1\n  pop\n    /* \"@openzeppelin/contracts/utils/cryptography/EIP712.sol\":4113:4292  function _buildDomainSeparator() private view returns (bytes32) {... */\n  swap1\n  jump\t// out\n    /* \"@openzeppelin/contracts/access/AccessControl.sol\":6179:6495  function _grantRole(bytes32 role, address account) internal virtual returns (bool) {... */\ntag_14:\n    /* \"@openzeppelin/contracts/access/AccessControl.sol\":6256:6260  bool */\n  0x00\n    /* \"@openzeppelin/contracts/access/AccessControl.sol\":6277:6299  hasRole(role, account) */\n  tag_29\n    /* \"@openzeppelin/contracts/access/AccessControl.sol\":6285:6289  role */\n  dup4\n    /* \"@openzeppelin/contracts/access/AccessControl.sol\":6291:6298  account */\n  dup4\n    /* \"@openzeppelin/contracts/access/AccessControl.sol\":6277:6284  hasRole */\n  shl(0x20, tag_30)\n    /* \"@openzeppelin/contracts/access/AccessControl.sol\":6277:6299  hasRole(role, account) */\n  0x20\n  shr\n  jump\t// in\ntag_29:\n    /* \"@openzeppelin/contracts/access/AccessControl.sol\":6272:6489  if (!hasRole(role, account)) {... */\n  tag_31\n  jumpi\n    /* \"@openzeppelin/contracts/access/AccessControl.sol\":6347:6351  true */\n  0x01\n    /* \"@openzeppelin/contracts/access/AccessControl.sol\":6315:6321  _roles */\n  0x00\n    /* \"@openzeppelin/contracts/access/AccessControl.sol\":6315:6327  _roles[role] */\n  dup1\n    /* \"@openzeppelin/contracts/access/AccessControl.sol\":6322:6326  role */\n  dup6\n    /* \"@openzeppelin/contracts/access/AccessControl.sol\":6315:6327  _roles[role] */\n  dup2\n  mstore\n  0x20\n  add\n  swap1\n  dup2\n  mstore\n  0x20\n  add\n  0x00\n  keccak256\n    /* \"@openzeppelin/contracts/access/AccessControl.sol\":6315:6335  _roles[role].hasRole */\n  0x00\n  add\n    /* \"@openzeppelin/contracts/access/AccessControl.sol\":6315:6344  _roles[role].hasRole[account] */\n  0x00\n    /* \"@openzeppelin/contracts/access/AccessControl.sol\":6336:6343  account */\n  dup5\n    /* \"@openzeppelin/contracts/access/AccessControl.sol\":6315:6344  _roles[role].hasRole[account] */\n  0xffffffffffffffffffffffffffffffffffffffff\n  and\n  0xffffffffffffffffffffffffffffffffffffffff\n  and\n  dup2\n  mstore\n  0x20\n  add\n  swap1\n  dup2\n  mstore\n  0x20\n  add\n  0x00\n  keccak256\n  0x00\n    /* \"@openzeppelin/contracts/access/AccessControl.sol\":6315:6351  _roles[role].hasRole[account] = true */\n  0x0100\n  exp\n  dup2\n  sload\n  dup2\n  0xff\n  mul\n  not\n  and\n  swap1\n  dup4\n  iszero\n  iszero\n  mul\n  or\n  swap1\n  sstore\n  pop\n    /* \"@openzeppelin/contracts/access/AccessControl.sol\":6397:6409  _msgSender() */\n  tag_32\n    /* \"@openzeppelin/contracts/access/AccessControl.sol\":6397:6407  _msgSender */\n  shl(0x20, tag_33)\n    /* \"@openzeppelin/contracts/access/AccessControl.sol\":6397:6409  _msgSender() */\n  0x20\n  shr\n  jump\t// in\ntag_32:\n    /* \"@openzeppelin/contracts/access/AccessControl.sol\":6370:6410  RoleGranted(role, account, _msgSender()) */\n  0xffffffffffffffffffffffffffffffffffffffff\n  and\n    /* \"@openzeppelin/contracts/access/AccessControl.sol\":6388:6395  account */\n  dup3\n    /* \"@openzeppelin/contracts/access/AccessControl.sol\":6370:6410  RoleGranted(role, account, _msgSender()) */\n  0xffffffffffffffffffffffffffffffffffffffff\n  and\n    /* \"@openzeppelin/contracts/access/AccessControl.sol\":6382:6386  role */\n  dup5\n    /* \"@openzeppelin/contracts/access/AccessControl.sol\":6370:6410  RoleGranted(role, account, _msgSender()) */\n  0x2f8788117e7eff1d82e926ec794901d17c78024a50270940304540a733656f0d\n  mload(0x40)\n  mload(0x40)\n  dup1\n  swap2\n  sub\n  swap1\n  log4\n    /* \"@openzeppelin/contracts/access/AccessControl.sol\":6431:6435  true */\n  0x01\n    /* \"@openzeppelin/contracts/access/AccessControl.sol\":6424:6435  return true */\n  swap1\n  pop\n  jump(tag_28)\n    /* \"@openzeppelin/contracts/access/AccessControl.sol\":6272:6489  if (!hasRole(role, account)) {... */\ntag_31:\n    /* \"@openzeppelin/contracts/access/AccessControl.sol\":6473:6478  false */\n  0x00\n    /* \"@openzeppelin/contracts/access/AccessControl.sol\":6466:6478  return false */\n  swap1\n  pop\n    /* \"@openzeppelin/contracts/access/AccessControl.sol\":6179:6495  function _grantRole(bytes32 role, address account) internal virtual returns (bool) {... */\ntag_28:\n  swap3\n  swap2\n  pop\n  pop\n  jump\t// out\n    /* \"@openzeppelin/contracts/utils/ShortStrings.sol\":1708:1994  function toShortString(string memory str) internal pure returns (ShortString) {... */\ntag_19:\n    /* \"@openzeppelin/contracts/utils/ShortStrings.sol\":1773:1784  ShortString */\n  0x00\n    /* \"@openzeppelin/contracts/utils/ShortStrings.sol\":1796:1813  bytes memory bstr */\n  dup1\n    /* \"@openzeppelin/contracts/utils/ShortStrings.sol\":1822:1825  str */\n  dup3\n    /* \"@openzeppelin/contracts/utils/ShortStrings.sol\":1796:1826  bytes memory bstr = bytes(str) */\n  swap1\n  pop\n    /* \"@openzeppelin/contracts/utils/ShortStrings.sol\":1854:1856  31 */\n  0x1f\n    /* \"@openzeppelin/contracts/utils/ShortStrings.sol\":1840:1844  bstr */\n  dup2\n    /* \"@openzeppelin/contracts/utils/ShortStrings.sol\":1840:1851  bstr.length */\n  mload\n    /* \"@openzeppelin/contracts/utils/ShortStrings.sol\":1840:1856  bstr.length > 31 */\n  gt\n    /* \"@openzeppelin/contracts/utils/ShortStrings.sol\":1836:1908  if (bstr.length > 31) {... */\n  iszero\n  tag_36\n  jumpi\n    /* \"@openzeppelin/contracts/utils/ShortStrings.sol\":1893:1896  str */\n  dup3\n    /* \"@openzeppelin/contracts/utils/ShortStrings.sol\":1879:1897  StringTooLong(str) */\n  mload(0x40)\n  0x305a27a900000000000000000000000000000000000000000000000000000000\n  dup2\n  mstore\n  0x04\n  add\n  tag_37\n  swap2\n  swap1\n  tag_38\n  jump\t// in\ntag_37:\n  mload(0x40)\n  dup1\n  swap2\n  sub\n  swap1\n  revert\n    /* \"@openzeppelin/contracts/utils/ShortStrings.sol\":1836:1908  if (bstr.length > 31) {... */\ntag_36:\n    /* \"@openzeppelin/contracts/utils/ShortStrings.sol\":1974:1978  bstr */\n  dup1\n    /* \"@openzeppelin/contracts/utils/ShortStrings.sol\":1974:1985  bstr.length */\n  mload\n    /* \"@openzeppelin/contracts/utils/ShortStrings.sol\":1965:1969  bstr */\n  dup2\n    /* \"@openzeppelin/contracts/utils/ShortStrings.sol\":1957:1970  bytes32(bstr) */\n  tag_39\n  swap1\n  tag_40\n  jump\t// in\ntag_39:\n    /* \"@openzeppelin/contracts/utils/ShortStrings.sol\":1949:1971  uint256(bytes32(bstr)) */\n  0x00\n  shr\n    /* \"@openzeppelin/contracts/utils/ShortStrings.sol\":1949:1985  uint256(bytes32(bstr)) | bstr.length */\n  or\n    /* \"@openzeppelin/contracts/utils/ShortStrings.sol\":1941:1986  bytes32(uint256(bytes32(bstr)) | bstr.length) */\n  0x00\n  shl\n    /* \"@openzeppelin/contracts/utils/ShortStrings.sol\":1917:1987  return ShortString.wrap(bytes32(uint256(bytes32(bstr)) | bstr.length)) */\n  swap2\n  pop\n  pop\n    /* \"@openzeppelin/contracts/utils/ShortStrings.sol\":1708:1994  function toShortString(string memory str) internal pure returns (ShortString) {... */\n  swap2\n  swap1\n  pop\n  jump\t// out\n    /* \"@openzeppelin/contracts/utils/StorageSlot.sol\":3135:3337  function getStringSlot(string storage store) internal pure returns (StringSlot storage r) {... */\ntag_22:\n    /* \"@openzeppelin/contracts/utils/StorageSlot.sol\":3203:3223  StringSlot storage r */\n  0x00\n    /* \"@openzeppelin/contracts/utils/StorageSlot.sol\":3311:3321  store.slot */\n  dup2\n    /* \"@openzeppelin/contracts/utils/StorageSlot.sol\":3301:3321  r.slot := store.slot */\n  swap1\n  pop\n    /* \"@openzeppelin/contracts/utils/StorageSlot.sol\":3135:3337  function getStringSlot(string storage store) internal pure returns (StringSlot storage r) {... */\n  swap2\n  swap1\n  pop\n  jump\t// out\n    /* \"@openzeppelin/contracts/access/AccessControl.sol\":2854:2990  function hasRole(bytes32 role, address account) public view virtual returns (bool) {... */\ntag_30:\n    /* \"@openzeppelin/contracts/access/AccessControl.sol\":2931:2935  bool */\n  0x00\n    /* \"@openzeppelin/contracts/access/AccessControl.sol\":2954:2960  _roles */\n  dup1\n    /* \"@openzeppelin/contracts/access/AccessControl.sol\":2954:2966  _roles[role] */\n  0x00\n    /* \"@openzeppelin/contracts/access/AccessControl.sol\":2961:2965  role */\n  dup5\n    /* \"@openzeppelin/contracts/access/AccessControl.sol\":2954:2966  _roles[role] */\n  dup2\n  mstore\n  0x20\n  add\n  swap1\n  dup2\n  mstore\n  0x20\n  add\n  0x00\n  keccak256\n    /* \"@openzeppelin/contracts/access/AccessControl.sol\":2954:2974  _roles[role].hasRole */\n  0x00\n  add\n    /* \"@openzeppelin/contracts/access/AccessControl.sol\":2954:2983  _roles[role].hasRole[account] */\n  0x00\n    /* \"@openzeppelin/contracts/access/AccessControl.sol\":2975:2982  account */\n  dup4\n    /* \"@openzeppelin/contracts/access/AccessControl.sol\":2954:2983  _roles[role].hasRole[account] */\n  0xffffffffffffffffffffffffffffffffffffffff\n  and\n  0xffffffffffffffffffffffffffffffffffffffff\n  and\n  dup2\n  mstore\n  0x20\n  add\n  swap1\n  dup2\n  mstore\n  0x20\n  add\n  0x00\n  keccak256\n  0x00\n  swap1\n  sload\n  swap1\n  0x0100\n  exp\n  swap1\n  div\n  0xff\n  and\n    /* \"@openzeppelin/contracts/access/AccessControl.sol\":2947:2983  return _roles[role].hasRole[account] */\n  swap1\n  pop\n    /* \"@openzeppelin/contracts/access/AccessControl.sol\":2854:2990  function hasRole(bytes32 role, address account) public view virtual returns (bool) {... */\n  swap3\n  swap2\n  pop\n  pop\n  jump\t// out\n    /* \"@openzeppelin/contracts/utils/Context.sol\":656:752  function _msgSender() internal view virtual returns (address) {... */\ntag_33:\n    /* \"@openzeppelin/contracts/utils/Context.sol\":709:716  address */\n  0x00\n    /* \"@openzeppelin/contracts/utils/Context.sol\":735:745  msg.sender */\n  caller\n    /* \"@openzeppelin/contracts/utils/Context.sol\":728:745  return msg.sender */\n  swap1\n  pop\n    /* \"@openzeppelin/contracts/utils/Context.sol\":656:752  function _msgSender() internal view virtual returns (address) {... */\n  swap1\n  jump\t// out\n    /* \"#utility.yul\":7:82   */\ntag_44:\n    /* \"#utility.yul\":40:46   */\n  0x00\n    /* \"#utility.yul\":73:75   */\n  0x40\n    /* \"#utility.yul\":67:76   */\n  mload\n    /* \"#utility.yul\":57:76   */\n  swap1\n  pop\n    /* \"#utility.yul\":7:82   */\n  swap1\n  jump\t// out\n    /* \"#utility.yul\":88:205   */\ntag_45:\n    /* \"#utility.yul\":197:198   */\n  0x00\n    /* \"#utility.yul\":194:195   */\n  dup1\n    /* \"#utility.yul\":187:199   */\n  revert\n    /* \"#utility.yul\":211:328   */\ntag_46:\n    /* \"#utility.yul\":320:321   */\n  0x00\n    /* \"#utility.yul\":317:318   */\n  dup1\n    /* \"#utility.yul\":310:322   */\n  revert\n    /* \"#utility.yul\":334:451   */\ntag_47:\n    /* \"#utility.yul\":443:444   */\n  0x00\n    /* \"#utility.yul\":440:441   */\n  dup1\n    /* \"#utility.yul\":433:445   */\n  revert\n    /* \"#utility.yul\":457:574   */\ntag_48:\n    /* \"#utility.yul\":566:567   */\n  0x00\n    /* \"#utility.yul\":563:564   */\n  dup1\n    /* \"#utility.yul\":556:568   */\n  revert\n    /* \"#utility.yul\":580:682   */\ntag_49:\n    /* \"#utility.yul\":621:627   */\n  0x00\n    /* \"#utility.yul\":672:674   */\n  0x1f\n    /* \"#utility.yul\":668:675   */\n  not\n    /* \"#utility.yul\":663:665   */\n  0x1f\n    /* \"#utility.yul\":656:661   */\n  dup4\n    /* \"#utility.yul\":652:666   */\n  add\n    /* \"#utility.yul\":648:676   */\n  and\n    /* \"#utility.yul\":638:676   */\n  swap1\n  pop\n    /* \"#utility.yul\":580:682   */\n  swap2\n  swap1\n  pop\n  jump\t// out\n    /* \"#utility.yul\":688:868   */\ntag_50:\n    /* \"#utility.yul\":736:813   */\n  0x4e487b7100000000000000000000000000000000000000000000000000000000\n    /* \"#utility.yul\":733:734   */\n  0x00\n    /* \"#utility.yul\":726:814   */\n  mstore\n    /* \"#utility.yul\":833:837   */\n  0x41\n    /* \"#utility.yul\":830:831   */\n  0x04\n    /* \"#utility.yul\":823:838   */\n  mstore\n    /* \"#utility.yul\":857:861   */\n  0x24\n    /* \"#utility.yul\":854:855   */\n  0x00\n    /* \"#utility.yul\":847:862   */\n  revert\n    /* \"#utility.yul\":874:1155   */\ntag_51:\n    /* \"#utility.yul\":957:984   */\n  tag_98\n    /* \"#utility.yul\":979:983   */\n  dup3\n    /* \"#utility.yul\":957:984   */\n  tag_49\n  jump\t// in\ntag_98:\n    /* \"#utility.yul\":949:955   */\n  dup2\n    /* \"#utility.yul\":945:985   */\n  add\n    /* \"#utility.yul\":1087:1093   */\n  dup2\n    /* \"#utility.yul\":1075:1085   */\n  dup2\n    /* \"#utility.yul\":1072:1094   */\n  lt\n    /* \"#utility.yul\":1051:1069   */\n  0xffffffffffffffff\n    /* \"#utility.yul\":1039:1049   */\n  dup3\n    /* \"#utility.yul\":1036:1070   */\n  gt\n    /* \"#utility.yul\":1033:1095   */\n  or\n    /* \"#utility.yul\":1030:1118   */\n  iszero\n  tag_99\n  jumpi\n    /* \"#utility.yul\":1098:1116   */\n  tag_100\n  tag_50\n  jump\t// in\ntag_100:\n    /* \"#utility.yul\":1030:1118   */\ntag_99:\n    /* \"#utility.yul\":1138:1148   */\n  dup1\n    /* \"#utility.yul\":1134:1136   */\n  0x40\n    /* \"#utility.yul\":1127:1149   */\n  mstore\n    /* \"#utility.yul\":917:1155   */\n  pop\n    /* \"#utility.yul\":874:1155   */\n  pop\n  pop\n  jump\t// out\n    /* \"#utility.yul\":1161:1290   */\ntag_52:\n    /* \"#utility.yul\":1195:1201   */\n  0x00\n    /* \"#utility.yul\":1222:1242   */\n  tag_102\n  tag_44\n  jump\t// in\ntag_102:\n    /* \"#utility.yul\":1212:1242   */\n  swap1\n  pop\n    /* \"#utility.yul\":1251:1284   */\n  tag_103\n    /* \"#utility.yul\":1279:1283   */\n  dup3\n    /* \"#utility.yul\":1271:1277   */\n  dup3\n    /* \"#utility.yul\":1251:1284   */\n  tag_51\n  jump\t// in\ntag_103:\n    /* \"#utility.yul\":1161:1290   */\n  swap2\n  swap1\n  pop\n  jump\t// out\n    /* \"#utility.yul\":1296:1604   */\ntag_53:\n    /* \"#utility.yul\":1358:1362   */\n  0x00\n    /* \"#utility.yul\":1448:1466   */\n  0xffffffffffffffff\n    /* \"#utility.yul\":1440:1446   */\n  dup3\n    /* \"#utility.yul\":1437:1467   */\n  gt\n    /* \"#utility.yul\":1434:1490   */\n  iszero\n  tag_105\n  jumpi\n    /* \"#utility.yul\":1470:1488   */\n  tag_106\n  tag_50\n  jump\t// in\ntag_106:\n    /* \"#utility.yul\":1434:1490   */\ntag_105:\n    /* \"#utility.yul\":1508:1537   */\n  tag_107\n    /* \"#utility.yul\":1530:1536   */\n  dup3\n    /* \"#utility.yul\":1508:1537   */\n  tag_49\n  jump\t// in\ntag_107:\n    /* \"#utility.yul\":1500:1537   */\n  swap1\n  pop\n    /* \"#utility.yul\":1592:1596   */\n  0x20\n    /* \"#utility.yul\":1586:1590   */\n  dup2\n    /* \"#utility.yul\":1582:1597   */\n  add\n    /* \"#utility.yul\":1574:1597   */\n  swap1\n  pop\n    /* \"#utility.yul\":1296:1604   */\n  swap2\n  swap1\n  pop\n  jump\t// out\n    /* \"#utility.yul\":1610:1749   */\ntag_54:\n    /* \"#utility.yul\":1699:1705   */\n  dup3\n    /* \"#utility.yul\":1694:1697   */\n  dup2\n    /* \"#utility.yul\":1689:1692   */\n  dup4\n    /* \"#utility.yul\":1683:1706   */\n  mcopy\n    /* \"#utility.yul\":1740:1741   */\n  0x00\n    /* \"#utility.yul\":1731:1737   */\n  dup4\n    /* \"#utility.yul\":1726:1729   */\n  dup4\n    /* \"#utility.yul\":1722:1738   */\n  add\n    /* \"#utility.yul\":1715:1742   */\n  mstore\n    /* \"#utility.yul\":1610:1749   */\n  pop\n  pop\n  pop\n  jump\t// out\n    /* \"#utility.yul\":1755:2189   */\ntag_55:\n    /* \"#utility.yul\":1844:1849   */\n  0x00\n    /* \"#utility.yul\":1869:1935   */\n  tag_110\n    /* \"#utility.yul\":1885:1934   */\n  tag_111\n    /* \"#utility.yul\":1927:1933   */\n  dup5\n    /* \"#utility.yul\":1885:1934   */\n  tag_53\n  jump\t// in\ntag_111:\n    /* \"#utility.yul\":1869:1935   */\n  tag_52\n  jump\t// in\ntag_110:\n    /* \"#utility.yul\":1860:1935   */\n  swap1\n  pop\n    /* \"#utility.yul\":1958:1964   */\n  dup3\n    /* \"#utility.yul\":1951:1956   */\n  dup2\n    /* \"#utility.yul\":1944:1965   */\n  mstore\n    /* \"#utility.yul\":1996:2000   */\n  0x20\n    /* \"#utility.yul\":1989:1994   */\n  dup2\n    /* \"#utility.yul\":1985:2001   */\n  add\n    /* \"#utility.yul\":2034:2037   */\n  dup5\n    /* \"#utility.yul\":2025:2031   */\n  dup5\n    /* \"#utility.yul\":2020:2023   */\n  dup5\n    /* \"#utility.yul\":2016:2032   */\n  add\n    /* \"#utility.yul\":2013:2038   */\n  gt\n    /* \"#utility.yul\":2010:2122   */\n  iszero\n  tag_112\n  jumpi\n    /* \"#utility.yul\":2041:2120   */\n  tag_113\n  tag_48\n  jump\t// in\ntag_113:\n    /* \"#utility.yul\":2010:2122   */\ntag_112:\n    /* \"#utility.yul\":2131:2183   */\n  tag_114\n    /* \"#utility.yul\":2176:2182   */\n  dup5\n    /* \"#utility.yul\":2171:2174   */\n  dup3\n    /* \"#utility.yul\":2166:2169   */\n  dup6\n    /* \"#utility.yul\":2131:2183   */\n  tag_54\n  jump\t// in\ntag_114:\n    /* \"#utility.yul\":1850:2189   */\n  pop\n    /* \"#utility.yul\":1755:2189   */\n  swap4\n  swap3\n  pop\n  pop\n  pop\n  jump\t// out\n    /* \"#utility.yul\":2209:2564   */\ntag_56:\n    /* \"#utility.yul\":2276:2281   */\n  0x00\n    /* \"#utility.yul\":2325:2328   */\n  dup3\n    /* \"#utility.yul\":2318:2322   */\n  0x1f\n    /* \"#utility.yul\":2310:2316   */\n  dup4\n    /* \"#utility.yul\":2306:2323   */\n  add\n    /* \"#utility.yul\":2302:2329   */\n  slt\n    /* \"#utility.yul\":2292:2414   */\n  tag_116\n  jumpi\n    /* \"#utility.yul\":2333:2412   */\n  tag_117\n  tag_47\n  jump\t// in\ntag_117:\n    /* \"#utility.yul\":2292:2414   */\ntag_116:\n    /* \"#utility.yul\":2443:2449   */\n  dup2\n    /* \"#utility.yul\":2437:2450   */\n  mload\n    /* \"#utility.yul\":2468:2558   */\n  tag_118\n    /* \"#utility.yul\":2554:2557   */\n  dup5\n    /* \"#utility.yul\":2546:2552   */\n  dup3\n    /* \"#utility.yul\":2539:2543   */\n  0x20\n    /* \"#utility.yul\":2531:2537   */\n  dup7\n    /* \"#utility.yul\":2527:2544   */\n  add\n    /* \"#utility.yul\":2468:2558   */\n  tag_55\n  jump\t// in\ntag_118:\n    /* \"#utility.yul\":2459:2558   */\n  swap2\n  pop\n    /* \"#utility.yul\":2282:2564   */\n  pop\n    /* \"#utility.yul\":2209:2564   */\n  swap3\n  swap2\n  pop\n  pop\n  jump\t// out\n    /* \"#utility.yul\":2570:2696   */\ntag_57:\n    /* \"#utility.yul\":2607:2614   */\n  0x00\n    /* \"#utility.yul\":2647:2689   */\n  0xffffffffffffffffffffffffffffffffffffffff\n    /* \"#utility.yul\":2640:2645   */\n  dup3\n    /* \"#utility.yul\":2636:2690   */\n  and\n    /* \"#utility.yul\":2625:2690   */\n  swap1\n  pop\n    /* \"#utility.yul\":2570:2696   */\n  swap2\n  swap1\n  pop\n  jump\t// out\n    /* \"#utility.yul\":2702:2798   */\ntag_58:\n    /* \"#utility.yul\":2739:2746   */\n  0x00\n    /* \"#utility.yul\":2768:2792   */\n  tag_121\n    /* \"#utility.yul\":2786:2791   */\n  dup3\n    /* \"#utility.yul\":2768:2792   */\n  tag_57\n  jump\t// in\ntag_121:\n    /* \"#utility.yul\":2757:2792   */\n  swap1\n  pop\n    /* \"#utility.yul\":2702:2798   */\n  swap2\n  swap1\n  pop\n  jump\t// out\n    /* \"#utility.yul\":2804:2926   */\ntag_59:\n    /* \"#utility.yul\":2877:2901   */\n  tag_123\n    /* \"#utility.yul\":2895:2900   */\n  dup2\n    /* \"#utility.yul\":2877:2901   */\n  tag_58\n  jump\t// in\ntag_123:\n    /* \"#utility.yul\":2870:2875   */\n  dup2\n    /* \"#utility.yul\":2867:2902   */\n  eq\n    /* \"#utility.yul\":2857:2920   */\n  tag_124\n  jumpi\n    /* \"#utility.yul\":2916:2917   */\n  0x00\n    /* \"#utility.yul\":2913:2914   */\n  dup1\n    /* \"#utility.yul\":2906:2918   */\n  revert\n    /* \"#utility.yul\":2857:2920   */\ntag_124:\n    /* \"#utility.yul\":2804:2926   */\n  pop\n  jump\t// out\n    /* \"#utility.yul\":2932:3075   */\ntag_60:\n    /* \"#utility.yul\":2989:2994   */\n  0x00\n    /* \"#utility.yul\":3020:3026   */\n  dup2\n    /* \"#utility.yul\":3014:3027   */\n  mload\n    /* \"#utility.yul\":3005:3027   */\n  swap1\n  pop\n    /* \"#utility.yul\":3036:3069   */\n  tag_126\n    /* \"#utility.yul\":3063:3068   */\n  dup2\n    /* \"#utility.yul\":3036:3069   */\n  tag_59\n  jump\t// in\ntag_126:\n    /* \"#utility.yul\":2932:3075   */\n  swap3\n  swap2\n  pop\n  pop\n  jump\t// out\n    /* \"#utility.yul\":3081:4090   */\ntag_3:\n    /* \"#utility.yul\":3189:3195   */\n  0x00\n    /* \"#utility.yul\":3197:3203   */\n  dup1\n    /* \"#utility.yul\":3205:3211   */\n  0x00\n    /* \"#utility.yul\":3254:3256   */\n  0x60\n    /* \"#utility.yul\":3242:3251   */\n  dup5\n    /* \"#utility.yul\":3233:3240   */\n  dup7\n    /* \"#utility.yul\":3229:3252   */\n  sub\n    /* \"#utility.yul\":3225:3257   */\n  slt\n    /* \"#utility.yul\":3222:3341   */\n  iszero\n  tag_128\n  jumpi\n    /* \"#utility.yul\":3260:3339   */\n  tag_129\n  tag_45\n  jump\t// in\ntag_129:\n    /* \"#utility.yul\":3222:3341   */\ntag_128:\n    /* \"#utility.yul\":3401:3402   */\n  0x00\n    /* \"#utility.yul\":3390:3399   */\n  dup5\n    /* \"#utility.yul\":3386:3403   */\n  add\n    /* \"#utility.yul\":3380:3404   */\n  mload\n    /* \"#utility.yul\":3431:3449   */\n  0xffffffffffffffff\n    /* \"#utility.yul\":3423:3429   */\n  dup2\n    /* \"#utility.yul\":3420:3450   */\n  gt\n    /* \"#utility.yul\":3417:3534   */\n  iszero\n  tag_130\n  jumpi\n    /* \"#utility.yul\":3453:3532   */\n  tag_131\n  tag_46\n  jump\t// in\ntag_131:\n    /* \"#utility.yul\":3417:3534   */\ntag_130:\n    /* \"#utility.yul\":3558:3632   */\n  tag_132\n    /* \"#utility.yul\":3624:3631   */\n  dup7\n    /* \"#utility.yul\":3615:3621   */\n  dup3\n    /* \"#utility.yul\":3604:3613   */\n  dup8\n    /* \"#utility.yul\":3600:3622   */\n  add\n    /* \"#utility.yul\":3558:3632   */\n  tag_56\n  jump\t// in\ntag_132:\n    /* \"#utility.yul\":3548:3632   */\n  swap4\n  pop\n    /* \"#utility.yul\":3351:3642   */\n  pop\n    /* \"#utility.yul\":3702:3704   */\n  0x20\n    /* \"#utility.yul\":3691:3700   */\n  dup5\n    /* \"#utility.yul\":3687:3705   */\n  add\n    /* \"#utility.yul\":3681:3706   */\n  mload\n    /* \"#utility.yul\":3733:3751   */\n  0xffffffffffffffff\n    /* \"#utility.yul\":3725:3731   */\n  dup2\n    /* \"#utility.yul\":3722:3752   */\n  gt\n    /* \"#utility.yul\":3719:3836   */\n  iszero\n  tag_133\n  jumpi\n    /* \"#utility.yul\":3755:3834   */\n  tag_134\n  tag_46\n  jump\t// in\ntag_134:\n    /* \"#utility.yul\":3719:3836   */\ntag_133:\n    /* \"#utility.yul\":3860:3934   */\n  tag_135\n    /* \"#utility.yul\":3926:3933   */\n  dup7\n    /* \"#utility.yul\":3917:3923   */\n  dup3\n    /* \"#utility.yul\":3906:3915   */\n  dup8\n    /* \"#utility.yul\":3902:3924   */\n  add\n    /* \"#utility.yul\":3860:3934   */\n  tag_56\n  jump\t// in\ntag_135:\n    /* \"#utility.yul\":3850:3934   */\n  swap3\n  pop\n    /* \"#utility.yul\":3652:3944   */\n  pop\n    /* \"#utility.yul\":3983:3985   */\n  0x40\n    /* \"#utility.yul\":4009:4073   */\n  tag_136\n    /* \"#utility.yul\":4065:4072   */\n  dup7\n    /* \"#utility.yul\":4056:4062   */\n  dup3\n    /* \"#utility.yul\":4045:4054   */\n  dup8\n    /* \"#utility.yul\":4041:4063   */\n  add\n    /* \"#utility.yul\":4009:4073   */\n  tag_60\n  jump\t// in\ntag_136:\n    /* \"#utility.yul\":3999:4073   */\n  swap2\n  pop\n    /* \"#utility.yul\":3954:4083   */\n  pop\n    /* \"#utility.yul\":3081:4090   */\n  swap3\n  pop\n  swap3\n  pop\n  swap3\n  jump\t// out\n    /* \"#utility.yul\":4096:4195   */\ntag_61:\n    /* \"#utility.yul\":4148:4154   */\n  0x00\n    /* \"#utility.yul\":4182:4187   */\n  dup2\n    /* \"#utility.yul\":4176:4188   */\n  mload\n    /* \"#utility.yul\":4166:4188   */\n  swap1\n  pop\n    /* \"#utility.yul\":4096:4195   */\n  swap2\n  swap1\n  pop\n  jump\t// out\n    /* \"#utility.yul\":4201:4381   */\ntag_62:\n    /* \"#utility.yul\":4249:4326   */\n  0x4e487b7100000000000000000000000000000000000000000000000000000000\n    /* \"#utility.yul\":4246:4247   */\n  0x00\n    /* \"#utility.yul\":4239:4327   */\n  mstore\n    /* \"#utility.yul\":4346:4350   */\n  0x22\n    /* \"#utility.yul\":4343:4344   */\n  0x04\n    /* \"#utility.yul\":4336:4351   */\n  mstore\n    /* \"#utility.yul\":4370:4374   */\n  0x24\n    /* \"#utility.yul\":4367:4368   */\n  0x00\n    /* \"#utility.yul\":4360:4375   */\n  revert\n    /* \"#utility.yul\":4387:4707   */\ntag_63:\n    /* \"#utility.yul\":4431:4437   */\n  0x00\n    /* \"#utility.yul\":4468:4469   */\n  0x02\n    /* \"#utility.yul\":4462:4466   */\n  dup3\n    /* \"#utility.yul\":4458:4470   */\n  div\n    /* \"#utility.yul\":4448:4470   */\n  swap1\n  pop\n    /* \"#utility.yul\":4515:4516   */\n  0x01\n    /* \"#utility.yul\":4509:4513   */\n  dup3\n    /* \"#utility.yul\":4505:4517   */\n  and\n    /* \"#utility.yul\":4536:4554   */\n  dup1\n    /* \"#utility.yul\":4526:4607   */\n  tag_140\n  jumpi\n    /* \"#utility.yul\":4592:4596   */\n  0x7f\n    /* \"#utility.yul\":4584:4590   */\n  dup3\n    /* \"#utility.yul\":4580:4597   */\n  and\n    /* \"#utility.yul\":4570:4597   */\n  swap2\n  pop\n    /* \"#utility.yul\":4526:4607   */\ntag_140:\n    /* \"#utility.yul\":4654:4656   */\n  0x20\n    /* \"#utility.yul\":4646:4652   */\n  dup3\n    /* \"#utility.yul\":4643:4657   */\n  lt\n    /* \"#utility.yul\":4623:4641   */\n  dup2\n    /* \"#utility.yul\":4620:4658   */\n  sub\n    /* \"#utility.yul\":4617:4701   */\n  tag_141\n  jumpi\n    /* \"#utility.yul\":4673:4691   */\n  tag_142\n  tag_62\n  jump\t// in\ntag_142:\n    /* \"#utility.yul\":4617:4701   */\ntag_141:\n    /* \"#utility.yul\":4438:4707   */\n  pop\n    /* \"#utility.yul\":4387:4707   */\n  swap2\n  swap1\n  pop\n  jump\t// out\n    /* \"#utility.yul\":4713:4854   */\ntag_64:\n    /* \"#utility.yul\":4762:4766   */\n  0x00\n    /* \"#utility.yul\":4785:4788   */\n  dup2\n    /* \"#utility.yul\":4777:4788   */\n  swap1\n  pop\n    /* \"#utility.yul\":4808:4811   */\n  dup2\n    /* \"#utility.yul\":4805:4806   */\n  0x00\n    /* \"#utility.yul\":4798:4812   */\n  mstore\n    /* \"#utility.yul\":4842:4846   */\n  0x20\n    /* \"#utility.yul\":4839:4840   */\n  0x00\n    /* \"#utility.yul\":4829:4847   */\n  keccak256\n    /* \"#utility.yul\":4821:4847   */\n  swap1\n  pop\n    /* \"#utility.yul\":4713:4854   */\n  swap2\n  swap1\n  pop\n  jump\t// out\n    /* \"#utility.yul\":4860:4953   */\ntag_65:\n    /* \"#utility.yul\":4897:4903   */\n  0x00\n    /* \"#utility.yul\":4944:4946   */\n  0x20\n    /* \"#utility.yul\":4939:4941   */\n  0x1f\n    /* \"#utility.yul\":4932:4937   */\n  dup4\n    /* \"#utility.yul\":4928:4942   */\n  add\n    /* \"#utility.yul\":4924:4947   */\n  div\n    /* \"#utility.yul\":4914:4947   */\n  swap1\n  pop\n    /* \"#utility.yul\":4860:4953   */\n  swap2\n  swap1\n  pop\n  jump\t// out\n    /* \"#utility.yul\":4959:5066   */\ntag_66:\n    /* \"#utility.yul\":5003:5011   */\n  0x00\n    /* \"#utility.yul\":5053:5058   */\n  dup3\n    /* \"#utility.yul\":5047:5051   */\n  dup3\n    /* \"#utility.yul\":5043:5059   */\n  shl\n    /* \"#utility.yul\":5022:5059   */\n  swap1\n  pop\n    /* \"#utility.yul\":4959:5066   */\n  swap3\n  swap2\n  pop\n  pop\n  jump\t// out\n    /* \"#utility.yul\":5072:5465   */\ntag_67:\n    /* \"#utility.yul\":5141:5147   */\n  0x00\n    /* \"#utility.yul\":5191:5192   */\n  0x08\n    /* \"#utility.yul\":5179:5189   */\n  dup4\n    /* \"#utility.yul\":5175:5193   */\n  mul\n    /* \"#utility.yul\":5214:5311   */\n  tag_147\n    /* \"#utility.yul\":5244:5310   */\n  0xffffffffffffffffffffffffffffffffffffffffffffffffffffffffffffffff\n    /* \"#utility.yul\":5233:5242   */\n  dup3\n    /* \"#utility.yul\":5214:5311   */\n  tag_66\n  jump\t// in\ntag_147:\n    /* \"#utility.yul\":5332:5371   */\n  tag_148\n    /* \"#utility.yul\":5362:5370   */\n  dup7\n    /* \"#utility.yul\":5351:5360   */\n  dup4\n    /* \"#utility.yul\":5332:5371   */\n  tag_66\n  jump\t// in\ntag_148:\n    /* \"#utility.yul\":5320:5371   */\n  swap6\n  pop\n    /* \"#utility.yul\":5404:5408   */\n  dup1\n    /* \"#utility.yul\":5400:5409   */\n  not\n    /* \"#utility.yul\":5393:5398   */\n  dup5\n    /* \"#utility.yul\":5389:5410   */\n  and\n    /* \"#utility.yul\":5380:5410   */\n  swap4\n  pop\n    /* \"#utility.yul\":5453:5457   */\n  dup1\n    /* \"#utility.yul\":5443:5451   */\n  dup7\n    /* \"#utility.yul\":5439:5458   */\n  and\n    /* \"#utility.yul\":5432:5437   */\n  dup5\n    /* \"#utility.yul\":5429:5459   */\n  or\n    /* \"#utility.yul\":5419:5459   */\n  swap3\n  pop\n    /* \"#utility.yul\":5148:5465   */\n  pop\n  pop\n    /* \"#utility.yul\":5072:5465   */\n  swap4\n  swap3\n  pop\n  pop\n  pop\n  jump\t// out\n    /* \"#utility.yul\":5471:5548   */\ntag_68:\n    /* \"#utility.yul\":5508:5515   */\n  0x00\n    /* \"#utility.yul\":5537:5542   */\n  dup2\n    /* \"#utility.yul\":5526:5542   */\n  swap1\n  pop\n    /* \"#utility.yul\":5471:5548   */\n  swap2\n  swap1\n  pop\n  jump\t// out\n    /* \"#utility.yul\":5554:5614   */\ntag_69:\n    /* \"#utility.yul\":5582:5585   */\n  0x00\n    /* \"#utility.yul\":5603:5608   */\n  dup2\n    /* \"#utility.yul\":5596:5608   */\n  swap1\n  pop\n    /* \"#utility.yul\":5554:5614   */\n  swap2\n  swap1\n  pop\n  jump\t// out\n    /* \"#utility.yul\":5620:5762   */\ntag_70:\n    /* \"#utility.yul\":5670:5679   */\n  0x00\n    /* \"#utility.yul\":5703:5756   */\n  tag_152\n    /* \"#utility.yul\":5721:5755   */\n  tag_153\n    /* \"#utility.yul\":5730:5754   */\n  tag_154\n    /* \"#utility.yul\":5748:5753   */\n  dup5\n    /* \"#utility.yul\":5730:5754   */\n  tag_68\n  jump\t// in\ntag_154:\n    /* \"#utility.yul\":5721:5755   */\n  tag_69\n  jump\t// in\ntag_153:\n    /* \"#utility.yul\":5703:5756   */\n  tag_68\n  jump\t// in\ntag_152:\n    /* \"#utility.yul\":5690:5756   */\n  swap1\n  pop\n    /* \"#utility.yul\":5620:5762   */\n  swap2\n  swap1\n  pop\n  jump\t// out\n    /* \"#utility.yul\":5768:5843   */\ntag_71:\n    /* \"#utility.yul\":5811:5814   */\n  0x00\n    /* \"#utility.yul\":5832:5837   */\n  dup2\n    /* \"#utility.yul\":5825:5837   */\n  swap1\n  pop\n    /* \"#utility.yul\":5768:5843   */\n  swap2\n  swap1\n  pop\n  jump\t// out\n    /* \"#utility.yul\":5849:6118   */\ntag_72:\n    /* \"#utility.yul\":5959:5998   */\n  tag_157\n    /* \"#utility.yul\":5990:5997   */\n  dup4\n    /* \"#utility.yul\":5959:5998   */\n  tag_70\n  jump\t// in\ntag_157:\n    /* \"#utility.yul\":6020:6111   */\n  tag_158\n    /* \"#utility.yul\":6069:6110   */\n  tag_159\n    /* \"#utility.yul\":6093:6109   */\n  dup3\n    /* \"#utility.yul\":6069:6110   */\n  tag_71\n  jump\t// in\ntag_159:\n    /* \"#utility.yul\":6061:6067   */\n  dup5\n    /* \"#utility.yul\":6054:6058   */\n  dup5\n    /* \"#utility.yul\":6048:6059   */\n  sload\n    /* \"#utility.yul\":6020:6111   */\n  tag_67\n  jump\t// in\ntag_158:\n    /* \"#utility.yul\":6014:6018   */\n  dup3\n    /* \"#utility.yul\":6007:6112   */\n  sstore\n    /* \"#utility.yul\":5925:6118   */\n  pop\n    /* \"#utility.yul\":5849:6118   */\n  pop\n  pop\n  pop\n  jump\t// out\n    /* \"#utility.yul\":6124:6197   */\ntag_73:\n    /* \"#utility.yul\":6169:6172   */\n  0x00\n    /* \"#utility.yul\":6124:6197   */\n  swap1\n  jump\t// out\n    /* \"#utility.yul\":6203:6392   */\ntag_74:\n    /* \"#utility.yul\":6280:6312   */\n  tag_162\n  tag_73\n  jump\t// in\ntag_162:\n    /* \"#utility.yul\":6321:6386   */\n  tag_163\n    /* \"#utility.yul\":6379:6385   */\n  dup2\n    /* \"#utility.yul\":6371:6377   */\n  dup5\n    /* \"#utility.yul\":6365:6369   */\n  dup5\n    /* \"#utility.yul\":6321:6386   */\n  tag_72\n  jump\t// in\ntag_163:\n    /* \"#utility.yul\":6256:6392   */\n  pop\n    /* \"#utility.yul\":6203:6392   */\n  pop\n  pop\n  jump\t// out\n    /* \"#utility.yul\":6398:6584   */\ntag_75:\n    /* \"#utility.yul\":6458:6578   */\ntag_165:\n    /* \"#utility.yul\":6475:6478   */\n  dup2\n    /* \"#utility.yul\":6468:6473   */\n  dup2\n    /* \"#utility.yul\":6465:6479   */\n  lt\n    /* \"#utility.yul\":6458:6578   */\n  iszero\n  tag_167\n  jumpi\n    /* \"#utility.yul\":6529:6568   */\n  tag_168\n    /* \"#utility.yul\":6566:6567   */\n  0x00\n    /* \"#utility.yul\":6559:6564   */\n  dup3\n    /* \"#utility.yul\":6529:6568   */\n  tag_74\n  jump\t// in\ntag_168:\n    /* \"#utility.yul\":6502:6503   */\n  0x01\n    /* \"#utility.yul\":6495:6500   */\n  dup2\n    /* \"#utility.yul\":6491:6504   */\n  add\n    /* \"#utility.yul\":6482:6504   */\n  swap1\n  pop\n    /* \"#utility.yul\":6458:6578   */\n  jump(tag_165)\ntag_167:\n    /* \"#utility.yul\":6398:6584   */\n  pop\n  pop\n  jump\t// out\n    /* \"#utility.yul\":6590:7133   */\ntag_76:\n    /* \"#utility.yul\":6691:6693   */\n  0x1f\n    /* \"#utility.yul\":6686:6689   */\n  dup3\n    /* \"#utility.yul\":6683:6694   */\n  gt\n    /* \"#utility.yul\":6680:7126   */\n  iszero\n  tag_170\n  jumpi\n    /* \"#utility.yul\":6725:6763   */\n  tag_171\n    /* \"#utility.yul\":6757:6762   */\n  dup2\n    /* \"#utility.yul\":6725:6763   */\n  tag_64\n  jump\t// in\ntag_171:\n    /* \"#utility.yul\":6809:6838   */\n  tag_172\n    /* \"#utility.yul\":6827:6837   */\n  dup5\n    /* \"#utility.yul\":6809:6838   */\n  tag_65\n  jump\t// in\ntag_172:\n    /* \"#utility.yul\":6799:6807   */\n  dup2\n    /* \"#utility.yul\":6795:6839   */\n  add\n    /* \"#utility.yul\":6992:6994   */\n  0x20\n    /* \"#utility.yul\":6980:6990   */\n  dup6\n    /* \"#utility.yul\":6977:6995   */\n  lt\n    /* \"#utility.yul\":6974:7023   */\n  iszero\n  tag_173\n  jumpi\n    /* \"#utility.yul\":7013:7021   */\n  dup2\n    /* \"#utility.yul\":6998:7021   */\n  swap1\n  pop\n    /* \"#utility.yul\":6974:7023   */\ntag_173:\n    /* \"#utility.yul\":7036:7116   */\n  tag_174\n    /* \"#utility.yul\":7092:7114   */\n  tag_175\n    /* \"#utility.yul\":7110:7113   */\n  dup6\n    /* \"#utility.yul\":7092:7114   */\n  tag_65\n  jump\t// in\ntag_175:\n    /* \"#utility.yul\":7082:7090   */\n  dup4\n    /* \"#utility.yul\":7078:7115   */\n  add\n    /* \"#utility.yul\":7065:7076   */\n  dup3\n    /* \"#utility.yul\":7036:7116   */\n  tag_75\n  jump\t// in\ntag_174:\n    /* \"#utility.yul\":6695:7126   */\n  pop\n  pop\n    /* \"#utility.yul\":6680:7126   */\ntag_170:\n    /* \"#utility.yul\":6590:7133   */\n  pop\n  pop\n  pop\n  jump\t// out\n    /* \"#utility.yul\":7139:7256   */\ntag_77:\n    /* \"#utility.yul\":7193:7201   */\n  0x00\n    /* \"#utility.yul\":7243:7248   */\n  dup3\n    /* \"#utility.yul\":7237:7241   */\n  dup3\n    /* \"#utility.yul\":7233:7249   */\n  shr\n    /* \"#utility.yul\":7212:7249   */\n  swap1\n  pop\n    /* \"#utility.yul\":7139:7256   */\n  swap3\n  swap2\n  pop\n  pop\n  jump\t// out\n    /* \"#utility.yul\":7262:7431   */\ntag_78:\n    /* \"#utility.yul\":7306:7312   */\n  0x00\n    /* \"#utility.yul\":7339:7390   */\n  tag_178\n    /* \"#utility.yul\":7387:7388   */\n  0x00\n    /* \"#utility.yul\":7383:7389   */\n  not\n    /* \"#utility.yul\":7375:7380   */\n  dup5\n    /* \"#utility.yul\":7372:7373   */\n  0x08\n    /* \"#utility.yul\":7368:7381   */\n  mul\n    /* \"#utility.yul\":7339:7390   */\n  tag_77\n  jump\t// in\ntag_178:\n    /* \"#utility.yul\":7335:7391   */\n  not\n    /* \"#utility.yul\":7420:7424   */\n  dup1\n    /* \"#utility.yul\":7414:7418   */\n  dup4\n    /* \"#utility.yul\":7410:7425   */\n  and\n    /* \"#utility.yul\":7400:7425   */\n  swap2\n  pop\n    /* \"#utility.yul\":7313:7431   */\n  pop\n    /* \"#utility.yul\":7262:7431   */\n  swap3\n  swap2\n  pop\n  pop\n  jump\t// out\n    /* \"#utility.yul\":7436:7731   */\ntag_79:\n    /* \"#utility.yul\":7512:7516   */\n  0x00\n    /* \"#utility.yul\":7658:7687   */\n  tag_180\n    /* \"#utility.yul\":7683:7686   */\n  dup4\n    /* \"#utility.yul\":7677:7681   */\n  dup4\n    /* \"#utility.yul\":7658:7687   */\n  tag_78\n  jump\t// in\ntag_180:\n    /* \"#utility.yul\":7650:7687   */\n  swap2\n  pop\n    /* \"#utility.yul\":7720:7723   */\n  dup3\n    /* \"#utility.yul\":7717:7718   */\n  0x02\n    /* \"#utility.yul\":7713:7724   */\n  mul\n    /* \"#utility.yul\":7707:7711   */\n  dup3\n    /* \"#utility.yul\":7704:7725   */\n  or\n    /* \"#utility.yul\":7696:7725   */\n  swap1\n  pop\n    /* \"#utility.yul\":7436:7731   */\n  swap3\n  swap2\n  pop\n  pop\n  jump\t// out\n    /* \"#utility.yul\":7736:9131   */\ntag_24:\n    /* \"#utility.yul\":7853:7890   */\n  tag_182\n    /* \"#utility.yul\":7886:7889   */\n  dup3\n    /* \"#utility.yul\":7853:7890   */\n  tag_61\n  jump\t// in\ntag_182:\n    /* \"#utility.yul\":7955:7973   */\n  0xffffffffffffffff\n    /* \"#utility.yul\":7947:7953   */\n  dup2\n    /* \"#utility.yul\":7944:7974   */\n  gt\n    /* \"#utility.yul\":7941:7997   */\n  iszero\n  tag_183\n  jumpi\n    /* \"#utility.yul\":7977:7995   */\n  tag_184\n  tag_50\n  jump\t// in\ntag_184:\n    /* \"#utility.yul\":7941:7997   */\ntag_183:\n    /* \"#utility.yul\":8021:8059   */\n  tag_185\n    /* \"#utility.yul\":8053:8057   */\n  dup3\n    /* \"#utility.yul\":8047:8058   */\n  sload\n    /* \"#utility.yul\":8021:8059   */\n  tag_63\n  jump\t// in\ntag_185:\n    /* \"#utility.yul\":8106:8173   */\n  tag_186\n    /* \"#utility.yul\":8166:8172   */\n  dup3\n    /* \"#utility.yul\":8158:8164   */\n  dup3\n    /* \"#utility.yul\":8152:8156   */\n  dup6\n    /* \"#utility.yul\":8106:8173   */\n  tag_76\n  jump\t// in\ntag_186:\n    /* \"#utility.yul\":8200:8201   */\n  0x00\n    /* \"#utility.yul\":8224:8228   */\n  0x20\n    /* \"#utility.yul\":8211:8228   */\n  swap1\n  pop\n    /* \"#utility.yul\":8256:8258   */\n  0x1f\n    /* \"#utility.yul\":8248:8254   */\n  dup4\n    /* \"#utility.yul\":8245:8259   */\n  gt\n    /* \"#utility.yul\":8273:8274   */\n  0x01\n    /* \"#utility.yul\":8268:8886   */\n  dup2\n  eq\n  tag_188\n  jumpi\n    /* \"#utility.yul\":8930:8931   */\n  0x00\n    /* \"#utility.yul\":8947:8953   */\n  dup5\n    /* \"#utility.yul\":8944:9021   */\n  iszero\n  tag_189\n  jumpi\n    /* \"#utility.yul\":8996:9005   */\n  dup3\n    /* \"#utility.yul\":8991:8994   */\n  dup8\n    /* \"#utility.yul\":8987:9006   */\n  add\n    /* \"#utility.yul\":8981:9007   */\n  mload\n    /* \"#utility.yul\":8972:9007   */\n  swap1\n  pop\n    /* \"#utility.yul\":8944:9021   */\ntag_189:\n    /* \"#utility.yul\":9047:9114   */\n  tag_190\n    /* \"#utility.yul\":9107:9113   */\n  dup6\n    /* \"#utility.yul\":9100:9105   */\n  dup3\n    /* \"#utility.yul\":9047:9114   */\n  tag_79\n  jump\t// in\ntag_190:\n    /* \"#utility.yul\":9041:9045   */\n  dup7\n    /* \"#utility.yul\":9034:9115   */\n  sstore\n    /* \"#utility.yul\":8903:9125   */\n  pop\n    /* \"#utility.yul\":8238:9125   */\n  jump(tag_187)\n    /* \"#utility.yul\":8268:8886   */\ntag_188:\n    /* \"#utility.yul\":8320:8324   */\n  0x1f\n    /* \"#utility.yul\":8316:8325   */\n  not\n    /* \"#utility.yul\":8308:8314   */\n  dup5\n    /* \"#utility.yul\":8304:8326   */\n  and\n    /* \"#utility.yul\":8354:8391   */\n  tag_191\n    /* \"#utility.yul\":8386:8390   */\n  dup7\n    /* \"#utility.yul\":8354:8391   */\n  tag_64\n  jump\t// in\ntag_191:\n    /* \"#utility.yul\":8413:8414   */\n  0x00\n    /* \"#utility.yul\":8427:8635   */\ntag_192:\n    /* \"#utility.yul\":8441:8448   */\n  dup3\n    /* \"#utility.yul\":8438:8439   */\n  dup2\n    /* \"#utility.yul\":8435:8449   */\n  lt\n    /* \"#utility.yul\":8427:8635   */\n  iszero\n  tag_194\n  jumpi\n    /* \"#utility.yul\":8520:8529   */\n  dup5\n    /* \"#utility.yul\":8515:8518   */\n  dup10\n    /* \"#utility.yul\":8511:8530   */\n  add\n    /* \"#utility.yul\":8505:8531   */\n  mload\n    /* \"#utility.yul\":8497:8503   */\n  dup3\n    /* \"#utility.yul\":8490:8532   */\n  sstore\n    /* \"#utility.yul\":8571:8572   */\n  0x01\n    /* \"#utility.yul\":8563:8569   */\n  dup3\n    /* \"#utility.yul\":8559:8573   */\n  add\n    /* \"#utility.yul\":8549:8573   */\n  swap2\n  pop\n    /* \"#utility.yul\":8618:8620   */\n  0x20\n    /* \"#utility.yul\":8607:8616   */\n  dup6\n    /* \"#utility.yul\":8603:8621   */\n  add\n    /* \"#utility.yul\":8590:8621   */\n  swap5\n  pop\n    /* \"#utility.yul\":8464:8468   */\n  0x20\n    /* \"#utility.yul\":8461:8462   */\n  dup2\n    /* \"#utility.yul\":8457:8469   */\n  add\n    /* \"#utility.yul\":8452:8469   */\n  swap1\n  pop\n    /* \"#utility.yul\":8427:8635   */\n  jump(tag_192)\ntag_194:\n    /* \"#utility.yul\":8663:8669   */\n  dup7\n    /* \"#utility.yul\":8654:8661   */\n  dup4\n    /* \"#utility.yul\":8651:8670   */\n  lt\n    /* \"#utility.yul\":8648:8827   */\n  iszero\n  tag_195\n  jumpi\n    /* \"#utility.yul\":8721:8730   */\n  dup5\n    /* \"#utility.yul\":8716:8719   */\n  dup10\n    /* \"#utility.yul\":8712:8731   */\n  add\n    /* \"#utility.yul\":8706:8732   */\n  mload\n    /* \"#utility.yul\":8764:8812   */\n  tag_196\n    /* \"#utility.yul\":8806:8810   */\n  0x1f\n    /* \"#utility.yul\":8798:8804   */\n  dup10\n    /* \"#utility.yul\":8794:8811   */\n  and\n    /* \"#utility.yul\":8783:8792   */\n  dup3\n    /* \"#utility.yul\":8764:8812   */\n  tag_78\n  jump\t// in\ntag_196:\n    /* \"#utility.yul\":8756:8762   */\n  dup4\n    /* \"#utility.yul\":8749:8813   */\n  sstore\n    /* \"#utility.yul\":8671:8827   */\n  pop\n    /* \"#utility.yul\":8648:8827   */\ntag_195:\n    /* \"#utility.yul\":8873:8874   */\n  0x01\n    /* \"#utility.yul\":8869:8870   */\n  0x02\n    /* \"#utility.yul\":8861:8867   */\n  dup9\n    /* \"#utility.yul\":8857:8871   */\n  mul\n    /* \"#utility.yul\":8853:8875   */\n  add\n    /* \"#utility.yul\":8847:8851   */\n  dup9\n    /* \"#utility.yul\":8840:8876   */\n  sstore\n    /* \"#utility.yul\":8275:8886   */\n  pop\n  pop\n  pop\n    /* \"#utility.yul\":8238:9125   */\ntag_187:\n  pop\n    /* \"#utility.yul\":7828:9131   */\n  pop\n  pop\n  pop\n    /* \"#utility.yul\":7736:9131   */\n  pop\n  pop\n  jump\t// out\n    /* \"#utility.yul\":9137:9214   */\ntag_80:\n    /* \"#utility.yul\":9174:9181   */\n  0x00\n    /* \"#utility.yul\":9203:9208   */\n  dup2\n    /* \"#utility.yul\":9192:9208   */\n  swap1\n  pop\n    /* \"#utility.yul\":9137:9214   */\n  swap2\n  swap1\n  pop\n  jump\t// out\n    /* \"#utility.yul\":9220:9338   */\ntag_81:\n    /* \"#utility.yul\":9307:9331   */\n  tag_199\n    /* \"#utility.yul\":9325:9330   */\n  dup2\n    /* \"#utility.yul\":9307:9331   */\n  tag_80\n  jump\t// in\ntag_199:\n    /* \"#utility.yul\":9302:9305   */\n  dup3\n    /* \"#utility.yul\":9295:9332   */\n  mstore\n    /* \"#utility.yul\":9220:9338   */\n  pop\n  pop\n  jump\t// out\n    /* \"#utility.yul\":9344:9462   */\ntag_82:\n    /* \"#utility.yul\":9431:9455   */\n  tag_201\n    /* \"#utility.yul\":9449:9454   */\n  dup2\n    /* \"#utility.yul\":9431:9455   */\n  tag_68\n  jump\t// in\ntag_201:\n    /* \"#utility.yul\":9426:9429   */\n  dup3\n    /* \"#utility.yul\":9419:9456   */\n  mstore\n    /* \"#utility.yul\":9344:9462   */\n  pop\n  pop\n  jump\t// out\n    /* \"#utility.yul\":9468:9586   */\ntag_83:\n    /* \"#utility.yul\":9555:9579   */\n  tag_203\n    /* \"#utility.yul\":9573:9578   */\n  dup2\n    /* \"#utility.yul\":9555:9579   */\n  tag_58\n  jump\t// in\ntag_203:\n    /* \"#utility.yul\":9550:9553   */\n  dup3\n    /* \"#utility.yul\":9543:9580   */\n  mstore\n    /* \"#utility.yul\":9468:9586   */\n  pop\n  pop\n  jump\t// out\n    /* \"#utility.yul\":9592:10256   */\ntag_27:\n    /* \"#utility.yul\":9797:9801   */\n  0x00\n    /* \"#utility.yul\":9835:9838   */\n  0xa0\n    /* \"#utility.yul\":9824:9833   */\n  dup3\n    /* \"#utility.yul\":9820:9839   */\n  add\n    /* \"#utility.yul\":9812:9839   */\n  swap1\n  pop\n    /* \"#utility.yul\":9849:9920   */\n  tag_205\n    /* \"#utility.yul\":9917:9918   */\n  0x00\n    /* \"#utility.yul\":9906:9915   */\n  dup4\n    /* \"#utility.yul\":9902:9919   */\n  add\n    /* \"#utility.yul\":9893:9899   */\n  dup9\n    /* \"#utility.yul\":9849:9920   */\n  tag_81\n  jump\t// in\ntag_205:\n    /* \"#utility.yul\":9930:10002   */\n  tag_206\n    /* \"#utility.yul\":9998:10000   */\n  0x20\n    /* \"#utility.yul\":9987:9996   */\n  dup4\n    /* \"#utility.yul\":9983:10001   */\n  add\n    /* \"#utility.yul\":9974:9980   */\n  dup8\n    /* \"#utility.yul\":9930:10002   */\n  tag_81\n  jump\t// in\ntag_206:\n    /* \"#utility.yul\":10012:10084   */\n  tag_207\n    /* \"#utility.yul\":10080:10082   */\n  0x40\n    /* \"#utility.yul\":10069:10078   */\n  dup4\n    /* \"#utility.yul\":10065:10083   */\n  add\n    /* \"#utility.yul\":10056:10062   */\n  dup7\n    /* \"#utility.yul\":10012:10084   */\n  tag_81\n  jump\t// in\ntag_207:\n    /* \"#utility.yul\":10094:10166   */\n  tag_208\n    /* \"#utility.yul\":10162:10164   */\n  0x60\n    /* \"#utility.yul\":10151:10160   */\n  dup4\n    /* \"#utility.yul\":10147:10165   */\n  add\n    /* \"#utility.yul\":10138:10144   */\n  dup6\n    /* \"#utility.yul\":10094:10166   */\n  tag_82\n  jump\t// in\ntag_208:\n    /* \"#utility.yul\":10176:10249   */\n  tag_209\n    /* \"#utility.yul\":10244:10247   */\n  0x80\n    /* \"#utility.yul\":10233:10242   */\n  dup4\n    /* \"#utility.yul\":10229:10248   */\n  add\n    /* \"#utility.yul\":10220:10226   */\n  dup5\n    /* \"#utility.yul\":10176:10249   */\n  tag_83\n  jump\t// in\ntag_209:\n    /* \"#utility.yul\":9592:10256   */\n  swap7\n  swap6\n  pop\n  pop\n  pop\n  pop\n  pop\n  pop\n  jump\t// out\n    /* \"#utility.yul\":10262:10431   */\ntag_84:\n    /* \"#utility.yul\":10346:10357   */\n  0x00\n    /* \"#utility.yul\":10380:10386   */\n  dup3\n    /* \"#utility.yul\":10375:10378   */\n  dup3\n    /* \"#utility.yul\":10368:10387   */\n  mstore\n    /* \"#utility.yul\":10420:10424   */\n  0x20\n    /* \"#utility.yul\":10415:10418   */\n  dup3\n    /* \"#utility.yul\":10411:10425   */\n  add\n    /* \"#utility.yul\":10396:10425   */\n  swap1\n  pop\n    /* \"#utility.yul\":10262:10431   */\n  swap3\n  swap2\n  pop\n  pop\n  jump\t// out\n    /* \"#utility.yul\":10437:10814   */\ntag_85:\n    /* \"#utility.yul\":10525:10528   */\n  0x00\n    /* \"#utility.yul\":10553:10592   */\n  tag_212\n    /* \"#utility.yul\":10586:10591   */\n  dup3\n    /* \"#utility.yul\":10553:10592   */\n  tag_61\n  jump\t// in\ntag_212:\n    /* \"#utility.yul\":10608:10679   */\n  tag_213\n    /* \"#utility.yul\":10672:10678   */\n  dup2\n    /* \"#utility.yul\":10667:10670   */\n  dup6\n    /* \"#utility.yul\":10608:10679   */\n  tag_84\n  jump\t// in\ntag_213:\n    /* \"#utility.yul\":10601:10679   */\n  swap4\n  pop\n    /* \"#utility.yul\":10688:10753   */\n  tag_214\n    /* \"#utility.yul\":10746:10752   */\n  dup2\n    /* \"#utility.yul\":10741:10744   */\n  dup6\n    /* \"#utility.yul\":10734:10738   */\n  0x20\n    /* \"#utility.yul\":10727:10732   */\n  dup7\n    /* \"#utility.yul\":10723:10739   */\n  add\n    /* \"#utility.yul\":10688:10753   */\n  tag_54\n  jump\t// in\ntag_214:\n    /* \"#utility.yul\":10778:10807   */\n  tag_215\n    /* \"#utility.yul\":10800:10806   */\n  dup2\n    /* \"#utility.yul\":10778:10807   */\n  tag_49\n  jump\t// in\ntag_215:\n    /* \"#utility.yul\":10773:10776   */\n  dup5\n    /* \"#utility.yul\":10769:10808   */\n  add\n    /* \"#utility.yul\":10762:10808   */\n  swap2\n  pop\n    /* \"#utility.yul\":10529:10814   */\n  pop\n    /* \"#utility.yul\":10437:10814   */\n  swap3\n  swap2\n  pop\n  pop\n  jump\t// out\n    /* \"#utility.yul\":10820:11133   */\ntag_38:\n    /* \"#utility.yul\":10933:10937   */\n  0x00\n    /* \"#utility.yul\":10971:10973   */\n  0x20\n    /* \"#utility.yul\":10960:10969   */\n  dup3\n    /* \"#utility.yul\":10956:10974   */\n  add\n    /* \"#utility.yul\":10948:10974   */\n  swap1\n  pop\n    /* \"#utility.yul\":11020:11029   */\n  dup2\n    /* \"#utility.yul\":11014:11018   */\n  dup2\n    /* \"#utility.yul\":11010:11030   */\n  sub\n    /* \"#utility.yul\":11006:11007   */\n  0x00\n    /* \"#utility.yul\":10995:11004   */\n  dup4\n    /* \"#utility.yul\":10991:11008   */\n  add\n    /* \"#utility.yul\":10984:11031   */\n  mstore\n    /* \"#utility.yul\":11048:11126   */\n  tag_217\n    /* \"#utility.yul\":11121:11125   */\n  dup2\n    /* \"#utility.yul\":11112:11118   */\n  dup5\n    /* \"#utility.yul\":11048:11126   */\n  tag_85\n  jump\t// in\ntag_217:\n    /* \"#utility.yul\":11040:11126   */\n  swap1\n  pop\n    /* \"#utility.yul\":10820:11133   */\n  swap3\n  swap2\n  pop\n  pop\n  jump\t// out\n    /* \"#utility.yul\":11139:11237   */\ntag_86:\n    /* \"#utility.yul\":11190:11196   */\n  0x00\n    /* \"#utility.yul\":11224:11229   */\n  dup2\n    /* \"#utility.yul\":11218:11230   */\n  mload\n    /* \"#utility.yul\":11208:11230   */\n  swap1\n  pop\n    /* \"#utility.yul\":11139:11237   */\n  swap2\n  swap1\n  pop\n  jump\t// out\n    /* \"#utility.yul\":11243:11359   */\ntag_87:\n    /* \"#utility.yul\":11294:11298   */\n  0x00\n    /* \"#utility.yul\":11317:11320   */\n  dup2\n    /* \"#utility.yul\":11309:11320   */\n  swap1\n  pop\n    /* \"#utility.yul\":11347:11351   */\n  0x20\n    /* \"#utility.yul\":11342:11345   */\n  dup3\n    /* \"#utility.yul\":11338:11352   */\n  add\n    /* \"#utility.yul\":11330:11352   */\n  swap1\n  pop\n    /* \"#utility.yul\":11243:11359   */\n  swap2\n  swap1\n  pop\n  jump\t// out\n    /* \"#utility.yul\":11365:11519   */\ntag_88:\n    /* \"#utility.yul\":11408:11419   */\n  0x00\n    /* \"#utility.yul\":11444:11473   */\n  tag_221\n    /* \"#utility.yul\":11468:11471   */\n  dup3\n    /* \"#utility.yul\":11462:11472   */\n  mload\n    /* \"#utility.yul\":11444:11473   */\n  tag_80\n  jump\t// in\ntag_221:\n    /* \"#utility.yul\":11507:11512   */\n  dup1\n    /* \"#utility.yul\":11483:11512   */\n  swap2\n  pop\n    /* \"#utility.yul\":11420:11519   */\n  pop\n    /* \"#utility.yul\":11365:11519   */\n  swap2\n  swap1\n  pop\n  jump\t// out\n    /* \"#utility.yul\":11525:12119   */\ntag_40:\n    /* \"#utility.yul\":11609:11614   */\n  0x00\n    /* \"#utility.yul\":11640:11678   */\n  tag_223\n    /* \"#utility.yul\":11672:11677   */\n  dup3\n    /* \"#utility.yul\":11640:11678   */\n  tag_86\n  jump\t// in\ntag_223:\n    /* \"#utility.yul\":11703:11708   */\n  dup3\n    /* \"#utility.yul\":11730:11770   */\n  tag_224\n    /* \"#utility.yul\":11764:11769   */\n  dup5\n    /* \"#utility.yul\":11730:11770   */\n  tag_87\n  jump\t// in\ntag_224:\n    /* \"#utility.yul\":11718:11770   */\n  swap1\n  pop\n    /* \"#utility.yul\":11789:11824   */\n  tag_225\n    /* \"#utility.yul\":11815:11823   */\n  dup2\n    /* \"#utility.yul\":11789:11824   */\n  tag_88\n  jump\t// in\ntag_225:\n    /* \"#utility.yul\":11780:11824   */\n  swap3\n  pop\n    /* \"#utility.yul\":11848:11850   */\n  0x20\n    /* \"#utility.yul\":11840:11846   */\n  dup3\n    /* \"#utility.yul\":11837:11851   */\n  lt\n    /* \"#utility.yul\":11834:12112   */\n  iszero\n  tag_226\n  jumpi\n    /* \"#utility.yul\":11919:12088   */\n  tag_227\n    /* \"#utility.yul\":12004:12070   */\n  0xffffffffffffffffffffffffffffffffffffffffffffffffffffffffffffffff\n    /* \"#utility.yul\":11974:11980   */\n  dup4\n    /* \"#utility.yul\":11970:11972   */\n  0x20\n    /* \"#utility.yul\":11966:11981   */\n  sub\n    /* \"#utility.yul\":11963:11964   */\n  0x08\n    /* \"#utility.yul\":11959:11982   */\n  mul\n    /* \"#utility.yul\":11919:12088   */\n  tag_66\n  jump\t// in\ntag_227:\n    /* \"#utility.yul\":11896:11901   */\n  dup4\n    /* \"#utility.yul\":11875:12102   */\n  and\n    /* \"#utility.yul\":11866:12102   */\n  swap3\n  pop\n    /* \"#utility.yul\":11834:12112   */\ntag_226:\n    /* \"#utility.yul\":11615:12119   */\n  pop\n  pop\n    /* \"#utility.yul\":11525:12119   */\n  swap2\n  swap1\n  pop\n  jump\t// out\n    /* \"contracts/security/zkSnarks/ProofGeneration.sol\":897:3156  contract ProofGeneration is AccessControl, EIP712 {... */\ntag_15:\n  mload(0x80)\n  mload(0xa0)\n  mload(0xc0)\n  mload(0xe0)\n  mload(0x0100)\n  mload(0x0120)\n  mload(0x0140)\n  codecopy(0x00, dataOffset(sub_0), dataSize(sub_0))\n  0x00\n  assignImmutable(\"0xee0ff49487c1781d8064c379467bae8fb422014618d2d9ee6b1977118cbcea82\")\n  0x00\n  assignImmutable(\"0xf17089ced8c0c2239e63f2bbb45b3ebcf864ae70eb1ca01545337030cdeed50a\")\n  0x00\n  assignImmutable(\"0xd071d371589780369328e5437147bf8a672dd4f630ae4b82c7f8a4e9f9bcf7f4\")\n  0x00\n  assignImmutable(\"0xcd3b8a75131b09c18fac61f93bac9440f7b768b1c243a93eca5a67eb03b07828\")\n  0x00\n  assignImmutable(\"0x27f63464b9731b972604804953e204cb89525ac66e46cd091b2739ad01222f8b\")\n  0x00\n  assignImmutable(\"0x7fac02d34be0cf003870fc1ca20de764e3d24f4510f938a3d8c85c13150f33d3\")\n  0x00\n  assignImmutable(\"0x86890c29ff370c4b30973bbbaafda9b69a1419ebf78e3ecd48a68f972a0037ef\")\n  return(0x00, dataSize(sub_0))\nstop\n\nsub_0: assembly {\n        /* \"contracts/security/zkSnarks/ProofGeneration.sol\":897:3156  contract ProofGeneration is AccessControl, EIP712 {... */\n      mstore(0x40, 0x80)\n      callvalue\n      dup1\n      iszero\n      tag_1\n      jumpi\n      0x00\n      dup1\n      revert\n    tag_1:\n      pop\n      jumpi(tag_2, lt(calldatasize, 0x04))\n      shr(0xe0, calldataload(0x00))\n      dup1\n      0x91d14854\n      gt\n      tag_19\n      jumpi\n      dup1\n      0xd547741f\n      gt\n      tag_20\n      jumpi\n      dup1\n      0xd547741f\n      eq\n      tag_15\n      jumpi\n      dup1\n      0xdf6244db\n      eq\n      tag_16\n      jumpi\n      dup1\n      0xe7705db6\n      eq\n      tag_17\n      jumpi\n      dup1\n      0xf736c365\n      eq\n      tag_18\n      jumpi\n      jump(tag_2)\n    tag_20:\n      dup1\n      0x91d14854\n      eq\n      tag_11\n      jumpi\n      dup1\n      0xa217fddf\n      eq\n      tag_12\n      jumpi\n      dup1\n      0xa3669aef\n      eq\n      tag_13\n      jumpi\n      dup1\n      0xa865e5fe\n      eq\n      tag_14\n      jumpi\n      jump(tag_2)\n    tag_19:\n      dup1\n      0x36568abe\n      gt\n      tag_21\n      jumpi\n      dup1\n      0x36568abe\n      eq\n      tag_7\n      jumpi\n      dup1\n      0x75b238fc\n      eq\n      tag_8\n      jumpi\n      dup1\n      0x7fa417b3\n      eq\n      tag_9\n      jumpi\n      dup1\n      0x84b0196e\n      eq\n      tag_10\n      jumpi\n      jump(tag_2)\n    tag_21:\n      dup1\n      0x01ffc9a7\n      eq\n      tag_3\n      jumpi\n      dup1\n      0x0337c061\n      eq\n      tag_4\n      jumpi\n      dup1\n      0x248a9ca3\n      eq\n      tag_5\n      jumpi\n      dup1\n      0x2f2ff15d\n      eq\n      tag_6\n      jumpi\n    tag_2:\n      0x00\n      dup1\n      revert\n        /* \"@openzeppelin/contracts/access/AccessControl.sol\":2565:2767  function supportsInterface(bytes4 interfaceId) public view virtual override returns (bool) {... */\n    tag_3:\n      tag_22\n      0x04\n      dup1\n      calldatasize\n      sub\n      dup2\n      add\n      swap1\n      tag_23\n      swap2\n      swap1\n      tag_24\n      jump\t// in\n    tag_23:\n      tag_25\n      jump\t// in\n    tag_22:\n      mload(0x40)\n      tag_26\n      swap2\n      swap1\n      tag_27\n      jump\t// in\n    tag_26:\n      mload(0x40)\n      dup1\n      swap2\n      sub\n      swap1\n      return\n        /* \"contracts/security/zkSnarks/ProofGeneration.sol\":2422:2554  function grantVerifierRole(address account) external onlyRole(DEFAULT_ADMIN_ROLE) {... */\n    tag_4:\n      tag_28\n      0x04\n      dup1\n      calldatasize\n      sub\n      dup2\n      add\n      swap1\n      tag_29\n      swap2\n      swap1\n      tag_30\n      jump\t// in\n    tag_29:\n      tag_31\n      jump\t// in\n    tag_28:\n      stop\n        /* \"@openzeppelin/contracts/access/AccessControl.sol\":3810:3930  function getRoleAdmin(bytes32 role) public view virtual returns (bytes32) {... */\n    tag_5:\n      tag_32\n      0x04\n      dup1\n      calldatasize\n      sub\n      dup2\n      add\n      swap1\n      tag_33\n      swap2\n      swap1\n      tag_34\n      jump\t// in\n    tag_33:\n      tag_35\n      jump\t// in\n    tag_32:\n      mload(0x40)\n      tag_36\n      swap2\n      swap1\n      tag_37\n      jump\t// in\n    tag_36:\n      mload(0x40)\n      dup1\n      swap2\n      sub\n      swap1\n      return\n        /* \"@openzeppelin/contracts/access/AccessControl.sol\":4226:4362  function grantRole(bytes32 role, address account) public virtual onlyRole(getRoleAdmin(role)) {... */\n    tag_6:\n      tag_38\n      0x04\n      dup1\n      calldatasize\n      sub\n      dup2\n      add\n      swap1\n      tag_39\n      swap2\n      swap1\n      tag_40\n      jump\t// in\n    tag_39:\n      tag_41\n      jump\t// in\n    tag_38:\n      stop\n        /* \"@openzeppelin/contracts/access/AccessControl.sol\":5328:5573  function renounceRole(bytes32 role, address callerConfirmation) public virtual {... */\n    tag_7:\n      tag_42\n      0x04\n      dup1\n      calldatasize\n      sub\n      dup2\n      add\n      swap1\n      tag_43\n      swap2\n      swap1\n      tag_40\n      jump\t// in\n    tag_43:\n      tag_44\n      jump\t// in\n    tag_42:\n      stop\n        /* \"contracts/security/zkSnarks/ProofGeneration.sol\":1012:1072  bytes32 public constant ADMIN_ROLE = keccak256(\"ADMIN_ROLE\") */\n    tag_8:\n      tag_45\n      tag_46\n      jump\t// in\n    tag_45:\n      mload(0x40)\n      tag_47\n      swap2\n      swap1\n      tag_37\n      jump\t// in\n    tag_47:\n      mload(0x40)\n      dup1\n      swap2\n      sub\n      swap1\n      return\n        /* \"contracts/security/zkSnarks/ProofGeneration.sol\":1151:1186  IProofVerifier public proofVerifier */\n    tag_9:\n      tag_48\n      tag_49\n      jump\t// in\n    tag_48:\n      mload(0x40)\n      tag_50\n      swap2\n      swap1\n      tag_51\n      jump\t// in\n    tag_50:\n      mload(0x40)\n      dup1\n      swap2\n      sub\n      swap1\n      return\n        /* \"@openzeppelin/contracts/utils/cryptography/EIP712.sol\":5144:5701  function eip712Domain()... */\n    tag_10:\n      tag_52\n      tag_53\n      jump\t// in\n    tag_52:\n      mload(0x40)\n      tag_54\n      swap8\n      swap7\n      swap6\n      swap5\n      swap4\n      swap3\n      swap2\n      swap1\n      tag_55\n      jump\t// in\n    tag_54:\n      mload(0x40)\n      dup1\n      swap2\n      sub\n      swap1\n      return\n        /* \"@openzeppelin/contracts/access/AccessControl.sol\":2854:2990  function hasRole(bytes32 role, address account) public view virtual returns (bool) {... */\n    tag_11:\n      tag_56\n      0x04\n      dup1\n      calldatasize\n      sub\n      dup2\n      add\n      swap1\n      tag_57\n      swap2\n      swap1\n      tag_40\n      jump\t// in\n    tag_57:\n      tag_58\n      jump\t// in\n    tag_56:\n      mload(0x40)\n      tag_59\n      swap2\n      swap1\n      tag_27\n      jump\t// in\n    tag_59:\n      mload(0x40)\n      dup1\n      swap2\n      sub\n      swap1\n      return\n        /* \"@openzeppelin/contracts/access/AccessControl.sol\":2187:2236  bytes32 public constant DEFAULT_ADMIN_ROLE = 0x00 */\n    tag_12:\n      tag_60\n      tag_61\n      jump\t// in\n    tag_60:\n      mload(0x40)\n      tag_62\n      swap2\n      swap1\n      tag_37\n      jump\t// in\n    tag_62:\n      mload(0x40)\n      dup1\n      swap2\n      sub\n      swap1\n      return\n        /* \"contracts/security/zkSnarks/ProofGeneration.sol\":2698:2832  function revokeVerifierRole(address account) external onlyRole(DEFAULT_ADMIN_ROLE) {... */\n    tag_13:\n      tag_63\n      0x04\n      dup1\n      calldatasize\n      sub\n      dup2\n      add\n      swap1\n      tag_64\n      swap2\n      swap1\n      tag_30\n      jump\t// in\n    tag_64:\n      tag_65\n      jump\t// in\n    tag_63:\n      stop\n        /* \"contracts/security/zkSnarks/ProofGeneration.sol\":3028:3154  function hasVerifierRole(address account) external view returns (bool) {... */\n    tag_14:\n      tag_66\n      0x04\n      dup1\n      calldatasize\n      sub\n      dup2\n      add\n      swap1\n      tag_67\n      swap2\n      swap1\n      tag_30\n      jump\t// in\n    tag_67:\n      tag_68\n      jump\t// in\n    tag_66:\n      mload(0x40)\n      tag_69\n      swap2\n      swap1\n      tag_27\n      jump\t// in\n    tag_69:\n      mload(0x40)\n      dup1\n      swap2\n      sub\n      swap1\n      return\n        /* \"@openzeppelin/contracts/access/AccessControl.sol\":4642:4780  function revokeRole(bytes32 role, address account) public virtual onlyRole(getRoleAdmin(role)) {... */\n    tag_15:\n      tag_70\n      0x04\n      dup1\n      calldatasize\n      sub\n      dup2\n      add\n      swap1\n      tag_71\n      swap2\n      swap1\n      tag_40\n      jump\t// in\n    tag_71:\n      tag_72\n      jump\t// in\n    tag_70:\n      stop\n        /* \"contracts/security/zkSnarks/ProofGeneration.sol\":2141:2284  function setProofVerifier(address _proofVerifier) external onlyRole(ADMIN_ROLE) {... */\n    tag_16:\n      tag_73\n      0x04\n      dup1\n      calldatasize\n      sub\n      dup2\n      add\n      swap1\n      tag_74\n      swap2\n      swap1\n      tag_30\n      jump\t// in\n    tag_74:\n      tag_75\n      jump\t// in\n    tag_73:\n      stop\n        /* \"contracts/security/zkSnarks/ProofGeneration.sol\":1078:1144  bytes32 public constant VERIFIER_ROLE = keccak256(\"VERIFIER_ROLE\") */\n    tag_17:\n      tag_76\n      tag_77\n      jump\t// in\n    tag_76:\n      mload(0x40)\n      tag_78\n      swap2\n      swap1\n      tag_37\n      jump\t// in\n    tag_78:\n      mload(0x40)\n      dup1\n      swap2\n      sub\n      swap1\n      return\n        /* \"contracts/security/zkSnarks/ProofGeneration.sol\":1706:1987  function generateProof(bytes calldata proof, uint256[] calldata inputs, string calldata proofId) external onlyRole(VERIFIER_ROLE) {... */\n    tag_18:\n      tag_79\n      0x04\n      dup1\n      calldatasize\n      sub\n      dup2\n      add\n      swap1\n      tag_80\n      swap2\n      swap1\n      tag_81\n      jump\t// in\n    tag_80:\n      tag_82\n      jump\t// in\n    tag_79:\n      stop\n        /* \"@openzeppelin/contracts/access/AccessControl.sol\":2565:2767  function supportsInterface(bytes4 interfaceId) public view virtual override returns (bool) {... */\n    tag_25:\n        /* \"@openzeppelin/contracts/access/AccessControl.sol\":2650:2654  bool */\n      0x00\n        /* \"@openzeppelin/contracts/access/AccessControl.sol\":2688:2720  type(IAccessControl).interfaceId */\n      0x7965db0b00000000000000000000000000000000000000000000000000000000\n        /* \"@openzeppelin/contracts/access/AccessControl.sol\":2673:2720  interfaceId == type(IAccessControl).interfaceId */\n      not(0xffffffffffffffffffffffffffffffffffffffffffffffffffffffff)\n      and\n        /* \"@openzeppelin/contracts/access/AccessControl.sol\":2673:2684  interfaceId */\n      dup3\n        /* \"@openzeppelin/contracts/access/AccessControl.sol\":2673:2720  interfaceId == type(IAccessControl).interfaceId */\n      not(0xffffffffffffffffffffffffffffffffffffffffffffffffffffffff)\n      and\n      eq\n        /* \"@openzeppelin/contracts/access/AccessControl.sol\":2673:2760  interfaceId == type(IAccessControl).interfaceId || super.supportsInterface(interfaceId) */\n      dup1\n      tag_84\n      jumpi\n      pop\n        /* \"@openzeppelin/contracts/access/AccessControl.sol\":2724:2760  super.supportsInterface(interfaceId) */\n      tag_85\n        /* \"@openzeppelin/contracts/access/AccessControl.sol\":2748:2759  interfaceId */\n      dup3\n        /* \"@openzeppelin/contracts/access/AccessControl.sol\":2724:2747  super.supportsInterface */\n      tag_86\n        /* \"@openzeppelin/contracts/access/AccessControl.sol\":2724:2760  super.supportsInterface(interfaceId) */\n      jump\t// in\n    tag_85:\n        /* \"@openzeppelin/contracts/access/AccessControl.sol\":2673:2760  interfaceId == type(IAccessControl).interfaceId || super.supportsInterface(interfaceId) */\n    tag_84:\n        /* \"@openzeppelin/contracts/access/AccessControl.sol\":2666:2760  return interfaceId == type(IAccessControl).interfaceId || super.supportsInterface(interfaceId) */\n      swap1\n      pop\n        /* \"@openzeppelin/contracts/access/AccessControl.sol\":2565:2767  function supportsInterface(bytes4 interfaceId) public view virtual override returns (bool) {... */\n      swap2\n      swap1\n      pop\n      jump\t// out\n        /* \"contracts/security/zkSnarks/ProofGeneration.sol\":2422:2554  function grantVerifierRole(address account) external onlyRole(DEFAULT_ADMIN_ROLE) {... */\n    tag_31:\n        /* \"@openzeppelin/contracts/access/AccessControl.sol\":2232:2236  0x00 */\n      0x00\n        /* \"contracts/security/zkSnarks/ProofGeneration.sol\":2484:2502  DEFAULT_ADMIN_ROLE */\n      dup1\n      shl\n        /* \"@openzeppelin/contracts/access/AccessControl.sol\":2464:2480  _checkRole(role) */\n      tag_88\n        /* \"@openzeppelin/contracts/access/AccessControl.sol\":2475:2479  role */\n      dup2\n        /* \"@openzeppelin/contracts/access/AccessControl.sol\":2464:2474  _checkRole */\n      tag_89\n        /* \"@openzeppelin/contracts/access/AccessControl.sol\":2464:2480  _checkRole(role) */\n      jump\t// in\n    tag_88:\n        /* \"contracts/security/zkSnarks/ProofGeneration.sol\":2514:2547  grantRole(VERIFIER_ROLE, account) */\n      tag_91\n        /* \"contracts/security/zkSnarks/ProofGeneration.sol\":1118:1144  keccak256(\"VERIFIER_ROLE\") */\n      0x0ce23c3e399818cfee81a7ab0880f714e53d7672b08df0fa62f2843416e1ea09\n        /* \"contracts/security/zkSnarks/ProofGeneration.sol\":2539:2546  account */\n      dup4\n        /* \"contracts/security/zkSnarks/ProofGeneration.sol\":2514:2523  grantRole */\n      tag_41\n        /* \"contracts/security/zkSnarks/ProofGeneration.sol\":2514:2547  grantRole(VERIFIER_ROLE, account) */\n      jump\t// in\n    tag_91:\n        /* \"contracts/security/zkSnarks/ProofGeneration.sol\":2422:2554  function grantVerifierRole(address account) external onlyRole(DEFAULT_ADMIN_ROLE) {... */\n      pop\n      pop\n      jump\t// out\n        /* \"@openzeppelin/contracts/access/AccessControl.sol\":3810:3930  function getRoleAdmin(bytes32 role) public view virtual returns (bytes32) {... */\n    tag_35:\n        /* \"@openzeppelin/contracts/access/AccessControl.sol\":3875:3882  bytes32 */\n      0x00\n        /* \"@openzeppelin/contracts/access/AccessControl.sol\":3901:3907  _roles */\n      dup1\n        /* \"@openzeppelin/contracts/access/AccessControl.sol\":3901:3913  _roles[role] */\n      0x00\n        /* \"@openzeppelin/contracts/access/AccessControl.sol\":3908:3912  role */\n      dup4\n        /* \"@openzeppelin/contracts/access/AccessControl.sol\":3901:3913  _roles[role] */\n      dup2\n      mstore\n      0x20\n      add\n      swap1\n      dup2\n      mstore\n      0x20\n      add\n      0x00\n      keccak256\n        /* \"@openzeppelin/contracts/access/AccessControl.sol\":3901:3923  _roles[role].adminRole */\n      0x01\n      add\n      sload\n        /* \"@openzeppelin/contracts/access/AccessControl.sol\":3894:3923  return _roles[role].adminRole */\n      swap1\n      pop\n        /* \"@openzeppelin/contracts/access/AccessControl.sol\":3810:3930  function getRoleAdmin(bytes32 role) public view virtual returns (bytes32) {... */\n      swap2\n      swap1\n      pop\n      jump\t// out\n        /* \"@openzeppelin/contracts/access/AccessControl.sol\":4226:4362  function grantRole(bytes32 role, address account) public virtual onlyRole(getRoleAdmin(role)) {... */\n    tag_41:\n        /* \"@openzeppelin/contracts/access/AccessControl.sol\":4300:4318  getRoleAdmin(role) */\n      tag_93\n        /* \"@openzeppelin/contracts/access/AccessControl.sol\":4313:4317  role */\n      dup3\n        /* \"@openzeppelin/contracts/access/AccessControl.sol\":4300:4312  getRoleAdmin */\n      tag_35\n        /* \"@openzeppelin/contracts/access/AccessControl.sol\":4300:4318  getRoleAdmin(role) */\n      jump\t// in\n    tag_93:\n        /* \"@openzeppelin/contracts/access/AccessControl.sol\":2464:2480  _checkRole(role) */\n      tag_95\n        /* \"@openzeppelin/contracts/access/AccessControl.sol\":2475:2479  role */\n      dup2\n        /* \"@openzeppelin/contracts/access/AccessControl.sol\":2464:2474  _checkRole */\n      tag_89\n        /* \"@openzeppelin/contracts/access/AccessControl.sol\":2464:2480  _checkRole(role) */\n      jump\t// in\n    tag_95:\n        /* \"@openzeppelin/contracts/access/AccessControl.sol\":4330:4355  _grantRole(role, account) */\n      tag_97\n        /* \"@openzeppelin/contracts/access/AccessControl.sol\":4341:4345  role */\n      dup4\n        /* \"@openzeppelin/contracts/access/AccessControl.sol\":4347:4354  account */\n      dup4\n        /* \"@openzeppelin/contracts/access/AccessControl.sol\":4330:4340  _grantRole */\n      tag_98\n        /* \"@openzeppelin/contracts/access/AccessControl.sol\":4330:4355  _grantRole(role, account) */\n      jump\t// in\n    tag_97:\n      pop\n        /* \"@openzeppelin/contracts/access/AccessControl.sol\":4226:4362  function grantRole(bytes32 role, address account) public virtual onlyRole(getRoleAdmin(role)) {... */\n      pop\n      pop\n      pop\n      jump\t// out\n        /* \"@openzeppelin/contracts/access/AccessControl.sol\":5328:5573  function renounceRole(bytes32 role, address callerConfirmation) public virtual {... */\n    tag_44:\n        /* \"@openzeppelin/contracts/access/AccessControl.sol\":5443:5455  _msgSender() */\n      tag_100\n        /* \"@openzeppelin/contracts/access/AccessControl.sol\":5443:5453  _msgSender */\n      tag_101\n        /* \"@openzeppelin/contracts/access/AccessControl.sol\":5443:5455  _msgSender() */\n      jump\t// in\n    tag_100:\n        /* \"@openzeppelin/contracts/access/AccessControl.sol\":5421:5455  callerConfirmation != _msgSender() */\n      0xffffffffffffffffffffffffffffffffffffffff\n      and\n        /* \"@openzeppelin/contracts/access/AccessControl.sol\":5421:5439  callerConfirmation */\n      dup2\n        /* \"@openzeppelin/contracts/access/AccessControl.sol\":5421:5455  callerConfirmation != _msgSender() */\n      0xffffffffffffffffffffffffffffffffffffffff\n      and\n      eq\n        /* \"@openzeppelin/contracts/access/AccessControl.sol\":5417:5519  if (callerConfirmation != _msgSender()) {... */\n      tag_102\n      jumpi\n        /* \"@openzeppelin/contracts/access/AccessControl.sol\":5478:5508  AccessControlBadConfirmation() */\n      mload(0x40)\n      0x6697b23200000000000000000000000000000000000000000000000000000000\n      dup2\n      mstore\n      0x04\n      add\n      mload(0x40)\n      dup1\n      swap2\n      sub\n      swap1\n      revert\n        /* \"@openzeppelin/contracts/access/AccessControl.sol\":5417:5519  if (callerConfirmation != _msgSender()) {... */\n    tag_102:\n        /* \"@openzeppelin/contracts/access/AccessControl.sol\":5529:5566  _revokeRole(role, callerConfirmation) */\n      tag_103\n        /* \"@openzeppelin/contracts/access/AccessControl.sol\":5541:5545  role */\n      dup3\n        /* \"@openzeppelin/contracts/access/AccessControl.sol\":5547:5565  callerConfirmation */\n      dup3\n        /* \"@openzeppelin/contracts/access/AccessControl.sol\":5529:5540  _revokeRole */\n      tag_104\n        /* \"@openzeppelin/contracts/access/AccessControl.sol\":5529:5566  _revokeRole(role, callerConfirmation) */\n      jump\t// in\n    tag_103:\n      pop\n        /* \"@openzeppelin/contracts/access/AccessControl.sol\":5328:5573  function renounceRole(bytes32 role, address callerConfirmation) public virtual {... */\n      pop\n      pop\n      jump\t// out\n        /* \"contracts/security/zkSnarks/ProofGeneration.sol\":1012:1072  bytes32 public constant ADMIN_ROLE = keccak256(\"ADMIN_ROLE\") */\n    tag_46:\n        /* \"contracts/security/zkSnarks/ProofGeneration.sol\":1049:1072  keccak256(\"ADMIN_ROLE\") */\n      0xa49807205ce4d355092ef5a8a18f56e8913cf4a201fbe287825b095693c21775\n        /* \"contracts/security/zkSnarks/ProofGeneration.sol\":1012:1072  bytes32 public constant ADMIN_ROLE = keccak256(\"ADMIN_ROLE\") */\n      dup2\n      jump\t// out\n        /* \"contracts/security/zkSnarks/ProofGeneration.sol\":1151:1186  IProofVerifier public proofVerifier */\n    tag_49:\n      0x03\n      0x00\n      swap1\n      sload\n      swap1\n      0x0100\n      exp\n      swap1\n      div\n      0xffffffffffffffffffffffffffffffffffffffff\n      and\n      dup2\n      jump\t// out\n        /* \"@openzeppelin/contracts/utils/cryptography/EIP712.sol\":5144:5701  function eip712Domain()... */\n    tag_53:\n        /* \"@openzeppelin/contracts/utils/cryptography/EIP712.sol\":5242:5255  bytes1 fields */\n      0x00\n        /* \"@openzeppelin/contracts/utils/cryptography/EIP712.sol\":5269:5287  string memory name */\n      0x60\n        /* \"@openzeppelin/contracts/utils/cryptography/EIP712.sol\":5301:5322  string memory version */\n      dup1\n        /* \"@openzeppelin/contracts/utils/cryptography/EIP712.sol\":5336:5351  uint256 chainId */\n      0x00\n        /* \"@openzeppelin/contracts/utils/cryptography/EIP712.sol\":5365:5390  address verifyingContract */\n      dup1\n        /* \"@openzeppelin/contracts/utils/cryptography/EIP712.sol\":5404:5416  bytes32 salt */\n      0x00\n        /* \"@openzeppelin/contracts/utils/cryptography/EIP712.sol\":5430:5457  uint256[] memory extensions */\n      0x60\n        /* \"@openzeppelin/contracts/utils/cryptography/EIP712.sol\":5533:5546  _EIP712Name() */\n      tag_106\n        /* \"@openzeppelin/contracts/utils/cryptography/EIP712.sol\":5533:5544  _EIP712Name */\n      tag_107\n        /* \"@openzeppelin/contracts/utils/cryptography/EIP712.sol\":5533:5546  _EIP712Name() */\n      jump\t// in\n    tag_106:\n        /* \"@openzeppelin/contracts/utils/cryptography/EIP712.sol\":5560:5576  _EIP712Version() */\n      tag_108\n        /* \"@openzeppelin/contracts/utils/cryptography/EIP712.sol\":5560:5574  _EIP712Version */\n      tag_109\n        /* \"@openzeppelin/contracts/utils/cryptography/EIP712.sol\":5560:5576  _EIP712Version() */\n      jump\t// in\n    tag_108:\n        /* \"@openzeppelin/contracts/utils/cryptography/EIP712.sol\":5590:5603  block.chainid */\n      chainid\n        /* \"@openzeppelin/contracts/utils/cryptography/EIP712.sol\":5625:5629  this */\n      address\n        /* \"@openzeppelin/contracts/utils/cryptography/EIP712.sol\":5652:5653  0 */\n      0x00\n        /* \"@openzeppelin/contracts/utils/cryptography/EIP712.sol\":5644:5654  bytes32(0) */\n      dup1\n      shl\n        /* \"@openzeppelin/contracts/utils/cryptography/EIP712.sol\":5682:5683  0 */\n      0x00\n        /* \"@openzeppelin/contracts/utils/cryptography/EIP712.sol\":5668:5684  new uint256[](0) */\n      0xffffffffffffffff\n      dup2\n      gt\n      iszero\n      tag_110\n      jumpi\n      tag_111\n      tag_112\n      jump\t// in\n    tag_111:\n    tag_110:\n      mload(0x40)\n      swap1\n      dup1\n      dup3\n      mstore\n      dup1\n      0x20\n      mul\n      0x20\n      add\n      dup3\n      add\n      0x40\n      mstore\n      dup1\n      iszero\n      tag_113\n      jumpi\n      dup2\n      0x20\n      add\n      0x20\n      dup3\n      mul\n      dup1\n      calldatasize\n      dup4\n      calldatacopy\n      dup1\n      dup3\n      add\n      swap2\n      pop\n      pop\n      swap1\n      pop\n    tag_113:\n      pop\n        /* \"@openzeppelin/contracts/utils/cryptography/EIP712.sol\":5482:5694  return (... */\n      0x0f00000000000000000000000000000000000000000000000000000000000000\n      swap6\n      swap5\n      swap4\n      swap3\n      swap2\n      swap1\n      swap7\n      pop\n      swap7\n      pop\n      swap7\n      pop\n      swap7\n      pop\n      swap7\n      pop\n      swap7\n      pop\n      swap7\n      pop\n        /* \"@openzeppelin/contracts/utils/cryptography/EIP712.sol\":5144:5701  function eip712Domain()... */\n      swap1\n      swap2\n      swap3\n      swap4\n      swap5\n      swap6\n      swap7\n      jump\t// out\n        /* \"@openzeppelin/contracts/access/AccessControl.sol\":2854:2990  function hasRole(bytes32 role, address account) public view virtual returns (bool) {... */\n    tag_58:\n        /* \"@openzeppelin/contracts/access/AccessControl.sol\":2931:2935  bool */\n      0x00\n        /* \"@openzeppelin/contracts/access/AccessControl.sol\":2954:2960  _roles */\n      dup1\n        /* \"@openzeppelin/contracts/access/AccessControl.sol\":2954:2966  _roles[role] */\n      0x00\n        /* \"@openzeppelin/contracts/access/AccessControl.sol\":2961:2965  role */\n      dup5\n        /* \"@openzeppelin/contracts/access/AccessControl.sol\":2954:2966  _roles[role] */\n      dup2\n      mstore\n      0x20\n      add\n      swap1\n      dup2\n      mstore\n      0x20\n      add\n      0x00\n      keccak256\n        /* \"@openzeppelin/contracts/access/AccessControl.sol\":2954:2974  _roles[role].hasRole */\n      0x00\n      add\n        /* \"@openzeppelin/contracts/access/AccessControl.sol\":2954:2983  _roles[role].hasRole[account] */\n      0x00\n        /* \"@openzeppelin/contracts/access/AccessControl.sol\":2975:2982  account */\n      dup4\n        /* \"@openzeppelin/contracts/access/AccessControl.sol\":2954:2983  _roles[role].hasRole[account] */\n      0xffffffffffffffffffffffffffffffffffffffff\n      and\n      0xffffffffffffffffffffffffffffffffffffffff\n      and\n      dup2\n      mstore\n      0x20\n      add\n      swap1\n      dup2\n      mstore\n      0x20\n      add\n      0x00\n      keccak256\n      0x00\n      swap1\n      sload\n      swap1\n      0x0100\n      exp\n      swap1\n      div\n      0xff\n      and\n        /* \"@openzeppelin/contracts/access/AccessControl.sol\":2947:2983  return _roles[role].hasRole[account] */\n      swap1\n      pop\n        /* \"@openzeppelin/contracts/access/AccessControl.sol\":2854:2990  function hasRole(bytes32 role, address account) public view virtual returns (bool) {... */\n      swap3\n      swap2\n      pop\n      pop\n      jump\t// out\n        /* \"@openzeppelin/contracts/access/AccessControl.sol\":2187:2236  bytes32 public constant DEFAULT_ADMIN_ROLE = 0x00 */\n    tag_61:\n        /* \"@openzeppelin/contracts/access/AccessControl.sol\":2232:2236  0x00 */\n      0x00\n        /* \"@openzeppelin/contracts/access/AccessControl.sol\":2187:2236  bytes32 public constant DEFAULT_ADMIN_ROLE = 0x00 */\n      dup1\n      shl\n      dup2\n      jump\t// out\n        /* \"contracts/security/zkSnarks/ProofGeneration.sol\":2698:2832  function revokeVerifierRole(address account) external onlyRole(DEFAULT_ADMIN_ROLE) {... */\n    tag_65:\n        /* \"@openzeppelin/contracts/access/AccessControl.sol\":2232:2236  0x00 */\n      0x00\n        /* \"contracts/security/zkSnarks/ProofGeneration.sol\":2761:2779  DEFAULT_ADMIN_ROLE */\n      dup1\n      shl\n        /* \"@openzeppelin/contracts/access/AccessControl.sol\":2464:2480  _checkRole(role) */\n      tag_116\n        /* \"@openzeppelin/contracts/access/AccessControl.sol\":2475:2479  role */\n      dup2\n        /* \"@openzeppelin/contracts/access/AccessControl.sol\":2464:2474  _checkRole */\n      tag_89\n        /* \"@openzeppelin/contracts/access/AccessControl.sol\":2464:2480  _checkRole(role) */\n      jump\t// in\n    tag_116:\n        /* \"contracts/security/zkSnarks/ProofGeneration.sol\":2791:2825  revokeRole(VERIFIER_ROLE, account) */\n      tag_118\n        /* \"contracts/security/zkSnarks/ProofGeneration.sol\":1118:1144  keccak256(\"VERIFIER_ROLE\") */\n      0x0ce23c3e399818cfee81a7ab0880f714e53d7672b08df0fa62f2843416e1ea09\n        /* \"contracts/security/zkSnarks/ProofGeneration.sol\":2817:2824  account */\n      dup4\n        /* \"contracts/security/zkSnarks/ProofGeneration.sol\":2791:2801  revokeRole */\n      tag_72\n        /* \"contracts/security/zkSnarks/ProofGeneration.sol\":2791:2825  revokeRole(VERIFIER_ROLE, account) */\n      jump\t// in\n    tag_118:\n        /* \"contracts/security/zkSnarks/ProofGeneration.sol\":2698:2832  function revokeVerifierRole(address account) external onlyRole(DEFAULT_ADMIN_ROLE) {... */\n      pop\n      pop\n      jump\t// out\n        /* \"contracts/security/zkSnarks/ProofGeneration.sol\":3028:3154  function hasVerifierRole(address account) external view returns (bool) {... */\n    tag_68:\n        /* \"contracts/security/zkSnarks/ProofGeneration.sol\":3093:3097  bool */\n      0x00\n        /* \"contracts/security/zkSnarks/ProofGeneration.sol\":3116:3147  hasRole(VERIFIER_ROLE, account) */\n      tag_120\n        /* \"contracts/security/zkSnarks/ProofGeneration.sol\":1118:1144  keccak256(\"VERIFIER_ROLE\") */\n      0x0ce23c3e399818cfee81a7ab0880f714e53d7672b08df0fa62f2843416e1ea09\n        /* \"contracts/security/zkSnarks/ProofGeneration.sol\":3139:3146  account */\n      dup4\n        /* \"contracts/security/zkSnarks/ProofGeneration.sol\":3116:3123  hasRole */\n      tag_58\n        /* \"contracts/security/zkSnarks/ProofGeneration.sol\":3116:3147  hasRole(VERIFIER_ROLE, account) */\n      jump\t// in\n    tag_120:\n        /* \"contracts/security/zkSnarks/ProofGeneration.sol\":3109:3147  return hasRole(VERIFIER_ROLE, account) */\n      swap1\n      pop\n        /* \"contracts/security/zkSnarks/ProofGeneration.sol\":3028:3154  function hasVerifierRole(address account) external view returns (bool) {... */\n      swap2\n      swap1\n      pop\n      jump\t// out\n        /* \"@openzeppelin/contracts/access/AccessControl.sol\":4642:4780  function revokeRole(bytes32 role, address account) public virtual onlyRole(getRoleAdmin(role)) {... */\n    tag_72:\n        /* \"@openzeppelin/contracts/access/AccessControl.sol\":4717:4735  getRoleAdmin(role) */\n      tag_121\n        /* \"@openzeppelin/contracts/access/AccessControl.sol\":4730:4734  role */\n      dup3\n        /* \"@openzeppelin/contracts/access/AccessControl.sol\":4717:4729  getRoleAdmin */\n      tag_35\n        /* \"@openzeppelin/contracts/access/AccessControl.sol\":4717:4735  getRoleAdmin(role) */\n      jump\t// in\n    tag_121:\n        /* \"@openzeppelin/contracts/access/AccessControl.sol\":2464:2480  _checkRole(role) */\n      tag_123\n        /* \"@openzeppelin/contracts/access/AccessControl.sol\":2475:2479  role */\n      dup2\n        /* \"@openzeppelin/contracts/access/AccessControl.sol\":2464:2474  _checkRole */\n      tag_89\n        /* \"@openzeppelin/contracts/access/AccessControl.sol\":2464:2480  _checkRole(role) */\n      jump\t// in\n    tag_123:\n        /* \"@openzeppelin/contracts/access/AccessControl.sol\":4747:4773  _revokeRole(role, account) */\n      tag_125\n        /* \"@openzeppelin/contracts/access/AccessControl.sol\":4759:4763  role */\n      dup4\n        /* \"@openzeppelin/contracts/access/AccessControl.sol\":4765:4772  account */\n      dup4\n        /* \"@openzeppelin/contracts/access/AccessControl.sol\":4747:4758  _revokeRole */\n      tag_104\n        /* \"@openzeppelin/contracts/access/AccessControl.sol\":4747:4773  _revokeRole(role, account) */\n      jump\t// in\n    tag_125:\n      pop\n        /* \"@openzeppelin/contracts/access/AccessControl.sol\":4642:4780  function revokeRole(bytes32 role, address account) public virtual onlyRole(getRoleAdmin(role)) {... */\n      pop\n      pop\n      pop\n      jump\t// out\n        /* \"contracts/security/zkSnarks/ProofGeneration.sol\":2141:2284  function setProofVerifier(address _proofVerifier) external onlyRole(ADMIN_ROLE) {... */\n    tag_75:\n        /* \"contracts/security/zkSnarks/ProofGeneration.sol\":1049:1072  keccak256(\"ADMIN_ROLE\") */\n      0xa49807205ce4d355092ef5a8a18f56e8913cf4a201fbe287825b095693c21775\n        /* \"@openzeppelin/contracts/access/AccessControl.sol\":2464:2480  _checkRole(role) */\n      tag_127\n        /* \"@openzeppelin/contracts/access/AccessControl.sol\":2475:2479  role */\n      dup2\n        /* \"@openzeppelin/contracts/access/AccessControl.sol\":2464:2474  _checkRole */\n      tag_89\n        /* \"@openzeppelin/contracts/access/AccessControl.sol\":2464:2480  _checkRole(role) */\n      jump\t// in\n    tag_127:\n        /* \"contracts/security/zkSnarks/ProofGeneration.sol\":2262:2276  _proofVerifier */\n      dup2\n        /* \"contracts/security/zkSnarks/ProofGeneration.sol\":2231:2244  proofVerifier */\n      0x03\n      0x00\n        /* \"contracts/security/zkSnarks/ProofGeneration.sol\":2231:2277  proofVerifier = IProofVerifier(_proofVerifier) */\n      0x0100\n      exp\n      dup2\n      sload\n      dup2\n      0xffffffffffffffffffffffffffffffffffffffff\n      mul\n      not\n      and\n      swap1\n      dup4\n      0xffffffffffffffffffffffffffffffffffffffff\n      and\n      mul\n      or\n      swap1\n      sstore\n      pop\n        /* \"contracts/security/zkSnarks/ProofGeneration.sol\":2141:2284  function setProofVerifier(address _proofVerifier) external onlyRole(ADMIN_ROLE) {... */\n      pop\n      pop\n      jump\t// out\n        /* \"contracts/security/zkSnarks/ProofGeneration.sol\":1078:1144  bytes32 public constant VERIFIER_ROLE = keccak256(\"VERIFIER_ROLE\") */\n    tag_77:\n        /* \"contracts/security/zkSnarks/ProofGeneration.sol\":1118:1144  keccak256(\"VERIFIER_ROLE\") */\n      0x0ce23c3e399818cfee81a7ab0880f714e53d7672b08df0fa62f2843416e1ea09\n        /* \"contracts/security/zkSnarks/ProofGeneration.sol\":1078:1144  bytes32 public constant VERIFIER_ROLE = keccak256(\"VERIFIER_ROLE\") */\n      dup2\n      jump\t// out\n        /* \"contracts/security/zkSnarks/ProofGeneration.sol\":1706:1987  function generateProof(bytes calldata proof, uint256[] calldata inputs, string calldata proofId) external onlyRole(VERIFIER_ROLE) {... */\n    tag_82:\n        /* \"contracts/security/zkSnarks/ProofGeneration.sol\":1118:1144  keccak256(\"VERIFIER_ROLE\") */\n      0x0ce23c3e399818cfee81a7ab0880f714e53d7672b08df0fa62f2843416e1ea09\n        /* \"@openzeppelin/contracts/access/AccessControl.sol\":2464:2480  _checkRole(role) */\n      tag_130\n        /* \"@openzeppelin/contracts/access/AccessControl.sol\":2475:2479  role */\n      dup2\n        /* \"@openzeppelin/contracts/access/AccessControl.sol\":2464:2474  _checkRole */\n      tag_89\n        /* \"@openzeppelin/contracts/access/AccessControl.sol\":2464:2480  _checkRole(role) */\n      jump\t// in\n    tag_130:\n        /* \"contracts/security/zkSnarks/ProofGeneration.sol\":1854:1867  proofVerifier */\n      0x03\n      0x00\n      swap1\n      sload\n      swap1\n      0x0100\n      exp\n      swap1\n      div\n      0xffffffffffffffffffffffffffffffffffffffff\n      and\n        /* \"contracts/security/zkSnarks/ProofGeneration.sol\":1854:1879  proofVerifier.verifyProof */\n      0xffffffffffffffffffffffffffffffffffffffff\n      and\n      0x1e8e1e13\n        /* \"contracts/security/zkSnarks/ProofGeneration.sol\":1880:1885  proof */\n      dup9\n      dup9\n        /* \"contracts/security/zkSnarks/ProofGeneration.sol\":1887:1893  inputs */\n      dup9\n      dup9\n        /* \"contracts/security/zkSnarks/ProofGeneration.sol\":1854:1894  proofVerifier.verifyProof(proof, inputs) */\n      mload(0x40)\n      dup6\n      0xffffffff\n      and\n      0xe0\n      shl\n      dup2\n      mstore\n      0x04\n      add\n      tag_132\n      swap5\n      swap4\n      swap3\n      swap2\n      swap1\n      tag_133\n      jump\t// in\n    tag_132:\n      0x20\n      mload(0x40)\n      dup1\n      dup4\n      sub\n      dup2\n      dup7\n      gas\n      staticcall\n      iszero\n      dup1\n      iszero\n      tag_135\n      jumpi\n      returndatasize\n      0x00\n      dup1\n      returndatacopy\n      revert(0x00, returndatasize)\n    tag_135:\n      pop\n      pop\n      pop\n      pop\n      mload(0x40)\n      returndatasize\n      not(0x1f)\n      0x1f\n      dup3\n      add\n      and\n      dup3\n      add\n      dup1\n      0x40\n      mstore\n      pop\n      dup2\n      add\n      swap1\n      tag_136\n      swap2\n      swap1\n      tag_137\n      jump\t// in\n    tag_136:\n        /* \"contracts/security/zkSnarks/ProofGeneration.sol\":1846:1929  require(proofVerifier.verifyProof(proof, inputs), \"ProofGeneration: Invalid proof\") */\n      tag_138\n      jumpi\n      mload(0x40)\n      0x08c379a000000000000000000000000000000000000000000000000000000000\n      dup2\n      mstore\n      0x04\n      add\n      tag_139\n      swap1\n      tag_140\n      jump\t// in\n    tag_139:\n      mload(0x40)\n      dup1\n      swap2\n      sub\n      swap1\n      revert\n    tag_138:\n        /* \"contracts/security/zkSnarks/ProofGeneration.sol\":1960:1970  msg.sender */\n      caller\n        /* \"contracts/security/zkSnarks/ProofGeneration.sol\":1945:1980  ProofGenerated(msg.sender, proofId) */\n      0xffffffffffffffffffffffffffffffffffffffff\n      and\n      0x9055e6953596a4bec3ee94fe69263dbbb095ebee41411bc4902a0c4cf0a51a21\n        /* \"contracts/security/zkSnarks/ProofGeneration.sol\":1972:1979  proofId */\n      dup5\n      dup5\n        /* \"contracts/security/zkSnarks/ProofGeneration.sol\":1945:1980  ProofGenerated(msg.sender, proofId) */\n      mload(0x40)\n      tag_141\n      swap3\n      swap2\n      swap1\n      tag_142\n      jump\t// in\n    tag_141:\n      mload(0x40)\n      dup1\n      swap2\n      sub\n      swap1\n      log2\n        /* \"contracts/security/zkSnarks/ProofGeneration.sol\":1706:1987  function generateProof(bytes calldata proof, uint256[] calldata inputs, string calldata proofId) external onlyRole(VERIFIER_ROLE) {... */\n      pop\n      pop\n      pop\n      pop\n      pop\n      pop\n      pop\n      jump\t// out\n        /* \"@openzeppelin/contracts/utils/introspection/ERC165.sol\":762:908  function supportsInterface(bytes4 interfaceId) public view virtual returns (bool) {... */\n    tag_86:\n        /* \"@openzeppelin/contracts/utils/introspection/ERC165.sol\":838:842  bool */\n      0x00\n        /* \"@openzeppelin/contracts/utils/introspection/ERC165.sol\":876:901  type(IERC165).interfaceId */\n      0x01ffc9a700000000000000000000000000000000000000000000000000000000\n        /* \"@openzeppelin/contracts/utils/introspection/ERC165.sol\":861:901  interfaceId == type(IERC165).interfaceId */\n      not(0xffffffffffffffffffffffffffffffffffffffffffffffffffffffff)\n      and\n        /* \"@openzeppelin/contracts/utils/introspection/ERC165.sol\":861:872  interfaceId */\n      dup3\n        /* \"@openzeppelin/contracts/utils/introspection/ERC165.sol\":861:901  interfaceId == type(IERC165).interfaceId */\n      not(0xffffffffffffffffffffffffffffffffffffffffffffffffffffffff)\n      and\n      eq\n        /* \"@openzeppelin/contracts/utils/introspection/ERC165.sol\":854:901  return interfaceId == type(IERC165).interfaceId */\n      swap1\n      pop\n        /* \"@openzeppelin/contracts/utils/introspection/ERC165.sol\":762:908  function supportsInterface(bytes4 interfaceId) public view virtual returns (bool) {... */\n      swap2\n      swap1\n      pop\n      jump\t// out\n        /* \"@openzeppelin/contracts/access/AccessControl.sol\":3199:3302  function _checkRole(bytes32 role) internal view virtual {... */\n    tag_89:\n        /* \"@openzeppelin/contracts/access/AccessControl.sol\":3265:3295  _checkRole(role, _msgSender()) */\n      tag_145\n        /* \"@openzeppelin/contracts/access/AccessControl.sol\":3276:3280  role */\n      dup2\n        /* \"@openzeppelin/contracts/access/AccessControl.sol\":3282:3294  _msgSender() */\n      tag_146\n        /* \"@openzeppelin/contracts/access/AccessControl.sol\":3282:3292  _msgSender */\n      tag_101\n        /* \"@openzeppelin/contracts/access/AccessControl.sol\":3282:3294  _msgSender() */\n      jump\t// in\n    tag_146:\n        /* \"@openzeppelin/contracts/access/AccessControl.sol\":3265:3275  _checkRole */\n      tag_147\n        /* \"@openzeppelin/contracts/access/AccessControl.sol\":3265:3295  _checkRole(role, _msgSender()) */\n      jump\t// in\n    tag_145:\n        /* \"@openzeppelin/contracts/access/AccessControl.sol\":3199:3302  function _checkRole(bytes32 role) internal view virtual {... */\n      pop\n      jump\t// out\n        /* \"@openzeppelin/contracts/access/AccessControl.sol\":6179:6495  function _grantRole(bytes32 role, address account) internal virtual returns (bool) {... */\n    tag_98:\n        /* \"@openzeppelin/contracts/access/AccessControl.sol\":6256:6260  bool */\n      0x00\n        /* \"@openzeppelin/contracts/access/AccessControl.sol\":6277:6299  hasRole(role, account) */\n      tag_149\n        /* \"@openzeppelin/contracts/access/AccessControl.sol\":6285:6289  role */\n      dup4\n        /* \"@openzeppelin/contracts/access/AccessControl.sol\":6291:6298  account */\n      dup4\n        /* \"@openzeppelin/contracts/access/AccessControl.sol\":6277:6284  hasRole */\n      tag_58\n        /* \"@openzeppelin/contracts/access/AccessControl.sol\":6277:6299  hasRole(role, account) */\n      jump\t// in\n    tag_149:\n        /* \"@openzeppelin/contracts/access/AccessControl.sol\":6272:6489  if (!hasRole(role, account)) {... */\n      tag_150\n      jumpi\n        /* \"@openzeppelin/contracts/access/AccessControl.sol\":6347:6351  true */\n      0x01\n        /* \"@openzeppelin/contracts/access/AccessControl.sol\":6315:6321  _roles */\n      0x00\n        /* \"@openzeppelin/contracts/access/AccessControl.sol\":6315:6327  _roles[role] */\n      dup1\n        /* \"@openzeppelin/contracts/access/AccessControl.sol\":6322:6326  role */\n      dup6\n        /* \"@openzeppelin/contracts/access/AccessControl.sol\":6315:6327  _roles[role] */\n      dup2\n      mstore\n      0x20\n      add\n      swap1\n      dup2\n      mstore\n      0x20\n      add\n      0x00\n      keccak256\n        /* \"@openzeppelin/contracts/access/AccessControl.sol\":6315:6335  _roles[role].hasRole */\n      0x00\n      add\n        /* \"@openzeppelin/contracts/access/AccessControl.sol\":6315:6344  _roles[role].hasRole[account] */\n      0x00\n        /* \"@openzeppelin/contracts/access/AccessControl.sol\":6336:6343  account */\n      dup5\n        /* \"@openzeppelin/contracts/access/AccessControl.sol\":6315:6344  _roles[role].hasRole[account] */\n      0xffffffffffffffffffffffffffffffffffffffff\n      and\n      0xffffffffffffffffffffffffffffffffffffffff\n      and\n      dup2\n      mstore\n      0x20\n      add\n      swap1\n      dup2\n      mstore\n      0x20\n      add\n      0x00\n      keccak256\n      0x00\n        /* \"@openzeppelin/contracts/access/AccessControl.sol\":6315:6351  _roles[role].hasRole[account] = true */\n      0x0100\n      exp\n      dup2\n      sload\n      dup2\n      0xff\n      mul\n      not\n      and\n      swap1\n      dup4\n      iszero\n      iszero\n      mul\n      or\n      swap1\n      sstore\n      pop\n        /* \"@openzeppelin/contracts/access/AccessControl.sol\":6397:6409  _msgSender() */\n      tag_151\n        /* \"@openzeppelin/contracts/access/AccessControl.sol\":6397:6407  _msgSender */\n      tag_101\n        /* \"@openzeppelin/contracts/access/AccessControl.sol\":6397:6409  _msgSender() */\n      jump\t// in\n    tag_151:\n        /* \"@openzeppelin/contracts/access/AccessControl.sol\":6370:6410  RoleGranted(role, account, _msgSender()) */\n      0xffffffffffffffffffffffffffffffffffffffff\n      and\n        /* \"@openzeppelin/contracts/access/AccessControl.sol\":6388:6395  account */\n      dup3\n        /* \"@openzeppelin/contracts/access/AccessControl.sol\":6370:6410  RoleGranted(role, account, _msgSender()) */\n      0xffffffffffffffffffffffffffffffffffffffff\n      and\n        /* \"@openzeppelin/contracts/access/AccessControl.sol\":6382:6386  role */\n      dup5\n        /* \"@openzeppelin/contracts/access/AccessControl.sol\":6370:6410  RoleGranted(role, account, _msgSender()) */\n      0x2f8788117e7eff1d82e926ec794901d17c78024a50270940304540a733656f0d\n      mload(0x40)\n      mload(0x40)\n      dup1\n      swap2\n      sub\n      swap1\n      log4\n        /* \"@openzeppelin/contracts/access/AccessControl.sol\":6431:6435  true */\n      0x01\n        /* \"@openzeppelin/contracts/access/AccessControl.sol\":6424:6435  return true */\n      swap1\n      pop\n      jump(tag_148)\n        /* \"@openzeppelin/contracts/access/AccessControl.sol\":6272:6489  if (!hasRole(role, account)) {... */\n    tag_150:\n        /* \"@openzeppelin/contracts/access/AccessControl.sol\":6473:6478  false */\n      0x00\n        /* \"@openzeppelin/contracts/access/AccessControl.sol\":6466:6478  return false */\n      swap1\n      pop\n        /* \"@openzeppelin/contracts/access/AccessControl.sol\":6179:6495  function _grantRole(bytes32 role, address account) internal virtual returns (bool) {... */\n    tag_148:\n      swap3\n      swap2\n      pop\n      pop\n      jump\t// out\n        /* \"@openzeppelin/contracts/utils/Context.sol\":656:752  function _msgSender() internal view virtual returns (address) {... */\n    tag_101:\n        /* \"@openzeppelin/contracts/utils/Context.sol\":709:716  address */\n      0x00\n        /* \"@openzeppelin/contracts/utils/Context.sol\":735:745  msg.sender */\n      caller\n        /* \"@openzeppelin/contracts/utils/Context.sol\":728:745  return msg.sender */\n      swap1\n      pop\n        /* \"@openzeppelin/contracts/utils/Context.sol\":656:752  function _msgSender() internal view virtual returns (address) {... */\n      swap1\n      jump\t// out\n        /* \"@openzeppelin/contracts/access/AccessControl.sol\":6730:7047  function _revokeRole(bytes32 role, address account) internal virtual returns (bool) {... */\n    tag_104:\n        /* \"@openzeppelin/contracts/access/AccessControl.sol\":6808:6812  bool */\n      0x00\n        /* \"@openzeppelin/contracts/access/AccessControl.sol\":6828:6850  hasRole(role, account) */\n      tag_155\n        /* \"@openzeppelin/contracts/access/AccessControl.sol\":6836:6840  role */\n      dup4\n        /* \"@openzeppelin/contracts/access/AccessControl.sol\":6842:6849  account */\n      dup4\n        /* \"@openzeppelin/contracts/access/AccessControl.sol\":6828:6835  hasRole */\n      tag_58\n        /* \"@openzeppelin/contracts/access/AccessControl.sol\":6828:6850  hasRole(role, account) */\n      jump\t// in\n    tag_155:\n        /* \"@openzeppelin/contracts/access/AccessControl.sol\":6824:7041  if (hasRole(role, account)) {... */\n      iszero\n      tag_156\n      jumpi\n        /* \"@openzeppelin/contracts/access/AccessControl.sol\":6898:6903  false */\n      0x00\n        /* \"@openzeppelin/contracts/access/AccessControl.sol\":6866:6872  _roles */\n      dup1\n        /* \"@openzeppelin/contracts/access/AccessControl.sol\":6866:6878  _roles[role] */\n      0x00\n        /* \"@openzeppelin/contracts/access/AccessControl.sol\":6873:6877  role */\n      dup6\n        /* \"@openzeppelin/contracts/access/AccessControl.sol\":6866:6878  _roles[role] */\n      dup2\n      mstore\n      0x20\n      add\n      swap1\n      dup2\n      mstore\n      0x20\n      add\n      0x00\n      keccak256\n        /* \"@openzeppelin/contracts/access/AccessControl.sol\":6866:6886  _roles[role].hasRole */\n      0x00\n      add\n        /* \"@openzeppelin/contracts/access/AccessControl.sol\":6866:6895  _roles[role].hasRole[account] */\n      0x00\n        /* \"@openzeppelin/contracts/access/AccessControl.sol\":6887:6894  account */\n      dup5\n        /* \"@openzeppelin/contracts/access/AccessControl.sol\":6866:6895  _roles[role].hasRole[account] */\n      0xffffffffffffffffffffffffffffffffffffffff\n      and\n      0xffffffffffffffffffffffffffffffffffffffff\n      and\n      dup2\n      mstore\n      0x20\n      add\n      swap1\n      dup2\n      mstore\n      0x20\n      add\n      0x00\n      keccak256\n      0x00\n        /* \"@openzeppelin/contracts/access/AccessControl.sol\":6866:6903  _roles[role].hasRole[account] = false */\n      0x0100\n      exp\n      dup2\n      sload\n      dup2\n      0xff\n      mul\n      not\n      and\n      swap1\n      dup4\n      iszero\n      iszero\n      mul\n      or\n      swap1\n      sstore\n      pop\n        /* \"@openzeppelin/contracts/access/AccessControl.sol\":6949:6961  _msgSender() */\n      tag_157\n        /* \"@openzeppelin/contracts/access/AccessControl.sol\":6949:6959  _msgSender */\n      tag_101\n        /* \"@openzeppelin/contracts/access/AccessControl.sol\":6949:6961  _msgSender() */\n      jump\t// in\n    tag_157:\n        /* \"@openzeppelin/contracts/access/AccessControl.sol\":6922:6962  RoleRevoked(role, account, _msgSender()) */\n      0xffffffffffffffffffffffffffffffffffffffff\n      and\n        /* \"@openzeppelin/contracts/access/AccessControl.sol\":6940:6947  account */\n      dup3\n        /* \"@openzeppelin/contracts/access/AccessControl.sol\":6922:6962  RoleRevoked(role, account, _msgSender()) */\n      0xffffffffffffffffffffffffffffffffffffffff\n      and\n        /* \"@openzeppelin/contracts/access/AccessControl.sol\":6934:6938  role */\n      dup5\n        /* \"@openzeppelin/contracts/access/AccessControl.sol\":6922:6962  RoleRevoked(role, account, _msgSender()) */\n      0xf6391f5c32d9c69d2a47ea670b442974b53935d1edc7fd64eb21e047a839171b\n      mload(0x40)\n      mload(0x40)\n      dup1\n      swap2\n      sub\n      swap1\n      log4\n        /* \"@openzeppelin/contracts/access/AccessControl.sol\":6983:6987  true */\n      0x01\n        /* \"@openzeppelin/contracts/access/AccessControl.sol\":6976:6987  return true */\n      swap1\n      pop\n      jump(tag_154)\n        /* \"@openzeppelin/contracts/access/AccessControl.sol\":6824:7041  if (hasRole(role, account)) {... */\n    tag_156:\n        /* \"@openzeppelin/contracts/access/AccessControl.sol\":7025:7030  false */\n      0x00\n        /* \"@openzeppelin/contracts/access/AccessControl.sol\":7018:7030  return false */\n      swap1\n      pop\n        /* \"@openzeppelin/contracts/access/AccessControl.sol\":6730:7047  function _revokeRole(bytes32 role, address account) internal virtual returns (bool) {... */\n    tag_154:\n      swap3\n      swap2\n      pop\n      pop\n      jump\t// out\n        /* \"@openzeppelin/contracts/utils/cryptography/EIP712.sol\":6021:6147  function _EIP712Name() internal view returns (string memory) {... */\n    tag_107:\n        /* \"@openzeppelin/contracts/utils/cryptography/EIP712.sol\":6067:6080  string memory */\n      0x60\n        /* \"@openzeppelin/contracts/utils/cryptography/EIP712.sol\":6099:6140  _name.toStringWithFallback(_nameFallback) */\n      tag_160\n        /* \"@openzeppelin/contracts/utils/cryptography/EIP712.sol\":6126:6139  _nameFallback */\n      0x01\n        /* \"@openzeppelin/contracts/utils/cryptography/EIP712.sol\":6099:6104  _name */\n      immutable(\"0xf17089ced8c0c2239e63f2bbb45b3ebcf864ae70eb1ca01545337030cdeed50a\")\n        /* \"@openzeppelin/contracts/utils/cryptography/EIP712.sol\":6099:6125  _name.toStringWithFallback */\n      tag_161\n      swap1\n        /* \"@openzeppelin/contracts/utils/cryptography/EIP712.sol\":6099:6140  _name.toStringWithFallback(_nameFallback) */\n      swap2\n      swap1\n      0xffffffff\n      and\n      jump\t// in\n    tag_160:\n        /* \"@openzeppelin/contracts/utils/cryptography/EIP712.sol\":6092:6140  return _name.toStringWithFallback(_nameFallback) */\n      swap1\n      pop\n        /* \"@openzeppelin/contracts/utils/cryptography/EIP712.sol\":6021:6147  function _EIP712Name() internal view returns (string memory) {... */\n      swap1\n      jump\t// out\n        /* \"@openzeppelin/contracts/utils/cryptography/EIP712.sol\":6473:6608  function _EIP712Version() internal view returns (string memory) {... */\n    tag_109:\n        /* \"@openzeppelin/contracts/utils/cryptography/EIP712.sol\":6522:6535  string memory */\n      0x60\n        /* \"@openzeppelin/contracts/utils/cryptography/EIP712.sol\":6554:6601  _version.toStringWithFallback(_versionFallback) */\n      tag_163\n        /* \"@openzeppelin/contracts/utils/cryptography/EIP712.sol\":6584:6600  _versionFallback */\n      0x02\n        /* \"@openzeppelin/contracts/utils/cryptography/EIP712.sol\":6554:6562  _version */\n      immutable(\"0xee0ff49487c1781d8064c379467bae8fb422014618d2d9ee6b1977118cbcea82\")\n        /* \"@openzeppelin/contracts/utils/cryptography/EIP712.sol\":6554:6583  _version.toStringWithFallback */\n      tag_161\n      swap1\n        /* \"@openzeppelin/contracts/utils/cryptography/EIP712.sol\":6554:6601  _version.toStringWithFallback(_versionFallback) */\n      swap2\n      swap1\n      0xffffffff\n      and\n      jump\t// in\n    tag_163:\n        /* \"@openzeppelin/contracts/utils/cryptography/EIP712.sol\":6547:6601  return _version.toStringWithFallback(_versionFallback) */\n      swap1\n      pop\n        /* \"@openzeppelin/contracts/utils/cryptography/EIP712.sol\":6473:6608  function _EIP712Version() internal view returns (string memory) {... */\n      swap1\n      jump\t// out\n        /* \"@openzeppelin/contracts/access/AccessControl.sol\":3432:3629  function _checkRole(bytes32 role, address account) internal view virtual {... */\n    tag_147:\n        /* \"@openzeppelin/contracts/access/AccessControl.sol\":3520:3542  hasRole(role, account) */\n      tag_165\n        /* \"@openzeppelin/contracts/access/AccessControl.sol\":3528:3532  role */\n      dup3\n        /* \"@openzeppelin/contracts/access/AccessControl.sol\":3534:3541  account */\n      dup3\n        /* \"@openzeppelin/contracts/access/AccessControl.sol\":3520:3527  hasRole */\n      tag_58\n        /* \"@openzeppelin/contracts/access/AccessControl.sol\":3520:3542  hasRole(role, account) */\n      jump\t// in\n    tag_165:\n        /* \"@openzeppelin/contracts/access/AccessControl.sol\":3515:3623  if (!hasRole(role, account)) {... */\n      tag_166\n      jumpi\n        /* \"@openzeppelin/contracts/access/AccessControl.sol\":3598:3605  account */\n      dup1\n        /* \"@openzeppelin/contracts/access/AccessControl.sol\":3607:3611  role */\n      dup3\n        /* \"@openzeppelin/contracts/access/AccessControl.sol\":3565:3612  AccessControlUnauthorizedAccount(account, role) */\n      mload(0x40)\n      0xe2517d3f00000000000000000000000000000000000000000000000000000000\n      dup2\n      mstore\n      0x04\n      add\n      tag_167\n      swap3\n      swap2\n      swap1\n      tag_168\n      jump\t// in\n    tag_167:\n      mload(0x40)\n      dup1\n      swap2\n      sub\n      swap1\n      revert\n        /* \"@openzeppelin/contracts/access/AccessControl.sol\":3515:3623  if (!hasRole(role, account)) {... */\n    tag_166:\n        /* \"@openzeppelin/contracts/access/AccessControl.sol\":3432:3629  function _checkRole(bytes32 role, address account) internal view virtual {... */\n      pop\n      pop\n      jump\t// out\n        /* \"@openzeppelin/contracts/utils/ShortStrings.sol\":3385:3652  function toStringWithFallback(ShortString value, string storage store) internal pure returns (string memory) {... */\n    tag_161:\n        /* \"@openzeppelin/contracts/utils/ShortStrings.sol\":3479:3492  string memory */\n      0x60\n        /* \"@openzeppelin/contracts/utils/ShortStrings.sol\":1390:1456  0x00000000000000000000000000000000000000000000000000000000000000FF */\n      0xff\n        /* \"@openzeppelin/contracts/utils/ShortStrings.sol\":3537:3554  FALLBACK_SENTINEL */\n      0x00\n      shl\n        /* \"@openzeppelin/contracts/utils/ShortStrings.sol\":3527:3532  value */\n      dup4\n        /* \"@openzeppelin/contracts/utils/ShortStrings.sol\":3508:3554  ShortString.unwrap(value) != FALLBACK_SENTINEL */\n      eq\n        /* \"@openzeppelin/contracts/utils/ShortStrings.sol\":3504:3646  if (ShortString.unwrap(value) != FALLBACK_SENTINEL) {... */\n      tag_170\n      jumpi\n        /* \"@openzeppelin/contracts/utils/ShortStrings.sol\":3577:3592  toString(value) */\n      tag_171\n        /* \"@openzeppelin/contracts/utils/ShortStrings.sol\":3586:3591  value */\n      dup4\n        /* \"@openzeppelin/contracts/utils/ShortStrings.sol\":3577:3585  toString */\n      tag_172\n        /* \"@openzeppelin/contracts/utils/ShortStrings.sol\":3577:3592  toString(value) */\n      jump\t// in\n    tag_171:\n        /* \"@openzeppelin/contracts/utils/ShortStrings.sol\":3570:3592  return toString(value) */\n      swap1\n      pop\n      jump(tag_169)\n        /* \"@openzeppelin/contracts/utils/ShortStrings.sol\":3504:3646  if (ShortString.unwrap(value) != FALLBACK_SENTINEL) {... */\n    tag_170:\n        /* \"@openzeppelin/contracts/utils/ShortStrings.sol\":3630:3635  store */\n      dup2\n        /* \"@openzeppelin/contracts/utils/ShortStrings.sol\":3623:3635  return store */\n      dup1\n      sload\n      tag_174\n      swap1\n      tag_175\n      jump\t// in\n    tag_174:\n      dup1\n      0x1f\n      add\n      0x20\n      dup1\n      swap2\n      div\n      mul\n      0x20\n      add\n      mload(0x40)\n      swap1\n      dup2\n      add\n      0x40\n      mstore\n      dup1\n      swap3\n      swap2\n      swap1\n      dup2\n      dup2\n      mstore\n      0x20\n      add\n      dup3\n      dup1\n      sload\n      tag_176\n      swap1\n      tag_175\n      jump\t// in\n    tag_176:\n      dup1\n      iszero\n      tag_177\n      jumpi\n      dup1\n      0x1f\n      lt\n      tag_178\n      jumpi\n      0x0100\n      dup1\n      dup4\n      sload\n      div\n      mul\n      dup4\n      mstore\n      swap2\n      0x20\n      add\n      swap2\n      jump(tag_177)\n    tag_178:\n      dup3\n      add\n      swap2\n      swap1\n      0x00\n      mstore\n      keccak256(0x00, 0x20)\n      swap1\n    tag_179:\n      dup2\n      sload\n      dup2\n      mstore\n      swap1\n      0x01\n      add\n      swap1\n      0x20\n      add\n      dup1\n      dup4\n      gt\n      tag_179\n      jumpi\n      dup3\n      swap1\n      sub\n      0x1f\n      and\n      dup3\n      add\n      swap2\n    tag_177:\n      pop\n      pop\n      pop\n      pop\n      pop\n      swap1\n      pop\n        /* \"@openzeppelin/contracts/utils/ShortStrings.sol\":3385:3652  function toStringWithFallback(ShortString value, string storage store) internal pure returns (string memory) {... */\n    tag_169:\n      swap3\n      swap2\n      pop\n      pop\n      jump\t// out\n        /* \"@openzeppelin/contracts/utils/ShortStrings.sol\":2078:2483  function toString(ShortString sstr) internal pure returns (string memory) {... */\n    tag_172:\n        /* \"@openzeppelin/contracts/utils/ShortStrings.sol\":2137:2150  string memory */\n      0x60\n        /* \"@openzeppelin/contracts/utils/ShortStrings.sol\":2162:2173  uint256 len */\n      0x00\n        /* \"@openzeppelin/contracts/utils/ShortStrings.sol\":2176:2192  byteLength(sstr) */\n      tag_181\n        /* \"@openzeppelin/contracts/utils/ShortStrings.sol\":2187:2191  sstr */\n      dup4\n        /* \"@openzeppelin/contracts/utils/ShortStrings.sol\":2176:2186  byteLength */\n      tag_182\n        /* \"@openzeppelin/contracts/utils/ShortStrings.sol\":2176:2192  byteLength(sstr) */\n      jump\t// in\n    tag_181:\n        /* \"@openzeppelin/contracts/utils/ShortStrings.sol\":2162:2192  uint256 len = byteLength(sstr) */\n      swap1\n      pop\n        /* \"@openzeppelin/contracts/utils/ShortStrings.sol\":2280:2297  string memory str */\n      0x00\n        /* \"@openzeppelin/contracts/utils/ShortStrings.sol\":2311:2313  32 */\n      0x20\n        /* \"@openzeppelin/contracts/utils/ShortStrings.sol\":2300:2314  new string(32) */\n      0xffffffffffffffff\n      dup2\n      gt\n      iszero\n      tag_183\n      jumpi\n      tag_184\n      tag_112\n      jump\t// in\n    tag_184:\n    tag_183:\n      mload(0x40)\n      swap1\n      dup1\n      dup3\n      mstore\n      dup1\n      0x1f\n      add\n      not(0x1f)\n      and\n      0x20\n      add\n      dup3\n      add\n      0x40\n      mstore\n      dup1\n      iszero\n      tag_185\n      jumpi\n      dup2\n      0x20\n      add\n      0x01\n      dup3\n      mul\n      dup1\n      calldatasize\n      dup4\n      calldatacopy\n      dup1\n      dup3\n      add\n      swap2\n      pop\n      pop\n      swap1\n      pop\n    tag_185:\n      pop\n        /* \"@openzeppelin/contracts/utils/ShortStrings.sol\":2280:2314  string memory str = new string(32) */\n      swap1\n      pop\n        /* \"@openzeppelin/contracts/utils/ShortStrings.sol\":2402:2405  len */\n      dup2\n        /* \"@openzeppelin/contracts/utils/ShortStrings.sol\":2397:2400  str */\n      dup2\n        /* \"@openzeppelin/contracts/utils/ShortStrings.sol\":2390:2406  mstore(str, len) */\n      mstore\n        /* \"@openzeppelin/contracts/utils/ShortStrings.sol\":2442:2446  sstr */\n      dup4\n        /* \"@openzeppelin/contracts/utils/ShortStrings.sol\":2435:2439  0x20 */\n      0x20\n        /* \"@openzeppelin/contracts/utils/ShortStrings.sol\":2430:2433  str */\n      dup3\n        /* \"@openzeppelin/contracts/utils/ShortStrings.sol\":2426:2440  add(str, 0x20) */\n      add\n        /* \"@openzeppelin/contracts/utils/ShortStrings.sol\":2419:2447  mstore(add(str, 0x20), sstr) */\n      mstore\n        /* \"@openzeppelin/contracts/utils/ShortStrings.sol\":2473:2476  str */\n      dup1\n        /* \"@openzeppelin/contracts/utils/ShortStrings.sol\":2466:2476  return str */\n      swap3\n      pop\n      pop\n      pop\n        /* \"@openzeppelin/contracts/utils/ShortStrings.sol\":2078:2483  function toString(ShortString sstr) internal pure returns (string memory) {... */\n      swap2\n      swap1\n      pop\n      jump\t// out\n        /* \"@openzeppelin/contracts/utils/ShortStrings.sol\":2555:2800  function byteLength(ShortString sstr) internal pure returns (uint256) {... */\n    tag_182:\n        /* \"@openzeppelin/contracts/utils/ShortStrings.sol\":2616:2623  uint256 */\n      0x00\n        /* \"@openzeppelin/contracts/utils/ShortStrings.sol\":2635:2649  uint256 result */\n      dup1\n        /* \"@openzeppelin/contracts/utils/ShortStrings.sol\":2688:2692  0xFF */\n      0xff\n        /* \"@openzeppelin/contracts/utils/ShortStrings.sol\":2679:2683  sstr */\n      dup4\n        /* \"@openzeppelin/contracts/utils/ShortStrings.sol\":2652:2685  uint256(ShortString.unwrap(sstr)) */\n      0x00\n      shr\n        /* \"@openzeppelin/contracts/utils/ShortStrings.sol\":2652:2692  uint256(ShortString.unwrap(sstr)) & 0xFF */\n      and\n        /* \"@openzeppelin/contracts/utils/ShortStrings.sol\":2635:2692  uint256 result = uint256(ShortString.unwrap(sstr)) & 0xFF */\n      swap1\n      pop\n        /* \"@openzeppelin/contracts/utils/ShortStrings.sol\":2715:2717  31 */\n      0x1f\n        /* \"@openzeppelin/contracts/utils/ShortStrings.sol\":2706:2712  result */\n      dup2\n        /* \"@openzeppelin/contracts/utils/ShortStrings.sol\":2706:2717  result > 31 */\n      gt\n        /* \"@openzeppelin/contracts/utils/ShortStrings.sol\":2702:2771  if (result > 31) {... */\n      iszero\n      tag_187\n      jumpi\n        /* \"@openzeppelin/contracts/utils/ShortStrings.sol\":2740:2760  InvalidShortString() */\n      mload(0x40)\n      0xb3512b0c00000000000000000000000000000000000000000000000000000000\n      dup2\n      mstore\n      0x04\n      add\n      mload(0x40)\n      dup1\n      swap2\n      sub\n      swap1\n      revert\n        /* \"@openzeppelin/contracts/utils/ShortStrings.sol\":2702:2771  if (result > 31) {... */\n    tag_187:\n        /* \"@openzeppelin/contracts/utils/ShortStrings.sol\":2787:2793  result */\n      dup1\n        /* \"@openzeppelin/contracts/utils/ShortStrings.sol\":2780:2793  return result */\n      swap2\n      pop\n      pop\n        /* \"@openzeppelin/contracts/utils/ShortStrings.sol\":2555:2800  function byteLength(ShortString sstr) internal pure returns (uint256) {... */\n      swap2\n      swap1\n      pop\n      jump\t// out\n        /* \"#utility.yul\":88:205   */\n    tag_189:\n        /* \"#utility.yul\":197:198   */\n      0x00\n        /* \"#utility.yul\":194:195   */\n      dup1\n        /* \"#utility.yul\":187:199   */\n      revert\n        /* \"#utility.yul\":211:328   */\n    tag_190:\n        /* \"#utility.yul\":320:321   */\n      0x00\n        /* \"#utility.yul\":317:318   */\n      dup1\n        /* \"#utility.yul\":310:322   */\n      revert\n        /* \"#utility.yul\":334:483   */\n    tag_191:\n        /* \"#utility.yul\":370:377   */\n      0x00\n        /* \"#utility.yul\":410:476   */\n      0xffffffff00000000000000000000000000000000000000000000000000000000\n        /* \"#utility.yul\":403:408   */\n      dup3\n        /* \"#utility.yul\":399:477   */\n      and\n        /* \"#utility.yul\":388:477   */\n      swap1\n      pop\n        /* \"#utility.yul\":334:483   */\n      swap2\n      swap1\n      pop\n      jump\t// out\n        /* \"#utility.yul\":489:609   */\n    tag_192:\n        /* \"#utility.yul\":561:584   */\n      tag_250\n        /* \"#utility.yul\":578:583   */\n      dup2\n        /* \"#utility.yul\":561:584   */\n      tag_191\n      jump\t// in\n    tag_250:\n        /* \"#utility.yul\":554:559   */\n      dup2\n        /* \"#utility.yul\":551:585   */\n      eq\n        /* \"#utility.yul\":541:603   */\n      tag_251\n      jumpi\n        /* \"#utility.yul\":599:600   */\n      0x00\n        /* \"#utility.yul\":596:597   */\n      dup1\n        /* \"#utility.yul\":589:601   */\n      revert\n        /* \"#utility.yul\":541:603   */\n    tag_251:\n        /* \"#utility.yul\":489:609   */\n      pop\n      jump\t// out\n        /* \"#utility.yul\":615:752   */\n    tag_193:\n        /* \"#utility.yul\":660:665   */\n      0x00\n        /* \"#utility.yul\":698:704   */\n      dup2\n        /* \"#utility.yul\":685:705   */\n      calldataload\n        /* \"#utility.yul\":676:705   */\n      swap1\n      pop\n        /* \"#utility.yul\":714:746   */\n      tag_253\n        /* \"#utility.yul\":740:745   */\n      dup2\n        /* \"#utility.yul\":714:746   */\n      tag_192\n      jump\t// in\n    tag_253:\n        /* \"#utility.yul\":615:752   */\n      swap3\n      swap2\n      pop\n      pop\n      jump\t// out\n        /* \"#utility.yul\":758:1085   */\n    tag_24:\n        /* \"#utility.yul\":816:822   */\n      0x00\n        /* \"#utility.yul\":865:867   */\n      0x20\n        /* \"#utility.yul\":853:862   */\n      dup3\n        /* \"#utility.yul\":844:851   */\n      dup5\n        /* \"#utility.yul\":840:863   */\n      sub\n        /* \"#utility.yul\":836:868   */\n      slt\n        /* \"#utility.yul\":833:952   */\n      iszero\n      tag_255\n      jumpi\n        /* \"#utility.yul\":871:950   */\n      tag_256\n      tag_189\n      jump\t// in\n    tag_256:\n        /* \"#utility.yul\":833:952   */\n    tag_255:\n        /* \"#utility.yul\":991:992   */\n      0x00\n        /* \"#utility.yul\":1016:1068   */\n      tag_257\n        /* \"#utility.yul\":1060:1067   */\n      dup5\n        /* \"#utility.yul\":1051:1057   */\n      dup3\n        /* \"#utility.yul\":1040:1049   */\n      dup6\n        /* \"#utility.yul\":1036:1058   */\n      add\n        /* \"#utility.yul\":1016:1068   */\n      tag_193\n      jump\t// in\n    tag_257:\n        /* \"#utility.yul\":1006:1068   */\n      swap2\n      pop\n        /* \"#utility.yul\":962:1078   */\n      pop\n        /* \"#utility.yul\":758:1085   */\n      swap3\n      swap2\n      pop\n      pop\n      jump\t// out\n        /* \"#utility.yul\":1091:1181   */\n    tag_194:\n        /* \"#utility.yul\":1125:1132   */\n      0x00\n        /* \"#utility.yul\":1168:1173   */\n      dup2\n        /* \"#utility.yul\":1161:1174   */\n      iszero\n        /* \"#utility.yul\":1154:1175   */\n      iszero\n        /* \"#utility.yul\":1143:1175   */\n      swap1\n      pop\n        /* \"#utility.yul\":1091:1181   */\n      swap2\n      swap1\n      pop\n      jump\t// out\n        /* \"#utility.yul\":1187:1296   */\n    tag_195:\n        /* \"#utility.yul\":1268:1289   */\n      tag_260\n        /* \"#utility.yul\":1283:1288   */\n      dup2\n        /* \"#utility.yul\":1268:1289   */\n      tag_194\n      jump\t// in\n    tag_260:\n        /* \"#utility.yul\":1263:1266   */\n      dup3\n        /* \"#utility.yul\":1256:1290   */\n      mstore\n        /* \"#utility.yul\":1187:1296   */\n      pop\n      pop\n      jump\t// out\n        /* \"#utility.yul\":1302:1512   */\n    tag_27:\n        /* \"#utility.yul\":1389:1393   */\n      0x00\n        /* \"#utility.yul\":1427:1429   */\n      0x20\n        /* \"#utility.yul\":1416:1425   */\n      dup3\n        /* \"#utility.yul\":1412:1430   */\n      add\n        /* \"#utility.yul\":1404:1430   */\n      swap1\n      pop\n        /* \"#utility.yul\":1440:1505   */\n      tag_262\n        /* \"#utility.yul\":1502:1503   */\n      0x00\n        /* \"#utility.yul\":1491:1500   */\n      dup4\n        /* \"#utility.yul\":1487:1504   */\n      add\n        /* \"#utility.yul\":1478:1484   */\n      dup5\n        /* \"#utility.yul\":1440:1505   */\n      tag_195\n      jump\t// in\n    tag_262:\n        /* \"#utility.yul\":1302:1512   */\n      swap3\n      swap2\n      pop\n      pop\n      jump\t// out\n        /* \"#utility.yul\":1518:1644   */\n    tag_196:\n        /* \"#utility.yul\":1555:1562   */\n      0x00\n        /* \"#utility.yul\":1595:1637   */\n      0xffffffffffffffffffffffffffffffffffffffff\n        /* \"#utility.yul\":1588:1593   */\n      dup3\n        /* \"#utility.yul\":1584:1638   */\n      and\n        /* \"#utility.yul\":1573:1638   */\n      swap1\n      pop\n        /* \"#utility.yul\":1518:1644   */\n      swap2\n      swap1\n      pop\n      jump\t// out\n        /* \"#utility.yul\":1650:1746   */\n    tag_197:\n        /* \"#utility.yul\":1687:1694   */\n      0x00\n        /* \"#utility.yul\":1716:1740   */\n      tag_265\n        /* \"#utility.yul\":1734:1739   */\n      dup3\n        /* \"#utility.yul\":1716:1740   */\n      tag_196\n      jump\t// in\n    tag_265:\n        /* \"#utility.yul\":1705:1740   */\n      swap1\n      pop\n        /* \"#utility.yul\":1650:1746   */\n      swap2\n      swap1\n      pop\n      jump\t// out\n        /* \"#utility.yul\":1752:1874   */\n    tag_198:\n        /* \"#utility.yul\":1825:1849   */\n      tag_267\n        /* \"#utility.yul\":1843:1848   */\n      dup2\n        /* \"#utility.yul\":1825:1849   */\n      tag_197\n      jump\t// in\n    tag_267:\n        /* \"#utility.yul\":1818:1823   */\n      dup2\n        /* \"#utility.yul\":1815:1850   */\n      eq\n        /* \"#utility.yul\":1805:1868   */\n      tag_268\n      jumpi\n        /* \"#utility.yul\":1864:1865   */\n      0x00\n        /* \"#utility.yul\":1861:1862   */\n      dup1\n        /* \"#utility.yul\":1854:1866   */\n      revert\n        /* \"#utility.yul\":1805:1868   */\n    tag_268:\n        /* \"#utility.yul\":1752:1874   */\n      pop\n      jump\t// out\n        /* \"#utility.yul\":1880:2019   */\n    tag_199:\n        /* \"#utility.yul\":1926:1931   */\n      0x00\n        /* \"#utility.yul\":1964:1970   */\n      dup2\n        /* \"#utility.yul\":1951:1971   */\n      calldataload\n        /* \"#utility.yul\":1942:1971   */\n      swap1\n      pop\n        /* \"#utility.yul\":1980:2013   */\n      tag_270\n        /* \"#utility.yul\":2007:2012   */\n      dup2\n        /* \"#utility.yul\":1980:2013   */\n      tag_198\n      jump\t// in\n    tag_270:\n        /* \"#utility.yul\":1880:2019   */\n      swap3\n      swap2\n      pop\n      pop\n      jump\t// out\n        /* \"#utility.yul\":2025:2354   */\n    tag_30:\n        /* \"#utility.yul\":2084:2090   */\n      0x00\n        /* \"#utility.yul\":2133:2135   */\n      0x20\n        /* \"#utility.yul\":2121:2130   */\n      dup3\n        /* \"#utility.yul\":2112:2119   */\n      dup5\n        /* \"#utility.yul\":2108:2131   */\n      sub\n        /* \"#utility.yul\":2104:2136   */\n      slt\n        /* \"#utility.yul\":2101:2220   */\n      iszero\n      tag_272\n      jumpi\n        /* \"#utility.yul\":2139:2218   */\n      tag_273\n      tag_189\n      jump\t// in\n    tag_273:\n        /* \"#utility.yul\":2101:2220   */\n    tag_272:\n        /* \"#utility.yul\":2259:2260   */\n      0x00\n        /* \"#utility.yul\":2284:2337   */\n      tag_274\n        /* \"#utility.yul\":2329:2336   */\n      dup5\n        /* \"#utility.yul\":2320:2326   */\n      dup3\n        /* \"#utility.yul\":2309:2318   */\n      dup6\n        /* \"#utility.yul\":2305:2327   */\n      add\n        /* \"#utility.yul\":2284:2337   */\n      tag_199\n      jump\t// in\n    tag_274:\n        /* \"#utility.yul\":2274:2337   */\n      swap2\n      pop\n        /* \"#utility.yul\":2230:2347   */\n      pop\n        /* \"#utility.yul\":2025:2354   */\n      swap3\n      swap2\n      pop\n      pop\n      jump\t// out\n        /* \"#utility.yul\":2360:2437   */\n    tag_200:\n        /* \"#utility.yul\":2397:2404   */\n      0x00\n        /* \"#utility.yul\":2426:2431   */\n      dup2\n        /* \"#utility.yul\":2415:2431   */\n      swap1\n      pop\n        /* \"#utility.yul\":2360:2437   */\n      swap2\n      swap1\n      pop\n      jump\t// out\n        /* \"#utility.yul\":2443:2565   */\n    tag_201:\n        /* \"#utility.yul\":2516:2540   */\n      tag_277\n        /* \"#utility.yul\":2534:2539   */\n      dup2\n        /* \"#utility.yul\":2516:2540   */\n      tag_200\n      jump\t// in\n    tag_277:\n        /* \"#utility.yul\":2509:2514   */\n      dup2\n        /* \"#utility.yul\":2506:2541   */\n      eq\n        /* \"#utility.yul\":2496:2559   */\n      tag_278\n      jumpi\n        /* \"#utility.yul\":2555:2556   */\n      0x00\n        /* \"#utility.yul\":2552:2553   */\n      dup1\n        /* \"#utility.yul\":2545:2557   */\n      revert\n        /* \"#utility.yul\":2496:2559   */\n    tag_278:\n        /* \"#utility.yul\":2443:2565   */\n      pop\n      jump\t// out\n        /* \"#utility.yul\":2571:2710   */\n    tag_202:\n        /* \"#utility.yul\":2617:2622   */\n      0x00\n        /* \"#utility.yul\":2655:2661   */\n      dup2\n        /* \"#utility.yul\":2642:2662   */\n      calldataload\n        /* \"#utility.yul\":2633:2662   */\n      swap1\n      pop\n        /* \"#utility.yul\":2671:2704   */\n      tag_280\n        /* \"#utility.yul\":2698:2703   */\n      dup2\n        /* \"#utility.yul\":2671:2704   */\n      tag_201\n      jump\t// in\n    tag_280:\n        /* \"#utility.yul\":2571:2710   */\n      swap3\n      swap2\n      pop\n      pop\n      jump\t// out\n        /* \"#utility.yul\":2716:3045   */\n    tag_34:\n        /* \"#utility.yul\":2775:2781   */\n      0x00\n        /* \"#utility.yul\":2824:2826   */\n      0x20\n        /* \"#utility.yul\":2812:2821   */\n      dup3\n        /* \"#utility.yul\":2803:2810   */\n      dup5\n        /* \"#utility.yul\":2799:2822   */\n      sub\n        /* \"#utility.yul\":2795:2827   */\n      slt\n        /* \"#utility.yul\":2792:2911   */\n      iszero\n      tag_282\n      jumpi\n        /* \"#utility.yul\":2830:2909   */\n      tag_283\n      tag_189\n      jump\t// in\n    tag_283:\n        /* \"#utility.yul\":2792:2911   */\n    tag_282:\n        /* \"#utility.yul\":2950:2951   */\n      0x00\n        /* \"#utility.yul\":2975:3028   */\n      tag_284\n        /* \"#utility.yul\":3020:3027   */\n      dup5\n        /* \"#utility.yul\":3011:3017   */\n      dup3\n        /* \"#utility.yul\":3000:3009   */\n      dup6\n        /* \"#utility.yul\":2996:3018   */\n      add\n        /* \"#utility.yul\":2975:3028   */\n      tag_202\n      jump\t// in\n    tag_284:\n        /* \"#utility.yul\":2965:3028   */\n      swap2\n      pop\n        /* \"#utility.yul\":2921:3038   */\n      pop\n        /* \"#utility.yul\":2716:3045   */\n      swap3\n      swap2\n      pop\n      pop\n      jump\t// out\n        /* \"#utility.yul\":3051:3169   */\n    tag_203:\n        /* \"#utility.yul\":3138:3162   */\n      tag_286\n        /* \"#utility.yul\":3156:3161   */\n      dup2\n        /* \"#utility.yul\":3138:3162   */\n      tag_200\n      jump\t// in\n    tag_286:\n        /* \"#utility.yul\":3133:3136   */\n      dup3\n        /* \"#utility.yul\":3126:3163   */\n      mstore\n        /* \"#utility.yul\":3051:3169   */\n      pop\n      pop\n      jump\t// out\n        /* \"#utility.yul\":3175:3397   */\n    tag_37:\n        /* \"#utility.yul\":3268:3272   */\n      0x00\n        /* \"#utility.yul\":3306:3308   */\n      0x20\n        /* \"#utility.yul\":3295:3304   */\n      dup3\n        /* \"#utility.yul\":3291:3309   */\n      add\n        /* \"#utility.yul\":3283:3309   */\n      swap1\n      pop\n        /* \"#utility.yul\":3319:3390   */\n      tag_288\n        /* \"#utility.yul\":3387:3388   */\n      0x00\n        /* \"#utility.yul\":3376:3385   */\n      dup4\n        /* \"#utility.yul\":3372:3389   */\n      add\n        /* \"#utility.yul\":3363:3369   */\n      dup5\n        /* \"#utility.yul\":3319:3390   */\n      tag_203\n      jump\t// in\n    tag_288:\n        /* \"#utility.yul\":3175:3397   */\n      swap3\n      swap2\n      pop\n      pop\n      jump\t// out\n        /* \"#utility.yul\":3403:3877   */\n    tag_40:\n        /* \"#utility.yul\":3471:3477   */\n      0x00\n        /* \"#utility.yul\":3479:3485   */\n      dup1\n        /* \"#utility.yul\":3528:3530   */\n      0x40\n        /* \"#utility.yul\":3516:3525   */\n      dup4\n        /* \"#utility.yul\":3507:3514   */\n      dup6\n        /* \"#utility.yul\":3503:3526   */\n      sub\n        /* \"#utility.yul\":3499:3531   */\n      slt\n        /* \"#utility.yul\":3496:3615   */\n      iszero\n      tag_290\n      jumpi\n        /* \"#utility.yul\":3534:3613   */\n      tag_291\n      tag_189\n      jump\t// in\n    tag_291:\n        /* \"#utility.yul\":3496:3615   */\n    tag_290:\n        /* \"#utility.yul\":3654:3655   */\n      0x00\n        /* \"#utility.yul\":3679:3732   */\n      tag_292\n        /* \"#utility.yul\":3724:3731   */\n      dup6\n        /* \"#utility.yul\":3715:3721   */\n      dup3\n        /* \"#utility.yul\":3704:3713   */\n      dup7\n        /* \"#utility.yul\":3700:3722   */\n      add\n        /* \"#utility.yul\":3679:3732   */\n      tag_202\n      jump\t// in\n    tag_292:\n        /* \"#utility.yul\":3669:3732   */\n      swap3\n      pop\n        /* \"#utility.yul\":3625:3742   */\n      pop\n        /* \"#utility.yul\":3781:3783   */\n      0x20\n        /* \"#utility.yul\":3807:3860   */\n      tag_293\n        /* \"#utility.yul\":3852:3859   */\n      dup6\n        /* \"#utility.yul\":3843:3849   */\n      dup3\n        /* \"#utility.yul\":3832:3841   */\n      dup7\n        /* \"#utility.yul\":3828:3850   */\n      add\n        /* \"#utility.yul\":3807:3860   */\n      tag_199\n      jump\t// in\n    tag_293:\n        /* \"#utility.yul\":3797:3860   */\n      swap2\n      pop\n        /* \"#utility.yul\":3752:3870   */\n      pop\n        /* \"#utility.yul\":3403:3877   */\n      swap3\n      pop\n      swap3\n      swap1\n      pop\n      jump\t// out\n        /* \"#utility.yul\":3883:3943   */\n    tag_204:\n        /* \"#utility.yul\":3911:3914   */\n      0x00\n        /* \"#utility.yul\":3932:3937   */\n      dup2\n        /* \"#utility.yul\":3925:3937   */\n      swap1\n      pop\n        /* \"#utility.yul\":3883:3943   */\n      swap2\n      swap1\n      pop\n      jump\t// out\n        /* \"#utility.yul\":3949:4091   */\n    tag_205:\n        /* \"#utility.yul\":3999:4008   */\n      0x00\n        /* \"#utility.yul\":4032:4085   */\n      tag_296\n        /* \"#utility.yul\":4050:4084   */\n      tag_297\n        /* \"#utility.yul\":4059:4083   */\n      tag_298\n        /* \"#utility.yul\":4077:4082   */\n      dup5\n        /* \"#utility.yul\":4059:4083   */\n      tag_196\n      jump\t// in\n    tag_298:\n        /* \"#utility.yul\":4050:4084   */\n      tag_204\n      jump\t// in\n    tag_297:\n        /* \"#utility.yul\":4032:4085   */\n      tag_196\n      jump\t// in\n    tag_296:\n        /* \"#utility.yul\":4019:4085   */\n      swap1\n      pop\n        /* \"#utility.yul\":3949:4091   */\n      swap2\n      swap1\n      pop\n      jump\t// out\n        /* \"#utility.yul\":4097:4223   */\n    tag_206:\n        /* \"#utility.yul\":4147:4156   */\n      0x00\n        /* \"#utility.yul\":4180:4217   */\n      tag_300\n        /* \"#utility.yul\":4211:4216   */\n      dup3\n        /* \"#utility.yul\":4180:4217   */\n      tag_205\n      jump\t// in\n    tag_300:\n        /* \"#utility.yul\":4167:4217   */\n      swap1\n      pop\n        /* \"#utility.yul\":4097:4223   */\n      swap2\n      swap1\n      pop\n      jump\t// out\n        /* \"#utility.yul\":4229:4378   */\n    tag_207:\n        /* \"#utility.yul\":4302:4311   */\n      0x00\n        /* \"#utility.yul\":4335:4372   */\n      tag_302\n        /* \"#utility.yul\":4366:4371   */\n      dup3\n        /* \"#utility.yul\":4335:4372   */\n      tag_206\n      jump\t// in\n    tag_302:\n        /* \"#utility.yul\":4322:4372   */\n      swap1\n      pop\n        /* \"#utility.yul\":4229:4378   */\n      swap2\n      swap1\n      pop\n      jump\t// out\n        /* \"#utility.yul\":4384:4561   */\n    tag_208:\n        /* \"#utility.yul\":4494:4554   */\n      tag_304\n        /* \"#utility.yul\":4548:4553   */\n      dup2\n        /* \"#utility.yul\":4494:4554   */\n      tag_207\n      jump\t// in\n    tag_304:\n        /* \"#utility.yul\":4489:4492   */\n      dup3\n        /* \"#utility.yul\":4482:4555   */\n      mstore\n        /* \"#utility.yul\":4384:4561   */\n      pop\n      pop\n      jump\t// out\n        /* \"#utility.yul\":4567:4835   */\n    tag_51:\n        /* \"#utility.yul\":4683:4687   */\n      0x00\n        /* \"#utility.yul\":4721:4723   */\n      0x20\n        /* \"#utility.yul\":4710:4719   */\n      dup3\n        /* \"#utility.yul\":4706:4724   */\n      add\n        /* \"#utility.yul\":4698:4724   */\n      swap1\n      pop\n        /* \"#utility.yul\":4734:4828   */\n      tag_306\n        /* \"#utility.yul\":4825:4826   */\n      0x00\n        /* \"#utility.yul\":4814:4823   */\n      dup4\n        /* \"#utility.yul\":4810:4827   */\n      add\n        /* \"#utility.yul\":4801:4807   */\n      dup5\n        /* \"#utility.yul\":4734:4828   */\n      tag_208\n      jump\t// in\n    tag_306:\n        /* \"#utility.yul\":4567:4835   */\n      swap3\n      swap2\n      pop\n      pop\n      jump\t// out\n        /* \"#utility.yul\":4841:4990   */\n    tag_209:\n        /* \"#utility.yul\":4877:4884   */\n      0x00\n        /* \"#utility.yul\":4917:4983   */\n      0xff00000000000000000000000000000000000000000000000000000000000000\n        /* \"#utility.yul\":4910:4915   */\n      dup3\n        /* \"#utility.yul\":4906:4984   */\n      and\n        /* \"#utility.yul\":4895:4984   */\n      swap1\n      pop\n        /* \"#utility.yul\":4841:4990   */\n      swap2\n      swap1\n      pop\n      jump\t// out\n        /* \"#utility.yul\":4996:5111   */\n    tag_210:\n        /* \"#utility.yul\":5081:5104   */\n      tag_309\n        /* \"#utility.yul\":5098:5103   */\n      dup2\n        /* \"#utility.yul\":5081:5104   */\n      tag_209\n      jump\t// in\n    tag_309:\n        /* \"#utility.yul\":5076:5079   */\n      dup3\n        /* \"#utility.yul\":5069:5105   */\n      mstore\n        /* \"#utility.yul\":4996:5111   */\n      pop\n      pop\n      jump\t// out\n        /* \"#utility.yul\":5117:5216   */\n    tag_211:\n        /* \"#utility.yul\":5169:5175   */\n      0x00\n        /* \"#utility.yul\":5203:5208   */\n      dup2\n        /* \"#utility.yul\":5197:5209   */\n      mload\n        /* \"#utility.yul\":5187:5209   */\n      swap1\n      pop\n        /* \"#utility.yul\":5117:5216   */\n      swap2\n      swap1\n      pop\n      jump\t// out\n        /* \"#utility.yul\":5222:5391   */\n    tag_212:\n        /* \"#utility.yul\":5306:5317   */\n      0x00\n        /* \"#utility.yul\":5340:5346   */\n      dup3\n        /* \"#utility.yul\":5335:5338   */\n      dup3\n        /* \"#utility.yul\":5328:5347   */\n      mstore\n        /* \"#utility.yul\":5380:5384   */\n      0x20\n        /* \"#utility.yul\":5375:5378   */\n      dup3\n        /* \"#utility.yul\":5371:5385   */\n      add\n        /* \"#utility.yul\":5356:5385   */\n      swap1\n      pop\n        /* \"#utility.yul\":5222:5391   */\n      swap3\n      swap2\n      pop\n      pop\n      jump\t// out\n        /* \"#utility.yul\":5397:5536   */\n    tag_213:\n        /* \"#utility.yul\":5486:5492   */\n      dup3\n        /* \"#utility.yul\":5481:5484   */\n      dup2\n        /* \"#utility.yul\":5476:5479   */\n      dup4\n        /* \"#utility.yul\":5470:5493   */\n      mcopy\n        /* \"#utility.yul\":5527:5528   */\n      0x00\n        /* \"#utility.yul\":5518:5524   */\n      dup4\n        /* \"#utility.yul\":5513:5516   */\n      dup4\n        /* \"#utility.yul\":5509:5525   */\n      add\n        /* \"#utility.yul\":5502:5529   */\n      mstore\n        /* \"#utility.yul\":5397:5536   */\n      pop\n      pop\n      pop\n      jump\t// out\n        /* \"#utility.yul\":5542:5644   */\n    tag_214:\n        /* \"#utility.yul\":5583:5589   */\n      0x00\n        /* \"#utility.yul\":5634:5636   */\n      0x1f\n        /* \"#utility.yul\":5630:5637   */\n      not\n        /* \"#utility.yul\":5625:5627   */\n      0x1f\n        /* \"#utility.yul\":5618:5623   */\n      dup4\n        /* \"#utility.yul\":5614:5628   */\n      add\n        /* \"#utility.yul\":5610:5638   */\n      and\n        /* \"#utility.yul\":5600:5638   */\n      swap1\n      pop\n        /* \"#utility.yul\":5542:5644   */\n      swap2\n      swap1\n      pop\n      jump\t// out\n        /* \"#utility.yul\":5650:6027   */\n    tag_215:\n        /* \"#utility.yul\":5738:5741   */\n      0x00\n        /* \"#utility.yul\":5766:5805   */\n      tag_315\n        /* \"#utility.yul\":5799:5804   */\n      dup3\n        /* \"#utility.yul\":5766:5805   */\n      tag_211\n      jump\t// in\n    tag_315:\n        /* \"#utility.yul\":5821:5892   */\n      tag_316\n        /* \"#utility.yul\":5885:5891   */\n      dup2\n        /* \"#utility.yul\":5880:5883   */\n      dup6\n        /* \"#utility.yul\":5821:5892   */\n      tag_212\n      jump\t// in\n    tag_316:\n        /* \"#utility.yul\":5814:5892   */\n      swap4\n      pop\n        /* \"#utility.yul\":5901:5966   */\n      tag_317\n        /* \"#utility.yul\":5959:5965   */\n      dup2\n        /* \"#utility.yul\":5954:5957   */\n      dup6\n        /* \"#utility.yul\":5947:5951   */\n      0x20\n        /* \"#utility.yul\":5940:5945   */\n      dup7\n        /* \"#utility.yul\":5936:5952   */\n      add\n        /* \"#utility.yul\":5901:5966   */\n      tag_213\n      jump\t// in\n    tag_317:\n        /* \"#utility.yul\":5991:6020   */\n      tag_318\n        /* \"#utility.yul\":6013:6019   */\n      dup2\n        /* \"#utility.yul\":5991:6020   */\n      tag_214\n      jump\t// in\n    tag_318:\n        /* \"#utility.yul\":5986:5989   */\n      dup5\n        /* \"#utility.yul\":5982:6021   */\n      add\n        /* \"#utility.yul\":5975:6021   */\n      swap2\n      pop\n        /* \"#utility.yul\":5742:6027   */\n      pop\n        /* \"#utility.yul\":5650:6027   */\n      swap3\n      swap2\n      pop\n      pop\n      jump\t// out\n        /* \"#utility.yul\":6033:6110   */\n    tag_216:\n        /* \"#utility.yul\":6070:6077   */\n      0x00\n        /* \"#utility.yul\":6099:6104   */\n      dup2\n        /* \"#utility.yul\":6088:6104   */\n      swap1\n      pop\n        /* \"#utility.yul\":6033:6110   */\n      swap2\n      swap1\n      pop\n      jump\t// out\n        /* \"#utility.yul\":6116:6234   */\n    tag_217:\n        /* \"#utility.yul\":6203:6227   */\n      tag_321\n        /* \"#utility.yul\":6221:6226   */\n      dup2\n        /* \"#utility.yul\":6203:6227   */\n      tag_216\n      jump\t// in\n    tag_321:\n        /* \"#utility.yul\":6198:6201   */\n      dup3\n        /* \"#utility.yul\":6191:6228   */\n      mstore\n        /* \"#utility.yul\":6116:6234   */\n      pop\n      pop\n      jump\t// out\n        /* \"#utility.yul\":6240:6358   */\n    tag_218:\n        /* \"#utility.yul\":6327:6351   */\n      tag_323\n        /* \"#utility.yul\":6345:6350   */\n      dup2\n        /* \"#utility.yul\":6327:6351   */\n      tag_197\n      jump\t// in\n    tag_323:\n        /* \"#utility.yul\":6322:6325   */\n      dup3\n        /* \"#utility.yul\":6315:6352   */\n      mstore\n        /* \"#utility.yul\":6240:6358   */\n      pop\n      pop\n      jump\t// out\n        /* \"#utility.yul\":6364:6478   */\n    tag_219:\n        /* \"#utility.yul\":6431:6437   */\n      0x00\n        /* \"#utility.yul\":6465:6470   */\n      dup2\n        /* \"#utility.yul\":6459:6471   */\n      mload\n        /* \"#utility.yul\":6449:6471   */\n      swap1\n      pop\n        /* \"#utility.yul\":6364:6478   */\n      swap2\n      swap1\n      pop\n      jump\t// out\n        /* \"#utility.yul\":6484:6668   */\n    tag_220:\n        /* \"#utility.yul\":6583:6594   */\n      0x00\n        /* \"#utility.yul\":6617:6623   */\n      dup3\n        /* \"#utility.yul\":6612:6615   */\n      dup3\n        /* \"#utility.yul\":6605:6624   */\n      mstore\n        /* \"#utility.yul\":6657:6661   */\n      0x20\n        /* \"#utility.yul\":6652:6655   */\n      dup3\n        /* \"#utility.yul\":6648:6662   */\n      add\n        /* \"#utility.yul\":6633:6662   */\n      swap1\n      pop\n        /* \"#utility.yul\":6484:6668   */\n      swap3\n      swap2\n      pop\n      pop\n      jump\t// out\n        /* \"#utility.yul\":6674:6806   */\n    tag_221:\n        /* \"#utility.yul\":6741:6745   */\n      0x00\n        /* \"#utility.yul\":6764:6767   */\n      dup2\n        /* \"#utility.yul\":6756:6767   */\n      swap1\n      pop\n        /* \"#utility.yul\":6794:6798   */\n      0x20\n        /* \"#utility.yul\":6789:6792   */\n      dup3\n        /* \"#utility.yul\":6785:6799   */\n      add\n        /* \"#utility.yul\":6777:6799   */\n      swap1\n      pop\n        /* \"#utility.yul\":6674:6806   */\n      swap2\n      swap1\n      pop\n      jump\t// out\n        /* \"#utility.yul\":6812:6920   */\n    tag_222:\n        /* \"#utility.yul\":6889:6913   */\n      tag_328\n        /* \"#utility.yul\":6907:6912   */\n      dup2\n        /* \"#utility.yul\":6889:6913   */\n      tag_216\n      jump\t// in\n    tag_328:\n        /* \"#utility.yul\":6884:6887   */\n      dup3\n        /* \"#utility.yul\":6877:6914   */\n      mstore\n        /* \"#utility.yul\":6812:6920   */\n      pop\n      pop\n      jump\t// out\n        /* \"#utility.yul\":6926:7105   */\n    tag_223:\n        /* \"#utility.yul\":6995:7005   */\n      0x00\n        /* \"#utility.yul\":7016:7062   */\n      tag_330\n        /* \"#utility.yul\":7058:7061   */\n      dup4\n        /* \"#utility.yul\":7050:7056   */\n      dup4\n        /* \"#utility.yul\":7016:7062   */\n      tag_222\n      jump\t// in\n    tag_330:\n        /* \"#utility.yul\":7094:7098   */\n      0x20\n        /* \"#utility.yul\":7089:7092   */\n      dup4\n        /* \"#utility.yul\":7085:7099   */\n      add\n        /* \"#utility.yul\":7071:7099   */\n      swap1\n      pop\n        /* \"#utility.yul\":6926:7105   */\n      swap3\n      swap2\n      pop\n      pop\n      jump\t// out\n        /* \"#utility.yul\":7111:7224   */\n    tag_224:\n        /* \"#utility.yul\":7181:7185   */\n      0x00\n        /* \"#utility.yul\":7213:7217   */\n      0x20\n        /* \"#utility.yul\":7208:7211   */\n      dup3\n        /* \"#utility.yul\":7204:7218   */\n      add\n        /* \"#utility.yul\":7196:7218   */\n      swap1\n      pop\n        /* \"#utility.yul\":7111:7224   */\n      swap2\n      swap1\n      pop\n      jump\t// out\n        /* \"#utility.yul\":7260:7992   */\n    tag_225:\n        /* \"#utility.yul\":7379:7382   */\n      0x00\n        /* \"#utility.yul\":7408:7462   */\n      tag_333\n        /* \"#utility.yul\":7456:7461   */\n      dup3\n        /* \"#utility.yul\":7408:7462   */\n      tag_219\n      jump\t// in\n    tag_333:\n        /* \"#utility.yul\":7478:7564   */\n      tag_334\n        /* \"#utility.yul\":7557:7563   */\n      dup2\n        /* \"#utility.yul\":7552:7555   */\n      dup6\n        /* \"#utility.yul\":7478:7564   */\n      tag_220\n      jump\t// in\n    tag_334:\n        /* \"#utility.yul\":7471:7564   */\n      swap4\n      pop\n        /* \"#utility.yul\":7588:7644   */\n      tag_335\n        /* \"#utility.yul\":7638:7643   */\n      dup4\n        /* \"#utility.yul\":7588:7644   */\n      tag_221\n      jump\t// in\n    tag_335:\n        /* \"#utility.yul\":7667:7674   */\n      dup1\n        /* \"#utility.yul\":7698:7699   */\n      0x00\n        /* \"#utility.yul\":7683:7967   */\n    tag_336:\n        /* \"#utility.yul\":7708:7714   */\n      dup4\n        /* \"#utility.yul\":7705:7706   */\n      dup2\n        /* \"#utility.yul\":7702:7715   */\n      lt\n        /* \"#utility.yul\":7683:7967   */\n      iszero\n      tag_338\n      jumpi\n        /* \"#utility.yul\":7784:7790   */\n      dup2\n        /* \"#utility.yul\":7778:7791   */\n      mload\n        /* \"#utility.yul\":7811:7874   */\n      tag_339\n        /* \"#utility.yul\":7870:7873   */\n      dup9\n        /* \"#utility.yul\":7855:7868   */\n      dup3\n        /* \"#utility.yul\":7811:7874   */\n      tag_223\n      jump\t// in\n    tag_339:\n        /* \"#utility.yul\":7804:7874   */\n      swap8\n      pop\n        /* \"#utility.yul\":7897:7957   */\n      tag_340\n        /* \"#utility.yul\":7950:7956   */\n      dup4\n        /* \"#utility.yul\":7897:7957   */\n      tag_224\n      jump\t// in\n    tag_340:\n        /* \"#utility.yul\":7887:7957   */\n      swap3\n      pop\n        /* \"#utility.yul\":7743:7967   */\n      pop\n        /* \"#utility.yul\":7730:7731   */\n      0x01\n        /* \"#utility.yul\":7727:7728   */\n      dup2\n        /* \"#utility.yul\":7723:7732   */\n      add\n        /* \"#utility.yul\":7718:7732   */\n      swap1\n      pop\n        /* \"#utility.yul\":7683:7967   */\n      jump(tag_336)\n    tag_338:\n        /* \"#utility.yul\":7687:7701   */\n      pop\n        /* \"#utility.yul\":7983:7986   */\n      dup6\n        /* \"#utility.yul\":7976:7986   */\n      swap4\n      pop\n        /* \"#utility.yul\":7384:7992   */\n      pop\n      pop\n      pop\n        /* \"#utility.yul\":7260:7992   */\n      swap3\n      swap2\n      pop\n      pop\n      jump\t// out\n        /* \"#utility.yul\":7998:9213   */\n    tag_55:\n        /* \"#utility.yul\":8347:8351   */\n      0x00\n        /* \"#utility.yul\":8385:8388   */\n      0xe0\n        /* \"#utility.yul\":8374:8383   */\n      dup3\n        /* \"#utility.yul\":8370:8389   */\n      add\n        /* \"#utility.yul\":8362:8389   */\n      swap1\n      pop\n        /* \"#utility.yul\":8399:8468   */\n      tag_342\n        /* \"#utility.yul\":8465:8466   */\n      0x00\n        /* \"#utility.yul\":8454:8463   */\n      dup4\n        /* \"#utility.yul\":8450:8467   */\n      add\n        /* \"#utility.yul\":8441:8447   */\n      dup11\n        /* \"#utility.yul\":8399:8468   */\n      tag_210\n      jump\t// in\n    tag_342:\n        /* \"#utility.yul\":8515:8524   */\n      dup2\n        /* \"#utility.yul\":8509:8513   */\n      dup2\n        /* \"#utility.yul\":8505:8525   */\n      sub\n        /* \"#utility.yul\":8500:8502   */\n      0x20\n        /* \"#utility.yul\":8489:8498   */\n      dup4\n        /* \"#utility.yul\":8485:8503   */\n      add\n        /* \"#utility.yul\":8478:8526   */\n      mstore\n        /* \"#utility.yul\":8543:8621   */\n      tag_343\n        /* \"#utility.yul\":8616:8620   */\n      dup2\n        /* \"#utility.yul\":8607:8613   */\n      dup10\n        /* \"#utility.yul\":8543:8621   */\n      tag_215\n      jump\t// in\n    tag_343:\n        /* \"#utility.yul\":8535:8621   */\n      swap1\n      pop\n        /* \"#utility.yul\":8668:8677   */\n      dup2\n        /* \"#utility.yul\":8662:8666   */\n      dup2\n        /* \"#utility.yul\":8658:8678   */\n      sub\n        /* \"#utility.yul\":8653:8655   */\n      0x40\n        /* \"#utility.yul\":8642:8651   */\n      dup4\n        /* \"#utility.yul\":8638:8656   */\n      add\n        /* \"#utility.yul\":8631:8679   */\n      mstore\n        /* \"#utility.yul\":8696:8774   */\n      tag_344\n        /* \"#utility.yul\":8769:8773   */\n      dup2\n        /* \"#utility.yul\":8760:8766   */\n      dup9\n        /* \"#utility.yul\":8696:8774   */\n      tag_215\n      jump\t// in\n    tag_344:\n        /* \"#utility.yul\":8688:8774   */\n      swap1\n      pop\n        /* \"#utility.yul\":8784:8856   */\n      tag_345\n        /* \"#utility.yul\":8852:8854   */\n      0x60\n        /* \"#utility.yul\":8841:8850   */\n      dup4\n        /* \"#utility.yul\":8837:8855   */\n      add\n        /* \"#utility.yul\":8828:8834   */\n      dup8\n        /* \"#utility.yul\":8784:8856   */\n      tag_217\n      jump\t// in\n    tag_345:\n        /* \"#utility.yul\":8866:8939   */\n      tag_346\n        /* \"#utility.yul\":8934:8937   */\n      0x80\n        /* \"#utility.yul\":8923:8932   */\n      dup4\n        /* \"#utility.yul\":8919:8938   */\n      add\n        /* \"#utility.yul\":8910:8916   */\n      dup7\n        /* \"#utility.yul\":8866:8939   */\n      tag_218\n      jump\t// in\n    tag_346:\n        /* \"#utility.yul\":8949:9022   */\n      tag_347\n        /* \"#utility.yul\":9017:9020   */\n      0xa0\n        /* \"#utility.yul\":9006:9015   */\n      dup4\n        /* \"#utility.yul\":9002:9021   */\n      add\n        /* \"#utility.yul\":8993:8999   */\n      dup6\n        /* \"#utility.yul\":8949:9022   */\n      tag_203\n      jump\t// in\n    tag_347:\n        /* \"#utility.yul\":9070:9079   */\n      dup2\n        /* \"#utility.yul\":9064:9068   */\n      dup2\n        /* \"#utility.yul\":9060:9080   */\n      sub\n        /* \"#utility.yul\":9054:9057   */\n      0xc0\n        /* \"#utility.yul\":9043:9052   */\n      dup4\n        /* \"#utility.yul\":9039:9058   */\n      add\n        /* \"#utility.yul\":9032:9081   */\n      mstore\n        /* \"#utility.yul\":9098:9206   */\n      tag_348\n        /* \"#utility.yul\":9201:9205   */\n      dup2\n        /* \"#utility.yul\":9192:9198   */\n      dup5\n        /* \"#utility.yul\":9098:9206   */\n      tag_225\n      jump\t// in\n    tag_348:\n        /* \"#utility.yul\":9090:9206   */\n      swap1\n      pop\n        /* \"#utility.yul\":7998:9213   */\n      swap9\n      swap8\n      pop\n      pop\n      pop\n      pop\n      pop\n      pop\n      pop\n      pop\n      jump\t// out\n        /* \"#utility.yul\":9219:9336   */\n    tag_226:\n        /* \"#utility.yul\":9328:9329   */\n      0x00\n        /* \"#utility.yul\":9325:9326   */\n      dup1\n        /* \"#utility.yul\":9318:9330   */\n      revert\n        /* \"#utility.yul\":9342:9459   */\n    tag_227:\n        /* \"#utility.yul\":9451:9452   */\n      0x00\n        /* \"#utility.yul\":9448:9449   */\n      dup1\n        /* \"#utility.yul\":9441:9453   */\n      revert\n        /* \"#utility.yul\":9465:9582   */\n    tag_228:\n        /* \"#utility.yul\":9574:9575   */\n      0x00\n        /* \"#utility.yul\":9571:9572   */\n      dup1\n        /* \"#utility.yul\":9564:9576   */\n      revert\n        /* \"#utility.yul\":9601:10153   */\n    tag_229:\n        /* \"#utility.yul\":9658:9666   */\n      0x00\n        /* \"#utility.yul\":9668:9674   */\n      dup1\n        /* \"#utility.yul\":9718:9721   */\n      dup4\n        /* \"#utility.yul\":9711:9715   */\n      0x1f\n        /* \"#utility.yul\":9703:9709   */\n      dup5\n        /* \"#utility.yul\":9699:9716   */\n      add\n        /* \"#utility.yul\":9695:9722   */\n      slt\n        /* \"#utility.yul\":9685:9807   */\n      tag_353\n      jumpi\n        /* \"#utility.yul\":9726:9805   */\n      tag_354\n      tag_226\n      jump\t// in\n    tag_354:\n        /* \"#utility.yul\":9685:9807   */\n    tag_353:\n        /* \"#utility.yul\":9839:9845   */\n      dup3\n        /* \"#utility.yul\":9826:9846   */\n      calldataload\n        /* \"#utility.yul\":9816:9846   */\n      swap1\n      pop\n        /* \"#utility.yul\":9869:9887   */\n      0xffffffffffffffff\n        /* \"#utility.yul\":9861:9867   */\n      dup2\n        /* \"#utility.yul\":9858:9888   */\n      gt\n        /* \"#utility.yul\":9855:9972   */\n      iszero\n      tag_355\n      jumpi\n        /* \"#utility.yul\":9891:9970   */\n      tag_356\n      tag_227\n      jump\t// in\n    tag_356:\n        /* \"#utility.yul\":9855:9972   */\n    tag_355:\n        /* \"#utility.yul\":10005:10009   */\n      0x20\n        /* \"#utility.yul\":9997:10003   */\n      dup4\n        /* \"#utility.yul\":9993:10010   */\n      add\n        /* \"#utility.yul\":9981:10010   */\n      swap2\n      pop\n        /* \"#utility.yul\":10059:10062   */\n      dup4\n        /* \"#utility.yul\":10051:10055   */\n      0x01\n        /* \"#utility.yul\":10043:10049   */\n      dup3\n        /* \"#utility.yul\":10039:10056   */\n      mul\n        /* \"#utility.yul\":10029:10037   */\n      dup4\n        /* \"#utility.yul\":10025:10057   */\n      add\n        /* \"#utility.yul\":10022:10063   */\n      gt\n        /* \"#utility.yul\":10019:10147   */\n      iszero\n      tag_357\n      jumpi\n        /* \"#utility.yul\":10066:10145   */\n      tag_358\n      tag_228\n      jump\t// in\n    tag_358:\n        /* \"#utility.yul\":10019:10147   */\n    tag_357:\n        /* \"#utility.yul\":9601:10153   */\n      swap3\n      pop\n      swap3\n      swap1\n      pop\n      jump\t// out\n        /* \"#utility.yul\":10176:10744   */\n    tag_230:\n        /* \"#utility.yul\":10249:10257   */\n      0x00\n        /* \"#utility.yul\":10259:10265   */\n      dup1\n        /* \"#utility.yul\":10309:10312   */\n      dup4\n        /* \"#utility.yul\":10302:10306   */\n      0x1f\n        /* \"#utility.yul\":10294:10300   */\n      dup5\n        /* \"#utility.yul\":10290:10307   */\n      add\n        /* \"#utility.yul\":10286:10313   */\n      slt\n        /* \"#utility.yul\":10276:10398   */\n      tag_360\n      jumpi\n        /* \"#utility.yul\":10317:10396   */\n      tag_361\n      tag_226\n      jump\t// in\n    tag_361:\n        /* \"#utility.yul\":10276:10398   */\n    tag_360:\n        /* \"#utility.yul\":10430:10436   */\n      dup3\n        /* \"#utility.yul\":10417:10437   */\n      calldataload\n        /* \"#utility.yul\":10407:10437   */\n      swap1\n      pop\n        /* \"#utility.yul\":10460:10478   */\n      0xffffffffffffffff\n        /* \"#utility.yul\":10452:10458   */\n      dup2\n        /* \"#utility.yul\":10449:10479   */\n      gt\n        /* \"#utility.yul\":10446:10563   */\n      iszero\n      tag_362\n      jumpi\n        /* \"#utility.yul\":10482:10561   */\n      tag_363\n      tag_227\n      jump\t// in\n    tag_363:\n        /* \"#utility.yul\":10446:10563   */\n    tag_362:\n        /* \"#utility.yul\":10596:10600   */\n      0x20\n        /* \"#utility.yul\":10588:10594   */\n      dup4\n        /* \"#utility.yul\":10584:10601   */\n      add\n        /* \"#utility.yul\":10572:10601   */\n      swap2\n      pop\n        /* \"#utility.yul\":10650:10653   */\n      dup4\n        /* \"#utility.yul\":10642:10646   */\n      0x20\n        /* \"#utility.yul\":10634:10640   */\n      dup3\n        /* \"#utility.yul\":10630:10647   */\n      mul\n        /* \"#utility.yul\":10620:10628   */\n      dup4\n        /* \"#utility.yul\":10616:10648   */\n      add\n        /* \"#utility.yul\":10613:10654   */\n      gt\n        /* \"#utility.yul\":10610:10738   */\n      iszero\n      tag_364\n      jumpi\n        /* \"#utility.yul\":10657:10736   */\n      tag_365\n      tag_228\n      jump\t// in\n    tag_365:\n        /* \"#utility.yul\":10610:10738   */\n    tag_364:\n        /* \"#utility.yul\":10176:10744   */\n      swap3\n      pop\n      swap3\n      swap1\n      pop\n      jump\t// out\n        /* \"#utility.yul\":10764:11317   */\n    tag_231:\n        /* \"#utility.yul\":10822:10830   */\n      0x00\n        /* \"#utility.yul\":10832:10838   */\n      dup1\n        /* \"#utility.yul\":10882:10885   */\n      dup4\n        /* \"#utility.yul\":10875:10879   */\n      0x1f\n        /* \"#utility.yul\":10867:10873   */\n      dup5\n        /* \"#utility.yul\":10863:10880   */\n      add\n        /* \"#utility.yul\":10859:10886   */\n      slt\n        /* \"#utility.yul\":10849:10971   */\n      tag_367\n      jumpi\n        /* \"#utility.yul\":10890:10969   */\n      tag_368\n      tag_226\n      jump\t// in\n    tag_368:\n        /* \"#utility.yul\":10849:10971   */\n    tag_367:\n        /* \"#utility.yul\":11003:11009   */\n      dup3\n        /* \"#utility.yul\":10990:11010   */\n      calldataload\n        /* \"#utility.yul\":10980:11010   */\n      swap1\n      pop\n        /* \"#utility.yul\":11033:11051   */\n      0xffffffffffffffff\n        /* \"#utility.yul\":11025:11031   */\n      dup2\n        /* \"#utility.yul\":11022:11052   */\n      gt\n        /* \"#utility.yul\":11019:11136   */\n      iszero\n      tag_369\n      jumpi\n        /* \"#utility.yul\":11055:11134   */\n      tag_370\n      tag_227\n      jump\t// in\n    tag_370:\n        /* \"#utility.yul\":11019:11136   */\n    tag_369:\n        /* \"#utility.yul\":11169:11173   */\n      0x20\n        /* \"#utility.yul\":11161:11167   */\n      dup4\n        /* \"#utility.yul\":11157:11174   */\n      add\n        /* \"#utility.yul\":11145:11174   */\n      swap2\n      pop\n        /* \"#utility.yul\":11223:11226   */\n      dup4\n        /* \"#utility.yul\":11215:11219   */\n      0x01\n        /* \"#utility.yul\":11207:11213   */\n      dup3\n        /* \"#utility.yul\":11203:11220   */\n      mul\n        /* \"#utility.yul\":11193:11201   */\n      dup4\n        /* \"#utility.yul\":11189:11221   */\n      add\n        /* \"#utility.yul\":11186:11227   */\n      gt\n        /* \"#utility.yul\":11183:11311   */\n      iszero\n      tag_371\n      jumpi\n        /* \"#utility.yul\":11230:11309   */\n      tag_372\n      tag_228\n      jump\t// in\n    tag_372:\n        /* \"#utility.yul\":11183:11311   */\n    tag_371:\n        /* \"#utility.yul\":10764:11317   */\n      swap3\n      pop\n      swap3\n      swap1\n      pop\n      jump\t// out\n        /* \"#utility.yul\":11323:12570   */\n    tag_81:\n        /* \"#utility.yul\":11450:11456   */\n      0x00\n        /* \"#utility.yul\":11458:11464   */\n      dup1\n        /* \"#utility.yul\":11466:11472   */\n      0x00\n        /* \"#utility.yul\":11474:11480   */\n      dup1\n        /* \"#utility.yul\":11482:11488   */\n      0x00\n        /* \"#utility.yul\":11490:11496   */\n      dup1\n        /* \"#utility.yul\":11539:11541   */\n      0x60\n        /* \"#utility.yul\":11527:11536   */\n      dup8\n        /* \"#utility.yul\":11518:11525   */\n      dup10\n        /* \"#utility.yul\":11514:11537   */\n      sub\n        /* \"#utility.yul\":11510:11542   */\n      slt\n        /* \"#utility.yul\":11507:11626   */\n      iszero\n      tag_374\n      jumpi\n        /* \"#utility.yul\":11545:11624   */\n      tag_375\n      tag_189\n      jump\t// in\n    tag_375:\n        /* \"#utility.yul\":11507:11626   */\n    tag_374:\n        /* \"#utility.yul\":11693:11694   */\n      0x00\n        /* \"#utility.yul\":11682:11691   */\n      dup8\n        /* \"#utility.yul\":11678:11695   */\n      add\n        /* \"#utility.yul\":11665:11696   */\n      calldataload\n        /* \"#utility.yul\":11723:11741   */\n      0xffffffffffffffff\n        /* \"#utility.yul\":11715:11721   */\n      dup2\n        /* \"#utility.yul\":11712:11742   */\n      gt\n        /* \"#utility.yul\":11709:11826   */\n      iszero\n      tag_376\n      jumpi\n        /* \"#utility.yul\":11745:11824   */\n      tag_377\n      tag_190\n      jump\t// in\n    tag_377:\n        /* \"#utility.yul\":11709:11826   */\n    tag_376:\n        /* \"#utility.yul\":11858:11922   */\n      tag_378\n        /* \"#utility.yul\":11914:11921   */\n      dup10\n        /* \"#utility.yul\":11905:11911   */\n      dup3\n        /* \"#utility.yul\":11894:11903   */\n      dup11\n        /* \"#utility.yul\":11890:11912   */\n      add\n        /* \"#utility.yul\":11858:11922   */\n      tag_229\n      jump\t// in\n    tag_378:\n        /* \"#utility.yul\":11840:11922   */\n      swap7\n      pop\n      swap7\n      pop\n        /* \"#utility.yul\":11636:11932   */\n      pop\n        /* \"#utility.yul\":11999:12001   */\n      0x20\n        /* \"#utility.yul\":11988:11997   */\n      dup8\n        /* \"#utility.yul\":11984:12002   */\n      add\n        /* \"#utility.yul\":11971:12003   */\n      calldataload\n        /* \"#utility.yul\":12030:12048   */\n      0xffffffffffffffff\n        /* \"#utility.yul\":12022:12028   */\n      dup2\n        /* \"#utility.yul\":12019:12049   */\n      gt\n        /* \"#utility.yul\":12016:12133   */\n      iszero\n      tag_379\n      jumpi\n        /* \"#utility.yul\":12052:12131   */\n      tag_380\n      tag_190\n      jump\t// in\n    tag_380:\n        /* \"#utility.yul\":12016:12133   */\n    tag_379:\n        /* \"#utility.yul\":12165:12245   */\n      tag_381\n        /* \"#utility.yul\":12237:12244   */\n      dup10\n        /* \"#utility.yul\":12228:12234   */\n      dup3\n        /* \"#utility.yul\":12217:12226   */\n      dup11\n        /* \"#utility.yul\":12213:12235   */\n      add\n        /* \"#utility.yul\":12165:12245   */\n      tag_230\n      jump\t// in\n    tag_381:\n        /* \"#utility.yul\":12147:12245   */\n      swap5\n      pop\n      swap5\n      pop\n        /* \"#utility.yul\":11942:12255   */\n      pop\n        /* \"#utility.yul\":12322:12324   */\n      0x40\n        /* \"#utility.yul\":12311:12320   */\n      dup8\n        /* \"#utility.yul\":12307:12325   */\n      add\n        /* \"#utility.yul\":12294:12326   */\n      calldataload\n        /* \"#utility.yul\":12353:12371   */\n      0xffffffffffffffff\n        /* \"#utility.yul\":12345:12351   */\n      dup2\n        /* \"#utility.yul\":12342:12372   */\n      gt\n        /* \"#utility.yul\":12339:12456   */\n      iszero\n      tag_382\n      jumpi\n        /* \"#utility.yul\":12375:12454   */\n      tag_383\n      tag_190\n      jump\t// in\n    tag_383:\n        /* \"#utility.yul\":12339:12456   */\n    tag_382:\n        /* \"#utility.yul\":12488:12553   */\n      tag_384\n        /* \"#utility.yul\":12545:12552   */\n      dup10\n        /* \"#utility.yul\":12536:12542   */\n      dup3\n        /* \"#utility.yul\":12525:12534   */\n      dup11\n        /* \"#utility.yul\":12521:12543   */\n      add\n        /* \"#utility.yul\":12488:12553   */\n      tag_231\n      jump\t// in\n    tag_384:\n        /* \"#utility.yul\":12470:12553   */\n      swap3\n      pop\n      swap3\n      pop\n        /* \"#utility.yul\":12265:12563   */\n      pop\n        /* \"#utility.yul\":11323:12570   */\n      swap3\n      swap6\n      pop\n      swap3\n      swap6\n      pop\n      swap3\n      swap6\n      jump\t// out\n        /* \"#utility.yul\":12576:12756   */\n    tag_112:\n        /* \"#utility.yul\":12624:12701   */\n      0x4e487b7100000000000000000000000000000000000000000000000000000000\n        /* \"#utility.yul\":12621:12622   */\n      0x00\n        /* \"#utility.yul\":12614:12702   */\n      mstore\n        /* \"#utility.yul\":12721:12725   */\n      0x41\n        /* \"#utility.yul\":12718:12719   */\n      0x04\n        /* \"#utility.yul\":12711:12726   */\n      mstore\n        /* \"#utility.yul\":12745:12749   */\n      0x24\n        /* \"#utility.yul\":12742:12743   */\n      0x00\n        /* \"#utility.yul\":12735:12750   */\n      revert\n        /* \"#utility.yul\":12762:12930   */\n    tag_232:\n        /* \"#utility.yul\":12845:12856   */\n      0x00\n        /* \"#utility.yul\":12879:12885   */\n      dup3\n        /* \"#utility.yul\":12874:12877   */\n      dup3\n        /* \"#utility.yul\":12867:12886   */\n      mstore\n        /* \"#utility.yul\":12919:12923   */\n      0x20\n        /* \"#utility.yul\":12914:12917   */\n      dup3\n        /* \"#utility.yul\":12910:12924   */\n      add\n        /* \"#utility.yul\":12895:12924   */\n      swap1\n      pop\n        /* \"#utility.yul\":12762:12930   */\n      swap3\n      swap2\n      pop\n      pop\n      jump\t// out\n        /* \"#utility.yul\":12936:13084   */\n    tag_233:\n        /* \"#utility.yul\":13034:13040   */\n      dup3\n        /* \"#utility.yul\":13029:13032   */\n      dup2\n        /* \"#utility.yul\":13024:13027   */\n      dup4\n        /* \"#utility.yul\":13011:13041   */\n      calldatacopy\n        /* \"#utility.yul\":13075:13076   */\n      0x00\n        /* \"#utility.yul\":13066:13072   */\n      dup4\n        /* \"#utility.yul\":13061:13064   */\n      dup4\n        /* \"#utility.yul\":13057:13073   */\n      add\n        /* \"#utility.yul\":13050:13077   */\n      mstore\n        /* \"#utility.yul\":12936:13084   */\n      pop\n      pop\n      pop\n      jump\t// out\n        /* \"#utility.yul\":13112:13426   */\n    tag_234:\n        /* \"#utility.yul\":13208:13211   */\n      0x00\n        /* \"#utility.yul\":13229:13299   */\n      tag_389\n        /* \"#utility.yul\":13292:13298   */\n      dup4\n        /* \"#utility.yul\":13287:13290   */\n      dup6\n        /* \"#utility.yul\":13229:13299   */\n      tag_232\n      jump\t// in\n    tag_389:\n        /* \"#utility.yul\":13222:13299   */\n      swap4\n      pop\n        /* \"#utility.yul\":13309:13365   */\n      tag_390\n        /* \"#utility.yul\":13358:13364   */\n      dup4\n        /* \"#utility.yul\":13353:13356   */\n      dup6\n        /* \"#utility.yul\":13346:13351   */\n      dup5\n        /* \"#utility.yul\":13309:13365   */\n      tag_233\n      jump\t// in\n    tag_390:\n        /* \"#utility.yul\":13390:13419   */\n      tag_391\n        /* \"#utility.yul\":13412:13418   */\n      dup4\n        /* \"#utility.yul\":13390:13419   */\n      tag_214\n      jump\t// in\n    tag_391:\n        /* \"#utility.yul\":13385:13388   */\n      dup5\n        /* \"#utility.yul\":13381:13420   */\n      add\n        /* \"#utility.yul\":13374:13420   */\n      swap1\n      pop\n        /* \"#utility.yul\":13112:13426   */\n      swap4\n      swap3\n      pop\n      pop\n      pop\n      jump\t// out\n        /* \"#utility.yul\":13432:13549   */\n    tag_235:\n        /* \"#utility.yul\":13541:13542   */\n      0x00\n        /* \"#utility.yul\":13538:13539   */\n      dup1\n        /* \"#utility.yul\":13531:13543   */\n      revert\n        /* \"#utility.yul\":13555:13654   */\n    tag_236:\n        /* \"#utility.yul\":13640:13646   */\n      dup3\n        /* \"#utility.yul\":13635:13638   */\n      dup2\n        /* \"#utility.yul\":13630:13633   */\n      dup4\n        /* \"#utility.yul\":13617:13647   */\n      calldatacopy\n        /* \"#utility.yul\":13555:13654   */\n      pop\n      pop\n      pop\n      jump\t// out\n        /* \"#utility.yul\":13690:14227   */\n    tag_237:\n        /* \"#utility.yul\":13818:13821   */\n      0x00\n        /* \"#utility.yul\":13839:13925   */\n      tag_395\n        /* \"#utility.yul\":13918:13924   */\n      dup4\n        /* \"#utility.yul\":13913:13916   */\n      dup6\n        /* \"#utility.yul\":13839:13925   */\n      tag_220\n      jump\t// in\n    tag_395:\n        /* \"#utility.yul\":13832:13925   */\n      swap4\n      pop\n        /* \"#utility.yul\":13949:14015   */\n      0x07ffffffffffffffffffffffffffffffffffffffffffffffffffffffffffffff\n        /* \"#utility.yul\":13941:13947   */\n      dup4\n        /* \"#utility.yul\":13938:14016   */\n      gt\n        /* \"#utility.yul\":13935:14100   */\n      iszero\n      tag_396\n      jumpi\n        /* \"#utility.yul\":14019:14098   */\n      tag_397\n      tag_235\n      jump\t// in\n    tag_397:\n        /* \"#utility.yul\":13935:14100   */\n    tag_396:\n        /* \"#utility.yul\":14131:14135   */\n      0x20\n        /* \"#utility.yul\":14123:14129   */\n      dup4\n        /* \"#utility.yul\":14119:14136   */\n      mul\n        /* \"#utility.yul\":14109:14136   */\n      swap3\n      pop\n        /* \"#utility.yul\":14146:14189   */\n      tag_398\n        /* \"#utility.yul\":14182:14188   */\n      dup4\n        /* \"#utility.yul\":14177:14180   */\n      dup6\n        /* \"#utility.yul\":14170:14175   */\n      dup5\n        /* \"#utility.yul\":14146:14189   */\n      tag_236\n      jump\t// in\n    tag_398:\n        /* \"#utility.yul\":14214:14220   */\n      dup3\n        /* \"#utility.yul\":14209:14212   */\n      dup5\n        /* \"#utility.yul\":14205:14221   */\n      add\n        /* \"#utility.yul\":14198:14221   */\n      swap1\n      pop\n        /* \"#utility.yul\":13690:14227   */\n      swap4\n      swap3\n      pop\n      pop\n      pop\n      jump\t// out\n        /* \"#utility.yul\":14233:14843   */\n    tag_133:\n        /* \"#utility.yul\":14442:14446   */\n      0x00\n        /* \"#utility.yul\":14480:14482   */\n      0x40\n        /* \"#utility.yul\":14469:14478   */\n      dup3\n        /* \"#utility.yul\":14465:14483   */\n      add\n        /* \"#utility.yul\":14457:14483   */\n      swap1\n      pop\n        /* \"#utility.yul\":14529:14538   */\n      dup2\n        /* \"#utility.yul\":14523:14527   */\n      dup2\n        /* \"#utility.yul\":14519:14539   */\n      sub\n        /* \"#utility.yul\":14515:14516   */\n      0x00\n        /* \"#utility.yul\":14504:14513   */\n      dup4\n        /* \"#utility.yul\":14500:14517   */\n      add\n        /* \"#utility.yul\":14493:14540   */\n      mstore\n        /* \"#utility.yul\":14557:14643   */\n      tag_400\n        /* \"#utility.yul\":14638:14642   */\n      dup2\n        /* \"#utility.yul\":14629:14635   */\n      dup7\n        /* \"#utility.yul\":14621:14627   */\n      dup9\n        /* \"#utility.yul\":14557:14643   */\n      tag_234\n      jump\t// in\n    tag_400:\n        /* \"#utility.yul\":14549:14643   */\n      swap1\n      pop\n        /* \"#utility.yul\":14690:14699   */\n      dup2\n        /* \"#utility.yul\":14684:14688   */\n      dup2\n        /* \"#utility.yul\":14680:14700   */\n      sub\n        /* \"#utility.yul\":14675:14677   */\n      0x20\n        /* \"#utility.yul\":14664:14673   */\n      dup4\n        /* \"#utility.yul\":14660:14678   */\n      add\n        /* \"#utility.yul\":14653:14701   */\n      mstore\n        /* \"#utility.yul\":14718:14836   */\n      tag_401\n        /* \"#utility.yul\":14831:14835   */\n      dup2\n        /* \"#utility.yul\":14822:14828   */\n      dup5\n        /* \"#utility.yul\":14814:14820   */\n      dup7\n        /* \"#utility.yul\":14718:14836   */\n      tag_237\n      jump\t// in\n    tag_401:\n        /* \"#utility.yul\":14710:14836   */\n      swap1\n      pop\n        /* \"#utility.yul\":14233:14843   */\n      swap6\n      swap5\n      pop\n      pop\n      pop\n      pop\n      pop\n      jump\t// out\n        /* \"#utility.yul\":14849:14965   */\n    tag_238:\n        /* \"#utility.yul\":14919:14940   */\n      tag_403\n        /* \"#utility.yul\":14934:14939   */\n      dup2\n        /* \"#utility.yul\":14919:14940   */\n      tag_194\n      jump\t// in\n    tag_403:\n        /* \"#utility.yul\":14912:14917   */\n      dup2\n        /* \"#utility.yul\":14909:14941   */\n      eq\n        /* \"#utility.yul\":14899:14959   */\n      tag_404\n      jumpi\n        /* \"#utility.yul\":14955:14956   */\n      0x00\n        /* \"#utility.yul\":14952:14953   */\n      dup1\n        /* \"#utility.yul\":14945:14957   */\n      revert\n        /* \"#utility.yul\":14899:14959   */\n    tag_404:\n        /* \"#utility.yul\":14849:14965   */\n      pop\n      jump\t// out\n        /* \"#utility.yul\":14971:15108   */\n    tag_239:\n        /* \"#utility.yul\":15025:15030   */\n      0x00\n        /* \"#utility.yul\":15056:15062   */\n      dup2\n        /* \"#utility.yul\":15050:15063   */\n      mload\n        /* \"#utility.yul\":15041:15063   */\n      swap1\n      pop\n        /* \"#utility.yul\":15072:15102   */\n      tag_406\n        /* \"#utility.yul\":15096:15101   */\n      dup2\n        /* \"#utility.yul\":15072:15102   */\n      tag_238\n      jump\t// in\n    tag_406:\n        /* \"#utility.yul\":14971:15108   */\n      swap3\n      swap2\n      pop\n      pop\n      jump\t// out\n        /* \"#utility.yul\":15114:15459   */\n    tag_137:\n        /* \"#utility.yul\":15181:15187   */\n      0x00\n        /* \"#utility.yul\":15230:15232   */\n      0x20\n        /* \"#utility.yul\":15218:15227   */\n      dup3\n        /* \"#utility.yul\":15209:15216   */\n      dup5\n        /* \"#utility.yul\":15205:15228   */\n      sub\n        /* \"#utility.yul\":15201:15233   */\n      slt\n        /* \"#utility.yul\":15198:15317   */\n      iszero\n      tag_408\n      jumpi\n        /* \"#utility.yul\":15236:15315   */\n      tag_409\n      tag_189\n      jump\t// in\n    tag_409:\n        /* \"#utility.yul\":15198:15317   */\n    tag_408:\n        /* \"#utility.yul\":15356:15357   */\n      0x00\n        /* \"#utility.yul\":15381:15442   */\n      tag_410\n        /* \"#utility.yul\":15434:15441   */\n      dup5\n        /* \"#utility.yul\":15425:15431   */\n      dup3\n        /* \"#utility.yul\":15414:15423   */\n      dup6\n        /* \"#utility.yul\":15410:15432   */\n      add\n        /* \"#utility.yul\":15381:15442   */\n      tag_239\n      jump\t// in\n    tag_410:\n        /* \"#utility.yul\":15371:15442   */\n      swap2\n      pop\n        /* \"#utility.yul\":15327:15452   */\n      pop\n        /* \"#utility.yul\":15114:15459   */\n      swap3\n      swap2\n      pop\n      pop\n      jump\t// out\n        /* \"#utility.yul\":15465:15645   */\n    tag_240:\n        /* \"#utility.yul\":15605:15637   */\n      0x50726f6f6647656e65726174696f6e3a20496e76616c69642070726f6f660000\n        /* \"#utility.yul\":15601:15602   */\n      0x00\n        /* \"#utility.yul\":15593:15599   */\n      dup3\n        /* \"#utility.yul\":15589:15603   */\n      add\n        /* \"#utility.yul\":15582:15638   */\n      mstore\n        /* \"#utility.yul\":15465:15645   */\n      pop\n      jump\t// out\n        /* \"#utility.yul\":15651:16017   */\n    tag_241:\n        /* \"#utility.yul\":15793:15796   */\n      0x00\n        /* \"#utility.yul\":15814:15881   */\n      tag_413\n        /* \"#utility.yul\":15878:15880   */\n      0x1e\n        /* \"#utility.yul\":15873:15876   */\n      dup4\n        /* \"#utility.yul\":15814:15881   */\n      tag_212\n      jump\t// in\n    tag_413:\n        /* \"#utility.yul\":15807:15881   */\n      swap2\n      pop\n        /* \"#utility.yul\":15890:15983   */\n      tag_414\n        /* \"#utility.yul\":15979:15982   */\n      dup3\n        /* \"#utility.yul\":15890:15983   */\n      tag_240\n      jump\t// in\n    tag_414:\n        /* \"#utility.yul\":16008:16010   */\n      0x20\n        /* \"#utility.yul\":16003:16006   */\n      dup3\n        /* \"#utility.yul\":15999:16011   */\n      add\n        /* \"#utility.yul\":15992:16011   */\n      swap1\n      pop\n        /* \"#utility.yul\":15651:16017   */\n      swap2\n      swap1\n      pop\n      jump\t// out\n        /* \"#utility.yul\":16023:16442   */\n    tag_140:\n        /* \"#utility.yul\":16189:16193   */\n      0x00\n        /* \"#utility.yul\":16227:16229   */\n      0x20\n        /* \"#utility.yul\":16216:16225   */\n      dup3\n        /* \"#utility.yul\":16212:16230   */\n      add\n        /* \"#utility.yul\":16204:16230   */\n      swap1\n      pop\n        /* \"#utility.yul\":16276:16285   */\n      dup2\n        /* \"#utility.yul\":16270:16274   */\n      dup2\n        /* \"#utility.yul\":16266:16286   */\n      sub\n        /* \"#utility.yul\":16262:16263   */\n      0x00\n        /* \"#utility.yul\":16251:16260   */\n      dup4\n        /* \"#utility.yul\":16247:16264   */\n      add\n        /* \"#utility.yul\":16240:16287   */\n      mstore\n        /* \"#utility.yul\":16304:16435   */\n      tag_416\n        /* \"#utility.yul\":16430:16434   */\n      dup2\n        /* \"#utility.yul\":16304:16435   */\n      tag_241\n      jump\t// in\n    tag_416:\n        /* \"#utility.yul\":16296:16435   */\n      swap1\n      pop\n        /* \"#utility.yul\":16023:16442   */\n      swap2\n      swap1\n      pop\n      jump\t// out\n        /* \"#utility.yul\":16472:16789   */\n    tag_242:\n        /* \"#utility.yul\":16570:16573   */\n      0x00\n        /* \"#utility.yul\":16591:16662   */\n      tag_418\n        /* \"#utility.yul\":16655:16661   */\n      dup4\n        /* \"#utility.yul\":16650:16653   */\n      dup6\n        /* \"#utility.yul\":16591:16662   */\n      tag_212\n      jump\t// in\n    tag_418:\n        /* \"#utility.yul\":16584:16662   */\n      swap4\n      pop\n        /* \"#utility.yul\":16672:16728   */\n      tag_419\n        /* \"#utility.yul\":16721:16727   */\n      dup4\n        /* \"#utility.yul\":16716:16719   */\n      dup6\n        /* \"#utility.yul\":16709:16714   */\n      dup5\n        /* \"#utility.yul\":16672:16728   */\n      tag_233\n      jump\t// in\n    tag_419:\n        /* \"#utility.yul\":16753:16782   */\n      tag_420\n        /* \"#utility.yul\":16775:16781   */\n      dup4\n        /* \"#utility.yul\":16753:16782   */\n      tag_214\n      jump\t// in\n    tag_420:\n        /* \"#utility.yul\":16748:16751   */\n      dup5\n        /* \"#utility.yul\":16744:16783   */\n      add\n        /* \"#utility.yul\":16737:16783   */\n      swap1\n      pop\n        /* \"#utility.yul\":16472:16789   */\n      swap4\n      swap3\n      pop\n      pop\n      pop\n      jump\t// out\n        /* \"#utility.yul\":16795:17128   */\n    tag_142:\n        /* \"#utility.yul\":16918:16922   */\n      0x00\n        /* \"#utility.yul\":16956:16958   */\n      0x20\n        /* \"#utility.yul\":16945:16954   */\n      dup3\n        /* \"#utility.yul\":16941:16959   */\n      add\n        /* \"#utility.yul\":16933:16959   */\n      swap1\n      pop\n        /* \"#utility.yul\":17005:17014   */\n      dup2\n        /* \"#utility.yul\":16999:17003   */\n      dup2\n        /* \"#utility.yul\":16995:17015   */\n      sub\n        /* \"#utility.yul\":16991:16992   */\n      0x00\n        /* \"#utility.yul\":16980:16989   */\n      dup4\n        /* \"#utility.yul\":16976:16993   */\n      add\n        /* \"#utility.yul\":16969:17016   */\n      mstore\n        /* \"#utility.yul\":17033:17121   */\n      tag_422\n        /* \"#utility.yul\":17116:17120   */\n      dup2\n        /* \"#utility.yul\":17107:17113   */\n      dup5\n        /* \"#utility.yul\":17099:17105   */\n      dup7\n        /* \"#utility.yul\":17033:17121   */\n      tag_242\n      jump\t// in\n    tag_422:\n        /* \"#utility.yul\":17025:17121   */\n      swap1\n      pop\n        /* \"#utility.yul\":16795:17128   */\n      swap4\n      swap3\n      pop\n      pop\n      pop\n      jump\t// out\n        /* \"#utility.yul\":17134:17466   */\n    tag_168:\n        /* \"#utility.yul\":17255:17259   */\n      0x00\n        /* \"#utility.yul\":17293:17295   */\n      0x40\n        /* \"#utility.yul\":17282:17291   */\n      dup3\n        /* \"#utility.yul\":17278:17296   */\n      add\n        /* \"#utility.yul\":17270:17296   */\n      swap1\n      pop\n        /* \"#utility.yul\":17306:17377   */\n      tag_424\n        /* \"#utility.yul\":17374:17375   */\n      0x00\n        /* \"#utility.yul\":17363:17372   */\n      dup4\n        /* \"#utility.yul\":17359:17376   */\n      add\n        /* \"#utility.yul\":17350:17356   */\n      dup6\n        /* \"#utility.yul\":17306:17377   */\n      tag_218\n      jump\t// in\n    tag_424:\n        /* \"#utility.yul\":17387:17459   */\n      tag_425\n        /* \"#utility.yul\":17455:17457   */\n      0x20\n        /* \"#utility.yul\":17444:17453   */\n      dup4\n        /* \"#utility.yul\":17440:17458   */\n      add\n        /* \"#utility.yul\":17431:17437   */\n      dup5\n        /* \"#utility.yul\":17387:17459   */\n      tag_203\n      jump\t// in\n    tag_425:\n        /* \"#utility.yul\":17134:17466   */\n      swap4\n      swap3\n      pop\n      pop\n      pop\n      jump\t// out\n        /* \"#utility.yul\":17472:17652   */\n    tag_243:\n        /* \"#utility.yul\":17520:17597   */\n      0x4e487b7100000000000000000000000000000000000000000000000000000000\n        /* \"#utility.yul\":17517:17518   */\n      0x00\n        /* \"#utility.yul\":17510:17598   */\n      mstore\n        /* \"#utility.yul\":17617:17621   */\n      0x22\n        /* \"#utility.yul\":17614:17615   */\n      0x04\n        /* \"#utility.yul\":17607:17622   */\n      mstore\n        /* \"#utility.yul\":17641:17645   */\n      0x24\n        /* \"#utility.yul\":17638:17639   */\n      0x00\n        /* \"#utility.yul\":17631:17646   */\n      revert\n        /* \"#utility.yul\":17658:17978   */\n    tag_175:\n        /* \"#utility.yul\":17702:17708   */\n      0x00\n        /* \"#utility.yul\":17739:17740   */\n      0x02\n        /* \"#utility.yul\":17733:17737   */\n      dup3\n        /* \"#utility.yul\":17729:17741   */\n      div\n        /* \"#utility.yul\":17719:17741   */\n      swap1\n      pop\n        /* \"#utility.yul\":17786:17787   */\n      0x01\n        /* \"#utility.yul\":17780:17784   */\n      dup3\n        /* \"#utility.yul\":17776:17788   */\n      and\n        /* \"#utility.yul\":17807:17825   */\n      dup1\n        /* \"#utility.yul\":17797:17878   */\n      tag_428\n      jumpi\n        /* \"#utility.yul\":17863:17867   */\n      0x7f\n        /* \"#utility.yul\":17855:17861   */\n      dup3\n        /* \"#utility.yul\":17851:17868   */\n      and\n        /* \"#utility.yul\":17841:17868   */\n      swap2\n      pop\n        /* \"#utility.yul\":17797:17878   */\n    tag_428:\n        /* \"#utility.yul\":17925:17927   */\n      0x20\n        /* \"#utility.yul\":17917:17923   */\n      dup3\n        /* \"#utility.yul\":17914:17928   */\n      lt\n        /* \"#utility.yul\":17894:17912   */\n      dup2\n        /* \"#utility.yul\":17891:17929   */\n      sub\n        /* \"#utility.yul\":17888:17972   */\n      tag_429\n      jumpi\n        /* \"#utility.yul\":17944:17962   */\n      tag_430\n      tag_243\n      jump\t// in\n    tag_430:\n        /* \"#utility.yul\":17888:17972   */\n    tag_429:\n        /* \"#utility.yul\":17709:17978   */\n      pop\n        /* \"#utility.yul\":17658:17978   */\n      swap2\n      swap1\n      pop\n      jump\t// out\n\n    auxdata: 0xa26469706673582212208677a69be758a4c0671134c42fbe916528414d14bf228cd860b6efd29196a25b64736f6c634300081a0033\n}\n",
				"bytecode": {
					"linkReferences": {},
					"object": "610160604052348015610010575f80fd5b5060405161208638038061208683398181016040528101906100329190610554565b828261004860018361013960201b90919060201c565b610120818152505061006460028261013960201b90919060201c565b6101408181525050818051906020012060e08181525050808051906020012061010081815250504660a081815250506100a161018660201b60201c565b608081815250503073ffffffffffffffffffffffffffffffffffffffff1660c08173ffffffffffffffffffffffffffffffffffffffff168152505050506100f05f801b336101e060201b60201c565b508060035f6101000a81548173ffffffffffffffffffffffffffffffffffffffff021916908373ffffffffffffffffffffffffffffffffffffffff160217905550505050610a3a565b5f60208351101561015a57610153836102d560201b60201c565b9050610180565b8261016a8361033a60201b60201c565b5f01908161017891906107e9565b5060ff5f1b90505b92915050565b5f7f8b73c3c69bb8fe3d512ecc4cf759cc79239f7b179b0ffacaa9a75d522b39400f60e0516101005146306040516020016101c59594939291906108ee565b60405160208183030381529060405280519060200120905090565b5f6101f1838361034360201b60201c565b6102cb5760015f808581526020019081526020015f205f015f8473ffffffffffffffffffffffffffffffffffffffff1673ffffffffffffffffffffffffffffffffffffffff1681526020019081526020015f205f6101000a81548160ff0219169083151502179055506102686103a660201b60201c565b73ffffffffffffffffffffffffffffffffffffffff168273ffffffffffffffffffffffffffffffffffffffff16847f2f8788117e7eff1d82e926ec794901d17c78024a50270940304540a733656f0d60405160405180910390a4600190506102cf565b5f90505b92915050565b5f80829050601f8151111561032157826040517f305a27a90000000000000000000000000000000000000000000000000000000081526004016103189190610987565b60405180910390fd5b80518161032d906109d4565b5f1c175f1b915050919050565b5f819050919050565b5f805f8481526020019081526020015f205f015f8373ffffffffffffffffffffffffffffffffffffffff1673ffffffffffffffffffffffffffffffffffffffff1681526020019081526020015f205f9054906101000a900460ff16905092915050565b5f33905090565b5f604051905090565b5f80fd5b5f80fd5b5f80fd5b5f80fd5b5f601f19601f8301169050919050565b7f4e487b71000000000000000000000000000000000000000000000000000000005f52604160045260245ffd5b61040c826103c6565b810181811067ffffffffffffffff8211171561042b5761042a6103d6565b5b80604052505050565b5f61043d6103ad565b90506104498282610403565b919050565b5f67ffffffffffffffff821115610468576104676103d6565b5b610471826103c6565b9050602081019050919050565b8281835e5f83830152505050565b5f61049e6104998461044e565b610434565b9050828152602081018484840111156104ba576104b96103c2565b5b6104c584828561047e565b509392505050565b5f82601f8301126104e1576104e06103be565b5b81516104f184826020860161048c565b91505092915050565b5f73ffffffffffffffffffffffffffffffffffffffff82169050919050565b5f610523826104fa565b9050919050565b61053381610519565b811461053d575f80fd5b50565b5f8151905061054e8161052a565b92915050565b5f805f6060848603121561056b5761056a6103b6565b5b5f84015167ffffffffffffffff811115610588576105876103ba565b5b610594868287016104cd565b935050602084015167ffffffffffffffff8111156105b5576105b46103ba565b5b6105c1868287016104cd565b92505060406105d286828701610540565b9150509250925092565b5f81519050919050565b7f4e487b71000000000000000000000000000000000000000000000000000000005f52602260045260245ffd5b5f600282049050600182168061062a57607f821691505b60208210810361063d5761063c6105e6565b5b50919050565b5f819050815f5260205f209050919050565b5f6020601f8301049050919050565b5f82821b905092915050565b5f6008830261069f7fffffffffffffffffffffffffffffffffffffffffffffffffffffffffffffffff82610664565b6106a98683610664565b95508019841693508086168417925050509392505050565b5f819050919050565b5f819050919050565b5f6106ed6106e86106e3846106c1565b6106ca565b6106c1565b9050919050565b5f819050919050565b610706836106d3565b61071a610712826106f4565b848454610670565b825550505050565b5f90565b61072e610722565b6107398184846106fd565b505050565b5b8181101561075c576107515f82610726565b60018101905061073f565b5050565b601f8211156107a15761077281610643565b61077b84610655565b8101602085101561078a578190505b61079e61079685610655565b83018261073e565b50505b505050565b5f82821c905092915050565b5f6107c15f19846008026107a6565b1980831691505092915050565b5f6107d983836107b2565b9150826002028217905092915050565b6107f2826105dc565b67ffffffffffffffff81111561080b5761080a6103d6565b5b6108158254610613565b610820828285610760565b5f60209050601f831160018114610851575f841561083f578287015190505b61084985826107ce565b8655506108b0565b601f19841661085f86610643565b5f5b8281101561088657848901518255600182019150602085019450602081019050610861565b868310156108a3578489015161089f601f8916826107b2565b8355505b6001600288020188555050505b505050505050565b5f819050919050565b6108ca816108b8565b82525050565b6108d9816106c1565b82525050565b6108e881610519565b82525050565b5f60a0820190506109015f8301886108c1565b61090e60208301876108c1565b61091b60408301866108c1565b61092860608301856108d0565b61093560808301846108df565b9695505050505050565b5f82825260208201905092915050565b5f610959826105dc565b610963818561093f565b935061097381856020860161047e565b61097c816103c6565b840191505092915050565b5f6020820190508181035f83015261099f818461094f565b905092915050565b5f81519050919050565b5f819050602082019050919050565b5f6109cb82516108b8565b80915050919050565b5f6109de826109a7565b826109e8846109b1565b90506109f3816109c0565b92506020821015610a3357610a2e7fffffffffffffffffffffffffffffffffffffffffffffffffffffffffffffffff83602003600802610664565b831692505b5050919050565b60805160a05160c05160e05161010051610120516101405161160a610a7c5f395f610b0001525f610ac501525f50505f50505f50505f50505f505061160a5ff3fe608060405234801561000f575f80fd5b50600436106100fe575f3560e01c806391d1485411610095578063d547741f11610064578063d547741f146102b0578063df6244db146102cc578063e7705db6146102e8578063f736c36514610306576100fe565b806391d1485414610216578063a217fddf14610246578063a3669aef14610264578063a865e5fe14610280576100fe565b806336568abe116100d157806336568abe1461019a57806375b238fc146101b65780637fa417b3146101d457806384b0196e146101f2576100fe565b806301ffc9a7146101025780630337c06114610132578063248a9ca31461014e5780632f2ff15d1461017e575b5f80fd5b61011c60048036038101906101179190610d4d565b610322565b6040516101299190610d92565b60405180910390f35b61014c60048036038101906101479190610e05565b61039b565b005b61016860048036038101906101639190610e63565b6103d5565b6040516101759190610e9d565b60405180910390f35b61019860048036038101906101939190610eb6565b6103f1565b005b6101b460048036038101906101af9190610eb6565b610413565b005b6101be61048e565b6040516101cb9190610e9d565b60405180910390f35b6101dc6104b2565b6040516101e99190610f4f565b60405180910390f35b6101fa6104d7565b60405161020d97969594939291906110f0565b60405180910390f35b610230600480360381019061022b9190610eb6565b61057c565b60405161023d9190610d92565b60405180910390f35b61024e6105df565b60405161025b9190610e9d565b60405180910390f35b61027e60048036038101906102799190610e05565b6105e5565b005b61029a60048036038101906102959190610e05565b61061f565b6040516102a79190610d92565b60405180910390f35b6102ca60048036038101906102c59190610eb6565b610651565b005b6102e660048036038101906102e19190610e05565b610673565b005b6102f06106e1565b6040516102fd9190610e9d565b60405180910390f35b610320600480360381019061031b919061127d565b610705565b005b5f7f7965db0b000000000000000000000000000000000000000000000000000000007bffffffffffffffffffffffffffffffffffffffffffffffffffffffff1916827bffffffffffffffffffffffffffffffffffffffffffffffffffffffff19161480610394575061039382610866565b5b9050919050565b5f801b6103a7816108cf565b6103d17f0ce23c3e399818cfee81a7ab0880f714e53d7672b08df0fa62f2843416e1ea09836103f1565b5050565b5f805f8381526020019081526020015f20600101549050919050565b6103fa826103d5565b610403816108cf565b61040d83836108e3565b50505050565b61041b6109cc565b73ffffffffffffffffffffffffffffffffffffffff168173ffffffffffffffffffffffffffffffffffffffff161461047f576040517f6697b23200000000000000000000000000000000000000000000000000000000815260040160405180910390fd5b61048982826109d3565b505050565b7fa49807205ce4d355092ef5a8a18f56e8913cf4a201fbe287825b095693c2177581565b60035f9054906101000a900473ffffffffffffffffffffffffffffffffffffffff1681565b5f6060805f805f60606104e8610abc565b6104f0610af7565b46305f801b5f67ffffffffffffffff81111561050f5761050e61132d565b5b60405190808252806020026020018201604052801561053d5781602001602082028036833780820191505090505b507f0f00000000000000000000000000000000000000000000000000000000000000959493929190965096509650965096509650965090919293949596565b5f805f8481526020019081526020015f205f015f8373ffffffffffffffffffffffffffffffffffffffff1673ffffffffffffffffffffffffffffffffffffffff1681526020019081526020015f205f9054906101000a900460ff16905092915050565b5f801b81565b5f801b6105f1816108cf565b61061b7f0ce23c3e399818cfee81a7ab0880f714e53d7672b08df0fa62f2843416e1ea0983610651565b5050565b5f61064a7f0ce23c3e399818cfee81a7ab0880f714e53d7672b08df0fa62f2843416e1ea098361057c565b9050919050565b61065a826103d5565b610663816108cf565b61066d83836109d3565b50505050565b7fa49807205ce4d355092ef5a8a18f56e8913cf4a201fbe287825b095693c2177561069d816108cf565b8160035f6101000a81548173ffffffffffffffffffffffffffffffffffffffff021916908373ffffffffffffffffffffffffffffffffffffffff1602179055505050565b7f0ce23c3e399818cfee81a7ab0880f714e53d7672b08df0fa62f2843416e1ea0981565b7f0ce23c3e399818cfee81a7ab0880f714e53d7672b08df0fa62f2843416e1ea0961072f816108cf565b60035f9054906101000a900473ffffffffffffffffffffffffffffffffffffffff1673ffffffffffffffffffffffffffffffffffffffff16631e8e1e13888888886040518563ffffffff1660e01b815260040161078f949392919061140c565b602060405180830381865afa1580156107aa573d5f803e3d5ffd5b505050506040513d601f19601f820116820180604052508101906107ce919061146f565b61080d576040517f08c379a0000000000000000000000000000000000000000000000000000000008152600401610804906114e4565b60405180910390fd5b3373ffffffffffffffffffffffffffffffffffffffff167f9055e6953596a4bec3ee94fe69263dbbb095ebee41411bc4902a0c4cf0a51a21848460405161085592919061152e565b60405180910390a250505050505050565b5f7f01ffc9a7000000000000000000000000000000000000000000000000000000007bffffffffffffffffffffffffffffffffffffffffffffffffffffffff1916827bffffffffffffffffffffffffffffffffffffffffffffffffffffffff1916149050919050565b6108e0816108db6109cc565b610b32565b50565b5f6108ee838361057c565b6109c25760015f808581526020019081526020015f205f015f8473ffffffffffffffffffffffffffffffffffffffff1673ffffffffffffffffffffffffffffffffffffffff1681526020019081526020015f205f6101000a81548160ff02191690831515021790555061095f6109cc565b73ffffffffffffffffffffffffffffffffffffffff168273ffffffffffffffffffffffffffffffffffffffff16847f2f8788117e7eff1d82e926ec794901d17c78024a50270940304540a733656f0d60405160405180910390a4600190506109c6565b5f90505b92915050565b5f33905090565b5f6109de838361057c565b15610ab2575f805f8581526020019081526020015f205f015f8473ffffffffffffffffffffffffffffffffffffffff1673ffffffffffffffffffffffffffffffffffffffff1681526020019081526020015f205f6101000a81548160ff021916908315150217905550610a4f6109cc565b73ffffffffffffffffffffffffffffffffffffffff168273ffffffffffffffffffffffffffffffffffffffff16847ff6391f5c32d9c69d2a47ea670b442974b53935d1edc7fd64eb21e047a839171b60405160405180910390a460019050610ab6565b5f90505b92915050565b6060610af260017f0000000000000000000000000000000000000000000000000000000000000000610b8390919063ffffffff16565b905090565b6060610b2d60027f0000000000000000000000000000000000000000000000000000000000000000610b8390919063ffffffff16565b905090565b610b3c828261057c565b610b7f5780826040517fe2517d3f000000000000000000000000000000000000000000000000000000008152600401610b76929190611550565b60405180910390fd5b5050565b606060ff5f1b8314610b9f57610b9883610c30565b9050610c2a565b818054610bab906115a4565b80601f0160208091040260200160405190810160405280929190818152602001828054610bd7906115a4565b8015610c225780601f10610bf957610100808354040283529160200191610c22565b820191905f5260205f20905b815481529060010190602001808311610c0557829003601f168201915b505050505090505b92915050565b60605f610c3c83610ca2565b90505f602067ffffffffffffffff811115610c5a57610c5961132d565b5b6040519080825280601f01601f191660200182016040528015610c8c5781602001600182028036833780820191505090505b5090508181528360208201528092505050919050565b5f8060ff835f1c169050601f811115610ce7576040517fb3512b0c00000000000000000000000000000000000000000000000000000000815260040160405180910390fd5b80915050919050565b5f80fd5b5f80fd5b5f7fffffffff0000000000000000000000000000000000000000000000000000000082169050919050565b610d2c81610cf8565b8114610d36575f80fd5b50565b5f81359050610d4781610d23565b92915050565b5f60208284031215610d6257610d61610cf0565b5b5f610d6f84828501610d39565b91505092915050565b5f8115159050919050565b610d8c81610d78565b82525050565b5f602082019050610da55f830184610d83565b92915050565b5f73ffffffffffffffffffffffffffffffffffffffff82169050919050565b5f610dd482610dab565b9050919050565b610de481610dca565b8114610dee575f80fd5b50565b5f81359050610dff81610ddb565b92915050565b5f60208284031215610e1a57610e19610cf0565b5b5f610e2784828501610df1565b91505092915050565b5f819050919050565b610e4281610e30565b8114610e4c575f80fd5b50565b5f81359050610e5d81610e39565b92915050565b5f60208284031215610e7857610e77610cf0565b5b5f610e8584828501610e4f565b91505092915050565b610e9781610e30565b82525050565b5f602082019050610eb05f830184610e8e565b92915050565b5f8060408385031215610ecc57610ecb610cf0565b5b5f610ed985828601610e4f565b9250506020610eea85828601610df1565b9150509250929050565b5f819050919050565b5f610f17610f12610f0d84610dab565b610ef4565b610dab565b9050919050565b5f610f2882610efd565b9050919050565b5f610f3982610f1e565b9050919050565b610f4981610f2f565b82525050565b5f602082019050610f625f830184610f40565b92915050565b5f7fff0000000000000000000000000000000000000000000000000000000000000082169050919050565b610f9c81610f68565b82525050565b5f81519050919050565b5f82825260208201905092915050565b8281835e5f83830152505050565b5f601f19601f8301169050919050565b5f610fe482610fa2565b610fee8185610fac565b9350610ffe818560208601610fbc565b61100781610fca565b840191505092915050565b5f819050919050565b61102481611012565b82525050565b61103381610dca565b82525050565b5f81519050919050565b5f82825260208201905092915050565b5f819050602082019050919050565b61106b81611012565b82525050565b5f61107c8383611062565b60208301905092915050565b5f602082019050919050565b5f61109e82611039565b6110a88185611043565b93506110b383611053565b805f5b838110156110e35781516110ca8882611071565b97506110d583611088565b9250506001810190506110b6565b5085935050505092915050565b5f60e0820190506111035f83018a610f93565b81810360208301526111158189610fda565b905081810360408301526111298188610fda565b9050611138606083018761101b565b611145608083018661102a565b61115260a0830185610e8e565b81810360c08301526111648184611094565b905098975050505050505050565b5f80fd5b5f80fd5b5f80fd5b5f8083601f84011261119357611192611172565b5b8235905067ffffffffffffffff8111156111b0576111af611176565b5b6020830191508360018202830111156111cc576111cb61117a565b5b9250929050565b5f8083601f8401126111e8576111e7611172565b5b8235905067ffffffffffffffff81111561120557611204611176565b5b6020830191508360208202830111156112215761122061117a565b5b9250929050565b5f8083601f84011261123d5761123c611172565b5b8235905067ffffffffffffffff81111561125a57611259611176565b5b6020830191508360018202830111156112765761127561117a565b5b9250929050565b5f805f805f806060878903121561129757611296610cf0565b5b5f87013567ffffffffffffffff8111156112b4576112b3610cf4565b5b6112c089828a0161117e565b9650965050602087013567ffffffffffffffff8111156112e3576112e2610cf4565b5b6112ef89828a016111d3565b9450945050604087013567ffffffffffffffff81111561131257611311610cf4565b5b61131e89828a01611228565b92509250509295509295509295565b7f4e487b71000000000000000000000000000000000000000000000000000000005f52604160045260245ffd5b5f82825260208201905092915050565b828183375f83830152505050565b5f611383838561135a565b935061139083858461136a565b61139983610fca565b840190509392505050565b5f80fd5b82818337505050565b5f6113bc8385611043565b93507f07ffffffffffffffffffffffffffffffffffffffffffffffffffffffffffffff8311156113ef576113ee6113a4565b5b6020830292506114008385846113a8565b82840190509392505050565b5f6040820190508181035f830152611425818688611378565b9050818103602083015261143a8184866113b1565b905095945050505050565b61144e81610d78565b8114611458575f80fd5b50565b5f8151905061146981611445565b92915050565b5f6020828403121561148457611483610cf0565b5b5f6114918482850161145b565b91505092915050565b7f50726f6f6647656e65726174696f6e3a20496e76616c69642070726f6f6600005f82015250565b5f6114ce601e83610fac565b91506114d98261149a565b602082019050919050565b5f6020820190508181035f8301526114fb816114c2565b9050919050565b5f61150d8385610fac565b935061151a83858461136a565b61152383610fca565b840190509392505050565b5f6020820190508181035f830152611547818486611502565b90509392505050565b5f6040820190506115635f83018561102a565b6115706020830184610e8e565b9392505050565b7f4e487b71000000000000000000000000000000000000000000000000000000005f52602260045260245ffd5b5f60028204905060018216806115bb57607f821691505b6020821081036115ce576115cd611577565b5b5091905056fea26469706673582212208677a69be758a4c0671134c42fbe916528414d14bf228cd860b6efd29196a25b64736f6c634300081a0033",
					"opcodes": "PUSH2 0x160 PUSH1 0x40 MSTORE CALLVALUE DUP1 ISZERO PUSH2 0x10 JUMPI PUSH0 DUP1 REVERT JUMPDEST POP PUSH1 0x40 MLOAD PUSH2 0x2086 CODESIZE SUB DUP1 PUSH2 0x2086 DUP4 CODECOPY DUP2 DUP2 ADD PUSH1 0x40 MSTORE DUP2 ADD SWAP1 PUSH2 0x32 SWAP2 SWAP1 PUSH2 0x554 JUMP JUMPDEST DUP3 DUP3 PUSH2 0x48 PUSH1 0x1 DUP4 PUSH2 0x139 PUSH1 0x20 SHL SWAP1 SWAP2 SWAP1 PUSH1 0x20 SHR JUMP JUMPDEST PUSH2 0x120 DUP2 DUP2 MSTORE POP POP PUSH2 0x64 PUSH1 0x2 DUP3 PUSH2 0x139 PUSH1 0x20 SHL SWAP1 SWAP2 SWAP1 PUSH1 0x20 SHR JUMP JUMPDEST PUSH2 0x140 DUP2 DUP2 MSTORE POP POP DUP2 DUP1 MLOAD SWAP1 PUSH1 0x20 ADD KECCAK256 PUSH1 0xE0 DUP2 DUP2 MSTORE POP POP DUP1 DUP1 MLOAD SWAP1 PUSH1 0x20 ADD KECCAK256 PUSH2 0x100 DUP2 DUP2 MSTORE POP POP CHAINID PUSH1 0xA0 DUP2 DUP2 MSTORE POP POP PUSH2 0xA1 PUSH2 0x186 PUSH1 0x20 SHL PUSH1 0x20 SHR JUMP JUMPDEST PUSH1 0x80 DUP2 DUP2 MSTORE POP POP ADDRESS PUSH20 0xFFFFFFFFFFFFFFFFFFFFFFFFFFFFFFFFFFFFFFFF AND PUSH1 0xC0 DUP2 PUSH20 0xFFFFFFFFFFFFFFFFFFFFFFFFFFFFFFFFFFFFFFFF AND DUP2 MSTORE POP POP POP POP PUSH2 0xF0 PUSH0 DUP1 SHL CALLER PUSH2 0x1E0 PUSH1 0x20 SHL PUSH1 0x20 SHR JUMP JUMPDEST POP DUP1 PUSH1 0x3 PUSH0 PUSH2 0x100 EXP DUP2 SLOAD DUP2 PUSH20 0xFFFFFFFFFFFFFFFFFFFFFFFFFFFFFFFFFFFFFFFF MUL NOT AND SWAP1 DUP4 PUSH20 0xFFFFFFFFFFFFFFFFFFFFFFFFFFFFFFFFFFFFFFFF AND MUL OR SWAP1 SSTORE POP POP POP POP PUSH2 0xA3A JUMP JUMPDEST PUSH0 PUSH1 0x20 DUP4 MLOAD LT ISZERO PUSH2 0x15A JUMPI PUSH2 0x153 DUP4 PUSH2 0x2D5 PUSH1 0x20 SHL PUSH1 0x20 SHR JUMP JUMPDEST SWAP1 POP PUSH2 0x180 JUMP JUMPDEST DUP3 PUSH2 0x16A DUP4 PUSH2 0x33A PUSH1 0x20 SHL PUSH1 0x20 SHR JUMP JUMPDEST PUSH0 ADD SWAP1 DUP2 PUSH2 0x178 SWAP2 SWAP1 PUSH2 0x7E9 JUMP JUMPDEST POP PUSH1 0xFF PUSH0 SHL SWAP1 POP JUMPDEST SWAP3 SWAP2 POP POP JUMP JUMPDEST PUSH0 PUSH32 0x8B73C3C69BB8FE3D512ECC4CF759CC79239F7B179B0FFACAA9A75D522B39400F PUSH1 0xE0 MLOAD PUSH2 0x100 MLOAD CHAINID ADDRESS PUSH1 0x40 MLOAD PUSH1 0x20 ADD PUSH2 0x1C5 SWAP6 SWAP5 SWAP4 SWAP3 SWAP2 SWAP1 PUSH2 0x8EE JUMP JUMPDEST PUSH1 0x40 MLOAD PUSH1 0x20 DUP2 DUP4 SUB SUB DUP2 MSTORE SWAP1 PUSH1 0x40 MSTORE DUP1 MLOAD SWAP1 PUSH1 0x20 ADD KECCAK256 SWAP1 POP SWAP1 JUMP JUMPDEST PUSH0 PUSH2 0x1F1 DUP4 DUP4 PUSH2 0x343 PUSH1 0x20 SHL PUSH1 0x20 SHR JUMP JUMPDEST PUSH2 0x2CB JUMPI PUSH1 0x1 PUSH0 DUP1 DUP6 DUP2 MSTORE PUSH1 0x20 ADD SWAP1 DUP2 MSTORE PUSH1 0x20 ADD PUSH0 KECCAK256 PUSH0 ADD PUSH0 DUP5 PUSH20 0xFFFFFFFFFFFFFFFFFFFFFFFFFFFFFFFFFFFFFFFF AND PUSH20 0xFFFFFFFFFFFFFFFFFFFFFFFFFFFFFFFFFFFFFFFF AND DUP2 MSTORE PUSH1 0x20 ADD SWAP1 DUP2 MSTORE PUSH1 0x20 ADD PUSH0 KECCAK256 PUSH0 PUSH2 0x100 EXP DUP2 SLOAD DUP2 PUSH1 0xFF MUL NOT AND SWAP1 DUP4 ISZERO ISZERO MUL OR SWAP1 SSTORE POP PUSH2 0x268 PUSH2 0x3A6 PUSH1 0x20 SHL PUSH1 0x20 SHR JUMP JUMPDEST PUSH20 0xFFFFFFFFFFFFFFFFFFFFFFFFFFFFFFFFFFFFFFFF AND DUP3 PUSH20 0xFFFFFFFFFFFFFFFFFFFFFFFFFFFFFFFFFFFFFFFF AND DUP5 PUSH32 0x2F8788117E7EFF1D82E926EC794901D17C78024A50270940304540A733656F0D PUSH1 0x40 MLOAD PUSH1 0x40 MLOAD DUP1 SWAP2 SUB SWAP1 LOG4 PUSH1 0x1 SWAP1 POP PUSH2 0x2CF JUMP JUMPDEST PUSH0 SWAP1 POP JUMPDEST SWAP3 SWAP2 POP POP JUMP JUMPDEST PUSH0 DUP1 DUP3 SWAP1 POP PUSH1 0x1F DUP2 MLOAD GT ISZERO PUSH2 0x321 JUMPI DUP3 PUSH1 0x40 MLOAD PUSH32 0x305A27A900000000000000000000000000000000000000000000000000000000 DUP2 MSTORE PUSH1 0x4 ADD PUSH2 0x318 SWAP2 SWAP1 PUSH2 0x987 JUMP JUMPDEST PUSH1 0x40 MLOAD DUP1 SWAP2 SUB SWAP1 REVERT JUMPDEST DUP1 MLOAD DUP2 PUSH2 0x32D SWAP1 PUSH2 0x9D4 JUMP JUMPDEST PUSH0 SHR OR PUSH0 SHL SWAP2 POP POP SWAP2 SWAP1 POP JUMP JUMPDEST PUSH0 DUP2 SWAP1 POP SWAP2 SWAP1 POP JUMP JUMPDEST PUSH0 DUP1 PUSH0 DUP5 DUP2 MSTORE PUSH1 0x20 ADD SWAP1 DUP2 MSTORE PUSH1 0x20 ADD PUSH0 KECCAK256 PUSH0 ADD PUSH0 DUP4 PUSH20 0xFFFFFFFFFFFFFFFFFFFFFFFFFFFFFFFFFFFFFFFF AND PUSH20 0xFFFFFFFFFFFFFFFFFFFFFFFFFFFFFFFFFFFFFFFF AND DUP2 MSTORE PUSH1 0x20 ADD SWAP1 DUP2 MSTORE PUSH1 0x20 ADD PUSH0 KECCAK256 PUSH0 SWAP1 SLOAD SWAP1 PUSH2 0x100 EXP SWAP1 DIV PUSH1 0xFF AND SWAP1 POP SWAP3 SWAP2 POP POP JUMP JUMPDEST PUSH0 CALLER SWAP1 POP SWAP1 JUMP JUMPDEST PUSH0 PUSH1 0x40 MLOAD SWAP1 POP SWAP1 JUMP JUMPDEST PUSH0 DUP1 REVERT JUMPDEST PUSH0 DUP1 REVERT JUMPDEST PUSH0 DUP1 REVERT JUMPDEST PUSH0 DUP1 REVERT JUMPDEST PUSH0 PUSH1 0x1F NOT PUSH1 0x1F DUP4 ADD AND SWAP1 POP SWAP2 SWAP1 POP JUMP JUMPDEST PUSH32 0x4E487B7100000000000000000000000000000000000000000000000000000000 PUSH0 MSTORE PUSH1 0x41 PUSH1 0x4 MSTORE PUSH1 0x24 PUSH0 REVERT JUMPDEST PUSH2 0x40C DUP3 PUSH2 0x3C6 JUMP JUMPDEST DUP2 ADD DUP2 DUP2 LT PUSH8 0xFFFFFFFFFFFFFFFF DUP3 GT OR ISZERO PUSH2 0x42B JUMPI PUSH2 0x42A PUSH2 0x3D6 JUMP JUMPDEST JUMPDEST DUP1 PUSH1 0x40 MSTORE POP POP POP JUMP JUMPDEST PUSH0 PUSH2 0x43D PUSH2 0x3AD JUMP JUMPDEST SWAP1 POP PUSH2 0x449 DUP3 DUP3 PUSH2 0x403 JUMP JUMPDEST SWAP2 SWAP1 POP JUMP JUMPDEST PUSH0 PUSH8 0xFFFFFFFFFFFFFFFF DUP3 GT ISZERO PUSH2 0x468 JUMPI PUSH2 0x467 PUSH2 0x3D6 JUMP JUMPDEST JUMPDEST PUSH2 0x471 DUP3 PUSH2 0x3C6 JUMP JUMPDEST SWAP1 POP PUSH1 0x20 DUP2 ADD SWAP1 POP SWAP2 SWAP1 POP JUMP JUMPDEST DUP3 DUP2 DUP4 MCOPY PUSH0 DUP4 DUP4 ADD MSTORE POP POP POP JUMP JUMPDEST PUSH0 PUSH2 0x49E PUSH2 0x499 DUP5 PUSH2 0x44E JUMP JUMPDEST PUSH2 0x434 JUMP JUMPDEST SWAP1 POP DUP3 DUP2 MSTORE PUSH1 0x20 DUP2 ADD DUP5 DUP5 DUP5 ADD GT ISZERO PUSH2 0x4BA JUMPI PUSH2 0x4B9 PUSH2 0x3C2 JUMP JUMPDEST JUMPDEST PUSH2 0x4C5 DUP5 DUP3 DUP6 PUSH2 0x47E JUMP JUMPDEST POP SWAP4 SWAP3 POP POP POP JUMP JUMPDEST PUSH0 DUP3 PUSH1 0x1F DUP4 ADD SLT PUSH2 0x4E1 JUMPI PUSH2 0x4E0 PUSH2 0x3BE JUMP JUMPDEST JUMPDEST DUP2 MLOAD PUSH2 0x4F1 DUP5 DUP3 PUSH1 0x20 DUP7 ADD PUSH2 0x48C JUMP JUMPDEST SWAP2 POP POP SWAP3 SWAP2 POP POP JUMP JUMPDEST PUSH0 PUSH20 0xFFFFFFFFFFFFFFFFFFFFFFFFFFFFFFFFFFFFFFFF DUP3 AND SWAP1 POP SWAP2 SWAP1 POP JUMP JUMPDEST PUSH0 PUSH2 0x523 DUP3 PUSH2 0x4FA JUMP JUMPDEST SWAP1 POP SWAP2 SWAP1 POP JUMP JUMPDEST PUSH2 0x533 DUP2 PUSH2 0x519 JUMP JUMPDEST DUP2 EQ PUSH2 0x53D JUMPI PUSH0 DUP1 REVERT JUMPDEST POP JUMP JUMPDEST PUSH0 DUP2 MLOAD SWAP1 POP PUSH2 0x54E DUP2 PUSH2 0x52A JUMP JUMPDEST SWAP3 SWAP2 POP POP JUMP JUMPDEST PUSH0 DUP1 PUSH0 PUSH1 0x60 DUP5 DUP7 SUB SLT ISZERO PUSH2 0x56B JUMPI PUSH2 0x56A PUSH2 0x3B6 JUMP JUMPDEST JUMPDEST PUSH0 DUP5 ADD MLOAD PUSH8 0xFFFFFFFFFFFFFFFF DUP2 GT ISZERO PUSH2 0x588 JUMPI PUSH2 0x587 PUSH2 0x3BA JUMP JUMPDEST JUMPDEST PUSH2 0x594 DUP7 DUP3 DUP8 ADD PUSH2 0x4CD JUMP JUMPDEST SWAP4 POP POP PUSH1 0x20 DUP5 ADD MLOAD PUSH8 0xFFFFFFFFFFFFFFFF DUP2 GT ISZERO PUSH2 0x5B5 JUMPI PUSH2 0x5B4 PUSH2 0x3BA JUMP JUMPDEST JUMPDEST PUSH2 0x5C1 DUP7 DUP3 DUP8 ADD PUSH2 0x4CD JUMP JUMPDEST SWAP3 POP POP PUSH1 0x40 PUSH2 0x5D2 DUP7 DUP3 DUP8 ADD PUSH2 0x540 JUMP JUMPDEST SWAP2 POP POP SWAP3 POP SWAP3 POP SWAP3 JUMP JUMPDEST PUSH0 DUP2 MLOAD SWAP1 POP SWAP2 SWAP1 POP JUMP JUMPDEST PUSH32 0x4E487B7100000000000000000000000000000000000000000000000000000000 PUSH0 MSTORE PUSH1 0x22 PUSH1 0x4 MSTORE PUSH1 0x24 PUSH0 REVERT JUMPDEST PUSH0 PUSH1 0x2 DUP3 DIV SWAP1 POP PUSH1 0x1 DUP3 AND DUP1 PUSH2 0x62A JUMPI PUSH1 0x7F DUP3 AND SWAP2 POP JUMPDEST PUSH1 0x20 DUP3 LT DUP2 SUB PUSH2 0x63D JUMPI PUSH2 0x63C PUSH2 0x5E6 JUMP JUMPDEST JUMPDEST POP SWAP2 SWAP1 POP JUMP JUMPDEST PUSH0 DUP2 SWAP1 POP DUP2 PUSH0 MSTORE PUSH1 0x20 PUSH0 KECCAK256 SWAP1 POP SWAP2 SWAP1 POP JUMP JUMPDEST PUSH0 PUSH1 0x20 PUSH1 0x1F DUP4 ADD DIV SWAP1 POP SWAP2 SWAP1 POP JUMP JUMPDEST PUSH0 DUP3 DUP3 SHL SWAP1 POP SWAP3 SWAP2 POP POP JUMP JUMPDEST PUSH0 PUSH1 0x8 DUP4 MUL PUSH2 0x69F PUSH32 0xFFFFFFFFFFFFFFFFFFFFFFFFFFFFFFFFFFFFFFFFFFFFFFFFFFFFFFFFFFFFFFFF DUP3 PUSH2 0x664 JUMP JUMPDEST PUSH2 0x6A9 DUP7 DUP4 PUSH2 0x664 JUMP JUMPDEST SWAP6 POP DUP1 NOT DUP5 AND SWAP4 POP DUP1 DUP7 AND DUP5 OR SWAP3 POP POP POP SWAP4 SWAP3 POP POP POP JUMP JUMPDEST PUSH0 DUP2 SWAP1 POP SWAP2 SWAP1 POP JUMP JUMPDEST PUSH0 DUP2 SWAP1 POP SWAP2 SWAP1 POP JUMP JUMPDEST PUSH0 PUSH2 0x6ED PUSH2 0x6E8 PUSH2 0x6E3 DUP5 PUSH2 0x6C1 JUMP JUMPDEST PUSH2 0x6CA JUMP JUMPDEST PUSH2 0x6C1 JUMP JUMPDEST SWAP1 POP SWAP2 SWAP1 POP JUMP JUMPDEST PUSH0 DUP2 SWAP1 POP SWAP2 SWAP1 POP JUMP JUMPDEST PUSH2 0x706 DUP4 PUSH2 0x6D3 JUMP JUMPDEST PUSH2 0x71A PUSH2 0x712 DUP3 PUSH2 0x6F4 JUMP JUMPDEST DUP5 DUP5 SLOAD PUSH2 0x670 JUMP JUMPDEST DUP3 SSTORE POP POP POP POP JUMP JUMPDEST PUSH0 SWAP1 JUMP JUMPDEST PUSH2 0x72E PUSH2 0x722 JUMP JUMPDEST PUSH2 0x739 DUP2 DUP5 DUP5 PUSH2 0x6FD JUMP JUMPDEST POP POP POP JUMP JUMPDEST JUMPDEST DUP2 DUP2 LT ISZERO PUSH2 0x75C JUMPI PUSH2 0x751 PUSH0 DUP3 PUSH2 0x726 JUMP JUMPDEST PUSH1 0x1 DUP2 ADD SWAP1 POP PUSH2 0x73F JUMP JUMPDEST POP POP JUMP JUMPDEST PUSH1 0x1F DUP3 GT ISZERO PUSH2 0x7A1 JUMPI PUSH2 0x772 DUP2 PUSH2 0x643 JUMP JUMPDEST PUSH2 0x77B DUP5 PUSH2 0x655 JUMP JUMPDEST DUP2 ADD PUSH1 0x20 DUP6 LT ISZERO PUSH2 0x78A JUMPI DUP2 SWAP1 POP JUMPDEST PUSH2 0x79E PUSH2 0x796 DUP6 PUSH2 0x655 JUMP JUMPDEST DUP4 ADD DUP3 PUSH2 0x73E JUMP JUMPDEST POP POP JUMPDEST POP POP POP JUMP JUMPDEST PUSH0 DUP3 DUP3 SHR SWAP1 POP SWAP3 SWAP2 POP POP JUMP JUMPDEST PUSH0 PUSH2 0x7C1 PUSH0 NOT DUP5 PUSH1 0x8 MUL PUSH2 0x7A6 JUMP JUMPDEST NOT DUP1 DUP4 AND SWAP2 POP POP SWAP3 SWAP2 POP POP JUMP JUMPDEST PUSH0 PUSH2 0x7D9 DUP4 DUP4 PUSH2 0x7B2 JUMP JUMPDEST SWAP2 POP DUP3 PUSH1 0x2 MUL DUP3 OR SWAP1 POP SWAP3 SWAP2 POP POP JUMP JUMPDEST PUSH2 0x7F2 DUP3 PUSH2 0x5DC JUMP JUMPDEST PUSH8 0xFFFFFFFFFFFFFFFF DUP2 GT ISZERO PUSH2 0x80B JUMPI PUSH2 0x80A PUSH2 0x3D6 JUMP JUMPDEST JUMPDEST PUSH2 0x815 DUP3 SLOAD PUSH2 0x613 JUMP JUMPDEST PUSH2 0x820 DUP3 DUP3 DUP6 PUSH2 0x760 JUMP JUMPDEST PUSH0 PUSH1 0x20 SWAP1 POP PUSH1 0x1F DUP4 GT PUSH1 0x1 DUP2 EQ PUSH2 0x851 JUMPI PUSH0 DUP5 ISZERO PUSH2 0x83F JUMPI DUP3 DUP8 ADD MLOAD SWAP1 POP JUMPDEST PUSH2 0x849 DUP6 DUP3 PUSH2 0x7CE JUMP JUMPDEST DUP7 SSTORE POP PUSH2 0x8B0 JUMP JUMPDEST PUSH1 0x1F NOT DUP5 AND PUSH2 0x85F DUP7 PUSH2 0x643 JUMP JUMPDEST PUSH0 JUMPDEST DUP3 DUP2 LT ISZERO PUSH2 0x886 JUMPI DUP5 DUP10 ADD MLOAD DUP3 SSTORE PUSH1 0x1 DUP3 ADD SWAP2 POP PUSH1 0x20 DUP6 ADD SWAP5 POP PUSH1 0x20 DUP2 ADD SWAP1 POP PUSH2 0x861 JUMP JUMPDEST DUP7 DUP4 LT ISZERO PUSH2 0x8A3 JUMPI DUP5 DUP10 ADD MLOAD PUSH2 0x89F PUSH1 0x1F DUP10 AND DUP3 PUSH2 0x7B2 JUMP JUMPDEST DUP4 SSTORE POP JUMPDEST PUSH1 0x1 PUSH1 0x2 DUP9 MUL ADD DUP9 SSTORE POP POP POP JUMPDEST POP POP POP POP POP POP JUMP JUMPDEST PUSH0 DUP2 SWAP1 POP SWAP2 SWAP1 POP JUMP JUMPDEST PUSH2 0x8CA DUP2 PUSH2 0x8B8 JUMP JUMPDEST DUP3 MSTORE POP POP JUMP JUMPDEST PUSH2 0x8D9 DUP2 PUSH2 0x6C1 JUMP JUMPDEST DUP3 MSTORE POP POP JUMP JUMPDEST PUSH2 0x8E8 DUP2 PUSH2 0x519 JUMP JUMPDEST DUP3 MSTORE POP POP JUMP JUMPDEST PUSH0 PUSH1 0xA0 DUP3 ADD SWAP1 POP PUSH2 0x901 PUSH0 DUP4 ADD DUP9 PUSH2 0x8C1 JUMP JUMPDEST PUSH2 0x90E PUSH1 0x20 DUP4 ADD DUP8 PUSH2 0x8C1 JUMP JUMPDEST PUSH2 0x91B PUSH1 0x40 DUP4 ADD DUP7 PUSH2 0x8C1 JUMP JUMPDEST PUSH2 0x928 PUSH1 0x60 DUP4 ADD DUP6 PUSH2 0x8D0 JUMP JUMPDEST PUSH2 0x935 PUSH1 0x80 DUP4 ADD DUP5 PUSH2 0x8DF JUMP JUMPDEST SWAP7 SWAP6 POP POP POP POP POP POP JUMP JUMPDEST PUSH0 DUP3 DUP3 MSTORE PUSH1 0x20 DUP3 ADD SWAP1 POP SWAP3 SWAP2 POP POP JUMP JUMPDEST PUSH0 PUSH2 0x959 DUP3 PUSH2 0x5DC JUMP JUMPDEST PUSH2 0x963 DUP2 DUP6 PUSH2 0x93F JUMP JUMPDEST SWAP4 POP PUSH2 0x973 DUP2 DUP6 PUSH1 0x20 DUP7 ADD PUSH2 0x47E JUMP JUMPDEST PUSH2 0x97C DUP2 PUSH2 0x3C6 JUMP JUMPDEST DUP5 ADD SWAP2 POP POP SWAP3 SWAP2 POP POP JUMP JUMPDEST PUSH0 PUSH1 0x20 DUP3 ADD SWAP1 POP DUP2 DUP2 SUB PUSH0 DUP4 ADD MSTORE PUSH2 0x99F DUP2 DUP5 PUSH2 0x94F JUMP JUMPDEST SWAP1 POP SWAP3 SWAP2 POP POP JUMP JUMPDEST PUSH0 DUP2 MLOAD SWAP1 POP SWAP2 SWAP1 POP JUMP JUMPDEST PUSH0 DUP2 SWAP1 POP PUSH1 0x20 DUP3 ADD SWAP1 POP SWAP2 SWAP1 POP JUMP JUMPDEST PUSH0 PUSH2 0x9CB DUP3 MLOAD PUSH2 0x8B8 JUMP JUMPDEST DUP1 SWAP2 POP POP SWAP2 SWAP1 POP JUMP JUMPDEST PUSH0 PUSH2 0x9DE DUP3 PUSH2 0x9A7 JUMP JUMPDEST DUP3 PUSH2 0x9E8 DUP5 PUSH2 0x9B1 JUMP JUMPDEST SWAP1 POP PUSH2 0x9F3 DUP2 PUSH2 0x9C0 JUMP JUMPDEST SWAP3 POP PUSH1 0x20 DUP3 LT ISZERO PUSH2 0xA33 JUMPI PUSH2 0xA2E PUSH32 0xFFFFFFFFFFFFFFFFFFFFFFFFFFFFFFFFFFFFFFFFFFFFFFFFFFFFFFFFFFFFFFFF DUP4 PUSH1 0x20 SUB PUSH1 0x8 MUL PUSH2 0x664 JUMP JUMPDEST DUP4 AND SWAP3 POP JUMPDEST POP POP SWAP2 SWAP1 POP JUMP JUMPDEST PUSH1 0x80 MLOAD PUSH1 0xA0 MLOAD PUSH1 0xC0 MLOAD PUSH1 0xE0 MLOAD PUSH2 0x100 MLOAD PUSH2 0x120 MLOAD PUSH2 0x140 MLOAD PUSH2 0x160A PUSH2 0xA7C PUSH0 CODECOPY PUSH0 PUSH2 0xB00 ADD MSTORE PUSH0 PUSH2 0xAC5 ADD MSTORE PUSH0 POP POP PUSH0 POP POP PUSH0 POP POP PUSH0 POP POP PUSH0 POP POP PUSH2 0x160A PUSH0 RETURN INVALID PUSH1 0x80 PUSH1 0x40 MSTORE CALLVALUE DUP1 ISZERO PUSH2 0xF JUMPI PUSH0 DUP1 REVERT JUMPDEST POP PUSH1 0x4 CALLDATASIZE LT PUSH2 0xFE JUMPI PUSH0 CALLDATALOAD PUSH1 0xE0 SHR DUP1 PUSH4 0x91D14854 GT PUSH2 0x95 JUMPI DUP1 PUSH4 0xD547741F GT PUSH2 0x64 JUMPI DUP1 PUSH4 0xD547741F EQ PUSH2 0x2B0 JUMPI DUP1 PUSH4 0xDF6244DB EQ PUSH2 0x2CC JUMPI DUP1 PUSH4 0xE7705DB6 EQ PUSH2 0x2E8 JUMPI DUP1 PUSH4 0xF736C365 EQ PUSH2 0x306 JUMPI PUSH2 0xFE JUMP JUMPDEST DUP1 PUSH4 0x91D14854 EQ PUSH2 0x216 JUMPI DUP1 PUSH4 0xA217FDDF EQ PUSH2 0x246 JUMPI DUP1 PUSH4 0xA3669AEF EQ PUSH2 0x264 JUMPI DUP1 PUSH4 0xA865E5FE EQ PUSH2 0x280 JUMPI PUSH2 0xFE JUMP JUMPDEST DUP1 PUSH4 0x36568ABE GT PUSH2 0xD1 JUMPI DUP1 PUSH4 0x36568ABE EQ PUSH2 0x19A JUMPI DUP1 PUSH4 0x75B238FC EQ PUSH2 0x1B6 JUMPI DUP1 PUSH4 0x7FA417B3 EQ PUSH2 0x1D4 JUMPI DUP1 PUSH4 0x84B0196E EQ PUSH2 0x1F2 JUMPI PUSH2 0xFE JUMP JUMPDEST DUP1 PUSH4 0x1FFC9A7 EQ PUSH2 0x102 JUMPI DUP1 PUSH4 0x337C061 EQ PUSH2 0x132 JUMPI DUP1 PUSH4 0x248A9CA3 EQ PUSH2 0x14E JUMPI DUP1 PUSH4 0x2F2FF15D EQ PUSH2 0x17E JUMPI JUMPDEST PUSH0 DUP1 REVERT JUMPDEST PUSH2 0x11C PUSH1 0x4 DUP1 CALLDATASIZE SUB DUP2 ADD SWAP1 PUSH2 0x117 SWAP2 SWAP1 PUSH2 0xD4D JUMP JUMPDEST PUSH2 0x322 JUMP JUMPDEST PUSH1 0x40 MLOAD PUSH2 0x129 SWAP2 SWAP1 PUSH2 0xD92 JUMP JUMPDEST PUSH1 0x40 MLOAD DUP1 SWAP2 SUB SWAP1 RETURN JUMPDEST PUSH2 0x14C PUSH1 0x4 DUP1 CALLDATASIZE SUB DUP2 ADD SWAP1 PUSH2 0x147 SWAP2 SWAP1 PUSH2 0xE05 JUMP JUMPDEST PUSH2 0x39B JUMP JUMPDEST STOP JUMPDEST PUSH2 0x168 PUSH1 0x4 DUP1 CALLDATASIZE SUB DUP2 ADD SWAP1 PUSH2 0x163 SWAP2 SWAP1 PUSH2 0xE63 JUMP JUMPDEST PUSH2 0x3D5 JUMP JUMPDEST PUSH1 0x40 MLOAD PUSH2 0x175 SWAP2 SWAP1 PUSH2 0xE9D JUMP JUMPDEST PUSH1 0x40 MLOAD DUP1 SWAP2 SUB SWAP1 RETURN JUMPDEST PUSH2 0x198 PUSH1 0x4 DUP1 CALLDATASIZE SUB DUP2 ADD SWAP1 PUSH2 0x193 SWAP2 SWAP1 PUSH2 0xEB6 JUMP JUMPDEST PUSH2 0x3F1 JUMP JUMPDEST STOP JUMPDEST PUSH2 0x1B4 PUSH1 0x4 DUP1 CALLDATASIZE SUB DUP2 ADD SWAP1 PUSH2 0x1AF SWAP2 SWAP1 PUSH2 0xEB6 JUMP JUMPDEST PUSH2 0x413 JUMP JUMPDEST STOP JUMPDEST PUSH2 0x1BE PUSH2 0x48E JUMP JUMPDEST PUSH1 0x40 MLOAD PUSH2 0x1CB SWAP2 SWAP1 PUSH2 0xE9D JUMP JUMPDEST PUSH1 0x40 MLOAD DUP1 SWAP2 SUB SWAP1 RETURN JUMPDEST PUSH2 0x1DC PUSH2 0x4B2 JUMP JUMPDEST PUSH1 0x40 MLOAD PUSH2 0x1E9 SWAP2 SWAP1 PUSH2 0xF4F JUMP JUMPDEST PUSH1 0x40 MLOAD DUP1 SWAP2 SUB SWAP1 RETURN JUMPDEST PUSH2 0x1FA PUSH2 0x4D7 JUMP JUMPDEST PUSH1 0x40 MLOAD PUSH2 0x20D SWAP8 SWAP7 SWAP6 SWAP5 SWAP4 SWAP3 SWAP2 SWAP1 PUSH2 0x10F0 JUMP JUMPDEST PUSH1 0x40 MLOAD DUP1 SWAP2 SUB SWAP1 RETURN JUMPDEST PUSH2 0x230 PUSH1 0x4 DUP1 CALLDATASIZE SUB DUP2 ADD SWAP1 PUSH2 0x22B SWAP2 SWAP1 PUSH2 0xEB6 JUMP JUMPDEST PUSH2 0x57C JUMP JUMPDEST PUSH1 0x40 MLOAD PUSH2 0x23D SWAP2 SWAP1 PUSH2 0xD92 JUMP JUMPDEST PUSH1 0x40 MLOAD DUP1 SWAP2 SUB SWAP1 RETURN JUMPDEST PUSH2 0x24E PUSH2 0x5DF JUMP JUMPDEST PUSH1 0x40 MLOAD PUSH2 0x25B SWAP2 SWAP1 PUSH2 0xE9D JUMP JUMPDEST PUSH1 0x40 MLOAD DUP1 SWAP2 SUB SWAP1 RETURN JUMPDEST PUSH2 0x27E PUSH1 0x4 DUP1 CALLDATASIZE SUB DUP2 ADD SWAP1 PUSH2 0x279 SWAP2 SWAP1 PUSH2 0xE05 JUMP JUMPDEST PUSH2 0x5E5 JUMP JUMPDEST STOP JUMPDEST PUSH2 0x29A PUSH1 0x4 DUP1 CALLDATASIZE SUB DUP2 ADD SWAP1 PUSH2 0x295 SWAP2 SWAP1 PUSH2 0xE05 JUMP JUMPDEST PUSH2 0x61F JUMP JUMPDEST PUSH1 0x40 MLOAD PUSH2 0x2A7 SWAP2 SWAP1 PUSH2 0xD92 JUMP JUMPDEST PUSH1 0x40 MLOAD DUP1 SWAP2 SUB SWAP1 RETURN JUMPDEST PUSH2 0x2CA PUSH1 0x4 DUP1 CALLDATASIZE SUB DUP2 ADD SWAP1 PUSH2 0x2C5 SWAP2 SWAP1 PUSH2 0xEB6 JUMP JUMPDEST PUSH2 0x651 JUMP JUMPDEST STOP JUMPDEST PUSH2 0x2E6 PUSH1 0x4 DUP1 CALLDATASIZE SUB DUP2 ADD SWAP1 PUSH2 0x2E1 SWAP2 SWAP1 PUSH2 0xE05 JUMP JUMPDEST PUSH2 0x673 JUMP JUMPDEST STOP JUMPDEST PUSH2 0x2F0 PUSH2 0x6E1 JUMP JUMPDEST PUSH1 0x40 MLOAD PUSH2 0x2FD SWAP2 SWAP1 PUSH2 0xE9D JUMP JUMPDEST PUSH1 0x40 MLOAD DUP1 SWAP2 SUB SWAP1 RETURN JUMPDEST PUSH2 0x320 PUSH1 0x4 DUP1 CALLDATASIZE SUB DUP2 ADD SWAP1 PUSH2 0x31B SWAP2 SWAP1 PUSH2 0x127D JUMP JUMPDEST PUSH2 0x705 JUMP JUMPDEST STOP JUMPDEST PUSH0 PUSH32 0x7965DB0B00000000000000000000000000000000000000000000000000000000 PUSH28 0xFFFFFFFFFFFFFFFFFFFFFFFFFFFFFFFFFFFFFFFFFFFFFFFFFFFFFFFF NOT AND DUP3 PUSH28 0xFFFFFFFFFFFFFFFFFFFFFFFFFFFFFFFFFFFFFFFFFFFFFFFFFFFFFFFF NOT AND EQ DUP1 PUSH2 0x394 JUMPI POP PUSH2 0x393 DUP3 PUSH2 0x866 JUMP JUMPDEST JUMPDEST SWAP1 POP SWAP2 SWAP1 POP JUMP JUMPDEST PUSH0 DUP1 SHL PUSH2 0x3A7 DUP2 PUSH2 0x8CF JUMP JUMPDEST PUSH2 0x3D1 PUSH32 0xCE23C3E399818CFEE81A7AB0880F714E53D7672B08DF0FA62F2843416E1EA09 DUP4 PUSH2 0x3F1 JUMP JUMPDEST POP POP JUMP JUMPDEST PUSH0 DUP1 PUSH0 DUP4 DUP2 MSTORE PUSH1 0x20 ADD SWAP1 DUP2 MSTORE PUSH1 0x20 ADD PUSH0 KECCAK256 PUSH1 0x1 ADD SLOAD SWAP1 POP SWAP2 SWAP1 POP JUMP JUMPDEST PUSH2 0x3FA DUP3 PUSH2 0x3D5 JUMP JUMPDEST PUSH2 0x403 DUP2 PUSH2 0x8CF JUMP JUMPDEST PUSH2 0x40D DUP4 DUP4 PUSH2 0x8E3 JUMP JUMPDEST POP POP POP POP JUMP JUMPDEST PUSH2 0x41B PUSH2 0x9CC JUMP JUMPDEST PUSH20 0xFFFFFFFFFFFFFFFFFFFFFFFFFFFFFFFFFFFFFFFF AND DUP2 PUSH20 0xFFFFFFFFFFFFFFFFFFFFFFFFFFFFFFFFFFFFFFFF AND EQ PUSH2 0x47F JUMPI PUSH1 0x40 MLOAD PUSH32 0x6697B23200000000000000000000000000000000000000000000000000000000 DUP2 MSTORE PUSH1 0x4 ADD PUSH1 0x40 MLOAD DUP1 SWAP2 SUB SWAP1 REVERT JUMPDEST PUSH2 0x489 DUP3 DUP3 PUSH2 0x9D3 JUMP JUMPDEST POP POP POP JUMP JUMPDEST PUSH32 0xA49807205CE4D355092EF5A8A18F56E8913CF4A201FBE287825B095693C21775 DUP2 JUMP JUMPDEST PUSH1 0x3 PUSH0 SWAP1 SLOAD SWAP1 PUSH2 0x100 EXP SWAP1 DIV PUSH20 0xFFFFFFFFFFFFFFFFFFFFFFFFFFFFFFFFFFFFFFFF AND DUP2 JUMP JUMPDEST PUSH0 PUSH1 0x60 DUP1 PUSH0 DUP1 PUSH0 PUSH1 0x60 PUSH2 0x4E8 PUSH2 0xABC JUMP JUMPDEST PUSH2 0x4F0 PUSH2 0xAF7 JUMP JUMPDEST CHAINID ADDRESS PUSH0 DUP1 SHL PUSH0 PUSH8 0xFFFFFFFFFFFFFFFF DUP2 GT ISZERO PUSH2 0x50F JUMPI PUSH2 0x50E PUSH2 0x132D JUMP JUMPDEST JUMPDEST PUSH1 0x40 MLOAD SWAP1 DUP1 DUP3 MSTORE DUP1 PUSH1 0x20 MUL PUSH1 0x20 ADD DUP3 ADD PUSH1 0x40 MSTORE DUP1 ISZERO PUSH2 0x53D JUMPI DUP2 PUSH1 0x20 ADD PUSH1 0x20 DUP3 MUL DUP1 CALLDATASIZE DUP4 CALLDATACOPY DUP1 DUP3 ADD SWAP2 POP POP SWAP1 POP JUMPDEST POP PUSH32 0xF00000000000000000000000000000000000000000000000000000000000000 SWAP6 SWAP5 SWAP4 SWAP3 SWAP2 SWAP1 SWAP7 POP SWAP7 POP SWAP7 POP SWAP7 POP SWAP7 POP SWAP7 POP SWAP7 POP SWAP1 SWAP2 SWAP3 SWAP4 SWAP5 SWAP6 SWAP7 JUMP JUMPDEST PUSH0 DUP1 PUSH0 DUP5 DUP2 MSTORE PUSH1 0x20 ADD SWAP1 DUP2 MSTORE PUSH1 0x20 ADD PUSH0 KECCAK256 PUSH0 ADD PUSH0 DUP4 PUSH20 0xFFFFFFFFFFFFFFFFFFFFFFFFFFFFFFFFFFFFFFFF AND PUSH20 0xFFFFFFFFFFFFFFFFFFFFFFFFFFFFFFFFFFFFFFFF AND DUP2 MSTORE PUSH1 0x20 ADD SWAP1 DUP2 MSTORE PUSH1 0x20 ADD PUSH0 KECCAK256 PUSH0 SWAP1 SLOAD SWAP1 PUSH2 0x100 EXP SWAP1 DIV PUSH1 0xFF AND SWAP1 POP SWAP3 SWAP2 POP POP JUMP JUMPDEST PUSH0 DUP1 SHL DUP2 JUMP JUMPDEST PUSH0 DUP1 SHL PUSH2 0x5F1 DUP2 PUSH2 0x8CF JUMP JUMPDEST PUSH2 0x61B PUSH32 0xCE23C3E399818CFEE81A7AB0880F714E53D7672B08DF0FA62F2843416E1EA09 DUP4 PUSH2 0x651 JUMP JUMPDEST POP POP JUMP JUMPDEST PUSH0 PUSH2 0x64A PUSH32 0xCE23C3E399818CFEE81A7AB0880F714E53D7672B08DF0FA62F2843416E1EA09 DUP4 PUSH2 0x57C JUMP JUMPDEST SWAP1 POP SWAP2 SWAP1 POP JUMP JUMPDEST PUSH2 0x65A DUP3 PUSH2 0x3D5 JUMP JUMPDEST PUSH2 0x663 DUP2 PUSH2 0x8CF JUMP JUMPDEST PUSH2 0x66D DUP4 DUP4 PUSH2 0x9D3 JUMP JUMPDEST POP POP POP POP JUMP JUMPDEST PUSH32 0xA49807205CE4D355092EF5A8A18F56E8913CF4A201FBE287825B095693C21775 PUSH2 0x69D DUP2 PUSH2 0x8CF JUMP JUMPDEST DUP2 PUSH1 0x3 PUSH0 PUSH2 0x100 EXP DUP2 SLOAD DUP2 PUSH20 0xFFFFFFFFFFFFFFFFFFFFFFFFFFFFFFFFFFFFFFFF MUL NOT AND SWAP1 DUP4 PUSH20 0xFFFFFFFFFFFFFFFFFFFFFFFFFFFFFFFFFFFFFFFF AND MUL OR SWAP1 SSTORE POP POP POP JUMP JUMPDEST PUSH32 0xCE23C3E399818CFEE81A7AB0880F714E53D7672B08DF0FA62F2843416E1EA09 DUP2 JUMP JUMPDEST PUSH32 0xCE23C3E399818CFEE81A7AB0880F714E53D7672B08DF0FA62F2843416E1EA09 PUSH2 0x72F DUP2 PUSH2 0x8CF JUMP JUMPDEST PUSH1 0x3 PUSH0 SWAP1 SLOAD SWAP1 PUSH2 0x100 EXP SWAP1 DIV PUSH20 0xFFFFFFFFFFFFFFFFFFFFFFFFFFFFFFFFFFFFFFFF AND PUSH20 0xFFFFFFFFFFFFFFFFFFFFFFFFFFFFFFFFFFFFFFFF AND PUSH4 0x1E8E1E13 DUP9 DUP9 DUP9 DUP9 PUSH1 0x40 MLOAD DUP6 PUSH4 0xFFFFFFFF AND PUSH1 0xE0 SHL DUP2 MSTORE PUSH1 0x4 ADD PUSH2 0x78F SWAP5 SWAP4 SWAP3 SWAP2 SWAP1 PUSH2 0x140C JUMP JUMPDEST PUSH1 0x20 PUSH1 0x40 MLOAD DUP1 DUP4 SUB DUP2 DUP7 GAS STATICCALL ISZERO DUP1 ISZERO PUSH2 0x7AA JUMPI RETURNDATASIZE PUSH0 DUP1 RETURNDATACOPY RETURNDATASIZE PUSH0 REVERT JUMPDEST POP POP POP POP PUSH1 0x40 MLOAD RETURNDATASIZE PUSH1 0x1F NOT PUSH1 0x1F DUP3 ADD AND DUP3 ADD DUP1 PUSH1 0x40 MSTORE POP DUP2 ADD SWAP1 PUSH2 0x7CE SWAP2 SWAP1 PUSH2 0x146F JUMP JUMPDEST PUSH2 0x80D JUMPI PUSH1 0x40 MLOAD PUSH32 0x8C379A000000000000000000000000000000000000000000000000000000000 DUP2 MSTORE PUSH1 0x4 ADD PUSH2 0x804 SWAP1 PUSH2 0x14E4 JUMP JUMPDEST PUSH1 0x40 MLOAD DUP1 SWAP2 SUB SWAP1 REVERT JUMPDEST CALLER PUSH20 0xFFFFFFFFFFFFFFFFFFFFFFFFFFFFFFFFFFFFFFFF AND PUSH32 0x9055E6953596A4BEC3EE94FE69263DBBB095EBEE41411BC4902A0C4CF0A51A21 DUP5 DUP5 PUSH1 0x40 MLOAD PUSH2 0x855 SWAP3 SWAP2 SWAP1 PUSH2 0x152E JUMP JUMPDEST PUSH1 0x40 MLOAD DUP1 SWAP2 SUB SWAP1 LOG2 POP POP POP POP POP POP POP JUMP JUMPDEST PUSH0 PUSH32 0x1FFC9A700000000000000000000000000000000000000000000000000000000 PUSH28 0xFFFFFFFFFFFFFFFFFFFFFFFFFFFFFFFFFFFFFFFFFFFFFFFFFFFFFFFF NOT AND DUP3 PUSH28 0xFFFFFFFFFFFFFFFFFFFFFFFFFFFFFFFFFFFFFFFFFFFFFFFFFFFFFFFF NOT AND EQ SWAP1 POP SWAP2 SWAP1 POP JUMP JUMPDEST PUSH2 0x8E0 DUP2 PUSH2 0x8DB PUSH2 0x9CC JUMP JUMPDEST PUSH2 0xB32 JUMP JUMPDEST POP JUMP JUMPDEST PUSH0 PUSH2 0x8EE DUP4 DUP4 PUSH2 0x57C JUMP JUMPDEST PUSH2 0x9C2 JUMPI PUSH1 0x1 PUSH0 DUP1 DUP6 DUP2 MSTORE PUSH1 0x20 ADD SWAP1 DUP2 MSTORE PUSH1 0x20 ADD PUSH0 KECCAK256 PUSH0 ADD PUSH0 DUP5 PUSH20 0xFFFFFFFFFFFFFFFFFFFFFFFFFFFFFFFFFFFFFFFF AND PUSH20 0xFFFFFFFFFFFFFFFFFFFFFFFFFFFFFFFFFFFFFFFF AND DUP2 MSTORE PUSH1 0x20 ADD SWAP1 DUP2 MSTORE PUSH1 0x20 ADD PUSH0 KECCAK256 PUSH0 PUSH2 0x100 EXP DUP2 SLOAD DUP2 PUSH1 0xFF MUL NOT AND SWAP1 DUP4 ISZERO ISZERO MUL OR SWAP1 SSTORE POP PUSH2 0x95F PUSH2 0x9CC JUMP JUMPDEST PUSH20 0xFFFFFFFFFFFFFFFFFFFFFFFFFFFFFFFFFFFFFFFF AND DUP3 PUSH20 0xFFFFFFFFFFFFFFFFFFFFFFFFFFFFFFFFFFFFFFFF AND DUP5 PUSH32 0x2F8788117E7EFF1D82E926EC794901D17C78024A50270940304540A733656F0D PUSH1 0x40 MLOAD PUSH1 0x40 MLOAD DUP1 SWAP2 SUB SWAP1 LOG4 PUSH1 0x1 SWAP1 POP PUSH2 0x9C6 JUMP JUMPDEST PUSH0 SWAP1 POP JUMPDEST SWAP3 SWAP2 POP POP JUMP JUMPDEST PUSH0 CALLER SWAP1 POP SWAP1 JUMP JUMPDEST PUSH0 PUSH2 0x9DE DUP4 DUP4 PUSH2 0x57C JUMP JUMPDEST ISZERO PUSH2 0xAB2 JUMPI PUSH0 DUP1 PUSH0 DUP6 DUP2 MSTORE PUSH1 0x20 ADD SWAP1 DUP2 MSTORE PUSH1 0x20 ADD PUSH0 KECCAK256 PUSH0 ADD PUSH0 DUP5 PUSH20 0xFFFFFFFFFFFFFFFFFFFFFFFFFFFFFFFFFFFFFFFF AND PUSH20 0xFFFFFFFFFFFFFFFFFFFFFFFFFFFFFFFFFFFFFFFF AND DUP2 MSTORE PUSH1 0x20 ADD SWAP1 DUP2 MSTORE PUSH1 0x20 ADD PUSH0 KECCAK256 PUSH0 PUSH2 0x100 EXP DUP2 SLOAD DUP2 PUSH1 0xFF MUL NOT AND SWAP1 DUP4 ISZERO ISZERO MUL OR SWAP1 SSTORE POP PUSH2 0xA4F PUSH2 0x9CC JUMP JUMPDEST PUSH20 0xFFFFFFFFFFFFFFFFFFFFFFFFFFFFFFFFFFFFFFFF AND DUP3 PUSH20 0xFFFFFFFFFFFFFFFFFFFFFFFFFFFFFFFFFFFFFFFF AND DUP5 PUSH32 0xF6391F5C32D9C69D2A47EA670B442974B53935D1EDC7FD64EB21E047A839171B PUSH1 0x40 MLOAD PUSH1 0x40 MLOAD DUP1 SWAP2 SUB SWAP1 LOG4 PUSH1 0x1 SWAP1 POP PUSH2 0xAB6 JUMP JUMPDEST PUSH0 SWAP1 POP JUMPDEST SWAP3 SWAP2 POP POP JUMP JUMPDEST PUSH1 0x60 PUSH2 0xAF2 PUSH1 0x1 PUSH32 0x0 PUSH2 0xB83 SWAP1 SWAP2 SWAP1 PUSH4 0xFFFFFFFF AND JUMP JUMPDEST SWAP1 POP SWAP1 JUMP JUMPDEST PUSH1 0x60 PUSH2 0xB2D PUSH1 0x2 PUSH32 0x0 PUSH2 0xB83 SWAP1 SWAP2 SWAP1 PUSH4 0xFFFFFFFF AND JUMP JUMPDEST SWAP1 POP SWAP1 JUMP JUMPDEST PUSH2 0xB3C DUP3 DUP3 PUSH2 0x57C JUMP JUMPDEST PUSH2 0xB7F JUMPI DUP1 DUP3 PUSH1 0x40 MLOAD PUSH32 0xE2517D3F00000000000000000000000000000000000000000000000000000000 DUP2 MSTORE PUSH1 0x4 ADD PUSH2 0xB76 SWAP3 SWAP2 SWAP1 PUSH2 0x1550 JUMP JUMPDEST PUSH1 0x40 MLOAD DUP1 SWAP2 SUB SWAP1 REVERT JUMPDEST POP POP JUMP JUMPDEST PUSH1 0x60 PUSH1 0xFF PUSH0 SHL DUP4 EQ PUSH2 0xB9F JUMPI PUSH2 0xB98 DUP4 PUSH2 0xC30 JUMP JUMPDEST SWAP1 POP PUSH2 0xC2A JUMP JUMPDEST DUP2 DUP1 SLOAD PUSH2 0xBAB SWAP1 PUSH2 0x15A4 JUMP JUMPDEST DUP1 PUSH1 0x1F ADD PUSH1 0x20 DUP1 SWAP2 DIV MUL PUSH1 0x20 ADD PUSH1 0x40 MLOAD SWAP1 DUP2 ADD PUSH1 0x40 MSTORE DUP1 SWAP3 SWAP2 SWAP1 DUP2 DUP2 MSTORE PUSH1 0x20 ADD DUP3 DUP1 SLOAD PUSH2 0xBD7 SWAP1 PUSH2 0x15A4 JUMP JUMPDEST DUP1 ISZERO PUSH2 0xC22 JUMPI DUP1 PUSH1 0x1F LT PUSH2 0xBF9 JUMPI PUSH2 0x100 DUP1 DUP4 SLOAD DIV MUL DUP4 MSTORE SWAP2 PUSH1 0x20 ADD SWAP2 PUSH2 0xC22 JUMP JUMPDEST DUP3 ADD SWAP2 SWAP1 PUSH0 MSTORE PUSH1 0x20 PUSH0 KECCAK256 SWAP1 JUMPDEST DUP2 SLOAD DUP2 MSTORE SWAP1 PUSH1 0x1 ADD SWAP1 PUSH1 0x20 ADD DUP1 DUP4 GT PUSH2 0xC05 JUMPI DUP3 SWAP1 SUB PUSH1 0x1F AND DUP3 ADD SWAP2 JUMPDEST POP POP POP POP POP SWAP1 POP JUMPDEST SWAP3 SWAP2 POP POP JUMP JUMPDEST PUSH1 0x60 PUSH0 PUSH2 0xC3C DUP4 PUSH2 0xCA2 JUMP JUMPDEST SWAP1 POP PUSH0 PUSH1 0x20 PUSH8 0xFFFFFFFFFFFFFFFF DUP2 GT ISZERO PUSH2 0xC5A JUMPI PUSH2 0xC59 PUSH2 0x132D JUMP JUMPDEST JUMPDEST PUSH1 0x40 MLOAD SWAP1 DUP1 DUP3 MSTORE DUP1 PUSH1 0x1F ADD PUSH1 0x1F NOT AND PUSH1 0x20 ADD DUP3 ADD PUSH1 0x40 MSTORE DUP1 ISZERO PUSH2 0xC8C JUMPI DUP2 PUSH1 0x20 ADD PUSH1 0x1 DUP3 MUL DUP1 CALLDATASIZE DUP4 CALLDATACOPY DUP1 DUP3 ADD SWAP2 POP POP SWAP1 POP JUMPDEST POP SWAP1 POP DUP2 DUP2 MSTORE DUP4 PUSH1 0x20 DUP3 ADD MSTORE DUP1 SWAP3 POP POP POP SWAP2 SWAP1 POP JUMP JUMPDEST PUSH0 DUP1 PUSH1 0xFF DUP4 PUSH0 SHR AND SWAP1 POP PUSH1 0x1F DUP2 GT ISZERO PUSH2 0xCE7 JUMPI PUSH1 0x40 MLOAD PUSH32 0xB3512B0C00000000000000000000000000000000000000000000000000000000 DUP2 MSTORE PUSH1 0x4 ADD PUSH1 0x40 MLOAD DUP1 SWAP2 SUB SWAP1 REVERT JUMPDEST DUP1 SWAP2 POP POP SWAP2 SWAP1 POP JUMP JUMPDEST PUSH0 DUP1 REVERT JUMPDEST PUSH0 DUP1 REVERT JUMPDEST PUSH0 PUSH32 0xFFFFFFFF00000000000000000000000000000000000000000000000000000000 DUP3 AND SWAP1 POP SWAP2 SWAP1 POP JUMP JUMPDEST PUSH2 0xD2C DUP2 PUSH2 0xCF8 JUMP JUMPDEST DUP2 EQ PUSH2 0xD36 JUMPI PUSH0 DUP1 REVERT JUMPDEST POP JUMP JUMPDEST PUSH0 DUP2 CALLDATALOAD SWAP1 POP PUSH2 0xD47 DUP2 PUSH2 0xD23 JUMP JUMPDEST SWAP3 SWAP2 POP POP JUMP JUMPDEST PUSH0 PUSH1 0x20 DUP3 DUP5 SUB SLT ISZERO PUSH2 0xD62 JUMPI PUSH2 0xD61 PUSH2 0xCF0 JUMP JUMPDEST JUMPDEST PUSH0 PUSH2 0xD6F DUP5 DUP3 DUP6 ADD PUSH2 0xD39 JUMP JUMPDEST SWAP2 POP POP SWAP3 SWAP2 POP POP JUMP JUMPDEST PUSH0 DUP2 ISZERO ISZERO SWAP1 POP SWAP2 SWAP1 POP JUMP JUMPDEST PUSH2 0xD8C DUP2 PUSH2 0xD78 JUMP JUMPDEST DUP3 MSTORE POP POP JUMP JUMPDEST PUSH0 PUSH1 0x20 DUP3 ADD SWAP1 POP PUSH2 0xDA5 PUSH0 DUP4 ADD DUP5 PUSH2 0xD83 JUMP JUMPDEST SWAP3 SWAP2 POP POP JUMP JUMPDEST PUSH0 PUSH20 0xFFFFFFFFFFFFFFFFFFFFFFFFFFFFFFFFFFFFFFFF DUP3 AND SWAP1 POP SWAP2 SWAP1 POP JUMP JUMPDEST PUSH0 PUSH2 0xDD4 DUP3 PUSH2 0xDAB JUMP JUMPDEST SWAP1 POP SWAP2 SWAP1 POP JUMP JUMPDEST PUSH2 0xDE4 DUP2 PUSH2 0xDCA JUMP JUMPDEST DUP2 EQ PUSH2 0xDEE JUMPI PUSH0 DUP1 REVERT JUMPDEST POP JUMP JUMPDEST PUSH0 DUP2 CALLDATALOAD SWAP1 POP PUSH2 0xDFF DUP2 PUSH2 0xDDB JUMP JUMPDEST SWAP3 SWAP2 POP POP JUMP JUMPDEST PUSH0 PUSH1 0x20 DUP3 DUP5 SUB SLT ISZERO PUSH2 0xE1A JUMPI PUSH2 0xE19 PUSH2 0xCF0 JUMP JUMPDEST JUMPDEST PUSH0 PUSH2 0xE27 DUP5 DUP3 DUP6 ADD PUSH2 0xDF1 JUMP JUMPDEST SWAP2 POP POP SWAP3 SWAP2 POP POP JUMP JUMPDEST PUSH0 DUP2 SWAP1 POP SWAP2 SWAP1 POP JUMP JUMPDEST PUSH2 0xE42 DUP2 PUSH2 0xE30 JUMP JUMPDEST DUP2 EQ PUSH2 0xE4C JUMPI PUSH0 DUP1 REVERT JUMPDEST POP JUMP JUMPDEST PUSH0 DUP2 CALLDATALOAD SWAP1 POP PUSH2 0xE5D DUP2 PUSH2 0xE39 JUMP JUMPDEST SWAP3 SWAP2 POP POP JUMP JUMPDEST PUSH0 PUSH1 0x20 DUP3 DUP5 SUB SLT ISZERO PUSH2 0xE78 JUMPI PUSH2 0xE77 PUSH2 0xCF0 JUMP JUMPDEST JUMPDEST PUSH0 PUSH2 0xE85 DUP5 DUP3 DUP6 ADD PUSH2 0xE4F JUMP JUMPDEST SWAP2 POP POP SWAP3 SWAP2 POP POP JUMP JUMPDEST PUSH2 0xE97 DUP2 PUSH2 0xE30 JUMP JUMPDEST DUP3 MSTORE POP POP JUMP JUMPDEST PUSH0 PUSH1 0x20 DUP3 ADD SWAP1 POP PUSH2 0xEB0 PUSH0 DUP4 ADD DUP5 PUSH2 0xE8E JUMP JUMPDEST SWAP3 SWAP2 POP POP JUMP JUMPDEST PUSH0 DUP1 PUSH1 0x40 DUP4 DUP6 SUB SLT ISZERO PUSH2 0xECC JUMPI PUSH2 0xECB PUSH2 0xCF0 JUMP JUMPDEST JUMPDEST PUSH0 PUSH2 0xED9 DUP6 DUP3 DUP7 ADD PUSH2 0xE4F JUMP JUMPDEST SWAP3 POP POP PUSH1 0x20 PUSH2 0xEEA DUP6 DUP3 DUP7 ADD PUSH2 0xDF1 JUMP JUMPDEST SWAP2 POP POP SWAP3 POP SWAP3 SWAP1 POP JUMP JUMPDEST PUSH0 DUP2 SWAP1 POP SWAP2 SWAP1 POP JUMP JUMPDEST PUSH0 PUSH2 0xF17 PUSH2 0xF12 PUSH2 0xF0D DUP5 PUSH2 0xDAB JUMP JUMPDEST PUSH2 0xEF4 JUMP JUMPDEST PUSH2 0xDAB JUMP JUMPDEST SWAP1 POP SWAP2 SWAP1 POP JUMP JUMPDEST PUSH0 PUSH2 0xF28 DUP3 PUSH2 0xEFD JUMP JUMPDEST SWAP1 POP SWAP2 SWAP1 POP JUMP JUMPDEST PUSH0 PUSH2 0xF39 DUP3 PUSH2 0xF1E JUMP JUMPDEST SWAP1 POP SWAP2 SWAP1 POP JUMP JUMPDEST PUSH2 0xF49 DUP2 PUSH2 0xF2F JUMP JUMPDEST DUP3 MSTORE POP POP JUMP JUMPDEST PUSH0 PUSH1 0x20 DUP3 ADD SWAP1 POP PUSH2 0xF62 PUSH0 DUP4 ADD DUP5 PUSH2 0xF40 JUMP JUMPDEST SWAP3 SWAP2 POP POP JUMP JUMPDEST PUSH0 PUSH32 0xFF00000000000000000000000000000000000000000000000000000000000000 DUP3 AND SWAP1 POP SWAP2 SWAP1 POP JUMP JUMPDEST PUSH2 0xF9C DUP2 PUSH2 0xF68 JUMP JUMPDEST DUP3 MSTORE POP POP JUMP JUMPDEST PUSH0 DUP2 MLOAD SWAP1 POP SWAP2 SWAP1 POP JUMP JUMPDEST PUSH0 DUP3 DUP3 MSTORE PUSH1 0x20 DUP3 ADD SWAP1 POP SWAP3 SWAP2 POP POP JUMP JUMPDEST DUP3 DUP2 DUP4 MCOPY PUSH0 DUP4 DUP4 ADD MSTORE POP POP POP JUMP JUMPDEST PUSH0 PUSH1 0x1F NOT PUSH1 0x1F DUP4 ADD AND SWAP1 POP SWAP2 SWAP1 POP JUMP JUMPDEST PUSH0 PUSH2 0xFE4 DUP3 PUSH2 0xFA2 JUMP JUMPDEST PUSH2 0xFEE DUP2 DUP6 PUSH2 0xFAC JUMP JUMPDEST SWAP4 POP PUSH2 0xFFE DUP2 DUP6 PUSH1 0x20 DUP7 ADD PUSH2 0xFBC JUMP JUMPDEST PUSH2 0x1007 DUP2 PUSH2 0xFCA JUMP JUMPDEST DUP5 ADD SWAP2 POP POP SWAP3 SWAP2 POP POP JUMP JUMPDEST PUSH0 DUP2 SWAP1 POP SWAP2 SWAP1 POP JUMP JUMPDEST PUSH2 0x1024 DUP2 PUSH2 0x1012 JUMP JUMPDEST DUP3 MSTORE POP POP JUMP JUMPDEST PUSH2 0x1033 DUP2 PUSH2 0xDCA JUMP JUMPDEST DUP3 MSTORE POP POP JUMP JUMPDEST PUSH0 DUP2 MLOAD SWAP1 POP SWAP2 SWAP1 POP JUMP JUMPDEST PUSH0 DUP3 DUP3 MSTORE PUSH1 0x20 DUP3 ADD SWAP1 POP SWAP3 SWAP2 POP POP JUMP JUMPDEST PUSH0 DUP2 SWAP1 POP PUSH1 0x20 DUP3 ADD SWAP1 POP SWAP2 SWAP1 POP JUMP JUMPDEST PUSH2 0x106B DUP2 PUSH2 0x1012 JUMP JUMPDEST DUP3 MSTORE POP POP JUMP JUMPDEST PUSH0 PUSH2 0x107C DUP4 DUP4 PUSH2 0x1062 JUMP JUMPDEST PUSH1 0x20 DUP4 ADD SWAP1 POP SWAP3 SWAP2 POP POP JUMP JUMPDEST PUSH0 PUSH1 0x20 DUP3 ADD SWAP1 POP SWAP2 SWAP1 POP JUMP JUMPDEST PUSH0 PUSH2 0x109E DUP3 PUSH2 0x1039 JUMP JUMPDEST PUSH2 0x10A8 DUP2 DUP6 PUSH2 0x1043 JUMP JUMPDEST SWAP4 POP PUSH2 0x10B3 DUP4 PUSH2 0x1053 JUMP JUMPDEST DUP1 PUSH0 JUMPDEST DUP4 DUP2 LT ISZERO PUSH2 0x10E3 JUMPI DUP2 MLOAD PUSH2 0x10CA DUP9 DUP3 PUSH2 0x1071 JUMP JUMPDEST SWAP8 POP PUSH2 0x10D5 DUP4 PUSH2 0x1088 JUMP JUMPDEST SWAP3 POP POP PUSH1 0x1 DUP2 ADD SWAP1 POP PUSH2 0x10B6 JUMP JUMPDEST POP DUP6 SWAP4 POP POP POP POP SWAP3 SWAP2 POP POP JUMP JUMPDEST PUSH0 PUSH1 0xE0 DUP3 ADD SWAP1 POP PUSH2 0x1103 PUSH0 DUP4 ADD DUP11 PUSH2 0xF93 JUMP JUMPDEST DUP2 DUP2 SUB PUSH1 0x20 DUP4 ADD MSTORE PUSH2 0x1115 DUP2 DUP10 PUSH2 0xFDA JUMP JUMPDEST SWAP1 POP DUP2 DUP2 SUB PUSH1 0x40 DUP4 ADD MSTORE PUSH2 0x1129 DUP2 DUP9 PUSH2 0xFDA JUMP JUMPDEST SWAP1 POP PUSH2 0x1138 PUSH1 0x60 DUP4 ADD DUP8 PUSH2 0x101B JUMP JUMPDEST PUSH2 0x1145 PUSH1 0x80 DUP4 ADD DUP7 PUSH2 0x102A JUMP JUMPDEST PUSH2 0x1152 PUSH1 0xA0 DUP4 ADD DUP6 PUSH2 0xE8E JUMP JUMPDEST DUP2 DUP2 SUB PUSH1 0xC0 DUP4 ADD MSTORE PUSH2 0x1164 DUP2 DUP5 PUSH2 0x1094 JUMP JUMPDEST SWAP1 POP SWAP9 SWAP8 POP POP POP POP POP POP POP POP JUMP JUMPDEST PUSH0 DUP1 REVERT JUMPDEST PUSH0 DUP1 REVERT JUMPDEST PUSH0 DUP1 REVERT JUMPDEST PUSH0 DUP1 DUP4 PUSH1 0x1F DUP5 ADD SLT PUSH2 0x1193 JUMPI PUSH2 0x1192 PUSH2 0x1172 JUMP JUMPDEST JUMPDEST DUP3 CALLDATALOAD SWAP1 POP PUSH8 0xFFFFFFFFFFFFFFFF DUP2 GT ISZERO PUSH2 0x11B0 JUMPI PUSH2 0x11AF PUSH2 0x1176 JUMP JUMPDEST JUMPDEST PUSH1 0x20 DUP4 ADD SWAP2 POP DUP4 PUSH1 0x1 DUP3 MUL DUP4 ADD GT ISZERO PUSH2 0x11CC JUMPI PUSH2 0x11CB PUSH2 0x117A JUMP JUMPDEST JUMPDEST SWAP3 POP SWAP3 SWAP1 POP JUMP JUMPDEST PUSH0 DUP1 DUP4 PUSH1 0x1F DUP5 ADD SLT PUSH2 0x11E8 JUMPI PUSH2 0x11E7 PUSH2 0x1172 JUMP JUMPDEST JUMPDEST DUP3 CALLDATALOAD SWAP1 POP PUSH8 0xFFFFFFFFFFFFFFFF DUP2 GT ISZERO PUSH2 0x1205 JUMPI PUSH2 0x1204 PUSH2 0x1176 JUMP JUMPDEST JUMPDEST PUSH1 0x20 DUP4 ADD SWAP2 POP DUP4 PUSH1 0x20 DUP3 MUL DUP4 ADD GT ISZERO PUSH2 0x1221 JUMPI PUSH2 0x1220 PUSH2 0x117A JUMP JUMPDEST JUMPDEST SWAP3 POP SWAP3 SWAP1 POP JUMP JUMPDEST PUSH0 DUP1 DUP4 PUSH1 0x1F DUP5 ADD SLT PUSH2 0x123D JUMPI PUSH2 0x123C PUSH2 0x1172 JUMP JUMPDEST JUMPDEST DUP3 CALLDATALOAD SWAP1 POP PUSH8 0xFFFFFFFFFFFFFFFF DUP2 GT ISZERO PUSH2 0x125A JUMPI PUSH2 0x1259 PUSH2 0x1176 JUMP JUMPDEST JUMPDEST PUSH1 0x20 DUP4 ADD SWAP2 POP DUP4 PUSH1 0x1 DUP3 MUL DUP4 ADD GT ISZERO PUSH2 0x1276 JUMPI PUSH2 0x1275 PUSH2 0x117A JUMP JUMPDEST JUMPDEST SWAP3 POP SWAP3 SWAP1 POP JUMP JUMPDEST PUSH0 DUP1 PUSH0 DUP1 PUSH0 DUP1 PUSH1 0x60 DUP8 DUP10 SUB SLT ISZERO PUSH2 0x1297 JUMPI PUSH2 0x1296 PUSH2 0xCF0 JUMP JUMPDEST JUMPDEST PUSH0 DUP8 ADD CALLDATALOAD PUSH8 0xFFFFFFFFFFFFFFFF DUP2 GT ISZERO PUSH2 0x12B4 JUMPI PUSH2 0x12B3 PUSH2 0xCF4 JUMP JUMPDEST JUMPDEST PUSH2 0x12C0 DUP10 DUP3 DUP11 ADD PUSH2 0x117E JUMP JUMPDEST SWAP7 POP SWAP7 POP POP PUSH1 0x20 DUP8 ADD CALLDATALOAD PUSH8 0xFFFFFFFFFFFFFFFF DUP2 GT ISZERO PUSH2 0x12E3 JUMPI PUSH2 0x12E2 PUSH2 0xCF4 JUMP JUMPDEST JUMPDEST PUSH2 0x12EF DUP10 DUP3 DUP11 ADD PUSH2 0x11D3 JUMP JUMPDEST SWAP5 POP SWAP5 POP POP PUSH1 0x40 DUP8 ADD CALLDATALOAD PUSH8 0xFFFFFFFFFFFFFFFF DUP2 GT ISZERO PUSH2 0x1312 JUMPI PUSH2 0x1311 PUSH2 0xCF4 JUMP JUMPDEST JUMPDEST PUSH2 0x131E DUP10 DUP3 DUP11 ADD PUSH2 0x1228 JUMP JUMPDEST SWAP3 POP SWAP3 POP POP SWAP3 SWAP6 POP SWAP3 SWAP6 POP SWAP3 SWAP6 JUMP JUMPDEST PUSH32 0x4E487B7100000000000000000000000000000000000000000000000000000000 PUSH0 MSTORE PUSH1 0x41 PUSH1 0x4 MSTORE PUSH1 0x24 PUSH0 REVERT JUMPDEST PUSH0 DUP3 DUP3 MSTORE PUSH1 0x20 DUP3 ADD SWAP1 POP SWAP3 SWAP2 POP POP JUMP JUMPDEST DUP3 DUP2 DUP4 CALLDATACOPY PUSH0 DUP4 DUP4 ADD MSTORE POP POP POP JUMP JUMPDEST PUSH0 PUSH2 0x1383 DUP4 DUP6 PUSH2 0x135A JUMP JUMPDEST SWAP4 POP PUSH2 0x1390 DUP4 DUP6 DUP5 PUSH2 0x136A JUMP JUMPDEST PUSH2 0x1399 DUP4 PUSH2 0xFCA JUMP JUMPDEST DUP5 ADD SWAP1 POP SWAP4 SWAP3 POP POP POP JUMP JUMPDEST PUSH0 DUP1 REVERT JUMPDEST DUP3 DUP2 DUP4 CALLDATACOPY POP POP POP JUMP JUMPDEST PUSH0 PUSH2 0x13BC DUP4 DUP6 PUSH2 0x1043 JUMP JUMPDEST SWAP4 POP PUSH32 0x7FFFFFFFFFFFFFFFFFFFFFFFFFFFFFFFFFFFFFFFFFFFFFFFFFFFFFFFFFFFFFF DUP4 GT ISZERO PUSH2 0x13EF JUMPI PUSH2 0x13EE PUSH2 0x13A4 JUMP JUMPDEST JUMPDEST PUSH1 0x20 DUP4 MUL SWAP3 POP PUSH2 0x1400 DUP4 DUP6 DUP5 PUSH2 0x13A8 JUMP JUMPDEST DUP3 DUP5 ADD SWAP1 POP SWAP4 SWAP3 POP POP POP JUMP JUMPDEST PUSH0 PUSH1 0x40 DUP3 ADD SWAP1 POP DUP2 DUP2 SUB PUSH0 DUP4 ADD MSTORE PUSH2 0x1425 DUP2 DUP7 DUP9 PUSH2 0x1378 JUMP JUMPDEST SWAP1 POP DUP2 DUP2 SUB PUSH1 0x20 DUP4 ADD MSTORE PUSH2 0x143A DUP2 DUP5 DUP7 PUSH2 0x13B1 JUMP JUMPDEST SWAP1 POP SWAP6 SWAP5 POP POP POP POP POP JUMP JUMPDEST PUSH2 0x144E DUP2 PUSH2 0xD78 JUMP JUMPDEST DUP2 EQ PUSH2 0x1458 JUMPI PUSH0 DUP1 REVERT JUMPDEST POP JUMP JUMPDEST PUSH0 DUP2 MLOAD SWAP1 POP PUSH2 0x1469 DUP2 PUSH2 0x1445 JUMP JUMPDEST SWAP3 SWAP2 POP POP JUMP JUMPDEST PUSH0 PUSH1 0x20 DUP3 DUP5 SUB SLT ISZERO PUSH2 0x1484 JUMPI PUSH2 0x1483 PUSH2 0xCF0 JUMP JUMPDEST JUMPDEST PUSH0 PUSH2 0x1491 DUP5 DUP3 DUP6 ADD PUSH2 0x145B JUMP JUMPDEST SWAP2 POP POP SWAP3 SWAP2 POP POP JUMP JUMPDEST PUSH32 0x50726F6F6647656E65726174696F6E3A20496E76616C69642070726F6F660000 PUSH0 DUP3 ADD MSTORE POP JUMP JUMPDEST PUSH0 PUSH2 0x14CE PUSH1 0x1E DUP4 PUSH2 0xFAC JUMP JUMPDEST SWAP2 POP PUSH2 0x14D9 DUP3 PUSH2 0x149A JUMP JUMPDEST PUSH1 0x20 DUP3 ADD SWAP1 POP SWAP2 SWAP1 POP JUMP JUMPDEST PUSH0 PUSH1 0x20 DUP3 ADD SWAP1 POP DUP2 DUP2 SUB PUSH0 DUP4 ADD MSTORE PUSH2 0x14FB DUP2 PUSH2 0x14C2 JUMP JUMPDEST SWAP1 POP SWAP2 SWAP1 POP JUMP JUMPDEST PUSH0 PUSH2 0x150D DUP4 DUP6 PUSH2 0xFAC JUMP JUMPDEST SWAP4 POP PUSH2 0x151A DUP4 DUP6 DUP5 PUSH2 0x136A JUMP JUMPDEST PUSH2 0x1523 DUP4 PUSH2 0xFCA JUMP JUMPDEST DUP5 ADD SWAP1 POP SWAP4 SWAP3 POP POP POP JUMP JUMPDEST PUSH0 PUSH1 0x20 DUP3 ADD SWAP1 POP DUP2 DUP2 SUB PUSH0 DUP4 ADD MSTORE PUSH2 0x1547 DUP2 DUP5 DUP7 PUSH2 0x1502 JUMP JUMPDEST SWAP1 POP SWAP4 SWAP3 POP POP POP JUMP JUMPDEST PUSH0 PUSH1 0x40 DUP3 ADD SWAP1 POP PUSH2 0x1563 PUSH0 DUP4 ADD DUP6 PUSH2 0x102A JUMP JUMPDEST PUSH2 0x1570 PUSH1 0x20 DUP4 ADD DUP5 PUSH2 0xE8E JUMP JUMPDEST SWAP4 SWAP3 POP POP POP JUMP JUMPDEST PUSH32 0x4E487B7100000000000000000000000000000000000000000000000000000000 PUSH0 MSTORE PUSH1 0x22 PUSH1 0x4 MSTORE PUSH1 0x24 PUSH0 REVERT JUMPDEST PUSH0 PUSH1 0x2 DUP3 DIV SWAP1 POP PUSH1 0x1 DUP3 AND DUP1 PUSH2 0x15BB JUMPI PUSH1 0x7F DUP3 AND SWAP2 POP JUMPDEST PUSH1 0x20 DUP3 LT DUP2 SUB PUSH2 0x15CE JUMPI PUSH2 0x15CD PUSH2 0x1577 JUMP JUMPDEST JUMPDEST POP SWAP2 SWAP1 POP JUMP INVALID LOG2 PUSH5 0x6970667358 0x22 SLT KECCAK256 DUP7 PUSH24 0xA69BE758A4C0671134C42FBE916528414D14BF228CD860B6 0xEF 0xD2 SWAP2 SWAP7 LOG2 JUMPDEST PUSH5 0x736F6C6343 STOP ADDMOD BYTE STOP CALLER "
				},
				"gasEstimates": {
					"creation": {
						"codeDepositCost": "1128400",
						"executionCost": "infinite",
						"totalCost": "infinite"
					},
					"external": {
						"ADMIN_ROLE()": "370",
						"DEFAULT_ADMIN_ROLE()": "375",
						"VERIFIER_ROLE()": "391",
						"eip712Domain()": "infinite",
						"generateProof(bytes,uint256[],string)": "infinite",
						"getRoleAdmin(bytes32)": "infinite",
						"grantRole(bytes32,address)": "infinite",
						"grantVerifierRole(address)": "infinite",
						"hasRole(bytes32,address)": "3145",
						"hasVerifierRole(address)": "3087",
						"proofVerifier()": "infinite",
						"renounceRole(bytes32,address)": "infinite",
						"revokeRole(bytes32,address)": "infinite",
						"revokeVerifierRole(address)": "infinite",
						"setProofVerifier(address)": "infinite",
						"supportsInterface(bytes4)": "741"
					}
				},
				"methodIdentifiers": {
					"ADMIN_ROLE()": "75b238fc",
					"DEFAULT_ADMIN_ROLE()": "a217fddf",
					"VERIFIER_ROLE()": "e7705db6",
					"eip712Domain()": "84b0196e",
					"generateProof(bytes,uint256[],string)": "f736c365",
					"getRoleAdmin(bytes32)": "248a9ca3",
					"grantRole(bytes32,address)": "2f2ff15d",
					"grantVerifierRole(address)": "0337c061",
					"hasRole(bytes32,address)": "91d14854",
					"hasVerifierRole(address)": "a865e5fe",
					"proofVerifier()": "7fa417b3",
					"renounceRole(bytes32,address)": "36568abe",
					"revokeRole(bytes32,address)": "d547741f",
					"revokeVerifierRole(address)": "a3669aef",
					"setProofVerifier(address)": "df6244db",
					"supportsInterface(bytes4)": "01ffc9a7"
				}
			},
			"storageLayout": {
				"storage": [
					{
						"astId": 26,
						"contract": "contracts/security/zkSnarks/ProofGeneration.sol:ProofGeneration",
						"label": "_roles",
						"offset": 0,
						"slot": "0",
						"type": "t_mapping(t_bytes32,t_struct(RoleData)21_storage)"
					},
					{
						"astId": 1414,
						"contract": "contracts/security/zkSnarks/ProofGeneration.sol:ProofGeneration",
						"label": "_nameFallback",
						"offset": 0,
						"slot": "1",
						"type": "t_string_storage"
					},
					{
						"astId": 1416,
						"contract": "contracts/security/zkSnarks/ProofGeneration.sol:ProofGeneration",
						"label": "_versionFallback",
						"offset": 0,
						"slot": "2",
						"type": "t_string_storage"
					},
					{
						"astId": 3020,
						"contract": "contracts/security/zkSnarks/ProofGeneration.sol:ProofGeneration",
						"label": "proofVerifier",
						"offset": 0,
						"slot": "3",
						"type": "t_contract(IProofVerifier)2996"
					}
				],
				"types": {
					"t_address": {
						"encoding": "inplace",
						"label": "address",
						"numberOfBytes": "20"
					},
					"t_bool": {
						"encoding": "inplace",
						"label": "bool",
						"numberOfBytes": "1"
					},
					"t_bytes32": {
						"encoding": "inplace",
						"label": "bytes32",
						"numberOfBytes": "32"
					},
					"t_contract(IProofVerifier)2996": {
						"encoding": "inplace",
						"label": "contract IProofVerifier",
						"numberOfBytes": "20"
					},
					"t_mapping(t_address,t_bool)": {
						"encoding": "mapping",
						"key": "t_address",
						"label": "mapping(address => bool)",
						"numberOfBytes": "32",
						"value": "t_bool"
					},
					"t_mapping(t_bytes32,t_struct(RoleData)21_storage)": {
						"encoding": "mapping",
						"key": "t_bytes32",
						"label": "mapping(bytes32 => struct AccessControl.RoleData)",
						"numberOfBytes": "32",
						"value": "t_struct(RoleData)21_storage"
					},
					"t_string_storage": {
						"encoding": "bytes",
						"label": "string",
						"numberOfBytes": "32"
					},
					"t_struct(RoleData)21_storage": {
						"encoding": "inplace",
						"label": "struct AccessControl.RoleData",
						"members": [
							{
								"astId": 18,
								"contract": "contracts/security/zkSnarks/ProofGeneration.sol:ProofGeneration",
								"label": "hasRole",
								"offset": 0,
								"slot": "0",
								"type": "t_mapping(t_address,t_bool)"
							},
							{
								"astId": 20,
								"contract": "contracts/security/zkSnarks/ProofGeneration.sol:ProofGeneration",
								"label": "adminRole",
								"offset": 0,
								"slot": "1",
								"type": "t_bytes32"
							}
						],
						"numberOfBytes": "64"
					}
				}
			},
			"userdoc": {
				"kind": "user",
				"methods": {},
				"version": 1
			}
		}
	}
}