{
	"data": {
		"bytecode": {
			"linkReferences": {},
			"object": "6080604052348015600e575f80fd5b50611a5a8061001c5f395ff3fe608060405260043610610094575f3560e01c80636e474be7116100585780636e474be7146102d95780638da5cb5b146103035780638f6f03321461032d578063d6eb1bbf14610369578063f7e80e98146103a55761009b565b806313af4035146101fd57806313da30b2146102255780631f17732d1461024d5780633c5a3cea146102755780635f54892b1461029d5761009b565b3661009b57005b5f6100c85f357fffffffff00000000000000000000000000000000000000000000000000000000166103cf565b90505f73ffffffffffffffffffffffffffffffffffffffff168173ffffffffffffffffffffffffffffffffffffffff1603610153573373ffffffffffffffffffffffffffffffffffffffff16347f606834f57405380c4fb88d1f4850326ad3885f014bab3b568dfbf7a041eef7385f366040516101469291906110a7565b60405180910390a36101fb565b60015f8273ffffffffffffffffffffffffffffffffffffffff1673ffffffffffffffffffffffffffffffffffffffff1681526020019081526020015f205f9054906101000a900460ff166101dc576040517f08c379a00000000000000000000000000000000000000000000000000000000081526004016101d390611123565b60405180910390fd5b365f80375f80365f845afa3d5f803e805f81146101f7573d5ff35b3d5ffd5b005b348015610208575f80fd5b50610223600480360381019061021e91906111a3565b6104bd565b005b348015610230575f80fd5b5061024b60048036038101906102469190611223565b61062d565b005b348015610258575f80fd5b50610273600480360381019061026e9190611296565b6107d8565b005b348015610280575f80fd5b5061029b60048036038101906102969190611335565b610a96565b005b3480156102a8575f80fd5b506102c360048036038101906102be9190611392565b6103cf565b6040516102d091906113cc565b60405180910390f35b3480156102e4575f80fd5b506102ed610e68565b6040516102fa91906113cc565b60405180910390f35b34801561030e575f80fd5b50610317610e8d565b60405161032491906113cc565b60405180910390f35b348015610338575f80fd5b50610353600480360381019061034e919061146d565b610eb0565b604051610360919061152e565b60405180910390f35b348015610374575f80fd5b5061038f600480360381019061038a91906111a3565b61102a565b60405161039c919061155d565b60405180910390f35b3480156103b0575f80fd5b506103b9611047565b6040516103c69190611585565b60405180910390f35b5f8060025f9054906101000a900473ffffffffffffffffffffffffffffffffffffffff1690505f73ffffffffffffffffffffffffffffffffffffffff168173ffffffffffffffffffffffffffffffffffffffff16141580156104a557508073ffffffffffffffffffffffffffffffffffffffff166325b50934846040518263ffffffff1660e01b815260040161046591906115ad565b602060405180830381865afa158015610480573d5f803e3d5ffd5b505050506040513d601f19601f820116820180604052508101906104a491906115da565b5b156104b357809150506104b8565b5f9150505b919050565b60015f3373ffffffffffffffffffffffffffffffffffffffff1673ffffffffffffffffffffffffffffffffffffffff1681526020019081526020015f205f9054906101000a900460ff16610546576040517f08c379a000000000000000000000000000000000000000000000000000000000815260040161053d9061164f565b60405180910390fd5b5f73ffffffffffffffffffffffffffffffffffffffff168173ffffffffffffffffffffffffffffffffffffffff16036105b4576040517f08c379a00000000000000000000000000000000000000000000000000000000081526004016105ab906116b7565b60405180910390fd5b805f806101000a81548173ffffffffffffffffffffffffffffffffffffffff021916908373ffffffffffffffffffffffffffffffffffffffff1602179055507fa2ea9883a321a3e97b8266c2b078bfeec6d50c711ed71f874a90d500ae2eaf368160405161062291906113cc565b60405180910390a150565b60015f3373ffffffffffffffffffffffffffffffffffffffff1673ffffffffffffffffffffffffffffffffffffffff1681526020019081526020015f205f9054906101000a900460ff166106b6576040517f08c379a00000000000000000000000000000000000000000000000000000000081526004016106ad9061164f565b60405180910390fd5b8173ffffffffffffffffffffffffffffffffffffffff1660025f9054906101000a900473ffffffffffffffffffffffffffffffffffffffff1673ffffffffffffffffffffffffffffffffffffffff16146107d45760015f8373ffffffffffffffffffffffffffffffffffffffff1673ffffffffffffffffffffffffffffffffffffffff1681526020019081526020015f205f9054906101000a900460ff16610793576040517f08c379a000000000000000000000000000000000000000000000000000000000815260040161078a9061171f565b60405180910390fd5b8160025f6101000a81548173ffffffffffffffffffffffffffffffffffffffff021916908373ffffffffffffffffffffffffffffffffffffffff1602179055505b5050565b60015f3373ffffffffffffffffffffffffffffffffffffffff1673ffffffffffffffffffffffffffffffffffffffff1681526020019081526020015f205f9054906101000a900460ff16610861576040517f08c379a00000000000000000000000000000000000000000000000000000000081526004016108589061164f565b60405180910390fd5b80151560015f8473ffffffffffffffffffffffffffffffffffffffff1673ffffffffffffffffffffffffffffffffffffffff1681526020019081526020015f205f9054906101000a900460ff16151514610a92578173ffffffffffffffffffffffffffffffffffffffff167f8da3ff870ae294081392139550e167f1f31f277f22015ee22fbffdbd7758f4e1826040516108fb919061155d565b60405180910390a260011515811515036109e757600160035f828254610921919061176a565b925050819055506001805f8473ffffffffffffffffffffffffffffffffffffffff1673ffffffffffffffffffffffffffffffffffffffff1681526020019081526020015f205f6101000a81548160ff0219169083151502179055508173ffffffffffffffffffffffffffffffffffffffff166319ab453c306040518263ffffffff1660e01b81526004016109b591906113cc565b5f604051808303815f87803b1580156109cc575f80fd5b505af11580156109de573d5f803e3d5ffd5b50505050610a91565b600160035f8282546109f9919061179d565b925050819055505f60035411610a44576040517f08c379a0000000000000000000000000000000000000000000000000000000008152600401610a3b9061181a565b60405180910390fd5b60015f8373ffffffffffffffffffffffffffffffffffffffff1673ffffffffffffffffffffffffffffffffffffffff1681526020019081526020015f205f6101000a81549060ff02191690555b5b5050565b5f73ffffffffffffffffffffffffffffffffffffffff165f8054906101000a900473ffffffffffffffffffffffffffffffffffffffff1673ffffffffffffffffffffffffffffffffffffffff16148015610af157505f600354145b610b30576040517f08c379a0000000000000000000000000000000000000000000000000000000008152600401610b2790611882565b60405180910390fd5b5f8282905011610b75576040517f08c379a0000000000000000000000000000000000000000000000000000000008152600401610b6c906118ea565b60405180910390fd5b825f806101000a81548173ffffffffffffffffffffffffffffffffffffffff021916908373ffffffffffffffffffffffffffffffffffffffff160217905550818190506003819055505f5b82829050811015610e0c575f151560015f858585818110610be457610be3611908565b5b9050602002016020810190610bf991906111a3565b73ffffffffffffffffffffffffffffffffffffffff1673ffffffffffffffffffffffffffffffffffffffff1681526020019081526020015f205f9054906101000a900460ff16151514610c81576040517f08c379a0000000000000000000000000000000000000000000000000000000008152600401610c789061197f565b60405180910390fd5b6001805f858585818110610c9857610c97611908565b5b9050602002016020810190610cad91906111a3565b73ffffffffffffffffffffffffffffffffffffffff1673ffffffffffffffffffffffffffffffffffffffff1681526020019081526020015f205f6101000a81548160ff021916908315150217905550828282818110610d0f57610d0e611908565b5b9050602002016020810190610d2491906111a3565b73ffffffffffffffffffffffffffffffffffffffff166319ab453c306040518263ffffffff1660e01b8152600401610d5c91906113cc565b5f604051808303815f87803b158015610d73575f80fd5b505af1158015610d85573d5f803e3d5ffd5b50505050828282818110610d9c57610d9b611908565b5b9050602002016020810190610db191906111a3565b73ffffffffffffffffffffffffffffffffffffffff167f8da3ff870ae294081392139550e167f1f31f277f22015ee22fbffdbd7758f4e16001604051610df7919061155d565b60405180910390a28080600101915050610bc0565b505f471115610e63575f73ffffffffffffffffffffffffffffffffffffffff16477f606834f57405380c4fb88d1f4850326ad3885f014bab3b568dfbf7a041eef738604051610e5a906119c0565b60405180910390a35b505050565b60025f9054906101000a900473ffffffffffffffffffffffffffffffffffffffff1681565b5f8054906101000a900473ffffffffffffffffffffffffffffffffffffffff1681565b606060015f3373ffffffffffffffffffffffffffffffffffffffff1673ffffffffffffffffffffffffffffffffffffffff1681526020019081526020015f205f9054906101000a900460ff16610f3b576040517f08c379a0000000000000000000000000000000000000000000000000000000008152600401610f329061164f565b60405180910390fd5b5f8573ffffffffffffffffffffffffffffffffffffffff16858585604051610f64929190611a0c565b5f6040518083038185875af1925050503d805f8114610f9e576040519150601f19603f3d011682016040523d82523d5f602084013e610fa3565b606091505b50809350819250505080610fb9573d5f803e3d5ffd5b848673ffffffffffffffffffffffffffffffffffffffff163373ffffffffffffffffffffffffffffffffffffffff167f7d2476ab50663f025cff0be85655bcf355f62768615c0c478f3cd5293f80736587876040516110199291906110a7565b60405180910390a450949350505050565b6001602052805f5260405f205f915054906101000a900460ff1681565b60035481565b5f82825260208201905092915050565b828183375f83830152505050565b5f601f19601f8301169050919050565b5f611086838561104d565b935061109383858461105d565b61109c8361106b565b840190509392505050565b5f6020820190508181035f8301526110c081848661107b565b90509392505050565b5f82825260208201905092915050565b7f42573a20756e617574686f7269736564206d6f64756c650000000000000000005f82015250565b5f61110d6017836110c9565b9150611118826110d9565b602082019050919050565b5f6020820190508181035f83015261113a81611101565b9050919050565b5f80fd5b5f80fd5b5f73ffffffffffffffffffffffffffffffffffffffff82169050919050565b5f61117282611149565b9050919050565b61118281611168565b811461118c575f80fd5b50565b5f8135905061119d81611179565b92915050565b5f602082840312156111b8576111b7611141565b5b5f6111c58482850161118f565b91505092915050565b5f7fffffffff0000000000000000000000000000000000000000000000000000000082169050919050565b611202816111ce565b811461120c575f80fd5b50565b5f8135905061121d816111f9565b92915050565b5f806040838503121561123957611238611141565b5b5f6112468582860161118f565b92505060206112578582860161120f565b9150509250929050565b5f8115159050919050565b61127581611261565b811461127f575f80fd5b50565b5f813590506112908161126c565b92915050565b5f80604083850312156112ac576112ab611141565b5b5f6112b98582860161118f565b92505060206112ca85828601611282565b9150509250929050565b5f80fd5b5f80fd5b5f80fd5b5f8083601f8401126112f5576112f46112d4565b5b8235905067ffffffffffffffff811115611312576113116112d8565b5b60208301915083602082028301111561132e5761132d6112dc565b5b9250929050565b5f805f6040848603121561134c5761134b611141565b5b5f6113598682870161118f565b935050602084013567ffffffffffffffff81111561137a57611379611145565b5b611386868287016112e0565b92509250509250925092565b5f602082840312156113a7576113a6611141565b5b5f6113b48482850161120f565b91505092915050565b6113c681611168565b82525050565b5f6020820190506113df5f8301846113bd565b92915050565b5f819050919050565b6113f7816113e5565b8114611401575f80fd5b50565b5f81359050611412816113ee565b92915050565b5f8083601f84011261142d5761142c6112d4565b5b8235905067ffffffffffffffff81111561144a576114496112d8565b5b602083019150836001820283011115611466576114656112dc565b5b9250929050565b5f805f806060858703121561148557611484611141565b5b5f6114928782880161118f565b94505060206114a387828801611404565b935050604085013567ffffffffffffffff8111156114c4576114c3611145565b5b6114d087828801611418565b925092505092959194509250565b5f81519050919050565b8281835e5f83830152505050565b5f611500826114de565b61150a818561104d565b935061151a8185602086016114e8565b6115238161106b565b840191505092915050565b5f6020820190508181035f83015261154681846114f6565b905092915050565b61155781611261565b82525050565b5f6020820190506115705f83018461154e565b92915050565b61157f816113e5565b82525050565b5f6020820190506115985f830184611576565b92915050565b6115a7816111ce565b82525050565b5f6020820190506115c05f83018461159e565b92915050565b5f815190506115d48161126c565b92915050565b5f602082840312156115ef576115ee611141565b5b5f6115fc848285016115c6565b91505092915050565b7f42573a2073656e646572206e6f7420617574686f72697a6564000000000000005f82015250565b5f6116396019836110c9565b915061164482611605565b602082019050919050565b5f6020820190508181035f8301526116668161162d565b9050919050565b7f42573a20616464726573732063616e6e6f74206265206e756c6c0000000000005f82015250565b5f6116a1601a836110c9565b91506116ac8261166d565b602082019050919050565b5f6020820190508181035f8301526116ce81611695565b9050919050565b7f42573a20756e617574686f72697a6564206578656375746f72000000000000005f82015250565b5f6117096019836110c9565b9150611714826116d5565b602082019050919050565b5f6020820190508181035f830152611736816116fd565b9050919050565b7f4e487b71000000000000000000000000000000000000000000000000000000005f52601160045260245ffd5b5f611774826113e5565b915061177f836113e5565b92508282019050808211156117975761179661173d565b5b92915050565b5f6117a7826113e5565b91506117b2836113e5565b92508282039050818111156117ca576117c961173d565b5b92915050565b7f42573a2063616e6e6f742072656d6f7665206c617374206d6f64756c650000005f82015250565b5f611804601d836110c9565b915061180f826117d0565b602082019050919050565b5f6020820190508181035f830152611831816117f8565b9050919050565b7f42573a2077616c6c657420616c726561647920696e697469616c6973656400005f82015250565b5f61186c601e836110c9565b915061187782611838565b602082019050919050565b5f6020820190508181035f83015261189981611860565b9050919050565b7f42573a20656d707479206d6f64756c65730000000000000000000000000000005f82015250565b5f6118d46011836110c9565b91506118df826118a0565b602082019050919050565b5f6020820190508181035f830152611901816118c8565b9050919050565b7f4e487b71000000000000000000000000000000000000000000000000000000005f52603260045260245ffd5b7f42573a206d6f64756c6520697320616c726561647920616464656400000000005f82015250565b5f611969601b836110c9565b915061197482611935565b602082019050919050565b5f6020820190508181035f8301526119968161195d565b9050919050565b50565b5f6119ab5f8361104d565b91506119b68261199d565b5f82019050919050565b5f6020820190508181035f8301526119d7816119a0565b9050919050565b5f81905092915050565b5f6119f383856119de565b9350611a0083858461105d565b82840190509392505050565b5f611a188284866119e8565b9150819050939250505056fea26469706673582212209c941544c9db241206aada790f23e92f24a8b8fe22f0adeaf70d1f29071420cf64736f6c634300081a0033",
			"opcodes": "PUSH1 0x80 PUSH1 0x40 MSTORE CALLVALUE DUP1 ISZERO PUSH1 0xE JUMPI PUSH0 DUP1 REVERT JUMPDEST POP PUSH2 0x1A5A DUP1 PUSH2 0x1C PUSH0 CODECOPY PUSH0 RETURN INVALID PUSH1 0x80 PUSH1 0x40 MSTORE PUSH1 0x4 CALLDATASIZE LT PUSH2 0x94 JUMPI PUSH0 CALLDATALOAD PUSH1 0xE0 SHR DUP1 PUSH4 0x6E474BE7 GT PUSH2 0x58 JUMPI DUP1 PUSH4 0x6E474BE7 EQ PUSH2 0x2D9 JUMPI DUP1 PUSH4 0x8DA5CB5B EQ PUSH2 0x303 JUMPI DUP1 PUSH4 0x8F6F0332 EQ PUSH2 0x32D JUMPI DUP1 PUSH4 0xD6EB1BBF EQ PUSH2 0x369 JUMPI DUP1 PUSH4 0xF7E80E98 EQ PUSH2 0x3A5 JUMPI PUSH2 0x9B JUMP JUMPDEST DUP1 PUSH4 0x13AF4035 EQ PUSH2 0x1FD JUMPI DUP1 PUSH4 0x13DA30B2 EQ PUSH2 0x225 JUMPI DUP1 PUSH4 0x1F17732D EQ PUSH2 0x24D JUMPI DUP1 PUSH4 0x3C5A3CEA EQ PUSH2 0x275 JUMPI DUP1 PUSH4 0x5F54892B EQ PUSH2 0x29D JUMPI PUSH2 0x9B JUMP JUMPDEST CALLDATASIZE PUSH2 0x9B JUMPI STOP JUMPDEST PUSH0 PUSH2 0xC8 PUSH0 CALLDATALOAD PUSH32 0xFFFFFFFF00000000000000000000000000000000000000000000000000000000 AND PUSH2 0x3CF JUMP JUMPDEST SWAP1 POP PUSH0 PUSH20 0xFFFFFFFFFFFFFFFFFFFFFFFFFFFFFFFFFFFFFFFF AND DUP2 PUSH20 0xFFFFFFFFFFFFFFFFFFFFFFFFFFFFFFFFFFFFFFFF AND SUB PUSH2 0x153 JUMPI CALLER PUSH20 0xFFFFFFFFFFFFFFFFFFFFFFFFFFFFFFFFFFFFFFFF AND CALLVALUE PUSH32 0x606834F57405380C4FB88D1F4850326AD3885F014BAB3B568DFBF7A041EEF738 PUSH0 CALLDATASIZE PUSH1 0x40 MLOAD PUSH2 0x146 SWAP3 SWAP2 SWAP1 PUSH2 0x10A7 JUMP JUMPDEST PUSH1 0x40 MLOAD DUP1 SWAP2 SUB SWAP1 LOG3 PUSH2 0x1FB JUMP JUMPDEST PUSH1 0x1 PUSH0 DUP3 PUSH20 0xFFFFFFFFFFFFFFFFFFFFFFFFFFFFFFFFFFFFFFFF AND PUSH20 0xFFFFFFFFFFFFFFFFFFFFFFFFFFFFFFFFFFFFFFFF AND DUP2 MSTORE PUSH1 0x20 ADD SWAP1 DUP2 MSTORE PUSH1 0x20 ADD PUSH0 KECCAK256 PUSH0 SWAP1 SLOAD SWAP1 PUSH2 0x100 EXP SWAP1 DIV PUSH1 0xFF AND PUSH2 0x1DC JUMPI PUSH1 0x40 MLOAD PUSH32 0x8C379A000000000000000000000000000000000000000000000000000000000 DUP2 MSTORE PUSH1 0x4 ADD PUSH2 0x1D3 SWAP1 PUSH2 0x1123 JUMP JUMPDEST PUSH1 0x40 MLOAD DUP1 SWAP2 SUB SWAP1 REVERT JUMPDEST CALLDATASIZE PUSH0 DUP1 CALLDATACOPY PUSH0 DUP1 CALLDATASIZE PUSH0 DUP5 GAS STATICCALL RETURNDATASIZE PUSH0 DUP1 RETURNDATACOPY DUP1 PUSH0 DUP2 EQ PUSH2 0x1F7 JUMPI RETURNDATASIZE PUSH0 RETURN JUMPDEST RETURNDATASIZE PUSH0 REVERT JUMPDEST STOP JUMPDEST CALLVALUE DUP1 ISZERO PUSH2 0x208 JUMPI PUSH0 DUP1 REVERT JUMPDEST POP PUSH2 0x223 PUSH1 0x4 DUP1 CALLDATASIZE SUB DUP2 ADD SWAP1 PUSH2 0x21E SWAP2 SWAP1 PUSH2 0x11A3 JUMP JUMPDEST PUSH2 0x4BD JUMP JUMPDEST STOP JUMPDEST CALLVALUE DUP1 ISZERO PUSH2 0x230 JUMPI PUSH0 DUP1 REVERT JUMPDEST POP PUSH2 0x24B PUSH1 0x4 DUP1 CALLDATASIZE SUB DUP2 ADD SWAP1 PUSH2 0x246 SWAP2 SWAP1 PUSH2 0x1223 JUMP JUMPDEST PUSH2 0x62D JUMP JUMPDEST STOP JUMPDEST CALLVALUE DUP1 ISZERO PUSH2 0x258 JUMPI PUSH0 DUP1 REVERT JUMPDEST POP PUSH2 0x273 PUSH1 0x4 DUP1 CALLDATASIZE SUB DUP2 ADD SWAP1 PUSH2 0x26E SWAP2 SWAP1 PUSH2 0x1296 JUMP JUMPDEST PUSH2 0x7D8 JUMP JUMPDEST STOP JUMPDEST CALLVALUE DUP1 ISZERO PUSH2 0x280 JUMPI PUSH0 DUP1 REVERT JUMPDEST POP PUSH2 0x29B PUSH1 0x4 DUP1 CALLDATASIZE SUB DUP2 ADD SWAP1 PUSH2 0x296 SWAP2 SWAP1 PUSH2 0x1335 JUMP JUMPDEST PUSH2 0xA96 JUMP JUMPDEST STOP JUMPDEST CALLVALUE DUP1 ISZERO PUSH2 0x2A8 JUMPI PUSH0 DUP1 REVERT JUMPDEST POP PUSH2 0x2C3 PUSH1 0x4 DUP1 CALLDATASIZE SUB DUP2 ADD SWAP1 PUSH2 0x2BE SWAP2 SWAP1 PUSH2 0x1392 JUMP JUMPDEST PUSH2 0x3CF JUMP JUMPDEST PUSH1 0x40 MLOAD PUSH2 0x2D0 SWAP2 SWAP1 PUSH2 0x13CC JUMP JUMPDEST PUSH1 0x40 MLOAD DUP1 SWAP2 SUB SWAP1 RETURN JUMPDEST CALLVALUE DUP1 ISZERO PUSH2 0x2E4 JUMPI PUSH0 DUP1 REVERT JUMPDEST POP PUSH2 0x2ED PUSH2 0xE68 JUMP JUMPDEST PUSH1 0x40 MLOAD PUSH2 0x2FA SWAP2 SWAP1 PUSH2 0x13CC JUMP JUMPDEST PUSH1 0x40 MLOAD DUP1 SWAP2 SUB SWAP1 RETURN JUMPDEST CALLVALUE DUP1 ISZERO PUSH2 0x30E JUMPI PUSH0 DUP1 REVERT JUMPDEST POP PUSH2 0x317 PUSH2 0xE8D JUMP JUMPDEST PUSH1 0x40 MLOAD PUSH2 0x324 SWAP2 SWAP1 PUSH2 0x13CC JUMP JUMPDEST PUSH1 0x40 MLOAD DUP1 SWAP2 SUB SWAP1 RETURN JUMPDEST CALLVALUE DUP1 ISZERO PUSH2 0x338 JUMPI PUSH0 DUP1 REVERT JUMPDEST POP PUSH2 0x353 PUSH1 0x4 DUP1 CALLDATASIZE SUB DUP2 ADD SWAP1 PUSH2 0x34E SWAP2 SWAP1 PUSH2 0x146D JUMP JUMPDEST PUSH2 0xEB0 JUMP JUMPDEST PUSH1 0x40 MLOAD PUSH2 0x360 SWAP2 SWAP1 PUSH2 0x152E JUMP JUMPDEST PUSH1 0x40 MLOAD DUP1 SWAP2 SUB SWAP1 RETURN JUMPDEST CALLVALUE DUP1 ISZERO PUSH2 0x374 JUMPI PUSH0 DUP1 REVERT JUMPDEST POP PUSH2 0x38F PUSH1 0x4 DUP1 CALLDATASIZE SUB DUP2 ADD SWAP1 PUSH2 0x38A SWAP2 SWAP1 PUSH2 0x11A3 JUMP JUMPDEST PUSH2 0x102A JUMP JUMPDEST PUSH1 0x40 MLOAD PUSH2 0x39C SWAP2 SWAP1 PUSH2 0x155D JUMP JUMPDEST PUSH1 0x40 MLOAD DUP1 SWAP2 SUB SWAP1 RETURN JUMPDEST CALLVALUE DUP1 ISZERO PUSH2 0x3B0 JUMPI PUSH0 DUP1 REVERT JUMPDEST POP PUSH2 0x3B9 PUSH2 0x1047 JUMP JUMPDEST PUSH1 0x40 MLOAD PUSH2 0x3C6 SWAP2 SWAP1 PUSH2 0x1585 JUMP JUMPDEST PUSH1 0x40 MLOAD DUP1 SWAP2 SUB SWAP1 RETURN JUMPDEST PUSH0 DUP1 PUSH1 0x2 PUSH0 SWAP1 SLOAD SWAP1 PUSH2 0x100 EXP SWAP1 DIV PUSH20 0xFFFFFFFFFFFFFFFFFFFFFFFFFFFFFFFFFFFFFFFF AND SWAP1 POP PUSH0 PUSH20 0xFFFFFFFFFFFFFFFFFFFFFFFFFFFFFFFFFFFFFFFF AND DUP2 PUSH20 0xFFFFFFFFFFFFFFFFFFFFFFFFFFFFFFFFFFFFFFFF AND EQ ISZERO DUP1 ISZERO PUSH2 0x4A5 JUMPI POP DUP1 PUSH20 0xFFFFFFFFFFFFFFFFFFFFFFFFFFFFFFFFFFFFFFFF AND PUSH4 0x25B50934 DUP5 PUSH1 0x40 MLOAD DUP3 PUSH4 0xFFFFFFFF AND PUSH1 0xE0 SHL DUP2 MSTORE PUSH1 0x4 ADD PUSH2 0x465 SWAP2 SWAP1 PUSH2 0x15AD JUMP JUMPDEST PUSH1 0x20 PUSH1 0x40 MLOAD DUP1 DUP4 SUB DUP2 DUP7 GAS STATICCALL ISZERO DUP1 ISZERO PUSH2 0x480 JUMPI RETURNDATASIZE PUSH0 DUP1 RETURNDATACOPY RETURNDATASIZE PUSH0 REVERT JUMPDEST POP POP POP POP PUSH1 0x40 MLOAD RETURNDATASIZE PUSH1 0x1F NOT PUSH1 0x1F DUP3 ADD AND DUP3 ADD DUP1 PUSH1 0x40 MSTORE POP DUP2 ADD SWAP1 PUSH2 0x4A4 SWAP2 SWAP1 PUSH2 0x15DA JUMP JUMPDEST JUMPDEST ISZERO PUSH2 0x4B3 JUMPI DUP1 SWAP2 POP POP PUSH2 0x4B8 JUMP JUMPDEST PUSH0 SWAP2 POP POP JUMPDEST SWAP2 SWAP1 POP JUMP JUMPDEST PUSH1 0x1 PUSH0 CALLER PUSH20 0xFFFFFFFFFFFFFFFFFFFFFFFFFFFFFFFFFFFFFFFF AND PUSH20 0xFFFFFFFFFFFFFFFFFFFFFFFFFFFFFFFFFFFFFFFF AND DUP2 MSTORE PUSH1 0x20 ADD SWAP1 DUP2 MSTORE PUSH1 0x20 ADD PUSH0 KECCAK256 PUSH0 SWAP1 SLOAD SWAP1 PUSH2 0x100 EXP SWAP1 DIV PUSH1 0xFF AND PUSH2 0x546 JUMPI PUSH1 0x40 MLOAD PUSH32 0x8C379A000000000000000000000000000000000000000000000000000000000 DUP2 MSTORE PUSH1 0x4 ADD PUSH2 0x53D SWAP1 PUSH2 0x164F JUMP JUMPDEST PUSH1 0x40 MLOAD DUP1 SWAP2 SUB SWAP1 REVERT JUMPDEST PUSH0 PUSH20 0xFFFFFFFFFFFFFFFFFFFFFFFFFFFFFFFFFFFFFFFF AND DUP2 PUSH20 0xFFFFFFFFFFFFFFFFFFFFFFFFFFFFFFFFFFFFFFFF AND SUB PUSH2 0x5B4 JUMPI PUSH1 0x40 MLOAD PUSH32 0x8C379A000000000000000000000000000000000000000000000000000000000 DUP2 MSTORE PUSH1 0x4 ADD PUSH2 0x5AB SWAP1 PUSH2 0x16B7 JUMP JUMPDEST PUSH1 0x40 MLOAD DUP1 SWAP2 SUB SWAP1 REVERT JUMPDEST DUP1 PUSH0 DUP1 PUSH2 0x100 EXP DUP2 SLOAD DUP2 PUSH20 0xFFFFFFFFFFFFFFFFFFFFFFFFFFFFFFFFFFFFFFFF MUL NOT AND SWAP1 DUP4 PUSH20 0xFFFFFFFFFFFFFFFFFFFFFFFFFFFFFFFFFFFFFFFF AND MUL OR SWAP1 SSTORE POP PUSH32 0xA2EA9883A321A3E97B8266C2B078BFEEC6D50C711ED71F874A90D500AE2EAF36 DUP2 PUSH1 0x40 MLOAD PUSH2 0x622 SWAP2 SWAP1 PUSH2 0x13CC JUMP JUMPDEST PUSH1 0x40 MLOAD DUP1 SWAP2 SUB SWAP1 LOG1 POP JUMP JUMPDEST PUSH1 0x1 PUSH0 CALLER PUSH20 0xFFFFFFFFFFFFFFFFFFFFFFFFFFFFFFFFFFFFFFFF AND PUSH20 0xFFFFFFFFFFFFFFFFFFFFFFFFFFFFFFFFFFFFFFFF AND DUP2 MSTORE PUSH1 0x20 ADD SWAP1 DUP2 MSTORE PUSH1 0x20 ADD PUSH0 KECCAK256 PUSH0 SWAP1 SLOAD SWAP1 PUSH2 0x100 EXP SWAP1 DIV PUSH1 0xFF AND PUSH2 0x6B6 JUMPI PUSH1 0x40 MLOAD PUSH32 0x8C379A000000000000000000000000000000000000000000000000000000000 DUP2 MSTORE PUSH1 0x4 ADD PUSH2 0x6AD SWAP1 PUSH2 0x164F JUMP JUMPDEST PUSH1 0x40 MLOAD DUP1 SWAP2 SUB SWAP1 REVERT JUMPDEST DUP2 PUSH20 0xFFFFFFFFFFFFFFFFFFFFFFFFFFFFFFFFFFFFFFFF AND PUSH1 0x2 PUSH0 SWAP1 SLOAD SWAP1 PUSH2 0x100 EXP SWAP1 DIV PUSH20 0xFFFFFFFFFFFFFFFFFFFFFFFFFFFFFFFFFFFFFFFF AND PUSH20 0xFFFFFFFFFFFFFFFFFFFFFFFFFFFFFFFFFFFFFFFF AND EQ PUSH2 0x7D4 JUMPI PUSH1 0x1 PUSH0 DUP4 PUSH20 0xFFFFFFFFFFFFFFFFFFFFFFFFFFFFFFFFFFFFFFFF AND PUSH20 0xFFFFFFFFFFFFFFFFFFFFFFFFFFFFFFFFFFFFFFFF AND DUP2 MSTORE PUSH1 0x20 ADD SWAP1 DUP2 MSTORE PUSH1 0x20 ADD PUSH0 KECCAK256 PUSH0 SWAP1 SLOAD SWAP1 PUSH2 0x100 EXP SWAP1 DIV PUSH1 0xFF AND PUSH2 0x793 JUMPI PUSH1 0x40 MLOAD PUSH32 0x8C379A000000000000000000000000000000000000000000000000000000000 DUP2 MSTORE PUSH1 0x4 ADD PUSH2 0x78A SWAP1 PUSH2 0x171F JUMP JUMPDEST PUSH1 0x40 MLOAD DUP1 SWAP2 SUB SWAP1 REVERT JUMPDEST DUP2 PUSH1 0x2 PUSH0 PUSH2 0x100 EXP DUP2 SLOAD DUP2 PUSH20 0xFFFFFFFFFFFFFFFFFFFFFFFFFFFFFFFFFFFFFFFF MUL NOT AND SWAP1 DUP4 PUSH20 0xFFFFFFFFFFFFFFFFFFFFFFFFFFFFFFFFFFFFFFFF AND MUL OR SWAP1 SSTORE POP JUMPDEST POP POP JUMP JUMPDEST PUSH1 0x1 PUSH0 CALLER PUSH20 0xFFFFFFFFFFFFFFFFFFFFFFFFFFFFFFFFFFFFFFFF AND PUSH20 0xFFFFFFFFFFFFFFFFFFFFFFFFFFFFFFFFFFFFFFFF AND DUP2 MSTORE PUSH1 0x20 ADD SWAP1 DUP2 MSTORE PUSH1 0x20 ADD PUSH0 KECCAK256 PUSH0 SWAP1 SLOAD SWAP1 PUSH2 0x100 EXP SWAP1 DIV PUSH1 0xFF AND PUSH2 0x861 JUMPI PUSH1 0x40 MLOAD PUSH32 0x8C379A000000000000000000000000000000000000000000000000000000000 DUP2 MSTORE PUSH1 0x4 ADD PUSH2 0x858 SWAP1 PUSH2 0x164F JUMP JUMPDEST PUSH1 0x40 MLOAD DUP1 SWAP2 SUB SWAP1 REVERT JUMPDEST DUP1 ISZERO ISZERO PUSH1 0x1 PUSH0 DUP5 PUSH20 0xFFFFFFFFFFFFFFFFFFFFFFFFFFFFFFFFFFFFFFFF AND PUSH20 0xFFFFFFFFFFFFFFFFFFFFFFFFFFFFFFFFFFFFFFFF AND DUP2 MSTORE PUSH1 0x20 ADD SWAP1 DUP2 MSTORE PUSH1 0x20 ADD PUSH0 KECCAK256 PUSH0 SWAP1 SLOAD SWAP1 PUSH2 0x100 EXP SWAP1 DIV PUSH1 0xFF AND ISZERO ISZERO EQ PUSH2 0xA92 JUMPI DUP2 PUSH20 0xFFFFFFFFFFFFFFFFFFFFFFFFFFFFFFFFFFFFFFFF AND PUSH32 0x8DA3FF870AE294081392139550E167F1F31F277F22015EE22FBFFDBD7758F4E1 DUP3 PUSH1 0x40 MLOAD PUSH2 0x8FB SWAP2 SWAP1 PUSH2 0x155D JUMP JUMPDEST PUSH1 0x40 MLOAD DUP1 SWAP2 SUB SWAP1 LOG2 PUSH1 0x1 ISZERO ISZERO DUP2 ISZERO ISZERO SUB PUSH2 0x9E7 JUMPI PUSH1 0x1 PUSH1 0x3 PUSH0 DUP3 DUP3 SLOAD PUSH2 0x921 SWAP2 SWAP1 PUSH2 0x176A JUMP JUMPDEST SWAP3 POP POP DUP2 SWAP1 SSTORE POP PUSH1 0x1 DUP1 PUSH0 DUP5 PUSH20 0xFFFFFFFFFFFFFFFFFFFFFFFFFFFFFFFFFFFFFFFF AND PUSH20 0xFFFFFFFFFFFFFFFFFFFFFFFFFFFFFFFFFFFFFFFF AND DUP2 MSTORE PUSH1 0x20 ADD SWAP1 DUP2 MSTORE PUSH1 0x20 ADD PUSH0 KECCAK256 PUSH0 PUSH2 0x100 EXP DUP2 SLOAD DUP2 PUSH1 0xFF MUL NOT AND SWAP1 DUP4 ISZERO ISZERO MUL OR SWAP1 SSTORE POP DUP2 PUSH20 0xFFFFFFFFFFFFFFFFFFFFFFFFFFFFFFFFFFFFFFFF AND PUSH4 0x19AB453C ADDRESS PUSH1 0x40 MLOAD DUP3 PUSH4 0xFFFFFFFF AND PUSH1 0xE0 SHL DUP2 MSTORE PUSH1 0x4 ADD PUSH2 0x9B5 SWAP2 SWAP1 PUSH2 0x13CC JUMP JUMPDEST PUSH0 PUSH1 0x40 MLOAD DUP1 DUP4 SUB DUP2 PUSH0 DUP8 DUP1 EXTCODESIZE ISZERO DUP1 ISZERO PUSH2 0x9CC JUMPI PUSH0 DUP1 REVERT JUMPDEST POP GAS CALL ISZERO DUP1 ISZERO PUSH2 0x9DE JUMPI RETURNDATASIZE PUSH0 DUP1 RETURNDATACOPY RETURNDATASIZE PUSH0 REVERT JUMPDEST POP POP POP POP PUSH2 0xA91 JUMP JUMPDEST PUSH1 0x1 PUSH1 0x3 PUSH0 DUP3 DUP3 SLOAD PUSH2 0x9F9 SWAP2 SWAP1 PUSH2 0x179D JUMP JUMPDEST SWAP3 POP POP DUP2 SWAP1 SSTORE POP PUSH0 PUSH1 0x3 SLOAD GT PUSH2 0xA44 JUMPI PUSH1 0x40 MLOAD PUSH32 0x8C379A000000000000000000000000000000000000000000000000000000000 DUP2 MSTORE PUSH1 0x4 ADD PUSH2 0xA3B SWAP1 PUSH2 0x181A JUMP JUMPDEST PUSH1 0x40 MLOAD DUP1 SWAP2 SUB SWAP1 REVERT JUMPDEST PUSH1 0x1 PUSH0 DUP4 PUSH20 0xFFFFFFFFFFFFFFFFFFFFFFFFFFFFFFFFFFFFFFFF AND PUSH20 0xFFFFFFFFFFFFFFFFFFFFFFFFFFFFFFFFFFFFFFFF AND DUP2 MSTORE PUSH1 0x20 ADD SWAP1 DUP2 MSTORE PUSH1 0x20 ADD PUSH0 KECCAK256 PUSH0 PUSH2 0x100 EXP DUP2 SLOAD SWAP1 PUSH1 0xFF MUL NOT AND SWAP1 SSTORE JUMPDEST JUMPDEST POP POP JUMP JUMPDEST PUSH0 PUSH20 0xFFFFFFFFFFFFFFFFFFFFFFFFFFFFFFFFFFFFFFFF AND PUSH0 DUP1 SLOAD SWAP1 PUSH2 0x100 EXP SWAP1 DIV PUSH20 0xFFFFFFFFFFFFFFFFFFFFFFFFFFFFFFFFFFFFFFFF AND PUSH20 0xFFFFFFFFFFFFFFFFFFFFFFFFFFFFFFFFFFFFFFFF AND EQ DUP1 ISZERO PUSH2 0xAF1 JUMPI POP PUSH0 PUSH1 0x3 SLOAD EQ JUMPDEST PUSH2 0xB30 JUMPI PUSH1 0x40 MLOAD PUSH32 0x8C379A000000000000000000000000000000000000000000000000000000000 DUP2 MSTORE PUSH1 0x4 ADD PUSH2 0xB27 SWAP1 PUSH2 0x1882 JUMP JUMPDEST PUSH1 0x40 MLOAD DUP1 SWAP2 SUB SWAP1 REVERT JUMPDEST PUSH0 DUP3 DUP3 SWAP1 POP GT PUSH2 0xB75 JUMPI PUSH1 0x40 MLOAD PUSH32 0x8C379A000000000000000000000000000000000000000000000000000000000 DUP2 MSTORE PUSH1 0x4 ADD PUSH2 0xB6C SWAP1 PUSH2 0x18EA JUMP JUMPDEST PUSH1 0x40 MLOAD DUP1 SWAP2 SUB SWAP1 REVERT JUMPDEST DUP3 PUSH0 DUP1 PUSH2 0x100 EXP DUP2 SLOAD DUP2 PUSH20 0xFFFFFFFFFFFFFFFFFFFFFFFFFFFFFFFFFFFFFFFF MUL NOT AND SWAP1 DUP4 PUSH20 0xFFFFFFFFFFFFFFFFFFFFFFFFFFFFFFFFFFFFFFFF AND MUL OR SWAP1 SSTORE POP DUP2 DUP2 SWAP1 POP PUSH1 0x3 DUP2 SWAP1 SSTORE POP PUSH0 JUMPDEST DUP3 DUP3 SWAP1 POP DUP2 LT ISZERO PUSH2 0xE0C JUMPI PUSH0 ISZERO ISZERO PUSH1 0x1 PUSH0 DUP6 DUP6 DUP6 DUP2 DUP2 LT PUSH2 0xBE4 JUMPI PUSH2 0xBE3 PUSH2 0x1908 JUMP JUMPDEST JUMPDEST SWAP1 POP PUSH1 0x20 MUL ADD PUSH1 0x20 DUP2 ADD SWAP1 PUSH2 0xBF9 SWAP2 SWAP1 PUSH2 0x11A3 JUMP JUMPDEST PUSH20 0xFFFFFFFFFFFFFFFFFFFFFFFFFFFFFFFFFFFFFFFF AND PUSH20 0xFFFFFFFFFFFFFFFFFFFFFFFFFFFFFFFFFFFFFFFF AND DUP2 MSTORE PUSH1 0x20 ADD SWAP1 DUP2 MSTORE PUSH1 0x20 ADD PUSH0 KECCAK256 PUSH0 SWAP1 SLOAD SWAP1 PUSH2 0x100 EXP SWAP1 DIV PUSH1 0xFF AND ISZERO ISZERO EQ PUSH2 0xC81 JUMPI PUSH1 0x40 MLOAD PUSH32 0x8C379A000000000000000000000000000000000000000000000000000000000 DUP2 MSTORE PUSH1 0x4 ADD PUSH2 0xC78 SWAP1 PUSH2 0x197F JUMP JUMPDEST PUSH1 0x40 MLOAD DUP1 SWAP2 SUB SWAP1 REVERT JUMPDEST PUSH1 0x1 DUP1 PUSH0 DUP6 DUP6 DUP6 DUP2 DUP2 LT PUSH2 0xC98 JUMPI PUSH2 0xC97 PUSH2 0x1908 JUMP JUMPDEST JUMPDEST SWAP1 POP PUSH1 0x20 MUL ADD PUSH1 0x20 DUP2 ADD SWAP1 PUSH2 0xCAD SWAP2 SWAP1 PUSH2 0x11A3 JUMP JUMPDEST PUSH20 0xFFFFFFFFFFFFFFFFFFFFFFFFFFFFFFFFFFFFFFFF AND PUSH20 0xFFFFFFFFFFFFFFFFFFFFFFFFFFFFFFFFFFFFFFFF AND DUP2 MSTORE PUSH1 0x20 ADD SWAP1 DUP2 MSTORE PUSH1 0x20 ADD PUSH0 KECCAK256 PUSH0 PUSH2 0x100 EXP DUP2 SLOAD DUP2 PUSH1 0xFF MUL NOT AND SWAP1 DUP4 ISZERO ISZERO MUL OR SWAP1 SSTORE POP DUP3 DUP3 DUP3 DUP2 DUP2 LT PUSH2 0xD0F JUMPI PUSH2 0xD0E PUSH2 0x1908 JUMP JUMPDEST JUMPDEST SWAP1 POP PUSH1 0x20 MUL ADD PUSH1 0x20 DUP2 ADD SWAP1 PUSH2 0xD24 SWAP2 SWAP1 PUSH2 0x11A3 JUMP JUMPDEST PUSH20 0xFFFFFFFFFFFFFFFFFFFFFFFFFFFFFFFFFFFFFFFF AND PUSH4 0x19AB453C ADDRESS PUSH1 0x40 MLOAD DUP3 PUSH4 0xFFFFFFFF AND PUSH1 0xE0 SHL DUP2 MSTORE PUSH1 0x4 ADD PUSH2 0xD5C SWAP2 SWAP1 PUSH2 0x13CC JUMP JUMPDEST PUSH0 PUSH1 0x40 MLOAD DUP1 DUP4 SUB DUP2 PUSH0 DUP8 DUP1 EXTCODESIZE ISZERO DUP1 ISZERO PUSH2 0xD73 JUMPI PUSH0 DUP1 REVERT JUMPDEST POP GAS CALL ISZERO DUP1 ISZERO PUSH2 0xD85 JUMPI RETURNDATASIZE PUSH0 DUP1 RETURNDATACOPY RETURNDATASIZE PUSH0 REVERT JUMPDEST POP POP POP POP DUP3 DUP3 DUP3 DUP2 DUP2 LT PUSH2 0xD9C JUMPI PUSH2 0xD9B PUSH2 0x1908 JUMP JUMPDEST JUMPDEST SWAP1 POP PUSH1 0x20 MUL ADD PUSH1 0x20 DUP2 ADD SWAP1 PUSH2 0xDB1 SWAP2 SWAP1 PUSH2 0x11A3 JUMP JUMPDEST PUSH20 0xFFFFFFFFFFFFFFFFFFFFFFFFFFFFFFFFFFFFFFFF AND PUSH32 0x8DA3FF870AE294081392139550E167F1F31F277F22015EE22FBFFDBD7758F4E1 PUSH1 0x1 PUSH1 0x40 MLOAD PUSH2 0xDF7 SWAP2 SWAP1 PUSH2 0x155D JUMP JUMPDEST PUSH1 0x40 MLOAD DUP1 SWAP2 SUB SWAP1 LOG2 DUP1 DUP1 PUSH1 0x1 ADD SWAP2 POP POP PUSH2 0xBC0 JUMP JUMPDEST POP PUSH0 SELFBALANCE GT ISZERO PUSH2 0xE63 JUMPI PUSH0 PUSH20 0xFFFFFFFFFFFFFFFFFFFFFFFFFFFFFFFFFFFFFFFF AND SELFBALANCE PUSH32 0x606834F57405380C4FB88D1F4850326AD3885F014BAB3B568DFBF7A041EEF738 PUSH1 0x40 MLOAD PUSH2 0xE5A SWAP1 PUSH2 0x19C0 JUMP JUMPDEST PUSH1 0x40 MLOAD DUP1 SWAP2 SUB SWAP1 LOG3 JUMPDEST POP POP POP JUMP JUMPDEST PUSH1 0x2 PUSH0 SWAP1 SLOAD SWAP1 PUSH2 0x100 EXP SWAP1 DIV PUSH20 0xFFFFFFFFFFFFFFFFFFFFFFFFFFFFFFFFFFFFFFFF AND DUP2 JUMP JUMPDEST PUSH0 DUP1 SLOAD SWAP1 PUSH2 0x100 EXP SWAP1 DIV PUSH20 0xFFFFFFFFFFFFFFFFFFFFFFFFFFFFFFFFFFFFFFFF AND DUP2 JUMP JUMPDEST PUSH1 0x60 PUSH1 0x1 PUSH0 CALLER PUSH20 0xFFFFFFFFFFFFFFFFFFFFFFFFFFFFFFFFFFFFFFFF AND PUSH20 0xFFFFFFFFFFFFFFFFFFFFFFFFFFFFFFFFFFFFFFFF AND DUP2 MSTORE PUSH1 0x20 ADD SWAP1 DUP2 MSTORE PUSH1 0x20 ADD PUSH0 KECCAK256 PUSH0 SWAP1 SLOAD SWAP1 PUSH2 0x100 EXP SWAP1 DIV PUSH1 0xFF AND PUSH2 0xF3B JUMPI PUSH1 0x40 MLOAD PUSH32 0x8C379A000000000000000000000000000000000000000000000000000000000 DUP2 MSTORE PUSH1 0x4 ADD PUSH2 0xF32 SWAP1 PUSH2 0x164F JUMP JUMPDEST PUSH1 0x40 MLOAD DUP1 SWAP2 SUB SWAP1 REVERT JUMPDEST PUSH0 DUP6 PUSH20 0xFFFFFFFFFFFFFFFFFFFFFFFFFFFFFFFFFFFFFFFF AND DUP6 DUP6 DUP6 PUSH1 0x40 MLOAD PUSH2 0xF64 SWAP3 SWAP2 SWAP1 PUSH2 0x1A0C JUMP JUMPDEST PUSH0 PUSH1 0x40 MLOAD DUP1 DUP4 SUB DUP2 DUP6 DUP8 GAS CALL SWAP3 POP POP POP RETURNDATASIZE DUP1 PUSH0 DUP2 EQ PUSH2 0xF9E JUMPI PUSH1 0x40 MLOAD SWAP2 POP PUSH1 0x1F NOT PUSH1 0x3F RETURNDATASIZE ADD AND DUP3 ADD PUSH1 0x40 MSTORE RETURNDATASIZE DUP3 MSTORE RETURNDATASIZE PUSH0 PUSH1 0x20 DUP5 ADD RETURNDATACOPY PUSH2 0xFA3 JUMP JUMPDEST PUSH1 0x60 SWAP2 POP JUMPDEST POP DUP1 SWAP4 POP DUP2 SWAP3 POP POP POP DUP1 PUSH2 0xFB9 JUMPI RETURNDATASIZE PUSH0 DUP1 RETURNDATACOPY RETURNDATASIZE PUSH0 REVERT JUMPDEST DUP5 DUP7 PUSH20 0xFFFFFFFFFFFFFFFFFFFFFFFFFFFFFFFFFFFFFFFF AND CALLER PUSH20 0xFFFFFFFFFFFFFFFFFFFFFFFFFFFFFFFFFFFFFFFF AND PUSH32 0x7D2476AB50663F025CFF0BE85655BCF355F62768615C0C478F3CD5293F807365 DUP8 DUP8 PUSH1 0x40 MLOAD PUSH2 0x1019 SWAP3 SWAP2 SWAP1 PUSH2 0x10A7 JUMP JUMPDEST PUSH1 0x40 MLOAD DUP1 SWAP2 SUB SWAP1 LOG4 POP SWAP5 SWAP4 POP POP POP POP JUMP JUMPDEST PUSH1 0x1 PUSH1 0x20 MSTORE DUP1 PUSH0 MSTORE PUSH1 0x40 PUSH0 KECCAK256 PUSH0 SWAP2 POP SLOAD SWAP1 PUSH2 0x100 EXP SWAP1 DIV PUSH1 0xFF AND DUP2 JUMP JUMPDEST PUSH1 0x3 SLOAD DUP2 JUMP JUMPDEST PUSH0 DUP3 DUP3 MSTORE PUSH1 0x20 DUP3 ADD SWAP1 POP SWAP3 SWAP2 POP POP JUMP JUMPDEST DUP3 DUP2 DUP4 CALLDATACOPY PUSH0 DUP4 DUP4 ADD MSTORE POP POP POP JUMP JUMPDEST PUSH0 PUSH1 0x1F NOT PUSH1 0x1F DUP4 ADD AND SWAP1 POP SWAP2 SWAP1 POP JUMP JUMPDEST PUSH0 PUSH2 0x1086 DUP4 DUP6 PUSH2 0x104D JUMP JUMPDEST SWAP4 POP PUSH2 0x1093 DUP4 DUP6 DUP5 PUSH2 0x105D JUMP JUMPDEST PUSH2 0x109C DUP4 PUSH2 0x106B JUMP JUMPDEST DUP5 ADD SWAP1 POP SWAP4 SWAP3 POP POP POP JUMP JUMPDEST PUSH0 PUSH1 0x20 DUP3 ADD SWAP1 POP DUP2 DUP2 SUB PUSH0 DUP4 ADD MSTORE PUSH2 0x10C0 DUP2 DUP5 DUP7 PUSH2 0x107B JUMP JUMPDEST SWAP1 POP SWAP4 SWAP3 POP POP POP JUMP JUMPDEST PUSH0 DUP3 DUP3 MSTORE PUSH1 0x20 DUP3 ADD SWAP1 POP SWAP3 SWAP2 POP POP JUMP JUMPDEST PUSH32 0x42573A20756E617574686F7269736564206D6F64756C65000000000000000000 PUSH0 DUP3 ADD MSTORE POP JUMP JUMPDEST PUSH0 PUSH2 0x110D PUSH1 0x17 DUP4 PUSH2 0x10C9 JUMP JUMPDEST SWAP2 POP PUSH2 0x1118 DUP3 PUSH2 0x10D9 JUMP JUMPDEST PUSH1 0x20 DUP3 ADD SWAP1 POP SWAP2 SWAP1 POP JUMP JUMPDEST PUSH0 PUSH1 0x20 DUP3 ADD SWAP1 POP DUP2 DUP2 SUB PUSH0 DUP4 ADD MSTORE PUSH2 0x113A DUP2 PUSH2 0x1101 JUMP JUMPDEST SWAP1 POP SWAP2 SWAP1 POP JUMP JUMPDEST PUSH0 DUP1 REVERT JUMPDEST PUSH0 DUP1 REVERT JUMPDEST PUSH0 PUSH20 0xFFFFFFFFFFFFFFFFFFFFFFFFFFFFFFFFFFFFFFFF DUP3 AND SWAP1 POP SWAP2 SWAP1 POP JUMP JUMPDEST PUSH0 PUSH2 0x1172 DUP3 PUSH2 0x1149 JUMP JUMPDEST SWAP1 POP SWAP2 SWAP1 POP JUMP JUMPDEST PUSH2 0x1182 DUP2 PUSH2 0x1168 JUMP JUMPDEST DUP2 EQ PUSH2 0x118C JUMPI PUSH0 DUP1 REVERT JUMPDEST POP JUMP JUMPDEST PUSH0 DUP2 CALLDATALOAD SWAP1 POP PUSH2 0x119D DUP2 PUSH2 0x1179 JUMP JUMPDEST SWAP3 SWAP2 POP POP JUMP JUMPDEST PUSH0 PUSH1 0x20 DUP3 DUP5 SUB SLT ISZERO PUSH2 0x11B8 JUMPI PUSH2 0x11B7 PUSH2 0x1141 JUMP JUMPDEST JUMPDEST PUSH0 PUSH2 0x11C5 DUP5 DUP3 DUP6 ADD PUSH2 0x118F JUMP JUMPDEST SWAP2 POP POP SWAP3 SWAP2 POP POP JUMP JUMPDEST PUSH0 PUSH32 0xFFFFFFFF00000000000000000000000000000000000000000000000000000000 DUP3 AND SWAP1 POP SWAP2 SWAP1 POP JUMP JUMPDEST PUSH2 0x1202 DUP2 PUSH2 0x11CE JUMP JUMPDEST DUP2 EQ PUSH2 0x120C JUMPI PUSH0 DUP1 REVERT JUMPDEST POP JUMP JUMPDEST PUSH0 DUP2 CALLDATALOAD SWAP1 POP PUSH2 0x121D DUP2 PUSH2 0x11F9 JUMP JUMPDEST SWAP3 SWAP2 POP POP JUMP JUMPDEST PUSH0 DUP1 PUSH1 0x40 DUP4 DUP6 SUB SLT ISZERO PUSH2 0x1239 JUMPI PUSH2 0x1238 PUSH2 0x1141 JUMP JUMPDEST JUMPDEST PUSH0 PUSH2 0x1246 DUP6 DUP3 DUP7 ADD PUSH2 0x118F JUMP JUMPDEST SWAP3 POP POP PUSH1 0x20 PUSH2 0x1257 DUP6 DUP3 DUP7 ADD PUSH2 0x120F JUMP JUMPDEST SWAP2 POP POP SWAP3 POP SWAP3 SWAP1 POP JUMP JUMPDEST PUSH0 DUP2 ISZERO ISZERO SWAP1 POP SWAP2 SWAP1 POP JUMP JUMPDEST PUSH2 0x1275 DUP2 PUSH2 0x1261 JUMP JUMPDEST DUP2 EQ PUSH2 0x127F JUMPI PUSH0 DUP1 REVERT JUMPDEST POP JUMP JUMPDEST PUSH0 DUP2 CALLDATALOAD SWAP1 POP PUSH2 0x1290 DUP2 PUSH2 0x126C JUMP JUMPDEST SWAP3 SWAP2 POP POP JUMP JUMPDEST PUSH0 DUP1 PUSH1 0x40 DUP4 DUP6 SUB SLT ISZERO PUSH2 0x12AC JUMPI PUSH2 0x12AB PUSH2 0x1141 JUMP JUMPDEST JUMPDEST PUSH0 PUSH2 0x12B9 DUP6 DUP3 DUP7 ADD PUSH2 0x118F JUMP JUMPDEST SWAP3 POP POP PUSH1 0x20 PUSH2 0x12CA DUP6 DUP3 DUP7 ADD PUSH2 0x1282 JUMP JUMPDEST SWAP2 POP POP SWAP3 POP SWAP3 SWAP1 POP JUMP JUMPDEST PUSH0 DUP1 REVERT JUMPDEST PUSH0 DUP1 REVERT JUMPDEST PUSH0 DUP1 REVERT JUMPDEST PUSH0 DUP1 DUP4 PUSH1 0x1F DUP5 ADD SLT PUSH2 0x12F5 JUMPI PUSH2 0x12F4 PUSH2 0x12D4 JUMP JUMPDEST JUMPDEST DUP3 CALLDATALOAD SWAP1 POP PUSH8 0xFFFFFFFFFFFFFFFF DUP2 GT ISZERO PUSH2 0x1312 JUMPI PUSH2 0x1311 PUSH2 0x12D8 JUMP JUMPDEST JUMPDEST PUSH1 0x20 DUP4 ADD SWAP2 POP DUP4 PUSH1 0x20 DUP3 MUL DUP4 ADD GT ISZERO PUSH2 0x132E JUMPI PUSH2 0x132D PUSH2 0x12DC JUMP JUMPDEST JUMPDEST SWAP3 POP SWAP3 SWAP1 POP JUMP JUMPDEST PUSH0 DUP1 PUSH0 PUSH1 0x40 DUP5 DUP7 SUB SLT ISZERO PUSH2 0x134C JUMPI PUSH2 0x134B PUSH2 0x1141 JUMP JUMPDEST JUMPDEST PUSH0 PUSH2 0x1359 DUP7 DUP3 DUP8 ADD PUSH2 0x118F JUMP JUMPDEST SWAP4 POP POP PUSH1 0x20 DUP5 ADD CALLDATALOAD PUSH8 0xFFFFFFFFFFFFFFFF DUP2 GT ISZERO PUSH2 0x137A JUMPI PUSH2 0x1379 PUSH2 0x1145 JUMP JUMPDEST JUMPDEST PUSH2 0x1386 DUP7 DUP3 DUP8 ADD PUSH2 0x12E0 JUMP JUMPDEST SWAP3 POP SWAP3 POP POP SWAP3 POP SWAP3 POP SWAP3 JUMP JUMPDEST PUSH0 PUSH1 0x20 DUP3 DUP5 SUB SLT ISZERO PUSH2 0x13A7 JUMPI PUSH2 0x13A6 PUSH2 0x1141 JUMP JUMPDEST JUMPDEST PUSH0 PUSH2 0x13B4 DUP5 DUP3 DUP6 ADD PUSH2 0x120F JUMP JUMPDEST SWAP2 POP POP SWAP3 SWAP2 POP POP JUMP JUMPDEST PUSH2 0x13C6 DUP2 PUSH2 0x1168 JUMP JUMPDEST DUP3 MSTORE POP POP JUMP JUMPDEST PUSH0 PUSH1 0x20 DUP3 ADD SWAP1 POP PUSH2 0x13DF PUSH0 DUP4 ADD DUP5 PUSH2 0x13BD JUMP JUMPDEST SWAP3 SWAP2 POP POP JUMP JUMPDEST PUSH0 DUP2 SWAP1 POP SWAP2 SWAP1 POP JUMP JUMPDEST PUSH2 0x13F7 DUP2 PUSH2 0x13E5 JUMP JUMPDEST DUP2 EQ PUSH2 0x1401 JUMPI PUSH0 DUP1 REVERT JUMPDEST POP JUMP JUMPDEST PUSH0 DUP2 CALLDATALOAD SWAP1 POP PUSH2 0x1412 DUP2 PUSH2 0x13EE JUMP JUMPDEST SWAP3 SWAP2 POP POP JUMP JUMPDEST PUSH0 DUP1 DUP4 PUSH1 0x1F DUP5 ADD SLT PUSH2 0x142D JUMPI PUSH2 0x142C PUSH2 0x12D4 JUMP JUMPDEST JUMPDEST DUP3 CALLDATALOAD SWAP1 POP PUSH8 0xFFFFFFFFFFFFFFFF DUP2 GT ISZERO PUSH2 0x144A JUMPI PUSH2 0x1449 PUSH2 0x12D8 JUMP JUMPDEST JUMPDEST PUSH1 0x20 DUP4 ADD SWAP2 POP DUP4 PUSH1 0x1 DUP3 MUL DUP4 ADD GT ISZERO PUSH2 0x1466 JUMPI PUSH2 0x1465 PUSH2 0x12DC JUMP JUMPDEST JUMPDEST SWAP3 POP SWAP3 SWAP1 POP JUMP JUMPDEST PUSH0 DUP1 PUSH0 DUP1 PUSH1 0x60 DUP6 DUP8 SUB SLT ISZERO PUSH2 0x1485 JUMPI PUSH2 0x1484 PUSH2 0x1141 JUMP JUMPDEST JUMPDEST PUSH0 PUSH2 0x1492 DUP8 DUP3 DUP9 ADD PUSH2 0x118F JUMP JUMPDEST SWAP5 POP POP PUSH1 0x20 PUSH2 0x14A3 DUP8 DUP3 DUP9 ADD PUSH2 0x1404 JUMP JUMPDEST SWAP4 POP POP PUSH1 0x40 DUP6 ADD CALLDATALOAD PUSH8 0xFFFFFFFFFFFFFFFF DUP2 GT ISZERO PUSH2 0x14C4 JUMPI PUSH2 0x14C3 PUSH2 0x1145 JUMP JUMPDEST JUMPDEST PUSH2 0x14D0 DUP8 DUP3 DUP9 ADD PUSH2 0x1418 JUMP JUMPDEST SWAP3 POP SWAP3 POP POP SWAP3 SWAP6 SWAP2 SWAP5 POP SWAP3 POP JUMP JUMPDEST PUSH0 DUP2 MLOAD SWAP1 POP SWAP2 SWAP1 POP JUMP JUMPDEST DUP3 DUP2 DUP4 MCOPY PUSH0 DUP4 DUP4 ADD MSTORE POP POP POP JUMP JUMPDEST PUSH0 PUSH2 0x1500 DUP3 PUSH2 0x14DE JUMP JUMPDEST PUSH2 0x150A DUP2 DUP6 PUSH2 0x104D JUMP JUMPDEST SWAP4 POP PUSH2 0x151A DUP2 DUP6 PUSH1 0x20 DUP7 ADD PUSH2 0x14E8 JUMP JUMPDEST PUSH2 0x1523 DUP2 PUSH2 0x106B JUMP JUMPDEST DUP5 ADD SWAP2 POP POP SWAP3 SWAP2 POP POP JUMP JUMPDEST PUSH0 PUSH1 0x20 DUP3 ADD SWAP1 POP DUP2 DUP2 SUB PUSH0 DUP4 ADD MSTORE PUSH2 0x1546 DUP2 DUP5 PUSH2 0x14F6 JUMP JUMPDEST SWAP1 POP SWAP3 SWAP2 POP POP JUMP JUMPDEST PUSH2 0x1557 DUP2 PUSH2 0x1261 JUMP JUMPDEST DUP3 MSTORE POP POP JUMP JUMPDEST PUSH0 PUSH1 0x20 DUP3 ADD SWAP1 POP PUSH2 0x1570 PUSH0 DUP4 ADD DUP5 PUSH2 0x154E JUMP JUMPDEST SWAP3 SWAP2 POP POP JUMP JUMPDEST PUSH2 0x157F DUP2 PUSH2 0x13E5 JUMP JUMPDEST DUP3 MSTORE POP POP JUMP JUMPDEST PUSH0 PUSH1 0x20 DUP3 ADD SWAP1 POP PUSH2 0x1598 PUSH0 DUP4 ADD DUP5 PUSH2 0x1576 JUMP JUMPDEST SWAP3 SWAP2 POP POP JUMP JUMPDEST PUSH2 0x15A7 DUP2 PUSH2 0x11CE JUMP JUMPDEST DUP3 MSTORE POP POP JUMP JUMPDEST PUSH0 PUSH1 0x20 DUP3 ADD SWAP1 POP PUSH2 0x15C0 PUSH0 DUP4 ADD DUP5 PUSH2 0x159E JUMP JUMPDEST SWAP3 SWAP2 POP POP JUMP JUMPDEST PUSH0 DUP2 MLOAD SWAP1 POP PUSH2 0x15D4 DUP2 PUSH2 0x126C JUMP JUMPDEST SWAP3 SWAP2 POP POP JUMP JUMPDEST PUSH0 PUSH1 0x20 DUP3 DUP5 SUB SLT ISZERO PUSH2 0x15EF JUMPI PUSH2 0x15EE PUSH2 0x1141 JUMP JUMPDEST JUMPDEST PUSH0 PUSH2 0x15FC DUP5 DUP3 DUP6 ADD PUSH2 0x15C6 JUMP JUMPDEST SWAP2 POP POP SWAP3 SWAP2 POP POP JUMP JUMPDEST PUSH32 0x42573A2073656E646572206E6F7420617574686F72697A656400000000000000 PUSH0 DUP3 ADD MSTORE POP JUMP JUMPDEST PUSH0 PUSH2 0x1639 PUSH1 0x19 DUP4 PUSH2 0x10C9 JUMP JUMPDEST SWAP2 POP PUSH2 0x1644 DUP3 PUSH2 0x1605 JUMP JUMPDEST PUSH1 0x20 DUP3 ADD SWAP1 POP SWAP2 SWAP1 POP JUMP JUMPDEST PUSH0 PUSH1 0x20 DUP3 ADD SWAP1 POP DUP2 DUP2 SUB PUSH0 DUP4 ADD MSTORE PUSH2 0x1666 DUP2 PUSH2 0x162D JUMP JUMPDEST SWAP1 POP SWAP2 SWAP1 POP JUMP JUMPDEST PUSH32 0x42573A20616464726573732063616E6E6F74206265206E756C6C000000000000 PUSH0 DUP3 ADD MSTORE POP JUMP JUMPDEST PUSH0 PUSH2 0x16A1 PUSH1 0x1A DUP4 PUSH2 0x10C9 JUMP JUMPDEST SWAP2 POP PUSH2 0x16AC DUP3 PUSH2 0x166D JUMP JUMPDEST PUSH1 0x20 DUP3 ADD SWAP1 POP SWAP2 SWAP1 POP JUMP JUMPDEST PUSH0 PUSH1 0x20 DUP3 ADD SWAP1 POP DUP2 DUP2 SUB PUSH0 DUP4 ADD MSTORE PUSH2 0x16CE DUP2 PUSH2 0x1695 JUMP JUMPDEST SWAP1 POP SWAP2 SWAP1 POP JUMP JUMPDEST PUSH32 0x42573A20756E617574686F72697A6564206578656375746F7200000000000000 PUSH0 DUP3 ADD MSTORE POP JUMP JUMPDEST PUSH0 PUSH2 0x1709 PUSH1 0x19 DUP4 PUSH2 0x10C9 JUMP JUMPDEST SWAP2 POP PUSH2 0x1714 DUP3 PUSH2 0x16D5 JUMP JUMPDEST PUSH1 0x20 DUP3 ADD SWAP1 POP SWAP2 SWAP1 POP JUMP JUMPDEST PUSH0 PUSH1 0x20 DUP3 ADD SWAP1 POP DUP2 DUP2 SUB PUSH0 DUP4 ADD MSTORE PUSH2 0x1736 DUP2 PUSH2 0x16FD JUMP JUMPDEST SWAP1 POP SWAP2 SWAP1 POP JUMP JUMPDEST PUSH32 0x4E487B7100000000000000000000000000000000000000000000000000000000 PUSH0 MSTORE PUSH1 0x11 PUSH1 0x4 MSTORE PUSH1 0x24 PUSH0 REVERT JUMPDEST PUSH0 PUSH2 0x1774 DUP3 PUSH2 0x13E5 JUMP JUMPDEST SWAP2 POP PUSH2 0x177F DUP4 PUSH2 0x13E5 JUMP JUMPDEST SWAP3 POP DUP3 DUP3 ADD SWAP1 POP DUP1 DUP3 GT ISZERO PUSH2 0x1797 JUMPI PUSH2 0x1796 PUSH2 0x173D JUMP JUMPDEST JUMPDEST SWAP3 SWAP2 POP POP JUMP JUMPDEST PUSH0 PUSH2 0x17A7 DUP3 PUSH2 0x13E5 JUMP JUMPDEST SWAP2 POP PUSH2 0x17B2 DUP4 PUSH2 0x13E5 JUMP JUMPDEST SWAP3 POP DUP3 DUP3 SUB SWAP1 POP DUP2 DUP2 GT ISZERO PUSH2 0x17CA JUMPI PUSH2 0x17C9 PUSH2 0x173D JUMP JUMPDEST JUMPDEST SWAP3 SWAP2 POP POP JUMP JUMPDEST PUSH32 0x42573A2063616E6E6F742072656D6F7665206C617374206D6F64756C65000000 PUSH0 DUP3 ADD MSTORE POP JUMP JUMPDEST PUSH0 PUSH2 0x1804 PUSH1 0x1D DUP4 PUSH2 0x10C9 JUMP JUMPDEST SWAP2 POP PUSH2 0x180F DUP3 PUSH2 0x17D0 JUMP JUMPDEST PUSH1 0x20 DUP3 ADD SWAP1 POP SWAP2 SWAP1 POP JUMP JUMPDEST PUSH0 PUSH1 0x20 DUP3 ADD SWAP1 POP DUP2 DUP2 SUB PUSH0 DUP4 ADD MSTORE PUSH2 0x1831 DUP2 PUSH2 0x17F8 JUMP JUMPDEST SWAP1 POP SWAP2 SWAP1 POP JUMP JUMPDEST PUSH32 0x42573A2077616C6C657420616C726561647920696E697469616C697365640000 PUSH0 DUP3 ADD MSTORE POP JUMP JUMPDEST PUSH0 PUSH2 0x186C PUSH1 0x1E DUP4 PUSH2 0x10C9 JUMP JUMPDEST SWAP2 POP PUSH2 0x1877 DUP3 PUSH2 0x1838 JUMP JUMPDEST PUSH1 0x20 DUP3 ADD SWAP1 POP SWAP2 SWAP1 POP JUMP JUMPDEST PUSH0 PUSH1 0x20 DUP3 ADD SWAP1 POP DUP2 DUP2 SUB PUSH0 DUP4 ADD MSTORE PUSH2 0x1899 DUP2 PUSH2 0x1860 JUMP JUMPDEST SWAP1 POP SWAP2 SWAP1 POP JUMP JUMPDEST PUSH32 0x42573A20656D707479206D6F64756C6573000000000000000000000000000000 PUSH0 DUP3 ADD MSTORE POP JUMP JUMPDEST PUSH0 PUSH2 0x18D4 PUSH1 0x11 DUP4 PUSH2 0x10C9 JUMP JUMPDEST SWAP2 POP PUSH2 0x18DF DUP3 PUSH2 0x18A0 JUMP JUMPDEST PUSH1 0x20 DUP3 ADD SWAP1 POP SWAP2 SWAP1 POP JUMP JUMPDEST PUSH0 PUSH1 0x20 DUP3 ADD SWAP1 POP DUP2 DUP2 SUB PUSH0 DUP4 ADD MSTORE PUSH2 0x1901 DUP2 PUSH2 0x18C8 JUMP JUMPDEST SWAP1 POP SWAP2 SWAP1 POP JUMP JUMPDEST PUSH32 0x4E487B7100000000000000000000000000000000000000000000000000000000 PUSH0 MSTORE PUSH1 0x32 PUSH1 0x4 MSTORE PUSH1 0x24 PUSH0 REVERT JUMPDEST PUSH32 0x42573A206D6F64756C6520697320616C72656164792061646465640000000000 PUSH0 DUP3 ADD MSTORE POP JUMP JUMPDEST PUSH0 PUSH2 0x1969 PUSH1 0x1B DUP4 PUSH2 0x10C9 JUMP JUMPDEST SWAP2 POP PUSH2 0x1974 DUP3 PUSH2 0x1935 JUMP JUMPDEST PUSH1 0x20 DUP3 ADD SWAP1 POP SWAP2 SWAP1 POP JUMP JUMPDEST PUSH0 PUSH1 0x20 DUP3 ADD SWAP1 POP DUP2 DUP2 SUB PUSH0 DUP4 ADD MSTORE PUSH2 0x1996 DUP2 PUSH2 0x195D JUMP JUMPDEST SWAP1 POP SWAP2 SWAP1 POP JUMP JUMPDEST POP JUMP JUMPDEST PUSH0 PUSH2 0x19AB PUSH0 DUP4 PUSH2 0x104D JUMP JUMPDEST SWAP2 POP PUSH2 0x19B6 DUP3 PUSH2 0x199D JUMP JUMPDEST PUSH0 DUP3 ADD SWAP1 POP SWAP2 SWAP1 POP JUMP JUMPDEST PUSH0 PUSH1 0x20 DUP3 ADD SWAP1 POP DUP2 DUP2 SUB PUSH0 DUP4 ADD MSTORE PUSH2 0x19D7 DUP2 PUSH2 0x19A0 JUMP JUMPDEST SWAP1 POP SWAP2 SWAP1 POP JUMP JUMPDEST PUSH0 DUP2 SWAP1 POP SWAP3 SWAP2 POP POP JUMP JUMPDEST PUSH0 PUSH2 0x19F3 DUP4 DUP6 PUSH2 0x19DE JUMP JUMPDEST SWAP4 POP PUSH2 0x1A00 DUP4 DUP6 DUP5 PUSH2 0x105D JUMP JUMPDEST DUP3 DUP5 ADD SWAP1 POP SWAP4 SWAP3 POP POP POP JUMP JUMPDEST PUSH0 PUSH2 0x1A18 DUP3 DUP5 DUP7 PUSH2 0x19E8 JUMP JUMPDEST SWAP2 POP DUP2 SWAP1 POP SWAP4 SWAP3 POP POP POP JUMP INVALID LOG2 PUSH5 0x6970667358 0x22 SLT KECCAK256 SWAP13 SWAP5 ISZERO PREVRANDAO 0xC9 0xDB 0x24 SLT MOD 0xAA 0xDA PUSH26 0xF23E92F24A8B8FE22F0ADEAF70D1F29071420CF64736F6C6343 STOP ADDMOD BYTE STOP CALLER "
		},
		"gasEstimates": {
			"creation": {
				"codeDepositCost": "1349200",
				"executionCost": "1401",
				"totalCost": "1350601"
			},
			"external": {
				"": "infinite",
				"authoriseModule(address,bool)": "infinite",
				"authorised(address)": "2899",
				"enableStaticCall(address,bytes4)": "31564",
				"enabled(bytes4)": "infinite",
				"init(address,address[])": "infinite",
				"invoke(address,uint256,bytes)": "infinite",
				"modules()": "2513",
				"owner()": "2527",
				"setOwner(address)": "infinite",
				"staticCallExecutor()": "2508"
			}
		},
		"methodIdentifiers": {
			"authoriseModule(address,bool)": "1f17732d",
			"authorised(address)": "d6eb1bbf",
			"enableStaticCall(address,bytes4)": "13da30b2",
			"enabled(bytes4)": "5f54892b",
			"init(address,address[])": "3c5a3cea",
			"invoke(address,uint256,bytes)": "8f6f0332",
			"modules()": "f7e80e98",
			"owner()": "8da5cb5b",
			"setOwner(address)": "13af4035",
			"staticCallExecutor()": "6e474be7"
		}
	},
	"abi": [
		{
			"anonymous": false,
			"inputs": [
				{
					"indexed": true,
					"internalType": "address",
					"name": "module",
					"type": "address"
				},
				{
					"indexed": false,
					"internalType": "bool",
					"name": "value",
					"type": "bool"
				}
			],
			"name": "AuthorisedModule",
			"type": "event"
		},
		{
			"anonymous": false,
			"inputs": [
				{
					"indexed": true,
					"internalType": "address",
					"name": "module",
					"type": "address"
				},
				{
					"indexed": true,
					"internalType": "address",
					"name": "target",
					"type": "address"
				},
				{
					"indexed": true,
					"internalType": "uint256",
					"name": "value",
					"type": "uint256"
				},
				{
					"indexed": false,
					"internalType": "bytes",
					"name": "data",
					"type": "bytes"
				}
			],
			"name": "Invoked",
			"type": "event"
		},
		{
			"anonymous": false,
			"inputs": [
				{
					"indexed": false,
					"internalType": "address",
					"name": "owner",
					"type": "address"
				}
			],
			"name": "OwnerChanged",
			"type": "event"
		},
		{
			"anonymous": false,
			"inputs": [
				{
					"indexed": true,
					"internalType": "uint256",
					"name": "value",
					"type": "uint256"
				},
				{
					"indexed": true,
					"internalType": "address",
					"name": "sender",
					"type": "address"
				},
				{
					"indexed": false,
					"internalType": "bytes",
					"name": "data",
					"type": "bytes"
				}
			],
			"name": "Received",
			"type": "event"
		},
		{
			"stateMutability": "payable",
			"type": "fallback"
		},
		{
			"inputs": [
				{
					"internalType": "address",
					"name": "_module",
					"type": "address"
				},
				{
					"internalType": "bool",
					"name": "_value",
					"type": "bool"
				}
			],
			"name": "authoriseModule",
			"outputs": [],
			"stateMutability": "nonpayable",
			"type": "function"
		},
		{
			"inputs": [
				{
					"internalType": "address",
					"name": "",
					"type": "address"
				}
			],
			"name": "authorised",
			"outputs": [
				{
					"internalType": "bool",
					"name": "",
					"type": "bool"
				}
			],
			"stateMutability": "view",
			"type": "function"
		},
		{
			"inputs": [
				{
					"internalType": "address",
					"name": "_module",
					"type": "address"
				},
				{
					"internalType": "bytes4",
					"name": "",
					"type": "bytes4"
				}
			],
			"name": "enableStaticCall",
			"outputs": [],
			"stateMutability": "nonpayable",
			"type": "function"
		},
		{
			"inputs": [
				{
					"internalType": "bytes4",
					"name": "_sig",
					"type": "bytes4"
				}
			],
			"name": "enabled",
			"outputs": [
				{
					"internalType": "address",
					"name": "",
					"type": "address"
				}
			],
			"stateMutability": "view",
			"type": "function"
		},
		{
			"inputs": [
				{
					"internalType": "address",
					"name": "_owner",
					"type": "address"
				},
				{
					"internalType": "address[]",
					"name": "_modules",
					"type": "address[]"
				}
			],
			"name": "init",
			"outputs": [],
			"stateMutability": "nonpayable",
			"type": "function"
		},
		{
			"inputs": [
				{
					"internalType": "address",
					"name": "_target",
					"type": "address"
				},
				{
					"internalType": "uint256",
					"name": "_value",
					"type": "uint256"
				},
				{
					"internalType": "bytes",
					"name": "_data",
					"type": "bytes"
				}
			],
			"name": "invoke",
			"outputs": [
				{
					"internalType": "bytes",
					"name": "_result",
					"type": "bytes"
				}
			],
			"stateMutability": "nonpayable",
			"type": "function"
		},
		{
			"inputs": [],
			"name": "modules",
			"outputs": [
				{
					"internalType": "uint256",
					"name": "",
					"type": "uint256"
				}
			],
			"stateMutability": "view",
			"type": "function"
		},
		{
			"inputs": [],
			"name": "owner",
			"outputs": [
				{
					"internalType": "address",
					"name": "",
					"type": "address"
				}
			],
			"stateMutability": "view",
			"type": "function"
		},
		{
			"inputs": [
				{
					"internalType": "address",
					"name": "_newOwner",
					"type": "address"
				}
			],
			"name": "setOwner",
			"outputs": [],
			"stateMutability": "nonpayable",
			"type": "function"
		},
		{
			"inputs": [],
			"name": "staticCallExecutor",
			"outputs": [
				{
					"internalType": "address",
					"name": "",
					"type": "address"
				}
			],
			"stateMutability": "view",
			"type": "function"
		},
		{
			"stateMutability": "payable",
			"type": "receive"
		}
	]
}