{
	"contracts/infrastructure/storage/HashStorage.sol": {
		"HashStorage": {
			"abi": [
				{
					"inputs": [],
					"stateMutability": "nonpayable",
					"type": "constructor"
				},
				{
					"inputs": [],
					"name": "AccessControlBadConfirmation",
					"type": "error"
				},
				{
					"inputs": [
						{
							"internalType": "address",
							"name": "account",
							"type": "address"
						},
						{
							"internalType": "bytes32",
							"name": "neededRole",
							"type": "bytes32"
						}
					],
					"name": "AccessControlUnauthorizedAccount",
					"type": "error"
				},
				{
					"anonymous": false,
					"inputs": [
						{
							"indexed": true,
							"internalType": "bytes32",
							"name": "fileId",
							"type": "bytes32"
						}
					],
					"name": "HashRemoved",
					"type": "event"
				},
				{
					"anonymous": false,
					"inputs": [
						{
							"indexed": true,
							"internalType": "bytes32",
							"name": "fileId",
							"type": "bytes32"
						},
						{
							"indexed": false,
							"internalType": "bytes32",
							"name": "hash",
							"type": "bytes32"
						}
					],
					"name": "HashStored",
					"type": "event"
				},
				{
					"anonymous": false,
					"inputs": [
						{
							"indexed": true,
							"internalType": "bytes32",
							"name": "role",
							"type": "bytes32"
						},
						{
							"indexed": true,
							"internalType": "bytes32",
							"name": "previousAdminRole",
							"type": "bytes32"
						},
						{
							"indexed": true,
							"internalType": "bytes32",
							"name": "newAdminRole",
							"type": "bytes32"
						}
					],
					"name": "RoleAdminChanged",
					"type": "event"
				},
				{
					"anonymous": false,
					"inputs": [
						{
							"indexed": true,
							"internalType": "bytes32",
							"name": "role",
							"type": "bytes32"
						},
						{
							"indexed": true,
							"internalType": "address",
							"name": "account",
							"type": "address"
						},
						{
							"indexed": true,
							"internalType": "address",
							"name": "sender",
							"type": "address"
						}
					],
					"name": "RoleGranted",
					"type": "event"
				},
				{
					"anonymous": false,
					"inputs": [
						{
							"indexed": true,
							"internalType": "bytes32",
							"name": "role",
							"type": "bytes32"
						},
						{
							"indexed": true,
							"internalType": "address",
							"name": "account",
							"type": "address"
						},
						{
							"indexed": true,
							"internalType": "address",
							"name": "sender",
							"type": "address"
						}
					],
					"name": "RoleRevoked",
					"type": "event"
				},
				{
					"inputs": [],
					"name": "ADMIN_ROLE",
					"outputs": [
						{
							"internalType": "bytes32",
							"name": "",
							"type": "bytes32"
						}
					],
					"stateMutability": "view",
					"type": "function"
				},
				{
					"inputs": [],
					"name": "DEFAULT_ADMIN_ROLE",
					"outputs": [
						{
							"internalType": "bytes32",
							"name": "",
							"type": "bytes32"
						}
					],
					"stateMutability": "view",
					"type": "function"
				},
				{
					"inputs": [
						{
							"internalType": "uint256",
							"name": "index",
							"type": "uint256"
						}
					],
					"name": "fileIdAt",
					"outputs": [
						{
							"internalType": "bytes32",
							"name": "",
							"type": "bytes32"
						}
					],
					"stateMutability": "view",
					"type": "function"
				},
				{
					"inputs": [
						{
							"internalType": "bytes32",
							"name": "fileId",
							"type": "bytes32"
						}
					],
					"name": "getHash",
					"outputs": [
						{
							"internalType": "bytes32",
							"name": "",
							"type": "bytes32"
						}
					],
					"stateMutability": "view",
					"type": "function"
				},
				{
					"inputs": [
						{
							"internalType": "bytes32",
							"name": "role",
							"type": "bytes32"
						}
					],
					"name": "getRoleAdmin",
					"outputs": [
						{
							"internalType": "bytes32",
							"name": "",
							"type": "bytes32"
						}
					],
					"stateMutability": "view",
					"type": "function"
				},
				{
					"inputs": [
						{
							"internalType": "bytes32",
							"name": "role",
							"type": "bytes32"
						},
						{
							"internalType": "address",
							"name": "account",
							"type": "address"
						}
					],
					"name": "grantRole",
					"outputs": [],
					"stateMutability": "nonpayable",
					"type": "function"
				},
				{
					"inputs": [
						{
							"internalType": "bytes32",
							"name": "fileId",
							"type": "bytes32"
						}
					],
					"name": "hasHash",
					"outputs": [
						{
							"internalType": "bool",
							"name": "",
							"type": "bool"
						}
					],
					"stateMutability": "view",
					"type": "function"
				},
				{
					"inputs": [
						{
							"internalType": "bytes32",
							"name": "role",
							"type": "bytes32"
						},
						{
							"internalType": "address",
							"name": "account",
							"type": "address"
						}
					],
					"name": "hasRole",
					"outputs": [
						{
							"internalType": "bool",
							"name": "",
							"type": "bool"
						}
					],
					"stateMutability": "view",
					"type": "function"
				},
				{
					"inputs": [
						{
							"internalType": "bytes32",
							"name": "fileId",
							"type": "bytes32"
						}
					],
					"name": "removeHash",
					"outputs": [],
					"stateMutability": "nonpayable",
					"type": "function"
				},
				{
					"inputs": [
						{
							"internalType": "bytes32",
							"name": "role",
							"type": "bytes32"
						},
						{
							"internalType": "address",
							"name": "callerConfirmation",
							"type": "address"
						}
					],
					"name": "renounceRole",
					"outputs": [],
					"stateMutability": "nonpayable",
					"type": "function"
				},
				{
					"inputs": [
						{
							"internalType": "bytes32",
							"name": "role",
							"type": "bytes32"
						},
						{
							"internalType": "address",
							"name": "account",
							"type": "address"
						}
					],
					"name": "revokeRole",
					"outputs": [],
					"stateMutability": "nonpayable",
					"type": "function"
				},
				{
					"inputs": [
						{
							"internalType": "bytes32",
							"name": "fileId",
							"type": "bytes32"
						},
						{
							"internalType": "bytes32",
							"name": "hash",
							"type": "bytes32"
						}
					],
					"name": "storeHash",
					"outputs": [],
					"stateMutability": "nonpayable",
					"type": "function"
				},
				{
					"inputs": [
						{
							"internalType": "bytes4",
							"name": "interfaceId",
							"type": "bytes4"
						}
					],
					"name": "supportsInterface",
					"outputs": [
						{
							"internalType": "bool",
							"name": "",
							"type": "bool"
						}
					],
					"stateMutability": "view",
					"type": "function"
				},
				{
					"inputs": [],
					"name": "totalFileIds",
					"outputs": [
						{
							"internalType": "uint256",
							"name": "",
							"type": "uint256"
						}
					],
					"stateMutability": "view",
					"type": "function"
				}
			],
			"devdoc": {
				"details": "This contract is used to store and manage hashes for files or data.  It allows storing and retrieving hashes securely.",
				"errors": {
					"AccessControlBadConfirmation()": [
						{
							"details": "The caller of a function is not the expected one. NOTE: Don't confuse with {AccessControlUnauthorizedAccount}."
						}
					],
					"AccessControlUnauthorizedAccount(address,bytes32)": [
						{
							"details": "The `account` is missing a role."
						}
					]
				},
				"events": {
					"RoleAdminChanged(bytes32,bytes32,bytes32)": {
						"details": "Emitted when `newAdminRole` is set as ``role``'s admin role, replacing `previousAdminRole` `DEFAULT_ADMIN_ROLE` is the starting admin for all roles, despite {RoleAdminChanged} not being emitted signaling this."
					},
					"RoleGranted(bytes32,address,address)": {
						"details": "Emitted when `account` is granted `role`. `sender` is the account that originated the contract call, an admin role bearer except when using {AccessControl-_setupRole}."
					},
					"RoleRevoked(bytes32,address,address)": {
						"details": "Emitted when `account` is revoked `role`. `sender` is the account that originated the contract call:   - if using `revokeRole`, it is the admin role bearer   - if using `renounceRole`, it is the role bearer (i.e. `account`)"
					}
				},
				"kind": "dev",
				"methods": {
					"fileIdAt(uint256)": {
						"details": "Returns a file ID at a specific index.",
						"params": {
							"index": "The index of the file ID."
						},
						"returns": {
							"_0": "The file ID at the given index."
						}
					},
					"getHash(bytes32)": {
						"details": "Retrieves the hash for a given file ID.",
						"params": {
							"fileId": "Unique identifier for the file."
						},
						"returns": {
							"_0": "The hash of the file."
						}
					},
					"getRoleAdmin(bytes32)": {
						"details": "Returns the admin role that controls `role`. See {grantRole} and {revokeRole}. To change a role's admin, use {_setRoleAdmin}."
					},
					"grantRole(bytes32,address)": {
						"details": "Grants `role` to `account`. If `account` had not been already granted `role`, emits a {RoleGranted} event. Requirements: - the caller must have ``role``'s admin role. May emit a {RoleGranted} event."
					},
					"hasHash(bytes32)": {
						"details": "Checks if a file ID has a stored hash.",
						"params": {
							"fileId": "Unique identifier for the file."
						},
						"returns": {
							"_0": "True if the hash exists, false otherwise."
						}
					},
					"hasRole(bytes32,address)": {
						"details": "Returns `true` if `account` has been granted `role`."
					},
					"removeHash(bytes32)": {
						"details": "Removes the hash for a given file ID.",
						"params": {
							"fileId": "Unique identifier for the file."
						}
					},
					"renounceRole(bytes32,address)": {
						"details": "Revokes `role` from the calling account. Roles are often managed via {grantRole} and {revokeRole}: this function's purpose is to provide a mechanism for accounts to lose their privileges if they are compromised (such as when a trusted device is misplaced). If the calling account had been revoked `role`, emits a {RoleRevoked} event. Requirements: - the caller must be `callerConfirmation`. May emit a {RoleRevoked} event."
					},
					"revokeRole(bytes32,address)": {
						"details": "Revokes `role` from `account`. If `account` had been granted `role`, emits a {RoleRevoked} event. Requirements: - the caller must have ``role``'s admin role. May emit a {RoleRevoked} event."
					},
					"storeHash(bytes32,bytes32)": {
						"details": "Stores a hash for a given file ID.",
						"params": {
							"fileId": "Unique identifier for the file.",
							"hash": "The hash of the file."
						}
					},
					"supportsInterface(bytes4)": {
						"details": "See {IERC165-supportsInterface}."
					},
					"totalFileIds()": {
						"details": "Returns the total number of file IDs stored.",
						"returns": {
							"_0": "The number of file IDs."
						}
					}
				},
				"title": "HashStorage",
				"version": 1
			},
			"evm": {
				"assembly": "    /* \"contracts/infrastructure/storage/HashStorage.sol\":371:2898  contract HashStorage is AccessControl {... */\n  mstore(0x40, 0x80)\n    /* \"contracts/infrastructure/storage/HashStorage.sol\":806:879  constructor() {... */\n  callvalue\n  dup1\n  iszero\n  tag_1\n  jumpi\n  0x00\n  dup1\n  revert\ntag_1:\n  pop\n    /* \"contracts/infrastructure/storage/HashStorage.sol\":830:872  _grantRole(DEFAULT_ADMIN_ROLE, msg.sender) */\n  tag_4\n    /* \"@openzeppelin/contracts/access/AccessControl.sol\":2232:2236  0x00 */\n  0x00\n    /* \"contracts/infrastructure/storage/HashStorage.sol\":841:859  DEFAULT_ADMIN_ROLE */\n  dup1\n  shl\n    /* \"contracts/infrastructure/storage/HashStorage.sol\":861:871  msg.sender */\n  caller\n    /* \"contracts/infrastructure/storage/HashStorage.sol\":830:840  _grantRole */\n  shl(0x20, tag_5)\n    /* \"contracts/infrastructure/storage/HashStorage.sol\":830:872  _grantRole(DEFAULT_ADMIN_ROLE, msg.sender) */\n  0x20\n  shr\n  jump\t// in\ntag_4:\n  pop\n    /* \"contracts/infrastructure/storage/HashStorage.sol\":371:2898  contract HashStorage is AccessControl {... */\n  jump(tag_6)\n    /* \"@openzeppelin/contracts/access/AccessControl.sol\":6179:6495  function _grantRole(bytes32 role, address account) internal virtual returns (bool) {... */\ntag_5:\n    /* \"@openzeppelin/contracts/access/AccessControl.sol\":6256:6260  bool */\n  0x00\n    /* \"@openzeppelin/contracts/access/AccessControl.sol\":6277:6299  hasRole(role, account) */\n  tag_8\n    /* \"@openzeppelin/contracts/access/AccessControl.sol\":6285:6289  role */\n  dup4\n    /* \"@openzeppelin/contracts/access/AccessControl.sol\":6291:6298  account */\n  dup4\n    /* \"@openzeppelin/contracts/access/AccessControl.sol\":6277:6284  hasRole */\n  shl(0x20, tag_9)\n    /* \"@openzeppelin/contracts/access/AccessControl.sol\":6277:6299  hasRole(role, account) */\n  0x20\n  shr\n  jump\t// in\ntag_8:\n    /* \"@openzeppelin/contracts/access/AccessControl.sol\":6272:6489  if (!hasRole(role, account)) {... */\n  tag_10\n  jumpi\n    /* \"@openzeppelin/contracts/access/AccessControl.sol\":6347:6351  true */\n  0x01\n    /* \"@openzeppelin/contracts/access/AccessControl.sol\":6315:6321  _roles */\n  0x00\n    /* \"@openzeppelin/contracts/access/AccessControl.sol\":6315:6327  _roles[role] */\n  dup1\n    /* \"@openzeppelin/contracts/access/AccessControl.sol\":6322:6326  role */\n  dup6\n    /* \"@openzeppelin/contracts/access/AccessControl.sol\":6315:6327  _roles[role] */\n  dup2\n  mstore\n  0x20\n  add\n  swap1\n  dup2\n  mstore\n  0x20\n  add\n  0x00\n  keccak256\n    /* \"@openzeppelin/contracts/access/AccessControl.sol\":6315:6335  _roles[role].hasRole */\n  0x00\n  add\n    /* \"@openzeppelin/contracts/access/AccessControl.sol\":6315:6344  _roles[role].hasRole[account] */\n  0x00\n    /* \"@openzeppelin/contracts/access/AccessControl.sol\":6336:6343  account */\n  dup5\n    /* \"@openzeppelin/contracts/access/AccessControl.sol\":6315:6344  _roles[role].hasRole[account] */\n  0xffffffffffffffffffffffffffffffffffffffff\n  and\n  0xffffffffffffffffffffffffffffffffffffffff\n  and\n  dup2\n  mstore\n  0x20\n  add\n  swap1\n  dup2\n  mstore\n  0x20\n  add\n  0x00\n  keccak256\n  0x00\n    /* \"@openzeppelin/contracts/access/AccessControl.sol\":6315:6351  _roles[role].hasRole[account] = true */\n  0x0100\n  exp\n  dup2\n  sload\n  dup2\n  0xff\n  mul\n  not\n  and\n  swap1\n  dup4\n  iszero\n  iszero\n  mul\n  or\n  swap1\n  sstore\n  pop\n    /* \"@openzeppelin/contracts/access/AccessControl.sol\":6397:6409  _msgSender() */\n  tag_11\n    /* \"@openzeppelin/contracts/access/AccessControl.sol\":6397:6407  _msgSender */\n  shl(0x20, tag_12)\n    /* \"@openzeppelin/contracts/access/AccessControl.sol\":6397:6409  _msgSender() */\n  0x20\n  shr\n  jump\t// in\ntag_11:\n    /* \"@openzeppelin/contracts/access/AccessControl.sol\":6370:6410  RoleGranted(role, account, _msgSender()) */\n  0xffffffffffffffffffffffffffffffffffffffff\n  and\n    /* \"@openzeppelin/contracts/access/AccessControl.sol\":6388:6395  account */\n  dup3\n    /* \"@openzeppelin/contracts/access/AccessControl.sol\":6370:6410  RoleGranted(role, account, _msgSender()) */\n  0xffffffffffffffffffffffffffffffffffffffff\n  and\n    /* \"@openzeppelin/contracts/access/AccessControl.sol\":6382:6386  role */\n  dup5\n    /* \"@openzeppelin/contracts/access/AccessControl.sol\":6370:6410  RoleGranted(role, account, _msgSender()) */\n  0x2f8788117e7eff1d82e926ec794901d17c78024a50270940304540a733656f0d\n  mload(0x40)\n  mload(0x40)\n  dup1\n  swap2\n  sub\n  swap1\n  log4\n    /* \"@openzeppelin/contracts/access/AccessControl.sol\":6431:6435  true */\n  0x01\n    /* \"@openzeppelin/contracts/access/AccessControl.sol\":6424:6435  return true */\n  swap1\n  pop\n  jump(tag_7)\n    /* \"@openzeppelin/contracts/access/AccessControl.sol\":6272:6489  if (!hasRole(role, account)) {... */\ntag_10:\n    /* \"@openzeppelin/contracts/access/AccessControl.sol\":6473:6478  false */\n  0x00\n    /* \"@openzeppelin/contracts/access/AccessControl.sol\":6466:6478  return false */\n  swap1\n  pop\n    /* \"@openzeppelin/contracts/access/AccessControl.sol\":6179:6495  function _grantRole(bytes32 role, address account) internal virtual returns (bool) {... */\ntag_7:\n  swap3\n  swap2\n  pop\n  pop\n  jump\t// out\n    /* \"@openzeppelin/contracts/access/AccessControl.sol\":2854:2990  function hasRole(bytes32 role, address account) public view virtual returns (bool) {... */\ntag_9:\n    /* \"@openzeppelin/contracts/access/AccessControl.sol\":2931:2935  bool */\n  0x00\n    /* \"@openzeppelin/contracts/access/AccessControl.sol\":2954:2960  _roles */\n  dup1\n    /* \"@openzeppelin/contracts/access/AccessControl.sol\":2954:2966  _roles[role] */\n  0x00\n    /* \"@openzeppelin/contracts/access/AccessControl.sol\":2961:2965  role */\n  dup5\n    /* \"@openzeppelin/contracts/access/AccessControl.sol\":2954:2966  _roles[role] */\n  dup2\n  mstore\n  0x20\n  add\n  swap1\n  dup2\n  mstore\n  0x20\n  add\n  0x00\n  keccak256\n    /* \"@openzeppelin/contracts/access/AccessControl.sol\":2954:2974  _roles[role].hasRole */\n  0x00\n  add\n    /* \"@openzeppelin/contracts/access/AccessControl.sol\":2954:2983  _roles[role].hasRole[account] */\n  0x00\n    /* \"@openzeppelin/contracts/access/AccessControl.sol\":2975:2982  account */\n  dup4\n    /* \"@openzeppelin/contracts/access/AccessControl.sol\":2954:2983  _roles[role].hasRole[account] */\n  0xffffffffffffffffffffffffffffffffffffffff\n  and\n  0xffffffffffffffffffffffffffffffffffffffff\n  and\n  dup2\n  mstore\n  0x20\n  add\n  swap1\n  dup2\n  mstore\n  0x20\n  add\n  0x00\n  keccak256\n  0x00\n  swap1\n  sload\n  swap1\n  0x0100\n  exp\n  swap1\n  div\n  0xff\n  and\n    /* \"@openzeppelin/contracts/access/AccessControl.sol\":2947:2983  return _roles[role].hasRole[account] */\n  swap1\n  pop\n    /* \"@openzeppelin/contracts/access/AccessControl.sol\":2854:2990  function hasRole(bytes32 role, address account) public view virtual returns (bool) {... */\n  swap3\n  swap2\n  pop\n  pop\n  jump\t// out\n    /* \"@openzeppelin/contracts/utils/Context.sol\":656:752  function _msgSender() internal view virtual returns (address) {... */\ntag_12:\n    /* \"@openzeppelin/contracts/utils/Context.sol\":709:716  address */\n  0x00\n    /* \"@openzeppelin/contracts/utils/Context.sol\":735:745  msg.sender */\n  caller\n    /* \"@openzeppelin/contracts/utils/Context.sol\":728:745  return msg.sender */\n  swap1\n  pop\n    /* \"@openzeppelin/contracts/utils/Context.sol\":656:752  function _msgSender() internal view virtual returns (address) {... */\n  swap1\n  jump\t// out\n    /* \"contracts/infrastructure/storage/HashStorage.sol\":371:2898  contract HashStorage is AccessControl {... */\ntag_6:\n  dataSize(sub_0)\n  dup1\n  dataOffset(sub_0)\n  0x00\n  codecopy\n  0x00\n  return\nstop\n\nsub_0: assembly {\n        /* \"contracts/infrastructure/storage/HashStorage.sol\":371:2898  contract HashStorage is AccessControl {... */\n      mstore(0x40, 0x80)\n      callvalue\n      dup1\n      iszero\n      tag_1\n      jumpi\n      0x00\n      dup1\n      revert\n    tag_1:\n      pop\n      jumpi(tag_2, lt(calldatasize, 0x04))\n      shr(0xe0, calldataload(0x00))\n      dup1\n      0x75b238fc\n      gt\n      tag_17\n      jumpi\n      dup1\n      0xa217fddf\n      gt\n      tag_18\n      jumpi\n      dup1\n      0xa217fddf\n      eq\n      tag_13\n      jumpi\n      dup1\n      0xb2bbde91\n      eq\n      tag_14\n      jumpi\n      dup1\n      0xc32ed289\n      eq\n      tag_15\n      jumpi\n      dup1\n      0xd547741f\n      eq\n      tag_16\n      jumpi\n      jump(tag_2)\n    tag_18:\n      dup1\n      0x75b238fc\n      eq\n      tag_10\n      jumpi\n      dup1\n      0x91d14854\n      eq\n      tag_11\n      jumpi\n      dup1\n      0x9f5baacc\n      eq\n      tag_12\n      jumpi\n      jump(tag_2)\n    tag_17:\n      dup1\n      0x2ea2ee1b\n      gt\n      tag_19\n      jumpi\n      dup1\n      0x2ea2ee1b\n      eq\n      tag_6\n      jumpi\n      dup1\n      0x2f2ff15d\n      eq\n      tag_7\n      jumpi\n      dup1\n      0x36568abe\n      eq\n      tag_8\n      jumpi\n      dup1\n      0x3cf5040a\n      eq\n      tag_9\n      jumpi\n      jump(tag_2)\n    tag_19:\n      dup1\n      0x01ffc9a7\n      eq\n      tag_3\n      jumpi\n      dup1\n      0x248a9ca3\n      eq\n      tag_4\n      jumpi\n      dup1\n      0x2d6b94b1\n      eq\n      tag_5\n      jumpi\n    tag_2:\n      0x00\n      dup1\n      revert\n        /* \"@openzeppelin/contracts/access/AccessControl.sol\":2565:2767  function supportsInterface(bytes4 interfaceId) public view virtual override returns (bool) {... */\n    tag_3:\n      tag_20\n      0x04\n      dup1\n      calldatasize\n      sub\n      dup2\n      add\n      swap1\n      tag_21\n      swap2\n      swap1\n      tag_22\n      jump\t// in\n    tag_21:\n      tag_23\n      jump\t// in\n    tag_20:\n      mload(0x40)\n      tag_24\n      swap2\n      swap1\n      tag_25\n      jump\t// in\n    tag_24:\n      mload(0x40)\n      dup1\n      swap2\n      sub\n      swap1\n      return\n        /* \"@openzeppelin/contracts/access/AccessControl.sol\":3810:3930  function getRoleAdmin(bytes32 role) public view virtual returns (bytes32) {... */\n    tag_4:\n      tag_26\n      0x04\n      dup1\n      calldatasize\n      sub\n      dup2\n      add\n      swap1\n      tag_27\n      swap2\n      swap1\n      tag_28\n      jump\t// in\n    tag_27:\n      tag_29\n      jump\t// in\n    tag_26:\n      mload(0x40)\n      tag_30\n      swap2\n      swap1\n      tag_31\n      jump\t// in\n    tag_30:\n      mload(0x40)\n      dup1\n      swap2\n      sub\n      swap1\n      return\n        /* \"contracts/infrastructure/storage/HashStorage.sol\":2526:2623  function totalFileIds() external view returns (uint256) {... */\n    tag_5:\n      tag_32\n      tag_33\n      jump\t// in\n    tag_32:\n      mload(0x40)\n      tag_34\n      swap2\n      swap1\n      tag_35\n      jump\t// in\n    tag_34:\n      mload(0x40)\n      dup1\n      swap2\n      sub\n      swap1\n      return\n        /* \"contracts/infrastructure/storage/HashStorage.sol\":1837:2114  function removeHash(bytes32 fileId) external onlyRole(ADMIN_ROLE) {... */\n    tag_6:\n      tag_36\n      0x04\n      dup1\n      calldatasize\n      sub\n      dup2\n      add\n      swap1\n      tag_37\n      swap2\n      swap1\n      tag_28\n      jump\t// in\n    tag_37:\n      tag_38\n      jump\t// in\n    tag_36:\n      stop\n        /* \"@openzeppelin/contracts/access/AccessControl.sol\":4226:4362  function grantRole(bytes32 role, address account) public virtual onlyRole(getRoleAdmin(role)) {... */\n    tag_7:\n      tag_39\n      0x04\n      dup1\n      calldatasize\n      sub\n      dup2\n      add\n      swap1\n      tag_40\n      swap2\n      swap1\n      tag_41\n      jump\t// in\n    tag_40:\n      tag_42\n      jump\t// in\n    tag_39:\n      stop\n        /* \"@openzeppelin/contracts/access/AccessControl.sol\":5328:5573  function renounceRole(bytes32 role, address callerConfirmation) public virtual {... */\n    tag_8:\n      tag_43\n      0x04\n      dup1\n      calldatasize\n      sub\n      dup2\n      add\n      swap1\n      tag_44\n      swap2\n      swap1\n      tag_41\n      jump\t// in\n    tag_44:\n      tag_45\n      jump\t// in\n    tag_43:\n      stop\n        /* \"contracts/infrastructure/storage/HashStorage.sol\":1504:1712  function getHash(bytes32 fileId) external view returns (bytes32) {... */\n    tag_9:\n      tag_46\n      0x04\n      dup1\n      calldatasize\n      sub\n      dup2\n      add\n      swap1\n      tag_47\n      swap2\n      swap1\n      tag_28\n      jump\t// in\n    tag_47:\n      tag_48\n      jump\t// in\n    tag_46:\n      mload(0x40)\n      tag_49\n      swap2\n      swap1\n      tag_31\n      jump\t// in\n    tag_49:\n      mload(0x40)\n      dup1\n      swap2\n      sub\n      swap1\n      return\n        /* \"contracts/infrastructure/storage/HashStorage.sol\":470:530  bytes32 public constant ADMIN_ROLE = keccak256(\"ADMIN_ROLE\") */\n    tag_10:\n      tag_50\n      tag_51\n      jump\t// in\n    tag_50:\n      mload(0x40)\n      tag_52\n      swap2\n      swap1\n      tag_31\n      jump\t// in\n    tag_52:\n      mload(0x40)\n      dup1\n      swap2\n      sub\n      swap1\n      return\n        /* \"@openzeppelin/contracts/access/AccessControl.sol\":2854:2990  function hasRole(bytes32 role, address account) public view virtual returns (bool) {... */\n    tag_11:\n      tag_53\n      0x04\n      dup1\n      calldatasize\n      sub\n      dup2\n      add\n      swap1\n      tag_54\n      swap2\n      swap1\n      tag_41\n      jump\t// in\n    tag_54:\n      tag_55\n      jump\t// in\n    tag_53:\n      mload(0x40)\n      tag_56\n      swap2\n      swap1\n      tag_25\n      jump\t// in\n    tag_56:\n      mload(0x40)\n      dup1\n      swap2\n      sub\n      swap1\n      return\n        /* \"contracts/infrastructure/storage/HashStorage.sol\":2297:2408  function hasHash(bytes32 fileId) external view returns (bool) {... */\n    tag_12:\n      tag_57\n      0x04\n      dup1\n      calldatasize\n      sub\n      dup2\n      add\n      swap1\n      tag_58\n      swap2\n      swap1\n      tag_28\n      jump\t// in\n    tag_58:\n      tag_59\n      jump\t// in\n    tag_57:\n      mload(0x40)\n      tag_60\n      swap2\n      swap1\n      tag_25\n      jump\t// in\n    tag_60:\n      mload(0x40)\n      dup1\n      swap2\n      sub\n      swap1\n      return\n        /* \"@openzeppelin/contracts/access/AccessControl.sol\":2187:2236  bytes32 public constant DEFAULT_ADMIN_ROLE = 0x00 */\n    tag_13:\n      tag_61\n      tag_62\n      jump\t// in\n    tag_61:\n      mload(0x40)\n      tag_63\n      swap2\n      swap1\n      tag_31\n      jump\t// in\n    tag_63:\n      mload(0x40)\n      dup1\n      swap2\n      sub\n      swap1\n      return\n        /* \"contracts/infrastructure/storage/HashStorage.sol\":2789:2896  function fileIdAt(uint256 index) external view returns (bytes32) {... */\n    tag_14:\n      tag_64\n      0x04\n      dup1\n      calldatasize\n      sub\n      dup2\n      add\n      swap1\n      tag_65\n      swap2\n      swap1\n      tag_66\n      jump\t// in\n    tag_65:\n      tag_67\n      jump\t// in\n    tag_64:\n      mload(0x40)\n      tag_68\n      swap2\n      swap1\n      tag_31\n      jump\t// in\n    tag_68:\n      mload(0x40)\n      dup1\n      swap2\n      sub\n      swap1\n      return\n        /* \"contracts/infrastructure/storage/HashStorage.sol\":1042:1340  function storeHash(bytes32 fileId, bytes32 hash) external onlyRole(ADMIN_ROLE) {... */\n    tag_15:\n      tag_69\n      0x04\n      dup1\n      calldatasize\n      sub\n      dup2\n      add\n      swap1\n      tag_70\n      swap2\n      swap1\n      tag_71\n      jump\t// in\n    tag_70:\n      tag_72\n      jump\t// in\n    tag_69:\n      stop\n        /* \"@openzeppelin/contracts/access/AccessControl.sol\":4642:4780  function revokeRole(bytes32 role, address account) public virtual onlyRole(getRoleAdmin(role)) {... */\n    tag_16:\n      tag_73\n      0x04\n      dup1\n      calldatasize\n      sub\n      dup2\n      add\n      swap1\n      tag_74\n      swap2\n      swap1\n      tag_41\n      jump\t// in\n    tag_74:\n      tag_75\n      jump\t// in\n    tag_73:\n      stop\n        /* \"@openzeppelin/contracts/access/AccessControl.sol\":2565:2767  function supportsInterface(bytes4 interfaceId) public view virtual override returns (bool) {... */\n    tag_23:\n        /* \"@openzeppelin/contracts/access/AccessControl.sol\":2650:2654  bool */\n      0x00\n        /* \"@openzeppelin/contracts/access/AccessControl.sol\":2688:2720  type(IAccessControl).interfaceId */\n      0x7965db0b00000000000000000000000000000000000000000000000000000000\n        /* \"@openzeppelin/contracts/access/AccessControl.sol\":2673:2720  interfaceId == type(IAccessControl).interfaceId */\n      not(0xffffffffffffffffffffffffffffffffffffffffffffffffffffffff)\n      and\n        /* \"@openzeppelin/contracts/access/AccessControl.sol\":2673:2684  interfaceId */\n      dup3\n        /* \"@openzeppelin/contracts/access/AccessControl.sol\":2673:2720  interfaceId == type(IAccessControl).interfaceId */\n      not(0xffffffffffffffffffffffffffffffffffffffffffffffffffffffff)\n      and\n      eq\n        /* \"@openzeppelin/contracts/access/AccessControl.sol\":2673:2760  interfaceId == type(IAccessControl).interfaceId || super.supportsInterface(interfaceId) */\n      dup1\n      tag_77\n      jumpi\n      pop\n        /* \"@openzeppelin/contracts/access/AccessControl.sol\":2724:2760  super.supportsInterface(interfaceId) */\n      tag_78\n        /* \"@openzeppelin/contracts/access/AccessControl.sol\":2748:2759  interfaceId */\n      dup3\n        /* \"@openzeppelin/contracts/access/AccessControl.sol\":2724:2747  super.supportsInterface */\n      tag_79\n        /* \"@openzeppelin/contracts/access/AccessControl.sol\":2724:2760  super.supportsInterface(interfaceId) */\n      jump\t// in\n    tag_78:\n        /* \"@openzeppelin/contracts/access/AccessControl.sol\":2673:2760  interfaceId == type(IAccessControl).interfaceId || super.supportsInterface(interfaceId) */\n    tag_77:\n        /* \"@openzeppelin/contracts/access/AccessControl.sol\":2666:2760  return interfaceId == type(IAccessControl).interfaceId || super.supportsInterface(interfaceId) */\n      swap1\n      pop\n        /* \"@openzeppelin/contracts/access/AccessControl.sol\":2565:2767  function supportsInterface(bytes4 interfaceId) public view virtual override returns (bool) {... */\n      swap2\n      swap1\n      pop\n      jump\t// out\n        /* \"@openzeppelin/contracts/access/AccessControl.sol\":3810:3930  function getRoleAdmin(bytes32 role) public view virtual returns (bytes32) {... */\n    tag_29:\n        /* \"@openzeppelin/contracts/access/AccessControl.sol\":3875:3882  bytes32 */\n      0x00\n        /* \"@openzeppelin/contracts/access/AccessControl.sol\":3901:3907  _roles */\n      dup1\n        /* \"@openzeppelin/contracts/access/AccessControl.sol\":3901:3913  _roles[role] */\n      0x00\n        /* \"@openzeppelin/contracts/access/AccessControl.sol\":3908:3912  role */\n      dup4\n        /* \"@openzeppelin/contracts/access/AccessControl.sol\":3901:3913  _roles[role] */\n      dup2\n      mstore\n      0x20\n      add\n      swap1\n      dup2\n      mstore\n      0x20\n      add\n      0x00\n      keccak256\n        /* \"@openzeppelin/contracts/access/AccessControl.sol\":3901:3923  _roles[role].adminRole */\n      0x01\n      add\n      sload\n        /* \"@openzeppelin/contracts/access/AccessControl.sol\":3894:3923  return _roles[role].adminRole */\n      swap1\n      pop\n        /* \"@openzeppelin/contracts/access/AccessControl.sol\":3810:3930  function getRoleAdmin(bytes32 role) public view virtual returns (bytes32) {... */\n      swap2\n      swap1\n      pop\n      jump\t// out\n        /* \"contracts/infrastructure/storage/HashStorage.sol\":2526:2623  function totalFileIds() external view returns (uint256) {... */\n    tag_33:\n        /* \"contracts/infrastructure/storage/HashStorage.sol\":2573:2580  uint256 */\n      0x00\n        /* \"contracts/infrastructure/storage/HashStorage.sol\":2599:2616  _fileIds.length() */\n      tag_82\n        /* \"contracts/infrastructure/storage/HashStorage.sol\":2599:2607  _fileIds */\n      0x02\n        /* \"contracts/infrastructure/storage/HashStorage.sol\":2599:2614  _fileIds.length */\n      tag_83\n        /* \"contracts/infrastructure/storage/HashStorage.sol\":2599:2616  _fileIds.length() */\n      jump\t// in\n    tag_82:\n        /* \"contracts/infrastructure/storage/HashStorage.sol\":2592:2616  return _fileIds.length() */\n      swap1\n      pop\n        /* \"contracts/infrastructure/storage/HashStorage.sol\":2526:2623  function totalFileIds() external view returns (uint256) {... */\n      swap1\n      jump\t// out\n        /* \"contracts/infrastructure/storage/HashStorage.sol\":1837:2114  function removeHash(bytes32 fileId) external onlyRole(ADMIN_ROLE) {... */\n    tag_38:\n        /* \"contracts/infrastructure/storage/HashStorage.sol\":507:530  keccak256(\"ADMIN_ROLE\") */\n      0xa49807205ce4d355092ef5a8a18f56e8913cf4a201fbe287825b095693c21775\n        /* \"@openzeppelin/contracts/access/AccessControl.sol\":2464:2480  _checkRole(role) */\n      tag_85\n        /* \"@openzeppelin/contracts/access/AccessControl.sol\":2475:2479  role */\n      dup2\n        /* \"@openzeppelin/contracts/access/AccessControl.sol\":2464:2474  _checkRole */\n      tag_86\n        /* \"@openzeppelin/contracts/access/AccessControl.sol\":2464:2480  _checkRole(role) */\n      jump\t// in\n    tag_85:\n        /* \"contracts/infrastructure/storage/HashStorage.sol\":1921:1946  _fileIds.contains(fileId) */\n      tag_88\n        /* \"contracts/infrastructure/storage/HashStorage.sol\":1939:1945  fileId */\n      dup3\n        /* \"contracts/infrastructure/storage/HashStorage.sol\":1921:1929  _fileIds */\n      0x02\n        /* \"contracts/infrastructure/storage/HashStorage.sol\":1921:1938  _fileIds.contains */\n      tag_89\n      swap1\n        /* \"contracts/infrastructure/storage/HashStorage.sol\":1921:1946  _fileIds.contains(fileId) */\n      swap2\n      swap1\n      0xffffffff\n      and\n      jump\t// in\n    tag_88:\n        /* \"contracts/infrastructure/storage/HashStorage.sol\":1913:1994  require(_fileIds.contains(fileId), \"HashStorage: Hash not found for the file ID\") */\n      tag_90\n      jumpi\n      mload(0x40)\n      0x08c379a000000000000000000000000000000000000000000000000000000000\n      dup2\n      mstore\n      0x04\n      add\n      tag_91\n      swap1\n      tag_92\n      jump\t// in\n    tag_91:\n      mload(0x40)\n      dup1\n      swap2\n      sub\n      swap1\n      revert\n    tag_90:\n        /* \"contracts/infrastructure/storage/HashStorage.sol\":2020:2031  _fileHashes */\n      0x01\n        /* \"contracts/infrastructure/storage/HashStorage.sol\":2020:2039  _fileHashes[fileId] */\n      0x00\n        /* \"contracts/infrastructure/storage/HashStorage.sol\":2032:2038  fileId */\n      dup4\n        /* \"contracts/infrastructure/storage/HashStorage.sol\":2020:2039  _fileHashes[fileId] */\n      dup2\n      mstore\n      0x20\n      add\n      swap1\n      dup2\n      mstore\n      0x20\n      add\n      0x00\n      keccak256\n        /* \"contracts/infrastructure/storage/HashStorage.sol\":2013:2039  delete _fileHashes[fileId] */\n      0x00\n      swap1\n      sstore\n        /* \"contracts/infrastructure/storage/HashStorage.sol\":2049:2072  _fileIds.remove(fileId) */\n      tag_93\n        /* \"contracts/infrastructure/storage/HashStorage.sol\":2065:2071  fileId */\n      dup3\n        /* \"contracts/infrastructure/storage/HashStorage.sol\":2049:2057  _fileIds */\n      0x02\n        /* \"contracts/infrastructure/storage/HashStorage.sol\":2049:2064  _fileIds.remove */\n      tag_94\n      swap1\n        /* \"contracts/infrastructure/storage/HashStorage.sol\":2049:2072  _fileIds.remove(fileId) */\n      swap2\n      swap1\n      0xffffffff\n      and\n      jump\t// in\n    tag_93:\n      pop\n        /* \"contracts/infrastructure/storage/HashStorage.sol\":2100:2106  fileId */\n      dup2\n        /* \"contracts/infrastructure/storage/HashStorage.sol\":2088:2107  HashRemoved(fileId) */\n      0x5b04d324b4a0a27faeb562e4925c9f8feda9193bddc7c7fb6e91d6329f2a9f00\n      mload(0x40)\n      mload(0x40)\n      dup1\n      swap2\n      sub\n      swap1\n      log2\n        /* \"contracts/infrastructure/storage/HashStorage.sol\":1837:2114  function removeHash(bytes32 fileId) external onlyRole(ADMIN_ROLE) {... */\n      pop\n      pop\n      jump\t// out\n        /* \"@openzeppelin/contracts/access/AccessControl.sol\":4226:4362  function grantRole(bytes32 role, address account) public virtual onlyRole(getRoleAdmin(role)) {... */\n    tag_42:\n        /* \"@openzeppelin/contracts/access/AccessControl.sol\":4300:4318  getRoleAdmin(role) */\n      tag_95\n        /* \"@openzeppelin/contracts/access/AccessControl.sol\":4313:4317  role */\n      dup3\n        /* \"@openzeppelin/contracts/access/AccessControl.sol\":4300:4312  getRoleAdmin */\n      tag_29\n        /* \"@openzeppelin/contracts/access/AccessControl.sol\":4300:4318  getRoleAdmin(role) */\n      jump\t// in\n    tag_95:\n        /* \"@openzeppelin/contracts/access/AccessControl.sol\":2464:2480  _checkRole(role) */\n      tag_97\n        /* \"@openzeppelin/contracts/access/AccessControl.sol\":2475:2479  role */\n      dup2\n        /* \"@openzeppelin/contracts/access/AccessControl.sol\":2464:2474  _checkRole */\n      tag_86\n        /* \"@openzeppelin/contracts/access/AccessControl.sol\":2464:2480  _checkRole(role) */\n      jump\t// in\n    tag_97:\n        /* \"@openzeppelin/contracts/access/AccessControl.sol\":4330:4355  _grantRole(role, account) */\n      tag_99\n        /* \"@openzeppelin/contracts/access/AccessControl.sol\":4341:4345  role */\n      dup4\n        /* \"@openzeppelin/contracts/access/AccessControl.sol\":4347:4354  account */\n      dup4\n        /* \"@openzeppelin/contracts/access/AccessControl.sol\":4330:4340  _grantRole */\n      tag_100\n        /* \"@openzeppelin/contracts/access/AccessControl.sol\":4330:4355  _grantRole(role, account) */\n      jump\t// in\n    tag_99:\n      pop\n        /* \"@openzeppelin/contracts/access/AccessControl.sol\":4226:4362  function grantRole(bytes32 role, address account) public virtual onlyRole(getRoleAdmin(role)) {... */\n      pop\n      pop\n      pop\n      jump\t// out\n        /* \"@openzeppelin/contracts/access/AccessControl.sol\":5328:5573  function renounceRole(bytes32 role, address callerConfirmation) public virtual {... */\n    tag_45:\n        /* \"@openzeppelin/contracts/access/AccessControl.sol\":5443:5455  _msgSender() */\n      tag_102\n        /* \"@openzeppelin/contracts/access/AccessControl.sol\":5443:5453  _msgSender */\n      tag_103\n        /* \"@openzeppelin/contracts/access/AccessControl.sol\":5443:5455  _msgSender() */\n      jump\t// in\n    tag_102:\n        /* \"@openzeppelin/contracts/access/AccessControl.sol\":5421:5455  callerConfirmation != _msgSender() */\n      0xffffffffffffffffffffffffffffffffffffffff\n      and\n        /* \"@openzeppelin/contracts/access/AccessControl.sol\":5421:5439  callerConfirmation */\n      dup2\n        /* \"@openzeppelin/contracts/access/AccessControl.sol\":5421:5455  callerConfirmation != _msgSender() */\n      0xffffffffffffffffffffffffffffffffffffffff\n      and\n      eq\n        /* \"@openzeppelin/contracts/access/AccessControl.sol\":5417:5519  if (callerConfirmation != _msgSender()) {... */\n      tag_104\n      jumpi\n        /* \"@openzeppelin/contracts/access/AccessControl.sol\":5478:5508  AccessControlBadConfirmation() */\n      mload(0x40)\n      0x6697b23200000000000000000000000000000000000000000000000000000000\n      dup2\n      mstore\n      0x04\n      add\n      mload(0x40)\n      dup1\n      swap2\n      sub\n      swap1\n      revert\n        /* \"@openzeppelin/contracts/access/AccessControl.sol\":5417:5519  if (callerConfirmation != _msgSender()) {... */\n    tag_104:\n        /* \"@openzeppelin/contracts/access/AccessControl.sol\":5529:5566  _revokeRole(role, callerConfirmation) */\n      tag_105\n        /* \"@openzeppelin/contracts/access/AccessControl.sol\":5541:5545  role */\n      dup3\n        /* \"@openzeppelin/contracts/access/AccessControl.sol\":5547:5565  callerConfirmation */\n      dup3\n        /* \"@openzeppelin/contracts/access/AccessControl.sol\":5529:5540  _revokeRole */\n      tag_106\n        /* \"@openzeppelin/contracts/access/AccessControl.sol\":5529:5566  _revokeRole(role, callerConfirmation) */\n      jump\t// in\n    tag_105:\n      pop\n        /* \"@openzeppelin/contracts/access/AccessControl.sol\":5328:5573  function renounceRole(bytes32 role, address callerConfirmation) public virtual {... */\n      pop\n      pop\n      jump\t// out\n        /* \"contracts/infrastructure/storage/HashStorage.sol\":1504:1712  function getHash(bytes32 fileId) external view returns (bytes32) {... */\n    tag_48:\n        /* \"contracts/infrastructure/storage/HashStorage.sol\":1560:1567  bytes32 */\n      0x00\n        /* \"contracts/infrastructure/storage/HashStorage.sol\":1587:1612  _fileIds.contains(fileId) */\n      tag_108\n        /* \"contracts/infrastructure/storage/HashStorage.sol\":1605:1611  fileId */\n      dup3\n        /* \"contracts/infrastructure/storage/HashStorage.sol\":1587:1595  _fileIds */\n      0x02\n        /* \"contracts/infrastructure/storage/HashStorage.sol\":1587:1604  _fileIds.contains */\n      tag_89\n      swap1\n        /* \"contracts/infrastructure/storage/HashStorage.sol\":1587:1612  _fileIds.contains(fileId) */\n      swap2\n      swap1\n      0xffffffff\n      and\n      jump\t// in\n    tag_108:\n        /* \"contracts/infrastructure/storage/HashStorage.sol\":1579:1660  require(_fileIds.contains(fileId), \"HashStorage: Hash not found for the file ID\") */\n      tag_109\n      jumpi\n      mload(0x40)\n      0x08c379a000000000000000000000000000000000000000000000000000000000\n      dup2\n      mstore\n      0x04\n      add\n      tag_110\n      swap1\n      tag_92\n      jump\t// in\n    tag_110:\n      mload(0x40)\n      dup1\n      swap2\n      sub\n      swap1\n      revert\n    tag_109:\n        /* \"contracts/infrastructure/storage/HashStorage.sol\":1686:1697  _fileHashes */\n      0x01\n        /* \"contracts/infrastructure/storage/HashStorage.sol\":1686:1705  _fileHashes[fileId] */\n      0x00\n        /* \"contracts/infrastructure/storage/HashStorage.sol\":1698:1704  fileId */\n      dup4\n        /* \"contracts/infrastructure/storage/HashStorage.sol\":1686:1705  _fileHashes[fileId] */\n      dup2\n      mstore\n      0x20\n      add\n      swap1\n      dup2\n      mstore\n      0x20\n      add\n      0x00\n      keccak256\n      sload\n        /* \"contracts/infrastructure/storage/HashStorage.sol\":1679:1705  return _fileHashes[fileId] */\n      swap1\n      pop\n        /* \"contracts/infrastructure/storage/HashStorage.sol\":1504:1712  function getHash(bytes32 fileId) external view returns (bytes32) {... */\n      swap2\n      swap1\n      pop\n      jump\t// out\n        /* \"contracts/infrastructure/storage/HashStorage.sol\":470:530  bytes32 public constant ADMIN_ROLE = keccak256(\"ADMIN_ROLE\") */\n    tag_51:\n        /* \"contracts/infrastructure/storage/HashStorage.sol\":507:530  keccak256(\"ADMIN_ROLE\") */\n      0xa49807205ce4d355092ef5a8a18f56e8913cf4a201fbe287825b095693c21775\n        /* \"contracts/infrastructure/storage/HashStorage.sol\":470:530  bytes32 public constant ADMIN_ROLE = keccak256(\"ADMIN_ROLE\") */\n      dup2\n      jump\t// out\n        /* \"@openzeppelin/contracts/access/AccessControl.sol\":2854:2990  function hasRole(bytes32 role, address account) public view virtual returns (bool) {... */\n    tag_55:\n        /* \"@openzeppelin/contracts/access/AccessControl.sol\":2931:2935  bool */\n      0x00\n        /* \"@openzeppelin/contracts/access/AccessControl.sol\":2954:2960  _roles */\n      dup1\n        /* \"@openzeppelin/contracts/access/AccessControl.sol\":2954:2966  _roles[role] */\n      0x00\n        /* \"@openzeppelin/contracts/access/AccessControl.sol\":2961:2965  role */\n      dup5\n        /* \"@openzeppelin/contracts/access/AccessControl.sol\":2954:2966  _roles[role] */\n      dup2\n      mstore\n      0x20\n      add\n      swap1\n      dup2\n      mstore\n      0x20\n      add\n      0x00\n      keccak256\n        /* \"@openzeppelin/contracts/access/AccessControl.sol\":2954:2974  _roles[role].hasRole */\n      0x00\n      add\n        /* \"@openzeppelin/contracts/access/AccessControl.sol\":2954:2983  _roles[role].hasRole[account] */\n      0x00\n        /* \"@openzeppelin/contracts/access/AccessControl.sol\":2975:2982  account */\n      dup4\n        /* \"@openzeppelin/contracts/access/AccessControl.sol\":2954:2983  _roles[role].hasRole[account] */\n      0xffffffffffffffffffffffffffffffffffffffff\n      and\n      0xffffffffffffffffffffffffffffffffffffffff\n      and\n      dup2\n      mstore\n      0x20\n      add\n      swap1\n      dup2\n      mstore\n      0x20\n      add\n      0x00\n      keccak256\n      0x00\n      swap1\n      sload\n      swap1\n      0x0100\n      exp\n      swap1\n      div\n      0xff\n      and\n        /* \"@openzeppelin/contracts/access/AccessControl.sol\":2947:2983  return _roles[role].hasRole[account] */\n      swap1\n      pop\n        /* \"@openzeppelin/contracts/access/AccessControl.sol\":2854:2990  function hasRole(bytes32 role, address account) public view virtual returns (bool) {... */\n      swap3\n      swap2\n      pop\n      pop\n      jump\t// out\n        /* \"contracts/infrastructure/storage/HashStorage.sol\":2297:2408  function hasHash(bytes32 fileId) external view returns (bool) {... */\n    tag_59:\n        /* \"contracts/infrastructure/storage/HashStorage.sol\":2353:2357  bool */\n      0x00\n        /* \"contracts/infrastructure/storage/HashStorage.sol\":2376:2401  _fileIds.contains(fileId) */\n      tag_113\n        /* \"contracts/infrastructure/storage/HashStorage.sol\":2394:2400  fileId */\n      dup3\n        /* \"contracts/infrastructure/storage/HashStorage.sol\":2376:2384  _fileIds */\n      0x02\n        /* \"contracts/infrastructure/storage/HashStorage.sol\":2376:2393  _fileIds.contains */\n      tag_89\n      swap1\n        /* \"contracts/infrastructure/storage/HashStorage.sol\":2376:2401  _fileIds.contains(fileId) */\n      swap2\n      swap1\n      0xffffffff\n      and\n      jump\t// in\n    tag_113:\n        /* \"contracts/infrastructure/storage/HashStorage.sol\":2369:2401  return _fileIds.contains(fileId) */\n      swap1\n      pop\n        /* \"contracts/infrastructure/storage/HashStorage.sol\":2297:2408  function hasHash(bytes32 fileId) external view returns (bool) {... */\n      swap2\n      swap1\n      pop\n      jump\t// out\n        /* \"@openzeppelin/contracts/access/AccessControl.sol\":2187:2236  bytes32 public constant DEFAULT_ADMIN_ROLE = 0x00 */\n    tag_62:\n        /* \"@openzeppelin/contracts/access/AccessControl.sol\":2232:2236  0x00 */\n      0x00\n        /* \"@openzeppelin/contracts/access/AccessControl.sol\":2187:2236  bytes32 public constant DEFAULT_ADMIN_ROLE = 0x00 */\n      dup1\n      shl\n      dup2\n      jump\t// out\n        /* \"contracts/infrastructure/storage/HashStorage.sol\":2789:2896  function fileIdAt(uint256 index) external view returns (bytes32) {... */\n    tag_67:\n        /* \"contracts/infrastructure/storage/HashStorage.sol\":2845:2852  bytes32 */\n      0x00\n        /* \"contracts/infrastructure/storage/HashStorage.sol\":2871:2889  _fileIds.at(index) */\n      tag_115\n        /* \"contracts/infrastructure/storage/HashStorage.sol\":2883:2888  index */\n      dup3\n        /* \"contracts/infrastructure/storage/HashStorage.sol\":2871:2879  _fileIds */\n      0x02\n        /* \"contracts/infrastructure/storage/HashStorage.sol\":2871:2882  _fileIds.at */\n      tag_116\n      swap1\n        /* \"contracts/infrastructure/storage/HashStorage.sol\":2871:2889  _fileIds.at(index) */\n      swap2\n      swap1\n      0xffffffff\n      and\n      jump\t// in\n    tag_115:\n        /* \"contracts/infrastructure/storage/HashStorage.sol\":2864:2889  return _fileIds.at(index) */\n      swap1\n      pop\n        /* \"contracts/infrastructure/storage/HashStorage.sol\":2789:2896  function fileIdAt(uint256 index) external view returns (bytes32) {... */\n      swap2\n      swap1\n      pop\n      jump\t// out\n        /* \"contracts/infrastructure/storage/HashStorage.sol\":1042:1340  function storeHash(bytes32 fileId, bytes32 hash) external onlyRole(ADMIN_ROLE) {... */\n    tag_72:\n        /* \"contracts/infrastructure/storage/HashStorage.sol\":507:530  keccak256(\"ADMIN_ROLE\") */\n      0xa49807205ce4d355092ef5a8a18f56e8913cf4a201fbe287825b095693c21775\n        /* \"@openzeppelin/contracts/access/AccessControl.sol\":2464:2480  _checkRole(role) */\n      tag_118\n        /* \"@openzeppelin/contracts/access/AccessControl.sol\":2475:2479  role */\n      dup2\n        /* \"@openzeppelin/contracts/access/AccessControl.sol\":2464:2474  _checkRole */\n      tag_86\n        /* \"@openzeppelin/contracts/access/AccessControl.sol\":2464:2480  _checkRole(role) */\n      jump\t// in\n    tag_118:\n        /* \"contracts/infrastructure/storage/HashStorage.sol\":1140:1165  _fileIds.contains(fileId) */\n      tag_120\n        /* \"contracts/infrastructure/storage/HashStorage.sol\":1158:1164  fileId */\n      dup4\n        /* \"contracts/infrastructure/storage/HashStorage.sol\":1140:1148  _fileIds */\n      0x02\n        /* \"contracts/infrastructure/storage/HashStorage.sol\":1140:1157  _fileIds.contains */\n      tag_89\n      swap1\n        /* \"contracts/infrastructure/storage/HashStorage.sol\":1140:1165  _fileIds.contains(fileId) */\n      swap2\n      swap1\n      0xffffffff\n      and\n      jump\t// in\n    tag_120:\n        /* \"contracts/infrastructure/storage/HashStorage.sol\":1139:1165  !_fileIds.contains(fileId) */\n      iszero\n        /* \"contracts/infrastructure/storage/HashStorage.sol\":1131:1218  require(!_fileIds.contains(fileId), \"HashStorage: Hash already exists for the file ID\") */\n      tag_121\n      jumpi\n      mload(0x40)\n      0x08c379a000000000000000000000000000000000000000000000000000000000\n      dup2\n      mstore\n      0x04\n      add\n      tag_122\n      swap1\n      tag_123\n      jump\t// in\n    tag_122:\n      mload(0x40)\n      dup1\n      swap2\n      sub\n      swap1\n      revert\n    tag_121:\n        /* \"contracts/infrastructure/storage/HashStorage.sol\":1259:1263  hash */\n      dup2\n        /* \"contracts/infrastructure/storage/HashStorage.sol\":1237:1248  _fileHashes */\n      0x01\n        /* \"contracts/infrastructure/storage/HashStorage.sol\":1237:1256  _fileHashes[fileId] */\n      0x00\n        /* \"contracts/infrastructure/storage/HashStorage.sol\":1249:1255  fileId */\n      dup6\n        /* \"contracts/infrastructure/storage/HashStorage.sol\":1237:1256  _fileHashes[fileId] */\n      dup2\n      mstore\n      0x20\n      add\n      swap1\n      dup2\n      mstore\n      0x20\n      add\n      0x00\n      keccak256\n        /* \"contracts/infrastructure/storage/HashStorage.sol\":1237:1263  _fileHashes[fileId] = hash */\n      dup2\n      swap1\n      sstore\n      pop\n        /* \"contracts/infrastructure/storage/HashStorage.sol\":1273:1293  _fileIds.add(fileId) */\n      tag_124\n        /* \"contracts/infrastructure/storage/HashStorage.sol\":1286:1292  fileId */\n      dup4\n        /* \"contracts/infrastructure/storage/HashStorage.sol\":1273:1281  _fileIds */\n      0x02\n        /* \"contracts/infrastructure/storage/HashStorage.sol\":1273:1285  _fileIds.add */\n      tag_125\n      swap1\n        /* \"contracts/infrastructure/storage/HashStorage.sol\":1273:1293  _fileIds.add(fileId) */\n      swap2\n      swap1\n      0xffffffff\n      and\n      jump\t// in\n    tag_124:\n      pop\n        /* \"contracts/infrastructure/storage/HashStorage.sol\":1320:1326  fileId */\n      dup3\n        /* \"contracts/infrastructure/storage/HashStorage.sol\":1309:1333  HashStored(fileId, hash) */\n      0xe8b852025c92bcf45e7f08d5977ccebc1e8db3f27f62c4f0024510ca4cdd99c8\n        /* \"contracts/infrastructure/storage/HashStorage.sol\":1328:1332  hash */\n      dup4\n        /* \"contracts/infrastructure/storage/HashStorage.sol\":1309:1333  HashStored(fileId, hash) */\n      mload(0x40)\n      tag_126\n      swap2\n      swap1\n      tag_31\n      jump\t// in\n    tag_126:\n      mload(0x40)\n      dup1\n      swap2\n      sub\n      swap1\n      log2\n        /* \"contracts/infrastructure/storage/HashStorage.sol\":1042:1340  function storeHash(bytes32 fileId, bytes32 hash) external onlyRole(ADMIN_ROLE) {... */\n      pop\n      pop\n      pop\n      jump\t// out\n        /* \"@openzeppelin/contracts/access/AccessControl.sol\":4642:4780  function revokeRole(bytes32 role, address account) public virtual onlyRole(getRoleAdmin(role)) {... */\n    tag_75:\n        /* \"@openzeppelin/contracts/access/AccessControl.sol\":4717:4735  getRoleAdmin(role) */\n      tag_127\n        /* \"@openzeppelin/contracts/access/AccessControl.sol\":4730:4734  role */\n      dup3\n        /* \"@openzeppelin/contracts/access/AccessControl.sol\":4717:4729  getRoleAdmin */\n      tag_29\n        /* \"@openzeppelin/contracts/access/AccessControl.sol\":4717:4735  getRoleAdmin(role) */\n      jump\t// in\n    tag_127:\n        /* \"@openzeppelin/contracts/access/AccessControl.sol\":2464:2480  _checkRole(role) */\n      tag_129\n        /* \"@openzeppelin/contracts/access/AccessControl.sol\":2475:2479  role */\n      dup2\n        /* \"@openzeppelin/contracts/access/AccessControl.sol\":2464:2474  _checkRole */\n      tag_86\n        /* \"@openzeppelin/contracts/access/AccessControl.sol\":2464:2480  _checkRole(role) */\n      jump\t// in\n    tag_129:\n        /* \"@openzeppelin/contracts/access/AccessControl.sol\":4747:4773  _revokeRole(role, account) */\n      tag_131\n        /* \"@openzeppelin/contracts/access/AccessControl.sol\":4759:4763  role */\n      dup4\n        /* \"@openzeppelin/contracts/access/AccessControl.sol\":4765:4772  account */\n      dup4\n        /* \"@openzeppelin/contracts/access/AccessControl.sol\":4747:4758  _revokeRole */\n      tag_106\n        /* \"@openzeppelin/contracts/access/AccessControl.sol\":4747:4773  _revokeRole(role, account) */\n      jump\t// in\n    tag_131:\n      pop\n        /* \"@openzeppelin/contracts/access/AccessControl.sol\":4642:4780  function revokeRole(bytes32 role, address account) public virtual onlyRole(getRoleAdmin(role)) {... */\n      pop\n      pop\n      pop\n      jump\t// out\n        /* \"@openzeppelin/contracts/utils/introspection/ERC165.sol\":762:908  function supportsInterface(bytes4 interfaceId) public view virtual returns (bool) {... */\n    tag_79:\n        /* \"@openzeppelin/contracts/utils/introspection/ERC165.sol\":838:842  bool */\n      0x00\n        /* \"@openzeppelin/contracts/utils/introspection/ERC165.sol\":876:901  type(IERC165).interfaceId */\n      0x01ffc9a700000000000000000000000000000000000000000000000000000000\n        /* \"@openzeppelin/contracts/utils/introspection/ERC165.sol\":861:901  interfaceId == type(IERC165).interfaceId */\n      not(0xffffffffffffffffffffffffffffffffffffffffffffffffffffffff)\n      and\n        /* \"@openzeppelin/contracts/utils/introspection/ERC165.sol\":861:872  interfaceId */\n      dup3\n        /* \"@openzeppelin/contracts/utils/introspection/ERC165.sol\":861:901  interfaceId == type(IERC165).interfaceId */\n      not(0xffffffffffffffffffffffffffffffffffffffffffffffffffffffff)\n      and\n      eq\n        /* \"@openzeppelin/contracts/utils/introspection/ERC165.sol\":854:901  return interfaceId == type(IERC165).interfaceId */\n      swap1\n      pop\n        /* \"@openzeppelin/contracts/utils/introspection/ERC165.sol\":762:908  function supportsInterface(bytes4 interfaceId) public view virtual returns (bool) {... */\n      swap2\n      swap1\n      pop\n      jump\t// out\n        /* \"@openzeppelin/contracts/utils/structs/EnumerableSet.sol\":6650:6765  function length(Bytes32Set storage set) internal view returns (uint256) {... */\n    tag_83:\n        /* \"@openzeppelin/contracts/utils/structs/EnumerableSet.sol\":6713:6720  uint256 */\n      0x00\n        /* \"@openzeppelin/contracts/utils/structs/EnumerableSet.sol\":6739:6758  _length(set._inner) */\n      tag_134\n        /* \"@openzeppelin/contracts/utils/structs/EnumerableSet.sol\":6747:6750  set */\n      dup3\n        /* \"@openzeppelin/contracts/utils/structs/EnumerableSet.sol\":6747:6757  set._inner */\n      0x00\n      add\n        /* \"@openzeppelin/contracts/utils/structs/EnumerableSet.sol\":6739:6746  _length */\n      tag_135\n        /* \"@openzeppelin/contracts/utils/structs/EnumerableSet.sol\":6739:6758  _length(set._inner) */\n      jump\t// in\n    tag_134:\n        /* \"@openzeppelin/contracts/utils/structs/EnumerableSet.sol\":6732:6758  return _length(set._inner) */\n      swap1\n      pop\n        /* \"@openzeppelin/contracts/utils/structs/EnumerableSet.sol\":6650:6765  function length(Bytes32Set storage set) internal view returns (uint256) {... */\n      swap2\n      swap1\n      pop\n      jump\t// out\n        /* \"@openzeppelin/contracts/access/AccessControl.sol\":3199:3302  function _checkRole(bytes32 role) internal view virtual {... */\n    tag_86:\n        /* \"@openzeppelin/contracts/access/AccessControl.sol\":3265:3295  _checkRole(role, _msgSender()) */\n      tag_137\n        /* \"@openzeppelin/contracts/access/AccessControl.sol\":3276:3280  role */\n      dup2\n        /* \"@openzeppelin/contracts/access/AccessControl.sol\":3282:3294  _msgSender() */\n      tag_138\n        /* \"@openzeppelin/contracts/access/AccessControl.sol\":3282:3292  _msgSender */\n      tag_103\n        /* \"@openzeppelin/contracts/access/AccessControl.sol\":3282:3294  _msgSender() */\n      jump\t// in\n    tag_138:\n        /* \"@openzeppelin/contracts/access/AccessControl.sol\":3265:3275  _checkRole */\n      tag_139\n        /* \"@openzeppelin/contracts/access/AccessControl.sol\":3265:3295  _checkRole(role, _msgSender()) */\n      jump\t// in\n    tag_137:\n        /* \"@openzeppelin/contracts/access/AccessControl.sol\":3199:3302  function _checkRole(bytes32 role) internal view virtual {... */\n      pop\n      jump\t// out\n        /* \"@openzeppelin/contracts/utils/structs/EnumerableSet.sol\":6431:6569  function contains(Bytes32Set storage set, bytes32 value) internal view returns (bool) {... */\n    tag_89:\n        /* \"@openzeppelin/contracts/utils/structs/EnumerableSet.sol\":6511:6515  bool */\n      0x00\n        /* \"@openzeppelin/contracts/utils/structs/EnumerableSet.sol\":6534:6562  _contains(set._inner, value) */\n      tag_141\n        /* \"@openzeppelin/contracts/utils/structs/EnumerableSet.sol\":6544:6547  set */\n      dup4\n        /* \"@openzeppelin/contracts/utils/structs/EnumerableSet.sol\":6544:6554  set._inner */\n      0x00\n      add\n        /* \"@openzeppelin/contracts/utils/structs/EnumerableSet.sol\":6556:6561  value */\n      dup4\n        /* \"@openzeppelin/contracts/utils/structs/EnumerableSet.sol\":6534:6543  _contains */\n      tag_142\n        /* \"@openzeppelin/contracts/utils/structs/EnumerableSet.sol\":6534:6562  _contains(set._inner, value) */\n      jump\t// in\n    tag_141:\n        /* \"@openzeppelin/contracts/utils/structs/EnumerableSet.sol\":6527:6562  return _contains(set._inner, value) */\n      swap1\n      pop\n        /* \"@openzeppelin/contracts/utils/structs/EnumerableSet.sol\":6431:6569  function contains(Bytes32Set storage set, bytes32 value) internal view returns (bool) {... */\n      swap3\n      swap2\n      pop\n      pop\n      jump\t// out\n        /* \"@openzeppelin/contracts/utils/structs/EnumerableSet.sol\":6221:6350  function remove(Bytes32Set storage set, bytes32 value) internal returns (bool) {... */\n    tag_94:\n        /* \"@openzeppelin/contracts/utils/structs/EnumerableSet.sol\":6294:6298  bool */\n      0x00\n        /* \"@openzeppelin/contracts/utils/structs/EnumerableSet.sol\":6317:6343  _remove(set._inner, value) */\n      tag_144\n        /* \"@openzeppelin/contracts/utils/structs/EnumerableSet.sol\":6325:6328  set */\n      dup4\n        /* \"@openzeppelin/contracts/utils/structs/EnumerableSet.sol\":6325:6335  set._inner */\n      0x00\n      add\n        /* \"@openzeppelin/contracts/utils/structs/EnumerableSet.sol\":6337:6342  value */\n      dup4\n        /* \"@openzeppelin/contracts/utils/structs/EnumerableSet.sol\":6317:6324  _remove */\n      tag_145\n        /* \"@openzeppelin/contracts/utils/structs/EnumerableSet.sol\":6317:6343  _remove(set._inner, value) */\n      jump\t// in\n    tag_144:\n        /* \"@openzeppelin/contracts/utils/structs/EnumerableSet.sol\":6310:6343  return _remove(set._inner, value) */\n      swap1\n      pop\n        /* \"@openzeppelin/contracts/utils/structs/EnumerableSet.sol\":6221:6350  function remove(Bytes32Set storage set, bytes32 value) internal returns (bool) {... */\n      swap3\n      swap2\n      pop\n      pop\n      jump\t// out\n        /* \"@openzeppelin/contracts/access/AccessControl.sol\":6179:6495  function _grantRole(bytes32 role, address account) internal virtual returns (bool) {... */\n    tag_100:\n        /* \"@openzeppelin/contracts/access/AccessControl.sol\":6256:6260  bool */\n      0x00\n        /* \"@openzeppelin/contracts/access/AccessControl.sol\":6277:6299  hasRole(role, account) */\n      tag_147\n        /* \"@openzeppelin/contracts/access/AccessControl.sol\":6285:6289  role */\n      dup4\n        /* \"@openzeppelin/contracts/access/AccessControl.sol\":6291:6298  account */\n      dup4\n        /* \"@openzeppelin/contracts/access/AccessControl.sol\":6277:6284  hasRole */\n      tag_55\n        /* \"@openzeppelin/contracts/access/AccessControl.sol\":6277:6299  hasRole(role, account) */\n      jump\t// in\n    tag_147:\n        /* \"@openzeppelin/contracts/access/AccessControl.sol\":6272:6489  if (!hasRole(role, account)) {... */\n      tag_148\n      jumpi\n        /* \"@openzeppelin/contracts/access/AccessControl.sol\":6347:6351  true */\n      0x01\n        /* \"@openzeppelin/contracts/access/AccessControl.sol\":6315:6321  _roles */\n      0x00\n        /* \"@openzeppelin/contracts/access/AccessControl.sol\":6315:6327  _roles[role] */\n      dup1\n        /* \"@openzeppelin/contracts/access/AccessControl.sol\":6322:6326  role */\n      dup6\n        /* \"@openzeppelin/contracts/access/AccessControl.sol\":6315:6327  _roles[role] */\n      dup2\n      mstore\n      0x20\n      add\n      swap1\n      dup2\n      mstore\n      0x20\n      add\n      0x00\n      keccak256\n        /* \"@openzeppelin/contracts/access/AccessControl.sol\":6315:6335  _roles[role].hasRole */\n      0x00\n      add\n        /* \"@openzeppelin/contracts/access/AccessControl.sol\":6315:6344  _roles[role].hasRole[account] */\n      0x00\n        /* \"@openzeppelin/contracts/access/AccessControl.sol\":6336:6343  account */\n      dup5\n        /* \"@openzeppelin/contracts/access/AccessControl.sol\":6315:6344  _roles[role].hasRole[account] */\n      0xffffffffffffffffffffffffffffffffffffffff\n      and\n      0xffffffffffffffffffffffffffffffffffffffff\n      and\n      dup2\n      mstore\n      0x20\n      add\n      swap1\n      dup2\n      mstore\n      0x20\n      add\n      0x00\n      keccak256\n      0x00\n        /* \"@openzeppelin/contracts/access/AccessControl.sol\":6315:6351  _roles[role].hasRole[account] = true */\n      0x0100\n      exp\n      dup2\n      sload\n      dup2\n      0xff\n      mul\n      not\n      and\n      swap1\n      dup4\n      iszero\n      iszero\n      mul\n      or\n      swap1\n      sstore\n      pop\n        /* \"@openzeppelin/contracts/access/AccessControl.sol\":6397:6409  _msgSender() */\n      tag_149\n        /* \"@openzeppelin/contracts/access/AccessControl.sol\":6397:6407  _msgSender */\n      tag_103\n        /* \"@openzeppelin/contracts/access/AccessControl.sol\":6397:6409  _msgSender() */\n      jump\t// in\n    tag_149:\n        /* \"@openzeppelin/contracts/access/AccessControl.sol\":6370:6410  RoleGranted(role, account, _msgSender()) */\n      0xffffffffffffffffffffffffffffffffffffffff\n      and\n        /* \"@openzeppelin/contracts/access/AccessControl.sol\":6388:6395  account */\n      dup3\n        /* \"@openzeppelin/contracts/access/AccessControl.sol\":6370:6410  RoleGranted(role, account, _msgSender()) */\n      0xffffffffffffffffffffffffffffffffffffffff\n      and\n        /* \"@openzeppelin/contracts/access/AccessControl.sol\":6382:6386  role */\n      dup5\n        /* \"@openzeppelin/contracts/access/AccessControl.sol\":6370:6410  RoleGranted(role, account, _msgSender()) */\n      0x2f8788117e7eff1d82e926ec794901d17c78024a50270940304540a733656f0d\n      mload(0x40)\n      mload(0x40)\n      dup1\n      swap2\n      sub\n      swap1\n      log4\n        /* \"@openzeppelin/contracts/access/AccessControl.sol\":6431:6435  true */\n      0x01\n        /* \"@openzeppelin/contracts/access/AccessControl.sol\":6424:6435  return true */\n      swap1\n      pop\n      jump(tag_146)\n        /* \"@openzeppelin/contracts/access/AccessControl.sol\":6272:6489  if (!hasRole(role, account)) {... */\n    tag_148:\n        /* \"@openzeppelin/contracts/access/AccessControl.sol\":6473:6478  false */\n      0x00\n        /* \"@openzeppelin/contracts/access/AccessControl.sol\":6466:6478  return false */\n      swap1\n      pop\n        /* \"@openzeppelin/contracts/access/AccessControl.sol\":6179:6495  function _grantRole(bytes32 role, address account) internal virtual returns (bool) {... */\n    tag_146:\n      swap3\n      swap2\n      pop\n      pop\n      jump\t// out\n        /* \"@openzeppelin/contracts/utils/Context.sol\":656:752  function _msgSender() internal view virtual returns (address) {... */\n    tag_103:\n        /* \"@openzeppelin/contracts/utils/Context.sol\":709:716  address */\n      0x00\n        /* \"@openzeppelin/contracts/utils/Context.sol\":735:745  msg.sender */\n      caller\n        /* \"@openzeppelin/contracts/utils/Context.sol\":728:745  return msg.sender */\n      swap1\n      pop\n        /* \"@openzeppelin/contracts/utils/Context.sol\":656:752  function _msgSender() internal view virtual returns (address) {... */\n      swap1\n      jump\t// out\n        /* \"@openzeppelin/contracts/access/AccessControl.sol\":6730:7047  function _revokeRole(bytes32 role, address account) internal virtual returns (bool) {... */\n    tag_106:\n        /* \"@openzeppelin/contracts/access/AccessControl.sol\":6808:6812  bool */\n      0x00\n        /* \"@openzeppelin/contracts/access/AccessControl.sol\":6828:6850  hasRole(role, account) */\n      tag_153\n        /* \"@openzeppelin/contracts/access/AccessControl.sol\":6836:6840  role */\n      dup4\n        /* \"@openzeppelin/contracts/access/AccessControl.sol\":6842:6849  account */\n      dup4\n        /* \"@openzeppelin/contracts/access/AccessControl.sol\":6828:6835  hasRole */\n      tag_55\n        /* \"@openzeppelin/contracts/access/AccessControl.sol\":6828:6850  hasRole(role, account) */\n      jump\t// in\n    tag_153:\n        /* \"@openzeppelin/contracts/access/AccessControl.sol\":6824:7041  if (hasRole(role, account)) {... */\n      iszero\n      tag_154\n      jumpi\n        /* \"@openzeppelin/contracts/access/AccessControl.sol\":6898:6903  false */\n      0x00\n        /* \"@openzeppelin/contracts/access/AccessControl.sol\":6866:6872  _roles */\n      dup1\n        /* \"@openzeppelin/contracts/access/AccessControl.sol\":6866:6878  _roles[role] */\n      0x00\n        /* \"@openzeppelin/contracts/access/AccessControl.sol\":6873:6877  role */\n      dup6\n        /* \"@openzeppelin/contracts/access/AccessControl.sol\":6866:6878  _roles[role] */\n      dup2\n      mstore\n      0x20\n      add\n      swap1\n      dup2\n      mstore\n      0x20\n      add\n      0x00\n      keccak256\n        /* \"@openzeppelin/contracts/access/AccessControl.sol\":6866:6886  _roles[role].hasRole */\n      0x00\n      add\n        /* \"@openzeppelin/contracts/access/AccessControl.sol\":6866:6895  _roles[role].hasRole[account] */\n      0x00\n        /* \"@openzeppelin/contracts/access/AccessControl.sol\":6887:6894  account */\n      dup5\n        /* \"@openzeppelin/contracts/access/AccessControl.sol\":6866:6895  _roles[role].hasRole[account] */\n      0xffffffffffffffffffffffffffffffffffffffff\n      and\n      0xffffffffffffffffffffffffffffffffffffffff\n      and\n      dup2\n      mstore\n      0x20\n      add\n      swap1\n      dup2\n      mstore\n      0x20\n      add\n      0x00\n      keccak256\n      0x00\n        /* \"@openzeppelin/contracts/access/AccessControl.sol\":6866:6903  _roles[role].hasRole[account] = false */\n      0x0100\n      exp\n      dup2\n      sload\n      dup2\n      0xff\n      mul\n      not\n      and\n      swap1\n      dup4\n      iszero\n      iszero\n      mul\n      or\n      swap1\n      sstore\n      pop\n        /* \"@openzeppelin/contracts/access/AccessControl.sol\":6949:6961  _msgSender() */\n      tag_155\n        /* \"@openzeppelin/contracts/access/AccessControl.sol\":6949:6959  _msgSender */\n      tag_103\n        /* \"@openzeppelin/contracts/access/AccessControl.sol\":6949:6961  _msgSender() */\n      jump\t// in\n    tag_155:\n        /* \"@openzeppelin/contracts/access/AccessControl.sol\":6922:6962  RoleRevoked(role, account, _msgSender()) */\n      0xffffffffffffffffffffffffffffffffffffffff\n      and\n        /* \"@openzeppelin/contracts/access/AccessControl.sol\":6940:6947  account */\n      dup3\n        /* \"@openzeppelin/contracts/access/AccessControl.sol\":6922:6962  RoleRevoked(role, account, _msgSender()) */\n      0xffffffffffffffffffffffffffffffffffffffff\n      and\n        /* \"@openzeppelin/contracts/access/AccessControl.sol\":6934:6938  role */\n      dup5\n        /* \"@openzeppelin/contracts/access/AccessControl.sol\":6922:6962  RoleRevoked(role, account, _msgSender()) */\n      0xf6391f5c32d9c69d2a47ea670b442974b53935d1edc7fd64eb21e047a839171b\n      mload(0x40)\n      mload(0x40)\n      dup1\n      swap2\n      sub\n      swap1\n      log4\n        /* \"@openzeppelin/contracts/access/AccessControl.sol\":6983:6987  true */\n      0x01\n        /* \"@openzeppelin/contracts/access/AccessControl.sol\":6976:6987  return true */\n      swap1\n      pop\n      jump(tag_152)\n        /* \"@openzeppelin/contracts/access/AccessControl.sol\":6824:7041  if (hasRole(role, account)) {... */\n    tag_154:\n        /* \"@openzeppelin/contracts/access/AccessControl.sol\":7025:7030  false */\n      0x00\n        /* \"@openzeppelin/contracts/access/AccessControl.sol\":7018:7030  return false */\n      swap1\n      pop\n        /* \"@openzeppelin/contracts/access/AccessControl.sol\":6730:7047  function _revokeRole(bytes32 role, address account) internal virtual returns (bool) {... */\n    tag_152:\n      swap3\n      swap2\n      pop\n      pop\n      jump\t// out\n        /* \"@openzeppelin/contracts/utils/structs/EnumerableSet.sol\":7107:7236  function at(Bytes32Set storage set, uint256 index) internal view returns (bytes32) {... */\n    tag_116:\n        /* \"@openzeppelin/contracts/utils/structs/EnumerableSet.sol\":7181:7188  bytes32 */\n      0x00\n        /* \"@openzeppelin/contracts/utils/structs/EnumerableSet.sol\":7207:7229  _at(set._inner, index) */\n      tag_158\n        /* \"@openzeppelin/contracts/utils/structs/EnumerableSet.sol\":7211:7214  set */\n      dup4\n        /* \"@openzeppelin/contracts/utils/structs/EnumerableSet.sol\":7211:7221  set._inner */\n      0x00\n      add\n        /* \"@openzeppelin/contracts/utils/structs/EnumerableSet.sol\":7223:7228  index */\n      dup4\n        /* \"@openzeppelin/contracts/utils/structs/EnumerableSet.sol\":7207:7210  _at */\n      tag_159\n        /* \"@openzeppelin/contracts/utils/structs/EnumerableSet.sol\":7207:7229  _at(set._inner, index) */\n      jump\t// in\n    tag_158:\n        /* \"@openzeppelin/contracts/utils/structs/EnumerableSet.sol\":7200:7229  return _at(set._inner, index) */\n      swap1\n      pop\n        /* \"@openzeppelin/contracts/utils/structs/EnumerableSet.sol\":7107:7236  function at(Bytes32Set storage set, uint256 index) internal view returns (bytes32) {... */\n      swap3\n      swap2\n      pop\n      pop\n      jump\t// out\n        /* \"@openzeppelin/contracts/utils/structs/EnumerableSet.sol\":5930:6053  function add(Bytes32Set storage set, bytes32 value) internal returns (bool) {... */\n    tag_125:\n        /* \"@openzeppelin/contracts/utils/structs/EnumerableSet.sol\":6000:6004  bool */\n      0x00\n        /* \"@openzeppelin/contracts/utils/structs/EnumerableSet.sol\":6023:6046  _add(set._inner, value) */\n      tag_161\n        /* \"@openzeppelin/contracts/utils/structs/EnumerableSet.sol\":6028:6031  set */\n      dup4\n        /* \"@openzeppelin/contracts/utils/structs/EnumerableSet.sol\":6028:6038  set._inner */\n      0x00\n      add\n        /* \"@openzeppelin/contracts/utils/structs/EnumerableSet.sol\":6040:6045  value */\n      dup4\n        /* \"@openzeppelin/contracts/utils/structs/EnumerableSet.sol\":6023:6027  _add */\n      tag_162\n        /* \"@openzeppelin/contracts/utils/structs/EnumerableSet.sol\":6023:6046  _add(set._inner, value) */\n      jump\t// in\n    tag_161:\n        /* \"@openzeppelin/contracts/utils/structs/EnumerableSet.sol\":6016:6046  return _add(set._inner, value) */\n      swap1\n      pop\n        /* \"@openzeppelin/contracts/utils/structs/EnumerableSet.sol\":5930:6053  function add(Bytes32Set storage set, bytes32 value) internal returns (bool) {... */\n      swap3\n      swap2\n      pop\n      pop\n      jump\t// out\n        /* \"@openzeppelin/contracts/utils/structs/EnumerableSet.sol\":4474:4581  function _length(Set storage set) private view returns (uint256) {... */\n    tag_135:\n        /* \"@openzeppelin/contracts/utils/structs/EnumerableSet.sol\":4530:4537  uint256 */\n      0x00\n        /* \"@openzeppelin/contracts/utils/structs/EnumerableSet.sol\":4556:4559  set */\n      dup2\n        /* \"@openzeppelin/contracts/utils/structs/EnumerableSet.sol\":4556:4567  set._values */\n      0x00\n      add\n        /* \"@openzeppelin/contracts/utils/structs/EnumerableSet.sol\":4556:4574  set._values.length */\n      dup1\n      sload\n      swap1\n      pop\n        /* \"@openzeppelin/contracts/utils/structs/EnumerableSet.sol\":4549:4574  return set._values.length */\n      swap1\n      pop\n        /* \"@openzeppelin/contracts/utils/structs/EnumerableSet.sol\":4474:4581  function _length(Set storage set) private view returns (uint256) {... */\n      swap2\n      swap1\n      pop\n      jump\t// out\n        /* \"@openzeppelin/contracts/access/AccessControl.sol\":3432:3629  function _checkRole(bytes32 role, address account) internal view virtual {... */\n    tag_139:\n        /* \"@openzeppelin/contracts/access/AccessControl.sol\":3520:3542  hasRole(role, account) */\n      tag_165\n        /* \"@openzeppelin/contracts/access/AccessControl.sol\":3528:3532  role */\n      dup3\n        /* \"@openzeppelin/contracts/access/AccessControl.sol\":3534:3541  account */\n      dup3\n        /* \"@openzeppelin/contracts/access/AccessControl.sol\":3520:3527  hasRole */\n      tag_55\n        /* \"@openzeppelin/contracts/access/AccessControl.sol\":3520:3542  hasRole(role, account) */\n      jump\t// in\n    tag_165:\n        /* \"@openzeppelin/contracts/access/AccessControl.sol\":3515:3623  if (!hasRole(role, account)) {... */\n      tag_166\n      jumpi\n        /* \"@openzeppelin/contracts/access/AccessControl.sol\":3598:3605  account */\n      dup1\n        /* \"@openzeppelin/contracts/access/AccessControl.sol\":3607:3611  role */\n      dup3\n        /* \"@openzeppelin/contracts/access/AccessControl.sol\":3565:3612  AccessControlUnauthorizedAccount(account, role) */\n      mload(0x40)\n      0xe2517d3f00000000000000000000000000000000000000000000000000000000\n      dup2\n      mstore\n      0x04\n      add\n      tag_167\n      swap3\n      swap2\n      swap1\n      tag_168\n      jump\t// in\n    tag_167:\n      mload(0x40)\n      dup1\n      swap2\n      sub\n      swap1\n      revert\n        /* \"@openzeppelin/contracts/access/AccessControl.sol\":3515:3623  if (!hasRole(role, account)) {... */\n    tag_166:\n        /* \"@openzeppelin/contracts/access/AccessControl.sol\":3432:3629  function _checkRole(bytes32 role, address account) internal view virtual {... */\n      pop\n      pop\n      jump\t// out\n        /* \"@openzeppelin/contracts/utils/structs/EnumerableSet.sol\":4264:4393  function _contains(Set storage set, bytes32 value) private view returns (bool) {... */\n    tag_142:\n        /* \"@openzeppelin/contracts/utils/structs/EnumerableSet.sol\":4337:4341  bool */\n      0x00\n        /* \"@openzeppelin/contracts/utils/structs/EnumerableSet.sol\":4385:4386  0 */\n      dup1\n        /* \"@openzeppelin/contracts/utils/structs/EnumerableSet.sol\":4360:4363  set */\n      dup4\n        /* \"@openzeppelin/contracts/utils/structs/EnumerableSet.sol\":4360:4374  set._positions */\n      0x01\n      add\n        /* \"@openzeppelin/contracts/utils/structs/EnumerableSet.sol\":4360:4381  set._positions[value] */\n      0x00\n        /* \"@openzeppelin/contracts/utils/structs/EnumerableSet.sol\":4375:4380  value */\n      dup5\n        /* \"@openzeppelin/contracts/utils/structs/EnumerableSet.sol\":4360:4381  set._positions[value] */\n      dup2\n      mstore\n      0x20\n      add\n      swap1\n      dup2\n      mstore\n      0x20\n      add\n      0x00\n      keccak256\n      sload\n        /* \"@openzeppelin/contracts/utils/structs/EnumerableSet.sol\":4360:4386  set._positions[value] != 0 */\n      eq\n      iszero\n        /* \"@openzeppelin/contracts/utils/structs/EnumerableSet.sol\":4353:4386  return set._positions[value] != 0 */\n      swap1\n      pop\n        /* \"@openzeppelin/contracts/utils/structs/EnumerableSet.sol\":4264:4393  function _contains(Set storage set, bytes32 value) private view returns (bool) {... */\n      swap3\n      swap2\n      pop\n      pop\n      jump\t// out\n        /* \"@openzeppelin/contracts/utils/structs/EnumerableSet.sol\":2815:4183  function _remove(Set storage set, bytes32 value) private returns (bool) {... */\n    tag_145:\n        /* \"@openzeppelin/contracts/utils/structs/EnumerableSet.sol\":2881:2885  bool */\n      0x00\n        /* \"@openzeppelin/contracts/utils/structs/EnumerableSet.sol\":2991:3007  uint256 position */\n      dup1\n        /* \"@openzeppelin/contracts/utils/structs/EnumerableSet.sol\":3010:3013  set */\n      dup4\n        /* \"@openzeppelin/contracts/utils/structs/EnumerableSet.sol\":3010:3024  set._positions */\n      0x01\n      add\n        /* \"@openzeppelin/contracts/utils/structs/EnumerableSet.sol\":3010:3031  set._positions[value] */\n      0x00\n        /* \"@openzeppelin/contracts/utils/structs/EnumerableSet.sol\":3025:3030  value */\n      dup5\n        /* \"@openzeppelin/contracts/utils/structs/EnumerableSet.sol\":3010:3031  set._positions[value] */\n      dup2\n      mstore\n      0x20\n      add\n      swap1\n      dup2\n      mstore\n      0x20\n      add\n      0x00\n      keccak256\n      sload\n        /* \"@openzeppelin/contracts/utils/structs/EnumerableSet.sol\":2991:3031  uint256 position = set._positions[value] */\n      swap1\n      pop\n        /* \"@openzeppelin/contracts/utils/structs/EnumerableSet.sol\":3058:3059  0 */\n      0x00\n        /* \"@openzeppelin/contracts/utils/structs/EnumerableSet.sol\":3046:3054  position */\n      dup2\n        /* \"@openzeppelin/contracts/utils/structs/EnumerableSet.sol\":3046:3059  position != 0 */\n      eq\n        /* \"@openzeppelin/contracts/utils/structs/EnumerableSet.sol\":3042:4177  if (position != 0) {... */\n      tag_171\n      jumpi\n        /* \"@openzeppelin/contracts/utils/structs/EnumerableSet.sol\":3413:3431  uint256 valueIndex */\n      0x00\n        /* \"@openzeppelin/contracts/utils/structs/EnumerableSet.sol\":3445:3446  1 */\n      0x01\n        /* \"@openzeppelin/contracts/utils/structs/EnumerableSet.sol\":3434:3442  position */\n      dup3\n        /* \"@openzeppelin/contracts/utils/structs/EnumerableSet.sol\":3434:3446  position - 1 */\n      tag_172\n      swap2\n      swap1\n      tag_173\n      jump\t// in\n    tag_172:\n        /* \"@openzeppelin/contracts/utils/structs/EnumerableSet.sol\":3413:3446  uint256 valueIndex = position - 1 */\n      swap1\n      pop\n        /* \"@openzeppelin/contracts/utils/structs/EnumerableSet.sol\":3460:3477  uint256 lastIndex */\n      0x00\n        /* \"@openzeppelin/contracts/utils/structs/EnumerableSet.sol\":3501:3502  1 */\n      0x01\n        /* \"@openzeppelin/contracts/utils/structs/EnumerableSet.sol\":3480:3483  set */\n      dup7\n        /* \"@openzeppelin/contracts/utils/structs/EnumerableSet.sol\":3480:3491  set._values */\n      0x00\n      add\n        /* \"@openzeppelin/contracts/utils/structs/EnumerableSet.sol\":3480:3498  set._values.length */\n      dup1\n      sload\n      swap1\n      pop\n        /* \"@openzeppelin/contracts/utils/structs/EnumerableSet.sol\":3480:3502  set._values.length - 1 */\n      tag_174\n      swap2\n      swap1\n      tag_173\n      jump\t// in\n    tag_174:\n        /* \"@openzeppelin/contracts/utils/structs/EnumerableSet.sol\":3460:3502  uint256 lastIndex = set._values.length - 1 */\n      swap1\n      pop\n        /* \"@openzeppelin/contracts/utils/structs/EnumerableSet.sol\":3535:3544  lastIndex */\n      dup1\n        /* \"@openzeppelin/contracts/utils/structs/EnumerableSet.sol\":3521:3531  valueIndex */\n      dup3\n        /* \"@openzeppelin/contracts/utils/structs/EnumerableSet.sol\":3521:3544  valueIndex != lastIndex */\n      eq\n        /* \"@openzeppelin/contracts/utils/structs/EnumerableSet.sol\":3517:3895  if (valueIndex != lastIndex) {... */\n      tag_175\n      jumpi\n        /* \"@openzeppelin/contracts/utils/structs/EnumerableSet.sol\":3564:3581  bytes32 lastValue */\n      0x00\n        /* \"@openzeppelin/contracts/utils/structs/EnumerableSet.sol\":3584:3587  set */\n      dup7\n        /* \"@openzeppelin/contracts/utils/structs/EnumerableSet.sol\":3584:3595  set._values */\n      0x00\n      add\n        /* \"@openzeppelin/contracts/utils/structs/EnumerableSet.sol\":3596:3605  lastIndex */\n      dup3\n        /* \"@openzeppelin/contracts/utils/structs/EnumerableSet.sol\":3584:3606  set._values[lastIndex] */\n      dup2\n      sload\n      dup2\n      lt\n      tag_176\n      jumpi\n      tag_177\n      tag_178\n      jump\t// in\n    tag_177:\n    tag_176:\n      swap1\n      0x00\n      mstore\n      keccak256(0x00, 0x20)\n      add\n      sload\n        /* \"@openzeppelin/contracts/utils/structs/EnumerableSet.sol\":3564:3606  bytes32 lastValue = set._values[lastIndex] */\n      swap1\n      pop\n        /* \"@openzeppelin/contracts/utils/structs/EnumerableSet.sol\":3731:3740  lastValue */\n      dup1\n        /* \"@openzeppelin/contracts/utils/structs/EnumerableSet.sol\":3705:3708  set */\n      dup8\n        /* \"@openzeppelin/contracts/utils/structs/EnumerableSet.sol\":3705:3716  set._values */\n      0x00\n      add\n        /* \"@openzeppelin/contracts/utils/structs/EnumerableSet.sol\":3717:3727  valueIndex */\n      dup5\n        /* \"@openzeppelin/contracts/utils/structs/EnumerableSet.sol\":3705:3728  set._values[valueIndex] */\n      dup2\n      sload\n      dup2\n      lt\n      tag_180\n      jumpi\n      tag_181\n      tag_178\n      jump\t// in\n    tag_181:\n    tag_180:\n      swap1\n      0x00\n      mstore\n      keccak256(0x00, 0x20)\n      add\n        /* \"@openzeppelin/contracts/utils/structs/EnumerableSet.sol\":3705:3740  set._values[valueIndex] = lastValue */\n      dup2\n      swap1\n      sstore\n      pop\n        /* \"@openzeppelin/contracts/utils/structs/EnumerableSet.sol\":3872:3880  position */\n      dup4\n        /* \"@openzeppelin/contracts/utils/structs/EnumerableSet.sol\":3844:3847  set */\n      dup8\n        /* \"@openzeppelin/contracts/utils/structs/EnumerableSet.sol\":3844:3858  set._positions */\n      0x01\n      add\n        /* \"@openzeppelin/contracts/utils/structs/EnumerableSet.sol\":3844:3869  set._positions[lastValue] */\n      0x00\n        /* \"@openzeppelin/contracts/utils/structs/EnumerableSet.sol\":3859:3868  lastValue */\n      dup4\n        /* \"@openzeppelin/contracts/utils/structs/EnumerableSet.sol\":3844:3869  set._positions[lastValue] */\n      dup2\n      mstore\n      0x20\n      add\n      swap1\n      dup2\n      mstore\n      0x20\n      add\n      0x00\n      keccak256\n        /* \"@openzeppelin/contracts/utils/structs/EnumerableSet.sol\":3844:3880  set._positions[lastValue] = position */\n      dup2\n      swap1\n      sstore\n      pop\n        /* \"@openzeppelin/contracts/utils/structs/EnumerableSet.sol\":3546:3895  {... */\n      pop\n        /* \"@openzeppelin/contracts/utils/structs/EnumerableSet.sol\":3517:3895  if (valueIndex != lastIndex) {... */\n    tag_175:\n        /* \"@openzeppelin/contracts/utils/structs/EnumerableSet.sol\":3973:3976  set */\n      dup6\n        /* \"@openzeppelin/contracts/utils/structs/EnumerableSet.sol\":3973:3984  set._values */\n      0x00\n      add\n        /* \"@openzeppelin/contracts/utils/structs/EnumerableSet.sol\":3973:3990  set._values.pop() */\n      dup1\n      sload\n      dup1\n      tag_183\n      jumpi\n      tag_184\n      tag_185\n      jump\t// in\n    tag_184:\n    tag_183:\n      0x01\n      swap1\n      sub\n      dup2\n      dup2\n      swap1\n      0x00\n      mstore\n      keccak256(0x00, 0x20)\n      add\n      0x00\n      swap1\n      sstore\n      swap1\n      sstore\n        /* \"@openzeppelin/contracts/utils/structs/EnumerableSet.sol\":4076:4079  set */\n      dup6\n        /* \"@openzeppelin/contracts/utils/structs/EnumerableSet.sol\":4076:4090  set._positions */\n      0x01\n      add\n        /* \"@openzeppelin/contracts/utils/structs/EnumerableSet.sol\":4076:4097  set._positions[value] */\n      0x00\n        /* \"@openzeppelin/contracts/utils/structs/EnumerableSet.sol\":4091:4096  value */\n      dup7\n        /* \"@openzeppelin/contracts/utils/structs/EnumerableSet.sol\":4076:4097  set._positions[value] */\n      dup2\n      mstore\n      0x20\n      add\n      swap1\n      dup2\n      mstore\n      0x20\n      add\n      0x00\n      keccak256\n        /* \"@openzeppelin/contracts/utils/structs/EnumerableSet.sol\":4069:4097  delete set._positions[value] */\n      0x00\n      swap1\n      sstore\n        /* \"@openzeppelin/contracts/utils/structs/EnumerableSet.sol\":4119:4123  true */\n      0x01\n        /* \"@openzeppelin/contracts/utils/structs/EnumerableSet.sol\":4112:4123  return true */\n      swap4\n      pop\n      pop\n      pop\n      pop\n      jump(tag_170)\n        /* \"@openzeppelin/contracts/utils/structs/EnumerableSet.sol\":3042:4177  if (position != 0) {... */\n    tag_171:\n        /* \"@openzeppelin/contracts/utils/structs/EnumerableSet.sol\":4161:4166  false */\n      0x00\n        /* \"@openzeppelin/contracts/utils/structs/EnumerableSet.sol\":4154:4166  return false */\n      swap2\n      pop\n      pop\n        /* \"@openzeppelin/contracts/utils/structs/EnumerableSet.sol\":2815:4183  function _remove(Set storage set, bytes32 value) private returns (bool) {... */\n    tag_170:\n      swap3\n      swap2\n      pop\n      pop\n      jump\t// out\n        /* \"@openzeppelin/contracts/utils/structs/EnumerableSet.sol\":4923:5041  function _at(Set storage set, uint256 index) private view returns (bytes32) {... */\n    tag_159:\n        /* \"@openzeppelin/contracts/utils/structs/EnumerableSet.sol\":4990:4997  bytes32 */\n      0x00\n        /* \"@openzeppelin/contracts/utils/structs/EnumerableSet.sol\":5016:5019  set */\n      dup3\n        /* \"@openzeppelin/contracts/utils/structs/EnumerableSet.sol\":5016:5027  set._values */\n      0x00\n      add\n        /* \"@openzeppelin/contracts/utils/structs/EnumerableSet.sol\":5028:5033  index */\n      dup3\n        /* \"@openzeppelin/contracts/utils/structs/EnumerableSet.sol\":5016:5034  set._values[index] */\n      dup2\n      sload\n      dup2\n      lt\n      tag_189\n      jumpi\n      tag_190\n      tag_178\n      jump\t// in\n    tag_190:\n    tag_189:\n      swap1\n      0x00\n      mstore\n      keccak256(0x00, 0x20)\n      add\n      sload\n        /* \"@openzeppelin/contracts/utils/structs/EnumerableSet.sol\":5009:5034  return set._values[index] */\n      swap1\n      pop\n        /* \"@openzeppelin/contracts/utils/structs/EnumerableSet.sol\":4923:5041  function _at(Set storage set, uint256 index) private view returns (bytes32) {... */\n      swap3\n      swap2\n      pop\n      pop\n      jump\t// out\n        /* \"@openzeppelin/contracts/utils/structs/EnumerableSet.sol\":2241:2647  function _add(Set storage set, bytes32 value) private returns (bool) {... */\n    tag_162:\n        /* \"@openzeppelin/contracts/utils/structs/EnumerableSet.sol\":2304:2308  bool */\n      0x00\n        /* \"@openzeppelin/contracts/utils/structs/EnumerableSet.sol\":2325:2346  _contains(set, value) */\n      tag_193\n        /* \"@openzeppelin/contracts/utils/structs/EnumerableSet.sol\":2335:2338  set */\n      dup4\n        /* \"@openzeppelin/contracts/utils/structs/EnumerableSet.sol\":2340:2345  value */\n      dup4\n        /* \"@openzeppelin/contracts/utils/structs/EnumerableSet.sol\":2325:2334  _contains */\n      tag_142\n        /* \"@openzeppelin/contracts/utils/structs/EnumerableSet.sol\":2325:2346  _contains(set, value) */\n      jump\t// in\n    tag_193:\n        /* \"@openzeppelin/contracts/utils/structs/EnumerableSet.sol\":2320:2641  if (!_contains(set, value)) {... */\n      tag_194\n      jumpi\n        /* \"@openzeppelin/contracts/utils/structs/EnumerableSet.sol\":2362:2365  set */\n      dup3\n        /* \"@openzeppelin/contracts/utils/structs/EnumerableSet.sol\":2362:2373  set._values */\n      0x00\n      add\n        /* \"@openzeppelin/contracts/utils/structs/EnumerableSet.sol\":2379:2384  value */\n      dup3\n        /* \"@openzeppelin/contracts/utils/structs/EnumerableSet.sol\":2362:2385  set._values.push(value) */\n      swap1\n      dup1\n      0x01\n      dup2\n      sload\n      add\n      dup1\n      dup3\n      sstore\n      dup1\n      swap2\n      pop\n      pop\n      0x01\n      swap1\n      sub\n      swap1\n      0x00\n      mstore\n      keccak256(0x00, 0x20)\n      add\n      0x00\n      swap1\n      swap2\n      swap1\n      swap2\n      swap1\n      swap2\n      pop\n      sstore\n        /* \"@openzeppelin/contracts/utils/structs/EnumerableSet.sol\":2544:2547  set */\n      dup3\n        /* \"@openzeppelin/contracts/utils/structs/EnumerableSet.sol\":2544:2555  set._values */\n      0x00\n      add\n        /* \"@openzeppelin/contracts/utils/structs/EnumerableSet.sol\":2544:2562  set._values.length */\n      dup1\n      sload\n      swap1\n      pop\n        /* \"@openzeppelin/contracts/utils/structs/EnumerableSet.sol\":2520:2523  set */\n      dup4\n        /* \"@openzeppelin/contracts/utils/structs/EnumerableSet.sol\":2520:2534  set._positions */\n      0x01\n      add\n        /* \"@openzeppelin/contracts/utils/structs/EnumerableSet.sol\":2520:2541  set._positions[value] */\n      0x00\n        /* \"@openzeppelin/contracts/utils/structs/EnumerableSet.sol\":2535:2540  value */\n      dup5\n        /* \"@openzeppelin/contracts/utils/structs/EnumerableSet.sol\":2520:2541  set._positions[value] */\n      dup2\n      mstore\n      0x20\n      add\n      swap1\n      dup2\n      mstore\n      0x20\n      add\n      0x00\n      keccak256\n        /* \"@openzeppelin/contracts/utils/structs/EnumerableSet.sol\":2520:2562  set._positions[value] = set._values.length */\n      dup2\n      swap1\n      sstore\n      pop\n        /* \"@openzeppelin/contracts/utils/structs/EnumerableSet.sol\":2583:2587  true */\n      0x01\n        /* \"@openzeppelin/contracts/utils/structs/EnumerableSet.sol\":2576:2587  return true */\n      swap1\n      pop\n      jump(tag_192)\n        /* \"@openzeppelin/contracts/utils/structs/EnumerableSet.sol\":2320:2641  if (!_contains(set, value)) {... */\n    tag_194:\n        /* \"@openzeppelin/contracts/utils/structs/EnumerableSet.sol\":2625:2630  false */\n      0x00\n        /* \"@openzeppelin/contracts/utils/structs/EnumerableSet.sol\":2618:2630  return false */\n      swap1\n      pop\n        /* \"@openzeppelin/contracts/utils/structs/EnumerableSet.sol\":2241:2647  function _add(Set storage set, bytes32 value) private returns (bool) {... */\n    tag_192:\n      swap3\n      swap2\n      pop\n      pop\n      jump\t// out\n        /* \"#utility.yul\":88:205   */\n    tag_198:\n        /* \"#utility.yul\":197:198   */\n      0x00\n        /* \"#utility.yul\":194:195   */\n      dup1\n        /* \"#utility.yul\":187:199   */\n      revert\n        /* \"#utility.yul\":334:483   */\n    tag_200:\n        /* \"#utility.yul\":370:377   */\n      0x00\n        /* \"#utility.yul\":410:476   */\n      0xffffffff00000000000000000000000000000000000000000000000000000000\n        /* \"#utility.yul\":403:408   */\n      dup3\n        /* \"#utility.yul\":399:477   */\n      and\n        /* \"#utility.yul\":388:477   */\n      swap1\n      pop\n        /* \"#utility.yul\":334:483   */\n      swap2\n      swap1\n      pop\n      jump\t// out\n        /* \"#utility.yul\":489:609   */\n    tag_201:\n        /* \"#utility.yul\":561:584   */\n      tag_230\n        /* \"#utility.yul\":578:583   */\n      dup2\n        /* \"#utility.yul\":561:584   */\n      tag_200\n      jump\t// in\n    tag_230:\n        /* \"#utility.yul\":554:559   */\n      dup2\n        /* \"#utility.yul\":551:585   */\n      eq\n        /* \"#utility.yul\":541:603   */\n      tag_231\n      jumpi\n        /* \"#utility.yul\":599:600   */\n      0x00\n        /* \"#utility.yul\":596:597   */\n      dup1\n        /* \"#utility.yul\":589:601   */\n      revert\n        /* \"#utility.yul\":541:603   */\n    tag_231:\n        /* \"#utility.yul\":489:609   */\n      pop\n      jump\t// out\n        /* \"#utility.yul\":615:752   */\n    tag_202:\n        /* \"#utility.yul\":660:665   */\n      0x00\n        /* \"#utility.yul\":698:704   */\n      dup2\n        /* \"#utility.yul\":685:705   */\n      calldataload\n        /* \"#utility.yul\":676:705   */\n      swap1\n      pop\n        /* \"#utility.yul\":714:746   */\n      tag_233\n        /* \"#utility.yul\":740:745   */\n      dup2\n        /* \"#utility.yul\":714:746   */\n      tag_201\n      jump\t// in\n    tag_233:\n        /* \"#utility.yul\":615:752   */\n      swap3\n      swap2\n      pop\n      pop\n      jump\t// out\n        /* \"#utility.yul\":758:1085   */\n    tag_22:\n        /* \"#utility.yul\":816:822   */\n      0x00\n        /* \"#utility.yul\":865:867   */\n      0x20\n        /* \"#utility.yul\":853:862   */\n      dup3\n        /* \"#utility.yul\":844:851   */\n      dup5\n        /* \"#utility.yul\":840:863   */\n      sub\n        /* \"#utility.yul\":836:868   */\n      slt\n        /* \"#utility.yul\":833:952   */\n      iszero\n      tag_235\n      jumpi\n        /* \"#utility.yul\":871:950   */\n      tag_236\n      tag_198\n      jump\t// in\n    tag_236:\n        /* \"#utility.yul\":833:952   */\n    tag_235:\n        /* \"#utility.yul\":991:992   */\n      0x00\n        /* \"#utility.yul\":1016:1068   */\n      tag_237\n        /* \"#utility.yul\":1060:1067   */\n      dup5\n        /* \"#utility.yul\":1051:1057   */\n      dup3\n        /* \"#utility.yul\":1040:1049   */\n      dup6\n        /* \"#utility.yul\":1036:1058   */\n      add\n        /* \"#utility.yul\":1016:1068   */\n      tag_202\n      jump\t// in\n    tag_237:\n        /* \"#utility.yul\":1006:1068   */\n      swap2\n      pop\n        /* \"#utility.yul\":962:1078   */\n      pop\n        /* \"#utility.yul\":758:1085   */\n      swap3\n      swap2\n      pop\n      pop\n      jump\t// out\n        /* \"#utility.yul\":1091:1181   */\n    tag_203:\n        /* \"#utility.yul\":1125:1132   */\n      0x00\n        /* \"#utility.yul\":1168:1173   */\n      dup2\n        /* \"#utility.yul\":1161:1174   */\n      iszero\n        /* \"#utility.yul\":1154:1175   */\n      iszero\n        /* \"#utility.yul\":1143:1175   */\n      swap1\n      pop\n        /* \"#utility.yul\":1091:1181   */\n      swap2\n      swap1\n      pop\n      jump\t// out\n        /* \"#utility.yul\":1187:1296   */\n    tag_204:\n        /* \"#utility.yul\":1268:1289   */\n      tag_240\n        /* \"#utility.yul\":1283:1288   */\n      dup2\n        /* \"#utility.yul\":1268:1289   */\n      tag_203\n      jump\t// in\n    tag_240:\n        /* \"#utility.yul\":1263:1266   */\n      dup3\n        /* \"#utility.yul\":1256:1290   */\n      mstore\n        /* \"#utility.yul\":1187:1296   */\n      pop\n      pop\n      jump\t// out\n        /* \"#utility.yul\":1302:1512   */\n    tag_25:\n        /* \"#utility.yul\":1389:1393   */\n      0x00\n        /* \"#utility.yul\":1427:1429   */\n      0x20\n        /* \"#utility.yul\":1416:1425   */\n      dup3\n        /* \"#utility.yul\":1412:1430   */\n      add\n        /* \"#utility.yul\":1404:1430   */\n      swap1\n      pop\n        /* \"#utility.yul\":1440:1505   */\n      tag_242\n        /* \"#utility.yul\":1502:1503   */\n      0x00\n        /* \"#utility.yul\":1491:1500   */\n      dup4\n        /* \"#utility.yul\":1487:1504   */\n      add\n        /* \"#utility.yul\":1478:1484   */\n      dup5\n        /* \"#utility.yul\":1440:1505   */\n      tag_204\n      jump\t// in\n    tag_242:\n        /* \"#utility.yul\":1302:1512   */\n      swap3\n      swap2\n      pop\n      pop\n      jump\t// out\n        /* \"#utility.yul\":1518:1595   */\n    tag_205:\n        /* \"#utility.yul\":1555:1562   */\n      0x00\n        /* \"#utility.yul\":1584:1589   */\n      dup2\n        /* \"#utility.yul\":1573:1589   */\n      swap1\n      pop\n        /* \"#utility.yul\":1518:1595   */\n      swap2\n      swap1\n      pop\n      jump\t// out\n        /* \"#utility.yul\":1601:1723   */\n    tag_206:\n        /* \"#utility.yul\":1674:1698   */\n      tag_245\n        /* \"#utility.yul\":1692:1697   */\n      dup2\n        /* \"#utility.yul\":1674:1698   */\n      tag_205\n      jump\t// in\n    tag_245:\n        /* \"#utility.yul\":1667:1672   */\n      dup2\n        /* \"#utility.yul\":1664:1699   */\n      eq\n        /* \"#utility.yul\":1654:1717   */\n      tag_246\n      jumpi\n        /* \"#utility.yul\":1713:1714   */\n      0x00\n        /* \"#utility.yul\":1710:1711   */\n      dup1\n        /* \"#utility.yul\":1703:1715   */\n      revert\n        /* \"#utility.yul\":1654:1717   */\n    tag_246:\n        /* \"#utility.yul\":1601:1723   */\n      pop\n      jump\t// out\n        /* \"#utility.yul\":1729:1868   */\n    tag_207:\n        /* \"#utility.yul\":1775:1780   */\n      0x00\n        /* \"#utility.yul\":1813:1819   */\n      dup2\n        /* \"#utility.yul\":1800:1820   */\n      calldataload\n        /* \"#utility.yul\":1791:1820   */\n      swap1\n      pop\n        /* \"#utility.yul\":1829:1862   */\n      tag_248\n        /* \"#utility.yul\":1856:1861   */\n      dup2\n        /* \"#utility.yul\":1829:1862   */\n      tag_206\n      jump\t// in\n    tag_248:\n        /* \"#utility.yul\":1729:1868   */\n      swap3\n      swap2\n      pop\n      pop\n      jump\t// out\n        /* \"#utility.yul\":1874:2203   */\n    tag_28:\n        /* \"#utility.yul\":1933:1939   */\n      0x00\n        /* \"#utility.yul\":1982:1984   */\n      0x20\n        /* \"#utility.yul\":1970:1979   */\n      dup3\n        /* \"#utility.yul\":1961:1968   */\n      dup5\n        /* \"#utility.yul\":1957:1980   */\n      sub\n        /* \"#utility.yul\":1953:1985   */\n      slt\n        /* \"#utility.yul\":1950:2069   */\n      iszero\n      tag_250\n      jumpi\n        /* \"#utility.yul\":1988:2067   */\n      tag_251\n      tag_198\n      jump\t// in\n    tag_251:\n        /* \"#utility.yul\":1950:2069   */\n    tag_250:\n        /* \"#utility.yul\":2108:2109   */\n      0x00\n        /* \"#utility.yul\":2133:2186   */\n      tag_252\n        /* \"#utility.yul\":2178:2185   */\n      dup5\n        /* \"#utility.yul\":2169:2175   */\n      dup3\n        /* \"#utility.yul\":2158:2167   */\n      dup6\n        /* \"#utility.yul\":2154:2176   */\n      add\n        /* \"#utility.yul\":2133:2186   */\n      tag_207\n      jump\t// in\n    tag_252:\n        /* \"#utility.yul\":2123:2186   */\n      swap2\n      pop\n        /* \"#utility.yul\":2079:2196   */\n      pop\n        /* \"#utility.yul\":1874:2203   */\n      swap3\n      swap2\n      pop\n      pop\n      jump\t// out\n        /* \"#utility.yul\":2209:2327   */\n    tag_208:\n        /* \"#utility.yul\":2296:2320   */\n      tag_254\n        /* \"#utility.yul\":2314:2319   */\n      dup2\n        /* \"#utility.yul\":2296:2320   */\n      tag_205\n      jump\t// in\n    tag_254:\n        /* \"#utility.yul\":2291:2294   */\n      dup3\n        /* \"#utility.yul\":2284:2321   */\n      mstore\n        /* \"#utility.yul\":2209:2327   */\n      pop\n      pop\n      jump\t// out\n        /* \"#utility.yul\":2333:2555   */\n    tag_31:\n        /* \"#utility.yul\":2426:2430   */\n      0x00\n        /* \"#utility.yul\":2464:2466   */\n      0x20\n        /* \"#utility.yul\":2453:2462   */\n      dup3\n        /* \"#utility.yul\":2449:2467   */\n      add\n        /* \"#utility.yul\":2441:2467   */\n      swap1\n      pop\n        /* \"#utility.yul\":2477:2548   */\n      tag_256\n        /* \"#utility.yul\":2545:2546   */\n      0x00\n        /* \"#utility.yul\":2534:2543   */\n      dup4\n        /* \"#utility.yul\":2530:2547   */\n      add\n        /* \"#utility.yul\":2521:2527   */\n      dup5\n        /* \"#utility.yul\":2477:2548   */\n      tag_208\n      jump\t// in\n    tag_256:\n        /* \"#utility.yul\":2333:2555   */\n      swap3\n      swap2\n      pop\n      pop\n      jump\t// out\n        /* \"#utility.yul\":2561:2638   */\n    tag_209:\n        /* \"#utility.yul\":2598:2605   */\n      0x00\n        /* \"#utility.yul\":2627:2632   */\n      dup2\n        /* \"#utility.yul\":2616:2632   */\n      swap1\n      pop\n        /* \"#utility.yul\":2561:2638   */\n      swap2\n      swap1\n      pop\n      jump\t// out\n        /* \"#utility.yul\":2644:2762   */\n    tag_210:\n        /* \"#utility.yul\":2731:2755   */\n      tag_259\n        /* \"#utility.yul\":2749:2754   */\n      dup2\n        /* \"#utility.yul\":2731:2755   */\n      tag_209\n      jump\t// in\n    tag_259:\n        /* \"#utility.yul\":2726:2729   */\n      dup3\n        /* \"#utility.yul\":2719:2756   */\n      mstore\n        /* \"#utility.yul\":2644:2762   */\n      pop\n      pop\n      jump\t// out\n        /* \"#utility.yul\":2768:2990   */\n    tag_35:\n        /* \"#utility.yul\":2861:2865   */\n      0x00\n        /* \"#utility.yul\":2899:2901   */\n      0x20\n        /* \"#utility.yul\":2888:2897   */\n      dup3\n        /* \"#utility.yul\":2884:2902   */\n      add\n        /* \"#utility.yul\":2876:2902   */\n      swap1\n      pop\n        /* \"#utility.yul\":2912:2983   */\n      tag_261\n        /* \"#utility.yul\":2980:2981   */\n      0x00\n        /* \"#utility.yul\":2969:2978   */\n      dup4\n        /* \"#utility.yul\":2965:2982   */\n      add\n        /* \"#utility.yul\":2956:2962   */\n      dup5\n        /* \"#utility.yul\":2912:2983   */\n      tag_210\n      jump\t// in\n    tag_261:\n        /* \"#utility.yul\":2768:2990   */\n      swap3\n      swap2\n      pop\n      pop\n      jump\t// out\n        /* \"#utility.yul\":2996:3122   */\n    tag_211:\n        /* \"#utility.yul\":3033:3040   */\n      0x00\n        /* \"#utility.yul\":3073:3115   */\n      0xffffffffffffffffffffffffffffffffffffffff\n        /* \"#utility.yul\":3066:3071   */\n      dup3\n        /* \"#utility.yul\":3062:3116   */\n      and\n        /* \"#utility.yul\":3051:3116   */\n      swap1\n      pop\n        /* \"#utility.yul\":2996:3122   */\n      swap2\n      swap1\n      pop\n      jump\t// out\n        /* \"#utility.yul\":3128:3224   */\n    tag_212:\n        /* \"#utility.yul\":3165:3172   */\n      0x00\n        /* \"#utility.yul\":3194:3218   */\n      tag_264\n        /* \"#utility.yul\":3212:3217   */\n      dup3\n        /* \"#utility.yul\":3194:3218   */\n      tag_211\n      jump\t// in\n    tag_264:\n        /* \"#utility.yul\":3183:3218   */\n      swap1\n      pop\n        /* \"#utility.yul\":3128:3224   */\n      swap2\n      swap1\n      pop\n      jump\t// out\n        /* \"#utility.yul\":3230:3352   */\n    tag_213:\n        /* \"#utility.yul\":3303:3327   */\n      tag_266\n        /* \"#utility.yul\":3321:3326   */\n      dup2\n        /* \"#utility.yul\":3303:3327   */\n      tag_212\n      jump\t// in\n    tag_266:\n        /* \"#utility.yul\":3296:3301   */\n      dup2\n        /* \"#utility.yul\":3293:3328   */\n      eq\n        /* \"#utility.yul\":3283:3346   */\n      tag_267\n      jumpi\n        /* \"#utility.yul\":3342:3343   */\n      0x00\n        /* \"#utility.yul\":3339:3340   */\n      dup1\n        /* \"#utility.yul\":3332:3344   */\n      revert\n        /* \"#utility.yul\":3283:3346   */\n    tag_267:\n        /* \"#utility.yul\":3230:3352   */\n      pop\n      jump\t// out\n        /* \"#utility.yul\":3358:3497   */\n    tag_214:\n        /* \"#utility.yul\":3404:3409   */\n      0x00\n        /* \"#utility.yul\":3442:3448   */\n      dup2\n        /* \"#utility.yul\":3429:3449   */\n      calldataload\n        /* \"#utility.yul\":3420:3449   */\n      swap1\n      pop\n        /* \"#utility.yul\":3458:3491   */\n      tag_269\n        /* \"#utility.yul\":3485:3490   */\n      dup2\n        /* \"#utility.yul\":3458:3491   */\n      tag_213\n      jump\t// in\n    tag_269:\n        /* \"#utility.yul\":3358:3497   */\n      swap3\n      swap2\n      pop\n      pop\n      jump\t// out\n        /* \"#utility.yul\":3503:3977   */\n    tag_41:\n        /* \"#utility.yul\":3571:3577   */\n      0x00\n        /* \"#utility.yul\":3579:3585   */\n      dup1\n        /* \"#utility.yul\":3628:3630   */\n      0x40\n        /* \"#utility.yul\":3616:3625   */\n      dup4\n        /* \"#utility.yul\":3607:3614   */\n      dup6\n        /* \"#utility.yul\":3603:3626   */\n      sub\n        /* \"#utility.yul\":3599:3631   */\n      slt\n        /* \"#utility.yul\":3596:3715   */\n      iszero\n      tag_271\n      jumpi\n        /* \"#utility.yul\":3634:3713   */\n      tag_272\n      tag_198\n      jump\t// in\n    tag_272:\n        /* \"#utility.yul\":3596:3715   */\n    tag_271:\n        /* \"#utility.yul\":3754:3755   */\n      0x00\n        /* \"#utility.yul\":3779:3832   */\n      tag_273\n        /* \"#utility.yul\":3824:3831   */\n      dup6\n        /* \"#utility.yul\":3815:3821   */\n      dup3\n        /* \"#utility.yul\":3804:3813   */\n      dup7\n        /* \"#utility.yul\":3800:3822   */\n      add\n        /* \"#utility.yul\":3779:3832   */\n      tag_207\n      jump\t// in\n    tag_273:\n        /* \"#utility.yul\":3769:3832   */\n      swap3\n      pop\n        /* \"#utility.yul\":3725:3842   */\n      pop\n        /* \"#utility.yul\":3881:3883   */\n      0x20\n        /* \"#utility.yul\":3907:3960   */\n      tag_274\n        /* \"#utility.yul\":3952:3959   */\n      dup6\n        /* \"#utility.yul\":3943:3949   */\n      dup3\n        /* \"#utility.yul\":3932:3941   */\n      dup7\n        /* \"#utility.yul\":3928:3950   */\n      add\n        /* \"#utility.yul\":3907:3960   */\n      tag_214\n      jump\t// in\n    tag_274:\n        /* \"#utility.yul\":3897:3960   */\n      swap2\n      pop\n        /* \"#utility.yul\":3852:3970   */\n      pop\n        /* \"#utility.yul\":3503:3977   */\n      swap3\n      pop\n      swap3\n      swap1\n      pop\n      jump\t// out\n        /* \"#utility.yul\":3983:4105   */\n    tag_215:\n        /* \"#utility.yul\":4056:4080   */\n      tag_276\n        /* \"#utility.yul\":4074:4079   */\n      dup2\n        /* \"#utility.yul\":4056:4080   */\n      tag_209\n      jump\t// in\n    tag_276:\n        /* \"#utility.yul\":4049:4054   */\n      dup2\n        /* \"#utility.yul\":4046:4081   */\n      eq\n        /* \"#utility.yul\":4036:4099   */\n      tag_277\n      jumpi\n        /* \"#utility.yul\":4095:4096   */\n      0x00\n        /* \"#utility.yul\":4092:4093   */\n      dup1\n        /* \"#utility.yul\":4085:4097   */\n      revert\n        /* \"#utility.yul\":4036:4099   */\n    tag_277:\n        /* \"#utility.yul\":3983:4105   */\n      pop\n      jump\t// out\n        /* \"#utility.yul\":4111:4250   */\n    tag_216:\n        /* \"#utility.yul\":4157:4162   */\n      0x00\n        /* \"#utility.yul\":4195:4201   */\n      dup2\n        /* \"#utility.yul\":4182:4202   */\n      calldataload\n        /* \"#utility.yul\":4173:4202   */\n      swap1\n      pop\n        /* \"#utility.yul\":4211:4244   */\n      tag_279\n        /* \"#utility.yul\":4238:4243   */\n      dup2\n        /* \"#utility.yul\":4211:4244   */\n      tag_215\n      jump\t// in\n    tag_279:\n        /* \"#utility.yul\":4111:4250   */\n      swap3\n      swap2\n      pop\n      pop\n      jump\t// out\n        /* \"#utility.yul\":4256:4585   */\n    tag_66:\n        /* \"#utility.yul\":4315:4321   */\n      0x00\n        /* \"#utility.yul\":4364:4366   */\n      0x20\n        /* \"#utility.yul\":4352:4361   */\n      dup3\n        /* \"#utility.yul\":4343:4350   */\n      dup5\n        /* \"#utility.yul\":4339:4362   */\n      sub\n        /* \"#utility.yul\":4335:4367   */\n      slt\n        /* \"#utility.yul\":4332:4451   */\n      iszero\n      tag_281\n      jumpi\n        /* \"#utility.yul\":4370:4449   */\n      tag_282\n      tag_198\n      jump\t// in\n    tag_282:\n        /* \"#utility.yul\":4332:4451   */\n    tag_281:\n        /* \"#utility.yul\":4490:4491   */\n      0x00\n        /* \"#utility.yul\":4515:4568   */\n      tag_283\n        /* \"#utility.yul\":4560:4567   */\n      dup5\n        /* \"#utility.yul\":4551:4557   */\n      dup3\n        /* \"#utility.yul\":4540:4549   */\n      dup6\n        /* \"#utility.yul\":4536:4558   */\n      add\n        /* \"#utility.yul\":4515:4568   */\n      tag_216\n      jump\t// in\n    tag_283:\n        /* \"#utility.yul\":4505:4568   */\n      swap2\n      pop\n        /* \"#utility.yul\":4461:4578   */\n      pop\n        /* \"#utility.yul\":4256:4585   */\n      swap3\n      swap2\n      pop\n      pop\n      jump\t// out\n        /* \"#utility.yul\":4591:5065   */\n    tag_71:\n        /* \"#utility.yul\":4659:4665   */\n      0x00\n        /* \"#utility.yul\":4667:4673   */\n      dup1\n        /* \"#utility.yul\":4716:4718   */\n      0x40\n        /* \"#utility.yul\":4704:4713   */\n      dup4\n        /* \"#utility.yul\":4695:4702   */\n      dup6\n        /* \"#utility.yul\":4691:4714   */\n      sub\n        /* \"#utility.yul\":4687:4719   */\n      slt\n        /* \"#utility.yul\":4684:4803   */\n      iszero\n      tag_285\n      jumpi\n        /* \"#utility.yul\":4722:4801   */\n      tag_286\n      tag_198\n      jump\t// in\n    tag_286:\n        /* \"#utility.yul\":4684:4803   */\n    tag_285:\n        /* \"#utility.yul\":4842:4843   */\n      0x00\n        /* \"#utility.yul\":4867:4920   */\n      tag_287\n        /* \"#utility.yul\":4912:4919   */\n      dup6\n        /* \"#utility.yul\":4903:4909   */\n      dup3\n        /* \"#utility.yul\":4892:4901   */\n      dup7\n        /* \"#utility.yul\":4888:4910   */\n      add\n        /* \"#utility.yul\":4867:4920   */\n      tag_207\n      jump\t// in\n    tag_287:\n        /* \"#utility.yul\":4857:4920   */\n      swap3\n      pop\n        /* \"#utility.yul\":4813:4930   */\n      pop\n        /* \"#utility.yul\":4969:4971   */\n      0x20\n        /* \"#utility.yul\":4995:5048   */\n      tag_288\n        /* \"#utility.yul\":5040:5047   */\n      dup6\n        /* \"#utility.yul\":5031:5037   */\n      dup3\n        /* \"#utility.yul\":5020:5029   */\n      dup7\n        /* \"#utility.yul\":5016:5038   */\n      add\n        /* \"#utility.yul\":4995:5048   */\n      tag_207\n      jump\t// in\n    tag_288:\n        /* \"#utility.yul\":4985:5048   */\n      swap2\n      pop\n        /* \"#utility.yul\":4940:5058   */\n      pop\n        /* \"#utility.yul\":4591:5065   */\n      swap3\n      pop\n      swap3\n      swap1\n      pop\n      jump\t// out\n        /* \"#utility.yul\":5071:5240   */\n    tag_217:\n        /* \"#utility.yul\":5155:5166   */\n      0x00\n        /* \"#utility.yul\":5189:5195   */\n      dup3\n        /* \"#utility.yul\":5184:5187   */\n      dup3\n        /* \"#utility.yul\":5177:5196   */\n      mstore\n        /* \"#utility.yul\":5229:5233   */\n      0x20\n        /* \"#utility.yul\":5224:5227   */\n      dup3\n        /* \"#utility.yul\":5220:5234   */\n      add\n        /* \"#utility.yul\":5205:5234   */\n      swap1\n      pop\n        /* \"#utility.yul\":5071:5240   */\n      swap3\n      swap2\n      pop\n      pop\n      jump\t// out\n        /* \"#utility.yul\":5246:5476   */\n    tag_218:\n        /* \"#utility.yul\":5386:5420   */\n      0x4861736853746f726167653a2048617368206e6f7420666f756e6420666f7220\n        /* \"#utility.yul\":5382:5383   */\n      0x00\n        /* \"#utility.yul\":5374:5380   */\n      dup3\n        /* \"#utility.yul\":5370:5384   */\n      add\n        /* \"#utility.yul\":5363:5421   */\n      mstore\n        /* \"#utility.yul\":5455:5468   */\n      0x7468652066696c65204944000000000000000000000000000000000000000000\n        /* \"#utility.yul\":5450:5452   */\n      0x20\n        /* \"#utility.yul\":5442:5448   */\n      dup3\n        /* \"#utility.yul\":5438:5453   */\n      add\n        /* \"#utility.yul\":5431:5469   */\n      mstore\n        /* \"#utility.yul\":5246:5476   */\n      pop\n      jump\t// out\n        /* \"#utility.yul\":5482:5848   */\n    tag_219:\n        /* \"#utility.yul\":5624:5627   */\n      0x00\n        /* \"#utility.yul\":5645:5712   */\n      tag_292\n        /* \"#utility.yul\":5709:5711   */\n      0x2b\n        /* \"#utility.yul\":5704:5707   */\n      dup4\n        /* \"#utility.yul\":5645:5712   */\n      tag_217\n      jump\t// in\n    tag_292:\n        /* \"#utility.yul\":5638:5712   */\n      swap2\n      pop\n        /* \"#utility.yul\":5721:5814   */\n      tag_293\n        /* \"#utility.yul\":5810:5813   */\n      dup3\n        /* \"#utility.yul\":5721:5814   */\n      tag_218\n      jump\t// in\n    tag_293:\n        /* \"#utility.yul\":5839:5841   */\n      0x40\n        /* \"#utility.yul\":5834:5837   */\n      dup3\n        /* \"#utility.yul\":5830:5842   */\n      add\n        /* \"#utility.yul\":5823:5842   */\n      swap1\n      pop\n        /* \"#utility.yul\":5482:5848   */\n      swap2\n      swap1\n      pop\n      jump\t// out\n        /* \"#utility.yul\":5854:6273   */\n    tag_92:\n        /* \"#utility.yul\":6020:6024   */\n      0x00\n        /* \"#utility.yul\":6058:6060   */\n      0x20\n        /* \"#utility.yul\":6047:6056   */\n      dup3\n        /* \"#utility.yul\":6043:6061   */\n      add\n        /* \"#utility.yul\":6035:6061   */\n      swap1\n      pop\n        /* \"#utility.yul\":6107:6116   */\n      dup2\n        /* \"#utility.yul\":6101:6105   */\n      dup2\n        /* \"#utility.yul\":6097:6117   */\n      sub\n        /* \"#utility.yul\":6093:6094   */\n      0x00\n        /* \"#utility.yul\":6082:6091   */\n      dup4\n        /* \"#utility.yul\":6078:6095   */\n      add\n        /* \"#utility.yul\":6071:6118   */\n      mstore\n        /* \"#utility.yul\":6135:6266   */\n      tag_295\n        /* \"#utility.yul\":6261:6265   */\n      dup2\n        /* \"#utility.yul\":6135:6266   */\n      tag_219\n      jump\t// in\n    tag_295:\n        /* \"#utility.yul\":6127:6266   */\n      swap1\n      pop\n        /* \"#utility.yul\":5854:6273   */\n      swap2\n      swap1\n      pop\n      jump\t// out\n        /* \"#utility.yul\":6279:6514   */\n    tag_220:\n        /* \"#utility.yul\":6419:6453   */\n      0x4861736853746f726167653a204861736820616c726561647920657869737473\n        /* \"#utility.yul\":6415:6416   */\n      0x00\n        /* \"#utility.yul\":6407:6413   */\n      dup3\n        /* \"#utility.yul\":6403:6417   */\n      add\n        /* \"#utility.yul\":6396:6454   */\n      mstore\n        /* \"#utility.yul\":6488:6506   */\n      0x20666f72207468652066696c6520494400000000000000000000000000000000\n        /* \"#utility.yul\":6483:6485   */\n      0x20\n        /* \"#utility.yul\":6475:6481   */\n      dup3\n        /* \"#utility.yul\":6471:6486   */\n      add\n        /* \"#utility.yul\":6464:6507   */\n      mstore\n        /* \"#utility.yul\":6279:6514   */\n      pop\n      jump\t// out\n        /* \"#utility.yul\":6520:6886   */\n    tag_221:\n        /* \"#utility.yul\":6662:6665   */\n      0x00\n        /* \"#utility.yul\":6683:6750   */\n      tag_298\n        /* \"#utility.yul\":6747:6749   */\n      0x30\n        /* \"#utility.yul\":6742:6745   */\n      dup4\n        /* \"#utility.yul\":6683:6750   */\n      tag_217\n      jump\t// in\n    tag_298:\n        /* \"#utility.yul\":6676:6750   */\n      swap2\n      pop\n        /* \"#utility.yul\":6759:6852   */\n      tag_299\n        /* \"#utility.yul\":6848:6851   */\n      dup3\n        /* \"#utility.yul\":6759:6852   */\n      tag_220\n      jump\t// in\n    tag_299:\n        /* \"#utility.yul\":6877:6879   */\n      0x40\n        /* \"#utility.yul\":6872:6875   */\n      dup3\n        /* \"#utility.yul\":6868:6880   */\n      add\n        /* \"#utility.yul\":6861:6880   */\n      swap1\n      pop\n        /* \"#utility.yul\":6520:6886   */\n      swap2\n      swap1\n      pop\n      jump\t// out\n        /* \"#utility.yul\":6892:7311   */\n    tag_123:\n        /* \"#utility.yul\":7058:7062   */\n      0x00\n        /* \"#utility.yul\":7096:7098   */\n      0x20\n        /* \"#utility.yul\":7085:7094   */\n      dup3\n        /* \"#utility.yul\":7081:7099   */\n      add\n        /* \"#utility.yul\":7073:7099   */\n      swap1\n      pop\n        /* \"#utility.yul\":7145:7154   */\n      dup2\n        /* \"#utility.yul\":7139:7143   */\n      dup2\n        /* \"#utility.yul\":7135:7155   */\n      sub\n        /* \"#utility.yul\":7131:7132   */\n      0x00\n        /* \"#utility.yul\":7120:7129   */\n      dup4\n        /* \"#utility.yul\":7116:7133   */\n      add\n        /* \"#utility.yul\":7109:7156   */\n      mstore\n        /* \"#utility.yul\":7173:7304   */\n      tag_301\n        /* \"#utility.yul\":7299:7303   */\n      dup2\n        /* \"#utility.yul\":7173:7304   */\n      tag_221\n      jump\t// in\n    tag_301:\n        /* \"#utility.yul\":7165:7304   */\n      swap1\n      pop\n        /* \"#utility.yul\":6892:7311   */\n      swap2\n      swap1\n      pop\n      jump\t// out\n        /* \"#utility.yul\":7317:7435   */\n    tag_222:\n        /* \"#utility.yul\":7404:7428   */\n      tag_303\n        /* \"#utility.yul\":7422:7427   */\n      dup2\n        /* \"#utility.yul\":7404:7428   */\n      tag_212\n      jump\t// in\n    tag_303:\n        /* \"#utility.yul\":7399:7402   */\n      dup3\n        /* \"#utility.yul\":7392:7429   */\n      mstore\n        /* \"#utility.yul\":7317:7435   */\n      pop\n      pop\n      jump\t// out\n        /* \"#utility.yul\":7441:7773   */\n    tag_168:\n        /* \"#utility.yul\":7562:7566   */\n      0x00\n        /* \"#utility.yul\":7600:7602   */\n      0x40\n        /* \"#utility.yul\":7589:7598   */\n      dup3\n        /* \"#utility.yul\":7585:7603   */\n      add\n        /* \"#utility.yul\":7577:7603   */\n      swap1\n      pop\n        /* \"#utility.yul\":7613:7684   */\n      tag_305\n        /* \"#utility.yul\":7681:7682   */\n      0x00\n        /* \"#utility.yul\":7670:7679   */\n      dup4\n        /* \"#utility.yul\":7666:7683   */\n      add\n        /* \"#utility.yul\":7657:7663   */\n      dup6\n        /* \"#utility.yul\":7613:7684   */\n      tag_222\n      jump\t// in\n    tag_305:\n        /* \"#utility.yul\":7694:7766   */\n      tag_306\n        /* \"#utility.yul\":7762:7764   */\n      0x20\n        /* \"#utility.yul\":7751:7760   */\n      dup4\n        /* \"#utility.yul\":7747:7765   */\n      add\n        /* \"#utility.yul\":7738:7744   */\n      dup5\n        /* \"#utility.yul\":7694:7766   */\n      tag_208\n      jump\t// in\n    tag_306:\n        /* \"#utility.yul\":7441:7773   */\n      swap4\n      swap3\n      pop\n      pop\n      pop\n      jump\t// out\n        /* \"#utility.yul\":7779:7959   */\n    tag_223:\n        /* \"#utility.yul\":7827:7904   */\n      0x4e487b7100000000000000000000000000000000000000000000000000000000\n        /* \"#utility.yul\":7824:7825   */\n      0x00\n        /* \"#utility.yul\":7817:7905   */\n      mstore\n        /* \"#utility.yul\":7924:7928   */\n      0x11\n        /* \"#utility.yul\":7921:7922   */\n      0x04\n        /* \"#utility.yul\":7914:7929   */\n      mstore\n        /* \"#utility.yul\":7948:7952   */\n      0x24\n        /* \"#utility.yul\":7945:7946   */\n      0x00\n        /* \"#utility.yul\":7938:7953   */\n      revert\n        /* \"#utility.yul\":7965:8159   */\n    tag_173:\n        /* \"#utility.yul\":8005:8009   */\n      0x00\n        /* \"#utility.yul\":8025:8045   */\n      tag_309\n        /* \"#utility.yul\":8043:8044   */\n      dup3\n        /* \"#utility.yul\":8025:8045   */\n      tag_209\n      jump\t// in\n    tag_309:\n        /* \"#utility.yul\":8020:8045   */\n      swap2\n      pop\n        /* \"#utility.yul\":8059:8079   */\n      tag_310\n        /* \"#utility.yul\":8077:8078   */\n      dup4\n        /* \"#utility.yul\":8059:8079   */\n      tag_209\n      jump\t// in\n    tag_310:\n        /* \"#utility.yul\":8054:8079   */\n      swap3\n      pop\n        /* \"#utility.yul\":8103:8104   */\n      dup3\n        /* \"#utility.yul\":8100:8101   */\n      dup3\n        /* \"#utility.yul\":8096:8105   */\n      sub\n        /* \"#utility.yul\":8088:8105   */\n      swap1\n      pop\n        /* \"#utility.yul\":8127:8128   */\n      dup2\n        /* \"#utility.yul\":8121:8125   */\n      dup2\n        /* \"#utility.yul\":8118:8129   */\n      gt\n        /* \"#utility.yul\":8115:8152   */\n      iszero\n      tag_311\n      jumpi\n        /* \"#utility.yul\":8132:8150   */\n      tag_312\n      tag_223\n      jump\t// in\n    tag_312:\n        /* \"#utility.yul\":8115:8152   */\n    tag_311:\n        /* \"#utility.yul\":7965:8159   */\n      swap3\n      swap2\n      pop\n      pop\n      jump\t// out\n        /* \"#utility.yul\":8165:8345   */\n    tag_178:\n        /* \"#utility.yul\":8213:8290   */\n      0x4e487b7100000000000000000000000000000000000000000000000000000000\n        /* \"#utility.yul\":8210:8211   */\n      0x00\n        /* \"#utility.yul\":8203:8291   */\n      mstore\n        /* \"#utility.yul\":8310:8314   */\n      0x32\n        /* \"#utility.yul\":8307:8308   */\n      0x04\n        /* \"#utility.yul\":8300:8315   */\n      mstore\n        /* \"#utility.yul\":8334:8338   */\n      0x24\n        /* \"#utility.yul\":8331:8332   */\n      0x00\n        /* \"#utility.yul\":8324:8339   */\n      revert\n        /* \"#utility.yul\":8351:8531   */\n    tag_185:\n        /* \"#utility.yul\":8399:8476   */\n      0x4e487b7100000000000000000000000000000000000000000000000000000000\n        /* \"#utility.yul\":8396:8397   */\n      0x00\n        /* \"#utility.yul\":8389:8477   */\n      mstore\n        /* \"#utility.yul\":8496:8500   */\n      0x31\n        /* \"#utility.yul\":8493:8494   */\n      0x04\n        /* \"#utility.yul\":8486:8501   */\n      mstore\n        /* \"#utility.yul\":8520:8524   */\n      0x24\n        /* \"#utility.yul\":8517:8518   */\n      0x00\n        /* \"#utility.yul\":8510:8525   */\n      revert\n\n    auxdata: 0xa2646970667358221220b48bf66095a2419df5ab86f941834107afacec67c8c21236946bc7004c40800064736f6c634300081a0033\n}\n",
				"bytecode": {
					"linkReferences": {},
					"object": "608060405234801561000f575f80fd5b506100225f801b3361002860201b60201c565b50610187565b5f610039838361011d60201b60201c565b6101135760015f808581526020019081526020015f205f015f8473ffffffffffffffffffffffffffffffffffffffff1673ffffffffffffffffffffffffffffffffffffffff1681526020019081526020015f205f6101000a81548160ff0219169083151502179055506100b061018060201b60201c565b73ffffffffffffffffffffffffffffffffffffffff168273ffffffffffffffffffffffffffffffffffffffff16847f2f8788117e7eff1d82e926ec794901d17c78024a50270940304540a733656f0d60405160405180910390a460019050610117565b5f90505b92915050565b5f805f8481526020019081526020015f205f015f8373ffffffffffffffffffffffffffffffffffffffff1673ffffffffffffffffffffffffffffffffffffffff1681526020019081526020015f205f9054906101000a900460ff16905092915050565b5f33905090565b6110f7806101945f395ff3fe608060405234801561000f575f80fd5b50600436106100e8575f3560e01c806375b238fc1161008a578063a217fddf11610064578063a217fddf1461026c578063b2bbde911461028a578063c32ed289146102ba578063d547741f146102d6576100e8565b806375b238fc146101ee57806391d148541461020c5780639f5baacc1461023c576100e8565b80632ea2ee1b116100c65780632ea2ee1b1461016a5780632f2ff15d1461018657806336568abe146101a25780633cf5040a146101be576100e8565b806301ffc9a7146100ec578063248a9ca31461011c5780632d6b94b11461014c575b5f80fd5b61010660048036038101906101019190610c65565b6102f2565b6040516101139190610caa565b60405180910390f35b61013660048036038101906101319190610cf6565b61036b565b6040516101439190610d30565b60405180910390f35b610154610387565b6040516101619190610d61565b60405180910390f35b610184600480360381019061017f9190610cf6565b610397565b005b6101a0600480360381019061019b9190610dd4565b61046e565b005b6101bc60048036038101906101b79190610dd4565b610490565b005b6101d860048036038101906101d39190610cf6565b61050b565b6040516101e59190610d30565b60405180910390f35b6101f6610578565b6040516102039190610d30565b60405180910390f35b61022660048036038101906102219190610dd4565b61059c565b6040516102339190610caa565b60405180910390f35b61025660048036038101906102519190610cf6565b6105ff565b6040516102639190610caa565b60405180910390f35b61027461061b565b6040516102819190610d30565b60405180910390f35b6102a4600480360381019061029f9190610e3c565b610621565b6040516102b19190610d30565b60405180910390f35b6102d460048036038101906102cf9190610e67565b61063d565b005b6102f060048036038101906102eb9190610dd4565b610723565b005b5f7f7965db0b000000000000000000000000000000000000000000000000000000007bffffffffffffffffffffffffffffffffffffffffffffffffffffffff1916827bffffffffffffffffffffffffffffffffffffffffffffffffffffffff19161480610364575061036382610745565b5b9050919050565b5f805f8381526020019081526020015f20600101549050919050565b5f61039260026107ae565b905090565b7fa49807205ce4d355092ef5a8a18f56e8913cf4a201fbe287825b095693c217756103c1816107c1565b6103d58260026107d590919063ffffffff16565b610414576040517f08c379a000000000000000000000000000000000000000000000000000000000815260040161040b90610f25565b60405180910390fd5b60015f8381526020019081526020015f205f905561043c8260026107ea90919063ffffffff16565b50817f5b04d324b4a0a27faeb562e4925c9f8feda9193bddc7c7fb6e91d6329f2a9f0060405160405180910390a25050565b6104778261036b565b610480816107c1565b61048a83836107ff565b50505050565b6104986108e8565b73ffffffffffffffffffffffffffffffffffffffff168173ffffffffffffffffffffffffffffffffffffffff16146104fc576040517f6697b23200000000000000000000000000000000000000000000000000000000815260040160405180910390fd5b61050682826108ef565b505050565b5f6105208260026107d590919063ffffffff16565b61055f576040517f08c379a000000000000000000000000000000000000000000000000000000000815260040161055690610f25565b60405180910390fd5b60015f8381526020019081526020015f20549050919050565b7fa49807205ce4d355092ef5a8a18f56e8913cf4a201fbe287825b095693c2177581565b5f805f8481526020019081526020015f205f015f8373ffffffffffffffffffffffffffffffffffffffff1673ffffffffffffffffffffffffffffffffffffffff1681526020019081526020015f205f9054906101000a900460ff16905092915050565b5f6106148260026107d590919063ffffffff16565b9050919050565b5f801b81565b5f6106368260026109d890919063ffffffff16565b9050919050565b7fa49807205ce4d355092ef5a8a18f56e8913cf4a201fbe287825b095693c21775610667816107c1565b61067b8360026107d590919063ffffffff16565b156106bb576040517f08c379a00000000000000000000000000000000000000000000000000000000081526004016106b290610fb3565b60405180910390fd5b8160015f8581526020019081526020015f20819055506106e58360026109ed90919063ffffffff16565b50827fe8b852025c92bcf45e7f08d5977ccebc1e8db3f27f62c4f0024510ca4cdd99c8836040516107169190610d30565b60405180910390a2505050565b61072c8261036b565b610735816107c1565b61073f83836108ef565b50505050565b5f7f01ffc9a7000000000000000000000000000000000000000000000000000000007bffffffffffffffffffffffffffffffffffffffffffffffffffffffff1916827bffffffffffffffffffffffffffffffffffffffffffffffffffffffff1916149050919050565b5f6107ba825f01610a02565b9050919050565b6107d2816107cd6108e8565b610a11565b50565b5f6107e2835f0183610a62565b905092915050565b5f6107f7835f0183610a82565b905092915050565b5f61080a838361059c565b6108de5760015f808581526020019081526020015f205f015f8473ffffffffffffffffffffffffffffffffffffffff1673ffffffffffffffffffffffffffffffffffffffff1681526020019081526020015f205f6101000a81548160ff02191690831515021790555061087b6108e8565b73ffffffffffffffffffffffffffffffffffffffff168273ffffffffffffffffffffffffffffffffffffffff16847f2f8788117e7eff1d82e926ec794901d17c78024a50270940304540a733656f0d60405160405180910390a4600190506108e2565b5f90505b92915050565b5f33905090565b5f6108fa838361059c565b156109ce575f805f8581526020019081526020015f205f015f8473ffffffffffffffffffffffffffffffffffffffff1673ffffffffffffffffffffffffffffffffffffffff1681526020019081526020015f205f6101000a81548160ff02191690831515021790555061096b6108e8565b73ffffffffffffffffffffffffffffffffffffffff168273ffffffffffffffffffffffffffffffffffffffff16847ff6391f5c32d9c69d2a47ea670b442974b53935d1edc7fd64eb21e047a839171b60405160405180910390a4600190506109d2565b5f90505b92915050565b5f6109e5835f0183610b7e565b905092915050565b5f6109fa835f0183610ba5565b905092915050565b5f815f01805490509050919050565b610a1b828261059c565b610a5e5780826040517fe2517d3f000000000000000000000000000000000000000000000000000000008152600401610a55929190610fe0565b60405180910390fd5b5050565b5f80836001015f8481526020019081526020015f20541415905092915050565b5f80836001015f8481526020019081526020015f205490505f8114610b73575f600182610aaf9190611034565b90505f6001865f0180549050610ac59190611034565b9050808214610b2b575f865f018281548110610ae457610ae3611067565b5b905f5260205f200154905080875f018481548110610b0557610b04611067565b5b905f5260205f20018190555083876001015f8381526020019081526020015f2081905550505b855f01805480610b3e57610b3d611094565b5b600190038181905f5260205f20015f90559055856001015f8681526020019081526020015f205f905560019350505050610b78565b5f9150505b92915050565b5f825f018281548110610b9457610b93611067565b5b905f5260205f200154905092915050565b5f610bb08383610a62565b610c0257825f0182908060018154018082558091505060019003905f5260205f20015f9091909190915055825f0180549050836001015f8481526020019081526020015f208190555060019050610c06565b5f90505b92915050565b5f80fd5b5f7fffffffff0000000000000000000000000000000000000000000000000000000082169050919050565b610c4481610c10565b8114610c4e575f80fd5b50565b5f81359050610c5f81610c3b565b92915050565b5f60208284031215610c7a57610c79610c0c565b5b5f610c8784828501610c51565b91505092915050565b5f8115159050919050565b610ca481610c90565b82525050565b5f602082019050610cbd5f830184610c9b565b92915050565b5f819050919050565b610cd581610cc3565b8114610cdf575f80fd5b50565b5f81359050610cf081610ccc565b92915050565b5f60208284031215610d0b57610d0a610c0c565b5b5f610d1884828501610ce2565b91505092915050565b610d2a81610cc3565b82525050565b5f602082019050610d435f830184610d21565b92915050565b5f819050919050565b610d5b81610d49565b82525050565b5f602082019050610d745f830184610d52565b92915050565b5f73ffffffffffffffffffffffffffffffffffffffff82169050919050565b5f610da382610d7a565b9050919050565b610db381610d99565b8114610dbd575f80fd5b50565b5f81359050610dce81610daa565b92915050565b5f8060408385031215610dea57610de9610c0c565b5b5f610df785828601610ce2565b9250506020610e0885828601610dc0565b9150509250929050565b610e1b81610d49565b8114610e25575f80fd5b50565b5f81359050610e3681610e12565b92915050565b5f60208284031215610e5157610e50610c0c565b5b5f610e5e84828501610e28565b91505092915050565b5f8060408385031215610e7d57610e7c610c0c565b5b5f610e8a85828601610ce2565b9250506020610e9b85828601610ce2565b9150509250929050565b5f82825260208201905092915050565b7f4861736853746f726167653a2048617368206e6f7420666f756e6420666f72205f8201527f7468652066696c65204944000000000000000000000000000000000000000000602082015250565b5f610f0f602b83610ea5565b9150610f1a82610eb5565b604082019050919050565b5f6020820190508181035f830152610f3c81610f03565b9050919050565b7f4861736853746f726167653a204861736820616c7265616479206578697374735f8201527f20666f72207468652066696c6520494400000000000000000000000000000000602082015250565b5f610f9d603083610ea5565b9150610fa882610f43565b604082019050919050565b5f6020820190508181035f830152610fca81610f91565b9050919050565b610fda81610d99565b82525050565b5f604082019050610ff35f830185610fd1565b6110006020830184610d21565b9392505050565b7f4e487b71000000000000000000000000000000000000000000000000000000005f52601160045260245ffd5b5f61103e82610d49565b915061104983610d49565b925082820390508181111561106157611060611007565b5b92915050565b7f4e487b71000000000000000000000000000000000000000000000000000000005f52603260045260245ffd5b7f4e487b71000000000000000000000000000000000000000000000000000000005f52603160045260245ffdfea2646970667358221220b48bf66095a2419df5ab86f941834107afacec67c8c21236946bc7004c40800064736f6c634300081a0033",
					"opcodes": "PUSH1 0x80 PUSH1 0x40 MSTORE CALLVALUE DUP1 ISZERO PUSH2 0xF JUMPI PUSH0 DUP1 REVERT JUMPDEST POP PUSH2 0x22 PUSH0 DUP1 SHL CALLER PUSH2 0x28 PUSH1 0x20 SHL PUSH1 0x20 SHR JUMP JUMPDEST POP PUSH2 0x187 JUMP JUMPDEST PUSH0 PUSH2 0x39 DUP4 DUP4 PUSH2 0x11D PUSH1 0x20 SHL PUSH1 0x20 SHR JUMP JUMPDEST PUSH2 0x113 JUMPI PUSH1 0x1 PUSH0 DUP1 DUP6 DUP2 MSTORE PUSH1 0x20 ADD SWAP1 DUP2 MSTORE PUSH1 0x20 ADD PUSH0 KECCAK256 PUSH0 ADD PUSH0 DUP5 PUSH20 0xFFFFFFFFFFFFFFFFFFFFFFFFFFFFFFFFFFFFFFFF AND PUSH20 0xFFFFFFFFFFFFFFFFFFFFFFFFFFFFFFFFFFFFFFFF AND DUP2 MSTORE PUSH1 0x20 ADD SWAP1 DUP2 MSTORE PUSH1 0x20 ADD PUSH0 KECCAK256 PUSH0 PUSH2 0x100 EXP DUP2 SLOAD DUP2 PUSH1 0xFF MUL NOT AND SWAP1 DUP4 ISZERO ISZERO MUL OR SWAP1 SSTORE POP PUSH2 0xB0 PUSH2 0x180 PUSH1 0x20 SHL PUSH1 0x20 SHR JUMP JUMPDEST PUSH20 0xFFFFFFFFFFFFFFFFFFFFFFFFFFFFFFFFFFFFFFFF AND DUP3 PUSH20 0xFFFFFFFFFFFFFFFFFFFFFFFFFFFFFFFFFFFFFFFF AND DUP5 PUSH32 0x2F8788117E7EFF1D82E926EC794901D17C78024A50270940304540A733656F0D PUSH1 0x40 MLOAD PUSH1 0x40 MLOAD DUP1 SWAP2 SUB SWAP1 LOG4 PUSH1 0x1 SWAP1 POP PUSH2 0x117 JUMP JUMPDEST PUSH0 SWAP1 POP JUMPDEST SWAP3 SWAP2 POP POP JUMP JUMPDEST PUSH0 DUP1 PUSH0 DUP5 DUP2 MSTORE PUSH1 0x20 ADD SWAP1 DUP2 MSTORE PUSH1 0x20 ADD PUSH0 KECCAK256 PUSH0 ADD PUSH0 DUP4 PUSH20 0xFFFFFFFFFFFFFFFFFFFFFFFFFFFFFFFFFFFFFFFF AND PUSH20 0xFFFFFFFFFFFFFFFFFFFFFFFFFFFFFFFFFFFFFFFF AND DUP2 MSTORE PUSH1 0x20 ADD SWAP1 DUP2 MSTORE PUSH1 0x20 ADD PUSH0 KECCAK256 PUSH0 SWAP1 SLOAD SWAP1 PUSH2 0x100 EXP SWAP1 DIV PUSH1 0xFF AND SWAP1 POP SWAP3 SWAP2 POP POP JUMP JUMPDEST PUSH0 CALLER SWAP1 POP SWAP1 JUMP JUMPDEST PUSH2 0x10F7 DUP1 PUSH2 0x194 PUSH0 CODECOPY PUSH0 RETURN INVALID PUSH1 0x80 PUSH1 0x40 MSTORE CALLVALUE DUP1 ISZERO PUSH2 0xF JUMPI PUSH0 DUP1 REVERT JUMPDEST POP PUSH1 0x4 CALLDATASIZE LT PUSH2 0xE8 JUMPI PUSH0 CALLDATALOAD PUSH1 0xE0 SHR DUP1 PUSH4 0x75B238FC GT PUSH2 0x8A JUMPI DUP1 PUSH4 0xA217FDDF GT PUSH2 0x64 JUMPI DUP1 PUSH4 0xA217FDDF EQ PUSH2 0x26C JUMPI DUP1 PUSH4 0xB2BBDE91 EQ PUSH2 0x28A JUMPI DUP1 PUSH4 0xC32ED289 EQ PUSH2 0x2BA JUMPI DUP1 PUSH4 0xD547741F EQ PUSH2 0x2D6 JUMPI PUSH2 0xE8 JUMP JUMPDEST DUP1 PUSH4 0x75B238FC EQ PUSH2 0x1EE JUMPI DUP1 PUSH4 0x91D14854 EQ PUSH2 0x20C JUMPI DUP1 PUSH4 0x9F5BAACC EQ PUSH2 0x23C JUMPI PUSH2 0xE8 JUMP JUMPDEST DUP1 PUSH4 0x2EA2EE1B GT PUSH2 0xC6 JUMPI DUP1 PUSH4 0x2EA2EE1B EQ PUSH2 0x16A JUMPI DUP1 PUSH4 0x2F2FF15D EQ PUSH2 0x186 JUMPI DUP1 PUSH4 0x36568ABE EQ PUSH2 0x1A2 JUMPI DUP1 PUSH4 0x3CF5040A EQ PUSH2 0x1BE JUMPI PUSH2 0xE8 JUMP JUMPDEST DUP1 PUSH4 0x1FFC9A7 EQ PUSH2 0xEC JUMPI DUP1 PUSH4 0x248A9CA3 EQ PUSH2 0x11C JUMPI DUP1 PUSH4 0x2D6B94B1 EQ PUSH2 0x14C JUMPI JUMPDEST PUSH0 DUP1 REVERT JUMPDEST PUSH2 0x106 PUSH1 0x4 DUP1 CALLDATASIZE SUB DUP2 ADD SWAP1 PUSH2 0x101 SWAP2 SWAP1 PUSH2 0xC65 JUMP JUMPDEST PUSH2 0x2F2 JUMP JUMPDEST PUSH1 0x40 MLOAD PUSH2 0x113 SWAP2 SWAP1 PUSH2 0xCAA JUMP JUMPDEST PUSH1 0x40 MLOAD DUP1 SWAP2 SUB SWAP1 RETURN JUMPDEST PUSH2 0x136 PUSH1 0x4 DUP1 CALLDATASIZE SUB DUP2 ADD SWAP1 PUSH2 0x131 SWAP2 SWAP1 PUSH2 0xCF6 JUMP JUMPDEST PUSH2 0x36B JUMP JUMPDEST PUSH1 0x40 MLOAD PUSH2 0x143 SWAP2 SWAP1 PUSH2 0xD30 JUMP JUMPDEST PUSH1 0x40 MLOAD DUP1 SWAP2 SUB SWAP1 RETURN JUMPDEST PUSH2 0x154 PUSH2 0x387 JUMP JUMPDEST PUSH1 0x40 MLOAD PUSH2 0x161 SWAP2 SWAP1 PUSH2 0xD61 JUMP JUMPDEST PUSH1 0x40 MLOAD DUP1 SWAP2 SUB SWAP1 RETURN JUMPDEST PUSH2 0x184 PUSH1 0x4 DUP1 CALLDATASIZE SUB DUP2 ADD SWAP1 PUSH2 0x17F SWAP2 SWAP1 PUSH2 0xCF6 JUMP JUMPDEST PUSH2 0x397 JUMP JUMPDEST STOP JUMPDEST PUSH2 0x1A0 PUSH1 0x4 DUP1 CALLDATASIZE SUB DUP2 ADD SWAP1 PUSH2 0x19B SWAP2 SWAP1 PUSH2 0xDD4 JUMP JUMPDEST PUSH2 0x46E JUMP JUMPDEST STOP JUMPDEST PUSH2 0x1BC PUSH1 0x4 DUP1 CALLDATASIZE SUB DUP2 ADD SWAP1 PUSH2 0x1B7 SWAP2 SWAP1 PUSH2 0xDD4 JUMP JUMPDEST PUSH2 0x490 JUMP JUMPDEST STOP JUMPDEST PUSH2 0x1D8 PUSH1 0x4 DUP1 CALLDATASIZE SUB DUP2 ADD SWAP1 PUSH2 0x1D3 SWAP2 SWAP1 PUSH2 0xCF6 JUMP JUMPDEST PUSH2 0x50B JUMP JUMPDEST PUSH1 0x40 MLOAD PUSH2 0x1E5 SWAP2 SWAP1 PUSH2 0xD30 JUMP JUMPDEST PUSH1 0x40 MLOAD DUP1 SWAP2 SUB SWAP1 RETURN JUMPDEST PUSH2 0x1F6 PUSH2 0x578 JUMP JUMPDEST PUSH1 0x40 MLOAD PUSH2 0x203 SWAP2 SWAP1 PUSH2 0xD30 JUMP JUMPDEST PUSH1 0x40 MLOAD DUP1 SWAP2 SUB SWAP1 RETURN JUMPDEST PUSH2 0x226 PUSH1 0x4 DUP1 CALLDATASIZE SUB DUP2 ADD SWAP1 PUSH2 0x221 SWAP2 SWAP1 PUSH2 0xDD4 JUMP JUMPDEST PUSH2 0x59C JUMP JUMPDEST PUSH1 0x40 MLOAD PUSH2 0x233 SWAP2 SWAP1 PUSH2 0xCAA JUMP JUMPDEST PUSH1 0x40 MLOAD DUP1 SWAP2 SUB SWAP1 RETURN JUMPDEST PUSH2 0x256 PUSH1 0x4 DUP1 CALLDATASIZE SUB DUP2 ADD SWAP1 PUSH2 0x251 SWAP2 SWAP1 PUSH2 0xCF6 JUMP JUMPDEST PUSH2 0x5FF JUMP JUMPDEST PUSH1 0x40 MLOAD PUSH2 0x263 SWAP2 SWAP1 PUSH2 0xCAA JUMP JUMPDEST PUSH1 0x40 MLOAD DUP1 SWAP2 SUB SWAP1 RETURN JUMPDEST PUSH2 0x274 PUSH2 0x61B JUMP JUMPDEST PUSH1 0x40 MLOAD PUSH2 0x281 SWAP2 SWAP1 PUSH2 0xD30 JUMP JUMPDEST PUSH1 0x40 MLOAD DUP1 SWAP2 SUB SWAP1 RETURN JUMPDEST PUSH2 0x2A4 PUSH1 0x4 DUP1 CALLDATASIZE SUB DUP2 ADD SWAP1 PUSH2 0x29F SWAP2 SWAP1 PUSH2 0xE3C JUMP JUMPDEST PUSH2 0x621 JUMP JUMPDEST PUSH1 0x40 MLOAD PUSH2 0x2B1 SWAP2 SWAP1 PUSH2 0xD30 JUMP JUMPDEST PUSH1 0x40 MLOAD DUP1 SWAP2 SUB SWAP1 RETURN JUMPDEST PUSH2 0x2D4 PUSH1 0x4 DUP1 CALLDATASIZE SUB DUP2 ADD SWAP1 PUSH2 0x2CF SWAP2 SWAP1 PUSH2 0xE67 JUMP JUMPDEST PUSH2 0x63D JUMP JUMPDEST STOP JUMPDEST PUSH2 0x2F0 PUSH1 0x4 DUP1 CALLDATASIZE SUB DUP2 ADD SWAP1 PUSH2 0x2EB SWAP2 SWAP1 PUSH2 0xDD4 JUMP JUMPDEST PUSH2 0x723 JUMP JUMPDEST STOP JUMPDEST PUSH0 PUSH32 0x7965DB0B00000000000000000000000000000000000000000000000000000000 PUSH28 0xFFFFFFFFFFFFFFFFFFFFFFFFFFFFFFFFFFFFFFFFFFFFFFFFFFFFFFFF NOT AND DUP3 PUSH28 0xFFFFFFFFFFFFFFFFFFFFFFFFFFFFFFFFFFFFFFFFFFFFFFFFFFFFFFFF NOT AND EQ DUP1 PUSH2 0x364 JUMPI POP PUSH2 0x363 DUP3 PUSH2 0x745 JUMP JUMPDEST JUMPDEST SWAP1 POP SWAP2 SWAP1 POP JUMP JUMPDEST PUSH0 DUP1 PUSH0 DUP4 DUP2 MSTORE PUSH1 0x20 ADD SWAP1 DUP2 MSTORE PUSH1 0x20 ADD PUSH0 KECCAK256 PUSH1 0x1 ADD SLOAD SWAP1 POP SWAP2 SWAP1 POP JUMP JUMPDEST PUSH0 PUSH2 0x392 PUSH1 0x2 PUSH2 0x7AE JUMP JUMPDEST SWAP1 POP SWAP1 JUMP JUMPDEST PUSH32 0xA49807205CE4D355092EF5A8A18F56E8913CF4A201FBE287825B095693C21775 PUSH2 0x3C1 DUP2 PUSH2 0x7C1 JUMP JUMPDEST PUSH2 0x3D5 DUP3 PUSH1 0x2 PUSH2 0x7D5 SWAP1 SWAP2 SWAP1 PUSH4 0xFFFFFFFF AND JUMP JUMPDEST PUSH2 0x414 JUMPI PUSH1 0x40 MLOAD PUSH32 0x8C379A000000000000000000000000000000000000000000000000000000000 DUP2 MSTORE PUSH1 0x4 ADD PUSH2 0x40B SWAP1 PUSH2 0xF25 JUMP JUMPDEST PUSH1 0x40 MLOAD DUP1 SWAP2 SUB SWAP1 REVERT JUMPDEST PUSH1 0x1 PUSH0 DUP4 DUP2 MSTORE PUSH1 0x20 ADD SWAP1 DUP2 MSTORE PUSH1 0x20 ADD PUSH0 KECCAK256 PUSH0 SWAP1 SSTORE PUSH2 0x43C DUP3 PUSH1 0x2 PUSH2 0x7EA SWAP1 SWAP2 SWAP1 PUSH4 0xFFFFFFFF AND JUMP JUMPDEST POP DUP2 PUSH32 0x5B04D324B4A0A27FAEB562E4925C9F8FEDA9193BDDC7C7FB6E91D6329F2A9F00 PUSH1 0x40 MLOAD PUSH1 0x40 MLOAD DUP1 SWAP2 SUB SWAP1 LOG2 POP POP JUMP JUMPDEST PUSH2 0x477 DUP3 PUSH2 0x36B JUMP JUMPDEST PUSH2 0x480 DUP2 PUSH2 0x7C1 JUMP JUMPDEST PUSH2 0x48A DUP4 DUP4 PUSH2 0x7FF JUMP JUMPDEST POP POP POP POP JUMP JUMPDEST PUSH2 0x498 PUSH2 0x8E8 JUMP JUMPDEST PUSH20 0xFFFFFFFFFFFFFFFFFFFFFFFFFFFFFFFFFFFFFFFF AND DUP2 PUSH20 0xFFFFFFFFFFFFFFFFFFFFFFFFFFFFFFFFFFFFFFFF AND EQ PUSH2 0x4FC JUMPI PUSH1 0x40 MLOAD PUSH32 0x6697B23200000000000000000000000000000000000000000000000000000000 DUP2 MSTORE PUSH1 0x4 ADD PUSH1 0x40 MLOAD DUP1 SWAP2 SUB SWAP1 REVERT JUMPDEST PUSH2 0x506 DUP3 DUP3 PUSH2 0x8EF JUMP JUMPDEST POP POP POP JUMP JUMPDEST PUSH0 PUSH2 0x520 DUP3 PUSH1 0x2 PUSH2 0x7D5 SWAP1 SWAP2 SWAP1 PUSH4 0xFFFFFFFF AND JUMP JUMPDEST PUSH2 0x55F JUMPI PUSH1 0x40 MLOAD PUSH32 0x8C379A000000000000000000000000000000000000000000000000000000000 DUP2 MSTORE PUSH1 0x4 ADD PUSH2 0x556 SWAP1 PUSH2 0xF25 JUMP JUMPDEST PUSH1 0x40 MLOAD DUP1 SWAP2 SUB SWAP1 REVERT JUMPDEST PUSH1 0x1 PUSH0 DUP4 DUP2 MSTORE PUSH1 0x20 ADD SWAP1 DUP2 MSTORE PUSH1 0x20 ADD PUSH0 KECCAK256 SLOAD SWAP1 POP SWAP2 SWAP1 POP JUMP JUMPDEST PUSH32 0xA49807205CE4D355092EF5A8A18F56E8913CF4A201FBE287825B095693C21775 DUP2 JUMP JUMPDEST PUSH0 DUP1 PUSH0 DUP5 DUP2 MSTORE PUSH1 0x20 ADD SWAP1 DUP2 MSTORE PUSH1 0x20 ADD PUSH0 KECCAK256 PUSH0 ADD PUSH0 DUP4 PUSH20 0xFFFFFFFFFFFFFFFFFFFFFFFFFFFFFFFFFFFFFFFF AND PUSH20 0xFFFFFFFFFFFFFFFFFFFFFFFFFFFFFFFFFFFFFFFF AND DUP2 MSTORE PUSH1 0x20 ADD SWAP1 DUP2 MSTORE PUSH1 0x20 ADD PUSH0 KECCAK256 PUSH0 SWAP1 SLOAD SWAP1 PUSH2 0x100 EXP SWAP1 DIV PUSH1 0xFF AND SWAP1 POP SWAP3 SWAP2 POP POP JUMP JUMPDEST PUSH0 PUSH2 0x614 DUP3 PUSH1 0x2 PUSH2 0x7D5 SWAP1 SWAP2 SWAP1 PUSH4 0xFFFFFFFF AND JUMP JUMPDEST SWAP1 POP SWAP2 SWAP1 POP JUMP JUMPDEST PUSH0 DUP1 SHL DUP2 JUMP JUMPDEST PUSH0 PUSH2 0x636 DUP3 PUSH1 0x2 PUSH2 0x9D8 SWAP1 SWAP2 SWAP1 PUSH4 0xFFFFFFFF AND JUMP JUMPDEST SWAP1 POP SWAP2 SWAP1 POP JUMP JUMPDEST PUSH32 0xA49807205CE4D355092EF5A8A18F56E8913CF4A201FBE287825B095693C21775 PUSH2 0x667 DUP2 PUSH2 0x7C1 JUMP JUMPDEST PUSH2 0x67B DUP4 PUSH1 0x2 PUSH2 0x7D5 SWAP1 SWAP2 SWAP1 PUSH4 0xFFFFFFFF AND JUMP JUMPDEST ISZERO PUSH2 0x6BB JUMPI PUSH1 0x40 MLOAD PUSH32 0x8C379A000000000000000000000000000000000000000000000000000000000 DUP2 MSTORE PUSH1 0x4 ADD PUSH2 0x6B2 SWAP1 PUSH2 0xFB3 JUMP JUMPDEST PUSH1 0x40 MLOAD DUP1 SWAP2 SUB SWAP1 REVERT JUMPDEST DUP2 PUSH1 0x1 PUSH0 DUP6 DUP2 MSTORE PUSH1 0x20 ADD SWAP1 DUP2 MSTORE PUSH1 0x20 ADD PUSH0 KECCAK256 DUP2 SWAP1 SSTORE POP PUSH2 0x6E5 DUP4 PUSH1 0x2 PUSH2 0x9ED SWAP1 SWAP2 SWAP1 PUSH4 0xFFFFFFFF AND JUMP JUMPDEST POP DUP3 PUSH32 0xE8B852025C92BCF45E7F08D5977CCEBC1E8DB3F27F62C4F0024510CA4CDD99C8 DUP4 PUSH1 0x40 MLOAD PUSH2 0x716 SWAP2 SWAP1 PUSH2 0xD30 JUMP JUMPDEST PUSH1 0x40 MLOAD DUP1 SWAP2 SUB SWAP1 LOG2 POP POP POP JUMP JUMPDEST PUSH2 0x72C DUP3 PUSH2 0x36B JUMP JUMPDEST PUSH2 0x735 DUP2 PUSH2 0x7C1 JUMP JUMPDEST PUSH2 0x73F DUP4 DUP4 PUSH2 0x8EF JUMP JUMPDEST POP POP POP POP JUMP JUMPDEST PUSH0 PUSH32 0x1FFC9A700000000000000000000000000000000000000000000000000000000 PUSH28 0xFFFFFFFFFFFFFFFFFFFFFFFFFFFFFFFFFFFFFFFFFFFFFFFFFFFFFFFF NOT AND DUP3 PUSH28 0xFFFFFFFFFFFFFFFFFFFFFFFFFFFFFFFFFFFFFFFFFFFFFFFFFFFFFFFF NOT AND EQ SWAP1 POP SWAP2 SWAP1 POP JUMP JUMPDEST PUSH0 PUSH2 0x7BA DUP3 PUSH0 ADD PUSH2 0xA02 JUMP JUMPDEST SWAP1 POP SWAP2 SWAP1 POP JUMP JUMPDEST PUSH2 0x7D2 DUP2 PUSH2 0x7CD PUSH2 0x8E8 JUMP JUMPDEST PUSH2 0xA11 JUMP JUMPDEST POP JUMP JUMPDEST PUSH0 PUSH2 0x7E2 DUP4 PUSH0 ADD DUP4 PUSH2 0xA62 JUMP JUMPDEST SWAP1 POP SWAP3 SWAP2 POP POP JUMP JUMPDEST PUSH0 PUSH2 0x7F7 DUP4 PUSH0 ADD DUP4 PUSH2 0xA82 JUMP JUMPDEST SWAP1 POP SWAP3 SWAP2 POP POP JUMP JUMPDEST PUSH0 PUSH2 0x80A DUP4 DUP4 PUSH2 0x59C JUMP JUMPDEST PUSH2 0x8DE JUMPI PUSH1 0x1 PUSH0 DUP1 DUP6 DUP2 MSTORE PUSH1 0x20 ADD SWAP1 DUP2 MSTORE PUSH1 0x20 ADD PUSH0 KECCAK256 PUSH0 ADD PUSH0 DUP5 PUSH20 0xFFFFFFFFFFFFFFFFFFFFFFFFFFFFFFFFFFFFFFFF AND PUSH20 0xFFFFFFFFFFFFFFFFFFFFFFFFFFFFFFFFFFFFFFFF AND DUP2 MSTORE PUSH1 0x20 ADD SWAP1 DUP2 MSTORE PUSH1 0x20 ADD PUSH0 KECCAK256 PUSH0 PUSH2 0x100 EXP DUP2 SLOAD DUP2 PUSH1 0xFF MUL NOT AND SWAP1 DUP4 ISZERO ISZERO MUL OR SWAP1 SSTORE POP PUSH2 0x87B PUSH2 0x8E8 JUMP JUMPDEST PUSH20 0xFFFFFFFFFFFFFFFFFFFFFFFFFFFFFFFFFFFFFFFF AND DUP3 PUSH20 0xFFFFFFFFFFFFFFFFFFFFFFFFFFFFFFFFFFFFFFFF AND DUP5 PUSH32 0x2F8788117E7EFF1D82E926EC794901D17C78024A50270940304540A733656F0D PUSH1 0x40 MLOAD PUSH1 0x40 MLOAD DUP1 SWAP2 SUB SWAP1 LOG4 PUSH1 0x1 SWAP1 POP PUSH2 0x8E2 JUMP JUMPDEST PUSH0 SWAP1 POP JUMPDEST SWAP3 SWAP2 POP POP JUMP JUMPDEST PUSH0 CALLER SWAP1 POP SWAP1 JUMP JUMPDEST PUSH0 PUSH2 0x8FA DUP4 DUP4 PUSH2 0x59C JUMP JUMPDEST ISZERO PUSH2 0x9CE JUMPI PUSH0 DUP1 PUSH0 DUP6 DUP2 MSTORE PUSH1 0x20 ADD SWAP1 DUP2 MSTORE PUSH1 0x20 ADD PUSH0 KECCAK256 PUSH0 ADD PUSH0 DUP5 PUSH20 0xFFFFFFFFFFFFFFFFFFFFFFFFFFFFFFFFFFFFFFFF AND PUSH20 0xFFFFFFFFFFFFFFFFFFFFFFFFFFFFFFFFFFFFFFFF AND DUP2 MSTORE PUSH1 0x20 ADD SWAP1 DUP2 MSTORE PUSH1 0x20 ADD PUSH0 KECCAK256 PUSH0 PUSH2 0x100 EXP DUP2 SLOAD DUP2 PUSH1 0xFF MUL NOT AND SWAP1 DUP4 ISZERO ISZERO MUL OR SWAP1 SSTORE POP PUSH2 0x96B PUSH2 0x8E8 JUMP JUMPDEST PUSH20 0xFFFFFFFFFFFFFFFFFFFFFFFFFFFFFFFFFFFFFFFF AND DUP3 PUSH20 0xFFFFFFFFFFFFFFFFFFFFFFFFFFFFFFFFFFFFFFFF AND DUP5 PUSH32 0xF6391F5C32D9C69D2A47EA670B442974B53935D1EDC7FD64EB21E047A839171B PUSH1 0x40 MLOAD PUSH1 0x40 MLOAD DUP1 SWAP2 SUB SWAP1 LOG4 PUSH1 0x1 SWAP1 POP PUSH2 0x9D2 JUMP JUMPDEST PUSH0 SWAP1 POP JUMPDEST SWAP3 SWAP2 POP POP JUMP JUMPDEST PUSH0 PUSH2 0x9E5 DUP4 PUSH0 ADD DUP4 PUSH2 0xB7E JUMP JUMPDEST SWAP1 POP SWAP3 SWAP2 POP POP JUMP JUMPDEST PUSH0 PUSH2 0x9FA DUP4 PUSH0 ADD DUP4 PUSH2 0xBA5 JUMP JUMPDEST SWAP1 POP SWAP3 SWAP2 POP POP JUMP JUMPDEST PUSH0 DUP2 PUSH0 ADD DUP1 SLOAD SWAP1 POP SWAP1 POP SWAP2 SWAP1 POP JUMP JUMPDEST PUSH2 0xA1B DUP3 DUP3 PUSH2 0x59C JUMP JUMPDEST PUSH2 0xA5E JUMPI DUP1 DUP3 PUSH1 0x40 MLOAD PUSH32 0xE2517D3F00000000000000000000000000000000000000000000000000000000 DUP2 MSTORE PUSH1 0x4 ADD PUSH2 0xA55 SWAP3 SWAP2 SWAP1 PUSH2 0xFE0 JUMP JUMPDEST PUSH1 0x40 MLOAD DUP1 SWAP2 SUB SWAP1 REVERT JUMPDEST POP POP JUMP JUMPDEST PUSH0 DUP1 DUP4 PUSH1 0x1 ADD PUSH0 DUP5 DUP2 MSTORE PUSH1 0x20 ADD SWAP1 DUP2 MSTORE PUSH1 0x20 ADD PUSH0 KECCAK256 SLOAD EQ ISZERO SWAP1 POP SWAP3 SWAP2 POP POP JUMP JUMPDEST PUSH0 DUP1 DUP4 PUSH1 0x1 ADD PUSH0 DUP5 DUP2 MSTORE PUSH1 0x20 ADD SWAP1 DUP2 MSTORE PUSH1 0x20 ADD PUSH0 KECCAK256 SLOAD SWAP1 POP PUSH0 DUP2 EQ PUSH2 0xB73 JUMPI PUSH0 PUSH1 0x1 DUP3 PUSH2 0xAAF SWAP2 SWAP1 PUSH2 0x1034 JUMP JUMPDEST SWAP1 POP PUSH0 PUSH1 0x1 DUP7 PUSH0 ADD DUP1 SLOAD SWAP1 POP PUSH2 0xAC5 SWAP2 SWAP1 PUSH2 0x1034 JUMP JUMPDEST SWAP1 POP DUP1 DUP3 EQ PUSH2 0xB2B JUMPI PUSH0 DUP7 PUSH0 ADD DUP3 DUP2 SLOAD DUP2 LT PUSH2 0xAE4 JUMPI PUSH2 0xAE3 PUSH2 0x1067 JUMP JUMPDEST JUMPDEST SWAP1 PUSH0 MSTORE PUSH1 0x20 PUSH0 KECCAK256 ADD SLOAD SWAP1 POP DUP1 DUP8 PUSH0 ADD DUP5 DUP2 SLOAD DUP2 LT PUSH2 0xB05 JUMPI PUSH2 0xB04 PUSH2 0x1067 JUMP JUMPDEST JUMPDEST SWAP1 PUSH0 MSTORE PUSH1 0x20 PUSH0 KECCAK256 ADD DUP2 SWAP1 SSTORE POP DUP4 DUP8 PUSH1 0x1 ADD PUSH0 DUP4 DUP2 MSTORE PUSH1 0x20 ADD SWAP1 DUP2 MSTORE PUSH1 0x20 ADD PUSH0 KECCAK256 DUP2 SWAP1 SSTORE POP POP JUMPDEST DUP6 PUSH0 ADD DUP1 SLOAD DUP1 PUSH2 0xB3E JUMPI PUSH2 0xB3D PUSH2 0x1094 JUMP JUMPDEST JUMPDEST PUSH1 0x1 SWAP1 SUB DUP2 DUP2 SWAP1 PUSH0 MSTORE PUSH1 0x20 PUSH0 KECCAK256 ADD PUSH0 SWAP1 SSTORE SWAP1 SSTORE DUP6 PUSH1 0x1 ADD PUSH0 DUP7 DUP2 MSTORE PUSH1 0x20 ADD SWAP1 DUP2 MSTORE PUSH1 0x20 ADD PUSH0 KECCAK256 PUSH0 SWAP1 SSTORE PUSH1 0x1 SWAP4 POP POP POP POP PUSH2 0xB78 JUMP JUMPDEST PUSH0 SWAP2 POP POP JUMPDEST SWAP3 SWAP2 POP POP JUMP JUMPDEST PUSH0 DUP3 PUSH0 ADD DUP3 DUP2 SLOAD DUP2 LT PUSH2 0xB94 JUMPI PUSH2 0xB93 PUSH2 0x1067 JUMP JUMPDEST JUMPDEST SWAP1 PUSH0 MSTORE PUSH1 0x20 PUSH0 KECCAK256 ADD SLOAD SWAP1 POP SWAP3 SWAP2 POP POP JUMP JUMPDEST PUSH0 PUSH2 0xBB0 DUP4 DUP4 PUSH2 0xA62 JUMP JUMPDEST PUSH2 0xC02 JUMPI DUP3 PUSH0 ADD DUP3 SWAP1 DUP1 PUSH1 0x1 DUP2 SLOAD ADD DUP1 DUP3 SSTORE DUP1 SWAP2 POP POP PUSH1 0x1 SWAP1 SUB SWAP1 PUSH0 MSTORE PUSH1 0x20 PUSH0 KECCAK256 ADD PUSH0 SWAP1 SWAP2 SWAP1 SWAP2 SWAP1 SWAP2 POP SSTORE DUP3 PUSH0 ADD DUP1 SLOAD SWAP1 POP DUP4 PUSH1 0x1 ADD PUSH0 DUP5 DUP2 MSTORE PUSH1 0x20 ADD SWAP1 DUP2 MSTORE PUSH1 0x20 ADD PUSH0 KECCAK256 DUP2 SWAP1 SSTORE POP PUSH1 0x1 SWAP1 POP PUSH2 0xC06 JUMP JUMPDEST PUSH0 SWAP1 POP JUMPDEST SWAP3 SWAP2 POP POP JUMP JUMPDEST PUSH0 DUP1 REVERT JUMPDEST PUSH0 PUSH32 0xFFFFFFFF00000000000000000000000000000000000000000000000000000000 DUP3 AND SWAP1 POP SWAP2 SWAP1 POP JUMP JUMPDEST PUSH2 0xC44 DUP2 PUSH2 0xC10 JUMP JUMPDEST DUP2 EQ PUSH2 0xC4E JUMPI PUSH0 DUP1 REVERT JUMPDEST POP JUMP JUMPDEST PUSH0 DUP2 CALLDATALOAD SWAP1 POP PUSH2 0xC5F DUP2 PUSH2 0xC3B JUMP JUMPDEST SWAP3 SWAP2 POP POP JUMP JUMPDEST PUSH0 PUSH1 0x20 DUP3 DUP5 SUB SLT ISZERO PUSH2 0xC7A JUMPI PUSH2 0xC79 PUSH2 0xC0C JUMP JUMPDEST JUMPDEST PUSH0 PUSH2 0xC87 DUP5 DUP3 DUP6 ADD PUSH2 0xC51 JUMP JUMPDEST SWAP2 POP POP SWAP3 SWAP2 POP POP JUMP JUMPDEST PUSH0 DUP2 ISZERO ISZERO SWAP1 POP SWAP2 SWAP1 POP JUMP JUMPDEST PUSH2 0xCA4 DUP2 PUSH2 0xC90 JUMP JUMPDEST DUP3 MSTORE POP POP JUMP JUMPDEST PUSH0 PUSH1 0x20 DUP3 ADD SWAP1 POP PUSH2 0xCBD PUSH0 DUP4 ADD DUP5 PUSH2 0xC9B JUMP JUMPDEST SWAP3 SWAP2 POP POP JUMP JUMPDEST PUSH0 DUP2 SWAP1 POP SWAP2 SWAP1 POP JUMP JUMPDEST PUSH2 0xCD5 DUP2 PUSH2 0xCC3 JUMP JUMPDEST DUP2 EQ PUSH2 0xCDF JUMPI PUSH0 DUP1 REVERT JUMPDEST POP JUMP JUMPDEST PUSH0 DUP2 CALLDATALOAD SWAP1 POP PUSH2 0xCF0 DUP2 PUSH2 0xCCC JUMP JUMPDEST SWAP3 SWAP2 POP POP JUMP JUMPDEST PUSH0 PUSH1 0x20 DUP3 DUP5 SUB SLT ISZERO PUSH2 0xD0B JUMPI PUSH2 0xD0A PUSH2 0xC0C JUMP JUMPDEST JUMPDEST PUSH0 PUSH2 0xD18 DUP5 DUP3 DUP6 ADD PUSH2 0xCE2 JUMP JUMPDEST SWAP2 POP POP SWAP3 SWAP2 POP POP JUMP JUMPDEST PUSH2 0xD2A DUP2 PUSH2 0xCC3 JUMP JUMPDEST DUP3 MSTORE POP POP JUMP JUMPDEST PUSH0 PUSH1 0x20 DUP3 ADD SWAP1 POP PUSH2 0xD43 PUSH0 DUP4 ADD DUP5 PUSH2 0xD21 JUMP JUMPDEST SWAP3 SWAP2 POP POP JUMP JUMPDEST PUSH0 DUP2 SWAP1 POP SWAP2 SWAP1 POP JUMP JUMPDEST PUSH2 0xD5B DUP2 PUSH2 0xD49 JUMP JUMPDEST DUP3 MSTORE POP POP JUMP JUMPDEST PUSH0 PUSH1 0x20 DUP3 ADD SWAP1 POP PUSH2 0xD74 PUSH0 DUP4 ADD DUP5 PUSH2 0xD52 JUMP JUMPDEST SWAP3 SWAP2 POP POP JUMP JUMPDEST PUSH0 PUSH20 0xFFFFFFFFFFFFFFFFFFFFFFFFFFFFFFFFFFFFFFFF DUP3 AND SWAP1 POP SWAP2 SWAP1 POP JUMP JUMPDEST PUSH0 PUSH2 0xDA3 DUP3 PUSH2 0xD7A JUMP JUMPDEST SWAP1 POP SWAP2 SWAP1 POP JUMP JUMPDEST PUSH2 0xDB3 DUP2 PUSH2 0xD99 JUMP JUMPDEST DUP2 EQ PUSH2 0xDBD JUMPI PUSH0 DUP1 REVERT JUMPDEST POP JUMP JUMPDEST PUSH0 DUP2 CALLDATALOAD SWAP1 POP PUSH2 0xDCE DUP2 PUSH2 0xDAA JUMP JUMPDEST SWAP3 SWAP2 POP POP JUMP JUMPDEST PUSH0 DUP1 PUSH1 0x40 DUP4 DUP6 SUB SLT ISZERO PUSH2 0xDEA JUMPI PUSH2 0xDE9 PUSH2 0xC0C JUMP JUMPDEST JUMPDEST PUSH0 PUSH2 0xDF7 DUP6 DUP3 DUP7 ADD PUSH2 0xCE2 JUMP JUMPDEST SWAP3 POP POP PUSH1 0x20 PUSH2 0xE08 DUP6 DUP3 DUP7 ADD PUSH2 0xDC0 JUMP JUMPDEST SWAP2 POP POP SWAP3 POP SWAP3 SWAP1 POP JUMP JUMPDEST PUSH2 0xE1B DUP2 PUSH2 0xD49 JUMP JUMPDEST DUP2 EQ PUSH2 0xE25 JUMPI PUSH0 DUP1 REVERT JUMPDEST POP JUMP JUMPDEST PUSH0 DUP2 CALLDATALOAD SWAP1 POP PUSH2 0xE36 DUP2 PUSH2 0xE12 JUMP JUMPDEST SWAP3 SWAP2 POP POP JUMP JUMPDEST PUSH0 PUSH1 0x20 DUP3 DUP5 SUB SLT ISZERO PUSH2 0xE51 JUMPI PUSH2 0xE50 PUSH2 0xC0C JUMP JUMPDEST JUMPDEST PUSH0 PUSH2 0xE5E DUP5 DUP3 DUP6 ADD PUSH2 0xE28 JUMP JUMPDEST SWAP2 POP POP SWAP3 SWAP2 POP POP JUMP JUMPDEST PUSH0 DUP1 PUSH1 0x40 DUP4 DUP6 SUB SLT ISZERO PUSH2 0xE7D JUMPI PUSH2 0xE7C PUSH2 0xC0C JUMP JUMPDEST JUMPDEST PUSH0 PUSH2 0xE8A DUP6 DUP3 DUP7 ADD PUSH2 0xCE2 JUMP JUMPDEST SWAP3 POP POP PUSH1 0x20 PUSH2 0xE9B DUP6 DUP3 DUP7 ADD PUSH2 0xCE2 JUMP JUMPDEST SWAP2 POP POP SWAP3 POP SWAP3 SWAP1 POP JUMP JUMPDEST PUSH0 DUP3 DUP3 MSTORE PUSH1 0x20 DUP3 ADD SWAP1 POP SWAP3 SWAP2 POP POP JUMP JUMPDEST PUSH32 0x4861736853746F726167653A2048617368206E6F7420666F756E6420666F7220 PUSH0 DUP3 ADD MSTORE PUSH32 0x7468652066696C65204944000000000000000000000000000000000000000000 PUSH1 0x20 DUP3 ADD MSTORE POP JUMP JUMPDEST PUSH0 PUSH2 0xF0F PUSH1 0x2B DUP4 PUSH2 0xEA5 JUMP JUMPDEST SWAP2 POP PUSH2 0xF1A DUP3 PUSH2 0xEB5 JUMP JUMPDEST PUSH1 0x40 DUP3 ADD SWAP1 POP SWAP2 SWAP1 POP JUMP JUMPDEST PUSH0 PUSH1 0x20 DUP3 ADD SWAP1 POP DUP2 DUP2 SUB PUSH0 DUP4 ADD MSTORE PUSH2 0xF3C DUP2 PUSH2 0xF03 JUMP JUMPDEST SWAP1 POP SWAP2 SWAP1 POP JUMP JUMPDEST PUSH32 0x4861736853746F726167653A204861736820616C726561647920657869737473 PUSH0 DUP3 ADD MSTORE PUSH32 0x20666F72207468652066696C6520494400000000000000000000000000000000 PUSH1 0x20 DUP3 ADD MSTORE POP JUMP JUMPDEST PUSH0 PUSH2 0xF9D PUSH1 0x30 DUP4 PUSH2 0xEA5 JUMP JUMPDEST SWAP2 POP PUSH2 0xFA8 DUP3 PUSH2 0xF43 JUMP JUMPDEST PUSH1 0x40 DUP3 ADD SWAP1 POP SWAP2 SWAP1 POP JUMP JUMPDEST PUSH0 PUSH1 0x20 DUP3 ADD SWAP1 POP DUP2 DUP2 SUB PUSH0 DUP4 ADD MSTORE PUSH2 0xFCA DUP2 PUSH2 0xF91 JUMP JUMPDEST SWAP1 POP SWAP2 SWAP1 POP JUMP JUMPDEST PUSH2 0xFDA DUP2 PUSH2 0xD99 JUMP JUMPDEST DUP3 MSTORE POP POP JUMP JUMPDEST PUSH0 PUSH1 0x40 DUP3 ADD SWAP1 POP PUSH2 0xFF3 PUSH0 DUP4 ADD DUP6 PUSH2 0xFD1 JUMP JUMPDEST PUSH2 0x1000 PUSH1 0x20 DUP4 ADD DUP5 PUSH2 0xD21 JUMP JUMPDEST SWAP4 SWAP3 POP POP POP JUMP JUMPDEST PUSH32 0x4E487B7100000000000000000000000000000000000000000000000000000000 PUSH0 MSTORE PUSH1 0x11 PUSH1 0x4 MSTORE PUSH1 0x24 PUSH0 REVERT JUMPDEST PUSH0 PUSH2 0x103E DUP3 PUSH2 0xD49 JUMP JUMPDEST SWAP2 POP PUSH2 0x1049 DUP4 PUSH2 0xD49 JUMP JUMPDEST SWAP3 POP DUP3 DUP3 SUB SWAP1 POP DUP2 DUP2 GT ISZERO PUSH2 0x1061 JUMPI PUSH2 0x1060 PUSH2 0x1007 JUMP JUMPDEST JUMPDEST SWAP3 SWAP2 POP POP JUMP JUMPDEST PUSH32 0x4E487B7100000000000000000000000000000000000000000000000000000000 PUSH0 MSTORE PUSH1 0x32 PUSH1 0x4 MSTORE PUSH1 0x24 PUSH0 REVERT JUMPDEST PUSH32 0x4E487B7100000000000000000000000000000000000000000000000000000000 PUSH0 MSTORE PUSH1 0x31 PUSH1 0x4 MSTORE PUSH1 0x24 PUSH0 REVERT INVALID LOG2 PUSH5 0x6970667358 0x22 SLT KECCAK256 0xB4 DUP12 0xF6 PUSH1 0x95 LOG2 COINBASE SWAP14 CREATE2 0xAB DUP7 0xF9 COINBASE DUP4 COINBASE SMOD 0xAF 0xAC 0xEC PUSH8 0xC8C21236946BC700 0x4C BLOCKHASH DUP1 STOP PUSH5 0x736F6C6343 STOP ADDMOD BYTE STOP CALLER "
				},
				"gasEstimates": {
					"creation": {
						"codeDepositCost": "868600",
						"executionCost": "infinite",
						"totalCost": "infinite"
					},
					"external": {
						"ADMIN_ROLE()": "348",
						"DEFAULT_ADMIN_ROLE()": "352",
						"fileIdAt(uint256)": "infinite",
						"getHash(bytes32)": "infinite",
						"getRoleAdmin(bytes32)": "infinite",
						"grantRole(bytes32,address)": "infinite",
						"hasHash(bytes32)": "infinite",
						"hasRole(bytes32,address)": "3167",
						"removeHash(bytes32)": "infinite",
						"renounceRole(bytes32,address)": "infinite",
						"revokeRole(bytes32,address)": "infinite",
						"storeHash(bytes32,bytes32)": "infinite",
						"supportsInterface(bytes4)": "741",
						"totalFileIds()": "2602"
					}
				},
				"methodIdentifiers": {
					"ADMIN_ROLE()": "75b238fc",
					"DEFAULT_ADMIN_ROLE()": "a217fddf",
					"fileIdAt(uint256)": "b2bbde91",
					"getHash(bytes32)": "3cf5040a",
					"getRoleAdmin(bytes32)": "248a9ca3",
					"grantRole(bytes32,address)": "2f2ff15d",
					"hasHash(bytes32)": "9f5baacc",
					"hasRole(bytes32,address)": "91d14854",
					"removeHash(bytes32)": "2ea2ee1b",
					"renounceRole(bytes32,address)": "36568abe",
					"revokeRole(bytes32,address)": "d547741f",
					"storeHash(bytes32,bytes32)": "c32ed289",
					"supportsInterface(bytes4)": "01ffc9a7",
					"totalFileIds()": "2d6b94b1"
				}
			},
			"storageLayout": {
				"storage": [
					{
						"astId": 26,
						"contract": "contracts/infrastructure/storage/HashStorage.sol:HashStorage",
						"label": "_roles",
						"offset": 0,
						"slot": "0",
						"type": "t_mapping(t_bytes32,t_struct(RoleData)21_storage)"
					},
					{
						"astId": 1078,
						"contract": "contracts/infrastructure/storage/HashStorage.sol:HashStorage",
						"label": "_fileHashes",
						"offset": 0,
						"slot": "1",
						"type": "t_mapping(t_bytes32,t_bytes32)"
					},
					{
						"astId": 1081,
						"contract": "contracts/infrastructure/storage/HashStorage.sol:HashStorage",
						"label": "_fileIds",
						"offset": 0,
						"slot": "2",
						"type": "t_struct(Bytes32Set)649_storage"
					}
				],
				"types": {
					"t_address": {
						"encoding": "inplace",
						"label": "address",
						"numberOfBytes": "20"
					},
					"t_array(t_bytes32)dyn_storage": {
						"base": "t_bytes32",
						"encoding": "dynamic_array",
						"label": "bytes32[]",
						"numberOfBytes": "32"
					},
					"t_bool": {
						"encoding": "inplace",
						"label": "bool",
						"numberOfBytes": "1"
					},
					"t_bytes32": {
						"encoding": "inplace",
						"label": "bytes32",
						"numberOfBytes": "32"
					},
					"t_mapping(t_address,t_bool)": {
						"encoding": "mapping",
						"key": "t_address",
						"label": "mapping(address => bool)",
						"numberOfBytes": "32",
						"value": "t_bool"
					},
					"t_mapping(t_bytes32,t_bytes32)": {
						"encoding": "mapping",
						"key": "t_bytes32",
						"label": "mapping(bytes32 => bytes32)",
						"numberOfBytes": "32",
						"value": "t_bytes32"
					},
					"t_mapping(t_bytes32,t_struct(RoleData)21_storage)": {
						"encoding": "mapping",
						"key": "t_bytes32",
						"label": "mapping(bytes32 => struct AccessControl.RoleData)",
						"numberOfBytes": "32",
						"value": "t_struct(RoleData)21_storage"
					},
					"t_mapping(t_bytes32,t_uint256)": {
						"encoding": "mapping",
						"key": "t_bytes32",
						"label": "mapping(bytes32 => uint256)",
						"numberOfBytes": "32",
						"value": "t_uint256"
					},
					"t_struct(Bytes32Set)649_storage": {
						"encoding": "inplace",
						"label": "struct EnumerableSet.Bytes32Set",
						"members": [
							{
								"astId": 648,
								"contract": "contracts/infrastructure/storage/HashStorage.sol:HashStorage",
								"label": "_inner",
								"offset": 0,
								"slot": "0",
								"type": "t_struct(Set)455_storage"
							}
						],
						"numberOfBytes": "64"
					},
					"t_struct(RoleData)21_storage": {
						"encoding": "inplace",
						"label": "struct AccessControl.RoleData",
						"members": [
							{
								"astId": 18,
								"contract": "contracts/infrastructure/storage/HashStorage.sol:HashStorage",
								"label": "hasRole",
								"offset": 0,
								"slot": "0",
								"type": "t_mapping(t_address,t_bool)"
							},
							{
								"astId": 20,
								"contract": "contracts/infrastructure/storage/HashStorage.sol:HashStorage",
								"label": "adminRole",
								"offset": 0,
								"slot": "1",
								"type": "t_bytes32"
							}
						],
						"numberOfBytes": "64"
					},
					"t_struct(Set)455_storage": {
						"encoding": "inplace",
						"label": "struct EnumerableSet.Set",
						"members": [
							{
								"astId": 450,
								"contract": "contracts/infrastructure/storage/HashStorage.sol:HashStorage",
								"label": "_values",
								"offset": 0,
								"slot": "0",
								"type": "t_array(t_bytes32)dyn_storage"
							},
							{
								"astId": 454,
								"contract": "contracts/infrastructure/storage/HashStorage.sol:HashStorage",
								"label": "_positions",
								"offset": 0,
								"slot": "1",
								"type": "t_mapping(t_bytes32,t_uint256)"
							}
						],
						"numberOfBytes": "64"
					},
					"t_uint256": {
						"encoding": "inplace",
						"label": "uint256",
						"numberOfBytes": "32"
					}
				}
			},
			"userdoc": {
				"kind": "user",
				"methods": {},
				"version": 1
			}
		}
	}
}