{
	"contracts/infrastructure/storage/Upload.sol": {
		"Upload": {
			"abi": [
				{
					"inputs": [],
					"stateMutability": "nonpayable",
					"type": "constructor"
				},
				{
					"inputs": [],
					"name": "AccessControlBadConfirmation",
					"type": "error"
				},
				{
					"inputs": [
						{
							"internalType": "address",
							"name": "account",
							"type": "address"
						},
						{
							"internalType": "bytes32",
							"name": "neededRole",
							"type": "bytes32"
						}
					],
					"name": "AccessControlUnauthorizedAccount",
					"type": "error"
				},
				{
					"anonymous": false,
					"inputs": [
						{
							"indexed": true,
							"internalType": "bytes32",
							"name": "fileId",
							"type": "bytes32"
						},
						{
							"indexed": false,
							"internalType": "string",
							"name": "fileName",
							"type": "string"
						},
						{
							"indexed": false,
							"internalType": "string",
							"name": "fileType",
							"type": "string"
						},
						{
							"indexed": false,
							"internalType": "uint256",
							"name": "fileSize",
							"type": "uint256"
						}
					],
					"name": "FileMetadataUpdated",
					"type": "event"
				},
				{
					"anonymous": false,
					"inputs": [
						{
							"indexed": true,
							"internalType": "bytes32",
							"name": "fileId",
							"type": "bytes32"
						}
					],
					"name": "FileRemoved",
					"type": "event"
				},
				{
					"anonymous": false,
					"inputs": [
						{
							"indexed": true,
							"internalType": "bytes32",
							"name": "fileId",
							"type": "bytes32"
						},
						{
							"indexed": false,
							"internalType": "string",
							"name": "fileName",
							"type": "string"
						},
						{
							"indexed": false,
							"internalType": "string",
							"name": "fileType",
							"type": "string"
						},
						{
							"indexed": false,
							"internalType": "uint256",
							"name": "fileSize",
							"type": "uint256"
						},
						{
							"indexed": false,
							"internalType": "uint256",
							"name": "uploadTimestamp",
							"type": "uint256"
						}
					],
					"name": "FileUploaded",
					"type": "event"
				},
				{
					"anonymous": false,
					"inputs": [
						{
							"indexed": true,
							"internalType": "bytes32",
							"name": "role",
							"type": "bytes32"
						},
						{
							"indexed": true,
							"internalType": "bytes32",
							"name": "previousAdminRole",
							"type": "bytes32"
						},
						{
							"indexed": true,
							"internalType": "bytes32",
							"name": "newAdminRole",
							"type": "bytes32"
						}
					],
					"name": "RoleAdminChanged",
					"type": "event"
				},
				{
					"anonymous": false,
					"inputs": [
						{
							"indexed": true,
							"internalType": "bytes32",
							"name": "role",
							"type": "bytes32"
						},
						{
							"indexed": true,
							"internalType": "address",
							"name": "account",
							"type": "address"
						},
						{
							"indexed": true,
							"internalType": "address",
							"name": "sender",
							"type": "address"
						}
					],
					"name": "RoleGranted",
					"type": "event"
				},
				{
					"anonymous": false,
					"inputs": [
						{
							"indexed": true,
							"internalType": "bytes32",
							"name": "role",
							"type": "bytes32"
						},
						{
							"indexed": true,
							"internalType": "address",
							"name": "account",
							"type": "address"
						},
						{
							"indexed": true,
							"internalType": "address",
							"name": "sender",
							"type": "address"
						}
					],
					"name": "RoleRevoked",
					"type": "event"
				},
				{
					"inputs": [],
					"name": "ADMIN_ROLE",
					"outputs": [
						{
							"internalType": "bytes32",
							"name": "",
							"type": "bytes32"
						}
					],
					"stateMutability": "view",
					"type": "function"
				},
				{
					"inputs": [],
					"name": "DEFAULT_ADMIN_ROLE",
					"outputs": [
						{
							"internalType": "bytes32",
							"name": "",
							"type": "bytes32"
						}
					],
					"stateMutability": "view",
					"type": "function"
				},
				{
					"inputs": [],
					"name": "UPLOADER_ROLE",
					"outputs": [
						{
							"internalType": "bytes32",
							"name": "",
							"type": "bytes32"
						}
					],
					"stateMutability": "view",
					"type": "function"
				},
				{
					"inputs": [
						{
							"internalType": "bytes32",
							"name": "fileId",
							"type": "bytes32"
						}
					],
					"name": "fileExists",
					"outputs": [
						{
							"internalType": "bool",
							"name": "",
							"type": "bool"
						}
					],
					"stateMutability": "view",
					"type": "function"
				},
				{
					"inputs": [
						{
							"internalType": "uint256",
							"name": "index",
							"type": "uint256"
						}
					],
					"name": "fileIdAt",
					"outputs": [
						{
							"internalType": "bytes32",
							"name": "",
							"type": "bytes32"
						}
					],
					"stateMutability": "view",
					"type": "function"
				},
				{
					"inputs": [
						{
							"internalType": "bytes32",
							"name": "fileId",
							"type": "bytes32"
						}
					],
					"name": "getFileMetadata",
					"outputs": [
						{
							"components": [
								{
									"internalType": "bytes32",
									"name": "fileHash",
									"type": "bytes32"
								},
								{
									"internalType": "string",
									"name": "fileName",
									"type": "string"
								},
								{
									"internalType": "string",
									"name": "fileType",
									"type": "string"
								},
								{
									"internalType": "uint256",
									"name": "fileSize",
									"type": "uint256"
								},
								{
									"internalType": "uint256",
									"name": "uploadTimestamp",
									"type": "uint256"
								}
							],
							"internalType": "struct Upload.FileMetadata",
							"name": "",
							"type": "tuple"
						}
					],
					"stateMutability": "view",
					"type": "function"
				},
				{
					"inputs": [
						{
							"internalType": "bytes32",
							"name": "role",
							"type": "bytes32"
						}
					],
					"name": "getRoleAdmin",
					"outputs": [
						{
							"internalType": "bytes32",
							"name": "",
							"type": "bytes32"
						}
					],
					"stateMutability": "view",
					"type": "function"
				},
				{
					"inputs": [
						{
							"internalType": "bytes32",
							"name": "role",
							"type": "bytes32"
						},
						{
							"internalType": "address",
							"name": "account",
							"type": "address"
						}
					],
					"name": "grantRole",
					"outputs": [],
					"stateMutability": "nonpayable",
					"type": "function"
				},
				{
					"inputs": [
						{
							"internalType": "bytes32",
							"name": "role",
							"type": "bytes32"
						},
						{
							"internalType": "address",
							"name": "account",
							"type": "address"
						}
					],
					"name": "hasRole",
					"outputs": [
						{
							"internalType": "bool",
							"name": "",
							"type": "bool"
						}
					],
					"stateMutability": "view",
					"type": "function"
				},
				{
					"inputs": [
						{
							"internalType": "bytes32",
							"name": "fileId",
							"type": "bytes32"
						}
					],
					"name": "removeFile",
					"outputs": [],
					"stateMutability": "nonpayable",
					"type": "function"
				},
				{
					"inputs": [
						{
							"internalType": "bytes32",
							"name": "role",
							"type": "bytes32"
						},
						{
							"internalType": "address",
							"name": "callerConfirmation",
							"type": "address"
						}
					],
					"name": "renounceRole",
					"outputs": [],
					"stateMutability": "nonpayable",
					"type": "function"
				},
				{
					"inputs": [
						{
							"internalType": "bytes32",
							"name": "role",
							"type": "bytes32"
						},
						{
							"internalType": "address",
							"name": "account",
							"type": "address"
						}
					],
					"name": "revokeRole",
					"outputs": [],
					"stateMutability": "nonpayable",
					"type": "function"
				},
				{
					"inputs": [
						{
							"internalType": "bytes4",
							"name": "interfaceId",
							"type": "bytes4"
						}
					],
					"name": "supportsInterface",
					"outputs": [
						{
							"internalType": "bool",
							"name": "",
							"type": "bool"
						}
					],
					"stateMutability": "view",
					"type": "function"
				},
				{
					"inputs": [],
					"name": "totalFiles",
					"outputs": [
						{
							"internalType": "uint256",
							"name": "",
							"type": "uint256"
						}
					],
					"stateMutability": "view",
					"type": "function"
				},
				{
					"inputs": [
						{
							"internalType": "bytes32",
							"name": "fileId",
							"type": "bytes32"
						},
						{
							"internalType": "string",
							"name": "fileName",
							"type": "string"
						},
						{
							"internalType": "string",
							"name": "fileType",
							"type": "string"
						},
						{
							"internalType": "uint256",
							"name": "fileSize",
							"type": "uint256"
						}
					],
					"name": "updateFileMetadata",
					"outputs": [],
					"stateMutability": "nonpayable",
					"type": "function"
				},
				{
					"inputs": [
						{
							"internalType": "bytes32",
							"name": "fileHash",
							"type": "bytes32"
						},
						{
							"internalType": "string",
							"name": "fileName",
							"type": "string"
						},
						{
							"internalType": "string",
							"name": "fileType",
							"type": "string"
						},
						{
							"internalType": "uint256",
							"name": "fileSize",
							"type": "uint256"
						}
					],
					"name": "uploadFile",
					"outputs": [],
					"stateMutability": "nonpayable",
					"type": "function"
				}
			],
			"devdoc": {
				"details": "This contract handles file uploads by managing metadata and associating files with their hashes.",
				"errors": {
					"AccessControlBadConfirmation()": [
						{
							"details": "The caller of a function is not the expected one. NOTE: Don't confuse with {AccessControlUnauthorizedAccount}."
						}
					],
					"AccessControlUnauthorizedAccount(address,bytes32)": [
						{
							"details": "The `account` is missing a role."
						}
					]
				},
				"events": {
					"RoleAdminChanged(bytes32,bytes32,bytes32)": {
						"details": "Emitted when `newAdminRole` is set as ``role``'s admin role, replacing `previousAdminRole` `DEFAULT_ADMIN_ROLE` is the starting admin for all roles, despite {RoleAdminChanged} not being emitted signaling this."
					},
					"RoleGranted(bytes32,address,address)": {
						"details": "Emitted when `account` is granted `role`. `sender` is the account that originated the contract call, an admin role bearer except when using {AccessControl-_setupRole}."
					},
					"RoleRevoked(bytes32,address,address)": {
						"details": "Emitted when `account` is revoked `role`. `sender` is the account that originated the contract call:   - if using `revokeRole`, it is the admin role bearer   - if using `renounceRole`, it is the role bearer (i.e. `account`)"
					}
				},
				"kind": "dev",
				"methods": {
					"fileExists(bytes32)": {
						"details": "Checks if a file ID exists.",
						"params": {
							"fileId": "The ID of the file."
						},
						"returns": {
							"_0": "True if the file exists, false otherwise."
						}
					},
					"fileIdAt(uint256)": {
						"details": "Returns a file ID at a specific index.",
						"params": {
							"index": "The index of the file ID."
						},
						"returns": {
							"_0": "The file ID at the given index."
						}
					},
					"getFileMetadata(bytes32)": {
						"details": "Retrieves metadata for a given file ID.",
						"params": {
							"fileId": "The ID of the file."
						},
						"returns": {
							"_0": "The file metadata."
						}
					},
					"getRoleAdmin(bytes32)": {
						"details": "Returns the admin role that controls `role`. See {grantRole} and {revokeRole}. To change a role's admin, use {_setRoleAdmin}."
					},
					"grantRole(bytes32,address)": {
						"details": "Grants `role` to `account`. If `account` had not been already granted `role`, emits a {RoleGranted} event. Requirements: - the caller must have ``role``'s admin role. May emit a {RoleGranted} event."
					},
					"hasRole(bytes32,address)": {
						"details": "Returns `true` if `account` has been granted `role`."
					},
					"removeFile(bytes32)": {
						"details": "Removes a file and its metadata.",
						"params": {
							"fileId": "The ID of the file to remove."
						}
					},
					"renounceRole(bytes32,address)": {
						"details": "Revokes `role` from the calling account. Roles are often managed via {grantRole} and {revokeRole}: this function's purpose is to provide a mechanism for accounts to lose their privileges if they are compromised (such as when a trusted device is misplaced). If the calling account had been revoked `role`, emits a {RoleRevoked} event. Requirements: - the caller must be `callerConfirmation`. May emit a {RoleRevoked} event."
					},
					"revokeRole(bytes32,address)": {
						"details": "Revokes `role` from `account`. If `account` had been granted `role`, emits a {RoleRevoked} event. Requirements: - the caller must have ``role``'s admin role. May emit a {RoleRevoked} event."
					},
					"supportsInterface(bytes4)": {
						"details": "See {IERC165-supportsInterface}."
					},
					"totalFiles()": {
						"details": "Returns the total number of files.",
						"returns": {
							"_0": "The number of files."
						}
					},
					"updateFileMetadata(bytes32,string,string,uint256)": {
						"details": "Updates metadata for a given file ID.",
						"params": {
							"fileId": "The ID of the file.",
							"fileName": "The new name of the file.",
							"fileSize": "The new size of the file in bytes.",
							"fileType": "The new type/extension of the file."
						}
					},
					"uploadFile(bytes32,string,string,uint256)": {
						"details": "Allows an uploader to upload a file with its metadata.",
						"params": {
							"fileHash": "The hash of the file.",
							"fileName": "The name of the file.",
							"fileSize": "The size of the file in bytes.",
							"fileType": "The type/extension of the file."
						}
					}
				},
				"title": "Upload",
				"version": 1
			},
			"evm": {
				"assembly": "    /* \"contracts/infrastructure/storage/Upload.sol\":341:4787  contract Upload is AccessControl {... */\n  mstore(0x40, 0x80)\n    /* \"contracts/infrastructure/storage/Upload.sol\":1366:1530  constructor() {... */\n  callvalue\n  dup1\n  iszero\n  tag_1\n  jumpi\n  0x00\n  dup1\n  revert\ntag_1:\n  pop\n    /* \"contracts/infrastructure/storage/Upload.sol\":1390:1432  _grantRole(DEFAULT_ADMIN_ROLE, msg.sender) */\n  tag_4\n    /* \"@openzeppelin/contracts/access/AccessControl.sol\":2232:2236  0x00 */\n  0x00\n    /* \"contracts/infrastructure/storage/Upload.sol\":1401:1419  DEFAULT_ADMIN_ROLE */\n  dup1\n  shl\n    /* \"contracts/infrastructure/storage/Upload.sol\":1421:1431  msg.sender */\n  caller\n    /* \"contracts/infrastructure/storage/Upload.sol\":1390:1400  _grantRole */\n  shl(0x20, tag_5)\n    /* \"contracts/infrastructure/storage/Upload.sol\":1390:1432  _grantRole(DEFAULT_ADMIN_ROLE, msg.sender) */\n  0x20\n  shr\n  jump\t// in\ntag_4:\n  pop\n    /* \"contracts/infrastructure/storage/Upload.sol\":1442:1476  _grantRole(ADMIN_ROLE, msg.sender) */\n  tag_6\n    /* \"contracts/infrastructure/storage/Upload.sol\":513:536  keccak256(\"ADMIN_ROLE\") */\n  0xa49807205ce4d355092ef5a8a18f56e8913cf4a201fbe287825b095693c21775\n    /* \"contracts/infrastructure/storage/Upload.sol\":1465:1475  msg.sender */\n  caller\n    /* \"contracts/infrastructure/storage/Upload.sol\":1442:1452  _grantRole */\n  shl(0x20, tag_5)\n    /* \"contracts/infrastructure/storage/Upload.sol\":1442:1476  _grantRole(ADMIN_ROLE, msg.sender) */\n  0x20\n  shr\n  jump\t// in\ntag_6:\n  pop\n    /* \"contracts/infrastructure/storage/Upload.sol\":1486:1523  _grantRole(UPLOADER_ROLE, msg.sender) */\n  tag_7\n    /* \"contracts/infrastructure/storage/Upload.sol\":582:608  keccak256(\"UPLOADER_ROLE\") */\n  0x922390b27f65d828a1f7695b2eaae33fd0be87496792afddba1d25446a8fcb91\n    /* \"contracts/infrastructure/storage/Upload.sol\":1512:1522  msg.sender */\n  caller\n    /* \"contracts/infrastructure/storage/Upload.sol\":1486:1496  _grantRole */\n  shl(0x20, tag_5)\n    /* \"contracts/infrastructure/storage/Upload.sol\":1486:1523  _grantRole(UPLOADER_ROLE, msg.sender) */\n  0x20\n  shr\n  jump\t// in\ntag_7:\n  pop\n    /* \"contracts/infrastructure/storage/Upload.sol\":341:4787  contract Upload is AccessControl {... */\n  jump(tag_8)\n    /* \"@openzeppelin/contracts/access/AccessControl.sol\":6179:6495  function _grantRole(bytes32 role, address account) internal virtual returns (bool) {... */\ntag_5:\n    /* \"@openzeppelin/contracts/access/AccessControl.sol\":6256:6260  bool */\n  0x00\n    /* \"@openzeppelin/contracts/access/AccessControl.sol\":6277:6299  hasRole(role, account) */\n  tag_10\n    /* \"@openzeppelin/contracts/access/AccessControl.sol\":6285:6289  role */\n  dup4\n    /* \"@openzeppelin/contracts/access/AccessControl.sol\":6291:6298  account */\n  dup4\n    /* \"@openzeppelin/contracts/access/AccessControl.sol\":6277:6284  hasRole */\n  shl(0x20, tag_11)\n    /* \"@openzeppelin/contracts/access/AccessControl.sol\":6277:6299  hasRole(role, account) */\n  0x20\n  shr\n  jump\t// in\ntag_10:\n    /* \"@openzeppelin/contracts/access/AccessControl.sol\":6272:6489  if (!hasRole(role, account)) {... */\n  tag_12\n  jumpi\n    /* \"@openzeppelin/contracts/access/AccessControl.sol\":6347:6351  true */\n  0x01\n    /* \"@openzeppelin/contracts/access/AccessControl.sol\":6315:6321  _roles */\n  0x00\n    /* \"@openzeppelin/contracts/access/AccessControl.sol\":6315:6327  _roles[role] */\n  dup1\n    /* \"@openzeppelin/contracts/access/AccessControl.sol\":6322:6326  role */\n  dup6\n    /* \"@openzeppelin/contracts/access/AccessControl.sol\":6315:6327  _roles[role] */\n  dup2\n  mstore\n  0x20\n  add\n  swap1\n  dup2\n  mstore\n  0x20\n  add\n  0x00\n  keccak256\n    /* \"@openzeppelin/contracts/access/AccessControl.sol\":6315:6335  _roles[role].hasRole */\n  0x00\n  add\n    /* \"@openzeppelin/contracts/access/AccessControl.sol\":6315:6344  _roles[role].hasRole[account] */\n  0x00\n    /* \"@openzeppelin/contracts/access/AccessControl.sol\":6336:6343  account */\n  dup5\n    /* \"@openzeppelin/contracts/access/AccessControl.sol\":6315:6344  _roles[role].hasRole[account] */\n  0xffffffffffffffffffffffffffffffffffffffff\n  and\n  0xffffffffffffffffffffffffffffffffffffffff\n  and\n  dup2\n  mstore\n  0x20\n  add\n  swap1\n  dup2\n  mstore\n  0x20\n  add\n  0x00\n  keccak256\n  0x00\n    /* \"@openzeppelin/contracts/access/AccessControl.sol\":6315:6351  _roles[role].hasRole[account] = true */\n  0x0100\n  exp\n  dup2\n  sload\n  dup2\n  0xff\n  mul\n  not\n  and\n  swap1\n  dup4\n  iszero\n  iszero\n  mul\n  or\n  swap1\n  sstore\n  pop\n    /* \"@openzeppelin/contracts/access/AccessControl.sol\":6397:6409  _msgSender() */\n  tag_13\n    /* \"@openzeppelin/contracts/access/AccessControl.sol\":6397:6407  _msgSender */\n  shl(0x20, tag_14)\n    /* \"@openzeppelin/contracts/access/AccessControl.sol\":6397:6409  _msgSender() */\n  0x20\n  shr\n  jump\t// in\ntag_13:\n    /* \"@openzeppelin/contracts/access/AccessControl.sol\":6370:6410  RoleGranted(role, account, _msgSender()) */\n  0xffffffffffffffffffffffffffffffffffffffff\n  and\n    /* \"@openzeppelin/contracts/access/AccessControl.sol\":6388:6395  account */\n  dup3\n    /* \"@openzeppelin/contracts/access/AccessControl.sol\":6370:6410  RoleGranted(role, account, _msgSender()) */\n  0xffffffffffffffffffffffffffffffffffffffff\n  and\n    /* \"@openzeppelin/contracts/access/AccessControl.sol\":6382:6386  role */\n  dup5\n    /* \"@openzeppelin/contracts/access/AccessControl.sol\":6370:6410  RoleGranted(role, account, _msgSender()) */\n  0x2f8788117e7eff1d82e926ec794901d17c78024a50270940304540a733656f0d\n  mload(0x40)\n  mload(0x40)\n  dup1\n  swap2\n  sub\n  swap1\n  log4\n    /* \"@openzeppelin/contracts/access/AccessControl.sol\":6431:6435  true */\n  0x01\n    /* \"@openzeppelin/contracts/access/AccessControl.sol\":6424:6435  return true */\n  swap1\n  pop\n  jump(tag_9)\n    /* \"@openzeppelin/contracts/access/AccessControl.sol\":6272:6489  if (!hasRole(role, account)) {... */\ntag_12:\n    /* \"@openzeppelin/contracts/access/AccessControl.sol\":6473:6478  false */\n  0x00\n    /* \"@openzeppelin/contracts/access/AccessControl.sol\":6466:6478  return false */\n  swap1\n  pop\n    /* \"@openzeppelin/contracts/access/AccessControl.sol\":6179:6495  function _grantRole(bytes32 role, address account) internal virtual returns (bool) {... */\ntag_9:\n  swap3\n  swap2\n  pop\n  pop\n  jump\t// out\n    /* \"@openzeppelin/contracts/access/AccessControl.sol\":2854:2990  function hasRole(bytes32 role, address account) public view virtual returns (bool) {... */\ntag_11:\n    /* \"@openzeppelin/contracts/access/AccessControl.sol\":2931:2935  bool */\n  0x00\n    /* \"@openzeppelin/contracts/access/AccessControl.sol\":2954:2960  _roles */\n  dup1\n    /* \"@openzeppelin/contracts/access/AccessControl.sol\":2954:2966  _roles[role] */\n  0x00\n    /* \"@openzeppelin/contracts/access/AccessControl.sol\":2961:2965  role */\n  dup5\n    /* \"@openzeppelin/contracts/access/AccessControl.sol\":2954:2966  _roles[role] */\n  dup2\n  mstore\n  0x20\n  add\n  swap1\n  dup2\n  mstore\n  0x20\n  add\n  0x00\n  keccak256\n    /* \"@openzeppelin/contracts/access/AccessControl.sol\":2954:2974  _roles[role].hasRole */\n  0x00\n  add\n    /* \"@openzeppelin/contracts/access/AccessControl.sol\":2954:2983  _roles[role].hasRole[account] */\n  0x00\n    /* \"@openzeppelin/contracts/access/AccessControl.sol\":2975:2982  account */\n  dup4\n    /* \"@openzeppelin/contracts/access/AccessControl.sol\":2954:2983  _roles[role].hasRole[account] */\n  0xffffffffffffffffffffffffffffffffffffffff\n  and\n  0xffffffffffffffffffffffffffffffffffffffff\n  and\n  dup2\n  mstore\n  0x20\n  add\n  swap1\n  dup2\n  mstore\n  0x20\n  add\n  0x00\n  keccak256\n  0x00\n  swap1\n  sload\n  swap1\n  0x0100\n  exp\n  swap1\n  div\n  0xff\n  and\n    /* \"@openzeppelin/contracts/access/AccessControl.sol\":2947:2983  return _roles[role].hasRole[account] */\n  swap1\n  pop\n    /* \"@openzeppelin/contracts/access/AccessControl.sol\":2854:2990  function hasRole(bytes32 role, address account) public view virtual returns (bool) {... */\n  swap3\n  swap2\n  pop\n  pop\n  jump\t// out\n    /* \"@openzeppelin/contracts/utils/Context.sol\":656:752  function _msgSender() internal view virtual returns (address) {... */\ntag_14:\n    /* \"@openzeppelin/contracts/utils/Context.sol\":709:716  address */\n  0x00\n    /* \"@openzeppelin/contracts/utils/Context.sol\":735:745  msg.sender */\n  caller\n    /* \"@openzeppelin/contracts/utils/Context.sol\":728:745  return msg.sender */\n  swap1\n  pop\n    /* \"@openzeppelin/contracts/utils/Context.sol\":656:752  function _msgSender() internal view virtual returns (address) {... */\n  swap1\n  jump\t// out\n    /* \"contracts/infrastructure/storage/Upload.sol\":341:4787  contract Upload is AccessControl {... */\ntag_8:\n  dataSize(sub_0)\n  dup1\n  dataOffset(sub_0)\n  0x00\n  codecopy\n  0x00\n  return\nstop\n\nsub_0: assembly {\n        /* \"contracts/infrastructure/storage/Upload.sol\":341:4787  contract Upload is AccessControl {... */\n      mstore(0x40, 0x80)\n      callvalue\n      dup1\n      iszero\n      tag_1\n      jumpi\n      0x00\n      dup1\n      revert\n    tag_1:\n      pop\n      jumpi(tag_2, lt(calldatasize, 0x04))\n      shr(0xe0, calldataload(0x00))\n      dup1\n      0x75b238fc\n      gt\n      tag_19\n      jumpi\n      dup1\n      0xb2bbde91\n      gt\n      tag_20\n      jumpi\n      dup1\n      0xb2bbde91\n      eq\n      tag_15\n      jumpi\n      dup1\n      0xb7c9b657\n      eq\n      tag_16\n      jumpi\n      dup1\n      0xd547741f\n      eq\n      tag_17\n      jumpi\n      dup1\n      0xdc0c9325\n      eq\n      tag_18\n      jumpi\n      jump(tag_2)\n    tag_20:\n      dup1\n      0x75b238fc\n      eq\n      tag_11\n      jumpi\n      dup1\n      0x91d14854\n      eq\n      tag_12\n      jumpi\n      dup1\n      0x92cf0557\n      eq\n      tag_13\n      jumpi\n      dup1\n      0xa217fddf\n      eq\n      tag_14\n      jumpi\n      jump(tag_2)\n    tag_19:\n      dup1\n      0x2f2ff15d\n      gt\n      tag_21\n      jumpi\n      dup1\n      0x2f2ff15d\n      eq\n      tag_7\n      jumpi\n      dup1\n      0x36568abe\n      eq\n      tag_8\n      jumpi\n      dup1\n      0x61cc0766\n      eq\n      tag_9\n      jumpi\n      dup1\n      0x65f35371\n      eq\n      tag_10\n      jumpi\n      jump(tag_2)\n    tag_21:\n      dup1\n      0x01ffc9a7\n      eq\n      tag_3\n      jumpi\n      dup1\n      0x0bef429b\n      eq\n      tag_4\n      jumpi\n      dup1\n      0x0cec5f62\n      eq\n      tag_5\n      jumpi\n      dup1\n      0x248a9ca3\n      eq\n      tag_6\n      jumpi\n    tag_2:\n      0x00\n      dup1\n      revert\n        /* \"@openzeppelin/contracts/access/AccessControl.sol\":2565:2767  function supportsInterface(bytes4 interfaceId) public view virtual override returns (bool) {... */\n    tag_3:\n      tag_22\n      0x04\n      dup1\n      calldatasize\n      sub\n      dup2\n      add\n      swap1\n      tag_23\n      swap2\n      swap1\n      tag_24\n      jump\t// in\n    tag_23:\n      tag_25\n      jump\t// in\n    tag_22:\n      mload(0x40)\n      tag_26\n      swap2\n      swap1\n      tag_27\n      jump\t// in\n    tag_26:\n      mload(0x40)\n      dup1\n      swap2\n      sub\n      swap1\n      return\n        /* \"contracts/infrastructure/storage/Upload.sol\":3438:3688  function removeFile(bytes32 fileId) external onlyRole(ADMIN_ROLE) {... */\n    tag_4:\n      tag_28\n      0x04\n      dup1\n      calldatasize\n      sub\n      dup2\n      add\n      swap1\n      tag_29\n      swap2\n      swap1\n      tag_30\n      jump\t// in\n    tag_29:\n      tag_31\n      jump\t// in\n    tag_28:\n      stop\n        /* \"contracts/infrastructure/storage/Upload.sol\":4198:4312  function fileExists(bytes32 fileId) external view returns (bool) {... */\n    tag_5:\n      tag_32\n      0x04\n      dup1\n      calldatasize\n      sub\n      dup2\n      add\n      swap1\n      tag_33\n      swap2\n      swap1\n      tag_30\n      jump\t// in\n    tag_33:\n      tag_34\n      jump\t// in\n    tag_32:\n      mload(0x40)\n      tag_35\n      swap2\n      swap1\n      tag_27\n      jump\t// in\n    tag_35:\n      mload(0x40)\n      dup1\n      swap2\n      sub\n      swap1\n      return\n        /* \"@openzeppelin/contracts/access/AccessControl.sol\":3810:3930  function getRoleAdmin(bytes32 role) public view virtual returns (bytes32) {... */\n    tag_6:\n      tag_36\n      0x04\n      dup1\n      calldatasize\n      sub\n      dup2\n      add\n      swap1\n      tag_37\n      swap2\n      swap1\n      tag_30\n      jump\t// in\n    tag_37:\n      tag_38\n      jump\t// in\n    tag_36:\n      mload(0x40)\n      tag_39\n      swap2\n      swap1\n      tag_40\n      jump\t// in\n    tag_39:\n      mload(0x40)\n      dup1\n      swap2\n      sub\n      swap1\n      return\n        /* \"@openzeppelin/contracts/access/AccessControl.sol\":4226:4362  function grantRole(bytes32 role, address account) public virtual onlyRole(getRoleAdmin(role)) {... */\n    tag_7:\n      tag_41\n      0x04\n      dup1\n      calldatasize\n      sub\n      dup2\n      add\n      swap1\n      tag_42\n      swap2\n      swap1\n      tag_43\n      jump\t// in\n    tag_42:\n      tag_44\n      jump\t// in\n    tag_41:\n      stop\n        /* \"@openzeppelin/contracts/access/AccessControl.sol\":5328:5573  function renounceRole(bytes32 role, address callerConfirmation) public virtual {... */\n    tag_8:\n      tag_45\n      0x04\n      dup1\n      calldatasize\n      sub\n      dup2\n      add\n      swap1\n      tag_46\n      swap2\n      swap1\n      tag_43\n      jump\t// in\n    tag_46:\n      tag_47\n      jump\t// in\n    tag_45:\n      stop\n        /* \"contracts/infrastructure/storage/Upload.sol\":542:608  bytes32 public constant UPLOADER_ROLE = keccak256(\"UPLOADER_ROLE\") */\n    tag_9:\n      tag_48\n      tag_49\n      jump\t// in\n    tag_48:\n      mload(0x40)\n      tag_50\n      swap2\n      swap1\n      tag_40\n      jump\t// in\n    tag_50:\n      mload(0x40)\n      dup1\n      swap2\n      sub\n      swap1\n      return\n        /* \"contracts/infrastructure/storage/Upload.sol\":3837:4038  function getFileMetadata(bytes32 fileId) external view returns (FileMetadata memory) {... */\n    tag_10:\n      tag_51\n      0x04\n      dup1\n      calldatasize\n      sub\n      dup2\n      add\n      swap1\n      tag_52\n      swap2\n      swap1\n      tag_30\n      jump\t// in\n    tag_52:\n      tag_53\n      jump\t// in\n    tag_51:\n      mload(0x40)\n      tag_54\n      swap2\n      swap1\n      tag_55\n      jump\t// in\n    tag_54:\n      mload(0x40)\n      dup1\n      swap2\n      sub\n      swap1\n      return\n        /* \"contracts/infrastructure/storage/Upload.sol\":476:536  bytes32 public constant ADMIN_ROLE = keccak256(\"ADMIN_ROLE\") */\n    tag_11:\n      tag_56\n      tag_57\n      jump\t// in\n    tag_56:\n      mload(0x40)\n      tag_58\n      swap2\n      swap1\n      tag_40\n      jump\t// in\n    tag_58:\n      mload(0x40)\n      dup1\n      swap2\n      sub\n      swap1\n      return\n        /* \"@openzeppelin/contracts/access/AccessControl.sol\":2854:2990  function hasRole(bytes32 role, address account) public view virtual returns (bool) {... */\n    tag_12:\n      tag_59\n      0x04\n      dup1\n      calldatasize\n      sub\n      dup2\n      add\n      swap1\n      tag_60\n      swap2\n      swap1\n      tag_43\n      jump\t// in\n    tag_60:\n      tag_61\n      jump\t// in\n    tag_59:\n      mload(0x40)\n      tag_62\n      swap2\n      swap1\n      tag_27\n      jump\t// in\n    tag_62:\n      mload(0x40)\n      dup1\n      swap2\n      sub\n      swap1\n      return\n        /* \"contracts/infrastructure/storage/Upload.sol\":4417:4512  function totalFiles() external view returns (uint256) {... */\n    tag_13:\n      tag_63\n      tag_64\n      jump\t// in\n    tag_63:\n      mload(0x40)\n      tag_65\n      swap2\n      swap1\n      tag_66\n      jump\t// in\n    tag_65:\n      mload(0x40)\n      dup1\n      swap2\n      sub\n      swap1\n      return\n        /* \"@openzeppelin/contracts/access/AccessControl.sol\":2187:2236  bytes32 public constant DEFAULT_ADMIN_ROLE = 0x00 */\n    tag_14:\n      tag_67\n      tag_68\n      jump\t// in\n    tag_67:\n      mload(0x40)\n      tag_69\n      swap2\n      swap1\n      tag_40\n      jump\t// in\n    tag_69:\n      mload(0x40)\n      dup1\n      swap2\n      sub\n      swap1\n      return\n        /* \"contracts/infrastructure/storage/Upload.sol\":4678:4785  function fileIdAt(uint256 index) external view returns (bytes32) {... */\n    tag_15:\n      tag_70\n      0x04\n      dup1\n      calldatasize\n      sub\n      dup2\n      add\n      swap1\n      tag_71\n      swap2\n      swap1\n      tag_72\n      jump\t// in\n    tag_71:\n      tag_73\n      jump\t// in\n    tag_70:\n      mload(0x40)\n      tag_74\n      swap2\n      swap1\n      tag_40\n      jump\t// in\n    tag_74:\n      mload(0x40)\n      dup1\n      swap2\n      sub\n      swap1\n      return\n        /* \"contracts/infrastructure/storage/Upload.sol\":1818:2531  function uploadFile(... */\n    tag_16:\n      tag_75\n      0x04\n      dup1\n      calldatasize\n      sub\n      dup2\n      add\n      swap1\n      tag_76\n      swap2\n      swap1\n      tag_77\n      jump\t// in\n    tag_76:\n      tag_78\n      jump\t// in\n    tag_75:\n      stop\n        /* \"@openzeppelin/contracts/access/AccessControl.sol\":4642:4780  function revokeRole(bytes32 role, address account) public virtual onlyRole(getRoleAdmin(role)) {... */\n    tag_17:\n      tag_79\n      0x04\n      dup1\n      calldatasize\n      sub\n      dup2\n      add\n      swap1\n      tag_80\n      swap2\n      swap1\n      tag_43\n      jump\t// in\n    tag_80:\n      tag_81\n      jump\t// in\n    tag_79:\n      stop\n        /* \"contracts/infrastructure/storage/Upload.sol\":2810:3320  function updateFileMetadata(... */\n    tag_18:\n      tag_82\n      0x04\n      dup1\n      calldatasize\n      sub\n      dup2\n      add\n      swap1\n      tag_83\n      swap2\n      swap1\n      tag_77\n      jump\t// in\n    tag_83:\n      tag_84\n      jump\t// in\n    tag_82:\n      stop\n        /* \"@openzeppelin/contracts/access/AccessControl.sol\":2565:2767  function supportsInterface(bytes4 interfaceId) public view virtual override returns (bool) {... */\n    tag_25:\n        /* \"@openzeppelin/contracts/access/AccessControl.sol\":2650:2654  bool */\n      0x00\n        /* \"@openzeppelin/contracts/access/AccessControl.sol\":2688:2720  type(IAccessControl).interfaceId */\n      0x7965db0b00000000000000000000000000000000000000000000000000000000\n        /* \"@openzeppelin/contracts/access/AccessControl.sol\":2673:2720  interfaceId == type(IAccessControl).interfaceId */\n      not(0xffffffffffffffffffffffffffffffffffffffffffffffffffffffff)\n      and\n        /* \"@openzeppelin/contracts/access/AccessControl.sol\":2673:2684  interfaceId */\n      dup3\n        /* \"@openzeppelin/contracts/access/AccessControl.sol\":2673:2720  interfaceId == type(IAccessControl).interfaceId */\n      not(0xffffffffffffffffffffffffffffffffffffffffffffffffffffffff)\n      and\n      eq\n        /* \"@openzeppelin/contracts/access/AccessControl.sol\":2673:2760  interfaceId == type(IAccessControl).interfaceId || super.supportsInterface(interfaceId) */\n      dup1\n      tag_86\n      jumpi\n      pop\n        /* \"@openzeppelin/contracts/access/AccessControl.sol\":2724:2760  super.supportsInterface(interfaceId) */\n      tag_87\n        /* \"@openzeppelin/contracts/access/AccessControl.sol\":2748:2759  interfaceId */\n      dup3\n        /* \"@openzeppelin/contracts/access/AccessControl.sol\":2724:2747  super.supportsInterface */\n      tag_88\n        /* \"@openzeppelin/contracts/access/AccessControl.sol\":2724:2760  super.supportsInterface(interfaceId) */\n      jump\t// in\n    tag_87:\n        /* \"@openzeppelin/contracts/access/AccessControl.sol\":2673:2760  interfaceId == type(IAccessControl).interfaceId || super.supportsInterface(interfaceId) */\n    tag_86:\n        /* \"@openzeppelin/contracts/access/AccessControl.sol\":2666:2760  return interfaceId == type(IAccessControl).interfaceId || super.supportsInterface(interfaceId) */\n      swap1\n      pop\n        /* \"@openzeppelin/contracts/access/AccessControl.sol\":2565:2767  function supportsInterface(bytes4 interfaceId) public view virtual override returns (bool) {... */\n      swap2\n      swap1\n      pop\n      jump\t// out\n        /* \"contracts/infrastructure/storage/Upload.sol\":3438:3688  function removeFile(bytes32 fileId) external onlyRole(ADMIN_ROLE) {... */\n    tag_31:\n        /* \"contracts/infrastructure/storage/Upload.sol\":513:536  keccak256(\"ADMIN_ROLE\") */\n      0xa49807205ce4d355092ef5a8a18f56e8913cf4a201fbe287825b095693c21775\n        /* \"@openzeppelin/contracts/access/AccessControl.sol\":2464:2480  _checkRole(role) */\n      tag_90\n        /* \"@openzeppelin/contracts/access/AccessControl.sol\":2475:2479  role */\n      dup2\n        /* \"@openzeppelin/contracts/access/AccessControl.sol\":2464:2474  _checkRole */\n      tag_91\n        /* \"@openzeppelin/contracts/access/AccessControl.sol\":2464:2480  _checkRole(role) */\n      jump\t// in\n    tag_90:\n        /* \"contracts/infrastructure/storage/Upload.sol\":3522:3547  _fileIds.contains(fileId) */\n      tag_93\n        /* \"contracts/infrastructure/storage/Upload.sol\":3540:3546  fileId */\n      dup3\n        /* \"contracts/infrastructure/storage/Upload.sol\":3522:3530  _fileIds */\n      0x02\n        /* \"contracts/infrastructure/storage/Upload.sol\":3522:3539  _fileIds.contains */\n      tag_94\n      swap1\n        /* \"contracts/infrastructure/storage/Upload.sol\":3522:3547  _fileIds.contains(fileId) */\n      swap2\n      swap1\n      0xffffffff\n      and\n      jump\t// in\n    tag_93:\n        /* \"contracts/infrastructure/storage/Upload.sol\":3514:3574  require(_fileIds.contains(fileId), \"Upload: File not found\") */\n      tag_95\n      jumpi\n      mload(0x40)\n      0x08c379a000000000000000000000000000000000000000000000000000000000\n      dup2\n      mstore\n      0x04\n      add\n      tag_96\n      swap1\n      tag_97\n      jump\t// in\n    tag_96:\n      mload(0x40)\n      dup1\n      swap2\n      sub\n      swap1\n      revert\n    tag_95:\n        /* \"contracts/infrastructure/storage/Upload.sol\":3592:3605  _fileMetadata */\n      0x01\n        /* \"contracts/infrastructure/storage/Upload.sol\":3592:3613  _fileMetadata[fileId] */\n      0x00\n        /* \"contracts/infrastructure/storage/Upload.sol\":3606:3612  fileId */\n      dup4\n        /* \"contracts/infrastructure/storage/Upload.sol\":3592:3613  _fileMetadata[fileId] */\n      dup2\n      mstore\n      0x20\n      add\n      swap1\n      dup2\n      mstore\n      0x20\n      add\n      0x00\n      keccak256\n      0x00\n        /* \"contracts/infrastructure/storage/Upload.sol\":3585:3613  delete _fileMetadata[fileId] */\n      dup1\n      dup3\n      add\n      0x00\n      swap1\n      sstore\n      0x01\n      dup3\n      add\n      0x00\n      tag_98\n      swap2\n      swap1\n      tag_99\n      jump\t// in\n    tag_98:\n      0x02\n      dup3\n      add\n      0x00\n      tag_100\n      swap2\n      swap1\n      tag_99\n      jump\t// in\n    tag_100:\n      0x03\n      dup3\n      add\n      0x00\n      swap1\n      sstore\n      0x04\n      dup3\n      add\n      0x00\n      swap1\n      sstore\n      pop\n      pop\n        /* \"contracts/infrastructure/storage/Upload.sol\":3623:3646  _fileIds.remove(fileId) */\n      tag_101\n        /* \"contracts/infrastructure/storage/Upload.sol\":3639:3645  fileId */\n      dup3\n        /* \"contracts/infrastructure/storage/Upload.sol\":3623:3631  _fileIds */\n      0x02\n        /* \"contracts/infrastructure/storage/Upload.sol\":3623:3638  _fileIds.remove */\n      tag_102\n      swap1\n        /* \"contracts/infrastructure/storage/Upload.sol\":3623:3646  _fileIds.remove(fileId) */\n      swap2\n      swap1\n      0xffffffff\n      and\n      jump\t// in\n    tag_101:\n      pop\n        /* \"contracts/infrastructure/storage/Upload.sol\":3674:3680  fileId */\n      dup2\n        /* \"contracts/infrastructure/storage/Upload.sol\":3662:3681  FileRemoved(fileId) */\n      0xdb285357396016c282675b7ceb7d91b2af02f76abd0755d82889ad45473cad31\n      mload(0x40)\n      mload(0x40)\n      dup1\n      swap2\n      sub\n      swap1\n      log2\n        /* \"contracts/infrastructure/storage/Upload.sol\":3438:3688  function removeFile(bytes32 fileId) external onlyRole(ADMIN_ROLE) {... */\n      pop\n      pop\n      jump\t// out\n        /* \"contracts/infrastructure/storage/Upload.sol\":4198:4312  function fileExists(bytes32 fileId) external view returns (bool) {... */\n    tag_34:\n        /* \"contracts/infrastructure/storage/Upload.sol\":4257:4261  bool */\n      0x00\n        /* \"contracts/infrastructure/storage/Upload.sol\":4280:4305  _fileIds.contains(fileId) */\n      tag_104\n        /* \"contracts/infrastructure/storage/Upload.sol\":4298:4304  fileId */\n      dup3\n        /* \"contracts/infrastructure/storage/Upload.sol\":4280:4288  _fileIds */\n      0x02\n        /* \"contracts/infrastructure/storage/Upload.sol\":4280:4297  _fileIds.contains */\n      tag_94\n      swap1\n        /* \"contracts/infrastructure/storage/Upload.sol\":4280:4305  _fileIds.contains(fileId) */\n      swap2\n      swap1\n      0xffffffff\n      and\n      jump\t// in\n    tag_104:\n        /* \"contracts/infrastructure/storage/Upload.sol\":4273:4305  return _fileIds.contains(fileId) */\n      swap1\n      pop\n        /* \"contracts/infrastructure/storage/Upload.sol\":4198:4312  function fileExists(bytes32 fileId) external view returns (bool) {... */\n      swap2\n      swap1\n      pop\n      jump\t// out\n        /* \"@openzeppelin/contracts/access/AccessControl.sol\":3810:3930  function getRoleAdmin(bytes32 role) public view virtual returns (bytes32) {... */\n    tag_38:\n        /* \"@openzeppelin/contracts/access/AccessControl.sol\":3875:3882  bytes32 */\n      0x00\n        /* \"@openzeppelin/contracts/access/AccessControl.sol\":3901:3907  _roles */\n      dup1\n        /* \"@openzeppelin/contracts/access/AccessControl.sol\":3901:3913  _roles[role] */\n      0x00\n        /* \"@openzeppelin/contracts/access/AccessControl.sol\":3908:3912  role */\n      dup4\n        /* \"@openzeppelin/contracts/access/AccessControl.sol\":3901:3913  _roles[role] */\n      dup2\n      mstore\n      0x20\n      add\n      swap1\n      dup2\n      mstore\n      0x20\n      add\n      0x00\n      keccak256\n        /* \"@openzeppelin/contracts/access/AccessControl.sol\":3901:3923  _roles[role].adminRole */\n      0x01\n      add\n      sload\n        /* \"@openzeppelin/contracts/access/AccessControl.sol\":3894:3923  return _roles[role].adminRole */\n      swap1\n      pop\n        /* \"@openzeppelin/contracts/access/AccessControl.sol\":3810:3930  function getRoleAdmin(bytes32 role) public view virtual returns (bytes32) {... */\n      swap2\n      swap1\n      pop\n      jump\t// out\n        /* \"@openzeppelin/contracts/access/AccessControl.sol\":4226:4362  function grantRole(bytes32 role, address account) public virtual onlyRole(getRoleAdmin(role)) {... */\n    tag_44:\n        /* \"@openzeppelin/contracts/access/AccessControl.sol\":4300:4318  getRoleAdmin(role) */\n      tag_106\n        /* \"@openzeppelin/contracts/access/AccessControl.sol\":4313:4317  role */\n      dup3\n        /* \"@openzeppelin/contracts/access/AccessControl.sol\":4300:4312  getRoleAdmin */\n      tag_38\n        /* \"@openzeppelin/contracts/access/AccessControl.sol\":4300:4318  getRoleAdmin(role) */\n      jump\t// in\n    tag_106:\n        /* \"@openzeppelin/contracts/access/AccessControl.sol\":2464:2480  _checkRole(role) */\n      tag_108\n        /* \"@openzeppelin/contracts/access/AccessControl.sol\":2475:2479  role */\n      dup2\n        /* \"@openzeppelin/contracts/access/AccessControl.sol\":2464:2474  _checkRole */\n      tag_91\n        /* \"@openzeppelin/contracts/access/AccessControl.sol\":2464:2480  _checkRole(role) */\n      jump\t// in\n    tag_108:\n        /* \"@openzeppelin/contracts/access/AccessControl.sol\":4330:4355  _grantRole(role, account) */\n      tag_110\n        /* \"@openzeppelin/contracts/access/AccessControl.sol\":4341:4345  role */\n      dup4\n        /* \"@openzeppelin/contracts/access/AccessControl.sol\":4347:4354  account */\n      dup4\n        /* \"@openzeppelin/contracts/access/AccessControl.sol\":4330:4340  _grantRole */\n      tag_111\n        /* \"@openzeppelin/contracts/access/AccessControl.sol\":4330:4355  _grantRole(role, account) */\n      jump\t// in\n    tag_110:\n      pop\n        /* \"@openzeppelin/contracts/access/AccessControl.sol\":4226:4362  function grantRole(bytes32 role, address account) public virtual onlyRole(getRoleAdmin(role)) {... */\n      pop\n      pop\n      pop\n      jump\t// out\n        /* \"@openzeppelin/contracts/access/AccessControl.sol\":5328:5573  function renounceRole(bytes32 role, address callerConfirmation) public virtual {... */\n    tag_47:\n        /* \"@openzeppelin/contracts/access/AccessControl.sol\":5443:5455  _msgSender() */\n      tag_113\n        /* \"@openzeppelin/contracts/access/AccessControl.sol\":5443:5453  _msgSender */\n      tag_114\n        /* \"@openzeppelin/contracts/access/AccessControl.sol\":5443:5455  _msgSender() */\n      jump\t// in\n    tag_113:\n        /* \"@openzeppelin/contracts/access/AccessControl.sol\":5421:5455  callerConfirmation != _msgSender() */\n      0xffffffffffffffffffffffffffffffffffffffff\n      and\n        /* \"@openzeppelin/contracts/access/AccessControl.sol\":5421:5439  callerConfirmation */\n      dup2\n        /* \"@openzeppelin/contracts/access/AccessControl.sol\":5421:5455  callerConfirmation != _msgSender() */\n      0xffffffffffffffffffffffffffffffffffffffff\n      and\n      eq\n        /* \"@openzeppelin/contracts/access/AccessControl.sol\":5417:5519  if (callerConfirmation != _msgSender()) {... */\n      tag_115\n      jumpi\n        /* \"@openzeppelin/contracts/access/AccessControl.sol\":5478:5508  AccessControlBadConfirmation() */\n      mload(0x40)\n      0x6697b23200000000000000000000000000000000000000000000000000000000\n      dup2\n      mstore\n      0x04\n      add\n      mload(0x40)\n      dup1\n      swap2\n      sub\n      swap1\n      revert\n        /* \"@openzeppelin/contracts/access/AccessControl.sol\":5417:5519  if (callerConfirmation != _msgSender()) {... */\n    tag_115:\n        /* \"@openzeppelin/contracts/access/AccessControl.sol\":5529:5566  _revokeRole(role, callerConfirmation) */\n      tag_116\n        /* \"@openzeppelin/contracts/access/AccessControl.sol\":5541:5545  role */\n      dup3\n        /* \"@openzeppelin/contracts/access/AccessControl.sol\":5547:5565  callerConfirmation */\n      dup3\n        /* \"@openzeppelin/contracts/access/AccessControl.sol\":5529:5540  _revokeRole */\n      tag_117\n        /* \"@openzeppelin/contracts/access/AccessControl.sol\":5529:5566  _revokeRole(role, callerConfirmation) */\n      jump\t// in\n    tag_116:\n      pop\n        /* \"@openzeppelin/contracts/access/AccessControl.sol\":5328:5573  function renounceRole(bytes32 role, address callerConfirmation) public virtual {... */\n      pop\n      pop\n      jump\t// out\n        /* \"contracts/infrastructure/storage/Upload.sol\":542:608  bytes32 public constant UPLOADER_ROLE = keccak256(\"UPLOADER_ROLE\") */\n    tag_49:\n        /* \"contracts/infrastructure/storage/Upload.sol\":582:608  keccak256(\"UPLOADER_ROLE\") */\n      0x922390b27f65d828a1f7695b2eaae33fd0be87496792afddba1d25446a8fcb91\n        /* \"contracts/infrastructure/storage/Upload.sol\":542:608  bytes32 public constant UPLOADER_ROLE = keccak256(\"UPLOADER_ROLE\") */\n      dup2\n      jump\t// out\n        /* \"contracts/infrastructure/storage/Upload.sol\":3837:4038  function getFileMetadata(bytes32 fileId) external view returns (FileMetadata memory) {... */\n    tag_53:\n        /* \"contracts/infrastructure/storage/Upload.sol\":3901:3920  FileMetadata memory */\n      tag_118\n      tag_119\n      jump\t// in\n    tag_118:\n        /* \"contracts/infrastructure/storage/Upload.sol\":3940:3965  _fileIds.contains(fileId) */\n      tag_121\n        /* \"contracts/infrastructure/storage/Upload.sol\":3958:3964  fileId */\n      dup3\n        /* \"contracts/infrastructure/storage/Upload.sol\":3940:3948  _fileIds */\n      0x02\n        /* \"contracts/infrastructure/storage/Upload.sol\":3940:3957  _fileIds.contains */\n      tag_94\n      swap1\n        /* \"contracts/infrastructure/storage/Upload.sol\":3940:3965  _fileIds.contains(fileId) */\n      swap2\n      swap1\n      0xffffffff\n      and\n      jump\t// in\n    tag_121:\n        /* \"contracts/infrastructure/storage/Upload.sol\":3932:3992  require(_fileIds.contains(fileId), \"Upload: File not found\") */\n      tag_122\n      jumpi\n      mload(0x40)\n      0x08c379a000000000000000000000000000000000000000000000000000000000\n      dup2\n      mstore\n      0x04\n      add\n      tag_123\n      swap1\n      tag_97\n      jump\t// in\n    tag_123:\n      mload(0x40)\n      dup1\n      swap2\n      sub\n      swap1\n      revert\n    tag_122:\n        /* \"contracts/infrastructure/storage/Upload.sol\":4010:4023  _fileMetadata */\n      0x01\n        /* \"contracts/infrastructure/storage/Upload.sol\":4010:4031  _fileMetadata[fileId] */\n      0x00\n        /* \"contracts/infrastructure/storage/Upload.sol\":4024:4030  fileId */\n      dup4\n        /* \"contracts/infrastructure/storage/Upload.sol\":4010:4031  _fileMetadata[fileId] */\n      dup2\n      mstore\n      0x20\n      add\n      swap1\n      dup2\n      mstore\n      0x20\n      add\n      0x00\n      keccak256\n        /* \"contracts/infrastructure/storage/Upload.sol\":4003:4031  return _fileMetadata[fileId] */\n      mload(0x40)\n      dup1\n      0xa0\n      add\n      0x40\n      mstore\n      swap1\n      dup2\n      0x00\n      dup3\n      add\n      sload\n      dup2\n      mstore\n      0x20\n      add\n      0x01\n      dup3\n      add\n      dup1\n      sload\n      tag_124\n      swap1\n      tag_125\n      jump\t// in\n    tag_124:\n      dup1\n      0x1f\n      add\n      0x20\n      dup1\n      swap2\n      div\n      mul\n      0x20\n      add\n      mload(0x40)\n      swap1\n      dup2\n      add\n      0x40\n      mstore\n      dup1\n      swap3\n      swap2\n      swap1\n      dup2\n      dup2\n      mstore\n      0x20\n      add\n      dup3\n      dup1\n      sload\n      tag_126\n      swap1\n      tag_125\n      jump\t// in\n    tag_126:\n      dup1\n      iszero\n      tag_127\n      jumpi\n      dup1\n      0x1f\n      lt\n      tag_128\n      jumpi\n      0x0100\n      dup1\n      dup4\n      sload\n      div\n      mul\n      dup4\n      mstore\n      swap2\n      0x20\n      add\n      swap2\n      jump(tag_127)\n    tag_128:\n      dup3\n      add\n      swap2\n      swap1\n      0x00\n      mstore\n      keccak256(0x00, 0x20)\n      swap1\n    tag_129:\n      dup2\n      sload\n      dup2\n      mstore\n      swap1\n      0x01\n      add\n      swap1\n      0x20\n      add\n      dup1\n      dup4\n      gt\n      tag_129\n      jumpi\n      dup3\n      swap1\n      sub\n      0x1f\n      and\n      dup3\n      add\n      swap2\n    tag_127:\n      pop\n      pop\n      pop\n      pop\n      pop\n      dup2\n      mstore\n      0x20\n      add\n      0x02\n      dup3\n      add\n      dup1\n      sload\n      tag_130\n      swap1\n      tag_125\n      jump\t// in\n    tag_130:\n      dup1\n      0x1f\n      add\n      0x20\n      dup1\n      swap2\n      div\n      mul\n      0x20\n      add\n      mload(0x40)\n      swap1\n      dup2\n      add\n      0x40\n      mstore\n      dup1\n      swap3\n      swap2\n      swap1\n      dup2\n      dup2\n      mstore\n      0x20\n      add\n      dup3\n      dup1\n      sload\n      tag_131\n      swap1\n      tag_125\n      jump\t// in\n    tag_131:\n      dup1\n      iszero\n      tag_132\n      jumpi\n      dup1\n      0x1f\n      lt\n      tag_133\n      jumpi\n      0x0100\n      dup1\n      dup4\n      sload\n      div\n      mul\n      dup4\n      mstore\n      swap2\n      0x20\n      add\n      swap2\n      jump(tag_132)\n    tag_133:\n      dup3\n      add\n      swap2\n      swap1\n      0x00\n      mstore\n      keccak256(0x00, 0x20)\n      swap1\n    tag_134:\n      dup2\n      sload\n      dup2\n      mstore\n      swap1\n      0x01\n      add\n      swap1\n      0x20\n      add\n      dup1\n      dup4\n      gt\n      tag_134\n      jumpi\n      dup3\n      swap1\n      sub\n      0x1f\n      and\n      dup3\n      add\n      swap2\n    tag_132:\n      pop\n      pop\n      pop\n      pop\n      pop\n      dup2\n      mstore\n      0x20\n      add\n      0x03\n      dup3\n      add\n      sload\n      dup2\n      mstore\n      0x20\n      add\n      0x04\n      dup3\n      add\n      sload\n      dup2\n      mstore\n      pop\n      pop\n      swap1\n      pop\n        /* \"contracts/infrastructure/storage/Upload.sol\":3837:4038  function getFileMetadata(bytes32 fileId) external view returns (FileMetadata memory) {... */\n      swap2\n      swap1\n      pop\n      jump\t// out\n        /* \"contracts/infrastructure/storage/Upload.sol\":476:536  bytes32 public constant ADMIN_ROLE = keccak256(\"ADMIN_ROLE\") */\n    tag_57:\n        /* \"contracts/infrastructure/storage/Upload.sol\":513:536  keccak256(\"ADMIN_ROLE\") */\n      0xa49807205ce4d355092ef5a8a18f56e8913cf4a201fbe287825b095693c21775\n        /* \"contracts/infrastructure/storage/Upload.sol\":476:536  bytes32 public constant ADMIN_ROLE = keccak256(\"ADMIN_ROLE\") */\n      dup2\n      jump\t// out\n        /* \"@openzeppelin/contracts/access/AccessControl.sol\":2854:2990  function hasRole(bytes32 role, address account) public view virtual returns (bool) {... */\n    tag_61:\n        /* \"@openzeppelin/contracts/access/AccessControl.sol\":2931:2935  bool */\n      0x00\n        /* \"@openzeppelin/contracts/access/AccessControl.sol\":2954:2960  _roles */\n      dup1\n        /* \"@openzeppelin/contracts/access/AccessControl.sol\":2954:2966  _roles[role] */\n      0x00\n        /* \"@openzeppelin/contracts/access/AccessControl.sol\":2961:2965  role */\n      dup5\n        /* \"@openzeppelin/contracts/access/AccessControl.sol\":2954:2966  _roles[role] */\n      dup2\n      mstore\n      0x20\n      add\n      swap1\n      dup2\n      mstore\n      0x20\n      add\n      0x00\n      keccak256\n        /* \"@openzeppelin/contracts/access/AccessControl.sol\":2954:2974  _roles[role].hasRole */\n      0x00\n      add\n        /* \"@openzeppelin/contracts/access/AccessControl.sol\":2954:2983  _roles[role].hasRole[account] */\n      0x00\n        /* \"@openzeppelin/contracts/access/AccessControl.sol\":2975:2982  account */\n      dup4\n        /* \"@openzeppelin/contracts/access/AccessControl.sol\":2954:2983  _roles[role].hasRole[account] */\n      0xffffffffffffffffffffffffffffffffffffffff\n      and\n      0xffffffffffffffffffffffffffffffffffffffff\n      and\n      dup2\n      mstore\n      0x20\n      add\n      swap1\n      dup2\n      mstore\n      0x20\n      add\n      0x00\n      keccak256\n      0x00\n      swap1\n      sload\n      swap1\n      0x0100\n      exp\n      swap1\n      div\n      0xff\n      and\n        /* \"@openzeppelin/contracts/access/AccessControl.sol\":2947:2983  return _roles[role].hasRole[account] */\n      swap1\n      pop\n        /* \"@openzeppelin/contracts/access/AccessControl.sol\":2854:2990  function hasRole(bytes32 role, address account) public view virtual returns (bool) {... */\n      swap3\n      swap2\n      pop\n      pop\n      jump\t// out\n        /* \"contracts/infrastructure/storage/Upload.sol\":4417:4512  function totalFiles() external view returns (uint256) {... */\n    tag_64:\n        /* \"contracts/infrastructure/storage/Upload.sol\":4462:4469  uint256 */\n      0x00\n        /* \"contracts/infrastructure/storage/Upload.sol\":4488:4505  _fileIds.length() */\n      tag_137\n        /* \"contracts/infrastructure/storage/Upload.sol\":4488:4496  _fileIds */\n      0x02\n        /* \"contracts/infrastructure/storage/Upload.sol\":4488:4503  _fileIds.length */\n      tag_138\n        /* \"contracts/infrastructure/storage/Upload.sol\":4488:4505  _fileIds.length() */\n      jump\t// in\n    tag_137:\n        /* \"contracts/infrastructure/storage/Upload.sol\":4481:4505  return _fileIds.length() */\n      swap1\n      pop\n        /* \"contracts/infrastructure/storage/Upload.sol\":4417:4512  function totalFiles() external view returns (uint256) {... */\n      swap1\n      jump\t// out\n        /* \"@openzeppelin/contracts/access/AccessControl.sol\":2187:2236  bytes32 public constant DEFAULT_ADMIN_ROLE = 0x00 */\n    tag_68:\n        /* \"@openzeppelin/contracts/access/AccessControl.sol\":2232:2236  0x00 */\n      0x00\n        /* \"@openzeppelin/contracts/access/AccessControl.sol\":2187:2236  bytes32 public constant DEFAULT_ADMIN_ROLE = 0x00 */\n      dup1\n      shl\n      dup2\n      jump\t// out\n        /* \"contracts/infrastructure/storage/Upload.sol\":4678:4785  function fileIdAt(uint256 index) external view returns (bytes32) {... */\n    tag_73:\n        /* \"contracts/infrastructure/storage/Upload.sol\":4734:4741  bytes32 */\n      0x00\n        /* \"contracts/infrastructure/storage/Upload.sol\":4760:4778  _fileIds.at(index) */\n      tag_140\n        /* \"contracts/infrastructure/storage/Upload.sol\":4772:4777  index */\n      dup3\n        /* \"contracts/infrastructure/storage/Upload.sol\":4760:4768  _fileIds */\n      0x02\n        /* \"contracts/infrastructure/storage/Upload.sol\":4760:4771  _fileIds.at */\n      tag_141\n      swap1\n        /* \"contracts/infrastructure/storage/Upload.sol\":4760:4778  _fileIds.at(index) */\n      swap2\n      swap1\n      0xffffffff\n      and\n      jump\t// in\n    tag_140:\n        /* \"contracts/infrastructure/storage/Upload.sol\":4753:4778  return _fileIds.at(index) */\n      swap1\n      pop\n        /* \"contracts/infrastructure/storage/Upload.sol\":4678:4785  function fileIdAt(uint256 index) external view returns (bytes32) {... */\n      swap2\n      swap1\n      pop\n      jump\t// out\n        /* \"contracts/infrastructure/storage/Upload.sol\":1818:2531  function uploadFile(... */\n    tag_78:\n        /* \"contracts/infrastructure/storage/Upload.sol\":582:608  keccak256(\"UPLOADER_ROLE\") */\n      0x922390b27f65d828a1f7695b2eaae33fd0be87496792afddba1d25446a8fcb91\n        /* \"@openzeppelin/contracts/access/AccessControl.sol\":2464:2480  _checkRole(role) */\n      tag_143\n        /* \"@openzeppelin/contracts/access/AccessControl.sol\":2475:2479  role */\n      dup2\n        /* \"@openzeppelin/contracts/access/AccessControl.sol\":2464:2474  _checkRole */\n      tag_91\n        /* \"@openzeppelin/contracts/access/AccessControl.sol\":2464:2480  _checkRole(role) */\n      jump\t// in\n    tag_143:\n        /* \"contracts/infrastructure/storage/Upload.sol\":2016:2043  _fileIds.contains(fileHash) */\n      tag_145\n        /* \"contracts/infrastructure/storage/Upload.sol\":2034:2042  fileHash */\n      dup8\n        /* \"contracts/infrastructure/storage/Upload.sol\":2016:2024  _fileIds */\n      0x02\n        /* \"contracts/infrastructure/storage/Upload.sol\":2016:2033  _fileIds.contains */\n      tag_94\n      swap1\n        /* \"contracts/infrastructure/storage/Upload.sol\":2016:2043  _fileIds.contains(fileHash) */\n      swap2\n      swap1\n      0xffffffff\n      and\n      jump\t// in\n    tag_145:\n        /* \"contracts/infrastructure/storage/Upload.sol\":2015:2043  !_fileIds.contains(fileHash) */\n      iszero\n        /* \"contracts/infrastructure/storage/Upload.sol\":2007:2077  require(!_fileIds.contains(fileHash), \"Upload: File already uploaded\") */\n      tag_146\n      jumpi\n      mload(0x40)\n      0x08c379a000000000000000000000000000000000000000000000000000000000\n      dup2\n      mstore\n      0x04\n      add\n      tag_147\n      swap1\n      tag_148\n      jump\t// in\n    tag_147:\n      mload(0x40)\n      dup1\n      swap2\n      sub\n      swap1\n      revert\n    tag_146:\n        /* \"contracts/infrastructure/storage/Upload.sol\":2122:2136  bytes32 fileId */\n      0x00\n        /* \"contracts/infrastructure/storage/Upload.sol\":2139:2147  fileHash */\n      dup8\n        /* \"contracts/infrastructure/storage/Upload.sol\":2122:2147  bytes32 fileId = fileHash */\n      swap1\n      pop\n        /* \"contracts/infrastructure/storage/Upload.sol\":2213:2411  FileMetadata({... */\n      mload(0x40)\n      dup1\n      0xa0\n      add\n      0x40\n      mstore\n      dup1\n        /* \"contracts/infrastructure/storage/Upload.sol\":2250:2258  fileHash */\n      dup10\n        /* \"contracts/infrastructure/storage/Upload.sol\":2213:2411  FileMetadata({... */\n      dup2\n      mstore\n      0x20\n      add\n        /* \"contracts/infrastructure/storage/Upload.sol\":2282:2290  fileName */\n      dup9\n      dup9\n        /* \"contracts/infrastructure/storage/Upload.sol\":2213:2411  FileMetadata({... */\n      dup1\n      dup1\n      0x1f\n      add\n      0x20\n      dup1\n      swap2\n      div\n      mul\n      0x20\n      add\n      mload(0x40)\n      swap1\n      dup2\n      add\n      0x40\n      mstore\n      dup1\n      swap4\n      swap3\n      swap2\n      swap1\n      dup2\n      dup2\n      mstore\n      0x20\n      add\n      dup4\n      dup4\n      dup1\n      dup3\n      dup5\n      calldatacopy\n      0x00\n      dup2\n      dup5\n      add\n      mstore\n      not(0x1f)\n      0x1f\n      dup3\n      add\n      and\n      swap1\n      pop\n      dup1\n      dup4\n      add\n      swap3\n      pop\n      pop\n      pop\n      pop\n      pop\n      pop\n      pop\n      dup2\n      mstore\n      0x20\n      add\n        /* \"contracts/infrastructure/storage/Upload.sol\":2314:2322  fileType */\n      dup7\n      dup7\n        /* \"contracts/infrastructure/storage/Upload.sol\":2213:2411  FileMetadata({... */\n      dup1\n      dup1\n      0x1f\n      add\n      0x20\n      dup1\n      swap2\n      div\n      mul\n      0x20\n      add\n      mload(0x40)\n      swap1\n      dup2\n      add\n      0x40\n      mstore\n      dup1\n      swap4\n      swap3\n      swap2\n      swap1\n      dup2\n      dup2\n      mstore\n      0x20\n      add\n      dup4\n      dup4\n      dup1\n      dup3\n      dup5\n      calldatacopy\n      0x00\n      dup2\n      dup5\n      add\n      mstore\n      not(0x1f)\n      0x1f\n      dup3\n      add\n      and\n      swap1\n      pop\n      dup1\n      dup4\n      add\n      swap3\n      pop\n      pop\n      pop\n      pop\n      pop\n      pop\n      pop\n      dup2\n      mstore\n      0x20\n      add\n        /* \"contracts/infrastructure/storage/Upload.sol\":2346:2354  fileSize */\n      dup5\n        /* \"contracts/infrastructure/storage/Upload.sol\":2213:2411  FileMetadata({... */\n      dup2\n      mstore\n      0x20\n      add\n        /* \"contracts/infrastructure/storage/Upload.sol\":2385:2400  block.timestamp */\n      timestamp\n        /* \"contracts/infrastructure/storage/Upload.sol\":2213:2411  FileMetadata({... */\n      dup2\n      mstore\n      pop\n        /* \"contracts/infrastructure/storage/Upload.sol\":2189:2202  _fileMetadata */\n      0x01\n        /* \"contracts/infrastructure/storage/Upload.sol\":2189:2210  _fileMetadata[fileId] */\n      0x00\n        /* \"contracts/infrastructure/storage/Upload.sol\":2203:2209  fileId */\n      dup4\n        /* \"contracts/infrastructure/storage/Upload.sol\":2189:2210  _fileMetadata[fileId] */\n      dup2\n      mstore\n      0x20\n      add\n      swap1\n      dup2\n      mstore\n      0x20\n      add\n      0x00\n      keccak256\n        /* \"contracts/infrastructure/storage/Upload.sol\":2189:2411  _fileMetadata[fileId] = FileMetadata({... */\n      0x00\n      dup3\n      add\n      mload\n      dup2\n      0x00\n      add\n      sstore\n      0x20\n      dup3\n      add\n      mload\n      dup2\n      0x01\n      add\n      swap1\n      dup2\n      tag_149\n      swap2\n      swap1\n      tag_150\n      jump\t// in\n    tag_149:\n      pop\n      0x40\n      dup3\n      add\n      mload\n      dup2\n      0x02\n      add\n      swap1\n      dup2\n      tag_151\n      swap2\n      swap1\n      tag_150\n      jump\t// in\n    tag_151:\n      pop\n      0x60\n      dup3\n      add\n      mload\n      dup2\n      0x03\n      add\n      sstore\n      0x80\n      dup3\n      add\n      mload\n      dup2\n      0x04\n      add\n      sstore\n      swap1\n      pop\n      pop\n        /* \"contracts/infrastructure/storage/Upload.sol\":2421:2441  _fileIds.add(fileId) */\n      tag_152\n        /* \"contracts/infrastructure/storage/Upload.sol\":2434:2440  fileId */\n      dup2\n        /* \"contracts/infrastructure/storage/Upload.sol\":2421:2429  _fileIds */\n      0x02\n        /* \"contracts/infrastructure/storage/Upload.sol\":2421:2433  _fileIds.add */\n      tag_153\n      swap1\n        /* \"contracts/infrastructure/storage/Upload.sol\":2421:2441  _fileIds.add(fileId) */\n      swap2\n      swap1\n      0xffffffff\n      and\n      jump\t// in\n    tag_152:\n      pop\n        /* \"contracts/infrastructure/storage/Upload.sol\":2470:2476  fileId */\n      dup1\n        /* \"contracts/infrastructure/storage/Upload.sol\":2457:2524  FileUploaded(fileId, fileName, fileType, fileSize, block.timestamp) */\n      0xc26c06d0a750e5ef9d298410184d2aed566fea7f9e8110a053ecd3d89e3818ca\n        /* \"contracts/infrastructure/storage/Upload.sol\":2478:2486  fileName */\n      dup9\n      dup9\n        /* \"contracts/infrastructure/storage/Upload.sol\":2488:2496  fileType */\n      dup9\n      dup9\n        /* \"contracts/infrastructure/storage/Upload.sol\":2498:2506  fileSize */\n      dup9\n        /* \"contracts/infrastructure/storage/Upload.sol\":2508:2523  block.timestamp */\n      timestamp\n        /* \"contracts/infrastructure/storage/Upload.sol\":2457:2524  FileUploaded(fileId, fileName, fileType, fileSize, block.timestamp) */\n      mload(0x40)\n      tag_154\n      swap7\n      swap6\n      swap5\n      swap4\n      swap3\n      swap2\n      swap1\n      tag_155\n      jump\t// in\n    tag_154:\n      mload(0x40)\n      dup1\n      swap2\n      sub\n      swap1\n      log2\n        /* \"contracts/infrastructure/storage/Upload.sol\":1997:2531  {... */\n      pop\n        /* \"contracts/infrastructure/storage/Upload.sol\":1818:2531  function uploadFile(... */\n      pop\n      pop\n      pop\n      pop\n      pop\n      pop\n      pop\n      jump\t// out\n        /* \"@openzeppelin/contracts/access/AccessControl.sol\":4642:4780  function revokeRole(bytes32 role, address account) public virtual onlyRole(getRoleAdmin(role)) {... */\n    tag_81:\n        /* \"@openzeppelin/contracts/access/AccessControl.sol\":4717:4735  getRoleAdmin(role) */\n      tag_156\n        /* \"@openzeppelin/contracts/access/AccessControl.sol\":4730:4734  role */\n      dup3\n        /* \"@openzeppelin/contracts/access/AccessControl.sol\":4717:4729  getRoleAdmin */\n      tag_38\n        /* \"@openzeppelin/contracts/access/AccessControl.sol\":4717:4735  getRoleAdmin(role) */\n      jump\t// in\n    tag_156:\n        /* \"@openzeppelin/contracts/access/AccessControl.sol\":2464:2480  _checkRole(role) */\n      tag_158\n        /* \"@openzeppelin/contracts/access/AccessControl.sol\":2475:2479  role */\n      dup2\n        /* \"@openzeppelin/contracts/access/AccessControl.sol\":2464:2474  _checkRole */\n      tag_91\n        /* \"@openzeppelin/contracts/access/AccessControl.sol\":2464:2480  _checkRole(role) */\n      jump\t// in\n    tag_158:\n        /* \"@openzeppelin/contracts/access/AccessControl.sol\":4747:4773  _revokeRole(role, account) */\n      tag_160\n        /* \"@openzeppelin/contracts/access/AccessControl.sol\":4759:4763  role */\n      dup4\n        /* \"@openzeppelin/contracts/access/AccessControl.sol\":4765:4772  account */\n      dup4\n        /* \"@openzeppelin/contracts/access/AccessControl.sol\":4747:4758  _revokeRole */\n      tag_117\n        /* \"@openzeppelin/contracts/access/AccessControl.sol\":4747:4773  _revokeRole(role, account) */\n      jump\t// in\n    tag_160:\n      pop\n        /* \"@openzeppelin/contracts/access/AccessControl.sol\":4642:4780  function revokeRole(bytes32 role, address account) public virtual onlyRole(getRoleAdmin(role)) {... */\n      pop\n      pop\n      pop\n      jump\t// out\n        /* \"contracts/infrastructure/storage/Upload.sol\":2810:3320  function updateFileMetadata(... */\n    tag_84:\n        /* \"contracts/infrastructure/storage/Upload.sol\":513:536  keccak256(\"ADMIN_ROLE\") */\n      0xa49807205ce4d355092ef5a8a18f56e8913cf4a201fbe287825b095693c21775\n        /* \"@openzeppelin/contracts/access/AccessControl.sol\":2464:2480  _checkRole(role) */\n      tag_162\n        /* \"@openzeppelin/contracts/access/AccessControl.sol\":2475:2479  role */\n      dup2\n        /* \"@openzeppelin/contracts/access/AccessControl.sol\":2464:2474  _checkRole */\n      tag_91\n        /* \"@openzeppelin/contracts/access/AccessControl.sol\":2464:2480  _checkRole(role) */\n      jump\t// in\n    tag_162:\n        /* \"contracts/infrastructure/storage/Upload.sol\":3010:3035  _fileIds.contains(fileId) */\n      tag_164\n        /* \"contracts/infrastructure/storage/Upload.sol\":3028:3034  fileId */\n      dup8\n        /* \"contracts/infrastructure/storage/Upload.sol\":3010:3018  _fileIds */\n      0x02\n        /* \"contracts/infrastructure/storage/Upload.sol\":3010:3027  _fileIds.contains */\n      tag_94\n      swap1\n        /* \"contracts/infrastructure/storage/Upload.sol\":3010:3035  _fileIds.contains(fileId) */\n      swap2\n      swap1\n      0xffffffff\n      and\n      jump\t// in\n    tag_164:\n        /* \"contracts/infrastructure/storage/Upload.sol\":3002:3062  require(_fileIds.contains(fileId), \"Upload: File not found\") */\n      tag_165\n      jumpi\n      mload(0x40)\n      0x08c379a000000000000000000000000000000000000000000000000000000000\n      dup2\n      mstore\n      0x04\n      add\n      tag_166\n      swap1\n      tag_97\n      jump\t// in\n    tag_166:\n      mload(0x40)\n      dup1\n      swap2\n      sub\n      swap1\n      revert\n    tag_165:\n        /* \"contracts/infrastructure/storage/Upload.sol\":3073:3102  FileMetadata storage metadata */\n      0x00\n        /* \"contracts/infrastructure/storage/Upload.sol\":3105:3118  _fileMetadata */\n      0x01\n        /* \"contracts/infrastructure/storage/Upload.sol\":3105:3126  _fileMetadata[fileId] */\n      0x00\n        /* \"contracts/infrastructure/storage/Upload.sol\":3119:3125  fileId */\n      dup10\n        /* \"contracts/infrastructure/storage/Upload.sol\":3105:3126  _fileMetadata[fileId] */\n      dup2\n      mstore\n      0x20\n      add\n      swap1\n      dup2\n      mstore\n      0x20\n      add\n      0x00\n      keccak256\n        /* \"contracts/infrastructure/storage/Upload.sol\":3073:3126  FileMetadata storage metadata = _fileMetadata[fileId] */\n      swap1\n      pop\n        /* \"contracts/infrastructure/storage/Upload.sol\":3156:3164  fileName */\n      dup7\n      dup7\n        /* \"contracts/infrastructure/storage/Upload.sol\":3136:3144  metadata */\n      dup3\n        /* \"contracts/infrastructure/storage/Upload.sol\":3136:3153  metadata.fileName */\n      0x01\n      add\n        /* \"contracts/infrastructure/storage/Upload.sol\":3136:3164  metadata.fileName = fileName */\n      swap2\n      dup3\n      tag_167\n      swap3\n      swap2\n      swap1\n      tag_168\n      jump\t// in\n    tag_167:\n      pop\n        /* \"contracts/infrastructure/storage/Upload.sol\":3194:3202  fileType */\n      dup5\n      dup5\n        /* \"contracts/infrastructure/storage/Upload.sol\":3174:3182  metadata */\n      dup3\n        /* \"contracts/infrastructure/storage/Upload.sol\":3174:3191  metadata.fileType */\n      0x02\n      add\n        /* \"contracts/infrastructure/storage/Upload.sol\":3174:3202  metadata.fileType = fileType */\n      swap2\n      dup3\n      tag_169\n      swap3\n      swap2\n      swap1\n      tag_168\n      jump\t// in\n    tag_169:\n      pop\n        /* \"contracts/infrastructure/storage/Upload.sol\":3232:3240  fileSize */\n      dup3\n        /* \"contracts/infrastructure/storage/Upload.sol\":3212:3220  metadata */\n      dup2\n        /* \"contracts/infrastructure/storage/Upload.sol\":3212:3229  metadata.fileSize */\n      0x03\n      add\n        /* \"contracts/infrastructure/storage/Upload.sol\":3212:3240  metadata.fileSize = fileSize */\n      dup2\n      swap1\n      sstore\n      pop\n        /* \"contracts/infrastructure/storage/Upload.sol\":3276:3282  fileId */\n      dup8\n        /* \"contracts/infrastructure/storage/Upload.sol\":3256:3313  FileMetadataUpdated(fileId, fileName, fileType, fileSize) */\n      0xfb4650b1da15b98c9c4d8895e59f5d26456d866cac0ed1d6012a61d7bbebffb3\n        /* \"contracts/infrastructure/storage/Upload.sol\":3284:3292  fileName */\n      dup9\n      dup9\n        /* \"contracts/infrastructure/storage/Upload.sol\":3294:3302  fileType */\n      dup9\n      dup9\n        /* \"contracts/infrastructure/storage/Upload.sol\":3304:3312  fileSize */\n      dup9\n        /* \"contracts/infrastructure/storage/Upload.sol\":3256:3313  FileMetadataUpdated(fileId, fileName, fileType, fileSize) */\n      mload(0x40)\n      tag_170\n      swap6\n      swap5\n      swap4\n      swap3\n      swap2\n      swap1\n      tag_171\n      jump\t// in\n    tag_170:\n      mload(0x40)\n      dup1\n      swap2\n      sub\n      swap1\n      log2\n        /* \"contracts/infrastructure/storage/Upload.sol\":2992:3320  {... */\n      pop\n        /* \"contracts/infrastructure/storage/Upload.sol\":2810:3320  function updateFileMetadata(... */\n      pop\n      pop\n      pop\n      pop\n      pop\n      pop\n      pop\n      jump\t// out\n        /* \"@openzeppelin/contracts/utils/introspection/ERC165.sol\":762:908  function supportsInterface(bytes4 interfaceId) public view virtual returns (bool) {... */\n    tag_88:\n        /* \"@openzeppelin/contracts/utils/introspection/ERC165.sol\":838:842  bool */\n      0x00\n        /* \"@openzeppelin/contracts/utils/introspection/ERC165.sol\":876:901  type(IERC165).interfaceId */\n      0x01ffc9a700000000000000000000000000000000000000000000000000000000\n        /* \"@openzeppelin/contracts/utils/introspection/ERC165.sol\":861:901  interfaceId == type(IERC165).interfaceId */\n      not(0xffffffffffffffffffffffffffffffffffffffffffffffffffffffff)\n      and\n        /* \"@openzeppelin/contracts/utils/introspection/ERC165.sol\":861:872  interfaceId */\n      dup3\n        /* \"@openzeppelin/contracts/utils/introspection/ERC165.sol\":861:901  interfaceId == type(IERC165).interfaceId */\n      not(0xffffffffffffffffffffffffffffffffffffffffffffffffffffffff)\n      and\n      eq\n        /* \"@openzeppelin/contracts/utils/introspection/ERC165.sol\":854:901  return interfaceId == type(IERC165).interfaceId */\n      swap1\n      pop\n        /* \"@openzeppelin/contracts/utils/introspection/ERC165.sol\":762:908  function supportsInterface(bytes4 interfaceId) public view virtual returns (bool) {... */\n      swap2\n      swap1\n      pop\n      jump\t// out\n        /* \"@openzeppelin/contracts/access/AccessControl.sol\":3199:3302  function _checkRole(bytes32 role) internal view virtual {... */\n    tag_91:\n        /* \"@openzeppelin/contracts/access/AccessControl.sol\":3265:3295  _checkRole(role, _msgSender()) */\n      tag_174\n        /* \"@openzeppelin/contracts/access/AccessControl.sol\":3276:3280  role */\n      dup2\n        /* \"@openzeppelin/contracts/access/AccessControl.sol\":3282:3294  _msgSender() */\n      tag_175\n        /* \"@openzeppelin/contracts/access/AccessControl.sol\":3282:3292  _msgSender */\n      tag_114\n        /* \"@openzeppelin/contracts/access/AccessControl.sol\":3282:3294  _msgSender() */\n      jump\t// in\n    tag_175:\n        /* \"@openzeppelin/contracts/access/AccessControl.sol\":3265:3275  _checkRole */\n      tag_176\n        /* \"@openzeppelin/contracts/access/AccessControl.sol\":3265:3295  _checkRole(role, _msgSender()) */\n      jump\t// in\n    tag_174:\n        /* \"@openzeppelin/contracts/access/AccessControl.sol\":3199:3302  function _checkRole(bytes32 role) internal view virtual {... */\n      pop\n      jump\t// out\n        /* \"@openzeppelin/contracts/utils/structs/EnumerableSet.sol\":6431:6569  function contains(Bytes32Set storage set, bytes32 value) internal view returns (bool) {... */\n    tag_94:\n        /* \"@openzeppelin/contracts/utils/structs/EnumerableSet.sol\":6511:6515  bool */\n      0x00\n        /* \"@openzeppelin/contracts/utils/structs/EnumerableSet.sol\":6534:6562  _contains(set._inner, value) */\n      tag_178\n        /* \"@openzeppelin/contracts/utils/structs/EnumerableSet.sol\":6544:6547  set */\n      dup4\n        /* \"@openzeppelin/contracts/utils/structs/EnumerableSet.sol\":6544:6554  set._inner */\n      0x00\n      add\n        /* \"@openzeppelin/contracts/utils/structs/EnumerableSet.sol\":6556:6561  value */\n      dup4\n        /* \"@openzeppelin/contracts/utils/structs/EnumerableSet.sol\":6534:6543  _contains */\n      tag_179\n        /* \"@openzeppelin/contracts/utils/structs/EnumerableSet.sol\":6534:6562  _contains(set._inner, value) */\n      jump\t// in\n    tag_178:\n        /* \"@openzeppelin/contracts/utils/structs/EnumerableSet.sol\":6527:6562  return _contains(set._inner, value) */\n      swap1\n      pop\n        /* \"@openzeppelin/contracts/utils/structs/EnumerableSet.sol\":6431:6569  function contains(Bytes32Set storage set, bytes32 value) internal view returns (bool) {... */\n      swap3\n      swap2\n      pop\n      pop\n      jump\t// out\n        /* \"@openzeppelin/contracts/utils/structs/EnumerableSet.sol\":6221:6350  function remove(Bytes32Set storage set, bytes32 value) internal returns (bool) {... */\n    tag_102:\n        /* \"@openzeppelin/contracts/utils/structs/EnumerableSet.sol\":6294:6298  bool */\n      0x00\n        /* \"@openzeppelin/contracts/utils/structs/EnumerableSet.sol\":6317:6343  _remove(set._inner, value) */\n      tag_181\n        /* \"@openzeppelin/contracts/utils/structs/EnumerableSet.sol\":6325:6328  set */\n      dup4\n        /* \"@openzeppelin/contracts/utils/structs/EnumerableSet.sol\":6325:6335  set._inner */\n      0x00\n      add\n        /* \"@openzeppelin/contracts/utils/structs/EnumerableSet.sol\":6337:6342  value */\n      dup4\n        /* \"@openzeppelin/contracts/utils/structs/EnumerableSet.sol\":6317:6324  _remove */\n      tag_182\n        /* \"@openzeppelin/contracts/utils/structs/EnumerableSet.sol\":6317:6343  _remove(set._inner, value) */\n      jump\t// in\n    tag_181:\n        /* \"@openzeppelin/contracts/utils/structs/EnumerableSet.sol\":6310:6343  return _remove(set._inner, value) */\n      swap1\n      pop\n        /* \"@openzeppelin/contracts/utils/structs/EnumerableSet.sol\":6221:6350  function remove(Bytes32Set storage set, bytes32 value) internal returns (bool) {... */\n      swap3\n      swap2\n      pop\n      pop\n      jump\t// out\n        /* \"@openzeppelin/contracts/access/AccessControl.sol\":6179:6495  function _grantRole(bytes32 role, address account) internal virtual returns (bool) {... */\n    tag_111:\n        /* \"@openzeppelin/contracts/access/AccessControl.sol\":6256:6260  bool */\n      0x00\n        /* \"@openzeppelin/contracts/access/AccessControl.sol\":6277:6299  hasRole(role, account) */\n      tag_184\n        /* \"@openzeppelin/contracts/access/AccessControl.sol\":6285:6289  role */\n      dup4\n        /* \"@openzeppelin/contracts/access/AccessControl.sol\":6291:6298  account */\n      dup4\n        /* \"@openzeppelin/contracts/access/AccessControl.sol\":6277:6284  hasRole */\n      tag_61\n        /* \"@openzeppelin/contracts/access/AccessControl.sol\":6277:6299  hasRole(role, account) */\n      jump\t// in\n    tag_184:\n        /* \"@openzeppelin/contracts/access/AccessControl.sol\":6272:6489  if (!hasRole(role, account)) {... */\n      tag_185\n      jumpi\n        /* \"@openzeppelin/contracts/access/AccessControl.sol\":6347:6351  true */\n      0x01\n        /* \"@openzeppelin/contracts/access/AccessControl.sol\":6315:6321  _roles */\n      0x00\n        /* \"@openzeppelin/contracts/access/AccessControl.sol\":6315:6327  _roles[role] */\n      dup1\n        /* \"@openzeppelin/contracts/access/AccessControl.sol\":6322:6326  role */\n      dup6\n        /* \"@openzeppelin/contracts/access/AccessControl.sol\":6315:6327  _roles[role] */\n      dup2\n      mstore\n      0x20\n      add\n      swap1\n      dup2\n      mstore\n      0x20\n      add\n      0x00\n      keccak256\n        /* \"@openzeppelin/contracts/access/AccessControl.sol\":6315:6335  _roles[role].hasRole */\n      0x00\n      add\n        /* \"@openzeppelin/contracts/access/AccessControl.sol\":6315:6344  _roles[role].hasRole[account] */\n      0x00\n        /* \"@openzeppelin/contracts/access/AccessControl.sol\":6336:6343  account */\n      dup5\n        /* \"@openzeppelin/contracts/access/AccessControl.sol\":6315:6344  _roles[role].hasRole[account] */\n      0xffffffffffffffffffffffffffffffffffffffff\n      and\n      0xffffffffffffffffffffffffffffffffffffffff\n      and\n      dup2\n      mstore\n      0x20\n      add\n      swap1\n      dup2\n      mstore\n      0x20\n      add\n      0x00\n      keccak256\n      0x00\n        /* \"@openzeppelin/contracts/access/AccessControl.sol\":6315:6351  _roles[role].hasRole[account] = true */\n      0x0100\n      exp\n      dup2\n      sload\n      dup2\n      0xff\n      mul\n      not\n      and\n      swap1\n      dup4\n      iszero\n      iszero\n      mul\n      or\n      swap1\n      sstore\n      pop\n        /* \"@openzeppelin/contracts/access/AccessControl.sol\":6397:6409  _msgSender() */\n      tag_186\n        /* \"@openzeppelin/contracts/access/AccessControl.sol\":6397:6407  _msgSender */\n      tag_114\n        /* \"@openzeppelin/contracts/access/AccessControl.sol\":6397:6409  _msgSender() */\n      jump\t// in\n    tag_186:\n        /* \"@openzeppelin/contracts/access/AccessControl.sol\":6370:6410  RoleGranted(role, account, _msgSender()) */\n      0xffffffffffffffffffffffffffffffffffffffff\n      and\n        /* \"@openzeppelin/contracts/access/AccessControl.sol\":6388:6395  account */\n      dup3\n        /* \"@openzeppelin/contracts/access/AccessControl.sol\":6370:6410  RoleGranted(role, account, _msgSender()) */\n      0xffffffffffffffffffffffffffffffffffffffff\n      and\n        /* \"@openzeppelin/contracts/access/AccessControl.sol\":6382:6386  role */\n      dup5\n        /* \"@openzeppelin/contracts/access/AccessControl.sol\":6370:6410  RoleGranted(role, account, _msgSender()) */\n      0x2f8788117e7eff1d82e926ec794901d17c78024a50270940304540a733656f0d\n      mload(0x40)\n      mload(0x40)\n      dup1\n      swap2\n      sub\n      swap1\n      log4\n        /* \"@openzeppelin/contracts/access/AccessControl.sol\":6431:6435  true */\n      0x01\n        /* \"@openzeppelin/contracts/access/AccessControl.sol\":6424:6435  return true */\n      swap1\n      pop\n      jump(tag_183)\n        /* \"@openzeppelin/contracts/access/AccessControl.sol\":6272:6489  if (!hasRole(role, account)) {... */\n    tag_185:\n        /* \"@openzeppelin/contracts/access/AccessControl.sol\":6473:6478  false */\n      0x00\n        /* \"@openzeppelin/contracts/access/AccessControl.sol\":6466:6478  return false */\n      swap1\n      pop\n        /* \"@openzeppelin/contracts/access/AccessControl.sol\":6179:6495  function _grantRole(bytes32 role, address account) internal virtual returns (bool) {... */\n    tag_183:\n      swap3\n      swap2\n      pop\n      pop\n      jump\t// out\n        /* \"@openzeppelin/contracts/utils/Context.sol\":656:752  function _msgSender() internal view virtual returns (address) {... */\n    tag_114:\n        /* \"@openzeppelin/contracts/utils/Context.sol\":709:716  address */\n      0x00\n        /* \"@openzeppelin/contracts/utils/Context.sol\":735:745  msg.sender */\n      caller\n        /* \"@openzeppelin/contracts/utils/Context.sol\":728:745  return msg.sender */\n      swap1\n      pop\n        /* \"@openzeppelin/contracts/utils/Context.sol\":656:752  function _msgSender() internal view virtual returns (address) {... */\n      swap1\n      jump\t// out\n        /* \"@openzeppelin/contracts/access/AccessControl.sol\":6730:7047  function _revokeRole(bytes32 role, address account) internal virtual returns (bool) {... */\n    tag_117:\n        /* \"@openzeppelin/contracts/access/AccessControl.sol\":6808:6812  bool */\n      0x00\n        /* \"@openzeppelin/contracts/access/AccessControl.sol\":6828:6850  hasRole(role, account) */\n      tag_190\n        /* \"@openzeppelin/contracts/access/AccessControl.sol\":6836:6840  role */\n      dup4\n        /* \"@openzeppelin/contracts/access/AccessControl.sol\":6842:6849  account */\n      dup4\n        /* \"@openzeppelin/contracts/access/AccessControl.sol\":6828:6835  hasRole */\n      tag_61\n        /* \"@openzeppelin/contracts/access/AccessControl.sol\":6828:6850  hasRole(role, account) */\n      jump\t// in\n    tag_190:\n        /* \"@openzeppelin/contracts/access/AccessControl.sol\":6824:7041  if (hasRole(role, account)) {... */\n      iszero\n      tag_191\n      jumpi\n        /* \"@openzeppelin/contracts/access/AccessControl.sol\":6898:6903  false */\n      0x00\n        /* \"@openzeppelin/contracts/access/AccessControl.sol\":6866:6872  _roles */\n      dup1\n        /* \"@openzeppelin/contracts/access/AccessControl.sol\":6866:6878  _roles[role] */\n      0x00\n        /* \"@openzeppelin/contracts/access/AccessControl.sol\":6873:6877  role */\n      dup6\n        /* \"@openzeppelin/contracts/access/AccessControl.sol\":6866:6878  _roles[role] */\n      dup2\n      mstore\n      0x20\n      add\n      swap1\n      dup2\n      mstore\n      0x20\n      add\n      0x00\n      keccak256\n        /* \"@openzeppelin/contracts/access/AccessControl.sol\":6866:6886  _roles[role].hasRole */\n      0x00\n      add\n        /* \"@openzeppelin/contracts/access/AccessControl.sol\":6866:6895  _roles[role].hasRole[account] */\n      0x00\n        /* \"@openzeppelin/contracts/access/AccessControl.sol\":6887:6894  account */\n      dup5\n        /* \"@openzeppelin/contracts/access/AccessControl.sol\":6866:6895  _roles[role].hasRole[account] */\n      0xffffffffffffffffffffffffffffffffffffffff\n      and\n      0xffffffffffffffffffffffffffffffffffffffff\n      and\n      dup2\n      mstore\n      0x20\n      add\n      swap1\n      dup2\n      mstore\n      0x20\n      add\n      0x00\n      keccak256\n      0x00\n        /* \"@openzeppelin/contracts/access/AccessControl.sol\":6866:6903  _roles[role].hasRole[account] = false */\n      0x0100\n      exp\n      dup2\n      sload\n      dup2\n      0xff\n      mul\n      not\n      and\n      swap1\n      dup4\n      iszero\n      iszero\n      mul\n      or\n      swap1\n      sstore\n      pop\n        /* \"@openzeppelin/contracts/access/AccessControl.sol\":6949:6961  _msgSender() */\n      tag_192\n        /* \"@openzeppelin/contracts/access/AccessControl.sol\":6949:6959  _msgSender */\n      tag_114\n        /* \"@openzeppelin/contracts/access/AccessControl.sol\":6949:6961  _msgSender() */\n      jump\t// in\n    tag_192:\n        /* \"@openzeppelin/contracts/access/AccessControl.sol\":6922:6962  RoleRevoked(role, account, _msgSender()) */\n      0xffffffffffffffffffffffffffffffffffffffff\n      and\n        /* \"@openzeppelin/contracts/access/AccessControl.sol\":6940:6947  account */\n      dup3\n        /* \"@openzeppelin/contracts/access/AccessControl.sol\":6922:6962  RoleRevoked(role, account, _msgSender()) */\n      0xffffffffffffffffffffffffffffffffffffffff\n      and\n        /* \"@openzeppelin/contracts/access/AccessControl.sol\":6934:6938  role */\n      dup5\n        /* \"@openzeppelin/contracts/access/AccessControl.sol\":6922:6962  RoleRevoked(role, account, _msgSender()) */\n      0xf6391f5c32d9c69d2a47ea670b442974b53935d1edc7fd64eb21e047a839171b\n      mload(0x40)\n      mload(0x40)\n      dup1\n      swap2\n      sub\n      swap1\n      log4\n        /* \"@openzeppelin/contracts/access/AccessControl.sol\":6983:6987  true */\n      0x01\n        /* \"@openzeppelin/contracts/access/AccessControl.sol\":6976:6987  return true */\n      swap1\n      pop\n      jump(tag_189)\n        /* \"@openzeppelin/contracts/access/AccessControl.sol\":6824:7041  if (hasRole(role, account)) {... */\n    tag_191:\n        /* \"@openzeppelin/contracts/access/AccessControl.sol\":7025:7030  false */\n      0x00\n        /* \"@openzeppelin/contracts/access/AccessControl.sol\":7018:7030  return false */\n      swap1\n      pop\n        /* \"@openzeppelin/contracts/access/AccessControl.sol\":6730:7047  function _revokeRole(bytes32 role, address account) internal virtual returns (bool) {... */\n    tag_189:\n      swap3\n      swap2\n      pop\n      pop\n      jump\t// out\n        /* \"@openzeppelin/contracts/utils/structs/EnumerableSet.sol\":6650:6765  function length(Bytes32Set storage set) internal view returns (uint256) {... */\n    tag_138:\n        /* \"@openzeppelin/contracts/utils/structs/EnumerableSet.sol\":6713:6720  uint256 */\n      0x00\n        /* \"@openzeppelin/contracts/utils/structs/EnumerableSet.sol\":6739:6758  _length(set._inner) */\n      tag_195\n        /* \"@openzeppelin/contracts/utils/structs/EnumerableSet.sol\":6747:6750  set */\n      dup3\n        /* \"@openzeppelin/contracts/utils/structs/EnumerableSet.sol\":6747:6757  set._inner */\n      0x00\n      add\n        /* \"@openzeppelin/contracts/utils/structs/EnumerableSet.sol\":6739:6746  _length */\n      tag_196\n        /* \"@openzeppelin/contracts/utils/structs/EnumerableSet.sol\":6739:6758  _length(set._inner) */\n      jump\t// in\n    tag_195:\n        /* \"@openzeppelin/contracts/utils/structs/EnumerableSet.sol\":6732:6758  return _length(set._inner) */\n      swap1\n      pop\n        /* \"@openzeppelin/contracts/utils/structs/EnumerableSet.sol\":6650:6765  function length(Bytes32Set storage set) internal view returns (uint256) {... */\n      swap2\n      swap1\n      pop\n      jump\t// out\n        /* \"@openzeppelin/contracts/utils/structs/EnumerableSet.sol\":7107:7236  function at(Bytes32Set storage set, uint256 index) internal view returns (bytes32) {... */\n    tag_141:\n        /* \"@openzeppelin/contracts/utils/structs/EnumerableSet.sol\":7181:7188  bytes32 */\n      0x00\n        /* \"@openzeppelin/contracts/utils/structs/EnumerableSet.sol\":7207:7229  _at(set._inner, index) */\n      tag_198\n        /* \"@openzeppelin/contracts/utils/structs/EnumerableSet.sol\":7211:7214  set */\n      dup4\n        /* \"@openzeppelin/contracts/utils/structs/EnumerableSet.sol\":7211:7221  set._inner */\n      0x00\n      add\n        /* \"@openzeppelin/contracts/utils/structs/EnumerableSet.sol\":7223:7228  index */\n      dup4\n        /* \"@openzeppelin/contracts/utils/structs/EnumerableSet.sol\":7207:7210  _at */\n      tag_199\n        /* \"@openzeppelin/contracts/utils/structs/EnumerableSet.sol\":7207:7229  _at(set._inner, index) */\n      jump\t// in\n    tag_198:\n        /* \"@openzeppelin/contracts/utils/structs/EnumerableSet.sol\":7200:7229  return _at(set._inner, index) */\n      swap1\n      pop\n        /* \"@openzeppelin/contracts/utils/structs/EnumerableSet.sol\":7107:7236  function at(Bytes32Set storage set, uint256 index) internal view returns (bytes32) {... */\n      swap3\n      swap2\n      pop\n      pop\n      jump\t// out\n        /* \"@openzeppelin/contracts/utils/structs/EnumerableSet.sol\":5930:6053  function add(Bytes32Set storage set, bytes32 value) internal returns (bool) {... */\n    tag_153:\n        /* \"@openzeppelin/contracts/utils/structs/EnumerableSet.sol\":6000:6004  bool */\n      0x00\n        /* \"@openzeppelin/contracts/utils/structs/EnumerableSet.sol\":6023:6046  _add(set._inner, value) */\n      tag_201\n        /* \"@openzeppelin/contracts/utils/structs/EnumerableSet.sol\":6028:6031  set */\n      dup4\n        /* \"@openzeppelin/contracts/utils/structs/EnumerableSet.sol\":6028:6038  set._inner */\n      0x00\n      add\n        /* \"@openzeppelin/contracts/utils/structs/EnumerableSet.sol\":6040:6045  value */\n      dup4\n        /* \"@openzeppelin/contracts/utils/structs/EnumerableSet.sol\":6023:6027  _add */\n      tag_202\n        /* \"@openzeppelin/contracts/utils/structs/EnumerableSet.sol\":6023:6046  _add(set._inner, value) */\n      jump\t// in\n    tag_201:\n        /* \"@openzeppelin/contracts/utils/structs/EnumerableSet.sol\":6016:6046  return _add(set._inner, value) */\n      swap1\n      pop\n        /* \"@openzeppelin/contracts/utils/structs/EnumerableSet.sol\":5930:6053  function add(Bytes32Set storage set, bytes32 value) internal returns (bool) {... */\n      swap3\n      swap2\n      pop\n      pop\n      jump\t// out\n        /* \"@openzeppelin/contracts/access/AccessControl.sol\":3432:3629  function _checkRole(bytes32 role, address account) internal view virtual {... */\n    tag_176:\n        /* \"@openzeppelin/contracts/access/AccessControl.sol\":3520:3542  hasRole(role, account) */\n      tag_204\n        /* \"@openzeppelin/contracts/access/AccessControl.sol\":3528:3532  role */\n      dup3\n        /* \"@openzeppelin/contracts/access/AccessControl.sol\":3534:3541  account */\n      dup3\n        /* \"@openzeppelin/contracts/access/AccessControl.sol\":3520:3527  hasRole */\n      tag_61\n        /* \"@openzeppelin/contracts/access/AccessControl.sol\":3520:3542  hasRole(role, account) */\n      jump\t// in\n    tag_204:\n        /* \"@openzeppelin/contracts/access/AccessControl.sol\":3515:3623  if (!hasRole(role, account)) {... */\n      tag_205\n      jumpi\n        /* \"@openzeppelin/contracts/access/AccessControl.sol\":3598:3605  account */\n      dup1\n        /* \"@openzeppelin/contracts/access/AccessControl.sol\":3607:3611  role */\n      dup3\n        /* \"@openzeppelin/contracts/access/AccessControl.sol\":3565:3612  AccessControlUnauthorizedAccount(account, role) */\n      mload(0x40)\n      0xe2517d3f00000000000000000000000000000000000000000000000000000000\n      dup2\n      mstore\n      0x04\n      add\n      tag_206\n      swap3\n      swap2\n      swap1\n      tag_207\n      jump\t// in\n    tag_206:\n      mload(0x40)\n      dup1\n      swap2\n      sub\n      swap1\n      revert\n        /* \"@openzeppelin/contracts/access/AccessControl.sol\":3515:3623  if (!hasRole(role, account)) {... */\n    tag_205:\n        /* \"@openzeppelin/contracts/access/AccessControl.sol\":3432:3629  function _checkRole(bytes32 role, address account) internal view virtual {... */\n      pop\n      pop\n      jump\t// out\n        /* \"@openzeppelin/contracts/utils/structs/EnumerableSet.sol\":4264:4393  function _contains(Set storage set, bytes32 value) private view returns (bool) {... */\n    tag_179:\n        /* \"@openzeppelin/contracts/utils/structs/EnumerableSet.sol\":4337:4341  bool */\n      0x00\n        /* \"@openzeppelin/contracts/utils/structs/EnumerableSet.sol\":4385:4386  0 */\n      dup1\n        /* \"@openzeppelin/contracts/utils/structs/EnumerableSet.sol\":4360:4363  set */\n      dup4\n        /* \"@openzeppelin/contracts/utils/structs/EnumerableSet.sol\":4360:4374  set._positions */\n      0x01\n      add\n        /* \"@openzeppelin/contracts/utils/structs/EnumerableSet.sol\":4360:4381  set._positions[value] */\n      0x00\n        /* \"@openzeppelin/contracts/utils/structs/EnumerableSet.sol\":4375:4380  value */\n      dup5\n        /* \"@openzeppelin/contracts/utils/structs/EnumerableSet.sol\":4360:4381  set._positions[value] */\n      dup2\n      mstore\n      0x20\n      add\n      swap1\n      dup2\n      mstore\n      0x20\n      add\n      0x00\n      keccak256\n      sload\n        /* \"@openzeppelin/contracts/utils/structs/EnumerableSet.sol\":4360:4386  set._positions[value] != 0 */\n      eq\n      iszero\n        /* \"@openzeppelin/contracts/utils/structs/EnumerableSet.sol\":4353:4386  return set._positions[value] != 0 */\n      swap1\n      pop\n        /* \"@openzeppelin/contracts/utils/structs/EnumerableSet.sol\":4264:4393  function _contains(Set storage set, bytes32 value) private view returns (bool) {... */\n      swap3\n      swap2\n      pop\n      pop\n      jump\t// out\n        /* \"@openzeppelin/contracts/utils/structs/EnumerableSet.sol\":2815:4183  function _remove(Set storage set, bytes32 value) private returns (bool) {... */\n    tag_182:\n        /* \"@openzeppelin/contracts/utils/structs/EnumerableSet.sol\":2881:2885  bool */\n      0x00\n        /* \"@openzeppelin/contracts/utils/structs/EnumerableSet.sol\":2991:3007  uint256 position */\n      dup1\n        /* \"@openzeppelin/contracts/utils/structs/EnumerableSet.sol\":3010:3013  set */\n      dup4\n        /* \"@openzeppelin/contracts/utils/structs/EnumerableSet.sol\":3010:3024  set._positions */\n      0x01\n      add\n        /* \"@openzeppelin/contracts/utils/structs/EnumerableSet.sol\":3010:3031  set._positions[value] */\n      0x00\n        /* \"@openzeppelin/contracts/utils/structs/EnumerableSet.sol\":3025:3030  value */\n      dup5\n        /* \"@openzeppelin/contracts/utils/structs/EnumerableSet.sol\":3010:3031  set._positions[value] */\n      dup2\n      mstore\n      0x20\n      add\n      swap1\n      dup2\n      mstore\n      0x20\n      add\n      0x00\n      keccak256\n      sload\n        /* \"@openzeppelin/contracts/utils/structs/EnumerableSet.sol\":2991:3031  uint256 position = set._positions[value] */\n      swap1\n      pop\n        /* \"@openzeppelin/contracts/utils/structs/EnumerableSet.sol\":3058:3059  0 */\n      0x00\n        /* \"@openzeppelin/contracts/utils/structs/EnumerableSet.sol\":3046:3054  position */\n      dup2\n        /* \"@openzeppelin/contracts/utils/structs/EnumerableSet.sol\":3046:3059  position != 0 */\n      eq\n        /* \"@openzeppelin/contracts/utils/structs/EnumerableSet.sol\":3042:4177  if (position != 0) {... */\n      tag_210\n      jumpi\n        /* \"@openzeppelin/contracts/utils/structs/EnumerableSet.sol\":3413:3431  uint256 valueIndex */\n      0x00\n        /* \"@openzeppelin/contracts/utils/structs/EnumerableSet.sol\":3445:3446  1 */\n      0x01\n        /* \"@openzeppelin/contracts/utils/structs/EnumerableSet.sol\":3434:3442  position */\n      dup3\n        /* \"@openzeppelin/contracts/utils/structs/EnumerableSet.sol\":3434:3446  position - 1 */\n      tag_211\n      swap2\n      swap1\n      tag_212\n      jump\t// in\n    tag_211:\n        /* \"@openzeppelin/contracts/utils/structs/EnumerableSet.sol\":3413:3446  uint256 valueIndex = position - 1 */\n      swap1\n      pop\n        /* \"@openzeppelin/contracts/utils/structs/EnumerableSet.sol\":3460:3477  uint256 lastIndex */\n      0x00\n        /* \"@openzeppelin/contracts/utils/structs/EnumerableSet.sol\":3501:3502  1 */\n      0x01\n        /* \"@openzeppelin/contracts/utils/structs/EnumerableSet.sol\":3480:3483  set */\n      dup7\n        /* \"@openzeppelin/contracts/utils/structs/EnumerableSet.sol\":3480:3491  set._values */\n      0x00\n      add\n        /* \"@openzeppelin/contracts/utils/structs/EnumerableSet.sol\":3480:3498  set._values.length */\n      dup1\n      sload\n      swap1\n      pop\n        /* \"@openzeppelin/contracts/utils/structs/EnumerableSet.sol\":3480:3502  set._values.length - 1 */\n      tag_213\n      swap2\n      swap1\n      tag_212\n      jump\t// in\n    tag_213:\n        /* \"@openzeppelin/contracts/utils/structs/EnumerableSet.sol\":3460:3502  uint256 lastIndex = set._values.length - 1 */\n      swap1\n      pop\n        /* \"@openzeppelin/contracts/utils/structs/EnumerableSet.sol\":3535:3544  lastIndex */\n      dup1\n        /* \"@openzeppelin/contracts/utils/structs/EnumerableSet.sol\":3521:3531  valueIndex */\n      dup3\n        /* \"@openzeppelin/contracts/utils/structs/EnumerableSet.sol\":3521:3544  valueIndex != lastIndex */\n      eq\n        /* \"@openzeppelin/contracts/utils/structs/EnumerableSet.sol\":3517:3895  if (valueIndex != lastIndex) {... */\n      tag_214\n      jumpi\n        /* \"@openzeppelin/contracts/utils/structs/EnumerableSet.sol\":3564:3581  bytes32 lastValue */\n      0x00\n        /* \"@openzeppelin/contracts/utils/structs/EnumerableSet.sol\":3584:3587  set */\n      dup7\n        /* \"@openzeppelin/contracts/utils/structs/EnumerableSet.sol\":3584:3595  set._values */\n      0x00\n      add\n        /* \"@openzeppelin/contracts/utils/structs/EnumerableSet.sol\":3596:3605  lastIndex */\n      dup3\n        /* \"@openzeppelin/contracts/utils/structs/EnumerableSet.sol\":3584:3606  set._values[lastIndex] */\n      dup2\n      sload\n      dup2\n      lt\n      tag_215\n      jumpi\n      tag_216\n      tag_217\n      jump\t// in\n    tag_216:\n    tag_215:\n      swap1\n      0x00\n      mstore\n      keccak256(0x00, 0x20)\n      add\n      sload\n        /* \"@openzeppelin/contracts/utils/structs/EnumerableSet.sol\":3564:3606  bytes32 lastValue = set._values[lastIndex] */\n      swap1\n      pop\n        /* \"@openzeppelin/contracts/utils/structs/EnumerableSet.sol\":3731:3740  lastValue */\n      dup1\n        /* \"@openzeppelin/contracts/utils/structs/EnumerableSet.sol\":3705:3708  set */\n      dup8\n        /* \"@openzeppelin/contracts/utils/structs/EnumerableSet.sol\":3705:3716  set._values */\n      0x00\n      add\n        /* \"@openzeppelin/contracts/utils/structs/EnumerableSet.sol\":3717:3727  valueIndex */\n      dup5\n        /* \"@openzeppelin/contracts/utils/structs/EnumerableSet.sol\":3705:3728  set._values[valueIndex] */\n      dup2\n      sload\n      dup2\n      lt\n      tag_219\n      jumpi\n      tag_220\n      tag_217\n      jump\t// in\n    tag_220:\n    tag_219:\n      swap1\n      0x00\n      mstore\n      keccak256(0x00, 0x20)\n      add\n        /* \"@openzeppelin/contracts/utils/structs/EnumerableSet.sol\":3705:3740  set._values[valueIndex] = lastValue */\n      dup2\n      swap1\n      sstore\n      pop\n        /* \"@openzeppelin/contracts/utils/structs/EnumerableSet.sol\":3872:3880  position */\n      dup4\n        /* \"@openzeppelin/contracts/utils/structs/EnumerableSet.sol\":3844:3847  set */\n      dup8\n        /* \"@openzeppelin/contracts/utils/structs/EnumerableSet.sol\":3844:3858  set._positions */\n      0x01\n      add\n        /* \"@openzeppelin/contracts/utils/structs/EnumerableSet.sol\":3844:3869  set._positions[lastValue] */\n      0x00\n        /* \"@openzeppelin/contracts/utils/structs/EnumerableSet.sol\":3859:3868  lastValue */\n      dup4\n        /* \"@openzeppelin/contracts/utils/structs/EnumerableSet.sol\":3844:3869  set._positions[lastValue] */\n      dup2\n      mstore\n      0x20\n      add\n      swap1\n      dup2\n      mstore\n      0x20\n      add\n      0x00\n      keccak256\n        /* \"@openzeppelin/contracts/utils/structs/EnumerableSet.sol\":3844:3880  set._positions[lastValue] = position */\n      dup2\n      swap1\n      sstore\n      pop\n        /* \"@openzeppelin/contracts/utils/structs/EnumerableSet.sol\":3546:3895  {... */\n      pop\n        /* \"@openzeppelin/contracts/utils/structs/EnumerableSet.sol\":3517:3895  if (valueIndex != lastIndex) {... */\n    tag_214:\n        /* \"@openzeppelin/contracts/utils/structs/EnumerableSet.sol\":3973:3976  set */\n      dup6\n        /* \"@openzeppelin/contracts/utils/structs/EnumerableSet.sol\":3973:3984  set._values */\n      0x00\n      add\n        /* \"@openzeppelin/contracts/utils/structs/EnumerableSet.sol\":3973:3990  set._values.pop() */\n      dup1\n      sload\n      dup1\n      tag_222\n      jumpi\n      tag_223\n      tag_224\n      jump\t// in\n    tag_223:\n    tag_222:\n      0x01\n      swap1\n      sub\n      dup2\n      dup2\n      swap1\n      0x00\n      mstore\n      keccak256(0x00, 0x20)\n      add\n      0x00\n      swap1\n      sstore\n      swap1\n      sstore\n        /* \"@openzeppelin/contracts/utils/structs/EnumerableSet.sol\":4076:4079  set */\n      dup6\n        /* \"@openzeppelin/contracts/utils/structs/EnumerableSet.sol\":4076:4090  set._positions */\n      0x01\n      add\n        /* \"@openzeppelin/contracts/utils/structs/EnumerableSet.sol\":4076:4097  set._positions[value] */\n      0x00\n        /* \"@openzeppelin/contracts/utils/structs/EnumerableSet.sol\":4091:4096  value */\n      dup7\n        /* \"@openzeppelin/contracts/utils/structs/EnumerableSet.sol\":4076:4097  set._positions[value] */\n      dup2\n      mstore\n      0x20\n      add\n      swap1\n      dup2\n      mstore\n      0x20\n      add\n      0x00\n      keccak256\n        /* \"@openzeppelin/contracts/utils/structs/EnumerableSet.sol\":4069:4097  delete set._positions[value] */\n      0x00\n      swap1\n      sstore\n        /* \"@openzeppelin/contracts/utils/structs/EnumerableSet.sol\":4119:4123  true */\n      0x01\n        /* \"@openzeppelin/contracts/utils/structs/EnumerableSet.sol\":4112:4123  return true */\n      swap4\n      pop\n      pop\n      pop\n      pop\n      jump(tag_209)\n        /* \"@openzeppelin/contracts/utils/structs/EnumerableSet.sol\":3042:4177  if (position != 0) {... */\n    tag_210:\n        /* \"@openzeppelin/contracts/utils/structs/EnumerableSet.sol\":4161:4166  false */\n      0x00\n        /* \"@openzeppelin/contracts/utils/structs/EnumerableSet.sol\":4154:4166  return false */\n      swap2\n      pop\n      pop\n        /* \"@openzeppelin/contracts/utils/structs/EnumerableSet.sol\":2815:4183  function _remove(Set storage set, bytes32 value) private returns (bool) {... */\n    tag_209:\n      swap3\n      swap2\n      pop\n      pop\n      jump\t// out\n        /* \"@openzeppelin/contracts/utils/structs/EnumerableSet.sol\":4474:4581  function _length(Set storage set) private view returns (uint256) {... */\n    tag_196:\n        /* \"@openzeppelin/contracts/utils/structs/EnumerableSet.sol\":4530:4537  uint256 */\n      0x00\n        /* \"@openzeppelin/contracts/utils/structs/EnumerableSet.sol\":4556:4559  set */\n      dup2\n        /* \"@openzeppelin/contracts/utils/structs/EnumerableSet.sol\":4556:4567  set._values */\n      0x00\n      add\n        /* \"@openzeppelin/contracts/utils/structs/EnumerableSet.sol\":4556:4574  set._values.length */\n      dup1\n      sload\n      swap1\n      pop\n        /* \"@openzeppelin/contracts/utils/structs/EnumerableSet.sol\":4549:4574  return set._values.length */\n      swap1\n      pop\n        /* \"@openzeppelin/contracts/utils/structs/EnumerableSet.sol\":4474:4581  function _length(Set storage set) private view returns (uint256) {... */\n      swap2\n      swap1\n      pop\n      jump\t// out\n        /* \"@openzeppelin/contracts/utils/structs/EnumerableSet.sol\":4923:5041  function _at(Set storage set, uint256 index) private view returns (bytes32) {... */\n    tag_199:\n        /* \"@openzeppelin/contracts/utils/structs/EnumerableSet.sol\":4990:4997  bytes32 */\n      0x00\n        /* \"@openzeppelin/contracts/utils/structs/EnumerableSet.sol\":5016:5019  set */\n      dup3\n        /* \"@openzeppelin/contracts/utils/structs/EnumerableSet.sol\":5016:5027  set._values */\n      0x00\n      add\n        /* \"@openzeppelin/contracts/utils/structs/EnumerableSet.sol\":5028:5033  index */\n      dup3\n        /* \"@openzeppelin/contracts/utils/structs/EnumerableSet.sol\":5016:5034  set._values[index] */\n      dup2\n      sload\n      dup2\n      lt\n      tag_229\n      jumpi\n      tag_230\n      tag_217\n      jump\t// in\n    tag_230:\n    tag_229:\n      swap1\n      0x00\n      mstore\n      keccak256(0x00, 0x20)\n      add\n      sload\n        /* \"@openzeppelin/contracts/utils/structs/EnumerableSet.sol\":5009:5034  return set._values[index] */\n      swap1\n      pop\n        /* \"@openzeppelin/contracts/utils/structs/EnumerableSet.sol\":4923:5041  function _at(Set storage set, uint256 index) private view returns (bytes32) {... */\n      swap3\n      swap2\n      pop\n      pop\n      jump\t// out\n        /* \"@openzeppelin/contracts/utils/structs/EnumerableSet.sol\":2241:2647  function _add(Set storage set, bytes32 value) private returns (bool) {... */\n    tag_202:\n        /* \"@openzeppelin/contracts/utils/structs/EnumerableSet.sol\":2304:2308  bool */\n      0x00\n        /* \"@openzeppelin/contracts/utils/structs/EnumerableSet.sol\":2325:2346  _contains(set, value) */\n      tag_233\n        /* \"@openzeppelin/contracts/utils/structs/EnumerableSet.sol\":2335:2338  set */\n      dup4\n        /* \"@openzeppelin/contracts/utils/structs/EnumerableSet.sol\":2340:2345  value */\n      dup4\n        /* \"@openzeppelin/contracts/utils/structs/EnumerableSet.sol\":2325:2334  _contains */\n      tag_179\n        /* \"@openzeppelin/contracts/utils/structs/EnumerableSet.sol\":2325:2346  _contains(set, value) */\n      jump\t// in\n    tag_233:\n        /* \"@openzeppelin/contracts/utils/structs/EnumerableSet.sol\":2320:2641  if (!_contains(set, value)) {... */\n      tag_234\n      jumpi\n        /* \"@openzeppelin/contracts/utils/structs/EnumerableSet.sol\":2362:2365  set */\n      dup3\n        /* \"@openzeppelin/contracts/utils/structs/EnumerableSet.sol\":2362:2373  set._values */\n      0x00\n      add\n        /* \"@openzeppelin/contracts/utils/structs/EnumerableSet.sol\":2379:2384  value */\n      dup3\n        /* \"@openzeppelin/contracts/utils/structs/EnumerableSet.sol\":2362:2385  set._values.push(value) */\n      swap1\n      dup1\n      0x01\n      dup2\n      sload\n      add\n      dup1\n      dup3\n      sstore\n      dup1\n      swap2\n      pop\n      pop\n      0x01\n      swap1\n      sub\n      swap1\n      0x00\n      mstore\n      keccak256(0x00, 0x20)\n      add\n      0x00\n      swap1\n      swap2\n      swap1\n      swap2\n      swap1\n      swap2\n      pop\n      sstore\n        /* \"@openzeppelin/contracts/utils/structs/EnumerableSet.sol\":2544:2547  set */\n      dup3\n        /* \"@openzeppelin/contracts/utils/structs/EnumerableSet.sol\":2544:2555  set._values */\n      0x00\n      add\n        /* \"@openzeppelin/contracts/utils/structs/EnumerableSet.sol\":2544:2562  set._values.length */\n      dup1\n      sload\n      swap1\n      pop\n        /* \"@openzeppelin/contracts/utils/structs/EnumerableSet.sol\":2520:2523  set */\n      dup4\n        /* \"@openzeppelin/contracts/utils/structs/EnumerableSet.sol\":2520:2534  set._positions */\n      0x01\n      add\n        /* \"@openzeppelin/contracts/utils/structs/EnumerableSet.sol\":2520:2541  set._positions[value] */\n      0x00\n        /* \"@openzeppelin/contracts/utils/structs/EnumerableSet.sol\":2535:2540  value */\n      dup5\n        /* \"@openzeppelin/contracts/utils/structs/EnumerableSet.sol\":2520:2541  set._positions[value] */\n      dup2\n      mstore\n      0x20\n      add\n      swap1\n      dup2\n      mstore\n      0x20\n      add\n      0x00\n      keccak256\n        /* \"@openzeppelin/contracts/utils/structs/EnumerableSet.sol\":2520:2562  set._positions[value] = set._values.length */\n      dup2\n      swap1\n      sstore\n      pop\n        /* \"@openzeppelin/contracts/utils/structs/EnumerableSet.sol\":2583:2587  true */\n      0x01\n        /* \"@openzeppelin/contracts/utils/structs/EnumerableSet.sol\":2576:2587  return true */\n      swap1\n      pop\n      jump(tag_232)\n        /* \"@openzeppelin/contracts/utils/structs/EnumerableSet.sol\":2320:2641  if (!_contains(set, value)) {... */\n    tag_234:\n        /* \"@openzeppelin/contracts/utils/structs/EnumerableSet.sol\":2625:2630  false */\n      0x00\n        /* \"@openzeppelin/contracts/utils/structs/EnumerableSet.sol\":2618:2630  return false */\n      swap1\n      pop\n        /* \"@openzeppelin/contracts/utils/structs/EnumerableSet.sol\":2241:2647  function _add(Set storage set, bytes32 value) private returns (bool) {... */\n    tag_232:\n      swap3\n      swap2\n      pop\n      pop\n      jump\t// out\n    tag_99:\n      pop\n      dup1\n      sload\n      tag_237\n      swap1\n      tag_125\n      jump\t// in\n    tag_237:\n      0x00\n      dup3\n      sstore\n      dup1\n      0x1f\n      lt\n      tag_239\n      jumpi\n      pop\n      jump(tag_238)\n    tag_239:\n      0x1f\n      add\n      0x20\n      swap1\n      div\n      swap1\n      0x00\n      mstore\n      keccak256(0x00, 0x20)\n      swap1\n      dup2\n      add\n      swap1\n      tag_240\n      swap2\n      swap1\n      tag_241\n      jump\t// in\n    tag_240:\n    tag_238:\n      pop\n      jump\t// out\n    tag_119:\n      mload(0x40)\n      dup1\n      0xa0\n      add\n      0x40\n      mstore\n      dup1\n      0x00\n      dup1\n      not\n      and\n      dup2\n      mstore\n      0x20\n      add\n      0x60\n      dup2\n      mstore\n      0x20\n      add\n      0x60\n      dup2\n      mstore\n      0x20\n      add\n      0x00\n      dup2\n      mstore\n      0x20\n      add\n      0x00\n      dup2\n      mstore\n      pop\n      swap1\n      jump\t// out\n    tag_241:\n    tag_242:\n      dup1\n      dup3\n      gt\n      iszero\n      tag_243\n      jumpi\n      0x00\n      dup2\n      0x00\n      swap1\n      sstore\n      pop\n      0x01\n      add\n      jump(tag_242)\n    tag_243:\n      pop\n      swap1\n      jump\t// out\n        /* \"#utility.yul\":88:205   */\n    tag_245:\n        /* \"#utility.yul\":197:198   */\n      0x00\n        /* \"#utility.yul\":194:195   */\n      dup1\n        /* \"#utility.yul\":187:199   */\n      revert\n        /* \"#utility.yul\":211:328   */\n    tag_246:\n        /* \"#utility.yul\":320:321   */\n      0x00\n        /* \"#utility.yul\":317:318   */\n      dup1\n        /* \"#utility.yul\":310:322   */\n      revert\n        /* \"#utility.yul\":334:483   */\n    tag_247:\n        /* \"#utility.yul\":370:377   */\n      0x00\n        /* \"#utility.yul\":410:476   */\n      0xffffffff00000000000000000000000000000000000000000000000000000000\n        /* \"#utility.yul\":403:408   */\n      dup3\n        /* \"#utility.yul\":399:477   */\n      and\n        /* \"#utility.yul\":388:477   */\n      swap1\n      pop\n        /* \"#utility.yul\":334:483   */\n      swap2\n      swap1\n      pop\n      jump\t// out\n        /* \"#utility.yul\":489:609   */\n    tag_248:\n        /* \"#utility.yul\":561:584   */\n      tag_309\n        /* \"#utility.yul\":578:583   */\n      dup2\n        /* \"#utility.yul\":561:584   */\n      tag_247\n      jump\t// in\n    tag_309:\n        /* \"#utility.yul\":554:559   */\n      dup2\n        /* \"#utility.yul\":551:585   */\n      eq\n        /* \"#utility.yul\":541:603   */\n      tag_310\n      jumpi\n        /* \"#utility.yul\":599:600   */\n      0x00\n        /* \"#utility.yul\":596:597   */\n      dup1\n        /* \"#utility.yul\":589:601   */\n      revert\n        /* \"#utility.yul\":541:603   */\n    tag_310:\n        /* \"#utility.yul\":489:609   */\n      pop\n      jump\t// out\n        /* \"#utility.yul\":615:752   */\n    tag_249:\n        /* \"#utility.yul\":660:665   */\n      0x00\n        /* \"#utility.yul\":698:704   */\n      dup2\n        /* \"#utility.yul\":685:705   */\n      calldataload\n        /* \"#utility.yul\":676:705   */\n      swap1\n      pop\n        /* \"#utility.yul\":714:746   */\n      tag_312\n        /* \"#utility.yul\":740:745   */\n      dup2\n        /* \"#utility.yul\":714:746   */\n      tag_248\n      jump\t// in\n    tag_312:\n        /* \"#utility.yul\":615:752   */\n      swap3\n      swap2\n      pop\n      pop\n      jump\t// out\n        /* \"#utility.yul\":758:1085   */\n    tag_24:\n        /* \"#utility.yul\":816:822   */\n      0x00\n        /* \"#utility.yul\":865:867   */\n      0x20\n        /* \"#utility.yul\":853:862   */\n      dup3\n        /* \"#utility.yul\":844:851   */\n      dup5\n        /* \"#utility.yul\":840:863   */\n      sub\n        /* \"#utility.yul\":836:868   */\n      slt\n        /* \"#utility.yul\":833:952   */\n      iszero\n      tag_314\n      jumpi\n        /* \"#utility.yul\":871:950   */\n      tag_315\n      tag_245\n      jump\t// in\n    tag_315:\n        /* \"#utility.yul\":833:952   */\n    tag_314:\n        /* \"#utility.yul\":991:992   */\n      0x00\n        /* \"#utility.yul\":1016:1068   */\n      tag_316\n        /* \"#utility.yul\":1060:1067   */\n      dup5\n        /* \"#utility.yul\":1051:1057   */\n      dup3\n        /* \"#utility.yul\":1040:1049   */\n      dup6\n        /* \"#utility.yul\":1036:1058   */\n      add\n        /* \"#utility.yul\":1016:1068   */\n      tag_249\n      jump\t// in\n    tag_316:\n        /* \"#utility.yul\":1006:1068   */\n      swap2\n      pop\n        /* \"#utility.yul\":962:1078   */\n      pop\n        /* \"#utility.yul\":758:1085   */\n      swap3\n      swap2\n      pop\n      pop\n      jump\t// out\n        /* \"#utility.yul\":1091:1181   */\n    tag_250:\n        /* \"#utility.yul\":1125:1132   */\n      0x00\n        /* \"#utility.yul\":1168:1173   */\n      dup2\n        /* \"#utility.yul\":1161:1174   */\n      iszero\n        /* \"#utility.yul\":1154:1175   */\n      iszero\n        /* \"#utility.yul\":1143:1175   */\n      swap1\n      pop\n        /* \"#utility.yul\":1091:1181   */\n      swap2\n      swap1\n      pop\n      jump\t// out\n        /* \"#utility.yul\":1187:1296   */\n    tag_251:\n        /* \"#utility.yul\":1268:1289   */\n      tag_319\n        /* \"#utility.yul\":1283:1288   */\n      dup2\n        /* \"#utility.yul\":1268:1289   */\n      tag_250\n      jump\t// in\n    tag_319:\n        /* \"#utility.yul\":1263:1266   */\n      dup3\n        /* \"#utility.yul\":1256:1290   */\n      mstore\n        /* \"#utility.yul\":1187:1296   */\n      pop\n      pop\n      jump\t// out\n        /* \"#utility.yul\":1302:1512   */\n    tag_27:\n        /* \"#utility.yul\":1389:1393   */\n      0x00\n        /* \"#utility.yul\":1427:1429   */\n      0x20\n        /* \"#utility.yul\":1416:1425   */\n      dup3\n        /* \"#utility.yul\":1412:1430   */\n      add\n        /* \"#utility.yul\":1404:1430   */\n      swap1\n      pop\n        /* \"#utility.yul\":1440:1505   */\n      tag_321\n        /* \"#utility.yul\":1502:1503   */\n      0x00\n        /* \"#utility.yul\":1491:1500   */\n      dup4\n        /* \"#utility.yul\":1487:1504   */\n      add\n        /* \"#utility.yul\":1478:1484   */\n      dup5\n        /* \"#utility.yul\":1440:1505   */\n      tag_251\n      jump\t// in\n    tag_321:\n        /* \"#utility.yul\":1302:1512   */\n      swap3\n      swap2\n      pop\n      pop\n      jump\t// out\n        /* \"#utility.yul\":1518:1595   */\n    tag_252:\n        /* \"#utility.yul\":1555:1562   */\n      0x00\n        /* \"#utility.yul\":1584:1589   */\n      dup2\n        /* \"#utility.yul\":1573:1589   */\n      swap1\n      pop\n        /* \"#utility.yul\":1518:1595   */\n      swap2\n      swap1\n      pop\n      jump\t// out\n        /* \"#utility.yul\":1601:1723   */\n    tag_253:\n        /* \"#utility.yul\":1674:1698   */\n      tag_324\n        /* \"#utility.yul\":1692:1697   */\n      dup2\n        /* \"#utility.yul\":1674:1698   */\n      tag_252\n      jump\t// in\n    tag_324:\n        /* \"#utility.yul\":1667:1672   */\n      dup2\n        /* \"#utility.yul\":1664:1699   */\n      eq\n        /* \"#utility.yul\":1654:1717   */\n      tag_325\n      jumpi\n        /* \"#utility.yul\":1713:1714   */\n      0x00\n        /* \"#utility.yul\":1710:1711   */\n      dup1\n        /* \"#utility.yul\":1703:1715   */\n      revert\n        /* \"#utility.yul\":1654:1717   */\n    tag_325:\n        /* \"#utility.yul\":1601:1723   */\n      pop\n      jump\t// out\n        /* \"#utility.yul\":1729:1868   */\n    tag_254:\n        /* \"#utility.yul\":1775:1780   */\n      0x00\n        /* \"#utility.yul\":1813:1819   */\n      dup2\n        /* \"#utility.yul\":1800:1820   */\n      calldataload\n        /* \"#utility.yul\":1791:1820   */\n      swap1\n      pop\n        /* \"#utility.yul\":1829:1862   */\n      tag_327\n        /* \"#utility.yul\":1856:1861   */\n      dup2\n        /* \"#utility.yul\":1829:1862   */\n      tag_253\n      jump\t// in\n    tag_327:\n        /* \"#utility.yul\":1729:1868   */\n      swap3\n      swap2\n      pop\n      pop\n      jump\t// out\n        /* \"#utility.yul\":1874:2203   */\n    tag_30:\n        /* \"#utility.yul\":1933:1939   */\n      0x00\n        /* \"#utility.yul\":1982:1984   */\n      0x20\n        /* \"#utility.yul\":1970:1979   */\n      dup3\n        /* \"#utility.yul\":1961:1968   */\n      dup5\n        /* \"#utility.yul\":1957:1980   */\n      sub\n        /* \"#utility.yul\":1953:1985   */\n      slt\n        /* \"#utility.yul\":1950:2069   */\n      iszero\n      tag_329\n      jumpi\n        /* \"#utility.yul\":1988:2067   */\n      tag_330\n      tag_245\n      jump\t// in\n    tag_330:\n        /* \"#utility.yul\":1950:2069   */\n    tag_329:\n        /* \"#utility.yul\":2108:2109   */\n      0x00\n        /* \"#utility.yul\":2133:2186   */\n      tag_331\n        /* \"#utility.yul\":2178:2185   */\n      dup5\n        /* \"#utility.yul\":2169:2175   */\n      dup3\n        /* \"#utility.yul\":2158:2167   */\n      dup6\n        /* \"#utility.yul\":2154:2176   */\n      add\n        /* \"#utility.yul\":2133:2186   */\n      tag_254\n      jump\t// in\n    tag_331:\n        /* \"#utility.yul\":2123:2186   */\n      swap2\n      pop\n        /* \"#utility.yul\":2079:2196   */\n      pop\n        /* \"#utility.yul\":1874:2203   */\n      swap3\n      swap2\n      pop\n      pop\n      jump\t// out\n        /* \"#utility.yul\":2209:2327   */\n    tag_255:\n        /* \"#utility.yul\":2296:2320   */\n      tag_333\n        /* \"#utility.yul\":2314:2319   */\n      dup2\n        /* \"#utility.yul\":2296:2320   */\n      tag_252\n      jump\t// in\n    tag_333:\n        /* \"#utility.yul\":2291:2294   */\n      dup3\n        /* \"#utility.yul\":2284:2321   */\n      mstore\n        /* \"#utility.yul\":2209:2327   */\n      pop\n      pop\n      jump\t// out\n        /* \"#utility.yul\":2333:2555   */\n    tag_40:\n        /* \"#utility.yul\":2426:2430   */\n      0x00\n        /* \"#utility.yul\":2464:2466   */\n      0x20\n        /* \"#utility.yul\":2453:2462   */\n      dup3\n        /* \"#utility.yul\":2449:2467   */\n      add\n        /* \"#utility.yul\":2441:2467   */\n      swap1\n      pop\n        /* \"#utility.yul\":2477:2548   */\n      tag_335\n        /* \"#utility.yul\":2545:2546   */\n      0x00\n        /* \"#utility.yul\":2534:2543   */\n      dup4\n        /* \"#utility.yul\":2530:2547   */\n      add\n        /* \"#utility.yul\":2521:2527   */\n      dup5\n        /* \"#utility.yul\":2477:2548   */\n      tag_255\n      jump\t// in\n    tag_335:\n        /* \"#utility.yul\":2333:2555   */\n      swap3\n      swap2\n      pop\n      pop\n      jump\t// out\n        /* \"#utility.yul\":2561:2687   */\n    tag_256:\n        /* \"#utility.yul\":2598:2605   */\n      0x00\n        /* \"#utility.yul\":2638:2680   */\n      0xffffffffffffffffffffffffffffffffffffffff\n        /* \"#utility.yul\":2631:2636   */\n      dup3\n        /* \"#utility.yul\":2627:2681   */\n      and\n        /* \"#utility.yul\":2616:2681   */\n      swap1\n      pop\n        /* \"#utility.yul\":2561:2687   */\n      swap2\n      swap1\n      pop\n      jump\t// out\n        /* \"#utility.yul\":2693:2789   */\n    tag_257:\n        /* \"#utility.yul\":2730:2737   */\n      0x00\n        /* \"#utility.yul\":2759:2783   */\n      tag_338\n        /* \"#utility.yul\":2777:2782   */\n      dup3\n        /* \"#utility.yul\":2759:2783   */\n      tag_256\n      jump\t// in\n    tag_338:\n        /* \"#utility.yul\":2748:2783   */\n      swap1\n      pop\n        /* \"#utility.yul\":2693:2789   */\n      swap2\n      swap1\n      pop\n      jump\t// out\n        /* \"#utility.yul\":2795:2917   */\n    tag_258:\n        /* \"#utility.yul\":2868:2892   */\n      tag_340\n        /* \"#utility.yul\":2886:2891   */\n      dup2\n        /* \"#utility.yul\":2868:2892   */\n      tag_257\n      jump\t// in\n    tag_340:\n        /* \"#utility.yul\":2861:2866   */\n      dup2\n        /* \"#utility.yul\":2858:2893   */\n      eq\n        /* \"#utility.yul\":2848:2911   */\n      tag_341\n      jumpi\n        /* \"#utility.yul\":2907:2908   */\n      0x00\n        /* \"#utility.yul\":2904:2905   */\n      dup1\n        /* \"#utility.yul\":2897:2909   */\n      revert\n        /* \"#utility.yul\":2848:2911   */\n    tag_341:\n        /* \"#utility.yul\":2795:2917   */\n      pop\n      jump\t// out\n        /* \"#utility.yul\":2923:3062   */\n    tag_259:\n        /* \"#utility.yul\":2969:2974   */\n      0x00\n        /* \"#utility.yul\":3007:3013   */\n      dup2\n        /* \"#utility.yul\":2994:3014   */\n      calldataload\n        /* \"#utility.yul\":2985:3014   */\n      swap1\n      pop\n        /* \"#utility.yul\":3023:3056   */\n      tag_343\n        /* \"#utility.yul\":3050:3055   */\n      dup2\n        /* \"#utility.yul\":3023:3056   */\n      tag_258\n      jump\t// in\n    tag_343:\n        /* \"#utility.yul\":2923:3062   */\n      swap3\n      swap2\n      pop\n      pop\n      jump\t// out\n        /* \"#utility.yul\":3068:3542   */\n    tag_43:\n        /* \"#utility.yul\":3136:3142   */\n      0x00\n        /* \"#utility.yul\":3144:3150   */\n      dup1\n        /* \"#utility.yul\":3193:3195   */\n      0x40\n        /* \"#utility.yul\":3181:3190   */\n      dup4\n        /* \"#utility.yul\":3172:3179   */\n      dup6\n        /* \"#utility.yul\":3168:3191   */\n      sub\n        /* \"#utility.yul\":3164:3196   */\n      slt\n        /* \"#utility.yul\":3161:3280   */\n      iszero\n      tag_345\n      jumpi\n        /* \"#utility.yul\":3199:3278   */\n      tag_346\n      tag_245\n      jump\t// in\n    tag_346:\n        /* \"#utility.yul\":3161:3280   */\n    tag_345:\n        /* \"#utility.yul\":3319:3320   */\n      0x00\n        /* \"#utility.yul\":3344:3397   */\n      tag_347\n        /* \"#utility.yul\":3389:3396   */\n      dup6\n        /* \"#utility.yul\":3380:3386   */\n      dup3\n        /* \"#utility.yul\":3369:3378   */\n      dup7\n        /* \"#utility.yul\":3365:3387   */\n      add\n        /* \"#utility.yul\":3344:3397   */\n      tag_254\n      jump\t// in\n    tag_347:\n        /* \"#utility.yul\":3334:3397   */\n      swap3\n      pop\n        /* \"#utility.yul\":3290:3407   */\n      pop\n        /* \"#utility.yul\":3446:3448   */\n      0x20\n        /* \"#utility.yul\":3472:3525   */\n      tag_348\n        /* \"#utility.yul\":3517:3524   */\n      dup6\n        /* \"#utility.yul\":3508:3514   */\n      dup3\n        /* \"#utility.yul\":3497:3506   */\n      dup7\n        /* \"#utility.yul\":3493:3515   */\n      add\n        /* \"#utility.yul\":3472:3525   */\n      tag_259\n      jump\t// in\n    tag_348:\n        /* \"#utility.yul\":3462:3525   */\n      swap2\n      pop\n        /* \"#utility.yul\":3417:3535   */\n      pop\n        /* \"#utility.yul\":3068:3542   */\n      swap3\n      pop\n      swap3\n      swap1\n      pop\n      jump\t// out\n        /* \"#utility.yul\":3548:3656   */\n    tag_260:\n        /* \"#utility.yul\":3625:3649   */\n      tag_350\n        /* \"#utility.yul\":3643:3648   */\n      dup2\n        /* \"#utility.yul\":3625:3649   */\n      tag_252\n      jump\t// in\n    tag_350:\n        /* \"#utility.yul\":3620:3623   */\n      dup3\n        /* \"#utility.yul\":3613:3650   */\n      mstore\n        /* \"#utility.yul\":3548:3656   */\n      pop\n      pop\n      jump\t// out\n        /* \"#utility.yul\":3662:3761   */\n    tag_261:\n        /* \"#utility.yul\":3714:3720   */\n      0x00\n        /* \"#utility.yul\":3748:3753   */\n      dup2\n        /* \"#utility.yul\":3742:3754   */\n      mload\n        /* \"#utility.yul\":3732:3754   */\n      swap1\n      pop\n        /* \"#utility.yul\":3662:3761   */\n      swap2\n      swap1\n      pop\n      jump\t// out\n        /* \"#utility.yul\":3767:3926   */\n    tag_262:\n        /* \"#utility.yul\":3841:3852   */\n      0x00\n        /* \"#utility.yul\":3875:3881   */\n      dup3\n        /* \"#utility.yul\":3870:3873   */\n      dup3\n        /* \"#utility.yul\":3863:3882   */\n      mstore\n        /* \"#utility.yul\":3915:3919   */\n      0x20\n        /* \"#utility.yul\":3910:3913   */\n      dup3\n        /* \"#utility.yul\":3906:3920   */\n      add\n        /* \"#utility.yul\":3891:3920   */\n      swap1\n      pop\n        /* \"#utility.yul\":3767:3926   */\n      swap3\n      swap2\n      pop\n      pop\n      jump\t// out\n        /* \"#utility.yul\":3932:4071   */\n    tag_263:\n        /* \"#utility.yul\":4021:4027   */\n      dup3\n        /* \"#utility.yul\":4016:4019   */\n      dup2\n        /* \"#utility.yul\":4011:4014   */\n      dup4\n        /* \"#utility.yul\":4005:4028   */\n      mcopy\n        /* \"#utility.yul\":4062:4063   */\n      0x00\n        /* \"#utility.yul\":4053:4059   */\n      dup4\n        /* \"#utility.yul\":4048:4051   */\n      dup4\n        /* \"#utility.yul\":4044:4060   */\n      add\n        /* \"#utility.yul\":4037:4064   */\n      mstore\n        /* \"#utility.yul\":3932:4071   */\n      pop\n      pop\n      pop\n      jump\t// out\n        /* \"#utility.yul\":4077:4179   */\n    tag_264:\n        /* \"#utility.yul\":4118:4124   */\n      0x00\n        /* \"#utility.yul\":4169:4171   */\n      0x1f\n        /* \"#utility.yul\":4165:4172   */\n      not\n        /* \"#utility.yul\":4160:4162   */\n      0x1f\n        /* \"#utility.yul\":4153:4158   */\n      dup4\n        /* \"#utility.yul\":4149:4163   */\n      add\n        /* \"#utility.yul\":4145:4173   */\n      and\n        /* \"#utility.yul\":4135:4173   */\n      swap1\n      pop\n        /* \"#utility.yul\":4077:4179   */\n      swap2\n      swap1\n      pop\n      jump\t// out\n        /* \"#utility.yul\":4185:4542   */\n    tag_265:\n        /* \"#utility.yul\":4263:4266   */\n      0x00\n        /* \"#utility.yul\":4291:4330   */\n      tag_356\n        /* \"#utility.yul\":4324:4329   */\n      dup3\n        /* \"#utility.yul\":4291:4330   */\n      tag_261\n      jump\t// in\n    tag_356:\n        /* \"#utility.yul\":4346:4407   */\n      tag_357\n        /* \"#utility.yul\":4400:4406   */\n      dup2\n        /* \"#utility.yul\":4395:4398   */\n      dup6\n        /* \"#utility.yul\":4346:4407   */\n      tag_262\n      jump\t// in\n    tag_357:\n        /* \"#utility.yul\":4339:4407   */\n      swap4\n      pop\n        /* \"#utility.yul\":4416:4481   */\n      tag_358\n        /* \"#utility.yul\":4474:4480   */\n      dup2\n        /* \"#utility.yul\":4469:4472   */\n      dup6\n        /* \"#utility.yul\":4462:4466   */\n      0x20\n        /* \"#utility.yul\":4455:4460   */\n      dup7\n        /* \"#utility.yul\":4451:4467   */\n      add\n        /* \"#utility.yul\":4416:4481   */\n      tag_263\n      jump\t// in\n    tag_358:\n        /* \"#utility.yul\":4506:4535   */\n      tag_359\n        /* \"#utility.yul\":4528:4534   */\n      dup2\n        /* \"#utility.yul\":4506:4535   */\n      tag_264\n      jump\t// in\n    tag_359:\n        /* \"#utility.yul\":4501:4504   */\n      dup5\n        /* \"#utility.yul\":4497:4536   */\n      add\n        /* \"#utility.yul\":4490:4536   */\n      swap2\n      pop\n        /* \"#utility.yul\":4267:4542   */\n      pop\n        /* \"#utility.yul\":4185:4542   */\n      swap3\n      swap2\n      pop\n      pop\n      jump\t// out\n        /* \"#utility.yul\":4548:4625   */\n    tag_266:\n        /* \"#utility.yul\":4585:4592   */\n      0x00\n        /* \"#utility.yul\":4614:4619   */\n      dup2\n        /* \"#utility.yul\":4603:4619   */\n      swap1\n      pop\n        /* \"#utility.yul\":4548:4625   */\n      swap2\n      swap1\n      pop\n      jump\t// out\n        /* \"#utility.yul\":4631:4739   */\n    tag_267:\n        /* \"#utility.yul\":4708:4732   */\n      tag_362\n        /* \"#utility.yul\":4726:4731   */\n      dup2\n        /* \"#utility.yul\":4708:4732   */\n      tag_266\n      jump\t// in\n    tag_362:\n        /* \"#utility.yul\":4703:4706   */\n      dup3\n        /* \"#utility.yul\":4696:4733   */\n      mstore\n        /* \"#utility.yul\":4631:4739   */\n      pop\n      pop\n      jump\t// out\n        /* \"#utility.yul\":4809:6045   */\n    tag_268:\n        /* \"#utility.yul\":4938:4941   */\n      0x00\n        /* \"#utility.yul\":4974:4978   */\n      0xa0\n        /* \"#utility.yul\":4969:4972   */\n      dup4\n        /* \"#utility.yul\":4965:4979   */\n      add\n        /* \"#utility.yul\":5065:5069   */\n      0x00\n        /* \"#utility.yul\":5058:5063   */\n      dup4\n        /* \"#utility.yul\":5054:5070   */\n      add\n        /* \"#utility.yul\":5048:5071   */\n      mload\n        /* \"#utility.yul\":5084:5147   */\n      tag_364\n        /* \"#utility.yul\":5141:5145   */\n      0x00\n        /* \"#utility.yul\":5136:5139   */\n      dup7\n        /* \"#utility.yul\":5132:5146   */\n      add\n        /* \"#utility.yul\":5118:5130   */\n      dup3\n        /* \"#utility.yul\":5084:5147   */\n      tag_260\n      jump\t// in\n    tag_364:\n        /* \"#utility.yul\":4989:5157   */\n      pop\n        /* \"#utility.yul\":5243:5247   */\n      0x20\n        /* \"#utility.yul\":5236:5241   */\n      dup4\n        /* \"#utility.yul\":5232:5248   */\n      add\n        /* \"#utility.yul\":5226:5249   */\n      mload\n        /* \"#utility.yul\":5296:5299   */\n      dup5\n        /* \"#utility.yul\":5290:5294   */\n      dup3\n        /* \"#utility.yul\":5286:5300   */\n      sub\n        /* \"#utility.yul\":5279:5283   */\n      0x20\n        /* \"#utility.yul\":5274:5277   */\n      dup7\n        /* \"#utility.yul\":5270:5284   */\n      add\n        /* \"#utility.yul\":5263:5301   */\n      mstore\n        /* \"#utility.yul\":5322:5395   */\n      tag_365\n        /* \"#utility.yul\":5390:5394   */\n      dup3\n        /* \"#utility.yul\":5376:5388   */\n      dup3\n        /* \"#utility.yul\":5322:5395   */\n      tag_265\n      jump\t// in\n    tag_365:\n        /* \"#utility.yul\":5314:5395   */\n      swap2\n      pop\n        /* \"#utility.yul\":5167:5406   */\n      pop\n        /* \"#utility.yul\":5492:5496   */\n      0x40\n        /* \"#utility.yul\":5485:5490   */\n      dup4\n        /* \"#utility.yul\":5481:5497   */\n      add\n        /* \"#utility.yul\":5475:5498   */\n      mload\n        /* \"#utility.yul\":5545:5548   */\n      dup5\n        /* \"#utility.yul\":5539:5543   */\n      dup3\n        /* \"#utility.yul\":5535:5549   */\n      sub\n        /* \"#utility.yul\":5528:5532   */\n      0x40\n        /* \"#utility.yul\":5523:5526   */\n      dup7\n        /* \"#utility.yul\":5519:5533   */\n      add\n        /* \"#utility.yul\":5512:5550   */\n      mstore\n        /* \"#utility.yul\":5571:5644   */\n      tag_366\n        /* \"#utility.yul\":5639:5643   */\n      dup3\n        /* \"#utility.yul\":5625:5637   */\n      dup3\n        /* \"#utility.yul\":5571:5644   */\n      tag_265\n      jump\t// in\n    tag_366:\n        /* \"#utility.yul\":5563:5644   */\n      swap2\n      pop\n        /* \"#utility.yul\":5416:5655   */\n      pop\n        /* \"#utility.yul\":5741:5745   */\n      0x60\n        /* \"#utility.yul\":5734:5739   */\n      dup4\n        /* \"#utility.yul\":5730:5746   */\n      add\n        /* \"#utility.yul\":5724:5747   */\n      mload\n        /* \"#utility.yul\":5760:5823   */\n      tag_367\n        /* \"#utility.yul\":5817:5821   */\n      0x60\n        /* \"#utility.yul\":5812:5815   */\n      dup7\n        /* \"#utility.yul\":5808:5822   */\n      add\n        /* \"#utility.yul\":5794:5806   */\n      dup3\n        /* \"#utility.yul\":5760:5823   */\n      tag_267\n      jump\t// in\n    tag_367:\n        /* \"#utility.yul\":5665:5833   */\n      pop\n        /* \"#utility.yul\":5926:5930   */\n      0x80\n        /* \"#utility.yul\":5919:5924   */\n      dup4\n        /* \"#utility.yul\":5915:5931   */\n      add\n        /* \"#utility.yul\":5909:5932   */\n      mload\n        /* \"#utility.yul\":5945:6008   */\n      tag_368\n        /* \"#utility.yul\":6002:6006   */\n      0x80\n        /* \"#utility.yul\":5997:6000   */\n      dup7\n        /* \"#utility.yul\":5993:6007   */\n      add\n        /* \"#utility.yul\":5979:5991   */\n      dup3\n        /* \"#utility.yul\":5945:6008   */\n      tag_267\n      jump\t// in\n    tag_368:\n        /* \"#utility.yul\":5843:6018   */\n      pop\n        /* \"#utility.yul\":6035:6039   */\n      dup1\n        /* \"#utility.yul\":6028:6039   */\n      swap2\n      pop\n        /* \"#utility.yul\":4943:6045   */\n      pop\n        /* \"#utility.yul\":4809:6045   */\n      swap3\n      swap2\n      pop\n      pop\n      jump\t// out\n        /* \"#utility.yul\":6051:6444   */\n    tag_55:\n        /* \"#utility.yul\":6204:6208   */\n      0x00\n        /* \"#utility.yul\":6242:6244   */\n      0x20\n        /* \"#utility.yul\":6231:6240   */\n      dup3\n        /* \"#utility.yul\":6227:6245   */\n      add\n        /* \"#utility.yul\":6219:6245   */\n      swap1\n      pop\n        /* \"#utility.yul\":6291:6300   */\n      dup2\n        /* \"#utility.yul\":6285:6289   */\n      dup2\n        /* \"#utility.yul\":6281:6301   */\n      sub\n        /* \"#utility.yul\":6277:6278   */\n      0x00\n        /* \"#utility.yul\":6266:6275   */\n      dup4\n        /* \"#utility.yul\":6262:6279   */\n      add\n        /* \"#utility.yul\":6255:6302   */\n      mstore\n        /* \"#utility.yul\":6319:6437   */\n      tag_370\n        /* \"#utility.yul\":6432:6436   */\n      dup2\n        /* \"#utility.yul\":6423:6429   */\n      dup5\n        /* \"#utility.yul\":6319:6437   */\n      tag_268\n      jump\t// in\n    tag_370:\n        /* \"#utility.yul\":6311:6437   */\n      swap1\n      pop\n        /* \"#utility.yul\":6051:6444   */\n      swap3\n      swap2\n      pop\n      pop\n      jump\t// out\n        /* \"#utility.yul\":6450:6568   */\n    tag_269:\n        /* \"#utility.yul\":6537:6561   */\n      tag_372\n        /* \"#utility.yul\":6555:6560   */\n      dup2\n        /* \"#utility.yul\":6537:6561   */\n      tag_266\n      jump\t// in\n    tag_372:\n        /* \"#utility.yul\":6532:6535   */\n      dup3\n        /* \"#utility.yul\":6525:6562   */\n      mstore\n        /* \"#utility.yul\":6450:6568   */\n      pop\n      pop\n      jump\t// out\n        /* \"#utility.yul\":6574:6796   */\n    tag_66:\n        /* \"#utility.yul\":6667:6671   */\n      0x00\n        /* \"#utility.yul\":6705:6707   */\n      0x20\n        /* \"#utility.yul\":6694:6703   */\n      dup3\n        /* \"#utility.yul\":6690:6708   */\n      add\n        /* \"#utility.yul\":6682:6708   */\n      swap1\n      pop\n        /* \"#utility.yul\":6718:6789   */\n      tag_374\n        /* \"#utility.yul\":6786:6787   */\n      0x00\n        /* \"#utility.yul\":6775:6784   */\n      dup4\n        /* \"#utility.yul\":6771:6788   */\n      add\n        /* \"#utility.yul\":6762:6768   */\n      dup5\n        /* \"#utility.yul\":6718:6789   */\n      tag_269\n      jump\t// in\n    tag_374:\n        /* \"#utility.yul\":6574:6796   */\n      swap3\n      swap2\n      pop\n      pop\n      jump\t// out\n        /* \"#utility.yul\":6802:6924   */\n    tag_270:\n        /* \"#utility.yul\":6875:6899   */\n      tag_376\n        /* \"#utility.yul\":6893:6898   */\n      dup2\n        /* \"#utility.yul\":6875:6899   */\n      tag_266\n      jump\t// in\n    tag_376:\n        /* \"#utility.yul\":6868:6873   */\n      dup2\n        /* \"#utility.yul\":6865:6900   */\n      eq\n        /* \"#utility.yul\":6855:6918   */\n      tag_377\n      jumpi\n        /* \"#utility.yul\":6914:6915   */\n      0x00\n        /* \"#utility.yul\":6911:6912   */\n      dup1\n        /* \"#utility.yul\":6904:6916   */\n      revert\n        /* \"#utility.yul\":6855:6918   */\n    tag_377:\n        /* \"#utility.yul\":6802:6924   */\n      pop\n      jump\t// out\n        /* \"#utility.yul\":6930:7069   */\n    tag_271:\n        /* \"#utility.yul\":6976:6981   */\n      0x00\n        /* \"#utility.yul\":7014:7020   */\n      dup2\n        /* \"#utility.yul\":7001:7021   */\n      calldataload\n        /* \"#utility.yul\":6992:7021   */\n      swap1\n      pop\n        /* \"#utility.yul\":7030:7063   */\n      tag_379\n        /* \"#utility.yul\":7057:7062   */\n      dup2\n        /* \"#utility.yul\":7030:7063   */\n      tag_270\n      jump\t// in\n    tag_379:\n        /* \"#utility.yul\":6930:7069   */\n      swap3\n      swap2\n      pop\n      pop\n      jump\t// out\n        /* \"#utility.yul\":7075:7404   */\n    tag_72:\n        /* \"#utility.yul\":7134:7140   */\n      0x00\n        /* \"#utility.yul\":7183:7185   */\n      0x20\n        /* \"#utility.yul\":7171:7180   */\n      dup3\n        /* \"#utility.yul\":7162:7169   */\n      dup5\n        /* \"#utility.yul\":7158:7181   */\n      sub\n        /* \"#utility.yul\":7154:7186   */\n      slt\n        /* \"#utility.yul\":7151:7270   */\n      iszero\n      tag_381\n      jumpi\n        /* \"#utility.yul\":7189:7268   */\n      tag_382\n      tag_245\n      jump\t// in\n    tag_382:\n        /* \"#utility.yul\":7151:7270   */\n    tag_381:\n        /* \"#utility.yul\":7309:7310   */\n      0x00\n        /* \"#utility.yul\":7334:7387   */\n      tag_383\n        /* \"#utility.yul\":7379:7386   */\n      dup5\n        /* \"#utility.yul\":7370:7376   */\n      dup3\n        /* \"#utility.yul\":7359:7368   */\n      dup6\n        /* \"#utility.yul\":7355:7377   */\n      add\n        /* \"#utility.yul\":7334:7387   */\n      tag_271\n      jump\t// in\n    tag_383:\n        /* \"#utility.yul\":7324:7387   */\n      swap2\n      pop\n        /* \"#utility.yul\":7280:7397   */\n      pop\n        /* \"#utility.yul\":7075:7404   */\n      swap3\n      swap2\n      pop\n      pop\n      jump\t// out\n        /* \"#utility.yul\":7410:7527   */\n    tag_272:\n        /* \"#utility.yul\":7519:7520   */\n      0x00\n        /* \"#utility.yul\":7516:7517   */\n      dup1\n        /* \"#utility.yul\":7509:7521   */\n      revert\n        /* \"#utility.yul\":7533:7650   */\n    tag_273:\n        /* \"#utility.yul\":7642:7643   */\n      0x00\n        /* \"#utility.yul\":7639:7640   */\n      dup1\n        /* \"#utility.yul\":7632:7644   */\n      revert\n        /* \"#utility.yul\":7656:7773   */\n    tag_274:\n        /* \"#utility.yul\":7765:7766   */\n      0x00\n        /* \"#utility.yul\":7762:7763   */\n      dup1\n        /* \"#utility.yul\":7755:7767   */\n      revert\n        /* \"#utility.yul\":7793:8346   */\n    tag_275:\n        /* \"#utility.yul\":7851:7859   */\n      0x00\n        /* \"#utility.yul\":7861:7867   */\n      dup1\n        /* \"#utility.yul\":7911:7914   */\n      dup4\n        /* \"#utility.yul\":7904:7908   */\n      0x1f\n        /* \"#utility.yul\":7896:7902   */\n      dup5\n        /* \"#utility.yul\":7892:7909   */\n      add\n        /* \"#utility.yul\":7888:7915   */\n      slt\n        /* \"#utility.yul\":7878:8000   */\n      tag_388\n      jumpi\n        /* \"#utility.yul\":7919:7998   */\n      tag_389\n      tag_272\n      jump\t// in\n    tag_389:\n        /* \"#utility.yul\":7878:8000   */\n    tag_388:\n        /* \"#utility.yul\":8032:8038   */\n      dup3\n        /* \"#utility.yul\":8019:8039   */\n      calldataload\n        /* \"#utility.yul\":8009:8039   */\n      swap1\n      pop\n        /* \"#utility.yul\":8062:8080   */\n      0xffffffffffffffff\n        /* \"#utility.yul\":8054:8060   */\n      dup2\n        /* \"#utility.yul\":8051:8081   */\n      gt\n        /* \"#utility.yul\":8048:8165   */\n      iszero\n      tag_390\n      jumpi\n        /* \"#utility.yul\":8084:8163   */\n      tag_391\n      tag_273\n      jump\t// in\n    tag_391:\n        /* \"#utility.yul\":8048:8165   */\n    tag_390:\n        /* \"#utility.yul\":8198:8202   */\n      0x20\n        /* \"#utility.yul\":8190:8196   */\n      dup4\n        /* \"#utility.yul\":8186:8203   */\n      add\n        /* \"#utility.yul\":8174:8203   */\n      swap2\n      pop\n        /* \"#utility.yul\":8252:8255   */\n      dup4\n        /* \"#utility.yul\":8244:8248   */\n      0x01\n        /* \"#utility.yul\":8236:8242   */\n      dup3\n        /* \"#utility.yul\":8232:8249   */\n      mul\n        /* \"#utility.yul\":8222:8230   */\n      dup4\n        /* \"#utility.yul\":8218:8250   */\n      add\n        /* \"#utility.yul\":8215:8256   */\n      gt\n        /* \"#utility.yul\":8212:8340   */\n      iszero\n      tag_392\n      jumpi\n        /* \"#utility.yul\":8259:8338   */\n      tag_393\n      tag_274\n      jump\t// in\n    tag_393:\n        /* \"#utility.yul\":8212:8340   */\n    tag_392:\n        /* \"#utility.yul\":7793:8346   */\n      swap3\n      pop\n      swap3\n      swap1\n      pop\n      jump\t// out\n        /* \"#utility.yul\":8352:9517   */\n    tag_77:\n        /* \"#utility.yul\":8462:8468   */\n      0x00\n        /* \"#utility.yul\":8470:8476   */\n      dup1\n        /* \"#utility.yul\":8478:8484   */\n      0x00\n        /* \"#utility.yul\":8486:8492   */\n      dup1\n        /* \"#utility.yul\":8494:8500   */\n      0x00\n        /* \"#utility.yul\":8502:8508   */\n      dup1\n        /* \"#utility.yul\":8551:8554   */\n      0x80\n        /* \"#utility.yul\":8539:8548   */\n      dup8\n        /* \"#utility.yul\":8530:8537   */\n      dup10\n        /* \"#utility.yul\":8526:8549   */\n      sub\n        /* \"#utility.yul\":8522:8555   */\n      slt\n        /* \"#utility.yul\":8519:8639   */\n      iszero\n      tag_395\n      jumpi\n        /* \"#utility.yul\":8558:8637   */\n      tag_396\n      tag_245\n      jump\t// in\n    tag_396:\n        /* \"#utility.yul\":8519:8639   */\n    tag_395:\n        /* \"#utility.yul\":8678:8679   */\n      0x00\n        /* \"#utility.yul\":8703:8756   */\n      tag_397\n        /* \"#utility.yul\":8748:8755   */\n      dup10\n        /* \"#utility.yul\":8739:8745   */\n      dup3\n        /* \"#utility.yul\":8728:8737   */\n      dup11\n        /* \"#utility.yul\":8724:8746   */\n      add\n        /* \"#utility.yul\":8703:8756   */\n      tag_254\n      jump\t// in\n    tag_397:\n        /* \"#utility.yul\":8693:8756   */\n      swap7\n      pop\n        /* \"#utility.yul\":8649:8766   */\n      pop\n        /* \"#utility.yul\":8833:8835   */\n      0x20\n        /* \"#utility.yul\":8822:8831   */\n      dup8\n        /* \"#utility.yul\":8818:8836   */\n      add\n        /* \"#utility.yul\":8805:8837   */\n      calldataload\n        /* \"#utility.yul\":8864:8882   */\n      0xffffffffffffffff\n        /* \"#utility.yul\":8856:8862   */\n      dup2\n        /* \"#utility.yul\":8853:8883   */\n      gt\n        /* \"#utility.yul\":8850:8967   */\n      iszero\n      tag_398\n      jumpi\n        /* \"#utility.yul\":8886:8965   */\n      tag_399\n      tag_246\n      jump\t// in\n    tag_399:\n        /* \"#utility.yul\":8850:8967   */\n    tag_398:\n        /* \"#utility.yul\":8999:9064   */\n      tag_400\n        /* \"#utility.yul\":9056:9063   */\n      dup10\n        /* \"#utility.yul\":9047:9053   */\n      dup3\n        /* \"#utility.yul\":9036:9045   */\n      dup11\n        /* \"#utility.yul\":9032:9054   */\n      add\n        /* \"#utility.yul\":8999:9064   */\n      tag_275\n      jump\t// in\n    tag_400:\n        /* \"#utility.yul\":8981:9064   */\n      swap6\n      pop\n      swap6\n      pop\n        /* \"#utility.yul\":8776:9074   */\n      pop\n        /* \"#utility.yul\":9141:9143   */\n      0x40\n        /* \"#utility.yul\":9130:9139   */\n      dup8\n        /* \"#utility.yul\":9126:9144   */\n      add\n        /* \"#utility.yul\":9113:9145   */\n      calldataload\n        /* \"#utility.yul\":9172:9190   */\n      0xffffffffffffffff\n        /* \"#utility.yul\":9164:9170   */\n      dup2\n        /* \"#utility.yul\":9161:9191   */\n      gt\n        /* \"#utility.yul\":9158:9275   */\n      iszero\n      tag_401\n      jumpi\n        /* \"#utility.yul\":9194:9273   */\n      tag_402\n      tag_246\n      jump\t// in\n    tag_402:\n        /* \"#utility.yul\":9158:9275   */\n    tag_401:\n        /* \"#utility.yul\":9307:9372   */\n      tag_403\n        /* \"#utility.yul\":9364:9371   */\n      dup10\n        /* \"#utility.yul\":9355:9361   */\n      dup3\n        /* \"#utility.yul\":9344:9353   */\n      dup11\n        /* \"#utility.yul\":9340:9362   */\n      add\n        /* \"#utility.yul\":9307:9372   */\n      tag_275\n      jump\t// in\n    tag_403:\n        /* \"#utility.yul\":9289:9372   */\n      swap4\n      pop\n      swap4\n      pop\n        /* \"#utility.yul\":9084:9382   */\n      pop\n        /* \"#utility.yul\":9421:9423   */\n      0x60\n        /* \"#utility.yul\":9447:9500   */\n      tag_404\n        /* \"#utility.yul\":9492:9499   */\n      dup10\n        /* \"#utility.yul\":9483:9489   */\n      dup3\n        /* \"#utility.yul\":9472:9481   */\n      dup11\n        /* \"#utility.yul\":9468:9490   */\n      add\n        /* \"#utility.yul\":9447:9500   */\n      tag_271\n      jump\t// in\n    tag_404:\n        /* \"#utility.yul\":9437:9500   */\n      swap2\n      pop\n        /* \"#utility.yul\":9392:9510   */\n      pop\n        /* \"#utility.yul\":8352:9517   */\n      swap3\n      swap6\n      pop\n      swap3\n      swap6\n      pop\n      swap3\n      swap6\n      jump\t// out\n        /* \"#utility.yul\":9523:9692   */\n    tag_276:\n        /* \"#utility.yul\":9607:9618   */\n      0x00\n        /* \"#utility.yul\":9641:9647   */\n      dup3\n        /* \"#utility.yul\":9636:9639   */\n      dup3\n        /* \"#utility.yul\":9629:9648   */\n      mstore\n        /* \"#utility.yul\":9681:9685   */\n      0x20\n        /* \"#utility.yul\":9676:9679   */\n      dup3\n        /* \"#utility.yul\":9672:9686   */\n      add\n        /* \"#utility.yul\":9657:9686   */\n      swap1\n      pop\n        /* \"#utility.yul\":9523:9692   */\n      swap3\n      swap2\n      pop\n      pop\n      jump\t// out\n        /* \"#utility.yul\":9698:9870   */\n    tag_277:\n        /* \"#utility.yul\":9838:9862   */\n      0x55706c6f61643a2046696c65206e6f7420666f756e6400000000000000000000\n        /* \"#utility.yul\":9834:9835   */\n      0x00\n        /* \"#utility.yul\":9826:9832   */\n      dup3\n        /* \"#utility.yul\":9822:9836   */\n      add\n        /* \"#utility.yul\":9815:9863   */\n      mstore\n        /* \"#utility.yul\":9698:9870   */\n      pop\n      jump\t// out\n        /* \"#utility.yul\":9876:10242   */\n    tag_278:\n        /* \"#utility.yul\":10018:10021   */\n      0x00\n        /* \"#utility.yul\":10039:10106   */\n      tag_408\n        /* \"#utility.yul\":10103:10105   */\n      0x16\n        /* \"#utility.yul\":10098:10101   */\n      dup4\n        /* \"#utility.yul\":10039:10106   */\n      tag_276\n      jump\t// in\n    tag_408:\n        /* \"#utility.yul\":10032:10106   */\n      swap2\n      pop\n        /* \"#utility.yul\":10115:10208   */\n      tag_409\n        /* \"#utility.yul\":10204:10207   */\n      dup3\n        /* \"#utility.yul\":10115:10208   */\n      tag_277\n      jump\t// in\n    tag_409:\n        /* \"#utility.yul\":10233:10235   */\n      0x20\n        /* \"#utility.yul\":10228:10231   */\n      dup3\n        /* \"#utility.yul\":10224:10236   */\n      add\n        /* \"#utility.yul\":10217:10236   */\n      swap1\n      pop\n        /* \"#utility.yul\":9876:10242   */\n      swap2\n      swap1\n      pop\n      jump\t// out\n        /* \"#utility.yul\":10248:10667   */\n    tag_97:\n        /* \"#utility.yul\":10414:10418   */\n      0x00\n        /* \"#utility.yul\":10452:10454   */\n      0x20\n        /* \"#utility.yul\":10441:10450   */\n      dup3\n        /* \"#utility.yul\":10437:10455   */\n      add\n        /* \"#utility.yul\":10429:10455   */\n      swap1\n      pop\n        /* \"#utility.yul\":10501:10510   */\n      dup2\n        /* \"#utility.yul\":10495:10499   */\n      dup2\n        /* \"#utility.yul\":10491:10511   */\n      sub\n        /* \"#utility.yul\":10487:10488   */\n      0x00\n        /* \"#utility.yul\":10476:10485   */\n      dup4\n        /* \"#utility.yul\":10472:10489   */\n      add\n        /* \"#utility.yul\":10465:10512   */\n      mstore\n        /* \"#utility.yul\":10529:10660   */\n      tag_411\n        /* \"#utility.yul\":10655:10659   */\n      dup2\n        /* \"#utility.yul\":10529:10660   */\n      tag_278\n      jump\t// in\n    tag_411:\n        /* \"#utility.yul\":10521:10660   */\n      swap1\n      pop\n        /* \"#utility.yul\":10248:10667   */\n      swap2\n      swap1\n      pop\n      jump\t// out\n        /* \"#utility.yul\":10673:10853   */\n    tag_279:\n        /* \"#utility.yul\":10721:10798   */\n      0x4e487b7100000000000000000000000000000000000000000000000000000000\n        /* \"#utility.yul\":10718:10719   */\n      0x00\n        /* \"#utility.yul\":10711:10799   */\n      mstore\n        /* \"#utility.yul\":10818:10822   */\n      0x22\n        /* \"#utility.yul\":10815:10816   */\n      0x04\n        /* \"#utility.yul\":10808:10823   */\n      mstore\n        /* \"#utility.yul\":10842:10846   */\n      0x24\n        /* \"#utility.yul\":10839:10840   */\n      0x00\n        /* \"#utility.yul\":10832:10847   */\n      revert\n        /* \"#utility.yul\":10859:11179   */\n    tag_125:\n        /* \"#utility.yul\":10903:10909   */\n      0x00\n        /* \"#utility.yul\":10940:10941   */\n      0x02\n        /* \"#utility.yul\":10934:10938   */\n      dup3\n        /* \"#utility.yul\":10930:10942   */\n      div\n        /* \"#utility.yul\":10920:10942   */\n      swap1\n      pop\n        /* \"#utility.yul\":10987:10988   */\n      0x01\n        /* \"#utility.yul\":10981:10985   */\n      dup3\n        /* \"#utility.yul\":10977:10989   */\n      and\n        /* \"#utility.yul\":11008:11026   */\n      dup1\n        /* \"#utility.yul\":10998:11079   */\n      tag_414\n      jumpi\n        /* \"#utility.yul\":11064:11068   */\n      0x7f\n        /* \"#utility.yul\":11056:11062   */\n      dup3\n        /* \"#utility.yul\":11052:11069   */\n      and\n        /* \"#utility.yul\":11042:11069   */\n      swap2\n      pop\n        /* \"#utility.yul\":10998:11079   */\n    tag_414:\n        /* \"#utility.yul\":11126:11128   */\n      0x20\n        /* \"#utility.yul\":11118:11124   */\n      dup3\n        /* \"#utility.yul\":11115:11129   */\n      lt\n        /* \"#utility.yul\":11095:11113   */\n      dup2\n        /* \"#utility.yul\":11092:11130   */\n      sub\n        /* \"#utility.yul\":11089:11173   */\n      tag_415\n      jumpi\n        /* \"#utility.yul\":11145:11163   */\n      tag_416\n      tag_279\n      jump\t// in\n    tag_416:\n        /* \"#utility.yul\":11089:11173   */\n    tag_415:\n        /* \"#utility.yul\":10910:11179   */\n      pop\n        /* \"#utility.yul\":10859:11179   */\n      swap2\n      swap1\n      pop\n      jump\t// out\n        /* \"#utility.yul\":11185:11364   */\n    tag_280:\n        /* \"#utility.yul\":11325:11356   */\n      0x55706c6f61643a2046696c6520616c72656164792075706c6f61646564000000\n        /* \"#utility.yul\":11321:11322   */\n      0x00\n        /* \"#utility.yul\":11313:11319   */\n      dup3\n        /* \"#utility.yul\":11309:11323   */\n      add\n        /* \"#utility.yul\":11302:11357   */\n      mstore\n        /* \"#utility.yul\":11185:11364   */\n      pop\n      jump\t// out\n        /* \"#utility.yul\":11370:11736   */\n    tag_281:\n        /* \"#utility.yul\":11512:11515   */\n      0x00\n        /* \"#utility.yul\":11533:11600   */\n      tag_419\n        /* \"#utility.yul\":11597:11599   */\n      0x1d\n        /* \"#utility.yul\":11592:11595   */\n      dup4\n        /* \"#utility.yul\":11533:11600   */\n      tag_276\n      jump\t// in\n    tag_419:\n        /* \"#utility.yul\":11526:11600   */\n      swap2\n      pop\n        /* \"#utility.yul\":11609:11702   */\n      tag_420\n        /* \"#utility.yul\":11698:11701   */\n      dup3\n        /* \"#utility.yul\":11609:11702   */\n      tag_280\n      jump\t// in\n    tag_420:\n        /* \"#utility.yul\":11727:11729   */\n      0x20\n        /* \"#utility.yul\":11722:11725   */\n      dup3\n        /* \"#utility.yul\":11718:11730   */\n      add\n        /* \"#utility.yul\":11711:11730   */\n      swap1\n      pop\n        /* \"#utility.yul\":11370:11736   */\n      swap2\n      swap1\n      pop\n      jump\t// out\n        /* \"#utility.yul\":11742:12161   */\n    tag_148:\n        /* \"#utility.yul\":11908:11912   */\n      0x00\n        /* \"#utility.yul\":11946:11948   */\n      0x20\n        /* \"#utility.yul\":11935:11944   */\n      dup3\n        /* \"#utility.yul\":11931:11949   */\n      add\n        /* \"#utility.yul\":11923:11949   */\n      swap1\n      pop\n        /* \"#utility.yul\":11995:12004   */\n      dup2\n        /* \"#utility.yul\":11989:11993   */\n      dup2\n        /* \"#utility.yul\":11985:12005   */\n      sub\n        /* \"#utility.yul\":11981:11982   */\n      0x00\n        /* \"#utility.yul\":11970:11979   */\n      dup4\n        /* \"#utility.yul\":11966:11983   */\n      add\n        /* \"#utility.yul\":11959:12006   */\n      mstore\n        /* \"#utility.yul\":12023:12154   */\n      tag_422\n        /* \"#utility.yul\":12149:12153   */\n      dup2\n        /* \"#utility.yul\":12023:12154   */\n      tag_281\n      jump\t// in\n    tag_422:\n        /* \"#utility.yul\":12015:12154   */\n      swap1\n      pop\n        /* \"#utility.yul\":11742:12161   */\n      swap2\n      swap1\n      pop\n      jump\t// out\n        /* \"#utility.yul\":12167:12347   */\n    tag_282:\n        /* \"#utility.yul\":12215:12292   */\n      0x4e487b7100000000000000000000000000000000000000000000000000000000\n        /* \"#utility.yul\":12212:12213   */\n      0x00\n        /* \"#utility.yul\":12205:12293   */\n      mstore\n        /* \"#utility.yul\":12312:12316   */\n      0x41\n        /* \"#utility.yul\":12309:12310   */\n      0x04\n        /* \"#utility.yul\":12302:12317   */\n      mstore\n        /* \"#utility.yul\":12336:12340   */\n      0x24\n        /* \"#utility.yul\":12333:12334   */\n      0x00\n        /* \"#utility.yul\":12326:12341   */\n      revert\n        /* \"#utility.yul\":12353:12494   */\n    tag_283:\n        /* \"#utility.yul\":12402:12406   */\n      0x00\n        /* \"#utility.yul\":12425:12428   */\n      dup2\n        /* \"#utility.yul\":12417:12428   */\n      swap1\n      pop\n        /* \"#utility.yul\":12448:12451   */\n      dup2\n        /* \"#utility.yul\":12445:12446   */\n      0x00\n        /* \"#utility.yul\":12438:12452   */\n      mstore\n        /* \"#utility.yul\":12482:12486   */\n      0x20\n        /* \"#utility.yul\":12479:12480   */\n      0x00\n        /* \"#utility.yul\":12469:12487   */\n      keccak256\n        /* \"#utility.yul\":12461:12487   */\n      swap1\n      pop\n        /* \"#utility.yul\":12353:12494   */\n      swap2\n      swap1\n      pop\n      jump\t// out\n        /* \"#utility.yul\":12500:12593   */\n    tag_284:\n        /* \"#utility.yul\":12537:12543   */\n      0x00\n        /* \"#utility.yul\":12584:12586   */\n      0x20\n        /* \"#utility.yul\":12579:12581   */\n      0x1f\n        /* \"#utility.yul\":12572:12577   */\n      dup4\n        /* \"#utility.yul\":12568:12582   */\n      add\n        /* \"#utility.yul\":12564:12587   */\n      div\n        /* \"#utility.yul\":12554:12587   */\n      swap1\n      pop\n        /* \"#utility.yul\":12500:12593   */\n      swap2\n      swap1\n      pop\n      jump\t// out\n        /* \"#utility.yul\":12599:12706   */\n    tag_285:\n        /* \"#utility.yul\":12643:12651   */\n      0x00\n        /* \"#utility.yul\":12693:12698   */\n      dup3\n        /* \"#utility.yul\":12687:12691   */\n      dup3\n        /* \"#utility.yul\":12683:12699   */\n      shl\n        /* \"#utility.yul\":12662:12699   */\n      swap1\n      pop\n        /* \"#utility.yul\":12599:12706   */\n      swap3\n      swap2\n      pop\n      pop\n      jump\t// out\n        /* \"#utility.yul\":12712:13105   */\n    tag_286:\n        /* \"#utility.yul\":12781:12787   */\n      0x00\n        /* \"#utility.yul\":12831:12832   */\n      0x08\n        /* \"#utility.yul\":12819:12829   */\n      dup4\n        /* \"#utility.yul\":12815:12833   */\n      mul\n        /* \"#utility.yul\":12854:12951   */\n      tag_428\n        /* \"#utility.yul\":12884:12950   */\n      0xffffffffffffffffffffffffffffffffffffffffffffffffffffffffffffffff\n        /* \"#utility.yul\":12873:12882   */\n      dup3\n        /* \"#utility.yul\":12854:12951   */\n      tag_285\n      jump\t// in\n    tag_428:\n        /* \"#utility.yul\":12972:13011   */\n      tag_429\n        /* \"#utility.yul\":13002:13010   */\n      dup7\n        /* \"#utility.yul\":12991:13000   */\n      dup4\n        /* \"#utility.yul\":12972:13011   */\n      tag_285\n      jump\t// in\n    tag_429:\n        /* \"#utility.yul\":12960:13011   */\n      swap6\n      pop\n        /* \"#utility.yul\":13044:13048   */\n      dup1\n        /* \"#utility.yul\":13040:13049   */\n      not\n        /* \"#utility.yul\":13033:13038   */\n      dup5\n        /* \"#utility.yul\":13029:13050   */\n      and\n        /* \"#utility.yul\":13020:13050   */\n      swap4\n      pop\n        /* \"#utility.yul\":13093:13097   */\n      dup1\n        /* \"#utility.yul\":13083:13091   */\n      dup7\n        /* \"#utility.yul\":13079:13098   */\n      and\n        /* \"#utility.yul\":13072:13077   */\n      dup5\n        /* \"#utility.yul\":13069:13099   */\n      or\n        /* \"#utility.yul\":13059:13099   */\n      swap3\n      pop\n        /* \"#utility.yul\":12788:13105   */\n      pop\n      pop\n        /* \"#utility.yul\":12712:13105   */\n      swap4\n      swap3\n      pop\n      pop\n      pop\n      jump\t// out\n        /* \"#utility.yul\":13111:13171   */\n    tag_287:\n        /* \"#utility.yul\":13139:13142   */\n      0x00\n        /* \"#utility.yul\":13160:13165   */\n      dup2\n        /* \"#utility.yul\":13153:13165   */\n      swap1\n      pop\n        /* \"#utility.yul\":13111:13171   */\n      swap2\n      swap1\n      pop\n      jump\t// out\n        /* \"#utility.yul\":13177:13319   */\n    tag_288:\n        /* \"#utility.yul\":13227:13236   */\n      0x00\n        /* \"#utility.yul\":13260:13313   */\n      tag_432\n        /* \"#utility.yul\":13278:13312   */\n      tag_433\n        /* \"#utility.yul\":13287:13311   */\n      tag_434\n        /* \"#utility.yul\":13305:13310   */\n      dup5\n        /* \"#utility.yul\":13287:13311   */\n      tag_266\n      jump\t// in\n    tag_434:\n        /* \"#utility.yul\":13278:13312   */\n      tag_287\n      jump\t// in\n    tag_433:\n        /* \"#utility.yul\":13260:13313   */\n      tag_266\n      jump\t// in\n    tag_432:\n        /* \"#utility.yul\":13247:13313   */\n      swap1\n      pop\n        /* \"#utility.yul\":13177:13319   */\n      swap2\n      swap1\n      pop\n      jump\t// out\n        /* \"#utility.yul\":13325:13400   */\n    tag_289:\n        /* \"#utility.yul\":13368:13371   */\n      0x00\n        /* \"#utility.yul\":13389:13394   */\n      dup2\n        /* \"#utility.yul\":13382:13394   */\n      swap1\n      pop\n        /* \"#utility.yul\":13325:13400   */\n      swap2\n      swap1\n      pop\n      jump\t// out\n        /* \"#utility.yul\":13406:13675   */\n    tag_290:\n        /* \"#utility.yul\":13516:13555   */\n      tag_437\n        /* \"#utility.yul\":13547:13554   */\n      dup4\n        /* \"#utility.yul\":13516:13555   */\n      tag_288\n      jump\t// in\n    tag_437:\n        /* \"#utility.yul\":13577:13668   */\n      tag_438\n        /* \"#utility.yul\":13626:13667   */\n      tag_439\n        /* \"#utility.yul\":13650:13666   */\n      dup3\n        /* \"#utility.yul\":13626:13667   */\n      tag_289\n      jump\t// in\n    tag_439:\n        /* \"#utility.yul\":13618:13624   */\n      dup5\n        /* \"#utility.yul\":13611:13615   */\n      dup5\n        /* \"#utility.yul\":13605:13616   */\n      sload\n        /* \"#utility.yul\":13577:13668   */\n      tag_286\n      jump\t// in\n    tag_438:\n        /* \"#utility.yul\":13571:13575   */\n      dup3\n        /* \"#utility.yul\":13564:13669   */\n      sstore\n        /* \"#utility.yul\":13482:13675   */\n      pop\n        /* \"#utility.yul\":13406:13675   */\n      pop\n      pop\n      pop\n      jump\t// out\n        /* \"#utility.yul\":13681:13754   */\n    tag_291:\n        /* \"#utility.yul\":13726:13729   */\n      0x00\n        /* \"#utility.yul\":13681:13754   */\n      swap1\n      jump\t// out\n        /* \"#utility.yul\":13760:13949   */\n    tag_292:\n        /* \"#utility.yul\":13837:13869   */\n      tag_442\n      tag_291\n      jump\t// in\n    tag_442:\n        /* \"#utility.yul\":13878:13943   */\n      tag_443\n        /* \"#utility.yul\":13936:13942   */\n      dup2\n        /* \"#utility.yul\":13928:13934   */\n      dup5\n        /* \"#utility.yul\":13922:13926   */\n      dup5\n        /* \"#utility.yul\":13878:13943   */\n      tag_290\n      jump\t// in\n    tag_443:\n        /* \"#utility.yul\":13813:13949   */\n      pop\n        /* \"#utility.yul\":13760:13949   */\n      pop\n      pop\n      jump\t// out\n        /* \"#utility.yul\":13955:14141   */\n    tag_293:\n        /* \"#utility.yul\":14015:14135   */\n    tag_445:\n        /* \"#utility.yul\":14032:14035   */\n      dup2\n        /* \"#utility.yul\":14025:14030   */\n      dup2\n        /* \"#utility.yul\":14022:14036   */\n      lt\n        /* \"#utility.yul\":14015:14135   */\n      iszero\n      tag_447\n      jumpi\n        /* \"#utility.yul\":14086:14125   */\n      tag_448\n        /* \"#utility.yul\":14123:14124   */\n      0x00\n        /* \"#utility.yul\":14116:14121   */\n      dup3\n        /* \"#utility.yul\":14086:14125   */\n      tag_292\n      jump\t// in\n    tag_448:\n        /* \"#utility.yul\":14059:14060   */\n      0x01\n        /* \"#utility.yul\":14052:14057   */\n      dup2\n        /* \"#utility.yul\":14048:14061   */\n      add\n        /* \"#utility.yul\":14039:14061   */\n      swap1\n      pop\n        /* \"#utility.yul\":14015:14135   */\n      jump(tag_445)\n    tag_447:\n        /* \"#utility.yul\":13955:14141   */\n      pop\n      pop\n      jump\t// out\n        /* \"#utility.yul\":14147:14690   */\n    tag_294:\n        /* \"#utility.yul\":14248:14250   */\n      0x1f\n        /* \"#utility.yul\":14243:14246   */\n      dup3\n        /* \"#utility.yul\":14240:14251   */\n      gt\n        /* \"#utility.yul\":14237:14683   */\n      iszero\n      tag_450\n      jumpi\n        /* \"#utility.yul\":14282:14320   */\n      tag_451\n        /* \"#utility.yul\":14314:14319   */\n      dup2\n        /* \"#utility.yul\":14282:14320   */\n      tag_283\n      jump\t// in\n    tag_451:\n        /* \"#utility.yul\":14366:14395   */\n      tag_452\n        /* \"#utility.yul\":14384:14394   */\n      dup5\n        /* \"#utility.yul\":14366:14395   */\n      tag_284\n      jump\t// in\n    tag_452:\n        /* \"#utility.yul\":14356:14364   */\n      dup2\n        /* \"#utility.yul\":14352:14396   */\n      add\n        /* \"#utility.yul\":14549:14551   */\n      0x20\n        /* \"#utility.yul\":14537:14547   */\n      dup6\n        /* \"#utility.yul\":14534:14552   */\n      lt\n        /* \"#utility.yul\":14531:14580   */\n      iszero\n      tag_453\n      jumpi\n        /* \"#utility.yul\":14570:14578   */\n      dup2\n        /* \"#utility.yul\":14555:14578   */\n      swap1\n      pop\n        /* \"#utility.yul\":14531:14580   */\n    tag_453:\n        /* \"#utility.yul\":14593:14673   */\n      tag_454\n        /* \"#utility.yul\":14649:14671   */\n      tag_455\n        /* \"#utility.yul\":14667:14670   */\n      dup6\n        /* \"#utility.yul\":14649:14671   */\n      tag_284\n      jump\t// in\n    tag_455:\n        /* \"#utility.yul\":14639:14647   */\n      dup4\n        /* \"#utility.yul\":14635:14672   */\n      add\n        /* \"#utility.yul\":14622:14633   */\n      dup3\n        /* \"#utility.yul\":14593:14673   */\n      tag_293\n      jump\t// in\n    tag_454:\n        /* \"#utility.yul\":14252:14683   */\n      pop\n      pop\n        /* \"#utility.yul\":14237:14683   */\n    tag_450:\n        /* \"#utility.yul\":14147:14690   */\n      pop\n      pop\n      pop\n      jump\t// out\n        /* \"#utility.yul\":14696:14813   */\n    tag_295:\n        /* \"#utility.yul\":14750:14758   */\n      0x00\n        /* \"#utility.yul\":14800:14805   */\n      dup3\n        /* \"#utility.yul\":14794:14798   */\n      dup3\n        /* \"#utility.yul\":14790:14806   */\n      shr\n        /* \"#utility.yul\":14769:14806   */\n      swap1\n      pop\n        /* \"#utility.yul\":14696:14813   */\n      swap3\n      swap2\n      pop\n      pop\n      jump\t// out\n        /* \"#utility.yul\":14819:14988   */\n    tag_296:\n        /* \"#utility.yul\":14863:14869   */\n      0x00\n        /* \"#utility.yul\":14896:14947   */\n      tag_458\n        /* \"#utility.yul\":14944:14945   */\n      0x00\n        /* \"#utility.yul\":14940:14946   */\n      not\n        /* \"#utility.yul\":14932:14937   */\n      dup5\n        /* \"#utility.yul\":14929:14930   */\n      0x08\n        /* \"#utility.yul\":14925:14938   */\n      mul\n        /* \"#utility.yul\":14896:14947   */\n      tag_295\n      jump\t// in\n    tag_458:\n        /* \"#utility.yul\":14892:14948   */\n      not\n        /* \"#utility.yul\":14977:14981   */\n      dup1\n        /* \"#utility.yul\":14971:14975   */\n      dup4\n        /* \"#utility.yul\":14967:14982   */\n      and\n        /* \"#utility.yul\":14957:14982   */\n      swap2\n      pop\n        /* \"#utility.yul\":14870:14988   */\n      pop\n        /* \"#utility.yul\":14819:14988   */\n      swap3\n      swap2\n      pop\n      pop\n      jump\t// out\n        /* \"#utility.yul\":14993:15288   */\n    tag_297:\n        /* \"#utility.yul\":15069:15073   */\n      0x00\n        /* \"#utility.yul\":15215:15244   */\n      tag_460\n        /* \"#utility.yul\":15240:15243   */\n      dup4\n        /* \"#utility.yul\":15234:15238   */\n      dup4\n        /* \"#utility.yul\":15215:15244   */\n      tag_296\n      jump\t// in\n    tag_460:\n        /* \"#utility.yul\":15207:15244   */\n      swap2\n      pop\n        /* \"#utility.yul\":15277:15280   */\n      dup3\n        /* \"#utility.yul\":15274:15275   */\n      0x02\n        /* \"#utility.yul\":15270:15281   */\n      mul\n        /* \"#utility.yul\":15264:15268   */\n      dup3\n        /* \"#utility.yul\":15261:15282   */\n      or\n        /* \"#utility.yul\":15253:15282   */\n      swap1\n      pop\n        /* \"#utility.yul\":14993:15288   */\n      swap3\n      swap2\n      pop\n      pop\n      jump\t// out\n        /* \"#utility.yul\":15293:16688   */\n    tag_150:\n        /* \"#utility.yul\":15410:15447   */\n      tag_462\n        /* \"#utility.yul\":15443:15446   */\n      dup3\n        /* \"#utility.yul\":15410:15447   */\n      tag_261\n      jump\t// in\n    tag_462:\n        /* \"#utility.yul\":15512:15530   */\n      0xffffffffffffffff\n        /* \"#utility.yul\":15504:15510   */\n      dup2\n        /* \"#utility.yul\":15501:15531   */\n      gt\n        /* \"#utility.yul\":15498:15554   */\n      iszero\n      tag_463\n      jumpi\n        /* \"#utility.yul\":15534:15552   */\n      tag_464\n      tag_282\n      jump\t// in\n    tag_464:\n        /* \"#utility.yul\":15498:15554   */\n    tag_463:\n        /* \"#utility.yul\":15578:15616   */\n      tag_465\n        /* \"#utility.yul\":15610:15614   */\n      dup3\n        /* \"#utility.yul\":15604:15615   */\n      sload\n        /* \"#utility.yul\":15578:15616   */\n      tag_125\n      jump\t// in\n    tag_465:\n        /* \"#utility.yul\":15663:15730   */\n      tag_466\n        /* \"#utility.yul\":15723:15729   */\n      dup3\n        /* \"#utility.yul\":15715:15721   */\n      dup3\n        /* \"#utility.yul\":15709:15713   */\n      dup6\n        /* \"#utility.yul\":15663:15730   */\n      tag_294\n      jump\t// in\n    tag_466:\n        /* \"#utility.yul\":15757:15758   */\n      0x00\n        /* \"#utility.yul\":15781:15785   */\n      0x20\n        /* \"#utility.yul\":15768:15785   */\n      swap1\n      pop\n        /* \"#utility.yul\":15813:15815   */\n      0x1f\n        /* \"#utility.yul\":15805:15811   */\n      dup4\n        /* \"#utility.yul\":15802:15816   */\n      gt\n        /* \"#utility.yul\":15830:15831   */\n      0x01\n        /* \"#utility.yul\":15825:16443   */\n      dup2\n      eq\n      tag_468\n      jumpi\n        /* \"#utility.yul\":16487:16488   */\n      0x00\n        /* \"#utility.yul\":16504:16510   */\n      dup5\n        /* \"#utility.yul\":16501:16578   */\n      iszero\n      tag_469\n      jumpi\n        /* \"#utility.yul\":16553:16562   */\n      dup3\n        /* \"#utility.yul\":16548:16551   */\n      dup8\n        /* \"#utility.yul\":16544:16563   */\n      add\n        /* \"#utility.yul\":16538:16564   */\n      mload\n        /* \"#utility.yul\":16529:16564   */\n      swap1\n      pop\n        /* \"#utility.yul\":16501:16578   */\n    tag_469:\n        /* \"#utility.yul\":16604:16671   */\n      tag_470\n        /* \"#utility.yul\":16664:16670   */\n      dup6\n        /* \"#utility.yul\":16657:16662   */\n      dup3\n        /* \"#utility.yul\":16604:16671   */\n      tag_297\n      jump\t// in\n    tag_470:\n        /* \"#utility.yul\":16598:16602   */\n      dup7\n        /* \"#utility.yul\":16591:16672   */\n      sstore\n        /* \"#utility.yul\":16460:16682   */\n      pop\n        /* \"#utility.yul\":15795:16682   */\n      jump(tag_467)\n        /* \"#utility.yul\":15825:16443   */\n    tag_468:\n        /* \"#utility.yul\":15877:15881   */\n      0x1f\n        /* \"#utility.yul\":15873:15882   */\n      not\n        /* \"#utility.yul\":15865:15871   */\n      dup5\n        /* \"#utility.yul\":15861:15883   */\n      and\n        /* \"#utility.yul\":15911:15948   */\n      tag_471\n        /* \"#utility.yul\":15943:15947   */\n      dup7\n        /* \"#utility.yul\":15911:15948   */\n      tag_283\n      jump\t// in\n    tag_471:\n        /* \"#utility.yul\":15970:15971   */\n      0x00\n        /* \"#utility.yul\":15984:16192   */\n    tag_472:\n        /* \"#utility.yul\":15998:16005   */\n      dup3\n        /* \"#utility.yul\":15995:15996   */\n      dup2\n        /* \"#utility.yul\":15992:16006   */\n      lt\n        /* \"#utility.yul\":15984:16192   */\n      iszero\n      tag_474\n      jumpi\n        /* \"#utility.yul\":16077:16086   */\n      dup5\n        /* \"#utility.yul\":16072:16075   */\n      dup10\n        /* \"#utility.yul\":16068:16087   */\n      add\n        /* \"#utility.yul\":16062:16088   */\n      mload\n        /* \"#utility.yul\":16054:16060   */\n      dup3\n        /* \"#utility.yul\":16047:16089   */\n      sstore\n        /* \"#utility.yul\":16128:16129   */\n      0x01\n        /* \"#utility.yul\":16120:16126   */\n      dup3\n        /* \"#utility.yul\":16116:16130   */\n      add\n        /* \"#utility.yul\":16106:16130   */\n      swap2\n      pop\n        /* \"#utility.yul\":16175:16177   */\n      0x20\n        /* \"#utility.yul\":16164:16173   */\n      dup6\n        /* \"#utility.yul\":16160:16178   */\n      add\n        /* \"#utility.yul\":16147:16178   */\n      swap5\n      pop\n        /* \"#utility.yul\":16021:16025   */\n      0x20\n        /* \"#utility.yul\":16018:16019   */\n      dup2\n        /* \"#utility.yul\":16014:16026   */\n      add\n        /* \"#utility.yul\":16009:16026   */\n      swap1\n      pop\n        /* \"#utility.yul\":15984:16192   */\n      jump(tag_472)\n    tag_474:\n        /* \"#utility.yul\":16220:16226   */\n      dup7\n        /* \"#utility.yul\":16211:16218   */\n      dup4\n        /* \"#utility.yul\":16208:16227   */\n      lt\n        /* \"#utility.yul\":16205:16384   */\n      iszero\n      tag_475\n      jumpi\n        /* \"#utility.yul\":16278:16287   */\n      dup5\n        /* \"#utility.yul\":16273:16276   */\n      dup10\n        /* \"#utility.yul\":16269:16288   */\n      add\n        /* \"#utility.yul\":16263:16289   */\n      mload\n        /* \"#utility.yul\":16321:16369   */\n      tag_476\n        /* \"#utility.yul\":16363:16367   */\n      0x1f\n        /* \"#utility.yul\":16355:16361   */\n      dup10\n        /* \"#utility.yul\":16351:16368   */\n      and\n        /* \"#utility.yul\":16340:16349   */\n      dup3\n        /* \"#utility.yul\":16321:16369   */\n      tag_296\n      jump\t// in\n    tag_476:\n        /* \"#utility.yul\":16313:16319   */\n      dup4\n        /* \"#utility.yul\":16306:16370   */\n      sstore\n        /* \"#utility.yul\":16228:16384   */\n      pop\n        /* \"#utility.yul\":16205:16384   */\n    tag_475:\n        /* \"#utility.yul\":16430:16431   */\n      0x01\n        /* \"#utility.yul\":16426:16427   */\n      0x02\n        /* \"#utility.yul\":16418:16424   */\n      dup9\n        /* \"#utility.yul\":16414:16428   */\n      mul\n        /* \"#utility.yul\":16410:16432   */\n      add\n        /* \"#utility.yul\":16404:16408   */\n      dup9\n        /* \"#utility.yul\":16397:16433   */\n      sstore\n        /* \"#utility.yul\":15832:16443   */\n      pop\n      pop\n      pop\n        /* \"#utility.yul\":15795:16682   */\n    tag_467:\n      pop\n        /* \"#utility.yul\":15385:16688   */\n      pop\n      pop\n      pop\n        /* \"#utility.yul\":15293:16688   */\n      pop\n      pop\n      jump\t// out\n        /* \"#utility.yul\":16694:16842   */\n    tag_298:\n        /* \"#utility.yul\":16792:16798   */\n      dup3\n        /* \"#utility.yul\":16787:16790   */\n      dup2\n        /* \"#utility.yul\":16782:16785   */\n      dup4\n        /* \"#utility.yul\":16769:16799   */\n      calldatacopy\n        /* \"#utility.yul\":16833:16834   */\n      0x00\n        /* \"#utility.yul\":16824:16830   */\n      dup4\n        /* \"#utility.yul\":16819:16822   */\n      dup4\n        /* \"#utility.yul\":16815:16831   */\n      add\n        /* \"#utility.yul\":16808:16835   */\n      mstore\n        /* \"#utility.yul\":16694:16842   */\n      pop\n      pop\n      pop\n      jump\t// out\n        /* \"#utility.yul\":16872:17189   */\n    tag_299:\n        /* \"#utility.yul\":16970:16973   */\n      0x00\n        /* \"#utility.yul\":16991:17062   */\n      tag_479\n        /* \"#utility.yul\":17055:17061   */\n      dup4\n        /* \"#utility.yul\":17050:17053   */\n      dup6\n        /* \"#utility.yul\":16991:17062   */\n      tag_276\n      jump\t// in\n    tag_479:\n        /* \"#utility.yul\":16984:17062   */\n      swap4\n      pop\n        /* \"#utility.yul\":17072:17128   */\n      tag_480\n        /* \"#utility.yul\":17121:17127   */\n      dup4\n        /* \"#utility.yul\":17116:17119   */\n      dup6\n        /* \"#utility.yul\":17109:17114   */\n      dup5\n        /* \"#utility.yul\":17072:17128   */\n      tag_298\n      jump\t// in\n    tag_480:\n        /* \"#utility.yul\":17153:17182   */\n      tag_481\n        /* \"#utility.yul\":17175:17181   */\n      dup4\n        /* \"#utility.yul\":17153:17182   */\n      tag_264\n      jump\t// in\n    tag_481:\n        /* \"#utility.yul\":17148:17151   */\n      dup5\n        /* \"#utility.yul\":17144:17183   */\n      add\n        /* \"#utility.yul\":17137:17183   */\n      swap1\n      pop\n        /* \"#utility.yul\":16872:17189   */\n      swap4\n      swap3\n      pop\n      pop\n      pop\n      jump\t// out\n        /* \"#utility.yul\":17195:17970   */\n    tag_155:\n        /* \"#utility.yul\":17432:17436   */\n      0x00\n        /* \"#utility.yul\":17470:17473   */\n      0x80\n        /* \"#utility.yul\":17459:17468   */\n      dup3\n        /* \"#utility.yul\":17455:17474   */\n      add\n        /* \"#utility.yul\":17447:17474   */\n      swap1\n      pop\n        /* \"#utility.yul\":17520:17529   */\n      dup2\n        /* \"#utility.yul\":17514:17518   */\n      dup2\n        /* \"#utility.yul\":17510:17530   */\n      sub\n        /* \"#utility.yul\":17506:17507   */\n      0x00\n        /* \"#utility.yul\":17495:17504   */\n      dup4\n        /* \"#utility.yul\":17491:17508   */\n      add\n        /* \"#utility.yul\":17484:17531   */\n      mstore\n        /* \"#utility.yul\":17548:17636   */\n      tag_483\n        /* \"#utility.yul\":17631:17635   */\n      dup2\n        /* \"#utility.yul\":17622:17628   */\n      dup9\n        /* \"#utility.yul\":17614:17620   */\n      dup11\n        /* \"#utility.yul\":17548:17636   */\n      tag_299\n      jump\t// in\n    tag_483:\n        /* \"#utility.yul\":17540:17636   */\n      swap1\n      pop\n        /* \"#utility.yul\":17683:17692   */\n      dup2\n        /* \"#utility.yul\":17677:17681   */\n      dup2\n        /* \"#utility.yul\":17673:17693   */\n      sub\n        /* \"#utility.yul\":17668:17670   */\n      0x20\n        /* \"#utility.yul\":17657:17666   */\n      dup4\n        /* \"#utility.yul\":17653:17671   */\n      add\n        /* \"#utility.yul\":17646:17694   */\n      mstore\n        /* \"#utility.yul\":17711:17799   */\n      tag_484\n        /* \"#utility.yul\":17794:17798   */\n      dup2\n        /* \"#utility.yul\":17785:17791   */\n      dup7\n        /* \"#utility.yul\":17777:17783   */\n      dup9\n        /* \"#utility.yul\":17711:17799   */\n      tag_299\n      jump\t// in\n    tag_484:\n        /* \"#utility.yul\":17703:17799   */\n      swap1\n      pop\n        /* \"#utility.yul\":17809:17881   */\n      tag_485\n        /* \"#utility.yul\":17877:17879   */\n      0x40\n        /* \"#utility.yul\":17866:17875   */\n      dup4\n        /* \"#utility.yul\":17862:17880   */\n      add\n        /* \"#utility.yul\":17853:17859   */\n      dup6\n        /* \"#utility.yul\":17809:17881   */\n      tag_269\n      jump\t// in\n    tag_485:\n        /* \"#utility.yul\":17891:17963   */\n      tag_486\n        /* \"#utility.yul\":17959:17961   */\n      0x60\n        /* \"#utility.yul\":17948:17957   */\n      dup4\n        /* \"#utility.yul\":17944:17962   */\n      add\n        /* \"#utility.yul\":17935:17941   */\n      dup5\n        /* \"#utility.yul\":17891:17963   */\n      tag_269\n      jump\t// in\n    tag_486:\n        /* \"#utility.yul\":17195:17970   */\n      swap8\n      swap7\n      pop\n      pop\n      pop\n      pop\n      pop\n      pop\n      pop\n      jump\t// out\n        /* \"#utility.yul\":17976:18073   */\n    tag_300:\n        /* \"#utility.yul\":18035:18041   */\n      0x00\n        /* \"#utility.yul\":18063:18066   */\n      dup3\n        /* \"#utility.yul\":18053:18066   */\n      swap1\n      pop\n        /* \"#utility.yul\":17976:18073   */\n      swap3\n      swap2\n      pop\n      pop\n      jump\t// out\n        /* \"#utility.yul\":18079:19482   */\n    tag_168:\n        /* \"#utility.yul\":18203:18247   */\n      tag_489\n        /* \"#utility.yul\":18243:18246   */\n      dup4\n        /* \"#utility.yul\":18238:18241   */\n      dup4\n        /* \"#utility.yul\":18203:18247   */\n      tag_300\n      jump\t// in\n    tag_489:\n        /* \"#utility.yul\":18312:18330   */\n      0xffffffffffffffff\n        /* \"#utility.yul\":18304:18310   */\n      dup2\n        /* \"#utility.yul\":18301:18331   */\n      gt\n        /* \"#utility.yul\":18298:18354   */\n      iszero\n      tag_490\n      jumpi\n        /* \"#utility.yul\":18334:18352   */\n      tag_491\n      tag_282\n      jump\t// in\n    tag_491:\n        /* \"#utility.yul\":18298:18354   */\n    tag_490:\n        /* \"#utility.yul\":18378:18416   */\n      tag_492\n        /* \"#utility.yul\":18410:18414   */\n      dup3\n        /* \"#utility.yul\":18404:18415   */\n      sload\n        /* \"#utility.yul\":18378:18416   */\n      tag_125\n      jump\t// in\n    tag_492:\n        /* \"#utility.yul\":18463:18530   */\n      tag_493\n        /* \"#utility.yul\":18523:18529   */\n      dup3\n        /* \"#utility.yul\":18515:18521   */\n      dup3\n        /* \"#utility.yul\":18509:18513   */\n      dup6\n        /* \"#utility.yul\":18463:18530   */\n      tag_294\n      jump\t// in\n    tag_493:\n        /* \"#utility.yul\":18557:18558   */\n      0x00\n        /* \"#utility.yul\":18586:18588   */\n      0x1f\n        /* \"#utility.yul\":18578:18584   */\n      dup4\n        /* \"#utility.yul\":18575:18589   */\n      gt\n        /* \"#utility.yul\":18603:18604   */\n      0x01\n        /* \"#utility.yul\":18598:19230   */\n      dup2\n      eq\n      tag_495\n      jumpi\n        /* \"#utility.yul\":19274:19275   */\n      0x00\n        /* \"#utility.yul\":19291:19297   */\n      dup5\n        /* \"#utility.yul\":19288:19372   */\n      iszero\n      tag_496\n      jumpi\n        /* \"#utility.yul\":19347:19356   */\n      dup3\n        /* \"#utility.yul\":19342:19345   */\n      dup8\n        /* \"#utility.yul\":19338:19357   */\n      add\n        /* \"#utility.yul\":19325:19358   */\n      calldataload\n        /* \"#utility.yul\":19316:19358   */\n      swap1\n      pop\n        /* \"#utility.yul\":19288:19372   */\n    tag_496:\n        /* \"#utility.yul\":19398:19465   */\n      tag_497\n        /* \"#utility.yul\":19458:19464   */\n      dup6\n        /* \"#utility.yul\":19451:19456   */\n      dup3\n        /* \"#utility.yul\":19398:19465   */\n      tag_297\n      jump\t// in\n    tag_497:\n        /* \"#utility.yul\":19392:19396   */\n      dup7\n        /* \"#utility.yul\":19385:19466   */\n      sstore\n        /* \"#utility.yul\":19247:19476   */\n      pop\n        /* \"#utility.yul\":18568:19476   */\n      jump(tag_494)\n        /* \"#utility.yul\":18598:19230   */\n    tag_495:\n        /* \"#utility.yul\":18650:18654   */\n      0x1f\n        /* \"#utility.yul\":18646:18655   */\n      not\n        /* \"#utility.yul\":18638:18644   */\n      dup5\n        /* \"#utility.yul\":18634:18656   */\n      and\n        /* \"#utility.yul\":18684:18721   */\n      tag_498\n        /* \"#utility.yul\":18716:18720   */\n      dup7\n        /* \"#utility.yul\":18684:18721   */\n      tag_283\n      jump\t// in\n    tag_498:\n        /* \"#utility.yul\":18743:18744   */\n      0x00\n        /* \"#utility.yul\":18757:18972   */\n    tag_499:\n        /* \"#utility.yul\":18771:18778   */\n      dup3\n        /* \"#utility.yul\":18768:18769   */\n      dup2\n        /* \"#utility.yul\":18765:18779   */\n      lt\n        /* \"#utility.yul\":18757:18972   */\n      iszero\n      tag_501\n      jumpi\n        /* \"#utility.yul\":18857:18866   */\n      dup5\n        /* \"#utility.yul\":18852:18855   */\n      dup10\n        /* \"#utility.yul\":18848:18867   */\n      add\n        /* \"#utility.yul\":18835:18868   */\n      calldataload\n        /* \"#utility.yul\":18827:18833   */\n      dup3\n        /* \"#utility.yul\":18820:18869   */\n      sstore\n        /* \"#utility.yul\":18908:18909   */\n      0x01\n        /* \"#utility.yul\":18900:18906   */\n      dup3\n        /* \"#utility.yul\":18896:18910   */\n      add\n        /* \"#utility.yul\":18886:18910   */\n      swap2\n      pop\n        /* \"#utility.yul\":18955:18957   */\n      0x20\n        /* \"#utility.yul\":18944:18953   */\n      dup6\n        /* \"#utility.yul\":18940:18958   */\n      add\n        /* \"#utility.yul\":18927:18958   */\n      swap5\n      pop\n        /* \"#utility.yul\":18794:18798   */\n      0x20\n        /* \"#utility.yul\":18791:18792   */\n      dup2\n        /* \"#utility.yul\":18787:18799   */\n      add\n        /* \"#utility.yul\":18782:18799   */\n      swap1\n      pop\n        /* \"#utility.yul\":18757:18972   */\n      jump(tag_499)\n    tag_501:\n        /* \"#utility.yul\":19000:19006   */\n      dup7\n        /* \"#utility.yul\":18991:18998   */\n      dup4\n        /* \"#utility.yul\":18988:19007   */\n      lt\n        /* \"#utility.yul\":18985:19171   */\n      iszero\n      tag_502\n      jumpi\n        /* \"#utility.yul\":19065:19074   */\n      dup5\n        /* \"#utility.yul\":19060:19063   */\n      dup10\n        /* \"#utility.yul\":19056:19075   */\n      add\n        /* \"#utility.yul\":19043:19076   */\n      calldataload\n        /* \"#utility.yul\":19108:19156   */\n      tag_503\n        /* \"#utility.yul\":19150:19154   */\n      0x1f\n        /* \"#utility.yul\":19142:19148   */\n      dup10\n        /* \"#utility.yul\":19138:19155   */\n      and\n        /* \"#utility.yul\":19127:19136   */\n      dup3\n        /* \"#utility.yul\":19108:19156   */\n      tag_296\n      jump\t// in\n    tag_503:\n        /* \"#utility.yul\":19100:19106   */\n      dup4\n        /* \"#utility.yul\":19093:19157   */\n      sstore\n        /* \"#utility.yul\":19008:19171   */\n      pop\n        /* \"#utility.yul\":18985:19171   */\n    tag_502:\n        /* \"#utility.yul\":19217:19218   */\n      0x01\n        /* \"#utility.yul\":19213:19214   */\n      0x02\n        /* \"#utility.yul\":19205:19211   */\n      dup9\n        /* \"#utility.yul\":19201:19215   */\n      mul\n        /* \"#utility.yul\":19197:19219   */\n      add\n        /* \"#utility.yul\":19191:19195   */\n      dup9\n        /* \"#utility.yul\":19184:19220   */\n      sstore\n        /* \"#utility.yul\":18605:19230   */\n      pop\n      pop\n      pop\n        /* \"#utility.yul\":18568:19476   */\n    tag_494:\n      pop\n        /* \"#utility.yul\":18178:19482   */\n      pop\n      pop\n      pop\n        /* \"#utility.yul\":18079:19482   */\n      pop\n      pop\n      pop\n      jump\t// out\n        /* \"#utility.yul\":19488:20152   */\n    tag_171:\n        /* \"#utility.yul\":19697:19701   */\n      0x00\n        /* \"#utility.yul\":19735:19737   */\n      0x60\n        /* \"#utility.yul\":19724:19733   */\n      dup3\n        /* \"#utility.yul\":19720:19738   */\n      add\n        /* \"#utility.yul\":19712:19738   */\n      swap1\n      pop\n        /* \"#utility.yul\":19784:19793   */\n      dup2\n        /* \"#utility.yul\":19778:19782   */\n      dup2\n        /* \"#utility.yul\":19774:19794   */\n      sub\n        /* \"#utility.yul\":19770:19771   */\n      0x00\n        /* \"#utility.yul\":19759:19768   */\n      dup4\n        /* \"#utility.yul\":19755:19772   */\n      add\n        /* \"#utility.yul\":19748:19795   */\n      mstore\n        /* \"#utility.yul\":19812:19900   */\n      tag_505\n        /* \"#utility.yul\":19895:19899   */\n      dup2\n        /* \"#utility.yul\":19886:19892   */\n      dup8\n        /* \"#utility.yul\":19878:19884   */\n      dup10\n        /* \"#utility.yul\":19812:19900   */\n      tag_299\n      jump\t// in\n    tag_505:\n        /* \"#utility.yul\":19804:19900   */\n      swap1\n      pop\n        /* \"#utility.yul\":19947:19956   */\n      dup2\n        /* \"#utility.yul\":19941:19945   */\n      dup2\n        /* \"#utility.yul\":19937:19957   */\n      sub\n        /* \"#utility.yul\":19932:19934   */\n      0x20\n        /* \"#utility.yul\":19921:19930   */\n      dup4\n        /* \"#utility.yul\":19917:19935   */\n      add\n        /* \"#utility.yul\":19910:19958   */\n      mstore\n        /* \"#utility.yul\":19975:20063   */\n      tag_506\n        /* \"#utility.yul\":20058:20062   */\n      dup2\n        /* \"#utility.yul\":20049:20055   */\n      dup6\n        /* \"#utility.yul\":20041:20047   */\n      dup8\n        /* \"#utility.yul\":19975:20063   */\n      tag_299\n      jump\t// in\n    tag_506:\n        /* \"#utility.yul\":19967:20063   */\n      swap1\n      pop\n        /* \"#utility.yul\":20073:20145   */\n      tag_507\n        /* \"#utility.yul\":20141:20143   */\n      0x40\n        /* \"#utility.yul\":20130:20139   */\n      dup4\n        /* \"#utility.yul\":20126:20144   */\n      add\n        /* \"#utility.yul\":20117:20123   */\n      dup5\n        /* \"#utility.yul\":20073:20145   */\n      tag_269\n      jump\t// in\n    tag_507:\n        /* \"#utility.yul\":19488:20152   */\n      swap7\n      swap6\n      pop\n      pop\n      pop\n      pop\n      pop\n      pop\n      jump\t// out\n        /* \"#utility.yul\":20158:20276   */\n    tag_301:\n        /* \"#utility.yul\":20245:20269   */\n      tag_509\n        /* \"#utility.yul\":20263:20268   */\n      dup2\n        /* \"#utility.yul\":20245:20269   */\n      tag_257\n      jump\t// in\n    tag_509:\n        /* \"#utility.yul\":20240:20243   */\n      dup3\n        /* \"#utility.yul\":20233:20270   */\n      mstore\n        /* \"#utility.yul\":20158:20276   */\n      pop\n      pop\n      jump\t// out\n        /* \"#utility.yul\":20282:20614   */\n    tag_207:\n        /* \"#utility.yul\":20403:20407   */\n      0x00\n        /* \"#utility.yul\":20441:20443   */\n      0x40\n        /* \"#utility.yul\":20430:20439   */\n      dup3\n        /* \"#utility.yul\":20426:20444   */\n      add\n        /* \"#utility.yul\":20418:20444   */\n      swap1\n      pop\n        /* \"#utility.yul\":20454:20525   */\n      tag_511\n        /* \"#utility.yul\":20522:20523   */\n      0x00\n        /* \"#utility.yul\":20511:20520   */\n      dup4\n        /* \"#utility.yul\":20507:20524   */\n      add\n        /* \"#utility.yul\":20498:20504   */\n      dup6\n        /* \"#utility.yul\":20454:20525   */\n      tag_301\n      jump\t// in\n    tag_511:\n        /* \"#utility.yul\":20535:20607   */\n      tag_512\n        /* \"#utility.yul\":20603:20605   */\n      0x20\n        /* \"#utility.yul\":20592:20601   */\n      dup4\n        /* \"#utility.yul\":20588:20606   */\n      add\n        /* \"#utility.yul\":20579:20585   */\n      dup5\n        /* \"#utility.yul\":20535:20607   */\n      tag_255\n      jump\t// in\n    tag_512:\n        /* \"#utility.yul\":20282:20614   */\n      swap4\n      swap3\n      pop\n      pop\n      pop\n      jump\t// out\n        /* \"#utility.yul\":20620:20800   */\n    tag_302:\n        /* \"#utility.yul\":20668:20745   */\n      0x4e487b7100000000000000000000000000000000000000000000000000000000\n        /* \"#utility.yul\":20665:20666   */\n      0x00\n        /* \"#utility.yul\":20658:20746   */\n      mstore\n        /* \"#utility.yul\":20765:20769   */\n      0x11\n        /* \"#utility.yul\":20762:20763   */\n      0x04\n        /* \"#utility.yul\":20755:20770   */\n      mstore\n        /* \"#utility.yul\":20789:20793   */\n      0x24\n        /* \"#utility.yul\":20786:20787   */\n      0x00\n        /* \"#utility.yul\":20779:20794   */\n      revert\n        /* \"#utility.yul\":20806:21000   */\n    tag_212:\n        /* \"#utility.yul\":20846:20850   */\n      0x00\n        /* \"#utility.yul\":20866:20886   */\n      tag_515\n        /* \"#utility.yul\":20884:20885   */\n      dup3\n        /* \"#utility.yul\":20866:20886   */\n      tag_266\n      jump\t// in\n    tag_515:\n        /* \"#utility.yul\":20861:20886   */\n      swap2\n      pop\n        /* \"#utility.yul\":20900:20920   */\n      tag_516\n        /* \"#utility.yul\":20918:20919   */\n      dup4\n        /* \"#utility.yul\":20900:20920   */\n      tag_266\n      jump\t// in\n    tag_516:\n        /* \"#utility.yul\":20895:20920   */\n      swap3\n      pop\n        /* \"#utility.yul\":20944:20945   */\n      dup3\n        /* \"#utility.yul\":20941:20942   */\n      dup3\n        /* \"#utility.yul\":20937:20946   */\n      sub\n        /* \"#utility.yul\":20929:20946   */\n      swap1\n      pop\n        /* \"#utility.yul\":20968:20969   */\n      dup2\n        /* \"#utility.yul\":20962:20966   */\n      dup2\n        /* \"#utility.yul\":20959:20970   */\n      gt\n        /* \"#utility.yul\":20956:20993   */\n      iszero\n      tag_517\n      jumpi\n        /* \"#utility.yul\":20973:20991   */\n      tag_518\n      tag_302\n      jump\t// in\n    tag_518:\n        /* \"#utility.yul\":20956:20993   */\n    tag_517:\n        /* \"#utility.yul\":20806:21000   */\n      swap3\n      swap2\n      pop\n      pop\n      jump\t// out\n        /* \"#utility.yul\":21006:21186   */\n    tag_217:\n        /* \"#utility.yul\":21054:21131   */\n      0x4e487b7100000000000000000000000000000000000000000000000000000000\n        /* \"#utility.yul\":21051:21052   */\n      0x00\n        /* \"#utility.yul\":21044:21132   */\n      mstore\n        /* \"#utility.yul\":21151:21155   */\n      0x32\n        /* \"#utility.yul\":21148:21149   */\n      0x04\n        /* \"#utility.yul\":21141:21156   */\n      mstore\n        /* \"#utility.yul\":21175:21179   */\n      0x24\n        /* \"#utility.yul\":21172:21173   */\n      0x00\n        /* \"#utility.yul\":21165:21180   */\n      revert\n        /* \"#utility.yul\":21192:21372   */\n    tag_224:\n        /* \"#utility.yul\":21240:21317   */\n      0x4e487b7100000000000000000000000000000000000000000000000000000000\n        /* \"#utility.yul\":21237:21238   */\n      0x00\n        /* \"#utility.yul\":21230:21318   */\n      mstore\n        /* \"#utility.yul\":21337:21341   */\n      0x31\n        /* \"#utility.yul\":21334:21335   */\n      0x04\n        /* \"#utility.yul\":21327:21342   */\n      mstore\n        /* \"#utility.yul\":21361:21365   */\n      0x24\n        /* \"#utility.yul\":21358:21359   */\n      0x00\n        /* \"#utility.yul\":21351:21366   */\n      revert\n\n    auxdata: 0xa26469706673582212205f35a90a11d05dcfc62c60047829b29db7c8b4a6441a3efcd2dae12c714d371e64736f6c634300081a0033\n}\n",
				"bytecode": {
					"linkReferences": {},
					"object": "608060405234801561000f575f80fd5b506100225f801b3361008a60201b60201c565b506100537fa49807205ce4d355092ef5a8a18f56e8913cf4a201fbe287825b095693c217753361008a60201b60201c565b506100847f922390b27f65d828a1f7695b2eaae33fd0be87496792afddba1d25446a8fcb913361008a60201b60201c565b506101e9565b5f61009b838361017f60201b60201c565b6101755760015f808581526020019081526020015f205f015f8473ffffffffffffffffffffffffffffffffffffffff1673ffffffffffffffffffffffffffffffffffffffff1681526020019081526020015f205f6101000a81548160ff0219169083151502179055506101126101e260201b60201c565b73ffffffffffffffffffffffffffffffffffffffff168273ffffffffffffffffffffffffffffffffffffffff16847f2f8788117e7eff1d82e926ec794901d17c78024a50270940304540a733656f0d60405160405180910390a460019050610179565b5f90505b92915050565b5f805f8481526020019081526020015f205f015f8373ffffffffffffffffffffffffffffffffffffffff1673ffffffffffffffffffffffffffffffffffffffff1681526020019081526020015f205f9054906101000a900460ff16905092915050565b5f33905090565b611bcd806101f65f395ff3fe608060405234801561000f575f80fd5b50600436106100fe575f3560e01c806375b238fc11610095578063b2bbde9111610064578063b2bbde91146102be578063b7c9b657146102ee578063d547741f1461030a578063dc0c932514610326576100fe565b806375b238fc1461023457806391d148541461025257806392cf055714610282578063a217fddf146102a0576100fe565b80632f2ff15d116100d15780632f2ff15d146101ae57806336568abe146101ca57806361cc0766146101e657806365f3537114610204576100fe565b806301ffc9a7146101025780630bef429b146101325780630cec5f621461014e578063248a9ca31461017e575b5f80fd5b61011c600480360381019061011791906110f6565b610342565b604051610129919061113b565b60405180910390f35b61014c60048036038101906101479190611187565b6103bb565b005b61016860048036038101906101639190611187565b6104c4565b604051610175919061113b565b60405180910390f35b61019860048036038101906101939190611187565b6104e0565b6040516101a591906111c1565b60405180910390f35b6101c860048036038101906101c39190611234565b6104fc565b005b6101e460048036038101906101df9190611234565b61051e565b005b6101ee610599565b6040516101fb91906111c1565b60405180910390f35b61021e60048036038101906102199190611187565b6105bd565b60405161022b9190611383565b60405180910390f35b61023c610778565b60405161024991906111c1565b60405180910390f35b61026c60048036038101906102679190611234565b61079c565b604051610279919061113b565b60405180910390f35b61028a6107ff565b60405161029791906113b2565b60405180910390f35b6102a861080f565b6040516102b591906111c1565b60405180910390f35b6102d860048036038101906102d391906113f5565b610815565b6040516102e591906111c1565b60405180910390f35b61030860048036038101906103039190611481565b610831565b005b610324600480360381019061031f9190611234565b610a1d565b005b610340600480360381019061033b9190611481565b610a3f565b005b5f7f7965db0b000000000000000000000000000000000000000000000000000000007bffffffffffffffffffffffffffffffffffffffffffffffffffffffff1916827bffffffffffffffffffffffffffffffffffffffffffffffffffffffff191614806103b457506103b382610b4b565b5b9050919050565b7fa49807205ce4d355092ef5a8a18f56e8913cf4a201fbe287825b095693c217756103e581610bb4565b6103f9826002610bc890919063ffffffff16565b610438576040517f08c379a000000000000000000000000000000000000000000000000000000000815260040161042f9061157e565b60405180910390fd5b60015f8381526020019081526020015f205f8082015f9055600182015f61045f9190611012565b600282015f61046e9190611012565b600382015f9055600482015f90555050610492826002610bdd90919063ffffffff16565b50817fdb285357396016c282675b7ceb7d91b2af02f76abd0755d82889ad45473cad3160405160405180910390a25050565b5f6104d9826002610bc890919063ffffffff16565b9050919050565b5f805f8381526020019081526020015f20600101549050919050565b610505826104e0565b61050e81610bb4565b6105188383610bf2565b50505050565b610526610cdb565b73ffffffffffffffffffffffffffffffffffffffff168173ffffffffffffffffffffffffffffffffffffffff161461058a576040517f6697b23200000000000000000000000000000000000000000000000000000000815260040160405180910390fd5b6105948282610ce2565b505050565b7f922390b27f65d828a1f7695b2eaae33fd0be87496792afddba1d25446a8fcb9181565b6105c561104f565b6105d9826002610bc890919063ffffffff16565b610618576040517f08c379a000000000000000000000000000000000000000000000000000000000815260040161060f9061157e565b60405180910390fd5b60015f8381526020019081526020015f206040518060a00160405290815f820154815260200160018201805461064d906115c9565b80601f0160208091040260200160405190810160405280929190818152602001828054610679906115c9565b80156106c45780601f1061069b576101008083540402835291602001916106c4565b820191905f5260205f20905b8154815290600101906020018083116106a757829003601f168201915b505050505081526020016002820180546106dd906115c9565b80601f0160208091040260200160405190810160405280929190818152602001828054610709906115c9565b80156107545780601f1061072b57610100808354040283529160200191610754565b820191905f5260205f20905b81548152906001019060200180831161073757829003601f168201915b50505050508152602001600382015481526020016004820154815250509050919050565b7fa49807205ce4d355092ef5a8a18f56e8913cf4a201fbe287825b095693c2177581565b5f805f8481526020019081526020015f205f015f8373ffffffffffffffffffffffffffffffffffffffff1673ffffffffffffffffffffffffffffffffffffffff1681526020019081526020015f205f9054906101000a900460ff16905092915050565b5f61080a6002610dcb565b905090565b5f801b81565b5f61082a826002610dde90919063ffffffff16565b9050919050565b7f922390b27f65d828a1f7695b2eaae33fd0be87496792afddba1d25446a8fcb9161085b81610bb4565b61086f876002610bc890919063ffffffff16565b156108af576040517f08c379a00000000000000000000000000000000000000000000000000000000081526004016108a690611643565b60405180910390fd5b5f8790506040518060a0016040528089815260200188888080601f0160208091040260200160405190810160405280939291908181526020018383808284375f81840152601f19601f82011690508083019250505050505050815260200186868080601f0160208091040260200160405190810160405280939291908181526020018383808284375f81840152601f19601f8201169050808301925050505050505081526020018481526020014281525060015f8381526020019081526020015f205f820151815f0155602082015181600101908161098e919061182b565b5060408201518160020190816109a4919061182b565b5060608201518160030155608082015181600401559050506109d0816002610df390919063ffffffff16565b50807fc26c06d0a750e5ef9d298410184d2aed566fea7f9e8110a053ecd3d89e3818ca888888888842604051610a0b96959493929190611934565b60405180910390a25050505050505050565b610a26826104e0565b610a2f81610bb4565b610a398383610ce2565b50505050565b7fa49807205ce4d355092ef5a8a18f56e8913cf4a201fbe287825b095693c21775610a6981610bb4565b610a7d876002610bc890919063ffffffff16565b610abc576040517f08c379a0000000000000000000000000000000000000000000000000000000008152600401610ab39061157e565b60405180910390fd5b5f60015f8981526020019081526020015f2090508686826001019182610ae3929190611993565b508484826002019182610af7929190611993565b50828160030181905550877ffb4650b1da15b98c9c4d8895e59f5d26456d866cac0ed1d6012a61d7bbebffb38888888888604051610b39959493929190611a60565b60405180910390a25050505050505050565b5f7f01ffc9a7000000000000000000000000000000000000000000000000000000007bffffffffffffffffffffffffffffffffffffffffffffffffffffffff1916827bffffffffffffffffffffffffffffffffffffffffffffffffffffffff1916149050919050565b610bc581610bc0610cdb565b610e08565b50565b5f610bd5835f0183610e59565b905092915050565b5f610bea835f0183610e79565b905092915050565b5f610bfd838361079c565b610cd15760015f808581526020019081526020015f205f015f8473ffffffffffffffffffffffffffffffffffffffff1673ffffffffffffffffffffffffffffffffffffffff1681526020019081526020015f205f6101000a81548160ff021916908315150217905550610c6e610cdb565b73ffffffffffffffffffffffffffffffffffffffff168273ffffffffffffffffffffffffffffffffffffffff16847f2f8788117e7eff1d82e926ec794901d17c78024a50270940304540a733656f0d60405160405180910390a460019050610cd5565b5f90505b92915050565b5f33905090565b5f610ced838361079c565b15610dc1575f805f8581526020019081526020015f205f015f8473ffffffffffffffffffffffffffffffffffffffff1673ffffffffffffffffffffffffffffffffffffffff1681526020019081526020015f205f6101000a81548160ff021916908315150217905550610d5e610cdb565b73ffffffffffffffffffffffffffffffffffffffff168273ffffffffffffffffffffffffffffffffffffffff16847ff6391f5c32d9c69d2a47ea670b442974b53935d1edc7fd64eb21e047a839171b60405160405180910390a460019050610dc5565b5f90505b92915050565b5f610dd7825f01610f75565b9050919050565b5f610deb835f0183610f84565b905092915050565b5f610e00835f0183610fab565b905092915050565b610e12828261079c565b610e555780826040517fe2517d3f000000000000000000000000000000000000000000000000000000008152600401610e4c929190611ab6565b60405180910390fd5b5050565b5f80836001015f8481526020019081526020015f20541415905092915050565b5f80836001015f8481526020019081526020015f205490505f8114610f6a575f600182610ea69190611b0a565b90505f6001865f0180549050610ebc9190611b0a565b9050808214610f22575f865f018281548110610edb57610eda611b3d565b5b905f5260205f200154905080875f018481548110610efc57610efb611b3d565b5b905f5260205f20018190555083876001015f8381526020019081526020015f2081905550505b855f01805480610f3557610f34611b6a565b5b600190038181905f5260205f20015f90559055856001015f8681526020019081526020015f205f905560019350505050610f6f565b5f9150505b92915050565b5f815f01805490509050919050565b5f825f018281548110610f9a57610f99611b3d565b5b905f5260205f200154905092915050565b5f610fb68383610e59565b61100857825f0182908060018154018082558091505060019003905f5260205f20015f9091909190915055825f0180549050836001015f8481526020019081526020015f20819055506001905061100c565b5f90505b92915050565b50805461101e906115c9565b5f825580601f1061102f575061104c565b601f0160209004905f5260205f209081019061104b919061107e565b5b50565b6040518060a001604052805f801916815260200160608152602001606081526020015f81526020015f81525090565b5b80821115611095575f815f90555060010161107f565b5090565b5f80fd5b5f80fd5b5f7fffffffff0000000000000000000000000000000000000000000000000000000082169050919050565b6110d5816110a1565b81146110df575f80fd5b50565b5f813590506110f0816110cc565b92915050565b5f6020828403121561110b5761110a611099565b5b5f611118848285016110e2565b91505092915050565b5f8115159050919050565b61113581611121565b82525050565b5f60208201905061114e5f83018461112c565b92915050565b5f819050919050565b61116681611154565b8114611170575f80fd5b50565b5f813590506111818161115d565b92915050565b5f6020828403121561119c5761119b611099565b5b5f6111a984828501611173565b91505092915050565b6111bb81611154565b82525050565b5f6020820190506111d45f8301846111b2565b92915050565b5f73ffffffffffffffffffffffffffffffffffffffff82169050919050565b5f611203826111da565b9050919050565b611213816111f9565b811461121d575f80fd5b50565b5f8135905061122e8161120a565b92915050565b5f806040838503121561124a57611249611099565b5b5f61125785828601611173565b925050602061126885828601611220565b9150509250929050565b61127b81611154565b82525050565b5f81519050919050565b5f82825260208201905092915050565b8281835e5f83830152505050565b5f601f19601f8301169050919050565b5f6112c382611281565b6112cd818561128b565b93506112dd81856020860161129b565b6112e6816112a9565b840191505092915050565b5f819050919050565b611303816112f1565b82525050565b5f60a083015f83015161131e5f860182611272565b506020830151848203602086015261133682826112b9565b9150506040830151848203604086015261135082826112b9565b915050606083015161136560608601826112fa565b50608083015161137860808601826112fa565b508091505092915050565b5f6020820190508181035f83015261139b8184611309565b905092915050565b6113ac816112f1565b82525050565b5f6020820190506113c55f8301846113a3565b92915050565b6113d4816112f1565b81146113de575f80fd5b50565b5f813590506113ef816113cb565b92915050565b5f6020828403121561140a57611409611099565b5b5f611417848285016113e1565b91505092915050565b5f80fd5b5f80fd5b5f80fd5b5f8083601f84011261144157611440611420565b5b8235905067ffffffffffffffff81111561145e5761145d611424565b5b60208301915083600182028301111561147a57611479611428565b5b9250929050565b5f805f805f806080878903121561149b5761149a611099565b5b5f6114a889828a01611173565b965050602087013567ffffffffffffffff8111156114c9576114c861109d565b5b6114d589828a0161142c565b9550955050604087013567ffffffffffffffff8111156114f8576114f761109d565b5b61150489828a0161142c565b9350935050606061151789828a016113e1565b9150509295509295509295565b5f82825260208201905092915050565b7f55706c6f61643a2046696c65206e6f7420666f756e64000000000000000000005f82015250565b5f611568601683611524565b915061157382611534565b602082019050919050565b5f6020820190508181035f8301526115958161155c565b9050919050565b7f4e487b71000000000000000000000000000000000000000000000000000000005f52602260045260245ffd5b5f60028204905060018216806115e057607f821691505b6020821081036115f3576115f261159c565b5b50919050565b7f55706c6f61643a2046696c6520616c72656164792075706c6f616465640000005f82015250565b5f61162d601d83611524565b9150611638826115f9565b602082019050919050565b5f6020820190508181035f83015261165a81611621565b9050919050565b7f4e487b71000000000000000000000000000000000000000000000000000000005f52604160045260245ffd5b5f819050815f5260205f209050919050565b5f6020601f8301049050919050565b5f82821b905092915050565b5f600883026116ea7fffffffffffffffffffffffffffffffffffffffffffffffffffffffffffffffff826116af565b6116f486836116af565b95508019841693508086168417925050509392505050565b5f819050919050565b5f61172f61172a611725846112f1565b61170c565b6112f1565b9050919050565b5f819050919050565b61174883611715565b61175c61175482611736565b8484546116bb565b825550505050565b5f90565b611770611764565b61177b81848461173f565b505050565b5b8181101561179e576117935f82611768565b600181019050611781565b5050565b601f8211156117e3576117b48161168e565b6117bd846116a0565b810160208510156117cc578190505b6117e06117d8856116a0565b830182611780565b50505b505050565b5f82821c905092915050565b5f6118035f19846008026117e8565b1980831691505092915050565b5f61181b83836117f4565b9150826002028217905092915050565b61183482611281565b67ffffffffffffffff81111561184d5761184c611661565b5b61185782546115c9565b6118628282856117a2565b5f60209050601f831160018114611893575f8415611881578287015190505b61188b8582611810565b8655506118f2565b601f1984166118a18661168e565b5f5b828110156118c8578489015182556001820191506020850194506020810190506118a3565b868310156118e557848901516118e1601f8916826117f4565b8355505b6001600288020188555050505b505050505050565b828183375f83830152505050565b5f6119138385611524565b93506119208385846118fa565b611929836112a9565b840190509392505050565b5f6080820190508181035f83015261194d81888a611908565b90508181036020830152611962818688611908565b905061197160408301856113a3565b61197e60608301846113a3565b979650505050505050565b5f82905092915050565b61199d8383611989565b67ffffffffffffffff8111156119b6576119b5611661565b5b6119c082546115c9565b6119cb8282856117a2565b5f601f8311600181146119f8575f84156119e6578287013590505b6119f08582611810565b865550611a57565b601f198416611a068661168e565b5f5b82811015611a2d57848901358255600182019150602085019450602081019050611a08565b86831015611a4a5784890135611a46601f8916826117f4565b8355505b6001600288020188555050505b50505050505050565b5f6060820190508181035f830152611a79818789611908565b90508181036020830152611a8e818587611908565b9050611a9d60408301846113a3565b9695505050505050565b611ab0816111f9565b82525050565b5f604082019050611ac95f830185611aa7565b611ad660208301846111b2565b9392505050565b7f4e487b71000000000000000000000000000000000000000000000000000000005f52601160045260245ffd5b5f611b14826112f1565b9150611b1f836112f1565b9250828203905081811115611b3757611b36611add565b5b92915050565b7f4e487b71000000000000000000000000000000000000000000000000000000005f52603260045260245ffd5b7f4e487b71000000000000000000000000000000000000000000000000000000005f52603160045260245ffdfea26469706673582212205f35a90a11d05dcfc62c60047829b29db7c8b4a6441a3efcd2dae12c714d371e64736f6c634300081a0033",
					"opcodes": "PUSH1 0x80 PUSH1 0x40 MSTORE CALLVALUE DUP1 ISZERO PUSH2 0xF JUMPI PUSH0 DUP1 REVERT JUMPDEST POP PUSH2 0x22 PUSH0 DUP1 SHL CALLER PUSH2 0x8A PUSH1 0x20 SHL PUSH1 0x20 SHR JUMP JUMPDEST POP PUSH2 0x53 PUSH32 0xA49807205CE4D355092EF5A8A18F56E8913CF4A201FBE287825B095693C21775 CALLER PUSH2 0x8A PUSH1 0x20 SHL PUSH1 0x20 SHR JUMP JUMPDEST POP PUSH2 0x84 PUSH32 0x922390B27F65D828A1F7695B2EAAE33FD0BE87496792AFDDBA1D25446A8FCB91 CALLER PUSH2 0x8A PUSH1 0x20 SHL PUSH1 0x20 SHR JUMP JUMPDEST POP PUSH2 0x1E9 JUMP JUMPDEST PUSH0 PUSH2 0x9B DUP4 DUP4 PUSH2 0x17F PUSH1 0x20 SHL PUSH1 0x20 SHR JUMP JUMPDEST PUSH2 0x175 JUMPI PUSH1 0x1 PUSH0 DUP1 DUP6 DUP2 MSTORE PUSH1 0x20 ADD SWAP1 DUP2 MSTORE PUSH1 0x20 ADD PUSH0 KECCAK256 PUSH0 ADD PUSH0 DUP5 PUSH20 0xFFFFFFFFFFFFFFFFFFFFFFFFFFFFFFFFFFFFFFFF AND PUSH20 0xFFFFFFFFFFFFFFFFFFFFFFFFFFFFFFFFFFFFFFFF AND DUP2 MSTORE PUSH1 0x20 ADD SWAP1 DUP2 MSTORE PUSH1 0x20 ADD PUSH0 KECCAK256 PUSH0 PUSH2 0x100 EXP DUP2 SLOAD DUP2 PUSH1 0xFF MUL NOT AND SWAP1 DUP4 ISZERO ISZERO MUL OR SWAP1 SSTORE POP PUSH2 0x112 PUSH2 0x1E2 PUSH1 0x20 SHL PUSH1 0x20 SHR JUMP JUMPDEST PUSH20 0xFFFFFFFFFFFFFFFFFFFFFFFFFFFFFFFFFFFFFFFF AND DUP3 PUSH20 0xFFFFFFFFFFFFFFFFFFFFFFFFFFFFFFFFFFFFFFFF AND DUP5 PUSH32 0x2F8788117E7EFF1D82E926EC794901D17C78024A50270940304540A733656F0D PUSH1 0x40 MLOAD PUSH1 0x40 MLOAD DUP1 SWAP2 SUB SWAP1 LOG4 PUSH1 0x1 SWAP1 POP PUSH2 0x179 JUMP JUMPDEST PUSH0 SWAP1 POP JUMPDEST SWAP3 SWAP2 POP POP JUMP JUMPDEST PUSH0 DUP1 PUSH0 DUP5 DUP2 MSTORE PUSH1 0x20 ADD SWAP1 DUP2 MSTORE PUSH1 0x20 ADD PUSH0 KECCAK256 PUSH0 ADD PUSH0 DUP4 PUSH20 0xFFFFFFFFFFFFFFFFFFFFFFFFFFFFFFFFFFFFFFFF AND PUSH20 0xFFFFFFFFFFFFFFFFFFFFFFFFFFFFFFFFFFFFFFFF AND DUP2 MSTORE PUSH1 0x20 ADD SWAP1 DUP2 MSTORE PUSH1 0x20 ADD PUSH0 KECCAK256 PUSH0 SWAP1 SLOAD SWAP1 PUSH2 0x100 EXP SWAP1 DIV PUSH1 0xFF AND SWAP1 POP SWAP3 SWAP2 POP POP JUMP JUMPDEST PUSH0 CALLER SWAP1 POP SWAP1 JUMP JUMPDEST PUSH2 0x1BCD DUP1 PUSH2 0x1F6 PUSH0 CODECOPY PUSH0 RETURN INVALID PUSH1 0x80 PUSH1 0x40 MSTORE CALLVALUE DUP1 ISZERO PUSH2 0xF JUMPI PUSH0 DUP1 REVERT JUMPDEST POP PUSH1 0x4 CALLDATASIZE LT PUSH2 0xFE JUMPI PUSH0 CALLDATALOAD PUSH1 0xE0 SHR DUP1 PUSH4 0x75B238FC GT PUSH2 0x95 JUMPI DUP1 PUSH4 0xB2BBDE91 GT PUSH2 0x64 JUMPI DUP1 PUSH4 0xB2BBDE91 EQ PUSH2 0x2BE JUMPI DUP1 PUSH4 0xB7C9B657 EQ PUSH2 0x2EE JUMPI DUP1 PUSH4 0xD547741F EQ PUSH2 0x30A JUMPI DUP1 PUSH4 0xDC0C9325 EQ PUSH2 0x326 JUMPI PUSH2 0xFE JUMP JUMPDEST DUP1 PUSH4 0x75B238FC EQ PUSH2 0x234 JUMPI DUP1 PUSH4 0x91D14854 EQ PUSH2 0x252 JUMPI DUP1 PUSH4 0x92CF0557 EQ PUSH2 0x282 JUMPI DUP1 PUSH4 0xA217FDDF EQ PUSH2 0x2A0 JUMPI PUSH2 0xFE JUMP JUMPDEST DUP1 PUSH4 0x2F2FF15D GT PUSH2 0xD1 JUMPI DUP1 PUSH4 0x2F2FF15D EQ PUSH2 0x1AE JUMPI DUP1 PUSH4 0x36568ABE EQ PUSH2 0x1CA JUMPI DUP1 PUSH4 0x61CC0766 EQ PUSH2 0x1E6 JUMPI DUP1 PUSH4 0x65F35371 EQ PUSH2 0x204 JUMPI PUSH2 0xFE JUMP JUMPDEST DUP1 PUSH4 0x1FFC9A7 EQ PUSH2 0x102 JUMPI DUP1 PUSH4 0xBEF429B EQ PUSH2 0x132 JUMPI DUP1 PUSH4 0xCEC5F62 EQ PUSH2 0x14E JUMPI DUP1 PUSH4 0x248A9CA3 EQ PUSH2 0x17E JUMPI JUMPDEST PUSH0 DUP1 REVERT JUMPDEST PUSH2 0x11C PUSH1 0x4 DUP1 CALLDATASIZE SUB DUP2 ADD SWAP1 PUSH2 0x117 SWAP2 SWAP1 PUSH2 0x10F6 JUMP JUMPDEST PUSH2 0x342 JUMP JUMPDEST PUSH1 0x40 MLOAD PUSH2 0x129 SWAP2 SWAP1 PUSH2 0x113B JUMP JUMPDEST PUSH1 0x40 MLOAD DUP1 SWAP2 SUB SWAP1 RETURN JUMPDEST PUSH2 0x14C PUSH1 0x4 DUP1 CALLDATASIZE SUB DUP2 ADD SWAP1 PUSH2 0x147 SWAP2 SWAP1 PUSH2 0x1187 JUMP JUMPDEST PUSH2 0x3BB JUMP JUMPDEST STOP JUMPDEST PUSH2 0x168 PUSH1 0x4 DUP1 CALLDATASIZE SUB DUP2 ADD SWAP1 PUSH2 0x163 SWAP2 SWAP1 PUSH2 0x1187 JUMP JUMPDEST PUSH2 0x4C4 JUMP JUMPDEST PUSH1 0x40 MLOAD PUSH2 0x175 SWAP2 SWAP1 PUSH2 0x113B JUMP JUMPDEST PUSH1 0x40 MLOAD DUP1 SWAP2 SUB SWAP1 RETURN JUMPDEST PUSH2 0x198 PUSH1 0x4 DUP1 CALLDATASIZE SUB DUP2 ADD SWAP1 PUSH2 0x193 SWAP2 SWAP1 PUSH2 0x1187 JUMP JUMPDEST PUSH2 0x4E0 JUMP JUMPDEST PUSH1 0x40 MLOAD PUSH2 0x1A5 SWAP2 SWAP1 PUSH2 0x11C1 JUMP JUMPDEST PUSH1 0x40 MLOAD DUP1 SWAP2 SUB SWAP1 RETURN JUMPDEST PUSH2 0x1C8 PUSH1 0x4 DUP1 CALLDATASIZE SUB DUP2 ADD SWAP1 PUSH2 0x1C3 SWAP2 SWAP1 PUSH2 0x1234 JUMP JUMPDEST PUSH2 0x4FC JUMP JUMPDEST STOP JUMPDEST PUSH2 0x1E4 PUSH1 0x4 DUP1 CALLDATASIZE SUB DUP2 ADD SWAP1 PUSH2 0x1DF SWAP2 SWAP1 PUSH2 0x1234 JUMP JUMPDEST PUSH2 0x51E JUMP JUMPDEST STOP JUMPDEST PUSH2 0x1EE PUSH2 0x599 JUMP JUMPDEST PUSH1 0x40 MLOAD PUSH2 0x1FB SWAP2 SWAP1 PUSH2 0x11C1 JUMP JUMPDEST PUSH1 0x40 MLOAD DUP1 SWAP2 SUB SWAP1 RETURN JUMPDEST PUSH2 0x21E PUSH1 0x4 DUP1 CALLDATASIZE SUB DUP2 ADD SWAP1 PUSH2 0x219 SWAP2 SWAP1 PUSH2 0x1187 JUMP JUMPDEST PUSH2 0x5BD JUMP JUMPDEST PUSH1 0x40 MLOAD PUSH2 0x22B SWAP2 SWAP1 PUSH2 0x1383 JUMP JUMPDEST PUSH1 0x40 MLOAD DUP1 SWAP2 SUB SWAP1 RETURN JUMPDEST PUSH2 0x23C PUSH2 0x778 JUMP JUMPDEST PUSH1 0x40 MLOAD PUSH2 0x249 SWAP2 SWAP1 PUSH2 0x11C1 JUMP JUMPDEST PUSH1 0x40 MLOAD DUP1 SWAP2 SUB SWAP1 RETURN JUMPDEST PUSH2 0x26C PUSH1 0x4 DUP1 CALLDATASIZE SUB DUP2 ADD SWAP1 PUSH2 0x267 SWAP2 SWAP1 PUSH2 0x1234 JUMP JUMPDEST PUSH2 0x79C JUMP JUMPDEST PUSH1 0x40 MLOAD PUSH2 0x279 SWAP2 SWAP1 PUSH2 0x113B JUMP JUMPDEST PUSH1 0x40 MLOAD DUP1 SWAP2 SUB SWAP1 RETURN JUMPDEST PUSH2 0x28A PUSH2 0x7FF JUMP JUMPDEST PUSH1 0x40 MLOAD PUSH2 0x297 SWAP2 SWAP1 PUSH2 0x13B2 JUMP JUMPDEST PUSH1 0x40 MLOAD DUP1 SWAP2 SUB SWAP1 RETURN JUMPDEST PUSH2 0x2A8 PUSH2 0x80F JUMP JUMPDEST PUSH1 0x40 MLOAD PUSH2 0x2B5 SWAP2 SWAP1 PUSH2 0x11C1 JUMP JUMPDEST PUSH1 0x40 MLOAD DUP1 SWAP2 SUB SWAP1 RETURN JUMPDEST PUSH2 0x2D8 PUSH1 0x4 DUP1 CALLDATASIZE SUB DUP2 ADD SWAP1 PUSH2 0x2D3 SWAP2 SWAP1 PUSH2 0x13F5 JUMP JUMPDEST PUSH2 0x815 JUMP JUMPDEST PUSH1 0x40 MLOAD PUSH2 0x2E5 SWAP2 SWAP1 PUSH2 0x11C1 JUMP JUMPDEST PUSH1 0x40 MLOAD DUP1 SWAP2 SUB SWAP1 RETURN JUMPDEST PUSH2 0x308 PUSH1 0x4 DUP1 CALLDATASIZE SUB DUP2 ADD SWAP1 PUSH2 0x303 SWAP2 SWAP1 PUSH2 0x1481 JUMP JUMPDEST PUSH2 0x831 JUMP JUMPDEST STOP JUMPDEST PUSH2 0x324 PUSH1 0x4 DUP1 CALLDATASIZE SUB DUP2 ADD SWAP1 PUSH2 0x31F SWAP2 SWAP1 PUSH2 0x1234 JUMP JUMPDEST PUSH2 0xA1D JUMP JUMPDEST STOP JUMPDEST PUSH2 0x340 PUSH1 0x4 DUP1 CALLDATASIZE SUB DUP2 ADD SWAP1 PUSH2 0x33B SWAP2 SWAP1 PUSH2 0x1481 JUMP JUMPDEST PUSH2 0xA3F JUMP JUMPDEST STOP JUMPDEST PUSH0 PUSH32 0x7965DB0B00000000000000000000000000000000000000000000000000000000 PUSH28 0xFFFFFFFFFFFFFFFFFFFFFFFFFFFFFFFFFFFFFFFFFFFFFFFFFFFFFFFF NOT AND DUP3 PUSH28 0xFFFFFFFFFFFFFFFFFFFFFFFFFFFFFFFFFFFFFFFFFFFFFFFFFFFFFFFF NOT AND EQ DUP1 PUSH2 0x3B4 JUMPI POP PUSH2 0x3B3 DUP3 PUSH2 0xB4B JUMP JUMPDEST JUMPDEST SWAP1 POP SWAP2 SWAP1 POP JUMP JUMPDEST PUSH32 0xA49807205CE4D355092EF5A8A18F56E8913CF4A201FBE287825B095693C21775 PUSH2 0x3E5 DUP2 PUSH2 0xBB4 JUMP JUMPDEST PUSH2 0x3F9 DUP3 PUSH1 0x2 PUSH2 0xBC8 SWAP1 SWAP2 SWAP1 PUSH4 0xFFFFFFFF AND JUMP JUMPDEST PUSH2 0x438 JUMPI PUSH1 0x40 MLOAD PUSH32 0x8C379A000000000000000000000000000000000000000000000000000000000 DUP2 MSTORE PUSH1 0x4 ADD PUSH2 0x42F SWAP1 PUSH2 0x157E JUMP JUMPDEST PUSH1 0x40 MLOAD DUP1 SWAP2 SUB SWAP1 REVERT JUMPDEST PUSH1 0x1 PUSH0 DUP4 DUP2 MSTORE PUSH1 0x20 ADD SWAP1 DUP2 MSTORE PUSH1 0x20 ADD PUSH0 KECCAK256 PUSH0 DUP1 DUP3 ADD PUSH0 SWAP1 SSTORE PUSH1 0x1 DUP3 ADD PUSH0 PUSH2 0x45F SWAP2 SWAP1 PUSH2 0x1012 JUMP JUMPDEST PUSH1 0x2 DUP3 ADD PUSH0 PUSH2 0x46E SWAP2 SWAP1 PUSH2 0x1012 JUMP JUMPDEST PUSH1 0x3 DUP3 ADD PUSH0 SWAP1 SSTORE PUSH1 0x4 DUP3 ADD PUSH0 SWAP1 SSTORE POP POP PUSH2 0x492 DUP3 PUSH1 0x2 PUSH2 0xBDD SWAP1 SWAP2 SWAP1 PUSH4 0xFFFFFFFF AND JUMP JUMPDEST POP DUP2 PUSH32 0xDB285357396016C282675B7CEB7D91B2AF02F76ABD0755D82889AD45473CAD31 PUSH1 0x40 MLOAD PUSH1 0x40 MLOAD DUP1 SWAP2 SUB SWAP1 LOG2 POP POP JUMP JUMPDEST PUSH0 PUSH2 0x4D9 DUP3 PUSH1 0x2 PUSH2 0xBC8 SWAP1 SWAP2 SWAP1 PUSH4 0xFFFFFFFF AND JUMP JUMPDEST SWAP1 POP SWAP2 SWAP1 POP JUMP JUMPDEST PUSH0 DUP1 PUSH0 DUP4 DUP2 MSTORE PUSH1 0x20 ADD SWAP1 DUP2 MSTORE PUSH1 0x20 ADD PUSH0 KECCAK256 PUSH1 0x1 ADD SLOAD SWAP1 POP SWAP2 SWAP1 POP JUMP JUMPDEST PUSH2 0x505 DUP3 PUSH2 0x4E0 JUMP JUMPDEST PUSH2 0x50E DUP2 PUSH2 0xBB4 JUMP JUMPDEST PUSH2 0x518 DUP4 DUP4 PUSH2 0xBF2 JUMP JUMPDEST POP POP POP POP JUMP JUMPDEST PUSH2 0x526 PUSH2 0xCDB JUMP JUMPDEST PUSH20 0xFFFFFFFFFFFFFFFFFFFFFFFFFFFFFFFFFFFFFFFF AND DUP2 PUSH20 0xFFFFFFFFFFFFFFFFFFFFFFFFFFFFFFFFFFFFFFFF AND EQ PUSH2 0x58A JUMPI PUSH1 0x40 MLOAD PUSH32 0x6697B23200000000000000000000000000000000000000000000000000000000 DUP2 MSTORE PUSH1 0x4 ADD PUSH1 0x40 MLOAD DUP1 SWAP2 SUB SWAP1 REVERT JUMPDEST PUSH2 0x594 DUP3 DUP3 PUSH2 0xCE2 JUMP JUMPDEST POP POP POP JUMP JUMPDEST PUSH32 0x922390B27F65D828A1F7695B2EAAE33FD0BE87496792AFDDBA1D25446A8FCB91 DUP2 JUMP JUMPDEST PUSH2 0x5C5 PUSH2 0x104F JUMP JUMPDEST PUSH2 0x5D9 DUP3 PUSH1 0x2 PUSH2 0xBC8 SWAP1 SWAP2 SWAP1 PUSH4 0xFFFFFFFF AND JUMP JUMPDEST PUSH2 0x618 JUMPI PUSH1 0x40 MLOAD PUSH32 0x8C379A000000000000000000000000000000000000000000000000000000000 DUP2 MSTORE PUSH1 0x4 ADD PUSH2 0x60F SWAP1 PUSH2 0x157E JUMP JUMPDEST PUSH1 0x40 MLOAD DUP1 SWAP2 SUB SWAP1 REVERT JUMPDEST PUSH1 0x1 PUSH0 DUP4 DUP2 MSTORE PUSH1 0x20 ADD SWAP1 DUP2 MSTORE PUSH1 0x20 ADD PUSH0 KECCAK256 PUSH1 0x40 MLOAD DUP1 PUSH1 0xA0 ADD PUSH1 0x40 MSTORE SWAP1 DUP2 PUSH0 DUP3 ADD SLOAD DUP2 MSTORE PUSH1 0x20 ADD PUSH1 0x1 DUP3 ADD DUP1 SLOAD PUSH2 0x64D SWAP1 PUSH2 0x15C9 JUMP JUMPDEST DUP1 PUSH1 0x1F ADD PUSH1 0x20 DUP1 SWAP2 DIV MUL PUSH1 0x20 ADD PUSH1 0x40 MLOAD SWAP1 DUP2 ADD PUSH1 0x40 MSTORE DUP1 SWAP3 SWAP2 SWAP1 DUP2 DUP2 MSTORE PUSH1 0x20 ADD DUP3 DUP1 SLOAD PUSH2 0x679 SWAP1 PUSH2 0x15C9 JUMP JUMPDEST DUP1 ISZERO PUSH2 0x6C4 JUMPI DUP1 PUSH1 0x1F LT PUSH2 0x69B JUMPI PUSH2 0x100 DUP1 DUP4 SLOAD DIV MUL DUP4 MSTORE SWAP2 PUSH1 0x20 ADD SWAP2 PUSH2 0x6C4 JUMP JUMPDEST DUP3 ADD SWAP2 SWAP1 PUSH0 MSTORE PUSH1 0x20 PUSH0 KECCAK256 SWAP1 JUMPDEST DUP2 SLOAD DUP2 MSTORE SWAP1 PUSH1 0x1 ADD SWAP1 PUSH1 0x20 ADD DUP1 DUP4 GT PUSH2 0x6A7 JUMPI DUP3 SWAP1 SUB PUSH1 0x1F AND DUP3 ADD SWAP2 JUMPDEST POP POP POP POP POP DUP2 MSTORE PUSH1 0x20 ADD PUSH1 0x2 DUP3 ADD DUP1 SLOAD PUSH2 0x6DD SWAP1 PUSH2 0x15C9 JUMP JUMPDEST DUP1 PUSH1 0x1F ADD PUSH1 0x20 DUP1 SWAP2 DIV MUL PUSH1 0x20 ADD PUSH1 0x40 MLOAD SWAP1 DUP2 ADD PUSH1 0x40 MSTORE DUP1 SWAP3 SWAP2 SWAP1 DUP2 DUP2 MSTORE PUSH1 0x20 ADD DUP3 DUP1 SLOAD PUSH2 0x709 SWAP1 PUSH2 0x15C9 JUMP JUMPDEST DUP1 ISZERO PUSH2 0x754 JUMPI DUP1 PUSH1 0x1F LT PUSH2 0x72B JUMPI PUSH2 0x100 DUP1 DUP4 SLOAD DIV MUL DUP4 MSTORE SWAP2 PUSH1 0x20 ADD SWAP2 PUSH2 0x754 JUMP JUMPDEST DUP3 ADD SWAP2 SWAP1 PUSH0 MSTORE PUSH1 0x20 PUSH0 KECCAK256 SWAP1 JUMPDEST DUP2 SLOAD DUP2 MSTORE SWAP1 PUSH1 0x1 ADD SWAP1 PUSH1 0x20 ADD DUP1 DUP4 GT PUSH2 0x737 JUMPI DUP3 SWAP1 SUB PUSH1 0x1F AND DUP3 ADD SWAP2 JUMPDEST POP POP POP POP POP DUP2 MSTORE PUSH1 0x20 ADD PUSH1 0x3 DUP3 ADD SLOAD DUP2 MSTORE PUSH1 0x20 ADD PUSH1 0x4 DUP3 ADD SLOAD DUP2 MSTORE POP POP SWAP1 POP SWAP2 SWAP1 POP JUMP JUMPDEST PUSH32 0xA49807205CE4D355092EF5A8A18F56E8913CF4A201FBE287825B095693C21775 DUP2 JUMP JUMPDEST PUSH0 DUP1 PUSH0 DUP5 DUP2 MSTORE PUSH1 0x20 ADD SWAP1 DUP2 MSTORE PUSH1 0x20 ADD PUSH0 KECCAK256 PUSH0 ADD PUSH0 DUP4 PUSH20 0xFFFFFFFFFFFFFFFFFFFFFFFFFFFFFFFFFFFFFFFF AND PUSH20 0xFFFFFFFFFFFFFFFFFFFFFFFFFFFFFFFFFFFFFFFF AND DUP2 MSTORE PUSH1 0x20 ADD SWAP1 DUP2 MSTORE PUSH1 0x20 ADD PUSH0 KECCAK256 PUSH0 SWAP1 SLOAD SWAP1 PUSH2 0x100 EXP SWAP1 DIV PUSH1 0xFF AND SWAP1 POP SWAP3 SWAP2 POP POP JUMP JUMPDEST PUSH0 PUSH2 0x80A PUSH1 0x2 PUSH2 0xDCB JUMP JUMPDEST SWAP1 POP SWAP1 JUMP JUMPDEST PUSH0 DUP1 SHL DUP2 JUMP JUMPDEST PUSH0 PUSH2 0x82A DUP3 PUSH1 0x2 PUSH2 0xDDE SWAP1 SWAP2 SWAP1 PUSH4 0xFFFFFFFF AND JUMP JUMPDEST SWAP1 POP SWAP2 SWAP1 POP JUMP JUMPDEST PUSH32 0x922390B27F65D828A1F7695B2EAAE33FD0BE87496792AFDDBA1D25446A8FCB91 PUSH2 0x85B DUP2 PUSH2 0xBB4 JUMP JUMPDEST PUSH2 0x86F DUP8 PUSH1 0x2 PUSH2 0xBC8 SWAP1 SWAP2 SWAP1 PUSH4 0xFFFFFFFF AND JUMP JUMPDEST ISZERO PUSH2 0x8AF JUMPI PUSH1 0x40 MLOAD PUSH32 0x8C379A000000000000000000000000000000000000000000000000000000000 DUP2 MSTORE PUSH1 0x4 ADD PUSH2 0x8A6 SWAP1 PUSH2 0x1643 JUMP JUMPDEST PUSH1 0x40 MLOAD DUP1 SWAP2 SUB SWAP1 REVERT JUMPDEST PUSH0 DUP8 SWAP1 POP PUSH1 0x40 MLOAD DUP1 PUSH1 0xA0 ADD PUSH1 0x40 MSTORE DUP1 DUP10 DUP2 MSTORE PUSH1 0x20 ADD DUP9 DUP9 DUP1 DUP1 PUSH1 0x1F ADD PUSH1 0x20 DUP1 SWAP2 DIV MUL PUSH1 0x20 ADD PUSH1 0x40 MLOAD SWAP1 DUP2 ADD PUSH1 0x40 MSTORE DUP1 SWAP4 SWAP3 SWAP2 SWAP1 DUP2 DUP2 MSTORE PUSH1 0x20 ADD DUP4 DUP4 DUP1 DUP3 DUP5 CALLDATACOPY PUSH0 DUP2 DUP5 ADD MSTORE PUSH1 0x1F NOT PUSH1 0x1F DUP3 ADD AND SWAP1 POP DUP1 DUP4 ADD SWAP3 POP POP POP POP POP POP POP DUP2 MSTORE PUSH1 0x20 ADD DUP7 DUP7 DUP1 DUP1 PUSH1 0x1F ADD PUSH1 0x20 DUP1 SWAP2 DIV MUL PUSH1 0x20 ADD PUSH1 0x40 MLOAD SWAP1 DUP2 ADD PUSH1 0x40 MSTORE DUP1 SWAP4 SWAP3 SWAP2 SWAP1 DUP2 DUP2 MSTORE PUSH1 0x20 ADD DUP4 DUP4 DUP1 DUP3 DUP5 CALLDATACOPY PUSH0 DUP2 DUP5 ADD MSTORE PUSH1 0x1F NOT PUSH1 0x1F DUP3 ADD AND SWAP1 POP DUP1 DUP4 ADD SWAP3 POP POP POP POP POP POP POP DUP2 MSTORE PUSH1 0x20 ADD DUP5 DUP2 MSTORE PUSH1 0x20 ADD TIMESTAMP DUP2 MSTORE POP PUSH1 0x1 PUSH0 DUP4 DUP2 MSTORE PUSH1 0x20 ADD SWAP1 DUP2 MSTORE PUSH1 0x20 ADD PUSH0 KECCAK256 PUSH0 DUP3 ADD MLOAD DUP2 PUSH0 ADD SSTORE PUSH1 0x20 DUP3 ADD MLOAD DUP2 PUSH1 0x1 ADD SWAP1 DUP2 PUSH2 0x98E SWAP2 SWAP1 PUSH2 0x182B JUMP JUMPDEST POP PUSH1 0x40 DUP3 ADD MLOAD DUP2 PUSH1 0x2 ADD SWAP1 DUP2 PUSH2 0x9A4 SWAP2 SWAP1 PUSH2 0x182B JUMP JUMPDEST POP PUSH1 0x60 DUP3 ADD MLOAD DUP2 PUSH1 0x3 ADD SSTORE PUSH1 0x80 DUP3 ADD MLOAD DUP2 PUSH1 0x4 ADD SSTORE SWAP1 POP POP PUSH2 0x9D0 DUP2 PUSH1 0x2 PUSH2 0xDF3 SWAP1 SWAP2 SWAP1 PUSH4 0xFFFFFFFF AND JUMP JUMPDEST POP DUP1 PUSH32 0xC26C06D0A750E5EF9D298410184D2AED566FEA7F9E8110A053ECD3D89E3818CA DUP9 DUP9 DUP9 DUP9 DUP9 TIMESTAMP PUSH1 0x40 MLOAD PUSH2 0xA0B SWAP7 SWAP6 SWAP5 SWAP4 SWAP3 SWAP2 SWAP1 PUSH2 0x1934 JUMP JUMPDEST PUSH1 0x40 MLOAD DUP1 SWAP2 SUB SWAP1 LOG2 POP POP POP POP POP POP POP POP JUMP JUMPDEST PUSH2 0xA26 DUP3 PUSH2 0x4E0 JUMP JUMPDEST PUSH2 0xA2F DUP2 PUSH2 0xBB4 JUMP JUMPDEST PUSH2 0xA39 DUP4 DUP4 PUSH2 0xCE2 JUMP JUMPDEST POP POP POP POP JUMP JUMPDEST PUSH32 0xA49807205CE4D355092EF5A8A18F56E8913CF4A201FBE287825B095693C21775 PUSH2 0xA69 DUP2 PUSH2 0xBB4 JUMP JUMPDEST PUSH2 0xA7D DUP8 PUSH1 0x2 PUSH2 0xBC8 SWAP1 SWAP2 SWAP1 PUSH4 0xFFFFFFFF AND JUMP JUMPDEST PUSH2 0xABC JUMPI PUSH1 0x40 MLOAD PUSH32 0x8C379A000000000000000000000000000000000000000000000000000000000 DUP2 MSTORE PUSH1 0x4 ADD PUSH2 0xAB3 SWAP1 PUSH2 0x157E JUMP JUMPDEST PUSH1 0x40 MLOAD DUP1 SWAP2 SUB SWAP1 REVERT JUMPDEST PUSH0 PUSH1 0x1 PUSH0 DUP10 DUP2 MSTORE PUSH1 0x20 ADD SWAP1 DUP2 MSTORE PUSH1 0x20 ADD PUSH0 KECCAK256 SWAP1 POP DUP7 DUP7 DUP3 PUSH1 0x1 ADD SWAP2 DUP3 PUSH2 0xAE3 SWAP3 SWAP2 SWAP1 PUSH2 0x1993 JUMP JUMPDEST POP DUP5 DUP5 DUP3 PUSH1 0x2 ADD SWAP2 DUP3 PUSH2 0xAF7 SWAP3 SWAP2 SWAP1 PUSH2 0x1993 JUMP JUMPDEST POP DUP3 DUP2 PUSH1 0x3 ADD DUP2 SWAP1 SSTORE POP DUP8 PUSH32 0xFB4650B1DA15B98C9C4D8895E59F5D26456D866CAC0ED1D6012A61D7BBEBFFB3 DUP9 DUP9 DUP9 DUP9 DUP9 PUSH1 0x40 MLOAD PUSH2 0xB39 SWAP6 SWAP5 SWAP4 SWAP3 SWAP2 SWAP1 PUSH2 0x1A60 JUMP JUMPDEST PUSH1 0x40 MLOAD DUP1 SWAP2 SUB SWAP1 LOG2 POP POP POP POP POP POP POP POP JUMP JUMPDEST PUSH0 PUSH32 0x1FFC9A700000000000000000000000000000000000000000000000000000000 PUSH28 0xFFFFFFFFFFFFFFFFFFFFFFFFFFFFFFFFFFFFFFFFFFFFFFFFFFFFFFFF NOT AND DUP3 PUSH28 0xFFFFFFFFFFFFFFFFFFFFFFFFFFFFFFFFFFFFFFFFFFFFFFFFFFFFFFFF NOT AND EQ SWAP1 POP SWAP2 SWAP1 POP JUMP JUMPDEST PUSH2 0xBC5 DUP2 PUSH2 0xBC0 PUSH2 0xCDB JUMP JUMPDEST PUSH2 0xE08 JUMP JUMPDEST POP JUMP JUMPDEST PUSH0 PUSH2 0xBD5 DUP4 PUSH0 ADD DUP4 PUSH2 0xE59 JUMP JUMPDEST SWAP1 POP SWAP3 SWAP2 POP POP JUMP JUMPDEST PUSH0 PUSH2 0xBEA DUP4 PUSH0 ADD DUP4 PUSH2 0xE79 JUMP JUMPDEST SWAP1 POP SWAP3 SWAP2 POP POP JUMP JUMPDEST PUSH0 PUSH2 0xBFD DUP4 DUP4 PUSH2 0x79C JUMP JUMPDEST PUSH2 0xCD1 JUMPI PUSH1 0x1 PUSH0 DUP1 DUP6 DUP2 MSTORE PUSH1 0x20 ADD SWAP1 DUP2 MSTORE PUSH1 0x20 ADD PUSH0 KECCAK256 PUSH0 ADD PUSH0 DUP5 PUSH20 0xFFFFFFFFFFFFFFFFFFFFFFFFFFFFFFFFFFFFFFFF AND PUSH20 0xFFFFFFFFFFFFFFFFFFFFFFFFFFFFFFFFFFFFFFFF AND DUP2 MSTORE PUSH1 0x20 ADD SWAP1 DUP2 MSTORE PUSH1 0x20 ADD PUSH0 KECCAK256 PUSH0 PUSH2 0x100 EXP DUP2 SLOAD DUP2 PUSH1 0xFF MUL NOT AND SWAP1 DUP4 ISZERO ISZERO MUL OR SWAP1 SSTORE POP PUSH2 0xC6E PUSH2 0xCDB JUMP JUMPDEST PUSH20 0xFFFFFFFFFFFFFFFFFFFFFFFFFFFFFFFFFFFFFFFF AND DUP3 PUSH20 0xFFFFFFFFFFFFFFFFFFFFFFFFFFFFFFFFFFFFFFFF AND DUP5 PUSH32 0x2F8788117E7EFF1D82E926EC794901D17C78024A50270940304540A733656F0D PUSH1 0x40 MLOAD PUSH1 0x40 MLOAD DUP1 SWAP2 SUB SWAP1 LOG4 PUSH1 0x1 SWAP1 POP PUSH2 0xCD5 JUMP JUMPDEST PUSH0 SWAP1 POP JUMPDEST SWAP3 SWAP2 POP POP JUMP JUMPDEST PUSH0 CALLER SWAP1 POP SWAP1 JUMP JUMPDEST PUSH0 PUSH2 0xCED DUP4 DUP4 PUSH2 0x79C JUMP JUMPDEST ISZERO PUSH2 0xDC1 JUMPI PUSH0 DUP1 PUSH0 DUP6 DUP2 MSTORE PUSH1 0x20 ADD SWAP1 DUP2 MSTORE PUSH1 0x20 ADD PUSH0 KECCAK256 PUSH0 ADD PUSH0 DUP5 PUSH20 0xFFFFFFFFFFFFFFFFFFFFFFFFFFFFFFFFFFFFFFFF AND PUSH20 0xFFFFFFFFFFFFFFFFFFFFFFFFFFFFFFFFFFFFFFFF AND DUP2 MSTORE PUSH1 0x20 ADD SWAP1 DUP2 MSTORE PUSH1 0x20 ADD PUSH0 KECCAK256 PUSH0 PUSH2 0x100 EXP DUP2 SLOAD DUP2 PUSH1 0xFF MUL NOT AND SWAP1 DUP4 ISZERO ISZERO MUL OR SWAP1 SSTORE POP PUSH2 0xD5E PUSH2 0xCDB JUMP JUMPDEST PUSH20 0xFFFFFFFFFFFFFFFFFFFFFFFFFFFFFFFFFFFFFFFF AND DUP3 PUSH20 0xFFFFFFFFFFFFFFFFFFFFFFFFFFFFFFFFFFFFFFFF AND DUP5 PUSH32 0xF6391F5C32D9C69D2A47EA670B442974B53935D1EDC7FD64EB21E047A839171B PUSH1 0x40 MLOAD PUSH1 0x40 MLOAD DUP1 SWAP2 SUB SWAP1 LOG4 PUSH1 0x1 SWAP1 POP PUSH2 0xDC5 JUMP JUMPDEST PUSH0 SWAP1 POP JUMPDEST SWAP3 SWAP2 POP POP JUMP JUMPDEST PUSH0 PUSH2 0xDD7 DUP3 PUSH0 ADD PUSH2 0xF75 JUMP JUMPDEST SWAP1 POP SWAP2 SWAP1 POP JUMP JUMPDEST PUSH0 PUSH2 0xDEB DUP4 PUSH0 ADD DUP4 PUSH2 0xF84 JUMP JUMPDEST SWAP1 POP SWAP3 SWAP2 POP POP JUMP JUMPDEST PUSH0 PUSH2 0xE00 DUP4 PUSH0 ADD DUP4 PUSH2 0xFAB JUMP JUMPDEST SWAP1 POP SWAP3 SWAP2 POP POP JUMP JUMPDEST PUSH2 0xE12 DUP3 DUP3 PUSH2 0x79C JUMP JUMPDEST PUSH2 0xE55 JUMPI DUP1 DUP3 PUSH1 0x40 MLOAD PUSH32 0xE2517D3F00000000000000000000000000000000000000000000000000000000 DUP2 MSTORE PUSH1 0x4 ADD PUSH2 0xE4C SWAP3 SWAP2 SWAP1 PUSH2 0x1AB6 JUMP JUMPDEST PUSH1 0x40 MLOAD DUP1 SWAP2 SUB SWAP1 REVERT JUMPDEST POP POP JUMP JUMPDEST PUSH0 DUP1 DUP4 PUSH1 0x1 ADD PUSH0 DUP5 DUP2 MSTORE PUSH1 0x20 ADD SWAP1 DUP2 MSTORE PUSH1 0x20 ADD PUSH0 KECCAK256 SLOAD EQ ISZERO SWAP1 POP SWAP3 SWAP2 POP POP JUMP JUMPDEST PUSH0 DUP1 DUP4 PUSH1 0x1 ADD PUSH0 DUP5 DUP2 MSTORE PUSH1 0x20 ADD SWAP1 DUP2 MSTORE PUSH1 0x20 ADD PUSH0 KECCAK256 SLOAD SWAP1 POP PUSH0 DUP2 EQ PUSH2 0xF6A JUMPI PUSH0 PUSH1 0x1 DUP3 PUSH2 0xEA6 SWAP2 SWAP1 PUSH2 0x1B0A JUMP JUMPDEST SWAP1 POP PUSH0 PUSH1 0x1 DUP7 PUSH0 ADD DUP1 SLOAD SWAP1 POP PUSH2 0xEBC SWAP2 SWAP1 PUSH2 0x1B0A JUMP JUMPDEST SWAP1 POP DUP1 DUP3 EQ PUSH2 0xF22 JUMPI PUSH0 DUP7 PUSH0 ADD DUP3 DUP2 SLOAD DUP2 LT PUSH2 0xEDB JUMPI PUSH2 0xEDA PUSH2 0x1B3D JUMP JUMPDEST JUMPDEST SWAP1 PUSH0 MSTORE PUSH1 0x20 PUSH0 KECCAK256 ADD SLOAD SWAP1 POP DUP1 DUP8 PUSH0 ADD DUP5 DUP2 SLOAD DUP2 LT PUSH2 0xEFC JUMPI PUSH2 0xEFB PUSH2 0x1B3D JUMP JUMPDEST JUMPDEST SWAP1 PUSH0 MSTORE PUSH1 0x20 PUSH0 KECCAK256 ADD DUP2 SWAP1 SSTORE POP DUP4 DUP8 PUSH1 0x1 ADD PUSH0 DUP4 DUP2 MSTORE PUSH1 0x20 ADD SWAP1 DUP2 MSTORE PUSH1 0x20 ADD PUSH0 KECCAK256 DUP2 SWAP1 SSTORE POP POP JUMPDEST DUP6 PUSH0 ADD DUP1 SLOAD DUP1 PUSH2 0xF35 JUMPI PUSH2 0xF34 PUSH2 0x1B6A JUMP JUMPDEST JUMPDEST PUSH1 0x1 SWAP1 SUB DUP2 DUP2 SWAP1 PUSH0 MSTORE PUSH1 0x20 PUSH0 KECCAK256 ADD PUSH0 SWAP1 SSTORE SWAP1 SSTORE DUP6 PUSH1 0x1 ADD PUSH0 DUP7 DUP2 MSTORE PUSH1 0x20 ADD SWAP1 DUP2 MSTORE PUSH1 0x20 ADD PUSH0 KECCAK256 PUSH0 SWAP1 SSTORE PUSH1 0x1 SWAP4 POP POP POP POP PUSH2 0xF6F JUMP JUMPDEST PUSH0 SWAP2 POP POP JUMPDEST SWAP3 SWAP2 POP POP JUMP JUMPDEST PUSH0 DUP2 PUSH0 ADD DUP1 SLOAD SWAP1 POP SWAP1 POP SWAP2 SWAP1 POP JUMP JUMPDEST PUSH0 DUP3 PUSH0 ADD DUP3 DUP2 SLOAD DUP2 LT PUSH2 0xF9A JUMPI PUSH2 0xF99 PUSH2 0x1B3D JUMP JUMPDEST JUMPDEST SWAP1 PUSH0 MSTORE PUSH1 0x20 PUSH0 KECCAK256 ADD SLOAD SWAP1 POP SWAP3 SWAP2 POP POP JUMP JUMPDEST PUSH0 PUSH2 0xFB6 DUP4 DUP4 PUSH2 0xE59 JUMP JUMPDEST PUSH2 0x1008 JUMPI DUP3 PUSH0 ADD DUP3 SWAP1 DUP1 PUSH1 0x1 DUP2 SLOAD ADD DUP1 DUP3 SSTORE DUP1 SWAP2 POP POP PUSH1 0x1 SWAP1 SUB SWAP1 PUSH0 MSTORE PUSH1 0x20 PUSH0 KECCAK256 ADD PUSH0 SWAP1 SWAP2 SWAP1 SWAP2 SWAP1 SWAP2 POP SSTORE DUP3 PUSH0 ADD DUP1 SLOAD SWAP1 POP DUP4 PUSH1 0x1 ADD PUSH0 DUP5 DUP2 MSTORE PUSH1 0x20 ADD SWAP1 DUP2 MSTORE PUSH1 0x20 ADD PUSH0 KECCAK256 DUP2 SWAP1 SSTORE POP PUSH1 0x1 SWAP1 POP PUSH2 0x100C JUMP JUMPDEST PUSH0 SWAP1 POP JUMPDEST SWAP3 SWAP2 POP POP JUMP JUMPDEST POP DUP1 SLOAD PUSH2 0x101E SWAP1 PUSH2 0x15C9 JUMP JUMPDEST PUSH0 DUP3 SSTORE DUP1 PUSH1 0x1F LT PUSH2 0x102F JUMPI POP PUSH2 0x104C JUMP JUMPDEST PUSH1 0x1F ADD PUSH1 0x20 SWAP1 DIV SWAP1 PUSH0 MSTORE PUSH1 0x20 PUSH0 KECCAK256 SWAP1 DUP2 ADD SWAP1 PUSH2 0x104B SWAP2 SWAP1 PUSH2 0x107E JUMP JUMPDEST JUMPDEST POP JUMP JUMPDEST PUSH1 0x40 MLOAD DUP1 PUSH1 0xA0 ADD PUSH1 0x40 MSTORE DUP1 PUSH0 DUP1 NOT AND DUP2 MSTORE PUSH1 0x20 ADD PUSH1 0x60 DUP2 MSTORE PUSH1 0x20 ADD PUSH1 0x60 DUP2 MSTORE PUSH1 0x20 ADD PUSH0 DUP2 MSTORE PUSH1 0x20 ADD PUSH0 DUP2 MSTORE POP SWAP1 JUMP JUMPDEST JUMPDEST DUP1 DUP3 GT ISZERO PUSH2 0x1095 JUMPI PUSH0 DUP2 PUSH0 SWAP1 SSTORE POP PUSH1 0x1 ADD PUSH2 0x107F JUMP JUMPDEST POP SWAP1 JUMP JUMPDEST PUSH0 DUP1 REVERT JUMPDEST PUSH0 DUP1 REVERT JUMPDEST PUSH0 PUSH32 0xFFFFFFFF00000000000000000000000000000000000000000000000000000000 DUP3 AND SWAP1 POP SWAP2 SWAP1 POP JUMP JUMPDEST PUSH2 0x10D5 DUP2 PUSH2 0x10A1 JUMP JUMPDEST DUP2 EQ PUSH2 0x10DF JUMPI PUSH0 DUP1 REVERT JUMPDEST POP JUMP JUMPDEST PUSH0 DUP2 CALLDATALOAD SWAP1 POP PUSH2 0x10F0 DUP2 PUSH2 0x10CC JUMP JUMPDEST SWAP3 SWAP2 POP POP JUMP JUMPDEST PUSH0 PUSH1 0x20 DUP3 DUP5 SUB SLT ISZERO PUSH2 0x110B JUMPI PUSH2 0x110A PUSH2 0x1099 JUMP JUMPDEST JUMPDEST PUSH0 PUSH2 0x1118 DUP5 DUP3 DUP6 ADD PUSH2 0x10E2 JUMP JUMPDEST SWAP2 POP POP SWAP3 SWAP2 POP POP JUMP JUMPDEST PUSH0 DUP2 ISZERO ISZERO SWAP1 POP SWAP2 SWAP1 POP JUMP JUMPDEST PUSH2 0x1135 DUP2 PUSH2 0x1121 JUMP JUMPDEST DUP3 MSTORE POP POP JUMP JUMPDEST PUSH0 PUSH1 0x20 DUP3 ADD SWAP1 POP PUSH2 0x114E PUSH0 DUP4 ADD DUP5 PUSH2 0x112C JUMP JUMPDEST SWAP3 SWAP2 POP POP JUMP JUMPDEST PUSH0 DUP2 SWAP1 POP SWAP2 SWAP1 POP JUMP JUMPDEST PUSH2 0x1166 DUP2 PUSH2 0x1154 JUMP JUMPDEST DUP2 EQ PUSH2 0x1170 JUMPI PUSH0 DUP1 REVERT JUMPDEST POP JUMP JUMPDEST PUSH0 DUP2 CALLDATALOAD SWAP1 POP PUSH2 0x1181 DUP2 PUSH2 0x115D JUMP JUMPDEST SWAP3 SWAP2 POP POP JUMP JUMPDEST PUSH0 PUSH1 0x20 DUP3 DUP5 SUB SLT ISZERO PUSH2 0x119C JUMPI PUSH2 0x119B PUSH2 0x1099 JUMP JUMPDEST JUMPDEST PUSH0 PUSH2 0x11A9 DUP5 DUP3 DUP6 ADD PUSH2 0x1173 JUMP JUMPDEST SWAP2 POP POP SWAP3 SWAP2 POP POP JUMP JUMPDEST PUSH2 0x11BB DUP2 PUSH2 0x1154 JUMP JUMPDEST DUP3 MSTORE POP POP JUMP JUMPDEST PUSH0 PUSH1 0x20 DUP3 ADD SWAP1 POP PUSH2 0x11D4 PUSH0 DUP4 ADD DUP5 PUSH2 0x11B2 JUMP JUMPDEST SWAP3 SWAP2 POP POP JUMP JUMPDEST PUSH0 PUSH20 0xFFFFFFFFFFFFFFFFFFFFFFFFFFFFFFFFFFFFFFFF DUP3 AND SWAP1 POP SWAP2 SWAP1 POP JUMP JUMPDEST PUSH0 PUSH2 0x1203 DUP3 PUSH2 0x11DA JUMP JUMPDEST SWAP1 POP SWAP2 SWAP1 POP JUMP JUMPDEST PUSH2 0x1213 DUP2 PUSH2 0x11F9 JUMP JUMPDEST DUP2 EQ PUSH2 0x121D JUMPI PUSH0 DUP1 REVERT JUMPDEST POP JUMP JUMPDEST PUSH0 DUP2 CALLDATALOAD SWAP1 POP PUSH2 0x122E DUP2 PUSH2 0x120A JUMP JUMPDEST SWAP3 SWAP2 POP POP JUMP JUMPDEST PUSH0 DUP1 PUSH1 0x40 DUP4 DUP6 SUB SLT ISZERO PUSH2 0x124A JUMPI PUSH2 0x1249 PUSH2 0x1099 JUMP JUMPDEST JUMPDEST PUSH0 PUSH2 0x1257 DUP6 DUP3 DUP7 ADD PUSH2 0x1173 JUMP JUMPDEST SWAP3 POP POP PUSH1 0x20 PUSH2 0x1268 DUP6 DUP3 DUP7 ADD PUSH2 0x1220 JUMP JUMPDEST SWAP2 POP POP SWAP3 POP SWAP3 SWAP1 POP JUMP JUMPDEST PUSH2 0x127B DUP2 PUSH2 0x1154 JUMP JUMPDEST DUP3 MSTORE POP POP JUMP JUMPDEST PUSH0 DUP2 MLOAD SWAP1 POP SWAP2 SWAP1 POP JUMP JUMPDEST PUSH0 DUP3 DUP3 MSTORE PUSH1 0x20 DUP3 ADD SWAP1 POP SWAP3 SWAP2 POP POP JUMP JUMPDEST DUP3 DUP2 DUP4 MCOPY PUSH0 DUP4 DUP4 ADD MSTORE POP POP POP JUMP JUMPDEST PUSH0 PUSH1 0x1F NOT PUSH1 0x1F DUP4 ADD AND SWAP1 POP SWAP2 SWAP1 POP JUMP JUMPDEST PUSH0 PUSH2 0x12C3 DUP3 PUSH2 0x1281 JUMP JUMPDEST PUSH2 0x12CD DUP2 DUP6 PUSH2 0x128B JUMP JUMPDEST SWAP4 POP PUSH2 0x12DD DUP2 DUP6 PUSH1 0x20 DUP7 ADD PUSH2 0x129B JUMP JUMPDEST PUSH2 0x12E6 DUP2 PUSH2 0x12A9 JUMP JUMPDEST DUP5 ADD SWAP2 POP POP SWAP3 SWAP2 POP POP JUMP JUMPDEST PUSH0 DUP2 SWAP1 POP SWAP2 SWAP1 POP JUMP JUMPDEST PUSH2 0x1303 DUP2 PUSH2 0x12F1 JUMP JUMPDEST DUP3 MSTORE POP POP JUMP JUMPDEST PUSH0 PUSH1 0xA0 DUP4 ADD PUSH0 DUP4 ADD MLOAD PUSH2 0x131E PUSH0 DUP7 ADD DUP3 PUSH2 0x1272 JUMP JUMPDEST POP PUSH1 0x20 DUP4 ADD MLOAD DUP5 DUP3 SUB PUSH1 0x20 DUP7 ADD MSTORE PUSH2 0x1336 DUP3 DUP3 PUSH2 0x12B9 JUMP JUMPDEST SWAP2 POP POP PUSH1 0x40 DUP4 ADD MLOAD DUP5 DUP3 SUB PUSH1 0x40 DUP7 ADD MSTORE PUSH2 0x1350 DUP3 DUP3 PUSH2 0x12B9 JUMP JUMPDEST SWAP2 POP POP PUSH1 0x60 DUP4 ADD MLOAD PUSH2 0x1365 PUSH1 0x60 DUP7 ADD DUP3 PUSH2 0x12FA JUMP JUMPDEST POP PUSH1 0x80 DUP4 ADD MLOAD PUSH2 0x1378 PUSH1 0x80 DUP7 ADD DUP3 PUSH2 0x12FA JUMP JUMPDEST POP DUP1 SWAP2 POP POP SWAP3 SWAP2 POP POP JUMP JUMPDEST PUSH0 PUSH1 0x20 DUP3 ADD SWAP1 POP DUP2 DUP2 SUB PUSH0 DUP4 ADD MSTORE PUSH2 0x139B DUP2 DUP5 PUSH2 0x1309 JUMP JUMPDEST SWAP1 POP SWAP3 SWAP2 POP POP JUMP JUMPDEST PUSH2 0x13AC DUP2 PUSH2 0x12F1 JUMP JUMPDEST DUP3 MSTORE POP POP JUMP JUMPDEST PUSH0 PUSH1 0x20 DUP3 ADD SWAP1 POP PUSH2 0x13C5 PUSH0 DUP4 ADD DUP5 PUSH2 0x13A3 JUMP JUMPDEST SWAP3 SWAP2 POP POP JUMP JUMPDEST PUSH2 0x13D4 DUP2 PUSH2 0x12F1 JUMP JUMPDEST DUP2 EQ PUSH2 0x13DE JUMPI PUSH0 DUP1 REVERT JUMPDEST POP JUMP JUMPDEST PUSH0 DUP2 CALLDATALOAD SWAP1 POP PUSH2 0x13EF DUP2 PUSH2 0x13CB JUMP JUMPDEST SWAP3 SWAP2 POP POP JUMP JUMPDEST PUSH0 PUSH1 0x20 DUP3 DUP5 SUB SLT ISZERO PUSH2 0x140A JUMPI PUSH2 0x1409 PUSH2 0x1099 JUMP JUMPDEST JUMPDEST PUSH0 PUSH2 0x1417 DUP5 DUP3 DUP6 ADD PUSH2 0x13E1 JUMP JUMPDEST SWAP2 POP POP SWAP3 SWAP2 POP POP JUMP JUMPDEST PUSH0 DUP1 REVERT JUMPDEST PUSH0 DUP1 REVERT JUMPDEST PUSH0 DUP1 REVERT JUMPDEST PUSH0 DUP1 DUP4 PUSH1 0x1F DUP5 ADD SLT PUSH2 0x1441 JUMPI PUSH2 0x1440 PUSH2 0x1420 JUMP JUMPDEST JUMPDEST DUP3 CALLDATALOAD SWAP1 POP PUSH8 0xFFFFFFFFFFFFFFFF DUP2 GT ISZERO PUSH2 0x145E JUMPI PUSH2 0x145D PUSH2 0x1424 JUMP JUMPDEST JUMPDEST PUSH1 0x20 DUP4 ADD SWAP2 POP DUP4 PUSH1 0x1 DUP3 MUL DUP4 ADD GT ISZERO PUSH2 0x147A JUMPI PUSH2 0x1479 PUSH2 0x1428 JUMP JUMPDEST JUMPDEST SWAP3 POP SWAP3 SWAP1 POP JUMP JUMPDEST PUSH0 DUP1 PUSH0 DUP1 PUSH0 DUP1 PUSH1 0x80 DUP8 DUP10 SUB SLT ISZERO PUSH2 0x149B JUMPI PUSH2 0x149A PUSH2 0x1099 JUMP JUMPDEST JUMPDEST PUSH0 PUSH2 0x14A8 DUP10 DUP3 DUP11 ADD PUSH2 0x1173 JUMP JUMPDEST SWAP7 POP POP PUSH1 0x20 DUP8 ADD CALLDATALOAD PUSH8 0xFFFFFFFFFFFFFFFF DUP2 GT ISZERO PUSH2 0x14C9 JUMPI PUSH2 0x14C8 PUSH2 0x109D JUMP JUMPDEST JUMPDEST PUSH2 0x14D5 DUP10 DUP3 DUP11 ADD PUSH2 0x142C JUMP JUMPDEST SWAP6 POP SWAP6 POP POP PUSH1 0x40 DUP8 ADD CALLDATALOAD PUSH8 0xFFFFFFFFFFFFFFFF DUP2 GT ISZERO PUSH2 0x14F8 JUMPI PUSH2 0x14F7 PUSH2 0x109D JUMP JUMPDEST JUMPDEST PUSH2 0x1504 DUP10 DUP3 DUP11 ADD PUSH2 0x142C JUMP JUMPDEST SWAP4 POP SWAP4 POP POP PUSH1 0x60 PUSH2 0x1517 DUP10 DUP3 DUP11 ADD PUSH2 0x13E1 JUMP JUMPDEST SWAP2 POP POP SWAP3 SWAP6 POP SWAP3 SWAP6 POP SWAP3 SWAP6 JUMP JUMPDEST PUSH0 DUP3 DUP3 MSTORE PUSH1 0x20 DUP3 ADD SWAP1 POP SWAP3 SWAP2 POP POP JUMP JUMPDEST PUSH32 0x55706C6F61643A2046696C65206E6F7420666F756E6400000000000000000000 PUSH0 DUP3 ADD MSTORE POP JUMP JUMPDEST PUSH0 PUSH2 0x1568 PUSH1 0x16 DUP4 PUSH2 0x1524 JUMP JUMPDEST SWAP2 POP PUSH2 0x1573 DUP3 PUSH2 0x1534 JUMP JUMPDEST PUSH1 0x20 DUP3 ADD SWAP1 POP SWAP2 SWAP1 POP JUMP JUMPDEST PUSH0 PUSH1 0x20 DUP3 ADD SWAP1 POP DUP2 DUP2 SUB PUSH0 DUP4 ADD MSTORE PUSH2 0x1595 DUP2 PUSH2 0x155C JUMP JUMPDEST SWAP1 POP SWAP2 SWAP1 POP JUMP JUMPDEST PUSH32 0x4E487B7100000000000000000000000000000000000000000000000000000000 PUSH0 MSTORE PUSH1 0x22 PUSH1 0x4 MSTORE PUSH1 0x24 PUSH0 REVERT JUMPDEST PUSH0 PUSH1 0x2 DUP3 DIV SWAP1 POP PUSH1 0x1 DUP3 AND DUP1 PUSH2 0x15E0 JUMPI PUSH1 0x7F DUP3 AND SWAP2 POP JUMPDEST PUSH1 0x20 DUP3 LT DUP2 SUB PUSH2 0x15F3 JUMPI PUSH2 0x15F2 PUSH2 0x159C JUMP JUMPDEST JUMPDEST POP SWAP2 SWAP1 POP JUMP JUMPDEST PUSH32 0x55706C6F61643A2046696C6520616C72656164792075706C6F61646564000000 PUSH0 DUP3 ADD MSTORE POP JUMP JUMPDEST PUSH0 PUSH2 0x162D PUSH1 0x1D DUP4 PUSH2 0x1524 JUMP JUMPDEST SWAP2 POP PUSH2 0x1638 DUP3 PUSH2 0x15F9 JUMP JUMPDEST PUSH1 0x20 DUP3 ADD SWAP1 POP SWAP2 SWAP1 POP JUMP JUMPDEST PUSH0 PUSH1 0x20 DUP3 ADD SWAP1 POP DUP2 DUP2 SUB PUSH0 DUP4 ADD MSTORE PUSH2 0x165A DUP2 PUSH2 0x1621 JUMP JUMPDEST SWAP1 POP SWAP2 SWAP1 POP JUMP JUMPDEST PUSH32 0x4E487B7100000000000000000000000000000000000000000000000000000000 PUSH0 MSTORE PUSH1 0x41 PUSH1 0x4 MSTORE PUSH1 0x24 PUSH0 REVERT JUMPDEST PUSH0 DUP2 SWAP1 POP DUP2 PUSH0 MSTORE PUSH1 0x20 PUSH0 KECCAK256 SWAP1 POP SWAP2 SWAP1 POP JUMP JUMPDEST PUSH0 PUSH1 0x20 PUSH1 0x1F DUP4 ADD DIV SWAP1 POP SWAP2 SWAP1 POP JUMP JUMPDEST PUSH0 DUP3 DUP3 SHL SWAP1 POP SWAP3 SWAP2 POP POP JUMP JUMPDEST PUSH0 PUSH1 0x8 DUP4 MUL PUSH2 0x16EA PUSH32 0xFFFFFFFFFFFFFFFFFFFFFFFFFFFFFFFFFFFFFFFFFFFFFFFFFFFFFFFFFFFFFFFF DUP3 PUSH2 0x16AF JUMP JUMPDEST PUSH2 0x16F4 DUP7 DUP4 PUSH2 0x16AF JUMP JUMPDEST SWAP6 POP DUP1 NOT DUP5 AND SWAP4 POP DUP1 DUP7 AND DUP5 OR SWAP3 POP POP POP SWAP4 SWAP3 POP POP POP JUMP JUMPDEST PUSH0 DUP2 SWAP1 POP SWAP2 SWAP1 POP JUMP JUMPDEST PUSH0 PUSH2 0x172F PUSH2 0x172A PUSH2 0x1725 DUP5 PUSH2 0x12F1 JUMP JUMPDEST PUSH2 0x170C JUMP JUMPDEST PUSH2 0x12F1 JUMP JUMPDEST SWAP1 POP SWAP2 SWAP1 POP JUMP JUMPDEST PUSH0 DUP2 SWAP1 POP SWAP2 SWAP1 POP JUMP JUMPDEST PUSH2 0x1748 DUP4 PUSH2 0x1715 JUMP JUMPDEST PUSH2 0x175C PUSH2 0x1754 DUP3 PUSH2 0x1736 JUMP JUMPDEST DUP5 DUP5 SLOAD PUSH2 0x16BB JUMP JUMPDEST DUP3 SSTORE POP POP POP POP JUMP JUMPDEST PUSH0 SWAP1 JUMP JUMPDEST PUSH2 0x1770 PUSH2 0x1764 JUMP JUMPDEST PUSH2 0x177B DUP2 DUP5 DUP5 PUSH2 0x173F JUMP JUMPDEST POP POP POP JUMP JUMPDEST JUMPDEST DUP2 DUP2 LT ISZERO PUSH2 0x179E JUMPI PUSH2 0x1793 PUSH0 DUP3 PUSH2 0x1768 JUMP JUMPDEST PUSH1 0x1 DUP2 ADD SWAP1 POP PUSH2 0x1781 JUMP JUMPDEST POP POP JUMP JUMPDEST PUSH1 0x1F DUP3 GT ISZERO PUSH2 0x17E3 JUMPI PUSH2 0x17B4 DUP2 PUSH2 0x168E JUMP JUMPDEST PUSH2 0x17BD DUP5 PUSH2 0x16A0 JUMP JUMPDEST DUP2 ADD PUSH1 0x20 DUP6 LT ISZERO PUSH2 0x17CC JUMPI DUP2 SWAP1 POP JUMPDEST PUSH2 0x17E0 PUSH2 0x17D8 DUP6 PUSH2 0x16A0 JUMP JUMPDEST DUP4 ADD DUP3 PUSH2 0x1780 JUMP JUMPDEST POP POP JUMPDEST POP POP POP JUMP JUMPDEST PUSH0 DUP3 DUP3 SHR SWAP1 POP SWAP3 SWAP2 POP POP JUMP JUMPDEST PUSH0 PUSH2 0x1803 PUSH0 NOT DUP5 PUSH1 0x8 MUL PUSH2 0x17E8 JUMP JUMPDEST NOT DUP1 DUP4 AND SWAP2 POP POP SWAP3 SWAP2 POP POP JUMP JUMPDEST PUSH0 PUSH2 0x181B DUP4 DUP4 PUSH2 0x17F4 JUMP JUMPDEST SWAP2 POP DUP3 PUSH1 0x2 MUL DUP3 OR SWAP1 POP SWAP3 SWAP2 POP POP JUMP JUMPDEST PUSH2 0x1834 DUP3 PUSH2 0x1281 JUMP JUMPDEST PUSH8 0xFFFFFFFFFFFFFFFF DUP2 GT ISZERO PUSH2 0x184D JUMPI PUSH2 0x184C PUSH2 0x1661 JUMP JUMPDEST JUMPDEST PUSH2 0x1857 DUP3 SLOAD PUSH2 0x15C9 JUMP JUMPDEST PUSH2 0x1862 DUP3 DUP3 DUP6 PUSH2 0x17A2 JUMP JUMPDEST PUSH0 PUSH1 0x20 SWAP1 POP PUSH1 0x1F DUP4 GT PUSH1 0x1 DUP2 EQ PUSH2 0x1893 JUMPI PUSH0 DUP5 ISZERO PUSH2 0x1881 JUMPI DUP3 DUP8 ADD MLOAD SWAP1 POP JUMPDEST PUSH2 0x188B DUP6 DUP3 PUSH2 0x1810 JUMP JUMPDEST DUP7 SSTORE POP PUSH2 0x18F2 JUMP JUMPDEST PUSH1 0x1F NOT DUP5 AND PUSH2 0x18A1 DUP7 PUSH2 0x168E JUMP JUMPDEST PUSH0 JUMPDEST DUP3 DUP2 LT ISZERO PUSH2 0x18C8 JUMPI DUP5 DUP10 ADD MLOAD DUP3 SSTORE PUSH1 0x1 DUP3 ADD SWAP2 POP PUSH1 0x20 DUP6 ADD SWAP5 POP PUSH1 0x20 DUP2 ADD SWAP1 POP PUSH2 0x18A3 JUMP JUMPDEST DUP7 DUP4 LT ISZERO PUSH2 0x18E5 JUMPI DUP5 DUP10 ADD MLOAD PUSH2 0x18E1 PUSH1 0x1F DUP10 AND DUP3 PUSH2 0x17F4 JUMP JUMPDEST DUP4 SSTORE POP JUMPDEST PUSH1 0x1 PUSH1 0x2 DUP9 MUL ADD DUP9 SSTORE POP POP POP JUMPDEST POP POP POP POP POP POP JUMP JUMPDEST DUP3 DUP2 DUP4 CALLDATACOPY PUSH0 DUP4 DUP4 ADD MSTORE POP POP POP JUMP JUMPDEST PUSH0 PUSH2 0x1913 DUP4 DUP6 PUSH2 0x1524 JUMP JUMPDEST SWAP4 POP PUSH2 0x1920 DUP4 DUP6 DUP5 PUSH2 0x18FA JUMP JUMPDEST PUSH2 0x1929 DUP4 PUSH2 0x12A9 JUMP JUMPDEST DUP5 ADD SWAP1 POP SWAP4 SWAP3 POP POP POP JUMP JUMPDEST PUSH0 PUSH1 0x80 DUP3 ADD SWAP1 POP DUP2 DUP2 SUB PUSH0 DUP4 ADD MSTORE PUSH2 0x194D DUP2 DUP9 DUP11 PUSH2 0x1908 JUMP JUMPDEST SWAP1 POP DUP2 DUP2 SUB PUSH1 0x20 DUP4 ADD MSTORE PUSH2 0x1962 DUP2 DUP7 DUP9 PUSH2 0x1908 JUMP JUMPDEST SWAP1 POP PUSH2 0x1971 PUSH1 0x40 DUP4 ADD DUP6 PUSH2 0x13A3 JUMP JUMPDEST PUSH2 0x197E PUSH1 0x60 DUP4 ADD DUP5 PUSH2 0x13A3 JUMP JUMPDEST SWAP8 SWAP7 POP POP POP POP POP POP POP JUMP JUMPDEST PUSH0 DUP3 SWAP1 POP SWAP3 SWAP2 POP POP JUMP JUMPDEST PUSH2 0x199D DUP4 DUP4 PUSH2 0x1989 JUMP JUMPDEST PUSH8 0xFFFFFFFFFFFFFFFF DUP2 GT ISZERO PUSH2 0x19B6 JUMPI PUSH2 0x19B5 PUSH2 0x1661 JUMP JUMPDEST JUMPDEST PUSH2 0x19C0 DUP3 SLOAD PUSH2 0x15C9 JUMP JUMPDEST PUSH2 0x19CB DUP3 DUP3 DUP6 PUSH2 0x17A2 JUMP JUMPDEST PUSH0 PUSH1 0x1F DUP4 GT PUSH1 0x1 DUP2 EQ PUSH2 0x19F8 JUMPI PUSH0 DUP5 ISZERO PUSH2 0x19E6 JUMPI DUP3 DUP8 ADD CALLDATALOAD SWAP1 POP JUMPDEST PUSH2 0x19F0 DUP6 DUP3 PUSH2 0x1810 JUMP JUMPDEST DUP7 SSTORE POP PUSH2 0x1A57 JUMP JUMPDEST PUSH1 0x1F NOT DUP5 AND PUSH2 0x1A06 DUP7 PUSH2 0x168E JUMP JUMPDEST PUSH0 JUMPDEST DUP3 DUP2 LT ISZERO PUSH2 0x1A2D JUMPI DUP5 DUP10 ADD CALLDATALOAD DUP3 SSTORE PUSH1 0x1 DUP3 ADD SWAP2 POP PUSH1 0x20 DUP6 ADD SWAP5 POP PUSH1 0x20 DUP2 ADD SWAP1 POP PUSH2 0x1A08 JUMP JUMPDEST DUP7 DUP4 LT ISZERO PUSH2 0x1A4A JUMPI DUP5 DUP10 ADD CALLDATALOAD PUSH2 0x1A46 PUSH1 0x1F DUP10 AND DUP3 PUSH2 0x17F4 JUMP JUMPDEST DUP4 SSTORE POP JUMPDEST PUSH1 0x1 PUSH1 0x2 DUP9 MUL ADD DUP9 SSTORE POP POP POP JUMPDEST POP POP POP POP POP POP POP JUMP JUMPDEST PUSH0 PUSH1 0x60 DUP3 ADD SWAP1 POP DUP2 DUP2 SUB PUSH0 DUP4 ADD MSTORE PUSH2 0x1A79 DUP2 DUP8 DUP10 PUSH2 0x1908 JUMP JUMPDEST SWAP1 POP DUP2 DUP2 SUB PUSH1 0x20 DUP4 ADD MSTORE PUSH2 0x1A8E DUP2 DUP6 DUP8 PUSH2 0x1908 JUMP JUMPDEST SWAP1 POP PUSH2 0x1A9D PUSH1 0x40 DUP4 ADD DUP5 PUSH2 0x13A3 JUMP JUMPDEST SWAP7 SWAP6 POP POP POP POP POP POP JUMP JUMPDEST PUSH2 0x1AB0 DUP2 PUSH2 0x11F9 JUMP JUMPDEST DUP3 MSTORE POP POP JUMP JUMPDEST PUSH0 PUSH1 0x40 DUP3 ADD SWAP1 POP PUSH2 0x1AC9 PUSH0 DUP4 ADD DUP6 PUSH2 0x1AA7 JUMP JUMPDEST PUSH2 0x1AD6 PUSH1 0x20 DUP4 ADD DUP5 PUSH2 0x11B2 JUMP JUMPDEST SWAP4 SWAP3 POP POP POP JUMP JUMPDEST PUSH32 0x4E487B7100000000000000000000000000000000000000000000000000000000 PUSH0 MSTORE PUSH1 0x11 PUSH1 0x4 MSTORE PUSH1 0x24 PUSH0 REVERT JUMPDEST PUSH0 PUSH2 0x1B14 DUP3 PUSH2 0x12F1 JUMP JUMPDEST SWAP2 POP PUSH2 0x1B1F DUP4 PUSH2 0x12F1 JUMP JUMPDEST SWAP3 POP DUP3 DUP3 SUB SWAP1 POP DUP2 DUP2 GT ISZERO PUSH2 0x1B37 JUMPI PUSH2 0x1B36 PUSH2 0x1ADD JUMP JUMPDEST JUMPDEST SWAP3 SWAP2 POP POP JUMP JUMPDEST PUSH32 0x4E487B7100000000000000000000000000000000000000000000000000000000 PUSH0 MSTORE PUSH1 0x32 PUSH1 0x4 MSTORE PUSH1 0x24 PUSH0 REVERT JUMPDEST PUSH32 0x4E487B7100000000000000000000000000000000000000000000000000000000 PUSH0 MSTORE PUSH1 0x31 PUSH1 0x4 MSTORE PUSH1 0x24 PUSH0 REVERT INVALID LOG2 PUSH5 0x6970667358 0x22 SLT KECCAK256 PUSH0 CALLDATALOAD 0xA9 EXP GT 0xD0 TSTORE 0xCF 0xC6 0x2C PUSH1 0x4 PUSH25 0x29B29DB7C8B4A6441A3EFCD2DAE12C714D371E64736F6C6343 STOP ADDMOD BYTE STOP CALLER "
				},
				"gasEstimates": {
					"creation": {
						"codeDepositCost": "1423400",
						"executionCost": "infinite",
						"totalCost": "infinite"
					},
					"external": {
						"ADMIN_ROLE()": "348",
						"DEFAULT_ADMIN_ROLE()": "419",
						"UPLOADER_ROLE()": "392",
						"fileExists(bytes32)": "infinite",
						"fileIdAt(uint256)": "infinite",
						"getFileMetadata(bytes32)": "infinite",
						"getRoleAdmin(bytes32)": "infinite",
						"grantRole(bytes32,address)": "infinite",
						"hasRole(bytes32,address)": "3167",
						"removeFile(bytes32)": "infinite",
						"renounceRole(bytes32,address)": "infinite",
						"revokeRole(bytes32,address)": "infinite",
						"supportsInterface(bytes4)": "741",
						"totalFiles()": "2601",
						"updateFileMetadata(bytes32,string,string,uint256)": "infinite",
						"uploadFile(bytes32,string,string,uint256)": "infinite"
					}
				},
				"methodIdentifiers": {
					"ADMIN_ROLE()": "75b238fc",
					"DEFAULT_ADMIN_ROLE()": "a217fddf",
					"UPLOADER_ROLE()": "61cc0766",
					"fileExists(bytes32)": "0cec5f62",
					"fileIdAt(uint256)": "b2bbde91",
					"getFileMetadata(bytes32)": "65f35371",
					"getRoleAdmin(bytes32)": "248a9ca3",
					"grantRole(bytes32,address)": "2f2ff15d",
					"hasRole(bytes32,address)": "91d14854",
					"removeFile(bytes32)": "0bef429b",
					"renounceRole(bytes32,address)": "36568abe",
					"revokeRole(bytes32,address)": "d547741f",
					"supportsInterface(bytes4)": "01ffc9a7",
					"totalFiles()": "92cf0557",
					"updateFileMetadata(bytes32,string,string,uint256)": "dc0c9325",
					"uploadFile(bytes32,string,string,uint256)": "b7c9b657"
				}
			},
			"storageLayout": {
				"storage": [
					{
						"astId": 26,
						"contract": "contracts/infrastructure/storage/Upload.sol:Upload",
						"label": "_roles",
						"offset": 0,
						"slot": "0",
						"type": "t_mapping(t_bytes32,t_struct(RoleData)21_storage)"
					},
					{
						"astId": 1169,
						"contract": "contracts/infrastructure/storage/Upload.sol:Upload",
						"label": "_fileMetadata",
						"offset": 0,
						"slot": "1",
						"type": "t_mapping(t_bytes32,t_struct(FileMetadata)1164_storage)"
					},
					{
						"astId": 1172,
						"contract": "contracts/infrastructure/storage/Upload.sol:Upload",
						"label": "_fileIds",
						"offset": 0,
						"slot": "2",
						"type": "t_struct(Bytes32Set)649_storage"
					},
					{
						"astId": 1175,
						"contract": "contracts/infrastructure/storage/Upload.sol:Upload",
						"label": "_fileIdCounter",
						"offset": 0,
						"slot": "4",
						"type": "t_struct(Counter)1063_storage"
					}
				],
				"types": {
					"t_address": {
						"encoding": "inplace",
						"label": "address",
						"numberOfBytes": "20"
					},
					"t_array(t_bytes32)dyn_storage": {
						"base": "t_bytes32",
						"encoding": "dynamic_array",
						"label": "bytes32[]",
						"numberOfBytes": "32"
					},
					"t_bool": {
						"encoding": "inplace",
						"label": "bool",
						"numberOfBytes": "1"
					},
					"t_bytes32": {
						"encoding": "inplace",
						"label": "bytes32",
						"numberOfBytes": "32"
					},
					"t_mapping(t_address,t_bool)": {
						"encoding": "mapping",
						"key": "t_address",
						"label": "mapping(address => bool)",
						"numberOfBytes": "32",
						"value": "t_bool"
					},
					"t_mapping(t_bytes32,t_struct(FileMetadata)1164_storage)": {
						"encoding": "mapping",
						"key": "t_bytes32",
						"label": "mapping(bytes32 => struct Upload.FileMetadata)",
						"numberOfBytes": "32",
						"value": "t_struct(FileMetadata)1164_storage"
					},
					"t_mapping(t_bytes32,t_struct(RoleData)21_storage)": {
						"encoding": "mapping",
						"key": "t_bytes32",
						"label": "mapping(bytes32 => struct AccessControl.RoleData)",
						"numberOfBytes": "32",
						"value": "t_struct(RoleData)21_storage"
					},
					"t_mapping(t_bytes32,t_uint256)": {
						"encoding": "mapping",
						"key": "t_bytes32",
						"label": "mapping(bytes32 => uint256)",
						"numberOfBytes": "32",
						"value": "t_uint256"
					},
					"t_string_storage": {
						"encoding": "bytes",
						"label": "string",
						"numberOfBytes": "32"
					},
					"t_struct(Bytes32Set)649_storage": {
						"encoding": "inplace",
						"label": "struct EnumerableSet.Bytes32Set",
						"members": [
							{
								"astId": 648,
								"contract": "contracts/infrastructure/storage/Upload.sol:Upload",
								"label": "_inner",
								"offset": 0,
								"slot": "0",
								"type": "t_struct(Set)455_storage"
							}
						],
						"numberOfBytes": "64"
					},
					"t_struct(Counter)1063_storage": {
						"encoding": "inplace",
						"label": "struct Counters.Counter",
						"members": [
							{
								"astId": 1062,
								"contract": "contracts/infrastructure/storage/Upload.sol:Upload",
								"label": "_value",
								"offset": 0,
								"slot": "0",
								"type": "t_uint256"
							}
						],
						"numberOfBytes": "32"
					},
					"t_struct(FileMetadata)1164_storage": {
						"encoding": "inplace",
						"label": "struct Upload.FileMetadata",
						"members": [
							{
								"astId": 1155,
								"contract": "contracts/infrastructure/storage/Upload.sol:Upload",
								"label": "fileHash",
								"offset": 0,
								"slot": "0",
								"type": "t_bytes32"
							},
							{
								"astId": 1157,
								"contract": "contracts/infrastructure/storage/Upload.sol:Upload",
								"label": "fileName",
								"offset": 0,
								"slot": "1",
								"type": "t_string_storage"
							},
							{
								"astId": 1159,
								"contract": "contracts/infrastructure/storage/Upload.sol:Upload",
								"label": "fileType",
								"offset": 0,
								"slot": "2",
								"type": "t_string_storage"
							},
							{
								"astId": 1161,
								"contract": "contracts/infrastructure/storage/Upload.sol:Upload",
								"label": "fileSize",
								"offset": 0,
								"slot": "3",
								"type": "t_uint256"
							},
							{
								"astId": 1163,
								"contract": "contracts/infrastructure/storage/Upload.sol:Upload",
								"label": "uploadTimestamp",
								"offset": 0,
								"slot": "4",
								"type": "t_uint256"
							}
						],
						"numberOfBytes": "160"
					},
					"t_struct(RoleData)21_storage": {
						"encoding": "inplace",
						"label": "struct AccessControl.RoleData",
						"members": [
							{
								"astId": 18,
								"contract": "contracts/infrastructure/storage/Upload.sol:Upload",
								"label": "hasRole",
								"offset": 0,
								"slot": "0",
								"type": "t_mapping(t_address,t_bool)"
							},
							{
								"astId": 20,
								"contract": "contracts/infrastructure/storage/Upload.sol:Upload",
								"label": "adminRole",
								"offset": 0,
								"slot": "1",
								"type": "t_bytes32"
							}
						],
						"numberOfBytes": "64"
					},
					"t_struct(Set)455_storage": {
						"encoding": "inplace",
						"label": "struct EnumerableSet.Set",
						"members": [
							{
								"astId": 450,
								"contract": "contracts/infrastructure/storage/Upload.sol:Upload",
								"label": "_values",
								"offset": 0,
								"slot": "0",
								"type": "t_array(t_bytes32)dyn_storage"
							},
							{
								"astId": 454,
								"contract": "contracts/infrastructure/storage/Upload.sol:Upload",
								"label": "_positions",
								"offset": 0,
								"slot": "1",
								"type": "t_mapping(t_bytes32,t_uint256)"
							}
						],
						"numberOfBytes": "64"
					},
					"t_uint256": {
						"encoding": "inplace",
						"label": "uint256",
						"numberOfBytes": "32"
					}
				}
			},
			"userdoc": {
				"kind": "user",
				"methods": {},
				"version": 1
			}
		}
	}
}