{
	"data": {
		"bytecode": {
			"linkReferences": {},
			"object": "60c060405234801561000f575f80fd5b50604051612eb7380380612eb7833981810160405281019061003191906102c8565b335f806101000a81548173ffffffffffffffffffffffffffffffffffffffff021916908373ffffffffffffffffffffffffffffffffffffffff1602179055505f73ffffffffffffffffffffffffffffffffffffffff168373ffffffffffffffffffffffffffffffffffffffff16036100de576040517f08c379a00000000000000000000000000000000000000000000000000000000081526004016100d590610372565b60405180910390fd5b5f73ffffffffffffffffffffffffffffffffffffffff168273ffffffffffffffffffffffffffffffffffffffff160361014c576040517f08c379a0000000000000000000000000000000000000000000000000000000008152600401610143906103da565b60405180910390fd5b5f73ffffffffffffffffffffffffffffffffffffffff168173ffffffffffffffffffffffffffffffffffffffff16036101ba576040517f08c379a00000000000000000000000000000000000000000000000000000000081526004016101b190610442565b60405180910390fd5b8273ffffffffffffffffffffffffffffffffffffffff1660808173ffffffffffffffffffffffffffffffffffffffff16815250508173ffffffffffffffffffffffffffffffffffffffff1660a08173ffffffffffffffffffffffffffffffffffffffff16815250508060025f6101000a81548173ffffffffffffffffffffffffffffffffffffffff021916908373ffffffffffffffffffffffffffffffffffffffff160217905550505050610460565b5f80fd5b5f73ffffffffffffffffffffffffffffffffffffffff82169050919050565b5f6102978261026e565b9050919050565b6102a78161028d565b81146102b1575f80fd5b50565b5f815190506102c28161029e565b92915050565b5f805f606084860312156102df576102de61026a565b5b5f6102ec868287016102b4565b93505060206102fd868287016102b4565b925050604061030e868287016102b4565b9150509250925092565b5f82825260208201905092915050565b7f57463a20656d7074792077616c6c657420696d706c656d656e746174696f6e005f82015250565b5f61035c601f83610318565b915061036782610328565b602082019050919050565b5f6020820190508181035f83015261038981610350565b9050919050565b7f57463a20656d70747920677561726469616e2073746f726167650000000000005f82015250565b5f6103c4601a83610318565b91506103cf82610390565b602082019050919050565b5f6020820190508181035f8301526103f1816103b8565b9050919050565b7f57463a20656d70747920726566756e64206164647265737300000000000000005f82015250565b5f61042c601883610318565b9150610437826103f8565b602082019050919050565b5f6020820190508181035f83015261045981610420565b9050919050565b60805160a051612a216104965f395f8181610a070152610fc301525f818161060e015281816107f40152610a6d0152612a215ff3fe608060405234801561000f575f80fd5b50600436106100b2575f3560e01c80638da5cb5b1161006f5780638da5cb5b14610162578063a6f9dae114610180578063a80dd9df1461019c578063d89784fc146101cc578063fbe2ec7d146101ea578063fdff9b4d1461021a576100b2565b80630cb61f6c146100b657806319ab453c146100d45780632c828525146100f05780632d06177a1461010c578063377e32e6146101285780638117abc114610144575b5f80fd5b6100be61024a565b6040516100cb919061154f565b60405180910390f35b6100ee60048036038101906100e991906115c5565b61026f565b005b61010a6004803603810190610105919061161a565b610272565b005b6101266004803603810190610121919061161a565b6103e7565b005b610142600480360381019061013d919061161a565b6105d1565b005b61014c61060c565b604051610159919061154f565b60405180910390f35b61016a610630565b604051610177919061154f565b60405180910390f35b61019a6004803603810190610195919061161a565b610653565b005b6101b660048036038101906101b19190611783565b6107d3565b6040516101c3919061154f565b60405180910390f35b6101d4610a05565b6040516101e1919061154f565b60405180910390f35b61020460048036038101906101ff9190611894565b610a29565b604051610211919061154f565b60405180910390f35b610234600480360381019061022f919061161a565b610b10565b6040516102419190611932565b60405180910390f35b60025f9054906101000a900473ffffffffffffffffffffffffffffffffffffffff1681565b50565b5f8054906101000a900473ffffffffffffffffffffffffffffffffffffffff1673ffffffffffffffffffffffffffffffffffffffff163373ffffffffffffffffffffffffffffffffffffffff16146102ff576040517f08c379a00000000000000000000000000000000000000000000000000000000081526004016102f6906119a5565b60405180910390fd5b5f73ffffffffffffffffffffffffffffffffffffffff168173ffffffffffffffffffffffffffffffffffffffff160361036d576040517f08c379a000000000000000000000000000000000000000000000000000000000815260040161036490611a0d565b60405180910390fd5b8060025f6101000a81548173ffffffffffffffffffffffffffffffffffffffff021916908373ffffffffffffffffffffffffffffffffffffffff1602179055507fa7cb165192538768851363c5aa55b1ade75d692a51063730feccdd57d002a6ed816040516103dc919061154f565b60405180910390a150565b5f8054906101000a900473ffffffffffffffffffffffffffffffffffffffff1673ffffffffffffffffffffffffffffffffffffffff163373ffffffffffffffffffffffffffffffffffffffff1614610474576040517f08c379a000000000000000000000000000000000000000000000000000000000815260040161046b906119a5565b60405180910390fd5b5f73ffffffffffffffffffffffffffffffffffffffff168173ffffffffffffffffffffffffffffffffffffffff16036104e2576040517f08c379a00000000000000000000000000000000000000000000000000000000081526004016104d990611a75565b60405180910390fd5b5f151560015f8373ffffffffffffffffffffffffffffffffffffffff1673ffffffffffffffffffffffffffffffffffffffff1681526020019081526020015f205f9054906101000a900460ff161515036105ce576001805f8373ffffffffffffffffffffffffffffffffffffffff1673ffffffffffffffffffffffffffffffffffffffff1681526020019081526020015f205f6101000a81548160ff0219169083151502179055508073ffffffffffffffffffffffffffffffffffffffff167f3b4a40cccf2058c593542587329dd385be4f0b588db5471fbd9598e56dd7093a60405160405180910390a25b50565b6040517f08c379a000000000000000000000000000000000000000000000000000000000815260040161060390611add565b60405180910390fd5b7f000000000000000000000000000000000000000000000000000000000000000081565b5f8054906101000a900473ffffffffffffffffffffffffffffffffffffffff1681565b5f8054906101000a900473ffffffffffffffffffffffffffffffffffffffff1673ffffffffffffffffffffffffffffffffffffffff163373ffffffffffffffffffffffffffffffffffffffff16146106e0576040517f08c379a00000000000000000000000000000000000000000000000000000000081526004016106d7906119a5565b60405180910390fd5b5f73ffffffffffffffffffffffffffffffffffffffff168173ffffffffffffffffffffffffffffffffffffffff160361074e576040517f08c379a000000000000000000000000000000000000000000000000000000000815260040161074590611b45565b60405180910390fd5b805f806101000a81548173ffffffffffffffffffffffffffffffffffffffff021916908373ffffffffffffffffffffffffffffffffffffffff1602179055508073ffffffffffffffffffffffffffffffffffffffff167fa2ea9883a321a3e97b8266c2b078bfeec6d50c711ed71f874a90d500ae2eaf3660405160405180910390a250565b5f6107e08c8c8c8c610b2d565b5f6107ee898e8e8e8e610cc2565b90505f817f000000000000000000000000000000000000000000000000000000000000000060405161081f90611503565b610829919061154f565b8190604051809103905ff5905080158015610846573d5f803e3d5ffd5b5090506108968186868080601f0160208091040260200160405190810160405280939291908181526020018383808284375f81840152601f19601f82011690508083019250505050505050610d23565b6108a3818f8f8f8f610e14565b5f891180156108b55750604187879050145b1561090b5761090a818f8b8b8b8b8080601f0160208091040260200160405190810160405280939291908181526020018383808284375f81840152601f19601f82011690508083019250505050505050611051565b5b8073ffffffffffffffffffffffffffffffffffffffff16631f17732d305f6040518363ffffffff1660e01b8152600401610946929190611b63565b5f604051808303815f87803b15801561095d575f80fd5b505af115801561096f573d5f803e3d5ffd5b505050508a73ffffffffffffffffffffffffffffffffffffffff168e73ffffffffffffffffffffffffffffffffffffffff168273ffffffffffffffffffffffffffffffffffffffff167facd43e061b8ee386537b57919358cfa44933c4e47ccd4b2e1916e54133cec7488b8d6040516109e9929190611b99565b60405180910390a480925050509b9a5050505050505050505050565b7f000000000000000000000000000000000000000000000000000000000000000081565b5f610a3686868686610b2d565b5f610a448388888888610cc2565b90505f60405180602001610a5790611503565b6020820181038252601f19601f820116604052507f000000000000000000000000000000000000000000000000000000000000000073ffffffffffffffffffffffffffffffffffffffff16604051602001610ab3929190611c32565b60405160208183030381529060405290505f60ff60f81b30848480519060200120604051602001610ae79493929190611d12565b604051602081830303815290604052805190602001209050805f1c935050505095945050505050565b6001602052805f5260405f205f915054906101000a900460ff1681565b5f73ffffffffffffffffffffffffffffffffffffffff168473ffffffffffffffffffffffffffffffffffffffff1603610b9b576040517f08c379a0000000000000000000000000000000000000000000000000000000008152600401610b9290611da9565b60405180910390fd5b8073ffffffffffffffffffffffffffffffffffffffff168473ffffffffffffffffffffffffffffffffffffffff1603610c09576040517f08c379a0000000000000000000000000000000000000000000000000000000008152600401610c0090611e11565b60405180910390fd5b5f8383905011610c4e576040517f08c379a0000000000000000000000000000000000000000000000000000000008152600401610c4590611e79565b60405180910390fd5b5f73ffffffffffffffffffffffffffffffffffffffff168173ffffffffffffffffffffffffffffffffffffffff1603610cbc576040517f08c379a0000000000000000000000000000000000000000000000000000000008152600401610cb390611ee1565b60405180910390fd5b50505050565b5f84848484604051602001610cda9493929190611fb5565b6040516020818303038152906040528051906020012086604051602001610d0292919061200f565b60405160208183030381529060405280519060200120905095945050505050565b5f6041825114610d3557339050610d86565b5f8373ffffffffffffffffffffffffffffffffffffffff165f1b604051602001610d5f919061208e565b604051602081830303815290604052805190602001209050610d8281845f611287565b9150505b60015f8273ffffffffffffffffffffffffffffffffffffffff1673ffffffffffffffffffffffffffffffffffffffff1681526020019081526020015f205f9054906101000a900460ff16610e0f576040517f08c379a0000000000000000000000000000000000000000000000000000000008152600401610e06906120fd565b60405180910390fd5b505050565b5f600184849050610e259190612148565b67ffffffffffffffff811115610e3e57610e3d61217b565b5b604051908082528060200260200182016040528015610e6c5781602001602082028036833780820191505090505b50905030815f81518110610e8357610e826121a8565b5b602002602001019073ffffffffffffffffffffffffffffffffffffffff16908173ffffffffffffffffffffffffffffffffffffffff16815250505f5b84849050811015610f5857848482818110610edd57610edc6121a8565b5b9050602002016020810190610ef2919061161a565b82600183610f009190612148565b81518110610f1157610f106121a8565b5b602002602001019073ffffffffffffffffffffffffffffffffffffffff16908173ffffffffffffffffffffffffffffffffffffffff16815250508080600101915050610ebf565b508573ffffffffffffffffffffffffffffffffffffffff16633c5a3cea86836040518363ffffffff1660e01b8152600401610f9492919061228c565b5f604051808303815f87803b158015610fab575f80fd5b505af1158015610fbd573d5f803e3d5ffd5b505050507f000000000000000000000000000000000000000000000000000000000000000073ffffffffffffffffffffffffffffffffffffffff1663c684521087846040518363ffffffff1660e01b815260040161101c9291906122ba565b5f604051808303815f87803b158015611033575f80fd5b505af1158015611045573d5f803e3d5ffd5b50505050505050505050565b5f858484604051602001611067939291906122e1565b6040516020818303038152906040528051906020012060405160200161108d919061208e565b6040516020818303038152906040528051906020012090505f6110b182845f611287565b90508573ffffffffffffffffffffffffffffffffffffffff168173ffffffffffffffffffffffffffffffffffffffff160361127e575f73ffffffffffffffffffffffffffffffffffffffff168473ffffffffffffffffffffffffffffffffffffffff160361115a576111548760025f9054906101000a900473ffffffffffffffffffffffffffffffffffffffff168760405180602001604052805f8152506113d1565b5061127d565b5f60025f9054906101000a900473ffffffffffffffffffffffffffffffffffffffff168660405160240161118f929190611b99565b6040516020818303038152906040527fa9059cbb000000000000000000000000000000000000000000000000000000007bffffffffffffffffffffffffffffffffffffffffffffffffffffffff19166020820180517bffffffffffffffffffffffffffffffffffffffffffffffffffffffff838183161783525050505090505f61121b89875f856113d1565b90505f8151111561127a578080602001905181019061123a9190612347565b611279576040517f08c379a0000000000000000000000000000000000000000000000000000000008152600401611270906123bc565b60405180910390fd5b5b50505b5b50505050505050565b5f805f8084604102602001860151915084604102604001860151905060ff85604102604101870151169250601b8360ff1614806112c75750601c8360ff16145b611306576040517f08c379a00000000000000000000000000000000000000000000000000000000081526004016112fd90612424565b60405180910390fd5b5f6001888585856040515f8152602001604052604051611329949392919061246c565b6020604051602081039080840390855afa158015611349573d5f803e3d5ffd5b5050506020604051035190505f73ffffffffffffffffffffffffffffffffffffffff168173ffffffffffffffffffffffffffffffffffffffff16036113c3576040517f08c379a00000000000000000000000000000000000000000000000000000000081526004016113ba906124f9565b60405180910390fd5b809450505050509392505050565b60605f8573ffffffffffffffffffffffffffffffffffffffff168585856040516024016114009392919061256f565b6040516020818303038152906040527f8f6f0332000000000000000000000000000000000000000000000000000000007bffffffffffffffffffffffffffffffffffffffffffffffffffffffff19166020820180517bffffffffffffffffffffffffffffffffffffffffffffffffffffffff838183161783525050505060405161148a91906125ab565b5f604051808303815f865af19150503d805f81146114c3576040519150601f19603f3d011682016040523d82523d5f602084013e6114c8565b606091505b50809350819250505080156114f257818060200190518101906114eb91906126ae565b91506114fa565b3d5f803e3d5ffd5b50949350505050565b6102f6806126f683390190565b5f73ffffffffffffffffffffffffffffffffffffffff82169050919050565b5f61153982611510565b9050919050565b6115498161152f565b82525050565b5f6020820190506115625f830184611540565b92915050565b5f604051905090565b5f80fd5b5f80fd5b5f61158382611510565b9050919050565b5f61159482611579565b9050919050565b6115a48161158a565b81146115ae575f80fd5b50565b5f813590506115bf8161159b565b92915050565b5f602082840312156115da576115d9611571565b5b5f6115e7848285016115b1565b91505092915050565b6115f98161152f565b8114611603575f80fd5b50565b5f81359050611614816115f0565b92915050565b5f6020828403121561162f5761162e611571565b5b5f61163c84828501611606565b91505092915050565b5f80fd5b5f80fd5b5f80fd5b5f8083601f84011261166657611665611645565b5b8235905067ffffffffffffffff81111561168357611682611649565b5b60208301915083602082028301111561169f5761169e61164d565b5b9250929050565b5f7fffffffffffffffffffffffffffffffffffffffff00000000000000000000000082169050919050565b6116da816116a6565b81146116e4575f80fd5b50565b5f813590506116f5816116d1565b92915050565b5f819050919050565b61170d816116fb565b8114611717575f80fd5b50565b5f8135905061172881611704565b92915050565b5f8083601f84011261174357611742611645565b5b8235905067ffffffffffffffff8111156117605761175f611649565b5b60208301915083600182028301111561177c5761177b61164d565b5b9250929050565b5f805f805f805f805f805f6101008c8e0312156117a3576117a2611571565b5b5f6117b08e828f01611606565b9b505060208c013567ffffffffffffffff8111156117d1576117d0611575565b5b6117dd8e828f01611651565b9a509a505060406117f08e828f01611606565b98505060606118018e828f016116e7565b97505060806118128e828f0161171a565b96505060a06118238e828f01611606565b95505060c08c013567ffffffffffffffff81111561184457611843611575565b5b6118508e828f0161172e565b945094505060e08c013567ffffffffffffffff81111561187357611872611575565b5b61187f8e828f0161172e565b92509250509295989b509295989b9093969950565b5f805f805f608086880312156118ad576118ac611571565b5b5f6118ba88828901611606565b955050602086013567ffffffffffffffff8111156118db576118da611575565b5b6118e788828901611651565b945094505060406118fa88828901611606565b925050606061190b888289016116e7565b9150509295509295909350565b5f8115159050919050565b61192c81611918565b82525050565b5f6020820190506119455f830184611923565b92915050565b5f82825260208201905092915050565b7f4d757374206265206f776e6572000000000000000000000000000000000000005f82015250565b5f61198f600d8361194b565b915061199a8261195b565b602082019050919050565b5f6020820190508181035f8301526119bc81611983565b9050919050565b7f57463a2063616e6e6f742073657420746f20656d7074790000000000000000005f82015250565b5f6119f760178361194b565b9150611a02826119c3565b602082019050919050565b5f6020820190508181035f830152611a24816119eb565b9050919050565b7f4d3a2041646472657373206d757374206e6f74206265206e756c6c00000000005f82015250565b5f611a5f601b8361194b565b9150611a6a82611a2b565b602082019050919050565b5f6020820190508181035f830152611a8c81611a53565b9050919050565b7f57463a206d616e61676572732063616e2774206265207265766f6b65640000005f82015250565b5f611ac7601d8361194b565b9150611ad282611a93565b602082019050919050565b5f6020820190508181035f830152611af481611abb565b9050919050565b7f41646472657373206d757374206e6f74206265206e756c6c00000000000000005f82015250565b5f611b2f60188361194b565b9150611b3a82611afb565b602082019050919050565b5f6020820190508181035f830152611b5c81611b23565b9050919050565b5f604082019050611b765f830185611540565b611b836020830184611923565b9392505050565b611b93816116fb565b82525050565b5f604082019050611bac5f830185611540565b611bb96020830184611b8a565b9392505050565b5f81519050919050565b5f81905092915050565b8281835e5f83830152505050565b5f611bec82611bc0565b611bf68185611bca565b9350611c06818560208601611bd4565b80840191505092915050565b5f819050919050565b611c2c611c27826116fb565b611c12565b82525050565b5f611c3d8285611be2565b9150611c498284611c1b565b6020820191508190509392505050565b5f7fff0000000000000000000000000000000000000000000000000000000000000082169050919050565b5f819050919050565b611c9e611c9982611c59565b611c84565b82525050565b5f8160601b9050919050565b5f611cba82611ca4565b9050919050565b5f611ccb82611cb0565b9050919050565b611ce3611cde8261152f565b611cc1565b82525050565b5f819050919050565b5f819050919050565b611d0c611d0782611ce9565b611cf2565b82525050565b5f611d1d8287611c8d565b600182019150611d2d8286611cd2565b601482019150611d3d8285611cfb565b602082019150611d4d8284611cfb565b60208201915081905095945050505050565b7f57463a20656d707479206f776e657220616464726573730000000000000000005f82015250565b5f611d9360178361194b565b9150611d9e82611d5f565b602082019050919050565b5f6020820190508181035f830152611dc081611d87565b9050919050565b7f57463a206f776e65722063616e6e6f7420626520677561726469616e000000005f82015250565b5f611dfb601c8361194b565b9150611e0682611dc7565b602082019050919050565b5f6020820190508181035f830152611e2881611def565b9050919050565b7f57463a20656d707479206d6f64756c65730000000000000000000000000000005f82015250565b5f611e6360118361194b565b9150611e6e82611e2f565b602082019050919050565b5f6020820190508181035f830152611e9081611e57565b9050919050565b7f57463a20656d70747920677561726469616e00000000000000000000000000005f82015250565b5f611ecb60128361194b565b9150611ed682611e97565b602082019050919050565b5f6020820190508181035f830152611ef881611ebf565b9050919050565b5f81905092915050565b5f819050919050565b611f1b8161152f565b82525050565b5f611f2c8383611f12565b60208301905092915050565b5f611f466020840184611606565b905092915050565b5f602082019050919050565b5f611f658385611eff565b9350611f7082611f09565b805f5b85811015611fa857611f858284611f38565b611f8f8882611f21565b9750611f9a83611f4e565b925050600181019050611f73565b5085925050509392505050565b5f611fc08287611cd2565b601482019150611fd1828587611f5a565b9150611fdd8284611cd2565b60148201915081905095945050505050565b5f819050919050565b612009612004826116a6565b611fef565b82525050565b5f61201a8285611cfb565b60208201915061202a8284611ff8565b6014820191508190509392505050565b5f81905092915050565b7f19457468657265756d205369676e6564204d6573736167653a0a3332000000005f82015250565b5f612078601c8361203a565b915061208382612044565b601c82019050919050565b5f6120988261206c565b91506120a48284611cfb565b60208201915081905092915050565b7f57463a20756e617574686f72697365642077616c6c6574206372656174696f6e5f82015250565b5f6120e760208361194b565b91506120f2826120b3565b602082019050919050565b5f6020820190508181035f830152612114816120db565b9050919050565b7f4e487b71000000000000000000000000000000000000000000000000000000005f52601160045260245ffd5b5f612152826116fb565b915061215d836116fb565b92508282019050808211156121755761217461211b565b5b92915050565b7f4e487b71000000000000000000000000000000000000000000000000000000005f52604160045260245ffd5b7f4e487b71000000000000000000000000000000000000000000000000000000005f52603260045260245ffd5b5f81519050919050565b5f82825260208201905092915050565b5f819050602082019050919050565b6122078161152f565b82525050565b5f61221883836121fe565b60208301905092915050565b5f602082019050919050565b5f61223a826121d5565b61224481856121df565b935061224f836121ef565b805f5b8381101561227f578151612266888261220d565b975061227183612224565b925050600181019050612252565b5085935050505092915050565b5f60408201905061229f5f830185611540565b81810360208301526122b18184612230565b90509392505050565b5f6040820190506122cd5f830185611540565b6122da6020830184611540565b9392505050565b5f6122ec8286611cd2565b6014820191506122fc8285611c1b565b60208201915061230c8284611cd2565b601482019150819050949350505050565b61232681611918565b8114612330575f80fd5b50565b5f815190506123418161231d565b92915050565b5f6020828403121561235c5761235b611571565b5b5f61236984828501612333565b91505092915050565b7f57463a20526566756e64207472616e73666572206661696c65640000000000005f82015250565b5f6123a6601a8361194b565b91506123b182612372565b602082019050919050565b5f6020820190508181035f8301526123d38161239a565b9050919050565b7f5574696c733a2062616420762076616c756520696e207369676e6174757265005f82015250565b5f61240e601f8361194b565b9150612419826123da565b602082019050919050565b5f6020820190508181035f83015261243b81612402565b9050919050565b61244b81611ce9565b82525050565b5f60ff82169050919050565b61246681612451565b82525050565b5f60808201905061247f5f830187612442565b61248c602083018661245d565b6124996040830185612442565b6124a66060830184612442565b95945050505050565b7f5574696c733a2065637265636f7665722072657475726e6564203000000000005f82015250565b5f6124e3601b8361194b565b91506124ee826124af565b602082019050919050565b5f6020820190508181035f830152612510816124d7565b9050919050565b5f82825260208201905092915050565b5f601f19601f8301169050919050565b5f61254182611bc0565b61254b8185612517565b935061255b818560208601611bd4565b61256481612527565b840191505092915050565b5f6060820190506125825f830186611540565b61258f6020830185611b8a565b81810360408301526125a18184612537565b9050949350505050565b5f6125b68284611be2565b915081905092915050565b5f80fd5b6125ce82612527565b810181811067ffffffffffffffff821117156125ed576125ec61217b565b5b80604052505050565b5f6125ff611568565b905061260b82826125c5565b919050565b5f67ffffffffffffffff82111561262a5761262961217b565b5b61263382612527565b9050602081019050919050565b5f61265261264d84612610565b6125f6565b90508281526020810184848401111561266e5761266d6125c1565b5b612679848285611bd4565b509392505050565b5f82601f83011261269557612694611645565b5b81516126a5848260208601612640565b91505092915050565b5f602082840312156126c3576126c2611571565b5b5f82015167ffffffffffffffff8111156126e0576126df611575565b5b6126ec84828501612681565b9150509291505056fe60a060405234801561000f575f80fd5b506040516102f63803806102f6833981810160405281019061003191906100c9565b8073ffffffffffffffffffffffffffffffffffffffff1660808173ffffffffffffffffffffffffffffffffffffffff1681525050506100f4565b5f80fd5b5f73ffffffffffffffffffffffffffffffffffffffff82169050919050565b5f6100988261006f565b9050919050565b6100a88161008e565b81146100b2575f80fd5b50565b5f815190506100c38161009f565b92915050565b5f602082840312156100de576100dd61006b565b5b5f6100eb848285016100b5565b91505092915050565b6080516101e56101115f395f81816078015260e401526101e55ff3fe608060405260043610610021575f3560e01c80635c60da1b146100b857610075565b36610075573373ffffffffffffffffffffffffffffffffffffffff16347f606834f57405380c4fb88d1f4850326ad3885f014bab3b568dfbf7a041eef73860405161006b90610139565b60405180910390a3005b5f7f00000000000000000000000000000000000000000000000000000000000000009050365f80375f80365f845af43d5f803e805f81146100b4573d5ff35b3d5ffd5b3480156100c3575f80fd5b506100cc6100e2565b6040516100d99190610196565b60405180910390f35b7f000000000000000000000000000000000000000000000000000000000000000081565b5f82825260208201905092915050565b50565b5f6101245f83610106565b915061012f82610116565b5f82019050919050565b5f6020820190508181035f83015261015081610119565b9050919050565b5f73ffffffffffffffffffffffffffffffffffffffff82169050919050565b5f61018082610157565b9050919050565b61019081610176565b82525050565b5f6020820190506101a95f830184610187565b9291505056fea2646970667358221220bf44ee573f676ee7b34d108e581285e19ebedc239213a099b4d432164d37d86864736f6c634300081a0033a264697066735822122044e68d36cded31493cc049f4ab46458f9fd31c4dfd9c82f506269830b2c2f4e064736f6c634300081a0033",
			"opcodes": "PUSH1 0xC0 PUSH1 0x40 MSTORE CALLVALUE DUP1 ISZERO PUSH2 0xF JUMPI PUSH0 DUP1 REVERT JUMPDEST POP PUSH1 0x40 MLOAD PUSH2 0x2EB7 CODESIZE SUB DUP1 PUSH2 0x2EB7 DUP4 CODECOPY DUP2 DUP2 ADD PUSH1 0x40 MSTORE DUP2 ADD SWAP1 PUSH2 0x31 SWAP2 SWAP1 PUSH2 0x2C8 JUMP JUMPDEST CALLER PUSH0 DUP1 PUSH2 0x100 EXP DUP2 SLOAD DUP2 PUSH20 0xFFFFFFFFFFFFFFFFFFFFFFFFFFFFFFFFFFFFFFFF MUL NOT AND SWAP1 DUP4 PUSH20 0xFFFFFFFFFFFFFFFFFFFFFFFFFFFFFFFFFFFFFFFF AND MUL OR SWAP1 SSTORE POP PUSH0 PUSH20 0xFFFFFFFFFFFFFFFFFFFFFFFFFFFFFFFFFFFFFFFF AND DUP4 PUSH20 0xFFFFFFFFFFFFFFFFFFFFFFFFFFFFFFFFFFFFFFFF AND SUB PUSH2 0xDE JUMPI PUSH1 0x40 MLOAD PUSH32 0x8C379A000000000000000000000000000000000000000000000000000000000 DUP2 MSTORE PUSH1 0x4 ADD PUSH2 0xD5 SWAP1 PUSH2 0x372 JUMP JUMPDEST PUSH1 0x40 MLOAD DUP1 SWAP2 SUB SWAP1 REVERT JUMPDEST PUSH0 PUSH20 0xFFFFFFFFFFFFFFFFFFFFFFFFFFFFFFFFFFFFFFFF AND DUP3 PUSH20 0xFFFFFFFFFFFFFFFFFFFFFFFFFFFFFFFFFFFFFFFF AND SUB PUSH2 0x14C JUMPI PUSH1 0x40 MLOAD PUSH32 0x8C379A000000000000000000000000000000000000000000000000000000000 DUP2 MSTORE PUSH1 0x4 ADD PUSH2 0x143 SWAP1 PUSH2 0x3DA JUMP JUMPDEST PUSH1 0x40 MLOAD DUP1 SWAP2 SUB SWAP1 REVERT JUMPDEST PUSH0 PUSH20 0xFFFFFFFFFFFFFFFFFFFFFFFFFFFFFFFFFFFFFFFF AND DUP2 PUSH20 0xFFFFFFFFFFFFFFFFFFFFFFFFFFFFFFFFFFFFFFFF AND SUB PUSH2 0x1BA JUMPI PUSH1 0x40 MLOAD PUSH32 0x8C379A000000000000000000000000000000000000000000000000000000000 DUP2 MSTORE PUSH1 0x4 ADD PUSH2 0x1B1 SWAP1 PUSH2 0x442 JUMP JUMPDEST PUSH1 0x40 MLOAD DUP1 SWAP2 SUB SWAP1 REVERT JUMPDEST DUP3 PUSH20 0xFFFFFFFFFFFFFFFFFFFFFFFFFFFFFFFFFFFFFFFF AND PUSH1 0x80 DUP2 PUSH20 0xFFFFFFFFFFFFFFFFFFFFFFFFFFFFFFFFFFFFFFFF AND DUP2 MSTORE POP POP DUP2 PUSH20 0xFFFFFFFFFFFFFFFFFFFFFFFFFFFFFFFFFFFFFFFF AND PUSH1 0xA0 DUP2 PUSH20 0xFFFFFFFFFFFFFFFFFFFFFFFFFFFFFFFFFFFFFFFF AND DUP2 MSTORE POP POP DUP1 PUSH1 0x2 PUSH0 PUSH2 0x100 EXP DUP2 SLOAD DUP2 PUSH20 0xFFFFFFFFFFFFFFFFFFFFFFFFFFFFFFFFFFFFFFFF MUL NOT AND SWAP1 DUP4 PUSH20 0xFFFFFFFFFFFFFFFFFFFFFFFFFFFFFFFFFFFFFFFF AND MUL OR SWAP1 SSTORE POP POP POP POP PUSH2 0x460 JUMP JUMPDEST PUSH0 DUP1 REVERT JUMPDEST PUSH0 PUSH20 0xFFFFFFFFFFFFFFFFFFFFFFFFFFFFFFFFFFFFFFFF DUP3 AND SWAP1 POP SWAP2 SWAP1 POP JUMP JUMPDEST PUSH0 PUSH2 0x297 DUP3 PUSH2 0x26E JUMP JUMPDEST SWAP1 POP SWAP2 SWAP1 POP JUMP JUMPDEST PUSH2 0x2A7 DUP2 PUSH2 0x28D JUMP JUMPDEST DUP2 EQ PUSH2 0x2B1 JUMPI PUSH0 DUP1 REVERT JUMPDEST POP JUMP JUMPDEST PUSH0 DUP2 MLOAD SWAP1 POP PUSH2 0x2C2 DUP2 PUSH2 0x29E JUMP JUMPDEST SWAP3 SWAP2 POP POP JUMP JUMPDEST PUSH0 DUP1 PUSH0 PUSH1 0x60 DUP5 DUP7 SUB SLT ISZERO PUSH2 0x2DF JUMPI PUSH2 0x2DE PUSH2 0x26A JUMP JUMPDEST JUMPDEST PUSH0 PUSH2 0x2EC DUP7 DUP3 DUP8 ADD PUSH2 0x2B4 JUMP JUMPDEST SWAP4 POP POP PUSH1 0x20 PUSH2 0x2FD DUP7 DUP3 DUP8 ADD PUSH2 0x2B4 JUMP JUMPDEST SWAP3 POP POP PUSH1 0x40 PUSH2 0x30E DUP7 DUP3 DUP8 ADD PUSH2 0x2B4 JUMP JUMPDEST SWAP2 POP POP SWAP3 POP SWAP3 POP SWAP3 JUMP JUMPDEST PUSH0 DUP3 DUP3 MSTORE PUSH1 0x20 DUP3 ADD SWAP1 POP SWAP3 SWAP2 POP POP JUMP JUMPDEST PUSH32 0x57463A20656D7074792077616C6C657420696D706C656D656E746174696F6E00 PUSH0 DUP3 ADD MSTORE POP JUMP JUMPDEST PUSH0 PUSH2 0x35C PUSH1 0x1F DUP4 PUSH2 0x318 JUMP JUMPDEST SWAP2 POP PUSH2 0x367 DUP3 PUSH2 0x328 JUMP JUMPDEST PUSH1 0x20 DUP3 ADD SWAP1 POP SWAP2 SWAP1 POP JUMP JUMPDEST PUSH0 PUSH1 0x20 DUP3 ADD SWAP1 POP DUP2 DUP2 SUB PUSH0 DUP4 ADD MSTORE PUSH2 0x389 DUP2 PUSH2 0x350 JUMP JUMPDEST SWAP1 POP SWAP2 SWAP1 POP JUMP JUMPDEST PUSH32 0x57463A20656D70747920677561726469616E2073746F72616765000000000000 PUSH0 DUP3 ADD MSTORE POP JUMP JUMPDEST PUSH0 PUSH2 0x3C4 PUSH1 0x1A DUP4 PUSH2 0x318 JUMP JUMPDEST SWAP2 POP PUSH2 0x3CF DUP3 PUSH2 0x390 JUMP JUMPDEST PUSH1 0x20 DUP3 ADD SWAP1 POP SWAP2 SWAP1 POP JUMP JUMPDEST PUSH0 PUSH1 0x20 DUP3 ADD SWAP1 POP DUP2 DUP2 SUB PUSH0 DUP4 ADD MSTORE PUSH2 0x3F1 DUP2 PUSH2 0x3B8 JUMP JUMPDEST SWAP1 POP SWAP2 SWAP1 POP JUMP JUMPDEST PUSH32 0x57463A20656D70747920726566756E6420616464726573730000000000000000 PUSH0 DUP3 ADD MSTORE POP JUMP JUMPDEST PUSH0 PUSH2 0x42C PUSH1 0x18 DUP4 PUSH2 0x318 JUMP JUMPDEST SWAP2 POP PUSH2 0x437 DUP3 PUSH2 0x3F8 JUMP JUMPDEST PUSH1 0x20 DUP3 ADD SWAP1 POP SWAP2 SWAP1 POP JUMP JUMPDEST PUSH0 PUSH1 0x20 DUP3 ADD SWAP1 POP DUP2 DUP2 SUB PUSH0 DUP4 ADD MSTORE PUSH2 0x459 DUP2 PUSH2 0x420 JUMP JUMPDEST SWAP1 POP SWAP2 SWAP1 POP JUMP JUMPDEST PUSH1 0x80 MLOAD PUSH1 0xA0 MLOAD PUSH2 0x2A21 PUSH2 0x496 PUSH0 CODECOPY PUSH0 DUP2 DUP2 PUSH2 0xA07 ADD MSTORE PUSH2 0xFC3 ADD MSTORE PUSH0 DUP2 DUP2 PUSH2 0x60E ADD MSTORE DUP2 DUP2 PUSH2 0x7F4 ADD MSTORE PUSH2 0xA6D ADD MSTORE PUSH2 0x2A21 PUSH0 RETURN INVALID PUSH1 0x80 PUSH1 0x40 MSTORE CALLVALUE DUP1 ISZERO PUSH2 0xF JUMPI PUSH0 DUP1 REVERT JUMPDEST POP PUSH1 0x4 CALLDATASIZE LT PUSH2 0xB2 JUMPI PUSH0 CALLDATALOAD PUSH1 0xE0 SHR DUP1 PUSH4 0x8DA5CB5B GT PUSH2 0x6F JUMPI DUP1 PUSH4 0x8DA5CB5B EQ PUSH2 0x162 JUMPI DUP1 PUSH4 0xA6F9DAE1 EQ PUSH2 0x180 JUMPI DUP1 PUSH4 0xA80DD9DF EQ PUSH2 0x19C JUMPI DUP1 PUSH4 0xD89784FC EQ PUSH2 0x1CC JUMPI DUP1 PUSH4 0xFBE2EC7D EQ PUSH2 0x1EA JUMPI DUP1 PUSH4 0xFDFF9B4D EQ PUSH2 0x21A JUMPI PUSH2 0xB2 JUMP JUMPDEST DUP1 PUSH4 0xCB61F6C EQ PUSH2 0xB6 JUMPI DUP1 PUSH4 0x19AB453C EQ PUSH2 0xD4 JUMPI DUP1 PUSH4 0x2C828525 EQ PUSH2 0xF0 JUMPI DUP1 PUSH4 0x2D06177A EQ PUSH2 0x10C JUMPI DUP1 PUSH4 0x377E32E6 EQ PUSH2 0x128 JUMPI DUP1 PUSH4 0x8117ABC1 EQ PUSH2 0x144 JUMPI JUMPDEST PUSH0 DUP1 REVERT JUMPDEST PUSH2 0xBE PUSH2 0x24A JUMP JUMPDEST PUSH1 0x40 MLOAD PUSH2 0xCB SWAP2 SWAP1 PUSH2 0x154F JUMP JUMPDEST PUSH1 0x40 MLOAD DUP1 SWAP2 SUB SWAP1 RETURN JUMPDEST PUSH2 0xEE PUSH1 0x4 DUP1 CALLDATASIZE SUB DUP2 ADD SWAP1 PUSH2 0xE9 SWAP2 SWAP1 PUSH2 0x15C5 JUMP JUMPDEST PUSH2 0x26F JUMP JUMPDEST STOP JUMPDEST PUSH2 0x10A PUSH1 0x4 DUP1 CALLDATASIZE SUB DUP2 ADD SWAP1 PUSH2 0x105 SWAP2 SWAP1 PUSH2 0x161A JUMP JUMPDEST PUSH2 0x272 JUMP JUMPDEST STOP JUMPDEST PUSH2 0x126 PUSH1 0x4 DUP1 CALLDATASIZE SUB DUP2 ADD SWAP1 PUSH2 0x121 SWAP2 SWAP1 PUSH2 0x161A JUMP JUMPDEST PUSH2 0x3E7 JUMP JUMPDEST STOP JUMPDEST PUSH2 0x142 PUSH1 0x4 DUP1 CALLDATASIZE SUB DUP2 ADD SWAP1 PUSH2 0x13D SWAP2 SWAP1 PUSH2 0x161A JUMP JUMPDEST PUSH2 0x5D1 JUMP JUMPDEST STOP JUMPDEST PUSH2 0x14C PUSH2 0x60C JUMP JUMPDEST PUSH1 0x40 MLOAD PUSH2 0x159 SWAP2 SWAP1 PUSH2 0x154F JUMP JUMPDEST PUSH1 0x40 MLOAD DUP1 SWAP2 SUB SWAP1 RETURN JUMPDEST PUSH2 0x16A PUSH2 0x630 JUMP JUMPDEST PUSH1 0x40 MLOAD PUSH2 0x177 SWAP2 SWAP1 PUSH2 0x154F JUMP JUMPDEST PUSH1 0x40 MLOAD DUP1 SWAP2 SUB SWAP1 RETURN JUMPDEST PUSH2 0x19A PUSH1 0x4 DUP1 CALLDATASIZE SUB DUP2 ADD SWAP1 PUSH2 0x195 SWAP2 SWAP1 PUSH2 0x161A JUMP JUMPDEST PUSH2 0x653 JUMP JUMPDEST STOP JUMPDEST PUSH2 0x1B6 PUSH1 0x4 DUP1 CALLDATASIZE SUB DUP2 ADD SWAP1 PUSH2 0x1B1 SWAP2 SWAP1 PUSH2 0x1783 JUMP JUMPDEST PUSH2 0x7D3 JUMP JUMPDEST PUSH1 0x40 MLOAD PUSH2 0x1C3 SWAP2 SWAP1 PUSH2 0x154F JUMP JUMPDEST PUSH1 0x40 MLOAD DUP1 SWAP2 SUB SWAP1 RETURN JUMPDEST PUSH2 0x1D4 PUSH2 0xA05 JUMP JUMPDEST PUSH1 0x40 MLOAD PUSH2 0x1E1 SWAP2 SWAP1 PUSH2 0x154F JUMP JUMPDEST PUSH1 0x40 MLOAD DUP1 SWAP2 SUB SWAP1 RETURN JUMPDEST PUSH2 0x204 PUSH1 0x4 DUP1 CALLDATASIZE SUB DUP2 ADD SWAP1 PUSH2 0x1FF SWAP2 SWAP1 PUSH2 0x1894 JUMP JUMPDEST PUSH2 0xA29 JUMP JUMPDEST PUSH1 0x40 MLOAD PUSH2 0x211 SWAP2 SWAP1 PUSH2 0x154F JUMP JUMPDEST PUSH1 0x40 MLOAD DUP1 SWAP2 SUB SWAP1 RETURN JUMPDEST PUSH2 0x234 PUSH1 0x4 DUP1 CALLDATASIZE SUB DUP2 ADD SWAP1 PUSH2 0x22F SWAP2 SWAP1 PUSH2 0x161A JUMP JUMPDEST PUSH2 0xB10 JUMP JUMPDEST PUSH1 0x40 MLOAD PUSH2 0x241 SWAP2 SWAP1 PUSH2 0x1932 JUMP JUMPDEST PUSH1 0x40 MLOAD DUP1 SWAP2 SUB SWAP1 RETURN JUMPDEST PUSH1 0x2 PUSH0 SWAP1 SLOAD SWAP1 PUSH2 0x100 EXP SWAP1 DIV PUSH20 0xFFFFFFFFFFFFFFFFFFFFFFFFFFFFFFFFFFFFFFFF AND DUP2 JUMP JUMPDEST POP JUMP JUMPDEST PUSH0 DUP1 SLOAD SWAP1 PUSH2 0x100 EXP SWAP1 DIV PUSH20 0xFFFFFFFFFFFFFFFFFFFFFFFFFFFFFFFFFFFFFFFF AND PUSH20 0xFFFFFFFFFFFFFFFFFFFFFFFFFFFFFFFFFFFFFFFF AND CALLER PUSH20 0xFFFFFFFFFFFFFFFFFFFFFFFFFFFFFFFFFFFFFFFF AND EQ PUSH2 0x2FF JUMPI PUSH1 0x40 MLOAD PUSH32 0x8C379A000000000000000000000000000000000000000000000000000000000 DUP2 MSTORE PUSH1 0x4 ADD PUSH2 0x2F6 SWAP1 PUSH2 0x19A5 JUMP JUMPDEST PUSH1 0x40 MLOAD DUP1 SWAP2 SUB SWAP1 REVERT JUMPDEST PUSH0 PUSH20 0xFFFFFFFFFFFFFFFFFFFFFFFFFFFFFFFFFFFFFFFF AND DUP2 PUSH20 0xFFFFFFFFFFFFFFFFFFFFFFFFFFFFFFFFFFFFFFFF AND SUB PUSH2 0x36D JUMPI PUSH1 0x40 MLOAD PUSH32 0x8C379A000000000000000000000000000000000000000000000000000000000 DUP2 MSTORE PUSH1 0x4 ADD PUSH2 0x364 SWAP1 PUSH2 0x1A0D JUMP JUMPDEST PUSH1 0x40 MLOAD DUP1 SWAP2 SUB SWAP1 REVERT JUMPDEST DUP1 PUSH1 0x2 PUSH0 PUSH2 0x100 EXP DUP2 SLOAD DUP2 PUSH20 0xFFFFFFFFFFFFFFFFFFFFFFFFFFFFFFFFFFFFFFFF MUL NOT AND SWAP1 DUP4 PUSH20 0xFFFFFFFFFFFFFFFFFFFFFFFFFFFFFFFFFFFFFFFF AND MUL OR SWAP1 SSTORE POP PUSH32 0xA7CB165192538768851363C5AA55B1ADE75D692A51063730FECCDD57D002A6ED DUP2 PUSH1 0x40 MLOAD PUSH2 0x3DC SWAP2 SWAP1 PUSH2 0x154F JUMP JUMPDEST PUSH1 0x40 MLOAD DUP1 SWAP2 SUB SWAP1 LOG1 POP JUMP JUMPDEST PUSH0 DUP1 SLOAD SWAP1 PUSH2 0x100 EXP SWAP1 DIV PUSH20 0xFFFFFFFFFFFFFFFFFFFFFFFFFFFFFFFFFFFFFFFF AND PUSH20 0xFFFFFFFFFFFFFFFFFFFFFFFFFFFFFFFFFFFFFFFF AND CALLER PUSH20 0xFFFFFFFFFFFFFFFFFFFFFFFFFFFFFFFFFFFFFFFF AND EQ PUSH2 0x474 JUMPI PUSH1 0x40 MLOAD PUSH32 0x8C379A000000000000000000000000000000000000000000000000000000000 DUP2 MSTORE PUSH1 0x4 ADD PUSH2 0x46B SWAP1 PUSH2 0x19A5 JUMP JUMPDEST PUSH1 0x40 MLOAD DUP1 SWAP2 SUB SWAP1 REVERT JUMPDEST PUSH0 PUSH20 0xFFFFFFFFFFFFFFFFFFFFFFFFFFFFFFFFFFFFFFFF AND DUP2 PUSH20 0xFFFFFFFFFFFFFFFFFFFFFFFFFFFFFFFFFFFFFFFF AND SUB PUSH2 0x4E2 JUMPI PUSH1 0x40 MLOAD PUSH32 0x8C379A000000000000000000000000000000000000000000000000000000000 DUP2 MSTORE PUSH1 0x4 ADD PUSH2 0x4D9 SWAP1 PUSH2 0x1A75 JUMP JUMPDEST PUSH1 0x40 MLOAD DUP1 SWAP2 SUB SWAP1 REVERT JUMPDEST PUSH0 ISZERO ISZERO PUSH1 0x1 PUSH0 DUP4 PUSH20 0xFFFFFFFFFFFFFFFFFFFFFFFFFFFFFFFFFFFFFFFF AND PUSH20 0xFFFFFFFFFFFFFFFFFFFFFFFFFFFFFFFFFFFFFFFF AND DUP2 MSTORE PUSH1 0x20 ADD SWAP1 DUP2 MSTORE PUSH1 0x20 ADD PUSH0 KECCAK256 PUSH0 SWAP1 SLOAD SWAP1 PUSH2 0x100 EXP SWAP1 DIV PUSH1 0xFF AND ISZERO ISZERO SUB PUSH2 0x5CE JUMPI PUSH1 0x1 DUP1 PUSH0 DUP4 PUSH20 0xFFFFFFFFFFFFFFFFFFFFFFFFFFFFFFFFFFFFFFFF AND PUSH20 0xFFFFFFFFFFFFFFFFFFFFFFFFFFFFFFFFFFFFFFFF AND DUP2 MSTORE PUSH1 0x20 ADD SWAP1 DUP2 MSTORE PUSH1 0x20 ADD PUSH0 KECCAK256 PUSH0 PUSH2 0x100 EXP DUP2 SLOAD DUP2 PUSH1 0xFF MUL NOT AND SWAP1 DUP4 ISZERO ISZERO MUL OR SWAP1 SSTORE POP DUP1 PUSH20 0xFFFFFFFFFFFFFFFFFFFFFFFFFFFFFFFFFFFFFFFF AND PUSH32 0x3B4A40CCCF2058C593542587329DD385BE4F0B588DB5471FBD9598E56DD7093A PUSH1 0x40 MLOAD PUSH1 0x40 MLOAD DUP1 SWAP2 SUB SWAP1 LOG2 JUMPDEST POP JUMP JUMPDEST PUSH1 0x40 MLOAD PUSH32 0x8C379A000000000000000000000000000000000000000000000000000000000 DUP2 MSTORE PUSH1 0x4 ADD PUSH2 0x603 SWAP1 PUSH2 0x1ADD JUMP JUMPDEST PUSH1 0x40 MLOAD DUP1 SWAP2 SUB SWAP1 REVERT JUMPDEST PUSH32 0x0 DUP2 JUMP JUMPDEST PUSH0 DUP1 SLOAD SWAP1 PUSH2 0x100 EXP SWAP1 DIV PUSH20 0xFFFFFFFFFFFFFFFFFFFFFFFFFFFFFFFFFFFFFFFF AND DUP2 JUMP JUMPDEST PUSH0 DUP1 SLOAD SWAP1 PUSH2 0x100 EXP SWAP1 DIV PUSH20 0xFFFFFFFFFFFFFFFFFFFFFFFFFFFFFFFFFFFFFFFF AND PUSH20 0xFFFFFFFFFFFFFFFFFFFFFFFFFFFFFFFFFFFFFFFF AND CALLER PUSH20 0xFFFFFFFFFFFFFFFFFFFFFFFFFFFFFFFFFFFFFFFF AND EQ PUSH2 0x6E0 JUMPI PUSH1 0x40 MLOAD PUSH32 0x8C379A000000000000000000000000000000000000000000000000000000000 DUP2 MSTORE PUSH1 0x4 ADD PUSH2 0x6D7 SWAP1 PUSH2 0x19A5 JUMP JUMPDEST PUSH1 0x40 MLOAD DUP1 SWAP2 SUB SWAP1 REVERT JUMPDEST PUSH0 PUSH20 0xFFFFFFFFFFFFFFFFFFFFFFFFFFFFFFFFFFFFFFFF AND DUP2 PUSH20 0xFFFFFFFFFFFFFFFFFFFFFFFFFFFFFFFFFFFFFFFF AND SUB PUSH2 0x74E JUMPI PUSH1 0x40 MLOAD PUSH32 0x8C379A000000000000000000000000000000000000000000000000000000000 DUP2 MSTORE PUSH1 0x4 ADD PUSH2 0x745 SWAP1 PUSH2 0x1B45 JUMP JUMPDEST PUSH1 0x40 MLOAD DUP1 SWAP2 SUB SWAP1 REVERT JUMPDEST DUP1 PUSH0 DUP1 PUSH2 0x100 EXP DUP2 SLOAD DUP2 PUSH20 0xFFFFFFFFFFFFFFFFFFFFFFFFFFFFFFFFFFFFFFFF MUL NOT AND SWAP1 DUP4 PUSH20 0xFFFFFFFFFFFFFFFFFFFFFFFFFFFFFFFFFFFFFFFF AND MUL OR SWAP1 SSTORE POP DUP1 PUSH20 0xFFFFFFFFFFFFFFFFFFFFFFFFFFFFFFFFFFFFFFFF AND PUSH32 0xA2EA9883A321A3E97B8266C2B078BFEEC6D50C711ED71F874A90D500AE2EAF36 PUSH1 0x40 MLOAD PUSH1 0x40 MLOAD DUP1 SWAP2 SUB SWAP1 LOG2 POP JUMP JUMPDEST PUSH0 PUSH2 0x7E0 DUP13 DUP13 DUP13 DUP13 PUSH2 0xB2D JUMP JUMPDEST PUSH0 PUSH2 0x7EE DUP10 DUP15 DUP15 DUP15 DUP15 PUSH2 0xCC2 JUMP JUMPDEST SWAP1 POP PUSH0 DUP2 PUSH32 0x0 PUSH1 0x40 MLOAD PUSH2 0x81F SWAP1 PUSH2 0x1503 JUMP JUMPDEST PUSH2 0x829 SWAP2 SWAP1 PUSH2 0x154F JUMP JUMPDEST DUP2 SWAP1 PUSH1 0x40 MLOAD DUP1 SWAP2 SUB SWAP1 PUSH0 CREATE2 SWAP1 POP DUP1 ISZERO DUP1 ISZERO PUSH2 0x846 JUMPI RETURNDATASIZE PUSH0 DUP1 RETURNDATACOPY RETURNDATASIZE PUSH0 REVERT JUMPDEST POP SWAP1 POP PUSH2 0x896 DUP2 DUP7 DUP7 DUP1 DUP1 PUSH1 0x1F ADD PUSH1 0x20 DUP1 SWAP2 DIV MUL PUSH1 0x20 ADD PUSH1 0x40 MLOAD SWAP1 DUP2 ADD PUSH1 0x40 MSTORE DUP1 SWAP4 SWAP3 SWAP2 SWAP1 DUP2 DUP2 MSTORE PUSH1 0x20 ADD DUP4 DUP4 DUP1 DUP3 DUP5 CALLDATACOPY PUSH0 DUP2 DUP5 ADD MSTORE PUSH1 0x1F NOT PUSH1 0x1F DUP3 ADD AND SWAP1 POP DUP1 DUP4 ADD SWAP3 POP POP POP POP POP POP POP PUSH2 0xD23 JUMP JUMPDEST PUSH2 0x8A3 DUP2 DUP16 DUP16 DUP16 DUP16 PUSH2 0xE14 JUMP JUMPDEST PUSH0 DUP10 GT DUP1 ISZERO PUSH2 0x8B5 JUMPI POP PUSH1 0x41 DUP8 DUP8 SWAP1 POP EQ JUMPDEST ISZERO PUSH2 0x90B JUMPI PUSH2 0x90A DUP2 DUP16 DUP12 DUP12 DUP12 DUP12 DUP1 DUP1 PUSH1 0x1F ADD PUSH1 0x20 DUP1 SWAP2 DIV MUL PUSH1 0x20 ADD PUSH1 0x40 MLOAD SWAP1 DUP2 ADD PUSH1 0x40 MSTORE DUP1 SWAP4 SWAP3 SWAP2 SWAP1 DUP2 DUP2 MSTORE PUSH1 0x20 ADD DUP4 DUP4 DUP1 DUP3 DUP5 CALLDATACOPY PUSH0 DUP2 DUP5 ADD MSTORE PUSH1 0x1F NOT PUSH1 0x1F DUP3 ADD AND SWAP1 POP DUP1 DUP4 ADD SWAP3 POP POP POP POP POP POP POP PUSH2 0x1051 JUMP JUMPDEST JUMPDEST DUP1 PUSH20 0xFFFFFFFFFFFFFFFFFFFFFFFFFFFFFFFFFFFFFFFF AND PUSH4 0x1F17732D ADDRESS PUSH0 PUSH1 0x40 MLOAD DUP4 PUSH4 0xFFFFFFFF AND PUSH1 0xE0 SHL DUP2 MSTORE PUSH1 0x4 ADD PUSH2 0x946 SWAP3 SWAP2 SWAP1 PUSH2 0x1B63 JUMP JUMPDEST PUSH0 PUSH1 0x40 MLOAD DUP1 DUP4 SUB DUP2 PUSH0 DUP8 DUP1 EXTCODESIZE ISZERO DUP1 ISZERO PUSH2 0x95D JUMPI PUSH0 DUP1 REVERT JUMPDEST POP GAS CALL ISZERO DUP1 ISZERO PUSH2 0x96F JUMPI RETURNDATASIZE PUSH0 DUP1 RETURNDATACOPY RETURNDATASIZE PUSH0 REVERT JUMPDEST POP POP POP POP DUP11 PUSH20 0xFFFFFFFFFFFFFFFFFFFFFFFFFFFFFFFFFFFFFFFF AND DUP15 PUSH20 0xFFFFFFFFFFFFFFFFFFFFFFFFFFFFFFFFFFFFFFFF AND DUP3 PUSH20 0xFFFFFFFFFFFFFFFFFFFFFFFFFFFFFFFFFFFFFFFF AND PUSH32 0xACD43E061B8EE386537B57919358CFA44933C4E47CCD4B2E1916E54133CEC748 DUP12 DUP14 PUSH1 0x40 MLOAD PUSH2 0x9E9 SWAP3 SWAP2 SWAP1 PUSH2 0x1B99 JUMP JUMPDEST PUSH1 0x40 MLOAD DUP1 SWAP2 SUB SWAP1 LOG4 DUP1 SWAP3 POP POP POP SWAP12 SWAP11 POP POP POP POP POP POP POP POP POP POP POP JUMP JUMPDEST PUSH32 0x0 DUP2 JUMP JUMPDEST PUSH0 PUSH2 0xA36 DUP7 DUP7 DUP7 DUP7 PUSH2 0xB2D JUMP JUMPDEST PUSH0 PUSH2 0xA44 DUP4 DUP9 DUP9 DUP9 DUP9 PUSH2 0xCC2 JUMP JUMPDEST SWAP1 POP PUSH0 PUSH1 0x40 MLOAD DUP1 PUSH1 0x20 ADD PUSH2 0xA57 SWAP1 PUSH2 0x1503 JUMP JUMPDEST PUSH1 0x20 DUP3 ADD DUP2 SUB DUP3 MSTORE PUSH1 0x1F NOT PUSH1 0x1F DUP3 ADD AND PUSH1 0x40 MSTORE POP PUSH32 0x0 PUSH20 0xFFFFFFFFFFFFFFFFFFFFFFFFFFFFFFFFFFFFFFFF AND PUSH1 0x40 MLOAD PUSH1 0x20 ADD PUSH2 0xAB3 SWAP3 SWAP2 SWAP1 PUSH2 0x1C32 JUMP JUMPDEST PUSH1 0x40 MLOAD PUSH1 0x20 DUP2 DUP4 SUB SUB DUP2 MSTORE SWAP1 PUSH1 0x40 MSTORE SWAP1 POP PUSH0 PUSH1 0xFF PUSH1 0xF8 SHL ADDRESS DUP5 DUP5 DUP1 MLOAD SWAP1 PUSH1 0x20 ADD KECCAK256 PUSH1 0x40 MLOAD PUSH1 0x20 ADD PUSH2 0xAE7 SWAP5 SWAP4 SWAP3 SWAP2 SWAP1 PUSH2 0x1D12 JUMP JUMPDEST PUSH1 0x40 MLOAD PUSH1 0x20 DUP2 DUP4 SUB SUB DUP2 MSTORE SWAP1 PUSH1 0x40 MSTORE DUP1 MLOAD SWAP1 PUSH1 0x20 ADD KECCAK256 SWAP1 POP DUP1 PUSH0 SHR SWAP4 POP POP POP POP SWAP6 SWAP5 POP POP POP POP POP JUMP JUMPDEST PUSH1 0x1 PUSH1 0x20 MSTORE DUP1 PUSH0 MSTORE PUSH1 0x40 PUSH0 KECCAK256 PUSH0 SWAP2 POP SLOAD SWAP1 PUSH2 0x100 EXP SWAP1 DIV PUSH1 0xFF AND DUP2 JUMP JUMPDEST PUSH0 PUSH20 0xFFFFFFFFFFFFFFFFFFFFFFFFFFFFFFFFFFFFFFFF AND DUP5 PUSH20 0xFFFFFFFFFFFFFFFFFFFFFFFFFFFFFFFFFFFFFFFF AND SUB PUSH2 0xB9B JUMPI PUSH1 0x40 MLOAD PUSH32 0x8C379A000000000000000000000000000000000000000000000000000000000 DUP2 MSTORE PUSH1 0x4 ADD PUSH2 0xB92 SWAP1 PUSH2 0x1DA9 JUMP JUMPDEST PUSH1 0x40 MLOAD DUP1 SWAP2 SUB SWAP1 REVERT JUMPDEST DUP1 PUSH20 0xFFFFFFFFFFFFFFFFFFFFFFFFFFFFFFFFFFFFFFFF AND DUP5 PUSH20 0xFFFFFFFFFFFFFFFFFFFFFFFFFFFFFFFFFFFFFFFF AND SUB PUSH2 0xC09 JUMPI PUSH1 0x40 MLOAD PUSH32 0x8C379A000000000000000000000000000000000000000000000000000000000 DUP2 MSTORE PUSH1 0x4 ADD PUSH2 0xC00 SWAP1 PUSH2 0x1E11 JUMP JUMPDEST PUSH1 0x40 MLOAD DUP1 SWAP2 SUB SWAP1 REVERT JUMPDEST PUSH0 DUP4 DUP4 SWAP1 POP GT PUSH2 0xC4E JUMPI PUSH1 0x40 MLOAD PUSH32 0x8C379A000000000000000000000000000000000000000000000000000000000 DUP2 MSTORE PUSH1 0x4 ADD PUSH2 0xC45 SWAP1 PUSH2 0x1E79 JUMP JUMPDEST PUSH1 0x40 MLOAD DUP1 SWAP2 SUB SWAP1 REVERT JUMPDEST PUSH0 PUSH20 0xFFFFFFFFFFFFFFFFFFFFFFFFFFFFFFFFFFFFFFFF AND DUP2 PUSH20 0xFFFFFFFFFFFFFFFFFFFFFFFFFFFFFFFFFFFFFFFF AND SUB PUSH2 0xCBC JUMPI PUSH1 0x40 MLOAD PUSH32 0x8C379A000000000000000000000000000000000000000000000000000000000 DUP2 MSTORE PUSH1 0x4 ADD PUSH2 0xCB3 SWAP1 PUSH2 0x1EE1 JUMP JUMPDEST PUSH1 0x40 MLOAD DUP1 SWAP2 SUB SWAP1 REVERT JUMPDEST POP POP POP POP JUMP JUMPDEST PUSH0 DUP5 DUP5 DUP5 DUP5 PUSH1 0x40 MLOAD PUSH1 0x20 ADD PUSH2 0xCDA SWAP5 SWAP4 SWAP3 SWAP2 SWAP1 PUSH2 0x1FB5 JUMP JUMPDEST PUSH1 0x40 MLOAD PUSH1 0x20 DUP2 DUP4 SUB SUB DUP2 MSTORE SWAP1 PUSH1 0x40 MSTORE DUP1 MLOAD SWAP1 PUSH1 0x20 ADD KECCAK256 DUP7 PUSH1 0x40 MLOAD PUSH1 0x20 ADD PUSH2 0xD02 SWAP3 SWAP2 SWAP1 PUSH2 0x200F JUMP JUMPDEST PUSH1 0x40 MLOAD PUSH1 0x20 DUP2 DUP4 SUB SUB DUP2 MSTORE SWAP1 PUSH1 0x40 MSTORE DUP1 MLOAD SWAP1 PUSH1 0x20 ADD KECCAK256 SWAP1 POP SWAP6 SWAP5 POP POP POP POP POP JUMP JUMPDEST PUSH0 PUSH1 0x41 DUP3 MLOAD EQ PUSH2 0xD35 JUMPI CALLER SWAP1 POP PUSH2 0xD86 JUMP JUMPDEST PUSH0 DUP4 PUSH20 0xFFFFFFFFFFFFFFFFFFFFFFFFFFFFFFFFFFFFFFFF AND PUSH0 SHL PUSH1 0x40 MLOAD PUSH1 0x20 ADD PUSH2 0xD5F SWAP2 SWAP1 PUSH2 0x208E JUMP JUMPDEST PUSH1 0x40 MLOAD PUSH1 0x20 DUP2 DUP4 SUB SUB DUP2 MSTORE SWAP1 PUSH1 0x40 MSTORE DUP1 MLOAD SWAP1 PUSH1 0x20 ADD KECCAK256 SWAP1 POP PUSH2 0xD82 DUP2 DUP5 PUSH0 PUSH2 0x1287 JUMP JUMPDEST SWAP2 POP POP JUMPDEST PUSH1 0x1 PUSH0 DUP3 PUSH20 0xFFFFFFFFFFFFFFFFFFFFFFFFFFFFFFFFFFFFFFFF AND PUSH20 0xFFFFFFFFFFFFFFFFFFFFFFFFFFFFFFFFFFFFFFFF AND DUP2 MSTORE PUSH1 0x20 ADD SWAP1 DUP2 MSTORE PUSH1 0x20 ADD PUSH0 KECCAK256 PUSH0 SWAP1 SLOAD SWAP1 PUSH2 0x100 EXP SWAP1 DIV PUSH1 0xFF AND PUSH2 0xE0F JUMPI PUSH1 0x40 MLOAD PUSH32 0x8C379A000000000000000000000000000000000000000000000000000000000 DUP2 MSTORE PUSH1 0x4 ADD PUSH2 0xE06 SWAP1 PUSH2 0x20FD JUMP JUMPDEST PUSH1 0x40 MLOAD DUP1 SWAP2 SUB SWAP1 REVERT JUMPDEST POP POP POP JUMP JUMPDEST PUSH0 PUSH1 0x1 DUP5 DUP5 SWAP1 POP PUSH2 0xE25 SWAP2 SWAP1 PUSH2 0x2148 JUMP JUMPDEST PUSH8 0xFFFFFFFFFFFFFFFF DUP2 GT ISZERO PUSH2 0xE3E JUMPI PUSH2 0xE3D PUSH2 0x217B JUMP JUMPDEST JUMPDEST PUSH1 0x40 MLOAD SWAP1 DUP1 DUP3 MSTORE DUP1 PUSH1 0x20 MUL PUSH1 0x20 ADD DUP3 ADD PUSH1 0x40 MSTORE DUP1 ISZERO PUSH2 0xE6C JUMPI DUP2 PUSH1 0x20 ADD PUSH1 0x20 DUP3 MUL DUP1 CALLDATASIZE DUP4 CALLDATACOPY DUP1 DUP3 ADD SWAP2 POP POP SWAP1 POP JUMPDEST POP SWAP1 POP ADDRESS DUP2 PUSH0 DUP2 MLOAD DUP2 LT PUSH2 0xE83 JUMPI PUSH2 0xE82 PUSH2 0x21A8 JUMP JUMPDEST JUMPDEST PUSH1 0x20 MUL PUSH1 0x20 ADD ADD SWAP1 PUSH20 0xFFFFFFFFFFFFFFFFFFFFFFFFFFFFFFFFFFFFFFFF AND SWAP1 DUP2 PUSH20 0xFFFFFFFFFFFFFFFFFFFFFFFFFFFFFFFFFFFFFFFF AND DUP2 MSTORE POP POP PUSH0 JUMPDEST DUP5 DUP5 SWAP1 POP DUP2 LT ISZERO PUSH2 0xF58 JUMPI DUP5 DUP5 DUP3 DUP2 DUP2 LT PUSH2 0xEDD JUMPI PUSH2 0xEDC PUSH2 0x21A8 JUMP JUMPDEST JUMPDEST SWAP1 POP PUSH1 0x20 MUL ADD PUSH1 0x20 DUP2 ADD SWAP1 PUSH2 0xEF2 SWAP2 SWAP1 PUSH2 0x161A JUMP JUMPDEST DUP3 PUSH1 0x1 DUP4 PUSH2 0xF00 SWAP2 SWAP1 PUSH2 0x2148 JUMP JUMPDEST DUP2 MLOAD DUP2 LT PUSH2 0xF11 JUMPI PUSH2 0xF10 PUSH2 0x21A8 JUMP JUMPDEST JUMPDEST PUSH1 0x20 MUL PUSH1 0x20 ADD ADD SWAP1 PUSH20 0xFFFFFFFFFFFFFFFFFFFFFFFFFFFFFFFFFFFFFFFF AND SWAP1 DUP2 PUSH20 0xFFFFFFFFFFFFFFFFFFFFFFFFFFFFFFFFFFFFFFFF AND DUP2 MSTORE POP POP DUP1 DUP1 PUSH1 0x1 ADD SWAP2 POP POP PUSH2 0xEBF JUMP JUMPDEST POP DUP6 PUSH20 0xFFFFFFFFFFFFFFFFFFFFFFFFFFFFFFFFFFFFFFFF AND PUSH4 0x3C5A3CEA DUP7 DUP4 PUSH1 0x40 MLOAD DUP4 PUSH4 0xFFFFFFFF AND PUSH1 0xE0 SHL DUP2 MSTORE PUSH1 0x4 ADD PUSH2 0xF94 SWAP3 SWAP2 SWAP1 PUSH2 0x228C JUMP JUMPDEST PUSH0 PUSH1 0x40 MLOAD DUP1 DUP4 SUB DUP2 PUSH0 DUP8 DUP1 EXTCODESIZE ISZERO DUP1 ISZERO PUSH2 0xFAB JUMPI PUSH0 DUP1 REVERT JUMPDEST POP GAS CALL ISZERO DUP1 ISZERO PUSH2 0xFBD JUMPI RETURNDATASIZE PUSH0 DUP1 RETURNDATACOPY RETURNDATASIZE PUSH0 REVERT JUMPDEST POP POP POP POP PUSH32 0x0 PUSH20 0xFFFFFFFFFFFFFFFFFFFFFFFFFFFFFFFFFFFFFFFF AND PUSH4 0xC6845210 DUP8 DUP5 PUSH1 0x40 MLOAD DUP4 PUSH4 0xFFFFFFFF AND PUSH1 0xE0 SHL DUP2 MSTORE PUSH1 0x4 ADD PUSH2 0x101C SWAP3 SWAP2 SWAP1 PUSH2 0x22BA JUMP JUMPDEST PUSH0 PUSH1 0x40 MLOAD DUP1 DUP4 SUB DUP2 PUSH0 DUP8 DUP1 EXTCODESIZE ISZERO DUP1 ISZERO PUSH2 0x1033 JUMPI PUSH0 DUP1 REVERT JUMPDEST POP GAS CALL ISZERO DUP1 ISZERO PUSH2 0x1045 JUMPI RETURNDATASIZE PUSH0 DUP1 RETURNDATACOPY RETURNDATASIZE PUSH0 REVERT JUMPDEST POP POP POP POP POP POP POP POP POP POP JUMP JUMPDEST PUSH0 DUP6 DUP5 DUP5 PUSH1 0x40 MLOAD PUSH1 0x20 ADD PUSH2 0x1067 SWAP4 SWAP3 SWAP2 SWAP1 PUSH2 0x22E1 JUMP JUMPDEST PUSH1 0x40 MLOAD PUSH1 0x20 DUP2 DUP4 SUB SUB DUP2 MSTORE SWAP1 PUSH1 0x40 MSTORE DUP1 MLOAD SWAP1 PUSH1 0x20 ADD KECCAK256 PUSH1 0x40 MLOAD PUSH1 0x20 ADD PUSH2 0x108D SWAP2 SWAP1 PUSH2 0x208E JUMP JUMPDEST PUSH1 0x40 MLOAD PUSH1 0x20 DUP2 DUP4 SUB SUB DUP2 MSTORE SWAP1 PUSH1 0x40 MSTORE DUP1 MLOAD SWAP1 PUSH1 0x20 ADD KECCAK256 SWAP1 POP PUSH0 PUSH2 0x10B1 DUP3 DUP5 PUSH0 PUSH2 0x1287 JUMP JUMPDEST SWAP1 POP DUP6 PUSH20 0xFFFFFFFFFFFFFFFFFFFFFFFFFFFFFFFFFFFFFFFF AND DUP2 PUSH20 0xFFFFFFFFFFFFFFFFFFFFFFFFFFFFFFFFFFFFFFFF AND SUB PUSH2 0x127E JUMPI PUSH0 PUSH20 0xFFFFFFFFFFFFFFFFFFFFFFFFFFFFFFFFFFFFFFFF AND DUP5 PUSH20 0xFFFFFFFFFFFFFFFFFFFFFFFFFFFFFFFFFFFFFFFF AND SUB PUSH2 0x115A JUMPI PUSH2 0x1154 DUP8 PUSH1 0x2 PUSH0 SWAP1 SLOAD SWAP1 PUSH2 0x100 EXP SWAP1 DIV PUSH20 0xFFFFFFFFFFFFFFFFFFFFFFFFFFFFFFFFFFFFFFFF AND DUP8 PUSH1 0x40 MLOAD DUP1 PUSH1 0x20 ADD PUSH1 0x40 MSTORE DUP1 PUSH0 DUP2 MSTORE POP PUSH2 0x13D1 JUMP JUMPDEST POP PUSH2 0x127D JUMP JUMPDEST PUSH0 PUSH1 0x2 PUSH0 SWAP1 SLOAD SWAP1 PUSH2 0x100 EXP SWAP1 DIV PUSH20 0xFFFFFFFFFFFFFFFFFFFFFFFFFFFFFFFFFFFFFFFF AND DUP7 PUSH1 0x40 MLOAD PUSH1 0x24 ADD PUSH2 0x118F SWAP3 SWAP2 SWAP1 PUSH2 0x1B99 JUMP JUMPDEST PUSH1 0x40 MLOAD PUSH1 0x20 DUP2 DUP4 SUB SUB DUP2 MSTORE SWAP1 PUSH1 0x40 MSTORE PUSH32 0xA9059CBB00000000000000000000000000000000000000000000000000000000 PUSH28 0xFFFFFFFFFFFFFFFFFFFFFFFFFFFFFFFFFFFFFFFFFFFFFFFFFFFFFFFF NOT AND PUSH1 0x20 DUP3 ADD DUP1 MLOAD PUSH28 0xFFFFFFFFFFFFFFFFFFFFFFFFFFFFFFFFFFFFFFFFFFFFFFFFFFFFFFFF DUP4 DUP2 DUP4 AND OR DUP4 MSTORE POP POP POP POP SWAP1 POP PUSH0 PUSH2 0x121B DUP10 DUP8 PUSH0 DUP6 PUSH2 0x13D1 JUMP JUMPDEST SWAP1 POP PUSH0 DUP2 MLOAD GT ISZERO PUSH2 0x127A JUMPI DUP1 DUP1 PUSH1 0x20 ADD SWAP1 MLOAD DUP2 ADD SWAP1 PUSH2 0x123A SWAP2 SWAP1 PUSH2 0x2347 JUMP JUMPDEST PUSH2 0x1279 JUMPI PUSH1 0x40 MLOAD PUSH32 0x8C379A000000000000000000000000000000000000000000000000000000000 DUP2 MSTORE PUSH1 0x4 ADD PUSH2 0x1270 SWAP1 PUSH2 0x23BC JUMP JUMPDEST PUSH1 0x40 MLOAD DUP1 SWAP2 SUB SWAP1 REVERT JUMPDEST JUMPDEST POP POP JUMPDEST JUMPDEST POP POP POP POP POP POP POP JUMP JUMPDEST PUSH0 DUP1 PUSH0 DUP1 DUP5 PUSH1 0x41 MUL PUSH1 0x20 ADD DUP7 ADD MLOAD SWAP2 POP DUP5 PUSH1 0x41 MUL PUSH1 0x40 ADD DUP7 ADD MLOAD SWAP1 POP PUSH1 0xFF DUP6 PUSH1 0x41 MUL PUSH1 0x41 ADD DUP8 ADD MLOAD AND SWAP3 POP PUSH1 0x1B DUP4 PUSH1 0xFF AND EQ DUP1 PUSH2 0x12C7 JUMPI POP PUSH1 0x1C DUP4 PUSH1 0xFF AND EQ JUMPDEST PUSH2 0x1306 JUMPI PUSH1 0x40 MLOAD PUSH32 0x8C379A000000000000000000000000000000000000000000000000000000000 DUP2 MSTORE PUSH1 0x4 ADD PUSH2 0x12FD SWAP1 PUSH2 0x2424 JUMP JUMPDEST PUSH1 0x40 MLOAD DUP1 SWAP2 SUB SWAP1 REVERT JUMPDEST PUSH0 PUSH1 0x1 DUP9 DUP6 DUP6 DUP6 PUSH1 0x40 MLOAD PUSH0 DUP2 MSTORE PUSH1 0x20 ADD PUSH1 0x40 MSTORE PUSH1 0x40 MLOAD PUSH2 0x1329 SWAP5 SWAP4 SWAP3 SWAP2 SWAP1 PUSH2 0x246C JUMP JUMPDEST PUSH1 0x20 PUSH1 0x40 MLOAD PUSH1 0x20 DUP2 SUB SWAP1 DUP1 DUP5 SUB SWAP1 DUP6 GAS STATICCALL ISZERO DUP1 ISZERO PUSH2 0x1349 JUMPI RETURNDATASIZE PUSH0 DUP1 RETURNDATACOPY RETURNDATASIZE PUSH0 REVERT JUMPDEST POP POP POP PUSH1 0x20 PUSH1 0x40 MLOAD SUB MLOAD SWAP1 POP PUSH0 PUSH20 0xFFFFFFFFFFFFFFFFFFFFFFFFFFFFFFFFFFFFFFFF AND DUP2 PUSH20 0xFFFFFFFFFFFFFFFFFFFFFFFFFFFFFFFFFFFFFFFF AND SUB PUSH2 0x13C3 JUMPI PUSH1 0x40 MLOAD PUSH32 0x8C379A000000000000000000000000000000000000000000000000000000000 DUP2 MSTORE PUSH1 0x4 ADD PUSH2 0x13BA SWAP1 PUSH2 0x24F9 JUMP JUMPDEST PUSH1 0x40 MLOAD DUP1 SWAP2 SUB SWAP1 REVERT JUMPDEST DUP1 SWAP5 POP POP POP POP POP SWAP4 SWAP3 POP POP POP JUMP JUMPDEST PUSH1 0x60 PUSH0 DUP6 PUSH20 0xFFFFFFFFFFFFFFFFFFFFFFFFFFFFFFFFFFFFFFFF AND DUP6 DUP6 DUP6 PUSH1 0x40 MLOAD PUSH1 0x24 ADD PUSH2 0x1400 SWAP4 SWAP3 SWAP2 SWAP1 PUSH2 0x256F JUMP JUMPDEST PUSH1 0x40 MLOAD PUSH1 0x20 DUP2 DUP4 SUB SUB DUP2 MSTORE SWAP1 PUSH1 0x40 MSTORE PUSH32 0x8F6F033200000000000000000000000000000000000000000000000000000000 PUSH28 0xFFFFFFFFFFFFFFFFFFFFFFFFFFFFFFFFFFFFFFFFFFFFFFFFFFFFFFFF NOT AND PUSH1 0x20 DUP3 ADD DUP1 MLOAD PUSH28 0xFFFFFFFFFFFFFFFFFFFFFFFFFFFFFFFFFFFFFFFFFFFFFFFFFFFFFFFF DUP4 DUP2 DUP4 AND OR DUP4 MSTORE POP POP POP POP PUSH1 0x40 MLOAD PUSH2 0x148A SWAP2 SWAP1 PUSH2 0x25AB JUMP JUMPDEST PUSH0 PUSH1 0x40 MLOAD DUP1 DUP4 SUB DUP2 PUSH0 DUP7 GAS CALL SWAP2 POP POP RETURNDATASIZE DUP1 PUSH0 DUP2 EQ PUSH2 0x14C3 JUMPI PUSH1 0x40 MLOAD SWAP2 POP PUSH1 0x1F NOT PUSH1 0x3F RETURNDATASIZE ADD AND DUP3 ADD PUSH1 0x40 MSTORE RETURNDATASIZE DUP3 MSTORE RETURNDATASIZE PUSH0 PUSH1 0x20 DUP5 ADD RETURNDATACOPY PUSH2 0x14C8 JUMP JUMPDEST PUSH1 0x60 SWAP2 POP JUMPDEST POP DUP1 SWAP4 POP DUP2 SWAP3 POP POP POP DUP1 ISZERO PUSH2 0x14F2 JUMPI DUP2 DUP1 PUSH1 0x20 ADD SWAP1 MLOAD DUP2 ADD SWAP1 PUSH2 0x14EB SWAP2 SWAP1 PUSH2 0x26AE JUMP JUMPDEST SWAP2 POP PUSH2 0x14FA JUMP JUMPDEST RETURNDATASIZE PUSH0 DUP1 RETURNDATACOPY RETURNDATASIZE PUSH0 REVERT JUMPDEST POP SWAP5 SWAP4 POP POP POP POP JUMP JUMPDEST PUSH2 0x2F6 DUP1 PUSH2 0x26F6 DUP4 CODECOPY ADD SWAP1 JUMP JUMPDEST PUSH0 PUSH20 0xFFFFFFFFFFFFFFFFFFFFFFFFFFFFFFFFFFFFFFFF DUP3 AND SWAP1 POP SWAP2 SWAP1 POP JUMP JUMPDEST PUSH0 PUSH2 0x1539 DUP3 PUSH2 0x1510 JUMP JUMPDEST SWAP1 POP SWAP2 SWAP1 POP JUMP JUMPDEST PUSH2 0x1549 DUP2 PUSH2 0x152F JUMP JUMPDEST DUP3 MSTORE POP POP JUMP JUMPDEST PUSH0 PUSH1 0x20 DUP3 ADD SWAP1 POP PUSH2 0x1562 PUSH0 DUP4 ADD DUP5 PUSH2 0x1540 JUMP JUMPDEST SWAP3 SWAP2 POP POP JUMP JUMPDEST PUSH0 PUSH1 0x40 MLOAD SWAP1 POP SWAP1 JUMP JUMPDEST PUSH0 DUP1 REVERT JUMPDEST PUSH0 DUP1 REVERT JUMPDEST PUSH0 PUSH2 0x1583 DUP3 PUSH2 0x1510 JUMP JUMPDEST SWAP1 POP SWAP2 SWAP1 POP JUMP JUMPDEST PUSH0 PUSH2 0x1594 DUP3 PUSH2 0x1579 JUMP JUMPDEST SWAP1 POP SWAP2 SWAP1 POP JUMP JUMPDEST PUSH2 0x15A4 DUP2 PUSH2 0x158A JUMP JUMPDEST DUP2 EQ PUSH2 0x15AE JUMPI PUSH0 DUP1 REVERT JUMPDEST POP JUMP JUMPDEST PUSH0 DUP2 CALLDATALOAD SWAP1 POP PUSH2 0x15BF DUP2 PUSH2 0x159B JUMP JUMPDEST SWAP3 SWAP2 POP POP JUMP JUMPDEST PUSH0 PUSH1 0x20 DUP3 DUP5 SUB SLT ISZERO PUSH2 0x15DA JUMPI PUSH2 0x15D9 PUSH2 0x1571 JUMP JUMPDEST JUMPDEST PUSH0 PUSH2 0x15E7 DUP5 DUP3 DUP6 ADD PUSH2 0x15B1 JUMP JUMPDEST SWAP2 POP POP SWAP3 SWAP2 POP POP JUMP JUMPDEST PUSH2 0x15F9 DUP2 PUSH2 0x152F JUMP JUMPDEST DUP2 EQ PUSH2 0x1603 JUMPI PUSH0 DUP1 REVERT JUMPDEST POP JUMP JUMPDEST PUSH0 DUP2 CALLDATALOAD SWAP1 POP PUSH2 0x1614 DUP2 PUSH2 0x15F0 JUMP JUMPDEST SWAP3 SWAP2 POP POP JUMP JUMPDEST PUSH0 PUSH1 0x20 DUP3 DUP5 SUB SLT ISZERO PUSH2 0x162F JUMPI PUSH2 0x162E PUSH2 0x1571 JUMP JUMPDEST JUMPDEST PUSH0 PUSH2 0x163C DUP5 DUP3 DUP6 ADD PUSH2 0x1606 JUMP JUMPDEST SWAP2 POP POP SWAP3 SWAP2 POP POP JUMP JUMPDEST PUSH0 DUP1 REVERT JUMPDEST PUSH0 DUP1 REVERT JUMPDEST PUSH0 DUP1 REVERT JUMPDEST PUSH0 DUP1 DUP4 PUSH1 0x1F DUP5 ADD SLT PUSH2 0x1666 JUMPI PUSH2 0x1665 PUSH2 0x1645 JUMP JUMPDEST JUMPDEST DUP3 CALLDATALOAD SWAP1 POP PUSH8 0xFFFFFFFFFFFFFFFF DUP2 GT ISZERO PUSH2 0x1683 JUMPI PUSH2 0x1682 PUSH2 0x1649 JUMP JUMPDEST JUMPDEST PUSH1 0x20 DUP4 ADD SWAP2 POP DUP4 PUSH1 0x20 DUP3 MUL DUP4 ADD GT ISZERO PUSH2 0x169F JUMPI PUSH2 0x169E PUSH2 0x164D JUMP JUMPDEST JUMPDEST SWAP3 POP SWAP3 SWAP1 POP JUMP JUMPDEST PUSH0 PUSH32 0xFFFFFFFFFFFFFFFFFFFFFFFFFFFFFFFFFFFFFFFF000000000000000000000000 DUP3 AND SWAP1 POP SWAP2 SWAP1 POP JUMP JUMPDEST PUSH2 0x16DA DUP2 PUSH2 0x16A6 JUMP JUMPDEST DUP2 EQ PUSH2 0x16E4 JUMPI PUSH0 DUP1 REVERT JUMPDEST POP JUMP JUMPDEST PUSH0 DUP2 CALLDATALOAD SWAP1 POP PUSH2 0x16F5 DUP2 PUSH2 0x16D1 JUMP JUMPDEST SWAP3 SWAP2 POP POP JUMP JUMPDEST PUSH0 DUP2 SWAP1 POP SWAP2 SWAP1 POP JUMP JUMPDEST PUSH2 0x170D DUP2 PUSH2 0x16FB JUMP JUMPDEST DUP2 EQ PUSH2 0x1717 JUMPI PUSH0 DUP1 REVERT JUMPDEST POP JUMP JUMPDEST PUSH0 DUP2 CALLDATALOAD SWAP1 POP PUSH2 0x1728 DUP2 PUSH2 0x1704 JUMP JUMPDEST SWAP3 SWAP2 POP POP JUMP JUMPDEST PUSH0 DUP1 DUP4 PUSH1 0x1F DUP5 ADD SLT PUSH2 0x1743 JUMPI PUSH2 0x1742 PUSH2 0x1645 JUMP JUMPDEST JUMPDEST DUP3 CALLDATALOAD SWAP1 POP PUSH8 0xFFFFFFFFFFFFFFFF DUP2 GT ISZERO PUSH2 0x1760 JUMPI PUSH2 0x175F PUSH2 0x1649 JUMP JUMPDEST JUMPDEST PUSH1 0x20 DUP4 ADD SWAP2 POP DUP4 PUSH1 0x1 DUP3 MUL DUP4 ADD GT ISZERO PUSH2 0x177C JUMPI PUSH2 0x177B PUSH2 0x164D JUMP JUMPDEST JUMPDEST SWAP3 POP SWAP3 SWAP1 POP JUMP JUMPDEST PUSH0 DUP1 PUSH0 DUP1 PUSH0 DUP1 PUSH0 DUP1 PUSH0 DUP1 PUSH0 PUSH2 0x100 DUP13 DUP15 SUB SLT ISZERO PUSH2 0x17A3 JUMPI PUSH2 0x17A2 PUSH2 0x1571 JUMP JUMPDEST JUMPDEST PUSH0 PUSH2 0x17B0 DUP15 DUP3 DUP16 ADD PUSH2 0x1606 JUMP JUMPDEST SWAP12 POP POP PUSH1 0x20 DUP13 ADD CALLDATALOAD PUSH8 0xFFFFFFFFFFFFFFFF DUP2 GT ISZERO PUSH2 0x17D1 JUMPI PUSH2 0x17D0 PUSH2 0x1575 JUMP JUMPDEST JUMPDEST PUSH2 0x17DD DUP15 DUP3 DUP16 ADD PUSH2 0x1651 JUMP JUMPDEST SWAP11 POP SWAP11 POP POP PUSH1 0x40 PUSH2 0x17F0 DUP15 DUP3 DUP16 ADD PUSH2 0x1606 JUMP JUMPDEST SWAP9 POP POP PUSH1 0x60 PUSH2 0x1801 DUP15 DUP3 DUP16 ADD PUSH2 0x16E7 JUMP JUMPDEST SWAP8 POP POP PUSH1 0x80 PUSH2 0x1812 DUP15 DUP3 DUP16 ADD PUSH2 0x171A JUMP JUMPDEST SWAP7 POP POP PUSH1 0xA0 PUSH2 0x1823 DUP15 DUP3 DUP16 ADD PUSH2 0x1606 JUMP JUMPDEST SWAP6 POP POP PUSH1 0xC0 DUP13 ADD CALLDATALOAD PUSH8 0xFFFFFFFFFFFFFFFF DUP2 GT ISZERO PUSH2 0x1844 JUMPI PUSH2 0x1843 PUSH2 0x1575 JUMP JUMPDEST JUMPDEST PUSH2 0x1850 DUP15 DUP3 DUP16 ADD PUSH2 0x172E JUMP JUMPDEST SWAP5 POP SWAP5 POP POP PUSH1 0xE0 DUP13 ADD CALLDATALOAD PUSH8 0xFFFFFFFFFFFFFFFF DUP2 GT ISZERO PUSH2 0x1873 JUMPI PUSH2 0x1872 PUSH2 0x1575 JUMP JUMPDEST JUMPDEST PUSH2 0x187F DUP15 DUP3 DUP16 ADD PUSH2 0x172E JUMP JUMPDEST SWAP3 POP SWAP3 POP POP SWAP3 SWAP6 SWAP9 SWAP12 POP SWAP3 SWAP6 SWAP9 SWAP12 SWAP1 SWAP4 SWAP7 SWAP10 POP JUMP JUMPDEST PUSH0 DUP1 PUSH0 DUP1 PUSH0 PUSH1 0x80 DUP7 DUP9 SUB SLT ISZERO PUSH2 0x18AD JUMPI PUSH2 0x18AC PUSH2 0x1571 JUMP JUMPDEST JUMPDEST PUSH0 PUSH2 0x18BA DUP9 DUP3 DUP10 ADD PUSH2 0x1606 JUMP JUMPDEST SWAP6 POP POP PUSH1 0x20 DUP7 ADD CALLDATALOAD PUSH8 0xFFFFFFFFFFFFFFFF DUP2 GT ISZERO PUSH2 0x18DB JUMPI PUSH2 0x18DA PUSH2 0x1575 JUMP JUMPDEST JUMPDEST PUSH2 0x18E7 DUP9 DUP3 DUP10 ADD PUSH2 0x1651 JUMP JUMPDEST SWAP5 POP SWAP5 POP POP PUSH1 0x40 PUSH2 0x18FA DUP9 DUP3 DUP10 ADD PUSH2 0x1606 JUMP JUMPDEST SWAP3 POP POP PUSH1 0x60 PUSH2 0x190B DUP9 DUP3 DUP10 ADD PUSH2 0x16E7 JUMP JUMPDEST SWAP2 POP POP SWAP3 SWAP6 POP SWAP3 SWAP6 SWAP1 SWAP4 POP JUMP JUMPDEST PUSH0 DUP2 ISZERO ISZERO SWAP1 POP SWAP2 SWAP1 POP JUMP JUMPDEST PUSH2 0x192C DUP2 PUSH2 0x1918 JUMP JUMPDEST DUP3 MSTORE POP POP JUMP JUMPDEST PUSH0 PUSH1 0x20 DUP3 ADD SWAP1 POP PUSH2 0x1945 PUSH0 DUP4 ADD DUP5 PUSH2 0x1923 JUMP JUMPDEST SWAP3 SWAP2 POP POP JUMP JUMPDEST PUSH0 DUP3 DUP3 MSTORE PUSH1 0x20 DUP3 ADD SWAP1 POP SWAP3 SWAP2 POP POP JUMP JUMPDEST PUSH32 0x4D757374206265206F776E657200000000000000000000000000000000000000 PUSH0 DUP3 ADD MSTORE POP JUMP JUMPDEST PUSH0 PUSH2 0x198F PUSH1 0xD DUP4 PUSH2 0x194B JUMP JUMPDEST SWAP2 POP PUSH2 0x199A DUP3 PUSH2 0x195B JUMP JUMPDEST PUSH1 0x20 DUP3 ADD SWAP1 POP SWAP2 SWAP1 POP JUMP JUMPDEST PUSH0 PUSH1 0x20 DUP3 ADD SWAP1 POP DUP2 DUP2 SUB PUSH0 DUP4 ADD MSTORE PUSH2 0x19BC DUP2 PUSH2 0x1983 JUMP JUMPDEST SWAP1 POP SWAP2 SWAP1 POP JUMP JUMPDEST PUSH32 0x57463A2063616E6E6F742073657420746F20656D707479000000000000000000 PUSH0 DUP3 ADD MSTORE POP JUMP JUMPDEST PUSH0 PUSH2 0x19F7 PUSH1 0x17 DUP4 PUSH2 0x194B JUMP JUMPDEST SWAP2 POP PUSH2 0x1A02 DUP3 PUSH2 0x19C3 JUMP JUMPDEST PUSH1 0x20 DUP3 ADD SWAP1 POP SWAP2 SWAP1 POP JUMP JUMPDEST PUSH0 PUSH1 0x20 DUP3 ADD SWAP1 POP DUP2 DUP2 SUB PUSH0 DUP4 ADD MSTORE PUSH2 0x1A24 DUP2 PUSH2 0x19EB JUMP JUMPDEST SWAP1 POP SWAP2 SWAP1 POP JUMP JUMPDEST PUSH32 0x4D3A2041646472657373206D757374206E6F74206265206E756C6C0000000000 PUSH0 DUP3 ADD MSTORE POP JUMP JUMPDEST PUSH0 PUSH2 0x1A5F PUSH1 0x1B DUP4 PUSH2 0x194B JUMP JUMPDEST SWAP2 POP PUSH2 0x1A6A DUP3 PUSH2 0x1A2B JUMP JUMPDEST PUSH1 0x20 DUP3 ADD SWAP1 POP SWAP2 SWAP1 POP JUMP JUMPDEST PUSH0 PUSH1 0x20 DUP3 ADD SWAP1 POP DUP2 DUP2 SUB PUSH0 DUP4 ADD MSTORE PUSH2 0x1A8C DUP2 PUSH2 0x1A53 JUMP JUMPDEST SWAP1 POP SWAP2 SWAP1 POP JUMP JUMPDEST PUSH32 0x57463A206D616E61676572732063616E2774206265207265766F6B6564000000 PUSH0 DUP3 ADD MSTORE POP JUMP JUMPDEST PUSH0 PUSH2 0x1AC7 PUSH1 0x1D DUP4 PUSH2 0x194B JUMP JUMPDEST SWAP2 POP PUSH2 0x1AD2 DUP3 PUSH2 0x1A93 JUMP JUMPDEST PUSH1 0x20 DUP3 ADD SWAP1 POP SWAP2 SWAP1 POP JUMP JUMPDEST PUSH0 PUSH1 0x20 DUP3 ADD SWAP1 POP DUP2 DUP2 SUB PUSH0 DUP4 ADD MSTORE PUSH2 0x1AF4 DUP2 PUSH2 0x1ABB JUMP JUMPDEST SWAP1 POP SWAP2 SWAP1 POP JUMP JUMPDEST PUSH32 0x41646472657373206D757374206E6F74206265206E756C6C0000000000000000 PUSH0 DUP3 ADD MSTORE POP JUMP JUMPDEST PUSH0 PUSH2 0x1B2F PUSH1 0x18 DUP4 PUSH2 0x194B JUMP JUMPDEST SWAP2 POP PUSH2 0x1B3A DUP3 PUSH2 0x1AFB JUMP JUMPDEST PUSH1 0x20 DUP3 ADD SWAP1 POP SWAP2 SWAP1 POP JUMP JUMPDEST PUSH0 PUSH1 0x20 DUP3 ADD SWAP1 POP DUP2 DUP2 SUB PUSH0 DUP4 ADD MSTORE PUSH2 0x1B5C DUP2 PUSH2 0x1B23 JUMP JUMPDEST SWAP1 POP SWAP2 SWAP1 POP JUMP JUMPDEST PUSH0 PUSH1 0x40 DUP3 ADD SWAP1 POP PUSH2 0x1B76 PUSH0 DUP4 ADD DUP6 PUSH2 0x1540 JUMP JUMPDEST PUSH2 0x1B83 PUSH1 0x20 DUP4 ADD DUP5 PUSH2 0x1923 JUMP JUMPDEST SWAP4 SWAP3 POP POP POP JUMP JUMPDEST PUSH2 0x1B93 DUP2 PUSH2 0x16FB JUMP JUMPDEST DUP3 MSTORE POP POP JUMP JUMPDEST PUSH0 PUSH1 0x40 DUP3 ADD SWAP1 POP PUSH2 0x1BAC PUSH0 DUP4 ADD DUP6 PUSH2 0x1540 JUMP JUMPDEST PUSH2 0x1BB9 PUSH1 0x20 DUP4 ADD DUP5 PUSH2 0x1B8A JUMP JUMPDEST SWAP4 SWAP3 POP POP POP JUMP JUMPDEST PUSH0 DUP2 MLOAD SWAP1 POP SWAP2 SWAP1 POP JUMP JUMPDEST PUSH0 DUP2 SWAP1 POP SWAP3 SWAP2 POP POP JUMP JUMPDEST DUP3 DUP2 DUP4 MCOPY PUSH0 DUP4 DUP4 ADD MSTORE POP POP POP JUMP JUMPDEST PUSH0 PUSH2 0x1BEC DUP3 PUSH2 0x1BC0 JUMP JUMPDEST PUSH2 0x1BF6 DUP2 DUP6 PUSH2 0x1BCA JUMP JUMPDEST SWAP4 POP PUSH2 0x1C06 DUP2 DUP6 PUSH1 0x20 DUP7 ADD PUSH2 0x1BD4 JUMP JUMPDEST DUP1 DUP5 ADD SWAP2 POP POP SWAP3 SWAP2 POP POP JUMP JUMPDEST PUSH0 DUP2 SWAP1 POP SWAP2 SWAP1 POP JUMP JUMPDEST PUSH2 0x1C2C PUSH2 0x1C27 DUP3 PUSH2 0x16FB JUMP JUMPDEST PUSH2 0x1C12 JUMP JUMPDEST DUP3 MSTORE POP POP JUMP JUMPDEST PUSH0 PUSH2 0x1C3D DUP3 DUP6 PUSH2 0x1BE2 JUMP JUMPDEST SWAP2 POP PUSH2 0x1C49 DUP3 DUP5 PUSH2 0x1C1B JUMP JUMPDEST PUSH1 0x20 DUP3 ADD SWAP2 POP DUP2 SWAP1 POP SWAP4 SWAP3 POP POP POP JUMP JUMPDEST PUSH0 PUSH32 0xFF00000000000000000000000000000000000000000000000000000000000000 DUP3 AND SWAP1 POP SWAP2 SWAP1 POP JUMP JUMPDEST PUSH0 DUP2 SWAP1 POP SWAP2 SWAP1 POP JUMP JUMPDEST PUSH2 0x1C9E PUSH2 0x1C99 DUP3 PUSH2 0x1C59 JUMP JUMPDEST PUSH2 0x1C84 JUMP JUMPDEST DUP3 MSTORE POP POP JUMP JUMPDEST PUSH0 DUP2 PUSH1 0x60 SHL SWAP1 POP SWAP2 SWAP1 POP JUMP JUMPDEST PUSH0 PUSH2 0x1CBA DUP3 PUSH2 0x1CA4 JUMP JUMPDEST SWAP1 POP SWAP2 SWAP1 POP JUMP JUMPDEST PUSH0 PUSH2 0x1CCB DUP3 PUSH2 0x1CB0 JUMP JUMPDEST SWAP1 POP SWAP2 SWAP1 POP JUMP JUMPDEST PUSH2 0x1CE3 PUSH2 0x1CDE DUP3 PUSH2 0x152F JUMP JUMPDEST PUSH2 0x1CC1 JUMP JUMPDEST DUP3 MSTORE POP POP JUMP JUMPDEST PUSH0 DUP2 SWAP1 POP SWAP2 SWAP1 POP JUMP JUMPDEST PUSH0 DUP2 SWAP1 POP SWAP2 SWAP1 POP JUMP JUMPDEST PUSH2 0x1D0C PUSH2 0x1D07 DUP3 PUSH2 0x1CE9 JUMP JUMPDEST PUSH2 0x1CF2 JUMP JUMPDEST DUP3 MSTORE POP POP JUMP JUMPDEST PUSH0 PUSH2 0x1D1D DUP3 DUP8 PUSH2 0x1C8D JUMP JUMPDEST PUSH1 0x1 DUP3 ADD SWAP2 POP PUSH2 0x1D2D DUP3 DUP7 PUSH2 0x1CD2 JUMP JUMPDEST PUSH1 0x14 DUP3 ADD SWAP2 POP PUSH2 0x1D3D DUP3 DUP6 PUSH2 0x1CFB JUMP JUMPDEST PUSH1 0x20 DUP3 ADD SWAP2 POP PUSH2 0x1D4D DUP3 DUP5 PUSH2 0x1CFB JUMP JUMPDEST PUSH1 0x20 DUP3 ADD SWAP2 POP DUP2 SWAP1 POP SWAP6 SWAP5 POP POP POP POP POP JUMP JUMPDEST PUSH32 0x57463A20656D707479206F776E65722061646472657373000000000000000000 PUSH0 DUP3 ADD MSTORE POP JUMP JUMPDEST PUSH0 PUSH2 0x1D93 PUSH1 0x17 DUP4 PUSH2 0x194B JUMP JUMPDEST SWAP2 POP PUSH2 0x1D9E DUP3 PUSH2 0x1D5F JUMP JUMPDEST PUSH1 0x20 DUP3 ADD SWAP1 POP SWAP2 SWAP1 POP JUMP JUMPDEST PUSH0 PUSH1 0x20 DUP3 ADD SWAP1 POP DUP2 DUP2 SUB PUSH0 DUP4 ADD MSTORE PUSH2 0x1DC0 DUP2 PUSH2 0x1D87 JUMP JUMPDEST SWAP1 POP SWAP2 SWAP1 POP JUMP JUMPDEST PUSH32 0x57463A206F776E65722063616E6E6F7420626520677561726469616E00000000 PUSH0 DUP3 ADD MSTORE POP JUMP JUMPDEST PUSH0 PUSH2 0x1DFB PUSH1 0x1C DUP4 PUSH2 0x194B JUMP JUMPDEST SWAP2 POP PUSH2 0x1E06 DUP3 PUSH2 0x1DC7 JUMP JUMPDEST PUSH1 0x20 DUP3 ADD SWAP1 POP SWAP2 SWAP1 POP JUMP JUMPDEST PUSH0 PUSH1 0x20 DUP3 ADD SWAP1 POP DUP2 DUP2 SUB PUSH0 DUP4 ADD MSTORE PUSH2 0x1E28 DUP2 PUSH2 0x1DEF JUMP JUMPDEST SWAP1 POP SWAP2 SWAP1 POP JUMP JUMPDEST PUSH32 0x57463A20656D707479206D6F64756C6573000000000000000000000000000000 PUSH0 DUP3 ADD MSTORE POP JUMP JUMPDEST PUSH0 PUSH2 0x1E63 PUSH1 0x11 DUP4 PUSH2 0x194B JUMP JUMPDEST SWAP2 POP PUSH2 0x1E6E DUP3 PUSH2 0x1E2F JUMP JUMPDEST PUSH1 0x20 DUP3 ADD SWAP1 POP SWAP2 SWAP1 POP JUMP JUMPDEST PUSH0 PUSH1 0x20 DUP3 ADD SWAP1 POP DUP2 DUP2 SUB PUSH0 DUP4 ADD MSTORE PUSH2 0x1E90 DUP2 PUSH2 0x1E57 JUMP JUMPDEST SWAP1 POP SWAP2 SWAP1 POP JUMP JUMPDEST PUSH32 0x57463A20656D70747920677561726469616E0000000000000000000000000000 PUSH0 DUP3 ADD MSTORE POP JUMP JUMPDEST PUSH0 PUSH2 0x1ECB PUSH1 0x12 DUP4 PUSH2 0x194B JUMP JUMPDEST SWAP2 POP PUSH2 0x1ED6 DUP3 PUSH2 0x1E97 JUMP JUMPDEST PUSH1 0x20 DUP3 ADD SWAP1 POP SWAP2 SWAP1 POP JUMP JUMPDEST PUSH0 PUSH1 0x20 DUP3 ADD SWAP1 POP DUP2 DUP2 SUB PUSH0 DUP4 ADD MSTORE PUSH2 0x1EF8 DUP2 PUSH2 0x1EBF JUMP JUMPDEST SWAP1 POP SWAP2 SWAP1 POP JUMP JUMPDEST PUSH0 DUP2 SWAP1 POP SWAP3 SWAP2 POP POP JUMP JUMPDEST PUSH0 DUP2 SWAP1 POP SWAP2 SWAP1 POP JUMP JUMPDEST PUSH2 0x1F1B DUP2 PUSH2 0x152F JUMP JUMPDEST DUP3 MSTORE POP POP JUMP JUMPDEST PUSH0 PUSH2 0x1F2C DUP4 DUP4 PUSH2 0x1F12 JUMP JUMPDEST PUSH1 0x20 DUP4 ADD SWAP1 POP SWAP3 SWAP2 POP POP JUMP JUMPDEST PUSH0 PUSH2 0x1F46 PUSH1 0x20 DUP5 ADD DUP5 PUSH2 0x1606 JUMP JUMPDEST SWAP1 POP SWAP3 SWAP2 POP POP JUMP JUMPDEST PUSH0 PUSH1 0x20 DUP3 ADD SWAP1 POP SWAP2 SWAP1 POP JUMP JUMPDEST PUSH0 PUSH2 0x1F65 DUP4 DUP6 PUSH2 0x1EFF JUMP JUMPDEST SWAP4 POP PUSH2 0x1F70 DUP3 PUSH2 0x1F09 JUMP JUMPDEST DUP1 PUSH0 JUMPDEST DUP6 DUP2 LT ISZERO PUSH2 0x1FA8 JUMPI PUSH2 0x1F85 DUP3 DUP5 PUSH2 0x1F38 JUMP JUMPDEST PUSH2 0x1F8F DUP9 DUP3 PUSH2 0x1F21 JUMP JUMPDEST SWAP8 POP PUSH2 0x1F9A DUP4 PUSH2 0x1F4E JUMP JUMPDEST SWAP3 POP POP PUSH1 0x1 DUP2 ADD SWAP1 POP PUSH2 0x1F73 JUMP JUMPDEST POP DUP6 SWAP3 POP POP POP SWAP4 SWAP3 POP POP POP JUMP JUMPDEST PUSH0 PUSH2 0x1FC0 DUP3 DUP8 PUSH2 0x1CD2 JUMP JUMPDEST PUSH1 0x14 DUP3 ADD SWAP2 POP PUSH2 0x1FD1 DUP3 DUP6 DUP8 PUSH2 0x1F5A JUMP JUMPDEST SWAP2 POP PUSH2 0x1FDD DUP3 DUP5 PUSH2 0x1CD2 JUMP JUMPDEST PUSH1 0x14 DUP3 ADD SWAP2 POP DUP2 SWAP1 POP SWAP6 SWAP5 POP POP POP POP POP JUMP JUMPDEST PUSH0 DUP2 SWAP1 POP SWAP2 SWAP1 POP JUMP JUMPDEST PUSH2 0x2009 PUSH2 0x2004 DUP3 PUSH2 0x16A6 JUMP JUMPDEST PUSH2 0x1FEF JUMP JUMPDEST DUP3 MSTORE POP POP JUMP JUMPDEST PUSH0 PUSH2 0x201A DUP3 DUP6 PUSH2 0x1CFB JUMP JUMPDEST PUSH1 0x20 DUP3 ADD SWAP2 POP PUSH2 0x202A DUP3 DUP5 PUSH2 0x1FF8 JUMP JUMPDEST PUSH1 0x14 DUP3 ADD SWAP2 POP DUP2 SWAP1 POP SWAP4 SWAP3 POP POP POP JUMP JUMPDEST PUSH0 DUP2 SWAP1 POP SWAP3 SWAP2 POP POP JUMP JUMPDEST PUSH32 0x19457468657265756D205369676E6564204D6573736167653A0A333200000000 PUSH0 DUP3 ADD MSTORE POP JUMP JUMPDEST PUSH0 PUSH2 0x2078 PUSH1 0x1C DUP4 PUSH2 0x203A JUMP JUMPDEST SWAP2 POP PUSH2 0x2083 DUP3 PUSH2 0x2044 JUMP JUMPDEST PUSH1 0x1C DUP3 ADD SWAP1 POP SWAP2 SWAP1 POP JUMP JUMPDEST PUSH0 PUSH2 0x2098 DUP3 PUSH2 0x206C JUMP JUMPDEST SWAP2 POP PUSH2 0x20A4 DUP3 DUP5 PUSH2 0x1CFB JUMP JUMPDEST PUSH1 0x20 DUP3 ADD SWAP2 POP DUP2 SWAP1 POP SWAP3 SWAP2 POP POP JUMP JUMPDEST PUSH32 0x57463A20756E617574686F72697365642077616C6C6574206372656174696F6E PUSH0 DUP3 ADD MSTORE POP JUMP JUMPDEST PUSH0 PUSH2 0x20E7 PUSH1 0x20 DUP4 PUSH2 0x194B JUMP JUMPDEST SWAP2 POP PUSH2 0x20F2 DUP3 PUSH2 0x20B3 JUMP JUMPDEST PUSH1 0x20 DUP3 ADD SWAP1 POP SWAP2 SWAP1 POP JUMP JUMPDEST PUSH0 PUSH1 0x20 DUP3 ADD SWAP1 POP DUP2 DUP2 SUB PUSH0 DUP4 ADD MSTORE PUSH2 0x2114 DUP2 PUSH2 0x20DB JUMP JUMPDEST SWAP1 POP SWAP2 SWAP1 POP JUMP JUMPDEST PUSH32 0x4E487B7100000000000000000000000000000000000000000000000000000000 PUSH0 MSTORE PUSH1 0x11 PUSH1 0x4 MSTORE PUSH1 0x24 PUSH0 REVERT JUMPDEST PUSH0 PUSH2 0x2152 DUP3 PUSH2 0x16FB JUMP JUMPDEST SWAP2 POP PUSH2 0x215D DUP4 PUSH2 0x16FB JUMP JUMPDEST SWAP3 POP DUP3 DUP3 ADD SWAP1 POP DUP1 DUP3 GT ISZERO PUSH2 0x2175 JUMPI PUSH2 0x2174 PUSH2 0x211B JUMP JUMPDEST JUMPDEST SWAP3 SWAP2 POP POP JUMP JUMPDEST PUSH32 0x4E487B7100000000000000000000000000000000000000000000000000000000 PUSH0 MSTORE PUSH1 0x41 PUSH1 0x4 MSTORE PUSH1 0x24 PUSH0 REVERT JUMPDEST PUSH32 0x4E487B7100000000000000000000000000000000000000000000000000000000 PUSH0 MSTORE PUSH1 0x32 PUSH1 0x4 MSTORE PUSH1 0x24 PUSH0 REVERT JUMPDEST PUSH0 DUP2 MLOAD SWAP1 POP SWAP2 SWAP1 POP JUMP JUMPDEST PUSH0 DUP3 DUP3 MSTORE PUSH1 0x20 DUP3 ADD SWAP1 POP SWAP3 SWAP2 POP POP JUMP JUMPDEST PUSH0 DUP2 SWAP1 POP PUSH1 0x20 DUP3 ADD SWAP1 POP SWAP2 SWAP1 POP JUMP JUMPDEST PUSH2 0x2207 DUP2 PUSH2 0x152F JUMP JUMPDEST DUP3 MSTORE POP POP JUMP JUMPDEST PUSH0 PUSH2 0x2218 DUP4 DUP4 PUSH2 0x21FE JUMP JUMPDEST PUSH1 0x20 DUP4 ADD SWAP1 POP SWAP3 SWAP2 POP POP JUMP JUMPDEST PUSH0 PUSH1 0x20 DUP3 ADD SWAP1 POP SWAP2 SWAP1 POP JUMP JUMPDEST PUSH0 PUSH2 0x223A DUP3 PUSH2 0x21D5 JUMP JUMPDEST PUSH2 0x2244 DUP2 DUP6 PUSH2 0x21DF JUMP JUMPDEST SWAP4 POP PUSH2 0x224F DUP4 PUSH2 0x21EF JUMP JUMPDEST DUP1 PUSH0 JUMPDEST DUP4 DUP2 LT ISZERO PUSH2 0x227F JUMPI DUP2 MLOAD PUSH2 0x2266 DUP9 DUP3 PUSH2 0x220D JUMP JUMPDEST SWAP8 POP PUSH2 0x2271 DUP4 PUSH2 0x2224 JUMP JUMPDEST SWAP3 POP POP PUSH1 0x1 DUP2 ADD SWAP1 POP PUSH2 0x2252 JUMP JUMPDEST POP DUP6 SWAP4 POP POP POP POP SWAP3 SWAP2 POP POP JUMP JUMPDEST PUSH0 PUSH1 0x40 DUP3 ADD SWAP1 POP PUSH2 0x229F PUSH0 DUP4 ADD DUP6 PUSH2 0x1540 JUMP JUMPDEST DUP2 DUP2 SUB PUSH1 0x20 DUP4 ADD MSTORE PUSH2 0x22B1 DUP2 DUP5 PUSH2 0x2230 JUMP JUMPDEST SWAP1 POP SWAP4 SWAP3 POP POP POP JUMP JUMPDEST PUSH0 PUSH1 0x40 DUP3 ADD SWAP1 POP PUSH2 0x22CD PUSH0 DUP4 ADD DUP6 PUSH2 0x1540 JUMP JUMPDEST PUSH2 0x22DA PUSH1 0x20 DUP4 ADD DUP5 PUSH2 0x1540 JUMP JUMPDEST SWAP4 SWAP3 POP POP POP JUMP JUMPDEST PUSH0 PUSH2 0x22EC DUP3 DUP7 PUSH2 0x1CD2 JUMP JUMPDEST PUSH1 0x14 DUP3 ADD SWAP2 POP PUSH2 0x22FC DUP3 DUP6 PUSH2 0x1C1B JUMP JUMPDEST PUSH1 0x20 DUP3 ADD SWAP2 POP PUSH2 0x230C DUP3 DUP5 PUSH2 0x1CD2 JUMP JUMPDEST PUSH1 0x14 DUP3 ADD SWAP2 POP DUP2 SWAP1 POP SWAP5 SWAP4 POP POP POP POP JUMP JUMPDEST PUSH2 0x2326 DUP2 PUSH2 0x1918 JUMP JUMPDEST DUP2 EQ PUSH2 0x2330 JUMPI PUSH0 DUP1 REVERT JUMPDEST POP JUMP JUMPDEST PUSH0 DUP2 MLOAD SWAP1 POP PUSH2 0x2341 DUP2 PUSH2 0x231D JUMP JUMPDEST SWAP3 SWAP2 POP POP JUMP JUMPDEST PUSH0 PUSH1 0x20 DUP3 DUP5 SUB SLT ISZERO PUSH2 0x235C JUMPI PUSH2 0x235B PUSH2 0x1571 JUMP JUMPDEST JUMPDEST PUSH0 PUSH2 0x2369 DUP5 DUP3 DUP6 ADD PUSH2 0x2333 JUMP JUMPDEST SWAP2 POP POP SWAP3 SWAP2 POP POP JUMP JUMPDEST PUSH32 0x57463A20526566756E64207472616E73666572206661696C6564000000000000 PUSH0 DUP3 ADD MSTORE POP JUMP JUMPDEST PUSH0 PUSH2 0x23A6 PUSH1 0x1A DUP4 PUSH2 0x194B JUMP JUMPDEST SWAP2 POP PUSH2 0x23B1 DUP3 PUSH2 0x2372 JUMP JUMPDEST PUSH1 0x20 DUP3 ADD SWAP1 POP SWAP2 SWAP1 POP JUMP JUMPDEST PUSH0 PUSH1 0x20 DUP3 ADD SWAP1 POP DUP2 DUP2 SUB PUSH0 DUP4 ADD MSTORE PUSH2 0x23D3 DUP2 PUSH2 0x239A JUMP JUMPDEST SWAP1 POP SWAP2 SWAP1 POP JUMP JUMPDEST PUSH32 0x5574696C733A2062616420762076616C756520696E207369676E617475726500 PUSH0 DUP3 ADD MSTORE POP JUMP JUMPDEST PUSH0 PUSH2 0x240E PUSH1 0x1F DUP4 PUSH2 0x194B JUMP JUMPDEST SWAP2 POP PUSH2 0x2419 DUP3 PUSH2 0x23DA JUMP JUMPDEST PUSH1 0x20 DUP3 ADD SWAP1 POP SWAP2 SWAP1 POP JUMP JUMPDEST PUSH0 PUSH1 0x20 DUP3 ADD SWAP1 POP DUP2 DUP2 SUB PUSH0 DUP4 ADD MSTORE PUSH2 0x243B DUP2 PUSH2 0x2402 JUMP JUMPDEST SWAP1 POP SWAP2 SWAP1 POP JUMP JUMPDEST PUSH2 0x244B DUP2 PUSH2 0x1CE9 JUMP JUMPDEST DUP3 MSTORE POP POP JUMP JUMPDEST PUSH0 PUSH1 0xFF DUP3 AND SWAP1 POP SWAP2 SWAP1 POP JUMP JUMPDEST PUSH2 0x2466 DUP2 PUSH2 0x2451 JUMP JUMPDEST DUP3 MSTORE POP POP JUMP JUMPDEST PUSH0 PUSH1 0x80 DUP3 ADD SWAP1 POP PUSH2 0x247F PUSH0 DUP4 ADD DUP8 PUSH2 0x2442 JUMP JUMPDEST PUSH2 0x248C PUSH1 0x20 DUP4 ADD DUP7 PUSH2 0x245D JUMP JUMPDEST PUSH2 0x2499 PUSH1 0x40 DUP4 ADD DUP6 PUSH2 0x2442 JUMP JUMPDEST PUSH2 0x24A6 PUSH1 0x60 DUP4 ADD DUP5 PUSH2 0x2442 JUMP JUMPDEST SWAP6 SWAP5 POP POP POP POP POP JUMP JUMPDEST PUSH32 0x5574696C733A2065637265636F7665722072657475726E656420300000000000 PUSH0 DUP3 ADD MSTORE POP JUMP JUMPDEST PUSH0 PUSH2 0x24E3 PUSH1 0x1B DUP4 PUSH2 0x194B JUMP JUMPDEST SWAP2 POP PUSH2 0x24EE DUP3 PUSH2 0x24AF JUMP JUMPDEST PUSH1 0x20 DUP3 ADD SWAP1 POP SWAP2 SWAP1 POP JUMP JUMPDEST PUSH0 PUSH1 0x20 DUP3 ADD SWAP1 POP DUP2 DUP2 SUB PUSH0 DUP4 ADD MSTORE PUSH2 0x2510 DUP2 PUSH2 0x24D7 JUMP JUMPDEST SWAP1 POP SWAP2 SWAP1 POP JUMP JUMPDEST PUSH0 DUP3 DUP3 MSTORE PUSH1 0x20 DUP3 ADD SWAP1 POP SWAP3 SWAP2 POP POP JUMP JUMPDEST PUSH0 PUSH1 0x1F NOT PUSH1 0x1F DUP4 ADD AND SWAP1 POP SWAP2 SWAP1 POP JUMP JUMPDEST PUSH0 PUSH2 0x2541 DUP3 PUSH2 0x1BC0 JUMP JUMPDEST PUSH2 0x254B DUP2 DUP6 PUSH2 0x2517 JUMP JUMPDEST SWAP4 POP PUSH2 0x255B DUP2 DUP6 PUSH1 0x20 DUP7 ADD PUSH2 0x1BD4 JUMP JUMPDEST PUSH2 0x2564 DUP2 PUSH2 0x2527 JUMP JUMPDEST DUP5 ADD SWAP2 POP POP SWAP3 SWAP2 POP POP JUMP JUMPDEST PUSH0 PUSH1 0x60 DUP3 ADD SWAP1 POP PUSH2 0x2582 PUSH0 DUP4 ADD DUP7 PUSH2 0x1540 JUMP JUMPDEST PUSH2 0x258F PUSH1 0x20 DUP4 ADD DUP6 PUSH2 0x1B8A JUMP JUMPDEST DUP2 DUP2 SUB PUSH1 0x40 DUP4 ADD MSTORE PUSH2 0x25A1 DUP2 DUP5 PUSH2 0x2537 JUMP JUMPDEST SWAP1 POP SWAP5 SWAP4 POP POP POP POP JUMP JUMPDEST PUSH0 PUSH2 0x25B6 DUP3 DUP5 PUSH2 0x1BE2 JUMP JUMPDEST SWAP2 POP DUP2 SWAP1 POP SWAP3 SWAP2 POP POP JUMP JUMPDEST PUSH0 DUP1 REVERT JUMPDEST PUSH2 0x25CE DUP3 PUSH2 0x2527 JUMP JUMPDEST DUP2 ADD DUP2 DUP2 LT PUSH8 0xFFFFFFFFFFFFFFFF DUP3 GT OR ISZERO PUSH2 0x25ED JUMPI PUSH2 0x25EC PUSH2 0x217B JUMP JUMPDEST JUMPDEST DUP1 PUSH1 0x40 MSTORE POP POP POP JUMP JUMPDEST PUSH0 PUSH2 0x25FF PUSH2 0x1568 JUMP JUMPDEST SWAP1 POP PUSH2 0x260B DUP3 DUP3 PUSH2 0x25C5 JUMP JUMPDEST SWAP2 SWAP1 POP JUMP JUMPDEST PUSH0 PUSH8 0xFFFFFFFFFFFFFFFF DUP3 GT ISZERO PUSH2 0x262A JUMPI PUSH2 0x2629 PUSH2 0x217B JUMP JUMPDEST JUMPDEST PUSH2 0x2633 DUP3 PUSH2 0x2527 JUMP JUMPDEST SWAP1 POP PUSH1 0x20 DUP2 ADD SWAP1 POP SWAP2 SWAP1 POP JUMP JUMPDEST PUSH0 PUSH2 0x2652 PUSH2 0x264D DUP5 PUSH2 0x2610 JUMP JUMPDEST PUSH2 0x25F6 JUMP JUMPDEST SWAP1 POP DUP3 DUP2 MSTORE PUSH1 0x20 DUP2 ADD DUP5 DUP5 DUP5 ADD GT ISZERO PUSH2 0x266E JUMPI PUSH2 0x266D PUSH2 0x25C1 JUMP JUMPDEST JUMPDEST PUSH2 0x2679 DUP5 DUP3 DUP6 PUSH2 0x1BD4 JUMP JUMPDEST POP SWAP4 SWAP3 POP POP POP JUMP JUMPDEST PUSH0 DUP3 PUSH1 0x1F DUP4 ADD SLT PUSH2 0x2695 JUMPI PUSH2 0x2694 PUSH2 0x1645 JUMP JUMPDEST JUMPDEST DUP2 MLOAD PUSH2 0x26A5 DUP5 DUP3 PUSH1 0x20 DUP7 ADD PUSH2 0x2640 JUMP JUMPDEST SWAP2 POP POP SWAP3 SWAP2 POP POP JUMP JUMPDEST PUSH0 PUSH1 0x20 DUP3 DUP5 SUB SLT ISZERO PUSH2 0x26C3 JUMPI PUSH2 0x26C2 PUSH2 0x1571 JUMP JUMPDEST JUMPDEST PUSH0 DUP3 ADD MLOAD PUSH8 0xFFFFFFFFFFFFFFFF DUP2 GT ISZERO PUSH2 0x26E0 JUMPI PUSH2 0x26DF PUSH2 0x1575 JUMP JUMPDEST JUMPDEST PUSH2 0x26EC DUP5 DUP3 DUP6 ADD PUSH2 0x2681 JUMP JUMPDEST SWAP2 POP POP SWAP3 SWAP2 POP POP JUMP INVALID PUSH1 0xA0 PUSH1 0x40 MSTORE CALLVALUE DUP1 ISZERO PUSH2 0xF JUMPI PUSH0 DUP1 REVERT JUMPDEST POP PUSH1 0x40 MLOAD PUSH2 0x2F6 CODESIZE SUB DUP1 PUSH2 0x2F6 DUP4 CODECOPY DUP2 DUP2 ADD PUSH1 0x40 MSTORE DUP2 ADD SWAP1 PUSH2 0x31 SWAP2 SWAP1 PUSH2 0xC9 JUMP JUMPDEST DUP1 PUSH20 0xFFFFFFFFFFFFFFFFFFFFFFFFFFFFFFFFFFFFFFFF AND PUSH1 0x80 DUP2 PUSH20 0xFFFFFFFFFFFFFFFFFFFFFFFFFFFFFFFFFFFFFFFF AND DUP2 MSTORE POP POP POP PUSH2 0xF4 JUMP JUMPDEST PUSH0 DUP1 REVERT JUMPDEST PUSH0 PUSH20 0xFFFFFFFFFFFFFFFFFFFFFFFFFFFFFFFFFFFFFFFF DUP3 AND SWAP1 POP SWAP2 SWAP1 POP JUMP JUMPDEST PUSH0 PUSH2 0x98 DUP3 PUSH2 0x6F JUMP JUMPDEST SWAP1 POP SWAP2 SWAP1 POP JUMP JUMPDEST PUSH2 0xA8 DUP2 PUSH2 0x8E JUMP JUMPDEST DUP2 EQ PUSH2 0xB2 JUMPI PUSH0 DUP1 REVERT JUMPDEST POP JUMP JUMPDEST PUSH0 DUP2 MLOAD SWAP1 POP PUSH2 0xC3 DUP2 PUSH2 0x9F JUMP JUMPDEST SWAP3 SWAP2 POP POP JUMP JUMPDEST PUSH0 PUSH1 0x20 DUP3 DUP5 SUB SLT ISZERO PUSH2 0xDE JUMPI PUSH2 0xDD PUSH2 0x6B JUMP JUMPDEST JUMPDEST PUSH0 PUSH2 0xEB DUP5 DUP3 DUP6 ADD PUSH2 0xB5 JUMP JUMPDEST SWAP2 POP POP SWAP3 SWAP2 POP POP JUMP JUMPDEST PUSH1 0x80 MLOAD PUSH2 0x1E5 PUSH2 0x111 PUSH0 CODECOPY PUSH0 DUP2 DUP2 PUSH1 0x78 ADD MSTORE PUSH1 0xE4 ADD MSTORE PUSH2 0x1E5 PUSH0 RETURN INVALID PUSH1 0x80 PUSH1 0x40 MSTORE PUSH1 0x4 CALLDATASIZE LT PUSH2 0x21 JUMPI PUSH0 CALLDATALOAD PUSH1 0xE0 SHR DUP1 PUSH4 0x5C60DA1B EQ PUSH2 0xB8 JUMPI PUSH2 0x75 JUMP JUMPDEST CALLDATASIZE PUSH2 0x75 JUMPI CALLER PUSH20 0xFFFFFFFFFFFFFFFFFFFFFFFFFFFFFFFFFFFFFFFF AND CALLVALUE PUSH32 0x606834F57405380C4FB88D1F4850326AD3885F014BAB3B568DFBF7A041EEF738 PUSH1 0x40 MLOAD PUSH2 0x6B SWAP1 PUSH2 0x139 JUMP JUMPDEST PUSH1 0x40 MLOAD DUP1 SWAP2 SUB SWAP1 LOG3 STOP JUMPDEST PUSH0 PUSH32 0x0 SWAP1 POP CALLDATASIZE PUSH0 DUP1 CALLDATACOPY PUSH0 DUP1 CALLDATASIZE PUSH0 DUP5 GAS DELEGATECALL RETURNDATASIZE PUSH0 DUP1 RETURNDATACOPY DUP1 PUSH0 DUP2 EQ PUSH2 0xB4 JUMPI RETURNDATASIZE PUSH0 RETURN JUMPDEST RETURNDATASIZE PUSH0 REVERT JUMPDEST CALLVALUE DUP1 ISZERO PUSH2 0xC3 JUMPI PUSH0 DUP1 REVERT JUMPDEST POP PUSH2 0xCC PUSH2 0xE2 JUMP JUMPDEST PUSH1 0x40 MLOAD PUSH2 0xD9 SWAP2 SWAP1 PUSH2 0x196 JUMP JUMPDEST PUSH1 0x40 MLOAD DUP1 SWAP2 SUB SWAP1 RETURN JUMPDEST PUSH32 0x0 DUP2 JUMP JUMPDEST PUSH0 DUP3 DUP3 MSTORE PUSH1 0x20 DUP3 ADD SWAP1 POP SWAP3 SWAP2 POP POP JUMP JUMPDEST POP JUMP JUMPDEST PUSH0 PUSH2 0x124 PUSH0 DUP4 PUSH2 0x106 JUMP JUMPDEST SWAP2 POP PUSH2 0x12F DUP3 PUSH2 0x116 JUMP JUMPDEST PUSH0 DUP3 ADD SWAP1 POP SWAP2 SWAP1 POP JUMP JUMPDEST PUSH0 PUSH1 0x20 DUP3 ADD SWAP1 POP DUP2 DUP2 SUB PUSH0 DUP4 ADD MSTORE PUSH2 0x150 DUP2 PUSH2 0x119 JUMP JUMPDEST SWAP1 POP SWAP2 SWAP1 POP JUMP JUMPDEST PUSH0 PUSH20 0xFFFFFFFFFFFFFFFFFFFFFFFFFFFFFFFFFFFFFFFF DUP3 AND SWAP1 POP SWAP2 SWAP1 POP JUMP JUMPDEST PUSH0 PUSH2 0x180 DUP3 PUSH2 0x157 JUMP JUMPDEST SWAP1 POP SWAP2 SWAP1 POP JUMP JUMPDEST PUSH2 0x190 DUP2 PUSH2 0x176 JUMP JUMPDEST DUP3 MSTORE POP POP JUMP JUMPDEST PUSH0 PUSH1 0x20 DUP3 ADD SWAP1 POP PUSH2 0x1A9 PUSH0 DUP4 ADD DUP5 PUSH2 0x187 JUMP JUMPDEST SWAP3 SWAP2 POP POP JUMP INVALID LOG2 PUSH5 0x6970667358 0x22 SLT KECCAK256 0xBF PREVRANDAO 0xEE JUMPI EXTCODEHASH PUSH8 0x6EE7B34D108E5812 DUP6 0xE1 SWAP15 0xBE 0xDC 0x23 SWAP3 SGT LOG0 SWAP10 0xB4 0xD4 ORIGIN AND 0x4D CALLDATACOPY 0xD8 PUSH9 0x64736F6C634300081A STOP CALLER LOG2 PUSH5 0x6970667358 0x22 SLT KECCAK256 PREVRANDAO 0xE6 DUP14 CALLDATASIZE 0xCD 0xED BALANCE BLOBHASH EXTCODECOPY 0xC0 BLOBHASH DELEGATECALL 0xAB CHAINID GASLIMIT DUP16 SWAP16 0xD3 SHR 0x4D REVERT SWAP13 DUP3 CREATE2 MOD 0x26 SWAP9 ADDRESS 0xB2 0xC2 DELEGATECALL 0xE0 PUSH5 0x736F6C6343 STOP ADDMOD BYTE STOP CALLER "
		},
		"gasEstimates": {
			"creation": {
				"codeDepositCost": "2157000",
				"executionCost": "infinite",
				"totalCost": "infinite"
			},
			"external": {
				"addManager(address)": "30488",
				"changeOwner(address)": "28098",
				"changeRefundAddress(address)": "infinite",
				"createCounterfactualWallet(address,address[],address,bytes20,uint256,address,bytes,bytes)": "infinite",
				"getAddressForCounterfactualWallet(address,address[],address,bytes20)": "infinite",
				"guardianStorage()": "infinite",
				"init(address)": "514",
				"managers(address)": "2943",
				"owner()": "2505",
				"refundAddress()": "2509",
				"revokeManager(address)": "821",
				"walletImplementation()": "infinite"
			},
			"internal": {
				"configureWallet(contract BaseWallet,address,address[] calldata,address)": "infinite",
				"invokeWallet(address,address,uint256,bytes memory)": "infinite",
				"newSalt(bytes20,address,address[] calldata,address)": "infinite",
				"validateAndRefund(address,address,uint256,address,bytes memory)": "infinite",
				"validateAuthorisedCreation(address,bytes memory)": "infinite",
				"validateInputs(address,address[] calldata,address)": "infinite"
			}
		},
		"methodIdentifiers": {
			"addManager(address)": "2d06177a",
			"changeOwner(address)": "a6f9dae1",
			"changeRefundAddress(address)": "2c828525",
			"createCounterfactualWallet(address,address[],address,bytes20,uint256,address,bytes,bytes)": "a80dd9df",
			"getAddressForCounterfactualWallet(address,address[],address,bytes20)": "fbe2ec7d",
			"guardianStorage()": "d89784fc",
			"init(address)": "19ab453c",
			"managers(address)": "fdff9b4d",
			"owner()": "8da5cb5b",
			"refundAddress()": "0cb61f6c",
			"revokeManager(address)": "377e32e6",
			"walletImplementation()": "8117abc1"
		}
	},
	"abi": [
		{
			"inputs": [
				{
					"internalType": "address",
					"name": "_walletImplementation",
					"type": "address"
				},
				{
					"internalType": "address",
					"name": "_guardianStorage",
					"type": "address"
				},
				{
					"internalType": "address",
					"name": "_refundAddress",
					"type": "address"
				}
			],
			"stateMutability": "nonpayable",
			"type": "constructor"
		},
		{
			"anonymous": false,
			"inputs": [
				{
					"indexed": true,
					"internalType": "address",
					"name": "_manager",
					"type": "address"
				}
			],
			"name": "ManagerAdded",
			"type": "event"
		},
		{
			"anonymous": false,
			"inputs": [
				{
					"indexed": true,
					"internalType": "address",
					"name": "_manager",
					"type": "address"
				}
			],
			"name": "ManagerRevoked",
			"type": "event"
		},
		{
			"anonymous": false,
			"inputs": [
				{
					"indexed": true,
					"internalType": "address",
					"name": "_newOwner",
					"type": "address"
				}
			],
			"name": "OwnerChanged",
			"type": "event"
		},
		{
			"anonymous": false,
			"inputs": [
				{
					"indexed": false,
					"internalType": "address",
					"name": "addr",
					"type": "address"
				}
			],
			"name": "RefundAddressChanged",
			"type": "event"
		},
		{
			"anonymous": false,
			"inputs": [
				{
					"indexed": true,
					"internalType": "address",
					"name": "wallet",
					"type": "address"
				},
				{
					"indexed": true,
					"internalType": "address",
					"name": "owner",
					"type": "address"
				},
				{
					"indexed": true,
					"internalType": "address",
					"name": "guardian",
					"type": "address"
				},
				{
					"indexed": false,
					"internalType": "address",
					"name": "refundToken",
					"type": "address"
				},
				{
					"indexed": false,
					"internalType": "uint256",
					"name": "refundAmount",
					"type": "uint256"
				}
			],
			"name": "WalletCreated",
			"type": "event"
		},
		{
			"inputs": [
				{
					"internalType": "address",
					"name": "_manager",
					"type": "address"
				}
			],
			"name": "addManager",
			"outputs": [],
			"stateMutability": "nonpayable",
			"type": "function"
		},
		{
			"inputs": [
				{
					"internalType": "address",
					"name": "_newOwner",
					"type": "address"
				}
			],
			"name": "changeOwner",
			"outputs": [],
			"stateMutability": "nonpayable",
			"type": "function"
		},
		{
			"inputs": [
				{
					"internalType": "address",
					"name": "_refundAddress",
					"type": "address"
				}
			],
			"name": "changeRefundAddress",
			"outputs": [],
			"stateMutability": "nonpayable",
			"type": "function"
		},
		{
			"inputs": [
				{
					"internalType": "address",
					"name": "_owner",
					"type": "address"
				},
				{
					"internalType": "address[]",
					"name": "_modules",
					"type": "address[]"
				},
				{
					"internalType": "address",
					"name": "_guardian",
					"type": "address"
				},
				{
					"internalType": "bytes20",
					"name": "_salt",
					"type": "bytes20"
				},
				{
					"internalType": "uint256",
					"name": "_refundAmount",
					"type": "uint256"
				},
				{
					"internalType": "address",
					"name": "_refundToken",
					"type": "address"
				},
				{
					"internalType": "bytes",
					"name": "_ownerSignature",
					"type": "bytes"
				},
				{
					"internalType": "bytes",
					"name": "_managerSignature",
					"type": "bytes"
				}
			],
			"name": "createCounterfactualWallet",
			"outputs": [
				{
					"internalType": "address",
					"name": "_wallet",
					"type": "address"
				}
			],
			"stateMutability": "nonpayable",
			"type": "function"
		},
		{
			"inputs": [
				{
					"internalType": "address",
					"name": "_owner",
					"type": "address"
				},
				{
					"internalType": "address[]",
					"name": "_modules",
					"type": "address[]"
				},
				{
					"internalType": "address",
					"name": "_guardian",
					"type": "address"
				},
				{
					"internalType": "bytes20",
					"name": "_salt",
					"type": "bytes20"
				}
			],
			"name": "getAddressForCounterfactualWallet",
			"outputs": [
				{
					"internalType": "address",
					"name": "_wallet",
					"type": "address"
				}
			],
			"stateMutability": "view",
			"type": "function"
		},
		{
			"inputs": [],
			"name": "guardianStorage",
			"outputs": [
				{
					"internalType": "address",
					"name": "",
					"type": "address"
				}
			],
			"stateMutability": "view",
			"type": "function"
		},
		{
			"inputs": [
				{
					"internalType": "contract BaseWallet",
					"name": "_wallet",
					"type": "address"
				}
			],
			"name": "init",
			"outputs": [],
			"stateMutability": "pure",
			"type": "function"
		},
		{
			"inputs": [
				{
					"internalType": "address",
					"name": "",
					"type": "address"
				}
			],
			"name": "managers",
			"outputs": [
				{
					"internalType": "bool",
					"name": "",
					"type": "bool"
				}
			],
			"stateMutability": "view",
			"type": "function"
		},
		{
			"inputs": [],
			"name": "owner",
			"outputs": [
				{
					"internalType": "address",
					"name": "",
					"type": "address"
				}
			],
			"stateMutability": "view",
			"type": "function"
		},
		{
			"inputs": [],
			"name": "refundAddress",
			"outputs": [
				{
					"internalType": "address",
					"name": "",
					"type": "address"
				}
			],
			"stateMutability": "view",
			"type": "function"
		},
		{
			"inputs": [
				{
					"internalType": "address",
					"name": "",
					"type": "address"
				}
			],
			"name": "revokeManager",
			"outputs": [],
			"stateMutability": "pure",
			"type": "function"
		},
		{
			"inputs": [],
			"name": "walletImplementation",
			"outputs": [
				{
					"internalType": "address",
					"name": "",
					"type": "address"
				}
			],
			"stateMutability": "view",
			"type": "function"
		}
	]
}