{
	"data": {
		"bytecode": {
			"linkReferences": {},
			"object": "608060405234801561000f575f80fd5b50604051612ae1380380612ae1833981810160405281019061003191906102cb565b60015f819055505f60025f6101000a81548160ff02191690831515021790555080600260016101000a81548173ffffffffffffffffffffffffffffffffffffffff021916908373ffffffffffffffffffffffffffffffffffffffff1602179055506100a45f801b3361010d60201b60201c565b506100d57f915327d54f2c758ad33c35b031b5e89868657ea971cda2b8103c502dc672509c3361010d60201b60201c565b506101067f52ba824bfabc2bcfcdf7f0edbb486ebb05e1836c90e78047efeb949990f72e5f3361010d60201b60201c565b50506102f6565b5f61011e838361020260201b60201c565b6101f8576001805f8581526020019081526020015f205f015f8473ffffffffffffffffffffffffffffffffffffffff1673ffffffffffffffffffffffffffffffffffffffff1681526020019081526020015f205f6101000a81548160ff02191690831515021790555061019561026660201b60201c565b73ffffffffffffffffffffffffffffffffffffffff168273ffffffffffffffffffffffffffffffffffffffff16847f2f8788117e7eff1d82e926ec794901d17c78024a50270940304540a733656f0d60405160405180910390a4600190506101fc565b5f90505b92915050565b5f60015f8481526020019081526020015f205f015f8373ffffffffffffffffffffffffffffffffffffffff1673ffffffffffffffffffffffffffffffffffffffff1681526020019081526020015f205f9054906101000a900460ff16905092915050565b5f33905090565b5f80fd5b5f73ffffffffffffffffffffffffffffffffffffffff82169050919050565b5f61029a82610271565b9050919050565b6102aa81610290565b81146102b4575f80fd5b50565b5f815190506102c5816102a1565b92915050565b5f602082840312156102e0576102df61026d565b5b5f6102ed848285016102b7565b91505092915050565b6127de806103035f395ff3fe60806040526004361061012d575f3560e01c80638577a6d5116100aa578063a217fddf1161006e578063a217fddf146103c6578063b54fbe56146103f0578063b5bfddea1461040c578063d547741f14610436578063d73792a91461045e578063e55dc4e61461048857610134565b80638577a6d5146102e65780638c5d07e71461030e57806391d1485414610336578063979d7e86146103725780639d11aaaa1461039c57610134565b806348654452116100f15780634865445214610216578063558e44d3146102525780635c975abb1461027c57806368a37ae8146102a65780638456cb59146102d057610134565b806301ffc9a714610138578063248a9ca3146101745780632f2ff15d146101b057806336568abe146101d85780633f4ba83a1461020057610134565b3661013457005b5f80fd5b348015610143575f80fd5b5061015e60048036038101906101599190611a31565b6104b0565b60405161016b9190611a76565b60405180910390f35b34801561017f575f80fd5b5061019a60048036038101906101959190611ac2565b610529565b6040516101a79190611afc565b60405180910390f35b3480156101bb575f80fd5b506101d660048036038101906101d19190611b6f565b610546565b005b3480156101e3575f80fd5b506101fe60048036038101906101f99190611b6f565b610568565b005b34801561020b575f80fd5b506102146105e3565b005b348015610221575f80fd5b5061023c60048036038101906102379190611be0565b610618565b6040516102499190611c2d565b60405180910390f35b34801561025d575f80fd5b50610266610638565b6040516102739190611c2d565b60405180910390f35b348015610287575f80fd5b5061029061063d565b60405161029d9190611a76565b60405180910390f35b3480156102b1575f80fd5b506102ba610652565b6040516102c79190611afc565b60405180910390f35b3480156102db575f80fd5b506102e4610676565b005b3480156102f1575f80fd5b5061030c60048036038101906103079190611c46565b6106ab565b005b348015610319575f80fd5b50610334600480360381019061032f9190611c71565b61075b565b005b348015610341575f80fd5b5061035c60048036038101906103579190611b6f565b610af8565b6040516103699190611a76565b60405180910390f35b34801561037d575f80fd5b50610386610b5c565b6040516103939190611d55565b60405180910390f35b3480156103a7575f80fd5b506103b0610b82565b6040516103bd9190611c2d565b60405180910390f35b3480156103d1575f80fd5b506103da610b88565b6040516103e79190611afc565b60405180910390f35b61040a60048036038101906104059190611d6e565b610b8e565b005b348015610417575f80fd5b50610420610fd6565b60405161042d9190611afc565b60405180910390f35b348015610441575f80fd5b5061045c60048036038101906104579190611b6f565b610ffa565b005b348015610469575f80fd5b5061047261101c565b60405161047f9190611c2d565b60405180910390f35b348015610493575f80fd5b506104ae60048036038101906104a99190611e20565b611022565b005b5f7f7965db0b000000000000000000000000000000000000000000000000000000007bffffffffffffffffffffffffffffffffffffffffffffffffffffffff1916827bffffffffffffffffffffffffffffffffffffffffffffffffffffffff1916148061052257506105218261124d565b5b9050919050565b5f60015f8381526020019081526020015f20600101549050919050565b61054f82610529565b610558816112b6565b61056283836112ca565b50505050565b6105706113b3565b73ffffffffffffffffffffffffffffffffffffffff168173ffffffffffffffffffffffffffffffffffffffff16146105d4576040517f6697b23200000000000000000000000000000000000000000000000000000000815260040160405180910390fd5b6105de82826113ba565b505050565b7f915327d54f2c758ad33c35b031b5e89868657ea971cda2b8103c502dc672509c61060d816112b6565b6106156114a4565b50565b6004602052815f5260405f20602052805f5260405f205f91509150505481565b603281565b5f60025f9054906101000a900460ff16905090565b7f915327d54f2c758ad33c35b031b5e89868657ea971cda2b8103c502dc672509c81565b7f915327d54f2c758ad33c35b031b5e89868657ea971cda2b8103c502dc672509c6106a0816112b6565b6106a8611505565b50565b7f915327d54f2c758ad33c35b031b5e89868657ea971cda2b8103c502dc672509c6106d5816112b6565b6032821115610719576040517f08c379a000000000000000000000000000000000000000000000000000000000815260040161071090611eca565b60405180910390fd5b816003819055507ff9f635b7cf851af6071aaf78ef8a5f752dc52f19d556fea4512b0c2ad4baea728260405161074f9190611c2d565b60405180910390a15050565b7f52ba824bfabc2bcfcdf7f0edbb486ebb05e1836c90e78047efeb949990f72e5f610785816112b6565b61078d611567565b6107956115a8565b5f600260019054906101000a900473ffffffffffffffffffffffffffffffffffffffff1673ffffffffffffffffffffffffffffffffffffffff1663f103167a88886040518363ffffffff1660e01b81526004016107f3929190611ef7565b5f60405180830381865afa15801561080d573d5f803e3d5ffd5b505050506040513d5f823e3d601f19601f8201168201806040525081019061083591906121ce565b90508060a0015161087b576040517f08c379a00000000000000000000000000000000000000000000000000000000081526004016108729061225f565b60405180910390fd5b5f600381111561088e5761088d61227d565b5b816020015160038111156108a5576108a461227d565b5b036108f3578473ffffffffffffffffffffffffffffffffffffffff166108fc8590811502906040515f60405180830381858888f193505050501580156108ed573d5f803e3d5ffd5b50610a92565b600160038111156109075761090661227d565b5b8160200151600381111561091e5761091d61227d565b5b036109535761094e85858873ffffffffffffffffffffffffffffffffffffffff166115ec9092919063ffffffff16565b610a91565b600260038111156109675761096661227d565b5b8160200151600381111561097e5761097d61227d565b5b036109f2578573ffffffffffffffffffffffffffffffffffffffff166323b872dd3087876040518463ffffffff1660e01b81526004016109c0939291906122aa565b5f604051808303815f87803b1580156109d7575f80fd5b505af11580156109e9573d5f803e3d5ffd5b50505050610a90565b600380811115610a0557610a0461227d565b5b81602001516003811115610a1c57610a1b61227d565b5b03610a8f578573ffffffffffffffffffffffffffffffffffffffff1663f242432a30878760016040518563ffffffff1660e01b8152600401610a61949392919061234b565b5f604051808303815f87803b158015610a78575f80fd5b505af1158015610a8a573d5f803e3d5ffd5b505050505b5b5b5b8573ffffffffffffffffffffffffffffffffffffffff1687897f12df84bba73c5c6e2e7d94d0f7d431b2c5feb5404cc9203145417f04c89c9e44888888604051610ade939291906123a1565b60405180910390a450610aef61166b565b50505050505050565b5f60015f8481526020019081526020015f205f015f8373ffffffffffffffffffffffffffffffffffffffff1673ffffffffffffffffffffffffffffffffffffffff1681526020019081526020015f205f9054906101000a900460ff16905092915050565b600260019054906101000a900473ffffffffffffffffffffffffffffffffffffffff1681565b60035481565b5f801b81565b610b96611567565b610b9e6115a8565b838503610be0576040517f08c379a0000000000000000000000000000000000000000000000000000000008152600401610bd790612420565b60405180910390fd5b5f600260019054906101000a900473ffffffffffffffffffffffffffffffffffffffff1673ffffffffffffffffffffffffffffffffffffffff1663f103167a87866040518363ffffffff1660e01b8152600401610c3e929190611ef7565b5f60405180830381865afa158015610c58573d5f803e3d5ffd5b505050506040513d5f823e3d601f19601f82011682018060405250810190610c8091906121ce565b90508060a00151610cc6576040517f08c379a0000000000000000000000000000000000000000000000000000000008152600401610cbd9061225f565b60405180910390fd5b5f6103e860035484610cd8919061246b565b610ce291906124d9565b90505f8184610cf19190612509565b90505f60045f8981526020019081526020015f205f3373ffffffffffffffffffffffffffffffffffffffff1673ffffffffffffffffffffffffffffffffffffffff1681526020019081526020015f205f815480929190610d509061253c565b9190505590505f6003811115610d6957610d6861227d565b5b84602001516003811115610d8057610d7f61227d565b5b03610dcc57843414610dc7576040517f08c379a0000000000000000000000000000000000000000000000000000000008152600401610dbe906125cd565b60405180910390fd5b610f6d565b60016003811115610de057610ddf61227d565b5b84602001516003811115610df757610df661227d565b5b03610e2e57610e293330878a73ffffffffffffffffffffffffffffffffffffffff16611674909392919063ffffffff16565b610f6c565b60026003811115610e4257610e4161227d565b5b84602001516003811115610e5957610e5861227d565b5b03610ecd578673ffffffffffffffffffffffffffffffffffffffff166323b872dd3330886040518463ffffffff1660e01b8152600401610e9b939291906122aa565b5f604051808303815f87803b158015610eb2575f80fd5b505af1158015610ec4573d5f803e3d5ffd5b50505050610f6b565b600380811115610ee057610edf61227d565b5b84602001516003811115610ef757610ef661227d565b5b03610f6a578673ffffffffffffffffffffffffffffffffffffffff1663f242432a33308860016040518563ffffffff1660e01b8152600401610f3c949392919061234b565b5f604051808303815f87803b158015610f53575f80fd5b505af1158015610f65573d5f803e3d5ffd5b505050505b5b5b5b8673ffffffffffffffffffffffffffffffffffffffff16888a7fe0508a6bbc9b9dcb6746ab1dc26325d307ac77fdb1289270b074a370a05b053a338a8787604051610fbb94939291906125eb565b60405180910390a450505050610fcf61166b565b5050505050565b7f52ba824bfabc2bcfcdf7f0edbb486ebb05e1836c90e78047efeb949990f72e5f81565b61100382610529565b61100c816112b6565b61101683836113ba565b50505050565b6103e881565b7f915327d54f2c758ad33c35b031b5e89868657ea971cda2b8103c502dc672509c61104c816112b6565b5f600260019054906101000a900473ffffffffffffffffffffffffffffffffffffffff1673ffffffffffffffffffffffffffffffffffffffff1663f103167a46876040518363ffffffff1660e01b81526004016110aa929190611ef7565b5f60405180830381865afa1580156110c4573d5f803e3d5ffd5b505050506040513d5f823e3d601f19601f820116820180604052508101906110ec91906121ce565b90508060a00151611132576040517f08c379a00000000000000000000000000000000000000000000000000000000081526004016111299061225f565b60405180910390fd5b5f60038111156111455761114461227d565b5b8160200151600381111561115c5761115b61227d565b5b036111aa578373ffffffffffffffffffffffffffffffffffffffff166108fc8490811502906040515f60405180830381858888f193505050501580156111a4573d5f803e3d5ffd5b50611246565b600160038111156111be576111bd61227d565b5b816020015160038111156111d5576111d461227d565b5b0361120a5761120584848773ffffffffffffffffffffffffffffffffffffffff166115ec9092919063ffffffff16565b611245565b6040517f08c379a000000000000000000000000000000000000000000000000000000000815260040161123c9061269e565b60405180910390fd5b5b5050505050565b5f7f01ffc9a7000000000000000000000000000000000000000000000000000000007bffffffffffffffffffffffffffffffffffffffffffffffffffffffff1916827bffffffffffffffffffffffffffffffffffffffffffffffffffffffff1916149050919050565b6112c7816112c26113b3565b6116f6565b50565b5f6112d58383610af8565b6113a9576001805f8581526020019081526020015f205f015f8473ffffffffffffffffffffffffffffffffffffffff1673ffffffffffffffffffffffffffffffffffffffff1681526020019081526020015f205f6101000a81548160ff0219169083151502179055506113466113b3565b73ffffffffffffffffffffffffffffffffffffffff168273ffffffffffffffffffffffffffffffffffffffff16847f2f8788117e7eff1d82e926ec794901d17c78024a50270940304540a733656f0d60405160405180910390a4600190506113ad565b5f90505b92915050565b5f33905090565b5f6113c58383610af8565b1561149a575f60015f8581526020019081526020015f205f015f8473ffffffffffffffffffffffffffffffffffffffff1673ffffffffffffffffffffffffffffffffffffffff1681526020019081526020015f205f6101000a81548160ff0219169083151502179055506114376113b3565b73ffffffffffffffffffffffffffffffffffffffff168273ffffffffffffffffffffffffffffffffffffffff16847ff6391f5c32d9c69d2a47ea670b442974b53935d1edc7fd64eb21e047a839171b60405160405180910390a46001905061149e565b5f90505b92915050565b6114ac611747565b5f60025f6101000a81548160ff0219169083151502179055507f5db9ee0a495bf2e6ff9c91a7834c1ba4fdd244a5e8aa4e537bd38aeae4b073aa6114ee6113b3565b6040516114fb91906126bc565b60405180910390a1565b61150d611567565b600160025f6101000a81548160ff0219169083151502179055507f62e78cea01bee320cd4e420270b5ea74000d11b0c9f74754ebdbfc544b05a2586115506113b3565b60405161155d91906126bc565b60405180910390a1565b61156f61063d565b156115a6576040517fd93c066500000000000000000000000000000000000000000000000000000000815260040160405180910390fd5b565b60025f54036115e3576040517f3ee5aeb500000000000000000000000000000000000000000000000000000000815260040160405180910390fd5b60025f81905550565b611666838473ffffffffffffffffffffffffffffffffffffffff1663a9059cbb858560405160240161161f9291906126d5565b604051602081830303815290604052915060e01b6020820180517bffffffffffffffffffffffffffffffffffffffffffffffffffffffff8381831617835250505050611787565b505050565b60015f81905550565b6116f0848573ffffffffffffffffffffffffffffffffffffffff166323b872dd8686866040516024016116a9939291906122aa565b604051602081830303815290604052915060e01b6020820180517bffffffffffffffffffffffffffffffffffffffffffffffffffffffff8381831617835250505050611787565b50505050565b6117008282610af8565b6117435780826040517fe2517d3f00000000000000000000000000000000000000000000000000000000815260040161173a9291906126fc565b60405180910390fd5b5050565b61174f61063d565b611785576040517f8dfc202b00000000000000000000000000000000000000000000000000000000815260040160405180910390fd5b565b5f6117b1828473ffffffffffffffffffffffffffffffffffffffff1661181c90919063ffffffff16565b90505f8151141580156117d55750808060200190518101906117d39190612723565b155b1561181757826040517f5274afe700000000000000000000000000000000000000000000000000000000815260040161180e91906126bc565b60405180910390fd5b505050565b606061182983835f611831565b905092915050565b60608147101561187857306040517fcd78605900000000000000000000000000000000000000000000000000000000815260040161186f91906126bc565b60405180910390fd5b5f808573ffffffffffffffffffffffffffffffffffffffff1684866040516118a09190612792565b5f6040518083038185875af1925050503d805f81146118da576040519150601f19603f3d011682016040523d82523d5f602084013e6118df565b606091505b50915091506118ef8683836118fa565b925050509392505050565b60608261190f5761190a82611987565b61197f565b5f825114801561193557505f8473ffffffffffffffffffffffffffffffffffffffff163b145b1561197757836040517f9996b31500000000000000000000000000000000000000000000000000000000815260040161196e91906126bc565b60405180910390fd5b819050611980565b5b9392505050565b5f815111156119995780518082602001fd5b6040517f1425ea4200000000000000000000000000000000000000000000000000000000815260040160405180910390fd5b5f604051905090565b5f80fd5b5f80fd5b5f7fffffffff0000000000000000000000000000000000000000000000000000000082169050919050565b611a10816119dc565b8114611a1a575f80fd5b50565b5f81359050611a2b81611a07565b92915050565b5f60208284031215611a4657611a456119d4565b5b5f611a5384828501611a1d565b91505092915050565b5f8115159050919050565b611a7081611a5c565b82525050565b5f602082019050611a895f830184611a67565b92915050565b5f819050919050565b611aa181611a8f565b8114611aab575f80fd5b50565b5f81359050611abc81611a98565b92915050565b5f60208284031215611ad757611ad66119d4565b5b5f611ae484828501611aae565b91505092915050565b611af681611a8f565b82525050565b5f602082019050611b0f5f830184611aed565b92915050565b5f73ffffffffffffffffffffffffffffffffffffffff82169050919050565b5f611b3e82611b15565b9050919050565b611b4e81611b34565b8114611b58575f80fd5b50565b5f81359050611b6981611b45565b92915050565b5f8060408385031215611b8557611b846119d4565b5b5f611b9285828601611aae565b9250506020611ba385828601611b5b565b9150509250929050565b5f819050919050565b611bbf81611bad565b8114611bc9575f80fd5b50565b5f81359050611bda81611bb6565b92915050565b5f8060408385031215611bf657611bf56119d4565b5b5f611c0385828601611bcc565b9250506020611c1485828601611b5b565b9150509250929050565b611c2781611bad565b82525050565b5f602082019050611c405f830184611c1e565b92915050565b5f60208284031215611c5b57611c5a6119d4565b5b5f611c6884828501611bcc565b91505092915050565b5f805f805f8060c08789031215611c8b57611c8a6119d4565b5b5f611c9889828a01611bcc565b9650506020611ca989828a01611bcc565b9550506040611cba89828a01611b5b565b9450506060611ccb89828a01611b5b565b9350506080611cdc89828a01611bcc565b92505060a0611ced89828a01611bcc565b9150509295509295509295565b5f819050919050565b5f611d1d611d18611d1384611b15565b611cfa565b611b15565b9050919050565b5f611d2e82611d03565b9050919050565b5f611d3f82611d24565b9050919050565b611d4f81611d35565b82525050565b5f602082019050611d685f830184611d46565b92915050565b5f805f805f60a08688031215611d8757611d866119d4565b5b5f611d9488828901611bcc565b9550506020611da588828901611bcc565b9450506040611db688828901611b5b565b9350506060611dc788828901611b5b565b9250506080611dd888828901611bcc565b9150509295509295909350565b5f611def82611b15565b9050919050565b611dff81611de5565b8114611e09575f80fd5b50565b5f81359050611e1a81611df6565b92915050565b5f805f60608486031215611e3757611e366119d4565b5b5f611e4486828701611b5b565b9350506020611e5586828701611e0c565b9250506040611e6686828701611bcc565b9150509250925092565b5f82825260208201905092915050565b7f46656520746f6f206869676800000000000000000000000000000000000000005f82015250565b5f611eb4600c83611e70565b9150611ebf82611e80565b602082019050919050565b5f6020820190508181035f830152611ee181611ea8565b9050919050565b611ef181611b34565b82525050565b5f604082019050611f0a5f830185611c1e565b611f176020830184611ee8565b9392505050565b5f80fd5b5f601f19601f8301169050919050565b7f4e487b71000000000000000000000000000000000000000000000000000000005f52604160045260245ffd5b611f6882611f22565b810181811067ffffffffffffffff82111715611f8757611f86611f32565b5b80604052505050565b5f611f996119cb565b9050611fa58282611f5f565b919050565b5f80fd5b5f81519050611fbc81611b45565b92915050565b60048110611fce575f80fd5b50565b5f81519050611fdf81611fc2565b92915050565b5f80fd5b5f80fd5b5f67ffffffffffffffff82111561200757612006611f32565b5b61201082611f22565b9050602081019050919050565b8281835e5f83830152505050565b5f61203d61203884611fed565b611f90565b90508281526020810184848401111561205957612058611fe9565b5b61206484828561201d565b509392505050565b5f82601f8301126120805761207f611fe5565b5b815161209084826020860161202b565b91505092915050565b5f60ff82169050919050565b6120ae81612099565b81146120b8575f80fd5b50565b5f815190506120c9816120a5565b92915050565b6120d881611a5c565b81146120e2575f80fd5b50565b5f815190506120f3816120cf565b92915050565b5f60c0828403121561210e5761210d611f1e565b5b61211860c0611f90565b90505f61212784828501611fae565b5f83015250602061213a84828501611fd1565b602083015250604082015167ffffffffffffffff81111561215e5761215d611faa565b5b61216a8482850161206c565b604083015250606082015167ffffffffffffffff81111561218e5761218d611faa565b5b61219a8482850161206c565b60608301525060806121ae848285016120bb565b60808301525060a06121c2848285016120e5565b60a08301525092915050565b5f602082840312156121e3576121e26119d4565b5b5f82015167ffffffffffffffff811115612200576121ff6119d8565b5b61220c848285016120f9565b91505092915050565b7f4173736574206e6f7420616374697665000000000000000000000000000000005f82015250565b5f612249601083611e70565b915061225482612215565b602082019050919050565b5f6020820190508181035f8301526122768161223d565b9050919050565b7f4e487b71000000000000000000000000000000000000000000000000000000005f52602160045260245ffd5b5f6060820190506122bd5f830186611ee8565b6122ca6020830185611ee8565b6122d76040830184611c1e565b949350505050565b5f819050919050565b5f6123026122fd6122f8846122df565b611cfa565b611bad565b9050919050565b612312816122e8565b82525050565b5f82825260208201905092915050565b50565b5f6123365f83612318565b915061234182612328565b5f82019050919050565b5f60a08201905061235e5f830187611ee8565b61236b6020830186611ee8565b6123786040830185611c1e565b6123856060830184612309565b81810360808301526123968161232b565b905095945050505050565b5f6060820190506123b45f830186611ee8565b6123c16020830185611c1e565b6123ce6040830184611c1e565b949350505050565b7f53616d6520636861696e207472616e73666572206e6f7420616c6c6f776564005f82015250565b5f61240a601f83611e70565b9150612415826123d6565b602082019050919050565b5f6020820190508181035f830152612437816123fe565b9050919050565b7f4e487b71000000000000000000000000000000000000000000000000000000005f52601160045260245ffd5b5f61247582611bad565b915061248083611bad565b925082820261248e81611bad565b915082820484148315176124a5576124a461243e565b5b5092915050565b7f4e487b71000000000000000000000000000000000000000000000000000000005f52601260045260245ffd5b5f6124e382611bad565b91506124ee83611bad565b9250826124fe576124fd6124ac565b5b828204905092915050565b5f61251382611bad565b915061251e83611bad565b92508282039050818111156125365761253561243e565b5b92915050565b5f61254682611bad565b91507fffffffffffffffffffffffffffffffffffffffffffffffffffffffffffffffff82036125785761257761243e565b5b600182019050919050565b7f496e636f72726563742045544820616d6f756e740000000000000000000000005f82015250565b5f6125b7601483611e70565b91506125c282612583565b602082019050919050565b5f6020820190508181035f8301526125e4816125ab565b9050919050565b5f6080820190506125fe5f830187611ee8565b61260b6020830186611ee8565b6126186040830185611c1e565b6126256060830184611c1e565b95945050505050565b7f556e737570706f72746564206173736574207479706520666f722066656520775f8201527f69746864726177616c0000000000000000000000000000000000000000000000602082015250565b5f612688602983611e70565b91506126938261262e565b604082019050919050565b5f6020820190508181035f8301526126b58161267c565b9050919050565b5f6020820190506126cf5f830184611ee8565b92915050565b5f6040820190506126e85f830185611ee8565b6126f56020830184611c1e565b9392505050565b5f60408201905061270f5f830185611ee8565b61271c6020830184611aed565b9392505050565b5f60208284031215612738576127376119d4565b5b5f612745848285016120e5565b91505092915050565b5f81519050919050565b5f81905092915050565b5f61276c8261274e565b6127768185612758565b935061278681856020860161201d565b80840191505092915050565b5f61279d8284612762565b91508190509291505056fea2646970667358221220a3a0c3be287ec39f9149516374eed602ea74d0abf3835843ac067cf87f68170264736f6c634300081a0033",
			"opcodes": "PUSH1 0x80 PUSH1 0x40 MSTORE CALLVALUE DUP1 ISZERO PUSH2 0xF JUMPI PUSH0 DUP1 REVERT JUMPDEST POP PUSH1 0x40 MLOAD PUSH2 0x2AE1 CODESIZE SUB DUP1 PUSH2 0x2AE1 DUP4 CODECOPY DUP2 DUP2 ADD PUSH1 0x40 MSTORE DUP2 ADD SWAP1 PUSH2 0x31 SWAP2 SWAP1 PUSH2 0x2CB JUMP JUMPDEST PUSH1 0x1 PUSH0 DUP2 SWAP1 SSTORE POP PUSH0 PUSH1 0x2 PUSH0 PUSH2 0x100 EXP DUP2 SLOAD DUP2 PUSH1 0xFF MUL NOT AND SWAP1 DUP4 ISZERO ISZERO MUL OR SWAP1 SSTORE POP DUP1 PUSH1 0x2 PUSH1 0x1 PUSH2 0x100 EXP DUP2 SLOAD DUP2 PUSH20 0xFFFFFFFFFFFFFFFFFFFFFFFFFFFFFFFFFFFFFFFF MUL NOT AND SWAP1 DUP4 PUSH20 0xFFFFFFFFFFFFFFFFFFFFFFFFFFFFFFFFFFFFFFFF AND MUL OR SWAP1 SSTORE POP PUSH2 0xA4 PUSH0 DUP1 SHL CALLER PUSH2 0x10D PUSH1 0x20 SHL PUSH1 0x20 SHR JUMP JUMPDEST POP PUSH2 0xD5 PUSH32 0x915327D54F2C758AD33C35B031B5E89868657EA971CDA2B8103C502DC672509C CALLER PUSH2 0x10D PUSH1 0x20 SHL PUSH1 0x20 SHR JUMP JUMPDEST POP PUSH2 0x106 PUSH32 0x52BA824BFABC2BCFCDF7F0EDBB486EBB05E1836C90E78047EFEB949990F72E5F CALLER PUSH2 0x10D PUSH1 0x20 SHL PUSH1 0x20 SHR JUMP JUMPDEST POP POP PUSH2 0x2F6 JUMP JUMPDEST PUSH0 PUSH2 0x11E DUP4 DUP4 PUSH2 0x202 PUSH1 0x20 SHL PUSH1 0x20 SHR JUMP JUMPDEST PUSH2 0x1F8 JUMPI PUSH1 0x1 DUP1 PUSH0 DUP6 DUP2 MSTORE PUSH1 0x20 ADD SWAP1 DUP2 MSTORE PUSH1 0x20 ADD PUSH0 KECCAK256 PUSH0 ADD PUSH0 DUP5 PUSH20 0xFFFFFFFFFFFFFFFFFFFFFFFFFFFFFFFFFFFFFFFF AND PUSH20 0xFFFFFFFFFFFFFFFFFFFFFFFFFFFFFFFFFFFFFFFF AND DUP2 MSTORE PUSH1 0x20 ADD SWAP1 DUP2 MSTORE PUSH1 0x20 ADD PUSH0 KECCAK256 PUSH0 PUSH2 0x100 EXP DUP2 SLOAD DUP2 PUSH1 0xFF MUL NOT AND SWAP1 DUP4 ISZERO ISZERO MUL OR SWAP1 SSTORE POP PUSH2 0x195 PUSH2 0x266 PUSH1 0x20 SHL PUSH1 0x20 SHR JUMP JUMPDEST PUSH20 0xFFFFFFFFFFFFFFFFFFFFFFFFFFFFFFFFFFFFFFFF AND DUP3 PUSH20 0xFFFFFFFFFFFFFFFFFFFFFFFFFFFFFFFFFFFFFFFF AND DUP5 PUSH32 0x2F8788117E7EFF1D82E926EC794901D17C78024A50270940304540A733656F0D PUSH1 0x40 MLOAD PUSH1 0x40 MLOAD DUP1 SWAP2 SUB SWAP1 LOG4 PUSH1 0x1 SWAP1 POP PUSH2 0x1FC JUMP JUMPDEST PUSH0 SWAP1 POP JUMPDEST SWAP3 SWAP2 POP POP JUMP JUMPDEST PUSH0 PUSH1 0x1 PUSH0 DUP5 DUP2 MSTORE PUSH1 0x20 ADD SWAP1 DUP2 MSTORE PUSH1 0x20 ADD PUSH0 KECCAK256 PUSH0 ADD PUSH0 DUP4 PUSH20 0xFFFFFFFFFFFFFFFFFFFFFFFFFFFFFFFFFFFFFFFF AND PUSH20 0xFFFFFFFFFFFFFFFFFFFFFFFFFFFFFFFFFFFFFFFF AND DUP2 MSTORE PUSH1 0x20 ADD SWAP1 DUP2 MSTORE PUSH1 0x20 ADD PUSH0 KECCAK256 PUSH0 SWAP1 SLOAD SWAP1 PUSH2 0x100 EXP SWAP1 DIV PUSH1 0xFF AND SWAP1 POP SWAP3 SWAP2 POP POP JUMP JUMPDEST PUSH0 CALLER SWAP1 POP SWAP1 JUMP JUMPDEST PUSH0 DUP1 REVERT JUMPDEST PUSH0 PUSH20 0xFFFFFFFFFFFFFFFFFFFFFFFFFFFFFFFFFFFFFFFF DUP3 AND SWAP1 POP SWAP2 SWAP1 POP JUMP JUMPDEST PUSH0 PUSH2 0x29A DUP3 PUSH2 0x271 JUMP JUMPDEST SWAP1 POP SWAP2 SWAP1 POP JUMP JUMPDEST PUSH2 0x2AA DUP2 PUSH2 0x290 JUMP JUMPDEST DUP2 EQ PUSH2 0x2B4 JUMPI PUSH0 DUP1 REVERT JUMPDEST POP JUMP JUMPDEST PUSH0 DUP2 MLOAD SWAP1 POP PUSH2 0x2C5 DUP2 PUSH2 0x2A1 JUMP JUMPDEST SWAP3 SWAP2 POP POP JUMP JUMPDEST PUSH0 PUSH1 0x20 DUP3 DUP5 SUB SLT ISZERO PUSH2 0x2E0 JUMPI PUSH2 0x2DF PUSH2 0x26D JUMP JUMPDEST JUMPDEST PUSH0 PUSH2 0x2ED DUP5 DUP3 DUP6 ADD PUSH2 0x2B7 JUMP JUMPDEST SWAP2 POP POP SWAP3 SWAP2 POP POP JUMP JUMPDEST PUSH2 0x27DE DUP1 PUSH2 0x303 PUSH0 CODECOPY PUSH0 RETURN INVALID PUSH1 0x80 PUSH1 0x40 MSTORE PUSH1 0x4 CALLDATASIZE LT PUSH2 0x12D JUMPI PUSH0 CALLDATALOAD PUSH1 0xE0 SHR DUP1 PUSH4 0x8577A6D5 GT PUSH2 0xAA JUMPI DUP1 PUSH4 0xA217FDDF GT PUSH2 0x6E JUMPI DUP1 PUSH4 0xA217FDDF EQ PUSH2 0x3C6 JUMPI DUP1 PUSH4 0xB54FBE56 EQ PUSH2 0x3F0 JUMPI DUP1 PUSH4 0xB5BFDDEA EQ PUSH2 0x40C JUMPI DUP1 PUSH4 0xD547741F EQ PUSH2 0x436 JUMPI DUP1 PUSH4 0xD73792A9 EQ PUSH2 0x45E JUMPI DUP1 PUSH4 0xE55DC4E6 EQ PUSH2 0x488 JUMPI PUSH2 0x134 JUMP JUMPDEST DUP1 PUSH4 0x8577A6D5 EQ PUSH2 0x2E6 JUMPI DUP1 PUSH4 0x8C5D07E7 EQ PUSH2 0x30E JUMPI DUP1 PUSH4 0x91D14854 EQ PUSH2 0x336 JUMPI DUP1 PUSH4 0x979D7E86 EQ PUSH2 0x372 JUMPI DUP1 PUSH4 0x9D11AAAA EQ PUSH2 0x39C JUMPI PUSH2 0x134 JUMP JUMPDEST DUP1 PUSH4 0x48654452 GT PUSH2 0xF1 JUMPI DUP1 PUSH4 0x48654452 EQ PUSH2 0x216 JUMPI DUP1 PUSH4 0x558E44D3 EQ PUSH2 0x252 JUMPI DUP1 PUSH4 0x5C975ABB EQ PUSH2 0x27C JUMPI DUP1 PUSH4 0x68A37AE8 EQ PUSH2 0x2A6 JUMPI DUP1 PUSH4 0x8456CB59 EQ PUSH2 0x2D0 JUMPI PUSH2 0x134 JUMP JUMPDEST DUP1 PUSH4 0x1FFC9A7 EQ PUSH2 0x138 JUMPI DUP1 PUSH4 0x248A9CA3 EQ PUSH2 0x174 JUMPI DUP1 PUSH4 0x2F2FF15D EQ PUSH2 0x1B0 JUMPI DUP1 PUSH4 0x36568ABE EQ PUSH2 0x1D8 JUMPI DUP1 PUSH4 0x3F4BA83A EQ PUSH2 0x200 JUMPI PUSH2 0x134 JUMP JUMPDEST CALLDATASIZE PUSH2 0x134 JUMPI STOP JUMPDEST PUSH0 DUP1 REVERT JUMPDEST CALLVALUE DUP1 ISZERO PUSH2 0x143 JUMPI PUSH0 DUP1 REVERT JUMPDEST POP PUSH2 0x15E PUSH1 0x4 DUP1 CALLDATASIZE SUB DUP2 ADD SWAP1 PUSH2 0x159 SWAP2 SWAP1 PUSH2 0x1A31 JUMP JUMPDEST PUSH2 0x4B0 JUMP JUMPDEST PUSH1 0x40 MLOAD PUSH2 0x16B SWAP2 SWAP1 PUSH2 0x1A76 JUMP JUMPDEST PUSH1 0x40 MLOAD DUP1 SWAP2 SUB SWAP1 RETURN JUMPDEST CALLVALUE DUP1 ISZERO PUSH2 0x17F JUMPI PUSH0 DUP1 REVERT JUMPDEST POP PUSH2 0x19A PUSH1 0x4 DUP1 CALLDATASIZE SUB DUP2 ADD SWAP1 PUSH2 0x195 SWAP2 SWAP1 PUSH2 0x1AC2 JUMP JUMPDEST PUSH2 0x529 JUMP JUMPDEST PUSH1 0x40 MLOAD PUSH2 0x1A7 SWAP2 SWAP1 PUSH2 0x1AFC JUMP JUMPDEST PUSH1 0x40 MLOAD DUP1 SWAP2 SUB SWAP1 RETURN JUMPDEST CALLVALUE DUP1 ISZERO PUSH2 0x1BB JUMPI PUSH0 DUP1 REVERT JUMPDEST POP PUSH2 0x1D6 PUSH1 0x4 DUP1 CALLDATASIZE SUB DUP2 ADD SWAP1 PUSH2 0x1D1 SWAP2 SWAP1 PUSH2 0x1B6F JUMP JUMPDEST PUSH2 0x546 JUMP JUMPDEST STOP JUMPDEST CALLVALUE DUP1 ISZERO PUSH2 0x1E3 JUMPI PUSH0 DUP1 REVERT JUMPDEST POP PUSH2 0x1FE PUSH1 0x4 DUP1 CALLDATASIZE SUB DUP2 ADD SWAP1 PUSH2 0x1F9 SWAP2 SWAP1 PUSH2 0x1B6F JUMP JUMPDEST PUSH2 0x568 JUMP JUMPDEST STOP JUMPDEST CALLVALUE DUP1 ISZERO PUSH2 0x20B JUMPI PUSH0 DUP1 REVERT JUMPDEST POP PUSH2 0x214 PUSH2 0x5E3 JUMP JUMPDEST STOP JUMPDEST CALLVALUE DUP1 ISZERO PUSH2 0x221 JUMPI PUSH0 DUP1 REVERT JUMPDEST POP PUSH2 0x23C PUSH1 0x4 DUP1 CALLDATASIZE SUB DUP2 ADD SWAP1 PUSH2 0x237 SWAP2 SWAP1 PUSH2 0x1BE0 JUMP JUMPDEST PUSH2 0x618 JUMP JUMPDEST PUSH1 0x40 MLOAD PUSH2 0x249 SWAP2 SWAP1 PUSH2 0x1C2D JUMP JUMPDEST PUSH1 0x40 MLOAD DUP1 SWAP2 SUB SWAP1 RETURN JUMPDEST CALLVALUE DUP1 ISZERO PUSH2 0x25D JUMPI PUSH0 DUP1 REVERT JUMPDEST POP PUSH2 0x266 PUSH2 0x638 JUMP JUMPDEST PUSH1 0x40 MLOAD PUSH2 0x273 SWAP2 SWAP1 PUSH2 0x1C2D JUMP JUMPDEST PUSH1 0x40 MLOAD DUP1 SWAP2 SUB SWAP1 RETURN JUMPDEST CALLVALUE DUP1 ISZERO PUSH2 0x287 JUMPI PUSH0 DUP1 REVERT JUMPDEST POP PUSH2 0x290 PUSH2 0x63D JUMP JUMPDEST PUSH1 0x40 MLOAD PUSH2 0x29D SWAP2 SWAP1 PUSH2 0x1A76 JUMP JUMPDEST PUSH1 0x40 MLOAD DUP1 SWAP2 SUB SWAP1 RETURN JUMPDEST CALLVALUE DUP1 ISZERO PUSH2 0x2B1 JUMPI PUSH0 DUP1 REVERT JUMPDEST POP PUSH2 0x2BA PUSH2 0x652 JUMP JUMPDEST PUSH1 0x40 MLOAD PUSH2 0x2C7 SWAP2 SWAP1 PUSH2 0x1AFC JUMP JUMPDEST PUSH1 0x40 MLOAD DUP1 SWAP2 SUB SWAP1 RETURN JUMPDEST CALLVALUE DUP1 ISZERO PUSH2 0x2DB JUMPI PUSH0 DUP1 REVERT JUMPDEST POP PUSH2 0x2E4 PUSH2 0x676 JUMP JUMPDEST STOP JUMPDEST CALLVALUE DUP1 ISZERO PUSH2 0x2F1 JUMPI PUSH0 DUP1 REVERT JUMPDEST POP PUSH2 0x30C PUSH1 0x4 DUP1 CALLDATASIZE SUB DUP2 ADD SWAP1 PUSH2 0x307 SWAP2 SWAP1 PUSH2 0x1C46 JUMP JUMPDEST PUSH2 0x6AB JUMP JUMPDEST STOP JUMPDEST CALLVALUE DUP1 ISZERO PUSH2 0x319 JUMPI PUSH0 DUP1 REVERT JUMPDEST POP PUSH2 0x334 PUSH1 0x4 DUP1 CALLDATASIZE SUB DUP2 ADD SWAP1 PUSH2 0x32F SWAP2 SWAP1 PUSH2 0x1C71 JUMP JUMPDEST PUSH2 0x75B JUMP JUMPDEST STOP JUMPDEST CALLVALUE DUP1 ISZERO PUSH2 0x341 JUMPI PUSH0 DUP1 REVERT JUMPDEST POP PUSH2 0x35C PUSH1 0x4 DUP1 CALLDATASIZE SUB DUP2 ADD SWAP1 PUSH2 0x357 SWAP2 SWAP1 PUSH2 0x1B6F JUMP JUMPDEST PUSH2 0xAF8 JUMP JUMPDEST PUSH1 0x40 MLOAD PUSH2 0x369 SWAP2 SWAP1 PUSH2 0x1A76 JUMP JUMPDEST PUSH1 0x40 MLOAD DUP1 SWAP2 SUB SWAP1 RETURN JUMPDEST CALLVALUE DUP1 ISZERO PUSH2 0x37D JUMPI PUSH0 DUP1 REVERT JUMPDEST POP PUSH2 0x386 PUSH2 0xB5C JUMP JUMPDEST PUSH1 0x40 MLOAD PUSH2 0x393 SWAP2 SWAP1 PUSH2 0x1D55 JUMP JUMPDEST PUSH1 0x40 MLOAD DUP1 SWAP2 SUB SWAP1 RETURN JUMPDEST CALLVALUE DUP1 ISZERO PUSH2 0x3A7 JUMPI PUSH0 DUP1 REVERT JUMPDEST POP PUSH2 0x3B0 PUSH2 0xB82 JUMP JUMPDEST PUSH1 0x40 MLOAD PUSH2 0x3BD SWAP2 SWAP1 PUSH2 0x1C2D JUMP JUMPDEST PUSH1 0x40 MLOAD DUP1 SWAP2 SUB SWAP1 RETURN JUMPDEST CALLVALUE DUP1 ISZERO PUSH2 0x3D1 JUMPI PUSH0 DUP1 REVERT JUMPDEST POP PUSH2 0x3DA PUSH2 0xB88 JUMP JUMPDEST PUSH1 0x40 MLOAD PUSH2 0x3E7 SWAP2 SWAP1 PUSH2 0x1AFC JUMP JUMPDEST PUSH1 0x40 MLOAD DUP1 SWAP2 SUB SWAP1 RETURN JUMPDEST PUSH2 0x40A PUSH1 0x4 DUP1 CALLDATASIZE SUB DUP2 ADD SWAP1 PUSH2 0x405 SWAP2 SWAP1 PUSH2 0x1D6E JUMP JUMPDEST PUSH2 0xB8E JUMP JUMPDEST STOP JUMPDEST CALLVALUE DUP1 ISZERO PUSH2 0x417 JUMPI PUSH0 DUP1 REVERT JUMPDEST POP PUSH2 0x420 PUSH2 0xFD6 JUMP JUMPDEST PUSH1 0x40 MLOAD PUSH2 0x42D SWAP2 SWAP1 PUSH2 0x1AFC JUMP JUMPDEST PUSH1 0x40 MLOAD DUP1 SWAP2 SUB SWAP1 RETURN JUMPDEST CALLVALUE DUP1 ISZERO PUSH2 0x441 JUMPI PUSH0 DUP1 REVERT JUMPDEST POP PUSH2 0x45C PUSH1 0x4 DUP1 CALLDATASIZE SUB DUP2 ADD SWAP1 PUSH2 0x457 SWAP2 SWAP1 PUSH2 0x1B6F JUMP JUMPDEST PUSH2 0xFFA JUMP JUMPDEST STOP JUMPDEST CALLVALUE DUP1 ISZERO PUSH2 0x469 JUMPI PUSH0 DUP1 REVERT JUMPDEST POP PUSH2 0x472 PUSH2 0x101C JUMP JUMPDEST PUSH1 0x40 MLOAD PUSH2 0x47F SWAP2 SWAP1 PUSH2 0x1C2D JUMP JUMPDEST PUSH1 0x40 MLOAD DUP1 SWAP2 SUB SWAP1 RETURN JUMPDEST CALLVALUE DUP1 ISZERO PUSH2 0x493 JUMPI PUSH0 DUP1 REVERT JUMPDEST POP PUSH2 0x4AE PUSH1 0x4 DUP1 CALLDATASIZE SUB DUP2 ADD SWAP1 PUSH2 0x4A9 SWAP2 SWAP1 PUSH2 0x1E20 JUMP JUMPDEST PUSH2 0x1022 JUMP JUMPDEST STOP JUMPDEST PUSH0 PUSH32 0x7965DB0B00000000000000000000000000000000000000000000000000000000 PUSH28 0xFFFFFFFFFFFFFFFFFFFFFFFFFFFFFFFFFFFFFFFFFFFFFFFFFFFFFFFF NOT AND DUP3 PUSH28 0xFFFFFFFFFFFFFFFFFFFFFFFFFFFFFFFFFFFFFFFFFFFFFFFFFFFFFFFF NOT AND EQ DUP1 PUSH2 0x522 JUMPI POP PUSH2 0x521 DUP3 PUSH2 0x124D JUMP JUMPDEST JUMPDEST SWAP1 POP SWAP2 SWAP1 POP JUMP JUMPDEST PUSH0 PUSH1 0x1 PUSH0 DUP4 DUP2 MSTORE PUSH1 0x20 ADD SWAP1 DUP2 MSTORE PUSH1 0x20 ADD PUSH0 KECCAK256 PUSH1 0x1 ADD SLOAD SWAP1 POP SWAP2 SWAP1 POP JUMP JUMPDEST PUSH2 0x54F DUP3 PUSH2 0x529 JUMP JUMPDEST PUSH2 0x558 DUP2 PUSH2 0x12B6 JUMP JUMPDEST PUSH2 0x562 DUP4 DUP4 PUSH2 0x12CA JUMP JUMPDEST POP POP POP POP JUMP JUMPDEST PUSH2 0x570 PUSH2 0x13B3 JUMP JUMPDEST PUSH20 0xFFFFFFFFFFFFFFFFFFFFFFFFFFFFFFFFFFFFFFFF AND DUP2 PUSH20 0xFFFFFFFFFFFFFFFFFFFFFFFFFFFFFFFFFFFFFFFF AND EQ PUSH2 0x5D4 JUMPI PUSH1 0x40 MLOAD PUSH32 0x6697B23200000000000000000000000000000000000000000000000000000000 DUP2 MSTORE PUSH1 0x4 ADD PUSH1 0x40 MLOAD DUP1 SWAP2 SUB SWAP1 REVERT JUMPDEST PUSH2 0x5DE DUP3 DUP3 PUSH2 0x13BA JUMP JUMPDEST POP POP POP JUMP JUMPDEST PUSH32 0x915327D54F2C758AD33C35B031B5E89868657EA971CDA2B8103C502DC672509C PUSH2 0x60D DUP2 PUSH2 0x12B6 JUMP JUMPDEST PUSH2 0x615 PUSH2 0x14A4 JUMP JUMPDEST POP JUMP JUMPDEST PUSH1 0x4 PUSH1 0x20 MSTORE DUP2 PUSH0 MSTORE PUSH1 0x40 PUSH0 KECCAK256 PUSH1 0x20 MSTORE DUP1 PUSH0 MSTORE PUSH1 0x40 PUSH0 KECCAK256 PUSH0 SWAP2 POP SWAP2 POP POP SLOAD DUP2 JUMP JUMPDEST PUSH1 0x32 DUP2 JUMP JUMPDEST PUSH0 PUSH1 0x2 PUSH0 SWAP1 SLOAD SWAP1 PUSH2 0x100 EXP SWAP1 DIV PUSH1 0xFF AND SWAP1 POP SWAP1 JUMP JUMPDEST PUSH32 0x915327D54F2C758AD33C35B031B5E89868657EA971CDA2B8103C502DC672509C DUP2 JUMP JUMPDEST PUSH32 0x915327D54F2C758AD33C35B031B5E89868657EA971CDA2B8103C502DC672509C PUSH2 0x6A0 DUP2 PUSH2 0x12B6 JUMP JUMPDEST PUSH2 0x6A8 PUSH2 0x1505 JUMP JUMPDEST POP JUMP JUMPDEST PUSH32 0x915327D54F2C758AD33C35B031B5E89868657EA971CDA2B8103C502DC672509C PUSH2 0x6D5 DUP2 PUSH2 0x12B6 JUMP JUMPDEST PUSH1 0x32 DUP3 GT ISZERO PUSH2 0x719 JUMPI PUSH1 0x40 MLOAD PUSH32 0x8C379A000000000000000000000000000000000000000000000000000000000 DUP2 MSTORE PUSH1 0x4 ADD PUSH2 0x710 SWAP1 PUSH2 0x1ECA JUMP JUMPDEST PUSH1 0x40 MLOAD DUP1 SWAP2 SUB SWAP1 REVERT JUMPDEST DUP2 PUSH1 0x3 DUP2 SWAP1 SSTORE POP PUSH32 0xF9F635B7CF851AF6071AAF78EF8A5F752DC52F19D556FEA4512B0C2AD4BAEA72 DUP3 PUSH1 0x40 MLOAD PUSH2 0x74F SWAP2 SWAP1 PUSH2 0x1C2D JUMP JUMPDEST PUSH1 0x40 MLOAD DUP1 SWAP2 SUB SWAP1 LOG1 POP POP JUMP JUMPDEST PUSH32 0x52BA824BFABC2BCFCDF7F0EDBB486EBB05E1836C90E78047EFEB949990F72E5F PUSH2 0x785 DUP2 PUSH2 0x12B6 JUMP JUMPDEST PUSH2 0x78D PUSH2 0x1567 JUMP JUMPDEST PUSH2 0x795 PUSH2 0x15A8 JUMP JUMPDEST PUSH0 PUSH1 0x2 PUSH1 0x1 SWAP1 SLOAD SWAP1 PUSH2 0x100 EXP SWAP1 DIV PUSH20 0xFFFFFFFFFFFFFFFFFFFFFFFFFFFFFFFFFFFFFFFF AND PUSH20 0xFFFFFFFFFFFFFFFFFFFFFFFFFFFFFFFFFFFFFFFF AND PUSH4 0xF103167A DUP9 DUP9 PUSH1 0x40 MLOAD DUP4 PUSH4 0xFFFFFFFF AND PUSH1 0xE0 SHL DUP2 MSTORE PUSH1 0x4 ADD PUSH2 0x7F3 SWAP3 SWAP2 SWAP1 PUSH2 0x1EF7 JUMP JUMPDEST PUSH0 PUSH1 0x40 MLOAD DUP1 DUP4 SUB DUP2 DUP7 GAS STATICCALL ISZERO DUP1 ISZERO PUSH2 0x80D JUMPI RETURNDATASIZE PUSH0 DUP1 RETURNDATACOPY RETURNDATASIZE PUSH0 REVERT JUMPDEST POP POP POP POP PUSH1 0x40 MLOAD RETURNDATASIZE PUSH0 DUP3 RETURNDATACOPY RETURNDATASIZE PUSH1 0x1F NOT PUSH1 0x1F DUP3 ADD AND DUP3 ADD DUP1 PUSH1 0x40 MSTORE POP DUP2 ADD SWAP1 PUSH2 0x835 SWAP2 SWAP1 PUSH2 0x21CE JUMP JUMPDEST SWAP1 POP DUP1 PUSH1 0xA0 ADD MLOAD PUSH2 0x87B JUMPI PUSH1 0x40 MLOAD PUSH32 0x8C379A000000000000000000000000000000000000000000000000000000000 DUP2 MSTORE PUSH1 0x4 ADD PUSH2 0x872 SWAP1 PUSH2 0x225F JUMP JUMPDEST PUSH1 0x40 MLOAD DUP1 SWAP2 SUB SWAP1 REVERT JUMPDEST PUSH0 PUSH1 0x3 DUP2 GT ISZERO PUSH2 0x88E JUMPI PUSH2 0x88D PUSH2 0x227D JUMP JUMPDEST JUMPDEST DUP2 PUSH1 0x20 ADD MLOAD PUSH1 0x3 DUP2 GT ISZERO PUSH2 0x8A5 JUMPI PUSH2 0x8A4 PUSH2 0x227D JUMP JUMPDEST JUMPDEST SUB PUSH2 0x8F3 JUMPI DUP5 PUSH20 0xFFFFFFFFFFFFFFFFFFFFFFFFFFFFFFFFFFFFFFFF AND PUSH2 0x8FC DUP6 SWAP1 DUP2 ISZERO MUL SWAP1 PUSH1 0x40 MLOAD PUSH0 PUSH1 0x40 MLOAD DUP1 DUP4 SUB DUP2 DUP6 DUP9 DUP9 CALL SWAP4 POP POP POP POP ISZERO DUP1 ISZERO PUSH2 0x8ED JUMPI RETURNDATASIZE PUSH0 DUP1 RETURNDATACOPY RETURNDATASIZE PUSH0 REVERT JUMPDEST POP PUSH2 0xA92 JUMP JUMPDEST PUSH1 0x1 PUSH1 0x3 DUP2 GT ISZERO PUSH2 0x907 JUMPI PUSH2 0x906 PUSH2 0x227D JUMP JUMPDEST JUMPDEST DUP2 PUSH1 0x20 ADD MLOAD PUSH1 0x3 DUP2 GT ISZERO PUSH2 0x91E JUMPI PUSH2 0x91D PUSH2 0x227D JUMP JUMPDEST JUMPDEST SUB PUSH2 0x953 JUMPI PUSH2 0x94E DUP6 DUP6 DUP9 PUSH20 0xFFFFFFFFFFFFFFFFFFFFFFFFFFFFFFFFFFFFFFFF AND PUSH2 0x15EC SWAP1 SWAP3 SWAP2 SWAP1 PUSH4 0xFFFFFFFF AND JUMP JUMPDEST PUSH2 0xA91 JUMP JUMPDEST PUSH1 0x2 PUSH1 0x3 DUP2 GT ISZERO PUSH2 0x967 JUMPI PUSH2 0x966 PUSH2 0x227D JUMP JUMPDEST JUMPDEST DUP2 PUSH1 0x20 ADD MLOAD PUSH1 0x3 DUP2 GT ISZERO PUSH2 0x97E JUMPI PUSH2 0x97D PUSH2 0x227D JUMP JUMPDEST JUMPDEST SUB PUSH2 0x9F2 JUMPI DUP6 PUSH20 0xFFFFFFFFFFFFFFFFFFFFFFFFFFFFFFFFFFFFFFFF AND PUSH4 0x23B872DD ADDRESS DUP8 DUP8 PUSH1 0x40 MLOAD DUP5 PUSH4 0xFFFFFFFF AND PUSH1 0xE0 SHL DUP2 MSTORE PUSH1 0x4 ADD PUSH2 0x9C0 SWAP4 SWAP3 SWAP2 SWAP1 PUSH2 0x22AA JUMP JUMPDEST PUSH0 PUSH1 0x40 MLOAD DUP1 DUP4 SUB DUP2 PUSH0 DUP8 DUP1 EXTCODESIZE ISZERO DUP1 ISZERO PUSH2 0x9D7 JUMPI PUSH0 DUP1 REVERT JUMPDEST POP GAS CALL ISZERO DUP1 ISZERO PUSH2 0x9E9 JUMPI RETURNDATASIZE PUSH0 DUP1 RETURNDATACOPY RETURNDATASIZE PUSH0 REVERT JUMPDEST POP POP POP POP PUSH2 0xA90 JUMP JUMPDEST PUSH1 0x3 DUP1 DUP2 GT ISZERO PUSH2 0xA05 JUMPI PUSH2 0xA04 PUSH2 0x227D JUMP JUMPDEST JUMPDEST DUP2 PUSH1 0x20 ADD MLOAD PUSH1 0x3 DUP2 GT ISZERO PUSH2 0xA1C JUMPI PUSH2 0xA1B PUSH2 0x227D JUMP JUMPDEST JUMPDEST SUB PUSH2 0xA8F JUMPI DUP6 PUSH20 0xFFFFFFFFFFFFFFFFFFFFFFFFFFFFFFFFFFFFFFFF AND PUSH4 0xF242432A ADDRESS DUP8 DUP8 PUSH1 0x1 PUSH1 0x40 MLOAD DUP6 PUSH4 0xFFFFFFFF AND PUSH1 0xE0 SHL DUP2 MSTORE PUSH1 0x4 ADD PUSH2 0xA61 SWAP5 SWAP4 SWAP3 SWAP2 SWAP1 PUSH2 0x234B JUMP JUMPDEST PUSH0 PUSH1 0x40 MLOAD DUP1 DUP4 SUB DUP2 PUSH0 DUP8 DUP1 EXTCODESIZE ISZERO DUP1 ISZERO PUSH2 0xA78 JUMPI PUSH0 DUP1 REVERT JUMPDEST POP GAS CALL ISZERO DUP1 ISZERO PUSH2 0xA8A JUMPI RETURNDATASIZE PUSH0 DUP1 RETURNDATACOPY RETURNDATASIZE PUSH0 REVERT JUMPDEST POP POP POP POP JUMPDEST JUMPDEST JUMPDEST JUMPDEST DUP6 PUSH20 0xFFFFFFFFFFFFFFFFFFFFFFFFFFFFFFFFFFFFFFFF AND DUP8 DUP10 PUSH32 0x12DF84BBA73C5C6E2E7D94D0F7D431B2C5FEB5404CC9203145417F04C89C9E44 DUP9 DUP9 DUP9 PUSH1 0x40 MLOAD PUSH2 0xADE SWAP4 SWAP3 SWAP2 SWAP1 PUSH2 0x23A1 JUMP JUMPDEST PUSH1 0x40 MLOAD DUP1 SWAP2 SUB SWAP1 LOG4 POP PUSH2 0xAEF PUSH2 0x166B JUMP JUMPDEST POP POP POP POP POP POP POP JUMP JUMPDEST PUSH0 PUSH1 0x1 PUSH0 DUP5 DUP2 MSTORE PUSH1 0x20 ADD SWAP1 DUP2 MSTORE PUSH1 0x20 ADD PUSH0 KECCAK256 PUSH0 ADD PUSH0 DUP4 PUSH20 0xFFFFFFFFFFFFFFFFFFFFFFFFFFFFFFFFFFFFFFFF AND PUSH20 0xFFFFFFFFFFFFFFFFFFFFFFFFFFFFFFFFFFFFFFFF AND DUP2 MSTORE PUSH1 0x20 ADD SWAP1 DUP2 MSTORE PUSH1 0x20 ADD PUSH0 KECCAK256 PUSH0 SWAP1 SLOAD SWAP1 PUSH2 0x100 EXP SWAP1 DIV PUSH1 0xFF AND SWAP1 POP SWAP3 SWAP2 POP POP JUMP JUMPDEST PUSH1 0x2 PUSH1 0x1 SWAP1 SLOAD SWAP1 PUSH2 0x100 EXP SWAP1 DIV PUSH20 0xFFFFFFFFFFFFFFFFFFFFFFFFFFFFFFFFFFFFFFFF AND DUP2 JUMP JUMPDEST PUSH1 0x3 SLOAD DUP2 JUMP JUMPDEST PUSH0 DUP1 SHL DUP2 JUMP JUMPDEST PUSH2 0xB96 PUSH2 0x1567 JUMP JUMPDEST PUSH2 0xB9E PUSH2 0x15A8 JUMP JUMPDEST DUP4 DUP6 SUB PUSH2 0xBE0 JUMPI PUSH1 0x40 MLOAD PUSH32 0x8C379A000000000000000000000000000000000000000000000000000000000 DUP2 MSTORE PUSH1 0x4 ADD PUSH2 0xBD7 SWAP1 PUSH2 0x2420 JUMP JUMPDEST PUSH1 0x40 MLOAD DUP1 SWAP2 SUB SWAP1 REVERT JUMPDEST PUSH0 PUSH1 0x2 PUSH1 0x1 SWAP1 SLOAD SWAP1 PUSH2 0x100 EXP SWAP1 DIV PUSH20 0xFFFFFFFFFFFFFFFFFFFFFFFFFFFFFFFFFFFFFFFF AND PUSH20 0xFFFFFFFFFFFFFFFFFFFFFFFFFFFFFFFFFFFFFFFF AND PUSH4 0xF103167A DUP8 DUP7 PUSH1 0x40 MLOAD DUP4 PUSH4 0xFFFFFFFF AND PUSH1 0xE0 SHL DUP2 MSTORE PUSH1 0x4 ADD PUSH2 0xC3E SWAP3 SWAP2 SWAP1 PUSH2 0x1EF7 JUMP JUMPDEST PUSH0 PUSH1 0x40 MLOAD DUP1 DUP4 SUB DUP2 DUP7 GAS STATICCALL ISZERO DUP1 ISZERO PUSH2 0xC58 JUMPI RETURNDATASIZE PUSH0 DUP1 RETURNDATACOPY RETURNDATASIZE PUSH0 REVERT JUMPDEST POP POP POP POP PUSH1 0x40 MLOAD RETURNDATASIZE PUSH0 DUP3 RETURNDATACOPY RETURNDATASIZE PUSH1 0x1F NOT PUSH1 0x1F DUP3 ADD AND DUP3 ADD DUP1 PUSH1 0x40 MSTORE POP DUP2 ADD SWAP1 PUSH2 0xC80 SWAP2 SWAP1 PUSH2 0x21CE JUMP JUMPDEST SWAP1 POP DUP1 PUSH1 0xA0 ADD MLOAD PUSH2 0xCC6 JUMPI PUSH1 0x40 MLOAD PUSH32 0x8C379A000000000000000000000000000000000000000000000000000000000 DUP2 MSTORE PUSH1 0x4 ADD PUSH2 0xCBD SWAP1 PUSH2 0x225F JUMP JUMPDEST PUSH1 0x40 MLOAD DUP1 SWAP2 SUB SWAP1 REVERT JUMPDEST PUSH0 PUSH2 0x3E8 PUSH1 0x3 SLOAD DUP5 PUSH2 0xCD8 SWAP2 SWAP1 PUSH2 0x246B JUMP JUMPDEST PUSH2 0xCE2 SWAP2 SWAP1 PUSH2 0x24D9 JUMP JUMPDEST SWAP1 POP PUSH0 DUP2 DUP5 PUSH2 0xCF1 SWAP2 SWAP1 PUSH2 0x2509 JUMP JUMPDEST SWAP1 POP PUSH0 PUSH1 0x4 PUSH0 DUP10 DUP2 MSTORE PUSH1 0x20 ADD SWAP1 DUP2 MSTORE PUSH1 0x20 ADD PUSH0 KECCAK256 PUSH0 CALLER PUSH20 0xFFFFFFFFFFFFFFFFFFFFFFFFFFFFFFFFFFFFFFFF AND PUSH20 0xFFFFFFFFFFFFFFFFFFFFFFFFFFFFFFFFFFFFFFFF AND DUP2 MSTORE PUSH1 0x20 ADD SWAP1 DUP2 MSTORE PUSH1 0x20 ADD PUSH0 KECCAK256 PUSH0 DUP2 SLOAD DUP1 SWAP3 SWAP2 SWAP1 PUSH2 0xD50 SWAP1 PUSH2 0x253C JUMP JUMPDEST SWAP2 SWAP1 POP SSTORE SWAP1 POP PUSH0 PUSH1 0x3 DUP2 GT ISZERO PUSH2 0xD69 JUMPI PUSH2 0xD68 PUSH2 0x227D JUMP JUMPDEST JUMPDEST DUP5 PUSH1 0x20 ADD MLOAD PUSH1 0x3 DUP2 GT ISZERO PUSH2 0xD80 JUMPI PUSH2 0xD7F PUSH2 0x227D JUMP JUMPDEST JUMPDEST SUB PUSH2 0xDCC JUMPI DUP5 CALLVALUE EQ PUSH2 0xDC7 JUMPI PUSH1 0x40 MLOAD PUSH32 0x8C379A000000000000000000000000000000000000000000000000000000000 DUP2 MSTORE PUSH1 0x4 ADD PUSH2 0xDBE SWAP1 PUSH2 0x25CD JUMP JUMPDEST PUSH1 0x40 MLOAD DUP1 SWAP2 SUB SWAP1 REVERT JUMPDEST PUSH2 0xF6D JUMP JUMPDEST PUSH1 0x1 PUSH1 0x3 DUP2 GT ISZERO PUSH2 0xDE0 JUMPI PUSH2 0xDDF PUSH2 0x227D JUMP JUMPDEST JUMPDEST DUP5 PUSH1 0x20 ADD MLOAD PUSH1 0x3 DUP2 GT ISZERO PUSH2 0xDF7 JUMPI PUSH2 0xDF6 PUSH2 0x227D JUMP JUMPDEST JUMPDEST SUB PUSH2 0xE2E JUMPI PUSH2 0xE29 CALLER ADDRESS DUP8 DUP11 PUSH20 0xFFFFFFFFFFFFFFFFFFFFFFFFFFFFFFFFFFFFFFFF AND PUSH2 0x1674 SWAP1 SWAP4 SWAP3 SWAP2 SWAP1 PUSH4 0xFFFFFFFF AND JUMP JUMPDEST PUSH2 0xF6C JUMP JUMPDEST PUSH1 0x2 PUSH1 0x3 DUP2 GT ISZERO PUSH2 0xE42 JUMPI PUSH2 0xE41 PUSH2 0x227D JUMP JUMPDEST JUMPDEST DUP5 PUSH1 0x20 ADD MLOAD PUSH1 0x3 DUP2 GT ISZERO PUSH2 0xE59 JUMPI PUSH2 0xE58 PUSH2 0x227D JUMP JUMPDEST JUMPDEST SUB PUSH2 0xECD JUMPI DUP7 PUSH20 0xFFFFFFFFFFFFFFFFFFFFFFFFFFFFFFFFFFFFFFFF AND PUSH4 0x23B872DD CALLER ADDRESS DUP9 PUSH1 0x40 MLOAD DUP5 PUSH4 0xFFFFFFFF AND PUSH1 0xE0 SHL DUP2 MSTORE PUSH1 0x4 ADD PUSH2 0xE9B SWAP4 SWAP3 SWAP2 SWAP1 PUSH2 0x22AA JUMP JUMPDEST PUSH0 PUSH1 0x40 MLOAD DUP1 DUP4 SUB DUP2 PUSH0 DUP8 DUP1 EXTCODESIZE ISZERO DUP1 ISZERO PUSH2 0xEB2 JUMPI PUSH0 DUP1 REVERT JUMPDEST POP GAS CALL ISZERO DUP1 ISZERO PUSH2 0xEC4 JUMPI RETURNDATASIZE PUSH0 DUP1 RETURNDATACOPY RETURNDATASIZE PUSH0 REVERT JUMPDEST POP POP POP POP PUSH2 0xF6B JUMP JUMPDEST PUSH1 0x3 DUP1 DUP2 GT ISZERO PUSH2 0xEE0 JUMPI PUSH2 0xEDF PUSH2 0x227D JUMP JUMPDEST JUMPDEST DUP5 PUSH1 0x20 ADD MLOAD PUSH1 0x3 DUP2 GT ISZERO PUSH2 0xEF7 JUMPI PUSH2 0xEF6 PUSH2 0x227D JUMP JUMPDEST JUMPDEST SUB PUSH2 0xF6A JUMPI DUP7 PUSH20 0xFFFFFFFFFFFFFFFFFFFFFFFFFFFFFFFFFFFFFFFF AND PUSH4 0xF242432A CALLER ADDRESS DUP9 PUSH1 0x1 PUSH1 0x40 MLOAD DUP6 PUSH4 0xFFFFFFFF AND PUSH1 0xE0 SHL DUP2 MSTORE PUSH1 0x4 ADD PUSH2 0xF3C SWAP5 SWAP4 SWAP3 SWAP2 SWAP1 PUSH2 0x234B JUMP JUMPDEST PUSH0 PUSH1 0x40 MLOAD DUP1 DUP4 SUB DUP2 PUSH0 DUP8 DUP1 EXTCODESIZE ISZERO DUP1 ISZERO PUSH2 0xF53 JUMPI PUSH0 DUP1 REVERT JUMPDEST POP GAS CALL ISZERO DUP1 ISZERO PUSH2 0xF65 JUMPI RETURNDATASIZE PUSH0 DUP1 RETURNDATACOPY RETURNDATASIZE PUSH0 REVERT JUMPDEST POP POP POP POP JUMPDEST JUMPDEST JUMPDEST JUMPDEST DUP7 PUSH20 0xFFFFFFFFFFFFFFFFFFFFFFFFFFFFFFFFFFFFFFFF AND DUP9 DUP11 PUSH32 0xE0508A6BBC9B9DCB6746AB1DC26325D307AC77FDB1289270B074A370A05B053A CALLER DUP11 DUP8 DUP8 PUSH1 0x40 MLOAD PUSH2 0xFBB SWAP5 SWAP4 SWAP3 SWAP2 SWAP1 PUSH2 0x25EB JUMP JUMPDEST PUSH1 0x40 MLOAD DUP1 SWAP2 SUB SWAP1 LOG4 POP POP POP POP PUSH2 0xFCF PUSH2 0x166B JUMP JUMPDEST POP POP POP POP POP JUMP JUMPDEST PUSH32 0x52BA824BFABC2BCFCDF7F0EDBB486EBB05E1836C90E78047EFEB949990F72E5F DUP2 JUMP JUMPDEST PUSH2 0x1003 DUP3 PUSH2 0x529 JUMP JUMPDEST PUSH2 0x100C DUP2 PUSH2 0x12B6 JUMP JUMPDEST PUSH2 0x1016 DUP4 DUP4 PUSH2 0x13BA JUMP JUMPDEST POP POP POP POP JUMP JUMPDEST PUSH2 0x3E8 DUP2 JUMP JUMPDEST PUSH32 0x915327D54F2C758AD33C35B031B5E89868657EA971CDA2B8103C502DC672509C PUSH2 0x104C DUP2 PUSH2 0x12B6 JUMP JUMPDEST PUSH0 PUSH1 0x2 PUSH1 0x1 SWAP1 SLOAD SWAP1 PUSH2 0x100 EXP SWAP1 DIV PUSH20 0xFFFFFFFFFFFFFFFFFFFFFFFFFFFFFFFFFFFFFFFF AND PUSH20 0xFFFFFFFFFFFFFFFFFFFFFFFFFFFFFFFFFFFFFFFF AND PUSH4 0xF103167A CHAINID DUP8 PUSH1 0x40 MLOAD DUP4 PUSH4 0xFFFFFFFF AND PUSH1 0xE0 SHL DUP2 MSTORE PUSH1 0x4 ADD PUSH2 0x10AA SWAP3 SWAP2 SWAP1 PUSH2 0x1EF7 JUMP JUMPDEST PUSH0 PUSH1 0x40 MLOAD DUP1 DUP4 SUB DUP2 DUP7 GAS STATICCALL ISZERO DUP1 ISZERO PUSH2 0x10C4 JUMPI RETURNDATASIZE PUSH0 DUP1 RETURNDATACOPY RETURNDATASIZE PUSH0 REVERT JUMPDEST POP POP POP POP PUSH1 0x40 MLOAD RETURNDATASIZE PUSH0 DUP3 RETURNDATACOPY RETURNDATASIZE PUSH1 0x1F NOT PUSH1 0x1F DUP3 ADD AND DUP3 ADD DUP1 PUSH1 0x40 MSTORE POP DUP2 ADD SWAP1 PUSH2 0x10EC SWAP2 SWAP1 PUSH2 0x21CE JUMP JUMPDEST SWAP1 POP DUP1 PUSH1 0xA0 ADD MLOAD PUSH2 0x1132 JUMPI PUSH1 0x40 MLOAD PUSH32 0x8C379A000000000000000000000000000000000000000000000000000000000 DUP2 MSTORE PUSH1 0x4 ADD PUSH2 0x1129 SWAP1 PUSH2 0x225F JUMP JUMPDEST PUSH1 0x40 MLOAD DUP1 SWAP2 SUB SWAP1 REVERT JUMPDEST PUSH0 PUSH1 0x3 DUP2 GT ISZERO PUSH2 0x1145 JUMPI PUSH2 0x1144 PUSH2 0x227D JUMP JUMPDEST JUMPDEST DUP2 PUSH1 0x20 ADD MLOAD PUSH1 0x3 DUP2 GT ISZERO PUSH2 0x115C JUMPI PUSH2 0x115B PUSH2 0x227D JUMP JUMPDEST JUMPDEST SUB PUSH2 0x11AA JUMPI DUP4 PUSH20 0xFFFFFFFFFFFFFFFFFFFFFFFFFFFFFFFFFFFFFFFF AND PUSH2 0x8FC DUP5 SWAP1 DUP2 ISZERO MUL SWAP1 PUSH1 0x40 MLOAD PUSH0 PUSH1 0x40 MLOAD DUP1 DUP4 SUB DUP2 DUP6 DUP9 DUP9 CALL SWAP4 POP POP POP POP ISZERO DUP1 ISZERO PUSH2 0x11A4 JUMPI RETURNDATASIZE PUSH0 DUP1 RETURNDATACOPY RETURNDATASIZE PUSH0 REVERT JUMPDEST POP PUSH2 0x1246 JUMP JUMPDEST PUSH1 0x1 PUSH1 0x3 DUP2 GT ISZERO PUSH2 0x11BE JUMPI PUSH2 0x11BD PUSH2 0x227D JUMP JUMPDEST JUMPDEST DUP2 PUSH1 0x20 ADD MLOAD PUSH1 0x3 DUP2 GT ISZERO PUSH2 0x11D5 JUMPI PUSH2 0x11D4 PUSH2 0x227D JUMP JUMPDEST JUMPDEST SUB PUSH2 0x120A JUMPI PUSH2 0x1205 DUP5 DUP5 DUP8 PUSH20 0xFFFFFFFFFFFFFFFFFFFFFFFFFFFFFFFFFFFFFFFF AND PUSH2 0x15EC SWAP1 SWAP3 SWAP2 SWAP1 PUSH4 0xFFFFFFFF AND JUMP JUMPDEST PUSH2 0x1245 JUMP JUMPDEST PUSH1 0x40 MLOAD PUSH32 0x8C379A000000000000000000000000000000000000000000000000000000000 DUP2 MSTORE PUSH1 0x4 ADD PUSH2 0x123C SWAP1 PUSH2 0x269E JUMP JUMPDEST PUSH1 0x40 MLOAD DUP1 SWAP2 SUB SWAP1 REVERT JUMPDEST JUMPDEST POP POP POP POP POP JUMP JUMPDEST PUSH0 PUSH32 0x1FFC9A700000000000000000000000000000000000000000000000000000000 PUSH28 0xFFFFFFFFFFFFFFFFFFFFFFFFFFFFFFFFFFFFFFFFFFFFFFFFFFFFFFFF NOT AND DUP3 PUSH28 0xFFFFFFFFFFFFFFFFFFFFFFFFFFFFFFFFFFFFFFFFFFFFFFFFFFFFFFFF NOT AND EQ SWAP1 POP SWAP2 SWAP1 POP JUMP JUMPDEST PUSH2 0x12C7 DUP2 PUSH2 0x12C2 PUSH2 0x13B3 JUMP JUMPDEST PUSH2 0x16F6 JUMP JUMPDEST POP JUMP JUMPDEST PUSH0 PUSH2 0x12D5 DUP4 DUP4 PUSH2 0xAF8 JUMP JUMPDEST PUSH2 0x13A9 JUMPI PUSH1 0x1 DUP1 PUSH0 DUP6 DUP2 MSTORE PUSH1 0x20 ADD SWAP1 DUP2 MSTORE PUSH1 0x20 ADD PUSH0 KECCAK256 PUSH0 ADD PUSH0 DUP5 PUSH20 0xFFFFFFFFFFFFFFFFFFFFFFFFFFFFFFFFFFFFFFFF AND PUSH20 0xFFFFFFFFFFFFFFFFFFFFFFFFFFFFFFFFFFFFFFFF AND DUP2 MSTORE PUSH1 0x20 ADD SWAP1 DUP2 MSTORE PUSH1 0x20 ADD PUSH0 KECCAK256 PUSH0 PUSH2 0x100 EXP DUP2 SLOAD DUP2 PUSH1 0xFF MUL NOT AND SWAP1 DUP4 ISZERO ISZERO MUL OR SWAP1 SSTORE POP PUSH2 0x1346 PUSH2 0x13B3 JUMP JUMPDEST PUSH20 0xFFFFFFFFFFFFFFFFFFFFFFFFFFFFFFFFFFFFFFFF AND DUP3 PUSH20 0xFFFFFFFFFFFFFFFFFFFFFFFFFFFFFFFFFFFFFFFF AND DUP5 PUSH32 0x2F8788117E7EFF1D82E926EC794901D17C78024A50270940304540A733656F0D PUSH1 0x40 MLOAD PUSH1 0x40 MLOAD DUP1 SWAP2 SUB SWAP1 LOG4 PUSH1 0x1 SWAP1 POP PUSH2 0x13AD JUMP JUMPDEST PUSH0 SWAP1 POP JUMPDEST SWAP3 SWAP2 POP POP JUMP JUMPDEST PUSH0 CALLER SWAP1 POP SWAP1 JUMP JUMPDEST PUSH0 PUSH2 0x13C5 DUP4 DUP4 PUSH2 0xAF8 JUMP JUMPDEST ISZERO PUSH2 0x149A JUMPI PUSH0 PUSH1 0x1 PUSH0 DUP6 DUP2 MSTORE PUSH1 0x20 ADD SWAP1 DUP2 MSTORE PUSH1 0x20 ADD PUSH0 KECCAK256 PUSH0 ADD PUSH0 DUP5 PUSH20 0xFFFFFFFFFFFFFFFFFFFFFFFFFFFFFFFFFFFFFFFF AND PUSH20 0xFFFFFFFFFFFFFFFFFFFFFFFFFFFFFFFFFFFFFFFF AND DUP2 MSTORE PUSH1 0x20 ADD SWAP1 DUP2 MSTORE PUSH1 0x20 ADD PUSH0 KECCAK256 PUSH0 PUSH2 0x100 EXP DUP2 SLOAD DUP2 PUSH1 0xFF MUL NOT AND SWAP1 DUP4 ISZERO ISZERO MUL OR SWAP1 SSTORE POP PUSH2 0x1437 PUSH2 0x13B3 JUMP JUMPDEST PUSH20 0xFFFFFFFFFFFFFFFFFFFFFFFFFFFFFFFFFFFFFFFF AND DUP3 PUSH20 0xFFFFFFFFFFFFFFFFFFFFFFFFFFFFFFFFFFFFFFFF AND DUP5 PUSH32 0xF6391F5C32D9C69D2A47EA670B442974B53935D1EDC7FD64EB21E047A839171B PUSH1 0x40 MLOAD PUSH1 0x40 MLOAD DUP1 SWAP2 SUB SWAP1 LOG4 PUSH1 0x1 SWAP1 POP PUSH2 0x149E JUMP JUMPDEST PUSH0 SWAP1 POP JUMPDEST SWAP3 SWAP2 POP POP JUMP JUMPDEST PUSH2 0x14AC PUSH2 0x1747 JUMP JUMPDEST PUSH0 PUSH1 0x2 PUSH0 PUSH2 0x100 EXP DUP2 SLOAD DUP2 PUSH1 0xFF MUL NOT AND SWAP1 DUP4 ISZERO ISZERO MUL OR SWAP1 SSTORE POP PUSH32 0x5DB9EE0A495BF2E6FF9C91A7834C1BA4FDD244A5E8AA4E537BD38AEAE4B073AA PUSH2 0x14EE PUSH2 0x13B3 JUMP JUMPDEST PUSH1 0x40 MLOAD PUSH2 0x14FB SWAP2 SWAP1 PUSH2 0x26BC JUMP JUMPDEST PUSH1 0x40 MLOAD DUP1 SWAP2 SUB SWAP1 LOG1 JUMP JUMPDEST PUSH2 0x150D PUSH2 0x1567 JUMP JUMPDEST PUSH1 0x1 PUSH1 0x2 PUSH0 PUSH2 0x100 EXP DUP2 SLOAD DUP2 PUSH1 0xFF MUL NOT AND SWAP1 DUP4 ISZERO ISZERO MUL OR SWAP1 SSTORE POP PUSH32 0x62E78CEA01BEE320CD4E420270B5EA74000D11B0C9F74754EBDBFC544B05A258 PUSH2 0x1550 PUSH2 0x13B3 JUMP JUMPDEST PUSH1 0x40 MLOAD PUSH2 0x155D SWAP2 SWAP1 PUSH2 0x26BC JUMP JUMPDEST PUSH1 0x40 MLOAD DUP1 SWAP2 SUB SWAP1 LOG1 JUMP JUMPDEST PUSH2 0x156F PUSH2 0x63D JUMP JUMPDEST ISZERO PUSH2 0x15A6 JUMPI PUSH1 0x40 MLOAD PUSH32 0xD93C066500000000000000000000000000000000000000000000000000000000 DUP2 MSTORE PUSH1 0x4 ADD PUSH1 0x40 MLOAD DUP1 SWAP2 SUB SWAP1 REVERT JUMPDEST JUMP JUMPDEST PUSH1 0x2 PUSH0 SLOAD SUB PUSH2 0x15E3 JUMPI PUSH1 0x40 MLOAD PUSH32 0x3EE5AEB500000000000000000000000000000000000000000000000000000000 DUP2 MSTORE PUSH1 0x4 ADD PUSH1 0x40 MLOAD DUP1 SWAP2 SUB SWAP1 REVERT JUMPDEST PUSH1 0x2 PUSH0 DUP2 SWAP1 SSTORE POP JUMP JUMPDEST PUSH2 0x1666 DUP4 DUP5 PUSH20 0xFFFFFFFFFFFFFFFFFFFFFFFFFFFFFFFFFFFFFFFF AND PUSH4 0xA9059CBB DUP6 DUP6 PUSH1 0x40 MLOAD PUSH1 0x24 ADD PUSH2 0x161F SWAP3 SWAP2 SWAP1 PUSH2 0x26D5 JUMP JUMPDEST PUSH1 0x40 MLOAD PUSH1 0x20 DUP2 DUP4 SUB SUB DUP2 MSTORE SWAP1 PUSH1 0x40 MSTORE SWAP2 POP PUSH1 0xE0 SHL PUSH1 0x20 DUP3 ADD DUP1 MLOAD PUSH28 0xFFFFFFFFFFFFFFFFFFFFFFFFFFFFFFFFFFFFFFFFFFFFFFFFFFFFFFFF DUP4 DUP2 DUP4 AND OR DUP4 MSTORE POP POP POP POP PUSH2 0x1787 JUMP JUMPDEST POP POP POP JUMP JUMPDEST PUSH1 0x1 PUSH0 DUP2 SWAP1 SSTORE POP JUMP JUMPDEST PUSH2 0x16F0 DUP5 DUP6 PUSH20 0xFFFFFFFFFFFFFFFFFFFFFFFFFFFFFFFFFFFFFFFF AND PUSH4 0x23B872DD DUP7 DUP7 DUP7 PUSH1 0x40 MLOAD PUSH1 0x24 ADD PUSH2 0x16A9 SWAP4 SWAP3 SWAP2 SWAP1 PUSH2 0x22AA JUMP JUMPDEST PUSH1 0x40 MLOAD PUSH1 0x20 DUP2 DUP4 SUB SUB DUP2 MSTORE SWAP1 PUSH1 0x40 MSTORE SWAP2 POP PUSH1 0xE0 SHL PUSH1 0x20 DUP3 ADD DUP1 MLOAD PUSH28 0xFFFFFFFFFFFFFFFFFFFFFFFFFFFFFFFFFFFFFFFFFFFFFFFFFFFFFFFF DUP4 DUP2 DUP4 AND OR DUP4 MSTORE POP POP POP POP PUSH2 0x1787 JUMP JUMPDEST POP POP POP POP JUMP JUMPDEST PUSH2 0x1700 DUP3 DUP3 PUSH2 0xAF8 JUMP JUMPDEST PUSH2 0x1743 JUMPI DUP1 DUP3 PUSH1 0x40 MLOAD PUSH32 0xE2517D3F00000000000000000000000000000000000000000000000000000000 DUP2 MSTORE PUSH1 0x4 ADD PUSH2 0x173A SWAP3 SWAP2 SWAP1 PUSH2 0x26FC JUMP JUMPDEST PUSH1 0x40 MLOAD DUP1 SWAP2 SUB SWAP1 REVERT JUMPDEST POP POP JUMP JUMPDEST PUSH2 0x174F PUSH2 0x63D JUMP JUMPDEST PUSH2 0x1785 JUMPI PUSH1 0x40 MLOAD PUSH32 0x8DFC202B00000000000000000000000000000000000000000000000000000000 DUP2 MSTORE PUSH1 0x4 ADD PUSH1 0x40 MLOAD DUP1 SWAP2 SUB SWAP1 REVERT JUMPDEST JUMP JUMPDEST PUSH0 PUSH2 0x17B1 DUP3 DUP5 PUSH20 0xFFFFFFFFFFFFFFFFFFFFFFFFFFFFFFFFFFFFFFFF AND PUSH2 0x181C SWAP1 SWAP2 SWAP1 PUSH4 0xFFFFFFFF AND JUMP JUMPDEST SWAP1 POP PUSH0 DUP2 MLOAD EQ ISZERO DUP1 ISZERO PUSH2 0x17D5 JUMPI POP DUP1 DUP1 PUSH1 0x20 ADD SWAP1 MLOAD DUP2 ADD SWAP1 PUSH2 0x17D3 SWAP2 SWAP1 PUSH2 0x2723 JUMP JUMPDEST ISZERO JUMPDEST ISZERO PUSH2 0x1817 JUMPI DUP3 PUSH1 0x40 MLOAD PUSH32 0x5274AFE700000000000000000000000000000000000000000000000000000000 DUP2 MSTORE PUSH1 0x4 ADD PUSH2 0x180E SWAP2 SWAP1 PUSH2 0x26BC JUMP JUMPDEST PUSH1 0x40 MLOAD DUP1 SWAP2 SUB SWAP1 REVERT JUMPDEST POP POP POP JUMP JUMPDEST PUSH1 0x60 PUSH2 0x1829 DUP4 DUP4 PUSH0 PUSH2 0x1831 JUMP JUMPDEST SWAP1 POP SWAP3 SWAP2 POP POP JUMP JUMPDEST PUSH1 0x60 DUP2 SELFBALANCE LT ISZERO PUSH2 0x1878 JUMPI ADDRESS PUSH1 0x40 MLOAD PUSH32 0xCD78605900000000000000000000000000000000000000000000000000000000 DUP2 MSTORE PUSH1 0x4 ADD PUSH2 0x186F SWAP2 SWAP1 PUSH2 0x26BC JUMP JUMPDEST PUSH1 0x40 MLOAD DUP1 SWAP2 SUB SWAP1 REVERT JUMPDEST PUSH0 DUP1 DUP6 PUSH20 0xFFFFFFFFFFFFFFFFFFFFFFFFFFFFFFFFFFFFFFFF AND DUP5 DUP7 PUSH1 0x40 MLOAD PUSH2 0x18A0 SWAP2 SWAP1 PUSH2 0x2792 JUMP JUMPDEST PUSH0 PUSH1 0x40 MLOAD DUP1 DUP4 SUB DUP2 DUP6 DUP8 GAS CALL SWAP3 POP POP POP RETURNDATASIZE DUP1 PUSH0 DUP2 EQ PUSH2 0x18DA JUMPI PUSH1 0x40 MLOAD SWAP2 POP PUSH1 0x1F NOT PUSH1 0x3F RETURNDATASIZE ADD AND DUP3 ADD PUSH1 0x40 MSTORE RETURNDATASIZE DUP3 MSTORE RETURNDATASIZE PUSH0 PUSH1 0x20 DUP5 ADD RETURNDATACOPY PUSH2 0x18DF JUMP JUMPDEST PUSH1 0x60 SWAP2 POP JUMPDEST POP SWAP2 POP SWAP2 POP PUSH2 0x18EF DUP7 DUP4 DUP4 PUSH2 0x18FA JUMP JUMPDEST SWAP3 POP POP POP SWAP4 SWAP3 POP POP POP JUMP JUMPDEST PUSH1 0x60 DUP3 PUSH2 0x190F JUMPI PUSH2 0x190A DUP3 PUSH2 0x1987 JUMP JUMPDEST PUSH2 0x197F JUMP JUMPDEST PUSH0 DUP3 MLOAD EQ DUP1 ISZERO PUSH2 0x1935 JUMPI POP PUSH0 DUP5 PUSH20 0xFFFFFFFFFFFFFFFFFFFFFFFFFFFFFFFFFFFFFFFF AND EXTCODESIZE EQ JUMPDEST ISZERO PUSH2 0x1977 JUMPI DUP4 PUSH1 0x40 MLOAD PUSH32 0x9996B31500000000000000000000000000000000000000000000000000000000 DUP2 MSTORE PUSH1 0x4 ADD PUSH2 0x196E SWAP2 SWAP1 PUSH2 0x26BC JUMP JUMPDEST PUSH1 0x40 MLOAD DUP1 SWAP2 SUB SWAP1 REVERT JUMPDEST DUP2 SWAP1 POP PUSH2 0x1980 JUMP JUMPDEST JUMPDEST SWAP4 SWAP3 POP POP POP JUMP JUMPDEST PUSH0 DUP2 MLOAD GT ISZERO PUSH2 0x1999 JUMPI DUP1 MLOAD DUP1 DUP3 PUSH1 0x20 ADD REVERT JUMPDEST PUSH1 0x40 MLOAD PUSH32 0x1425EA4200000000000000000000000000000000000000000000000000000000 DUP2 MSTORE PUSH1 0x4 ADD PUSH1 0x40 MLOAD DUP1 SWAP2 SUB SWAP1 REVERT JUMPDEST PUSH0 PUSH1 0x40 MLOAD SWAP1 POP SWAP1 JUMP JUMPDEST PUSH0 DUP1 REVERT JUMPDEST PUSH0 DUP1 REVERT JUMPDEST PUSH0 PUSH32 0xFFFFFFFF00000000000000000000000000000000000000000000000000000000 DUP3 AND SWAP1 POP SWAP2 SWAP1 POP JUMP JUMPDEST PUSH2 0x1A10 DUP2 PUSH2 0x19DC JUMP JUMPDEST DUP2 EQ PUSH2 0x1A1A JUMPI PUSH0 DUP1 REVERT JUMPDEST POP JUMP JUMPDEST PUSH0 DUP2 CALLDATALOAD SWAP1 POP PUSH2 0x1A2B DUP2 PUSH2 0x1A07 JUMP JUMPDEST SWAP3 SWAP2 POP POP JUMP JUMPDEST PUSH0 PUSH1 0x20 DUP3 DUP5 SUB SLT ISZERO PUSH2 0x1A46 JUMPI PUSH2 0x1A45 PUSH2 0x19D4 JUMP JUMPDEST JUMPDEST PUSH0 PUSH2 0x1A53 DUP5 DUP3 DUP6 ADD PUSH2 0x1A1D JUMP JUMPDEST SWAP2 POP POP SWAP3 SWAP2 POP POP JUMP JUMPDEST PUSH0 DUP2 ISZERO ISZERO SWAP1 POP SWAP2 SWAP1 POP JUMP JUMPDEST PUSH2 0x1A70 DUP2 PUSH2 0x1A5C JUMP JUMPDEST DUP3 MSTORE POP POP JUMP JUMPDEST PUSH0 PUSH1 0x20 DUP3 ADD SWAP1 POP PUSH2 0x1A89 PUSH0 DUP4 ADD DUP5 PUSH2 0x1A67 JUMP JUMPDEST SWAP3 SWAP2 POP POP JUMP JUMPDEST PUSH0 DUP2 SWAP1 POP SWAP2 SWAP1 POP JUMP JUMPDEST PUSH2 0x1AA1 DUP2 PUSH2 0x1A8F JUMP JUMPDEST DUP2 EQ PUSH2 0x1AAB JUMPI PUSH0 DUP1 REVERT JUMPDEST POP JUMP JUMPDEST PUSH0 DUP2 CALLDATALOAD SWAP1 POP PUSH2 0x1ABC DUP2 PUSH2 0x1A98 JUMP JUMPDEST SWAP3 SWAP2 POP POP JUMP JUMPDEST PUSH0 PUSH1 0x20 DUP3 DUP5 SUB SLT ISZERO PUSH2 0x1AD7 JUMPI PUSH2 0x1AD6 PUSH2 0x19D4 JUMP JUMPDEST JUMPDEST PUSH0 PUSH2 0x1AE4 DUP5 DUP3 DUP6 ADD PUSH2 0x1AAE JUMP JUMPDEST SWAP2 POP POP SWAP3 SWAP2 POP POP JUMP JUMPDEST PUSH2 0x1AF6 DUP2 PUSH2 0x1A8F JUMP JUMPDEST DUP3 MSTORE POP POP JUMP JUMPDEST PUSH0 PUSH1 0x20 DUP3 ADD SWAP1 POP PUSH2 0x1B0F PUSH0 DUP4 ADD DUP5 PUSH2 0x1AED JUMP JUMPDEST SWAP3 SWAP2 POP POP JUMP JUMPDEST PUSH0 PUSH20 0xFFFFFFFFFFFFFFFFFFFFFFFFFFFFFFFFFFFFFFFF DUP3 AND SWAP1 POP SWAP2 SWAP1 POP JUMP JUMPDEST PUSH0 PUSH2 0x1B3E DUP3 PUSH2 0x1B15 JUMP JUMPDEST SWAP1 POP SWAP2 SWAP1 POP JUMP JUMPDEST PUSH2 0x1B4E DUP2 PUSH2 0x1B34 JUMP JUMPDEST DUP2 EQ PUSH2 0x1B58 JUMPI PUSH0 DUP1 REVERT JUMPDEST POP JUMP JUMPDEST PUSH0 DUP2 CALLDATALOAD SWAP1 POP PUSH2 0x1B69 DUP2 PUSH2 0x1B45 JUMP JUMPDEST SWAP3 SWAP2 POP POP JUMP JUMPDEST PUSH0 DUP1 PUSH1 0x40 DUP4 DUP6 SUB SLT ISZERO PUSH2 0x1B85 JUMPI PUSH2 0x1B84 PUSH2 0x19D4 JUMP JUMPDEST JUMPDEST PUSH0 PUSH2 0x1B92 DUP6 DUP3 DUP7 ADD PUSH2 0x1AAE JUMP JUMPDEST SWAP3 POP POP PUSH1 0x20 PUSH2 0x1BA3 DUP6 DUP3 DUP7 ADD PUSH2 0x1B5B JUMP JUMPDEST SWAP2 POP POP SWAP3 POP SWAP3 SWAP1 POP JUMP JUMPDEST PUSH0 DUP2 SWAP1 POP SWAP2 SWAP1 POP JUMP JUMPDEST PUSH2 0x1BBF DUP2 PUSH2 0x1BAD JUMP JUMPDEST DUP2 EQ PUSH2 0x1BC9 JUMPI PUSH0 DUP1 REVERT JUMPDEST POP JUMP JUMPDEST PUSH0 DUP2 CALLDATALOAD SWAP1 POP PUSH2 0x1BDA DUP2 PUSH2 0x1BB6 JUMP JUMPDEST SWAP3 SWAP2 POP POP JUMP JUMPDEST PUSH0 DUP1 PUSH1 0x40 DUP4 DUP6 SUB SLT ISZERO PUSH2 0x1BF6 JUMPI PUSH2 0x1BF5 PUSH2 0x19D4 JUMP JUMPDEST JUMPDEST PUSH0 PUSH2 0x1C03 DUP6 DUP3 DUP7 ADD PUSH2 0x1BCC JUMP JUMPDEST SWAP3 POP POP PUSH1 0x20 PUSH2 0x1C14 DUP6 DUP3 DUP7 ADD PUSH2 0x1B5B JUMP JUMPDEST SWAP2 POP POP SWAP3 POP SWAP3 SWAP1 POP JUMP JUMPDEST PUSH2 0x1C27 DUP2 PUSH2 0x1BAD JUMP JUMPDEST DUP3 MSTORE POP POP JUMP JUMPDEST PUSH0 PUSH1 0x20 DUP3 ADD SWAP1 POP PUSH2 0x1C40 PUSH0 DUP4 ADD DUP5 PUSH2 0x1C1E JUMP JUMPDEST SWAP3 SWAP2 POP POP JUMP JUMPDEST PUSH0 PUSH1 0x20 DUP3 DUP5 SUB SLT ISZERO PUSH2 0x1C5B JUMPI PUSH2 0x1C5A PUSH2 0x19D4 JUMP JUMPDEST JUMPDEST PUSH0 PUSH2 0x1C68 DUP5 DUP3 DUP6 ADD PUSH2 0x1BCC JUMP JUMPDEST SWAP2 POP POP SWAP3 SWAP2 POP POP JUMP JUMPDEST PUSH0 DUP1 PUSH0 DUP1 PUSH0 DUP1 PUSH1 0xC0 DUP8 DUP10 SUB SLT ISZERO PUSH2 0x1C8B JUMPI PUSH2 0x1C8A PUSH2 0x19D4 JUMP JUMPDEST JUMPDEST PUSH0 PUSH2 0x1C98 DUP10 DUP3 DUP11 ADD PUSH2 0x1BCC JUMP JUMPDEST SWAP7 POP POP PUSH1 0x20 PUSH2 0x1CA9 DUP10 DUP3 DUP11 ADD PUSH2 0x1BCC JUMP JUMPDEST SWAP6 POP POP PUSH1 0x40 PUSH2 0x1CBA DUP10 DUP3 DUP11 ADD PUSH2 0x1B5B JUMP JUMPDEST SWAP5 POP POP PUSH1 0x60 PUSH2 0x1CCB DUP10 DUP3 DUP11 ADD PUSH2 0x1B5B JUMP JUMPDEST SWAP4 POP POP PUSH1 0x80 PUSH2 0x1CDC DUP10 DUP3 DUP11 ADD PUSH2 0x1BCC JUMP JUMPDEST SWAP3 POP POP PUSH1 0xA0 PUSH2 0x1CED DUP10 DUP3 DUP11 ADD PUSH2 0x1BCC JUMP JUMPDEST SWAP2 POP POP SWAP3 SWAP6 POP SWAP3 SWAP6 POP SWAP3 SWAP6 JUMP JUMPDEST PUSH0 DUP2 SWAP1 POP SWAP2 SWAP1 POP JUMP JUMPDEST PUSH0 PUSH2 0x1D1D PUSH2 0x1D18 PUSH2 0x1D13 DUP5 PUSH2 0x1B15 JUMP JUMPDEST PUSH2 0x1CFA JUMP JUMPDEST PUSH2 0x1B15 JUMP JUMPDEST SWAP1 POP SWAP2 SWAP1 POP JUMP JUMPDEST PUSH0 PUSH2 0x1D2E DUP3 PUSH2 0x1D03 JUMP JUMPDEST SWAP1 POP SWAP2 SWAP1 POP JUMP JUMPDEST PUSH0 PUSH2 0x1D3F DUP3 PUSH2 0x1D24 JUMP JUMPDEST SWAP1 POP SWAP2 SWAP1 POP JUMP JUMPDEST PUSH2 0x1D4F DUP2 PUSH2 0x1D35 JUMP JUMPDEST DUP3 MSTORE POP POP JUMP JUMPDEST PUSH0 PUSH1 0x20 DUP3 ADD SWAP1 POP PUSH2 0x1D68 PUSH0 DUP4 ADD DUP5 PUSH2 0x1D46 JUMP JUMPDEST SWAP3 SWAP2 POP POP JUMP JUMPDEST PUSH0 DUP1 PUSH0 DUP1 PUSH0 PUSH1 0xA0 DUP7 DUP9 SUB SLT ISZERO PUSH2 0x1D87 JUMPI PUSH2 0x1D86 PUSH2 0x19D4 JUMP JUMPDEST JUMPDEST PUSH0 PUSH2 0x1D94 DUP9 DUP3 DUP10 ADD PUSH2 0x1BCC JUMP JUMPDEST SWAP6 POP POP PUSH1 0x20 PUSH2 0x1DA5 DUP9 DUP3 DUP10 ADD PUSH2 0x1BCC JUMP JUMPDEST SWAP5 POP POP PUSH1 0x40 PUSH2 0x1DB6 DUP9 DUP3 DUP10 ADD PUSH2 0x1B5B JUMP JUMPDEST SWAP4 POP POP PUSH1 0x60 PUSH2 0x1DC7 DUP9 DUP3 DUP10 ADD PUSH2 0x1B5B JUMP JUMPDEST SWAP3 POP POP PUSH1 0x80 PUSH2 0x1DD8 DUP9 DUP3 DUP10 ADD PUSH2 0x1BCC JUMP JUMPDEST SWAP2 POP POP SWAP3 SWAP6 POP SWAP3 SWAP6 SWAP1 SWAP4 POP JUMP JUMPDEST PUSH0 PUSH2 0x1DEF DUP3 PUSH2 0x1B15 JUMP JUMPDEST SWAP1 POP SWAP2 SWAP1 POP JUMP JUMPDEST PUSH2 0x1DFF DUP2 PUSH2 0x1DE5 JUMP JUMPDEST DUP2 EQ PUSH2 0x1E09 JUMPI PUSH0 DUP1 REVERT JUMPDEST POP JUMP JUMPDEST PUSH0 DUP2 CALLDATALOAD SWAP1 POP PUSH2 0x1E1A DUP2 PUSH2 0x1DF6 JUMP JUMPDEST SWAP3 SWAP2 POP POP JUMP JUMPDEST PUSH0 DUP1 PUSH0 PUSH1 0x60 DUP5 DUP7 SUB SLT ISZERO PUSH2 0x1E37 JUMPI PUSH2 0x1E36 PUSH2 0x19D4 JUMP JUMPDEST JUMPDEST PUSH0 PUSH2 0x1E44 DUP7 DUP3 DUP8 ADD PUSH2 0x1B5B JUMP JUMPDEST SWAP4 POP POP PUSH1 0x20 PUSH2 0x1E55 DUP7 DUP3 DUP8 ADD PUSH2 0x1E0C JUMP JUMPDEST SWAP3 POP POP PUSH1 0x40 PUSH2 0x1E66 DUP7 DUP3 DUP8 ADD PUSH2 0x1BCC JUMP JUMPDEST SWAP2 POP POP SWAP3 POP SWAP3 POP SWAP3 JUMP JUMPDEST PUSH0 DUP3 DUP3 MSTORE PUSH1 0x20 DUP3 ADD SWAP1 POP SWAP3 SWAP2 POP POP JUMP JUMPDEST PUSH32 0x46656520746F6F20686967680000000000000000000000000000000000000000 PUSH0 DUP3 ADD MSTORE POP JUMP JUMPDEST PUSH0 PUSH2 0x1EB4 PUSH1 0xC DUP4 PUSH2 0x1E70 JUMP JUMPDEST SWAP2 POP PUSH2 0x1EBF DUP3 PUSH2 0x1E80 JUMP JUMPDEST PUSH1 0x20 DUP3 ADD SWAP1 POP SWAP2 SWAP1 POP JUMP JUMPDEST PUSH0 PUSH1 0x20 DUP3 ADD SWAP1 POP DUP2 DUP2 SUB PUSH0 DUP4 ADD MSTORE PUSH2 0x1EE1 DUP2 PUSH2 0x1EA8 JUMP JUMPDEST SWAP1 POP SWAP2 SWAP1 POP JUMP JUMPDEST PUSH2 0x1EF1 DUP2 PUSH2 0x1B34 JUMP JUMPDEST DUP3 MSTORE POP POP JUMP JUMPDEST PUSH0 PUSH1 0x40 DUP3 ADD SWAP1 POP PUSH2 0x1F0A PUSH0 DUP4 ADD DUP6 PUSH2 0x1C1E JUMP JUMPDEST PUSH2 0x1F17 PUSH1 0x20 DUP4 ADD DUP5 PUSH2 0x1EE8 JUMP JUMPDEST SWAP4 SWAP3 POP POP POP JUMP JUMPDEST PUSH0 DUP1 REVERT JUMPDEST PUSH0 PUSH1 0x1F NOT PUSH1 0x1F DUP4 ADD AND SWAP1 POP SWAP2 SWAP1 POP JUMP JUMPDEST PUSH32 0x4E487B7100000000000000000000000000000000000000000000000000000000 PUSH0 MSTORE PUSH1 0x41 PUSH1 0x4 MSTORE PUSH1 0x24 PUSH0 REVERT JUMPDEST PUSH2 0x1F68 DUP3 PUSH2 0x1F22 JUMP JUMPDEST DUP2 ADD DUP2 DUP2 LT PUSH8 0xFFFFFFFFFFFFFFFF DUP3 GT OR ISZERO PUSH2 0x1F87 JUMPI PUSH2 0x1F86 PUSH2 0x1F32 JUMP JUMPDEST JUMPDEST DUP1 PUSH1 0x40 MSTORE POP POP POP JUMP JUMPDEST PUSH0 PUSH2 0x1F99 PUSH2 0x19CB JUMP JUMPDEST SWAP1 POP PUSH2 0x1FA5 DUP3 DUP3 PUSH2 0x1F5F JUMP JUMPDEST SWAP2 SWAP1 POP JUMP JUMPDEST PUSH0 DUP1 REVERT JUMPDEST PUSH0 DUP2 MLOAD SWAP1 POP PUSH2 0x1FBC DUP2 PUSH2 0x1B45 JUMP JUMPDEST SWAP3 SWAP2 POP POP JUMP JUMPDEST PUSH1 0x4 DUP2 LT PUSH2 0x1FCE JUMPI PUSH0 DUP1 REVERT JUMPDEST POP JUMP JUMPDEST PUSH0 DUP2 MLOAD SWAP1 POP PUSH2 0x1FDF DUP2 PUSH2 0x1FC2 JUMP JUMPDEST SWAP3 SWAP2 POP POP JUMP JUMPDEST PUSH0 DUP1 REVERT JUMPDEST PUSH0 DUP1 REVERT JUMPDEST PUSH0 PUSH8 0xFFFFFFFFFFFFFFFF DUP3 GT ISZERO PUSH2 0x2007 JUMPI PUSH2 0x2006 PUSH2 0x1F32 JUMP JUMPDEST JUMPDEST PUSH2 0x2010 DUP3 PUSH2 0x1F22 JUMP JUMPDEST SWAP1 POP PUSH1 0x20 DUP2 ADD SWAP1 POP SWAP2 SWAP1 POP JUMP JUMPDEST DUP3 DUP2 DUP4 MCOPY PUSH0 DUP4 DUP4 ADD MSTORE POP POP POP JUMP JUMPDEST PUSH0 PUSH2 0x203D PUSH2 0x2038 DUP5 PUSH2 0x1FED JUMP JUMPDEST PUSH2 0x1F90 JUMP JUMPDEST SWAP1 POP DUP3 DUP2 MSTORE PUSH1 0x20 DUP2 ADD DUP5 DUP5 DUP5 ADD GT ISZERO PUSH2 0x2059 JUMPI PUSH2 0x2058 PUSH2 0x1FE9 JUMP JUMPDEST JUMPDEST PUSH2 0x2064 DUP5 DUP3 DUP6 PUSH2 0x201D JUMP JUMPDEST POP SWAP4 SWAP3 POP POP POP JUMP JUMPDEST PUSH0 DUP3 PUSH1 0x1F DUP4 ADD SLT PUSH2 0x2080 JUMPI PUSH2 0x207F PUSH2 0x1FE5 JUMP JUMPDEST JUMPDEST DUP2 MLOAD PUSH2 0x2090 DUP5 DUP3 PUSH1 0x20 DUP7 ADD PUSH2 0x202B JUMP JUMPDEST SWAP2 POP POP SWAP3 SWAP2 POP POP JUMP JUMPDEST PUSH0 PUSH1 0xFF DUP3 AND SWAP1 POP SWAP2 SWAP1 POP JUMP JUMPDEST PUSH2 0x20AE DUP2 PUSH2 0x2099 JUMP JUMPDEST DUP2 EQ PUSH2 0x20B8 JUMPI PUSH0 DUP1 REVERT JUMPDEST POP JUMP JUMPDEST PUSH0 DUP2 MLOAD SWAP1 POP PUSH2 0x20C9 DUP2 PUSH2 0x20A5 JUMP JUMPDEST SWAP3 SWAP2 POP POP JUMP JUMPDEST PUSH2 0x20D8 DUP2 PUSH2 0x1A5C JUMP JUMPDEST DUP2 EQ PUSH2 0x20E2 JUMPI PUSH0 DUP1 REVERT JUMPDEST POP JUMP JUMPDEST PUSH0 DUP2 MLOAD SWAP1 POP PUSH2 0x20F3 DUP2 PUSH2 0x20CF JUMP JUMPDEST SWAP3 SWAP2 POP POP JUMP JUMPDEST PUSH0 PUSH1 0xC0 DUP3 DUP5 SUB SLT ISZERO PUSH2 0x210E JUMPI PUSH2 0x210D PUSH2 0x1F1E JUMP JUMPDEST JUMPDEST PUSH2 0x2118 PUSH1 0xC0 PUSH2 0x1F90 JUMP JUMPDEST SWAP1 POP PUSH0 PUSH2 0x2127 DUP5 DUP3 DUP6 ADD PUSH2 0x1FAE JUMP JUMPDEST PUSH0 DUP4 ADD MSTORE POP PUSH1 0x20 PUSH2 0x213A DUP5 DUP3 DUP6 ADD PUSH2 0x1FD1 JUMP JUMPDEST PUSH1 0x20 DUP4 ADD MSTORE POP PUSH1 0x40 DUP3 ADD MLOAD PUSH8 0xFFFFFFFFFFFFFFFF DUP2 GT ISZERO PUSH2 0x215E JUMPI PUSH2 0x215D PUSH2 0x1FAA JUMP JUMPDEST JUMPDEST PUSH2 0x216A DUP5 DUP3 DUP6 ADD PUSH2 0x206C JUMP JUMPDEST PUSH1 0x40 DUP4 ADD MSTORE POP PUSH1 0x60 DUP3 ADD MLOAD PUSH8 0xFFFFFFFFFFFFFFFF DUP2 GT ISZERO PUSH2 0x218E JUMPI PUSH2 0x218D PUSH2 0x1FAA JUMP JUMPDEST JUMPDEST PUSH2 0x219A DUP5 DUP3 DUP6 ADD PUSH2 0x206C JUMP JUMPDEST PUSH1 0x60 DUP4 ADD MSTORE POP PUSH1 0x80 PUSH2 0x21AE DUP5 DUP3 DUP6 ADD PUSH2 0x20BB JUMP JUMPDEST PUSH1 0x80 DUP4 ADD MSTORE POP PUSH1 0xA0 PUSH2 0x21C2 DUP5 DUP3 DUP6 ADD PUSH2 0x20E5 JUMP JUMPDEST PUSH1 0xA0 DUP4 ADD MSTORE POP SWAP3 SWAP2 POP POP JUMP JUMPDEST PUSH0 PUSH1 0x20 DUP3 DUP5 SUB SLT ISZERO PUSH2 0x21E3 JUMPI PUSH2 0x21E2 PUSH2 0x19D4 JUMP JUMPDEST JUMPDEST PUSH0 DUP3 ADD MLOAD PUSH8 0xFFFFFFFFFFFFFFFF DUP2 GT ISZERO PUSH2 0x2200 JUMPI PUSH2 0x21FF PUSH2 0x19D8 JUMP JUMPDEST JUMPDEST PUSH2 0x220C DUP5 DUP3 DUP6 ADD PUSH2 0x20F9 JUMP JUMPDEST SWAP2 POP POP SWAP3 SWAP2 POP POP JUMP JUMPDEST PUSH32 0x4173736574206E6F742061637469766500000000000000000000000000000000 PUSH0 DUP3 ADD MSTORE POP JUMP JUMPDEST PUSH0 PUSH2 0x2249 PUSH1 0x10 DUP4 PUSH2 0x1E70 JUMP JUMPDEST SWAP2 POP PUSH2 0x2254 DUP3 PUSH2 0x2215 JUMP JUMPDEST PUSH1 0x20 DUP3 ADD SWAP1 POP SWAP2 SWAP1 POP JUMP JUMPDEST PUSH0 PUSH1 0x20 DUP3 ADD SWAP1 POP DUP2 DUP2 SUB PUSH0 DUP4 ADD MSTORE PUSH2 0x2276 DUP2 PUSH2 0x223D JUMP JUMPDEST SWAP1 POP SWAP2 SWAP1 POP JUMP JUMPDEST PUSH32 0x4E487B7100000000000000000000000000000000000000000000000000000000 PUSH0 MSTORE PUSH1 0x21 PUSH1 0x4 MSTORE PUSH1 0x24 PUSH0 REVERT JUMPDEST PUSH0 PUSH1 0x60 DUP3 ADD SWAP1 POP PUSH2 0x22BD PUSH0 DUP4 ADD DUP7 PUSH2 0x1EE8 JUMP JUMPDEST PUSH2 0x22CA PUSH1 0x20 DUP4 ADD DUP6 PUSH2 0x1EE8 JUMP JUMPDEST PUSH2 0x22D7 PUSH1 0x40 DUP4 ADD DUP5 PUSH2 0x1C1E JUMP JUMPDEST SWAP5 SWAP4 POP POP POP POP JUMP JUMPDEST PUSH0 DUP2 SWAP1 POP SWAP2 SWAP1 POP JUMP JUMPDEST PUSH0 PUSH2 0x2302 PUSH2 0x22FD PUSH2 0x22F8 DUP5 PUSH2 0x22DF JUMP JUMPDEST PUSH2 0x1CFA JUMP JUMPDEST PUSH2 0x1BAD JUMP JUMPDEST SWAP1 POP SWAP2 SWAP1 POP JUMP JUMPDEST PUSH2 0x2312 DUP2 PUSH2 0x22E8 JUMP JUMPDEST DUP3 MSTORE POP POP JUMP JUMPDEST PUSH0 DUP3 DUP3 MSTORE PUSH1 0x20 DUP3 ADD SWAP1 POP SWAP3 SWAP2 POP POP JUMP JUMPDEST POP JUMP JUMPDEST PUSH0 PUSH2 0x2336 PUSH0 DUP4 PUSH2 0x2318 JUMP JUMPDEST SWAP2 POP PUSH2 0x2341 DUP3 PUSH2 0x2328 JUMP JUMPDEST PUSH0 DUP3 ADD SWAP1 POP SWAP2 SWAP1 POP JUMP JUMPDEST PUSH0 PUSH1 0xA0 DUP3 ADD SWAP1 POP PUSH2 0x235E PUSH0 DUP4 ADD DUP8 PUSH2 0x1EE8 JUMP JUMPDEST PUSH2 0x236B PUSH1 0x20 DUP4 ADD DUP7 PUSH2 0x1EE8 JUMP JUMPDEST PUSH2 0x2378 PUSH1 0x40 DUP4 ADD DUP6 PUSH2 0x1C1E JUMP JUMPDEST PUSH2 0x2385 PUSH1 0x60 DUP4 ADD DUP5 PUSH2 0x2309 JUMP JUMPDEST DUP2 DUP2 SUB PUSH1 0x80 DUP4 ADD MSTORE PUSH2 0x2396 DUP2 PUSH2 0x232B JUMP JUMPDEST SWAP1 POP SWAP6 SWAP5 POP POP POP POP POP JUMP JUMPDEST PUSH0 PUSH1 0x60 DUP3 ADD SWAP1 POP PUSH2 0x23B4 PUSH0 DUP4 ADD DUP7 PUSH2 0x1EE8 JUMP JUMPDEST PUSH2 0x23C1 PUSH1 0x20 DUP4 ADD DUP6 PUSH2 0x1C1E JUMP JUMPDEST PUSH2 0x23CE PUSH1 0x40 DUP4 ADD DUP5 PUSH2 0x1C1E JUMP JUMPDEST SWAP5 SWAP4 POP POP POP POP JUMP JUMPDEST PUSH32 0x53616D6520636861696E207472616E73666572206E6F7420616C6C6F77656400 PUSH0 DUP3 ADD MSTORE POP JUMP JUMPDEST PUSH0 PUSH2 0x240A PUSH1 0x1F DUP4 PUSH2 0x1E70 JUMP JUMPDEST SWAP2 POP PUSH2 0x2415 DUP3 PUSH2 0x23D6 JUMP JUMPDEST PUSH1 0x20 DUP3 ADD SWAP1 POP SWAP2 SWAP1 POP JUMP JUMPDEST PUSH0 PUSH1 0x20 DUP3 ADD SWAP1 POP DUP2 DUP2 SUB PUSH0 DUP4 ADD MSTORE PUSH2 0x2437 DUP2 PUSH2 0x23FE JUMP JUMPDEST SWAP1 POP SWAP2 SWAP1 POP JUMP JUMPDEST PUSH32 0x4E487B7100000000000000000000000000000000000000000000000000000000 PUSH0 MSTORE PUSH1 0x11 PUSH1 0x4 MSTORE PUSH1 0x24 PUSH0 REVERT JUMPDEST PUSH0 PUSH2 0x2475 DUP3 PUSH2 0x1BAD JUMP JUMPDEST SWAP2 POP PUSH2 0x2480 DUP4 PUSH2 0x1BAD JUMP JUMPDEST SWAP3 POP DUP3 DUP3 MUL PUSH2 0x248E DUP2 PUSH2 0x1BAD JUMP JUMPDEST SWAP2 POP DUP3 DUP3 DIV DUP5 EQ DUP4 ISZERO OR PUSH2 0x24A5 JUMPI PUSH2 0x24A4 PUSH2 0x243E JUMP JUMPDEST JUMPDEST POP SWAP3 SWAP2 POP POP JUMP JUMPDEST PUSH32 0x4E487B7100000000000000000000000000000000000000000000000000000000 PUSH0 MSTORE PUSH1 0x12 PUSH1 0x4 MSTORE PUSH1 0x24 PUSH0 REVERT JUMPDEST PUSH0 PUSH2 0x24E3 DUP3 PUSH2 0x1BAD JUMP JUMPDEST SWAP2 POP PUSH2 0x24EE DUP4 PUSH2 0x1BAD JUMP JUMPDEST SWAP3 POP DUP3 PUSH2 0x24FE JUMPI PUSH2 0x24FD PUSH2 0x24AC JUMP JUMPDEST JUMPDEST DUP3 DUP3 DIV SWAP1 POP SWAP3 SWAP2 POP POP JUMP JUMPDEST PUSH0 PUSH2 0x2513 DUP3 PUSH2 0x1BAD JUMP JUMPDEST SWAP2 POP PUSH2 0x251E DUP4 PUSH2 0x1BAD JUMP JUMPDEST SWAP3 POP DUP3 DUP3 SUB SWAP1 POP DUP2 DUP2 GT ISZERO PUSH2 0x2536 JUMPI PUSH2 0x2535 PUSH2 0x243E JUMP JUMPDEST JUMPDEST SWAP3 SWAP2 POP POP JUMP JUMPDEST PUSH0 PUSH2 0x2546 DUP3 PUSH2 0x1BAD JUMP JUMPDEST SWAP2 POP PUSH32 0xFFFFFFFFFFFFFFFFFFFFFFFFFFFFFFFFFFFFFFFFFFFFFFFFFFFFFFFFFFFFFFFF DUP3 SUB PUSH2 0x2578 JUMPI PUSH2 0x2577 PUSH2 0x243E JUMP JUMPDEST JUMPDEST PUSH1 0x1 DUP3 ADD SWAP1 POP SWAP2 SWAP1 POP JUMP JUMPDEST PUSH32 0x496E636F72726563742045544820616D6F756E74000000000000000000000000 PUSH0 DUP3 ADD MSTORE POP JUMP JUMPDEST PUSH0 PUSH2 0x25B7 PUSH1 0x14 DUP4 PUSH2 0x1E70 JUMP JUMPDEST SWAP2 POP PUSH2 0x25C2 DUP3 PUSH2 0x2583 JUMP JUMPDEST PUSH1 0x20 DUP3 ADD SWAP1 POP SWAP2 SWAP1 POP JUMP JUMPDEST PUSH0 PUSH1 0x20 DUP3 ADD SWAP1 POP DUP2 DUP2 SUB PUSH0 DUP4 ADD MSTORE PUSH2 0x25E4 DUP2 PUSH2 0x25AB JUMP JUMPDEST SWAP1 POP SWAP2 SWAP1 POP JUMP JUMPDEST PUSH0 PUSH1 0x80 DUP3 ADD SWAP1 POP PUSH2 0x25FE PUSH0 DUP4 ADD DUP8 PUSH2 0x1EE8 JUMP JUMPDEST PUSH2 0x260B PUSH1 0x20 DUP4 ADD DUP7 PUSH2 0x1EE8 JUMP JUMPDEST PUSH2 0x2618 PUSH1 0x40 DUP4 ADD DUP6 PUSH2 0x1C1E JUMP JUMPDEST PUSH2 0x2625 PUSH1 0x60 DUP4 ADD DUP5 PUSH2 0x1C1E JUMP JUMPDEST SWAP6 SWAP5 POP POP POP POP POP JUMP JUMPDEST PUSH32 0x556E737570706F72746564206173736574207479706520666F72206665652077 PUSH0 DUP3 ADD MSTORE PUSH32 0x69746864726177616C0000000000000000000000000000000000000000000000 PUSH1 0x20 DUP3 ADD MSTORE POP JUMP JUMPDEST PUSH0 PUSH2 0x2688 PUSH1 0x29 DUP4 PUSH2 0x1E70 JUMP JUMPDEST SWAP2 POP PUSH2 0x2693 DUP3 PUSH2 0x262E JUMP JUMPDEST PUSH1 0x40 DUP3 ADD SWAP1 POP SWAP2 SWAP1 POP JUMP JUMPDEST PUSH0 PUSH1 0x20 DUP3 ADD SWAP1 POP DUP2 DUP2 SUB PUSH0 DUP4 ADD MSTORE PUSH2 0x26B5 DUP2 PUSH2 0x267C JUMP JUMPDEST SWAP1 POP SWAP2 SWAP1 POP JUMP JUMPDEST PUSH0 PUSH1 0x20 DUP3 ADD SWAP1 POP PUSH2 0x26CF PUSH0 DUP4 ADD DUP5 PUSH2 0x1EE8 JUMP JUMPDEST SWAP3 SWAP2 POP POP JUMP JUMPDEST PUSH0 PUSH1 0x40 DUP3 ADD SWAP1 POP PUSH2 0x26E8 PUSH0 DUP4 ADD DUP6 PUSH2 0x1EE8 JUMP JUMPDEST PUSH2 0x26F5 PUSH1 0x20 DUP4 ADD DUP5 PUSH2 0x1C1E JUMP JUMPDEST SWAP4 SWAP3 POP POP POP JUMP JUMPDEST PUSH0 PUSH1 0x40 DUP3 ADD SWAP1 POP PUSH2 0x270F PUSH0 DUP4 ADD DUP6 PUSH2 0x1EE8 JUMP JUMPDEST PUSH2 0x271C PUSH1 0x20 DUP4 ADD DUP5 PUSH2 0x1AED JUMP JUMPDEST SWAP4 SWAP3 POP POP POP JUMP JUMPDEST PUSH0 PUSH1 0x20 DUP3 DUP5 SUB SLT ISZERO PUSH2 0x2738 JUMPI PUSH2 0x2737 PUSH2 0x19D4 JUMP JUMPDEST JUMPDEST PUSH0 PUSH2 0x2745 DUP5 DUP3 DUP6 ADD PUSH2 0x20E5 JUMP JUMPDEST SWAP2 POP POP SWAP3 SWAP2 POP POP JUMP JUMPDEST PUSH0 DUP2 MLOAD SWAP1 POP SWAP2 SWAP1 POP JUMP JUMPDEST PUSH0 DUP2 SWAP1 POP SWAP3 SWAP2 POP POP JUMP JUMPDEST PUSH0 PUSH2 0x276C DUP3 PUSH2 0x274E JUMP JUMPDEST PUSH2 0x2776 DUP2 DUP6 PUSH2 0x2758 JUMP JUMPDEST SWAP4 POP PUSH2 0x2786 DUP2 DUP6 PUSH1 0x20 DUP7 ADD PUSH2 0x201D JUMP JUMPDEST DUP1 DUP5 ADD SWAP2 POP POP SWAP3 SWAP2 POP POP JUMP JUMPDEST PUSH0 PUSH2 0x279D DUP3 DUP5 PUSH2 0x2762 JUMP JUMPDEST SWAP2 POP DUP2 SWAP1 POP SWAP3 SWAP2 POP POP JUMP INVALID LOG2 PUSH5 0x6970667358 0x22 SLT KECCAK256 LOG3 LOG0 0xC3 0xBE 0x28 PUSH31 0xC39F9149516374EED602EA74D0ABF3835843AC067CF87F68170264736F6C63 NUMBER STOP ADDMOD BYTE STOP CALLER "
		},
		"gasEstimates": {
			"creation": {
				"codeDepositCost": "2041200",
				"executionCost": "infinite",
				"totalCost": "infinite"
			},
			"external": {
				"BRIDGE_ROLE()": "391",
				"DEFAULT_ADMIN_ROLE()": "352",
				"FEE_DENOMINATOR()": "435",
				"MAX_FEE_PERCENTAGE()": "370",
				"TRANSFER_ADMIN_ROLE()": "414",
				"assetRegistry()": "infinite",
				"completeBridgeTransfer(uint256,uint256,address,address,uint256,uint256)": "infinite",
				"getRoleAdmin(bytes32)": "infinite",
				"grantRole(bytes32,address)": "infinite",
				"hasRole(bytes32,address)": "3189",
				"initiateTransfer(uint256,uint256,address,address,uint256)": "infinite",
				"noncesPerChain(uint256,address)": "infinite",
				"pause()": "infinite",
				"paused()": "2540",
				"renounceRole(bytes32,address)": "infinite",
				"revokeRole(bytes32,address)": "infinite",
				"supportsInterface(bytes4)": "741",
				"transferFeePercentage()": "2536",
				"unpause()": "infinite",
				"updateTransferFee(uint256)": "infinite",
				"withdrawFees(address,address,uint256)": "infinite"
			}
		},
		"methodIdentifiers": {
			"BRIDGE_ROLE()": "b5bfddea",
			"DEFAULT_ADMIN_ROLE()": "a217fddf",
			"FEE_DENOMINATOR()": "d73792a9",
			"MAX_FEE_PERCENTAGE()": "558e44d3",
			"TRANSFER_ADMIN_ROLE()": "68a37ae8",
			"assetRegistry()": "979d7e86",
			"completeBridgeTransfer(uint256,uint256,address,address,uint256,uint256)": "8c5d07e7",
			"getRoleAdmin(bytes32)": "248a9ca3",
			"grantRole(bytes32,address)": "2f2ff15d",
			"hasRole(bytes32,address)": "91d14854",
			"initiateTransfer(uint256,uint256,address,address,uint256)": "b54fbe56",
			"noncesPerChain(uint256,address)": "48654452",
			"pause()": "8456cb59",
			"paused()": "5c975abb",
			"renounceRole(bytes32,address)": "36568abe",
			"revokeRole(bytes32,address)": "d547741f",
			"supportsInterface(bytes4)": "01ffc9a7",
			"transferFeePercentage()": "9d11aaaa",
			"unpause()": "3f4ba83a",
			"updateTransferFee(uint256)": "8577a6d5",
			"withdrawFees(address,address,uint256)": "e55dc4e6"
		}
	},
	"abi": [
		{
			"inputs": [
				{
					"internalType": "address",
					"name": "_assetRegistry",
					"type": "address"
				}
			],
			"stateMutability": "nonpayable",
			"type": "constructor"
		},
		{
			"inputs": [],
			"name": "AccessControlBadConfirmation",
			"type": "error"
		},
		{
			"inputs": [
				{
					"internalType": "address",
					"name": "account",
					"type": "address"
				},
				{
					"internalType": "bytes32",
					"name": "neededRole",
					"type": "bytes32"
				}
			],
			"name": "AccessControlUnauthorizedAccount",
			"type": "error"
		},
		{
			"inputs": [
				{
					"internalType": "address",
					"name": "target",
					"type": "address"
				}
			],
			"name": "AddressEmptyCode",
			"type": "error"
		},
		{
			"inputs": [
				{
					"internalType": "address",
					"name": "account",
					"type": "address"
				}
			],
			"name": "AddressInsufficientBalance",
			"type": "error"
		},
		{
			"inputs": [],
			"name": "EnforcedPause",
			"type": "error"
		},
		{
			"inputs": [],
			"name": "ExpectedPause",
			"type": "error"
		},
		{
			"inputs": [],
			"name": "FailedInnerCall",
			"type": "error"
		},
		{
			"inputs": [],
			"name": "ReentrancyGuardReentrantCall",
			"type": "error"
		},
		{
			"inputs": [
				{
					"internalType": "address",
					"name": "token",
					"type": "address"
				}
			],
			"name": "SafeERC20FailedOperation",
			"type": "error"
		},
		{
			"anonymous": false,
			"inputs": [
				{
					"indexed": true,
					"internalType": "uint256",
					"name": "sourceChainId",
					"type": "uint256"
				},
				{
					"indexed": true,
					"internalType": "uint256",
					"name": "targetChainId",
					"type": "uint256"
				},
				{
					"indexed": true,
					"internalType": "address",
					"name": "assetAddress",
					"type": "address"
				},
				{
					"indexed": false,
					"internalType": "address",
					"name": "from",
					"type": "address"
				},
				{
					"indexed": false,
					"internalType": "address",
					"name": "to",
					"type": "address"
				},
				{
					"indexed": false,
					"internalType": "uint256",
					"name": "amount",
					"type": "uint256"
				},
				{
					"indexed": false,
					"internalType": "uint256",
					"name": "nonce",
					"type": "uint256"
				}
			],
			"name": "AssetTransferred",
			"type": "event"
		},
		{
			"anonymous": false,
			"inputs": [
				{
					"indexed": true,
					"internalType": "uint256",
					"name": "sourceChainId",
					"type": "uint256"
				},
				{
					"indexed": true,
					"internalType": "uint256",
					"name": "targetChainId",
					"type": "uint256"
				},
				{
					"indexed": true,
					"internalType": "address",
					"name": "assetAddress",
					"type": "address"
				},
				{
					"indexed": false,
					"internalType": "address",
					"name": "to",
					"type": "address"
				},
				{
					"indexed": false,
					"internalType": "uint256",
					"name": "amount",
					"type": "uint256"
				},
				{
					"indexed": false,
					"internalType": "uint256",
					"name": "nonce",
					"type": "uint256"
				}
			],
			"name": "BridgeCompleted",
			"type": "event"
		},
		{
			"anonymous": false,
			"inputs": [
				{
					"indexed": false,
					"internalType": "address",
					"name": "account",
					"type": "address"
				}
			],
			"name": "Paused",
			"type": "event"
		},
		{
			"anonymous": false,
			"inputs": [
				{
					"indexed": true,
					"internalType": "bytes32",
					"name": "role",
					"type": "bytes32"
				},
				{
					"indexed": true,
					"internalType": "bytes32",
					"name": "previousAdminRole",
					"type": "bytes32"
				},
				{
					"indexed": true,
					"internalType": "bytes32",
					"name": "newAdminRole",
					"type": "bytes32"
				}
			],
			"name": "RoleAdminChanged",
			"type": "event"
		},
		{
			"anonymous": false,
			"inputs": [
				{
					"indexed": true,
					"internalType": "bytes32",
					"name": "role",
					"type": "bytes32"
				},
				{
					"indexed": true,
					"internalType": "address",
					"name": "account",
					"type": "address"
				},
				{
					"indexed": true,
					"internalType": "address",
					"name": "sender",
					"type": "address"
				}
			],
			"name": "RoleGranted",
			"type": "event"
		},
		{
			"anonymous": false,
			"inputs": [
				{
					"indexed": true,
					"internalType": "bytes32",
					"name": "role",
					"type": "bytes32"
				},
				{
					"indexed": true,
					"internalType": "address",
					"name": "account",
					"type": "address"
				},
				{
					"indexed": true,
					"internalType": "address",
					"name": "sender",
					"type": "address"
				}
			],
			"name": "RoleRevoked",
			"type": "event"
		},
		{
			"anonymous": false,
			"inputs": [
				{
					"indexed": false,
					"internalType": "uint256",
					"name": "newFeePercentage",
					"type": "uint256"
				}
			],
			"name": "TransferFeeUpdated",
			"type": "event"
		},
		{
			"anonymous": false,
			"inputs": [
				{
					"indexed": false,
					"internalType": "address",
					"name": "account",
					"type": "address"
				}
			],
			"name": "Unpaused",
			"type": "event"
		},
		{
			"inputs": [],
			"name": "BRIDGE_ROLE",
			"outputs": [
				{
					"internalType": "bytes32",
					"name": "",
					"type": "bytes32"
				}
			],
			"stateMutability": "view",
			"type": "function"
		},
		{
			"inputs": [],
			"name": "DEFAULT_ADMIN_ROLE",
			"outputs": [
				{
					"internalType": "bytes32",
					"name": "",
					"type": "bytes32"
				}
			],
			"stateMutability": "view",
			"type": "function"
		},
		{
			"inputs": [],
			"name": "FEE_DENOMINATOR",
			"outputs": [
				{
					"internalType": "uint256",
					"name": "",
					"type": "uint256"
				}
			],
			"stateMutability": "view",
			"type": "function"
		},
		{
			"inputs": [],
			"name": "MAX_FEE_PERCENTAGE",
			"outputs": [
				{
					"internalType": "uint256",
					"name": "",
					"type": "uint256"
				}
			],
			"stateMutability": "view",
			"type": "function"
		},
		{
			"inputs": [],
			"name": "TRANSFER_ADMIN_ROLE",
			"outputs": [
				{
					"internalType": "bytes32",
					"name": "",
					"type": "bytes32"
				}
			],
			"stateMutability": "view",
			"type": "function"
		},
		{
			"inputs": [],
			"name": "assetRegistry",
			"outputs": [
				{
					"internalType": "contract AssetRegistry",
					"name": "",
					"type": "address"
				}
			],
			"stateMutability": "view",
			"type": "function"
		},
		{
			"inputs": [
				{
					"internalType": "uint256",
					"name": "sourceChainId",
					"type": "uint256"
				},
				{
					"internalType": "uint256",
					"name": "targetChainId",
					"type": "uint256"
				},
				{
					"internalType": "address",
					"name": "assetAddress",
					"type": "address"
				},
				{
					"internalType": "address",
					"name": "to",
					"type": "address"
				},
				{
					"internalType": "uint256",
					"name": "amount",
					"type": "uint256"
				},
				{
					"internalType": "uint256",
					"name": "nonce",
					"type": "uint256"
				}
			],
			"name": "completeBridgeTransfer",
			"outputs": [],
			"stateMutability": "nonpayable",
			"type": "function"
		},
		{
			"inputs": [
				{
					"internalType": "bytes32",
					"name": "role",
					"type": "bytes32"
				}
			],
			"name": "getRoleAdmin",
			"outputs": [
				{
					"internalType": "bytes32",
					"name": "",
					"type": "bytes32"
				}
			],
			"stateMutability": "view",
			"type": "function"
		},
		{
			"inputs": [
				{
					"internalType": "bytes32",
					"name": "role",
					"type": "bytes32"
				},
				{
					"internalType": "address",
					"name": "account",
					"type": "address"
				}
			],
			"name": "grantRole",
			"outputs": [],
			"stateMutability": "nonpayable",
			"type": "function"
		},
		{
			"inputs": [
				{
					"internalType": "bytes32",
					"name": "role",
					"type": "bytes32"
				},
				{
					"internalType": "address",
					"name": "account",
					"type": "address"
				}
			],
			"name": "hasRole",
			"outputs": [
				{
					"internalType": "bool",
					"name": "",
					"type": "bool"
				}
			],
			"stateMutability": "view",
			"type": "function"
		},
		{
			"inputs": [
				{
					"internalType": "uint256",
					"name": "sourceChainId",
					"type": "uint256"
				},
				{
					"internalType": "uint256",
					"name": "targetChainId",
					"type": "uint256"
				},
				{
					"internalType": "address",
					"name": "assetAddress",
					"type": "address"
				},
				{
					"internalType": "address",
					"name": "to",
					"type": "address"
				},
				{
					"internalType": "uint256",
					"name": "amount",
					"type": "uint256"
				}
			],
			"name": "initiateTransfer",
			"outputs": [],
			"stateMutability": "payable",
			"type": "function"
		},
		{
			"inputs": [
				{
					"internalType": "uint256",
					"name": "",
					"type": "uint256"
				},
				{
					"internalType": "address",
					"name": "",
					"type": "address"
				}
			],
			"name": "noncesPerChain",
			"outputs": [
				{
					"internalType": "uint256",
					"name": "",
					"type": "uint256"
				}
			],
			"stateMutability": "view",
			"type": "function"
		},
		{
			"inputs": [],
			"name": "pause",
			"outputs": [],
			"stateMutability": "nonpayable",
			"type": "function"
		},
		{
			"inputs": [],
			"name": "paused",
			"outputs": [
				{
					"internalType": "bool",
					"name": "",
					"type": "bool"
				}
			],
			"stateMutability": "view",
			"type": "function"
		},
		{
			"inputs": [
				{
					"internalType": "bytes32",
					"name": "role",
					"type": "bytes32"
				},
				{
					"internalType": "address",
					"name": "callerConfirmation",
					"type": "address"
				}
			],
			"name": "renounceRole",
			"outputs": [],
			"stateMutability": "nonpayable",
			"type": "function"
		},
		{
			"inputs": [
				{
					"internalType": "bytes32",
					"name": "role",
					"type": "bytes32"
				},
				{
					"internalType": "address",
					"name": "account",
					"type": "address"
				}
			],
			"name": "revokeRole",
			"outputs": [],
			"stateMutability": "nonpayable",
			"type": "function"
		},
		{
			"inputs": [
				{
					"internalType": "bytes4",
					"name": "interfaceId",
					"type": "bytes4"
				}
			],
			"name": "supportsInterface",
			"outputs": [
				{
					"internalType": "bool",
					"name": "",
					"type": "bool"
				}
			],
			"stateMutability": "view",
			"type": "function"
		},
		{
			"inputs": [],
			"name": "transferFeePercentage",
			"outputs": [
				{
					"internalType": "uint256",
					"name": "",
					"type": "uint256"
				}
			],
			"stateMutability": "view",
			"type": "function"
		},
		{
			"inputs": [],
			"name": "unpause",
			"outputs": [],
			"stateMutability": "nonpayable",
			"type": "function"
		},
		{
			"inputs": [
				{
					"internalType": "uint256",
					"name": "newFeePercentage",
					"type": "uint256"
				}
			],
			"name": "updateTransferFee",
			"outputs": [],
			"stateMutability": "nonpayable",
			"type": "function"
		},
		{
			"inputs": [
				{
					"internalType": "address",
					"name": "assetAddress",
					"type": "address"
				},
				{
					"internalType": "address payable",
					"name": "to",
					"type": "address"
				},
				{
					"internalType": "uint256",
					"name": "amount",
					"type": "uint256"
				}
			],
			"name": "withdrawFees",
			"outputs": [],
			"stateMutability": "nonpayable",
			"type": "function"
		},
		{
			"stateMutability": "payable",
			"type": "receive"
		}
	]
}