{
	"contracts/cipherzero/ FileRegistry.sol": {
		"FileRegistry": {
			"abi": [
				{
					"anonymous": false,
					"inputs": [
						{
							"indexed": true,
							"internalType": "uint256",
							"name": "fileId",
							"type": "uint256"
						},
						{
							"indexed": false,
							"internalType": "string",
							"name": "fileName",
							"type": "string"
						},
						{
							"indexed": false,
							"internalType": "string",
							"name": "fileHash",
							"type": "string"
						},
						{
							"indexed": true,
							"internalType": "address",
							"name": "owner",
							"type": "address"
						}
					],
					"name": "FileRegistered",
					"type": "event"
				},
				{
					"inputs": [
						{
							"internalType": "uint256",
							"name": "_fileId",
							"type": "uint256"
						}
					],
					"name": "getFile",
					"outputs": [
						{
							"internalType": "string",
							"name": "",
							"type": "string"
						},
						{
							"internalType": "string",
							"name": "",
							"type": "string"
						},
						{
							"internalType": "address",
							"name": "",
							"type": "address"
						},
						{
							"internalType": "uint256",
							"name": "",
							"type": "uint256"
						}
					],
					"stateMutability": "view",
					"type": "function"
				},
				{
					"inputs": [],
					"name": "getFileCount",
					"outputs": [
						{
							"internalType": "uint256",
							"name": "",
							"type": "uint256"
						}
					],
					"stateMutability": "view",
					"type": "function"
				},
				{
					"inputs": [
						{
							"internalType": "string",
							"name": "_fileName",
							"type": "string"
						},
						{
							"internalType": "string",
							"name": "_fileHash",
							"type": "string"
						}
					],
					"name": "registerFile",
					"outputs": [],
					"stateMutability": "nonpayable",
					"type": "function"
				}
			],
			"devdoc": {
				"kind": "dev",
				"methods": {},
				"version": 1
			},
			"evm": {
				"assembly": "    /* \"contracts/cipherzero/ FileRegistry.sol\":58:989  contract FileRegistry {... */\n  mstore(0x40, 0x80)\n  callvalue\n  dup1\n  iszero\n  tag_1\n  jumpi\n  0x00\n  dup1\n  revert\ntag_1:\n  pop\n  dataSize(sub_0)\n  dup1\n  dataOffset(sub_0)\n  0x00\n  codecopy\n  0x00\n  return\nstop\n\nsub_0: assembly {\n        /* \"contracts/cipherzero/ FileRegistry.sol\":58:989  contract FileRegistry {... */\n      mstore(0x40, 0x80)\n      callvalue\n      dup1\n      iszero\n      tag_1\n      jumpi\n      0x00\n      dup1\n      revert\n    tag_1:\n      pop\n      jumpi(tag_2, lt(calldatasize, 0x04))\n      shr(0xe0, calldataload(0x00))\n      dup1\n      0x2bfda313\n      eq\n      tag_3\n      jumpi\n      dup1\n      0xbab50cc9\n      eq\n      tag_4\n      jumpi\n      dup1\n      0xed791724\n      eq\n      tag_5\n      jumpi\n    tag_2:\n      0x00\n      dup1\n      revert\n        /* \"contracts/cipherzero/ FileRegistry.sol\":666:894  function getFile(uint256 _fileId) public view returns (string memory, string memory, address, uint256) {... */\n    tag_3:\n      tag_6\n      0x04\n      dup1\n      calldatasize\n      sub\n      dup2\n      add\n      swap1\n      tag_7\n      swap2\n      swap1\n      tag_8\n      jump\t// in\n    tag_7:\n      tag_9\n      jump\t// in\n    tag_6:\n      mload(0x40)\n      tag_10\n      swap5\n      swap4\n      swap3\n      swap2\n      swap1\n      tag_11\n      jump\t// in\n    tag_10:\n      mload(0x40)\n      dup1\n      swap2\n      sub\n      swap1\n      return\n        /* \"contracts/cipherzero/ FileRegistry.sol\":900:987  function getFileCount() public view returns (uint256) {... */\n    tag_4:\n      tag_12\n      tag_13\n      jump\t// in\n    tag_12:\n      mload(0x40)\n      tag_14\n      swap2\n      swap1\n      tag_15\n      jump\t// in\n    tag_14:\n      mload(0x40)\n      dup1\n      swap2\n      sub\n      swap1\n      return\n        /* \"contracts/cipherzero/ FileRegistry.sol\":395:660  function registerFile(string memory _fileName, string memory _fileHash) public {... */\n    tag_5:\n      tag_16\n      0x04\n      dup1\n      calldatasize\n      sub\n      dup2\n      add\n      swap1\n      tag_17\n      swap2\n      swap1\n      tag_18\n      jump\t// in\n    tag_17:\n      tag_19\n      jump\t// in\n    tag_16:\n      stop\n        /* \"contracts/cipherzero/ FileRegistry.sol\":666:894  function getFile(uint256 _fileId) public view returns (string memory, string memory, address, uint256) {... */\n    tag_9:\n        /* \"contracts/cipherzero/ FileRegistry.sol\":721:734  string memory */\n      0x60\n        /* \"contracts/cipherzero/ FileRegistry.sol\":736:749  string memory */\n      dup1\n        /* \"contracts/cipherzero/ FileRegistry.sol\":751:758  address */\n      0x00\n        /* \"contracts/cipherzero/ FileRegistry.sol\":760:767  uint256 */\n      dup1\n        /* \"contracts/cipherzero/ FileRegistry.sol\":779:795  File memory file */\n      0x00\n        /* \"contracts/cipherzero/ FileRegistry.sol\":798:803  files */\n      dup1\n        /* \"contracts/cipherzero/ FileRegistry.sol\":798:812  files[_fileId] */\n      0x00\n        /* \"contracts/cipherzero/ FileRegistry.sol\":804:811  _fileId */\n      dup8\n        /* \"contracts/cipherzero/ FileRegistry.sol\":798:812  files[_fileId] */\n      dup2\n      mstore\n      0x20\n      add\n      swap1\n      dup2\n      mstore\n      0x20\n      add\n      0x00\n      keccak256\n        /* \"contracts/cipherzero/ FileRegistry.sol\":779:812  File memory file = files[_fileId] */\n      mload(0x40)\n      dup1\n      0x80\n      add\n      0x40\n      mstore\n      swap1\n      dup2\n      0x00\n      dup3\n      add\n      dup1\n      sload\n      tag_21\n      swap1\n      tag_22\n      jump\t// in\n    tag_21:\n      dup1\n      0x1f\n      add\n      0x20\n      dup1\n      swap2\n      div\n      mul\n      0x20\n      add\n      mload(0x40)\n      swap1\n      dup2\n      add\n      0x40\n      mstore\n      dup1\n      swap3\n      swap2\n      swap1\n      dup2\n      dup2\n      mstore\n      0x20\n      add\n      dup3\n      dup1\n      sload\n      tag_23\n      swap1\n      tag_22\n      jump\t// in\n    tag_23:\n      dup1\n      iszero\n      tag_24\n      jumpi\n      dup1\n      0x1f\n      lt\n      tag_25\n      jumpi\n      0x0100\n      dup1\n      dup4\n      sload\n      div\n      mul\n      dup4\n      mstore\n      swap2\n      0x20\n      add\n      swap2\n      jump(tag_24)\n    tag_25:\n      dup3\n      add\n      swap2\n      swap1\n      0x00\n      mstore\n      keccak256(0x00, 0x20)\n      swap1\n    tag_26:\n      dup2\n      sload\n      dup2\n      mstore\n      swap1\n      0x01\n      add\n      swap1\n      0x20\n      add\n      dup1\n      dup4\n      gt\n      tag_26\n      jumpi\n      dup3\n      swap1\n      sub\n      0x1f\n      and\n      dup3\n      add\n      swap2\n    tag_24:\n      pop\n      pop\n      pop\n      pop\n      pop\n      dup2\n      mstore\n      0x20\n      add\n      0x01\n      dup3\n      add\n      dup1\n      sload\n      tag_27\n      swap1\n      tag_22\n      jump\t// in\n    tag_27:\n      dup1\n      0x1f\n      add\n      0x20\n      dup1\n      swap2\n      div\n      mul\n      0x20\n      add\n      mload(0x40)\n      swap1\n      dup2\n      add\n      0x40\n      mstore\n      dup1\n      swap3\n      swap2\n      swap1\n      dup2\n      dup2\n      mstore\n      0x20\n      add\n      dup3\n      dup1\n      sload\n      tag_28\n      swap1\n      tag_22\n      jump\t// in\n    tag_28:\n      dup1\n      iszero\n      tag_29\n      jumpi\n      dup1\n      0x1f\n      lt\n      tag_30\n      jumpi\n      0x0100\n      dup1\n      dup4\n      sload\n      div\n      mul\n      dup4\n      mstore\n      swap2\n      0x20\n      add\n      swap2\n      jump(tag_29)\n    tag_30:\n      dup3\n      add\n      swap2\n      swap1\n      0x00\n      mstore\n      keccak256(0x00, 0x20)\n      swap1\n    tag_31:\n      dup2\n      sload\n      dup2\n      mstore\n      swap1\n      0x01\n      add\n      swap1\n      0x20\n      add\n      dup1\n      dup4\n      gt\n      tag_31\n      jumpi\n      dup3\n      swap1\n      sub\n      0x1f\n      and\n      dup3\n      add\n      swap2\n    tag_29:\n      pop\n      pop\n      pop\n      pop\n      pop\n      dup2\n      mstore\n      0x20\n      add\n      0x02\n      dup3\n      add\n      0x00\n      swap1\n      sload\n      swap1\n      0x0100\n      exp\n      swap1\n      div\n      0xffffffffffffffffffffffffffffffffffffffff\n      and\n      0xffffffffffffffffffffffffffffffffffffffff\n      and\n      0xffffffffffffffffffffffffffffffffffffffff\n      and\n      dup2\n      mstore\n      0x20\n      add\n      0x03\n      dup3\n      add\n      sload\n      dup2\n      mstore\n      pop\n      pop\n      swap1\n      pop\n        /* \"contracts/cipherzero/ FileRegistry.sol\":830:834  file */\n      dup1\n        /* \"contracts/cipherzero/ FileRegistry.sol\":830:843  file.fileName */\n      0x00\n      add\n      mload\n        /* \"contracts/cipherzero/ FileRegistry.sol\":845:849  file */\n      dup2\n        /* \"contracts/cipherzero/ FileRegistry.sol\":845:858  file.fileHash */\n      0x20\n      add\n      mload\n        /* \"contracts/cipherzero/ FileRegistry.sol\":860:864  file */\n      dup3\n        /* \"contracts/cipherzero/ FileRegistry.sol\":860:870  file.owner */\n      0x40\n      add\n      mload\n        /* \"contracts/cipherzero/ FileRegistry.sol\":872:876  file */\n      dup4\n        /* \"contracts/cipherzero/ FileRegistry.sol\":872:886  file.timestamp */\n      0x60\n      add\n      mload\n        /* \"contracts/cipherzero/ FileRegistry.sol\":822:887  return (file.fileName, file.fileHash, file.owner, file.timestamp) */\n      swap5\n      pop\n      swap5\n      pop\n      swap5\n      pop\n      swap5\n      pop\n      pop\n        /* \"contracts/cipherzero/ FileRegistry.sol\":666:894  function getFile(uint256 _fileId) public view returns (string memory, string memory, address, uint256) {... */\n      swap2\n      swap4\n      pop\n      swap2\n      swap4\n      jump\t// out\n        /* \"contracts/cipherzero/ FileRegistry.sol\":900:987  function getFileCount() public view returns (uint256) {... */\n    tag_13:\n        /* \"contracts/cipherzero/ FileRegistry.sol\":945:952  uint256 */\n      0x00\n        /* \"contracts/cipherzero/ FileRegistry.sol\":971:980  fileCount */\n      sload(0x01)\n        /* \"contracts/cipherzero/ FileRegistry.sol\":964:980  return fileCount */\n      swap1\n      pop\n        /* \"contracts/cipherzero/ FileRegistry.sol\":900:987  function getFileCount() public view returns (uint256) {... */\n      swap1\n      jump\t// out\n        /* \"contracts/cipherzero/ FileRegistry.sol\":395:660  function registerFile(string memory _fileName, string memory _fileHash) public {... */\n    tag_19:\n        /* \"contracts/cipherzero/ FileRegistry.sol\":484:493  fileCount */\n      0x01\n      0x00\n        /* \"contracts/cipherzero/ FileRegistry.sol\":484:495  fileCount++ */\n      dup2\n      sload\n      dup1\n      swap3\n      swap2\n      swap1\n      tag_34\n      swap1\n      tag_35\n      jump\t// in\n    tag_34:\n      swap2\n      swap1\n      pop\n      sstore\n      pop\n        /* \"contracts/cipherzero/ FileRegistry.sol\":524:579  File(_fileName, _fileHash, msg.sender, block.timestamp) */\n      mload(0x40)\n      dup1\n      0x80\n      add\n      0x40\n      mstore\n      dup1\n        /* \"contracts/cipherzero/ FileRegistry.sol\":529:538  _fileName */\n      dup4\n        /* \"contracts/cipherzero/ FileRegistry.sol\":524:579  File(_fileName, _fileHash, msg.sender, block.timestamp) */\n      dup2\n      mstore\n      0x20\n      add\n        /* \"contracts/cipherzero/ FileRegistry.sol\":540:549  _fileHash */\n      dup3\n        /* \"contracts/cipherzero/ FileRegistry.sol\":524:579  File(_fileName, _fileHash, msg.sender, block.timestamp) */\n      dup2\n      mstore\n      0x20\n      add\n        /* \"contracts/cipherzero/ FileRegistry.sol\":551:561  msg.sender */\n      caller\n        /* \"contracts/cipherzero/ FileRegistry.sol\":524:579  File(_fileName, _fileHash, msg.sender, block.timestamp) */\n      0xffffffffffffffffffffffffffffffffffffffff\n      and\n      dup2\n      mstore\n      0x20\n      add\n        /* \"contracts/cipherzero/ FileRegistry.sol\":563:578  block.timestamp */\n      timestamp\n        /* \"contracts/cipherzero/ FileRegistry.sol\":524:579  File(_fileName, _fileHash, msg.sender, block.timestamp) */\n      dup2\n      mstore\n      pop\n        /* \"contracts/cipherzero/ FileRegistry.sol\":505:510  files */\n      0x00\n        /* \"contracts/cipherzero/ FileRegistry.sol\":505:521  files[fileCount] */\n      dup1\n        /* \"contracts/cipherzero/ FileRegistry.sol\":511:520  fileCount */\n      sload(0x01)\n        /* \"contracts/cipherzero/ FileRegistry.sol\":505:521  files[fileCount] */\n      dup2\n      mstore\n      0x20\n      add\n      swap1\n      dup2\n      mstore\n      0x20\n      add\n      0x00\n      keccak256\n        /* \"contracts/cipherzero/ FileRegistry.sol\":505:579  files[fileCount] = File(_fileName, _fileHash, msg.sender, block.timestamp) */\n      0x00\n      dup3\n      add\n      mload\n      dup2\n      0x00\n      add\n      swap1\n      dup2\n      tag_36\n      swap2\n      swap1\n      tag_37\n      jump\t// in\n    tag_36:\n      pop\n      0x20\n      dup3\n      add\n      mload\n      dup2\n      0x01\n      add\n      swap1\n      dup2\n      tag_38\n      swap2\n      swap1\n      tag_37\n      jump\t// in\n    tag_38:\n      pop\n      0x40\n      dup3\n      add\n      mload\n      dup2\n      0x02\n      add\n      exp(0x0100, 0x00)\n      dup2\n      sload\n      dup2\n      0xffffffffffffffffffffffffffffffffffffffff\n      mul\n      not\n      and\n      swap1\n      dup4\n      0xffffffffffffffffffffffffffffffffffffffff\n      and\n      mul\n      or\n      swap1\n      sstore\n      pop\n      0x60\n      dup3\n      add\n      mload\n      dup2\n      0x03\n      add\n      sstore\n      swap1\n      pop\n      pop\n        /* \"contracts/cipherzero/ FileRegistry.sol\":642:652  msg.sender */\n      caller\n        /* \"contracts/cipherzero/ FileRegistry.sol\":594:653  FileRegistered(fileCount, _fileName, _fileHash, msg.sender) */\n      0xffffffffffffffffffffffffffffffffffffffff\n      and\n        /* \"contracts/cipherzero/ FileRegistry.sol\":609:618  fileCount */\n      sload(0x01)\n        /* \"contracts/cipherzero/ FileRegistry.sol\":594:653  FileRegistered(fileCount, _fileName, _fileHash, msg.sender) */\n      0x97d65ebcaa12f0989ad1ca46b9105bf87802c4c3c3fb4cab5d64fc8284762175\n        /* \"contracts/cipherzero/ FileRegistry.sol\":620:629  _fileName */\n      dup5\n        /* \"contracts/cipherzero/ FileRegistry.sol\":631:640  _fileHash */\n      dup5\n        /* \"contracts/cipherzero/ FileRegistry.sol\":594:653  FileRegistered(fileCount, _fileName, _fileHash, msg.sender) */\n      mload(0x40)\n      tag_39\n      swap3\n      swap2\n      swap1\n      tag_40\n      jump\t// in\n    tag_39:\n      mload(0x40)\n      dup1\n      swap2\n      sub\n      swap1\n      log3\n        /* \"contracts/cipherzero/ FileRegistry.sol\":395:660  function registerFile(string memory _fileName, string memory _fileHash) public {... */\n      pop\n      pop\n      jump\t// out\n        /* \"#utility.yul\":7:82   */\n    tag_41:\n        /* \"#utility.yul\":40:46   */\n      0x00\n        /* \"#utility.yul\":73:75   */\n      0x40\n        /* \"#utility.yul\":67:76   */\n      mload\n        /* \"#utility.yul\":57:76   */\n      swap1\n      pop\n        /* \"#utility.yul\":7:82   */\n      swap1\n      jump\t// out\n        /* \"#utility.yul\":88:205   */\n    tag_42:\n        /* \"#utility.yul\":197:198   */\n      0x00\n        /* \"#utility.yul\":194:195   */\n      dup1\n        /* \"#utility.yul\":187:199   */\n      revert\n        /* \"#utility.yul\":211:328   */\n    tag_43:\n        /* \"#utility.yul\":320:321   */\n      0x00\n        /* \"#utility.yul\":317:318   */\n      dup1\n        /* \"#utility.yul\":310:322   */\n      revert\n        /* \"#utility.yul\":334:411   */\n    tag_44:\n        /* \"#utility.yul\":371:378   */\n      0x00\n        /* \"#utility.yul\":400:405   */\n      dup2\n        /* \"#utility.yul\":389:405   */\n      swap1\n      pop\n        /* \"#utility.yul\":334:411   */\n      swap2\n      swap1\n      pop\n      jump\t// out\n        /* \"#utility.yul\":417:539   */\n    tag_45:\n        /* \"#utility.yul\":490:514   */\n      tag_88\n        /* \"#utility.yul\":508:513   */\n      dup2\n        /* \"#utility.yul\":490:514   */\n      tag_44\n      jump\t// in\n    tag_88:\n        /* \"#utility.yul\":483:488   */\n      dup2\n        /* \"#utility.yul\":480:515   */\n      eq\n        /* \"#utility.yul\":470:533   */\n      tag_89\n      jumpi\n        /* \"#utility.yul\":529:530   */\n      0x00\n        /* \"#utility.yul\":526:527   */\n      dup1\n        /* \"#utility.yul\":519:531   */\n      revert\n        /* \"#utility.yul\":470:533   */\n    tag_89:\n        /* \"#utility.yul\":417:539   */\n      pop\n      jump\t// out\n        /* \"#utility.yul\":545:684   */\n    tag_46:\n        /* \"#utility.yul\":591:596   */\n      0x00\n        /* \"#utility.yul\":629:635   */\n      dup2\n        /* \"#utility.yul\":616:636   */\n      calldataload\n        /* \"#utility.yul\":607:636   */\n      swap1\n      pop\n        /* \"#utility.yul\":645:678   */\n      tag_91\n        /* \"#utility.yul\":672:677   */\n      dup2\n        /* \"#utility.yul\":645:678   */\n      tag_45\n      jump\t// in\n    tag_91:\n        /* \"#utility.yul\":545:684   */\n      swap3\n      swap2\n      pop\n      pop\n      jump\t// out\n        /* \"#utility.yul\":690:1019   */\n    tag_8:\n        /* \"#utility.yul\":749:755   */\n      0x00\n        /* \"#utility.yul\":798:800   */\n      0x20\n        /* \"#utility.yul\":786:795   */\n      dup3\n        /* \"#utility.yul\":777:784   */\n      dup5\n        /* \"#utility.yul\":773:796   */\n      sub\n        /* \"#utility.yul\":769:801   */\n      slt\n        /* \"#utility.yul\":766:885   */\n      iszero\n      tag_93\n      jumpi\n        /* \"#utility.yul\":804:883   */\n      tag_94\n      tag_42\n      jump\t// in\n    tag_94:\n        /* \"#utility.yul\":766:885   */\n    tag_93:\n        /* \"#utility.yul\":924:925   */\n      0x00\n        /* \"#utility.yul\":949:1002   */\n      tag_95\n        /* \"#utility.yul\":994:1001   */\n      dup5\n        /* \"#utility.yul\":985:991   */\n      dup3\n        /* \"#utility.yul\":974:983   */\n      dup6\n        /* \"#utility.yul\":970:992   */\n      add\n        /* \"#utility.yul\":949:1002   */\n      tag_46\n      jump\t// in\n    tag_95:\n        /* \"#utility.yul\":939:1002   */\n      swap2\n      pop\n        /* \"#utility.yul\":895:1012   */\n      pop\n        /* \"#utility.yul\":690:1019   */\n      swap3\n      swap2\n      pop\n      pop\n      jump\t// out\n        /* \"#utility.yul\":1025:1124   */\n    tag_47:\n        /* \"#utility.yul\":1077:1083   */\n      0x00\n        /* \"#utility.yul\":1111:1116   */\n      dup2\n        /* \"#utility.yul\":1105:1117   */\n      mload\n        /* \"#utility.yul\":1095:1117   */\n      swap1\n      pop\n        /* \"#utility.yul\":1025:1124   */\n      swap2\n      swap1\n      pop\n      jump\t// out\n        /* \"#utility.yul\":1130:1299   */\n    tag_48:\n        /* \"#utility.yul\":1214:1225   */\n      0x00\n        /* \"#utility.yul\":1248:1254   */\n      dup3\n        /* \"#utility.yul\":1243:1246   */\n      dup3\n        /* \"#utility.yul\":1236:1255   */\n      mstore\n        /* \"#utility.yul\":1288:1292   */\n      0x20\n        /* \"#utility.yul\":1283:1286   */\n      dup3\n        /* \"#utility.yul\":1279:1293   */\n      add\n        /* \"#utility.yul\":1264:1293   */\n      swap1\n      pop\n        /* \"#utility.yul\":1130:1299   */\n      swap3\n      swap2\n      pop\n      pop\n      jump\t// out\n        /* \"#utility.yul\":1305:1444   */\n    tag_49:\n        /* \"#utility.yul\":1394:1400   */\n      dup3\n        /* \"#utility.yul\":1389:1392   */\n      dup2\n        /* \"#utility.yul\":1384:1387   */\n      dup4\n        /* \"#utility.yul\":1378:1401   */\n      mcopy\n        /* \"#utility.yul\":1435:1436   */\n      0x00\n        /* \"#utility.yul\":1426:1432   */\n      dup4\n        /* \"#utility.yul\":1421:1424   */\n      dup4\n        /* \"#utility.yul\":1417:1433   */\n      add\n        /* \"#utility.yul\":1410:1437   */\n      mstore\n        /* \"#utility.yul\":1305:1444   */\n      pop\n      pop\n      pop\n      jump\t// out\n        /* \"#utility.yul\":1450:1552   */\n    tag_50:\n        /* \"#utility.yul\":1491:1497   */\n      0x00\n        /* \"#utility.yul\":1542:1544   */\n      0x1f\n        /* \"#utility.yul\":1538:1545   */\n      not\n        /* \"#utility.yul\":1533:1535   */\n      0x1f\n        /* \"#utility.yul\":1526:1531   */\n      dup4\n        /* \"#utility.yul\":1522:1536   */\n      add\n        /* \"#utility.yul\":1518:1546   */\n      and\n        /* \"#utility.yul\":1508:1546   */\n      swap1\n      pop\n        /* \"#utility.yul\":1450:1552   */\n      swap2\n      swap1\n      pop\n      jump\t// out\n        /* \"#utility.yul\":1558:1935   */\n    tag_51:\n        /* \"#utility.yul\":1646:1649   */\n      0x00\n        /* \"#utility.yul\":1674:1713   */\n      tag_101\n        /* \"#utility.yul\":1707:1712   */\n      dup3\n        /* \"#utility.yul\":1674:1713   */\n      tag_47\n      jump\t// in\n    tag_101:\n        /* \"#utility.yul\":1729:1800   */\n      tag_102\n        /* \"#utility.yul\":1793:1799   */\n      dup2\n        /* \"#utility.yul\":1788:1791   */\n      dup6\n        /* \"#utility.yul\":1729:1800   */\n      tag_48\n      jump\t// in\n    tag_102:\n        /* \"#utility.yul\":1722:1800   */\n      swap4\n      pop\n        /* \"#utility.yul\":1809:1874   */\n      tag_103\n        /* \"#utility.yul\":1867:1873   */\n      dup2\n        /* \"#utility.yul\":1862:1865   */\n      dup6\n        /* \"#utility.yul\":1855:1859   */\n      0x20\n        /* \"#utility.yul\":1848:1853   */\n      dup7\n        /* \"#utility.yul\":1844:1860   */\n      add\n        /* \"#utility.yul\":1809:1874   */\n      tag_49\n      jump\t// in\n    tag_103:\n        /* \"#utility.yul\":1899:1928   */\n      tag_104\n        /* \"#utility.yul\":1921:1927   */\n      dup2\n        /* \"#utility.yul\":1899:1928   */\n      tag_50\n      jump\t// in\n    tag_104:\n        /* \"#utility.yul\":1894:1897   */\n      dup5\n        /* \"#utility.yul\":1890:1929   */\n      add\n        /* \"#utility.yul\":1883:1929   */\n      swap2\n      pop\n        /* \"#utility.yul\":1650:1935   */\n      pop\n        /* \"#utility.yul\":1558:1935   */\n      swap3\n      swap2\n      pop\n      pop\n      jump\t// out\n        /* \"#utility.yul\":1941:2067   */\n    tag_52:\n        /* \"#utility.yul\":1978:1985   */\n      0x00\n        /* \"#utility.yul\":2018:2060   */\n      0xffffffffffffffffffffffffffffffffffffffff\n        /* \"#utility.yul\":2011:2016   */\n      dup3\n        /* \"#utility.yul\":2007:2061   */\n      and\n        /* \"#utility.yul\":1996:2061   */\n      swap1\n      pop\n        /* \"#utility.yul\":1941:2067   */\n      swap2\n      swap1\n      pop\n      jump\t// out\n        /* \"#utility.yul\":2073:2169   */\n    tag_53:\n        /* \"#utility.yul\":2110:2117   */\n      0x00\n        /* \"#utility.yul\":2139:2163   */\n      tag_107\n        /* \"#utility.yul\":2157:2162   */\n      dup3\n        /* \"#utility.yul\":2139:2163   */\n      tag_52\n      jump\t// in\n    tag_107:\n        /* \"#utility.yul\":2128:2163   */\n      swap1\n      pop\n        /* \"#utility.yul\":2073:2169   */\n      swap2\n      swap1\n      pop\n      jump\t// out\n        /* \"#utility.yul\":2175:2293   */\n    tag_54:\n        /* \"#utility.yul\":2262:2286   */\n      tag_109\n        /* \"#utility.yul\":2280:2285   */\n      dup2\n        /* \"#utility.yul\":2262:2286   */\n      tag_53\n      jump\t// in\n    tag_109:\n        /* \"#utility.yul\":2257:2260   */\n      dup3\n        /* \"#utility.yul\":2250:2287   */\n      mstore\n        /* \"#utility.yul\":2175:2293   */\n      pop\n      pop\n      jump\t// out\n        /* \"#utility.yul\":2299:2417   */\n    tag_55:\n        /* \"#utility.yul\":2386:2410   */\n      tag_111\n        /* \"#utility.yul\":2404:2409   */\n      dup2\n        /* \"#utility.yul\":2386:2410   */\n      tag_44\n      jump\t// in\n    tag_111:\n        /* \"#utility.yul\":2381:2384   */\n      dup3\n        /* \"#utility.yul\":2374:2411   */\n      mstore\n        /* \"#utility.yul\":2299:2417   */\n      pop\n      pop\n      jump\t// out\n        /* \"#utility.yul\":2423:3158   */\n    tag_11:\n        /* \"#utility.yul\":2640:2644   */\n      0x00\n        /* \"#utility.yul\":2678:2681   */\n      0x80\n        /* \"#utility.yul\":2667:2676   */\n      dup3\n        /* \"#utility.yul\":2663:2682   */\n      add\n        /* \"#utility.yul\":2655:2682   */\n      swap1\n      pop\n        /* \"#utility.yul\":2728:2737   */\n      dup2\n        /* \"#utility.yul\":2722:2726   */\n      dup2\n        /* \"#utility.yul\":2718:2738   */\n      sub\n        /* \"#utility.yul\":2714:2715   */\n      0x00\n        /* \"#utility.yul\":2703:2712   */\n      dup4\n        /* \"#utility.yul\":2699:2716   */\n      add\n        /* \"#utility.yul\":2692:2739   */\n      mstore\n        /* \"#utility.yul\":2756:2834   */\n      tag_113\n        /* \"#utility.yul\":2829:2833   */\n      dup2\n        /* \"#utility.yul\":2820:2826   */\n      dup8\n        /* \"#utility.yul\":2756:2834   */\n      tag_51\n      jump\t// in\n    tag_113:\n        /* \"#utility.yul\":2748:2834   */\n      swap1\n      pop\n        /* \"#utility.yul\":2881:2890   */\n      dup2\n        /* \"#utility.yul\":2875:2879   */\n      dup2\n        /* \"#utility.yul\":2871:2891   */\n      sub\n        /* \"#utility.yul\":2866:2868   */\n      0x20\n        /* \"#utility.yul\":2855:2864   */\n      dup4\n        /* \"#utility.yul\":2851:2869   */\n      add\n        /* \"#utility.yul\":2844:2892   */\n      mstore\n        /* \"#utility.yul\":2909:2987   */\n      tag_114\n        /* \"#utility.yul\":2982:2986   */\n      dup2\n        /* \"#utility.yul\":2973:2979   */\n      dup7\n        /* \"#utility.yul\":2909:2987   */\n      tag_51\n      jump\t// in\n    tag_114:\n        /* \"#utility.yul\":2901:2987   */\n      swap1\n      pop\n        /* \"#utility.yul\":2997:3069   */\n      tag_115\n        /* \"#utility.yul\":3065:3067   */\n      0x40\n        /* \"#utility.yul\":3054:3063   */\n      dup4\n        /* \"#utility.yul\":3050:3068   */\n      add\n        /* \"#utility.yul\":3041:3047   */\n      dup6\n        /* \"#utility.yul\":2997:3069   */\n      tag_54\n      jump\t// in\n    tag_115:\n        /* \"#utility.yul\":3079:3151   */\n      tag_116\n        /* \"#utility.yul\":3147:3149   */\n      0x60\n        /* \"#utility.yul\":3136:3145   */\n      dup4\n        /* \"#utility.yul\":3132:3150   */\n      add\n        /* \"#utility.yul\":3123:3129   */\n      dup5\n        /* \"#utility.yul\":3079:3151   */\n      tag_55\n      jump\t// in\n    tag_116:\n        /* \"#utility.yul\":2423:3158   */\n      swap6\n      swap5\n      pop\n      pop\n      pop\n      pop\n      pop\n      jump\t// out\n        /* \"#utility.yul\":3164:3386   */\n    tag_15:\n        /* \"#utility.yul\":3257:3261   */\n      0x00\n        /* \"#utility.yul\":3295:3297   */\n      0x20\n        /* \"#utility.yul\":3284:3293   */\n      dup3\n        /* \"#utility.yul\":3280:3298   */\n      add\n        /* \"#utility.yul\":3272:3298   */\n      swap1\n      pop\n        /* \"#utility.yul\":3308:3379   */\n      tag_118\n        /* \"#utility.yul\":3376:3377   */\n      0x00\n        /* \"#utility.yul\":3365:3374   */\n      dup4\n        /* \"#utility.yul\":3361:3378   */\n      add\n        /* \"#utility.yul\":3352:3358   */\n      dup5\n        /* \"#utility.yul\":3308:3379   */\n      tag_55\n      jump\t// in\n    tag_118:\n        /* \"#utility.yul\":3164:3386   */\n      swap3\n      swap2\n      pop\n      pop\n      jump\t// out\n        /* \"#utility.yul\":3392:3509   */\n    tag_56:\n        /* \"#utility.yul\":3501:3502   */\n      0x00\n        /* \"#utility.yul\":3498:3499   */\n      dup1\n        /* \"#utility.yul\":3491:3503   */\n      revert\n        /* \"#utility.yul\":3515:3632   */\n    tag_57:\n        /* \"#utility.yul\":3624:3625   */\n      0x00\n        /* \"#utility.yul\":3621:3622   */\n      dup1\n        /* \"#utility.yul\":3614:3626   */\n      revert\n        /* \"#utility.yul\":3638:3818   */\n    tag_58:\n        /* \"#utility.yul\":3686:3763   */\n      0x4e487b7100000000000000000000000000000000000000000000000000000000\n        /* \"#utility.yul\":3683:3684   */\n      0x00\n        /* \"#utility.yul\":3676:3764   */\n      mstore\n        /* \"#utility.yul\":3783:3787   */\n      0x41\n        /* \"#utility.yul\":3780:3781   */\n      0x04\n        /* \"#utility.yul\":3773:3788   */\n      mstore\n        /* \"#utility.yul\":3807:3811   */\n      0x24\n        /* \"#utility.yul\":3804:3805   */\n      0x00\n        /* \"#utility.yul\":3797:3812   */\n      revert\n        /* \"#utility.yul\":3824:4105   */\n    tag_59:\n        /* \"#utility.yul\":3907:3934   */\n      tag_123\n        /* \"#utility.yul\":3929:3933   */\n      dup3\n        /* \"#utility.yul\":3907:3934   */\n      tag_50\n      jump\t// in\n    tag_123:\n        /* \"#utility.yul\":3899:3905   */\n      dup2\n        /* \"#utility.yul\":3895:3935   */\n      add\n        /* \"#utility.yul\":4037:4043   */\n      dup2\n        /* \"#utility.yul\":4025:4035   */\n      dup2\n        /* \"#utility.yul\":4022:4044   */\n      lt\n        /* \"#utility.yul\":4001:4019   */\n      0xffffffffffffffff\n        /* \"#utility.yul\":3989:3999   */\n      dup3\n        /* \"#utility.yul\":3986:4020   */\n      gt\n        /* \"#utility.yul\":3983:4045   */\n      or\n        /* \"#utility.yul\":3980:4068   */\n      iszero\n      tag_124\n      jumpi\n        /* \"#utility.yul\":4048:4066   */\n      tag_125\n      tag_58\n      jump\t// in\n    tag_125:\n        /* \"#utility.yul\":3980:4068   */\n    tag_124:\n        /* \"#utility.yul\":4088:4098   */\n      dup1\n        /* \"#utility.yul\":4084:4086   */\n      0x40\n        /* \"#utility.yul\":4077:4099   */\n      mstore\n        /* \"#utility.yul\":3867:4105   */\n      pop\n        /* \"#utility.yul\":3824:4105   */\n      pop\n      pop\n      jump\t// out\n        /* \"#utility.yul\":4111:4240   */\n    tag_60:\n        /* \"#utility.yul\":4145:4151   */\n      0x00\n        /* \"#utility.yul\":4172:4192   */\n      tag_127\n      tag_41\n      jump\t// in\n    tag_127:\n        /* \"#utility.yul\":4162:4192   */\n      swap1\n      pop\n        /* \"#utility.yul\":4201:4234   */\n      tag_128\n        /* \"#utility.yul\":4229:4233   */\n      dup3\n        /* \"#utility.yul\":4221:4227   */\n      dup3\n        /* \"#utility.yul\":4201:4234   */\n      tag_59\n      jump\t// in\n    tag_128:\n        /* \"#utility.yul\":4111:4240   */\n      swap2\n      swap1\n      pop\n      jump\t// out\n        /* \"#utility.yul\":4246:4554   */\n    tag_61:\n        /* \"#utility.yul\":4308:4312   */\n      0x00\n        /* \"#utility.yul\":4398:4416   */\n      0xffffffffffffffff\n        /* \"#utility.yul\":4390:4396   */\n      dup3\n        /* \"#utility.yul\":4387:4417   */\n      gt\n        /* \"#utility.yul\":4384:4440   */\n      iszero\n      tag_130\n      jumpi\n        /* \"#utility.yul\":4420:4438   */\n      tag_131\n      tag_58\n      jump\t// in\n    tag_131:\n        /* \"#utility.yul\":4384:4440   */\n    tag_130:\n        /* \"#utility.yul\":4458:4487   */\n      tag_132\n        /* \"#utility.yul\":4480:4486   */\n      dup3\n        /* \"#utility.yul\":4458:4487   */\n      tag_50\n      jump\t// in\n    tag_132:\n        /* \"#utility.yul\":4450:4487   */\n      swap1\n      pop\n        /* \"#utility.yul\":4542:4546   */\n      0x20\n        /* \"#utility.yul\":4536:4540   */\n      dup2\n        /* \"#utility.yul\":4532:4547   */\n      add\n        /* \"#utility.yul\":4524:4547   */\n      swap1\n      pop\n        /* \"#utility.yul\":4246:4554   */\n      swap2\n      swap1\n      pop\n      jump\t// out\n        /* \"#utility.yul\":4560:4708   */\n    tag_62:\n        /* \"#utility.yul\":4658:4664   */\n      dup3\n        /* \"#utility.yul\":4653:4656   */\n      dup2\n        /* \"#utility.yul\":4648:4651   */\n      dup4\n        /* \"#utility.yul\":4635:4665   */\n      calldatacopy\n        /* \"#utility.yul\":4699:4700   */\n      0x00\n        /* \"#utility.yul\":4690:4696   */\n      dup4\n        /* \"#utility.yul\":4685:4688   */\n      dup4\n        /* \"#utility.yul\":4681:4697   */\n      add\n        /* \"#utility.yul\":4674:4701   */\n      mstore\n        /* \"#utility.yul\":4560:4708   */\n      pop\n      pop\n      pop\n      jump\t// out\n        /* \"#utility.yul\":4714:5139   */\n    tag_63:\n        /* \"#utility.yul\":4792:4797   */\n      0x00\n        /* \"#utility.yul\":4817:4883   */\n      tag_135\n        /* \"#utility.yul\":4833:4882   */\n      tag_136\n        /* \"#utility.yul\":4875:4881   */\n      dup5\n        /* \"#utility.yul\":4833:4882   */\n      tag_61\n      jump\t// in\n    tag_136:\n        /* \"#utility.yul\":4817:4883   */\n      tag_60\n      jump\t// in\n    tag_135:\n        /* \"#utility.yul\":4808:4883   */\n      swap1\n      pop\n        /* \"#utility.yul\":4906:4912   */\n      dup3\n        /* \"#utility.yul\":4899:4904   */\n      dup2\n        /* \"#utility.yul\":4892:4913   */\n      mstore\n        /* \"#utility.yul\":4944:4948   */\n      0x20\n        /* \"#utility.yul\":4937:4942   */\n      dup2\n        /* \"#utility.yul\":4933:4949   */\n      add\n        /* \"#utility.yul\":4982:4985   */\n      dup5\n        /* \"#utility.yul\":4973:4979   */\n      dup5\n        /* \"#utility.yul\":4968:4971   */\n      dup5\n        /* \"#utility.yul\":4964:4980   */\n      add\n        /* \"#utility.yul\":4961:4986   */\n      gt\n        /* \"#utility.yul\":4958:5070   */\n      iszero\n      tag_137\n      jumpi\n        /* \"#utility.yul\":4989:5068   */\n      tag_138\n      tag_57\n      jump\t// in\n    tag_138:\n        /* \"#utility.yul\":4958:5070   */\n    tag_137:\n        /* \"#utility.yul\":5079:5133   */\n      tag_139\n        /* \"#utility.yul\":5126:5132   */\n      dup5\n        /* \"#utility.yul\":5121:5124   */\n      dup3\n        /* \"#utility.yul\":5116:5119   */\n      dup6\n        /* \"#utility.yul\":5079:5133   */\n      tag_62\n      jump\t// in\n    tag_139:\n        /* \"#utility.yul\":4798:5139   */\n      pop\n        /* \"#utility.yul\":4714:5139   */\n      swap4\n      swap3\n      pop\n      pop\n      pop\n      jump\t// out\n        /* \"#utility.yul\":5159:5499   */\n    tag_64:\n        /* \"#utility.yul\":5215:5220   */\n      0x00\n        /* \"#utility.yul\":5264:5267   */\n      dup3\n        /* \"#utility.yul\":5257:5261   */\n      0x1f\n        /* \"#utility.yul\":5249:5255   */\n      dup4\n        /* \"#utility.yul\":5245:5262   */\n      add\n        /* \"#utility.yul\":5241:5268   */\n      slt\n        /* \"#utility.yul\":5231:5353   */\n      tag_141\n      jumpi\n        /* \"#utility.yul\":5272:5351   */\n      tag_142\n      tag_56\n      jump\t// in\n    tag_142:\n        /* \"#utility.yul\":5231:5353   */\n    tag_141:\n        /* \"#utility.yul\":5389:5395   */\n      dup2\n        /* \"#utility.yul\":5376:5396   */\n      calldataload\n        /* \"#utility.yul\":5414:5493   */\n      tag_143\n        /* \"#utility.yul\":5489:5492   */\n      dup5\n        /* \"#utility.yul\":5481:5487   */\n      dup3\n        /* \"#utility.yul\":5474:5478   */\n      0x20\n        /* \"#utility.yul\":5466:5472   */\n      dup7\n        /* \"#utility.yul\":5462:5479   */\n      add\n        /* \"#utility.yul\":5414:5493   */\n      tag_63\n      jump\t// in\n    tag_143:\n        /* \"#utility.yul\":5405:5493   */\n      swap2\n      pop\n        /* \"#utility.yul\":5221:5499   */\n      pop\n        /* \"#utility.yul\":5159:5499   */\n      swap3\n      swap2\n      pop\n      pop\n      jump\t// out\n        /* \"#utility.yul\":5505:6339   */\n    tag_18:\n        /* \"#utility.yul\":5593:5599   */\n      0x00\n        /* \"#utility.yul\":5601:5607   */\n      dup1\n        /* \"#utility.yul\":5650:5652   */\n      0x40\n        /* \"#utility.yul\":5638:5647   */\n      dup4\n        /* \"#utility.yul\":5629:5636   */\n      dup6\n        /* \"#utility.yul\":5625:5648   */\n      sub\n        /* \"#utility.yul\":5621:5653   */\n      slt\n        /* \"#utility.yul\":5618:5737   */\n      iszero\n      tag_145\n      jumpi\n        /* \"#utility.yul\":5656:5735   */\n      tag_146\n      tag_42\n      jump\t// in\n    tag_146:\n        /* \"#utility.yul\":5618:5737   */\n    tag_145:\n        /* \"#utility.yul\":5804:5805   */\n      0x00\n        /* \"#utility.yul\":5793:5802   */\n      dup4\n        /* \"#utility.yul\":5789:5806   */\n      add\n        /* \"#utility.yul\":5776:5807   */\n      calldataload\n        /* \"#utility.yul\":5834:5852   */\n      0xffffffffffffffff\n        /* \"#utility.yul\":5826:5832   */\n      dup2\n        /* \"#utility.yul\":5823:5853   */\n      gt\n        /* \"#utility.yul\":5820:5937   */\n      iszero\n      tag_147\n      jumpi\n        /* \"#utility.yul\":5856:5935   */\n      tag_148\n      tag_43\n      jump\t// in\n    tag_148:\n        /* \"#utility.yul\":5820:5937   */\n    tag_147:\n        /* \"#utility.yul\":5961:6024   */\n      tag_149\n        /* \"#utility.yul\":6016:6023   */\n      dup6\n        /* \"#utility.yul\":6007:6013   */\n      dup3\n        /* \"#utility.yul\":5996:6005   */\n      dup7\n        /* \"#utility.yul\":5992:6014   */\n      add\n        /* \"#utility.yul\":5961:6024   */\n      tag_64\n      jump\t// in\n    tag_149:\n        /* \"#utility.yul\":5951:6024   */\n      swap3\n      pop\n        /* \"#utility.yul\":5747:6034   */\n      pop\n        /* \"#utility.yul\":6101:6103   */\n      0x20\n        /* \"#utility.yul\":6090:6099   */\n      dup4\n        /* \"#utility.yul\":6086:6104   */\n      add\n        /* \"#utility.yul\":6073:6105   */\n      calldataload\n        /* \"#utility.yul\":6132:6150   */\n      0xffffffffffffffff\n        /* \"#utility.yul\":6124:6130   */\n      dup2\n        /* \"#utility.yul\":6121:6151   */\n      gt\n        /* \"#utility.yul\":6118:6235   */\n      iszero\n      tag_150\n      jumpi\n        /* \"#utility.yul\":6154:6233   */\n      tag_151\n      tag_43\n      jump\t// in\n    tag_151:\n        /* \"#utility.yul\":6118:6235   */\n    tag_150:\n        /* \"#utility.yul\":6259:6322   */\n      tag_152\n        /* \"#utility.yul\":6314:6321   */\n      dup6\n        /* \"#utility.yul\":6305:6311   */\n      dup3\n        /* \"#utility.yul\":6294:6303   */\n      dup7\n        /* \"#utility.yul\":6290:6312   */\n      add\n        /* \"#utility.yul\":6259:6322   */\n      tag_64\n      jump\t// in\n    tag_152:\n        /* \"#utility.yul\":6249:6322   */\n      swap2\n      pop\n        /* \"#utility.yul\":6044:6332   */\n      pop\n        /* \"#utility.yul\":5505:6339   */\n      swap3\n      pop\n      swap3\n      swap1\n      pop\n      jump\t// out\n        /* \"#utility.yul\":6345:6525   */\n    tag_65:\n        /* \"#utility.yul\":6393:6470   */\n      0x4e487b7100000000000000000000000000000000000000000000000000000000\n        /* \"#utility.yul\":6390:6391   */\n      0x00\n        /* \"#utility.yul\":6383:6471   */\n      mstore\n        /* \"#utility.yul\":6490:6494   */\n      0x22\n        /* \"#utility.yul\":6487:6488   */\n      0x04\n        /* \"#utility.yul\":6480:6495   */\n      mstore\n        /* \"#utility.yul\":6514:6518   */\n      0x24\n        /* \"#utility.yul\":6511:6512   */\n      0x00\n        /* \"#utility.yul\":6504:6519   */\n      revert\n        /* \"#utility.yul\":6531:6851   */\n    tag_22:\n        /* \"#utility.yul\":6575:6581   */\n      0x00\n        /* \"#utility.yul\":6612:6613   */\n      0x02\n        /* \"#utility.yul\":6606:6610   */\n      dup3\n        /* \"#utility.yul\":6602:6614   */\n      div\n        /* \"#utility.yul\":6592:6614   */\n      swap1\n      pop\n        /* \"#utility.yul\":6659:6660   */\n      0x01\n        /* \"#utility.yul\":6653:6657   */\n      dup3\n        /* \"#utility.yul\":6649:6661   */\n      and\n        /* \"#utility.yul\":6680:6698   */\n      dup1\n        /* \"#utility.yul\":6670:6751   */\n      tag_155\n      jumpi\n        /* \"#utility.yul\":6736:6740   */\n      0x7f\n        /* \"#utility.yul\":6728:6734   */\n      dup3\n        /* \"#utility.yul\":6724:6741   */\n      and\n        /* \"#utility.yul\":6714:6741   */\n      swap2\n      pop\n        /* \"#utility.yul\":6670:6751   */\n    tag_155:\n        /* \"#utility.yul\":6798:6800   */\n      0x20\n        /* \"#utility.yul\":6790:6796   */\n      dup3\n        /* \"#utility.yul\":6787:6801   */\n      lt\n        /* \"#utility.yul\":6767:6785   */\n      dup2\n        /* \"#utility.yul\":6764:6802   */\n      sub\n        /* \"#utility.yul\":6761:6845   */\n      tag_156\n      jumpi\n        /* \"#utility.yul\":6817:6835   */\n      tag_157\n      tag_65\n      jump\t// in\n    tag_157:\n        /* \"#utility.yul\":6761:6845   */\n    tag_156:\n        /* \"#utility.yul\":6582:6851   */\n      pop\n        /* \"#utility.yul\":6531:6851   */\n      swap2\n      swap1\n      pop\n      jump\t// out\n        /* \"#utility.yul\":6857:7037   */\n    tag_66:\n        /* \"#utility.yul\":6905:6982   */\n      0x4e487b7100000000000000000000000000000000000000000000000000000000\n        /* \"#utility.yul\":6902:6903   */\n      0x00\n        /* \"#utility.yul\":6895:6983   */\n      mstore\n        /* \"#utility.yul\":7002:7006   */\n      0x11\n        /* \"#utility.yul\":6999:7000   */\n      0x04\n        /* \"#utility.yul\":6992:7007   */\n      mstore\n        /* \"#utility.yul\":7026:7030   */\n      0x24\n        /* \"#utility.yul\":7023:7024   */\n      0x00\n        /* \"#utility.yul\":7016:7031   */\n      revert\n        /* \"#utility.yul\":7043:7276   */\n    tag_35:\n        /* \"#utility.yul\":7082:7085   */\n      0x00\n        /* \"#utility.yul\":7105:7129   */\n      tag_160\n        /* \"#utility.yul\":7123:7128   */\n      dup3\n        /* \"#utility.yul\":7105:7129   */\n      tag_44\n      jump\t// in\n    tag_160:\n        /* \"#utility.yul\":7096:7129   */\n      swap2\n      pop\n        /* \"#utility.yul\":7151:7217   */\n      0xffffffffffffffffffffffffffffffffffffffffffffffffffffffffffffffff\n        /* \"#utility.yul\":7144:7149   */\n      dup3\n        /* \"#utility.yul\":7141:7218   */\n      sub\n        /* \"#utility.yul\":7138:7241   */\n      tag_161\n      jumpi\n        /* \"#utility.yul\":7221:7239   */\n      tag_162\n      tag_66\n      jump\t// in\n    tag_162:\n        /* \"#utility.yul\":7138:7241   */\n    tag_161:\n        /* \"#utility.yul\":7268:7269   */\n      0x01\n        /* \"#utility.yul\":7261:7266   */\n      dup3\n        /* \"#utility.yul\":7257:7270   */\n      add\n        /* \"#utility.yul\":7250:7270   */\n      swap1\n      pop\n        /* \"#utility.yul\":7043:7276   */\n      swap2\n      swap1\n      pop\n      jump\t// out\n        /* \"#utility.yul\":7282:7423   */\n    tag_67:\n        /* \"#utility.yul\":7331:7335   */\n      0x00\n        /* \"#utility.yul\":7354:7357   */\n      dup2\n        /* \"#utility.yul\":7346:7357   */\n      swap1\n      pop\n        /* \"#utility.yul\":7377:7380   */\n      dup2\n        /* \"#utility.yul\":7374:7375   */\n      0x00\n        /* \"#utility.yul\":7367:7381   */\n      mstore\n        /* \"#utility.yul\":7411:7415   */\n      0x20\n        /* \"#utility.yul\":7408:7409   */\n      0x00\n        /* \"#utility.yul\":7398:7416   */\n      keccak256\n        /* \"#utility.yul\":7390:7416   */\n      swap1\n      pop\n        /* \"#utility.yul\":7282:7423   */\n      swap2\n      swap1\n      pop\n      jump\t// out\n        /* \"#utility.yul\":7429:7522   */\n    tag_68:\n        /* \"#utility.yul\":7466:7472   */\n      0x00\n        /* \"#utility.yul\":7513:7515   */\n      0x20\n        /* \"#utility.yul\":7508:7510   */\n      0x1f\n        /* \"#utility.yul\":7501:7506   */\n      dup4\n        /* \"#utility.yul\":7497:7511   */\n      add\n        /* \"#utility.yul\":7493:7516   */\n      div\n        /* \"#utility.yul\":7483:7516   */\n      swap1\n      pop\n        /* \"#utility.yul\":7429:7522   */\n      swap2\n      swap1\n      pop\n      jump\t// out\n        /* \"#utility.yul\":7528:7635   */\n    tag_69:\n        /* \"#utility.yul\":7572:7580   */\n      0x00\n        /* \"#utility.yul\":7622:7627   */\n      dup3\n        /* \"#utility.yul\":7616:7620   */\n      dup3\n        /* \"#utility.yul\":7612:7628   */\n      shl\n        /* \"#utility.yul\":7591:7628   */\n      swap1\n      pop\n        /* \"#utility.yul\":7528:7635   */\n      swap3\n      swap2\n      pop\n      pop\n      jump\t// out\n        /* \"#utility.yul\":7641:8034   */\n    tag_70:\n        /* \"#utility.yul\":7710:7716   */\n      0x00\n        /* \"#utility.yul\":7760:7761   */\n      0x08\n        /* \"#utility.yul\":7748:7758   */\n      dup4\n        /* \"#utility.yul\":7744:7762   */\n      mul\n        /* \"#utility.yul\":7783:7880   */\n      tag_167\n        /* \"#utility.yul\":7813:7879   */\n      0xffffffffffffffffffffffffffffffffffffffffffffffffffffffffffffffff\n        /* \"#utility.yul\":7802:7811   */\n      dup3\n        /* \"#utility.yul\":7783:7880   */\n      tag_69\n      jump\t// in\n    tag_167:\n        /* \"#utility.yul\":7901:7940   */\n      tag_168\n        /* \"#utility.yul\":7931:7939   */\n      dup7\n        /* \"#utility.yul\":7920:7929   */\n      dup4\n        /* \"#utility.yul\":7901:7940   */\n      tag_69\n      jump\t// in\n    tag_168:\n        /* \"#utility.yul\":7889:7940   */\n      swap6\n      pop\n        /* \"#utility.yul\":7973:7977   */\n      dup1\n        /* \"#utility.yul\":7969:7978   */\n      not\n        /* \"#utility.yul\":7962:7967   */\n      dup5\n        /* \"#utility.yul\":7958:7979   */\n      and\n        /* \"#utility.yul\":7949:7979   */\n      swap4\n      pop\n        /* \"#utility.yul\":8022:8026   */\n      dup1\n        /* \"#utility.yul\":8012:8020   */\n      dup7\n        /* \"#utility.yul\":8008:8027   */\n      and\n        /* \"#utility.yul\":8001:8006   */\n      dup5\n        /* \"#utility.yul\":7998:8028   */\n      or\n        /* \"#utility.yul\":7988:8028   */\n      swap3\n      pop\n        /* \"#utility.yul\":7717:8034   */\n      pop\n      pop\n        /* \"#utility.yul\":7641:8034   */\n      swap4\n      swap3\n      pop\n      pop\n      pop\n      jump\t// out\n        /* \"#utility.yul\":8040:8100   */\n    tag_71:\n        /* \"#utility.yul\":8068:8071   */\n      0x00\n        /* \"#utility.yul\":8089:8094   */\n      dup2\n        /* \"#utility.yul\":8082:8094   */\n      swap1\n      pop\n        /* \"#utility.yul\":8040:8100   */\n      swap2\n      swap1\n      pop\n      jump\t// out\n        /* \"#utility.yul\":8106:8248   */\n    tag_72:\n        /* \"#utility.yul\":8156:8165   */\n      0x00\n        /* \"#utility.yul\":8189:8242   */\n      tag_171\n        /* \"#utility.yul\":8207:8241   */\n      tag_172\n        /* \"#utility.yul\":8216:8240   */\n      tag_173\n        /* \"#utility.yul\":8234:8239   */\n      dup5\n        /* \"#utility.yul\":8216:8240   */\n      tag_44\n      jump\t// in\n    tag_173:\n        /* \"#utility.yul\":8207:8241   */\n      tag_71\n      jump\t// in\n    tag_172:\n        /* \"#utility.yul\":8189:8242   */\n      tag_44\n      jump\t// in\n    tag_171:\n        /* \"#utility.yul\":8176:8242   */\n      swap1\n      pop\n        /* \"#utility.yul\":8106:8248   */\n      swap2\n      swap1\n      pop\n      jump\t// out\n        /* \"#utility.yul\":8254:8329   */\n    tag_73:\n        /* \"#utility.yul\":8297:8300   */\n      0x00\n        /* \"#utility.yul\":8318:8323   */\n      dup2\n        /* \"#utility.yul\":8311:8323   */\n      swap1\n      pop\n        /* \"#utility.yul\":8254:8329   */\n      swap2\n      swap1\n      pop\n      jump\t// out\n        /* \"#utility.yul\":8335:8604   */\n    tag_74:\n        /* \"#utility.yul\":8445:8484   */\n      tag_176\n        /* \"#utility.yul\":8476:8483   */\n      dup4\n        /* \"#utility.yul\":8445:8484   */\n      tag_72\n      jump\t// in\n    tag_176:\n        /* \"#utility.yul\":8506:8597   */\n      tag_177\n        /* \"#utility.yul\":8555:8596   */\n      tag_178\n        /* \"#utility.yul\":8579:8595   */\n      dup3\n        /* \"#utility.yul\":8555:8596   */\n      tag_73\n      jump\t// in\n    tag_178:\n        /* \"#utility.yul\":8547:8553   */\n      dup5\n        /* \"#utility.yul\":8540:8544   */\n      dup5\n        /* \"#utility.yul\":8534:8545   */\n      sload\n        /* \"#utility.yul\":8506:8597   */\n      tag_70\n      jump\t// in\n    tag_177:\n        /* \"#utility.yul\":8500:8504   */\n      dup3\n        /* \"#utility.yul\":8493:8598   */\n      sstore\n        /* \"#utility.yul\":8411:8604   */\n      pop\n        /* \"#utility.yul\":8335:8604   */\n      pop\n      pop\n      pop\n      jump\t// out\n        /* \"#utility.yul\":8610:8683   */\n    tag_75:\n        /* \"#utility.yul\":8655:8658   */\n      0x00\n        /* \"#utility.yul\":8610:8683   */\n      swap1\n      jump\t// out\n        /* \"#utility.yul\":8689:8878   */\n    tag_76:\n        /* \"#utility.yul\":8766:8798   */\n      tag_181\n      tag_75\n      jump\t// in\n    tag_181:\n        /* \"#utility.yul\":8807:8872   */\n      tag_182\n        /* \"#utility.yul\":8865:8871   */\n      dup2\n        /* \"#utility.yul\":8857:8863   */\n      dup5\n        /* \"#utility.yul\":8851:8855   */\n      dup5\n        /* \"#utility.yul\":8807:8872   */\n      tag_74\n      jump\t// in\n    tag_182:\n        /* \"#utility.yul\":8742:8878   */\n      pop\n        /* \"#utility.yul\":8689:8878   */\n      pop\n      pop\n      jump\t// out\n        /* \"#utility.yul\":8884:9070   */\n    tag_77:\n        /* \"#utility.yul\":8944:9064   */\n    tag_184:\n        /* \"#utility.yul\":8961:8964   */\n      dup2\n        /* \"#utility.yul\":8954:8959   */\n      dup2\n        /* \"#utility.yul\":8951:8965   */\n      lt\n        /* \"#utility.yul\":8944:9064   */\n      iszero\n      tag_186\n      jumpi\n        /* \"#utility.yul\":9015:9054   */\n      tag_187\n        /* \"#utility.yul\":9052:9053   */\n      0x00\n        /* \"#utility.yul\":9045:9050   */\n      dup3\n        /* \"#utility.yul\":9015:9054   */\n      tag_76\n      jump\t// in\n    tag_187:\n        /* \"#utility.yul\":8988:8989   */\n      0x01\n        /* \"#utility.yul\":8981:8986   */\n      dup2\n        /* \"#utility.yul\":8977:8990   */\n      add\n        /* \"#utility.yul\":8968:8990   */\n      swap1\n      pop\n        /* \"#utility.yul\":8944:9064   */\n      jump(tag_184)\n    tag_186:\n        /* \"#utility.yul\":8884:9070   */\n      pop\n      pop\n      jump\t// out\n        /* \"#utility.yul\":9076:9619   */\n    tag_78:\n        /* \"#utility.yul\":9177:9179   */\n      0x1f\n        /* \"#utility.yul\":9172:9175   */\n      dup3\n        /* \"#utility.yul\":9169:9180   */\n      gt\n        /* \"#utility.yul\":9166:9612   */\n      iszero\n      tag_189\n      jumpi\n        /* \"#utility.yul\":9211:9249   */\n      tag_190\n        /* \"#utility.yul\":9243:9248   */\n      dup2\n        /* \"#utility.yul\":9211:9249   */\n      tag_67\n      jump\t// in\n    tag_190:\n        /* \"#utility.yul\":9295:9324   */\n      tag_191\n        /* \"#utility.yul\":9313:9323   */\n      dup5\n        /* \"#utility.yul\":9295:9324   */\n      tag_68\n      jump\t// in\n    tag_191:\n        /* \"#utility.yul\":9285:9293   */\n      dup2\n        /* \"#utility.yul\":9281:9325   */\n      add\n        /* \"#utility.yul\":9478:9480   */\n      0x20\n        /* \"#utility.yul\":9466:9476   */\n      dup6\n        /* \"#utility.yul\":9463:9481   */\n      lt\n        /* \"#utility.yul\":9460:9509   */\n      iszero\n      tag_192\n      jumpi\n        /* \"#utility.yul\":9499:9507   */\n      dup2\n        /* \"#utility.yul\":9484:9507   */\n      swap1\n      pop\n        /* \"#utility.yul\":9460:9509   */\n    tag_192:\n        /* \"#utility.yul\":9522:9602   */\n      tag_193\n        /* \"#utility.yul\":9578:9600   */\n      tag_194\n        /* \"#utility.yul\":9596:9599   */\n      dup6\n        /* \"#utility.yul\":9578:9600   */\n      tag_68\n      jump\t// in\n    tag_194:\n        /* \"#utility.yul\":9568:9576   */\n      dup4\n        /* \"#utility.yul\":9564:9601   */\n      add\n        /* \"#utility.yul\":9551:9562   */\n      dup3\n        /* \"#utility.yul\":9522:9602   */\n      tag_77\n      jump\t// in\n    tag_193:\n        /* \"#utility.yul\":9181:9612   */\n      pop\n      pop\n        /* \"#utility.yul\":9166:9612   */\n    tag_189:\n        /* \"#utility.yul\":9076:9619   */\n      pop\n      pop\n      pop\n      jump\t// out\n        /* \"#utility.yul\":9625:9742   */\n    tag_79:\n        /* \"#utility.yul\":9679:9687   */\n      0x00\n        /* \"#utility.yul\":9729:9734   */\n      dup3\n        /* \"#utility.yul\":9723:9727   */\n      dup3\n        /* \"#utility.yul\":9719:9735   */\n      shr\n        /* \"#utility.yul\":9698:9735   */\n      swap1\n      pop\n        /* \"#utility.yul\":9625:9742   */\n      swap3\n      swap2\n      pop\n      pop\n      jump\t// out\n        /* \"#utility.yul\":9748:9917   */\n    tag_80:\n        /* \"#utility.yul\":9792:9798   */\n      0x00\n        /* \"#utility.yul\":9825:9876   */\n      tag_197\n        /* \"#utility.yul\":9873:9874   */\n      0x00\n        /* \"#utility.yul\":9869:9875   */\n      not\n        /* \"#utility.yul\":9861:9866   */\n      dup5\n        /* \"#utility.yul\":9858:9859   */\n      0x08\n        /* \"#utility.yul\":9854:9867   */\n      mul\n        /* \"#utility.yul\":9825:9876   */\n      tag_79\n      jump\t// in\n    tag_197:\n        /* \"#utility.yul\":9821:9877   */\n      not\n        /* \"#utility.yul\":9906:9910   */\n      dup1\n        /* \"#utility.yul\":9900:9904   */\n      dup4\n        /* \"#utility.yul\":9896:9911   */\n      and\n        /* \"#utility.yul\":9886:9911   */\n      swap2\n      pop\n        /* \"#utility.yul\":9799:9917   */\n      pop\n        /* \"#utility.yul\":9748:9917   */\n      swap3\n      swap2\n      pop\n      pop\n      jump\t// out\n        /* \"#utility.yul\":9922:10217   */\n    tag_81:\n        /* \"#utility.yul\":9998:10002   */\n      0x00\n        /* \"#utility.yul\":10144:10173   */\n      tag_199\n        /* \"#utility.yul\":10169:10172   */\n      dup4\n        /* \"#utility.yul\":10163:10167   */\n      dup4\n        /* \"#utility.yul\":10144:10173   */\n      tag_80\n      jump\t// in\n    tag_199:\n        /* \"#utility.yul\":10136:10173   */\n      swap2\n      pop\n        /* \"#utility.yul\":10206:10209   */\n      dup3\n        /* \"#utility.yul\":10203:10204   */\n      0x02\n        /* \"#utility.yul\":10199:10210   */\n      mul\n        /* \"#utility.yul\":10193:10197   */\n      dup3\n        /* \"#utility.yul\":10190:10211   */\n      or\n        /* \"#utility.yul\":10182:10211   */\n      swap1\n      pop\n        /* \"#utility.yul\":9922:10217   */\n      swap3\n      swap2\n      pop\n      pop\n      jump\t// out\n        /* \"#utility.yul\":10222:11617   */\n    tag_37:\n        /* \"#utility.yul\":10339:10376   */\n      tag_201\n        /* \"#utility.yul\":10372:10375   */\n      dup3\n        /* \"#utility.yul\":10339:10376   */\n      tag_47\n      jump\t// in\n    tag_201:\n        /* \"#utility.yul\":10441:10459   */\n      0xffffffffffffffff\n        /* \"#utility.yul\":10433:10439   */\n      dup2\n        /* \"#utility.yul\":10430:10460   */\n      gt\n        /* \"#utility.yul\":10427:10483   */\n      iszero\n      tag_202\n      jumpi\n        /* \"#utility.yul\":10463:10481   */\n      tag_203\n      tag_58\n      jump\t// in\n    tag_203:\n        /* \"#utility.yul\":10427:10483   */\n    tag_202:\n        /* \"#utility.yul\":10507:10545   */\n      tag_204\n        /* \"#utility.yul\":10539:10543   */\n      dup3\n        /* \"#utility.yul\":10533:10544   */\n      sload\n        /* \"#utility.yul\":10507:10545   */\n      tag_22\n      jump\t// in\n    tag_204:\n        /* \"#utility.yul\":10592:10659   */\n      tag_205\n        /* \"#utility.yul\":10652:10658   */\n      dup3\n        /* \"#utility.yul\":10644:10650   */\n      dup3\n        /* \"#utility.yul\":10638:10642   */\n      dup6\n        /* \"#utility.yul\":10592:10659   */\n      tag_78\n      jump\t// in\n    tag_205:\n        /* \"#utility.yul\":10686:10687   */\n      0x00\n        /* \"#utility.yul\":10710:10714   */\n      0x20\n        /* \"#utility.yul\":10697:10714   */\n      swap1\n      pop\n        /* \"#utility.yul\":10742:10744   */\n      0x1f\n        /* \"#utility.yul\":10734:10740   */\n      dup4\n        /* \"#utility.yul\":10731:10745   */\n      gt\n        /* \"#utility.yul\":10759:10760   */\n      0x01\n        /* \"#utility.yul\":10754:11372   */\n      dup2\n      eq\n      tag_207\n      jumpi\n        /* \"#utility.yul\":11416:11417   */\n      0x00\n        /* \"#utility.yul\":11433:11439   */\n      dup5\n        /* \"#utility.yul\":11430:11507   */\n      iszero\n      tag_208\n      jumpi\n        /* \"#utility.yul\":11482:11491   */\n      dup3\n        /* \"#utility.yul\":11477:11480   */\n      dup8\n        /* \"#utility.yul\":11473:11492   */\n      add\n        /* \"#utility.yul\":11467:11493   */\n      mload\n        /* \"#utility.yul\":11458:11493   */\n      swap1\n      pop\n        /* \"#utility.yul\":11430:11507   */\n    tag_208:\n        /* \"#utility.yul\":11533:11600   */\n      tag_209\n        /* \"#utility.yul\":11593:11599   */\n      dup6\n        /* \"#utility.yul\":11586:11591   */\n      dup3\n        /* \"#utility.yul\":11533:11600   */\n      tag_81\n      jump\t// in\n    tag_209:\n        /* \"#utility.yul\":11527:11531   */\n      dup7\n        /* \"#utility.yul\":11520:11601   */\n      sstore\n        /* \"#utility.yul\":11389:11611   */\n      pop\n        /* \"#utility.yul\":10724:11611   */\n      jump(tag_206)\n        /* \"#utility.yul\":10754:11372   */\n    tag_207:\n        /* \"#utility.yul\":10806:10810   */\n      0x1f\n        /* \"#utility.yul\":10802:10811   */\n      not\n        /* \"#utility.yul\":10794:10800   */\n      dup5\n        /* \"#utility.yul\":10790:10812   */\n      and\n        /* \"#utility.yul\":10840:10877   */\n      tag_210\n        /* \"#utility.yul\":10872:10876   */\n      dup7\n        /* \"#utility.yul\":10840:10877   */\n      tag_67\n      jump\t// in\n    tag_210:\n        /* \"#utility.yul\":10899:10900   */\n      0x00\n        /* \"#utility.yul\":10913:11121   */\n    tag_211:\n        /* \"#utility.yul\":10927:10934   */\n      dup3\n        /* \"#utility.yul\":10924:10925   */\n      dup2\n        /* \"#utility.yul\":10921:10935   */\n      lt\n        /* \"#utility.yul\":10913:11121   */\n      iszero\n      tag_213\n      jumpi\n        /* \"#utility.yul\":11006:11015   */\n      dup5\n        /* \"#utility.yul\":11001:11004   */\n      dup10\n        /* \"#utility.yul\":10997:11016   */\n      add\n        /* \"#utility.yul\":10991:11017   */\n      mload\n        /* \"#utility.yul\":10983:10989   */\n      dup3\n        /* \"#utility.yul\":10976:11018   */\n      sstore\n        /* \"#utility.yul\":11057:11058   */\n      0x01\n        /* \"#utility.yul\":11049:11055   */\n      dup3\n        /* \"#utility.yul\":11045:11059   */\n      add\n        /* \"#utility.yul\":11035:11059   */\n      swap2\n      pop\n        /* \"#utility.yul\":11104:11106   */\n      0x20\n        /* \"#utility.yul\":11093:11102   */\n      dup6\n        /* \"#utility.yul\":11089:11107   */\n      add\n        /* \"#utility.yul\":11076:11107   */\n      swap5\n      pop\n        /* \"#utility.yul\":10950:10954   */\n      0x20\n        /* \"#utility.yul\":10947:10948   */\n      dup2\n        /* \"#utility.yul\":10943:10955   */\n      add\n        /* \"#utility.yul\":10938:10955   */\n      swap1\n      pop\n        /* \"#utility.yul\":10913:11121   */\n      jump(tag_211)\n    tag_213:\n        /* \"#utility.yul\":11149:11155   */\n      dup7\n        /* \"#utility.yul\":11140:11147   */\n      dup4\n        /* \"#utility.yul\":11137:11156   */\n      lt\n        /* \"#utility.yul\":11134:11313   */\n      iszero\n      tag_214\n      jumpi\n        /* \"#utility.yul\":11207:11216   */\n      dup5\n        /* \"#utility.yul\":11202:11205   */\n      dup10\n        /* \"#utility.yul\":11198:11217   */\n      add\n        /* \"#utility.yul\":11192:11218   */\n      mload\n        /* \"#utility.yul\":11250:11298   */\n      tag_215\n        /* \"#utility.yul\":11292:11296   */\n      0x1f\n        /* \"#utility.yul\":11284:11290   */\n      dup10\n        /* \"#utility.yul\":11280:11297   */\n      and\n        /* \"#utility.yul\":11269:11278   */\n      dup3\n        /* \"#utility.yul\":11250:11298   */\n      tag_80\n      jump\t// in\n    tag_215:\n        /* \"#utility.yul\":11242:11248   */\n      dup4\n        /* \"#utility.yul\":11235:11299   */\n      sstore\n        /* \"#utility.yul\":11157:11313   */\n      pop\n        /* \"#utility.yul\":11134:11313   */\n    tag_214:\n        /* \"#utility.yul\":11359:11360   */\n      0x01\n        /* \"#utility.yul\":11355:11356   */\n      0x02\n        /* \"#utility.yul\":11347:11353   */\n      dup9\n        /* \"#utility.yul\":11343:11357   */\n      mul\n        /* \"#utility.yul\":11339:11361   */\n      add\n        /* \"#utility.yul\":11333:11337   */\n      dup9\n        /* \"#utility.yul\":11326:11362   */\n      sstore\n        /* \"#utility.yul\":10761:11372   */\n      pop\n      pop\n      pop\n        /* \"#utility.yul\":10724:11611   */\n    tag_206:\n      pop\n        /* \"#utility.yul\":10314:11617   */\n      pop\n      pop\n      pop\n        /* \"#utility.yul\":10222:11617   */\n      pop\n      pop\n      jump\t// out\n        /* \"#utility.yul\":11623:12137   */\n    tag_40:\n        /* \"#utility.yul\":11784:11788   */\n      0x00\n        /* \"#utility.yul\":11822:11824   */\n      0x40\n        /* \"#utility.yul\":11811:11820   */\n      dup3\n        /* \"#utility.yul\":11807:11825   */\n      add\n        /* \"#utility.yul\":11799:11825   */\n      swap1\n      pop\n        /* \"#utility.yul\":11871:11880   */\n      dup2\n        /* \"#utility.yul\":11865:11869   */\n      dup2\n        /* \"#utility.yul\":11861:11881   */\n      sub\n        /* \"#utility.yul\":11857:11858   */\n      0x00\n        /* \"#utility.yul\":11846:11855   */\n      dup4\n        /* \"#utility.yul\":11842:11859   */\n      add\n        /* \"#utility.yul\":11835:11882   */\n      mstore\n        /* \"#utility.yul\":11899:11977   */\n      tag_217\n        /* \"#utility.yul\":11972:11976   */\n      dup2\n        /* \"#utility.yul\":11963:11969   */\n      dup6\n        /* \"#utility.yul\":11899:11977   */\n      tag_51\n      jump\t// in\n    tag_217:\n        /* \"#utility.yul\":11891:11977   */\n      swap1\n      pop\n        /* \"#utility.yul\":12024:12033   */\n      dup2\n        /* \"#utility.yul\":12018:12022   */\n      dup2\n        /* \"#utility.yul\":12014:12034   */\n      sub\n        /* \"#utility.yul\":12009:12011   */\n      0x20\n        /* \"#utility.yul\":11998:12007   */\n      dup4\n        /* \"#utility.yul\":11994:12012   */\n      add\n        /* \"#utility.yul\":11987:12035   */\n      mstore\n        /* \"#utility.yul\":12052:12130   */\n      tag_218\n        /* \"#utility.yul\":12125:12129   */\n      dup2\n        /* \"#utility.yul\":12116:12122   */\n      dup5\n        /* \"#utility.yul\":12052:12130   */\n      tag_51\n      jump\t// in\n    tag_218:\n        /* \"#utility.yul\":12044:12130   */\n      swap1\n      pop\n        /* \"#utility.yul\":11623:12137   */\n      swap4\n      swap3\n      pop\n      pop\n      pop\n      jump\t// out\n\n    auxdata: 0xa26469706673582212202f08b9c26216228265f709894e38d80b1952ac9987c194c96eb61cc68081bb8764736f6c634300081a0033\n}\n",
				"bytecode": {
					"linkReferences": {},
					"object": "6080604052348015600e575f80fd5b50610a928061001c5f395ff3fe608060405234801561000f575f80fd5b506004361061003f575f3560e01c80632bfda31314610043578063bab50cc914610076578063ed79172414610094575b5f80fd5b61005d600480360381019061005891906103f5565b6100b0565b60405161006d94939291906104de565b60405180910390f35b61007e610274565b60405161008b919061052f565b60405180910390f35b6100ae60048036038101906100a99190610674565b61027d565b005b6060805f805f805f8781526020019081526020015f206040518060800160405290815f820180546100e090610717565b80601f016020809104026020016040519081016040528092919081815260200182805461010c90610717565b80156101575780601f1061012e57610100808354040283529160200191610157565b820191905f5260205f20905b81548152906001019060200180831161013a57829003601f168201915b5050505050815260200160018201805461017090610717565b80601f016020809104026020016040519081016040528092919081815260200182805461019c90610717565b80156101e75780601f106101be576101008083540402835291602001916101e7565b820191905f5260205f20905b8154815290600101906020018083116101ca57829003601f168201915b50505050508152602001600282015f9054906101000a900473ffffffffffffffffffffffffffffffffffffffff1673ffffffffffffffffffffffffffffffffffffffff1673ffffffffffffffffffffffffffffffffffffffff1681526020016003820154815250509050805f01518160200151826040015183606001519450945094509450509193509193565b5f600154905090565b60015f81548092919061028f90610774565b919050555060405180608001604052808381526020018281526020013373ffffffffffffffffffffffffffffffffffffffff168152602001428152505f8060015481526020019081526020015f205f820151815f0190816102f09190610958565b5060208201518160010190816103069190610958565b506040820151816002015f6101000a81548173ffffffffffffffffffffffffffffffffffffffff021916908373ffffffffffffffffffffffffffffffffffffffff160217905550606082015181600301559050503373ffffffffffffffffffffffffffffffffffffffff166001547f97d65ebcaa12f0989ad1ca46b9105bf87802c4c3c3fb4cab5d64fc828476217584846040516103a5929190610a27565b60405180910390a35050565b5f604051905090565b5f80fd5b5f80fd5b5f819050919050565b6103d4816103c2565b81146103de575f80fd5b50565b5f813590506103ef816103cb565b92915050565b5f6020828403121561040a576104096103ba565b5b5f610417848285016103e1565b91505092915050565b5f81519050919050565b5f82825260208201905092915050565b8281835e5f83830152505050565b5f601f19601f8301169050919050565b5f61046282610420565b61046c818561042a565b935061047c81856020860161043a565b61048581610448565b840191505092915050565b5f73ffffffffffffffffffffffffffffffffffffffff82169050919050565b5f6104b982610490565b9050919050565b6104c9816104af565b82525050565b6104d8816103c2565b82525050565b5f6080820190508181035f8301526104f68187610458565b9050818103602083015261050a8186610458565b905061051960408301856104c0565b61052660608301846104cf565b95945050505050565b5f6020820190506105425f8301846104cf565b92915050565b5f80fd5b5f80fd5b7f4e487b71000000000000000000000000000000000000000000000000000000005f52604160045260245ffd5b61058682610448565b810181811067ffffffffffffffff821117156105a5576105a4610550565b5b80604052505050565b5f6105b76103b1565b90506105c3828261057d565b919050565b5f67ffffffffffffffff8211156105e2576105e1610550565b5b6105eb82610448565b9050602081019050919050565b828183375f83830152505050565b5f610618610613846105c8565b6105ae565b9050828152602081018484840111156106345761063361054c565b5b61063f8482856105f8565b509392505050565b5f82601f83011261065b5761065a610548565b5b813561066b848260208601610606565b91505092915050565b5f806040838503121561068a576106896103ba565b5b5f83013567ffffffffffffffff8111156106a7576106a66103be565b5b6106b385828601610647565b925050602083013567ffffffffffffffff8111156106d4576106d36103be565b5b6106e085828601610647565b9150509250929050565b7f4e487b71000000000000000000000000000000000000000000000000000000005f52602260045260245ffd5b5f600282049050600182168061072e57607f821691505b602082108103610741576107406106ea565b5b50919050565b7f4e487b71000000000000000000000000000000000000000000000000000000005f52601160045260245ffd5b5f61077e826103c2565b91507fffffffffffffffffffffffffffffffffffffffffffffffffffffffffffffffff82036107b0576107af610747565b5b600182019050919050565b5f819050815f5260205f209050919050565b5f6020601f8301049050919050565b5f82821b905092915050565b5f600883026108177fffffffffffffffffffffffffffffffffffffffffffffffffffffffffffffffff826107dc565b61082186836107dc565b95508019841693508086168417925050509392505050565b5f819050919050565b5f61085c610857610852846103c2565b610839565b6103c2565b9050919050565b5f819050919050565b61087583610842565b61088961088182610863565b8484546107e8565b825550505050565b5f90565b61089d610891565b6108a881848461086c565b505050565b5b818110156108cb576108c05f82610895565b6001810190506108ae565b5050565b601f821115610910576108e1816107bb565b6108ea846107cd565b810160208510156108f9578190505b61090d610905856107cd565b8301826108ad565b50505b505050565b5f82821c905092915050565b5f6109305f1984600802610915565b1980831691505092915050565b5f6109488383610921565b9150826002028217905092915050565b61096182610420565b67ffffffffffffffff81111561097a57610979610550565b5b6109848254610717565b61098f8282856108cf565b5f60209050601f8311600181146109c0575f84156109ae578287015190505b6109b8858261093d565b865550610a1f565b601f1984166109ce866107bb565b5f5b828110156109f5578489015182556001820191506020850194506020810190506109d0565b86831015610a125784890151610a0e601f891682610921565b8355505b6001600288020188555050505b505050505050565b5f6040820190508181035f830152610a3f8185610458565b90508181036020830152610a538184610458565b9050939250505056fea26469706673582212202f08b9c26216228265f709894e38d80b1952ac9987c194c96eb61cc68081bb8764736f6c634300081a0033",
					"opcodes": "PUSH1 0x80 PUSH1 0x40 MSTORE CALLVALUE DUP1 ISZERO PUSH1 0xE JUMPI PUSH0 DUP1 REVERT JUMPDEST POP PUSH2 0xA92 DUP1 PUSH2 0x1C PUSH0 CODECOPY PUSH0 RETURN INVALID PUSH1 0x80 PUSH1 0x40 MSTORE CALLVALUE DUP1 ISZERO PUSH2 0xF JUMPI PUSH0 DUP1 REVERT JUMPDEST POP PUSH1 0x4 CALLDATASIZE LT PUSH2 0x3F JUMPI PUSH0 CALLDATALOAD PUSH1 0xE0 SHR DUP1 PUSH4 0x2BFDA313 EQ PUSH2 0x43 JUMPI DUP1 PUSH4 0xBAB50CC9 EQ PUSH2 0x76 JUMPI DUP1 PUSH4 0xED791724 EQ PUSH2 0x94 JUMPI JUMPDEST PUSH0 DUP1 REVERT JUMPDEST PUSH2 0x5D PUSH1 0x4 DUP1 CALLDATASIZE SUB DUP2 ADD SWAP1 PUSH2 0x58 SWAP2 SWAP1 PUSH2 0x3F5 JUMP JUMPDEST PUSH2 0xB0 JUMP JUMPDEST PUSH1 0x40 MLOAD PUSH2 0x6D SWAP5 SWAP4 SWAP3 SWAP2 SWAP1 PUSH2 0x4DE JUMP JUMPDEST PUSH1 0x40 MLOAD DUP1 SWAP2 SUB SWAP1 RETURN JUMPDEST PUSH2 0x7E PUSH2 0x274 JUMP JUMPDEST PUSH1 0x40 MLOAD PUSH2 0x8B SWAP2 SWAP1 PUSH2 0x52F JUMP JUMPDEST PUSH1 0x40 MLOAD DUP1 SWAP2 SUB SWAP1 RETURN JUMPDEST PUSH2 0xAE PUSH1 0x4 DUP1 CALLDATASIZE SUB DUP2 ADD SWAP1 PUSH2 0xA9 SWAP2 SWAP1 PUSH2 0x674 JUMP JUMPDEST PUSH2 0x27D JUMP JUMPDEST STOP JUMPDEST PUSH1 0x60 DUP1 PUSH0 DUP1 PUSH0 DUP1 PUSH0 DUP8 DUP2 MSTORE PUSH1 0x20 ADD SWAP1 DUP2 MSTORE PUSH1 0x20 ADD PUSH0 KECCAK256 PUSH1 0x40 MLOAD DUP1 PUSH1 0x80 ADD PUSH1 0x40 MSTORE SWAP1 DUP2 PUSH0 DUP3 ADD DUP1 SLOAD PUSH2 0xE0 SWAP1 PUSH2 0x717 JUMP JUMPDEST DUP1 PUSH1 0x1F ADD PUSH1 0x20 DUP1 SWAP2 DIV MUL PUSH1 0x20 ADD PUSH1 0x40 MLOAD SWAP1 DUP2 ADD PUSH1 0x40 MSTORE DUP1 SWAP3 SWAP2 SWAP1 DUP2 DUP2 MSTORE PUSH1 0x20 ADD DUP3 DUP1 SLOAD PUSH2 0x10C SWAP1 PUSH2 0x717 JUMP JUMPDEST DUP1 ISZERO PUSH2 0x157 JUMPI DUP1 PUSH1 0x1F LT PUSH2 0x12E JUMPI PUSH2 0x100 DUP1 DUP4 SLOAD DIV MUL DUP4 MSTORE SWAP2 PUSH1 0x20 ADD SWAP2 PUSH2 0x157 JUMP JUMPDEST DUP3 ADD SWAP2 SWAP1 PUSH0 MSTORE PUSH1 0x20 PUSH0 KECCAK256 SWAP1 JUMPDEST DUP2 SLOAD DUP2 MSTORE SWAP1 PUSH1 0x1 ADD SWAP1 PUSH1 0x20 ADD DUP1 DUP4 GT PUSH2 0x13A JUMPI DUP3 SWAP1 SUB PUSH1 0x1F AND DUP3 ADD SWAP2 JUMPDEST POP POP POP POP POP DUP2 MSTORE PUSH1 0x20 ADD PUSH1 0x1 DUP3 ADD DUP1 SLOAD PUSH2 0x170 SWAP1 PUSH2 0x717 JUMP JUMPDEST DUP1 PUSH1 0x1F ADD PUSH1 0x20 DUP1 SWAP2 DIV MUL PUSH1 0x20 ADD PUSH1 0x40 MLOAD SWAP1 DUP2 ADD PUSH1 0x40 MSTORE DUP1 SWAP3 SWAP2 SWAP1 DUP2 DUP2 MSTORE PUSH1 0x20 ADD DUP3 DUP1 SLOAD PUSH2 0x19C SWAP1 PUSH2 0x717 JUMP JUMPDEST DUP1 ISZERO PUSH2 0x1E7 JUMPI DUP1 PUSH1 0x1F LT PUSH2 0x1BE JUMPI PUSH2 0x100 DUP1 DUP4 SLOAD DIV MUL DUP4 MSTORE SWAP2 PUSH1 0x20 ADD SWAP2 PUSH2 0x1E7 JUMP JUMPDEST DUP3 ADD SWAP2 SWAP1 PUSH0 MSTORE PUSH1 0x20 PUSH0 KECCAK256 SWAP1 JUMPDEST DUP2 SLOAD DUP2 MSTORE SWAP1 PUSH1 0x1 ADD SWAP1 PUSH1 0x20 ADD DUP1 DUP4 GT PUSH2 0x1CA JUMPI DUP3 SWAP1 SUB PUSH1 0x1F AND DUP3 ADD SWAP2 JUMPDEST POP POP POP POP POP DUP2 MSTORE PUSH1 0x20 ADD PUSH1 0x2 DUP3 ADD PUSH0 SWAP1 SLOAD SWAP1 PUSH2 0x100 EXP SWAP1 DIV PUSH20 0xFFFFFFFFFFFFFFFFFFFFFFFFFFFFFFFFFFFFFFFF AND PUSH20 0xFFFFFFFFFFFFFFFFFFFFFFFFFFFFFFFFFFFFFFFF AND PUSH20 0xFFFFFFFFFFFFFFFFFFFFFFFFFFFFFFFFFFFFFFFF AND DUP2 MSTORE PUSH1 0x20 ADD PUSH1 0x3 DUP3 ADD SLOAD DUP2 MSTORE POP POP SWAP1 POP DUP1 PUSH0 ADD MLOAD DUP2 PUSH1 0x20 ADD MLOAD DUP3 PUSH1 0x40 ADD MLOAD DUP4 PUSH1 0x60 ADD MLOAD SWAP5 POP SWAP5 POP SWAP5 POP SWAP5 POP POP SWAP2 SWAP4 POP SWAP2 SWAP4 JUMP JUMPDEST PUSH0 PUSH1 0x1 SLOAD SWAP1 POP SWAP1 JUMP JUMPDEST PUSH1 0x1 PUSH0 DUP2 SLOAD DUP1 SWAP3 SWAP2 SWAP1 PUSH2 0x28F SWAP1 PUSH2 0x774 JUMP JUMPDEST SWAP2 SWAP1 POP SSTORE POP PUSH1 0x40 MLOAD DUP1 PUSH1 0x80 ADD PUSH1 0x40 MSTORE DUP1 DUP4 DUP2 MSTORE PUSH1 0x20 ADD DUP3 DUP2 MSTORE PUSH1 0x20 ADD CALLER PUSH20 0xFFFFFFFFFFFFFFFFFFFFFFFFFFFFFFFFFFFFFFFF AND DUP2 MSTORE PUSH1 0x20 ADD TIMESTAMP DUP2 MSTORE POP PUSH0 DUP1 PUSH1 0x1 SLOAD DUP2 MSTORE PUSH1 0x20 ADD SWAP1 DUP2 MSTORE PUSH1 0x20 ADD PUSH0 KECCAK256 PUSH0 DUP3 ADD MLOAD DUP2 PUSH0 ADD SWAP1 DUP2 PUSH2 0x2F0 SWAP2 SWAP1 PUSH2 0x958 JUMP JUMPDEST POP PUSH1 0x20 DUP3 ADD MLOAD DUP2 PUSH1 0x1 ADD SWAP1 DUP2 PUSH2 0x306 SWAP2 SWAP1 PUSH2 0x958 JUMP JUMPDEST POP PUSH1 0x40 DUP3 ADD MLOAD DUP2 PUSH1 0x2 ADD PUSH0 PUSH2 0x100 EXP DUP2 SLOAD DUP2 PUSH20 0xFFFFFFFFFFFFFFFFFFFFFFFFFFFFFFFFFFFFFFFF MUL NOT AND SWAP1 DUP4 PUSH20 0xFFFFFFFFFFFFFFFFFFFFFFFFFFFFFFFFFFFFFFFF AND MUL OR SWAP1 SSTORE POP PUSH1 0x60 DUP3 ADD MLOAD DUP2 PUSH1 0x3 ADD SSTORE SWAP1 POP POP CALLER PUSH20 0xFFFFFFFFFFFFFFFFFFFFFFFFFFFFFFFFFFFFFFFF AND PUSH1 0x1 SLOAD PUSH32 0x97D65EBCAA12F0989AD1CA46B9105BF87802C4C3C3FB4CAB5D64FC8284762175 DUP5 DUP5 PUSH1 0x40 MLOAD PUSH2 0x3A5 SWAP3 SWAP2 SWAP1 PUSH2 0xA27 JUMP JUMPDEST PUSH1 0x40 MLOAD DUP1 SWAP2 SUB SWAP1 LOG3 POP POP JUMP JUMPDEST PUSH0 PUSH1 0x40 MLOAD SWAP1 POP SWAP1 JUMP JUMPDEST PUSH0 DUP1 REVERT JUMPDEST PUSH0 DUP1 REVERT JUMPDEST PUSH0 DUP2 SWAP1 POP SWAP2 SWAP1 POP JUMP JUMPDEST PUSH2 0x3D4 DUP2 PUSH2 0x3C2 JUMP JUMPDEST DUP2 EQ PUSH2 0x3DE JUMPI PUSH0 DUP1 REVERT JUMPDEST POP JUMP JUMPDEST PUSH0 DUP2 CALLDATALOAD SWAP1 POP PUSH2 0x3EF DUP2 PUSH2 0x3CB JUMP JUMPDEST SWAP3 SWAP2 POP POP JUMP JUMPDEST PUSH0 PUSH1 0x20 DUP3 DUP5 SUB SLT ISZERO PUSH2 0x40A JUMPI PUSH2 0x409 PUSH2 0x3BA JUMP JUMPDEST JUMPDEST PUSH0 PUSH2 0x417 DUP5 DUP3 DUP6 ADD PUSH2 0x3E1 JUMP JUMPDEST SWAP2 POP POP SWAP3 SWAP2 POP POP JUMP JUMPDEST PUSH0 DUP2 MLOAD SWAP1 POP SWAP2 SWAP1 POP JUMP JUMPDEST PUSH0 DUP3 DUP3 MSTORE PUSH1 0x20 DUP3 ADD SWAP1 POP SWAP3 SWAP2 POP POP JUMP JUMPDEST DUP3 DUP2 DUP4 MCOPY PUSH0 DUP4 DUP4 ADD MSTORE POP POP POP JUMP JUMPDEST PUSH0 PUSH1 0x1F NOT PUSH1 0x1F DUP4 ADD AND SWAP1 POP SWAP2 SWAP1 POP JUMP JUMPDEST PUSH0 PUSH2 0x462 DUP3 PUSH2 0x420 JUMP JUMPDEST PUSH2 0x46C DUP2 DUP6 PUSH2 0x42A JUMP JUMPDEST SWAP4 POP PUSH2 0x47C DUP2 DUP6 PUSH1 0x20 DUP7 ADD PUSH2 0x43A JUMP JUMPDEST PUSH2 0x485 DUP2 PUSH2 0x448 JUMP JUMPDEST DUP5 ADD SWAP2 POP POP SWAP3 SWAP2 POP POP JUMP JUMPDEST PUSH0 PUSH20 0xFFFFFFFFFFFFFFFFFFFFFFFFFFFFFFFFFFFFFFFF DUP3 AND SWAP1 POP SWAP2 SWAP1 POP JUMP JUMPDEST PUSH0 PUSH2 0x4B9 DUP3 PUSH2 0x490 JUMP JUMPDEST SWAP1 POP SWAP2 SWAP1 POP JUMP JUMPDEST PUSH2 0x4C9 DUP2 PUSH2 0x4AF JUMP JUMPDEST DUP3 MSTORE POP POP JUMP JUMPDEST PUSH2 0x4D8 DUP2 PUSH2 0x3C2 JUMP JUMPDEST DUP3 MSTORE POP POP JUMP JUMPDEST PUSH0 PUSH1 0x80 DUP3 ADD SWAP1 POP DUP2 DUP2 SUB PUSH0 DUP4 ADD MSTORE PUSH2 0x4F6 DUP2 DUP8 PUSH2 0x458 JUMP JUMPDEST SWAP1 POP DUP2 DUP2 SUB PUSH1 0x20 DUP4 ADD MSTORE PUSH2 0x50A DUP2 DUP7 PUSH2 0x458 JUMP JUMPDEST SWAP1 POP PUSH2 0x519 PUSH1 0x40 DUP4 ADD DUP6 PUSH2 0x4C0 JUMP JUMPDEST PUSH2 0x526 PUSH1 0x60 DUP4 ADD DUP5 PUSH2 0x4CF JUMP JUMPDEST SWAP6 SWAP5 POP POP POP POP POP JUMP JUMPDEST PUSH0 PUSH1 0x20 DUP3 ADD SWAP1 POP PUSH2 0x542 PUSH0 DUP4 ADD DUP5 PUSH2 0x4CF JUMP JUMPDEST SWAP3 SWAP2 POP POP JUMP JUMPDEST PUSH0 DUP1 REVERT JUMPDEST PUSH0 DUP1 REVERT JUMPDEST PUSH32 0x4E487B7100000000000000000000000000000000000000000000000000000000 PUSH0 MSTORE PUSH1 0x41 PUSH1 0x4 MSTORE PUSH1 0x24 PUSH0 REVERT JUMPDEST PUSH2 0x586 DUP3 PUSH2 0x448 JUMP JUMPDEST DUP2 ADD DUP2 DUP2 LT PUSH8 0xFFFFFFFFFFFFFFFF DUP3 GT OR ISZERO PUSH2 0x5A5 JUMPI PUSH2 0x5A4 PUSH2 0x550 JUMP JUMPDEST JUMPDEST DUP1 PUSH1 0x40 MSTORE POP POP POP JUMP JUMPDEST PUSH0 PUSH2 0x5B7 PUSH2 0x3B1 JUMP JUMPDEST SWAP1 POP PUSH2 0x5C3 DUP3 DUP3 PUSH2 0x57D JUMP JUMPDEST SWAP2 SWAP1 POP JUMP JUMPDEST PUSH0 PUSH8 0xFFFFFFFFFFFFFFFF DUP3 GT ISZERO PUSH2 0x5E2 JUMPI PUSH2 0x5E1 PUSH2 0x550 JUMP JUMPDEST JUMPDEST PUSH2 0x5EB DUP3 PUSH2 0x448 JUMP JUMPDEST SWAP1 POP PUSH1 0x20 DUP2 ADD SWAP1 POP SWAP2 SWAP1 POP JUMP JUMPDEST DUP3 DUP2 DUP4 CALLDATACOPY PUSH0 DUP4 DUP4 ADD MSTORE POP POP POP JUMP JUMPDEST PUSH0 PUSH2 0x618 PUSH2 0x613 DUP5 PUSH2 0x5C8 JUMP JUMPDEST PUSH2 0x5AE JUMP JUMPDEST SWAP1 POP DUP3 DUP2 MSTORE PUSH1 0x20 DUP2 ADD DUP5 DUP5 DUP5 ADD GT ISZERO PUSH2 0x634 JUMPI PUSH2 0x633 PUSH2 0x54C JUMP JUMPDEST JUMPDEST PUSH2 0x63F DUP5 DUP3 DUP6 PUSH2 0x5F8 JUMP JUMPDEST POP SWAP4 SWAP3 POP POP POP JUMP JUMPDEST PUSH0 DUP3 PUSH1 0x1F DUP4 ADD SLT PUSH2 0x65B JUMPI PUSH2 0x65A PUSH2 0x548 JUMP JUMPDEST JUMPDEST DUP2 CALLDATALOAD PUSH2 0x66B DUP5 DUP3 PUSH1 0x20 DUP7 ADD PUSH2 0x606 JUMP JUMPDEST SWAP2 POP POP SWAP3 SWAP2 POP POP JUMP JUMPDEST PUSH0 DUP1 PUSH1 0x40 DUP4 DUP6 SUB SLT ISZERO PUSH2 0x68A JUMPI PUSH2 0x689 PUSH2 0x3BA JUMP JUMPDEST JUMPDEST PUSH0 DUP4 ADD CALLDATALOAD PUSH8 0xFFFFFFFFFFFFFFFF DUP2 GT ISZERO PUSH2 0x6A7 JUMPI PUSH2 0x6A6 PUSH2 0x3BE JUMP JUMPDEST JUMPDEST PUSH2 0x6B3 DUP6 DUP3 DUP7 ADD PUSH2 0x647 JUMP JUMPDEST SWAP3 POP POP PUSH1 0x20 DUP4 ADD CALLDATALOAD PUSH8 0xFFFFFFFFFFFFFFFF DUP2 GT ISZERO PUSH2 0x6D4 JUMPI PUSH2 0x6D3 PUSH2 0x3BE JUMP JUMPDEST JUMPDEST PUSH2 0x6E0 DUP6 DUP3 DUP7 ADD PUSH2 0x647 JUMP JUMPDEST SWAP2 POP POP SWAP3 POP SWAP3 SWAP1 POP JUMP JUMPDEST PUSH32 0x4E487B7100000000000000000000000000000000000000000000000000000000 PUSH0 MSTORE PUSH1 0x22 PUSH1 0x4 MSTORE PUSH1 0x24 PUSH0 REVERT JUMPDEST PUSH0 PUSH1 0x2 DUP3 DIV SWAP1 POP PUSH1 0x1 DUP3 AND DUP1 PUSH2 0x72E JUMPI PUSH1 0x7F DUP3 AND SWAP2 POP JUMPDEST PUSH1 0x20 DUP3 LT DUP2 SUB PUSH2 0x741 JUMPI PUSH2 0x740 PUSH2 0x6EA JUMP JUMPDEST JUMPDEST POP SWAP2 SWAP1 POP JUMP JUMPDEST PUSH32 0x4E487B7100000000000000000000000000000000000000000000000000000000 PUSH0 MSTORE PUSH1 0x11 PUSH1 0x4 MSTORE PUSH1 0x24 PUSH0 REVERT JUMPDEST PUSH0 PUSH2 0x77E DUP3 PUSH2 0x3C2 JUMP JUMPDEST SWAP2 POP PUSH32 0xFFFFFFFFFFFFFFFFFFFFFFFFFFFFFFFFFFFFFFFFFFFFFFFFFFFFFFFFFFFFFFFF DUP3 SUB PUSH2 0x7B0 JUMPI PUSH2 0x7AF PUSH2 0x747 JUMP JUMPDEST JUMPDEST PUSH1 0x1 DUP3 ADD SWAP1 POP SWAP2 SWAP1 POP JUMP JUMPDEST PUSH0 DUP2 SWAP1 POP DUP2 PUSH0 MSTORE PUSH1 0x20 PUSH0 KECCAK256 SWAP1 POP SWAP2 SWAP1 POP JUMP JUMPDEST PUSH0 PUSH1 0x20 PUSH1 0x1F DUP4 ADD DIV SWAP1 POP SWAP2 SWAP1 POP JUMP JUMPDEST PUSH0 DUP3 DUP3 SHL SWAP1 POP SWAP3 SWAP2 POP POP JUMP JUMPDEST PUSH0 PUSH1 0x8 DUP4 MUL PUSH2 0x817 PUSH32 0xFFFFFFFFFFFFFFFFFFFFFFFFFFFFFFFFFFFFFFFFFFFFFFFFFFFFFFFFFFFFFFFF DUP3 PUSH2 0x7DC JUMP JUMPDEST PUSH2 0x821 DUP7 DUP4 PUSH2 0x7DC JUMP JUMPDEST SWAP6 POP DUP1 NOT DUP5 AND SWAP4 POP DUP1 DUP7 AND DUP5 OR SWAP3 POP POP POP SWAP4 SWAP3 POP POP POP JUMP JUMPDEST PUSH0 DUP2 SWAP1 POP SWAP2 SWAP1 POP JUMP JUMPDEST PUSH0 PUSH2 0x85C PUSH2 0x857 PUSH2 0x852 DUP5 PUSH2 0x3C2 JUMP JUMPDEST PUSH2 0x839 JUMP JUMPDEST PUSH2 0x3C2 JUMP JUMPDEST SWAP1 POP SWAP2 SWAP1 POP JUMP JUMPDEST PUSH0 DUP2 SWAP1 POP SWAP2 SWAP1 POP JUMP JUMPDEST PUSH2 0x875 DUP4 PUSH2 0x842 JUMP JUMPDEST PUSH2 0x889 PUSH2 0x881 DUP3 PUSH2 0x863 JUMP JUMPDEST DUP5 DUP5 SLOAD PUSH2 0x7E8 JUMP JUMPDEST DUP3 SSTORE POP POP POP POP JUMP JUMPDEST PUSH0 SWAP1 JUMP JUMPDEST PUSH2 0x89D PUSH2 0x891 JUMP JUMPDEST PUSH2 0x8A8 DUP2 DUP5 DUP5 PUSH2 0x86C JUMP JUMPDEST POP POP POP JUMP JUMPDEST JUMPDEST DUP2 DUP2 LT ISZERO PUSH2 0x8CB JUMPI PUSH2 0x8C0 PUSH0 DUP3 PUSH2 0x895 JUMP JUMPDEST PUSH1 0x1 DUP2 ADD SWAP1 POP PUSH2 0x8AE JUMP JUMPDEST POP POP JUMP JUMPDEST PUSH1 0x1F DUP3 GT ISZERO PUSH2 0x910 JUMPI PUSH2 0x8E1 DUP2 PUSH2 0x7BB JUMP JUMPDEST PUSH2 0x8EA DUP5 PUSH2 0x7CD JUMP JUMPDEST DUP2 ADD PUSH1 0x20 DUP6 LT ISZERO PUSH2 0x8F9 JUMPI DUP2 SWAP1 POP JUMPDEST PUSH2 0x90D PUSH2 0x905 DUP6 PUSH2 0x7CD JUMP JUMPDEST DUP4 ADD DUP3 PUSH2 0x8AD JUMP JUMPDEST POP POP JUMPDEST POP POP POP JUMP JUMPDEST PUSH0 DUP3 DUP3 SHR SWAP1 POP SWAP3 SWAP2 POP POP JUMP JUMPDEST PUSH0 PUSH2 0x930 PUSH0 NOT DUP5 PUSH1 0x8 MUL PUSH2 0x915 JUMP JUMPDEST NOT DUP1 DUP4 AND SWAP2 POP POP SWAP3 SWAP2 POP POP JUMP JUMPDEST PUSH0 PUSH2 0x948 DUP4 DUP4 PUSH2 0x921 JUMP JUMPDEST SWAP2 POP DUP3 PUSH1 0x2 MUL DUP3 OR SWAP1 POP SWAP3 SWAP2 POP POP JUMP JUMPDEST PUSH2 0x961 DUP3 PUSH2 0x420 JUMP JUMPDEST PUSH8 0xFFFFFFFFFFFFFFFF DUP2 GT ISZERO PUSH2 0x97A JUMPI PUSH2 0x979 PUSH2 0x550 JUMP JUMPDEST JUMPDEST PUSH2 0x984 DUP3 SLOAD PUSH2 0x717 JUMP JUMPDEST PUSH2 0x98F DUP3 DUP3 DUP6 PUSH2 0x8CF JUMP JUMPDEST PUSH0 PUSH1 0x20 SWAP1 POP PUSH1 0x1F DUP4 GT PUSH1 0x1 DUP2 EQ PUSH2 0x9C0 JUMPI PUSH0 DUP5 ISZERO PUSH2 0x9AE JUMPI DUP3 DUP8 ADD MLOAD SWAP1 POP JUMPDEST PUSH2 0x9B8 DUP6 DUP3 PUSH2 0x93D JUMP JUMPDEST DUP7 SSTORE POP PUSH2 0xA1F JUMP JUMPDEST PUSH1 0x1F NOT DUP5 AND PUSH2 0x9CE DUP7 PUSH2 0x7BB JUMP JUMPDEST PUSH0 JUMPDEST DUP3 DUP2 LT ISZERO PUSH2 0x9F5 JUMPI DUP5 DUP10 ADD MLOAD DUP3 SSTORE PUSH1 0x1 DUP3 ADD SWAP2 POP PUSH1 0x20 DUP6 ADD SWAP5 POP PUSH1 0x20 DUP2 ADD SWAP1 POP PUSH2 0x9D0 JUMP JUMPDEST DUP7 DUP4 LT ISZERO PUSH2 0xA12 JUMPI DUP5 DUP10 ADD MLOAD PUSH2 0xA0E PUSH1 0x1F DUP10 AND DUP3 PUSH2 0x921 JUMP JUMPDEST DUP4 SSTORE POP JUMPDEST PUSH1 0x1 PUSH1 0x2 DUP9 MUL ADD DUP9 SSTORE POP POP POP JUMPDEST POP POP POP POP POP POP JUMP JUMPDEST PUSH0 PUSH1 0x40 DUP3 ADD SWAP1 POP DUP2 DUP2 SUB PUSH0 DUP4 ADD MSTORE PUSH2 0xA3F DUP2 DUP6 PUSH2 0x458 JUMP JUMPDEST SWAP1 POP DUP2 DUP2 SUB PUSH1 0x20 DUP4 ADD MSTORE PUSH2 0xA53 DUP2 DUP5 PUSH2 0x458 JUMP JUMPDEST SWAP1 POP SWAP4 SWAP3 POP POP POP JUMP INVALID LOG2 PUSH5 0x6970667358 0x22 SLT KECCAK256 0x2F ADDMOD 0xB9 0xC2 PUSH3 0x162282 PUSH6 0xF709894E38D8 SIGNEXTEND NOT MSTORE 0xAC SWAP10 DUP8 0xC1 SWAP5 0xC9 PUSH15 0xB61CC68081BB8764736F6C63430008 BYTE STOP CALLER "
				},
				"gasEstimates": {
					"creation": {
						"codeDepositCost": "541200",
						"executionCost": "573",
						"totalCost": "541773"
					},
					"external": {
						"getFile(uint256)": "infinite",
						"getFileCount()": "2432",
						"registerFile(string,string)": "infinite"
					}
				},
				"methodIdentifiers": {
					"getFile(uint256)": "2bfda313",
					"getFileCount()": "bab50cc9",
					"registerFile(string,string)": "ed791724"
				}
			},
			"storageLayout": {
				"storage": [
					{
						"astId": 15,
						"contract": "contracts/cipherzero/ FileRegistry.sol:FileRegistry",
						"label": "files",
						"offset": 0,
						"slot": "0",
						"type": "t_mapping(t_uint256,t_struct(File)10_storage)"
					},
					{
						"astId": 17,
						"contract": "contracts/cipherzero/ FileRegistry.sol:FileRegistry",
						"label": "fileCount",
						"offset": 0,
						"slot": "1",
						"type": "t_uint256"
					}
				],
				"types": {
					"t_address": {
						"encoding": "inplace",
						"label": "address",
						"numberOfBytes": "20"
					},
					"t_mapping(t_uint256,t_struct(File)10_storage)": {
						"encoding": "mapping",
						"key": "t_uint256",
						"label": "mapping(uint256 => struct FileRegistry.File)",
						"numberOfBytes": "32",
						"value": "t_struct(File)10_storage"
					},
					"t_string_storage": {
						"encoding": "bytes",
						"label": "string",
						"numberOfBytes": "32"
					},
					"t_struct(File)10_storage": {
						"encoding": "inplace",
						"label": "struct FileRegistry.File",
						"members": [
							{
								"astId": 3,
								"contract": "contracts/cipherzero/ FileRegistry.sol:FileRegistry",
								"label": "fileName",
								"offset": 0,
								"slot": "0",
								"type": "t_string_storage"
							},
							{
								"astId": 5,
								"contract": "contracts/cipherzero/ FileRegistry.sol:FileRegistry",
								"label": "fileHash",
								"offset": 0,
								"slot": "1",
								"type": "t_string_storage"
							},
							{
								"astId": 7,
								"contract": "contracts/cipherzero/ FileRegistry.sol:FileRegistry",
								"label": "owner",
								"offset": 0,
								"slot": "2",
								"type": "t_address"
							},
							{
								"astId": 9,
								"contract": "contracts/cipherzero/ FileRegistry.sol:FileRegistry",
								"label": "timestamp",
								"offset": 0,
								"slot": "3",
								"type": "t_uint256"
							}
						],
						"numberOfBytes": "128"
					},
					"t_uint256": {
						"encoding": "inplace",
						"label": "uint256",
						"numberOfBytes": "32"
					}
				}
			},
			"userdoc": {
				"kind": "user",
				"methods": {},
				"version": 1
			}
		}
	}
}