{
	"contracts/cipherzero/contracts/Identity/DIDIntegration.sol": {
		"DIDIntegration": {
			"abi": [
				{
					"anonymous": false,
					"inputs": [
						{
							"indexed": true,
							"internalType": "address",
							"name": "user",
							"type": "address"
						},
						{
							"indexed": false,
							"internalType": "string",
							"name": "did",
							"type": "string"
						}
					],
					"name": "DIDRegistered",
					"type": "event"
				},
				{
					"inputs": [
						{
							"internalType": "address",
							"name": "",
							"type": "address"
						}
					],
					"name": "didRegistry",
					"outputs": [
						{
							"internalType": "string",
							"name": "",
							"type": "string"
						}
					],
					"stateMutability": "view",
					"type": "function"
				},
				{
					"inputs": [
						{
							"internalType": "address",
							"name": "user",
							"type": "address"
						}
					],
					"name": "getDID",
					"outputs": [
						{
							"internalType": "string",
							"name": "",
							"type": "string"
						}
					],
					"stateMutability": "view",
					"type": "function"
				},
				{
					"inputs": [
						{
							"internalType": "string",
							"name": "did",
							"type": "string"
						}
					],
					"name": "registerDID",
					"outputs": [],
					"stateMutability": "nonpayable",
					"type": "function"
				}
			],
			"devdoc": {
				"kind": "dev",
				"methods": {},
				"version": 1
			},
			"evm": {
				"assembly": "    /* \"contracts/cipherzero/contracts/Identity/DIDIntegration.sol\":58:458  contract DIDIntegration {... */\n  mstore(0x40, 0x80)\n  callvalue\n  dup1\n  iszero\n  tag_1\n  jumpi\n  0x00\n  dup1\n  revert\ntag_1:\n  pop\n  dataSize(sub_0)\n  dup1\n  dataOffset(sub_0)\n  0x00\n  codecopy\n  0x00\n  return\nstop\n\nsub_0: assembly {\n        /* \"contracts/cipherzero/contracts/Identity/DIDIntegration.sol\":58:458  contract DIDIntegration {... */\n      mstore(0x40, 0x80)\n      callvalue\n      dup1\n      iszero\n      tag_1\n      jumpi\n      0x00\n      dup1\n      revert\n    tag_1:\n      pop\n      jumpi(tag_2, lt(calldatasize, 0x04))\n      shr(0xe0, calldataload(0x00))\n      dup1\n      0x1775df09\n      eq\n      tag_3\n      jumpi\n      dup1\n      0x570810e2\n      eq\n      tag_4\n      jumpi\n      dup1\n      0xf64e30b0\n      eq\n      tag_5\n      jumpi\n    tag_2:\n      0x00\n      dup1\n      revert\n        /* \"contracts/cipherzero/contracts/Identity/DIDIntegration.sol\":88:133  mapping(address => string) public didRegistry */\n    tag_3:\n      tag_6\n      0x04\n      dup1\n      calldatasize\n      sub\n      dup2\n      add\n      swap1\n      tag_7\n      swap2\n      swap1\n      tag_8\n      jump\t// in\n    tag_7:\n      tag_9\n      jump\t// in\n    tag_6:\n      mload(0x40)\n      tag_10\n      swap2\n      swap1\n      tag_11\n      jump\t// in\n    tag_10:\n      mload(0x40)\n      dup1\n      swap2\n      sub\n      swap1\n      return\n        /* \"contracts/cipherzero/contracts/Identity/DIDIntegration.sol\":199:341  function registerDID(string calldata did) external {... */\n    tag_4:\n      tag_12\n      0x04\n      dup1\n      calldatasize\n      sub\n      dup2\n      add\n      swap1\n      tag_13\n      swap2\n      swap1\n      tag_14\n      jump\t// in\n    tag_13:\n      tag_15\n      jump\t// in\n    tag_12:\n      stop\n        /* \"contracts/cipherzero/contracts/Identity/DIDIntegration.sol\":347:456  function getDID(address user) external view returns (string memory) {... */\n    tag_5:\n      tag_16\n      0x04\n      dup1\n      calldatasize\n      sub\n      dup2\n      add\n      swap1\n      tag_17\n      swap2\n      swap1\n      tag_8\n      jump\t// in\n    tag_17:\n      tag_18\n      jump\t// in\n    tag_16:\n      mload(0x40)\n      tag_19\n      swap2\n      swap1\n      tag_11\n      jump\t// in\n    tag_19:\n      mload(0x40)\n      dup1\n      swap2\n      sub\n      swap1\n      return\n        /* \"contracts/cipherzero/contracts/Identity/DIDIntegration.sol\":88:133  mapping(address => string) public didRegistry */\n    tag_9:\n      mstore(0x20, 0x00)\n      dup1\n      0x00\n      mstore\n      keccak256(0x00, 0x40)\n      0x00\n      swap2\n      pop\n      swap1\n      pop\n      dup1\n      sload\n      tag_20\n      swap1\n      tag_21\n      jump\t// in\n    tag_20:\n      dup1\n      0x1f\n      add\n      0x20\n      dup1\n      swap2\n      div\n      mul\n      0x20\n      add\n      mload(0x40)\n      swap1\n      dup2\n      add\n      0x40\n      mstore\n      dup1\n      swap3\n      swap2\n      swap1\n      dup2\n      dup2\n      mstore\n      0x20\n      add\n      dup3\n      dup1\n      sload\n      tag_22\n      swap1\n      tag_21\n      jump\t// in\n    tag_22:\n      dup1\n      iszero\n      tag_23\n      jumpi\n      dup1\n      0x1f\n      lt\n      tag_24\n      jumpi\n      0x0100\n      dup1\n      dup4\n      sload\n      div\n      mul\n      dup4\n      mstore\n      swap2\n      0x20\n      add\n      swap2\n      jump(tag_23)\n    tag_24:\n      dup3\n      add\n      swap2\n      swap1\n      0x00\n      mstore\n      keccak256(0x00, 0x20)\n      swap1\n    tag_25:\n      dup2\n      sload\n      dup2\n      mstore\n      swap1\n      0x01\n      add\n      swap1\n      0x20\n      add\n      dup1\n      dup4\n      gt\n      tag_25\n      jumpi\n      dup3\n      swap1\n      sub\n      0x1f\n      and\n      dup3\n      add\n      swap2\n    tag_23:\n      pop\n      pop\n      pop\n      pop\n      pop\n      dup2\n      jump\t// out\n        /* \"contracts/cipherzero/contracts/Identity/DIDIntegration.sol\":199:341  function registerDID(string calldata did) external {... */\n    tag_15:\n        /* \"contracts/cipherzero/contracts/Identity/DIDIntegration.sol\":286:289  did */\n      dup2\n      dup2\n        /* \"contracts/cipherzero/contracts/Identity/DIDIntegration.sol\":260:271  didRegistry */\n      0x00\n        /* \"contracts/cipherzero/contracts/Identity/DIDIntegration.sol\":260:283  didRegistry[msg.sender] */\n      dup1\n        /* \"contracts/cipherzero/contracts/Identity/DIDIntegration.sol\":272:282  msg.sender */\n      caller\n        /* \"contracts/cipherzero/contracts/Identity/DIDIntegration.sol\":260:283  didRegistry[msg.sender] */\n      0xffffffffffffffffffffffffffffffffffffffff\n      and\n      0xffffffffffffffffffffffffffffffffffffffff\n      and\n      dup2\n      mstore\n      0x20\n      add\n      swap1\n      dup2\n      mstore\n      0x20\n      add\n      0x00\n      keccak256\n        /* \"contracts/cipherzero/contracts/Identity/DIDIntegration.sol\":260:289  didRegistry[msg.sender] = did */\n      swap2\n      dup3\n      tag_27\n      swap3\n      swap2\n      swap1\n      tag_28\n      jump\t// in\n    tag_27:\n      pop\n        /* \"contracts/cipherzero/contracts/Identity/DIDIntegration.sol\":318:328  msg.sender */\n      caller\n        /* \"contracts/cipherzero/contracts/Identity/DIDIntegration.sol\":304:334  DIDRegistered(msg.sender, did) */\n      0xffffffffffffffffffffffffffffffffffffffff\n      and\n      0xbfab59a7af78dfc896c3096604749fcee2db2e850297de42de5e6369f54bd3fb\n        /* \"contracts/cipherzero/contracts/Identity/DIDIntegration.sol\":330:333  did */\n      dup4\n      dup4\n        /* \"contracts/cipherzero/contracts/Identity/DIDIntegration.sol\":304:334  DIDRegistered(msg.sender, did) */\n      mload(0x40)\n      tag_29\n      swap3\n      swap2\n      swap1\n      tag_30\n      jump\t// in\n    tag_29:\n      mload(0x40)\n      dup1\n      swap2\n      sub\n      swap1\n      log2\n        /* \"contracts/cipherzero/contracts/Identity/DIDIntegration.sol\":199:341  function registerDID(string calldata did) external {... */\n      pop\n      pop\n      jump\t// out\n        /* \"contracts/cipherzero/contracts/Identity/DIDIntegration.sol\":347:456  function getDID(address user) external view returns (string memory) {... */\n    tag_18:\n        /* \"contracts/cipherzero/contracts/Identity/DIDIntegration.sol\":400:413  string memory */\n      0x60\n        /* \"contracts/cipherzero/contracts/Identity/DIDIntegration.sol\":432:443  didRegistry */\n      0x00\n        /* \"contracts/cipherzero/contracts/Identity/DIDIntegration.sol\":432:449  didRegistry[user] */\n      dup1\n        /* \"contracts/cipherzero/contracts/Identity/DIDIntegration.sol\":444:448  user */\n      dup4\n        /* \"contracts/cipherzero/contracts/Identity/DIDIntegration.sol\":432:449  didRegistry[user] */\n      0xffffffffffffffffffffffffffffffffffffffff\n      and\n      0xffffffffffffffffffffffffffffffffffffffff\n      and\n      dup2\n      mstore\n      0x20\n      add\n      swap1\n      dup2\n      mstore\n      0x20\n      add\n      0x00\n      keccak256\n        /* \"contracts/cipherzero/contracts/Identity/DIDIntegration.sol\":425:449  return didRegistry[user] */\n      dup1\n      sload\n      tag_32\n      swap1\n      tag_21\n      jump\t// in\n    tag_32:\n      dup1\n      0x1f\n      add\n      0x20\n      dup1\n      swap2\n      div\n      mul\n      0x20\n      add\n      mload(0x40)\n      swap1\n      dup2\n      add\n      0x40\n      mstore\n      dup1\n      swap3\n      swap2\n      swap1\n      dup2\n      dup2\n      mstore\n      0x20\n      add\n      dup3\n      dup1\n      sload\n      tag_33\n      swap1\n      tag_21\n      jump\t// in\n    tag_33:\n      dup1\n      iszero\n      tag_34\n      jumpi\n      dup1\n      0x1f\n      lt\n      tag_35\n      jumpi\n      0x0100\n      dup1\n      dup4\n      sload\n      div\n      mul\n      dup4\n      mstore\n      swap2\n      0x20\n      add\n      swap2\n      jump(tag_34)\n    tag_35:\n      dup3\n      add\n      swap2\n      swap1\n      0x00\n      mstore\n      keccak256(0x00, 0x20)\n      swap1\n    tag_36:\n      dup2\n      sload\n      dup2\n      mstore\n      swap1\n      0x01\n      add\n      swap1\n      0x20\n      add\n      dup1\n      dup4\n      gt\n      tag_36\n      jumpi\n      dup3\n      swap1\n      sub\n      0x1f\n      and\n      dup3\n      add\n      swap2\n    tag_34:\n      pop\n      pop\n      pop\n      pop\n      pop\n      swap1\n      pop\n        /* \"contracts/cipherzero/contracts/Identity/DIDIntegration.sol\":347:456  function getDID(address user) external view returns (string memory) {... */\n      swap2\n      swap1\n      pop\n      jump\t// out\n        /* \"#utility.yul\":88:205   */\n    tag_38:\n        /* \"#utility.yul\":197:198   */\n      0x00\n        /* \"#utility.yul\":194:195   */\n      dup1\n        /* \"#utility.yul\":187:199   */\n      revert\n        /* \"#utility.yul\":211:328   */\n    tag_39:\n        /* \"#utility.yul\":320:321   */\n      0x00\n        /* \"#utility.yul\":317:318   */\n      dup1\n        /* \"#utility.yul\":310:322   */\n      revert\n        /* \"#utility.yul\":334:460   */\n    tag_40:\n        /* \"#utility.yul\":371:378   */\n      0x00\n        /* \"#utility.yul\":411:453   */\n      0xffffffffffffffffffffffffffffffffffffffff\n        /* \"#utility.yul\":404:409   */\n      dup3\n        /* \"#utility.yul\":400:454   */\n      and\n        /* \"#utility.yul\":389:454   */\n      swap1\n      pop\n        /* \"#utility.yul\":334:460   */\n      swap2\n      swap1\n      pop\n      jump\t// out\n        /* \"#utility.yul\":466:562   */\n    tag_41:\n        /* \"#utility.yul\":503:510   */\n      0x00\n        /* \"#utility.yul\":532:556   */\n      tag_80\n        /* \"#utility.yul\":550:555   */\n      dup3\n        /* \"#utility.yul\":532:556   */\n      tag_40\n      jump\t// in\n    tag_80:\n        /* \"#utility.yul\":521:556   */\n      swap1\n      pop\n        /* \"#utility.yul\":466:562   */\n      swap2\n      swap1\n      pop\n      jump\t// out\n        /* \"#utility.yul\":568:690   */\n    tag_42:\n        /* \"#utility.yul\":641:665   */\n      tag_82\n        /* \"#utility.yul\":659:664   */\n      dup2\n        /* \"#utility.yul\":641:665   */\n      tag_41\n      jump\t// in\n    tag_82:\n        /* \"#utility.yul\":634:639   */\n      dup2\n        /* \"#utility.yul\":631:666   */\n      eq\n        /* \"#utility.yul\":621:684   */\n      tag_83\n      jumpi\n        /* \"#utility.yul\":680:681   */\n      0x00\n        /* \"#utility.yul\":677:678   */\n      dup1\n        /* \"#utility.yul\":670:682   */\n      revert\n        /* \"#utility.yul\":621:684   */\n    tag_83:\n        /* \"#utility.yul\":568:690   */\n      pop\n      jump\t// out\n        /* \"#utility.yul\":696:835   */\n    tag_43:\n        /* \"#utility.yul\":742:747   */\n      0x00\n        /* \"#utility.yul\":780:786   */\n      dup2\n        /* \"#utility.yul\":767:787   */\n      calldataload\n        /* \"#utility.yul\":758:787   */\n      swap1\n      pop\n        /* \"#utility.yul\":796:829   */\n      tag_85\n        /* \"#utility.yul\":823:828   */\n      dup2\n        /* \"#utility.yul\":796:829   */\n      tag_42\n      jump\t// in\n    tag_85:\n        /* \"#utility.yul\":696:835   */\n      swap3\n      swap2\n      pop\n      pop\n      jump\t// out\n        /* \"#utility.yul\":841:1170   */\n    tag_8:\n        /* \"#utility.yul\":900:906   */\n      0x00\n        /* \"#utility.yul\":949:951   */\n      0x20\n        /* \"#utility.yul\":937:946   */\n      dup3\n        /* \"#utility.yul\":928:935   */\n      dup5\n        /* \"#utility.yul\":924:947   */\n      sub\n        /* \"#utility.yul\":920:952   */\n      slt\n        /* \"#utility.yul\":917:1036   */\n      iszero\n      tag_87\n      jumpi\n        /* \"#utility.yul\":955:1034   */\n      tag_88\n      tag_38\n      jump\t// in\n    tag_88:\n        /* \"#utility.yul\":917:1036   */\n    tag_87:\n        /* \"#utility.yul\":1075:1076   */\n      0x00\n        /* \"#utility.yul\":1100:1153   */\n      tag_89\n        /* \"#utility.yul\":1145:1152   */\n      dup5\n        /* \"#utility.yul\":1136:1142   */\n      dup3\n        /* \"#utility.yul\":1125:1134   */\n      dup6\n        /* \"#utility.yul\":1121:1143   */\n      add\n        /* \"#utility.yul\":1100:1153   */\n      tag_43\n      jump\t// in\n    tag_89:\n        /* \"#utility.yul\":1090:1153   */\n      swap2\n      pop\n        /* \"#utility.yul\":1046:1163   */\n      pop\n        /* \"#utility.yul\":841:1170   */\n      swap3\n      swap2\n      pop\n      pop\n      jump\t// out\n        /* \"#utility.yul\":1176:1275   */\n    tag_44:\n        /* \"#utility.yul\":1228:1234   */\n      0x00\n        /* \"#utility.yul\":1262:1267   */\n      dup2\n        /* \"#utility.yul\":1256:1268   */\n      mload\n        /* \"#utility.yul\":1246:1268   */\n      swap1\n      pop\n        /* \"#utility.yul\":1176:1275   */\n      swap2\n      swap1\n      pop\n      jump\t// out\n        /* \"#utility.yul\":1281:1450   */\n    tag_45:\n        /* \"#utility.yul\":1365:1376   */\n      0x00\n        /* \"#utility.yul\":1399:1405   */\n      dup3\n        /* \"#utility.yul\":1394:1397   */\n      dup3\n        /* \"#utility.yul\":1387:1406   */\n      mstore\n        /* \"#utility.yul\":1439:1443   */\n      0x20\n        /* \"#utility.yul\":1434:1437   */\n      dup3\n        /* \"#utility.yul\":1430:1444   */\n      add\n        /* \"#utility.yul\":1415:1444   */\n      swap1\n      pop\n        /* \"#utility.yul\":1281:1450   */\n      swap3\n      swap2\n      pop\n      pop\n      jump\t// out\n        /* \"#utility.yul\":1456:1595   */\n    tag_46:\n        /* \"#utility.yul\":1545:1551   */\n      dup3\n        /* \"#utility.yul\":1540:1543   */\n      dup2\n        /* \"#utility.yul\":1535:1538   */\n      dup4\n        /* \"#utility.yul\":1529:1552   */\n      mcopy\n        /* \"#utility.yul\":1586:1587   */\n      0x00\n        /* \"#utility.yul\":1577:1583   */\n      dup4\n        /* \"#utility.yul\":1572:1575   */\n      dup4\n        /* \"#utility.yul\":1568:1584   */\n      add\n        /* \"#utility.yul\":1561:1588   */\n      mstore\n        /* \"#utility.yul\":1456:1595   */\n      pop\n      pop\n      pop\n      jump\t// out\n        /* \"#utility.yul\":1601:1703   */\n    tag_47:\n        /* \"#utility.yul\":1642:1648   */\n      0x00\n        /* \"#utility.yul\":1693:1695   */\n      0x1f\n        /* \"#utility.yul\":1689:1696   */\n      not\n        /* \"#utility.yul\":1684:1686   */\n      0x1f\n        /* \"#utility.yul\":1677:1682   */\n      dup4\n        /* \"#utility.yul\":1673:1687   */\n      add\n        /* \"#utility.yul\":1669:1697   */\n      and\n        /* \"#utility.yul\":1659:1697   */\n      swap1\n      pop\n        /* \"#utility.yul\":1601:1703   */\n      swap2\n      swap1\n      pop\n      jump\t// out\n        /* \"#utility.yul\":1709:2086   */\n    tag_48:\n        /* \"#utility.yul\":1797:1800   */\n      0x00\n        /* \"#utility.yul\":1825:1864   */\n      tag_95\n        /* \"#utility.yul\":1858:1863   */\n      dup3\n        /* \"#utility.yul\":1825:1864   */\n      tag_44\n      jump\t// in\n    tag_95:\n        /* \"#utility.yul\":1880:1951   */\n      tag_96\n        /* \"#utility.yul\":1944:1950   */\n      dup2\n        /* \"#utility.yul\":1939:1942   */\n      dup6\n        /* \"#utility.yul\":1880:1951   */\n      tag_45\n      jump\t// in\n    tag_96:\n        /* \"#utility.yul\":1873:1951   */\n      swap4\n      pop\n        /* \"#utility.yul\":1960:2025   */\n      tag_97\n        /* \"#utility.yul\":2018:2024   */\n      dup2\n        /* \"#utility.yul\":2013:2016   */\n      dup6\n        /* \"#utility.yul\":2006:2010   */\n      0x20\n        /* \"#utility.yul\":1999:2004   */\n      dup7\n        /* \"#utility.yul\":1995:2011   */\n      add\n        /* \"#utility.yul\":1960:2025   */\n      tag_46\n      jump\t// in\n    tag_97:\n        /* \"#utility.yul\":2050:2079   */\n      tag_98\n        /* \"#utility.yul\":2072:2078   */\n      dup2\n        /* \"#utility.yul\":2050:2079   */\n      tag_47\n      jump\t// in\n    tag_98:\n        /* \"#utility.yul\":2045:2048   */\n      dup5\n        /* \"#utility.yul\":2041:2080   */\n      add\n        /* \"#utility.yul\":2034:2080   */\n      swap2\n      pop\n        /* \"#utility.yul\":1801:2086   */\n      pop\n        /* \"#utility.yul\":1709:2086   */\n      swap3\n      swap2\n      pop\n      pop\n      jump\t// out\n        /* \"#utility.yul\":2092:2405   */\n    tag_11:\n        /* \"#utility.yul\":2205:2209   */\n      0x00\n        /* \"#utility.yul\":2243:2245   */\n      0x20\n        /* \"#utility.yul\":2232:2241   */\n      dup3\n        /* \"#utility.yul\":2228:2246   */\n      add\n        /* \"#utility.yul\":2220:2246   */\n      swap1\n      pop\n        /* \"#utility.yul\":2292:2301   */\n      dup2\n        /* \"#utility.yul\":2286:2290   */\n      dup2\n        /* \"#utility.yul\":2282:2302   */\n      sub\n        /* \"#utility.yul\":2278:2279   */\n      0x00\n        /* \"#utility.yul\":2267:2276   */\n      dup4\n        /* \"#utility.yul\":2263:2280   */\n      add\n        /* \"#utility.yul\":2256:2303   */\n      mstore\n        /* \"#utility.yul\":2320:2398   */\n      tag_100\n        /* \"#utility.yul\":2393:2397   */\n      dup2\n        /* \"#utility.yul\":2384:2390   */\n      dup5\n        /* \"#utility.yul\":2320:2398   */\n      tag_48\n      jump\t// in\n    tag_100:\n        /* \"#utility.yul\":2312:2398   */\n      swap1\n      pop\n        /* \"#utility.yul\":2092:2405   */\n      swap3\n      swap2\n      pop\n      pop\n      jump\t// out\n        /* \"#utility.yul\":2411:2528   */\n    tag_49:\n        /* \"#utility.yul\":2520:2521   */\n      0x00\n        /* \"#utility.yul\":2517:2518   */\n      dup1\n        /* \"#utility.yul\":2510:2522   */\n      revert\n        /* \"#utility.yul\":2534:2651   */\n    tag_50:\n        /* \"#utility.yul\":2643:2644   */\n      0x00\n        /* \"#utility.yul\":2640:2641   */\n      dup1\n        /* \"#utility.yul\":2633:2645   */\n      revert\n        /* \"#utility.yul\":2657:2774   */\n    tag_51:\n        /* \"#utility.yul\":2766:2767   */\n      0x00\n        /* \"#utility.yul\":2763:2764   */\n      dup1\n        /* \"#utility.yul\":2756:2768   */\n      revert\n        /* \"#utility.yul\":2794:3347   */\n    tag_52:\n        /* \"#utility.yul\":2852:2860   */\n      0x00\n        /* \"#utility.yul\":2862:2868   */\n      dup1\n        /* \"#utility.yul\":2912:2915   */\n      dup4\n        /* \"#utility.yul\":2905:2909   */\n      0x1f\n        /* \"#utility.yul\":2897:2903   */\n      dup5\n        /* \"#utility.yul\":2893:2910   */\n      add\n        /* \"#utility.yul\":2889:2916   */\n      slt\n        /* \"#utility.yul\":2879:3001   */\n      tag_105\n      jumpi\n        /* \"#utility.yul\":2920:2999   */\n      tag_106\n      tag_49\n      jump\t// in\n    tag_106:\n        /* \"#utility.yul\":2879:3001   */\n    tag_105:\n        /* \"#utility.yul\":3033:3039   */\n      dup3\n        /* \"#utility.yul\":3020:3040   */\n      calldataload\n        /* \"#utility.yul\":3010:3040   */\n      swap1\n      pop\n        /* \"#utility.yul\":3063:3081   */\n      0xffffffffffffffff\n        /* \"#utility.yul\":3055:3061   */\n      dup2\n        /* \"#utility.yul\":3052:3082   */\n      gt\n        /* \"#utility.yul\":3049:3166   */\n      iszero\n      tag_107\n      jumpi\n        /* \"#utility.yul\":3085:3164   */\n      tag_108\n      tag_50\n      jump\t// in\n    tag_108:\n        /* \"#utility.yul\":3049:3166   */\n    tag_107:\n        /* \"#utility.yul\":3199:3203   */\n      0x20\n        /* \"#utility.yul\":3191:3197   */\n      dup4\n        /* \"#utility.yul\":3187:3204   */\n      add\n        /* \"#utility.yul\":3175:3204   */\n      swap2\n      pop\n        /* \"#utility.yul\":3253:3256   */\n      dup4\n        /* \"#utility.yul\":3245:3249   */\n      0x01\n        /* \"#utility.yul\":3237:3243   */\n      dup3\n        /* \"#utility.yul\":3233:3250   */\n      mul\n        /* \"#utility.yul\":3223:3231   */\n      dup4\n        /* \"#utility.yul\":3219:3251   */\n      add\n        /* \"#utility.yul\":3216:3257   */\n      gt\n        /* \"#utility.yul\":3213:3341   */\n      iszero\n      tag_109\n      jumpi\n        /* \"#utility.yul\":3260:3339   */\n      tag_110\n      tag_51\n      jump\t// in\n    tag_110:\n        /* \"#utility.yul\":3213:3341   */\n    tag_109:\n        /* \"#utility.yul\":2794:3347   */\n      swap3\n      pop\n      swap3\n      swap1\n      pop\n      jump\t// out\n        /* \"#utility.yul\":3353:3882   */\n    tag_14:\n        /* \"#utility.yul\":3424:3430   */\n      0x00\n        /* \"#utility.yul\":3432:3438   */\n      dup1\n        /* \"#utility.yul\":3481:3483   */\n      0x20\n        /* \"#utility.yul\":3469:3478   */\n      dup4\n        /* \"#utility.yul\":3460:3467   */\n      dup6\n        /* \"#utility.yul\":3456:3479   */\n      sub\n        /* \"#utility.yul\":3452:3484   */\n      slt\n        /* \"#utility.yul\":3449:3568   */\n      iszero\n      tag_112\n      jumpi\n        /* \"#utility.yul\":3487:3566   */\n      tag_113\n      tag_38\n      jump\t// in\n    tag_113:\n        /* \"#utility.yul\":3449:3568   */\n    tag_112:\n        /* \"#utility.yul\":3635:3636   */\n      0x00\n        /* \"#utility.yul\":3624:3633   */\n      dup4\n        /* \"#utility.yul\":3620:3637   */\n      add\n        /* \"#utility.yul\":3607:3638   */\n      calldataload\n        /* \"#utility.yul\":3665:3683   */\n      0xffffffffffffffff\n        /* \"#utility.yul\":3657:3663   */\n      dup2\n        /* \"#utility.yul\":3654:3684   */\n      gt\n        /* \"#utility.yul\":3651:3768   */\n      iszero\n      tag_114\n      jumpi\n        /* \"#utility.yul\":3687:3766   */\n      tag_115\n      tag_39\n      jump\t// in\n    tag_115:\n        /* \"#utility.yul\":3651:3768   */\n    tag_114:\n        /* \"#utility.yul\":3800:3865   */\n      tag_116\n        /* \"#utility.yul\":3857:3864   */\n      dup6\n        /* \"#utility.yul\":3848:3854   */\n      dup3\n        /* \"#utility.yul\":3837:3846   */\n      dup7\n        /* \"#utility.yul\":3833:3855   */\n      add\n        /* \"#utility.yul\":3800:3865   */\n      tag_52\n      jump\t// in\n    tag_116:\n        /* \"#utility.yul\":3782:3865   */\n      swap3\n      pop\n      swap3\n      pop\n        /* \"#utility.yul\":3578:3875   */\n      pop\n        /* \"#utility.yul\":3353:3882   */\n      swap3\n      pop\n      swap3\n      swap1\n      pop\n      jump\t// out\n        /* \"#utility.yul\":3888:4068   */\n    tag_53:\n        /* \"#utility.yul\":3936:4013   */\n      0x4e487b7100000000000000000000000000000000000000000000000000000000\n        /* \"#utility.yul\":3933:3934   */\n      0x00\n        /* \"#utility.yul\":3926:4014   */\n      mstore\n        /* \"#utility.yul\":4033:4037   */\n      0x22\n        /* \"#utility.yul\":4030:4031   */\n      0x04\n        /* \"#utility.yul\":4023:4038   */\n      mstore\n        /* \"#utility.yul\":4057:4061   */\n      0x24\n        /* \"#utility.yul\":4054:4055   */\n      0x00\n        /* \"#utility.yul\":4047:4062   */\n      revert\n        /* \"#utility.yul\":4074:4394   */\n    tag_21:\n        /* \"#utility.yul\":4118:4124   */\n      0x00\n        /* \"#utility.yul\":4155:4156   */\n      0x02\n        /* \"#utility.yul\":4149:4153   */\n      dup3\n        /* \"#utility.yul\":4145:4157   */\n      div\n        /* \"#utility.yul\":4135:4157   */\n      swap1\n      pop\n        /* \"#utility.yul\":4202:4203   */\n      0x01\n        /* \"#utility.yul\":4196:4200   */\n      dup3\n        /* \"#utility.yul\":4192:4204   */\n      and\n        /* \"#utility.yul\":4223:4241   */\n      dup1\n        /* \"#utility.yul\":4213:4294   */\n      tag_119\n      jumpi\n        /* \"#utility.yul\":4279:4283   */\n      0x7f\n        /* \"#utility.yul\":4271:4277   */\n      dup3\n        /* \"#utility.yul\":4267:4284   */\n      and\n        /* \"#utility.yul\":4257:4284   */\n      swap2\n      pop\n        /* \"#utility.yul\":4213:4294   */\n    tag_119:\n        /* \"#utility.yul\":4341:4343   */\n      0x20\n        /* \"#utility.yul\":4333:4339   */\n      dup3\n        /* \"#utility.yul\":4330:4344   */\n      lt\n        /* \"#utility.yul\":4310:4328   */\n      dup2\n        /* \"#utility.yul\":4307:4345   */\n      sub\n        /* \"#utility.yul\":4304:4388   */\n      tag_120\n      jumpi\n        /* \"#utility.yul\":4360:4378   */\n      tag_121\n      tag_53\n      jump\t// in\n    tag_121:\n        /* \"#utility.yul\":4304:4388   */\n    tag_120:\n        /* \"#utility.yul\":4125:4394   */\n      pop\n        /* \"#utility.yul\":4074:4394   */\n      swap2\n      swap1\n      pop\n      jump\t// out\n        /* \"#utility.yul\":4400:4497   */\n    tag_54:\n        /* \"#utility.yul\":4459:4465   */\n      0x00\n        /* \"#utility.yul\":4487:4490   */\n      dup3\n        /* \"#utility.yul\":4477:4490   */\n      swap1\n      pop\n        /* \"#utility.yul\":4400:4497   */\n      swap3\n      swap2\n      pop\n      pop\n      jump\t// out\n        /* \"#utility.yul\":4503:4683   */\n    tag_55:\n        /* \"#utility.yul\":4551:4628   */\n      0x4e487b7100000000000000000000000000000000000000000000000000000000\n        /* \"#utility.yul\":4548:4549   */\n      0x00\n        /* \"#utility.yul\":4541:4629   */\n      mstore\n        /* \"#utility.yul\":4648:4652   */\n      0x41\n        /* \"#utility.yul\":4645:4646   */\n      0x04\n        /* \"#utility.yul\":4638:4653   */\n      mstore\n        /* \"#utility.yul\":4672:4676   */\n      0x24\n        /* \"#utility.yul\":4669:4670   */\n      0x00\n        /* \"#utility.yul\":4662:4677   */\n      revert\n        /* \"#utility.yul\":4689:4830   */\n    tag_56:\n        /* \"#utility.yul\":4738:4742   */\n      0x00\n        /* \"#utility.yul\":4761:4764   */\n      dup2\n        /* \"#utility.yul\":4753:4764   */\n      swap1\n      pop\n        /* \"#utility.yul\":4784:4787   */\n      dup2\n        /* \"#utility.yul\":4781:4782   */\n      0x00\n        /* \"#utility.yul\":4774:4788   */\n      mstore\n        /* \"#utility.yul\":4818:4822   */\n      0x20\n        /* \"#utility.yul\":4815:4816   */\n      0x00\n        /* \"#utility.yul\":4805:4823   */\n      keccak256\n        /* \"#utility.yul\":4797:4823   */\n      swap1\n      pop\n        /* \"#utility.yul\":4689:4830   */\n      swap2\n      swap1\n      pop\n      jump\t// out\n        /* \"#utility.yul\":4836:4929   */\n    tag_57:\n        /* \"#utility.yul\":4873:4879   */\n      0x00\n        /* \"#utility.yul\":4920:4922   */\n      0x20\n        /* \"#utility.yul\":4915:4917   */\n      0x1f\n        /* \"#utility.yul\":4908:4913   */\n      dup4\n        /* \"#utility.yul\":4904:4918   */\n      add\n        /* \"#utility.yul\":4900:4923   */\n      div\n        /* \"#utility.yul\":4890:4923   */\n      swap1\n      pop\n        /* \"#utility.yul\":4836:4929   */\n      swap2\n      swap1\n      pop\n      jump\t// out\n        /* \"#utility.yul\":4935:5042   */\n    tag_58:\n        /* \"#utility.yul\":4979:4987   */\n      0x00\n        /* \"#utility.yul\":5029:5034   */\n      dup3\n        /* \"#utility.yul\":5023:5027   */\n      dup3\n        /* \"#utility.yul\":5019:5035   */\n      shl\n        /* \"#utility.yul\":4998:5035   */\n      swap1\n      pop\n        /* \"#utility.yul\":4935:5042   */\n      swap3\n      swap2\n      pop\n      pop\n      jump\t// out\n        /* \"#utility.yul\":5048:5441   */\n    tag_59:\n        /* \"#utility.yul\":5117:5123   */\n      0x00\n        /* \"#utility.yul\":5167:5168   */\n      0x08\n        /* \"#utility.yul\":5155:5165   */\n      dup4\n        /* \"#utility.yul\":5151:5169   */\n      mul\n        /* \"#utility.yul\":5190:5287   */\n      tag_128\n        /* \"#utility.yul\":5220:5286   */\n      0xffffffffffffffffffffffffffffffffffffffffffffffffffffffffffffffff\n        /* \"#utility.yul\":5209:5218   */\n      dup3\n        /* \"#utility.yul\":5190:5287   */\n      tag_58\n      jump\t// in\n    tag_128:\n        /* \"#utility.yul\":5308:5347   */\n      tag_129\n        /* \"#utility.yul\":5338:5346   */\n      dup7\n        /* \"#utility.yul\":5327:5336   */\n      dup4\n        /* \"#utility.yul\":5308:5347   */\n      tag_58\n      jump\t// in\n    tag_129:\n        /* \"#utility.yul\":5296:5347   */\n      swap6\n      pop\n        /* \"#utility.yul\":5380:5384   */\n      dup1\n        /* \"#utility.yul\":5376:5385   */\n      not\n        /* \"#utility.yul\":5369:5374   */\n      dup5\n        /* \"#utility.yul\":5365:5386   */\n      and\n        /* \"#utility.yul\":5356:5386   */\n      swap4\n      pop\n        /* \"#utility.yul\":5429:5433   */\n      dup1\n        /* \"#utility.yul\":5419:5427   */\n      dup7\n        /* \"#utility.yul\":5415:5434   */\n      and\n        /* \"#utility.yul\":5408:5413   */\n      dup5\n        /* \"#utility.yul\":5405:5435   */\n      or\n        /* \"#utility.yul\":5395:5435   */\n      swap3\n      pop\n        /* \"#utility.yul\":5124:5441   */\n      pop\n      pop\n        /* \"#utility.yul\":5048:5441   */\n      swap4\n      swap3\n      pop\n      pop\n      pop\n      jump\t// out\n        /* \"#utility.yul\":5447:5524   */\n    tag_60:\n        /* \"#utility.yul\":5484:5491   */\n      0x00\n        /* \"#utility.yul\":5513:5518   */\n      dup2\n        /* \"#utility.yul\":5502:5518   */\n      swap1\n      pop\n        /* \"#utility.yul\":5447:5524   */\n      swap2\n      swap1\n      pop\n      jump\t// out\n        /* \"#utility.yul\":5530:5590   */\n    tag_61:\n        /* \"#utility.yul\":5558:5561   */\n      0x00\n        /* \"#utility.yul\":5579:5584   */\n      dup2\n        /* \"#utility.yul\":5572:5584   */\n      swap1\n      pop\n        /* \"#utility.yul\":5530:5590   */\n      swap2\n      swap1\n      pop\n      jump\t// out\n        /* \"#utility.yul\":5596:5738   */\n    tag_62:\n        /* \"#utility.yul\":5646:5655   */\n      0x00\n        /* \"#utility.yul\":5679:5732   */\n      tag_133\n        /* \"#utility.yul\":5697:5731   */\n      tag_134\n        /* \"#utility.yul\":5706:5730   */\n      tag_135\n        /* \"#utility.yul\":5724:5729   */\n      dup5\n        /* \"#utility.yul\":5706:5730   */\n      tag_60\n      jump\t// in\n    tag_135:\n        /* \"#utility.yul\":5697:5731   */\n      tag_61\n      jump\t// in\n    tag_134:\n        /* \"#utility.yul\":5679:5732   */\n      tag_60\n      jump\t// in\n    tag_133:\n        /* \"#utility.yul\":5666:5732   */\n      swap1\n      pop\n        /* \"#utility.yul\":5596:5738   */\n      swap2\n      swap1\n      pop\n      jump\t// out\n        /* \"#utility.yul\":5744:5819   */\n    tag_63:\n        /* \"#utility.yul\":5787:5790   */\n      0x00\n        /* \"#utility.yul\":5808:5813   */\n      dup2\n        /* \"#utility.yul\":5801:5813   */\n      swap1\n      pop\n        /* \"#utility.yul\":5744:5819   */\n      swap2\n      swap1\n      pop\n      jump\t// out\n        /* \"#utility.yul\":5825:6094   */\n    tag_64:\n        /* \"#utility.yul\":5935:5974   */\n      tag_138\n        /* \"#utility.yul\":5966:5973   */\n      dup4\n        /* \"#utility.yul\":5935:5974   */\n      tag_62\n      jump\t// in\n    tag_138:\n        /* \"#utility.yul\":5996:6087   */\n      tag_139\n        /* \"#utility.yul\":6045:6086   */\n      tag_140\n        /* \"#utility.yul\":6069:6085   */\n      dup3\n        /* \"#utility.yul\":6045:6086   */\n      tag_63\n      jump\t// in\n    tag_140:\n        /* \"#utility.yul\":6037:6043   */\n      dup5\n        /* \"#utility.yul\":6030:6034   */\n      dup5\n        /* \"#utility.yul\":6024:6035   */\n      sload\n        /* \"#utility.yul\":5996:6087   */\n      tag_59\n      jump\t// in\n    tag_139:\n        /* \"#utility.yul\":5990:5994   */\n      dup3\n        /* \"#utility.yul\":5983:6088   */\n      sstore\n        /* \"#utility.yul\":5901:6094   */\n      pop\n        /* \"#utility.yul\":5825:6094   */\n      pop\n      pop\n      pop\n      jump\t// out\n        /* \"#utility.yul\":6100:6173   */\n    tag_65:\n        /* \"#utility.yul\":6145:6148   */\n      0x00\n        /* \"#utility.yul\":6100:6173   */\n      swap1\n      jump\t// out\n        /* \"#utility.yul\":6179:6368   */\n    tag_66:\n        /* \"#utility.yul\":6256:6288   */\n      tag_143\n      tag_65\n      jump\t// in\n    tag_143:\n        /* \"#utility.yul\":6297:6362   */\n      tag_144\n        /* \"#utility.yul\":6355:6361   */\n      dup2\n        /* \"#utility.yul\":6347:6353   */\n      dup5\n        /* \"#utility.yul\":6341:6345   */\n      dup5\n        /* \"#utility.yul\":6297:6362   */\n      tag_64\n      jump\t// in\n    tag_144:\n        /* \"#utility.yul\":6232:6368   */\n      pop\n        /* \"#utility.yul\":6179:6368   */\n      pop\n      pop\n      jump\t// out\n        /* \"#utility.yul\":6374:6560   */\n    tag_67:\n        /* \"#utility.yul\":6434:6554   */\n    tag_146:\n        /* \"#utility.yul\":6451:6454   */\n      dup2\n        /* \"#utility.yul\":6444:6449   */\n      dup2\n        /* \"#utility.yul\":6441:6455   */\n      lt\n        /* \"#utility.yul\":6434:6554   */\n      iszero\n      tag_148\n      jumpi\n        /* \"#utility.yul\":6505:6544   */\n      tag_149\n        /* \"#utility.yul\":6542:6543   */\n      0x00\n        /* \"#utility.yul\":6535:6540   */\n      dup3\n        /* \"#utility.yul\":6505:6544   */\n      tag_66\n      jump\t// in\n    tag_149:\n        /* \"#utility.yul\":6478:6479   */\n      0x01\n        /* \"#utility.yul\":6471:6476   */\n      dup2\n        /* \"#utility.yul\":6467:6480   */\n      add\n        /* \"#utility.yul\":6458:6480   */\n      swap1\n      pop\n        /* \"#utility.yul\":6434:6554   */\n      jump(tag_146)\n    tag_148:\n        /* \"#utility.yul\":6374:6560   */\n      pop\n      pop\n      jump\t// out\n        /* \"#utility.yul\":6566:7109   */\n    tag_68:\n        /* \"#utility.yul\":6667:6669   */\n      0x1f\n        /* \"#utility.yul\":6662:6665   */\n      dup3\n        /* \"#utility.yul\":6659:6670   */\n      gt\n        /* \"#utility.yul\":6656:7102   */\n      iszero\n      tag_151\n      jumpi\n        /* \"#utility.yul\":6701:6739   */\n      tag_152\n        /* \"#utility.yul\":6733:6738   */\n      dup2\n        /* \"#utility.yul\":6701:6739   */\n      tag_56\n      jump\t// in\n    tag_152:\n        /* \"#utility.yul\":6785:6814   */\n      tag_153\n        /* \"#utility.yul\":6803:6813   */\n      dup5\n        /* \"#utility.yul\":6785:6814   */\n      tag_57\n      jump\t// in\n    tag_153:\n        /* \"#utility.yul\":6775:6783   */\n      dup2\n        /* \"#utility.yul\":6771:6815   */\n      add\n        /* \"#utility.yul\":6968:6970   */\n      0x20\n        /* \"#utility.yul\":6956:6966   */\n      dup6\n        /* \"#utility.yul\":6953:6971   */\n      lt\n        /* \"#utility.yul\":6950:6999   */\n      iszero\n      tag_154\n      jumpi\n        /* \"#utility.yul\":6989:6997   */\n      dup2\n        /* \"#utility.yul\":6974:6997   */\n      swap1\n      pop\n        /* \"#utility.yul\":6950:6999   */\n    tag_154:\n        /* \"#utility.yul\":7012:7092   */\n      tag_155\n        /* \"#utility.yul\":7068:7090   */\n      tag_156\n        /* \"#utility.yul\":7086:7089   */\n      dup6\n        /* \"#utility.yul\":7068:7090   */\n      tag_57\n      jump\t// in\n    tag_156:\n        /* \"#utility.yul\":7058:7066   */\n      dup4\n        /* \"#utility.yul\":7054:7091   */\n      add\n        /* \"#utility.yul\":7041:7052   */\n      dup3\n        /* \"#utility.yul\":7012:7092   */\n      tag_67\n      jump\t// in\n    tag_155:\n        /* \"#utility.yul\":6671:7102   */\n      pop\n      pop\n        /* \"#utility.yul\":6656:7102   */\n    tag_151:\n        /* \"#utility.yul\":6566:7109   */\n      pop\n      pop\n      pop\n      jump\t// out\n        /* \"#utility.yul\":7115:7232   */\n    tag_69:\n        /* \"#utility.yul\":7169:7177   */\n      0x00\n        /* \"#utility.yul\":7219:7224   */\n      dup3\n        /* \"#utility.yul\":7213:7217   */\n      dup3\n        /* \"#utility.yul\":7209:7225   */\n      shr\n        /* \"#utility.yul\":7188:7225   */\n      swap1\n      pop\n        /* \"#utility.yul\":7115:7232   */\n      swap3\n      swap2\n      pop\n      pop\n      jump\t// out\n        /* \"#utility.yul\":7238:7407   */\n    tag_70:\n        /* \"#utility.yul\":7282:7288   */\n      0x00\n        /* \"#utility.yul\":7315:7366   */\n      tag_159\n        /* \"#utility.yul\":7363:7364   */\n      0x00\n        /* \"#utility.yul\":7359:7365   */\n      not\n        /* \"#utility.yul\":7351:7356   */\n      dup5\n        /* \"#utility.yul\":7348:7349   */\n      0x08\n        /* \"#utility.yul\":7344:7357   */\n      mul\n        /* \"#utility.yul\":7315:7366   */\n      tag_69\n      jump\t// in\n    tag_159:\n        /* \"#utility.yul\":7311:7367   */\n      not\n        /* \"#utility.yul\":7396:7400   */\n      dup1\n        /* \"#utility.yul\":7390:7394   */\n      dup4\n        /* \"#utility.yul\":7386:7401   */\n      and\n        /* \"#utility.yul\":7376:7401   */\n      swap2\n      pop\n        /* \"#utility.yul\":7289:7407   */\n      pop\n        /* \"#utility.yul\":7238:7407   */\n      swap3\n      swap2\n      pop\n      pop\n      jump\t// out\n        /* \"#utility.yul\":7412:7707   */\n    tag_71:\n        /* \"#utility.yul\":7488:7492   */\n      0x00\n        /* \"#utility.yul\":7634:7663   */\n      tag_161\n        /* \"#utility.yul\":7659:7662   */\n      dup4\n        /* \"#utility.yul\":7653:7657   */\n      dup4\n        /* \"#utility.yul\":7634:7663   */\n      tag_70\n      jump\t// in\n    tag_161:\n        /* \"#utility.yul\":7626:7663   */\n      swap2\n      pop\n        /* \"#utility.yul\":7696:7699   */\n      dup3\n        /* \"#utility.yul\":7693:7694   */\n      0x02\n        /* \"#utility.yul\":7689:7700   */\n      mul\n        /* \"#utility.yul\":7683:7687   */\n      dup3\n        /* \"#utility.yul\":7680:7701   */\n      or\n        /* \"#utility.yul\":7672:7701   */\n      swap1\n      pop\n        /* \"#utility.yul\":7412:7707   */\n      swap3\n      swap2\n      pop\n      pop\n      jump\t// out\n        /* \"#utility.yul\":7712:9115   */\n    tag_28:\n        /* \"#utility.yul\":7836:7880   */\n      tag_163\n        /* \"#utility.yul\":7876:7879   */\n      dup4\n        /* \"#utility.yul\":7871:7874   */\n      dup4\n        /* \"#utility.yul\":7836:7880   */\n      tag_54\n      jump\t// in\n    tag_163:\n        /* \"#utility.yul\":7945:7963   */\n      0xffffffffffffffff\n        /* \"#utility.yul\":7937:7943   */\n      dup2\n        /* \"#utility.yul\":7934:7964   */\n      gt\n        /* \"#utility.yul\":7931:7987   */\n      iszero\n      tag_164\n      jumpi\n        /* \"#utility.yul\":7967:7985   */\n      tag_165\n      tag_55\n      jump\t// in\n    tag_165:\n        /* \"#utility.yul\":7931:7987   */\n    tag_164:\n        /* \"#utility.yul\":8011:8049   */\n      tag_166\n        /* \"#utility.yul\":8043:8047   */\n      dup3\n        /* \"#utility.yul\":8037:8048   */\n      sload\n        /* \"#utility.yul\":8011:8049   */\n      tag_21\n      jump\t// in\n    tag_166:\n        /* \"#utility.yul\":8096:8163   */\n      tag_167\n        /* \"#utility.yul\":8156:8162   */\n      dup3\n        /* \"#utility.yul\":8148:8154   */\n      dup3\n        /* \"#utility.yul\":8142:8146   */\n      dup6\n        /* \"#utility.yul\":8096:8163   */\n      tag_68\n      jump\t// in\n    tag_167:\n        /* \"#utility.yul\":8190:8191   */\n      0x00\n        /* \"#utility.yul\":8219:8221   */\n      0x1f\n        /* \"#utility.yul\":8211:8217   */\n      dup4\n        /* \"#utility.yul\":8208:8222   */\n      gt\n        /* \"#utility.yul\":8236:8237   */\n      0x01\n        /* \"#utility.yul\":8231:8863   */\n      dup2\n      eq\n      tag_169\n      jumpi\n        /* \"#utility.yul\":8907:8908   */\n      0x00\n        /* \"#utility.yul\":8924:8930   */\n      dup5\n        /* \"#utility.yul\":8921:9005   */\n      iszero\n      tag_170\n      jumpi\n        /* \"#utility.yul\":8980:8989   */\n      dup3\n        /* \"#utility.yul\":8975:8978   */\n      dup8\n        /* \"#utility.yul\":8971:8990   */\n      add\n        /* \"#utility.yul\":8958:8991   */\n      calldataload\n        /* \"#utility.yul\":8949:8991   */\n      swap1\n      pop\n        /* \"#utility.yul\":8921:9005   */\n    tag_170:\n        /* \"#utility.yul\":9031:9098   */\n      tag_171\n        /* \"#utility.yul\":9091:9097   */\n      dup6\n        /* \"#utility.yul\":9084:9089   */\n      dup3\n        /* \"#utility.yul\":9031:9098   */\n      tag_71\n      jump\t// in\n    tag_171:\n        /* \"#utility.yul\":9025:9029   */\n      dup7\n        /* \"#utility.yul\":9018:9099   */\n      sstore\n        /* \"#utility.yul\":8880:9109   */\n      pop\n        /* \"#utility.yul\":8201:9109   */\n      jump(tag_168)\n        /* \"#utility.yul\":8231:8863   */\n    tag_169:\n        /* \"#utility.yul\":8283:8287   */\n      0x1f\n        /* \"#utility.yul\":8279:8288   */\n      not\n        /* \"#utility.yul\":8271:8277   */\n      dup5\n        /* \"#utility.yul\":8267:8289   */\n      and\n        /* \"#utility.yul\":8317:8354   */\n      tag_172\n        /* \"#utility.yul\":8349:8353   */\n      dup7\n        /* \"#utility.yul\":8317:8354   */\n      tag_56\n      jump\t// in\n    tag_172:\n        /* \"#utility.yul\":8376:8377   */\n      0x00\n        /* \"#utility.yul\":8390:8605   */\n    tag_173:\n        /* \"#utility.yul\":8404:8411   */\n      dup3\n        /* \"#utility.yul\":8401:8402   */\n      dup2\n        /* \"#utility.yul\":8398:8412   */\n      lt\n        /* \"#utility.yul\":8390:8605   */\n      iszero\n      tag_175\n      jumpi\n        /* \"#utility.yul\":8490:8499   */\n      dup5\n        /* \"#utility.yul\":8485:8488   */\n      dup10\n        /* \"#utility.yul\":8481:8500   */\n      add\n        /* \"#utility.yul\":8468:8501   */\n      calldataload\n        /* \"#utility.yul\":8460:8466   */\n      dup3\n        /* \"#utility.yul\":8453:8502   */\n      sstore\n        /* \"#utility.yul\":8541:8542   */\n      0x01\n        /* \"#utility.yul\":8533:8539   */\n      dup3\n        /* \"#utility.yul\":8529:8543   */\n      add\n        /* \"#utility.yul\":8519:8543   */\n      swap2\n      pop\n        /* \"#utility.yul\":8588:8590   */\n      0x20\n        /* \"#utility.yul\":8577:8586   */\n      dup6\n        /* \"#utility.yul\":8573:8591   */\n      add\n        /* \"#utility.yul\":8560:8591   */\n      swap5\n      pop\n        /* \"#utility.yul\":8427:8431   */\n      0x20\n        /* \"#utility.yul\":8424:8425   */\n      dup2\n        /* \"#utility.yul\":8420:8432   */\n      add\n        /* \"#utility.yul\":8415:8432   */\n      swap1\n      pop\n        /* \"#utility.yul\":8390:8605   */\n      jump(tag_173)\n    tag_175:\n        /* \"#utility.yul\":8633:8639   */\n      dup7\n        /* \"#utility.yul\":8624:8631   */\n      dup4\n        /* \"#utility.yul\":8621:8640   */\n      lt\n        /* \"#utility.yul\":8618:8804   */\n      iszero\n      tag_176\n      jumpi\n        /* \"#utility.yul\":8698:8707   */\n      dup5\n        /* \"#utility.yul\":8693:8696   */\n      dup10\n        /* \"#utility.yul\":8689:8708   */\n      add\n        /* \"#utility.yul\":8676:8709   */\n      calldataload\n        /* \"#utility.yul\":8741:8789   */\n      tag_177\n        /* \"#utility.yul\":8783:8787   */\n      0x1f\n        /* \"#utility.yul\":8775:8781   */\n      dup10\n        /* \"#utility.yul\":8771:8788   */\n      and\n        /* \"#utility.yul\":8760:8769   */\n      dup3\n        /* \"#utility.yul\":8741:8789   */\n      tag_70\n      jump\t// in\n    tag_177:\n        /* \"#utility.yul\":8733:8739   */\n      dup4\n        /* \"#utility.yul\":8726:8790   */\n      sstore\n        /* \"#utility.yul\":8641:8804   */\n      pop\n        /* \"#utility.yul\":8618:8804   */\n    tag_176:\n        /* \"#utility.yul\":8850:8851   */\n      0x01\n        /* \"#utility.yul\":8846:8847   */\n      0x02\n        /* \"#utility.yul\":8838:8844   */\n      dup9\n        /* \"#utility.yul\":8834:8848   */\n      mul\n        /* \"#utility.yul\":8830:8852   */\n      add\n        /* \"#utility.yul\":8824:8828   */\n      dup9\n        /* \"#utility.yul\":8817:8853   */\n      sstore\n        /* \"#utility.yul\":8238:8863   */\n      pop\n      pop\n      pop\n        /* \"#utility.yul\":8201:9109   */\n    tag_168:\n      pop\n        /* \"#utility.yul\":7811:9115   */\n      pop\n      pop\n      pop\n        /* \"#utility.yul\":7712:9115   */\n      pop\n      pop\n      pop\n      jump\t// out\n        /* \"#utility.yul\":9121:9269   */\n    tag_72:\n        /* \"#utility.yul\":9219:9225   */\n      dup3\n        /* \"#utility.yul\":9214:9217   */\n      dup2\n        /* \"#utility.yul\":9209:9212   */\n      dup4\n        /* \"#utility.yul\":9196:9226   */\n      calldatacopy\n        /* \"#utility.yul\":9260:9261   */\n      0x00\n        /* \"#utility.yul\":9251:9257   */\n      dup4\n        /* \"#utility.yul\":9246:9249   */\n      dup4\n        /* \"#utility.yul\":9242:9258   */\n      add\n        /* \"#utility.yul\":9235:9262   */\n      mstore\n        /* \"#utility.yul\":9121:9269   */\n      pop\n      pop\n      pop\n      jump\t// out\n        /* \"#utility.yul\":9299:9616   */\n    tag_73:\n        /* \"#utility.yul\":9397:9400   */\n      0x00\n        /* \"#utility.yul\":9418:9489   */\n      tag_180\n        /* \"#utility.yul\":9482:9488   */\n      dup4\n        /* \"#utility.yul\":9477:9480   */\n      dup6\n        /* \"#utility.yul\":9418:9489   */\n      tag_45\n      jump\t// in\n    tag_180:\n        /* \"#utility.yul\":9411:9489   */\n      swap4\n      pop\n        /* \"#utility.yul\":9499:9555   */\n      tag_181\n        /* \"#utility.yul\":9548:9554   */\n      dup4\n        /* \"#utility.yul\":9543:9546   */\n      dup6\n        /* \"#utility.yul\":9536:9541   */\n      dup5\n        /* \"#utility.yul\":9499:9555   */\n      tag_72\n      jump\t// in\n    tag_181:\n        /* \"#utility.yul\":9580:9609   */\n      tag_182\n        /* \"#utility.yul\":9602:9608   */\n      dup4\n        /* \"#utility.yul\":9580:9609   */\n      tag_47\n      jump\t// in\n    tag_182:\n        /* \"#utility.yul\":9575:9578   */\n      dup5\n        /* \"#utility.yul\":9571:9610   */\n      add\n        /* \"#utility.yul\":9564:9610   */\n      swap1\n      pop\n        /* \"#utility.yul\":9299:9616   */\n      swap4\n      swap3\n      pop\n      pop\n      pop\n      jump\t// out\n        /* \"#utility.yul\":9622:9955   */\n    tag_30:\n        /* \"#utility.yul\":9745:9749   */\n      0x00\n        /* \"#utility.yul\":9783:9785   */\n      0x20\n        /* \"#utility.yul\":9772:9781   */\n      dup3\n        /* \"#utility.yul\":9768:9786   */\n      add\n        /* \"#utility.yul\":9760:9786   */\n      swap1\n      pop\n        /* \"#utility.yul\":9832:9841   */\n      dup2\n        /* \"#utility.yul\":9826:9830   */\n      dup2\n        /* \"#utility.yul\":9822:9842   */\n      sub\n        /* \"#utility.yul\":9818:9819   */\n      0x00\n        /* \"#utility.yul\":9807:9816   */\n      dup4\n        /* \"#utility.yul\":9803:9820   */\n      add\n        /* \"#utility.yul\":9796:9843   */\n      mstore\n        /* \"#utility.yul\":9860:9948   */\n      tag_184\n        /* \"#utility.yul\":9943:9947   */\n      dup2\n        /* \"#utility.yul\":9934:9940   */\n      dup5\n        /* \"#utility.yul\":9926:9932   */\n      dup7\n        /* \"#utility.yul\":9860:9948   */\n      tag_73\n      jump\t// in\n    tag_184:\n        /* \"#utility.yul\":9852:9948   */\n      swap1\n      pop\n        /* \"#utility.yul\":9622:9955   */\n      swap4\n      swap3\n      pop\n      pop\n      pop\n      jump\t// out\n\n    auxdata: 0xa2646970667358221220d79a2c45132210edbe78d62f05d2a6048b25b88b5ac98d6d9454b70966cbcba864736f6c634300081a0033\n}\n",
				"bytecode": {
					"linkReferences": {},
					"object": "6080604052348015600e575f80fd5b506108278061001c5f395ff3fe608060405234801561000f575f80fd5b506004361061003f575f3560e01c80631775df0914610043578063570810e214610073578063f64e30b01461008f575b5f80fd5b61005d60048036038101906100589190610327565b6100bf565b60405161006a91906103c2565b60405180910390f35b61008d60048036038101906100889190610443565b610159565b005b6100a960048036038101906100a49190610327565b6101f9565b6040516100b691906103c2565b60405180910390f35b5f602052805f5260405f205f9150905080546100da906104bb565b80601f0160208091040260200160405190810160405280929190818152602001828054610106906104bb565b80156101515780601f1061012857610100808354040283529160200191610151565b820191905f5260205f20905b81548152906001019060200180831161013457829003601f168201915b505050505081565b81815f803373ffffffffffffffffffffffffffffffffffffffff1673ffffffffffffffffffffffffffffffffffffffff1681526020019081526020015f2091826101a49291906106c8565b503373ffffffffffffffffffffffffffffffffffffffff167fbfab59a7af78dfc896c3096604749fcee2db2e850297de42de5e6369f54bd3fb83836040516101ed9291906107cf565b60405180910390a25050565b60605f808373ffffffffffffffffffffffffffffffffffffffff1673ffffffffffffffffffffffffffffffffffffffff1681526020019081526020015f208054610242906104bb565b80601f016020809104026020016040519081016040528092919081815260200182805461026e906104bb565b80156102b95780601f10610290576101008083540402835291602001916102b9565b820191905f5260205f20905b81548152906001019060200180831161029c57829003601f168201915b50505050509050919050565b5f80fd5b5f80fd5b5f73ffffffffffffffffffffffffffffffffffffffff82169050919050565b5f6102f6826102cd565b9050919050565b610306816102ec565b8114610310575f80fd5b50565b5f81359050610321816102fd565b92915050565b5f6020828403121561033c5761033b6102c5565b5b5f61034984828501610313565b91505092915050565b5f81519050919050565b5f82825260208201905092915050565b8281835e5f83830152505050565b5f601f19601f8301169050919050565b5f61039482610352565b61039e818561035c565b93506103ae81856020860161036c565b6103b78161037a565b840191505092915050565b5f6020820190508181035f8301526103da818461038a565b905092915050565b5f80fd5b5f80fd5b5f80fd5b5f8083601f840112610403576104026103e2565b5b8235905067ffffffffffffffff8111156104205761041f6103e6565b5b60208301915083600182028301111561043c5761043b6103ea565b5b9250929050565b5f8060208385031215610459576104586102c5565b5b5f83013567ffffffffffffffff811115610476576104756102c9565b5b610482858286016103ee565b92509250509250929050565b7f4e487b71000000000000000000000000000000000000000000000000000000005f52602260045260245ffd5b5f60028204905060018216806104d257607f821691505b6020821081036104e5576104e461048e565b5b50919050565b5f82905092915050565b7f4e487b71000000000000000000000000000000000000000000000000000000005f52604160045260245ffd5b5f819050815f5260205f209050919050565b5f6020601f8301049050919050565b5f82821b905092915050565b5f6008830261057e7fffffffffffffffffffffffffffffffffffffffffffffffffffffffffffffffff82610543565b6105888683610543565b95508019841693508086168417925050509392505050565b5f819050919050565b5f819050919050565b5f6105cc6105c76105c2846105a0565b6105a9565b6105a0565b9050919050565b5f819050919050565b6105e5836105b2565b6105f96105f1826105d3565b84845461054f565b825550505050565b5f90565b61060d610601565b6106188184846105dc565b505050565b5b8181101561063b576106305f82610605565b60018101905061061e565b5050565b601f8211156106805761065181610522565b61065a84610534565b81016020851015610669578190505b61067d61067585610534565b83018261061d565b50505b505050565b5f82821c905092915050565b5f6106a05f1984600802610685565b1980831691505092915050565b5f6106b88383610691565b9150826002028217905092915050565b6106d283836104eb565b67ffffffffffffffff8111156106eb576106ea6104f5565b5b6106f582546104bb565b61070082828561063f565b5f601f83116001811461072d575f841561071b578287013590505b61072585826106ad565b86555061078c565b601f19841661073b86610522565b5f5b828110156107625784890135825560018201915060208501945060208101905061073d565b8683101561077f578489013561077b601f891682610691565b8355505b6001600288020188555050505b50505050505050565b828183375f83830152505050565b5f6107ae838561035c565b93506107bb838584610795565b6107c48361037a565b840190509392505050565b5f6020820190508181035f8301526107e88184866107a3565b9050939250505056fea2646970667358221220d79a2c45132210edbe78d62f05d2a6048b25b88b5ac98d6d9454b70966cbcba864736f6c634300081a0033",
					"opcodes": "PUSH1 0x80 PUSH1 0x40 MSTORE CALLVALUE DUP1 ISZERO PUSH1 0xE JUMPI PUSH0 DUP1 REVERT JUMPDEST POP PUSH2 0x827 DUP1 PUSH2 0x1C PUSH0 CODECOPY PUSH0 RETURN INVALID PUSH1 0x80 PUSH1 0x40 MSTORE CALLVALUE DUP1 ISZERO PUSH2 0xF JUMPI PUSH0 DUP1 REVERT JUMPDEST POP PUSH1 0x4 CALLDATASIZE LT PUSH2 0x3F JUMPI PUSH0 CALLDATALOAD PUSH1 0xE0 SHR DUP1 PUSH4 0x1775DF09 EQ PUSH2 0x43 JUMPI DUP1 PUSH4 0x570810E2 EQ PUSH2 0x73 JUMPI DUP1 PUSH4 0xF64E30B0 EQ PUSH2 0x8F JUMPI JUMPDEST PUSH0 DUP1 REVERT JUMPDEST PUSH2 0x5D PUSH1 0x4 DUP1 CALLDATASIZE SUB DUP2 ADD SWAP1 PUSH2 0x58 SWAP2 SWAP1 PUSH2 0x327 JUMP JUMPDEST PUSH2 0xBF JUMP JUMPDEST PUSH1 0x40 MLOAD PUSH2 0x6A SWAP2 SWAP1 PUSH2 0x3C2 JUMP JUMPDEST PUSH1 0x40 MLOAD DUP1 SWAP2 SUB SWAP1 RETURN JUMPDEST PUSH2 0x8D PUSH1 0x4 DUP1 CALLDATASIZE SUB DUP2 ADD SWAP1 PUSH2 0x88 SWAP2 SWAP1 PUSH2 0x443 JUMP JUMPDEST PUSH2 0x159 JUMP JUMPDEST STOP JUMPDEST PUSH2 0xA9 PUSH1 0x4 DUP1 CALLDATASIZE SUB DUP2 ADD SWAP1 PUSH2 0xA4 SWAP2 SWAP1 PUSH2 0x327 JUMP JUMPDEST PUSH2 0x1F9 JUMP JUMPDEST PUSH1 0x40 MLOAD PUSH2 0xB6 SWAP2 SWAP1 PUSH2 0x3C2 JUMP JUMPDEST PUSH1 0x40 MLOAD DUP1 SWAP2 SUB SWAP1 RETURN JUMPDEST PUSH0 PUSH1 0x20 MSTORE DUP1 PUSH0 MSTORE PUSH1 0x40 PUSH0 KECCAK256 PUSH0 SWAP2 POP SWAP1 POP DUP1 SLOAD PUSH2 0xDA SWAP1 PUSH2 0x4BB JUMP JUMPDEST DUP1 PUSH1 0x1F ADD PUSH1 0x20 DUP1 SWAP2 DIV MUL PUSH1 0x20 ADD PUSH1 0x40 MLOAD SWAP1 DUP2 ADD PUSH1 0x40 MSTORE DUP1 SWAP3 SWAP2 SWAP1 DUP2 DUP2 MSTORE PUSH1 0x20 ADD DUP3 DUP1 SLOAD PUSH2 0x106 SWAP1 PUSH2 0x4BB JUMP JUMPDEST DUP1 ISZERO PUSH2 0x151 JUMPI DUP1 PUSH1 0x1F LT PUSH2 0x128 JUMPI PUSH2 0x100 DUP1 DUP4 SLOAD DIV MUL DUP4 MSTORE SWAP2 PUSH1 0x20 ADD SWAP2 PUSH2 0x151 JUMP JUMPDEST DUP3 ADD SWAP2 SWAP1 PUSH0 MSTORE PUSH1 0x20 PUSH0 KECCAK256 SWAP1 JUMPDEST DUP2 SLOAD DUP2 MSTORE SWAP1 PUSH1 0x1 ADD SWAP1 PUSH1 0x20 ADD DUP1 DUP4 GT PUSH2 0x134 JUMPI DUP3 SWAP1 SUB PUSH1 0x1F AND DUP3 ADD SWAP2 JUMPDEST POP POP POP POP POP DUP2 JUMP JUMPDEST DUP2 DUP2 PUSH0 DUP1 CALLER PUSH20 0xFFFFFFFFFFFFFFFFFFFFFFFFFFFFFFFFFFFFFFFF AND PUSH20 0xFFFFFFFFFFFFFFFFFFFFFFFFFFFFFFFFFFFFFFFF AND DUP2 MSTORE PUSH1 0x20 ADD SWAP1 DUP2 MSTORE PUSH1 0x20 ADD PUSH0 KECCAK256 SWAP2 DUP3 PUSH2 0x1A4 SWAP3 SWAP2 SWAP1 PUSH2 0x6C8 JUMP JUMPDEST POP CALLER PUSH20 0xFFFFFFFFFFFFFFFFFFFFFFFFFFFFFFFFFFFFFFFF AND PUSH32 0xBFAB59A7AF78DFC896C3096604749FCEE2DB2E850297DE42DE5E6369F54BD3FB DUP4 DUP4 PUSH1 0x40 MLOAD PUSH2 0x1ED SWAP3 SWAP2 SWAP1 PUSH2 0x7CF JUMP JUMPDEST PUSH1 0x40 MLOAD DUP1 SWAP2 SUB SWAP1 LOG2 POP POP JUMP JUMPDEST PUSH1 0x60 PUSH0 DUP1 DUP4 PUSH20 0xFFFFFFFFFFFFFFFFFFFFFFFFFFFFFFFFFFFFFFFF AND PUSH20 0xFFFFFFFFFFFFFFFFFFFFFFFFFFFFFFFFFFFFFFFF AND DUP2 MSTORE PUSH1 0x20 ADD SWAP1 DUP2 MSTORE PUSH1 0x20 ADD PUSH0 KECCAK256 DUP1 SLOAD PUSH2 0x242 SWAP1 PUSH2 0x4BB JUMP JUMPDEST DUP1 PUSH1 0x1F ADD PUSH1 0x20 DUP1 SWAP2 DIV MUL PUSH1 0x20 ADD PUSH1 0x40 MLOAD SWAP1 DUP2 ADD PUSH1 0x40 MSTORE DUP1 SWAP3 SWAP2 SWAP1 DUP2 DUP2 MSTORE PUSH1 0x20 ADD DUP3 DUP1 SLOAD PUSH2 0x26E SWAP1 PUSH2 0x4BB JUMP JUMPDEST DUP1 ISZERO PUSH2 0x2B9 JUMPI DUP1 PUSH1 0x1F LT PUSH2 0x290 JUMPI PUSH2 0x100 DUP1 DUP4 SLOAD DIV MUL DUP4 MSTORE SWAP2 PUSH1 0x20 ADD SWAP2 PUSH2 0x2B9 JUMP JUMPDEST DUP3 ADD SWAP2 SWAP1 PUSH0 MSTORE PUSH1 0x20 PUSH0 KECCAK256 SWAP1 JUMPDEST DUP2 SLOAD DUP2 MSTORE SWAP1 PUSH1 0x1 ADD SWAP1 PUSH1 0x20 ADD DUP1 DUP4 GT PUSH2 0x29C JUMPI DUP3 SWAP1 SUB PUSH1 0x1F AND DUP3 ADD SWAP2 JUMPDEST POP POP POP POP POP SWAP1 POP SWAP2 SWAP1 POP JUMP JUMPDEST PUSH0 DUP1 REVERT JUMPDEST PUSH0 DUP1 REVERT JUMPDEST PUSH0 PUSH20 0xFFFFFFFFFFFFFFFFFFFFFFFFFFFFFFFFFFFFFFFF DUP3 AND SWAP1 POP SWAP2 SWAP1 POP JUMP JUMPDEST PUSH0 PUSH2 0x2F6 DUP3 PUSH2 0x2CD JUMP JUMPDEST SWAP1 POP SWAP2 SWAP1 POP JUMP JUMPDEST PUSH2 0x306 DUP2 PUSH2 0x2EC JUMP JUMPDEST DUP2 EQ PUSH2 0x310 JUMPI PUSH0 DUP1 REVERT JUMPDEST POP JUMP JUMPDEST PUSH0 DUP2 CALLDATALOAD SWAP1 POP PUSH2 0x321 DUP2 PUSH2 0x2FD JUMP JUMPDEST SWAP3 SWAP2 POP POP JUMP JUMPDEST PUSH0 PUSH1 0x20 DUP3 DUP5 SUB SLT ISZERO PUSH2 0x33C JUMPI PUSH2 0x33B PUSH2 0x2C5 JUMP JUMPDEST JUMPDEST PUSH0 PUSH2 0x349 DUP5 DUP3 DUP6 ADD PUSH2 0x313 JUMP JUMPDEST SWAP2 POP POP SWAP3 SWAP2 POP POP JUMP JUMPDEST PUSH0 DUP2 MLOAD SWAP1 POP SWAP2 SWAP1 POP JUMP JUMPDEST PUSH0 DUP3 DUP3 MSTORE PUSH1 0x20 DUP3 ADD SWAP1 POP SWAP3 SWAP2 POP POP JUMP JUMPDEST DUP3 DUP2 DUP4 MCOPY PUSH0 DUP4 DUP4 ADD MSTORE POP POP POP JUMP JUMPDEST PUSH0 PUSH1 0x1F NOT PUSH1 0x1F DUP4 ADD AND SWAP1 POP SWAP2 SWAP1 POP JUMP JUMPDEST PUSH0 PUSH2 0x394 DUP3 PUSH2 0x352 JUMP JUMPDEST PUSH2 0x39E DUP2 DUP6 PUSH2 0x35C JUMP JUMPDEST SWAP4 POP PUSH2 0x3AE DUP2 DUP6 PUSH1 0x20 DUP7 ADD PUSH2 0x36C JUMP JUMPDEST PUSH2 0x3B7 DUP2 PUSH2 0x37A JUMP JUMPDEST DUP5 ADD SWAP2 POP POP SWAP3 SWAP2 POP POP JUMP JUMPDEST PUSH0 PUSH1 0x20 DUP3 ADD SWAP1 POP DUP2 DUP2 SUB PUSH0 DUP4 ADD MSTORE PUSH2 0x3DA DUP2 DUP5 PUSH2 0x38A JUMP JUMPDEST SWAP1 POP SWAP3 SWAP2 POP POP JUMP JUMPDEST PUSH0 DUP1 REVERT JUMPDEST PUSH0 DUP1 REVERT JUMPDEST PUSH0 DUP1 REVERT JUMPDEST PUSH0 DUP1 DUP4 PUSH1 0x1F DUP5 ADD SLT PUSH2 0x403 JUMPI PUSH2 0x402 PUSH2 0x3E2 JUMP JUMPDEST JUMPDEST DUP3 CALLDATALOAD SWAP1 POP PUSH8 0xFFFFFFFFFFFFFFFF DUP2 GT ISZERO PUSH2 0x420 JUMPI PUSH2 0x41F PUSH2 0x3E6 JUMP JUMPDEST JUMPDEST PUSH1 0x20 DUP4 ADD SWAP2 POP DUP4 PUSH1 0x1 DUP3 MUL DUP4 ADD GT ISZERO PUSH2 0x43C JUMPI PUSH2 0x43B PUSH2 0x3EA JUMP JUMPDEST JUMPDEST SWAP3 POP SWAP3 SWAP1 POP JUMP JUMPDEST PUSH0 DUP1 PUSH1 0x20 DUP4 DUP6 SUB SLT ISZERO PUSH2 0x459 JUMPI PUSH2 0x458 PUSH2 0x2C5 JUMP JUMPDEST JUMPDEST PUSH0 DUP4 ADD CALLDATALOAD PUSH8 0xFFFFFFFFFFFFFFFF DUP2 GT ISZERO PUSH2 0x476 JUMPI PUSH2 0x475 PUSH2 0x2C9 JUMP JUMPDEST JUMPDEST PUSH2 0x482 DUP6 DUP3 DUP7 ADD PUSH2 0x3EE JUMP JUMPDEST SWAP3 POP SWAP3 POP POP SWAP3 POP SWAP3 SWAP1 POP JUMP JUMPDEST PUSH32 0x4E487B7100000000000000000000000000000000000000000000000000000000 PUSH0 MSTORE PUSH1 0x22 PUSH1 0x4 MSTORE PUSH1 0x24 PUSH0 REVERT JUMPDEST PUSH0 PUSH1 0x2 DUP3 DIV SWAP1 POP PUSH1 0x1 DUP3 AND DUP1 PUSH2 0x4D2 JUMPI PUSH1 0x7F DUP3 AND SWAP2 POP JUMPDEST PUSH1 0x20 DUP3 LT DUP2 SUB PUSH2 0x4E5 JUMPI PUSH2 0x4E4 PUSH2 0x48E JUMP JUMPDEST JUMPDEST POP SWAP2 SWAP1 POP JUMP JUMPDEST PUSH0 DUP3 SWAP1 POP SWAP3 SWAP2 POP POP JUMP JUMPDEST PUSH32 0x4E487B7100000000000000000000000000000000000000000000000000000000 PUSH0 MSTORE PUSH1 0x41 PUSH1 0x4 MSTORE PUSH1 0x24 PUSH0 REVERT JUMPDEST PUSH0 DUP2 SWAP1 POP DUP2 PUSH0 MSTORE PUSH1 0x20 PUSH0 KECCAK256 SWAP1 POP SWAP2 SWAP1 POP JUMP JUMPDEST PUSH0 PUSH1 0x20 PUSH1 0x1F DUP4 ADD DIV SWAP1 POP SWAP2 SWAP1 POP JUMP JUMPDEST PUSH0 DUP3 DUP3 SHL SWAP1 POP SWAP3 SWAP2 POP POP JUMP JUMPDEST PUSH0 PUSH1 0x8 DUP4 MUL PUSH2 0x57E PUSH32 0xFFFFFFFFFFFFFFFFFFFFFFFFFFFFFFFFFFFFFFFFFFFFFFFFFFFFFFFFFFFFFFFF DUP3 PUSH2 0x543 JUMP JUMPDEST PUSH2 0x588 DUP7 DUP4 PUSH2 0x543 JUMP JUMPDEST SWAP6 POP DUP1 NOT DUP5 AND SWAP4 POP DUP1 DUP7 AND DUP5 OR SWAP3 POP POP POP SWAP4 SWAP3 POP POP POP JUMP JUMPDEST PUSH0 DUP2 SWAP1 POP SWAP2 SWAP1 POP JUMP JUMPDEST PUSH0 DUP2 SWAP1 POP SWAP2 SWAP1 POP JUMP JUMPDEST PUSH0 PUSH2 0x5CC PUSH2 0x5C7 PUSH2 0x5C2 DUP5 PUSH2 0x5A0 JUMP JUMPDEST PUSH2 0x5A9 JUMP JUMPDEST PUSH2 0x5A0 JUMP JUMPDEST SWAP1 POP SWAP2 SWAP1 POP JUMP JUMPDEST PUSH0 DUP2 SWAP1 POP SWAP2 SWAP1 POP JUMP JUMPDEST PUSH2 0x5E5 DUP4 PUSH2 0x5B2 JUMP JUMPDEST PUSH2 0x5F9 PUSH2 0x5F1 DUP3 PUSH2 0x5D3 JUMP JUMPDEST DUP5 DUP5 SLOAD PUSH2 0x54F JUMP JUMPDEST DUP3 SSTORE POP POP POP POP JUMP JUMPDEST PUSH0 SWAP1 JUMP JUMPDEST PUSH2 0x60D PUSH2 0x601 JUMP JUMPDEST PUSH2 0x618 DUP2 DUP5 DUP5 PUSH2 0x5DC JUMP JUMPDEST POP POP POP JUMP JUMPDEST JUMPDEST DUP2 DUP2 LT ISZERO PUSH2 0x63B JUMPI PUSH2 0x630 PUSH0 DUP3 PUSH2 0x605 JUMP JUMPDEST PUSH1 0x1 DUP2 ADD SWAP1 POP PUSH2 0x61E JUMP JUMPDEST POP POP JUMP JUMPDEST PUSH1 0x1F DUP3 GT ISZERO PUSH2 0x680 JUMPI PUSH2 0x651 DUP2 PUSH2 0x522 JUMP JUMPDEST PUSH2 0x65A DUP5 PUSH2 0x534 JUMP JUMPDEST DUP2 ADD PUSH1 0x20 DUP6 LT ISZERO PUSH2 0x669 JUMPI DUP2 SWAP1 POP JUMPDEST PUSH2 0x67D PUSH2 0x675 DUP6 PUSH2 0x534 JUMP JUMPDEST DUP4 ADD DUP3 PUSH2 0x61D JUMP JUMPDEST POP POP JUMPDEST POP POP POP JUMP JUMPDEST PUSH0 DUP3 DUP3 SHR SWAP1 POP SWAP3 SWAP2 POP POP JUMP JUMPDEST PUSH0 PUSH2 0x6A0 PUSH0 NOT DUP5 PUSH1 0x8 MUL PUSH2 0x685 JUMP JUMPDEST NOT DUP1 DUP4 AND SWAP2 POP POP SWAP3 SWAP2 POP POP JUMP JUMPDEST PUSH0 PUSH2 0x6B8 DUP4 DUP4 PUSH2 0x691 JUMP JUMPDEST SWAP2 POP DUP3 PUSH1 0x2 MUL DUP3 OR SWAP1 POP SWAP3 SWAP2 POP POP JUMP JUMPDEST PUSH2 0x6D2 DUP4 DUP4 PUSH2 0x4EB JUMP JUMPDEST PUSH8 0xFFFFFFFFFFFFFFFF DUP2 GT ISZERO PUSH2 0x6EB JUMPI PUSH2 0x6EA PUSH2 0x4F5 JUMP JUMPDEST JUMPDEST PUSH2 0x6F5 DUP3 SLOAD PUSH2 0x4BB JUMP JUMPDEST PUSH2 0x700 DUP3 DUP3 DUP6 PUSH2 0x63F JUMP JUMPDEST PUSH0 PUSH1 0x1F DUP4 GT PUSH1 0x1 DUP2 EQ PUSH2 0x72D JUMPI PUSH0 DUP5 ISZERO PUSH2 0x71B JUMPI DUP3 DUP8 ADD CALLDATALOAD SWAP1 POP JUMPDEST PUSH2 0x725 DUP6 DUP3 PUSH2 0x6AD JUMP JUMPDEST DUP7 SSTORE POP PUSH2 0x78C JUMP JUMPDEST PUSH1 0x1F NOT DUP5 AND PUSH2 0x73B DUP7 PUSH2 0x522 JUMP JUMPDEST PUSH0 JUMPDEST DUP3 DUP2 LT ISZERO PUSH2 0x762 JUMPI DUP5 DUP10 ADD CALLDATALOAD DUP3 SSTORE PUSH1 0x1 DUP3 ADD SWAP2 POP PUSH1 0x20 DUP6 ADD SWAP5 POP PUSH1 0x20 DUP2 ADD SWAP1 POP PUSH2 0x73D JUMP JUMPDEST DUP7 DUP4 LT ISZERO PUSH2 0x77F JUMPI DUP5 DUP10 ADD CALLDATALOAD PUSH2 0x77B PUSH1 0x1F DUP10 AND DUP3 PUSH2 0x691 JUMP JUMPDEST DUP4 SSTORE POP JUMPDEST PUSH1 0x1 PUSH1 0x2 DUP9 MUL ADD DUP9 SSTORE POP POP POP JUMPDEST POP POP POP POP POP POP POP JUMP JUMPDEST DUP3 DUP2 DUP4 CALLDATACOPY PUSH0 DUP4 DUP4 ADD MSTORE POP POP POP JUMP JUMPDEST PUSH0 PUSH2 0x7AE DUP4 DUP6 PUSH2 0x35C JUMP JUMPDEST SWAP4 POP PUSH2 0x7BB DUP4 DUP6 DUP5 PUSH2 0x795 JUMP JUMPDEST PUSH2 0x7C4 DUP4 PUSH2 0x37A JUMP JUMPDEST DUP5 ADD SWAP1 POP SWAP4 SWAP3 POP POP POP JUMP JUMPDEST PUSH0 PUSH1 0x20 DUP3 ADD SWAP1 POP DUP2 DUP2 SUB PUSH0 DUP4 ADD MSTORE PUSH2 0x7E8 DUP2 DUP5 DUP7 PUSH2 0x7A3 JUMP JUMPDEST SWAP1 POP SWAP4 SWAP3 POP POP POP JUMP INVALID LOG2 PUSH5 0x6970667358 0x22 SLT KECCAK256 0xD7 SWAP11 0x2C GASLIMIT SGT 0x22 LT 0xED 0xBE PUSH25 0xD62F05D2A6048B25B88B5AC98D6D9454B70966CBCBA864736F PUSH13 0x634300081A0033000000000000 "
				},
				"gasEstimates": {
					"creation": {
						"codeDepositCost": "417400",
						"executionCost": "453",
						"totalCost": "417853"
					},
					"external": {
						"didRegistry(address)": "infinite",
						"getDID(address)": "infinite",
						"registerDID(string)": "infinite"
					}
				},
				"methodIdentifiers": {
					"didRegistry(address)": "1775df09",
					"getDID(address)": "f64e30b0",
					"registerDID(string)": "570810e2"
				}
			},
			"storageLayout": {
				"storage": [
					{
						"astId": 5,
						"contract": "contracts/cipherzero/contracts/Identity/DIDIntegration.sol:DIDIntegration",
						"label": "didRegistry",
						"offset": 0,
						"slot": "0",
						"type": "t_mapping(t_address,t_string_storage)"
					}
				],
				"types": {
					"t_address": {
						"encoding": "inplace",
						"label": "address",
						"numberOfBytes": "20"
					},
					"t_mapping(t_address,t_string_storage)": {
						"encoding": "mapping",
						"key": "t_address",
						"label": "mapping(address => string)",
						"numberOfBytes": "32",
						"value": "t_string_storage"
					},
					"t_string_storage": {
						"encoding": "bytes",
						"label": "string",
						"numberOfBytes": "32"
					}
				}
			},
			"userdoc": {
				"kind": "user",
				"methods": {},
				"version": 1
			}
		}
	}
}