{
	"contracts/cipherzero/contracts/Identity/ReputationSystem.sol": {
		"ReputationSystem": {
			"abi": [
				{
					"anonymous": false,
					"inputs": [
						{
							"indexed": true,
							"internalType": "address",
							"name": "user",
							"type": "address"
						},
						{
							"indexed": false,
							"internalType": "uint256",
							"name": "newReputation",
							"type": "uint256"
						}
					],
					"name": "ReputationUpdated",
					"type": "event"
				},
				{
					"inputs": [
						{
							"internalType": "address",
							"name": "user",
							"type": "address"
						}
					],
					"name": "getReputation",
					"outputs": [
						{
							"internalType": "uint256",
							"name": "",
							"type": "uint256"
						}
					],
					"stateMutability": "view",
					"type": "function"
				},
				{
					"inputs": [
						{
							"internalType": "address",
							"name": "",
							"type": "address"
						}
					],
					"name": "reputation",
					"outputs": [
						{
							"internalType": "uint256",
							"name": "",
							"type": "uint256"
						}
					],
					"stateMutability": "view",
					"type": "function"
				},
				{
					"inputs": [
						{
							"internalType": "address",
							"name": "user",
							"type": "address"
						},
						{
							"internalType": "uint256",
							"name": "change",
							"type": "uint256"
						}
					],
					"name": "updateReputation",
					"outputs": [],
					"stateMutability": "nonpayable",
					"type": "function"
				}
			],
			"devdoc": {
				"kind": "dev",
				"methods": {},
				"version": 1
			},
			"evm": {
				"assembly": "    /* \"contracts/cipherzero/contracts/Identity/ReputationSystem.sol\":58:497  contract ReputationSystem {... */\n  mstore(0x40, 0x80)\n  callvalue\n  dup1\n  iszero\n  tag_1\n  jumpi\n  0x00\n  dup1\n  revert\ntag_1:\n  pop\n  dataSize(sub_0)\n  dup1\n  dataOffset(sub_0)\n  0x00\n  codecopy\n  0x00\n  return\nstop\n\nsub_0: assembly {\n        /* \"contracts/cipherzero/contracts/Identity/ReputationSystem.sol\":58:497  contract ReputationSystem {... */\n      mstore(0x40, 0x80)\n      callvalue\n      dup1\n      iszero\n      tag_1\n      jumpi\n      0x00\n      dup1\n      revert\n    tag_1:\n      pop\n      jumpi(tag_2, lt(calldatasize, 0x04))\n      shr(0xe0, calldataload(0x00))\n      dup1\n      0x9c89a0e2\n      eq\n      tag_3\n      jumpi\n      dup1\n      0xb9f79451\n      eq\n      tag_4\n      jumpi\n      dup1\n      0xf5c91a08\n      eq\n      tag_5\n      jumpi\n    tag_2:\n      0x00\n      dup1\n      revert\n        /* \"contracts/cipherzero/contracts/Identity/ReputationSystem.sol\":386:495  function getReputation(address user) external view returns (uint256) {... */\n    tag_3:\n      tag_6\n      0x04\n      dup1\n      calldatasize\n      sub\n      dup2\n      add\n      swap1\n      tag_7\n      swap2\n      swap1\n      tag_8\n      jump\t// in\n    tag_7:\n      tag_9\n      jump\t// in\n    tag_6:\n      mload(0x40)\n      tag_10\n      swap2\n      swap1\n      tag_11\n      jump\t// in\n    tag_10:\n      mload(0x40)\n      dup1\n      swap2\n      sub\n      swap1\n      return\n        /* \"contracts/cipherzero/contracts/Identity/ReputationSystem.sol\":90:135  mapping(address => uint256) public reputation */\n    tag_4:\n      tag_12\n      0x04\n      dup1\n      calldatasize\n      sub\n      dup2\n      add\n      swap1\n      tag_13\n      swap2\n      swap1\n      tag_8\n      jump\t// in\n    tag_13:\n      tag_14\n      jump\t// in\n    tag_12:\n      mload(0x40)\n      tag_15\n      swap2\n      swap1\n      tag_11\n      jump\t// in\n    tag_15:\n      mload(0x40)\n      dup1\n      swap2\n      sub\n      swap1\n      return\n        /* \"contracts/cipherzero/contracts/Identity/ReputationSystem.sol\":216:380  function updateReputation(address user, uint256 change) external {... */\n    tag_5:\n      tag_16\n      0x04\n      dup1\n      calldatasize\n      sub\n      dup2\n      add\n      swap1\n      tag_17\n      swap2\n      swap1\n      tag_18\n      jump\t// in\n    tag_17:\n      tag_19\n      jump\t// in\n    tag_16:\n      stop\n        /* \"contracts/cipherzero/contracts/Identity/ReputationSystem.sol\":386:495  function getReputation(address user) external view returns (uint256) {... */\n    tag_9:\n        /* \"contracts/cipherzero/contracts/Identity/ReputationSystem.sol\":446:453  uint256 */\n      0x00\n        /* \"contracts/cipherzero/contracts/Identity/ReputationSystem.sol\":472:482  reputation */\n      dup1\n        /* \"contracts/cipherzero/contracts/Identity/ReputationSystem.sol\":472:488  reputation[user] */\n      0x00\n        /* \"contracts/cipherzero/contracts/Identity/ReputationSystem.sol\":483:487  user */\n      dup4\n        /* \"contracts/cipherzero/contracts/Identity/ReputationSystem.sol\":472:488  reputation[user] */\n      0xffffffffffffffffffffffffffffffffffffffff\n      and\n      0xffffffffffffffffffffffffffffffffffffffff\n      and\n      dup2\n      mstore\n      0x20\n      add\n      swap1\n      dup2\n      mstore\n      0x20\n      add\n      0x00\n      keccak256\n      sload\n        /* \"contracts/cipherzero/contracts/Identity/ReputationSystem.sol\":465:488  return reputation[user] */\n      swap1\n      pop\n        /* \"contracts/cipherzero/contracts/Identity/ReputationSystem.sol\":386:495  function getReputation(address user) external view returns (uint256) {... */\n      swap2\n      swap1\n      pop\n      jump\t// out\n        /* \"contracts/cipherzero/contracts/Identity/ReputationSystem.sol\":90:135  mapping(address => uint256) public reputation */\n    tag_14:\n      mstore(0x20, 0x00)\n      dup1\n      0x00\n      mstore\n      keccak256(0x00, 0x40)\n      0x00\n      swap2\n      pop\n      swap1\n      pop\n      sload\n      dup2\n      jump\t// out\n        /* \"contracts/cipherzero/contracts/Identity/ReputationSystem.sol\":216:380  function updateReputation(address user, uint256 change) external {... */\n    tag_19:\n        /* \"contracts/cipherzero/contracts/Identity/ReputationSystem.sol\":311:317  change */\n      dup1\n        /* \"contracts/cipherzero/contracts/Identity/ReputationSystem.sol\":291:301  reputation */\n      0x00\n        /* \"contracts/cipherzero/contracts/Identity/ReputationSystem.sol\":291:307  reputation[user] */\n      dup1\n        /* \"contracts/cipherzero/contracts/Identity/ReputationSystem.sol\":302:306  user */\n      dup5\n        /* \"contracts/cipherzero/contracts/Identity/ReputationSystem.sol\":291:307  reputation[user] */\n      0xffffffffffffffffffffffffffffffffffffffff\n      and\n      0xffffffffffffffffffffffffffffffffffffffff\n      and\n      dup2\n      mstore\n      0x20\n      add\n      swap1\n      dup2\n      mstore\n      0x20\n      add\n      0x00\n      keccak256\n      0x00\n        /* \"contracts/cipherzero/contracts/Identity/ReputationSystem.sol\":291:317  reputation[user] += change */\n      dup3\n      dup3\n      sload\n      tag_22\n      swap2\n      swap1\n      tag_23\n      jump\t// in\n    tag_22:\n      swap3\n      pop\n      pop\n      dup2\n      swap1\n      sstore\n      pop\n        /* \"contracts/cipherzero/contracts/Identity/ReputationSystem.sol\":350:354  user */\n      dup2\n        /* \"contracts/cipherzero/contracts/Identity/ReputationSystem.sol\":332:373  ReputationUpdated(user, reputation[user]) */\n      0xffffffffffffffffffffffffffffffffffffffff\n      and\n      0xfc577563f1b9a0461e24abef1e1fcc0d33d3d881f20b5df6dda59de4aae2c821\n        /* \"contracts/cipherzero/contracts/Identity/ReputationSystem.sol\":356:366  reputation */\n      0x00\n        /* \"contracts/cipherzero/contracts/Identity/ReputationSystem.sol\":356:372  reputation[user] */\n      dup1\n        /* \"contracts/cipherzero/contracts/Identity/ReputationSystem.sol\":367:371  user */\n      dup6\n        /* \"contracts/cipherzero/contracts/Identity/ReputationSystem.sol\":356:372  reputation[user] */\n      0xffffffffffffffffffffffffffffffffffffffff\n      and\n      0xffffffffffffffffffffffffffffffffffffffff\n      and\n      dup2\n      mstore\n      0x20\n      add\n      swap1\n      dup2\n      mstore\n      0x20\n      add\n      0x00\n      keccak256\n      sload\n        /* \"contracts/cipherzero/contracts/Identity/ReputationSystem.sol\":332:373  ReputationUpdated(user, reputation[user]) */\n      mload(0x40)\n      tag_24\n      swap2\n      swap1\n      tag_11\n      jump\t// in\n    tag_24:\n      mload(0x40)\n      dup1\n      swap2\n      sub\n      swap1\n      log2\n        /* \"contracts/cipherzero/contracts/Identity/ReputationSystem.sol\":216:380  function updateReputation(address user, uint256 change) external {... */\n      pop\n      pop\n      jump\t// out\n        /* \"#utility.yul\":88:205   */\n    tag_26:\n        /* \"#utility.yul\":197:198   */\n      0x00\n        /* \"#utility.yul\":194:195   */\n      dup1\n        /* \"#utility.yul\":187:199   */\n      revert\n        /* \"#utility.yul\":334:460   */\n    tag_28:\n        /* \"#utility.yul\":371:378   */\n      0x00\n        /* \"#utility.yul\":411:453   */\n      0xffffffffffffffffffffffffffffffffffffffff\n        /* \"#utility.yul\":404:409   */\n      dup3\n        /* \"#utility.yul\":400:454   */\n      and\n        /* \"#utility.yul\":389:454   */\n      swap1\n      pop\n        /* \"#utility.yul\":334:460   */\n      swap2\n      swap1\n      pop\n      jump\t// out\n        /* \"#utility.yul\":466:562   */\n    tag_29:\n        /* \"#utility.yul\":503:510   */\n      0x00\n        /* \"#utility.yul\":532:556   */\n      tag_43\n        /* \"#utility.yul\":550:555   */\n      dup3\n        /* \"#utility.yul\":532:556   */\n      tag_28\n      jump\t// in\n    tag_43:\n        /* \"#utility.yul\":521:556   */\n      swap1\n      pop\n        /* \"#utility.yul\":466:562   */\n      swap2\n      swap1\n      pop\n      jump\t// out\n        /* \"#utility.yul\":568:690   */\n    tag_30:\n        /* \"#utility.yul\":641:665   */\n      tag_45\n        /* \"#utility.yul\":659:664   */\n      dup2\n        /* \"#utility.yul\":641:665   */\n      tag_29\n      jump\t// in\n    tag_45:\n        /* \"#utility.yul\":634:639   */\n      dup2\n        /* \"#utility.yul\":631:666   */\n      eq\n        /* \"#utility.yul\":621:684   */\n      tag_46\n      jumpi\n        /* \"#utility.yul\":680:681   */\n      0x00\n        /* \"#utility.yul\":677:678   */\n      dup1\n        /* \"#utility.yul\":670:682   */\n      revert\n        /* \"#utility.yul\":621:684   */\n    tag_46:\n        /* \"#utility.yul\":568:690   */\n      pop\n      jump\t// out\n        /* \"#utility.yul\":696:835   */\n    tag_31:\n        /* \"#utility.yul\":742:747   */\n      0x00\n        /* \"#utility.yul\":780:786   */\n      dup2\n        /* \"#utility.yul\":767:787   */\n      calldataload\n        /* \"#utility.yul\":758:787   */\n      swap1\n      pop\n        /* \"#utility.yul\":796:829   */\n      tag_48\n        /* \"#utility.yul\":823:828   */\n      dup2\n        /* \"#utility.yul\":796:829   */\n      tag_30\n      jump\t// in\n    tag_48:\n        /* \"#utility.yul\":696:835   */\n      swap3\n      swap2\n      pop\n      pop\n      jump\t// out\n        /* \"#utility.yul\":841:1170   */\n    tag_8:\n        /* \"#utility.yul\":900:906   */\n      0x00\n        /* \"#utility.yul\":949:951   */\n      0x20\n        /* \"#utility.yul\":937:946   */\n      dup3\n        /* \"#utility.yul\":928:935   */\n      dup5\n        /* \"#utility.yul\":924:947   */\n      sub\n        /* \"#utility.yul\":920:952   */\n      slt\n        /* \"#utility.yul\":917:1036   */\n      iszero\n      tag_50\n      jumpi\n        /* \"#utility.yul\":955:1034   */\n      tag_51\n      tag_26\n      jump\t// in\n    tag_51:\n        /* \"#utility.yul\":917:1036   */\n    tag_50:\n        /* \"#utility.yul\":1075:1076   */\n      0x00\n        /* \"#utility.yul\":1100:1153   */\n      tag_52\n        /* \"#utility.yul\":1145:1152   */\n      dup5\n        /* \"#utility.yul\":1136:1142   */\n      dup3\n        /* \"#utility.yul\":1125:1134   */\n      dup6\n        /* \"#utility.yul\":1121:1143   */\n      add\n        /* \"#utility.yul\":1100:1153   */\n      tag_31\n      jump\t// in\n    tag_52:\n        /* \"#utility.yul\":1090:1153   */\n      swap2\n      pop\n        /* \"#utility.yul\":1046:1163   */\n      pop\n        /* \"#utility.yul\":841:1170   */\n      swap3\n      swap2\n      pop\n      pop\n      jump\t// out\n        /* \"#utility.yul\":1176:1253   */\n    tag_32:\n        /* \"#utility.yul\":1213:1220   */\n      0x00\n        /* \"#utility.yul\":1242:1247   */\n      dup2\n        /* \"#utility.yul\":1231:1247   */\n      swap1\n      pop\n        /* \"#utility.yul\":1176:1253   */\n      swap2\n      swap1\n      pop\n      jump\t// out\n        /* \"#utility.yul\":1259:1377   */\n    tag_33:\n        /* \"#utility.yul\":1346:1370   */\n      tag_55\n        /* \"#utility.yul\":1364:1369   */\n      dup2\n        /* \"#utility.yul\":1346:1370   */\n      tag_32\n      jump\t// in\n    tag_55:\n        /* \"#utility.yul\":1341:1344   */\n      dup3\n        /* \"#utility.yul\":1334:1371   */\n      mstore\n        /* \"#utility.yul\":1259:1377   */\n      pop\n      pop\n      jump\t// out\n        /* \"#utility.yul\":1383:1605   */\n    tag_11:\n        /* \"#utility.yul\":1476:1480   */\n      0x00\n        /* \"#utility.yul\":1514:1516   */\n      0x20\n        /* \"#utility.yul\":1503:1512   */\n      dup3\n        /* \"#utility.yul\":1499:1517   */\n      add\n        /* \"#utility.yul\":1491:1517   */\n      swap1\n      pop\n        /* \"#utility.yul\":1527:1598   */\n      tag_57\n        /* \"#utility.yul\":1595:1596   */\n      0x00\n        /* \"#utility.yul\":1584:1593   */\n      dup4\n        /* \"#utility.yul\":1580:1597   */\n      add\n        /* \"#utility.yul\":1571:1577   */\n      dup5\n        /* \"#utility.yul\":1527:1598   */\n      tag_33\n      jump\t// in\n    tag_57:\n        /* \"#utility.yul\":1383:1605   */\n      swap3\n      swap2\n      pop\n      pop\n      jump\t// out\n        /* \"#utility.yul\":1611:1733   */\n    tag_34:\n        /* \"#utility.yul\":1684:1708   */\n      tag_59\n        /* \"#utility.yul\":1702:1707   */\n      dup2\n        /* \"#utility.yul\":1684:1708   */\n      tag_32\n      jump\t// in\n    tag_59:\n        /* \"#utility.yul\":1677:1682   */\n      dup2\n        /* \"#utility.yul\":1674:1709   */\n      eq\n        /* \"#utility.yul\":1664:1727   */\n      tag_60\n      jumpi\n        /* \"#utility.yul\":1723:1724   */\n      0x00\n        /* \"#utility.yul\":1720:1721   */\n      dup1\n        /* \"#utility.yul\":1713:1725   */\n      revert\n        /* \"#utility.yul\":1664:1727   */\n    tag_60:\n        /* \"#utility.yul\":1611:1733   */\n      pop\n      jump\t// out\n        /* \"#utility.yul\":1739:1878   */\n    tag_35:\n        /* \"#utility.yul\":1785:1790   */\n      0x00\n        /* \"#utility.yul\":1823:1829   */\n      dup2\n        /* \"#utility.yul\":1810:1830   */\n      calldataload\n        /* \"#utility.yul\":1801:1830   */\n      swap1\n      pop\n        /* \"#utility.yul\":1839:1872   */\n      tag_62\n        /* \"#utility.yul\":1866:1871   */\n      dup2\n        /* \"#utility.yul\":1839:1872   */\n      tag_34\n      jump\t// in\n    tag_62:\n        /* \"#utility.yul\":1739:1878   */\n      swap3\n      swap2\n      pop\n      pop\n      jump\t// out\n        /* \"#utility.yul\":1884:2358   */\n    tag_18:\n        /* \"#utility.yul\":1952:1958   */\n      0x00\n        /* \"#utility.yul\":1960:1966   */\n      dup1\n        /* \"#utility.yul\":2009:2011   */\n      0x40\n        /* \"#utility.yul\":1997:2006   */\n      dup4\n        /* \"#utility.yul\":1988:1995   */\n      dup6\n        /* \"#utility.yul\":1984:2007   */\n      sub\n        /* \"#utility.yul\":1980:2012   */\n      slt\n        /* \"#utility.yul\":1977:2096   */\n      iszero\n      tag_64\n      jumpi\n        /* \"#utility.yul\":2015:2094   */\n      tag_65\n      tag_26\n      jump\t// in\n    tag_65:\n        /* \"#utility.yul\":1977:2096   */\n    tag_64:\n        /* \"#utility.yul\":2135:2136   */\n      0x00\n        /* \"#utility.yul\":2160:2213   */\n      tag_66\n        /* \"#utility.yul\":2205:2212   */\n      dup6\n        /* \"#utility.yul\":2196:2202   */\n      dup3\n        /* \"#utility.yul\":2185:2194   */\n      dup7\n        /* \"#utility.yul\":2181:2203   */\n      add\n        /* \"#utility.yul\":2160:2213   */\n      tag_31\n      jump\t// in\n    tag_66:\n        /* \"#utility.yul\":2150:2213   */\n      swap3\n      pop\n        /* \"#utility.yul\":2106:2223   */\n      pop\n        /* \"#utility.yul\":2262:2264   */\n      0x20\n        /* \"#utility.yul\":2288:2341   */\n      tag_67\n        /* \"#utility.yul\":2333:2340   */\n      dup6\n        /* \"#utility.yul\":2324:2330   */\n      dup3\n        /* \"#utility.yul\":2313:2322   */\n      dup7\n        /* \"#utility.yul\":2309:2331   */\n      add\n        /* \"#utility.yul\":2288:2341   */\n      tag_35\n      jump\t// in\n    tag_67:\n        /* \"#utility.yul\":2278:2341   */\n      swap2\n      pop\n        /* \"#utility.yul\":2233:2351   */\n      pop\n        /* \"#utility.yul\":1884:2358   */\n      swap3\n      pop\n      swap3\n      swap1\n      pop\n      jump\t// out\n        /* \"#utility.yul\":2364:2544   */\n    tag_36:\n        /* \"#utility.yul\":2412:2489   */\n      0x4e487b7100000000000000000000000000000000000000000000000000000000\n        /* \"#utility.yul\":2409:2410   */\n      0x00\n        /* \"#utility.yul\":2402:2490   */\n      mstore\n        /* \"#utility.yul\":2509:2513   */\n      0x11\n        /* \"#utility.yul\":2506:2507   */\n      0x04\n        /* \"#utility.yul\":2499:2514   */\n      mstore\n        /* \"#utility.yul\":2533:2537   */\n      0x24\n        /* \"#utility.yul\":2530:2531   */\n      0x00\n        /* \"#utility.yul\":2523:2538   */\n      revert\n        /* \"#utility.yul\":2550:2741   */\n    tag_23:\n        /* \"#utility.yul\":2590:2593   */\n      0x00\n        /* \"#utility.yul\":2609:2629   */\n      tag_70\n        /* \"#utility.yul\":2627:2628   */\n      dup3\n        /* \"#utility.yul\":2609:2629   */\n      tag_32\n      jump\t// in\n    tag_70:\n        /* \"#utility.yul\":2604:2629   */\n      swap2\n      pop\n        /* \"#utility.yul\":2643:2663   */\n      tag_71\n        /* \"#utility.yul\":2661:2662   */\n      dup4\n        /* \"#utility.yul\":2643:2663   */\n      tag_32\n      jump\t// in\n    tag_71:\n        /* \"#utility.yul\":2638:2663   */\n      swap3\n      pop\n        /* \"#utility.yul\":2686:2687   */\n      dup3\n        /* \"#utility.yul\":2683:2684   */\n      dup3\n        /* \"#utility.yul\":2679:2688   */\n      add\n        /* \"#utility.yul\":2672:2688   */\n      swap1\n      pop\n        /* \"#utility.yul\":2707:2710   */\n      dup1\n        /* \"#utility.yul\":2704:2705   */\n      dup3\n        /* \"#utility.yul\":2701:2711   */\n      gt\n        /* \"#utility.yul\":2698:2734   */\n      iszero\n      tag_72\n      jumpi\n        /* \"#utility.yul\":2714:2732   */\n      tag_73\n      tag_36\n      jump\t// in\n    tag_73:\n        /* \"#utility.yul\":2698:2734   */\n    tag_72:\n        /* \"#utility.yul\":2550:2741   */\n      swap3\n      swap2\n      pop\n      pop\n      jump\t// out\n\n    auxdata: 0xa264697066735822122024723a9b8e70fa1bf959e3b0e180f7dca67f60a7267ed07568097e326c64ed7d64736f6c634300081a0033\n}\n",
				"bytecode": {
					"linkReferences": {},
					"object": "6080604052348015600e575f80fd5b506103b08061001c5f395ff3fe608060405234801561000f575f80fd5b506004361061003f575f3560e01c80639c89a0e214610043578063b9f7945114610073578063f5c91a08146100a3575b5f80fd5b61005d60048036038101906100589190610256565b6100bf565b60405161006a9190610299565b60405180910390f35b61008d60048036038101906100889190610256565b610104565b60405161009a9190610299565b60405180910390f35b6100bd60048036038101906100b891906102dc565b610118565b005b5f805f8373ffffffffffffffffffffffffffffffffffffffff1673ffffffffffffffffffffffffffffffffffffffff1681526020019081526020015f20549050919050565b5f602052805f5260405f205f915090505481565b805f808473ffffffffffffffffffffffffffffffffffffffff1673ffffffffffffffffffffffffffffffffffffffff1681526020019081526020015f205f8282546101639190610347565b925050819055508173ffffffffffffffffffffffffffffffffffffffff167ffc577563f1b9a0461e24abef1e1fcc0d33d3d881f20b5df6dda59de4aae2c8215f808573ffffffffffffffffffffffffffffffffffffffff1673ffffffffffffffffffffffffffffffffffffffff1681526020019081526020015f20546040516101ec9190610299565b60405180910390a25050565b5f80fd5b5f73ffffffffffffffffffffffffffffffffffffffff82169050919050565b5f610225826101fc565b9050919050565b6102358161021b565b811461023f575f80fd5b50565b5f813590506102508161022c565b92915050565b5f6020828403121561026b5761026a6101f8565b5b5f61027884828501610242565b91505092915050565b5f819050919050565b61029381610281565b82525050565b5f6020820190506102ac5f83018461028a565b92915050565b6102bb81610281565b81146102c5575f80fd5b50565b5f813590506102d6816102b2565b92915050565b5f80604083850312156102f2576102f16101f8565b5b5f6102ff85828601610242565b9250506020610310858286016102c8565b9150509250929050565b7f4e487b71000000000000000000000000000000000000000000000000000000005f52601160045260245ffd5b5f61035182610281565b915061035c83610281565b92508282019050808211156103745761037361031a565b5b9291505056fea264697066735822122024723a9b8e70fa1bf959e3b0e180f7dca67f60a7267ed07568097e326c64ed7d64736f6c634300081a0033",
					"opcodes": "PUSH1 0x80 PUSH1 0x40 MSTORE CALLVALUE DUP1 ISZERO PUSH1 0xE JUMPI PUSH0 DUP1 REVERT JUMPDEST POP PUSH2 0x3B0 DUP1 PUSH2 0x1C PUSH0 CODECOPY PUSH0 RETURN INVALID PUSH1 0x80 PUSH1 0x40 MSTORE CALLVALUE DUP1 ISZERO PUSH2 0xF JUMPI PUSH0 DUP1 REVERT JUMPDEST POP PUSH1 0x4 CALLDATASIZE LT PUSH2 0x3F JUMPI PUSH0 CALLDATALOAD PUSH1 0xE0 SHR DUP1 PUSH4 0x9C89A0E2 EQ PUSH2 0x43 JUMPI DUP1 PUSH4 0xB9F79451 EQ PUSH2 0x73 JUMPI DUP1 PUSH4 0xF5C91A08 EQ PUSH2 0xA3 JUMPI JUMPDEST PUSH0 DUP1 REVERT JUMPDEST PUSH2 0x5D PUSH1 0x4 DUP1 CALLDATASIZE SUB DUP2 ADD SWAP1 PUSH2 0x58 SWAP2 SWAP1 PUSH2 0x256 JUMP JUMPDEST PUSH2 0xBF JUMP JUMPDEST PUSH1 0x40 MLOAD PUSH2 0x6A SWAP2 SWAP1 PUSH2 0x299 JUMP JUMPDEST PUSH1 0x40 MLOAD DUP1 SWAP2 SUB SWAP1 RETURN JUMPDEST PUSH2 0x8D PUSH1 0x4 DUP1 CALLDATASIZE SUB DUP2 ADD SWAP1 PUSH2 0x88 SWAP2 SWAP1 PUSH2 0x256 JUMP JUMPDEST PUSH2 0x104 JUMP JUMPDEST PUSH1 0x40 MLOAD PUSH2 0x9A SWAP2 SWAP1 PUSH2 0x299 JUMP JUMPDEST PUSH1 0x40 MLOAD DUP1 SWAP2 SUB SWAP1 RETURN JUMPDEST PUSH2 0xBD PUSH1 0x4 DUP1 CALLDATASIZE SUB DUP2 ADD SWAP1 PUSH2 0xB8 SWAP2 SWAP1 PUSH2 0x2DC JUMP JUMPDEST PUSH2 0x118 JUMP JUMPDEST STOP JUMPDEST PUSH0 DUP1 PUSH0 DUP4 PUSH20 0xFFFFFFFFFFFFFFFFFFFFFFFFFFFFFFFFFFFFFFFF AND PUSH20 0xFFFFFFFFFFFFFFFFFFFFFFFFFFFFFFFFFFFFFFFF AND DUP2 MSTORE PUSH1 0x20 ADD SWAP1 DUP2 MSTORE PUSH1 0x20 ADD PUSH0 KECCAK256 SLOAD SWAP1 POP SWAP2 SWAP1 POP JUMP JUMPDEST PUSH0 PUSH1 0x20 MSTORE DUP1 PUSH0 MSTORE PUSH1 0x40 PUSH0 KECCAK256 PUSH0 SWAP2 POP SWAP1 POP SLOAD DUP2 JUMP JUMPDEST DUP1 PUSH0 DUP1 DUP5 PUSH20 0xFFFFFFFFFFFFFFFFFFFFFFFFFFFFFFFFFFFFFFFF AND PUSH20 0xFFFFFFFFFFFFFFFFFFFFFFFFFFFFFFFFFFFFFFFF AND DUP2 MSTORE PUSH1 0x20 ADD SWAP1 DUP2 MSTORE PUSH1 0x20 ADD PUSH0 KECCAK256 PUSH0 DUP3 DUP3 SLOAD PUSH2 0x163 SWAP2 SWAP1 PUSH2 0x347 JUMP JUMPDEST SWAP3 POP POP DUP2 SWAP1 SSTORE POP DUP2 PUSH20 0xFFFFFFFFFFFFFFFFFFFFFFFFFFFFFFFFFFFFFFFF AND PUSH32 0xFC577563F1B9A0461E24ABEF1E1FCC0D33D3D881F20B5DF6DDA59DE4AAE2C821 PUSH0 DUP1 DUP6 PUSH20 0xFFFFFFFFFFFFFFFFFFFFFFFFFFFFFFFFFFFFFFFF AND PUSH20 0xFFFFFFFFFFFFFFFFFFFFFFFFFFFFFFFFFFFFFFFF AND DUP2 MSTORE PUSH1 0x20 ADD SWAP1 DUP2 MSTORE PUSH1 0x20 ADD PUSH0 KECCAK256 SLOAD PUSH1 0x40 MLOAD PUSH2 0x1EC SWAP2 SWAP1 PUSH2 0x299 JUMP JUMPDEST PUSH1 0x40 MLOAD DUP1 SWAP2 SUB SWAP1 LOG2 POP POP JUMP JUMPDEST PUSH0 DUP1 REVERT JUMPDEST PUSH0 PUSH20 0xFFFFFFFFFFFFFFFFFFFFFFFFFFFFFFFFFFFFFFFF DUP3 AND SWAP1 POP SWAP2 SWAP1 POP JUMP JUMPDEST PUSH0 PUSH2 0x225 DUP3 PUSH2 0x1FC JUMP JUMPDEST SWAP1 POP SWAP2 SWAP1 POP JUMP JUMPDEST PUSH2 0x235 DUP2 PUSH2 0x21B JUMP JUMPDEST DUP2 EQ PUSH2 0x23F JUMPI PUSH0 DUP1 REVERT JUMPDEST POP JUMP JUMPDEST PUSH0 DUP2 CALLDATALOAD SWAP1 POP PUSH2 0x250 DUP2 PUSH2 0x22C JUMP JUMPDEST SWAP3 SWAP2 POP POP JUMP JUMPDEST PUSH0 PUSH1 0x20 DUP3 DUP5 SUB SLT ISZERO PUSH2 0x26B JUMPI PUSH2 0x26A PUSH2 0x1F8 JUMP JUMPDEST JUMPDEST PUSH0 PUSH2 0x278 DUP5 DUP3 DUP6 ADD PUSH2 0x242 JUMP JUMPDEST SWAP2 POP POP SWAP3 SWAP2 POP POP JUMP JUMPDEST PUSH0 DUP2 SWAP1 POP SWAP2 SWAP1 POP JUMP JUMPDEST PUSH2 0x293 DUP2 PUSH2 0x281 JUMP JUMPDEST DUP3 MSTORE POP POP JUMP JUMPDEST PUSH0 PUSH1 0x20 DUP3 ADD SWAP1 POP PUSH2 0x2AC PUSH0 DUP4 ADD DUP5 PUSH2 0x28A JUMP JUMPDEST SWAP3 SWAP2 POP POP JUMP JUMPDEST PUSH2 0x2BB DUP2 PUSH2 0x281 JUMP JUMPDEST DUP2 EQ PUSH2 0x2C5 JUMPI PUSH0 DUP1 REVERT JUMPDEST POP JUMP JUMPDEST PUSH0 DUP2 CALLDATALOAD SWAP1 POP PUSH2 0x2D6 DUP2 PUSH2 0x2B2 JUMP JUMPDEST SWAP3 SWAP2 POP POP JUMP JUMPDEST PUSH0 DUP1 PUSH1 0x40 DUP4 DUP6 SUB SLT ISZERO PUSH2 0x2F2 JUMPI PUSH2 0x2F1 PUSH2 0x1F8 JUMP JUMPDEST JUMPDEST PUSH0 PUSH2 0x2FF DUP6 DUP3 DUP7 ADD PUSH2 0x242 JUMP JUMPDEST SWAP3 POP POP PUSH1 0x20 PUSH2 0x310 DUP6 DUP3 DUP7 ADD PUSH2 0x2C8 JUMP JUMPDEST SWAP2 POP POP SWAP3 POP SWAP3 SWAP1 POP JUMP JUMPDEST PUSH32 0x4E487B7100000000000000000000000000000000000000000000000000000000 PUSH0 MSTORE PUSH1 0x11 PUSH1 0x4 MSTORE PUSH1 0x24 PUSH0 REVERT JUMPDEST PUSH0 PUSH2 0x351 DUP3 PUSH2 0x281 JUMP JUMPDEST SWAP2 POP PUSH2 0x35C DUP4 PUSH2 0x281 JUMP JUMPDEST SWAP3 POP DUP3 DUP3 ADD SWAP1 POP DUP1 DUP3 GT ISZERO PUSH2 0x374 JUMPI PUSH2 0x373 PUSH2 0x31A JUMP JUMPDEST JUMPDEST SWAP3 SWAP2 POP POP JUMP INVALID LOG2 PUSH5 0x6970667358 0x22 SLT KECCAK256 0x24 PUSH19 0x3A9B8E70FA1BF959E3B0E180F7DCA67F60A726 PUSH31 0xD07568097E326C64ED7D64736F6C634300081A003300000000000000000000 "
				},
				"gasEstimates": {
					"creation": {
						"codeDepositCost": "188800",
						"executionCost": "230",
						"totalCost": "189030"
					},
					"external": {
						"getReputation(address)": "2807",
						"reputation(address)": "2801",
						"updateReputation(address,uint256)": "infinite"
					}
				},
				"methodIdentifiers": {
					"getReputation(address)": "9c89a0e2",
					"reputation(address)": "b9f79451",
					"updateReputation(address,uint256)": "f5c91a08"
				}
			},
			"storageLayout": {
				"storage": [
					{
						"astId": 5,
						"contract": "contracts/cipherzero/contracts/Identity/ReputationSystem.sol:ReputationSystem",
						"label": "reputation",
						"offset": 0,
						"slot": "0",
						"type": "t_mapping(t_address,t_uint256)"
					}
				],
				"types": {
					"t_address": {
						"encoding": "inplace",
						"label": "address",
						"numberOfBytes": "20"
					},
					"t_mapping(t_address,t_uint256)": {
						"encoding": "mapping",
						"key": "t_address",
						"label": "mapping(address => uint256)",
						"numberOfBytes": "32",
						"value": "t_uint256"
					},
					"t_uint256": {
						"encoding": "inplace",
						"label": "uint256",
						"numberOfBytes": "32"
					}
				}
			},
			"userdoc": {
				"kind": "user",
				"methods": {},
				"version": 1
			}
		}
	}
}