{
	"data": {
		"bytecode": {
			"linkReferences": {},
			"object": "6080604052348015600e575f80fd5b50611b9c8061001c5f395ff3fe608060405234801561000f575f80fd5b506004361061020f575f3560e01c80639d1b5a8111610123578063cdffacc6116100ab578063e81e0ba11161007a578063e81e0ba114610615578063ef3f0bae14610645578063facd743b14610663578063fd791f3c14610693578063fe26699e146106b15761020f565b8063cdffacc61461058b578063d86970d8146105bb578063db1f0bf9146105d9578063e5355c75146105f75761020f565b8063af6a2dcd116100f2578063af6a2dcd146104bf578063b22dd78e146104dd578063b8c2f66f1461050d578063bd7c54121461052b578063c3bbd2d71461055b5761020f565b80639d1b5a8114610435578063a1954fc514610453578063a7cd63b714610471578063adfca15e1461048f5761020f565b806352ef6b2c116101a657806379823c9a1161017557806379823c9a1461038d5780637a0ed627146103ab5780637b30c8da146103c95780638665b150146103e75780639cd939e4146104055761020f565b806352ef6b2c1461030357806356142d7a14610321578063631f4bac1461033f57806374f4d30d1461035d5761020f565b806333ce93fe116101e257806333ce93fe1461028b57806339607382146102a957806346657fe9146102c75780634fc07d75146102e55761020f565b80630ec6b0b71461021357806317d7de7c1461023157806318e3a9411461024f57806329b98c671461026d575b5f80fd5b61021b6106cf565b60405161022891906112c7565b60405180910390f35b6102396106da565b6040516102469190611350565b60405180910390f35b610257610713565b60405161026491906113c8565b60405180910390f35b61027561074c565b60405161028291906113fb565b60405180910390f35b61029361076f565b6040516102a091906112c7565b60405180910390f35b6102b161077a565b6040516102be91906112c7565b60405180910390f35b6102cf610785565b6040516102dc9190611453565b60405180910390f35b6102ed6107af565b6040516102fa9190611453565b60405180910390f35b61030b6107d9565b6040516103189190611523565b60405180910390f35b610329610872565b60405161033691906115d7565b60405180910390f35b61034761088b565b60405161035491906112c7565b60405180910390f35b6103776004803603810190610372919061161e565b61089d565b6040516103849190611658565b60405180910390f35b6103956108b9565b6040516103a291906112c7565b60405180910390f35b6103b36108cb565b6040516103c09190611848565b60405180910390f35b6103d1610aea565b6040516103de9190611658565b60405180910390f35b6103ef610af5565b6040516103fc9190611453565b60405180910390f35b61041f600480360381019061041a919061161e565b610b1f565b60405161042c9190611658565b60405180910390f35b61043d610b3b565b60405161044a91906112c7565b60405180910390f35b61045b610b46565b60405161046891906112c7565b60405180910390f35b610479610b58565b6040516104869190611453565b60405180910390f35b6104a960048036038101906104a49190611892565b610b82565b6040516104b69190611929565b60405180910390f35b6104c7610c66565b6040516104d491906112c7565b60405180910390f35b6104f760048036038101906104f2919061161e565b610c71565b6040516105049190611658565b60405180910390f35b610515610c8d565b60405161052291906112c7565b60405180910390f35b61054560048036038101906105409190611949565b610c98565b60405161055291906113fb565b60405180910390f35b61057560048036038101906105709190611892565b610cd0565b60405161058291906113fb565b60405180910390f35b6105a560048036038101906105a091906119b1565b610e0d565b6040516105b29190611453565b60405180910390f35b6105c3610e93565b6040516105d09190611658565b60405180910390f35b6105e1610e9e565b6040516105ee91906112c7565b60405180910390f35b6105ff610ea9565b60405161060c91906112c7565b60405180910390f35b61062f600480360381019061062a91906119b1565b610eb4565b60405161063c91906113fb565b60405180910390f35b61064d611007565b60405161065a91906112c7565b60405180910390f35b61067d60048036038101906106789190611892565b611012565b60405161068a91906113fb565b60405180910390f35b61069b611066565b6040516106a89190611658565b60405180910390f35b6106b9611071565b6040516106c691906112c7565b60405180910390f35b5f80601a0154905090565b6040518060400160405280600c81526020017f476574746572734661636574000000000000000000000000000000000000000081525081565b61071b611214565b5f6014016040518060600160405290815f820154815260200160018201548152602001600282015481525050905090565b5f8061075661107c565b9050806003015f9054906101000a900460ff1691505090565b5f8060210154905090565b5f80600b0154905090565b5f80600a015f9054906101000a900473ffffffffffffffffffffffffffffffffffffffff16905090565b5f806007015f9054906101000a900473ffffffffffffffffffffffffffffffffffffffff16905090565b60605f6107e461107c565b90508060020180548060200260200160405190810160405280929190818152602001828054801561086757602002820191905f5260205f20905b815f9054906101000a900473ffffffffffffffffffffffffffffffffffffffff1673ffffffffffffffffffffffffffffffffffffffff168152602001906001019080831161081e575b505050505091505090565b61087a61123b565b6108865f6010016110aa565b905090565b5f6108985f6010016111bf565b905090565b5f80600e015f8381526020019081526020015f20549050919050565b5f6108c65f6010016111db565b905090565b60605f6108d661107c565b90505f816002018054905090508067ffffffffffffffff8111156108fd576108fc6119dc565b5b60405190808252806020026020018201604052801561093657816020015b610923611280565b81526020019060019003908161091b5790505b5092505f5b81811015610ae4575f83600201828154811061095a57610959611a09565b5b905f5260205f20015f9054906101000a900473ffffffffffffffffffffffffffffffffffffffff1690505f846001015f8373ffffffffffffffffffffffffffffffffffffffff1673ffffffffffffffffffffffffffffffffffffffff1681526020019081526020015f206040518060400160405290815f8201805480602002602001604051908101604052809291908181526020018280548015610a5c57602002820191905f5260205f20905f905b82829054906101000a900460e01b7bffffffffffffffffffffffffffffffffffffffffffffffffffffffff191681526020019060040190602082600301049283019260010382029150808411610a095790505b50505050508152602001600182015f9054906101000a900461ffff1661ffff1661ffff1681525050905060405180604001604052808373ffffffffffffffffffffffffffffffffffffffff168152602001825f0151815250868481518110610ac757610ac6611a09565b5b60200260200101819052505050610add816111e8565b905061093b565b50505090565b5f8060220154905090565b5f806008015f9054906101000a900473ffffffffffffffffffffffffffffffffffffffff16905090565b5f80600f015f8381526020019081526020015f20549050919050565b5f8060230154905090565b5f610b535f6010016111f4565b905090565b5f806013015f9054906101000a900473ffffffffffffffffffffffffffffffffffffffff16905090565b60605f610b8d61107c565b9050806001015f8473ffffffffffffffffffffffffffffffffffffffff1673ffffffffffffffffffffffffffffffffffffffff1681526020019081526020015f205f01805480602002602001604051908101604052809291908181526020018280548015610c5957602002820191905f5260205f20905f905b82829054906101000a900460e01b7bffffffffffffffffffffffffffffffffffffffffffffffffffffffff191681526020019060040190602082600301049283019260010382029150808411610c065790505b5050505050915050919050565b5f80600c0154905090565b5f80600e015f8381526020019081526020015f20549050919050565b5f80600b0154905090565b5f80601d015f8481526020019081526020015f205f8381526020019081526020015f205f9054906101000a900460ff16905092915050565b5f80610cda61107c565b90505f816001015f8573ffffffffffffffffffffffffffffffffffffffff1673ffffffffffffffffffffffffffffffffffffffff1681526020019081526020015f205f018054905090505f8114610e06575f826001015f8673ffffffffffffffffffffffffffffffffffffffff1673ffffffffffffffffffffffffffffffffffffffff1681526020019081526020015f205f015f81548110610d7f57610d7e611a09565b5b905f5260205f2090600891828204019190066004029054906101000a900460e01b9050825f015f827bffffffffffffffffffffffffffffffffffffffffffffffffffffffff19167bffffffffffffffffffffffffffffffffffffffffffffffffffffffff191681526020019081526020015f205f0160169054906101000a900460ff169350505b5050919050565b5f80610e1761107c565b9050805f015f847bffffffffffffffffffffffffffffffffffffffffffffffffffffffff19167bffffffffffffffffffffffffffffffffffffffffffffffffffffffff191681526020019081526020015f205f015f9054906101000a900473ffffffffffffffffffffffffffffffffffffffff16915050919050565b5f8060170154905090565b5f80600d0154905090565b5f8060230154905090565b5f80610ebe61107c565b90505f73ffffffffffffffffffffffffffffffffffffffff16815f015f857bffffffffffffffffffffffffffffffffffffffffffffffffffffffff19167bffffffffffffffffffffffffffffffffffffffffffffffffffffffff191681526020019081526020015f205f015f9054906101000a900473ffffffffffffffffffffffffffffffffffffffff1673ffffffffffffffffffffffffffffffffffffffff1603610f9f576040517f08c379a0000000000000000000000000000000000000000000000000000000008152600401610f9690611a80565b60405180910390fd5b805f015f847bffffffffffffffffffffffffffffffffffffffffffffffffffffffff19167bffffffffffffffffffffffffffffffffffffffffffffffffffffffff191681526020019081526020015f205f0160169054906101000a900460ff16915050919050565b5f80600c0154905090565b5f806009015f8373ffffffffffffffffffffffffffffffffffffffff1673ffffffffffffffffffffffffffffffffffffffff1681526020019081526020015f205f9054906101000a900460ff169050919050565b5f8060180154905090565b5f80600d0154905090565b5f807fc8fcad8db84d3cc18b4c41d551ea0ee66dd599cde068d998e57d5e09332c131b5f1b90508091505090565b6110b261123b565b6110bb82611201565b156110fb576040517f08c379a00000000000000000000000000000000000000000000000000000000081526004016110f290611ae8565b60405180910390fd5b815f015f836002015481526020019081526020015f206040518060600160405290815f8201548152602001600182015f9054906101000a900467ffffffffffffffff1667ffffffffffffffff1667ffffffffffffffff1681526020016001820160089054906101000a900477ffffffffffffffffffffffffffffffffffffffffffffffff1677ffffffffffffffffffffffffffffffffffffffffffffffff1677ffffffffffffffffffffffffffffffffffffffffffffffff16815250509050919050565b5f816002015482600101546111d49190611b33565b9050919050565b5f81600201549050919050565b5f600182019050919050565b5f81600101549050919050565b5f81600201548260010154149050919050565b60405180606001604052805f80191681526020015f80191681526020015f80191681525090565b60405180606001604052805f80191681526020015f67ffffffffffffffff1681526020015f77ffffffffffffffffffffffffffffffffffffffffffffffff1681525090565b60405180604001604052805f73ffffffffffffffffffffffffffffffffffffffff168152602001606081525090565b5f819050919050565b6112c1816112af565b82525050565b5f6020820190506112da5f8301846112b8565b92915050565b5f81519050919050565b5f82825260208201905092915050565b8281835e5f83830152505050565b5f601f19601f8301169050919050565b5f611322826112e0565b61132c81856112ea565b935061133c8185602086016112fa565b61134581611308565b840191505092915050565b5f6020820190508181035f8301526113688184611318565b905092915050565b5f819050919050565b61138281611370565b82525050565b606082015f82015161139c5f850182611379565b5060208201516113af6020850182611379565b5060408201516113c26040850182611379565b50505050565b5f6060820190506113db5f830184611388565b92915050565b5f8115159050919050565b6113f5816113e1565b82525050565b5f60208201905061140e5f8301846113ec565b92915050565b5f73ffffffffffffffffffffffffffffffffffffffff82169050919050565b5f61143d82611414565b9050919050565b61144d81611433565b82525050565b5f6020820190506114665f830184611444565b92915050565b5f81519050919050565b5f82825260208201905092915050565b5f819050602082019050919050565b61149e81611433565b82525050565b5f6114af8383611495565b60208301905092915050565b5f602082019050919050565b5f6114d18261146c565b6114db8185611476565b93506114e683611486565b805f5b838110156115165781516114fd88826114a4565b9750611508836114bb565b9250506001810190506114e9565b5085935050505092915050565b5f6020820190508181035f83015261153b81846114c7565b905092915050565b5f67ffffffffffffffff82169050919050565b61155f81611543565b82525050565b5f77ffffffffffffffffffffffffffffffffffffffffffffffff82169050919050565b61159181611565565b82525050565b606082015f8201516115ab5f850182611379565b5060208201516115be6020850182611556565b5060408201516115d16040850182611588565b50505050565b5f6060820190506115ea5f830184611597565b92915050565b5f80fd5b6115fd816112af565b8114611607575f80fd5b50565b5f81359050611618816115f4565b92915050565b5f60208284031215611633576116326115f0565b5b5f6116408482850161160a565b91505092915050565b61165281611370565b82525050565b5f60208201905061166b5f830184611649565b92915050565b5f81519050919050565b5f82825260208201905092915050565b5f819050602082019050919050565b5f81519050919050565b5f82825260208201905092915050565b5f819050602082019050919050565b5f7fffffffff0000000000000000000000000000000000000000000000000000000082169050919050565b6116f7816116c3565b82525050565b5f61170883836116ee565b60208301905092915050565b5f602082019050919050565b5f61172a8261169a565b61173481856116a4565b935061173f836116b4565b805f5b8381101561176f57815161175688826116fd565b975061176183611714565b925050600181019050611742565b5085935050505092915050565b5f604083015f8301516117915f860182611495565b50602083015184820360208601526117a98282611720565b9150508091505092915050565b5f6117c1838361177c565b905092915050565b5f602082019050919050565b5f6117df82611671565b6117e9818561167b565b9350836020820285016117fb8561168b565b805f5b85811015611836578484038952815161181785826117b6565b9450611822836117c9565b925060208a019950506001810190506117fe565b50829750879550505050505092915050565b5f6020820190508181035f83015261186081846117d5565b905092915050565b61187181611433565b811461187b575f80fd5b50565b5f8135905061188c81611868565b92915050565b5f602082840312156118a7576118a66115f0565b5b5f6118b48482850161187e565b91505092915050565b5f82825260208201905092915050565b5f6118d78261169a565b6118e181856118bd565b93506118ec836116b4565b805f5b8381101561191c57815161190388826116fd565b975061190e83611714565b9250506001810190506118ef565b5085935050505092915050565b5f6020820190508181035f83015261194181846118cd565b905092915050565b5f806040838503121561195f5761195e6115f0565b5b5f61196c8582860161160a565b925050602061197d8582860161160a565b9150509250929050565b611990816116c3565b811461199a575f80fd5b50565b5f813590506119ab81611987565b92915050565b5f602082840312156119c6576119c56115f0565b5b5f6119d38482850161199d565b91505092915050565b7f4e487b71000000000000000000000000000000000000000000000000000000005f52604160045260245ffd5b7f4e487b71000000000000000000000000000000000000000000000000000000005f52603260045260245ffd5b7f67320000000000000000000000000000000000000000000000000000000000005f82015250565b5f611a6a6002836112ea565b9150611a7582611a36565b602082019050919050565b5f6020820190508181035f830152611a9781611a5e565b9050919050565b7f44000000000000000000000000000000000000000000000000000000000000005f82015250565b5f611ad26001836112ea565b9150611add82611a9e565b602082019050919050565b5f6020820190508181035f830152611aff81611ac6565b9050919050565b7f4e487b71000000000000000000000000000000000000000000000000000000005f52601160045260245ffd5b5f611b3d826112af565b9150611b48836112af565b9250828203905081811115611b6057611b5f611b06565b5b9291505056fea2646970667358221220c788d0fe9b1eed6ab0b9015c10d626ada0d0e5c41ac7d13b116b9fc5925ec7e164736f6c634300081a0033",
			"opcodes": "PUSH1 0x80 PUSH1 0x40 MSTORE CALLVALUE DUP1 ISZERO PUSH1 0xE JUMPI PUSH0 DUP1 REVERT JUMPDEST POP PUSH2 0x1B9C DUP1 PUSH2 0x1C PUSH0 CODECOPY PUSH0 RETURN INVALID PUSH1 0x80 PUSH1 0x40 MSTORE CALLVALUE DUP1 ISZERO PUSH2 0xF JUMPI PUSH0 DUP1 REVERT JUMPDEST POP PUSH1 0x4 CALLDATASIZE LT PUSH2 0x20F JUMPI PUSH0 CALLDATALOAD PUSH1 0xE0 SHR DUP1 PUSH4 0x9D1B5A81 GT PUSH2 0x123 JUMPI DUP1 PUSH4 0xCDFFACC6 GT PUSH2 0xAB JUMPI DUP1 PUSH4 0xE81E0BA1 GT PUSH2 0x7A JUMPI DUP1 PUSH4 0xE81E0BA1 EQ PUSH2 0x615 JUMPI DUP1 PUSH4 0xEF3F0BAE EQ PUSH2 0x645 JUMPI DUP1 PUSH4 0xFACD743B EQ PUSH2 0x663 JUMPI DUP1 PUSH4 0xFD791F3C EQ PUSH2 0x693 JUMPI DUP1 PUSH4 0xFE26699E EQ PUSH2 0x6B1 JUMPI PUSH2 0x20F JUMP JUMPDEST DUP1 PUSH4 0xCDFFACC6 EQ PUSH2 0x58B JUMPI DUP1 PUSH4 0xD86970D8 EQ PUSH2 0x5BB JUMPI DUP1 PUSH4 0xDB1F0BF9 EQ PUSH2 0x5D9 JUMPI DUP1 PUSH4 0xE5355C75 EQ PUSH2 0x5F7 JUMPI PUSH2 0x20F JUMP JUMPDEST DUP1 PUSH4 0xAF6A2DCD GT PUSH2 0xF2 JUMPI DUP1 PUSH4 0xAF6A2DCD EQ PUSH2 0x4BF JUMPI DUP1 PUSH4 0xB22DD78E EQ PUSH2 0x4DD JUMPI DUP1 PUSH4 0xB8C2F66F EQ PUSH2 0x50D JUMPI DUP1 PUSH4 0xBD7C5412 EQ PUSH2 0x52B JUMPI DUP1 PUSH4 0xC3BBD2D7 EQ PUSH2 0x55B JUMPI PUSH2 0x20F JUMP JUMPDEST DUP1 PUSH4 0x9D1B5A81 EQ PUSH2 0x435 JUMPI DUP1 PUSH4 0xA1954FC5 EQ PUSH2 0x453 JUMPI DUP1 PUSH4 0xA7CD63B7 EQ PUSH2 0x471 JUMPI DUP1 PUSH4 0xADFCA15E EQ PUSH2 0x48F JUMPI PUSH2 0x20F JUMP JUMPDEST DUP1 PUSH4 0x52EF6B2C GT PUSH2 0x1A6 JUMPI DUP1 PUSH4 0x79823C9A GT PUSH2 0x175 JUMPI DUP1 PUSH4 0x79823C9A EQ PUSH2 0x38D JUMPI DUP1 PUSH4 0x7A0ED627 EQ PUSH2 0x3AB JUMPI DUP1 PUSH4 0x7B30C8DA EQ PUSH2 0x3C9 JUMPI DUP1 PUSH4 0x8665B150 EQ PUSH2 0x3E7 JUMPI DUP1 PUSH4 0x9CD939E4 EQ PUSH2 0x405 JUMPI PUSH2 0x20F JUMP JUMPDEST DUP1 PUSH4 0x52EF6B2C EQ PUSH2 0x303 JUMPI DUP1 PUSH4 0x56142D7A EQ PUSH2 0x321 JUMPI DUP1 PUSH4 0x631F4BAC EQ PUSH2 0x33F JUMPI DUP1 PUSH4 0x74F4D30D EQ PUSH2 0x35D JUMPI PUSH2 0x20F JUMP JUMPDEST DUP1 PUSH4 0x33CE93FE GT PUSH2 0x1E2 JUMPI DUP1 PUSH4 0x33CE93FE EQ PUSH2 0x28B JUMPI DUP1 PUSH4 0x39607382 EQ PUSH2 0x2A9 JUMPI DUP1 PUSH4 0x46657FE9 EQ PUSH2 0x2C7 JUMPI DUP1 PUSH4 0x4FC07D75 EQ PUSH2 0x2E5 JUMPI PUSH2 0x20F JUMP JUMPDEST DUP1 PUSH4 0xEC6B0B7 EQ PUSH2 0x213 JUMPI DUP1 PUSH4 0x17D7DE7C EQ PUSH2 0x231 JUMPI DUP1 PUSH4 0x18E3A941 EQ PUSH2 0x24F JUMPI DUP1 PUSH4 0x29B98C67 EQ PUSH2 0x26D JUMPI JUMPDEST PUSH0 DUP1 REVERT JUMPDEST PUSH2 0x21B PUSH2 0x6CF JUMP JUMPDEST PUSH1 0x40 MLOAD PUSH2 0x228 SWAP2 SWAP1 PUSH2 0x12C7 JUMP JUMPDEST PUSH1 0x40 MLOAD DUP1 SWAP2 SUB SWAP1 RETURN JUMPDEST PUSH2 0x239 PUSH2 0x6DA JUMP JUMPDEST PUSH1 0x40 MLOAD PUSH2 0x246 SWAP2 SWAP1 PUSH2 0x1350 JUMP JUMPDEST PUSH1 0x40 MLOAD DUP1 SWAP2 SUB SWAP1 RETURN JUMPDEST PUSH2 0x257 PUSH2 0x713 JUMP JUMPDEST PUSH1 0x40 MLOAD PUSH2 0x264 SWAP2 SWAP1 PUSH2 0x13C8 JUMP JUMPDEST PUSH1 0x40 MLOAD DUP1 SWAP2 SUB SWAP1 RETURN JUMPDEST PUSH2 0x275 PUSH2 0x74C JUMP JUMPDEST PUSH1 0x40 MLOAD PUSH2 0x282 SWAP2 SWAP1 PUSH2 0x13FB JUMP JUMPDEST PUSH1 0x40 MLOAD DUP1 SWAP2 SUB SWAP1 RETURN JUMPDEST PUSH2 0x293 PUSH2 0x76F JUMP JUMPDEST PUSH1 0x40 MLOAD PUSH2 0x2A0 SWAP2 SWAP1 PUSH2 0x12C7 JUMP JUMPDEST PUSH1 0x40 MLOAD DUP1 SWAP2 SUB SWAP1 RETURN JUMPDEST PUSH2 0x2B1 PUSH2 0x77A JUMP JUMPDEST PUSH1 0x40 MLOAD PUSH2 0x2BE SWAP2 SWAP1 PUSH2 0x12C7 JUMP JUMPDEST PUSH1 0x40 MLOAD DUP1 SWAP2 SUB SWAP1 RETURN JUMPDEST PUSH2 0x2CF PUSH2 0x785 JUMP JUMPDEST PUSH1 0x40 MLOAD PUSH2 0x2DC SWAP2 SWAP1 PUSH2 0x1453 JUMP JUMPDEST PUSH1 0x40 MLOAD DUP1 SWAP2 SUB SWAP1 RETURN JUMPDEST PUSH2 0x2ED PUSH2 0x7AF JUMP JUMPDEST PUSH1 0x40 MLOAD PUSH2 0x2FA SWAP2 SWAP1 PUSH2 0x1453 JUMP JUMPDEST PUSH1 0x40 MLOAD DUP1 SWAP2 SUB SWAP1 RETURN JUMPDEST PUSH2 0x30B PUSH2 0x7D9 JUMP JUMPDEST PUSH1 0x40 MLOAD PUSH2 0x318 SWAP2 SWAP1 PUSH2 0x1523 JUMP JUMPDEST PUSH1 0x40 MLOAD DUP1 SWAP2 SUB SWAP1 RETURN JUMPDEST PUSH2 0x329 PUSH2 0x872 JUMP JUMPDEST PUSH1 0x40 MLOAD PUSH2 0x336 SWAP2 SWAP1 PUSH2 0x15D7 JUMP JUMPDEST PUSH1 0x40 MLOAD DUP1 SWAP2 SUB SWAP1 RETURN JUMPDEST PUSH2 0x347 PUSH2 0x88B JUMP JUMPDEST PUSH1 0x40 MLOAD PUSH2 0x354 SWAP2 SWAP1 PUSH2 0x12C7 JUMP JUMPDEST PUSH1 0x40 MLOAD DUP1 SWAP2 SUB SWAP1 RETURN JUMPDEST PUSH2 0x377 PUSH1 0x4 DUP1 CALLDATASIZE SUB DUP2 ADD SWAP1 PUSH2 0x372 SWAP2 SWAP1 PUSH2 0x161E JUMP JUMPDEST PUSH2 0x89D JUMP JUMPDEST PUSH1 0x40 MLOAD PUSH2 0x384 SWAP2 SWAP1 PUSH2 0x1658 JUMP JUMPDEST PUSH1 0x40 MLOAD DUP1 SWAP2 SUB SWAP1 RETURN JUMPDEST PUSH2 0x395 PUSH2 0x8B9 JUMP JUMPDEST PUSH1 0x40 MLOAD PUSH2 0x3A2 SWAP2 SWAP1 PUSH2 0x12C7 JUMP JUMPDEST PUSH1 0x40 MLOAD DUP1 SWAP2 SUB SWAP1 RETURN JUMPDEST PUSH2 0x3B3 PUSH2 0x8CB JUMP JUMPDEST PUSH1 0x40 MLOAD PUSH2 0x3C0 SWAP2 SWAP1 PUSH2 0x1848 JUMP JUMPDEST PUSH1 0x40 MLOAD DUP1 SWAP2 SUB SWAP1 RETURN JUMPDEST PUSH2 0x3D1 PUSH2 0xAEA JUMP JUMPDEST PUSH1 0x40 MLOAD PUSH2 0x3DE SWAP2 SWAP1 PUSH2 0x1658 JUMP JUMPDEST PUSH1 0x40 MLOAD DUP1 SWAP2 SUB SWAP1 RETURN JUMPDEST PUSH2 0x3EF PUSH2 0xAF5 JUMP JUMPDEST PUSH1 0x40 MLOAD PUSH2 0x3FC SWAP2 SWAP1 PUSH2 0x1453 JUMP JUMPDEST PUSH1 0x40 MLOAD DUP1 SWAP2 SUB SWAP1 RETURN JUMPDEST PUSH2 0x41F PUSH1 0x4 DUP1 CALLDATASIZE SUB DUP2 ADD SWAP1 PUSH2 0x41A SWAP2 SWAP1 PUSH2 0x161E JUMP JUMPDEST PUSH2 0xB1F JUMP JUMPDEST PUSH1 0x40 MLOAD PUSH2 0x42C SWAP2 SWAP1 PUSH2 0x1658 JUMP JUMPDEST PUSH1 0x40 MLOAD DUP1 SWAP2 SUB SWAP1 RETURN JUMPDEST PUSH2 0x43D PUSH2 0xB3B JUMP JUMPDEST PUSH1 0x40 MLOAD PUSH2 0x44A SWAP2 SWAP1 PUSH2 0x12C7 JUMP JUMPDEST PUSH1 0x40 MLOAD DUP1 SWAP2 SUB SWAP1 RETURN JUMPDEST PUSH2 0x45B PUSH2 0xB46 JUMP JUMPDEST PUSH1 0x40 MLOAD PUSH2 0x468 SWAP2 SWAP1 PUSH2 0x12C7 JUMP JUMPDEST PUSH1 0x40 MLOAD DUP1 SWAP2 SUB SWAP1 RETURN JUMPDEST PUSH2 0x479 PUSH2 0xB58 JUMP JUMPDEST PUSH1 0x40 MLOAD PUSH2 0x486 SWAP2 SWAP1 PUSH2 0x1453 JUMP JUMPDEST PUSH1 0x40 MLOAD DUP1 SWAP2 SUB SWAP1 RETURN JUMPDEST PUSH2 0x4A9 PUSH1 0x4 DUP1 CALLDATASIZE SUB DUP2 ADD SWAP1 PUSH2 0x4A4 SWAP2 SWAP1 PUSH2 0x1892 JUMP JUMPDEST PUSH2 0xB82 JUMP JUMPDEST PUSH1 0x40 MLOAD PUSH2 0x4B6 SWAP2 SWAP1 PUSH2 0x1929 JUMP JUMPDEST PUSH1 0x40 MLOAD DUP1 SWAP2 SUB SWAP1 RETURN JUMPDEST PUSH2 0x4C7 PUSH2 0xC66 JUMP JUMPDEST PUSH1 0x40 MLOAD PUSH2 0x4D4 SWAP2 SWAP1 PUSH2 0x12C7 JUMP JUMPDEST PUSH1 0x40 MLOAD DUP1 SWAP2 SUB SWAP1 RETURN JUMPDEST PUSH2 0x4F7 PUSH1 0x4 DUP1 CALLDATASIZE SUB DUP2 ADD SWAP1 PUSH2 0x4F2 SWAP2 SWAP1 PUSH2 0x161E JUMP JUMPDEST PUSH2 0xC71 JUMP JUMPDEST PUSH1 0x40 MLOAD PUSH2 0x504 SWAP2 SWAP1 PUSH2 0x1658 JUMP JUMPDEST PUSH1 0x40 MLOAD DUP1 SWAP2 SUB SWAP1 RETURN JUMPDEST PUSH2 0x515 PUSH2 0xC8D JUMP JUMPDEST PUSH1 0x40 MLOAD PUSH2 0x522 SWAP2 SWAP1 PUSH2 0x12C7 JUMP JUMPDEST PUSH1 0x40 MLOAD DUP1 SWAP2 SUB SWAP1 RETURN JUMPDEST PUSH2 0x545 PUSH1 0x4 DUP1 CALLDATASIZE SUB DUP2 ADD SWAP1 PUSH2 0x540 SWAP2 SWAP1 PUSH2 0x1949 JUMP JUMPDEST PUSH2 0xC98 JUMP JUMPDEST PUSH1 0x40 MLOAD PUSH2 0x552 SWAP2 SWAP1 PUSH2 0x13FB JUMP JUMPDEST PUSH1 0x40 MLOAD DUP1 SWAP2 SUB SWAP1 RETURN JUMPDEST PUSH2 0x575 PUSH1 0x4 DUP1 CALLDATASIZE SUB DUP2 ADD SWAP1 PUSH2 0x570 SWAP2 SWAP1 PUSH2 0x1892 JUMP JUMPDEST PUSH2 0xCD0 JUMP JUMPDEST PUSH1 0x40 MLOAD PUSH2 0x582 SWAP2 SWAP1 PUSH2 0x13FB JUMP JUMPDEST PUSH1 0x40 MLOAD DUP1 SWAP2 SUB SWAP1 RETURN JUMPDEST PUSH2 0x5A5 PUSH1 0x4 DUP1 CALLDATASIZE SUB DUP2 ADD SWAP1 PUSH2 0x5A0 SWAP2 SWAP1 PUSH2 0x19B1 JUMP JUMPDEST PUSH2 0xE0D JUMP JUMPDEST PUSH1 0x40 MLOAD PUSH2 0x5B2 SWAP2 SWAP1 PUSH2 0x1453 JUMP JUMPDEST PUSH1 0x40 MLOAD DUP1 SWAP2 SUB SWAP1 RETURN JUMPDEST PUSH2 0x5C3 PUSH2 0xE93 JUMP JUMPDEST PUSH1 0x40 MLOAD PUSH2 0x5D0 SWAP2 SWAP1 PUSH2 0x1658 JUMP JUMPDEST PUSH1 0x40 MLOAD DUP1 SWAP2 SUB SWAP1 RETURN JUMPDEST PUSH2 0x5E1 PUSH2 0xE9E JUMP JUMPDEST PUSH1 0x40 MLOAD PUSH2 0x5EE SWAP2 SWAP1 PUSH2 0x12C7 JUMP JUMPDEST PUSH1 0x40 MLOAD DUP1 SWAP2 SUB SWAP1 RETURN JUMPDEST PUSH2 0x5FF PUSH2 0xEA9 JUMP JUMPDEST PUSH1 0x40 MLOAD PUSH2 0x60C SWAP2 SWAP1 PUSH2 0x12C7 JUMP JUMPDEST PUSH1 0x40 MLOAD DUP1 SWAP2 SUB SWAP1 RETURN JUMPDEST PUSH2 0x62F PUSH1 0x4 DUP1 CALLDATASIZE SUB DUP2 ADD SWAP1 PUSH2 0x62A SWAP2 SWAP1 PUSH2 0x19B1 JUMP JUMPDEST PUSH2 0xEB4 JUMP JUMPDEST PUSH1 0x40 MLOAD PUSH2 0x63C SWAP2 SWAP1 PUSH2 0x13FB JUMP JUMPDEST PUSH1 0x40 MLOAD DUP1 SWAP2 SUB SWAP1 RETURN JUMPDEST PUSH2 0x64D PUSH2 0x1007 JUMP JUMPDEST PUSH1 0x40 MLOAD PUSH2 0x65A SWAP2 SWAP1 PUSH2 0x12C7 JUMP JUMPDEST PUSH1 0x40 MLOAD DUP1 SWAP2 SUB SWAP1 RETURN JUMPDEST PUSH2 0x67D PUSH1 0x4 DUP1 CALLDATASIZE SUB DUP2 ADD SWAP1 PUSH2 0x678 SWAP2 SWAP1 PUSH2 0x1892 JUMP JUMPDEST PUSH2 0x1012 JUMP JUMPDEST PUSH1 0x40 MLOAD PUSH2 0x68A SWAP2 SWAP1 PUSH2 0x13FB JUMP JUMPDEST PUSH1 0x40 MLOAD DUP1 SWAP2 SUB SWAP1 RETURN JUMPDEST PUSH2 0x69B PUSH2 0x1066 JUMP JUMPDEST PUSH1 0x40 MLOAD PUSH2 0x6A8 SWAP2 SWAP1 PUSH2 0x1658 JUMP JUMPDEST PUSH1 0x40 MLOAD DUP1 SWAP2 SUB SWAP1 RETURN JUMPDEST PUSH2 0x6B9 PUSH2 0x1071 JUMP JUMPDEST PUSH1 0x40 MLOAD PUSH2 0x6C6 SWAP2 SWAP1 PUSH2 0x12C7 JUMP JUMPDEST PUSH1 0x40 MLOAD DUP1 SWAP2 SUB SWAP1 RETURN JUMPDEST PUSH0 DUP1 PUSH1 0x1A ADD SLOAD SWAP1 POP SWAP1 JUMP JUMPDEST PUSH1 0x40 MLOAD DUP1 PUSH1 0x40 ADD PUSH1 0x40 MSTORE DUP1 PUSH1 0xC DUP2 MSTORE PUSH1 0x20 ADD PUSH32 0x4765747465727346616365740000000000000000000000000000000000000000 DUP2 MSTORE POP DUP2 JUMP JUMPDEST PUSH2 0x71B PUSH2 0x1214 JUMP JUMPDEST PUSH0 PUSH1 0x14 ADD PUSH1 0x40 MLOAD DUP1 PUSH1 0x60 ADD PUSH1 0x40 MSTORE SWAP1 DUP2 PUSH0 DUP3 ADD SLOAD DUP2 MSTORE PUSH1 0x20 ADD PUSH1 0x1 DUP3 ADD SLOAD DUP2 MSTORE PUSH1 0x20 ADD PUSH1 0x2 DUP3 ADD SLOAD DUP2 MSTORE POP POP SWAP1 POP SWAP1 JUMP JUMPDEST PUSH0 DUP1 PUSH2 0x756 PUSH2 0x107C JUMP JUMPDEST SWAP1 POP DUP1 PUSH1 0x3 ADD PUSH0 SWAP1 SLOAD SWAP1 PUSH2 0x100 EXP SWAP1 DIV PUSH1 0xFF AND SWAP2 POP POP SWAP1 JUMP JUMPDEST PUSH0 DUP1 PUSH1 0x21 ADD SLOAD SWAP1 POP SWAP1 JUMP JUMPDEST PUSH0 DUP1 PUSH1 0xB ADD SLOAD SWAP1 POP SWAP1 JUMP JUMPDEST PUSH0 DUP1 PUSH1 0xA ADD PUSH0 SWAP1 SLOAD SWAP1 PUSH2 0x100 EXP SWAP1 DIV PUSH20 0xFFFFFFFFFFFFFFFFFFFFFFFFFFFFFFFFFFFFFFFF AND SWAP1 POP SWAP1 JUMP JUMPDEST PUSH0 DUP1 PUSH1 0x7 ADD PUSH0 SWAP1 SLOAD SWAP1 PUSH2 0x100 EXP SWAP1 DIV PUSH20 0xFFFFFFFFFFFFFFFFFFFFFFFFFFFFFFFFFFFFFFFF AND SWAP1 POP SWAP1 JUMP JUMPDEST PUSH1 0x60 PUSH0 PUSH2 0x7E4 PUSH2 0x107C JUMP JUMPDEST SWAP1 POP DUP1 PUSH1 0x2 ADD DUP1 SLOAD DUP1 PUSH1 0x20 MUL PUSH1 0x20 ADD PUSH1 0x40 MLOAD SWAP1 DUP2 ADD PUSH1 0x40 MSTORE DUP1 SWAP3 SWAP2 SWAP1 DUP2 DUP2 MSTORE PUSH1 0x20 ADD DUP3 DUP1 SLOAD DUP1 ISZERO PUSH2 0x867 JUMPI PUSH1 0x20 MUL DUP3 ADD SWAP2 SWAP1 PUSH0 MSTORE PUSH1 0x20 PUSH0 KECCAK256 SWAP1 JUMPDEST DUP2 PUSH0 SWAP1 SLOAD SWAP1 PUSH2 0x100 EXP SWAP1 DIV PUSH20 0xFFFFFFFFFFFFFFFFFFFFFFFFFFFFFFFFFFFFFFFF AND PUSH20 0xFFFFFFFFFFFFFFFFFFFFFFFFFFFFFFFFFFFFFFFF AND DUP2 MSTORE PUSH1 0x20 ADD SWAP1 PUSH1 0x1 ADD SWAP1 DUP1 DUP4 GT PUSH2 0x81E JUMPI JUMPDEST POP POP POP POP POP SWAP2 POP POP SWAP1 JUMP JUMPDEST PUSH2 0x87A PUSH2 0x123B JUMP JUMPDEST PUSH2 0x886 PUSH0 PUSH1 0x10 ADD PUSH2 0x10AA JUMP JUMPDEST SWAP1 POP SWAP1 JUMP JUMPDEST PUSH0 PUSH2 0x898 PUSH0 PUSH1 0x10 ADD PUSH2 0x11BF JUMP JUMPDEST SWAP1 POP SWAP1 JUMP JUMPDEST PUSH0 DUP1 PUSH1 0xE ADD PUSH0 DUP4 DUP2 MSTORE PUSH1 0x20 ADD SWAP1 DUP2 MSTORE PUSH1 0x20 ADD PUSH0 KECCAK256 SLOAD SWAP1 POP SWAP2 SWAP1 POP JUMP JUMPDEST PUSH0 PUSH2 0x8C6 PUSH0 PUSH1 0x10 ADD PUSH2 0x11DB JUMP JUMPDEST SWAP1 POP SWAP1 JUMP JUMPDEST PUSH1 0x60 PUSH0 PUSH2 0x8D6 PUSH2 0x107C JUMP JUMPDEST SWAP1 POP PUSH0 DUP2 PUSH1 0x2 ADD DUP1 SLOAD SWAP1 POP SWAP1 POP DUP1 PUSH8 0xFFFFFFFFFFFFFFFF DUP2 GT ISZERO PUSH2 0x8FD JUMPI PUSH2 0x8FC PUSH2 0x19DC JUMP JUMPDEST JUMPDEST PUSH1 0x40 MLOAD SWAP1 DUP1 DUP3 MSTORE DUP1 PUSH1 0x20 MUL PUSH1 0x20 ADD DUP3 ADD PUSH1 0x40 MSTORE DUP1 ISZERO PUSH2 0x936 JUMPI DUP2 PUSH1 0x20 ADD JUMPDEST PUSH2 0x923 PUSH2 0x1280 JUMP JUMPDEST DUP2 MSTORE PUSH1 0x20 ADD SWAP1 PUSH1 0x1 SWAP1 SUB SWAP1 DUP2 PUSH2 0x91B JUMPI SWAP1 POP JUMPDEST POP SWAP3 POP PUSH0 JUMPDEST DUP2 DUP2 LT ISZERO PUSH2 0xAE4 JUMPI PUSH0 DUP4 PUSH1 0x2 ADD DUP3 DUP2 SLOAD DUP2 LT PUSH2 0x95A JUMPI PUSH2 0x959 PUSH2 0x1A09 JUMP JUMPDEST JUMPDEST SWAP1 PUSH0 MSTORE PUSH1 0x20 PUSH0 KECCAK256 ADD PUSH0 SWAP1 SLOAD SWAP1 PUSH2 0x100 EXP SWAP1 DIV PUSH20 0xFFFFFFFFFFFFFFFFFFFFFFFFFFFFFFFFFFFFFFFF AND SWAP1 POP PUSH0 DUP5 PUSH1 0x1 ADD PUSH0 DUP4 PUSH20 0xFFFFFFFFFFFFFFFFFFFFFFFFFFFFFFFFFFFFFFFF AND PUSH20 0xFFFFFFFFFFFFFFFFFFFFFFFFFFFFFFFFFFFFFFFF AND DUP2 MSTORE PUSH1 0x20 ADD SWAP1 DUP2 MSTORE PUSH1 0x20 ADD PUSH0 KECCAK256 PUSH1 0x40 MLOAD DUP1 PUSH1 0x40 ADD PUSH1 0x40 MSTORE SWAP1 DUP2 PUSH0 DUP3 ADD DUP1 SLOAD DUP1 PUSH1 0x20 MUL PUSH1 0x20 ADD PUSH1 0x40 MLOAD SWAP1 DUP2 ADD PUSH1 0x40 MSTORE DUP1 SWAP3 SWAP2 SWAP1 DUP2 DUP2 MSTORE PUSH1 0x20 ADD DUP3 DUP1 SLOAD DUP1 ISZERO PUSH2 0xA5C JUMPI PUSH1 0x20 MUL DUP3 ADD SWAP2 SWAP1 PUSH0 MSTORE PUSH1 0x20 PUSH0 KECCAK256 SWAP1 PUSH0 SWAP1 JUMPDEST DUP3 DUP3 SWAP1 SLOAD SWAP1 PUSH2 0x100 EXP SWAP1 DIV PUSH1 0xE0 SHL PUSH28 0xFFFFFFFFFFFFFFFFFFFFFFFFFFFFFFFFFFFFFFFFFFFFFFFFFFFFFFFF NOT AND DUP2 MSTORE PUSH1 0x20 ADD SWAP1 PUSH1 0x4 ADD SWAP1 PUSH1 0x20 DUP3 PUSH1 0x3 ADD DIV SWAP3 DUP4 ADD SWAP3 PUSH1 0x1 SUB DUP3 MUL SWAP2 POP DUP1 DUP5 GT PUSH2 0xA09 JUMPI SWAP1 POP JUMPDEST POP POP POP POP POP DUP2 MSTORE PUSH1 0x20 ADD PUSH1 0x1 DUP3 ADD PUSH0 SWAP1 SLOAD SWAP1 PUSH2 0x100 EXP SWAP1 DIV PUSH2 0xFFFF AND PUSH2 0xFFFF AND PUSH2 0xFFFF AND DUP2 MSTORE POP POP SWAP1 POP PUSH1 0x40 MLOAD DUP1 PUSH1 0x40 ADD PUSH1 0x40 MSTORE DUP1 DUP4 PUSH20 0xFFFFFFFFFFFFFFFFFFFFFFFFFFFFFFFFFFFFFFFF AND DUP2 MSTORE PUSH1 0x20 ADD DUP3 PUSH0 ADD MLOAD DUP2 MSTORE POP DUP7 DUP5 DUP2 MLOAD DUP2 LT PUSH2 0xAC7 JUMPI PUSH2 0xAC6 PUSH2 0x1A09 JUMP JUMPDEST JUMPDEST PUSH1 0x20 MUL PUSH1 0x20 ADD ADD DUP2 SWAP1 MSTORE POP POP POP PUSH2 0xADD DUP2 PUSH2 0x11E8 JUMP JUMPDEST SWAP1 POP PUSH2 0x93B JUMP JUMPDEST POP POP POP SWAP1 JUMP JUMPDEST PUSH0 DUP1 PUSH1 0x22 ADD SLOAD SWAP1 POP SWAP1 JUMP JUMPDEST PUSH0 DUP1 PUSH1 0x8 ADD PUSH0 SWAP1 SLOAD SWAP1 PUSH2 0x100 EXP SWAP1 DIV PUSH20 0xFFFFFFFFFFFFFFFFFFFFFFFFFFFFFFFFFFFFFFFF AND SWAP1 POP SWAP1 JUMP JUMPDEST PUSH0 DUP1 PUSH1 0xF ADD PUSH0 DUP4 DUP2 MSTORE PUSH1 0x20 ADD SWAP1 DUP2 MSTORE PUSH1 0x20 ADD PUSH0 KECCAK256 SLOAD SWAP1 POP SWAP2 SWAP1 POP JUMP JUMPDEST PUSH0 DUP1 PUSH1 0x23 ADD SLOAD SWAP1 POP SWAP1 JUMP JUMPDEST PUSH0 PUSH2 0xB53 PUSH0 PUSH1 0x10 ADD PUSH2 0x11F4 JUMP JUMPDEST SWAP1 POP SWAP1 JUMP JUMPDEST PUSH0 DUP1 PUSH1 0x13 ADD PUSH0 SWAP1 SLOAD SWAP1 PUSH2 0x100 EXP SWAP1 DIV PUSH20 0xFFFFFFFFFFFFFFFFFFFFFFFFFFFFFFFFFFFFFFFF AND SWAP1 POP SWAP1 JUMP JUMPDEST PUSH1 0x60 PUSH0 PUSH2 0xB8D PUSH2 0x107C JUMP JUMPDEST SWAP1 POP DUP1 PUSH1 0x1 ADD PUSH0 DUP5 PUSH20 0xFFFFFFFFFFFFFFFFFFFFFFFFFFFFFFFFFFFFFFFF AND PUSH20 0xFFFFFFFFFFFFFFFFFFFFFFFFFFFFFFFFFFFFFFFF AND DUP2 MSTORE PUSH1 0x20 ADD SWAP1 DUP2 MSTORE PUSH1 0x20 ADD PUSH0 KECCAK256 PUSH0 ADD DUP1 SLOAD DUP1 PUSH1 0x20 MUL PUSH1 0x20 ADD PUSH1 0x40 MLOAD SWAP1 DUP2 ADD PUSH1 0x40 MSTORE DUP1 SWAP3 SWAP2 SWAP1 DUP2 DUP2 MSTORE PUSH1 0x20 ADD DUP3 DUP1 SLOAD DUP1 ISZERO PUSH2 0xC59 JUMPI PUSH1 0x20 MUL DUP3 ADD SWAP2 SWAP1 PUSH0 MSTORE PUSH1 0x20 PUSH0 KECCAK256 SWAP1 PUSH0 SWAP1 JUMPDEST DUP3 DUP3 SWAP1 SLOAD SWAP1 PUSH2 0x100 EXP SWAP1 DIV PUSH1 0xE0 SHL PUSH28 0xFFFFFFFFFFFFFFFFFFFFFFFFFFFFFFFFFFFFFFFFFFFFFFFFFFFFFFFF NOT AND DUP2 MSTORE PUSH1 0x20 ADD SWAP1 PUSH1 0x4 ADD SWAP1 PUSH1 0x20 DUP3 PUSH1 0x3 ADD DIV SWAP3 DUP4 ADD SWAP3 PUSH1 0x1 SUB DUP3 MUL SWAP2 POP DUP1 DUP5 GT PUSH2 0xC06 JUMPI SWAP1 POP JUMPDEST POP POP POP POP POP SWAP2 POP POP SWAP2 SWAP1 POP JUMP JUMPDEST PUSH0 DUP1 PUSH1 0xC ADD SLOAD SWAP1 POP SWAP1 JUMP JUMPDEST PUSH0 DUP1 PUSH1 0xE ADD PUSH0 DUP4 DUP2 MSTORE PUSH1 0x20 ADD SWAP1 DUP2 MSTORE PUSH1 0x20 ADD PUSH0 KECCAK256 SLOAD SWAP1 POP SWAP2 SWAP1 POP JUMP JUMPDEST PUSH0 DUP1 PUSH1 0xB ADD SLOAD SWAP1 POP SWAP1 JUMP JUMPDEST PUSH0 DUP1 PUSH1 0x1D ADD PUSH0 DUP5 DUP2 MSTORE PUSH1 0x20 ADD SWAP1 DUP2 MSTORE PUSH1 0x20 ADD PUSH0 KECCAK256 PUSH0 DUP4 DUP2 MSTORE PUSH1 0x20 ADD SWAP1 DUP2 MSTORE PUSH1 0x20 ADD PUSH0 KECCAK256 PUSH0 SWAP1 SLOAD SWAP1 PUSH2 0x100 EXP SWAP1 DIV PUSH1 0xFF AND SWAP1 POP SWAP3 SWAP2 POP POP JUMP JUMPDEST PUSH0 DUP1 PUSH2 0xCDA PUSH2 0x107C JUMP JUMPDEST SWAP1 POP PUSH0 DUP2 PUSH1 0x1 ADD PUSH0 DUP6 PUSH20 0xFFFFFFFFFFFFFFFFFFFFFFFFFFFFFFFFFFFFFFFF AND PUSH20 0xFFFFFFFFFFFFFFFFFFFFFFFFFFFFFFFFFFFFFFFF AND DUP2 MSTORE PUSH1 0x20 ADD SWAP1 DUP2 MSTORE PUSH1 0x20 ADD PUSH0 KECCAK256 PUSH0 ADD DUP1 SLOAD SWAP1 POP SWAP1 POP PUSH0 DUP2 EQ PUSH2 0xE06 JUMPI PUSH0 DUP3 PUSH1 0x1 ADD PUSH0 DUP7 PUSH20 0xFFFFFFFFFFFFFFFFFFFFFFFFFFFFFFFFFFFFFFFF AND PUSH20 0xFFFFFFFFFFFFFFFFFFFFFFFFFFFFFFFFFFFFFFFF AND DUP2 MSTORE PUSH1 0x20 ADD SWAP1 DUP2 MSTORE PUSH1 0x20 ADD PUSH0 KECCAK256 PUSH0 ADD PUSH0 DUP2 SLOAD DUP2 LT PUSH2 0xD7F JUMPI PUSH2 0xD7E PUSH2 0x1A09 JUMP JUMPDEST JUMPDEST SWAP1 PUSH0 MSTORE PUSH1 0x20 PUSH0 KECCAK256 SWAP1 PUSH1 0x8 SWAP2 DUP3 DUP3 DIV ADD SWAP2 SWAP1 MOD PUSH1 0x4 MUL SWAP1 SLOAD SWAP1 PUSH2 0x100 EXP SWAP1 DIV PUSH1 0xE0 SHL SWAP1 POP DUP3 PUSH0 ADD PUSH0 DUP3 PUSH28 0xFFFFFFFFFFFFFFFFFFFFFFFFFFFFFFFFFFFFFFFFFFFFFFFFFFFFFFFF NOT AND PUSH28 0xFFFFFFFFFFFFFFFFFFFFFFFFFFFFFFFFFFFFFFFFFFFFFFFFFFFFFFFF NOT AND DUP2 MSTORE PUSH1 0x20 ADD SWAP1 DUP2 MSTORE PUSH1 0x20 ADD PUSH0 KECCAK256 PUSH0 ADD PUSH1 0x16 SWAP1 SLOAD SWAP1 PUSH2 0x100 EXP SWAP1 DIV PUSH1 0xFF AND SWAP4 POP POP JUMPDEST POP POP SWAP2 SWAP1 POP JUMP JUMPDEST PUSH0 DUP1 PUSH2 0xE17 PUSH2 0x107C JUMP JUMPDEST SWAP1 POP DUP1 PUSH0 ADD PUSH0 DUP5 PUSH28 0xFFFFFFFFFFFFFFFFFFFFFFFFFFFFFFFFFFFFFFFFFFFFFFFFFFFFFFFF NOT AND PUSH28 0xFFFFFFFFFFFFFFFFFFFFFFFFFFFFFFFFFFFFFFFFFFFFFFFFFFFFFFFF NOT AND DUP2 MSTORE PUSH1 0x20 ADD SWAP1 DUP2 MSTORE PUSH1 0x20 ADD PUSH0 KECCAK256 PUSH0 ADD PUSH0 SWAP1 SLOAD SWAP1 PUSH2 0x100 EXP SWAP1 DIV PUSH20 0xFFFFFFFFFFFFFFFFFFFFFFFFFFFFFFFFFFFFFFFF AND SWAP2 POP POP SWAP2 SWAP1 POP JUMP JUMPDEST PUSH0 DUP1 PUSH1 0x17 ADD SLOAD SWAP1 POP SWAP1 JUMP JUMPDEST PUSH0 DUP1 PUSH1 0xD ADD SLOAD SWAP1 POP SWAP1 JUMP JUMPDEST PUSH0 DUP1 PUSH1 0x23 ADD SLOAD SWAP1 POP SWAP1 JUMP JUMPDEST PUSH0 DUP1 PUSH2 0xEBE PUSH2 0x107C JUMP JUMPDEST SWAP1 POP PUSH0 PUSH20 0xFFFFFFFFFFFFFFFFFFFFFFFFFFFFFFFFFFFFFFFF AND DUP2 PUSH0 ADD PUSH0 DUP6 PUSH28 0xFFFFFFFFFFFFFFFFFFFFFFFFFFFFFFFFFFFFFFFFFFFFFFFFFFFFFFFF NOT AND PUSH28 0xFFFFFFFFFFFFFFFFFFFFFFFFFFFFFFFFFFFFFFFFFFFFFFFFFFFFFFFF NOT AND DUP2 MSTORE PUSH1 0x20 ADD SWAP1 DUP2 MSTORE PUSH1 0x20 ADD PUSH0 KECCAK256 PUSH0 ADD PUSH0 SWAP1 SLOAD SWAP1 PUSH2 0x100 EXP SWAP1 DIV PUSH20 0xFFFFFFFFFFFFFFFFFFFFFFFFFFFFFFFFFFFFFFFF AND PUSH20 0xFFFFFFFFFFFFFFFFFFFFFFFFFFFFFFFFFFFFFFFF AND SUB PUSH2 0xF9F JUMPI PUSH1 0x40 MLOAD PUSH32 0x8C379A000000000000000000000000000000000000000000000000000000000 DUP2 MSTORE PUSH1 0x4 ADD PUSH2 0xF96 SWAP1 PUSH2 0x1A80 JUMP JUMPDEST PUSH1 0x40 MLOAD DUP1 SWAP2 SUB SWAP1 REVERT JUMPDEST DUP1 PUSH0 ADD PUSH0 DUP5 PUSH28 0xFFFFFFFFFFFFFFFFFFFFFFFFFFFFFFFFFFFFFFFFFFFFFFFFFFFFFFFF NOT AND PUSH28 0xFFFFFFFFFFFFFFFFFFFFFFFFFFFFFFFFFFFFFFFFFFFFFFFFFFFFFFFF NOT AND DUP2 MSTORE PUSH1 0x20 ADD SWAP1 DUP2 MSTORE PUSH1 0x20 ADD PUSH0 KECCAK256 PUSH0 ADD PUSH1 0x16 SWAP1 SLOAD SWAP1 PUSH2 0x100 EXP SWAP1 DIV PUSH1 0xFF AND SWAP2 POP POP SWAP2 SWAP1 POP JUMP JUMPDEST PUSH0 DUP1 PUSH1 0xC ADD SLOAD SWAP1 POP SWAP1 JUMP JUMPDEST PUSH0 DUP1 PUSH1 0x9 ADD PUSH0 DUP4 PUSH20 0xFFFFFFFFFFFFFFFFFFFFFFFFFFFFFFFFFFFFFFFF AND PUSH20 0xFFFFFFFFFFFFFFFFFFFFFFFFFFFFFFFFFFFFFFFF AND DUP2 MSTORE PUSH1 0x20 ADD SWAP1 DUP2 MSTORE PUSH1 0x20 ADD PUSH0 KECCAK256 PUSH0 SWAP1 SLOAD SWAP1 PUSH2 0x100 EXP SWAP1 DIV PUSH1 0xFF AND SWAP1 POP SWAP2 SWAP1 POP JUMP JUMPDEST PUSH0 DUP1 PUSH1 0x18 ADD SLOAD SWAP1 POP SWAP1 JUMP JUMPDEST PUSH0 DUP1 PUSH1 0xD ADD SLOAD SWAP1 POP SWAP1 JUMP JUMPDEST PUSH0 DUP1 PUSH32 0xC8FCAD8DB84D3CC18B4C41D551EA0EE66DD599CDE068D998E57D5E09332C131B PUSH0 SHL SWAP1 POP DUP1 SWAP2 POP POP SWAP1 JUMP JUMPDEST PUSH2 0x10B2 PUSH2 0x123B JUMP JUMPDEST PUSH2 0x10BB DUP3 PUSH2 0x1201 JUMP JUMPDEST ISZERO PUSH2 0x10FB JUMPI PUSH1 0x40 MLOAD PUSH32 0x8C379A000000000000000000000000000000000000000000000000000000000 DUP2 MSTORE PUSH1 0x4 ADD PUSH2 0x10F2 SWAP1 PUSH2 0x1AE8 JUMP JUMPDEST PUSH1 0x40 MLOAD DUP1 SWAP2 SUB SWAP1 REVERT JUMPDEST DUP2 PUSH0 ADD PUSH0 DUP4 PUSH1 0x2 ADD SLOAD DUP2 MSTORE PUSH1 0x20 ADD SWAP1 DUP2 MSTORE PUSH1 0x20 ADD PUSH0 KECCAK256 PUSH1 0x40 MLOAD DUP1 PUSH1 0x60 ADD PUSH1 0x40 MSTORE SWAP1 DUP2 PUSH0 DUP3 ADD SLOAD DUP2 MSTORE PUSH1 0x20 ADD PUSH1 0x1 DUP3 ADD PUSH0 SWAP1 SLOAD SWAP1 PUSH2 0x100 EXP SWAP1 DIV PUSH8 0xFFFFFFFFFFFFFFFF AND PUSH8 0xFFFFFFFFFFFFFFFF AND PUSH8 0xFFFFFFFFFFFFFFFF AND DUP2 MSTORE PUSH1 0x20 ADD PUSH1 0x1 DUP3 ADD PUSH1 0x8 SWAP1 SLOAD SWAP1 PUSH2 0x100 EXP SWAP1 DIV PUSH24 0xFFFFFFFFFFFFFFFFFFFFFFFFFFFFFFFFFFFFFFFFFFFFFFFF AND PUSH24 0xFFFFFFFFFFFFFFFFFFFFFFFFFFFFFFFFFFFFFFFFFFFFFFFF AND PUSH24 0xFFFFFFFFFFFFFFFFFFFFFFFFFFFFFFFFFFFFFFFFFFFFFFFF AND DUP2 MSTORE POP POP SWAP1 POP SWAP2 SWAP1 POP JUMP JUMPDEST PUSH0 DUP2 PUSH1 0x2 ADD SLOAD DUP3 PUSH1 0x1 ADD SLOAD PUSH2 0x11D4 SWAP2 SWAP1 PUSH2 0x1B33 JUMP JUMPDEST SWAP1 POP SWAP2 SWAP1 POP JUMP JUMPDEST PUSH0 DUP2 PUSH1 0x2 ADD SLOAD SWAP1 POP SWAP2 SWAP1 POP JUMP JUMPDEST PUSH0 PUSH1 0x1 DUP3 ADD SWAP1 POP SWAP2 SWAP1 POP JUMP JUMPDEST PUSH0 DUP2 PUSH1 0x1 ADD SLOAD SWAP1 POP SWAP2 SWAP1 POP JUMP JUMPDEST PUSH0 DUP2 PUSH1 0x2 ADD SLOAD DUP3 PUSH1 0x1 ADD SLOAD EQ SWAP1 POP SWAP2 SWAP1 POP JUMP JUMPDEST PUSH1 0x40 MLOAD DUP1 PUSH1 0x60 ADD PUSH1 0x40 MSTORE DUP1 PUSH0 DUP1 NOT AND DUP2 MSTORE PUSH1 0x20 ADD PUSH0 DUP1 NOT AND DUP2 MSTORE PUSH1 0x20 ADD PUSH0 DUP1 NOT AND DUP2 MSTORE POP SWAP1 JUMP JUMPDEST PUSH1 0x40 MLOAD DUP1 PUSH1 0x60 ADD PUSH1 0x40 MSTORE DUP1 PUSH0 DUP1 NOT AND DUP2 MSTORE PUSH1 0x20 ADD PUSH0 PUSH8 0xFFFFFFFFFFFFFFFF AND DUP2 MSTORE PUSH1 0x20 ADD PUSH0 PUSH24 0xFFFFFFFFFFFFFFFFFFFFFFFFFFFFFFFFFFFFFFFFFFFFFFFF AND DUP2 MSTORE POP SWAP1 JUMP JUMPDEST PUSH1 0x40 MLOAD DUP1 PUSH1 0x40 ADD PUSH1 0x40 MSTORE DUP1 PUSH0 PUSH20 0xFFFFFFFFFFFFFFFFFFFFFFFFFFFFFFFFFFFFFFFF AND DUP2 MSTORE PUSH1 0x20 ADD PUSH1 0x60 DUP2 MSTORE POP SWAP1 JUMP JUMPDEST PUSH0 DUP2 SWAP1 POP SWAP2 SWAP1 POP JUMP JUMPDEST PUSH2 0x12C1 DUP2 PUSH2 0x12AF JUMP JUMPDEST DUP3 MSTORE POP POP JUMP JUMPDEST PUSH0 PUSH1 0x20 DUP3 ADD SWAP1 POP PUSH2 0x12DA PUSH0 DUP4 ADD DUP5 PUSH2 0x12B8 JUMP JUMPDEST SWAP3 SWAP2 POP POP JUMP JUMPDEST PUSH0 DUP2 MLOAD SWAP1 POP SWAP2 SWAP1 POP JUMP JUMPDEST PUSH0 DUP3 DUP3 MSTORE PUSH1 0x20 DUP3 ADD SWAP1 POP SWAP3 SWAP2 POP POP JUMP JUMPDEST DUP3 DUP2 DUP4 MCOPY PUSH0 DUP4 DUP4 ADD MSTORE POP POP POP JUMP JUMPDEST PUSH0 PUSH1 0x1F NOT PUSH1 0x1F DUP4 ADD AND SWAP1 POP SWAP2 SWAP1 POP JUMP JUMPDEST PUSH0 PUSH2 0x1322 DUP3 PUSH2 0x12E0 JUMP JUMPDEST PUSH2 0x132C DUP2 DUP6 PUSH2 0x12EA JUMP JUMPDEST SWAP4 POP PUSH2 0x133C DUP2 DUP6 PUSH1 0x20 DUP7 ADD PUSH2 0x12FA JUMP JUMPDEST PUSH2 0x1345 DUP2 PUSH2 0x1308 JUMP JUMPDEST DUP5 ADD SWAP2 POP POP SWAP3 SWAP2 POP POP JUMP JUMPDEST PUSH0 PUSH1 0x20 DUP3 ADD SWAP1 POP DUP2 DUP2 SUB PUSH0 DUP4 ADD MSTORE PUSH2 0x1368 DUP2 DUP5 PUSH2 0x1318 JUMP JUMPDEST SWAP1 POP SWAP3 SWAP2 POP POP JUMP JUMPDEST PUSH0 DUP2 SWAP1 POP SWAP2 SWAP1 POP JUMP JUMPDEST PUSH2 0x1382 DUP2 PUSH2 0x1370 JUMP JUMPDEST DUP3 MSTORE POP POP JUMP JUMPDEST PUSH1 0x60 DUP3 ADD PUSH0 DUP3 ADD MLOAD PUSH2 0x139C PUSH0 DUP6 ADD DUP3 PUSH2 0x1379 JUMP JUMPDEST POP PUSH1 0x20 DUP3 ADD MLOAD PUSH2 0x13AF PUSH1 0x20 DUP6 ADD DUP3 PUSH2 0x1379 JUMP JUMPDEST POP PUSH1 0x40 DUP3 ADD MLOAD PUSH2 0x13C2 PUSH1 0x40 DUP6 ADD DUP3 PUSH2 0x1379 JUMP JUMPDEST POP POP POP POP JUMP JUMPDEST PUSH0 PUSH1 0x60 DUP3 ADD SWAP1 POP PUSH2 0x13DB PUSH0 DUP4 ADD DUP5 PUSH2 0x1388 JUMP JUMPDEST SWAP3 SWAP2 POP POP JUMP JUMPDEST PUSH0 DUP2 ISZERO ISZERO SWAP1 POP SWAP2 SWAP1 POP JUMP JUMPDEST PUSH2 0x13F5 DUP2 PUSH2 0x13E1 JUMP JUMPDEST DUP3 MSTORE POP POP JUMP JUMPDEST PUSH0 PUSH1 0x20 DUP3 ADD SWAP1 POP PUSH2 0x140E PUSH0 DUP4 ADD DUP5 PUSH2 0x13EC JUMP JUMPDEST SWAP3 SWAP2 POP POP JUMP JUMPDEST PUSH0 PUSH20 0xFFFFFFFFFFFFFFFFFFFFFFFFFFFFFFFFFFFFFFFF DUP3 AND SWAP1 POP SWAP2 SWAP1 POP JUMP JUMPDEST PUSH0 PUSH2 0x143D DUP3 PUSH2 0x1414 JUMP JUMPDEST SWAP1 POP SWAP2 SWAP1 POP JUMP JUMPDEST PUSH2 0x144D DUP2 PUSH2 0x1433 JUMP JUMPDEST DUP3 MSTORE POP POP JUMP JUMPDEST PUSH0 PUSH1 0x20 DUP3 ADD SWAP1 POP PUSH2 0x1466 PUSH0 DUP4 ADD DUP5 PUSH2 0x1444 JUMP JUMPDEST SWAP3 SWAP2 POP POP JUMP JUMPDEST PUSH0 DUP2 MLOAD SWAP1 POP SWAP2 SWAP1 POP JUMP JUMPDEST PUSH0 DUP3 DUP3 MSTORE PUSH1 0x20 DUP3 ADD SWAP1 POP SWAP3 SWAP2 POP POP JUMP JUMPDEST PUSH0 DUP2 SWAP1 POP PUSH1 0x20 DUP3 ADD SWAP1 POP SWAP2 SWAP1 POP JUMP JUMPDEST PUSH2 0x149E DUP2 PUSH2 0x1433 JUMP JUMPDEST DUP3 MSTORE POP POP JUMP JUMPDEST PUSH0 PUSH2 0x14AF DUP4 DUP4 PUSH2 0x1495 JUMP JUMPDEST PUSH1 0x20 DUP4 ADD SWAP1 POP SWAP3 SWAP2 POP POP JUMP JUMPDEST PUSH0 PUSH1 0x20 DUP3 ADD SWAP1 POP SWAP2 SWAP1 POP JUMP JUMPDEST PUSH0 PUSH2 0x14D1 DUP3 PUSH2 0x146C JUMP JUMPDEST PUSH2 0x14DB DUP2 DUP6 PUSH2 0x1476 JUMP JUMPDEST SWAP4 POP PUSH2 0x14E6 DUP4 PUSH2 0x1486 JUMP JUMPDEST DUP1 PUSH0 JUMPDEST DUP4 DUP2 LT ISZERO PUSH2 0x1516 JUMPI DUP2 MLOAD PUSH2 0x14FD DUP9 DUP3 PUSH2 0x14A4 JUMP JUMPDEST SWAP8 POP PUSH2 0x1508 DUP4 PUSH2 0x14BB JUMP JUMPDEST SWAP3 POP POP PUSH1 0x1 DUP2 ADD SWAP1 POP PUSH2 0x14E9 JUMP JUMPDEST POP DUP6 SWAP4 POP POP POP POP SWAP3 SWAP2 POP POP JUMP JUMPDEST PUSH0 PUSH1 0x20 DUP3 ADD SWAP1 POP DUP2 DUP2 SUB PUSH0 DUP4 ADD MSTORE PUSH2 0x153B DUP2 DUP5 PUSH2 0x14C7 JUMP JUMPDEST SWAP1 POP SWAP3 SWAP2 POP POP JUMP JUMPDEST PUSH0 PUSH8 0xFFFFFFFFFFFFFFFF DUP3 AND SWAP1 POP SWAP2 SWAP1 POP JUMP JUMPDEST PUSH2 0x155F DUP2 PUSH2 0x1543 JUMP JUMPDEST DUP3 MSTORE POP POP JUMP JUMPDEST PUSH0 PUSH24 0xFFFFFFFFFFFFFFFFFFFFFFFFFFFFFFFFFFFFFFFFFFFFFFFF DUP3 AND SWAP1 POP SWAP2 SWAP1 POP JUMP JUMPDEST PUSH2 0x1591 DUP2 PUSH2 0x1565 JUMP JUMPDEST DUP3 MSTORE POP POP JUMP JUMPDEST PUSH1 0x60 DUP3 ADD PUSH0 DUP3 ADD MLOAD PUSH2 0x15AB PUSH0 DUP6 ADD DUP3 PUSH2 0x1379 JUMP JUMPDEST POP PUSH1 0x20 DUP3 ADD MLOAD PUSH2 0x15BE PUSH1 0x20 DUP6 ADD DUP3 PUSH2 0x1556 JUMP JUMPDEST POP PUSH1 0x40 DUP3 ADD MLOAD PUSH2 0x15D1 PUSH1 0x40 DUP6 ADD DUP3 PUSH2 0x1588 JUMP JUMPDEST POP POP POP POP JUMP JUMPDEST PUSH0 PUSH1 0x60 DUP3 ADD SWAP1 POP PUSH2 0x15EA PUSH0 DUP4 ADD DUP5 PUSH2 0x1597 JUMP JUMPDEST SWAP3 SWAP2 POP POP JUMP JUMPDEST PUSH0 DUP1 REVERT JUMPDEST PUSH2 0x15FD DUP2 PUSH2 0x12AF JUMP JUMPDEST DUP2 EQ PUSH2 0x1607 JUMPI PUSH0 DUP1 REVERT JUMPDEST POP JUMP JUMPDEST PUSH0 DUP2 CALLDATALOAD SWAP1 POP PUSH2 0x1618 DUP2 PUSH2 0x15F4 JUMP JUMPDEST SWAP3 SWAP2 POP POP JUMP JUMPDEST PUSH0 PUSH1 0x20 DUP3 DUP5 SUB SLT ISZERO PUSH2 0x1633 JUMPI PUSH2 0x1632 PUSH2 0x15F0 JUMP JUMPDEST JUMPDEST PUSH0 PUSH2 0x1640 DUP5 DUP3 DUP6 ADD PUSH2 0x160A JUMP JUMPDEST SWAP2 POP POP SWAP3 SWAP2 POP POP JUMP JUMPDEST PUSH2 0x1652 DUP2 PUSH2 0x1370 JUMP JUMPDEST DUP3 MSTORE POP POP JUMP JUMPDEST PUSH0 PUSH1 0x20 DUP3 ADD SWAP1 POP PUSH2 0x166B PUSH0 DUP4 ADD DUP5 PUSH2 0x1649 JUMP JUMPDEST SWAP3 SWAP2 POP POP JUMP JUMPDEST PUSH0 DUP2 MLOAD SWAP1 POP SWAP2 SWAP1 POP JUMP JUMPDEST PUSH0 DUP3 DUP3 MSTORE PUSH1 0x20 DUP3 ADD SWAP1 POP SWAP3 SWAP2 POP POP JUMP JUMPDEST PUSH0 DUP2 SWAP1 POP PUSH1 0x20 DUP3 ADD SWAP1 POP SWAP2 SWAP1 POP JUMP JUMPDEST PUSH0 DUP2 MLOAD SWAP1 POP SWAP2 SWAP1 POP JUMP JUMPDEST PUSH0 DUP3 DUP3 MSTORE PUSH1 0x20 DUP3 ADD SWAP1 POP SWAP3 SWAP2 POP POP JUMP JUMPDEST PUSH0 DUP2 SWAP1 POP PUSH1 0x20 DUP3 ADD SWAP1 POP SWAP2 SWAP1 POP JUMP JUMPDEST PUSH0 PUSH32 0xFFFFFFFF00000000000000000000000000000000000000000000000000000000 DUP3 AND SWAP1 POP SWAP2 SWAP1 POP JUMP JUMPDEST PUSH2 0x16F7 DUP2 PUSH2 0x16C3 JUMP JUMPDEST DUP3 MSTORE POP POP JUMP JUMPDEST PUSH0 PUSH2 0x1708 DUP4 DUP4 PUSH2 0x16EE JUMP JUMPDEST PUSH1 0x20 DUP4 ADD SWAP1 POP SWAP3 SWAP2 POP POP JUMP JUMPDEST PUSH0 PUSH1 0x20 DUP3 ADD SWAP1 POP SWAP2 SWAP1 POP JUMP JUMPDEST PUSH0 PUSH2 0x172A DUP3 PUSH2 0x169A JUMP JUMPDEST PUSH2 0x1734 DUP2 DUP6 PUSH2 0x16A4 JUMP JUMPDEST SWAP4 POP PUSH2 0x173F DUP4 PUSH2 0x16B4 JUMP JUMPDEST DUP1 PUSH0 JUMPDEST DUP4 DUP2 LT ISZERO PUSH2 0x176F JUMPI DUP2 MLOAD PUSH2 0x1756 DUP9 DUP3 PUSH2 0x16FD JUMP JUMPDEST SWAP8 POP PUSH2 0x1761 DUP4 PUSH2 0x1714 JUMP JUMPDEST SWAP3 POP POP PUSH1 0x1 DUP2 ADD SWAP1 POP PUSH2 0x1742 JUMP JUMPDEST POP DUP6 SWAP4 POP POP POP POP SWAP3 SWAP2 POP POP JUMP JUMPDEST PUSH0 PUSH1 0x40 DUP4 ADD PUSH0 DUP4 ADD MLOAD PUSH2 0x1791 PUSH0 DUP7 ADD DUP3 PUSH2 0x1495 JUMP JUMPDEST POP PUSH1 0x20 DUP4 ADD MLOAD DUP5 DUP3 SUB PUSH1 0x20 DUP7 ADD MSTORE PUSH2 0x17A9 DUP3 DUP3 PUSH2 0x1720 JUMP JUMPDEST SWAP2 POP POP DUP1 SWAP2 POP POP SWAP3 SWAP2 POP POP JUMP JUMPDEST PUSH0 PUSH2 0x17C1 DUP4 DUP4 PUSH2 0x177C JUMP JUMPDEST SWAP1 POP SWAP3 SWAP2 POP POP JUMP JUMPDEST PUSH0 PUSH1 0x20 DUP3 ADD SWAP1 POP SWAP2 SWAP1 POP JUMP JUMPDEST PUSH0 PUSH2 0x17DF DUP3 PUSH2 0x1671 JUMP JUMPDEST PUSH2 0x17E9 DUP2 DUP6 PUSH2 0x167B JUMP JUMPDEST SWAP4 POP DUP4 PUSH1 0x20 DUP3 MUL DUP6 ADD PUSH2 0x17FB DUP6 PUSH2 0x168B JUMP JUMPDEST DUP1 PUSH0 JUMPDEST DUP6 DUP2 LT ISZERO PUSH2 0x1836 JUMPI DUP5 DUP5 SUB DUP10 MSTORE DUP2 MLOAD PUSH2 0x1817 DUP6 DUP3 PUSH2 0x17B6 JUMP JUMPDEST SWAP5 POP PUSH2 0x1822 DUP4 PUSH2 0x17C9 JUMP JUMPDEST SWAP3 POP PUSH1 0x20 DUP11 ADD SWAP10 POP POP PUSH1 0x1 DUP2 ADD SWAP1 POP PUSH2 0x17FE JUMP JUMPDEST POP DUP3 SWAP8 POP DUP8 SWAP6 POP POP POP POP POP POP SWAP3 SWAP2 POP POP JUMP JUMPDEST PUSH0 PUSH1 0x20 DUP3 ADD SWAP1 POP DUP2 DUP2 SUB PUSH0 DUP4 ADD MSTORE PUSH2 0x1860 DUP2 DUP5 PUSH2 0x17D5 JUMP JUMPDEST SWAP1 POP SWAP3 SWAP2 POP POP JUMP JUMPDEST PUSH2 0x1871 DUP2 PUSH2 0x1433 JUMP JUMPDEST DUP2 EQ PUSH2 0x187B JUMPI PUSH0 DUP1 REVERT JUMPDEST POP JUMP JUMPDEST PUSH0 DUP2 CALLDATALOAD SWAP1 POP PUSH2 0x188C DUP2 PUSH2 0x1868 JUMP JUMPDEST SWAP3 SWAP2 POP POP JUMP JUMPDEST PUSH0 PUSH1 0x20 DUP3 DUP5 SUB SLT ISZERO PUSH2 0x18A7 JUMPI PUSH2 0x18A6 PUSH2 0x15F0 JUMP JUMPDEST JUMPDEST PUSH0 PUSH2 0x18B4 DUP5 DUP3 DUP6 ADD PUSH2 0x187E JUMP JUMPDEST SWAP2 POP POP SWAP3 SWAP2 POP POP JUMP JUMPDEST PUSH0 DUP3 DUP3 MSTORE PUSH1 0x20 DUP3 ADD SWAP1 POP SWAP3 SWAP2 POP POP JUMP JUMPDEST PUSH0 PUSH2 0x18D7 DUP3 PUSH2 0x169A JUMP JUMPDEST PUSH2 0x18E1 DUP2 DUP6 PUSH2 0x18BD JUMP JUMPDEST SWAP4 POP PUSH2 0x18EC DUP4 PUSH2 0x16B4 JUMP JUMPDEST DUP1 PUSH0 JUMPDEST DUP4 DUP2 LT ISZERO PUSH2 0x191C JUMPI DUP2 MLOAD PUSH2 0x1903 DUP9 DUP3 PUSH2 0x16FD JUMP JUMPDEST SWAP8 POP PUSH2 0x190E DUP4 PUSH2 0x1714 JUMP JUMPDEST SWAP3 POP POP PUSH1 0x1 DUP2 ADD SWAP1 POP PUSH2 0x18EF JUMP JUMPDEST POP DUP6 SWAP4 POP POP POP POP SWAP3 SWAP2 POP POP JUMP JUMPDEST PUSH0 PUSH1 0x20 DUP3 ADD SWAP1 POP DUP2 DUP2 SUB PUSH0 DUP4 ADD MSTORE PUSH2 0x1941 DUP2 DUP5 PUSH2 0x18CD JUMP JUMPDEST SWAP1 POP SWAP3 SWAP2 POP POP JUMP JUMPDEST PUSH0 DUP1 PUSH1 0x40 DUP4 DUP6 SUB SLT ISZERO PUSH2 0x195F JUMPI PUSH2 0x195E PUSH2 0x15F0 JUMP JUMPDEST JUMPDEST PUSH0 PUSH2 0x196C DUP6 DUP3 DUP7 ADD PUSH2 0x160A JUMP JUMPDEST SWAP3 POP POP PUSH1 0x20 PUSH2 0x197D DUP6 DUP3 DUP7 ADD PUSH2 0x160A JUMP JUMPDEST SWAP2 POP POP SWAP3 POP SWAP3 SWAP1 POP JUMP JUMPDEST PUSH2 0x1990 DUP2 PUSH2 0x16C3 JUMP JUMPDEST DUP2 EQ PUSH2 0x199A JUMPI PUSH0 DUP1 REVERT JUMPDEST POP JUMP JUMPDEST PUSH0 DUP2 CALLDATALOAD SWAP1 POP PUSH2 0x19AB DUP2 PUSH2 0x1987 JUMP JUMPDEST SWAP3 SWAP2 POP POP JUMP JUMPDEST PUSH0 PUSH1 0x20 DUP3 DUP5 SUB SLT ISZERO PUSH2 0x19C6 JUMPI PUSH2 0x19C5 PUSH2 0x15F0 JUMP JUMPDEST JUMPDEST PUSH0 PUSH2 0x19D3 DUP5 DUP3 DUP6 ADD PUSH2 0x199D JUMP JUMPDEST SWAP2 POP POP SWAP3 SWAP2 POP POP JUMP JUMPDEST PUSH32 0x4E487B7100000000000000000000000000000000000000000000000000000000 PUSH0 MSTORE PUSH1 0x41 PUSH1 0x4 MSTORE PUSH1 0x24 PUSH0 REVERT JUMPDEST PUSH32 0x4E487B7100000000000000000000000000000000000000000000000000000000 PUSH0 MSTORE PUSH1 0x32 PUSH1 0x4 MSTORE PUSH1 0x24 PUSH0 REVERT JUMPDEST PUSH32 0x6732000000000000000000000000000000000000000000000000000000000000 PUSH0 DUP3 ADD MSTORE POP JUMP JUMPDEST PUSH0 PUSH2 0x1A6A PUSH1 0x2 DUP4 PUSH2 0x12EA JUMP JUMPDEST SWAP2 POP PUSH2 0x1A75 DUP3 PUSH2 0x1A36 JUMP JUMPDEST PUSH1 0x20 DUP3 ADD SWAP1 POP SWAP2 SWAP1 POP JUMP JUMPDEST PUSH0 PUSH1 0x20 DUP3 ADD SWAP1 POP DUP2 DUP2 SUB PUSH0 DUP4 ADD MSTORE PUSH2 0x1A97 DUP2 PUSH2 0x1A5E JUMP JUMPDEST SWAP1 POP SWAP2 SWAP1 POP JUMP JUMPDEST PUSH32 0x4400000000000000000000000000000000000000000000000000000000000000 PUSH0 DUP3 ADD MSTORE POP JUMP JUMPDEST PUSH0 PUSH2 0x1AD2 PUSH1 0x1 DUP4 PUSH2 0x12EA JUMP JUMPDEST SWAP2 POP PUSH2 0x1ADD DUP3 PUSH2 0x1A9E JUMP JUMPDEST PUSH1 0x20 DUP3 ADD SWAP1 POP SWAP2 SWAP1 POP JUMP JUMPDEST PUSH0 PUSH1 0x20 DUP3 ADD SWAP1 POP DUP2 DUP2 SUB PUSH0 DUP4 ADD MSTORE PUSH2 0x1AFF DUP2 PUSH2 0x1AC6 JUMP JUMPDEST SWAP1 POP SWAP2 SWAP1 POP JUMP JUMPDEST PUSH32 0x4E487B7100000000000000000000000000000000000000000000000000000000 PUSH0 MSTORE PUSH1 0x11 PUSH1 0x4 MSTORE PUSH1 0x24 PUSH0 REVERT JUMPDEST PUSH0 PUSH2 0x1B3D DUP3 PUSH2 0x12AF JUMP JUMPDEST SWAP2 POP PUSH2 0x1B48 DUP4 PUSH2 0x12AF JUMP JUMPDEST SWAP3 POP DUP3 DUP3 SUB SWAP1 POP DUP2 DUP2 GT ISZERO PUSH2 0x1B60 JUMPI PUSH2 0x1B5F PUSH2 0x1B06 JUMP JUMPDEST JUMPDEST SWAP3 SWAP2 POP POP JUMP INVALID LOG2 PUSH5 0x6970667358 0x22 SLT KECCAK256 0xC7 DUP9 0xD0 INVALID SWAP12 0x1E 0xED PUSH11 0xB0B9015C10D626ADA0D0E5 0xC4 BYTE 0xC7 0xD1 EXTCODESIZE GT PUSH12 0x9FC5925EC7E164736F6C6343 STOP ADDMOD BYTE STOP CALLER "
		},
		"gasEstimates": {
			"creation": {
				"codeDepositCost": "1413600",
				"executionCost": "1470",
				"totalCost": "1415070"
			},
			"external": {
				"facetAddress(bytes4)": "2996",
				"facetAddresses()": "infinite",
				"facetFunctionSelectors(address)": "infinite",
				"facets()": "infinite",
				"getAllowList()": "2611",
				"getFirstUnprocessedPriorityTx()": "2530",
				"getGovernor()": "2633",
				"getL2BootloaderBytecodeHash()": "2505",
				"getL2DefaultAccountBytecodeHash()": "2548",
				"getL2SystemContractsUpgradeBatchNumber()": "2549",
				"getL2SystemContractsUpgradeBlockNumber()": "2484",
				"getL2SystemContractsUpgradeTxHash()": "2527",
				"getName()": "infinite",
				"getPendingGovernor()": "2632",
				"getPriorityQueueSize()": "infinite",
				"getPriorityTxMaxGasLimit()": "2485",
				"getProtocolVersion()": "2484",
				"getTotalBatchesCommitted()": "2527",
				"getTotalBatchesExecuted()": "2527",
				"getTotalBatchesVerified()": "2504",
				"getTotalBlocksCommitted()": "2570",
				"getTotalBlocksExecuted()": "2506",
				"getTotalBlocksVerified()": "2483",
				"getTotalPriorityTxs()": "2553",
				"getVerifier()": "2611",
				"getVerifierParams()": "infinite",
				"isDiamondStorageFrozen()": "2657",
				"isEthWithdrawalFinalized(uint256,uint256)": "infinite",
				"isFacetFreezable(address)": "9836",
				"isFunctionFreezable(bytes4)": "5277",
				"isValidator(address)": "2964",
				"l2LogsRootHash(uint256)": "2908",
				"priorityQueueFrontOperation()": "infinite",
				"storedBatchHash(uint256)": "2842",
				"storedBlockHash(uint256)": "2887"
			}
		},
		"methodIdentifiers": {
			"facetAddress(bytes4)": "cdffacc6",
			"facetAddresses()": "52ef6b2c",
			"facetFunctionSelectors(address)": "adfca15e",
			"facets()": "7a0ed627",
			"getAllowList()": "a7cd63b7",
			"getFirstUnprocessedPriorityTx()": "79823c9a",
			"getGovernor()": "4fc07d75",
			"getL2BootloaderBytecodeHash()": "d86970d8",
			"getL2DefaultAccountBytecodeHash()": "fd791f3c",
			"getL2SystemContractsUpgradeBatchNumber()": "e5355c75",
			"getL2SystemContractsUpgradeBlockNumber()": "9d1b5a81",
			"getL2SystemContractsUpgradeTxHash()": "7b30c8da",
			"getName()": "17d7de7c",
			"getPendingGovernor()": "8665b150",
			"getPriorityQueueSize()": "631f4bac",
			"getPriorityTxMaxGasLimit()": "0ec6b0b7",
			"getProtocolVersion()": "33ce93fe",
			"getTotalBatchesCommitted()": "db1f0bf9",
			"getTotalBatchesExecuted()": "b8c2f66f",
			"getTotalBatchesVerified()": "ef3f0bae",
			"getTotalBlocksCommitted()": "fe26699e",
			"getTotalBlocksExecuted()": "39607382",
			"getTotalBlocksVerified()": "af6a2dcd",
			"getTotalPriorityTxs()": "a1954fc5",
			"getVerifier()": "46657fe9",
			"getVerifierParams()": "18e3a941",
			"isDiamondStorageFrozen()": "29b98c67",
			"isEthWithdrawalFinalized(uint256,uint256)": "bd7c5412",
			"isFacetFreezable(address)": "c3bbd2d7",
			"isFunctionFreezable(bytes4)": "e81e0ba1",
			"isValidator(address)": "facd743b",
			"l2LogsRootHash(uint256)": "9cd939e4",
			"priorityQueueFrontOperation()": "56142d7a",
			"storedBatchHash(uint256)": "b22dd78e",
			"storedBlockHash(uint256)": "74f4d30d"
		}
	},
	"abi": [
		{
			"inputs": [
				{
					"internalType": "bytes4",
					"name": "_selector",
					"type": "bytes4"
				}
			],
			"name": "facetAddress",
			"outputs": [
				{
					"internalType": "address",
					"name": "",
					"type": "address"
				}
			],
			"stateMutability": "view",
			"type": "function"
		},
		{
			"inputs": [],
			"name": "facetAddresses",
			"outputs": [
				{
					"internalType": "address[]",
					"name": "",
					"type": "address[]"
				}
			],
			"stateMutability": "view",
			"type": "function"
		},
		{
			"inputs": [
				{
					"internalType": "address",
					"name": "_facet",
					"type": "address"
				}
			],
			"name": "facetFunctionSelectors",
			"outputs": [
				{
					"internalType": "bytes4[]",
					"name": "",
					"type": "bytes4[]"
				}
			],
			"stateMutability": "view",
			"type": "function"
		},
		{
			"inputs": [],
			"name": "facets",
			"outputs": [
				{
					"components": [
						{
							"internalType": "address",
							"name": "addr",
							"type": "address"
						},
						{
							"internalType": "bytes4[]",
							"name": "selectors",
							"type": "bytes4[]"
						}
					],
					"internalType": "struct IGetters.Facet[]",
					"name": "result",
					"type": "tuple[]"
				}
			],
			"stateMutability": "view",
			"type": "function"
		},
		{
			"inputs": [],
			"name": "getAllowList",
			"outputs": [
				{
					"internalType": "address",
					"name": "",
					"type": "address"
				}
			],
			"stateMutability": "view",
			"type": "function"
		},
		{
			"inputs": [],
			"name": "getFirstUnprocessedPriorityTx",
			"outputs": [
				{
					"internalType": "uint256",
					"name": "",
					"type": "uint256"
				}
			],
			"stateMutability": "view",
			"type": "function"
		},
		{
			"inputs": [],
			"name": "getGovernor",
			"outputs": [
				{
					"internalType": "address",
					"name": "",
					"type": "address"
				}
			],
			"stateMutability": "view",
			"type": "function"
		},
		{
			"inputs": [],
			"name": "getL2BootloaderBytecodeHash",
			"outputs": [
				{
					"internalType": "bytes32",
					"name": "",
					"type": "bytes32"
				}
			],
			"stateMutability": "view",
			"type": "function"
		},
		{
			"inputs": [],
			"name": "getL2DefaultAccountBytecodeHash",
			"outputs": [
				{
					"internalType": "bytes32",
					"name": "",
					"type": "bytes32"
				}
			],
			"stateMutability": "view",
			"type": "function"
		},
		{
			"inputs": [],
			"name": "getL2SystemContractsUpgradeBatchNumber",
			"outputs": [
				{
					"internalType": "uint256",
					"name": "",
					"type": "uint256"
				}
			],
			"stateMutability": "view",
			"type": "function"
		},
		{
			"inputs": [],
			"name": "getL2SystemContractsUpgradeBlockNumber",
			"outputs": [
				{
					"internalType": "uint256",
					"name": "",
					"type": "uint256"
				}
			],
			"stateMutability": "view",
			"type": "function"
		},
		{
			"inputs": [],
			"name": "getL2SystemContractsUpgradeTxHash",
			"outputs": [
				{
					"internalType": "bytes32",
					"name": "",
					"type": "bytes32"
				}
			],
			"stateMutability": "view",
			"type": "function"
		},
		{
			"inputs": [],
			"name": "getName",
			"outputs": [
				{
					"internalType": "string",
					"name": "",
					"type": "string"
				}
			],
			"stateMutability": "view",
			"type": "function"
		},
		{
			"inputs": [],
			"name": "getPendingGovernor",
			"outputs": [
				{
					"internalType": "address",
					"name": "",
					"type": "address"
				}
			],
			"stateMutability": "view",
			"type": "function"
		},
		{
			"inputs": [],
			"name": "getPriorityQueueSize",
			"outputs": [
				{
					"internalType": "uint256",
					"name": "",
					"type": "uint256"
				}
			],
			"stateMutability": "view",
			"type": "function"
		},
		{
			"inputs": [],
			"name": "getPriorityTxMaxGasLimit",
			"outputs": [
				{
					"internalType": "uint256",
					"name": "",
					"type": "uint256"
				}
			],
			"stateMutability": "view",
			"type": "function"
		},
		{
			"inputs": [],
			"name": "getProtocolVersion",
			"outputs": [
				{
					"internalType": "uint256",
					"name": "",
					"type": "uint256"
				}
			],
			"stateMutability": "view",
			"type": "function"
		},
		{
			"inputs": [],
			"name": "getTotalBatchesCommitted",
			"outputs": [
				{
					"internalType": "uint256",
					"name": "",
					"type": "uint256"
				}
			],
			"stateMutability": "view",
			"type": "function"
		},
		{
			"inputs": [],
			"name": "getTotalBatchesExecuted",
			"outputs": [
				{
					"internalType": "uint256",
					"name": "",
					"type": "uint256"
				}
			],
			"stateMutability": "view",
			"type": "function"
		},
		{
			"inputs": [],
			"name": "getTotalBatchesVerified",
			"outputs": [
				{
					"internalType": "uint256",
					"name": "",
					"type": "uint256"
				}
			],
			"stateMutability": "view",
			"type": "function"
		},
		{
			"inputs": [],
			"name": "getTotalBlocksCommitted",
			"outputs": [
				{
					"internalType": "uint256",
					"name": "",
					"type": "uint256"
				}
			],
			"stateMutability": "view",
			"type": "function"
		},
		{
			"inputs": [],
			"name": "getTotalBlocksExecuted",
			"outputs": [
				{
					"internalType": "uint256",
					"name": "",
					"type": "uint256"
				}
			],
			"stateMutability": "view",
			"type": "function"
		},
		{
			"inputs": [],
			"name": "getTotalBlocksVerified",
			"outputs": [
				{
					"internalType": "uint256",
					"name": "",
					"type": "uint256"
				}
			],
			"stateMutability": "view",
			"type": "function"
		},
		{
			"inputs": [],
			"name": "getTotalPriorityTxs",
			"outputs": [
				{
					"internalType": "uint256",
					"name": "",
					"type": "uint256"
				}
			],
			"stateMutability": "view",
			"type": "function"
		},
		{
			"inputs": [],
			"name": "getVerifier",
			"outputs": [
				{
					"internalType": "address",
					"name": "",
					"type": "address"
				}
			],
			"stateMutability": "view",
			"type": "function"
		},
		{
			"inputs": [],
			"name": "getVerifierParams",
			"outputs": [
				{
					"components": [
						{
							"internalType": "bytes32",
							"name": "recursionNodeLevelVkHash",
							"type": "bytes32"
						},
						{
							"internalType": "bytes32",
							"name": "recursionLeafLevelVkHash",
							"type": "bytes32"
						},
						{
							"internalType": "bytes32",
							"name": "recursionCircuitsSetVksHash",
							"type": "bytes32"
						}
					],
					"internalType": "struct VerifierParams",
					"name": "",
					"type": "tuple"
				}
			],
			"stateMutability": "view",
			"type": "function"
		},
		{
			"inputs": [],
			"name": "isDiamondStorageFrozen",
			"outputs": [
				{
					"internalType": "bool",
					"name": "",
					"type": "bool"
				}
			],
			"stateMutability": "view",
			"type": "function"
		},
		{
			"inputs": [
				{
					"internalType": "uint256",
					"name": "_l2BatchNumber",
					"type": "uint256"
				},
				{
					"internalType": "uint256",
					"name": "_l2MessageIndex",
					"type": "uint256"
				}
			],
			"name": "isEthWithdrawalFinalized",
			"outputs": [
				{
					"internalType": "bool",
					"name": "",
					"type": "bool"
				}
			],
			"stateMutability": "view",
			"type": "function"
		},
		{
			"inputs": [
				{
					"internalType": "address",
					"name": "_facet",
					"type": "address"
				}
			],
			"name": "isFacetFreezable",
			"outputs": [
				{
					"internalType": "bool",
					"name": "isFreezable",
					"type": "bool"
				}
			],
			"stateMutability": "view",
			"type": "function"
		},
		{
			"inputs": [
				{
					"internalType": "bytes4",
					"name": "_selector",
					"type": "bytes4"
				}
			],
			"name": "isFunctionFreezable",
			"outputs": [
				{
					"internalType": "bool",
					"name": "",
					"type": "bool"
				}
			],
			"stateMutability": "view",
			"type": "function"
		},
		{
			"inputs": [
				{
					"internalType": "address",
					"name": "_address",
					"type": "address"
				}
			],
			"name": "isValidator",
			"outputs": [
				{
					"internalType": "bool",
					"name": "",
					"type": "bool"
				}
			],
			"stateMutability": "view",
			"type": "function"
		},
		{
			"inputs": [
				{
					"internalType": "uint256",
					"name": "_batchNumber",
					"type": "uint256"
				}
			],
			"name": "l2LogsRootHash",
			"outputs": [
				{
					"internalType": "bytes32",
					"name": "",
					"type": "bytes32"
				}
			],
			"stateMutability": "view",
			"type": "function"
		},
		{
			"inputs": [],
			"name": "priorityQueueFrontOperation",
			"outputs": [
				{
					"components": [
						{
							"internalType": "bytes32",
							"name": "canonicalTxHash",
							"type": "bytes32"
						},
						{
							"internalType": "uint64",
							"name": "expirationTimestamp",
							"type": "uint64"
						},
						{
							"internalType": "uint192",
							"name": "layer2Tip",
							"type": "uint192"
						}
					],
					"internalType": "struct PriorityOperation",
					"name": "",
					"type": "tuple"
				}
			],
			"stateMutability": "view",
			"type": "function"
		},
		{
			"inputs": [
				{
					"internalType": "uint256",
					"name": "_batchNumber",
					"type": "uint256"
				}
			],
			"name": "storedBatchHash",
			"outputs": [
				{
					"internalType": "bytes32",
					"name": "",
					"type": "bytes32"
				}
			],
			"stateMutability": "view",
			"type": "function"
		},
		{
			"inputs": [
				{
					"internalType": "uint256",
					"name": "_batchNumber",
					"type": "uint256"
				}
			],
			"name": "storedBlockHash",
			"outputs": [
				{
					"internalType": "bytes32",
					"name": "",
					"type": "bytes32"
				}
			],
			"stateMutability": "view",
			"type": "function"
		}
	]
}