{
	"contracts/modules/SimpleUpgrader.sol": {
		"SimpleUpgrader": {
			"abi": [
				{
					"inputs": [
						{
							"internalType": "contract IModuleRegistry",
							"name": "_registry",
							"type": "address"
						},
						{
							"internalType": "address[]",
							"name": "_toDisable",
							"type": "address[]"
						},
						{
							"internalType": "address[]",
							"name": "_toEnable",
							"type": "address[]"
						}
					],
					"stateMutability": "nonpayable",
					"type": "constructor"
				},
				{
					"inputs": [
						{
							"internalType": "address",
							"name": "",
							"type": "address"
						},
						{
							"internalType": "address",
							"name": "",
							"type": "address"
						}
					],
					"name": "addModule",
					"outputs": [],
					"stateMutability": "pure",
					"type": "function"
				},
				{
					"inputs": [
						{
							"internalType": "address",
							"name": "_wallet",
							"type": "address"
						}
					],
					"name": "init",
					"outputs": [],
					"stateMutability": "nonpayable",
					"type": "function"
				},
				{
					"inputs": [
						{
							"internalType": "bytes4",
							"name": "",
							"type": "bytes4"
						}
					],
					"name": "supportsStaticCall",
					"outputs": [
						{
							"internalType": "bool",
							"name": "_isSupported",
							"type": "bool"
						}
					],
					"stateMutability": "pure",
					"type": "function"
				},
				{
					"inputs": [
						{
							"internalType": "uint256",
							"name": "",
							"type": "uint256"
						}
					],
					"name": "toDisable",
					"outputs": [
						{
							"internalType": "address",
							"name": "",
							"type": "address"
						}
					],
					"stateMutability": "view",
					"type": "function"
				},
				{
					"inputs": [
						{
							"internalType": "uint256",
							"name": "",
							"type": "uint256"
						}
					],
					"name": "toEnable",
					"outputs": [
						{
							"internalType": "address",
							"name": "",
							"type": "address"
						}
					],
					"stateMutability": "view",
					"type": "function"
				}
			],
			"devdoc": {
				"kind": "dev",
				"methods": {
					"addModule(address,address)": {
						"params": {
							"_module": "The modules to authorise.\t",
							"_wallet": "The target wallet.\t"
						}
					},
					"init(address)": {
						"params": {
							"_wallet": "The target wallet."
						}
					},
					"supportsStaticCall(bytes4)": {
						"params": {
							"_methodId": "The method id."
						}
					}
				},
				"version": 1
			},
			"evm": {
				"assembly": "    /* \"contracts/modules/SimpleUpgrader.sol\":189:1985  contract SimpleUpgrader is IModule {\r... */\n  mstore(0x40, 0x80)\n    /* \"contracts/modules/SimpleUpgrader.sol\":403:641  constructor(\r... */\n  callvalue\n  dup1\n  iszero\n  tag_1\n  jumpi\n  0x00\n  dup1\n  revert\ntag_1:\n  pop\n  mload(0x40)\n  sub(codesize, bytecodeSize)\n  dup1\n  bytecodeSize\n  dup4\n  codecopy\n  dup2\n  dup2\n  add\n  0x40\n  mstore\n  dup2\n  add\n  swap1\n  tag_2\n  swap2\n  swap1\n  tag_3\n  jump\t// in\ntag_2:\n    /* \"contracts/modules/SimpleUpgrader.sol\":560:569  _registry */\n  dup3\n    /* \"contracts/modules/SimpleUpgrader.sol\":549:557  registry */\n  0x00\n  dup1\n    /* \"contracts/modules/SimpleUpgrader.sol\":549:569  registry = _registry */\n  0x0100\n  exp\n  dup2\n  sload\n  dup2\n  0xffffffffffffffffffffffffffffffffffffffff\n  mul\n  not\n  and\n  swap1\n  dup4\n  0xffffffffffffffffffffffffffffffffffffffff\n  and\n  mul\n  or\n  swap1\n  sstore\n  pop\n    /* \"contracts/modules/SimpleUpgrader.sol\":592:602  _toDisable */\n  dup2\n    /* \"contracts/modules/SimpleUpgrader.sol\":580:589  toDisable */\n  0x01\n    /* \"contracts/modules/SimpleUpgrader.sol\":580:602  toDisable = _toDisable */\n  swap1\n  dup1\n  mload\n  swap1\n  0x20\n  add\n  swap1\n  tag_6\n  swap3\n  swap2\n  swap1\n  tag_7\n  jump\t// in\ntag_6:\n  pop\n    /* \"contracts/modules/SimpleUpgrader.sol\":624:633  _toEnable */\n  dup1\n    /* \"contracts/modules/SimpleUpgrader.sol\":613:621  toEnable */\n  0x02\n    /* \"contracts/modules/SimpleUpgrader.sol\":613:633  toEnable = _toEnable */\n  swap1\n  dup1\n  mload\n  swap1\n  0x20\n  add\n  swap1\n  tag_8\n  swap3\n  swap2\n  swap1\n  tag_7\n  jump\t// in\ntag_8:\n  pop\n    /* \"contracts/modules/SimpleUpgrader.sol\":403:641  constructor(\r... */\n  pop\n  pop\n  pop\n    /* \"contracts/modules/SimpleUpgrader.sol\":189:1985  contract SimpleUpgrader is IModule {\r... */\n  jump(tag_9)\ntag_7:\n  dup3\n  dup1\n  sload\n  dup3\n  dup3\n  sstore\n  swap1\n  0x00\n  mstore\n  keccak256(0x00, 0x20)\n  swap1\n  dup2\n  add\n  swap3\n  dup3\n  iszero\n  tag_10\n  jumpi\n  swap2\n  0x20\n  mul\n  dup3\n  add\ntag_11:\n  dup3\n  dup2\n  gt\n  iszero\n  tag_12\n  jumpi\n  dup3\n  mload\n  dup3\n  exp(0x0100, 0x00)\n  dup2\n  sload\n  dup2\n  0xffffffffffffffffffffffffffffffffffffffff\n  mul\n  not\n  and\n  swap1\n  dup4\n  0xffffffffffffffffffffffffffffffffffffffff\n  and\n  mul\n  or\n  swap1\n  sstore\n  pop\n  swap2\n  0x20\n  add\n  swap2\n  swap1\n  0x01\n  add\n  swap1\n  jump(tag_11)\ntag_12:\ntag_10:\n  pop\n  swap1\n  pop\n  tag_13\n  swap2\n  swap1\n  tag_14\n  jump\t// in\ntag_13:\n  pop\n  swap1\n  jump\t// out\ntag_14:\ntag_15:\n  dup1\n  dup3\n  gt\n  iszero\n  tag_16\n  jumpi\n  0x00\n  dup2\n  0x00\n  swap1\n  sstore\n  pop\n  0x01\n  add\n  jump(tag_15)\ntag_16:\n  pop\n  swap1\n  jump\t// out\n    /* \"#utility.yul\":24:669   */\ntag_18:\n  0x00\n    /* \"#utility.yul\":156:237   */\n  tag_20\n    /* \"#utility.yul\":172:236   */\n  tag_21\n    /* \"#utility.yul\":229:235   */\n  dup5\n    /* \"#utility.yul\":172:236   */\n  tag_22\n  jump\t// in\ntag_21:\n    /* \"#utility.yul\":156:237   */\n  tag_23\n  jump\t// in\ntag_20:\n    /* \"#utility.yul\":147:237   */\n  swap1\n  pop\n    /* \"#utility.yul\":257:262   */\n  dup1\n    /* \"#utility.yul\":285:291   */\n  dup4\n    /* \"#utility.yul\":278:283   */\n  dup3\n    /* \"#utility.yul\":271:292   */\n  mstore\n    /* \"#utility.yul\":311:315   */\n  0x20\n    /* \"#utility.yul\":304:309   */\n  dup3\n    /* \"#utility.yul\":300:316   */\n  add\n    /* \"#utility.yul\":293:316   */\n  swap1\n  pop\n    /* \"#utility.yul\":336:342   */\n  dup3\n    /* \"#utility.yul\":386:389   */\n  dup6\n    /* \"#utility.yul\":378:382   */\n  0x20\n    /* \"#utility.yul\":370:376   */\n  dup7\n    /* \"#utility.yul\":366:383   */\n  mul\n    /* \"#utility.yul\":361:364   */\n  dup3\n    /* \"#utility.yul\":357:384   */\n  add\n    /* \"#utility.yul\":354:390   */\n  gt\n    /* \"#utility.yul\":351:353   */\n  iszero\n  tag_24\n  jumpi\n    /* \"#utility.yul\":403:404   */\n  0x00\n    /* \"#utility.yul\":400:401   */\n  dup1\n    /* \"#utility.yul\":393:405   */\n  revert\n    /* \"#utility.yul\":351:353   */\ntag_24:\n    /* \"#utility.yul\":431:432   */\n  0x00\n    /* \"#utility.yul\":416:663   */\ntag_25:\n    /* \"#utility.yul\":441:447   */\n  dup6\n    /* \"#utility.yul\":438:439   */\n  dup2\n    /* \"#utility.yul\":435:448   */\n  lt\n    /* \"#utility.yul\":416:663   */\n  iszero\n  tag_27\n  jumpi\n    /* \"#utility.yul\":508:511   */\n  dup2\n    /* \"#utility.yul\":536:584   */\n  tag_28\n    /* \"#utility.yul\":580:583   */\n  dup9\n    /* \"#utility.yul\":568:578   */\n  dup3\n    /* \"#utility.yul\":536:584   */\n  tag_29\n  jump\t// in\ntag_28:\n    /* \"#utility.yul\":531:534   */\n  dup5\n    /* \"#utility.yul\":524:585   */\n  mstore\n    /* \"#utility.yul\":614:618   */\n  0x20\n    /* \"#utility.yul\":609:612   */\n  dup5\n    /* \"#utility.yul\":605:619   */\n  add\n    /* \"#utility.yul\":598:619   */\n  swap4\n  pop\n    /* \"#utility.yul\":648:652   */\n  0x20\n    /* \"#utility.yul\":643:646   */\n  dup4\n    /* \"#utility.yul\":639:653   */\n  add\n    /* \"#utility.yul\":632:653   */\n  swap3\n  pop\n    /* \"#utility.yul\":476:663   */\n  pop\n    /* \"#utility.yul\":463:464   */\n  0x01\n    /* \"#utility.yul\":460:461   */\n  dup2\n    /* \"#utility.yul\":456:465   */\n  add\n    /* \"#utility.yul\":451:465   */\n  swap1\n  pop\n    /* \"#utility.yul\":416:663   */\n  jump(tag_25)\ntag_27:\n    /* \"#utility.yul\":420:434   */\n  pop\n    /* \"#utility.yul\":137:669   */\n  pop\n  pop\n  swap4\n  swap3\n  pop\n  pop\n  pop\n  jump\t// out\n    /* \"#utility.yul\":675:818   */\ntag_29:\n  0x00\n    /* \"#utility.yul\":763:769   */\n  dup2\n    /* \"#utility.yul\":757:770   */\n  mload\n    /* \"#utility.yul\":748:770   */\n  swap1\n  pop\n    /* \"#utility.yul\":779:812   */\n  tag_31\n    /* \"#utility.yul\":806:811   */\n  dup2\n    /* \"#utility.yul\":779:812   */\n  tag_32\n  jump\t// in\ntag_31:\n    /* \"#utility.yul\":738:818   */\n  swap3\n  swap2\n  pop\n  pop\n  jump\t// out\n    /* \"#utility.yul\":841:1159   */\ntag_33:\n  0x00\n    /* \"#utility.yul\":972:975   */\n  dup3\n    /* \"#utility.yul\":965:969   */\n  0x1f\n    /* \"#utility.yul\":957:963   */\n  dup4\n    /* \"#utility.yul\":953:970   */\n  add\n    /* \"#utility.yul\":949:976   */\n  slt\n    /* \"#utility.yul\":939:941   */\n  tag_35\n  jumpi\n    /* \"#utility.yul\":990:991   */\n  0x00\n    /* \"#utility.yul\":987:988   */\n  dup1\n    /* \"#utility.yul\":980:992   */\n  revert\n    /* \"#utility.yul\":939:941   */\ntag_35:\n    /* \"#utility.yul\":1023:1029   */\n  dup2\n    /* \"#utility.yul\":1017:1030   */\n  mload\n    /* \"#utility.yul\":1048:1153   */\n  tag_36\n    /* \"#utility.yul\":1149:1152   */\n  dup5\n    /* \"#utility.yul\":1141:1147   */\n  dup3\n    /* \"#utility.yul\":1134:1138   */\n  0x20\n    /* \"#utility.yul\":1126:1132   */\n  dup7\n    /* \"#utility.yul\":1122:1139   */\n  add\n    /* \"#utility.yul\":1048:1153   */\n  tag_18\n  jump\t// in\ntag_36:\n    /* \"#utility.yul\":1039:1153   */\n  swap2\n  pop\n    /* \"#utility.yul\":929:1159   */\n  pop\n  swap3\n  swap2\n  pop\n  pop\n  jump\t// out\n    /* \"#utility.yul\":1165:1352   */\ntag_37:\n  0x00\n    /* \"#utility.yul\":1275:1281   */\n  dup2\n    /* \"#utility.yul\":1269:1282   */\n  mload\n    /* \"#utility.yul\":1260:1282   */\n  swap1\n  pop\n    /* \"#utility.yul\":1291:1346   */\n  tag_39\n    /* \"#utility.yul\":1340:1345   */\n  dup2\n    /* \"#utility.yul\":1291:1346   */\n  tag_40\n  jump\t// in\ntag_39:\n    /* \"#utility.yul\":1250:1352   */\n  swap3\n  swap2\n  pop\n  pop\n  jump\t// out\n    /* \"#utility.yul\":1358:2270   */\ntag_3:\n  0x00\n  dup1\n  0x00\n    /* \"#utility.yul\":1583:1585   */\n  0x60\n    /* \"#utility.yul\":1571:1580   */\n  dup5\n    /* \"#utility.yul\":1562:1569   */\n  dup7\n    /* \"#utility.yul\":1558:1581   */\n  sub\n    /* \"#utility.yul\":1554:1586   */\n  slt\n    /* \"#utility.yul\":1551:1553   */\n  iszero\n  tag_42\n  jumpi\n    /* \"#utility.yul\":1599:1600   */\n  0x00\n    /* \"#utility.yul\":1596:1597   */\n  dup1\n    /* \"#utility.yul\":1589:1601   */\n  revert\n    /* \"#utility.yul\":1551:1553   */\ntag_42:\n    /* \"#utility.yul\":1642:1643   */\n  0x00\n    /* \"#utility.yul\":1667:1753   */\n  tag_43\n    /* \"#utility.yul\":1745:1752   */\n  dup7\n    /* \"#utility.yul\":1736:1742   */\n  dup3\n    /* \"#utility.yul\":1725:1734   */\n  dup8\n    /* \"#utility.yul\":1721:1743   */\n  add\n    /* \"#utility.yul\":1667:1753   */\n  tag_37\n  jump\t// in\ntag_43:\n    /* \"#utility.yul\":1657:1753   */\n  swap4\n  pop\n    /* \"#utility.yul\":1613:1763   */\n  pop\n    /* \"#utility.yul\":1823:1825   */\n  0x20\n    /* \"#utility.yul\":1812:1821   */\n  dup5\n    /* \"#utility.yul\":1808:1826   */\n  add\n    /* \"#utility.yul\":1802:1827   */\n  mload\n    /* \"#utility.yul\":1854:1872   */\n  0xffffffffffffffff\n    /* \"#utility.yul\":1846:1852   */\n  dup2\n    /* \"#utility.yul\":1843:1873   */\n  gt\n    /* \"#utility.yul\":1840:1842   */\n  iszero\n  tag_44\n  jumpi\n    /* \"#utility.yul\":1886:1887   */\n  0x00\n    /* \"#utility.yul\":1883:1884   */\n  dup1\n    /* \"#utility.yul\":1876:1888   */\n  revert\n    /* \"#utility.yul\":1840:1842   */\ntag_44:\n    /* \"#utility.yul\":1914:2003   */\n  tag_45\n    /* \"#utility.yul\":1995:2002   */\n  dup7\n    /* \"#utility.yul\":1986:1992   */\n  dup3\n    /* \"#utility.yul\":1975:1984   */\n  dup8\n    /* \"#utility.yul\":1971:1993   */\n  add\n    /* \"#utility.yul\":1914:2003   */\n  tag_33\n  jump\t// in\ntag_45:\n    /* \"#utility.yul\":1904:2003   */\n  swap3\n  pop\n    /* \"#utility.yul\":1773:2013   */\n  pop\n    /* \"#utility.yul\":2073:2075   */\n  0x40\n    /* \"#utility.yul\":2062:2071   */\n  dup5\n    /* \"#utility.yul\":2058:2076   */\n  add\n    /* \"#utility.yul\":2052:2077   */\n  mload\n    /* \"#utility.yul\":2104:2122   */\n  0xffffffffffffffff\n    /* \"#utility.yul\":2096:2102   */\n  dup2\n    /* \"#utility.yul\":2093:2123   */\n  gt\n    /* \"#utility.yul\":2090:2092   */\n  iszero\n  tag_46\n  jumpi\n    /* \"#utility.yul\":2136:2137   */\n  0x00\n    /* \"#utility.yul\":2133:2134   */\n  dup1\n    /* \"#utility.yul\":2126:2138   */\n  revert\n    /* \"#utility.yul\":2090:2092   */\ntag_46:\n    /* \"#utility.yul\":2164:2253   */\n  tag_47\n    /* \"#utility.yul\":2245:2252   */\n  dup7\n    /* \"#utility.yul\":2236:2242   */\n  dup3\n    /* \"#utility.yul\":2225:2234   */\n  dup8\n    /* \"#utility.yul\":2221:2243   */\n  add\n    /* \"#utility.yul\":2164:2253   */\n  tag_33\n  jump\t// in\ntag_47:\n    /* \"#utility.yul\":2154:2253   */\n  swap2\n  pop\n    /* \"#utility.yul\":2023:2263   */\n  pop\n    /* \"#utility.yul\":1541:2270   */\n  swap3\n  pop\n  swap3\n  pop\n  swap3\n  jump\t// out\n    /* \"#utility.yul\":2276:2405   */\ntag_23:\n  0x00\n    /* \"#utility.yul\":2337:2357   */\n  tag_49\n  tag_50\n  jump\t// in\ntag_49:\n    /* \"#utility.yul\":2327:2357   */\n  swap1\n  pop\n    /* \"#utility.yul\":2366:2399   */\n  tag_51\n    /* \"#utility.yul\":2394:2398   */\n  dup3\n    /* \"#utility.yul\":2386:2392   */\n  dup3\n    /* \"#utility.yul\":2366:2399   */\n  tag_52\n  jump\t// in\ntag_51:\n    /* \"#utility.yul\":2317:2405   */\n  swap2\n  swap1\n  pop\n  jump\t// out\n    /* \"#utility.yul\":2411:2486   */\ntag_50:\n  0x00\n    /* \"#utility.yul\":2477:2479   */\n  0x40\n    /* \"#utility.yul\":2471:2480   */\n  mload\n    /* \"#utility.yul\":2461:2480   */\n  swap1\n  pop\n    /* \"#utility.yul\":2451:2486   */\n  swap1\n  jump\t// out\n    /* \"#utility.yul\":2492:2803   */\ntag_22:\n  0x00\n    /* \"#utility.yul\":2659:2677   */\n  0xffffffffffffffff\n    /* \"#utility.yul\":2651:2657   */\n  dup3\n    /* \"#utility.yul\":2648:2678   */\n  gt\n    /* \"#utility.yul\":2645:2647   */\n  iszero\n  tag_55\n  jumpi\n    /* \"#utility.yul\":2681:2699   */\n  tag_56\n  tag_57\n  jump\t// in\ntag_56:\n    /* \"#utility.yul\":2645:2647   */\ntag_55:\n    /* \"#utility.yul\":2731:2735   */\n  0x20\n    /* \"#utility.yul\":2723:2729   */\n  dup3\n    /* \"#utility.yul\":2719:2736   */\n  mul\n    /* \"#utility.yul\":2711:2736   */\n  swap1\n  pop\n    /* \"#utility.yul\":2791:2795   */\n  0x20\n    /* \"#utility.yul\":2785:2789   */\n  dup2\n    /* \"#utility.yul\":2781:2796   */\n  add\n    /* \"#utility.yul\":2773:2796   */\n  swap1\n  pop\n    /* \"#utility.yul\":2574:2803   */\n  swap2\n  swap1\n  pop\n  jump\t// out\n    /* \"#utility.yul\":2809:2905   */\ntag_58:\n  0x00\n    /* \"#utility.yul\":2875:2899   */\n  tag_60\n    /* \"#utility.yul\":2893:2898   */\n  dup3\n    /* \"#utility.yul\":2875:2899   */\n  tag_61\n  jump\t// in\ntag_60:\n    /* \"#utility.yul\":2864:2899   */\n  swap1\n  pop\n    /* \"#utility.yul\":2854:2905   */\n  swap2\n  swap1\n  pop\n  jump\t// out\n    /* \"#utility.yul\":2911:3029   */\ntag_62:\n  0x00\n    /* \"#utility.yul\":2999:3023   */\n  tag_64\n    /* \"#utility.yul\":3017:3022   */\n  dup3\n    /* \"#utility.yul\":2999:3023   */\n  tag_58\n  jump\t// in\ntag_64:\n    /* \"#utility.yul\":2988:3023   */\n  swap1\n  pop\n    /* \"#utility.yul\":2978:3029   */\n  swap2\n  swap1\n  pop\n  jump\t// out\n    /* \"#utility.yul\":3035:3161   */\ntag_61:\n  0x00\n    /* \"#utility.yul\":3112:3154   */\n  0xffffffffffffffffffffffffffffffffffffffff\n    /* \"#utility.yul\":3105:3110   */\n  dup3\n    /* \"#utility.yul\":3101:3155   */\n  and\n    /* \"#utility.yul\":3090:3155   */\n  swap1\n  pop\n    /* \"#utility.yul\":3080:3161   */\n  swap2\n  swap1\n  pop\n  jump\t// out\n    /* \"#utility.yul\":3167:3448   */\ntag_52:\n    /* \"#utility.yul\":3250:3277   */\n  tag_67\n    /* \"#utility.yul\":3272:3276   */\n  dup3\n    /* \"#utility.yul\":3250:3277   */\n  tag_68\n  jump\t// in\ntag_67:\n    /* \"#utility.yul\":3242:3248   */\n  dup2\n    /* \"#utility.yul\":3238:3278   */\n  add\n    /* \"#utility.yul\":3380:3386   */\n  dup2\n    /* \"#utility.yul\":3368:3378   */\n  dup2\n    /* \"#utility.yul\":3365:3387   */\n  lt\n    /* \"#utility.yul\":3344:3362   */\n  0xffffffffffffffff\n    /* \"#utility.yul\":3332:3342   */\n  dup3\n    /* \"#utility.yul\":3329:3363   */\n  gt\n    /* \"#utility.yul\":3326:3388   */\n  or\n    /* \"#utility.yul\":3323:3325   */\n  iszero\n  tag_69\n  jumpi\n    /* \"#utility.yul\":3391:3409   */\n  tag_70\n  tag_57\n  jump\t// in\ntag_70:\n    /* \"#utility.yul\":3323:3325   */\ntag_69:\n    /* \"#utility.yul\":3431:3441   */\n  dup1\n    /* \"#utility.yul\":3427:3429   */\n  0x40\n    /* \"#utility.yul\":3420:3442   */\n  mstore\n    /* \"#utility.yul\":3210:3448   */\n  pop\n  pop\n  pop\n  jump\t// out\n    /* \"#utility.yul\":3454:3634   */\ntag_57:\n    /* \"#utility.yul\":3502:3579   */\n  0x4e487b7100000000000000000000000000000000000000000000000000000000\n    /* \"#utility.yul\":3499:3500   */\n  0x00\n    /* \"#utility.yul\":3492:3580   */\n  mstore\n    /* \"#utility.yul\":3599:3603   */\n  0x41\n    /* \"#utility.yul\":3596:3597   */\n  0x04\n    /* \"#utility.yul\":3589:3604   */\n  mstore\n    /* \"#utility.yul\":3623:3627   */\n  0x24\n    /* \"#utility.yul\":3620:3621   */\n  0x00\n    /* \"#utility.yul\":3613:3628   */\n  revert\n    /* \"#utility.yul\":3640:3742   */\ntag_68:\n  0x00\n    /* \"#utility.yul\":3732:3734   */\n  0x1f\n    /* \"#utility.yul\":3728:3735   */\n  not\n    /* \"#utility.yul\":3723:3725   */\n  0x1f\n    /* \"#utility.yul\":3716:3721   */\n  dup4\n    /* \"#utility.yul\":3712:3726   */\n  add\n    /* \"#utility.yul\":3708:3736   */\n  and\n    /* \"#utility.yul\":3698:3736   */\n  swap1\n  pop\n    /* \"#utility.yul\":3688:3742   */\n  swap2\n  swap1\n  pop\n  jump\t// out\n    /* \"#utility.yul\":3748:3870   */\ntag_32:\n    /* \"#utility.yul\":3821:3845   */\n  tag_74\n    /* \"#utility.yul\":3839:3844   */\n  dup2\n    /* \"#utility.yul\":3821:3845   */\n  tag_58\n  jump\t// in\ntag_74:\n    /* \"#utility.yul\":3814:3819   */\n  dup2\n    /* \"#utility.yul\":3811:3846   */\n  eq\n    /* \"#utility.yul\":3801:3803   */\n  tag_75\n  jumpi\n    /* \"#utility.yul\":3860:3861   */\n  0x00\n    /* \"#utility.yul\":3857:3858   */\n  dup1\n    /* \"#utility.yul\":3850:3862   */\n  revert\n    /* \"#utility.yul\":3801:3803   */\ntag_75:\n    /* \"#utility.yul\":3791:3870   */\n  pop\n  jump\t// out\n    /* \"#utility.yul\":3876:4042   */\ntag_40:\n    /* \"#utility.yul\":3971:4017   */\n  tag_77\n    /* \"#utility.yul\":4011:4016   */\n  dup2\n    /* \"#utility.yul\":3971:4017   */\n  tag_62\n  jump\t// in\ntag_77:\n    /* \"#utility.yul\":3964:3969   */\n  dup2\n    /* \"#utility.yul\":3961:4018   */\n  eq\n    /* \"#utility.yul\":3951:3953   */\n  tag_78\n  jumpi\n    /* \"#utility.yul\":4032:4033   */\n  0x00\n    /* \"#utility.yul\":4029:4030   */\n  dup1\n    /* \"#utility.yul\":4022:4034   */\n  revert\n    /* \"#utility.yul\":3951:3953   */\ntag_78:\n    /* \"#utility.yul\":3941:4042   */\n  pop\n  jump\t// out\n    /* \"contracts/modules/SimpleUpgrader.sol\":189:1985  contract SimpleUpgrader is IModule {\r... */\ntag_9:\n  dataSize(sub_0)\n  dup1\n  dataOffset(sub_0)\n  0x00\n  codecopy\n  0x00\n  return\nstop\n\nsub_0: assembly {\n        /* \"contracts/modules/SimpleUpgrader.sol\":189:1985  contract SimpleUpgrader is IModule {\r... */\n      mstore(0x40, 0x80)\n      callvalue\n      dup1\n      iszero\n      tag_1\n      jumpi\n      0x00\n      dup1\n      revert\n    tag_1:\n      pop\n      jumpi(tag_2, lt(calldatasize, 0x04))\n      shr(0xe0, calldataload(0x00))\n      dup1\n      0x19ab453c\n      eq\n      tag_3\n      jumpi\n      dup1\n      0x25b50934\n      eq\n      tag_4\n      jumpi\n      dup1\n      0x5a1db8c4\n      eq\n      tag_5\n      jumpi\n      dup1\n      0xc412967b\n      eq\n      tag_6\n      jumpi\n      dup1\n      0xd0d603e1\n      eq\n      tag_7\n      jumpi\n    tag_2:\n      0x00\n      dup1\n      revert\n        /* \"contracts/modules/SimpleUpgrader.sol\":914:1602  function init(address _wallet) external override {\r... */\n    tag_3:\n      tag_8\n      0x04\n      dup1\n      calldatasize\n      sub\n      dup2\n      add\n      swap1\n      tag_9\n      swap2\n      swap1\n      tag_10\n      jump\t// in\n    tag_9:\n      tag_11\n      jump\t// in\n    tag_8:\n      stop\n        /* \"contracts/modules/SimpleUpgrader.sol\":1849:1982  function supportsStaticCall(bytes4 /*_methodId*/) external pure override returns (bool _isSupported) { \r... */\n    tag_4:\n      tag_12\n      0x04\n      dup1\n      calldatasize\n      sub\n      dup2\n      add\n      swap1\n      tag_13\n      swap2\n      swap1\n      tag_14\n      jump\t// in\n    tag_13:\n      tag_15\n      jump\t// in\n    tag_12:\n      mload(0x40)\n      tag_16\n      swap2\n      swap1\n      tag_17\n      jump\t// in\n    tag_16:\n      mload(0x40)\n      dup1\n      swap2\n      sub\n      swap1\n      return\n        /* \"contracts/modules/SimpleUpgrader.sol\":1656:1795  function addModule(address /*_wallet*/, address /*_module*/) external pure override {\r... */\n    tag_5:\n      tag_18\n      0x04\n      dup1\n      calldatasize\n      sub\n      dup2\n      add\n      swap1\n      tag_19\n      swap2\n      swap1\n      tag_20\n      jump\t// in\n    tag_19:\n      tag_21\n      jump\t// in\n    tag_18:\n      stop\n        /* \"contracts/modules/SimpleUpgrader.sol\":272:298  address[] public toDisable */\n    tag_6:\n      tag_22\n      0x04\n      dup1\n      calldatasize\n      sub\n      dup2\n      add\n      swap1\n      tag_23\n      swap2\n      swap1\n      tag_24\n      jump\t// in\n    tag_23:\n      tag_25\n      jump\t// in\n    tag_22:\n      mload(0x40)\n      tag_26\n      swap2\n      swap1\n      tag_27\n      jump\t// in\n    tag_26:\n      mload(0x40)\n      dup1\n      swap2\n      sub\n      swap1\n      return\n        /* \"contracts/modules/SimpleUpgrader.sol\":305:330  address[] public toEnable */\n    tag_7:\n      tag_28\n      0x04\n      dup1\n      calldatasize\n      sub\n      dup2\n      add\n      swap1\n      tag_29\n      swap2\n      swap1\n      tag_24\n      jump\t// in\n    tag_29:\n      tag_30\n      jump\t// in\n    tag_28:\n      mload(0x40)\n      tag_31\n      swap2\n      swap1\n      tag_27\n      jump\t// in\n    tag_31:\n      mload(0x40)\n      dup1\n      swap2\n      sub\n      swap1\n      return\n        /* \"contracts/modules/SimpleUpgrader.sol\":914:1602  function init(address _wallet) external override {\r... */\n    tag_11:\n        /* \"contracts/modules/SimpleUpgrader.sol\":996:1003  _wallet */\n      dup1\n        /* \"contracts/modules/SimpleUpgrader.sol\":982:1003  msg.sender == _wallet */\n      0xffffffffffffffffffffffffffffffffffffffff\n      and\n        /* \"contracts/modules/SimpleUpgrader.sol\":982:992  msg.sender */\n      caller\n        /* \"contracts/modules/SimpleUpgrader.sol\":982:1003  msg.sender == _wallet */\n      0xffffffffffffffffffffffffffffffffffffffff\n      and\n      eq\n        /* \"contracts/modules/SimpleUpgrader.sol\":974:1037  require(msg.sender == _wallet, \"SU: only wallet can call init\") */\n      tag_33\n      jumpi\n      mload(0x40)\n      0x08c379a000000000000000000000000000000000000000000000000000000000\n      dup2\n      mstore\n      0x04\n      add\n      tag_34\n      swap1\n      tag_35\n      jump\t// in\n    tag_34:\n      mload(0x40)\n      dup1\n      swap2\n      sub\n      swap1\n      revert\n    tag_33:\n        /* \"contracts/modules/SimpleUpgrader.sol\":1056:1064  registry */\n      0x00\n      dup1\n      sload\n      swap1\n      0x0100\n      exp\n      swap1\n      div\n      0xffffffffffffffffffffffffffffffffffffffff\n      and\n        /* \"contracts/modules/SimpleUpgrader.sol\":1056:1083  registry.isRegisteredModule */\n      0xffffffffffffffffffffffffffffffffffffffff\n      and\n      0x6bb18a54\n        /* \"contracts/modules/SimpleUpgrader.sol\":1084:1092  toEnable */\n      0x02\n        /* \"contracts/modules/SimpleUpgrader.sol\":1056:1093  registry.isRegisteredModule(toEnable) */\n      mload(0x40)\n      dup3\n      0xffffffff\n      and\n      0xe0\n      shl\n      dup2\n      mstore\n      0x04\n      add\n      tag_36\n      swap2\n      swap1\n      tag_37\n      jump\t// in\n    tag_36:\n      0x20\n      mload(0x40)\n      dup1\n      dup4\n      sub\n      dup2\n      dup7\n      dup1\n      extcodesize\n      iszero\n      dup1\n      iszero\n      tag_38\n      jumpi\n      0x00\n      dup1\n      revert\n    tag_38:\n      pop\n      gas\n      staticcall\n      iszero\n      dup1\n      iszero\n      tag_40\n      jumpi\n      returndatasize\n      0x00\n      dup1\n      returndatacopy\n      revert(0x00, returndatasize)\n    tag_40:\n      pop\n      pop\n      pop\n      pop\n      mload(0x40)\n      returndatasize\n      not(0x1f)\n      0x1f\n      dup3\n      add\n      and\n      dup3\n      add\n      dup1\n      0x40\n      mstore\n      pop\n      dup2\n      add\n      swap1\n      tag_41\n      swap2\n      swap1\n      tag_42\n      jump\t// in\n    tag_41:\n        /* \"contracts/modules/SimpleUpgrader.sol\":1048:1123  require(registry.isRegisteredModule(toEnable), \"SU: module not registered\") */\n      tag_43\n      jumpi\n      mload(0x40)\n      0x08c379a000000000000000000000000000000000000000000000000000000000\n      dup2\n      mstore\n      0x04\n      add\n      tag_44\n      swap1\n      tag_45\n      jump\t// in\n    tag_44:\n      mload(0x40)\n      dup1\n      swap2\n      sub\n      swap1\n      revert\n    tag_43:\n        /* \"contracts/modules/SimpleUpgrader.sol\":1136:1145  uint256 i */\n      0x00\n        /* \"contracts/modules/SimpleUpgrader.sol\":1187:1298  for (; i < toEnable.length; i++) {\r... */\n    tag_46:\n        /* \"contracts/modules/SimpleUpgrader.sol\":1198:1206  toEnable */\n      0x02\n        /* \"contracts/modules/SimpleUpgrader.sol\":1198:1213  toEnable.length */\n      dup1\n      sload\n      swap1\n      pop\n        /* \"contracts/modules/SimpleUpgrader.sol\":1194:1195  i */\n      dup2\n        /* \"contracts/modules/SimpleUpgrader.sol\":1194:1213  i < toEnable.length */\n      lt\n        /* \"contracts/modules/SimpleUpgrader.sol\":1187:1298  for (; i < toEnable.length; i++) {\r... */\n      iszero\n      tag_47\n      jumpi\n        /* \"contracts/modules/SimpleUpgrader.sol\":1243:1250  _wallet */\n      dup2\n        /* \"contracts/modules/SimpleUpgrader.sol\":1235:1267  IWallet(_wallet).authoriseModule */\n      0xffffffffffffffffffffffffffffffffffffffff\n      and\n      0x1f17732d\n        /* \"contracts/modules/SimpleUpgrader.sol\":1268:1276  toEnable */\n      0x02\n        /* \"contracts/modules/SimpleUpgrader.sol\":1277:1278  i */\n      dup4\n        /* \"contracts/modules/SimpleUpgrader.sol\":1268:1279  toEnable[i] */\n      dup2\n      sload\n      dup2\n      lt\n      tag_49\n      jumpi\n      mstore(0x00, 0x4e487b7100000000000000000000000000000000000000000000000000000000)\n      mstore(0x04, 0x32)\n      revert(0x00, 0x24)\n    tag_49:\n      swap1\n      0x00\n      mstore\n      keccak256(0x00, 0x20)\n      add\n      0x00\n      swap1\n      sload\n      swap1\n      0x0100\n      exp\n      swap1\n      div\n      0xffffffffffffffffffffffffffffffffffffffff\n      and\n        /* \"contracts/modules/SimpleUpgrader.sol\":1281:1285  true */\n      0x01\n        /* \"contracts/modules/SimpleUpgrader.sol\":1235:1286  IWallet(_wallet).authoriseModule(toEnable[i], true) */\n      mload(0x40)\n      dup4\n      0xffffffff\n      and\n      0xe0\n      shl\n      dup2\n      mstore\n      0x04\n      add\n      tag_51\n      swap3\n      swap2\n      swap1\n      tag_52\n      jump\t// in\n    tag_51:\n      0x00\n      mload(0x40)\n      dup1\n      dup4\n      sub\n      dup2\n      0x00\n      dup8\n      dup1\n      extcodesize\n      iszero\n      dup1\n      iszero\n      tag_53\n      jumpi\n      0x00\n      dup1\n      revert\n    tag_53:\n      pop\n      gas\n      call\n      iszero\n      dup1\n      iszero\n      tag_55\n      jumpi\n      returndatasize\n      0x00\n      dup1\n      returndatacopy\n      revert(0x00, returndatasize)\n    tag_55:\n      pop\n      pop\n      pop\n      pop\n        /* \"contracts/modules/SimpleUpgrader.sol\":1215:1218  i++ */\n      dup1\n      dup1\n      tag_56\n      swap1\n      tag_57\n      jump\t// in\n    tag_56:\n      swap2\n      pop\n      pop\n        /* \"contracts/modules/SimpleUpgrader.sol\":1187:1298  for (; i < toEnable.length; i++) {\r... */\n      jump(tag_46)\n    tag_47:\n        /* \"contracts/modules/SimpleUpgrader.sol\":1347:1348  0 */\n      0x00\n        /* \"contracts/modules/SimpleUpgrader.sol\":1343:1348  i = 0 */\n      swap1\n      pop\n        /* \"contracts/modules/SimpleUpgrader.sol\":1338:1457  for (i = 0; i < toDisable.length; i++) {\r... */\n    tag_58:\n        /* \"contracts/modules/SimpleUpgrader.sol\":1354:1363  toDisable */\n      0x01\n        /* \"contracts/modules/SimpleUpgrader.sol\":1354:1370  toDisable.length */\n      dup1\n      sload\n      swap1\n      pop\n        /* \"contracts/modules/SimpleUpgrader.sol\":1350:1351  i */\n      dup2\n        /* \"contracts/modules/SimpleUpgrader.sol\":1350:1370  i < toDisable.length */\n      lt\n        /* \"contracts/modules/SimpleUpgrader.sol\":1338:1457  for (i = 0; i < toDisable.length; i++) {\r... */\n      iszero\n      tag_59\n      jumpi\n        /* \"contracts/modules/SimpleUpgrader.sol\":1400:1407  _wallet */\n      dup2\n        /* \"contracts/modules/SimpleUpgrader.sol\":1392:1424  IWallet(_wallet).authoriseModule */\n      0xffffffffffffffffffffffffffffffffffffffff\n      and\n      0x1f17732d\n        /* \"contracts/modules/SimpleUpgrader.sol\":1425:1434  toDisable */\n      0x01\n        /* \"contracts/modules/SimpleUpgrader.sol\":1435:1436  i */\n      dup4\n        /* \"contracts/modules/SimpleUpgrader.sol\":1425:1437  toDisable[i] */\n      dup2\n      sload\n      dup2\n      lt\n      tag_61\n      jumpi\n      mstore(0x00, 0x4e487b7100000000000000000000000000000000000000000000000000000000)\n      mstore(0x04, 0x32)\n      revert(0x00, 0x24)\n    tag_61:\n      swap1\n      0x00\n      mstore\n      keccak256(0x00, 0x20)\n      add\n      0x00\n      swap1\n      sload\n      swap1\n      0x0100\n      exp\n      swap1\n      div\n      0xffffffffffffffffffffffffffffffffffffffff\n      and\n        /* \"contracts/modules/SimpleUpgrader.sol\":1439:1444  false */\n      0x00\n        /* \"contracts/modules/SimpleUpgrader.sol\":1392:1445  IWallet(_wallet).authoriseModule(toDisable[i], false) */\n      mload(0x40)\n      dup4\n      0xffffffff\n      and\n      0xe0\n      shl\n      dup2\n      mstore\n      0x04\n      add\n      tag_63\n      swap3\n      swap2\n      swap1\n      tag_52\n      jump\t// in\n    tag_63:\n      0x00\n      mload(0x40)\n      dup1\n      dup4\n      sub\n      dup2\n      0x00\n      dup8\n      dup1\n      extcodesize\n      iszero\n      dup1\n      iszero\n      tag_64\n      jumpi\n      0x00\n      dup1\n      revert\n    tag_64:\n      pop\n      gas\n      call\n      iszero\n      dup1\n      iszero\n      tag_66\n      jumpi\n      returndatasize\n      0x00\n      dup1\n      returndatacopy\n      revert(0x00, returndatasize)\n    tag_66:\n      pop\n      pop\n      pop\n      pop\n        /* \"contracts/modules/SimpleUpgrader.sol\":1372:1375  i++ */\n      dup1\n      dup1\n      tag_67\n      swap1\n      tag_57\n      jump\t// in\n    tag_67:\n      swap2\n      pop\n      pop\n        /* \"contracts/modules/SimpleUpgrader.sol\":1338:1457  for (i = 0; i < toDisable.length; i++) {\r... */\n      jump(tag_58)\n    tag_59:\n        /* \"contracts/modules/SimpleUpgrader.sol\":1548:1555  _wallet */\n      dup2\n        /* \"contracts/modules/SimpleUpgrader.sol\":1540:1572  IWallet(_wallet).authoriseModule */\n      0xffffffffffffffffffffffffffffffffffffffff\n      and\n      0x1f17732d\n        /* \"contracts/modules/SimpleUpgrader.sol\":1581:1585  this */\n      address\n        /* \"contracts/modules/SimpleUpgrader.sol\":1588:1593  false */\n      0x00\n        /* \"contracts/modules/SimpleUpgrader.sol\":1540:1594  IWallet(_wallet).authoriseModule(address(this), false) */\n      mload(0x40)\n      dup4\n      0xffffffff\n      and\n      0xe0\n      shl\n      dup2\n      mstore\n      0x04\n      add\n      tag_68\n      swap3\n      swap2\n      swap1\n      tag_52\n      jump\t// in\n    tag_68:\n      0x00\n      mload(0x40)\n      dup1\n      dup4\n      sub\n      dup2\n      0x00\n      dup8\n      dup1\n      extcodesize\n      iszero\n      dup1\n      iszero\n      tag_69\n      jumpi\n      0x00\n      dup1\n      revert\n    tag_69:\n      pop\n      gas\n      call\n      iszero\n      dup1\n      iszero\n      tag_71\n      jumpi\n      returndatasize\n      0x00\n      dup1\n      returndatacopy\n      revert(0x00, returndatasize)\n    tag_71:\n      pop\n      pop\n      pop\n      pop\n        /* \"contracts/modules/SimpleUpgrader.sol\":914:1602  function init(address _wallet) external override {\r... */\n      pop\n      pop\n      jump\t// out\n        /* \"contracts/modules/SimpleUpgrader.sol\":1849:1982  function supportsStaticCall(bytes4 /*_methodId*/) external pure override returns (bool _isSupported) { \r... */\n    tag_15:\n        /* \"contracts/modules/SimpleUpgrader.sol\":1931:1948  bool _isSupported */\n      0x00\n        /* \"contracts/modules/SimpleUpgrader.sol\":1849:1982  function supportsStaticCall(bytes4 /*_methodId*/) external pure override returns (bool _isSupported) { \r... */\n      swap2\n      swap1\n      pop\n      jump\t// out\n        /* \"contracts/modules/SimpleUpgrader.sol\":1656:1795  function addModule(address /*_wallet*/, address /*_module*/) external pure override {\r... */\n    tag_21:\n        /* \"contracts/modules/SimpleUpgrader.sol\":1751:1787  revert(\"SU: method not implemented\") */\n      mload(0x40)\n      0x08c379a000000000000000000000000000000000000000000000000000000000\n      dup2\n      mstore\n      0x04\n      add\n      tag_74\n      swap1\n      tag_75\n      jump\t// in\n    tag_74:\n      mload(0x40)\n      dup1\n      swap2\n      sub\n      swap1\n      revert\n        /* \"contracts/modules/SimpleUpgrader.sol\":272:298  address[] public toDisable */\n    tag_25:\n      0x01\n      dup2\n      dup2\n      sload\n      dup2\n      lt\n      tag_76\n      jumpi\n      0x00\n      dup1\n      revert\n    tag_76:\n      swap1\n      0x00\n      mstore\n      keccak256(0x00, 0x20)\n      add\n      0x00\n      swap2\n      pop\n      sload\n      swap1\n      0x0100\n      exp\n      swap1\n      div\n      0xffffffffffffffffffffffffffffffffffffffff\n      and\n      dup2\n      jump\t// out\n        /* \"contracts/modules/SimpleUpgrader.sol\":305:330  address[] public toEnable */\n    tag_30:\n      0x02\n      dup2\n      dup2\n      sload\n      dup2\n      lt\n      tag_78\n      jumpi\n      0x00\n      dup1\n      revert\n    tag_78:\n      swap1\n      0x00\n      mstore\n      keccak256(0x00, 0x20)\n      add\n      0x00\n      swap2\n      pop\n      sload\n      swap1\n      0x0100\n      exp\n      swap1\n      div\n      0xffffffffffffffffffffffffffffffffffffffff\n      and\n      dup2\n      jump\t// out\n        /* \"#utility.yul\":7:146   */\n    tag_81:\n      0x00\n        /* \"#utility.yul\":91:97   */\n      dup2\n        /* \"#utility.yul\":78:98   */\n      calldataload\n        /* \"#utility.yul\":69:98   */\n      swap1\n      pop\n        /* \"#utility.yul\":107:140   */\n      tag_83\n        /* \"#utility.yul\":134:139   */\n      dup2\n        /* \"#utility.yul\":107:140   */\n      tag_84\n      jump\t// in\n    tag_83:\n        /* \"#utility.yul\":59:146   */\n      swap3\n      swap2\n      pop\n      pop\n      jump\t// out\n        /* \"#utility.yul\":152:289   */\n    tag_85:\n      0x00\n        /* \"#utility.yul\":237:243   */\n      dup2\n        /* \"#utility.yul\":231:244   */\n      mload\n        /* \"#utility.yul\":222:244   */\n      swap1\n      pop\n        /* \"#utility.yul\":253:283   */\n      tag_87\n        /* \"#utility.yul\":277:282   */\n      dup2\n        /* \"#utility.yul\":253:283   */\n      tag_88\n      jump\t// in\n    tag_87:\n        /* \"#utility.yul\":212:289   */\n      swap3\n      swap2\n      pop\n      pop\n      jump\t// out\n        /* \"#utility.yul\":295:432   */\n    tag_89:\n      0x00\n        /* \"#utility.yul\":378:384   */\n      dup2\n        /* \"#utility.yul\":365:385   */\n      calldataload\n        /* \"#utility.yul\":356:385   */\n      swap1\n      pop\n        /* \"#utility.yul\":394:426   */\n      tag_91\n        /* \"#utility.yul\":420:425   */\n      dup2\n        /* \"#utility.yul\":394:426   */\n      tag_92\n      jump\t// in\n    tag_91:\n        /* \"#utility.yul\":346:432   */\n      swap3\n      swap2\n      pop\n      pop\n      jump\t// out\n        /* \"#utility.yul\":438:577   */\n    tag_93:\n      0x00\n        /* \"#utility.yul\":522:528   */\n      dup2\n        /* \"#utility.yul\":509:529   */\n      calldataload\n        /* \"#utility.yul\":500:529   */\n      swap1\n      pop\n        /* \"#utility.yul\":538:571   */\n      tag_95\n        /* \"#utility.yul\":565:570   */\n      dup2\n        /* \"#utility.yul\":538:571   */\n      tag_96\n      jump\t// in\n    tag_95:\n        /* \"#utility.yul\":490:577   */\n      swap3\n      swap2\n      pop\n      pop\n      jump\t// out\n        /* \"#utility.yul\":583:845   */\n    tag_10:\n      0x00\n        /* \"#utility.yul\":691:693   */\n      0x20\n        /* \"#utility.yul\":679:688   */\n      dup3\n        /* \"#utility.yul\":670:677   */\n      dup5\n        /* \"#utility.yul\":666:689   */\n      sub\n        /* \"#utility.yul\":662:694   */\n      slt\n        /* \"#utility.yul\":659:661   */\n      iszero\n      tag_98\n      jumpi\n        /* \"#utility.yul\":707:708   */\n      0x00\n        /* \"#utility.yul\":704:705   */\n      dup1\n        /* \"#utility.yul\":697:709   */\n      revert\n        /* \"#utility.yul\":659:661   */\n    tag_98:\n        /* \"#utility.yul\":750:751   */\n      0x00\n        /* \"#utility.yul\":775:828   */\n      tag_99\n        /* \"#utility.yul\":820:827   */\n      dup5\n        /* \"#utility.yul\":811:817   */\n      dup3\n        /* \"#utility.yul\":800:809   */\n      dup6\n        /* \"#utility.yul\":796:818   */\n      add\n        /* \"#utility.yul\":775:828   */\n      tag_81\n      jump\t// in\n    tag_99:\n        /* \"#utility.yul\":765:828   */\n      swap2\n      pop\n        /* \"#utility.yul\":721:838   */\n      pop\n        /* \"#utility.yul\":649:845   */\n      swap3\n      swap2\n      pop\n      pop\n      jump\t// out\n        /* \"#utility.yul\":851:1258   */\n    tag_20:\n      0x00\n      dup1\n        /* \"#utility.yul\":976:978   */\n      0x40\n        /* \"#utility.yul\":964:973   */\n      dup4\n        /* \"#utility.yul\":955:962   */\n      dup6\n        /* \"#utility.yul\":951:974   */\n      sub\n        /* \"#utility.yul\":947:979   */\n      slt\n        /* \"#utility.yul\":944:946   */\n      iszero\n      tag_101\n      jumpi\n        /* \"#utility.yul\":992:993   */\n      0x00\n        /* \"#utility.yul\":989:990   */\n      dup1\n        /* \"#utility.yul\":982:994   */\n      revert\n        /* \"#utility.yul\":944:946   */\n    tag_101:\n        /* \"#utility.yul\":1035:1036   */\n      0x00\n        /* \"#utility.yul\":1060:1113   */\n      tag_102\n        /* \"#utility.yul\":1105:1112   */\n      dup6\n        /* \"#utility.yul\":1096:1102   */\n      dup3\n        /* \"#utility.yul\":1085:1094   */\n      dup7\n        /* \"#utility.yul\":1081:1103   */\n      add\n        /* \"#utility.yul\":1060:1113   */\n      tag_81\n      jump\t// in\n    tag_102:\n        /* \"#utility.yul\":1050:1113   */\n      swap3\n      pop\n        /* \"#utility.yul\":1006:1123   */\n      pop\n        /* \"#utility.yul\":1162:1164   */\n      0x20\n        /* \"#utility.yul\":1188:1241   */\n      tag_103\n        /* \"#utility.yul\":1233:1240   */\n      dup6\n        /* \"#utility.yul\":1224:1230   */\n      dup3\n        /* \"#utility.yul\":1213:1222   */\n      dup7\n        /* \"#utility.yul\":1209:1231   */\n      add\n        /* \"#utility.yul\":1188:1241   */\n      tag_81\n      jump\t// in\n    tag_103:\n        /* \"#utility.yul\":1178:1241   */\n      swap2\n      pop\n        /* \"#utility.yul\":1133:1251   */\n      pop\n        /* \"#utility.yul\":934:1258   */\n      swap3\n      pop\n      swap3\n      swap1\n      pop\n      jump\t// out\n        /* \"#utility.yul\":1264:1542   */\n    tag_42:\n      0x00\n        /* \"#utility.yul\":1380:1382   */\n      0x20\n        /* \"#utility.yul\":1368:1377   */\n      dup3\n        /* \"#utility.yul\":1359:1366   */\n      dup5\n        /* \"#utility.yul\":1355:1378   */\n      sub\n        /* \"#utility.yul\":1351:1383   */\n      slt\n        /* \"#utility.yul\":1348:1350   */\n      iszero\n      tag_105\n      jumpi\n        /* \"#utility.yul\":1396:1397   */\n      0x00\n        /* \"#utility.yul\":1393:1394   */\n      dup1\n        /* \"#utility.yul\":1386:1398   */\n      revert\n        /* \"#utility.yul\":1348:1350   */\n    tag_105:\n        /* \"#utility.yul\":1439:1440   */\n      0x00\n        /* \"#utility.yul\":1464:1525   */\n      tag_106\n        /* \"#utility.yul\":1517:1524   */\n      dup5\n        /* \"#utility.yul\":1508:1514   */\n      dup3\n        /* \"#utility.yul\":1497:1506   */\n      dup6\n        /* \"#utility.yul\":1493:1515   */\n      add\n        /* \"#utility.yul\":1464:1525   */\n      tag_85\n      jump\t// in\n    tag_106:\n        /* \"#utility.yul\":1454:1525   */\n      swap2\n      pop\n        /* \"#utility.yul\":1410:1535   */\n      pop\n        /* \"#utility.yul\":1338:1542   */\n      swap3\n      swap2\n      pop\n      pop\n      jump\t// out\n        /* \"#utility.yul\":1548:1808   */\n    tag_14:\n      0x00\n        /* \"#utility.yul\":1655:1657   */\n      0x20\n        /* \"#utility.yul\":1643:1652   */\n      dup3\n        /* \"#utility.yul\":1634:1641   */\n      dup5\n        /* \"#utility.yul\":1630:1653   */\n      sub\n        /* \"#utility.yul\":1626:1658   */\n      slt\n        /* \"#utility.yul\":1623:1625   */\n      iszero\n      tag_108\n      jumpi\n        /* \"#utility.yul\":1671:1672   */\n      0x00\n        /* \"#utility.yul\":1668:1669   */\n      dup1\n        /* \"#utility.yul\":1661:1673   */\n      revert\n        /* \"#utility.yul\":1623:1625   */\n    tag_108:\n        /* \"#utility.yul\":1714:1715   */\n      0x00\n        /* \"#utility.yul\":1739:1791   */\n      tag_109\n        /* \"#utility.yul\":1783:1790   */\n      dup5\n        /* \"#utility.yul\":1774:1780   */\n      dup3\n        /* \"#utility.yul\":1763:1772   */\n      dup6\n        /* \"#utility.yul\":1759:1781   */\n      add\n        /* \"#utility.yul\":1739:1791   */\n      tag_89\n      jump\t// in\n    tag_109:\n        /* \"#utility.yul\":1729:1791   */\n      swap2\n      pop\n        /* \"#utility.yul\":1685:1801   */\n      pop\n        /* \"#utility.yul\":1613:1808   */\n      swap3\n      swap2\n      pop\n      pop\n      jump\t// out\n        /* \"#utility.yul\":1814:2076   */\n    tag_24:\n      0x00\n        /* \"#utility.yul\":1922:1924   */\n      0x20\n        /* \"#utility.yul\":1910:1919   */\n      dup3\n        /* \"#utility.yul\":1901:1908   */\n      dup5\n        /* \"#utility.yul\":1897:1920   */\n      sub\n        /* \"#utility.yul\":1893:1925   */\n      slt\n        /* \"#utility.yul\":1890:1892   */\n      iszero\n      tag_111\n      jumpi\n        /* \"#utility.yul\":1938:1939   */\n      0x00\n        /* \"#utility.yul\":1935:1936   */\n      dup1\n        /* \"#utility.yul\":1928:1940   */\n      revert\n        /* \"#utility.yul\":1890:1892   */\n    tag_111:\n        /* \"#utility.yul\":1981:1982   */\n      0x00\n        /* \"#utility.yul\":2006:2059   */\n      tag_112\n        /* \"#utility.yul\":2051:2058   */\n      dup5\n        /* \"#utility.yul\":2042:2048   */\n      dup3\n        /* \"#utility.yul\":2031:2040   */\n      dup6\n        /* \"#utility.yul\":2027:2049   */\n      add\n        /* \"#utility.yul\":2006:2059   */\n      tag_93\n      jump\t// in\n    tag_112:\n        /* \"#utility.yul\":1996:2059   */\n      swap2\n      pop\n        /* \"#utility.yul\":1952:2069   */\n      pop\n        /* \"#utility.yul\":1880:2076   */\n      swap3\n      swap2\n      pop\n      pop\n      jump\t// out\n        /* \"#utility.yul\":2082:2261   */\n    tag_113:\n      0x00\n        /* \"#utility.yul\":2172:2218   */\n      tag_115\n        /* \"#utility.yul\":2214:2217   */\n      dup4\n        /* \"#utility.yul\":2206:2212   */\n      dup4\n        /* \"#utility.yul\":2172:2218   */\n      tag_116\n      jump\t// in\n    tag_115:\n        /* \"#utility.yul\":2250:2254   */\n      0x20\n        /* \"#utility.yul\":2245:2248   */\n      dup4\n        /* \"#utility.yul\":2241:2255   */\n      add\n        /* \"#utility.yul\":2227:2255   */\n      swap1\n      pop\n        /* \"#utility.yul\":2162:2261   */\n      swap3\n      swap2\n      pop\n      pop\n      jump\t// out\n        /* \"#utility.yul\":2267:2375   */\n    tag_116:\n        /* \"#utility.yul\":2344:2368   */\n      tag_118\n        /* \"#utility.yul\":2362:2367   */\n      dup2\n        /* \"#utility.yul\":2344:2368   */\n      tag_119\n      jump\t// in\n    tag_118:\n        /* \"#utility.yul\":2339:2342   */\n      dup3\n        /* \"#utility.yul\":2332:2369   */\n      mstore\n        /* \"#utility.yul\":2322:2375   */\n      pop\n      pop\n      jump\t// out\n        /* \"#utility.yul\":2381:2499   */\n    tag_120:\n        /* \"#utility.yul\":2468:2492   */\n      tag_122\n        /* \"#utility.yul\":2486:2491   */\n      dup2\n        /* \"#utility.yul\":2468:2492   */\n      tag_119\n      jump\t// in\n    tag_122:\n        /* \"#utility.yul\":2463:2466   */\n      dup3\n        /* \"#utility.yul\":2456:2493   */\n      mstore\n        /* \"#utility.yul\":2446:2499   */\n      pop\n      pop\n      jump\t// out\n        /* \"#utility.yul\":2535:3286   */\n    tag_123:\n      0x00\n        /* \"#utility.yul\":2680:2731   */\n      tag_125\n        /* \"#utility.yul\":2725:2730   */\n      dup3\n        /* \"#utility.yul\":2680:2731   */\n      tag_126\n      jump\t// in\n    tag_125:\n        /* \"#utility.yul\":2747:2833   */\n      tag_127\n        /* \"#utility.yul\":2826:2832   */\n      dup2\n        /* \"#utility.yul\":2821:2824   */\n      dup6\n        /* \"#utility.yul\":2747:2833   */\n      tag_128\n      jump\t// in\n    tag_127:\n        /* \"#utility.yul\":2740:2833   */\n      swap4\n      pop\n        /* \"#utility.yul\":2857:2910   */\n      tag_129\n        /* \"#utility.yul\":2904:2909   */\n      dup4\n        /* \"#utility.yul\":2857:2910   */\n      tag_130\n      jump\t// in\n    tag_129:\n        /* \"#utility.yul\":2933:2940   */\n      dup1\n        /* \"#utility.yul\":2964:2965   */\n      0x00\n        /* \"#utility.yul\":2949:3261   */\n    tag_131:\n        /* \"#utility.yul\":2974:2980   */\n      dup4\n        /* \"#utility.yul\":2971:2972   */\n      dup2\n        /* \"#utility.yul\":2968:2981   */\n      lt\n        /* \"#utility.yul\":2949:3261   */\n      iszero\n      tag_133\n      jumpi\n        /* \"#utility.yul\":3044:3088   */\n      tag_134\n        /* \"#utility.yul\":3081:3087   */\n      dup3\n        /* \"#utility.yul\":3044:3088   */\n      tag_135\n      jump\t// in\n    tag_134:\n        /* \"#utility.yul\":3108:3171   */\n      tag_136\n        /* \"#utility.yul\":3167:3170   */\n      dup9\n        /* \"#utility.yul\":3152:3165   */\n      dup3\n        /* \"#utility.yul\":3108:3171   */\n      tag_113\n      jump\t// in\n    tag_136:\n        /* \"#utility.yul\":3101:3171   */\n      swap8\n      pop\n        /* \"#utility.yul\":3194:3251   */\n      tag_137\n        /* \"#utility.yul\":3244:3250   */\n      dup4\n        /* \"#utility.yul\":3194:3251   */\n      tag_138\n      jump\t// in\n    tag_137:\n        /* \"#utility.yul\":3184:3251   */\n      swap3\n      pop\n        /* \"#utility.yul\":3009:3261   */\n      pop\n        /* \"#utility.yul\":2996:2997   */\n      0x01\n        /* \"#utility.yul\":2993:2994   */\n      dup2\n        /* \"#utility.yul\":2989:2998   */\n      add\n        /* \"#utility.yul\":2984:2998   */\n      swap1\n      pop\n        /* \"#utility.yul\":2949:3261   */\n      jump(tag_131)\n    tag_133:\n        /* \"#utility.yul\":2953:2967   */\n      pop\n        /* \"#utility.yul\":3277:3280   */\n      dup6\n        /* \"#utility.yul\":3270:3280   */\n      swap4\n      pop\n        /* \"#utility.yul\":2656:3286   */\n      pop\n      pop\n      pop\n      swap3\n      swap2\n      pop\n      pop\n      jump\t// out\n        /* \"#utility.yul\":3292:3401   */\n    tag_139:\n        /* \"#utility.yul\":3373:3394   */\n      tag_141\n        /* \"#utility.yul\":3388:3393   */\n      dup2\n        /* \"#utility.yul\":3373:3394   */\n      tag_142\n      jump\t// in\n    tag_141:\n        /* \"#utility.yul\":3368:3371   */\n      dup3\n        /* \"#utility.yul\":3361:3395   */\n      mstore\n        /* \"#utility.yul\":3351:3401   */\n      pop\n      pop\n      jump\t// out\n        /* \"#utility.yul\":3407:3773   */\n    tag_143:\n      0x00\n        /* \"#utility.yul\":3570:3637   */\n      tag_145\n        /* \"#utility.yul\":3634:3636   */\n      0x19\n        /* \"#utility.yul\":3629:3632   */\n      dup4\n        /* \"#utility.yul\":3570:3637   */\n      tag_146\n      jump\t// in\n    tag_145:\n        /* \"#utility.yul\":3563:3637   */\n      swap2\n      pop\n        /* \"#utility.yul\":3646:3739   */\n      tag_147\n        /* \"#utility.yul\":3735:3738   */\n      dup3\n        /* \"#utility.yul\":3646:3739   */\n      tag_148\n      jump\t// in\n    tag_147:\n        /* \"#utility.yul\":3764:3766   */\n      0x20\n        /* \"#utility.yul\":3759:3762   */\n      dup3\n        /* \"#utility.yul\":3755:3767   */\n      add\n        /* \"#utility.yul\":3748:3767   */\n      swap1\n      pop\n        /* \"#utility.yul\":3553:3773   */\n      swap2\n      swap1\n      pop\n      jump\t// out\n        /* \"#utility.yul\":3779:4145   */\n    tag_149:\n      0x00\n        /* \"#utility.yul\":3942:4009   */\n      tag_151\n        /* \"#utility.yul\":4006:4008   */\n      0x1a\n        /* \"#utility.yul\":4001:4004   */\n      dup4\n        /* \"#utility.yul\":3942:4009   */\n      tag_146\n      jump\t// in\n    tag_151:\n        /* \"#utility.yul\":3935:4009   */\n      swap2\n      pop\n        /* \"#utility.yul\":4018:4111   */\n      tag_152\n        /* \"#utility.yul\":4107:4110   */\n      dup3\n        /* \"#utility.yul\":4018:4111   */\n      tag_153\n      jump\t// in\n    tag_152:\n        /* \"#utility.yul\":4136:4138   */\n      0x20\n        /* \"#utility.yul\":4131:4134   */\n      dup3\n        /* \"#utility.yul\":4127:4139   */\n      add\n        /* \"#utility.yul\":4120:4139   */\n      swap1\n      pop\n        /* \"#utility.yul\":3925:4145   */\n      swap2\n      swap1\n      pop\n      jump\t// out\n        /* \"#utility.yul\":4151:4517   */\n    tag_154:\n      0x00\n        /* \"#utility.yul\":4314:4381   */\n      tag_156\n        /* \"#utility.yul\":4378:4380   */\n      0x1d\n        /* \"#utility.yul\":4373:4376   */\n      dup4\n        /* \"#utility.yul\":4314:4381   */\n      tag_146\n      jump\t// in\n    tag_156:\n        /* \"#utility.yul\":4307:4381   */\n      swap2\n      pop\n        /* \"#utility.yul\":4390:4483   */\n      tag_157\n        /* \"#utility.yul\":4479:4482   */\n      dup3\n        /* \"#utility.yul\":4390:4483   */\n      tag_158\n      jump\t// in\n    tag_157:\n        /* \"#utility.yul\":4508:4510   */\n      0x20\n        /* \"#utility.yul\":4503:4506   */\n      dup3\n        /* \"#utility.yul\":4499:4511   */\n      add\n        /* \"#utility.yul\":4492:4511   */\n      swap1\n      pop\n        /* \"#utility.yul\":4297:4517   */\n      swap2\n      swap1\n      pop\n      jump\t// out\n        /* \"#utility.yul\":4523:4745   */\n    tag_27:\n      0x00\n        /* \"#utility.yul\":4654:4656   */\n      0x20\n        /* \"#utility.yul\":4643:4652   */\n      dup3\n        /* \"#utility.yul\":4639:4657   */\n      add\n        /* \"#utility.yul\":4631:4657   */\n      swap1\n      pop\n        /* \"#utility.yul\":4667:4738   */\n      tag_160\n        /* \"#utility.yul\":4735:4736   */\n      0x00\n        /* \"#utility.yul\":4724:4733   */\n      dup4\n        /* \"#utility.yul\":4720:4737   */\n      add\n        /* \"#utility.yul\":4711:4717   */\n      dup5\n        /* \"#utility.yul\":4667:4738   */\n      tag_120\n      jump\t// in\n    tag_160:\n        /* \"#utility.yul\":4621:4745   */\n      swap3\n      swap2\n      pop\n      pop\n      jump\t// out\n        /* \"#utility.yul\":4751:5071   */\n    tag_52:\n      0x00\n        /* \"#utility.yul\":4904:4906   */\n      0x40\n        /* \"#utility.yul\":4893:4902   */\n      dup3\n        /* \"#utility.yul\":4889:4907   */\n      add\n        /* \"#utility.yul\":4881:4907   */\n      swap1\n      pop\n        /* \"#utility.yul\":4917:4988   */\n      tag_162\n        /* \"#utility.yul\":4985:4986   */\n      0x00\n        /* \"#utility.yul\":4974:4983   */\n      dup4\n        /* \"#utility.yul\":4970:4987   */\n      add\n        /* \"#utility.yul\":4961:4967   */\n      dup6\n        /* \"#utility.yul\":4917:4988   */\n      tag_120\n      jump\t// in\n    tag_162:\n        /* \"#utility.yul\":4998:5064   */\n      tag_163\n        /* \"#utility.yul\":5060:5062   */\n      0x20\n        /* \"#utility.yul\":5049:5058   */\n      dup4\n        /* \"#utility.yul\":5045:5063   */\n      add\n        /* \"#utility.yul\":5036:5042   */\n      dup5\n        /* \"#utility.yul\":4998:5064   */\n      tag_139\n      jump\t// in\n    tag_163:\n        /* \"#utility.yul\":4871:5071   */\n      swap4\n      swap3\n      pop\n      pop\n      pop\n      jump\t// out\n        /* \"#utility.yul\":5077:5444   */\n    tag_37:\n      0x00\n        /* \"#utility.yul\":5255:5257   */\n      0x20\n        /* \"#utility.yul\":5244:5253   */\n      dup3\n        /* \"#utility.yul\":5240:5258   */\n      add\n        /* \"#utility.yul\":5232:5258   */\n      swap1\n      pop\n        /* \"#utility.yul\":5304:5313   */\n      dup2\n        /* \"#utility.yul\":5298:5302   */\n      dup2\n        /* \"#utility.yul\":5294:5314   */\n      sub\n        /* \"#utility.yul\":5290:5291   */\n      0x00\n        /* \"#utility.yul\":5279:5288   */\n      dup4\n        /* \"#utility.yul\":5275:5292   */\n      add\n        /* \"#utility.yul\":5268:5315   */\n      mstore\n        /* \"#utility.yul\":5332:5437   */\n      tag_165\n        /* \"#utility.yul\":5432:5436   */\n      dup2\n        /* \"#utility.yul\":5423:5429   */\n      dup5\n        /* \"#utility.yul\":5332:5437   */\n      tag_123\n      jump\t// in\n    tag_165:\n        /* \"#utility.yul\":5324:5437   */\n      swap1\n      pop\n        /* \"#utility.yul\":5222:5444   */\n      swap3\n      swap2\n      pop\n      pop\n      jump\t// out\n        /* \"#utility.yul\":5450:5660   */\n    tag_17:\n      0x00\n        /* \"#utility.yul\":5575:5577   */\n      0x20\n        /* \"#utility.yul\":5564:5573   */\n      dup3\n        /* \"#utility.yul\":5560:5578   */\n      add\n        /* \"#utility.yul\":5552:5578   */\n      swap1\n      pop\n        /* \"#utility.yul\":5588:5653   */\n      tag_167\n        /* \"#utility.yul\":5650:5651   */\n      0x00\n        /* \"#utility.yul\":5639:5648   */\n      dup4\n        /* \"#utility.yul\":5635:5652   */\n      add\n        /* \"#utility.yul\":5626:5632   */\n      dup5\n        /* \"#utility.yul\":5588:5653   */\n      tag_139\n      jump\t// in\n    tag_167:\n        /* \"#utility.yul\":5542:5660   */\n      swap3\n      swap2\n      pop\n      pop\n      jump\t// out\n        /* \"#utility.yul\":5666:6085   */\n    tag_45:\n      0x00\n        /* \"#utility.yul\":5870:5872   */\n      0x20\n        /* \"#utility.yul\":5859:5868   */\n      dup3\n        /* \"#utility.yul\":5855:5873   */\n      add\n        /* \"#utility.yul\":5847:5873   */\n      swap1\n      pop\n        /* \"#utility.yul\":5919:5928   */\n      dup2\n        /* \"#utility.yul\":5913:5917   */\n      dup2\n        /* \"#utility.yul\":5909:5929   */\n      sub\n        /* \"#utility.yul\":5905:5906   */\n      0x00\n        /* \"#utility.yul\":5894:5903   */\n      dup4\n        /* \"#utility.yul\":5890:5907   */\n      add\n        /* \"#utility.yul\":5883:5930   */\n      mstore\n        /* \"#utility.yul\":5947:6078   */\n      tag_169\n        /* \"#utility.yul\":6073:6077   */\n      dup2\n        /* \"#utility.yul\":5947:6078   */\n      tag_143\n      jump\t// in\n    tag_169:\n        /* \"#utility.yul\":5939:6078   */\n      swap1\n      pop\n        /* \"#utility.yul\":5837:6085   */\n      swap2\n      swap1\n      pop\n      jump\t// out\n        /* \"#utility.yul\":6091:6510   */\n    tag_75:\n      0x00\n        /* \"#utility.yul\":6295:6297   */\n      0x20\n        /* \"#utility.yul\":6284:6293   */\n      dup3\n        /* \"#utility.yul\":6280:6298   */\n      add\n        /* \"#utility.yul\":6272:6298   */\n      swap1\n      pop\n        /* \"#utility.yul\":6344:6353   */\n      dup2\n        /* \"#utility.yul\":6338:6342   */\n      dup2\n        /* \"#utility.yul\":6334:6354   */\n      sub\n        /* \"#utility.yul\":6330:6331   */\n      0x00\n        /* \"#utility.yul\":6319:6328   */\n      dup4\n        /* \"#utility.yul\":6315:6332   */\n      add\n        /* \"#utility.yul\":6308:6355   */\n      mstore\n        /* \"#utility.yul\":6372:6503   */\n      tag_171\n        /* \"#utility.yul\":6498:6502   */\n      dup2\n        /* \"#utility.yul\":6372:6503   */\n      tag_149\n      jump\t// in\n    tag_171:\n        /* \"#utility.yul\":6364:6503   */\n      swap1\n      pop\n        /* \"#utility.yul\":6262:6510   */\n      swap2\n      swap1\n      pop\n      jump\t// out\n        /* \"#utility.yul\":6516:6935   */\n    tag_35:\n      0x00\n        /* \"#utility.yul\":6720:6722   */\n      0x20\n        /* \"#utility.yul\":6709:6718   */\n      dup3\n        /* \"#utility.yul\":6705:6723   */\n      add\n        /* \"#utility.yul\":6697:6723   */\n      swap1\n      pop\n        /* \"#utility.yul\":6769:6778   */\n      dup2\n        /* \"#utility.yul\":6763:6767   */\n      dup2\n        /* \"#utility.yul\":6759:6779   */\n      sub\n        /* \"#utility.yul\":6755:6756   */\n      0x00\n        /* \"#utility.yul\":6744:6753   */\n      dup4\n        /* \"#utility.yul\":6740:6757   */\n      add\n        /* \"#utility.yul\":6733:6780   */\n      mstore\n        /* \"#utility.yul\":6797:6928   */\n      tag_173\n        /* \"#utility.yul\":6923:6927   */\n      dup2\n        /* \"#utility.yul\":6797:6928   */\n      tag_154\n      jump\t// in\n    tag_173:\n        /* \"#utility.yul\":6789:6928   */\n      swap1\n      pop\n        /* \"#utility.yul\":6687:6935   */\n      swap2\n      swap1\n      pop\n      jump\t// out\n        /* \"#utility.yul\":6941:7097   */\n    tag_130:\n      0x00\n        /* \"#utility.yul\":7028:7031   */\n      dup2\n        /* \"#utility.yul\":7020:7031   */\n      swap1\n      pop\n        /* \"#utility.yul\":7051:7054   */\n      dup2\n        /* \"#utility.yul\":7048:7049   */\n      0x00\n        /* \"#utility.yul\":7041:7055   */\n      mstore\n        /* \"#utility.yul\":7085:7089   */\n      0x20\n        /* \"#utility.yul\":7082:7083   */\n      0x00\n        /* \"#utility.yul\":7072:7090   */\n      keccak256\n        /* \"#utility.yul\":7064:7090   */\n      swap1\n      pop\n        /* \"#utility.yul\":7010:7097   */\n      swap2\n      swap1\n      pop\n      jump\t// out\n        /* \"#utility.yul\":7103:7214   */\n    tag_126:\n      0x00\n        /* \"#utility.yul\":7201:7206   */\n      dup2\n        /* \"#utility.yul\":7195:7207   */\n      sload\n        /* \"#utility.yul\":7185:7207   */\n      swap1\n      pop\n        /* \"#utility.yul\":7174:7214   */\n      swap2\n      swap1\n      pop\n      jump\t// out\n        /* \"#utility.yul\":7220:7330   */\n    tag_138:\n      0x00\n        /* \"#utility.yul\":7319:7323   */\n      0x01\n        /* \"#utility.yul\":7314:7317   */\n      dup3\n        /* \"#utility.yul\":7310:7324   */\n      add\n        /* \"#utility.yul\":7302:7324   */\n      swap1\n      pop\n        /* \"#utility.yul\":7292:7330   */\n      swap2\n      swap1\n      pop\n      jump\t// out\n        /* \"#utility.yul\":7336:7520   */\n    tag_128:\n      0x00\n        /* \"#utility.yul\":7469:7475   */\n      dup3\n        /* \"#utility.yul\":7464:7467   */\n      dup3\n        /* \"#utility.yul\":7457:7476   */\n      mstore\n        /* \"#utility.yul\":7509:7513   */\n      0x20\n        /* \"#utility.yul\":7504:7507   */\n      dup3\n        /* \"#utility.yul\":7500:7514   */\n      add\n        /* \"#utility.yul\":7485:7514   */\n      swap1\n      pop\n        /* \"#utility.yul\":7447:7520   */\n      swap3\n      swap2\n      pop\n      pop\n      jump\t// out\n        /* \"#utility.yul\":7526:7695   */\n    tag_146:\n      0x00\n        /* \"#utility.yul\":7644:7650   */\n      dup3\n        /* \"#utility.yul\":7639:7642   */\n      dup3\n        /* \"#utility.yul\":7632:7651   */\n      mstore\n        /* \"#utility.yul\":7684:7688   */\n      0x20\n        /* \"#utility.yul\":7679:7682   */\n      dup3\n        /* \"#utility.yul\":7675:7689   */\n      add\n        /* \"#utility.yul\":7660:7689   */\n      swap1\n      pop\n        /* \"#utility.yul\":7622:7695   */\n      swap3\n      swap2\n      pop\n      pop\n      jump\t// out\n        /* \"#utility.yul\":7701:7840   */\n    tag_179:\n      0x00\n        /* \"#utility.yul\":7791:7833   */\n      0xffffffffffffffffffffffffffffffffffffffff\n        /* \"#utility.yul\":7784:7789   */\n      dup3\n        /* \"#utility.yul\":7780:7834   */\n      and\n        /* \"#utility.yul\":7769:7834   */\n      swap1\n      pop\n        /* \"#utility.yul\":7759:7840   */\n      swap2\n      swap1\n      pop\n      jump\t// out\n        /* \"#utility.yul\":7846:7942   */\n    tag_119:\n      0x00\n        /* \"#utility.yul\":7912:7936   */\n      tag_182\n        /* \"#utility.yul\":7930:7935   */\n      dup3\n        /* \"#utility.yul\":7912:7936   */\n      tag_183\n      jump\t// in\n    tag_182:\n        /* \"#utility.yul\":7901:7936   */\n      swap1\n      pop\n        /* \"#utility.yul\":7891:7942   */\n      swap2\n      swap1\n      pop\n      jump\t// out\n        /* \"#utility.yul\":7948:8038   */\n    tag_142:\n      0x00\n        /* \"#utility.yul\":8025:8030   */\n      dup2\n        /* \"#utility.yul\":8018:8031   */\n      iszero\n        /* \"#utility.yul\":8011:8032   */\n      iszero\n        /* \"#utility.yul\":8000:8032   */\n      swap1\n      pop\n        /* \"#utility.yul\":7990:8038   */\n      swap2\n      swap1\n      pop\n      jump\t// out\n        /* \"#utility.yul\":8044:8193   */\n    tag_185:\n      0x00\n        /* \"#utility.yul\":8120:8186   */\n      0xffffffff00000000000000000000000000000000000000000000000000000000\n        /* \"#utility.yul\":8113:8118   */\n      dup3\n        /* \"#utility.yul\":8109:8187   */\n      and\n        /* \"#utility.yul\":8098:8187   */\n      swap1\n      pop\n        /* \"#utility.yul\":8088:8193   */\n      swap2\n      swap1\n      pop\n      jump\t// out\n        /* \"#utility.yul\":8199:8325   */\n    tag_183:\n      0x00\n        /* \"#utility.yul\":8276:8318   */\n      0xffffffffffffffffffffffffffffffffffffffff\n        /* \"#utility.yul\":8269:8274   */\n      dup3\n        /* \"#utility.yul\":8265:8319   */\n      and\n        /* \"#utility.yul\":8254:8319   */\n      swap1\n      pop\n        /* \"#utility.yul\":8244:8325   */\n      swap2\n      swap1\n      pop\n      jump\t// out\n        /* \"#utility.yul\":8331:8408   */\n    tag_188:\n      0x00\n        /* \"#utility.yul\":8397:8402   */\n      dup2\n        /* \"#utility.yul\":8386:8402   */\n      swap1\n      pop\n        /* \"#utility.yul\":8376:8408   */\n      swap2\n      swap1\n      pop\n      jump\t// out\n        /* \"#utility.yul\":8414:8580   */\n    tag_190:\n      0x00\n        /* \"#utility.yul\":8508:8574   */\n      tag_192\n        /* \"#utility.yul\":8539:8573   */\n      tag_193\n        /* \"#utility.yul\":8562:8572   */\n      dup4\n        /* \"#utility.yul\":8539:8573   */\n      tag_194\n      jump\t// in\n    tag_193:\n        /* \"#utility.yul\":8508:8574   */\n      tag_179\n      jump\t// in\n    tag_192:\n        /* \"#utility.yul\":8499:8574   */\n      swap1\n      pop\n        /* \"#utility.yul\":8489:8580   */\n      swap2\n      swap1\n      pop\n      jump\t// out\n        /* \"#utility.yul\":8586:8819   */\n    tag_57:\n      0x00\n        /* \"#utility.yul\":8648:8672   */\n      tag_196\n        /* \"#utility.yul\":8666:8671   */\n      dup3\n        /* \"#utility.yul\":8648:8672   */\n      tag_188\n      jump\t// in\n    tag_196:\n        /* \"#utility.yul\":8639:8672   */\n      swap2\n      pop\n        /* \"#utility.yul\":8694:8760   */\n      0xffffffffffffffffffffffffffffffffffffffffffffffffffffffffffffffff\n        /* \"#utility.yul\":8687:8692   */\n      dup3\n        /* \"#utility.yul\":8684:8761   */\n      eq\n        /* \"#utility.yul\":8681:8683   */\n      iszero\n      tag_197\n      jumpi\n        /* \"#utility.yul\":8764:8782   */\n      tag_198\n      tag_199\n      jump\t// in\n    tag_198:\n        /* \"#utility.yul\":8681:8683   */\n    tag_197:\n        /* \"#utility.yul\":8811:8812   */\n      0x01\n        /* \"#utility.yul\":8804:8809   */\n      dup3\n        /* \"#utility.yul\":8800:8813   */\n      add\n        /* \"#utility.yul\":8793:8813   */\n      swap1\n      pop\n        /* \"#utility.yul\":8629:8819   */\n      swap2\n      swap1\n      pop\n      jump\t// out\n        /* \"#utility.yul\":8825:9005   */\n    tag_199:\n        /* \"#utility.yul\":8873:8950   */\n      0x4e487b7100000000000000000000000000000000000000000000000000000000\n        /* \"#utility.yul\":8870:8871   */\n      0x00\n        /* \"#utility.yul\":8863:8951   */\n      mstore\n        /* \"#utility.yul\":8970:8974   */\n      0x11\n        /* \"#utility.yul\":8967:8968   */\n      0x04\n        /* \"#utility.yul\":8960:8975   */\n      mstore\n        /* \"#utility.yul\":8994:8998   */\n      0x24\n        /* \"#utility.yul\":8991:8992   */\n      0x00\n        /* \"#utility.yul\":8984:8999   */\n      revert\n        /* \"#utility.yul\":9011:9155   */\n    tag_135:\n      0x00\n        /* \"#utility.yul\":9091:9148   */\n      tag_202\n        /* \"#utility.yul\":9142:9146   */\n      dup3\n        /* \"#utility.yul\":9136:9147   */\n      sload\n        /* \"#utility.yul\":9091:9148   */\n      tag_190\n      jump\t// in\n    tag_202:\n        /* \"#utility.yul\":9082:9148   */\n      swap1\n      pop\n        /* \"#utility.yul\":9072:9155   */\n      swap2\n      swap1\n      pop\n      jump\t// out\n        /* \"#utility.yul\":9161:9263   */\n    tag_194:\n      0x00\n        /* \"#utility.yul\":9250:9255   */\n      dup2\n        /* \"#utility.yul\":9247:9248   */\n      0x00\n        /* \"#utility.yul\":9243:9256   */\n      shr\n        /* \"#utility.yul\":9222:9256   */\n      swap1\n      pop\n        /* \"#utility.yul\":9212:9263   */\n      swap2\n      swap1\n      pop\n      jump\t// out\n        /* \"#utility.yul\":9269:9444   */\n    tag_148:\n        /* \"#utility.yul\":9409:9436   */\n      0x53553a206d6f64756c65206e6f74207265676973746572656400000000000000\n        /* \"#utility.yul\":9405:9406   */\n      0x00\n        /* \"#utility.yul\":9397:9403   */\n      dup3\n        /* \"#utility.yul\":9393:9407   */\n      add\n        /* \"#utility.yul\":9386:9437   */\n      mstore\n        /* \"#utility.yul\":9375:9444   */\n      pop\n      jump\t// out\n        /* \"#utility.yul\":9450:9626   */\n    tag_153:\n        /* \"#utility.yul\":9590:9618   */\n      0x53553a206d6574686f64206e6f7420696d706c656d656e746564000000000000\n        /* \"#utility.yul\":9586:9587   */\n      0x00\n        /* \"#utility.yul\":9578:9584   */\n      dup3\n        /* \"#utility.yul\":9574:9588   */\n      add\n        /* \"#utility.yul\":9567:9619   */\n      mstore\n        /* \"#utility.yul\":9556:9626   */\n      pop\n      jump\t// out\n        /* \"#utility.yul\":9632:9811   */\n    tag_158:\n        /* \"#utility.yul\":9772:9803   */\n      0x53553a206f6e6c792077616c6c65742063616e2063616c6c20696e6974000000\n        /* \"#utility.yul\":9768:9769   */\n      0x00\n        /* \"#utility.yul\":9760:9766   */\n      dup3\n        /* \"#utility.yul\":9756:9770   */\n      add\n        /* \"#utility.yul\":9749:9804   */\n      mstore\n        /* \"#utility.yul\":9738:9811   */\n      pop\n      jump\t// out\n        /* \"#utility.yul\":9817:9939   */\n    tag_84:\n        /* \"#utility.yul\":9890:9914   */\n      tag_208\n        /* \"#utility.yul\":9908:9913   */\n      dup2\n        /* \"#utility.yul\":9890:9914   */\n      tag_119\n      jump\t// in\n    tag_208:\n        /* \"#utility.yul\":9883:9888   */\n      dup2\n        /* \"#utility.yul\":9880:9915   */\n      eq\n        /* \"#utility.yul\":9870:9872   */\n      tag_209\n      jumpi\n        /* \"#utility.yul\":9929:9930   */\n      0x00\n        /* \"#utility.yul\":9926:9927   */\n      dup1\n        /* \"#utility.yul\":9919:9931   */\n      revert\n        /* \"#utility.yul\":9870:9872   */\n    tag_209:\n        /* \"#utility.yul\":9860:9939   */\n      pop\n      jump\t// out\n        /* \"#utility.yul\":9945:10061   */\n    tag_88:\n        /* \"#utility.yul\":10015:10036   */\n      tag_211\n        /* \"#utility.yul\":10030:10035   */\n      dup2\n        /* \"#utility.yul\":10015:10036   */\n      tag_142\n      jump\t// in\n    tag_211:\n        /* \"#utility.yul\":10008:10013   */\n      dup2\n        /* \"#utility.yul\":10005:10037   */\n      eq\n        /* \"#utility.yul\":9995:9997   */\n      tag_212\n      jumpi\n        /* \"#utility.yul\":10051:10052   */\n      0x00\n        /* \"#utility.yul\":10048:10049   */\n      dup1\n        /* \"#utility.yul\":10041:10053   */\n      revert\n        /* \"#utility.yul\":9995:9997   */\n    tag_212:\n        /* \"#utility.yul\":9985:10061   */\n      pop\n      jump\t// out\n        /* \"#utility.yul\":10067:10187   */\n    tag_92:\n        /* \"#utility.yul\":10139:10162   */\n      tag_214\n        /* \"#utility.yul\":10156:10161   */\n      dup2\n        /* \"#utility.yul\":10139:10162   */\n      tag_185\n      jump\t// in\n    tag_214:\n        /* \"#utility.yul\":10132:10137   */\n      dup2\n        /* \"#utility.yul\":10129:10163   */\n      eq\n        /* \"#utility.yul\":10119:10121   */\n      tag_215\n      jumpi\n        /* \"#utility.yul\":10177:10178   */\n      0x00\n        /* \"#utility.yul\":10174:10175   */\n      dup1\n        /* \"#utility.yul\":10167:10179   */\n      revert\n        /* \"#utility.yul\":10119:10121   */\n    tag_215:\n        /* \"#utility.yul\":10109:10187   */\n      pop\n      jump\t// out\n        /* \"#utility.yul\":10193:10315   */\n    tag_96:\n        /* \"#utility.yul\":10266:10290   */\n      tag_217\n        /* \"#utility.yul\":10284:10289   */\n      dup2\n        /* \"#utility.yul\":10266:10290   */\n      tag_188\n      jump\t// in\n    tag_217:\n        /* \"#utility.yul\":10259:10264   */\n      dup2\n        /* \"#utility.yul\":10256:10291   */\n      eq\n        /* \"#utility.yul\":10246:10248   */\n      tag_218\n      jumpi\n        /* \"#utility.yul\":10305:10306   */\n      0x00\n        /* \"#utility.yul\":10302:10303   */\n      dup1\n        /* \"#utility.yul\":10295:10307   */\n      revert\n        /* \"#utility.yul\":10246:10248   */\n    tag_218:\n        /* \"#utility.yul\":10236:10315   */\n      pop\n      jump\t// out\n\n    auxdata: 0xa26469706673582212201e73c52afabb028143fc6315c9634de59f289c313b86f50a822004ace8d856c064736f6c63430008030033\n}\n",
				"bytecode": {
					"linkReferences": {},
					"object": "60806040523480156200001157600080fd5b5060405162000f7538038062000f75833981810160405281019062000037919062000230565b826000806101000a81548173ffffffffffffffffffffffffffffffffffffffff021916908373ffffffffffffffffffffffffffffffffffffffff16021790555081600190805190602001906200008f929190620000b2565b508060029080519060200190620000a8929190620000b2565b5050505062000402565b8280548282559060005260206000209081019282156200012e579160200282015b828111156200012d5782518260006101000a81548173ffffffffffffffffffffffffffffffffffffffff021916908373ffffffffffffffffffffffffffffffffffffffff16021790555091602001919060010190620000d3565b5b5090506200013d919062000141565b5090565b5b808211156200015c57600081600090555060010162000142565b5090565b6000620001776200017184620002e1565b620002b8565b905080838252602082019050828560208602820111156200019757600080fd5b60005b85811015620001cb5781620001b08882620001d5565b8452602084019350602083019250506001810190506200019a565b5050509392505050565b600081519050620001e681620003ce565b92915050565b600082601f830112620001fe57600080fd5b81516200021084826020860162000160565b91505092915050565b6000815190506200022a81620003e8565b92915050565b6000806000606084860312156200024657600080fd5b6000620002568682870162000219565b935050602084015167ffffffffffffffff8111156200027457600080fd5b6200028286828701620001ec565b925050604084015167ffffffffffffffff811115620002a057600080fd5b620002ae86828701620001ec565b9150509250925092565b6000620002c4620002d7565b9050620002d2828262000358565b919050565b6000604051905090565b600067ffffffffffffffff821115620002ff57620002fe6200038e565b5b602082029050602081019050919050565b60006200031d8262000338565b9050919050565b6000620003318262000310565b9050919050565b600073ffffffffffffffffffffffffffffffffffffffff82169050919050565b6200036382620003bd565b810181811067ffffffffffffffff821117156200038557620003846200038e565b5b80604052505050565b7f4e487b7100000000000000000000000000000000000000000000000000000000600052604160045260246000fd5b6000601f19601f8301169050919050565b620003d98162000310565b8114620003e557600080fd5b50565b620003f38162000324565b8114620003ff57600080fd5b50565b610b6380620004126000396000f3fe608060405234801561001057600080fd5b50600436106100575760003560e01c806319ab453c1461005c57806325b50934146100785780635a1db8c4146100a8578063c412967b146100c4578063d0d603e1146100f4575b600080fd5b610076600480360381019061007191906105ed565b610124565b005b610092600480360381019061008d919061067b565b6104d9565b60405161009f9190610846565b60405180910390f35b6100c260048036038101906100bd9190610616565b6104e0565b005b6100de60048036038101906100d991906106a4565b61051b565b6040516100eb91906107e0565b60405180910390f35b61010e600480360381019061010991906106a4565b61055a565b60405161011b91906107e0565b60405180910390f35b8073ffffffffffffffffffffffffffffffffffffffff163373ffffffffffffffffffffffffffffffffffffffff1614610192576040517f08c379a0000000000000000000000000000000000000000000000000000000008152600401610189906108a1565b60405180910390fd5b60008054906101000a900473ffffffffffffffffffffffffffffffffffffffff1673ffffffffffffffffffffffffffffffffffffffff16636bb18a5460026040518263ffffffff1660e01b81526004016101ec9190610824565b60206040518083038186803b15801561020457600080fd5b505afa158015610218573d6000803e3d6000fd5b505050506040513d601f19601f8201168201806040525081019061023c9190610652565b61027b576040517f08c379a000000000000000000000000000000000000000000000000000000000815260040161027290610861565b60405180910390fd5b60005b600280549050811015610370578173ffffffffffffffffffffffffffffffffffffffff16631f17732d600283815481106102e1577f4e487b7100000000000000000000000000000000000000000000000000000000600052603260045260246000fd5b9060005260206000200160009054906101000a900473ffffffffffffffffffffffffffffffffffffffff1660016040518363ffffffff1660e01b815260040161032b9291906107fb565b600060405180830381600087803b15801561034557600080fd5b505af1158015610359573d6000803e3d6000fd5b505050508080610368906109be565b91505061027e565b600090505b600180549050811015610467578173ffffffffffffffffffffffffffffffffffffffff16631f17732d600183815481106103d8577f4e487b7100000000000000000000000000000000000000000000000000000000600052603260045260246000fd5b9060005260206000200160009054906101000a900473ffffffffffffffffffffffffffffffffffffffff1660006040518363ffffffff1660e01b81526004016104229291906107fb565b600060405180830381600087803b15801561043c57600080fd5b505af1158015610450573d6000803e3d6000fd5b50505050808061045f906109be565b915050610375565b8173ffffffffffffffffffffffffffffffffffffffff16631f17732d3060006040518363ffffffff1660e01b81526004016104a39291906107fb565b600060405180830381600087803b1580156104bd57600080fd5b505af11580156104d1573d6000803e3d6000fd5b505050505050565b6000919050565b6040517f08c379a000000000000000000000000000000000000000000000000000000000815260040161051290610881565b60405180910390fd5b6001818154811061052b57600080fd5b906000526020600020016000915054906101000a900473ffffffffffffffffffffffffffffffffffffffff1681565b6002818154811061056a57600080fd5b906000526020600020016000915054906101000a900473ffffffffffffffffffffffffffffffffffffffff1681565b6000813590506105a881610ad1565b92915050565b6000815190506105bd81610ae8565b92915050565b6000813590506105d281610aff565b92915050565b6000813590506105e781610b16565b92915050565b6000602082840312156105ff57600080fd5b600061060d84828501610599565b91505092915050565b6000806040838503121561062957600080fd5b600061063785828601610599565b925050602061064885828601610599565b9150509250929050565b60006020828403121561066457600080fd5b6000610672848285016105ae565b91505092915050565b60006020828403121561068d57600080fd5b600061069b848285016105c3565b91505092915050565b6000602082840312156106b657600080fd5b60006106c4848285016105d8565b91505092915050565b60006106d983836106e5565b60208301905092915050565b6106ee81610930565b82525050565b6106fd81610930565b82525050565b600061070e826108d6565b61071881856108ee565b9350610723836108c1565b8060005b8381101561075b5761073882610a36565b61074288826106cd565b975061074d836108e1565b925050600181019050610727565b5085935050505092915050565b61077181610942565b82525050565b60006107846019836108ff565b915061078f82610a56565b602082019050919050565b60006107a7601a836108ff565b91506107b282610a7f565b602082019050919050565b60006107ca601d836108ff565b91506107d582610aa8565b602082019050919050565b60006020820190506107f560008301846106f4565b92915050565b600060408201905061081060008301856106f4565b61081d6020830184610768565b9392505050565b6000602082019050818103600083015261083e8184610703565b905092915050565b600060208201905061085b6000830184610768565b92915050565b6000602082019050818103600083015261087a81610777565b9050919050565b6000602082019050818103600083015261089a8161079a565b9050919050565b600060208201905081810360008301526108ba816107bd565b9050919050565b60008190508160005260206000209050919050565b600081549050919050565b6000600182019050919050565b600082825260208201905092915050565b600082825260208201905092915050565b600073ffffffffffffffffffffffffffffffffffffffff82169050919050565b600061093b8261097a565b9050919050565b60008115159050919050565b60007fffffffff0000000000000000000000000000000000000000000000000000000082169050919050565b600073ffffffffffffffffffffffffffffffffffffffff82169050919050565b6000819050919050565b60006109b76109b283610a49565b610910565b9050919050565b60006109c98261099a565b91507fffffffffffffffffffffffffffffffffffffffffffffffffffffffffffffffff8214156109fc576109fb610a07565b5b600182019050919050565b7f4e487b7100000000000000000000000000000000000000000000000000000000600052601160045260246000fd5b6000610a4282546109a4565b9050919050565b60008160001c9050919050565b7f53553a206d6f64756c65206e6f74207265676973746572656400000000000000600082015250565b7f53553a206d6574686f64206e6f7420696d706c656d656e746564000000000000600082015250565b7f53553a206f6e6c792077616c6c65742063616e2063616c6c20696e6974000000600082015250565b610ada81610930565b8114610ae557600080fd5b50565b610af181610942565b8114610afc57600080fd5b50565b610b088161094e565b8114610b1357600080fd5b50565b610b1f8161099a565b8114610b2a57600080fd5b5056fea26469706673582212201e73c52afabb028143fc6315c9634de59f289c313b86f50a822004ace8d856c064736f6c63430008030033",
					"opcodes": "PUSH1 0x80 PUSH1 0x40 MSTORE CALLVALUE DUP1 ISZERO PUSH3 0x11 JUMPI PUSH1 0x0 DUP1 REVERT JUMPDEST POP PUSH1 0x40 MLOAD PUSH3 0xF75 CODESIZE SUB DUP1 PUSH3 0xF75 DUP4 CODECOPY DUP2 DUP2 ADD PUSH1 0x40 MSTORE DUP2 ADD SWAP1 PUSH3 0x37 SWAP2 SWAP1 PUSH3 0x230 JUMP JUMPDEST DUP3 PUSH1 0x0 DUP1 PUSH2 0x100 EXP DUP2 SLOAD DUP2 PUSH20 0xFFFFFFFFFFFFFFFFFFFFFFFFFFFFFFFFFFFFFFFF MUL NOT AND SWAP1 DUP4 PUSH20 0xFFFFFFFFFFFFFFFFFFFFFFFFFFFFFFFFFFFFFFFF AND MUL OR SWAP1 SSTORE POP DUP2 PUSH1 0x1 SWAP1 DUP1 MLOAD SWAP1 PUSH1 0x20 ADD SWAP1 PUSH3 0x8F SWAP3 SWAP2 SWAP1 PUSH3 0xB2 JUMP JUMPDEST POP DUP1 PUSH1 0x2 SWAP1 DUP1 MLOAD SWAP1 PUSH1 0x20 ADD SWAP1 PUSH3 0xA8 SWAP3 SWAP2 SWAP1 PUSH3 0xB2 JUMP JUMPDEST POP POP POP POP PUSH3 0x402 JUMP JUMPDEST DUP3 DUP1 SLOAD DUP3 DUP3 SSTORE SWAP1 PUSH1 0x0 MSTORE PUSH1 0x20 PUSH1 0x0 KECCAK256 SWAP1 DUP2 ADD SWAP3 DUP3 ISZERO PUSH3 0x12E JUMPI SWAP2 PUSH1 0x20 MUL DUP3 ADD JUMPDEST DUP3 DUP2 GT ISZERO PUSH3 0x12D JUMPI DUP3 MLOAD DUP3 PUSH1 0x0 PUSH2 0x100 EXP DUP2 SLOAD DUP2 PUSH20 0xFFFFFFFFFFFFFFFFFFFFFFFFFFFFFFFFFFFFFFFF MUL NOT AND SWAP1 DUP4 PUSH20 0xFFFFFFFFFFFFFFFFFFFFFFFFFFFFFFFFFFFFFFFF AND MUL OR SWAP1 SSTORE POP SWAP2 PUSH1 0x20 ADD SWAP2 SWAP1 PUSH1 0x1 ADD SWAP1 PUSH3 0xD3 JUMP JUMPDEST JUMPDEST POP SWAP1 POP PUSH3 0x13D SWAP2 SWAP1 PUSH3 0x141 JUMP JUMPDEST POP SWAP1 JUMP JUMPDEST JUMPDEST DUP1 DUP3 GT ISZERO PUSH3 0x15C JUMPI PUSH1 0x0 DUP2 PUSH1 0x0 SWAP1 SSTORE POP PUSH1 0x1 ADD PUSH3 0x142 JUMP JUMPDEST POP SWAP1 JUMP JUMPDEST PUSH1 0x0 PUSH3 0x177 PUSH3 0x171 DUP5 PUSH3 0x2E1 JUMP JUMPDEST PUSH3 0x2B8 JUMP JUMPDEST SWAP1 POP DUP1 DUP4 DUP3 MSTORE PUSH1 0x20 DUP3 ADD SWAP1 POP DUP3 DUP6 PUSH1 0x20 DUP7 MUL DUP3 ADD GT ISZERO PUSH3 0x197 JUMPI PUSH1 0x0 DUP1 REVERT JUMPDEST PUSH1 0x0 JUMPDEST DUP6 DUP2 LT ISZERO PUSH3 0x1CB JUMPI DUP2 PUSH3 0x1B0 DUP9 DUP3 PUSH3 0x1D5 JUMP JUMPDEST DUP5 MSTORE PUSH1 0x20 DUP5 ADD SWAP4 POP PUSH1 0x20 DUP4 ADD SWAP3 POP POP PUSH1 0x1 DUP2 ADD SWAP1 POP PUSH3 0x19A JUMP JUMPDEST POP POP POP SWAP4 SWAP3 POP POP POP JUMP JUMPDEST PUSH1 0x0 DUP2 MLOAD SWAP1 POP PUSH3 0x1E6 DUP2 PUSH3 0x3CE JUMP JUMPDEST SWAP3 SWAP2 POP POP JUMP JUMPDEST PUSH1 0x0 DUP3 PUSH1 0x1F DUP4 ADD SLT PUSH3 0x1FE JUMPI PUSH1 0x0 DUP1 REVERT JUMPDEST DUP2 MLOAD PUSH3 0x210 DUP5 DUP3 PUSH1 0x20 DUP7 ADD PUSH3 0x160 JUMP JUMPDEST SWAP2 POP POP SWAP3 SWAP2 POP POP JUMP JUMPDEST PUSH1 0x0 DUP2 MLOAD SWAP1 POP PUSH3 0x22A DUP2 PUSH3 0x3E8 JUMP JUMPDEST SWAP3 SWAP2 POP POP JUMP JUMPDEST PUSH1 0x0 DUP1 PUSH1 0x0 PUSH1 0x60 DUP5 DUP7 SUB SLT ISZERO PUSH3 0x246 JUMPI PUSH1 0x0 DUP1 REVERT JUMPDEST PUSH1 0x0 PUSH3 0x256 DUP7 DUP3 DUP8 ADD PUSH3 0x219 JUMP JUMPDEST SWAP4 POP POP PUSH1 0x20 DUP5 ADD MLOAD PUSH8 0xFFFFFFFFFFFFFFFF DUP2 GT ISZERO PUSH3 0x274 JUMPI PUSH1 0x0 DUP1 REVERT JUMPDEST PUSH3 0x282 DUP7 DUP3 DUP8 ADD PUSH3 0x1EC JUMP JUMPDEST SWAP3 POP POP PUSH1 0x40 DUP5 ADD MLOAD PUSH8 0xFFFFFFFFFFFFFFFF DUP2 GT ISZERO PUSH3 0x2A0 JUMPI PUSH1 0x0 DUP1 REVERT JUMPDEST PUSH3 0x2AE DUP7 DUP3 DUP8 ADD PUSH3 0x1EC JUMP JUMPDEST SWAP2 POP POP SWAP3 POP SWAP3 POP SWAP3 JUMP JUMPDEST PUSH1 0x0 PUSH3 0x2C4 PUSH3 0x2D7 JUMP JUMPDEST SWAP1 POP PUSH3 0x2D2 DUP3 DUP3 PUSH3 0x358 JUMP JUMPDEST SWAP2 SWAP1 POP JUMP JUMPDEST PUSH1 0x0 PUSH1 0x40 MLOAD SWAP1 POP SWAP1 JUMP JUMPDEST PUSH1 0x0 PUSH8 0xFFFFFFFFFFFFFFFF DUP3 GT ISZERO PUSH3 0x2FF JUMPI PUSH3 0x2FE PUSH3 0x38E JUMP JUMPDEST JUMPDEST PUSH1 0x20 DUP3 MUL SWAP1 POP PUSH1 0x20 DUP2 ADD SWAP1 POP SWAP2 SWAP1 POP JUMP JUMPDEST PUSH1 0x0 PUSH3 0x31D DUP3 PUSH3 0x338 JUMP JUMPDEST SWAP1 POP SWAP2 SWAP1 POP JUMP JUMPDEST PUSH1 0x0 PUSH3 0x331 DUP3 PUSH3 0x310 JUMP JUMPDEST SWAP1 POP SWAP2 SWAP1 POP JUMP JUMPDEST PUSH1 0x0 PUSH20 0xFFFFFFFFFFFFFFFFFFFFFFFFFFFFFFFFFFFFFFFF DUP3 AND SWAP1 POP SWAP2 SWAP1 POP JUMP JUMPDEST PUSH3 0x363 DUP3 PUSH3 0x3BD JUMP JUMPDEST DUP2 ADD DUP2 DUP2 LT PUSH8 0xFFFFFFFFFFFFFFFF DUP3 GT OR ISZERO PUSH3 0x385 JUMPI PUSH3 0x384 PUSH3 0x38E JUMP JUMPDEST JUMPDEST DUP1 PUSH1 0x40 MSTORE POP POP POP JUMP JUMPDEST PUSH32 0x4E487B7100000000000000000000000000000000000000000000000000000000 PUSH1 0x0 MSTORE PUSH1 0x41 PUSH1 0x4 MSTORE PUSH1 0x24 PUSH1 0x0 REVERT JUMPDEST PUSH1 0x0 PUSH1 0x1F NOT PUSH1 0x1F DUP4 ADD AND SWAP1 POP SWAP2 SWAP1 POP JUMP JUMPDEST PUSH3 0x3D9 DUP2 PUSH3 0x310 JUMP JUMPDEST DUP2 EQ PUSH3 0x3E5 JUMPI PUSH1 0x0 DUP1 REVERT JUMPDEST POP JUMP JUMPDEST PUSH3 0x3F3 DUP2 PUSH3 0x324 JUMP JUMPDEST DUP2 EQ PUSH3 0x3FF JUMPI PUSH1 0x0 DUP1 REVERT JUMPDEST POP JUMP JUMPDEST PUSH2 0xB63 DUP1 PUSH3 0x412 PUSH1 0x0 CODECOPY PUSH1 0x0 RETURN INVALID PUSH1 0x80 PUSH1 0x40 MSTORE CALLVALUE DUP1 ISZERO PUSH2 0x10 JUMPI PUSH1 0x0 DUP1 REVERT JUMPDEST POP PUSH1 0x4 CALLDATASIZE LT PUSH2 0x57 JUMPI PUSH1 0x0 CALLDATALOAD PUSH1 0xE0 SHR DUP1 PUSH4 0x19AB453C EQ PUSH2 0x5C JUMPI DUP1 PUSH4 0x25B50934 EQ PUSH2 0x78 JUMPI DUP1 PUSH4 0x5A1DB8C4 EQ PUSH2 0xA8 JUMPI DUP1 PUSH4 0xC412967B EQ PUSH2 0xC4 JUMPI DUP1 PUSH4 0xD0D603E1 EQ PUSH2 0xF4 JUMPI JUMPDEST PUSH1 0x0 DUP1 REVERT JUMPDEST PUSH2 0x76 PUSH1 0x4 DUP1 CALLDATASIZE SUB DUP2 ADD SWAP1 PUSH2 0x71 SWAP2 SWAP1 PUSH2 0x5ED JUMP JUMPDEST PUSH2 0x124 JUMP JUMPDEST STOP JUMPDEST PUSH2 0x92 PUSH1 0x4 DUP1 CALLDATASIZE SUB DUP2 ADD SWAP1 PUSH2 0x8D SWAP2 SWAP1 PUSH2 0x67B JUMP JUMPDEST PUSH2 0x4D9 JUMP JUMPDEST PUSH1 0x40 MLOAD PUSH2 0x9F SWAP2 SWAP1 PUSH2 0x846 JUMP JUMPDEST PUSH1 0x40 MLOAD DUP1 SWAP2 SUB SWAP1 RETURN JUMPDEST PUSH2 0xC2 PUSH1 0x4 DUP1 CALLDATASIZE SUB DUP2 ADD SWAP1 PUSH2 0xBD SWAP2 SWAP1 PUSH2 0x616 JUMP JUMPDEST PUSH2 0x4E0 JUMP JUMPDEST STOP JUMPDEST PUSH2 0xDE PUSH1 0x4 DUP1 CALLDATASIZE SUB DUP2 ADD SWAP1 PUSH2 0xD9 SWAP2 SWAP1 PUSH2 0x6A4 JUMP JUMPDEST PUSH2 0x51B JUMP JUMPDEST PUSH1 0x40 MLOAD PUSH2 0xEB SWAP2 SWAP1 PUSH2 0x7E0 JUMP JUMPDEST PUSH1 0x40 MLOAD DUP1 SWAP2 SUB SWAP1 RETURN JUMPDEST PUSH2 0x10E PUSH1 0x4 DUP1 CALLDATASIZE SUB DUP2 ADD SWAP1 PUSH2 0x109 SWAP2 SWAP1 PUSH2 0x6A4 JUMP JUMPDEST PUSH2 0x55A JUMP JUMPDEST PUSH1 0x40 MLOAD PUSH2 0x11B SWAP2 SWAP1 PUSH2 0x7E0 JUMP JUMPDEST PUSH1 0x40 MLOAD DUP1 SWAP2 SUB SWAP1 RETURN JUMPDEST DUP1 PUSH20 0xFFFFFFFFFFFFFFFFFFFFFFFFFFFFFFFFFFFFFFFF AND CALLER PUSH20 0xFFFFFFFFFFFFFFFFFFFFFFFFFFFFFFFFFFFFFFFF AND EQ PUSH2 0x192 JUMPI PUSH1 0x40 MLOAD PUSH32 0x8C379A000000000000000000000000000000000000000000000000000000000 DUP2 MSTORE PUSH1 0x4 ADD PUSH2 0x189 SWAP1 PUSH2 0x8A1 JUMP JUMPDEST PUSH1 0x40 MLOAD DUP1 SWAP2 SUB SWAP1 REVERT JUMPDEST PUSH1 0x0 DUP1 SLOAD SWAP1 PUSH2 0x100 EXP SWAP1 DIV PUSH20 0xFFFFFFFFFFFFFFFFFFFFFFFFFFFFFFFFFFFFFFFF AND PUSH20 0xFFFFFFFFFFFFFFFFFFFFFFFFFFFFFFFFFFFFFFFF AND PUSH4 0x6BB18A54 PUSH1 0x2 PUSH1 0x40 MLOAD DUP3 PUSH4 0xFFFFFFFF AND PUSH1 0xE0 SHL DUP2 MSTORE PUSH1 0x4 ADD PUSH2 0x1EC SWAP2 SWAP1 PUSH2 0x824 JUMP JUMPDEST PUSH1 0x20 PUSH1 0x40 MLOAD DUP1 DUP4 SUB DUP2 DUP7 DUP1 EXTCODESIZE ISZERO DUP1 ISZERO PUSH2 0x204 JUMPI PUSH1 0x0 DUP1 REVERT JUMPDEST POP GAS STATICCALL ISZERO DUP1 ISZERO PUSH2 0x218 JUMPI RETURNDATASIZE PUSH1 0x0 DUP1 RETURNDATACOPY RETURNDATASIZE PUSH1 0x0 REVERT JUMPDEST POP POP POP POP PUSH1 0x40 MLOAD RETURNDATASIZE PUSH1 0x1F NOT PUSH1 0x1F DUP3 ADD AND DUP3 ADD DUP1 PUSH1 0x40 MSTORE POP DUP2 ADD SWAP1 PUSH2 0x23C SWAP2 SWAP1 PUSH2 0x652 JUMP JUMPDEST PUSH2 0x27B JUMPI PUSH1 0x40 MLOAD PUSH32 0x8C379A000000000000000000000000000000000000000000000000000000000 DUP2 MSTORE PUSH1 0x4 ADD PUSH2 0x272 SWAP1 PUSH2 0x861 JUMP JUMPDEST PUSH1 0x40 MLOAD DUP1 SWAP2 SUB SWAP1 REVERT JUMPDEST PUSH1 0x0 JUMPDEST PUSH1 0x2 DUP1 SLOAD SWAP1 POP DUP2 LT ISZERO PUSH2 0x370 JUMPI DUP2 PUSH20 0xFFFFFFFFFFFFFFFFFFFFFFFFFFFFFFFFFFFFFFFF AND PUSH4 0x1F17732D PUSH1 0x2 DUP4 DUP2 SLOAD DUP2 LT PUSH2 0x2E1 JUMPI PUSH32 0x4E487B7100000000000000000000000000000000000000000000000000000000 PUSH1 0x0 MSTORE PUSH1 0x32 PUSH1 0x4 MSTORE PUSH1 0x24 PUSH1 0x0 REVERT JUMPDEST SWAP1 PUSH1 0x0 MSTORE PUSH1 0x20 PUSH1 0x0 KECCAK256 ADD PUSH1 0x0 SWAP1 SLOAD SWAP1 PUSH2 0x100 EXP SWAP1 DIV PUSH20 0xFFFFFFFFFFFFFFFFFFFFFFFFFFFFFFFFFFFFFFFF AND PUSH1 0x1 PUSH1 0x40 MLOAD DUP4 PUSH4 0xFFFFFFFF AND PUSH1 0xE0 SHL DUP2 MSTORE PUSH1 0x4 ADD PUSH2 0x32B SWAP3 SWAP2 SWAP1 PUSH2 0x7FB JUMP JUMPDEST PUSH1 0x0 PUSH1 0x40 MLOAD DUP1 DUP4 SUB DUP2 PUSH1 0x0 DUP8 DUP1 EXTCODESIZE ISZERO DUP1 ISZERO PUSH2 0x345 JUMPI PUSH1 0x0 DUP1 REVERT JUMPDEST POP GAS CALL ISZERO DUP1 ISZERO PUSH2 0x359 JUMPI RETURNDATASIZE PUSH1 0x0 DUP1 RETURNDATACOPY RETURNDATASIZE PUSH1 0x0 REVERT JUMPDEST POP POP POP POP DUP1 DUP1 PUSH2 0x368 SWAP1 PUSH2 0x9BE JUMP JUMPDEST SWAP2 POP POP PUSH2 0x27E JUMP JUMPDEST PUSH1 0x0 SWAP1 POP JUMPDEST PUSH1 0x1 DUP1 SLOAD SWAP1 POP DUP2 LT ISZERO PUSH2 0x467 JUMPI DUP2 PUSH20 0xFFFFFFFFFFFFFFFFFFFFFFFFFFFFFFFFFFFFFFFF AND PUSH4 0x1F17732D PUSH1 0x1 DUP4 DUP2 SLOAD DUP2 LT PUSH2 0x3D8 JUMPI PUSH32 0x4E487B7100000000000000000000000000000000000000000000000000000000 PUSH1 0x0 MSTORE PUSH1 0x32 PUSH1 0x4 MSTORE PUSH1 0x24 PUSH1 0x0 REVERT JUMPDEST SWAP1 PUSH1 0x0 MSTORE PUSH1 0x20 PUSH1 0x0 KECCAK256 ADD PUSH1 0x0 SWAP1 SLOAD SWAP1 PUSH2 0x100 EXP SWAP1 DIV PUSH20 0xFFFFFFFFFFFFFFFFFFFFFFFFFFFFFFFFFFFFFFFF AND PUSH1 0x0 PUSH1 0x40 MLOAD DUP4 PUSH4 0xFFFFFFFF AND PUSH1 0xE0 SHL DUP2 MSTORE PUSH1 0x4 ADD PUSH2 0x422 SWAP3 SWAP2 SWAP1 PUSH2 0x7FB JUMP JUMPDEST PUSH1 0x0 PUSH1 0x40 MLOAD DUP1 DUP4 SUB DUP2 PUSH1 0x0 DUP8 DUP1 EXTCODESIZE ISZERO DUP1 ISZERO PUSH2 0x43C JUMPI PUSH1 0x0 DUP1 REVERT JUMPDEST POP GAS CALL ISZERO DUP1 ISZERO PUSH2 0x450 JUMPI RETURNDATASIZE PUSH1 0x0 DUP1 RETURNDATACOPY RETURNDATASIZE PUSH1 0x0 REVERT JUMPDEST POP POP POP POP DUP1 DUP1 PUSH2 0x45F SWAP1 PUSH2 0x9BE JUMP JUMPDEST SWAP2 POP POP PUSH2 0x375 JUMP JUMPDEST DUP2 PUSH20 0xFFFFFFFFFFFFFFFFFFFFFFFFFFFFFFFFFFFFFFFF AND PUSH4 0x1F17732D ADDRESS PUSH1 0x0 PUSH1 0x40 MLOAD DUP4 PUSH4 0xFFFFFFFF AND PUSH1 0xE0 SHL DUP2 MSTORE PUSH1 0x4 ADD PUSH2 0x4A3 SWAP3 SWAP2 SWAP1 PUSH2 0x7FB JUMP JUMPDEST PUSH1 0x0 PUSH1 0x40 MLOAD DUP1 DUP4 SUB DUP2 PUSH1 0x0 DUP8 DUP1 EXTCODESIZE ISZERO DUP1 ISZERO PUSH2 0x4BD JUMPI PUSH1 0x0 DUP1 REVERT JUMPDEST POP GAS CALL ISZERO DUP1 ISZERO PUSH2 0x4D1 JUMPI RETURNDATASIZE PUSH1 0x0 DUP1 RETURNDATACOPY RETURNDATASIZE PUSH1 0x0 REVERT JUMPDEST POP POP POP POP POP POP JUMP JUMPDEST PUSH1 0x0 SWAP2 SWAP1 POP JUMP JUMPDEST PUSH1 0x40 MLOAD PUSH32 0x8C379A000000000000000000000000000000000000000000000000000000000 DUP2 MSTORE PUSH1 0x4 ADD PUSH2 0x512 SWAP1 PUSH2 0x881 JUMP JUMPDEST PUSH1 0x40 MLOAD DUP1 SWAP2 SUB SWAP1 REVERT JUMPDEST PUSH1 0x1 DUP2 DUP2 SLOAD DUP2 LT PUSH2 0x52B JUMPI PUSH1 0x0 DUP1 REVERT JUMPDEST SWAP1 PUSH1 0x0 MSTORE PUSH1 0x20 PUSH1 0x0 KECCAK256 ADD PUSH1 0x0 SWAP2 POP SLOAD SWAP1 PUSH2 0x100 EXP SWAP1 DIV PUSH20 0xFFFFFFFFFFFFFFFFFFFFFFFFFFFFFFFFFFFFFFFF AND DUP2 JUMP JUMPDEST PUSH1 0x2 DUP2 DUP2 SLOAD DUP2 LT PUSH2 0x56A JUMPI PUSH1 0x0 DUP1 REVERT JUMPDEST SWAP1 PUSH1 0x0 MSTORE PUSH1 0x20 PUSH1 0x0 KECCAK256 ADD PUSH1 0x0 SWAP2 POP SLOAD SWAP1 PUSH2 0x100 EXP SWAP1 DIV PUSH20 0xFFFFFFFFFFFFFFFFFFFFFFFFFFFFFFFFFFFFFFFF AND DUP2 JUMP JUMPDEST PUSH1 0x0 DUP2 CALLDATALOAD SWAP1 POP PUSH2 0x5A8 DUP2 PUSH2 0xAD1 JUMP JUMPDEST SWAP3 SWAP2 POP POP JUMP JUMPDEST PUSH1 0x0 DUP2 MLOAD SWAP1 POP PUSH2 0x5BD DUP2 PUSH2 0xAE8 JUMP JUMPDEST SWAP3 SWAP2 POP POP JUMP JUMPDEST PUSH1 0x0 DUP2 CALLDATALOAD SWAP1 POP PUSH2 0x5D2 DUP2 PUSH2 0xAFF JUMP JUMPDEST SWAP3 SWAP2 POP POP JUMP JUMPDEST PUSH1 0x0 DUP2 CALLDATALOAD SWAP1 POP PUSH2 0x5E7 DUP2 PUSH2 0xB16 JUMP JUMPDEST SWAP3 SWAP2 POP POP JUMP JUMPDEST PUSH1 0x0 PUSH1 0x20 DUP3 DUP5 SUB SLT ISZERO PUSH2 0x5FF JUMPI PUSH1 0x0 DUP1 REVERT JUMPDEST PUSH1 0x0 PUSH2 0x60D DUP5 DUP3 DUP6 ADD PUSH2 0x599 JUMP JUMPDEST SWAP2 POP POP SWAP3 SWAP2 POP POP JUMP JUMPDEST PUSH1 0x0 DUP1 PUSH1 0x40 DUP4 DUP6 SUB SLT ISZERO PUSH2 0x629 JUMPI PUSH1 0x0 DUP1 REVERT JUMPDEST PUSH1 0x0 PUSH2 0x637 DUP6 DUP3 DUP7 ADD PUSH2 0x599 JUMP JUMPDEST SWAP3 POP POP PUSH1 0x20 PUSH2 0x648 DUP6 DUP3 DUP7 ADD PUSH2 0x599 JUMP JUMPDEST SWAP2 POP POP SWAP3 POP SWAP3 SWAP1 POP JUMP JUMPDEST PUSH1 0x0 PUSH1 0x20 DUP3 DUP5 SUB SLT ISZERO PUSH2 0x664 JUMPI PUSH1 0x0 DUP1 REVERT JUMPDEST PUSH1 0x0 PUSH2 0x672 DUP5 DUP3 DUP6 ADD PUSH2 0x5AE JUMP JUMPDEST SWAP2 POP POP SWAP3 SWAP2 POP POP JUMP JUMPDEST PUSH1 0x0 PUSH1 0x20 DUP3 DUP5 SUB SLT ISZERO PUSH2 0x68D JUMPI PUSH1 0x0 DUP1 REVERT JUMPDEST PUSH1 0x0 PUSH2 0x69B DUP5 DUP3 DUP6 ADD PUSH2 0x5C3 JUMP JUMPDEST SWAP2 POP POP SWAP3 SWAP2 POP POP JUMP JUMPDEST PUSH1 0x0 PUSH1 0x20 DUP3 DUP5 SUB SLT ISZERO PUSH2 0x6B6 JUMPI PUSH1 0x0 DUP1 REVERT JUMPDEST PUSH1 0x0 PUSH2 0x6C4 DUP5 DUP3 DUP6 ADD PUSH2 0x5D8 JUMP JUMPDEST SWAP2 POP POP SWAP3 SWAP2 POP POP JUMP JUMPDEST PUSH1 0x0 PUSH2 0x6D9 DUP4 DUP4 PUSH2 0x6E5 JUMP JUMPDEST PUSH1 0x20 DUP4 ADD SWAP1 POP SWAP3 SWAP2 POP POP JUMP JUMPDEST PUSH2 0x6EE DUP2 PUSH2 0x930 JUMP JUMPDEST DUP3 MSTORE POP POP JUMP JUMPDEST PUSH2 0x6FD DUP2 PUSH2 0x930 JUMP JUMPDEST DUP3 MSTORE POP POP JUMP JUMPDEST PUSH1 0x0 PUSH2 0x70E DUP3 PUSH2 0x8D6 JUMP JUMPDEST PUSH2 0x718 DUP2 DUP6 PUSH2 0x8EE JUMP JUMPDEST SWAP4 POP PUSH2 0x723 DUP4 PUSH2 0x8C1 JUMP JUMPDEST DUP1 PUSH1 0x0 JUMPDEST DUP4 DUP2 LT ISZERO PUSH2 0x75B JUMPI PUSH2 0x738 DUP3 PUSH2 0xA36 JUMP JUMPDEST PUSH2 0x742 DUP9 DUP3 PUSH2 0x6CD JUMP JUMPDEST SWAP8 POP PUSH2 0x74D DUP4 PUSH2 0x8E1 JUMP JUMPDEST SWAP3 POP POP PUSH1 0x1 DUP2 ADD SWAP1 POP PUSH2 0x727 JUMP JUMPDEST POP DUP6 SWAP4 POP POP POP POP SWAP3 SWAP2 POP POP JUMP JUMPDEST PUSH2 0x771 DUP2 PUSH2 0x942 JUMP JUMPDEST DUP3 MSTORE POP POP JUMP JUMPDEST PUSH1 0x0 PUSH2 0x784 PUSH1 0x19 DUP4 PUSH2 0x8FF JUMP JUMPDEST SWAP2 POP PUSH2 0x78F DUP3 PUSH2 0xA56 JUMP JUMPDEST PUSH1 0x20 DUP3 ADD SWAP1 POP SWAP2 SWAP1 POP JUMP JUMPDEST PUSH1 0x0 PUSH2 0x7A7 PUSH1 0x1A DUP4 PUSH2 0x8FF JUMP JUMPDEST SWAP2 POP PUSH2 0x7B2 DUP3 PUSH2 0xA7F JUMP JUMPDEST PUSH1 0x20 DUP3 ADD SWAP1 POP SWAP2 SWAP1 POP JUMP JUMPDEST PUSH1 0x0 PUSH2 0x7CA PUSH1 0x1D DUP4 PUSH2 0x8FF JUMP JUMPDEST SWAP2 POP PUSH2 0x7D5 DUP3 PUSH2 0xAA8 JUMP JUMPDEST PUSH1 0x20 DUP3 ADD SWAP1 POP SWAP2 SWAP1 POP JUMP JUMPDEST PUSH1 0x0 PUSH1 0x20 DUP3 ADD SWAP1 POP PUSH2 0x7F5 PUSH1 0x0 DUP4 ADD DUP5 PUSH2 0x6F4 JUMP JUMPDEST SWAP3 SWAP2 POP POP JUMP JUMPDEST PUSH1 0x0 PUSH1 0x40 DUP3 ADD SWAP1 POP PUSH2 0x810 PUSH1 0x0 DUP4 ADD DUP6 PUSH2 0x6F4 JUMP JUMPDEST PUSH2 0x81D PUSH1 0x20 DUP4 ADD DUP5 PUSH2 0x768 JUMP JUMPDEST SWAP4 SWAP3 POP POP POP JUMP JUMPDEST PUSH1 0x0 PUSH1 0x20 DUP3 ADD SWAP1 POP DUP2 DUP2 SUB PUSH1 0x0 DUP4 ADD MSTORE PUSH2 0x83E DUP2 DUP5 PUSH2 0x703 JUMP JUMPDEST SWAP1 POP SWAP3 SWAP2 POP POP JUMP JUMPDEST PUSH1 0x0 PUSH1 0x20 DUP3 ADD SWAP1 POP PUSH2 0x85B PUSH1 0x0 DUP4 ADD DUP5 PUSH2 0x768 JUMP JUMPDEST SWAP3 SWAP2 POP POP JUMP JUMPDEST PUSH1 0x0 PUSH1 0x20 DUP3 ADD SWAP1 POP DUP2 DUP2 SUB PUSH1 0x0 DUP4 ADD MSTORE PUSH2 0x87A DUP2 PUSH2 0x777 JUMP JUMPDEST SWAP1 POP SWAP2 SWAP1 POP JUMP JUMPDEST PUSH1 0x0 PUSH1 0x20 DUP3 ADD SWAP1 POP DUP2 DUP2 SUB PUSH1 0x0 DUP4 ADD MSTORE PUSH2 0x89A DUP2 PUSH2 0x79A JUMP JUMPDEST SWAP1 POP SWAP2 SWAP1 POP JUMP JUMPDEST PUSH1 0x0 PUSH1 0x20 DUP3 ADD SWAP1 POP DUP2 DUP2 SUB PUSH1 0x0 DUP4 ADD MSTORE PUSH2 0x8BA DUP2 PUSH2 0x7BD JUMP JUMPDEST SWAP1 POP SWAP2 SWAP1 POP JUMP JUMPDEST PUSH1 0x0 DUP2 SWAP1 POP DUP2 PUSH1 0x0 MSTORE PUSH1 0x20 PUSH1 0x0 KECCAK256 SWAP1 POP SWAP2 SWAP1 POP JUMP JUMPDEST PUSH1 0x0 DUP2 SLOAD SWAP1 POP SWAP2 SWAP1 POP JUMP JUMPDEST PUSH1 0x0 PUSH1 0x1 DUP3 ADD SWAP1 POP SWAP2 SWAP1 POP JUMP JUMPDEST PUSH1 0x0 DUP3 DUP3 MSTORE PUSH1 0x20 DUP3 ADD SWAP1 POP SWAP3 SWAP2 POP POP JUMP JUMPDEST PUSH1 0x0 DUP3 DUP3 MSTORE PUSH1 0x20 DUP3 ADD SWAP1 POP SWAP3 SWAP2 POP POP JUMP JUMPDEST PUSH1 0x0 PUSH20 0xFFFFFFFFFFFFFFFFFFFFFFFFFFFFFFFFFFFFFFFF DUP3 AND SWAP1 POP SWAP2 SWAP1 POP JUMP JUMPDEST PUSH1 0x0 PUSH2 0x93B DUP3 PUSH2 0x97A JUMP JUMPDEST SWAP1 POP SWAP2 SWAP1 POP JUMP JUMPDEST PUSH1 0x0 DUP2 ISZERO ISZERO SWAP1 POP SWAP2 SWAP1 POP JUMP JUMPDEST PUSH1 0x0 PUSH32 0xFFFFFFFF00000000000000000000000000000000000000000000000000000000 DUP3 AND SWAP1 POP SWAP2 SWAP1 POP JUMP JUMPDEST PUSH1 0x0 PUSH20 0xFFFFFFFFFFFFFFFFFFFFFFFFFFFFFFFFFFFFFFFF DUP3 AND SWAP1 POP SWAP2 SWAP1 POP JUMP JUMPDEST PUSH1 0x0 DUP2 SWAP1 POP SWAP2 SWAP1 POP JUMP JUMPDEST PUSH1 0x0 PUSH2 0x9B7 PUSH2 0x9B2 DUP4 PUSH2 0xA49 JUMP JUMPDEST PUSH2 0x910 JUMP JUMPDEST SWAP1 POP SWAP2 SWAP1 POP JUMP JUMPDEST PUSH1 0x0 PUSH2 0x9C9 DUP3 PUSH2 0x99A JUMP JUMPDEST SWAP2 POP PUSH32 0xFFFFFFFFFFFFFFFFFFFFFFFFFFFFFFFFFFFFFFFFFFFFFFFFFFFFFFFFFFFFFFFF DUP3 EQ ISZERO PUSH2 0x9FC JUMPI PUSH2 0x9FB PUSH2 0xA07 JUMP JUMPDEST JUMPDEST PUSH1 0x1 DUP3 ADD SWAP1 POP SWAP2 SWAP1 POP JUMP JUMPDEST PUSH32 0x4E487B7100000000000000000000000000000000000000000000000000000000 PUSH1 0x0 MSTORE PUSH1 0x11 PUSH1 0x4 MSTORE PUSH1 0x24 PUSH1 0x0 REVERT JUMPDEST PUSH1 0x0 PUSH2 0xA42 DUP3 SLOAD PUSH2 0x9A4 JUMP JUMPDEST SWAP1 POP SWAP2 SWAP1 POP JUMP JUMPDEST PUSH1 0x0 DUP2 PUSH1 0x0 SHR SWAP1 POP SWAP2 SWAP1 POP JUMP JUMPDEST PUSH32 0x53553A206D6F64756C65206E6F74207265676973746572656400000000000000 PUSH1 0x0 DUP3 ADD MSTORE POP JUMP JUMPDEST PUSH32 0x53553A206D6574686F64206E6F7420696D706C656D656E746564000000000000 PUSH1 0x0 DUP3 ADD MSTORE POP JUMP JUMPDEST PUSH32 0x53553A206F6E6C792077616C6C65742063616E2063616C6C20696E6974000000 PUSH1 0x0 DUP3 ADD MSTORE POP JUMP JUMPDEST PUSH2 0xADA DUP2 PUSH2 0x930 JUMP JUMPDEST DUP2 EQ PUSH2 0xAE5 JUMPI PUSH1 0x0 DUP1 REVERT JUMPDEST POP JUMP JUMPDEST PUSH2 0xAF1 DUP2 PUSH2 0x942 JUMP JUMPDEST DUP2 EQ PUSH2 0xAFC JUMPI PUSH1 0x0 DUP1 REVERT JUMPDEST POP JUMP JUMPDEST PUSH2 0xB08 DUP2 PUSH2 0x94E JUMP JUMPDEST DUP2 EQ PUSH2 0xB13 JUMPI PUSH1 0x0 DUP1 REVERT JUMPDEST POP JUMP JUMPDEST PUSH2 0xB1F DUP2 PUSH2 0x99A JUMP JUMPDEST DUP2 EQ PUSH2 0xB2A JUMPI PUSH1 0x0 DUP1 REVERT JUMPDEST POP JUMP INVALID LOG2 PUSH5 0x6970667358 0x22 SLT KECCAK256 0x1E PUSH20 0xC52AFABB028143FC6315C9634DE59F289C313B86 CREATE2 EXP DUP3 KECCAK256 DIV 0xAC 0xE8 0xD8 JUMP 0xC0 PUSH5 0x736F6C6343 STOP ADDMOD SUB STOP CALLER "
				},
				"gasEstimates": {
					"creation": {
						"codeDepositCost": "583000",
						"executionCost": "infinite",
						"totalCost": "infinite"
					},
					"external": {
						"addModule(address,address)": "infinite",
						"init(address)": "infinite",
						"supportsStaticCall(bytes4)": "606",
						"toDisable(uint256)": "2400",
						"toEnable(uint256)": "2422"
					}
				},
				"methodIdentifiers": {
					"addModule(address,address)": "5a1db8c4",
					"init(address)": "19ab453c",
					"supportsStaticCall(bytes4)": "25b50934",
					"toDisable(uint256)": "c412967b",
					"toEnable(uint256)": "d0d603e1"
				}
			},
			"storageLayout": {
				"storage": [
					{
						"astId": 78,
						"contract": "contracts/modules/SimpleUpgrader.sol:SimpleUpgrader",
						"label": "registry",
						"offset": 0,
						"slot": "0",
						"type": "t_contract(IModuleRegistry)68"
					},
					{
						"astId": 81,
						"contract": "contracts/modules/SimpleUpgrader.sol:SimpleUpgrader",
						"label": "toDisable",
						"offset": 0,
						"slot": "1",
						"type": "t_array(t_address)dyn_storage"
					},
					{
						"astId": 84,
						"contract": "contracts/modules/SimpleUpgrader.sol:SimpleUpgrader",
						"label": "toEnable",
						"offset": 0,
						"slot": "2",
						"type": "t_array(t_address)dyn_storage"
					}
				],
				"types": {
					"t_address": {
						"encoding": "inplace",
						"label": "address",
						"numberOfBytes": "20"
					},
					"t_array(t_address)dyn_storage": {
						"base": "t_address",
						"encoding": "dynamic_array",
						"label": "address[]",
						"numberOfBytes": "32"
					},
					"t_contract(IModuleRegistry)68": {
						"encoding": "inplace",
						"label": "contract IModuleRegistry",
						"numberOfBytes": "20"
					}
				}
			},
			"userdoc": {
				"kind": "user",
				"methods": {
					"addModule(address,address)": {
						"notice": "Adds a module to a wallet. Cannot execute when wallet is locked (or under recovery)\t"
					},
					"init(address)": {
						"notice": "Perform the upgrade for a wallet. This method gets called when SimpleUpgrader is temporarily added as a module."
					},
					"supportsStaticCall(bytes4)": {
						"notice": "Returns whether the module implements a callback for a given static call method."
					}
				},
				"version": 1
			}
		}
	}
}