{
	"contracts/token/TokenTransfer.sol": {
		"TokenTransfer": {
			"abi": [
				{
					"inputs": [],
					"stateMutability": "nonpayable",
					"type": "constructor"
				},
				{
					"inputs": [],
					"name": "AccessControlBadConfirmation",
					"type": "error"
				},
				{
					"inputs": [
						{
							"internalType": "address",
							"name": "account",
							"type": "address"
						},
						{
							"internalType": "bytes32",
							"name": "neededRole",
							"type": "bytes32"
						}
					],
					"name": "AccessControlUnauthorizedAccount",
					"type": "error"
				},
				{
					"inputs": [
						{
							"internalType": "address",
							"name": "target",
							"type": "address"
						}
					],
					"name": "AddressEmptyCode",
					"type": "error"
				},
				{
					"inputs": [
						{
							"internalType": "address",
							"name": "account",
							"type": "address"
						}
					],
					"name": "AddressInsufficientBalance",
					"type": "error"
				},
				{
					"inputs": [],
					"name": "FailedInnerCall",
					"type": "error"
				},
				{
					"inputs": [
						{
							"internalType": "address",
							"name": "owner",
							"type": "address"
						},
						{
							"internalType": "address",
							"name": "spender",
							"type": "address"
						},
						{
							"internalType": "address",
							"name": "token",
							"type": "address"
						},
						{
							"internalType": "uint256",
							"name": "requested",
							"type": "uint256"
						},
						{
							"internalType": "uint256",
							"name": "available",
							"type": "uint256"
						}
					],
					"name": "InsufficientAllowance",
					"type": "error"
				},
				{
					"inputs": [],
					"name": "InvalidArrayLengths",
					"type": "error"
				},
				{
					"inputs": [],
					"name": "ReentrancyGuardReentrantCall",
					"type": "error"
				},
				{
					"inputs": [
						{
							"internalType": "address",
							"name": "token",
							"type": "address"
						}
					],
					"name": "SafeERC20FailedOperation",
					"type": "error"
				},
				{
					"inputs": [],
					"name": "TransferFailed",
					"type": "error"
				},
				{
					"inputs": [
						{
							"internalType": "address",
							"name": "token",
							"type": "address"
						}
					],
					"name": "UnsupportedToken",
					"type": "error"
				},
				{
					"anonymous": false,
					"inputs": [
						{
							"indexed": true,
							"internalType": "address",
							"name": "owner",
							"type": "address"
						},
						{
							"indexed": true,
							"internalType": "address",
							"name": "spender",
							"type": "address"
						},
						{
							"indexed": true,
							"internalType": "address",
							"name": "token",
							"type": "address"
						},
						{
							"indexed": false,
							"internalType": "uint256",
							"name": "amount",
							"type": "uint256"
						}
					],
					"name": "AllowanceSet",
					"type": "event"
				},
				{
					"anonymous": false,
					"inputs": [
						{
							"indexed": true,
							"internalType": "address",
							"name": "from",
							"type": "address"
						},
						{
							"indexed": false,
							"internalType": "address[]",
							"name": "to",
							"type": "address[]"
						},
						{
							"indexed": true,
							"internalType": "address",
							"name": "token",
							"type": "address"
						},
						{
							"indexed": false,
							"internalType": "uint256[]",
							"name": "amounts",
							"type": "uint256[]"
						}
					],
					"name": "BatchTransferred",
					"type": "event"
				},
				{
					"anonymous": false,
					"inputs": [
						{
							"indexed": true,
							"internalType": "bytes32",
							"name": "role",
							"type": "bytes32"
						},
						{
							"indexed": true,
							"internalType": "bytes32",
							"name": "previousAdminRole",
							"type": "bytes32"
						},
						{
							"indexed": true,
							"internalType": "bytes32",
							"name": "newAdminRole",
							"type": "bytes32"
						}
					],
					"name": "RoleAdminChanged",
					"type": "event"
				},
				{
					"anonymous": false,
					"inputs": [
						{
							"indexed": true,
							"internalType": "bytes32",
							"name": "role",
							"type": "bytes32"
						},
						{
							"indexed": true,
							"internalType": "address",
							"name": "account",
							"type": "address"
						},
						{
							"indexed": true,
							"internalType": "address",
							"name": "sender",
							"type": "address"
						}
					],
					"name": "RoleGranted",
					"type": "event"
				},
				{
					"anonymous": false,
					"inputs": [
						{
							"indexed": true,
							"internalType": "bytes32",
							"name": "role",
							"type": "bytes32"
						},
						{
							"indexed": true,
							"internalType": "address",
							"name": "account",
							"type": "address"
						},
						{
							"indexed": true,
							"internalType": "address",
							"name": "sender",
							"type": "address"
						}
					],
					"name": "RoleRevoked",
					"type": "event"
				},
				{
					"anonymous": false,
					"inputs": [
						{
							"indexed": true,
							"internalType": "address",
							"name": "token",
							"type": "address"
						}
					],
					"name": "TokenAdded",
					"type": "event"
				},
				{
					"anonymous": false,
					"inputs": [
						{
							"indexed": true,
							"internalType": "address",
							"name": "token",
							"type": "address"
						}
					],
					"name": "TokenRemoved",
					"type": "event"
				},
				{
					"anonymous": false,
					"inputs": [
						{
							"indexed": true,
							"internalType": "address",
							"name": "from",
							"type": "address"
						},
						{
							"indexed": true,
							"internalType": "address",
							"name": "to",
							"type": "address"
						},
						{
							"indexed": true,
							"internalType": "address",
							"name": "token",
							"type": "address"
						},
						{
							"indexed": false,
							"internalType": "uint256",
							"name": "amount",
							"type": "uint256"
						}
					],
					"name": "TokenTransferred",
					"type": "event"
				},
				{
					"inputs": [],
					"name": "DEFAULT_ADMIN_ROLE",
					"outputs": [
						{
							"internalType": "bytes32",
							"name": "",
							"type": "bytes32"
						}
					],
					"stateMutability": "view",
					"type": "function"
				},
				{
					"inputs": [],
					"name": "TRANSFER_ADMIN_ROLE",
					"outputs": [
						{
							"internalType": "bytes32",
							"name": "",
							"type": "bytes32"
						}
					],
					"stateMutability": "view",
					"type": "function"
				},
				{
					"inputs": [
						{
							"internalType": "address",
							"name": "token",
							"type": "address"
						}
					],
					"name": "addSupportedToken",
					"outputs": [],
					"stateMutability": "nonpayable",
					"type": "function"
				},
				{
					"inputs": [
						{
							"internalType": "address",
							"name": "owner",
							"type": "address"
						},
						{
							"internalType": "address",
							"name": "spender",
							"type": "address"
						},
						{
							"internalType": "address",
							"name": "token",
							"type": "address"
						}
					],
					"name": "allowance",
					"outputs": [
						{
							"internalType": "uint256",
							"name": "",
							"type": "uint256"
						}
					],
					"stateMutability": "view",
					"type": "function"
				},
				{
					"inputs": [
						{
							"internalType": "address[]",
							"name": "to",
							"type": "address[]"
						},
						{
							"internalType": "address",
							"name": "token",
							"type": "address"
						},
						{
							"internalType": "uint256[]",
							"name": "amounts",
							"type": "uint256[]"
						}
					],
					"name": "batchTransferToken",
					"outputs": [],
					"stateMutability": "nonpayable",
					"type": "function"
				},
				{
					"inputs": [
						{
							"internalType": "bytes32",
							"name": "role",
							"type": "bytes32"
						}
					],
					"name": "getRoleAdmin",
					"outputs": [
						{
							"internalType": "bytes32",
							"name": "",
							"type": "bytes32"
						}
					],
					"stateMutability": "view",
					"type": "function"
				},
				{
					"inputs": [
						{
							"internalType": "bytes32",
							"name": "role",
							"type": "bytes32"
						},
						{
							"internalType": "address",
							"name": "account",
							"type": "address"
						}
					],
					"name": "grantRole",
					"outputs": [],
					"stateMutability": "nonpayable",
					"type": "function"
				},
				{
					"inputs": [
						{
							"internalType": "bytes32",
							"name": "role",
							"type": "bytes32"
						},
						{
							"internalType": "address",
							"name": "account",
							"type": "address"
						}
					],
					"name": "hasRole",
					"outputs": [
						{
							"internalType": "bool",
							"name": "",
							"type": "bool"
						}
					],
					"stateMutability": "view",
					"type": "function"
				},
				{
					"inputs": [
						{
							"internalType": "address",
							"name": "token",
							"type": "address"
						}
					],
					"name": "removeSupportedToken",
					"outputs": [],
					"stateMutability": "nonpayable",
					"type": "function"
				},
				{
					"inputs": [
						{
							"internalType": "bytes32",
							"name": "role",
							"type": "bytes32"
						},
						{
							"internalType": "address",
							"name": "callerConfirmation",
							"type": "address"
						}
					],
					"name": "renounceRole",
					"outputs": [],
					"stateMutability": "nonpayable",
					"type": "function"
				},
				{
					"inputs": [
						{
							"internalType": "bytes32",
							"name": "role",
							"type": "bytes32"
						},
						{
							"internalType": "address",
							"name": "account",
							"type": "address"
						}
					],
					"name": "revokeRole",
					"outputs": [],
					"stateMutability": "nonpayable",
					"type": "function"
				},
				{
					"inputs": [
						{
							"internalType": "address",
							"name": "spender",
							"type": "address"
						},
						{
							"internalType": "address",
							"name": "token",
							"type": "address"
						},
						{
							"internalType": "uint256",
							"name": "amount",
							"type": "uint256"
						}
					],
					"name": "setAllowance",
					"outputs": [],
					"stateMutability": "nonpayable",
					"type": "function"
				},
				{
					"inputs": [
						{
							"internalType": "address",
							"name": "",
							"type": "address"
						}
					],
					"name": "supportedTokens",
					"outputs": [
						{
							"internalType": "bool",
							"name": "",
							"type": "bool"
						}
					],
					"stateMutability": "view",
					"type": "function"
				},
				{
					"inputs": [
						{
							"internalType": "bytes4",
							"name": "interfaceId",
							"type": "bytes4"
						}
					],
					"name": "supportsInterface",
					"outputs": [
						{
							"internalType": "bool",
							"name": "",
							"type": "bool"
						}
					],
					"stateMutability": "view",
					"type": "function"
				},
				{
					"inputs": [
						{
							"internalType": "address",
							"name": "to",
							"type": "address"
						},
						{
							"internalType": "address",
							"name": "token",
							"type": "address"
						},
						{
							"internalType": "uint256",
							"name": "amount",
							"type": "uint256"
						}
					],
					"name": "transferToken",
					"outputs": [],
					"stateMutability": "nonpayable",
					"type": "function"
				},
				{
					"inputs": [
						{
							"internalType": "address",
							"name": "from",
							"type": "address"
						},
						{
							"internalType": "address",
							"name": "to",
							"type": "address"
						},
						{
							"internalType": "address",
							"name": "token",
							"type": "address"
						},
						{
							"internalType": "uint256",
							"name": "amount",
							"type": "uint256"
						}
					],
					"name": "transferTokenFrom",
					"outputs": [],
					"stateMutability": "nonpayable",
					"type": "function"
				}
			],
			"devdoc": {
				"details": "A contract for handling token transfers within the Cipher Zero Protocol",
				"errors": {
					"AccessControlBadConfirmation()": [
						{
							"details": "The caller of a function is not the expected one. NOTE: Don't confuse with {AccessControlUnauthorizedAccount}."
						}
					],
					"AccessControlUnauthorizedAccount(address,bytes32)": [
						{
							"details": "The `account` is missing a role."
						}
					],
					"AddressEmptyCode(address)": [
						{
							"details": "There's no code at `target` (it is not a contract)."
						}
					],
					"AddressInsufficientBalance(address)": [
						{
							"details": "The ETH balance of the account is not enough to perform the operation."
						}
					],
					"FailedInnerCall()": [
						{
							"details": "A call to an address target failed. The target may have reverted."
						}
					],
					"ReentrancyGuardReentrantCall()": [
						{
							"details": "Unauthorized reentrant call."
						}
					],
					"SafeERC20FailedOperation(address)": [
						{
							"details": "An operation with an ERC20 token failed."
						}
					]
				},
				"events": {
					"RoleAdminChanged(bytes32,bytes32,bytes32)": {
						"details": "Emitted when `newAdminRole` is set as ``role``'s admin role, replacing `previousAdminRole` `DEFAULT_ADMIN_ROLE` is the starting admin for all roles, despite {RoleAdminChanged} not being emitted signaling this."
					},
					"RoleGranted(bytes32,address,address)": {
						"details": "Emitted when `account` is granted `role`. `sender` is the account that originated the contract call, an admin role bearer except when using {AccessControl-_setupRole}."
					},
					"RoleRevoked(bytes32,address,address)": {
						"details": "Emitted when `account` is revoked `role`. `sender` is the account that originated the contract call:   - if using `revokeRole`, it is the admin role bearer   - if using `renounceRole`, it is the role bearer (i.e. `account`)"
					}
				},
				"kind": "dev",
				"methods": {
					"addSupportedToken(address)": {
						"details": "Adds a supported token (only TRANSFER_ADMIN_ROLE)",
						"params": {
							"token": "Address of the token to add"
						}
					},
					"allowance(address,address,address)": {
						"details": "Returns the remaining allowance for a spender",
						"params": {
							"owner": "Address of the token owner",
							"spender": "Address of the spender",
							"token": "Address of the ERC20 token"
						},
						"returns": {
							"_0": "The remaining allowance"
						}
					},
					"batchTransferToken(address[],address,uint256[])": {
						"details": "Performs batch token transfers",
						"params": {
							"amounts": "Array of amounts to transfer",
							"to": "Array of recipient addresses",
							"token": "Address of the ERC20 token"
						}
					},
					"getRoleAdmin(bytes32)": {
						"details": "Returns the admin role that controls `role`. See {grantRole} and {revokeRole}. To change a role's admin, use {_setRoleAdmin}."
					},
					"grantRole(bytes32,address)": {
						"details": "Grants `role` to `account`. If `account` had not been already granted `role`, emits a {RoleGranted} event. Requirements: - the caller must have ``role``'s admin role. May emit a {RoleGranted} event."
					},
					"hasRole(bytes32,address)": {
						"details": "Returns `true` if `account` has been granted `role`."
					},
					"removeSupportedToken(address)": {
						"details": "Removes a supported token (only TRANSFER_ADMIN_ROLE)",
						"params": {
							"token": "Address of the token to remove"
						}
					},
					"renounceRole(bytes32,address)": {
						"details": "Revokes `role` from the calling account. Roles are often managed via {grantRole} and {revokeRole}: this function's purpose is to provide a mechanism for accounts to lose their privileges if they are compromised (such as when a trusted device is misplaced). If the calling account had been revoked `role`, emits a {RoleRevoked} event. Requirements: - the caller must be `callerConfirmation`. May emit a {RoleRevoked} event."
					},
					"revokeRole(bytes32,address)": {
						"details": "Revokes `role` from `account`. If `account` had been granted `role`, emits a {RoleRevoked} event. Requirements: - the caller must have ``role``'s admin role. May emit a {RoleRevoked} event."
					},
					"setAllowance(address,address,uint256)": {
						"details": "Sets allowance for a spender to transfer tokens on behalf of the owner",
						"params": {
							"amount": "Amount of tokens allowed to spend",
							"spender": "Address allowed to spend tokens",
							"token": "Address of the ERC20 token"
						}
					},
					"supportsInterface(bytes4)": {
						"details": "See {IERC165-supportsInterface}."
					},
					"transferToken(address,address,uint256)": {
						"details": "Transfers tokens from the sender to a recipient",
						"params": {
							"amount": "Amount of tokens to transfer",
							"to": "Recipient address",
							"token": "Address of the ERC20 token"
						}
					},
					"transferTokenFrom(address,address,address,uint256)": {
						"details": "Transfers tokens from one address to another, respecting allowances",
						"params": {
							"amount": "Amount of tokens to transfer",
							"from": "Sender address",
							"to": "Recipient address",
							"token": "Address of the ERC20 token"
						}
					}
				},
				"title": "TokenTransfer",
				"version": 1
			},
			"evm": {
				"assembly": "    /* \"contracts/token/TokenTransfer.sol\":465:5840  contract TokenTransfer is ReentrancyGuard, AccessControl {... */\n  mstore(0x40, 0x80)\n    /* \"contracts/token/TokenTransfer.sol\":1648:1774  constructor() {... */\n  callvalue\n  dup1\n  iszero\n  tag_1\n  jumpi\n  0x00\n  dup1\n  revert\ntag_1:\n  pop\n    /* \"@openzeppelin/contracts/utils/ReentrancyGuard.sol\":1713:1714  1 */\n  0x01\n    /* \"@openzeppelin/contracts/utils/ReentrancyGuard.sol\":1917:1924  _status */\n  0x00\n    /* \"@openzeppelin/contracts/utils/ReentrancyGuard.sol\":1917:1938  _status = NOT_ENTERED */\n  dup2\n  swap1\n  sstore\n  pop\n    /* \"contracts/token/TokenTransfer.sol\":1672:1714  _grantRole(DEFAULT_ADMIN_ROLE, msg.sender) */\n  tag_6\n    /* \"@openzeppelin/contracts/access/AccessControl.sol\":2232:2236  0x00 */\n  0x00\n    /* \"contracts/token/TokenTransfer.sol\":1683:1701  DEFAULT_ADMIN_ROLE */\n  dup1\n  shl\n    /* \"contracts/token/TokenTransfer.sol\":1703:1713  msg.sender */\n  caller\n    /* \"contracts/token/TokenTransfer.sol\":1672:1682  _grantRole */\n  shl(0x20, tag_7)\n    /* \"contracts/token/TokenTransfer.sol\":1672:1714  _grantRole(DEFAULT_ADMIN_ROLE, msg.sender) */\n  0x20\n  shr\n  jump\t// in\ntag_6:\n  pop\n    /* \"contracts/token/TokenTransfer.sol\":1724:1767  _grantRole(TRANSFER_ADMIN_ROLE, msg.sender) */\n  tag_8\n    /* \"contracts/token/TokenTransfer.sol\":646:678  keccak256(\"TRANSFER_ADMIN_ROLE\") */\n  0x915327d54f2c758ad33c35b031b5e89868657ea971cda2b8103c502dc672509c\n    /* \"contracts/token/TokenTransfer.sol\":1756:1766  msg.sender */\n  caller\n    /* \"contracts/token/TokenTransfer.sol\":1724:1734  _grantRole */\n  shl(0x20, tag_7)\n    /* \"contracts/token/TokenTransfer.sol\":1724:1767  _grantRole(TRANSFER_ADMIN_ROLE, msg.sender) */\n  0x20\n  shr\n  jump\t// in\ntag_8:\n  pop\n    /* \"contracts/token/TokenTransfer.sol\":465:5840  contract TokenTransfer is ReentrancyGuard, AccessControl {... */\n  jump(tag_9)\n    /* \"@openzeppelin/contracts/access/AccessControl.sol\":6179:6495  function _grantRole(bytes32 role, address account) internal virtual returns (bool) {... */\ntag_7:\n    /* \"@openzeppelin/contracts/access/AccessControl.sol\":6256:6260  bool */\n  0x00\n    /* \"@openzeppelin/contracts/access/AccessControl.sol\":6277:6299  hasRole(role, account) */\n  tag_11\n    /* \"@openzeppelin/contracts/access/AccessControl.sol\":6285:6289  role */\n  dup4\n    /* \"@openzeppelin/contracts/access/AccessControl.sol\":6291:6298  account */\n  dup4\n    /* \"@openzeppelin/contracts/access/AccessControl.sol\":6277:6284  hasRole */\n  shl(0x20, tag_12)\n    /* \"@openzeppelin/contracts/access/AccessControl.sol\":6277:6299  hasRole(role, account) */\n  0x20\n  shr\n  jump\t// in\ntag_11:\n    /* \"@openzeppelin/contracts/access/AccessControl.sol\":6272:6489  if (!hasRole(role, account)) {... */\n  tag_13\n  jumpi\n    /* \"@openzeppelin/contracts/access/AccessControl.sol\":6347:6351  true */\n  0x01\n    /* \"@openzeppelin/contracts/access/AccessControl.sol\":6315:6321  _roles */\n  dup1\n    /* \"@openzeppelin/contracts/access/AccessControl.sol\":6315:6327  _roles[role] */\n  0x00\n    /* \"@openzeppelin/contracts/access/AccessControl.sol\":6322:6326  role */\n  dup6\n    /* \"@openzeppelin/contracts/access/AccessControl.sol\":6315:6327  _roles[role] */\n  dup2\n  mstore\n  0x20\n  add\n  swap1\n  dup2\n  mstore\n  0x20\n  add\n  0x00\n  keccak256\n    /* \"@openzeppelin/contracts/access/AccessControl.sol\":6315:6335  _roles[role].hasRole */\n  0x00\n  add\n    /* \"@openzeppelin/contracts/access/AccessControl.sol\":6315:6344  _roles[role].hasRole[account] */\n  0x00\n    /* \"@openzeppelin/contracts/access/AccessControl.sol\":6336:6343  account */\n  dup5\n    /* \"@openzeppelin/contracts/access/AccessControl.sol\":6315:6344  _roles[role].hasRole[account] */\n  0xffffffffffffffffffffffffffffffffffffffff\n  and\n  0xffffffffffffffffffffffffffffffffffffffff\n  and\n  dup2\n  mstore\n  0x20\n  add\n  swap1\n  dup2\n  mstore\n  0x20\n  add\n  0x00\n  keccak256\n  0x00\n    /* \"@openzeppelin/contracts/access/AccessControl.sol\":6315:6351  _roles[role].hasRole[account] = true */\n  0x0100\n  exp\n  dup2\n  sload\n  dup2\n  0xff\n  mul\n  not\n  and\n  swap1\n  dup4\n  iszero\n  iszero\n  mul\n  or\n  swap1\n  sstore\n  pop\n    /* \"@openzeppelin/contracts/access/AccessControl.sol\":6397:6409  _msgSender() */\n  tag_14\n    /* \"@openzeppelin/contracts/access/AccessControl.sol\":6397:6407  _msgSender */\n  shl(0x20, tag_15)\n    /* \"@openzeppelin/contracts/access/AccessControl.sol\":6397:6409  _msgSender() */\n  0x20\n  shr\n  jump\t// in\ntag_14:\n    /* \"@openzeppelin/contracts/access/AccessControl.sol\":6370:6410  RoleGranted(role, account, _msgSender()) */\n  0xffffffffffffffffffffffffffffffffffffffff\n  and\n    /* \"@openzeppelin/contracts/access/AccessControl.sol\":6388:6395  account */\n  dup3\n    /* \"@openzeppelin/contracts/access/AccessControl.sol\":6370:6410  RoleGranted(role, account, _msgSender()) */\n  0xffffffffffffffffffffffffffffffffffffffff\n  and\n    /* \"@openzeppelin/contracts/access/AccessControl.sol\":6382:6386  role */\n  dup5\n    /* \"@openzeppelin/contracts/access/AccessControl.sol\":6370:6410  RoleGranted(role, account, _msgSender()) */\n  0x2f8788117e7eff1d82e926ec794901d17c78024a50270940304540a733656f0d\n  mload(0x40)\n  mload(0x40)\n  dup1\n  swap2\n  sub\n  swap1\n  log4\n    /* \"@openzeppelin/contracts/access/AccessControl.sol\":6431:6435  true */\n  0x01\n    /* \"@openzeppelin/contracts/access/AccessControl.sol\":6424:6435  return true */\n  swap1\n  pop\n  jump(tag_10)\n    /* \"@openzeppelin/contracts/access/AccessControl.sol\":6272:6489  if (!hasRole(role, account)) {... */\ntag_13:\n    /* \"@openzeppelin/contracts/access/AccessControl.sol\":6473:6478  false */\n  0x00\n    /* \"@openzeppelin/contracts/access/AccessControl.sol\":6466:6478  return false */\n  swap1\n  pop\n    /* \"@openzeppelin/contracts/access/AccessControl.sol\":6179:6495  function _grantRole(bytes32 role, address account) internal virtual returns (bool) {... */\ntag_10:\n  swap3\n  swap2\n  pop\n  pop\n  jump\t// out\n    /* \"@openzeppelin/contracts/access/AccessControl.sol\":2854:2990  function hasRole(bytes32 role, address account) public view virtual returns (bool) {... */\ntag_12:\n    /* \"@openzeppelin/contracts/access/AccessControl.sol\":2931:2935  bool */\n  0x00\n    /* \"@openzeppelin/contracts/access/AccessControl.sol\":2954:2960  _roles */\n  0x01\n    /* \"@openzeppelin/contracts/access/AccessControl.sol\":2954:2966  _roles[role] */\n  0x00\n    /* \"@openzeppelin/contracts/access/AccessControl.sol\":2961:2965  role */\n  dup5\n    /* \"@openzeppelin/contracts/access/AccessControl.sol\":2954:2966  _roles[role] */\n  dup2\n  mstore\n  0x20\n  add\n  swap1\n  dup2\n  mstore\n  0x20\n  add\n  0x00\n  keccak256\n    /* \"@openzeppelin/contracts/access/AccessControl.sol\":2954:2974  _roles[role].hasRole */\n  0x00\n  add\n    /* \"@openzeppelin/contracts/access/AccessControl.sol\":2954:2983  _roles[role].hasRole[account] */\n  0x00\n    /* \"@openzeppelin/contracts/access/AccessControl.sol\":2975:2982  account */\n  dup4\n    /* \"@openzeppelin/contracts/access/AccessControl.sol\":2954:2983  _roles[role].hasRole[account] */\n  0xffffffffffffffffffffffffffffffffffffffff\n  and\n  0xffffffffffffffffffffffffffffffffffffffff\n  and\n  dup2\n  mstore\n  0x20\n  add\n  swap1\n  dup2\n  mstore\n  0x20\n  add\n  0x00\n  keccak256\n  0x00\n  swap1\n  sload\n  swap1\n  0x0100\n  exp\n  swap1\n  div\n  0xff\n  and\n    /* \"@openzeppelin/contracts/access/AccessControl.sol\":2947:2983  return _roles[role].hasRole[account] */\n  swap1\n  pop\n    /* \"@openzeppelin/contracts/access/AccessControl.sol\":2854:2990  function hasRole(bytes32 role, address account) public view virtual returns (bool) {... */\n  swap3\n  swap2\n  pop\n  pop\n  jump\t// out\n    /* \"@openzeppelin/contracts/utils/Context.sol\":656:752  function _msgSender() internal view virtual returns (address) {... */\ntag_15:\n    /* \"@openzeppelin/contracts/utils/Context.sol\":709:716  address */\n  0x00\n    /* \"@openzeppelin/contracts/utils/Context.sol\":735:745  msg.sender */\n  caller\n    /* \"@openzeppelin/contracts/utils/Context.sol\":728:745  return msg.sender */\n  swap1\n  pop\n    /* \"@openzeppelin/contracts/utils/Context.sol\":656:752  function _msgSender() internal view virtual returns (address) {... */\n  swap1\n  jump\t// out\n    /* \"contracts/token/TokenTransfer.sol\":465:5840  contract TokenTransfer is ReentrancyGuard, AccessControl {... */\ntag_9:\n  dataSize(sub_0)\n  dup1\n  dataOffset(sub_0)\n  0x00\n  codecopy\n  0x00\n  return\nstop\n\nsub_0: assembly {\n        /* \"contracts/token/TokenTransfer.sol\":465:5840  contract TokenTransfer is ReentrancyGuard, AccessControl {... */\n      mstore(0x40, 0x80)\n      callvalue\n      dup1\n      iszero\n      tag_1\n      jumpi\n      0x00\n      dup1\n      revert\n    tag_1:\n      pop\n      jumpi(tag_2, lt(calldatasize, 0x04))\n      shr(0xe0, calldataload(0x00))\n      dup1\n      0x91d14854\n      gt\n      tag_19\n      jumpi\n      dup1\n      0xd547741f\n      gt\n      tag_20\n      jumpi\n      dup1\n      0xd547741f\n      eq\n      tag_15\n      jumpi\n      dup1\n      0xda46098c\n      eq\n      tag_16\n      jumpi\n      dup1\n      0xe5994905\n      eq\n      tag_17\n      jumpi\n      dup1\n      0xf5537ede\n      eq\n      tag_18\n      jumpi\n      jump(tag_2)\n    tag_20:\n      dup1\n      0x91d14854\n      eq\n      tag_11\n      jumpi\n      dup1\n      0x927da105\n      eq\n      tag_12\n      jumpi\n      dup1\n      0xa217fddf\n      eq\n      tag_13\n      jumpi\n      dup1\n      0xcdb33b81\n      eq\n      tag_14\n      jumpi\n      jump(tag_2)\n    tag_19:\n      dup1\n      0x68a37ae8\n      gt\n      tag_21\n      jumpi\n      dup1\n      0x68a37ae8\n      eq\n      tag_7\n      jumpi\n      dup1\n      0x68c4ac26\n      eq\n      tag_8\n      jumpi\n      dup1\n      0x6d69fcaf\n      eq\n      tag_9\n      jumpi\n      dup1\n      0x76319190\n      eq\n      tag_10\n      jumpi\n      jump(tag_2)\n    tag_21:\n      dup1\n      0x01ffc9a7\n      eq\n      tag_3\n      jumpi\n      dup1\n      0x248a9ca3\n      eq\n      tag_4\n      jumpi\n      dup1\n      0x2f2ff15d\n      eq\n      tag_5\n      jumpi\n      dup1\n      0x36568abe\n      eq\n      tag_6\n      jumpi\n    tag_2:\n      0x00\n      dup1\n      revert\n        /* \"@openzeppelin/contracts/access/AccessControl.sol\":2565:2767  function supportsInterface(bytes4 interfaceId) public view virtual override returns (bool) {... */\n    tag_3:\n      tag_22\n      0x04\n      dup1\n      calldatasize\n      sub\n      dup2\n      add\n      swap1\n      tag_23\n      swap2\n      swap1\n      tag_24\n      jump\t// in\n    tag_23:\n      tag_25\n      jump\t// in\n    tag_22:\n      mload(0x40)\n      tag_26\n      swap2\n      swap1\n      tag_27\n      jump\t// in\n    tag_26:\n      mload(0x40)\n      dup1\n      swap2\n      sub\n      swap1\n      return\n        /* \"@openzeppelin/contracts/access/AccessControl.sol\":3810:3930  function getRoleAdmin(bytes32 role) public view virtual returns (bytes32) {... */\n    tag_4:\n      tag_28\n      0x04\n      dup1\n      calldatasize\n      sub\n      dup2\n      add\n      swap1\n      tag_29\n      swap2\n      swap1\n      tag_30\n      jump\t// in\n    tag_29:\n      tag_31\n      jump\t// in\n    tag_28:\n      mload(0x40)\n      tag_32\n      swap2\n      swap1\n      tag_33\n      jump\t// in\n    tag_32:\n      mload(0x40)\n      dup1\n      swap2\n      sub\n      swap1\n      return\n        /* \"@openzeppelin/contracts/access/AccessControl.sol\":4226:4362  function grantRole(bytes32 role, address account) public virtual onlyRole(getRoleAdmin(role)) {... */\n    tag_5:\n      tag_34\n      0x04\n      dup1\n      calldatasize\n      sub\n      dup2\n      add\n      swap1\n      tag_35\n      swap2\n      swap1\n      tag_36\n      jump\t// in\n    tag_35:\n      tag_37\n      jump\t// in\n    tag_34:\n      stop\n        /* \"@openzeppelin/contracts/access/AccessControl.sol\":5328:5573  function renounceRole(bytes32 role, address callerConfirmation) public virtual {... */\n    tag_6:\n      tag_38\n      0x04\n      dup1\n      calldatasize\n      sub\n      dup2\n      add\n      swap1\n      tag_39\n      swap2\n      swap1\n      tag_36\n      jump\t// in\n    tag_39:\n      tag_40\n      jump\t// in\n    tag_38:\n      stop\n        /* \"contracts/token/TokenTransfer.sol\":600:678  bytes32 public constant TRANSFER_ADMIN_ROLE = keccak256(\"TRANSFER_ADMIN_ROLE\") */\n    tag_7:\n      tag_41\n      tag_42\n      jump\t// in\n    tag_41:\n      mload(0x40)\n      tag_43\n      swap2\n      swap1\n      tag_33\n      jump\t// in\n    tag_43:\n      mload(0x40)\n      dup1\n      swap2\n      sub\n      swap1\n      return\n        /* \"contracts/token/TokenTransfer.sol\":743:790  mapping(address => bool) public supportedTokens */\n    tag_8:\n      tag_44\n      0x04\n      dup1\n      calldatasize\n      sub\n      dup2\n      add\n      swap1\n      tag_45\n      swap2\n      swap1\n      tag_46\n      jump\t// in\n    tag_45:\n      tag_47\n      jump\t// in\n    tag_44:\n      mload(0x40)\n      tag_48\n      swap2\n      swap1\n      tag_27\n      jump\t// in\n    tag_48:\n      mload(0x40)\n      dup1\n      swap2\n      sub\n      swap1\n      return\n        /* \"contracts/token/TokenTransfer.sol\":4731:4890  function addSupportedToken(address token) external onlyRole(TRANSFER_ADMIN_ROLE) {... */\n    tag_9:\n      tag_49\n      0x04\n      dup1\n      calldatasize\n      sub\n      dup2\n      add\n      swap1\n      tag_50\n      swap2\n      swap1\n      tag_46\n      jump\t// in\n    tag_50:\n      tag_51\n      jump\t// in\n    tag_49:\n      stop\n        /* \"contracts/token/TokenTransfer.sol\":5028:5193  function removeSupportedToken(address token) external onlyRole(TRANSFER_ADMIN_ROLE) {... */\n    tag_10:\n      tag_52\n      0x04\n      dup1\n      calldatasize\n      sub\n      dup2\n      add\n      swap1\n      tag_53\n      swap2\n      swap1\n      tag_46\n      jump\t// in\n    tag_53:\n      tag_54\n      jump\t// in\n    tag_52:\n      stop\n        /* \"@openzeppelin/contracts/access/AccessControl.sol\":2854:2990  function hasRole(bytes32 role, address account) public view virtual returns (bool) {... */\n    tag_11:\n      tag_55\n      0x04\n      dup1\n      calldatasize\n      sub\n      dup2\n      add\n      swap1\n      tag_56\n      swap2\n      swap1\n      tag_36\n      jump\t// in\n    tag_56:\n      tag_57\n      jump\t// in\n    tag_55:\n      mload(0x40)\n      tag_58\n      swap2\n      swap1\n      tag_27\n      jump\t// in\n    tag_58:\n      mload(0x40)\n      dup1\n      swap2\n      sub\n      swap1\n      return\n        /* \"contracts/token/TokenTransfer.sol\":4443:4599  function allowance(address owner, address spender, address token) external view returns (uint256) {... */\n    tag_12:\n      tag_59\n      0x04\n      dup1\n      calldatasize\n      sub\n      dup2\n      add\n      swap1\n      tag_60\n      swap2\n      swap1\n      tag_61\n      jump\t// in\n    tag_60:\n      tag_62\n      jump\t// in\n    tag_59:\n      mload(0x40)\n      tag_63\n      swap2\n      swap1\n      tag_64\n      jump\t// in\n    tag_63:\n      mload(0x40)\n      dup1\n      swap2\n      sub\n      swap1\n      return\n        /* \"@openzeppelin/contracts/access/AccessControl.sol\":2187:2236  bytes32 public constant DEFAULT_ADMIN_ROLE = 0x00 */\n    tag_13:\n      tag_65\n      tag_66\n      jump\t// in\n    tag_65:\n      mload(0x40)\n      tag_67\n      swap2\n      swap1\n      tag_33\n      jump\t// in\n    tag_67:\n      mload(0x40)\n      dup1\n      swap2\n      sub\n      swap1\n      return\n        /* \"contracts/token/TokenTransfer.sol\":3102:3717  function batchTransferToken(address[] calldata to, address token, uint256[] calldata amounts) external nonReentrant {... */\n    tag_14:\n      tag_68\n      0x04\n      dup1\n      calldatasize\n      sub\n      dup2\n      add\n      swap1\n      tag_69\n      swap2\n      swap1\n      tag_70\n      jump\t// in\n    tag_69:\n      tag_71\n      jump\t// in\n    tag_68:\n      stop\n        /* \"@openzeppelin/contracts/access/AccessControl.sol\":4642:4780  function revokeRole(bytes32 role, address account) public virtual onlyRole(getRoleAdmin(role)) {... */\n    tag_15:\n      tag_72\n      0x04\n      dup1\n      calldatasize\n      sub\n      dup2\n      add\n      swap1\n      tag_73\n      swap2\n      swap1\n      tag_36\n      jump\t// in\n    tag_73:\n      tag_74\n      jump\t// in\n    tag_72:\n      stop\n        /* \"contracts/token/TokenTransfer.sol\":3978:4185  function setAllowance(address spender, address token, uint256 amount) external {... */\n    tag_16:\n      tag_75\n      0x04\n      dup1\n      calldatasize\n      sub\n      dup2\n      add\n      swap1\n      tag_76\n      swap2\n      swap1\n      tag_77\n      jump\t// in\n    tag_76:\n      tag_78\n      jump\t// in\n    tag_75:\n      stop\n        /* \"contracts/token/TokenTransfer.sol\":2406:2893  function transferTokenFrom(address from, address to, address token, uint256 amount) external nonReentrant {... */\n    tag_17:\n      tag_79\n      0x04\n      dup1\n      calldatasize\n      sub\n      dup2\n      add\n      swap1\n      tag_80\n      swap2\n      swap1\n      tag_81\n      jump\t// in\n    tag_80:\n      tag_82\n      jump\t// in\n    tag_79:\n      stop\n        /* \"contracts/token/TokenTransfer.sol\":1988:2138  function transferToken(address to, address token, uint256 amount) external nonReentrant {... */\n    tag_18:\n      tag_83\n      0x04\n      dup1\n      calldatasize\n      sub\n      dup2\n      add\n      swap1\n      tag_84\n      swap2\n      swap1\n      tag_77\n      jump\t// in\n    tag_84:\n      tag_85\n      jump\t// in\n    tag_83:\n      stop\n        /* \"@openzeppelin/contracts/access/AccessControl.sol\":2565:2767  function supportsInterface(bytes4 interfaceId) public view virtual override returns (bool) {... */\n    tag_25:\n        /* \"@openzeppelin/contracts/access/AccessControl.sol\":2650:2654  bool */\n      0x00\n        /* \"@openzeppelin/contracts/access/AccessControl.sol\":2688:2720  type(IAccessControl).interfaceId */\n      0x7965db0b00000000000000000000000000000000000000000000000000000000\n        /* \"@openzeppelin/contracts/access/AccessControl.sol\":2673:2720  interfaceId == type(IAccessControl).interfaceId */\n      not(0xffffffffffffffffffffffffffffffffffffffffffffffffffffffff)\n      and\n        /* \"@openzeppelin/contracts/access/AccessControl.sol\":2673:2684  interfaceId */\n      dup3\n        /* \"@openzeppelin/contracts/access/AccessControl.sol\":2673:2720  interfaceId == type(IAccessControl).interfaceId */\n      not(0xffffffffffffffffffffffffffffffffffffffffffffffffffffffff)\n      and\n      eq\n        /* \"@openzeppelin/contracts/access/AccessControl.sol\":2673:2760  interfaceId == type(IAccessControl).interfaceId || super.supportsInterface(interfaceId) */\n      dup1\n      tag_87\n      jumpi\n      pop\n        /* \"@openzeppelin/contracts/access/AccessControl.sol\":2724:2760  super.supportsInterface(interfaceId) */\n      tag_88\n        /* \"@openzeppelin/contracts/access/AccessControl.sol\":2748:2759  interfaceId */\n      dup3\n        /* \"@openzeppelin/contracts/access/AccessControl.sol\":2724:2747  super.supportsInterface */\n      tag_89\n        /* \"@openzeppelin/contracts/access/AccessControl.sol\":2724:2760  super.supportsInterface(interfaceId) */\n      jump\t// in\n    tag_88:\n        /* \"@openzeppelin/contracts/access/AccessControl.sol\":2673:2760  interfaceId == type(IAccessControl).interfaceId || super.supportsInterface(interfaceId) */\n    tag_87:\n        /* \"@openzeppelin/contracts/access/AccessControl.sol\":2666:2760  return interfaceId == type(IAccessControl).interfaceId || super.supportsInterface(interfaceId) */\n      swap1\n      pop\n        /* \"@openzeppelin/contracts/access/AccessControl.sol\":2565:2767  function supportsInterface(bytes4 interfaceId) public view virtual override returns (bool) {... */\n      swap2\n      swap1\n      pop\n      jump\t// out\n        /* \"@openzeppelin/contracts/access/AccessControl.sol\":3810:3930  function getRoleAdmin(bytes32 role) public view virtual returns (bytes32) {... */\n    tag_31:\n        /* \"@openzeppelin/contracts/access/AccessControl.sol\":3875:3882  bytes32 */\n      0x00\n        /* \"@openzeppelin/contracts/access/AccessControl.sol\":3901:3907  _roles */\n      0x01\n        /* \"@openzeppelin/contracts/access/AccessControl.sol\":3901:3913  _roles[role] */\n      0x00\n        /* \"@openzeppelin/contracts/access/AccessControl.sol\":3908:3912  role */\n      dup4\n        /* \"@openzeppelin/contracts/access/AccessControl.sol\":3901:3913  _roles[role] */\n      dup2\n      mstore\n      0x20\n      add\n      swap1\n      dup2\n      mstore\n      0x20\n      add\n      0x00\n      keccak256\n        /* \"@openzeppelin/contracts/access/AccessControl.sol\":3901:3923  _roles[role].adminRole */\n      0x01\n      add\n      sload\n        /* \"@openzeppelin/contracts/access/AccessControl.sol\":3894:3923  return _roles[role].adminRole */\n      swap1\n      pop\n        /* \"@openzeppelin/contracts/access/AccessControl.sol\":3810:3930  function getRoleAdmin(bytes32 role) public view virtual returns (bytes32) {... */\n      swap2\n      swap1\n      pop\n      jump\t// out\n        /* \"@openzeppelin/contracts/access/AccessControl.sol\":4226:4362  function grantRole(bytes32 role, address account) public virtual onlyRole(getRoleAdmin(role)) {... */\n    tag_37:\n        /* \"@openzeppelin/contracts/access/AccessControl.sol\":4300:4318  getRoleAdmin(role) */\n      tag_91\n        /* \"@openzeppelin/contracts/access/AccessControl.sol\":4313:4317  role */\n      dup3\n        /* \"@openzeppelin/contracts/access/AccessControl.sol\":4300:4312  getRoleAdmin */\n      tag_31\n        /* \"@openzeppelin/contracts/access/AccessControl.sol\":4300:4318  getRoleAdmin(role) */\n      jump\t// in\n    tag_91:\n        /* \"@openzeppelin/contracts/access/AccessControl.sol\":2464:2480  _checkRole(role) */\n      tag_93\n        /* \"@openzeppelin/contracts/access/AccessControl.sol\":2475:2479  role */\n      dup2\n        /* \"@openzeppelin/contracts/access/AccessControl.sol\":2464:2474  _checkRole */\n      tag_94\n        /* \"@openzeppelin/contracts/access/AccessControl.sol\":2464:2480  _checkRole(role) */\n      jump\t// in\n    tag_93:\n        /* \"@openzeppelin/contracts/access/AccessControl.sol\":4330:4355  _grantRole(role, account) */\n      tag_96\n        /* \"@openzeppelin/contracts/access/AccessControl.sol\":4341:4345  role */\n      dup4\n        /* \"@openzeppelin/contracts/access/AccessControl.sol\":4347:4354  account */\n      dup4\n        /* \"@openzeppelin/contracts/access/AccessControl.sol\":4330:4340  _grantRole */\n      tag_97\n        /* \"@openzeppelin/contracts/access/AccessControl.sol\":4330:4355  _grantRole(role, account) */\n      jump\t// in\n    tag_96:\n      pop\n        /* \"@openzeppelin/contracts/access/AccessControl.sol\":4226:4362  function grantRole(bytes32 role, address account) public virtual onlyRole(getRoleAdmin(role)) {... */\n      pop\n      pop\n      pop\n      jump\t// out\n        /* \"@openzeppelin/contracts/access/AccessControl.sol\":5328:5573  function renounceRole(bytes32 role, address callerConfirmation) public virtual {... */\n    tag_40:\n        /* \"@openzeppelin/contracts/access/AccessControl.sol\":5443:5455  _msgSender() */\n      tag_99\n        /* \"@openzeppelin/contracts/access/AccessControl.sol\":5443:5453  _msgSender */\n      tag_100\n        /* \"@openzeppelin/contracts/access/AccessControl.sol\":5443:5455  _msgSender() */\n      jump\t// in\n    tag_99:\n        /* \"@openzeppelin/contracts/access/AccessControl.sol\":5421:5455  callerConfirmation != _msgSender() */\n      0xffffffffffffffffffffffffffffffffffffffff\n      and\n        /* \"@openzeppelin/contracts/access/AccessControl.sol\":5421:5439  callerConfirmation */\n      dup2\n        /* \"@openzeppelin/contracts/access/AccessControl.sol\":5421:5455  callerConfirmation != _msgSender() */\n      0xffffffffffffffffffffffffffffffffffffffff\n      and\n      eq\n        /* \"@openzeppelin/contracts/access/AccessControl.sol\":5417:5519  if (callerConfirmation != _msgSender()) {... */\n      tag_101\n      jumpi\n        /* \"@openzeppelin/contracts/access/AccessControl.sol\":5478:5508  AccessControlBadConfirmation() */\n      mload(0x40)\n      0x6697b23200000000000000000000000000000000000000000000000000000000\n      dup2\n      mstore\n      0x04\n      add\n      mload(0x40)\n      dup1\n      swap2\n      sub\n      swap1\n      revert\n        /* \"@openzeppelin/contracts/access/AccessControl.sol\":5417:5519  if (callerConfirmation != _msgSender()) {... */\n    tag_101:\n        /* \"@openzeppelin/contracts/access/AccessControl.sol\":5529:5566  _revokeRole(role, callerConfirmation) */\n      tag_102\n        /* \"@openzeppelin/contracts/access/AccessControl.sol\":5541:5545  role */\n      dup3\n        /* \"@openzeppelin/contracts/access/AccessControl.sol\":5547:5565  callerConfirmation */\n      dup3\n        /* \"@openzeppelin/contracts/access/AccessControl.sol\":5529:5540  _revokeRole */\n      tag_103\n        /* \"@openzeppelin/contracts/access/AccessControl.sol\":5529:5566  _revokeRole(role, callerConfirmation) */\n      jump\t// in\n    tag_102:\n      pop\n        /* \"@openzeppelin/contracts/access/AccessControl.sol\":5328:5573  function renounceRole(bytes32 role, address callerConfirmation) public virtual {... */\n      pop\n      pop\n      jump\t// out\n        /* \"contracts/token/TokenTransfer.sol\":600:678  bytes32 public constant TRANSFER_ADMIN_ROLE = keccak256(\"TRANSFER_ADMIN_ROLE\") */\n    tag_42:\n        /* \"contracts/token/TokenTransfer.sol\":646:678  keccak256(\"TRANSFER_ADMIN_ROLE\") */\n      0x915327d54f2c758ad33c35b031b5e89868657ea971cda2b8103c502dc672509c\n        /* \"contracts/token/TokenTransfer.sol\":600:678  bytes32 public constant TRANSFER_ADMIN_ROLE = keccak256(\"TRANSFER_ADMIN_ROLE\") */\n      dup2\n      jump\t// out\n        /* \"contracts/token/TokenTransfer.sol\":743:790  mapping(address => bool) public supportedTokens */\n    tag_47:\n      mstore(0x20, 0x02)\n      dup1\n      0x00\n      mstore\n      keccak256(0x00, 0x40)\n      0x00\n      swap2\n      pop\n      sload\n      swap1\n      0x0100\n      exp\n      swap1\n      div\n      0xff\n      and\n      dup2\n      jump\t// out\n        /* \"contracts/token/TokenTransfer.sol\":4731:4890  function addSupportedToken(address token) external onlyRole(TRANSFER_ADMIN_ROLE) {... */\n    tag_51:\n        /* \"contracts/token/TokenTransfer.sol\":646:678  keccak256(\"TRANSFER_ADMIN_ROLE\") */\n      0x915327d54f2c758ad33c35b031b5e89868657ea971cda2b8103c502dc672509c\n        /* \"@openzeppelin/contracts/access/AccessControl.sol\":2464:2480  _checkRole(role) */\n      tag_105\n        /* \"@openzeppelin/contracts/access/AccessControl.sol\":2475:2479  role */\n      dup2\n        /* \"@openzeppelin/contracts/access/AccessControl.sol\":2464:2474  _checkRole */\n      tag_94\n        /* \"@openzeppelin/contracts/access/AccessControl.sol\":2464:2480  _checkRole(role) */\n      jump\t// in\n    tag_105:\n        /* \"contracts/token/TokenTransfer.sol\":4847:4851  true */\n      0x01\n        /* \"contracts/token/TokenTransfer.sol\":4822:4837  supportedTokens */\n      0x02\n        /* \"contracts/token/TokenTransfer.sol\":4822:4844  supportedTokens[token] */\n      0x00\n        /* \"contracts/token/TokenTransfer.sol\":4838:4843  token */\n      dup5\n        /* \"contracts/token/TokenTransfer.sol\":4822:4844  supportedTokens[token] */\n      0xffffffffffffffffffffffffffffffffffffffff\n      and\n      0xffffffffffffffffffffffffffffffffffffffff\n      and\n      dup2\n      mstore\n      0x20\n      add\n      swap1\n      dup2\n      mstore\n      0x20\n      add\n      0x00\n      keccak256\n      0x00\n        /* \"contracts/token/TokenTransfer.sol\":4822:4851  supportedTokens[token] = true */\n      0x0100\n      exp\n      dup2\n      sload\n      dup2\n      0xff\n      mul\n      not\n      and\n      swap1\n      dup4\n      iszero\n      iszero\n      mul\n      or\n      swap1\n      sstore\n      pop\n        /* \"contracts/token/TokenTransfer.sol\":4877:4882  token */\n      dup2\n        /* \"contracts/token/TokenTransfer.sol\":4866:4883  TokenAdded(token) */\n      0xffffffffffffffffffffffffffffffffffffffff\n      and\n      0x784c8f4dbf0ffedd6e72c76501c545a70f8b203b30a26ce542bf92ba87c248a4\n      mload(0x40)\n      mload(0x40)\n      dup1\n      swap2\n      sub\n      swap1\n      log2\n        /* \"contracts/token/TokenTransfer.sol\":4731:4890  function addSupportedToken(address token) external onlyRole(TRANSFER_ADMIN_ROLE) {... */\n      pop\n      pop\n      jump\t// out\n        /* \"contracts/token/TokenTransfer.sol\":5028:5193  function removeSupportedToken(address token) external onlyRole(TRANSFER_ADMIN_ROLE) {... */\n    tag_54:\n        /* \"contracts/token/TokenTransfer.sol\":646:678  keccak256(\"TRANSFER_ADMIN_ROLE\") */\n      0x915327d54f2c758ad33c35b031b5e89868657ea971cda2b8103c502dc672509c\n        /* \"@openzeppelin/contracts/access/AccessControl.sol\":2464:2480  _checkRole(role) */\n      tag_108\n        /* \"@openzeppelin/contracts/access/AccessControl.sol\":2475:2479  role */\n      dup2\n        /* \"@openzeppelin/contracts/access/AccessControl.sol\":2464:2474  _checkRole */\n      tag_94\n        /* \"@openzeppelin/contracts/access/AccessControl.sol\":2464:2480  _checkRole(role) */\n      jump\t// in\n    tag_108:\n        /* \"contracts/token/TokenTransfer.sol\":5147:5152  false */\n      0x00\n        /* \"contracts/token/TokenTransfer.sol\":5122:5137  supportedTokens */\n      0x02\n        /* \"contracts/token/TokenTransfer.sol\":5122:5144  supportedTokens[token] */\n      0x00\n        /* \"contracts/token/TokenTransfer.sol\":5138:5143  token */\n      dup5\n        /* \"contracts/token/TokenTransfer.sol\":5122:5144  supportedTokens[token] */\n      0xffffffffffffffffffffffffffffffffffffffff\n      and\n      0xffffffffffffffffffffffffffffffffffffffff\n      and\n      dup2\n      mstore\n      0x20\n      add\n      swap1\n      dup2\n      mstore\n      0x20\n      add\n      0x00\n      keccak256\n      0x00\n        /* \"contracts/token/TokenTransfer.sol\":5122:5152  supportedTokens[token] = false */\n      0x0100\n      exp\n      dup2\n      sload\n      dup2\n      0xff\n      mul\n      not\n      and\n      swap1\n      dup4\n      iszero\n      iszero\n      mul\n      or\n      swap1\n      sstore\n      pop\n        /* \"contracts/token/TokenTransfer.sol\":5180:5185  token */\n      dup2\n        /* \"contracts/token/TokenTransfer.sol\":5167:5186  TokenRemoved(token) */\n      0xffffffffffffffffffffffffffffffffffffffff\n      and\n      0x4c910b69fe65a61f7531b9c5042b2329ca7179c77290aa7e2eb3afa3c8511fd3\n      mload(0x40)\n      mload(0x40)\n      dup1\n      swap2\n      sub\n      swap1\n      log2\n        /* \"contracts/token/TokenTransfer.sol\":5028:5193  function removeSupportedToken(address token) external onlyRole(TRANSFER_ADMIN_ROLE) {... */\n      pop\n      pop\n      jump\t// out\n        /* \"@openzeppelin/contracts/access/AccessControl.sol\":2854:2990  function hasRole(bytes32 role, address account) public view virtual returns (bool) {... */\n    tag_57:\n        /* \"@openzeppelin/contracts/access/AccessControl.sol\":2931:2935  bool */\n      0x00\n        /* \"@openzeppelin/contracts/access/AccessControl.sol\":2954:2960  _roles */\n      0x01\n        /* \"@openzeppelin/contracts/access/AccessControl.sol\":2954:2966  _roles[role] */\n      0x00\n        /* \"@openzeppelin/contracts/access/AccessControl.sol\":2961:2965  role */\n      dup5\n        /* \"@openzeppelin/contracts/access/AccessControl.sol\":2954:2966  _roles[role] */\n      dup2\n      mstore\n      0x20\n      add\n      swap1\n      dup2\n      mstore\n      0x20\n      add\n      0x00\n      keccak256\n        /* \"@openzeppelin/contracts/access/AccessControl.sol\":2954:2974  _roles[role].hasRole */\n      0x00\n      add\n        /* \"@openzeppelin/contracts/access/AccessControl.sol\":2954:2983  _roles[role].hasRole[account] */\n      0x00\n        /* \"@openzeppelin/contracts/access/AccessControl.sol\":2975:2982  account */\n      dup4\n        /* \"@openzeppelin/contracts/access/AccessControl.sol\":2954:2983  _roles[role].hasRole[account] */\n      0xffffffffffffffffffffffffffffffffffffffff\n      and\n      0xffffffffffffffffffffffffffffffffffffffff\n      and\n      dup2\n      mstore\n      0x20\n      add\n      swap1\n      dup2\n      mstore\n      0x20\n      add\n      0x00\n      keccak256\n      0x00\n      swap1\n      sload\n      swap1\n      0x0100\n      exp\n      swap1\n      div\n      0xff\n      and\n        /* \"@openzeppelin/contracts/access/AccessControl.sol\":2947:2983  return _roles[role].hasRole[account] */\n      swap1\n      pop\n        /* \"@openzeppelin/contracts/access/AccessControl.sol\":2854:2990  function hasRole(bytes32 role, address account) public view virtual returns (bool) {... */\n      swap3\n      swap2\n      pop\n      pop\n      jump\t// out\n        /* \"contracts/token/TokenTransfer.sol\":4443:4599  function allowance(address owner, address spender, address token) external view returns (uint256) {... */\n    tag_62:\n        /* \"contracts/token/TokenTransfer.sol\":4532:4539  uint256 */\n      0x00\n        /* \"contracts/token/TokenTransfer.sol\":4558:4569  _allowances */\n      0x03\n        /* \"contracts/token/TokenTransfer.sol\":4558:4576  _allowances[owner] */\n      0x00\n        /* \"contracts/token/TokenTransfer.sol\":4570:4575  owner */\n      dup6\n        /* \"contracts/token/TokenTransfer.sol\":4558:4576  _allowances[owner] */\n      0xffffffffffffffffffffffffffffffffffffffff\n      and\n      0xffffffffffffffffffffffffffffffffffffffff\n      and\n      dup2\n      mstore\n      0x20\n      add\n      swap1\n      dup2\n      mstore\n      0x20\n      add\n      0x00\n      keccak256\n        /* \"contracts/token/TokenTransfer.sol\":4558:4583  _allowances[owner][token] */\n      0x00\n        /* \"contracts/token/TokenTransfer.sol\":4577:4582  token */\n      dup4\n        /* \"contracts/token/TokenTransfer.sol\":4558:4583  _allowances[owner][token] */\n      0xffffffffffffffffffffffffffffffffffffffff\n      and\n      0xffffffffffffffffffffffffffffffffffffffff\n      and\n      dup2\n      mstore\n      0x20\n      add\n      swap1\n      dup2\n      mstore\n      0x20\n      add\n      0x00\n      keccak256\n        /* \"contracts/token/TokenTransfer.sol\":4558:4592  _allowances[owner][token][spender] */\n      0x00\n        /* \"contracts/token/TokenTransfer.sol\":4584:4591  spender */\n      dup5\n        /* \"contracts/token/TokenTransfer.sol\":4558:4592  _allowances[owner][token][spender] */\n      0xffffffffffffffffffffffffffffffffffffffff\n      and\n      0xffffffffffffffffffffffffffffffffffffffff\n      and\n      dup2\n      mstore\n      0x20\n      add\n      swap1\n      dup2\n      mstore\n      0x20\n      add\n      0x00\n      keccak256\n      sload\n        /* \"contracts/token/TokenTransfer.sol\":4551:4592  return _allowances[owner][token][spender] */\n      swap1\n      pop\n        /* \"contracts/token/TokenTransfer.sol\":4443:4599  function allowance(address owner, address spender, address token) external view returns (uint256) {... */\n      swap4\n      swap3\n      pop\n      pop\n      pop\n      jump\t// out\n        /* \"@openzeppelin/contracts/access/AccessControl.sol\":2187:2236  bytes32 public constant DEFAULT_ADMIN_ROLE = 0x00 */\n    tag_66:\n        /* \"@openzeppelin/contracts/access/AccessControl.sol\":2232:2236  0x00 */\n      0x00\n        /* \"@openzeppelin/contracts/access/AccessControl.sol\":2187:2236  bytes32 public constant DEFAULT_ADMIN_ROLE = 0x00 */\n      dup1\n      shl\n      dup2\n      jump\t// out\n        /* \"contracts/token/TokenTransfer.sol\":3102:3717  function batchTransferToken(address[] calldata to, address token, uint256[] calldata amounts) external nonReentrant {... */\n    tag_71:\n        /* \"@openzeppelin/contracts/utils/ReentrancyGuard.sol\":2356:2377  _nonReentrantBefore() */\n      tag_113\n        /* \"@openzeppelin/contracts/utils/ReentrancyGuard.sol\":2356:2375  _nonReentrantBefore */\n      tag_114\n        /* \"@openzeppelin/contracts/utils/ReentrancyGuard.sol\":2356:2377  _nonReentrantBefore() */\n      jump\t// in\n    tag_113:\n        /* \"contracts/token/TokenTransfer.sol\":3245:3252  amounts */\n      dup2\n      dup2\n        /* \"contracts/token/TokenTransfer.sol\":3245:3259  amounts.length */\n      swap1\n      pop\n        /* \"contracts/token/TokenTransfer.sol\":3232:3234  to */\n      dup6\n      dup6\n        /* \"contracts/token/TokenTransfer.sol\":3232:3241  to.length */\n      swap1\n      pop\n        /* \"contracts/token/TokenTransfer.sol\":3232:3259  to.length != amounts.length */\n      eq\n        /* \"contracts/token/TokenTransfer.sol\":3228:3289  if (to.length != amounts.length) revert InvalidArrayLengths() */\n      tag_116\n      jumpi\n        /* \"contracts/token/TokenTransfer.sol\":3268:3289  InvalidArrayLengths() */\n      mload(0x40)\n      0xa9854bc900000000000000000000000000000000000000000000000000000000\n      dup2\n      mstore\n      0x04\n      add\n      mload(0x40)\n      dup1\n      swap2\n      sub\n      swap1\n      revert\n        /* \"contracts/token/TokenTransfer.sol\":3228:3289  if (to.length != amounts.length) revert InvalidArrayLengths() */\n    tag_116:\n        /* \"contracts/token/TokenTransfer.sol\":3308:3327  uint256 totalAmount */\n      0x00\n        /* \"contracts/token/TokenTransfer.sol\":3346:3355  uint256 i */\n      dup1\n        /* \"contracts/token/TokenTransfer.sol\":3341:3436  for (uint256 i = 0; i < amounts.length; i++) {... */\n    tag_117:\n        /* \"contracts/token/TokenTransfer.sol\":3365:3372  amounts */\n      dup4\n      dup4\n        /* \"contracts/token/TokenTransfer.sol\":3365:3379  amounts.length */\n      swap1\n      pop\n        /* \"contracts/token/TokenTransfer.sol\":3361:3362  i */\n      dup2\n        /* \"contracts/token/TokenTransfer.sol\":3361:3379  i < amounts.length */\n      lt\n        /* \"contracts/token/TokenTransfer.sol\":3341:3436  for (uint256 i = 0; i < amounts.length; i++) {... */\n      iszero\n      tag_118\n      jumpi\n        /* \"contracts/token/TokenTransfer.sol\":3415:3422  amounts */\n      dup4\n      dup4\n        /* \"contracts/token/TokenTransfer.sol\":3423:3424  i */\n      dup3\n        /* \"contracts/token/TokenTransfer.sol\":3415:3425  amounts[i] */\n      dup2\n      dup2\n      lt\n      tag_120\n      jumpi\n      tag_121\n      tag_122\n      jump\t// in\n    tag_121:\n    tag_120:\n      swap1\n      pop\n      0x20\n      mul\n      add\n      calldataload\n        /* \"contracts/token/TokenTransfer.sol\":3400:3425  totalAmount += amounts[i] */\n      dup3\n      tag_123\n      swap2\n      swap1\n      tag_124\n      jump\t// in\n    tag_123:\n      swap2\n      pop\n        /* \"contracts/token/TokenTransfer.sol\":3381:3384  i++ */\n      dup1\n      dup1\n      0x01\n      add\n      swap2\n      pop\n      pop\n        /* \"contracts/token/TokenTransfer.sol\":3341:3436  for (uint256 i = 0; i < amounts.length; i++) {... */\n      jump(tag_117)\n    tag_118:\n      pop\n        /* \"contracts/token/TokenTransfer.sol\":3446:3516  IERC20(token).safeTransferFrom(msg.sender, address(this), totalAmount) */\n      tag_125\n        /* \"contracts/token/TokenTransfer.sol\":3477:3487  msg.sender */\n      caller\n        /* \"contracts/token/TokenTransfer.sol\":3497:3501  this */\n      address\n        /* \"contracts/token/TokenTransfer.sol\":3504:3515  totalAmount */\n      dup4\n        /* \"contracts/token/TokenTransfer.sol\":3453:3458  token */\n      dup8\n        /* \"contracts/token/TokenTransfer.sol\":3446:3476  IERC20(token).safeTransferFrom */\n      0xffffffffffffffffffffffffffffffffffffffff\n      and\n      tag_126\n      swap1\n        /* \"contracts/token/TokenTransfer.sol\":3446:3516  IERC20(token).safeTransferFrom(msg.sender, address(this), totalAmount) */\n      swap4\n      swap3\n      swap2\n      swap1\n      0xffffffff\n      and\n      jump\t// in\n    tag_125:\n        /* \"contracts/token/TokenTransfer.sol\":3532:3541  uint256 i */\n      0x00\n        /* \"contracts/token/TokenTransfer.sol\":3527:3647  for (uint256 i = 0; i < to.length; i++) {... */\n    tag_127:\n        /* \"contracts/token/TokenTransfer.sol\":3551:3553  to */\n      dup7\n      dup7\n        /* \"contracts/token/TokenTransfer.sol\":3551:3560  to.length */\n      swap1\n      pop\n        /* \"contracts/token/TokenTransfer.sol\":3547:3548  i */\n      dup2\n        /* \"contracts/token/TokenTransfer.sol\":3547:3560  i < to.length */\n      lt\n        /* \"contracts/token/TokenTransfer.sol\":3527:3647  for (uint256 i = 0; i < to.length; i++) {... */\n      iszero\n      tag_128\n      jumpi\n        /* \"contracts/token/TokenTransfer.sol\":3581:3636  _transferToken(address(this), to[i], token, amounts[i]) */\n      tag_130\n        /* \"contracts/token/TokenTransfer.sol\":3604:3608  this */\n      address\n        /* \"contracts/token/TokenTransfer.sol\":3611:3613  to */\n      dup9\n      dup9\n        /* \"contracts/token/TokenTransfer.sol\":3614:3615  i */\n      dup5\n        /* \"contracts/token/TokenTransfer.sol\":3611:3616  to[i] */\n      dup2\n      dup2\n      lt\n      tag_131\n      jumpi\n      tag_132\n      tag_122\n      jump\t// in\n    tag_132:\n    tag_131:\n      swap1\n      pop\n      0x20\n      mul\n      add\n      0x20\n      dup2\n      add\n      swap1\n      tag_133\n      swap2\n      swap1\n      tag_46\n      jump\t// in\n    tag_133:\n        /* \"contracts/token/TokenTransfer.sol\":3618:3623  token */\n      dup8\n        /* \"contracts/token/TokenTransfer.sol\":3625:3632  amounts */\n      dup8\n      dup8\n        /* \"contracts/token/TokenTransfer.sol\":3633:3634  i */\n      dup7\n        /* \"contracts/token/TokenTransfer.sol\":3625:3635  amounts[i] */\n      dup2\n      dup2\n      lt\n      tag_134\n      jumpi\n      tag_135\n      tag_122\n      jump\t// in\n    tag_135:\n    tag_134:\n      swap1\n      pop\n      0x20\n      mul\n      add\n      calldataload\n        /* \"contracts/token/TokenTransfer.sol\":3581:3595  _transferToken */\n      tag_136\n        /* \"contracts/token/TokenTransfer.sol\":3581:3636  _transferToken(address(this), to[i], token, amounts[i]) */\n      jump\t// in\n    tag_130:\n        /* \"contracts/token/TokenTransfer.sol\":3562:3565  i++ */\n      dup1\n      dup1\n      0x01\n      add\n      swap2\n      pop\n      pop\n        /* \"contracts/token/TokenTransfer.sol\":3527:3647  for (uint256 i = 0; i < to.length; i++) {... */\n      jump(tag_127)\n    tag_128:\n      pop\n        /* \"contracts/token/TokenTransfer.sol\":3695:3700  token */\n      dup4\n        /* \"contracts/token/TokenTransfer.sol\":3662:3710  BatchTransferred(msg.sender, to, token, amounts) */\n      0xffffffffffffffffffffffffffffffffffffffff\n      and\n        /* \"contracts/token/TokenTransfer.sol\":3679:3689  msg.sender */\n      caller\n        /* \"contracts/token/TokenTransfer.sol\":3662:3710  BatchTransferred(msg.sender, to, token, amounts) */\n      0xffffffffffffffffffffffffffffffffffffffff\n      and\n      0x6f48f5cfe672b48c8d014ecf4ecb7cdd8a66519dc4e331f0c7e95f1f2183a810\n        /* \"contracts/token/TokenTransfer.sol\":3691:3693  to */\n      dup9\n      dup9\n        /* \"contracts/token/TokenTransfer.sol\":3702:3709  amounts */\n      dup8\n      dup8\n        /* \"contracts/token/TokenTransfer.sol\":3662:3710  BatchTransferred(msg.sender, to, token, amounts) */\n      mload(0x40)\n      tag_137\n      swap5\n      swap4\n      swap3\n      swap2\n      swap1\n      tag_138\n      jump\t// in\n    tag_137:\n      mload(0x40)\n      dup1\n      swap2\n      sub\n      swap1\n      log3\n        /* \"contracts/token/TokenTransfer.sol\":3218:3717  {... */\n      pop\n        /* \"@openzeppelin/contracts/utils/ReentrancyGuard.sol\":2398:2418  _nonReentrantAfter() */\n      tag_139\n        /* \"@openzeppelin/contracts/utils/ReentrancyGuard.sol\":2398:2416  _nonReentrantAfter */\n      tag_140\n        /* \"@openzeppelin/contracts/utils/ReentrancyGuard.sol\":2398:2418  _nonReentrantAfter() */\n      jump\t// in\n    tag_139:\n        /* \"contracts/token/TokenTransfer.sol\":3102:3717  function batchTransferToken(address[] calldata to, address token, uint256[] calldata amounts) external nonReentrant {... */\n      pop\n      pop\n      pop\n      pop\n      pop\n      jump\t// out\n        /* \"@openzeppelin/contracts/access/AccessControl.sol\":4642:4780  function revokeRole(bytes32 role, address account) public virtual onlyRole(getRoleAdmin(role)) {... */\n    tag_74:\n        /* \"@openzeppelin/contracts/access/AccessControl.sol\":4717:4735  getRoleAdmin(role) */\n      tag_141\n        /* \"@openzeppelin/contracts/access/AccessControl.sol\":4730:4734  role */\n      dup3\n        /* \"@openzeppelin/contracts/access/AccessControl.sol\":4717:4729  getRoleAdmin */\n      tag_31\n        /* \"@openzeppelin/contracts/access/AccessControl.sol\":4717:4735  getRoleAdmin(role) */\n      jump\t// in\n    tag_141:\n        /* \"@openzeppelin/contracts/access/AccessControl.sol\":2464:2480  _checkRole(role) */\n      tag_143\n        /* \"@openzeppelin/contracts/access/AccessControl.sol\":2475:2479  role */\n      dup2\n        /* \"@openzeppelin/contracts/access/AccessControl.sol\":2464:2474  _checkRole */\n      tag_94\n        /* \"@openzeppelin/contracts/access/AccessControl.sol\":2464:2480  _checkRole(role) */\n      jump\t// in\n    tag_143:\n        /* \"@openzeppelin/contracts/access/AccessControl.sol\":4747:4773  _revokeRole(role, account) */\n      tag_145\n        /* \"@openzeppelin/contracts/access/AccessControl.sol\":4759:4763  role */\n      dup4\n        /* \"@openzeppelin/contracts/access/AccessControl.sol\":4765:4772  account */\n      dup4\n        /* \"@openzeppelin/contracts/access/AccessControl.sol\":4747:4758  _revokeRole */\n      tag_103\n        /* \"@openzeppelin/contracts/access/AccessControl.sol\":4747:4773  _revokeRole(role, account) */\n      jump\t// in\n    tag_145:\n      pop\n        /* \"@openzeppelin/contracts/access/AccessControl.sol\":4642:4780  function revokeRole(bytes32 role, address account) public virtual onlyRole(getRoleAdmin(role)) {... */\n      pop\n      pop\n      pop\n      jump\t// out\n        /* \"contracts/token/TokenTransfer.sol\":3978:4185  function setAllowance(address spender, address token, uint256 amount) external {... */\n    tag_78:\n        /* \"contracts/token/TokenTransfer.sol\":4109:4115  amount */\n      dup1\n        /* \"contracts/token/TokenTransfer.sol\":4067:4078  _allowances */\n      0x03\n        /* \"contracts/token/TokenTransfer.sol\":4067:4090  _allowances[msg.sender] */\n      0x00\n        /* \"contracts/token/TokenTransfer.sol\":4079:4089  msg.sender */\n      caller\n        /* \"contracts/token/TokenTransfer.sol\":4067:4090  _allowances[msg.sender] */\n      0xffffffffffffffffffffffffffffffffffffffff\n      and\n      0xffffffffffffffffffffffffffffffffffffffff\n      and\n      dup2\n      mstore\n      0x20\n      add\n      swap1\n      dup2\n      mstore\n      0x20\n      add\n      0x00\n      keccak256\n        /* \"contracts/token/TokenTransfer.sol\":4067:4097  _allowances[msg.sender][token] */\n      0x00\n        /* \"contracts/token/TokenTransfer.sol\":4091:4096  token */\n      dup5\n        /* \"contracts/token/TokenTransfer.sol\":4067:4097  _allowances[msg.sender][token] */\n      0xffffffffffffffffffffffffffffffffffffffff\n      and\n      0xffffffffffffffffffffffffffffffffffffffff\n      and\n      dup2\n      mstore\n      0x20\n      add\n      swap1\n      dup2\n      mstore\n      0x20\n      add\n      0x00\n      keccak256\n        /* \"contracts/token/TokenTransfer.sol\":4067:4106  _allowances[msg.sender][token][spender] */\n      0x00\n        /* \"contracts/token/TokenTransfer.sol\":4098:4105  spender */\n      dup6\n        /* \"contracts/token/TokenTransfer.sol\":4067:4106  _allowances[msg.sender][token][spender] */\n      0xffffffffffffffffffffffffffffffffffffffff\n      and\n      0xffffffffffffffffffffffffffffffffffffffff\n      and\n      dup2\n      mstore\n      0x20\n      add\n      swap1\n      dup2\n      mstore\n      0x20\n      add\n      0x00\n      keccak256\n        /* \"contracts/token/TokenTransfer.sol\":4067:4115  _allowances[msg.sender][token][spender] = amount */\n      dup2\n      swap1\n      sstore\n      pop\n        /* \"contracts/token/TokenTransfer.sol\":4164:4169  token */\n      dup2\n        /* \"contracts/token/TokenTransfer.sol\":4130:4178  AllowanceSet(msg.sender, spender, token, amount) */\n      0xffffffffffffffffffffffffffffffffffffffff\n      and\n        /* \"contracts/token/TokenTransfer.sol\":4155:4162  spender */\n      dup4\n        /* \"contracts/token/TokenTransfer.sol\":4130:4178  AllowanceSet(msg.sender, spender, token, amount) */\n      0xffffffffffffffffffffffffffffffffffffffff\n      and\n        /* \"contracts/token/TokenTransfer.sol\":4143:4153  msg.sender */\n      caller\n        /* \"contracts/token/TokenTransfer.sol\":4130:4178  AllowanceSet(msg.sender, spender, token, amount) */\n      0xffffffffffffffffffffffffffffffffffffffff\n      and\n      0x8a35f50fa7149c607bf92648069a0d9593c88f1e12f1abd0a0481a4a959b0681\n        /* \"contracts/token/TokenTransfer.sol\":4171:4177  amount */\n      dup5\n        /* \"contracts/token/TokenTransfer.sol\":4130:4178  AllowanceSet(msg.sender, spender, token, amount) */\n      mload(0x40)\n      tag_147\n      swap2\n      swap1\n      tag_64\n      jump\t// in\n    tag_147:\n      mload(0x40)\n      dup1\n      swap2\n      sub\n      swap1\n      log4\n        /* \"contracts/token/TokenTransfer.sol\":3978:4185  function setAllowance(address spender, address token, uint256 amount) external {... */\n      pop\n      pop\n      pop\n      jump\t// out\n        /* \"contracts/token/TokenTransfer.sol\":2406:2893  function transferTokenFrom(address from, address to, address token, uint256 amount) external nonReentrant {... */\n    tag_82:\n        /* \"@openzeppelin/contracts/utils/ReentrancyGuard.sol\":2356:2377  _nonReentrantBefore() */\n      tag_149\n        /* \"@openzeppelin/contracts/utils/ReentrancyGuard.sol\":2356:2375  _nonReentrantBefore */\n      tag_114\n        /* \"@openzeppelin/contracts/utils/ReentrancyGuard.sol\":2356:2377  _nonReentrantBefore() */\n      jump\t// in\n    tag_149:\n        /* \"contracts/token/TokenTransfer.sol\":2522:2546  uint256 currentAllowance */\n      0x00\n        /* \"contracts/token/TokenTransfer.sol\":2549:2560  _allowances */\n      0x03\n        /* \"contracts/token/TokenTransfer.sol\":2549:2566  _allowances[from] */\n      0x00\n        /* \"contracts/token/TokenTransfer.sol\":2561:2565  from */\n      dup7\n        /* \"contracts/token/TokenTransfer.sol\":2549:2566  _allowances[from] */\n      0xffffffffffffffffffffffffffffffffffffffff\n      and\n      0xffffffffffffffffffffffffffffffffffffffff\n      and\n      dup2\n      mstore\n      0x20\n      add\n      swap1\n      dup2\n      mstore\n      0x20\n      add\n      0x00\n      keccak256\n        /* \"contracts/token/TokenTransfer.sol\":2549:2573  _allowances[from][token] */\n      0x00\n        /* \"contracts/token/TokenTransfer.sol\":2567:2572  token */\n      dup5\n        /* \"contracts/token/TokenTransfer.sol\":2549:2573  _allowances[from][token] */\n      0xffffffffffffffffffffffffffffffffffffffff\n      and\n      0xffffffffffffffffffffffffffffffffffffffff\n      and\n      dup2\n      mstore\n      0x20\n      add\n      swap1\n      dup2\n      mstore\n      0x20\n      add\n      0x00\n      keccak256\n        /* \"contracts/token/TokenTransfer.sol\":2549:2585  _allowances[from][token][msg.sender] */\n      0x00\n        /* \"contracts/token/TokenTransfer.sol\":2574:2584  msg.sender */\n      caller\n        /* \"contracts/token/TokenTransfer.sol\":2549:2585  _allowances[from][token][msg.sender] */\n      0xffffffffffffffffffffffffffffffffffffffff\n      and\n      0xffffffffffffffffffffffffffffffffffffffff\n      and\n      dup2\n      mstore\n      0x20\n      add\n      swap1\n      dup2\n      mstore\n      0x20\n      add\n      0x00\n      keccak256\n      sload\n        /* \"contracts/token/TokenTransfer.sol\":2522:2585  uint256 currentAllowance = _allowances[from][token][msg.sender] */\n      swap1\n      pop\n        /* \"contracts/token/TokenTransfer.sol\":2618:2624  amount */\n      dup2\n        /* \"contracts/token/TokenTransfer.sol\":2599:2615  currentAllowance */\n      dup2\n        /* \"contracts/token/TokenTransfer.sol\":2599:2624  currentAllowance < amount */\n      lt\n        /* \"contracts/token/TokenTransfer.sol\":2595:2730  if (currentAllowance < amount) {... */\n      iszero\n      tag_151\n      jumpi\n        /* \"contracts/token/TokenTransfer.sol\":2669:2673  from */\n      dup5\n        /* \"contracts/token/TokenTransfer.sol\":2675:2685  msg.sender */\n      caller\n        /* \"contracts/token/TokenTransfer.sol\":2687:2692  token */\n      dup5\n        /* \"contracts/token/TokenTransfer.sol\":2694:2700  amount */\n      dup5\n        /* \"contracts/token/TokenTransfer.sol\":2702:2718  currentAllowance */\n      dup5\n        /* \"contracts/token/TokenTransfer.sol\":2647:2719  InsufficientAllowance(from, msg.sender, token, amount, currentAllowance) */\n      mload(0x40)\n      0x51750bc700000000000000000000000000000000000000000000000000000000\n      dup2\n      mstore\n      0x04\n      add\n      tag_152\n      swap6\n      swap5\n      swap4\n      swap3\n      swap2\n      swap1\n      tag_153\n      jump\t// in\n    tag_152:\n      mload(0x40)\n      dup1\n      swap2\n      sub\n      swap1\n      revert\n        /* \"contracts/token/TokenTransfer.sol\":2595:2730  if (currentAllowance < amount) {... */\n    tag_151:\n        /* \"contracts/token/TokenTransfer.sol\":2821:2827  amount */\n      dup2\n        /* \"contracts/token/TokenTransfer.sol\":2802:2818  currentAllowance */\n      dup2\n        /* \"contracts/token/TokenTransfer.sol\":2802:2827  currentAllowance - amount */\n      sub\n        /* \"contracts/token/TokenTransfer.sol\":2763:2774  _allowances */\n      0x03\n        /* \"contracts/token/TokenTransfer.sol\":2763:2780  _allowances[from] */\n      0x00\n        /* \"contracts/token/TokenTransfer.sol\":2775:2779  from */\n      dup8\n        /* \"contracts/token/TokenTransfer.sol\":2763:2780  _allowances[from] */\n      0xffffffffffffffffffffffffffffffffffffffff\n      and\n      0xffffffffffffffffffffffffffffffffffffffff\n      and\n      dup2\n      mstore\n      0x20\n      add\n      swap1\n      dup2\n      mstore\n      0x20\n      add\n      0x00\n      keccak256\n        /* \"contracts/token/TokenTransfer.sol\":2763:2787  _allowances[from][token] */\n      0x00\n        /* \"contracts/token/TokenTransfer.sol\":2781:2786  token */\n      dup6\n        /* \"contracts/token/TokenTransfer.sol\":2763:2787  _allowances[from][token] */\n      0xffffffffffffffffffffffffffffffffffffffff\n      and\n      0xffffffffffffffffffffffffffffffffffffffff\n      and\n      dup2\n      mstore\n      0x20\n      add\n      swap1\n      dup2\n      mstore\n      0x20\n      add\n      0x00\n      keccak256\n        /* \"contracts/token/TokenTransfer.sol\":2763:2799  _allowances[from][token][msg.sender] */\n      0x00\n        /* \"contracts/token/TokenTransfer.sol\":2788:2798  msg.sender */\n      caller\n        /* \"contracts/token/TokenTransfer.sol\":2763:2799  _allowances[from][token][msg.sender] */\n      0xffffffffffffffffffffffffffffffffffffffff\n      and\n      0xffffffffffffffffffffffffffffffffffffffff\n      and\n      dup2\n      mstore\n      0x20\n      add\n      swap1\n      dup2\n      mstore\n      0x20\n      add\n      0x00\n      keccak256\n        /* \"contracts/token/TokenTransfer.sol\":2763:2827  _allowances[from][token][msg.sender] = currentAllowance - amount */\n      dup2\n      swap1\n      sstore\n      pop\n        /* \"contracts/token/TokenTransfer.sol\":2847:2886  _transferToken(from, to, token, amount) */\n      tag_154\n        /* \"contracts/token/TokenTransfer.sol\":2862:2866  from */\n      dup6\n        /* \"contracts/token/TokenTransfer.sol\":2868:2870  to */\n      dup6\n        /* \"contracts/token/TokenTransfer.sol\":2872:2877  token */\n      dup6\n        /* \"contracts/token/TokenTransfer.sol\":2879:2885  amount */\n      dup6\n        /* \"contracts/token/TokenTransfer.sol\":2847:2861  _transferToken */\n      tag_136\n        /* \"contracts/token/TokenTransfer.sol\":2847:2886  _transferToken(from, to, token, amount) */\n      jump\t// in\n    tag_154:\n        /* \"contracts/token/TokenTransfer.sol\":2512:2893  {... */\n      pop\n        /* \"@openzeppelin/contracts/utils/ReentrancyGuard.sol\":2398:2418  _nonReentrantAfter() */\n      tag_155\n        /* \"@openzeppelin/contracts/utils/ReentrancyGuard.sol\":2398:2416  _nonReentrantAfter */\n      tag_140\n        /* \"@openzeppelin/contracts/utils/ReentrancyGuard.sol\":2398:2418  _nonReentrantAfter() */\n      jump\t// in\n    tag_155:\n        /* \"contracts/token/TokenTransfer.sol\":2406:2893  function transferTokenFrom(address from, address to, address token, uint256 amount) external nonReentrant {... */\n      pop\n      pop\n      pop\n      pop\n      jump\t// out\n        /* \"contracts/token/TokenTransfer.sol\":1988:2138  function transferToken(address to, address token, uint256 amount) external nonReentrant {... */\n    tag_85:\n        /* \"@openzeppelin/contracts/utils/ReentrancyGuard.sol\":2356:2377  _nonReentrantBefore() */\n      tag_157\n        /* \"@openzeppelin/contracts/utils/ReentrancyGuard.sol\":2356:2375  _nonReentrantBefore */\n      tag_114\n        /* \"@openzeppelin/contracts/utils/ReentrancyGuard.sol\":2356:2377  _nonReentrantBefore() */\n      jump\t// in\n    tag_157:\n        /* \"contracts/token/TokenTransfer.sol\":2086:2131  _transferToken(msg.sender, to, token, amount) */\n      tag_159\n        /* \"contracts/token/TokenTransfer.sol\":2101:2111  msg.sender */\n      caller\n        /* \"contracts/token/TokenTransfer.sol\":2113:2115  to */\n      dup5\n        /* \"contracts/token/TokenTransfer.sol\":2117:2122  token */\n      dup5\n        /* \"contracts/token/TokenTransfer.sol\":2124:2130  amount */\n      dup5\n        /* \"contracts/token/TokenTransfer.sol\":2086:2100  _transferToken */\n      tag_136\n        /* \"contracts/token/TokenTransfer.sol\":2086:2131  _transferToken(msg.sender, to, token, amount) */\n      jump\t// in\n    tag_159:\n        /* \"@openzeppelin/contracts/utils/ReentrancyGuard.sol\":2398:2418  _nonReentrantAfter() */\n      tag_160\n        /* \"@openzeppelin/contracts/utils/ReentrancyGuard.sol\":2398:2416  _nonReentrantAfter */\n      tag_140\n        /* \"@openzeppelin/contracts/utils/ReentrancyGuard.sol\":2398:2418  _nonReentrantAfter() */\n      jump\t// in\n    tag_160:\n        /* \"contracts/token/TokenTransfer.sol\":1988:2138  function transferToken(address to, address token, uint256 amount) external nonReentrant {... */\n      pop\n      pop\n      pop\n      jump\t// out\n        /* \"@openzeppelin/contracts/utils/introspection/ERC165.sol\":762:908  function supportsInterface(bytes4 interfaceId) public view virtual returns (bool) {... */\n    tag_89:\n        /* \"@openzeppelin/contracts/utils/introspection/ERC165.sol\":838:842  bool */\n      0x00\n        /* \"@openzeppelin/contracts/utils/introspection/ERC165.sol\":876:901  type(IERC165).interfaceId */\n      0x01ffc9a700000000000000000000000000000000000000000000000000000000\n        /* \"@openzeppelin/contracts/utils/introspection/ERC165.sol\":861:901  interfaceId == type(IERC165).interfaceId */\n      not(0xffffffffffffffffffffffffffffffffffffffffffffffffffffffff)\n      and\n        /* \"@openzeppelin/contracts/utils/introspection/ERC165.sol\":861:872  interfaceId */\n      dup3\n        /* \"@openzeppelin/contracts/utils/introspection/ERC165.sol\":861:901  interfaceId == type(IERC165).interfaceId */\n      not(0xffffffffffffffffffffffffffffffffffffffffffffffffffffffff)\n      and\n      eq\n        /* \"@openzeppelin/contracts/utils/introspection/ERC165.sol\":854:901  return interfaceId == type(IERC165).interfaceId */\n      swap1\n      pop\n        /* \"@openzeppelin/contracts/utils/introspection/ERC165.sol\":762:908  function supportsInterface(bytes4 interfaceId) public view virtual returns (bool) {... */\n      swap2\n      swap1\n      pop\n      jump\t// out\n        /* \"@openzeppelin/contracts/access/AccessControl.sol\":3199:3302  function _checkRole(bytes32 role) internal view virtual {... */\n    tag_94:\n        /* \"@openzeppelin/contracts/access/AccessControl.sol\":3265:3295  _checkRole(role, _msgSender()) */\n      tag_163\n        /* \"@openzeppelin/contracts/access/AccessControl.sol\":3276:3280  role */\n      dup2\n        /* \"@openzeppelin/contracts/access/AccessControl.sol\":3282:3294  _msgSender() */\n      tag_164\n        /* \"@openzeppelin/contracts/access/AccessControl.sol\":3282:3292  _msgSender */\n      tag_100\n        /* \"@openzeppelin/contracts/access/AccessControl.sol\":3282:3294  _msgSender() */\n      jump\t// in\n    tag_164:\n        /* \"@openzeppelin/contracts/access/AccessControl.sol\":3265:3275  _checkRole */\n      tag_165\n        /* \"@openzeppelin/contracts/access/AccessControl.sol\":3265:3295  _checkRole(role, _msgSender()) */\n      jump\t// in\n    tag_163:\n        /* \"@openzeppelin/contracts/access/AccessControl.sol\":3199:3302  function _checkRole(bytes32 role) internal view virtual {... */\n      pop\n      jump\t// out\n        /* \"@openzeppelin/contracts/access/AccessControl.sol\":6179:6495  function _grantRole(bytes32 role, address account) internal virtual returns (bool) {... */\n    tag_97:\n        /* \"@openzeppelin/contracts/access/AccessControl.sol\":6256:6260  bool */\n      0x00\n        /* \"@openzeppelin/contracts/access/AccessControl.sol\":6277:6299  hasRole(role, account) */\n      tag_167\n        /* \"@openzeppelin/contracts/access/AccessControl.sol\":6285:6289  role */\n      dup4\n        /* \"@openzeppelin/contracts/access/AccessControl.sol\":6291:6298  account */\n      dup4\n        /* \"@openzeppelin/contracts/access/AccessControl.sol\":6277:6284  hasRole */\n      tag_57\n        /* \"@openzeppelin/contracts/access/AccessControl.sol\":6277:6299  hasRole(role, account) */\n      jump\t// in\n    tag_167:\n        /* \"@openzeppelin/contracts/access/AccessControl.sol\":6272:6489  if (!hasRole(role, account)) {... */\n      tag_168\n      jumpi\n        /* \"@openzeppelin/contracts/access/AccessControl.sol\":6347:6351  true */\n      0x01\n        /* \"@openzeppelin/contracts/access/AccessControl.sol\":6315:6321  _roles */\n      dup1\n        /* \"@openzeppelin/contracts/access/AccessControl.sol\":6315:6327  _roles[role] */\n      0x00\n        /* \"@openzeppelin/contracts/access/AccessControl.sol\":6322:6326  role */\n      dup6\n        /* \"@openzeppelin/contracts/access/AccessControl.sol\":6315:6327  _roles[role] */\n      dup2\n      mstore\n      0x20\n      add\n      swap1\n      dup2\n      mstore\n      0x20\n      add\n      0x00\n      keccak256\n        /* \"@openzeppelin/contracts/access/AccessControl.sol\":6315:6335  _roles[role].hasRole */\n      0x00\n      add\n        /* \"@openzeppelin/contracts/access/AccessControl.sol\":6315:6344  _roles[role].hasRole[account] */\n      0x00\n        /* \"@openzeppelin/contracts/access/AccessControl.sol\":6336:6343  account */\n      dup5\n        /* \"@openzeppelin/contracts/access/AccessControl.sol\":6315:6344  _roles[role].hasRole[account] */\n      0xffffffffffffffffffffffffffffffffffffffff\n      and\n      0xffffffffffffffffffffffffffffffffffffffff\n      and\n      dup2\n      mstore\n      0x20\n      add\n      swap1\n      dup2\n      mstore\n      0x20\n      add\n      0x00\n      keccak256\n      0x00\n        /* \"@openzeppelin/contracts/access/AccessControl.sol\":6315:6351  _roles[role].hasRole[account] = true */\n      0x0100\n      exp\n      dup2\n      sload\n      dup2\n      0xff\n      mul\n      not\n      and\n      swap1\n      dup4\n      iszero\n      iszero\n      mul\n      or\n      swap1\n      sstore\n      pop\n        /* \"@openzeppelin/contracts/access/AccessControl.sol\":6397:6409  _msgSender() */\n      tag_169\n        /* \"@openzeppelin/contracts/access/AccessControl.sol\":6397:6407  _msgSender */\n      tag_100\n        /* \"@openzeppelin/contracts/access/AccessControl.sol\":6397:6409  _msgSender() */\n      jump\t// in\n    tag_169:\n        /* \"@openzeppelin/contracts/access/AccessControl.sol\":6370:6410  RoleGranted(role, account, _msgSender()) */\n      0xffffffffffffffffffffffffffffffffffffffff\n      and\n        /* \"@openzeppelin/contracts/access/AccessControl.sol\":6388:6395  account */\n      dup3\n        /* \"@openzeppelin/contracts/access/AccessControl.sol\":6370:6410  RoleGranted(role, account, _msgSender()) */\n      0xffffffffffffffffffffffffffffffffffffffff\n      and\n        /* \"@openzeppelin/contracts/access/AccessControl.sol\":6382:6386  role */\n      dup5\n        /* \"@openzeppelin/contracts/access/AccessControl.sol\":6370:6410  RoleGranted(role, account, _msgSender()) */\n      0x2f8788117e7eff1d82e926ec794901d17c78024a50270940304540a733656f0d\n      mload(0x40)\n      mload(0x40)\n      dup1\n      swap2\n      sub\n      swap1\n      log4\n        /* \"@openzeppelin/contracts/access/AccessControl.sol\":6431:6435  true */\n      0x01\n        /* \"@openzeppelin/contracts/access/AccessControl.sol\":6424:6435  return true */\n      swap1\n      pop\n      jump(tag_166)\n        /* \"@openzeppelin/contracts/access/AccessControl.sol\":6272:6489  if (!hasRole(role, account)) {... */\n    tag_168:\n        /* \"@openzeppelin/contracts/access/AccessControl.sol\":6473:6478  false */\n      0x00\n        /* \"@openzeppelin/contracts/access/AccessControl.sol\":6466:6478  return false */\n      swap1\n      pop\n        /* \"@openzeppelin/contracts/access/AccessControl.sol\":6179:6495  function _grantRole(bytes32 role, address account) internal virtual returns (bool) {... */\n    tag_166:\n      swap3\n      swap2\n      pop\n      pop\n      jump\t// out\n        /* \"@openzeppelin/contracts/utils/Context.sol\":656:752  function _msgSender() internal view virtual returns (address) {... */\n    tag_100:\n        /* \"@openzeppelin/contracts/utils/Context.sol\":709:716  address */\n      0x00\n        /* \"@openzeppelin/contracts/utils/Context.sol\":735:745  msg.sender */\n      caller\n        /* \"@openzeppelin/contracts/utils/Context.sol\":728:745  return msg.sender */\n      swap1\n      pop\n        /* \"@openzeppelin/contracts/utils/Context.sol\":656:752  function _msgSender() internal view virtual returns (address) {... */\n      swap1\n      jump\t// out\n        /* \"@openzeppelin/contracts/access/AccessControl.sol\":6730:7047  function _revokeRole(bytes32 role, address account) internal virtual returns (bool) {... */\n    tag_103:\n        /* \"@openzeppelin/contracts/access/AccessControl.sol\":6808:6812  bool */\n      0x00\n        /* \"@openzeppelin/contracts/access/AccessControl.sol\":6828:6850  hasRole(role, account) */\n      tag_173\n        /* \"@openzeppelin/contracts/access/AccessControl.sol\":6836:6840  role */\n      dup4\n        /* \"@openzeppelin/contracts/access/AccessControl.sol\":6842:6849  account */\n      dup4\n        /* \"@openzeppelin/contracts/access/AccessControl.sol\":6828:6835  hasRole */\n      tag_57\n        /* \"@openzeppelin/contracts/access/AccessControl.sol\":6828:6850  hasRole(role, account) */\n      jump\t// in\n    tag_173:\n        /* \"@openzeppelin/contracts/access/AccessControl.sol\":6824:7041  if (hasRole(role, account)) {... */\n      iszero\n      tag_174\n      jumpi\n        /* \"@openzeppelin/contracts/access/AccessControl.sol\":6898:6903  false */\n      0x00\n        /* \"@openzeppelin/contracts/access/AccessControl.sol\":6866:6872  _roles */\n      0x01\n        /* \"@openzeppelin/contracts/access/AccessControl.sol\":6866:6878  _roles[role] */\n      0x00\n        /* \"@openzeppelin/contracts/access/AccessControl.sol\":6873:6877  role */\n      dup6\n        /* \"@openzeppelin/contracts/access/AccessControl.sol\":6866:6878  _roles[role] */\n      dup2\n      mstore\n      0x20\n      add\n      swap1\n      dup2\n      mstore\n      0x20\n      add\n      0x00\n      keccak256\n        /* \"@openzeppelin/contracts/access/AccessControl.sol\":6866:6886  _roles[role].hasRole */\n      0x00\n      add\n        /* \"@openzeppelin/contracts/access/AccessControl.sol\":6866:6895  _roles[role].hasRole[account] */\n      0x00\n        /* \"@openzeppelin/contracts/access/AccessControl.sol\":6887:6894  account */\n      dup5\n        /* \"@openzeppelin/contracts/access/AccessControl.sol\":6866:6895  _roles[role].hasRole[account] */\n      0xffffffffffffffffffffffffffffffffffffffff\n      and\n      0xffffffffffffffffffffffffffffffffffffffff\n      and\n      dup2\n      mstore\n      0x20\n      add\n      swap1\n      dup2\n      mstore\n      0x20\n      add\n      0x00\n      keccak256\n      0x00\n        /* \"@openzeppelin/contracts/access/AccessControl.sol\":6866:6903  _roles[role].hasRole[account] = false */\n      0x0100\n      exp\n      dup2\n      sload\n      dup2\n      0xff\n      mul\n      not\n      and\n      swap1\n      dup4\n      iszero\n      iszero\n      mul\n      or\n      swap1\n      sstore\n      pop\n        /* \"@openzeppelin/contracts/access/AccessControl.sol\":6949:6961  _msgSender() */\n      tag_175\n        /* \"@openzeppelin/contracts/access/AccessControl.sol\":6949:6959  _msgSender */\n      tag_100\n        /* \"@openzeppelin/contracts/access/AccessControl.sol\":6949:6961  _msgSender() */\n      jump\t// in\n    tag_175:\n        /* \"@openzeppelin/contracts/access/AccessControl.sol\":6922:6962  RoleRevoked(role, account, _msgSender()) */\n      0xffffffffffffffffffffffffffffffffffffffff\n      and\n        /* \"@openzeppelin/contracts/access/AccessControl.sol\":6940:6947  account */\n      dup3\n        /* \"@openzeppelin/contracts/access/AccessControl.sol\":6922:6962  RoleRevoked(role, account, _msgSender()) */\n      0xffffffffffffffffffffffffffffffffffffffff\n      and\n        /* \"@openzeppelin/contracts/access/AccessControl.sol\":6934:6938  role */\n      dup5\n        /* \"@openzeppelin/contracts/access/AccessControl.sol\":6922:6962  RoleRevoked(role, account, _msgSender()) */\n      0xf6391f5c32d9c69d2a47ea670b442974b53935d1edc7fd64eb21e047a839171b\n      mload(0x40)\n      mload(0x40)\n      dup1\n      swap2\n      sub\n      swap1\n      log4\n        /* \"@openzeppelin/contracts/access/AccessControl.sol\":6983:6987  true */\n      0x01\n        /* \"@openzeppelin/contracts/access/AccessControl.sol\":6976:6987  return true */\n      swap1\n      pop\n      jump(tag_172)\n        /* \"@openzeppelin/contracts/access/AccessControl.sol\":6824:7041  if (hasRole(role, account)) {... */\n    tag_174:\n        /* \"@openzeppelin/contracts/access/AccessControl.sol\":7025:7030  false */\n      0x00\n        /* \"@openzeppelin/contracts/access/AccessControl.sol\":7018:7030  return false */\n      swap1\n      pop\n        /* \"@openzeppelin/contracts/access/AccessControl.sol\":6730:7047  function _revokeRole(bytes32 role, address account) internal virtual returns (bool) {... */\n    tag_172:\n      swap3\n      swap2\n      pop\n      pop\n      jump\t// out\n        /* \"@openzeppelin/contracts/utils/ReentrancyGuard.sol\":2431:2738  function _nonReentrantBefore() private {... */\n    tag_114:\n        /* \"@openzeppelin/contracts/utils/ReentrancyGuard.sol\":1755:1756  2 */\n      0x02\n        /* \"@openzeppelin/contracts/utils/ReentrancyGuard.sol\":2558:2565  _status */\n      sload(0x00)\n        /* \"@openzeppelin/contracts/utils/ReentrancyGuard.sol\":2558:2576  _status == ENTERED */\n      sub\n        /* \"@openzeppelin/contracts/utils/ReentrancyGuard.sol\":2554:2640  if (_status == ENTERED) {... */\n      tag_178\n      jumpi\n        /* \"@openzeppelin/contracts/utils/ReentrancyGuard.sol\":2599:2629  ReentrancyGuardReentrantCall() */\n      mload(0x40)\n      0x3ee5aeb500000000000000000000000000000000000000000000000000000000\n      dup2\n      mstore\n      0x04\n      add\n      mload(0x40)\n      dup1\n      swap2\n      sub\n      swap1\n      revert\n        /* \"@openzeppelin/contracts/utils/ReentrancyGuard.sol\":2554:2640  if (_status == ENTERED) {... */\n    tag_178:\n        /* \"@openzeppelin/contracts/utils/ReentrancyGuard.sol\":1755:1756  2 */\n      0x02\n        /* \"@openzeppelin/contracts/utils/ReentrancyGuard.sol\":2714:2721  _status */\n      0x00\n        /* \"@openzeppelin/contracts/utils/ReentrancyGuard.sol\":2714:2731  _status = ENTERED */\n      dup2\n      swap1\n      sstore\n      pop\n        /* \"@openzeppelin/contracts/utils/ReentrancyGuard.sol\":2431:2738  function _nonReentrantBefore() private {... */\n      jump\t// out\n        /* \"@openzeppelin/contracts/token/ERC20/utils/SafeERC20.sol\":1702:1890  function safeTransferFrom(IERC20 token, address from, address to, uint256 value) internal {... */\n    tag_126:\n        /* \"@openzeppelin/contracts/token/ERC20/utils/SafeERC20.sol\":1802:1883  _callOptionalReturn(token, abi.encodeCall(token.transferFrom, (from, to, value))) */\n      tag_180\n        /* \"@openzeppelin/contracts/token/ERC20/utils/SafeERC20.sol\":1822:1827  token */\n      dup5\n        /* \"@openzeppelin/contracts/token/ERC20/utils/SafeERC20.sol\":1844:1849  token */\n      dup6\n        /* \"@openzeppelin/contracts/token/ERC20/utils/SafeERC20.sol\":1844:1862  token.transferFrom */\n      0xffffffffffffffffffffffffffffffffffffffff\n      and\n      0x23b872dd\n        /* \"@openzeppelin/contracts/token/ERC20/utils/SafeERC20.sol\":1865:1869  from */\n      dup7\n        /* \"@openzeppelin/contracts/token/ERC20/utils/SafeERC20.sol\":1871:1873  to */\n      dup7\n        /* \"@openzeppelin/contracts/token/ERC20/utils/SafeERC20.sol\":1875:1880  value */\n      dup7\n        /* \"@openzeppelin/contracts/token/ERC20/utils/SafeERC20.sol\":1829:1882  abi.encodeCall(token.transferFrom, (from, to, value)) */\n      add(0x24, mload(0x40))\n      tag_181\n      swap4\n      swap3\n      swap2\n      swap1\n      tag_182\n      jump\t// in\n    tag_181:\n      mload(0x40)\n      0x20\n      dup2\n      dup4\n      sub\n      sub\n      dup2\n      mstore\n      swap1\n      0x40\n      mstore\n      swap2\n      pop\n      0xe0\n      shl\n      0x20\n      dup3\n      add\n      dup1\n      mload\n      0xffffffffffffffffffffffffffffffffffffffffffffffffffffffff\n      dup4\n      dup2\n      dup4\n      and\n      or\n      dup4\n      mstore\n      pop\n      pop\n      pop\n      pop\n        /* \"@openzeppelin/contracts/token/ERC20/utils/SafeERC20.sol\":1802:1821  _callOptionalReturn */\n      tag_183\n        /* \"@openzeppelin/contracts/token/ERC20/utils/SafeERC20.sol\":1802:1883  _callOptionalReturn(token, abi.encodeCall(token.transferFrom, (from, to, value))) */\n      jump\t// in\n    tag_180:\n        /* \"@openzeppelin/contracts/token/ERC20/utils/SafeERC20.sol\":1702:1890  function safeTransferFrom(IERC20 token, address from, address to, uint256 value) internal {... */\n      pop\n      pop\n      pop\n      pop\n      jump\t// out\n        /* \"contracts/token/TokenTransfer.sol\":5437:5838  function _transferToken(address from, address to, address token, uint256 amount) private {... */\n    tag_136:\n        /* \"contracts/token/TokenTransfer.sol\":5541:5556  supportedTokens */\n      0x02\n        /* \"contracts/token/TokenTransfer.sol\":5541:5563  supportedTokens[token] */\n      0x00\n        /* \"contracts/token/TokenTransfer.sol\":5557:5562  token */\n      dup4\n        /* \"contracts/token/TokenTransfer.sol\":5541:5563  supportedTokens[token] */\n      0xffffffffffffffffffffffffffffffffffffffff\n      and\n      0xffffffffffffffffffffffffffffffffffffffff\n      and\n      dup2\n      mstore\n      0x20\n      add\n      swap1\n      dup2\n      mstore\n      0x20\n      add\n      0x00\n      keccak256\n      0x00\n      swap1\n      sload\n      swap1\n      0x0100\n      exp\n      swap1\n      div\n      0xff\n      and\n        /* \"contracts/token/TokenTransfer.sol\":5536:5595  if (!supportedTokens[token]) revert UnsupportedToken(token) */\n      tag_185\n      jumpi\n        /* \"contracts/token/TokenTransfer.sol\":5589:5594  token */\n      dup2\n        /* \"contracts/token/TokenTransfer.sol\":5572:5595  UnsupportedToken(token) */\n      mload(0x40)\n      0xbf16aab600000000000000000000000000000000000000000000000000000000\n      dup2\n      mstore\n      0x04\n      add\n      tag_186\n      swap2\n      swap1\n      tag_187\n      jump\t// in\n    tag_186:\n      mload(0x40)\n      dup1\n      swap2\n      sub\n      swap1\n      revert\n        /* \"contracts/token/TokenTransfer.sol\":5536:5595  if (!supportedTokens[token]) revert UnsupportedToken(token) */\n    tag_185:\n        /* \"contracts/token/TokenTransfer.sol\":5626:5630  this */\n      address\n        /* \"contracts/token/TokenTransfer.sol\":5610:5631  from == address(this) */\n      0xffffffffffffffffffffffffffffffffffffffff\n      and\n        /* \"contracts/token/TokenTransfer.sol\":5610:5614  from */\n      dup5\n        /* \"contracts/token/TokenTransfer.sol\":5610:5631  from == address(this) */\n      0xffffffffffffffffffffffffffffffffffffffff\n      and\n      sub\n        /* \"contracts/token/TokenTransfer.sol\":5606:5775  if (from == address(this)) {... */\n      tag_188\n      jumpi\n        /* \"contracts/token/TokenTransfer.sol\":5647:5685  IERC20(token).safeTransfer(to, amount) */\n      tag_189\n        /* \"contracts/token/TokenTransfer.sol\":5674:5676  to */\n      dup4\n        /* \"contracts/token/TokenTransfer.sol\":5678:5684  amount */\n      dup3\n        /* \"contracts/token/TokenTransfer.sol\":5654:5659  token */\n      dup5\n        /* \"contracts/token/TokenTransfer.sol\":5647:5673  IERC20(token).safeTransfer */\n      0xffffffffffffffffffffffffffffffffffffffff\n      and\n      tag_190\n      swap1\n        /* \"contracts/token/TokenTransfer.sol\":5647:5685  IERC20(token).safeTransfer(to, amount) */\n      swap3\n      swap2\n      swap1\n      0xffffffff\n      and\n      jump\t// in\n    tag_189:\n        /* \"contracts/token/TokenTransfer.sol\":5606:5775  if (from == address(this)) {... */\n      jump(tag_191)\n    tag_188:\n        /* \"contracts/token/TokenTransfer.sol\":5716:5764  IERC20(token).safeTransferFrom(from, to, amount) */\n      tag_192\n        /* \"contracts/token/TokenTransfer.sol\":5747:5751  from */\n      dup5\n        /* \"contracts/token/TokenTransfer.sol\":5753:5755  to */\n      dup5\n        /* \"contracts/token/TokenTransfer.sol\":5757:5763  amount */\n      dup4\n        /* \"contracts/token/TokenTransfer.sol\":5723:5728  token */\n      dup6\n        /* \"contracts/token/TokenTransfer.sol\":5716:5746  IERC20(token).safeTransferFrom */\n      0xffffffffffffffffffffffffffffffffffffffff\n      and\n      tag_126\n      swap1\n        /* \"contracts/token/TokenTransfer.sol\":5716:5764  IERC20(token).safeTransferFrom(from, to, amount) */\n      swap4\n      swap3\n      swap2\n      swap1\n      0xffffffff\n      and\n      jump\t// in\n    tag_192:\n        /* \"contracts/token/TokenTransfer.sol\":5606:5775  if (from == address(this)) {... */\n    tag_191:\n        /* \"contracts/token/TokenTransfer.sol\":5817:5822  token */\n      dup2\n        /* \"contracts/token/TokenTransfer.sol\":5790:5831  TokenTransferred(from, to, token, amount) */\n      0xffffffffffffffffffffffffffffffffffffffff\n      and\n        /* \"contracts/token/TokenTransfer.sol\":5813:5815  to */\n      dup4\n        /* \"contracts/token/TokenTransfer.sol\":5790:5831  TokenTransferred(from, to, token, amount) */\n      0xffffffffffffffffffffffffffffffffffffffff\n      and\n        /* \"contracts/token/TokenTransfer.sol\":5807:5811  from */\n      dup6\n        /* \"contracts/token/TokenTransfer.sol\":5790:5831  TokenTransferred(from, to, token, amount) */\n      0xffffffffffffffffffffffffffffffffffffffff\n      and\n      0x9af266b6ca4909f988dc948fb50ad15153abbe525351881bad4fa858be96515c\n        /* \"contracts/token/TokenTransfer.sol\":5824:5830  amount */\n      dup5\n        /* \"contracts/token/TokenTransfer.sol\":5790:5831  TokenTransferred(from, to, token, amount) */\n      mload(0x40)\n      tag_193\n      swap2\n      swap1\n      tag_64\n      jump\t// in\n    tag_193:\n      mload(0x40)\n      dup1\n      swap2\n      sub\n      swap1\n      log4\n        /* \"contracts/token/TokenTransfer.sol\":5437:5838  function _transferToken(address from, address to, address token, uint256 amount) private {... */\n      pop\n      pop\n      pop\n      pop\n      jump\t// out\n        /* \"@openzeppelin/contracts/utils/ReentrancyGuard.sol\":2744:2952  function _nonReentrantAfter() private {... */\n    tag_140:\n        /* \"@openzeppelin/contracts/utils/ReentrancyGuard.sol\":1713:1714  1 */\n      0x01\n        /* \"@openzeppelin/contracts/utils/ReentrancyGuard.sol\":2924:2931  _status */\n      0x00\n        /* \"@openzeppelin/contracts/utils/ReentrancyGuard.sol\":2924:2945  _status = NOT_ENTERED */\n      dup2\n      swap1\n      sstore\n      pop\n        /* \"@openzeppelin/contracts/utils/ReentrancyGuard.sol\":2744:2952  function _nonReentrantAfter() private {... */\n      jump\t// out\n        /* \"@openzeppelin/contracts/access/AccessControl.sol\":3432:3629  function _checkRole(bytes32 role, address account) internal view virtual {... */\n    tag_165:\n        /* \"@openzeppelin/contracts/access/AccessControl.sol\":3520:3542  hasRole(role, account) */\n      tag_196\n        /* \"@openzeppelin/contracts/access/AccessControl.sol\":3528:3532  role */\n      dup3\n        /* \"@openzeppelin/contracts/access/AccessControl.sol\":3534:3541  account */\n      dup3\n        /* \"@openzeppelin/contracts/access/AccessControl.sol\":3520:3527  hasRole */\n      tag_57\n        /* \"@openzeppelin/contracts/access/AccessControl.sol\":3520:3542  hasRole(role, account) */\n      jump\t// in\n    tag_196:\n        /* \"@openzeppelin/contracts/access/AccessControl.sol\":3515:3623  if (!hasRole(role, account)) {... */\n      tag_197\n      jumpi\n        /* \"@openzeppelin/contracts/access/AccessControl.sol\":3598:3605  account */\n      dup1\n        /* \"@openzeppelin/contracts/access/AccessControl.sol\":3607:3611  role */\n      dup3\n        /* \"@openzeppelin/contracts/access/AccessControl.sol\":3565:3612  AccessControlUnauthorizedAccount(account, role) */\n      mload(0x40)\n      0xe2517d3f00000000000000000000000000000000000000000000000000000000\n      dup2\n      mstore\n      0x04\n      add\n      tag_198\n      swap3\n      swap2\n      swap1\n      tag_199\n      jump\t// in\n    tag_198:\n      mload(0x40)\n      dup1\n      swap2\n      sub\n      swap1\n      revert\n        /* \"@openzeppelin/contracts/access/AccessControl.sol\":3515:3623  if (!hasRole(role, account)) {... */\n    tag_197:\n        /* \"@openzeppelin/contracts/access/AccessControl.sol\":3432:3629  function _checkRole(bytes32 role, address account) internal view virtual {... */\n      pop\n      pop\n      jump\t// out\n        /* \"@openzeppelin/contracts/token/ERC20/utils/SafeERC20.sol\":4059:4688  function _callOptionalReturn(IERC20 token, bytes memory data) private {... */\n    tag_183:\n        /* \"@openzeppelin/contracts/token/ERC20/utils/SafeERC20.sol\":4478:4501  bytes memory returndata */\n      0x00\n        /* \"@openzeppelin/contracts/token/ERC20/utils/SafeERC20.sol\":4504:4537  address(token).functionCall(data) */\n      tag_201\n        /* \"@openzeppelin/contracts/token/ERC20/utils/SafeERC20.sol\":4532:4536  data */\n      dup3\n        /* \"@openzeppelin/contracts/token/ERC20/utils/SafeERC20.sol\":4512:4517  token */\n      dup5\n        /* \"@openzeppelin/contracts/token/ERC20/utils/SafeERC20.sol\":4504:4531  address(token).functionCall */\n      0xffffffffffffffffffffffffffffffffffffffff\n      and\n      tag_202\n      swap1\n        /* \"@openzeppelin/contracts/token/ERC20/utils/SafeERC20.sol\":4504:4537  address(token).functionCall(data) */\n      swap2\n      swap1\n      0xffffffff\n      and\n      jump\t// in\n    tag_201:\n        /* \"@openzeppelin/contracts/token/ERC20/utils/SafeERC20.sol\":4478:4537  bytes memory returndata = address(token).functionCall(data) */\n      swap1\n      pop\n        /* \"@openzeppelin/contracts/token/ERC20/utils/SafeERC20.sol\":4572:4573  0 */\n      0x00\n        /* \"@openzeppelin/contracts/token/ERC20/utils/SafeERC20.sol\":4551:4561  returndata */\n      dup2\n        /* \"@openzeppelin/contracts/token/ERC20/utils/SafeERC20.sol\":4551:4568  returndata.length */\n      mload\n        /* \"@openzeppelin/contracts/token/ERC20/utils/SafeERC20.sol\":4551:4573  returndata.length != 0 */\n      eq\n      iszero\n        /* \"@openzeppelin/contracts/token/ERC20/utils/SafeERC20.sol\":4551:4608  returndata.length != 0 && !abi.decode(returndata, (bool)) */\n      dup1\n      iszero\n      tag_203\n      jumpi\n      pop\n        /* \"@openzeppelin/contracts/token/ERC20/utils/SafeERC20.sol\":4589:4599  returndata */\n      dup1\n        /* \"@openzeppelin/contracts/token/ERC20/utils/SafeERC20.sol\":4578:4608  abi.decode(returndata, (bool)) */\n      dup1\n      0x20\n      add\n      swap1\n      mload\n      dup2\n      add\n      swap1\n      tag_204\n      swap2\n      swap1\n      tag_205\n      jump\t// in\n    tag_204:\n        /* \"@openzeppelin/contracts/token/ERC20/utils/SafeERC20.sol\":4577:4608  !abi.decode(returndata, (bool)) */\n      iszero\n        /* \"@openzeppelin/contracts/token/ERC20/utils/SafeERC20.sol\":4551:4608  returndata.length != 0 && !abi.decode(returndata, (bool)) */\n    tag_203:\n        /* \"@openzeppelin/contracts/token/ERC20/utils/SafeERC20.sol\":4547:4682  if (returndata.length != 0 && !abi.decode(returndata, (bool))) {... */\n      iszero\n      tag_206\n      jumpi\n        /* \"@openzeppelin/contracts/token/ERC20/utils/SafeERC20.sol\":4664:4669  token */\n      dup3\n        /* \"@openzeppelin/contracts/token/ERC20/utils/SafeERC20.sol\":4631:4671  SafeERC20FailedOperation(address(token)) */\n      mload(0x40)\n      0x5274afe700000000000000000000000000000000000000000000000000000000\n      dup2\n      mstore\n      0x04\n      add\n      tag_207\n      swap2\n      swap1\n      tag_187\n      jump\t// in\n    tag_207:\n      mload(0x40)\n      dup1\n      swap2\n      sub\n      swap1\n      revert\n        /* \"@openzeppelin/contracts/token/ERC20/utils/SafeERC20.sol\":4547:4682  if (returndata.length != 0 && !abi.decode(returndata, (bool))) {... */\n    tag_206:\n        /* \"@openzeppelin/contracts/token/ERC20/utils/SafeERC20.sol\":4129:4688  {... */\n      pop\n        /* \"@openzeppelin/contracts/token/ERC20/utils/SafeERC20.sol\":4059:4688  function _callOptionalReturn(IERC20 token, bytes memory data) private {... */\n      pop\n      pop\n      jump\t// out\n        /* \"@openzeppelin/contracts/token/ERC20/utils/SafeERC20.sol\":1303:1463  function safeTransfer(IERC20 token, address to, uint256 value) internal {... */\n    tag_190:\n        /* \"@openzeppelin/contracts/token/ERC20/utils/SafeERC20.sol\":1385:1456  _callOptionalReturn(token, abi.encodeCall(token.transfer, (to, value))) */\n      tag_209\n        /* \"@openzeppelin/contracts/token/ERC20/utils/SafeERC20.sol\":1405:1410  token */\n      dup4\n        /* \"@openzeppelin/contracts/token/ERC20/utils/SafeERC20.sol\":1427:1432  token */\n      dup5\n        /* \"@openzeppelin/contracts/token/ERC20/utils/SafeERC20.sol\":1427:1441  token.transfer */\n      0xffffffffffffffffffffffffffffffffffffffff\n      and\n      0xa9059cbb\n        /* \"@openzeppelin/contracts/token/ERC20/utils/SafeERC20.sol\":1444:1446  to */\n      dup6\n        /* \"@openzeppelin/contracts/token/ERC20/utils/SafeERC20.sol\":1448:1453  value */\n      dup6\n        /* \"@openzeppelin/contracts/token/ERC20/utils/SafeERC20.sol\":1412:1455  abi.encodeCall(token.transfer, (to, value)) */\n      add(0x24, mload(0x40))\n      tag_210\n      swap3\n      swap2\n      swap1\n      tag_211\n      jump\t// in\n    tag_210:\n      mload(0x40)\n      0x20\n      dup2\n      dup4\n      sub\n      sub\n      dup2\n      mstore\n      swap1\n      0x40\n      mstore\n      swap2\n      pop\n      0xe0\n      shl\n      0x20\n      dup3\n      add\n      dup1\n      mload\n      0xffffffffffffffffffffffffffffffffffffffffffffffffffffffff\n      dup4\n      dup2\n      dup4\n      and\n      or\n      dup4\n      mstore\n      pop\n      pop\n      pop\n      pop\n        /* \"@openzeppelin/contracts/token/ERC20/utils/SafeERC20.sol\":1385:1404  _callOptionalReturn */\n      tag_183\n        /* \"@openzeppelin/contracts/token/ERC20/utils/SafeERC20.sol\":1385:1456  _callOptionalReturn(token, abi.encodeCall(token.transfer, (to, value))) */\n      jump\t// in\n    tag_209:\n        /* \"@openzeppelin/contracts/token/ERC20/utils/SafeERC20.sol\":1303:1463  function safeTransfer(IERC20 token, address to, uint256 value) internal {... */\n      pop\n      pop\n      pop\n      jump\t// out\n        /* \"@openzeppelin/contracts/utils/Address.sol\":2705:2856  function functionCall(address target, bytes memory data) internal returns (bytes memory) {... */\n    tag_202:\n        /* \"@openzeppelin/contracts/utils/Address.sol\":2780:2792  bytes memory */\n      0x60\n        /* \"@openzeppelin/contracts/utils/Address.sol\":2811:2849  functionCallWithValue(target, data, 0) */\n      tag_213\n        /* \"@openzeppelin/contracts/utils/Address.sol\":2833:2839  target */\n      dup4\n        /* \"@openzeppelin/contracts/utils/Address.sol\":2841:2845  data */\n      dup4\n        /* \"@openzeppelin/contracts/utils/Address.sol\":2847:2848  0 */\n      0x00\n        /* \"@openzeppelin/contracts/utils/Address.sol\":2811:2832  functionCallWithValue */\n      tag_214\n        /* \"@openzeppelin/contracts/utils/Address.sol\":2811:2849  functionCallWithValue(target, data, 0) */\n      jump\t// in\n    tag_213:\n        /* \"@openzeppelin/contracts/utils/Address.sol\":2804:2849  return functionCallWithValue(target, data, 0) */\n      swap1\n      pop\n        /* \"@openzeppelin/contracts/utils/Address.sol\":2705:2856  function functionCall(address target, bytes memory data) internal returns (bytes memory) {... */\n      swap3\n      swap2\n      pop\n      pop\n      jump\t// out\n        /* \"@openzeppelin/contracts/utils/Address.sol\":3180:3572  function functionCallWithValue(address target, bytes memory data, uint256 value) internal returns (bytes memory) {... */\n    tag_214:\n        /* \"@openzeppelin/contracts/utils/Address.sol\":3279:3291  bytes memory */\n      0x60\n        /* \"@openzeppelin/contracts/utils/Address.sol\":3331:3336  value */\n      dup2\n        /* \"@openzeppelin/contracts/utils/Address.sol\":3307:3328  address(this).balance */\n      selfbalance\n        /* \"@openzeppelin/contracts/utils/Address.sol\":3307:3336  address(this).balance < value */\n      lt\n        /* \"@openzeppelin/contracts/utils/Address.sol\":3303:3411  if (address(this).balance < value) {... */\n      iszero\n      tag_216\n      jumpi\n        /* \"@openzeppelin/contracts/utils/Address.sol\":3394:3398  this */\n      address\n        /* \"@openzeppelin/contracts/utils/Address.sol\":3359:3400  AddressInsufficientBalance(address(this)) */\n      mload(0x40)\n      0xcd78605900000000000000000000000000000000000000000000000000000000\n      dup2\n      mstore\n      0x04\n      add\n      tag_217\n      swap2\n      swap1\n      tag_187\n      jump\t// in\n    tag_217:\n      mload(0x40)\n      dup1\n      swap2\n      sub\n      swap1\n      revert\n        /* \"@openzeppelin/contracts/utils/Address.sol\":3303:3411  if (address(this).balance < value) {... */\n    tag_216:\n        /* \"@openzeppelin/contracts/utils/Address.sol\":3421:3433  bool success */\n      0x00\n        /* \"@openzeppelin/contracts/utils/Address.sol\":3435:3458  bytes memory returndata */\n      dup1\n        /* \"@openzeppelin/contracts/utils/Address.sol\":3462:3468  target */\n      dup6\n        /* \"@openzeppelin/contracts/utils/Address.sol\":3462:3473  target.call */\n      0xffffffffffffffffffffffffffffffffffffffff\n      and\n        /* \"@openzeppelin/contracts/utils/Address.sol\":3481:3486  value */\n      dup5\n        /* \"@openzeppelin/contracts/utils/Address.sol\":3488:3492  data */\n      dup7\n        /* \"@openzeppelin/contracts/utils/Address.sol\":3462:3493  target.call{value: value}(data) */\n      mload(0x40)\n      tag_218\n      swap2\n      swap1\n      tag_219\n      jump\t// in\n    tag_218:\n      0x00\n      mload(0x40)\n      dup1\n      dup4\n      sub\n      dup2\n      dup6\n      dup8\n      gas\n      call\n      swap3\n      pop\n      pop\n      pop\n      returndatasize\n      dup1\n      0x00\n      dup2\n      eq\n      tag_222\n      jumpi\n      mload(0x40)\n      swap2\n      pop\n      and(add(returndatasize, 0x3f), not(0x1f))\n      dup3\n      add\n      0x40\n      mstore\n      returndatasize\n      dup3\n      mstore\n      returndatasize\n      0x00\n      0x20\n      dup5\n      add\n      returndatacopy\n      jump(tag_221)\n    tag_222:\n      0x60\n      swap2\n      pop\n    tag_221:\n      pop\n        /* \"@openzeppelin/contracts/utils/Address.sol\":3420:3493  (bool success, bytes memory returndata) = target.call{value: value}(data) */\n      swap2\n      pop\n      swap2\n      pop\n        /* \"@openzeppelin/contracts/utils/Address.sol\":3510:3565  verifyCallResultFromTarget(target, success, returndata) */\n      tag_223\n        /* \"@openzeppelin/contracts/utils/Address.sol\":3537:3543  target */\n      dup7\n        /* \"@openzeppelin/contracts/utils/Address.sol\":3545:3552  success */\n      dup4\n        /* \"@openzeppelin/contracts/utils/Address.sol\":3554:3564  returndata */\n      dup4\n        /* \"@openzeppelin/contracts/utils/Address.sol\":3510:3536  verifyCallResultFromTarget */\n      tag_224\n        /* \"@openzeppelin/contracts/utils/Address.sol\":3510:3565  verifyCallResultFromTarget(target, success, returndata) */\n      jump\t// in\n    tag_223:\n        /* \"@openzeppelin/contracts/utils/Address.sol\":3503:3565  return verifyCallResultFromTarget(target, success, returndata) */\n      swap3\n      pop\n      pop\n      pop\n        /* \"@openzeppelin/contracts/utils/Address.sol\":3180:3572  function functionCallWithValue(address target, bytes memory data, uint256 value) internal returns (bytes memory) {... */\n      swap4\n      swap3\n      pop\n      pop\n      pop\n      jump\t// out\n        /* \"@openzeppelin/contracts/utils/Address.sol\":4625:5207  function verifyCallResultFromTarget(... */\n    tag_224:\n        /* \"@openzeppelin/contracts/utils/Address.sol\":4769:4781  bytes memory */\n      0x60\n        /* \"@openzeppelin/contracts/utils/Address.sol\":4798:4805  success */\n      dup3\n        /* \"@openzeppelin/contracts/utils/Address.sol\":4793:5201  if (!success) {... */\n      tag_226\n      jumpi\n        /* \"@openzeppelin/contracts/utils/Address.sol\":4821:4840  _revert(returndata) */\n      tag_227\n        /* \"@openzeppelin/contracts/utils/Address.sol\":4829:4839  returndata */\n      dup3\n        /* \"@openzeppelin/contracts/utils/Address.sol\":4821:4828  _revert */\n      tag_228\n        /* \"@openzeppelin/contracts/utils/Address.sol\":4821:4840  _revert(returndata) */\n      jump\t// in\n    tag_227:\n        /* \"@openzeppelin/contracts/utils/Address.sol\":4793:5201  if (!success) {... */\n      jump(tag_229)\n    tag_226:\n        /* \"@openzeppelin/contracts/utils/Address.sol\":5066:5067  0 */\n      0x00\n        /* \"@openzeppelin/contracts/utils/Address.sol\":5045:5055  returndata */\n      dup3\n        /* \"@openzeppelin/contracts/utils/Address.sol\":5045:5062  returndata.length */\n      mload\n        /* \"@openzeppelin/contracts/utils/Address.sol\":5045:5067  returndata.length == 0 */\n      eq\n        /* \"@openzeppelin/contracts/utils/Address.sol\":5045:5094  returndata.length == 0 && target.code.length == 0 */\n      dup1\n      iszero\n      tag_230\n      jumpi\n      pop\n        /* \"@openzeppelin/contracts/utils/Address.sol\":5093:5094  0 */\n      0x00\n        /* \"@openzeppelin/contracts/utils/Address.sol\":5071:5077  target */\n      dup5\n        /* \"@openzeppelin/contracts/utils/Address.sol\":5071:5089  target.code.length */\n      0xffffffffffffffffffffffffffffffffffffffff\n      and\n      extcodesize\n        /* \"@openzeppelin/contracts/utils/Address.sol\":5071:5094  target.code.length == 0 */\n      eq\n        /* \"@openzeppelin/contracts/utils/Address.sol\":5045:5094  returndata.length == 0 && target.code.length == 0 */\n    tag_230:\n        /* \"@openzeppelin/contracts/utils/Address.sol\":5041:5160  if (returndata.length == 0 && target.code.length == 0) {... */\n      iszero\n      tag_231\n      jumpi\n        /* \"@openzeppelin/contracts/utils/Address.sol\":5138:5144  target */\n      dup4\n        /* \"@openzeppelin/contracts/utils/Address.sol\":5121:5145  AddressEmptyCode(target) */\n      mload(0x40)\n      0x9996b31500000000000000000000000000000000000000000000000000000000\n      dup2\n      mstore\n      0x04\n      add\n      tag_232\n      swap2\n      swap1\n      tag_187\n      jump\t// in\n    tag_232:\n      mload(0x40)\n      dup1\n      swap2\n      sub\n      swap1\n      revert\n        /* \"@openzeppelin/contracts/utils/Address.sol\":5041:5160  if (returndata.length == 0 && target.code.length == 0) {... */\n    tag_231:\n        /* \"@openzeppelin/contracts/utils/Address.sol\":5180:5190  returndata */\n      dup2\n        /* \"@openzeppelin/contracts/utils/Address.sol\":5173:5190  return returndata */\n      swap1\n      pop\n      jump(tag_225)\n        /* \"@openzeppelin/contracts/utils/Address.sol\":4793:5201  if (!success) {... */\n    tag_229:\n        /* \"@openzeppelin/contracts/utils/Address.sol\":4625:5207  function verifyCallResultFromTarget(... */\n    tag_225:\n      swap4\n      swap3\n      pop\n      pop\n      pop\n      jump\t// out\n        /* \"@openzeppelin/contracts/utils/Address.sol\":5743:6259  function _revert(bytes memory returndata) private pure {... */\n    tag_228:\n        /* \"@openzeppelin/contracts/utils/Address.sol\":5894:5895  0 */\n      0x00\n        /* \"@openzeppelin/contracts/utils/Address.sol\":5874:5884  returndata */\n      dup2\n        /* \"@openzeppelin/contracts/utils/Address.sol\":5874:5891  returndata.length */\n      mload\n        /* \"@openzeppelin/contracts/utils/Address.sol\":5874:5895  returndata.length > 0 */\n      gt\n        /* \"@openzeppelin/contracts/utils/Address.sol\":5870:6253  if (returndata.length > 0) {... */\n      iszero\n      tag_234\n      jumpi\n        /* \"@openzeppelin/contracts/utils/Address.sol\":6102:6112  returndata */\n      dup1\n        /* \"@openzeppelin/contracts/utils/Address.sol\":6096:6113  mload(returndata) */\n      mload\n        /* \"@openzeppelin/contracts/utils/Address.sol\":6158:6173  returndata_size */\n      dup1\n        /* \"@openzeppelin/contracts/utils/Address.sol\":6145:6155  returndata */\n      dup3\n        /* \"@openzeppelin/contracts/utils/Address.sol\":6141:6143  32 */\n      0x20\n        /* \"@openzeppelin/contracts/utils/Address.sol\":6137:6156  add(32, returndata) */\n      add\n        /* \"@openzeppelin/contracts/utils/Address.sol\":6130:6174  revert(add(32, returndata), returndata_size) */\n      revert\n        /* \"@openzeppelin/contracts/utils/Address.sol\":5870:6253  if (returndata.length > 0) {... */\n    tag_234:\n        /* \"@openzeppelin/contracts/utils/Address.sol\":6225:6242  FailedInnerCall() */\n      mload(0x40)\n      0x1425ea4200000000000000000000000000000000000000000000000000000000\n      dup2\n      mstore\n      0x04\n      add\n      mload(0x40)\n      dup1\n      swap2\n      sub\n      swap1\n      revert\n        /* \"#utility.yul\":88:205   */\n    tag_237:\n        /* \"#utility.yul\":197:198   */\n      0x00\n        /* \"#utility.yul\":194:195   */\n      dup1\n        /* \"#utility.yul\":187:199   */\n      revert\n        /* \"#utility.yul\":211:328   */\n    tag_238:\n        /* \"#utility.yul\":320:321   */\n      0x00\n        /* \"#utility.yul\":317:318   */\n      dup1\n        /* \"#utility.yul\":310:322   */\n      revert\n        /* \"#utility.yul\":334:483   */\n    tag_239:\n        /* \"#utility.yul\":370:377   */\n      0x00\n        /* \"#utility.yul\":410:476   */\n      0xffffffff00000000000000000000000000000000000000000000000000000000\n        /* \"#utility.yul\":403:408   */\n      dup3\n        /* \"#utility.yul\":399:477   */\n      and\n        /* \"#utility.yul\":388:477   */\n      swap1\n      pop\n        /* \"#utility.yul\":334:483   */\n      swap2\n      swap1\n      pop\n      jump\t// out\n        /* \"#utility.yul\":489:609   */\n    tag_240:\n        /* \"#utility.yul\":561:584   */\n      tag_286\n        /* \"#utility.yul\":578:583   */\n      dup2\n        /* \"#utility.yul\":561:584   */\n      tag_239\n      jump\t// in\n    tag_286:\n        /* \"#utility.yul\":554:559   */\n      dup2\n        /* \"#utility.yul\":551:585   */\n      eq\n        /* \"#utility.yul\":541:603   */\n      tag_287\n      jumpi\n        /* \"#utility.yul\":599:600   */\n      0x00\n        /* \"#utility.yul\":596:597   */\n      dup1\n        /* \"#utility.yul\":589:601   */\n      revert\n        /* \"#utility.yul\":541:603   */\n    tag_287:\n        /* \"#utility.yul\":489:609   */\n      pop\n      jump\t// out\n        /* \"#utility.yul\":615:752   */\n    tag_241:\n        /* \"#utility.yul\":660:665   */\n      0x00\n        /* \"#utility.yul\":698:704   */\n      dup2\n        /* \"#utility.yul\":685:705   */\n      calldataload\n        /* \"#utility.yul\":676:705   */\n      swap1\n      pop\n        /* \"#utility.yul\":714:746   */\n      tag_289\n        /* \"#utility.yul\":740:745   */\n      dup2\n        /* \"#utility.yul\":714:746   */\n      tag_240\n      jump\t// in\n    tag_289:\n        /* \"#utility.yul\":615:752   */\n      swap3\n      swap2\n      pop\n      pop\n      jump\t// out\n        /* \"#utility.yul\":758:1085   */\n    tag_24:\n        /* \"#utility.yul\":816:822   */\n      0x00\n        /* \"#utility.yul\":865:867   */\n      0x20\n        /* \"#utility.yul\":853:862   */\n      dup3\n        /* \"#utility.yul\":844:851   */\n      dup5\n        /* \"#utility.yul\":840:863   */\n      sub\n        /* \"#utility.yul\":836:868   */\n      slt\n        /* \"#utility.yul\":833:952   */\n      iszero\n      tag_291\n      jumpi\n        /* \"#utility.yul\":871:950   */\n      tag_292\n      tag_237\n      jump\t// in\n    tag_292:\n        /* \"#utility.yul\":833:952   */\n    tag_291:\n        /* \"#utility.yul\":991:992   */\n      0x00\n        /* \"#utility.yul\":1016:1068   */\n      tag_293\n        /* \"#utility.yul\":1060:1067   */\n      dup5\n        /* \"#utility.yul\":1051:1057   */\n      dup3\n        /* \"#utility.yul\":1040:1049   */\n      dup6\n        /* \"#utility.yul\":1036:1058   */\n      add\n        /* \"#utility.yul\":1016:1068   */\n      tag_241\n      jump\t// in\n    tag_293:\n        /* \"#utility.yul\":1006:1068   */\n      swap2\n      pop\n        /* \"#utility.yul\":962:1078   */\n      pop\n        /* \"#utility.yul\":758:1085   */\n      swap3\n      swap2\n      pop\n      pop\n      jump\t// out\n        /* \"#utility.yul\":1091:1181   */\n    tag_242:\n        /* \"#utility.yul\":1125:1132   */\n      0x00\n        /* \"#utility.yul\":1168:1173   */\n      dup2\n        /* \"#utility.yul\":1161:1174   */\n      iszero\n        /* \"#utility.yul\":1154:1175   */\n      iszero\n        /* \"#utility.yul\":1143:1175   */\n      swap1\n      pop\n        /* \"#utility.yul\":1091:1181   */\n      swap2\n      swap1\n      pop\n      jump\t// out\n        /* \"#utility.yul\":1187:1296   */\n    tag_243:\n        /* \"#utility.yul\":1268:1289   */\n      tag_296\n        /* \"#utility.yul\":1283:1288   */\n      dup2\n        /* \"#utility.yul\":1268:1289   */\n      tag_242\n      jump\t// in\n    tag_296:\n        /* \"#utility.yul\":1263:1266   */\n      dup3\n        /* \"#utility.yul\":1256:1290   */\n      mstore\n        /* \"#utility.yul\":1187:1296   */\n      pop\n      pop\n      jump\t// out\n        /* \"#utility.yul\":1302:1512   */\n    tag_27:\n        /* \"#utility.yul\":1389:1393   */\n      0x00\n        /* \"#utility.yul\":1427:1429   */\n      0x20\n        /* \"#utility.yul\":1416:1425   */\n      dup3\n        /* \"#utility.yul\":1412:1430   */\n      add\n        /* \"#utility.yul\":1404:1430   */\n      swap1\n      pop\n        /* \"#utility.yul\":1440:1505   */\n      tag_298\n        /* \"#utility.yul\":1502:1503   */\n      0x00\n        /* \"#utility.yul\":1491:1500   */\n      dup4\n        /* \"#utility.yul\":1487:1504   */\n      add\n        /* \"#utility.yul\":1478:1484   */\n      dup5\n        /* \"#utility.yul\":1440:1505   */\n      tag_243\n      jump\t// in\n    tag_298:\n        /* \"#utility.yul\":1302:1512   */\n      swap3\n      swap2\n      pop\n      pop\n      jump\t// out\n        /* \"#utility.yul\":1518:1595   */\n    tag_244:\n        /* \"#utility.yul\":1555:1562   */\n      0x00\n        /* \"#utility.yul\":1584:1589   */\n      dup2\n        /* \"#utility.yul\":1573:1589   */\n      swap1\n      pop\n        /* \"#utility.yul\":1518:1595   */\n      swap2\n      swap1\n      pop\n      jump\t// out\n        /* \"#utility.yul\":1601:1723   */\n    tag_245:\n        /* \"#utility.yul\":1674:1698   */\n      tag_301\n        /* \"#utility.yul\":1692:1697   */\n      dup2\n        /* \"#utility.yul\":1674:1698   */\n      tag_244\n      jump\t// in\n    tag_301:\n        /* \"#utility.yul\":1667:1672   */\n      dup2\n        /* \"#utility.yul\":1664:1699   */\n      eq\n        /* \"#utility.yul\":1654:1717   */\n      tag_302\n      jumpi\n        /* \"#utility.yul\":1713:1714   */\n      0x00\n        /* \"#utility.yul\":1710:1711   */\n      dup1\n        /* \"#utility.yul\":1703:1715   */\n      revert\n        /* \"#utility.yul\":1654:1717   */\n    tag_302:\n        /* \"#utility.yul\":1601:1723   */\n      pop\n      jump\t// out\n        /* \"#utility.yul\":1729:1868   */\n    tag_246:\n        /* \"#utility.yul\":1775:1780   */\n      0x00\n        /* \"#utility.yul\":1813:1819   */\n      dup2\n        /* \"#utility.yul\":1800:1820   */\n      calldataload\n        /* \"#utility.yul\":1791:1820   */\n      swap1\n      pop\n        /* \"#utility.yul\":1829:1862   */\n      tag_304\n        /* \"#utility.yul\":1856:1861   */\n      dup2\n        /* \"#utility.yul\":1829:1862   */\n      tag_245\n      jump\t// in\n    tag_304:\n        /* \"#utility.yul\":1729:1868   */\n      swap3\n      swap2\n      pop\n      pop\n      jump\t// out\n        /* \"#utility.yul\":1874:2203   */\n    tag_30:\n        /* \"#utility.yul\":1933:1939   */\n      0x00\n        /* \"#utility.yul\":1982:1984   */\n      0x20\n        /* \"#utility.yul\":1970:1979   */\n      dup3\n        /* \"#utility.yul\":1961:1968   */\n      dup5\n        /* \"#utility.yul\":1957:1980   */\n      sub\n        /* \"#utility.yul\":1953:1985   */\n      slt\n        /* \"#utility.yul\":1950:2069   */\n      iszero\n      tag_306\n      jumpi\n        /* \"#utility.yul\":1988:2067   */\n      tag_307\n      tag_237\n      jump\t// in\n    tag_307:\n        /* \"#utility.yul\":1950:2069   */\n    tag_306:\n        /* \"#utility.yul\":2108:2109   */\n      0x00\n        /* \"#utility.yul\":2133:2186   */\n      tag_308\n        /* \"#utility.yul\":2178:2185   */\n      dup5\n        /* \"#utility.yul\":2169:2175   */\n      dup3\n        /* \"#utility.yul\":2158:2167   */\n      dup6\n        /* \"#utility.yul\":2154:2176   */\n      add\n        /* \"#utility.yul\":2133:2186   */\n      tag_246\n      jump\t// in\n    tag_308:\n        /* \"#utility.yul\":2123:2186   */\n      swap2\n      pop\n        /* \"#utility.yul\":2079:2196   */\n      pop\n        /* \"#utility.yul\":1874:2203   */\n      swap3\n      swap2\n      pop\n      pop\n      jump\t// out\n        /* \"#utility.yul\":2209:2327   */\n    tag_247:\n        /* \"#utility.yul\":2296:2320   */\n      tag_310\n        /* \"#utility.yul\":2314:2319   */\n      dup2\n        /* \"#utility.yul\":2296:2320   */\n      tag_244\n      jump\t// in\n    tag_310:\n        /* \"#utility.yul\":2291:2294   */\n      dup3\n        /* \"#utility.yul\":2284:2321   */\n      mstore\n        /* \"#utility.yul\":2209:2327   */\n      pop\n      pop\n      jump\t// out\n        /* \"#utility.yul\":2333:2555   */\n    tag_33:\n        /* \"#utility.yul\":2426:2430   */\n      0x00\n        /* \"#utility.yul\":2464:2466   */\n      0x20\n        /* \"#utility.yul\":2453:2462   */\n      dup3\n        /* \"#utility.yul\":2449:2467   */\n      add\n        /* \"#utility.yul\":2441:2467   */\n      swap1\n      pop\n        /* \"#utility.yul\":2477:2548   */\n      tag_312\n        /* \"#utility.yul\":2545:2546   */\n      0x00\n        /* \"#utility.yul\":2534:2543   */\n      dup4\n        /* \"#utility.yul\":2530:2547   */\n      add\n        /* \"#utility.yul\":2521:2527   */\n      dup5\n        /* \"#utility.yul\":2477:2548   */\n      tag_247\n      jump\t// in\n    tag_312:\n        /* \"#utility.yul\":2333:2555   */\n      swap3\n      swap2\n      pop\n      pop\n      jump\t// out\n        /* \"#utility.yul\":2561:2687   */\n    tag_248:\n        /* \"#utility.yul\":2598:2605   */\n      0x00\n        /* \"#utility.yul\":2638:2680   */\n      0xffffffffffffffffffffffffffffffffffffffff\n        /* \"#utility.yul\":2631:2636   */\n      dup3\n        /* \"#utility.yul\":2627:2681   */\n      and\n        /* \"#utility.yul\":2616:2681   */\n      swap1\n      pop\n        /* \"#utility.yul\":2561:2687   */\n      swap2\n      swap1\n      pop\n      jump\t// out\n        /* \"#utility.yul\":2693:2789   */\n    tag_249:\n        /* \"#utility.yul\":2730:2737   */\n      0x00\n        /* \"#utility.yul\":2759:2783   */\n      tag_315\n        /* \"#utility.yul\":2777:2782   */\n      dup3\n        /* \"#utility.yul\":2759:2783   */\n      tag_248\n      jump\t// in\n    tag_315:\n        /* \"#utility.yul\":2748:2783   */\n      swap1\n      pop\n        /* \"#utility.yul\":2693:2789   */\n      swap2\n      swap1\n      pop\n      jump\t// out\n        /* \"#utility.yul\":2795:2917   */\n    tag_250:\n        /* \"#utility.yul\":2868:2892   */\n      tag_317\n        /* \"#utility.yul\":2886:2891   */\n      dup2\n        /* \"#utility.yul\":2868:2892   */\n      tag_249\n      jump\t// in\n    tag_317:\n        /* \"#utility.yul\":2861:2866   */\n      dup2\n        /* \"#utility.yul\":2858:2893   */\n      eq\n        /* \"#utility.yul\":2848:2911   */\n      tag_318\n      jumpi\n        /* \"#utility.yul\":2907:2908   */\n      0x00\n        /* \"#utility.yul\":2904:2905   */\n      dup1\n        /* \"#utility.yul\":2897:2909   */\n      revert\n        /* \"#utility.yul\":2848:2911   */\n    tag_318:\n        /* \"#utility.yul\":2795:2917   */\n      pop\n      jump\t// out\n        /* \"#utility.yul\":2923:3062   */\n    tag_251:\n        /* \"#utility.yul\":2969:2974   */\n      0x00\n        /* \"#utility.yul\":3007:3013   */\n      dup2\n        /* \"#utility.yul\":2994:3014   */\n      calldataload\n        /* \"#utility.yul\":2985:3014   */\n      swap1\n      pop\n        /* \"#utility.yul\":3023:3056   */\n      tag_320\n        /* \"#utility.yul\":3050:3055   */\n      dup2\n        /* \"#utility.yul\":3023:3056   */\n      tag_250\n      jump\t// in\n    tag_320:\n        /* \"#utility.yul\":2923:3062   */\n      swap3\n      swap2\n      pop\n      pop\n      jump\t// out\n        /* \"#utility.yul\":3068:3542   */\n    tag_36:\n        /* \"#utility.yul\":3136:3142   */\n      0x00\n        /* \"#utility.yul\":3144:3150   */\n      dup1\n        /* \"#utility.yul\":3193:3195   */\n      0x40\n        /* \"#utility.yul\":3181:3190   */\n      dup4\n        /* \"#utility.yul\":3172:3179   */\n      dup6\n        /* \"#utility.yul\":3168:3191   */\n      sub\n        /* \"#utility.yul\":3164:3196   */\n      slt\n        /* \"#utility.yul\":3161:3280   */\n      iszero\n      tag_322\n      jumpi\n        /* \"#utility.yul\":3199:3278   */\n      tag_323\n      tag_237\n      jump\t// in\n    tag_323:\n        /* \"#utility.yul\":3161:3280   */\n    tag_322:\n        /* \"#utility.yul\":3319:3320   */\n      0x00\n        /* \"#utility.yul\":3344:3397   */\n      tag_324\n        /* \"#utility.yul\":3389:3396   */\n      dup6\n        /* \"#utility.yul\":3380:3386   */\n      dup3\n        /* \"#utility.yul\":3369:3378   */\n      dup7\n        /* \"#utility.yul\":3365:3387   */\n      add\n        /* \"#utility.yul\":3344:3397   */\n      tag_246\n      jump\t// in\n    tag_324:\n        /* \"#utility.yul\":3334:3397   */\n      swap3\n      pop\n        /* \"#utility.yul\":3290:3407   */\n      pop\n        /* \"#utility.yul\":3446:3448   */\n      0x20\n        /* \"#utility.yul\":3472:3525   */\n      tag_325\n        /* \"#utility.yul\":3517:3524   */\n      dup6\n        /* \"#utility.yul\":3508:3514   */\n      dup3\n        /* \"#utility.yul\":3497:3506   */\n      dup7\n        /* \"#utility.yul\":3493:3515   */\n      add\n        /* \"#utility.yul\":3472:3525   */\n      tag_251\n      jump\t// in\n    tag_325:\n        /* \"#utility.yul\":3462:3525   */\n      swap2\n      pop\n        /* \"#utility.yul\":3417:3535   */\n      pop\n        /* \"#utility.yul\":3068:3542   */\n      swap3\n      pop\n      swap3\n      swap1\n      pop\n      jump\t// out\n        /* \"#utility.yul\":3548:3877   */\n    tag_46:\n        /* \"#utility.yul\":3607:3613   */\n      0x00\n        /* \"#utility.yul\":3656:3658   */\n      0x20\n        /* \"#utility.yul\":3644:3653   */\n      dup3\n        /* \"#utility.yul\":3635:3642   */\n      dup5\n        /* \"#utility.yul\":3631:3654   */\n      sub\n        /* \"#utility.yul\":3627:3659   */\n      slt\n        /* \"#utility.yul\":3624:3743   */\n      iszero\n      tag_327\n      jumpi\n        /* \"#utility.yul\":3662:3741   */\n      tag_328\n      tag_237\n      jump\t// in\n    tag_328:\n        /* \"#utility.yul\":3624:3743   */\n    tag_327:\n        /* \"#utility.yul\":3782:3783   */\n      0x00\n        /* \"#utility.yul\":3807:3860   */\n      tag_329\n        /* \"#utility.yul\":3852:3859   */\n      dup5\n        /* \"#utility.yul\":3843:3849   */\n      dup3\n        /* \"#utility.yul\":3832:3841   */\n      dup6\n        /* \"#utility.yul\":3828:3850   */\n      add\n        /* \"#utility.yul\":3807:3860   */\n      tag_251\n      jump\t// in\n    tag_329:\n        /* \"#utility.yul\":3797:3860   */\n      swap2\n      pop\n        /* \"#utility.yul\":3753:3870   */\n      pop\n        /* \"#utility.yul\":3548:3877   */\n      swap3\n      swap2\n      pop\n      pop\n      jump\t// out\n        /* \"#utility.yul\":3883:4502   */\n    tag_61:\n        /* \"#utility.yul\":3960:3966   */\n      0x00\n        /* \"#utility.yul\":3968:3974   */\n      dup1\n        /* \"#utility.yul\":3976:3982   */\n      0x00\n        /* \"#utility.yul\":4025:4027   */\n      0x60\n        /* \"#utility.yul\":4013:4022   */\n      dup5\n        /* \"#utility.yul\":4004:4011   */\n      dup7\n        /* \"#utility.yul\":4000:4023   */\n      sub\n        /* \"#utility.yul\":3996:4028   */\n      slt\n        /* \"#utility.yul\":3993:4112   */\n      iszero\n      tag_331\n      jumpi\n        /* \"#utility.yul\":4031:4110   */\n      tag_332\n      tag_237\n      jump\t// in\n    tag_332:\n        /* \"#utility.yul\":3993:4112   */\n    tag_331:\n        /* \"#utility.yul\":4151:4152   */\n      0x00\n        /* \"#utility.yul\":4176:4229   */\n      tag_333\n        /* \"#utility.yul\":4221:4228   */\n      dup7\n        /* \"#utility.yul\":4212:4218   */\n      dup3\n        /* \"#utility.yul\":4201:4210   */\n      dup8\n        /* \"#utility.yul\":4197:4219   */\n      add\n        /* \"#utility.yul\":4176:4229   */\n      tag_251\n      jump\t// in\n    tag_333:\n        /* \"#utility.yul\":4166:4229   */\n      swap4\n      pop\n        /* \"#utility.yul\":4122:4239   */\n      pop\n        /* \"#utility.yul\":4278:4280   */\n      0x20\n        /* \"#utility.yul\":4304:4357   */\n      tag_334\n        /* \"#utility.yul\":4349:4356   */\n      dup7\n        /* \"#utility.yul\":4340:4346   */\n      dup3\n        /* \"#utility.yul\":4329:4338   */\n      dup8\n        /* \"#utility.yul\":4325:4347   */\n      add\n        /* \"#utility.yul\":4304:4357   */\n      tag_251\n      jump\t// in\n    tag_334:\n        /* \"#utility.yul\":4294:4357   */\n      swap3\n      pop\n        /* \"#utility.yul\":4249:4367   */\n      pop\n        /* \"#utility.yul\":4406:4408   */\n      0x40\n        /* \"#utility.yul\":4432:4485   */\n      tag_335\n        /* \"#utility.yul\":4477:4484   */\n      dup7\n        /* \"#utility.yul\":4468:4474   */\n      dup3\n        /* \"#utility.yul\":4457:4466   */\n      dup8\n        /* \"#utility.yul\":4453:4475   */\n      add\n        /* \"#utility.yul\":4432:4485   */\n      tag_251\n      jump\t// in\n    tag_335:\n        /* \"#utility.yul\":4422:4485   */\n      swap2\n      pop\n        /* \"#utility.yul\":4377:4495   */\n      pop\n        /* \"#utility.yul\":3883:4502   */\n      swap3\n      pop\n      swap3\n      pop\n      swap3\n      jump\t// out\n        /* \"#utility.yul\":4508:4585   */\n    tag_252:\n        /* \"#utility.yul\":4545:4552   */\n      0x00\n        /* \"#utility.yul\":4574:4579   */\n      dup2\n        /* \"#utility.yul\":4563:4579   */\n      swap1\n      pop\n        /* \"#utility.yul\":4508:4585   */\n      swap2\n      swap1\n      pop\n      jump\t// out\n        /* \"#utility.yul\":4591:4709   */\n    tag_253:\n        /* \"#utility.yul\":4678:4702   */\n      tag_338\n        /* \"#utility.yul\":4696:4701   */\n      dup2\n        /* \"#utility.yul\":4678:4702   */\n      tag_252\n      jump\t// in\n    tag_338:\n        /* \"#utility.yul\":4673:4676   */\n      dup3\n        /* \"#utility.yul\":4666:4703   */\n      mstore\n        /* \"#utility.yul\":4591:4709   */\n      pop\n      pop\n      jump\t// out\n        /* \"#utility.yul\":4715:4937   */\n    tag_64:\n        /* \"#utility.yul\":4808:4812   */\n      0x00\n        /* \"#utility.yul\":4846:4848   */\n      0x20\n        /* \"#utility.yul\":4835:4844   */\n      dup3\n        /* \"#utility.yul\":4831:4849   */\n      add\n        /* \"#utility.yul\":4823:4849   */\n      swap1\n      pop\n        /* \"#utility.yul\":4859:4930   */\n      tag_340\n        /* \"#utility.yul\":4927:4928   */\n      0x00\n        /* \"#utility.yul\":4916:4925   */\n      dup4\n        /* \"#utility.yul\":4912:4929   */\n      add\n        /* \"#utility.yul\":4903:4909   */\n      dup5\n        /* \"#utility.yul\":4859:4930   */\n      tag_253\n      jump\t// in\n    tag_340:\n        /* \"#utility.yul\":4715:4937   */\n      swap3\n      swap2\n      pop\n      pop\n      jump\t// out\n        /* \"#utility.yul\":4943:5060   */\n    tag_254:\n        /* \"#utility.yul\":5052:5053   */\n      0x00\n        /* \"#utility.yul\":5049:5050   */\n      dup1\n        /* \"#utility.yul\":5042:5054   */\n      revert\n        /* \"#utility.yul\":5066:5183   */\n    tag_255:\n        /* \"#utility.yul\":5175:5176   */\n      0x00\n        /* \"#utility.yul\":5172:5173   */\n      dup1\n        /* \"#utility.yul\":5165:5177   */\n      revert\n        /* \"#utility.yul\":5189:5306   */\n    tag_256:\n        /* \"#utility.yul\":5298:5299   */\n      0x00\n        /* \"#utility.yul\":5295:5296   */\n      dup1\n        /* \"#utility.yul\":5288:5300   */\n      revert\n        /* \"#utility.yul\":5329:5897   */\n    tag_257:\n        /* \"#utility.yul\":5402:5410   */\n      0x00\n        /* \"#utility.yul\":5412:5418   */\n      dup1\n        /* \"#utility.yul\":5462:5465   */\n      dup4\n        /* \"#utility.yul\":5455:5459   */\n      0x1f\n        /* \"#utility.yul\":5447:5453   */\n      dup5\n        /* \"#utility.yul\":5443:5460   */\n      add\n        /* \"#utility.yul\":5439:5466   */\n      slt\n        /* \"#utility.yul\":5429:5551   */\n      tag_345\n      jumpi\n        /* \"#utility.yul\":5470:5549   */\n      tag_346\n      tag_254\n      jump\t// in\n    tag_346:\n        /* \"#utility.yul\":5429:5551   */\n    tag_345:\n        /* \"#utility.yul\":5583:5589   */\n      dup3\n        /* \"#utility.yul\":5570:5590   */\n      calldataload\n        /* \"#utility.yul\":5560:5590   */\n      swap1\n      pop\n        /* \"#utility.yul\":5613:5631   */\n      0xffffffffffffffff\n        /* \"#utility.yul\":5605:5611   */\n      dup2\n        /* \"#utility.yul\":5602:5632   */\n      gt\n        /* \"#utility.yul\":5599:5716   */\n      iszero\n      tag_347\n      jumpi\n        /* \"#utility.yul\":5635:5714   */\n      tag_348\n      tag_255\n      jump\t// in\n    tag_348:\n        /* \"#utility.yul\":5599:5716   */\n    tag_347:\n        /* \"#utility.yul\":5749:5753   */\n      0x20\n        /* \"#utility.yul\":5741:5747   */\n      dup4\n        /* \"#utility.yul\":5737:5754   */\n      add\n        /* \"#utility.yul\":5725:5754   */\n      swap2\n      pop\n        /* \"#utility.yul\":5803:5806   */\n      dup4\n        /* \"#utility.yul\":5795:5799   */\n      0x20\n        /* \"#utility.yul\":5787:5793   */\n      dup3\n        /* \"#utility.yul\":5783:5800   */\n      mul\n        /* \"#utility.yul\":5773:5781   */\n      dup4\n        /* \"#utility.yul\":5769:5801   */\n      add\n        /* \"#utility.yul\":5766:5807   */\n      gt\n        /* \"#utility.yul\":5763:5891   */\n      iszero\n      tag_349\n      jumpi\n        /* \"#utility.yul\":5810:5889   */\n      tag_350\n      tag_256\n      jump\t// in\n    tag_350:\n        /* \"#utility.yul\":5763:5891   */\n    tag_349:\n        /* \"#utility.yul\":5329:5897   */\n      swap3\n      pop\n      swap3\n      swap1\n      pop\n      jump\t// out\n        /* \"#utility.yul\":5920:6488   */\n    tag_258:\n        /* \"#utility.yul\":5993:6001   */\n      0x00\n        /* \"#utility.yul\":6003:6009   */\n      dup1\n        /* \"#utility.yul\":6053:6056   */\n      dup4\n        /* \"#utility.yul\":6046:6050   */\n      0x1f\n        /* \"#utility.yul\":6038:6044   */\n      dup5\n        /* \"#utility.yul\":6034:6051   */\n      add\n        /* \"#utility.yul\":6030:6057   */\n      slt\n        /* \"#utility.yul\":6020:6142   */\n      tag_352\n      jumpi\n        /* \"#utility.yul\":6061:6140   */\n      tag_353\n      tag_254\n      jump\t// in\n    tag_353:\n        /* \"#utility.yul\":6020:6142   */\n    tag_352:\n        /* \"#utility.yul\":6174:6180   */\n      dup3\n        /* \"#utility.yul\":6161:6181   */\n      calldataload\n        /* \"#utility.yul\":6151:6181   */\n      swap1\n      pop\n        /* \"#utility.yul\":6204:6222   */\n      0xffffffffffffffff\n        /* \"#utility.yul\":6196:6202   */\n      dup2\n        /* \"#utility.yul\":6193:6223   */\n      gt\n        /* \"#utility.yul\":6190:6307   */\n      iszero\n      tag_354\n      jumpi\n        /* \"#utility.yul\":6226:6305   */\n      tag_355\n      tag_255\n      jump\t// in\n    tag_355:\n        /* \"#utility.yul\":6190:6307   */\n    tag_354:\n        /* \"#utility.yul\":6340:6344   */\n      0x20\n        /* \"#utility.yul\":6332:6338   */\n      dup4\n        /* \"#utility.yul\":6328:6345   */\n      add\n        /* \"#utility.yul\":6316:6345   */\n      swap2\n      pop\n        /* \"#utility.yul\":6394:6397   */\n      dup4\n        /* \"#utility.yul\":6386:6390   */\n      0x20\n        /* \"#utility.yul\":6378:6384   */\n      dup3\n        /* \"#utility.yul\":6374:6391   */\n      mul\n        /* \"#utility.yul\":6364:6372   */\n      dup4\n        /* \"#utility.yul\":6360:6392   */\n      add\n        /* \"#utility.yul\":6357:6398   */\n      gt\n        /* \"#utility.yul\":6354:6482   */\n      iszero\n      tag_356\n      jumpi\n        /* \"#utility.yul\":6401:6480   */\n      tag_357\n      tag_256\n      jump\t// in\n    tag_357:\n        /* \"#utility.yul\":6354:6482   */\n    tag_356:\n        /* \"#utility.yul\":5920:6488   */\n      swap3\n      pop\n      swap3\n      swap1\n      pop\n      jump\t// out\n        /* \"#utility.yul\":6494:7573   */\n    tag_70:\n        /* \"#utility.yul\":6625:6631   */\n      0x00\n        /* \"#utility.yul\":6633:6639   */\n      dup1\n        /* \"#utility.yul\":6641:6647   */\n      0x00\n        /* \"#utility.yul\":6649:6655   */\n      dup1\n        /* \"#utility.yul\":6657:6663   */\n      0x00\n        /* \"#utility.yul\":6706:6708   */\n      0x60\n        /* \"#utility.yul\":6694:6703   */\n      dup7\n        /* \"#utility.yul\":6685:6692   */\n      dup9\n        /* \"#utility.yul\":6681:6704   */\n      sub\n        /* \"#utility.yul\":6677:6709   */\n      slt\n        /* \"#utility.yul\":6674:6793   */\n      iszero\n      tag_359\n      jumpi\n        /* \"#utility.yul\":6712:6791   */\n      tag_360\n      tag_237\n      jump\t// in\n    tag_360:\n        /* \"#utility.yul\":6674:6793   */\n    tag_359:\n        /* \"#utility.yul\":6860:6861   */\n      0x00\n        /* \"#utility.yul\":6849:6858   */\n      dup7\n        /* \"#utility.yul\":6845:6862   */\n      add\n        /* \"#utility.yul\":6832:6863   */\n      calldataload\n        /* \"#utility.yul\":6890:6908   */\n      0xffffffffffffffff\n        /* \"#utility.yul\":6882:6888   */\n      dup2\n        /* \"#utility.yul\":6879:6909   */\n      gt\n        /* \"#utility.yul\":6876:6993   */\n      iszero\n      tag_361\n      jumpi\n        /* \"#utility.yul\":6912:6991   */\n      tag_362\n      tag_238\n      jump\t// in\n    tag_362:\n        /* \"#utility.yul\":6876:6993   */\n    tag_361:\n        /* \"#utility.yul\":7025:7105   */\n      tag_363\n        /* \"#utility.yul\":7097:7104   */\n      dup9\n        /* \"#utility.yul\":7088:7094   */\n      dup3\n        /* \"#utility.yul\":7077:7086   */\n      dup10\n        /* \"#utility.yul\":7073:7095   */\n      add\n        /* \"#utility.yul\":7025:7105   */\n      tag_257\n      jump\t// in\n    tag_363:\n        /* \"#utility.yul\":7007:7105   */\n      swap6\n      pop\n      swap6\n      pop\n        /* \"#utility.yul\":6803:7115   */\n      pop\n        /* \"#utility.yul\":7154:7156   */\n      0x20\n        /* \"#utility.yul\":7180:7233   */\n      tag_364\n        /* \"#utility.yul\":7225:7232   */\n      dup9\n        /* \"#utility.yul\":7216:7222   */\n      dup3\n        /* \"#utility.yul\":7205:7214   */\n      dup10\n        /* \"#utility.yul\":7201:7223   */\n      add\n        /* \"#utility.yul\":7180:7233   */\n      tag_251\n      jump\t// in\n    tag_364:\n        /* \"#utility.yul\":7170:7233   */\n      swap4\n      pop\n        /* \"#utility.yul\":7125:7243   */\n      pop\n        /* \"#utility.yul\":7310:7312   */\n      0x40\n        /* \"#utility.yul\":7299:7308   */\n      dup7\n        /* \"#utility.yul\":7295:7313   */\n      add\n        /* \"#utility.yul\":7282:7314   */\n      calldataload\n        /* \"#utility.yul\":7341:7359   */\n      0xffffffffffffffff\n        /* \"#utility.yul\":7333:7339   */\n      dup2\n        /* \"#utility.yul\":7330:7360   */\n      gt\n        /* \"#utility.yul\":7327:7444   */\n      iszero\n      tag_365\n      jumpi\n        /* \"#utility.yul\":7363:7442   */\n      tag_366\n      tag_238\n      jump\t// in\n    tag_366:\n        /* \"#utility.yul\":7327:7444   */\n    tag_365:\n        /* \"#utility.yul\":7476:7556   */\n      tag_367\n        /* \"#utility.yul\":7548:7555   */\n      dup9\n        /* \"#utility.yul\":7539:7545   */\n      dup3\n        /* \"#utility.yul\":7528:7537   */\n      dup10\n        /* \"#utility.yul\":7524:7546   */\n      add\n        /* \"#utility.yul\":7476:7556   */\n      tag_258\n      jump\t// in\n    tag_367:\n        /* \"#utility.yul\":7458:7556   */\n      swap3\n      pop\n      swap3\n      pop\n        /* \"#utility.yul\":7253:7566   */\n      pop\n        /* \"#utility.yul\":6494:7573   */\n      swap3\n      swap6\n      pop\n      swap3\n      swap6\n      swap1\n      swap4\n      pop\n      jump\t// out\n        /* \"#utility.yul\":7579:7701   */\n    tag_259:\n        /* \"#utility.yul\":7652:7676   */\n      tag_369\n        /* \"#utility.yul\":7670:7675   */\n      dup2\n        /* \"#utility.yul\":7652:7676   */\n      tag_252\n      jump\t// in\n    tag_369:\n        /* \"#utility.yul\":7645:7650   */\n      dup2\n        /* \"#utility.yul\":7642:7677   */\n      eq\n        /* \"#utility.yul\":7632:7695   */\n      tag_370\n      jumpi\n        /* \"#utility.yul\":7691:7692   */\n      0x00\n        /* \"#utility.yul\":7688:7689   */\n      dup1\n        /* \"#utility.yul\":7681:7693   */\n      revert\n        /* \"#utility.yul\":7632:7695   */\n    tag_370:\n        /* \"#utility.yul\":7579:7701   */\n      pop\n      jump\t// out\n        /* \"#utility.yul\":7707:7846   */\n    tag_260:\n        /* \"#utility.yul\":7753:7758   */\n      0x00\n        /* \"#utility.yul\":7791:7797   */\n      dup2\n        /* \"#utility.yul\":7778:7798   */\n      calldataload\n        /* \"#utility.yul\":7769:7798   */\n      swap1\n      pop\n        /* \"#utility.yul\":7807:7840   */\n      tag_372\n        /* \"#utility.yul\":7834:7839   */\n      dup2\n        /* \"#utility.yul\":7807:7840   */\n      tag_259\n      jump\t// in\n    tag_372:\n        /* \"#utility.yul\":7707:7846   */\n      swap3\n      swap2\n      pop\n      pop\n      jump\t// out\n        /* \"#utility.yul\":7852:8471   */\n    tag_77:\n        /* \"#utility.yul\":7929:7935   */\n      0x00\n        /* \"#utility.yul\":7937:7943   */\n      dup1\n        /* \"#utility.yul\":7945:7951   */\n      0x00\n        /* \"#utility.yul\":7994:7996   */\n      0x60\n        /* \"#utility.yul\":7982:7991   */\n      dup5\n        /* \"#utility.yul\":7973:7980   */\n      dup7\n        /* \"#utility.yul\":7969:7992   */\n      sub\n        /* \"#utility.yul\":7965:7997   */\n      slt\n        /* \"#utility.yul\":7962:8081   */\n      iszero\n      tag_374\n      jumpi\n        /* \"#utility.yul\":8000:8079   */\n      tag_375\n      tag_237\n      jump\t// in\n    tag_375:\n        /* \"#utility.yul\":7962:8081   */\n    tag_374:\n        /* \"#utility.yul\":8120:8121   */\n      0x00\n        /* \"#utility.yul\":8145:8198   */\n      tag_376\n        /* \"#utility.yul\":8190:8197   */\n      dup7\n        /* \"#utility.yul\":8181:8187   */\n      dup3\n        /* \"#utility.yul\":8170:8179   */\n      dup8\n        /* \"#utility.yul\":8166:8188   */\n      add\n        /* \"#utility.yul\":8145:8198   */\n      tag_251\n      jump\t// in\n    tag_376:\n        /* \"#utility.yul\":8135:8198   */\n      swap4\n      pop\n        /* \"#utility.yul\":8091:8208   */\n      pop\n        /* \"#utility.yul\":8247:8249   */\n      0x20\n        /* \"#utility.yul\":8273:8326   */\n      tag_377\n        /* \"#utility.yul\":8318:8325   */\n      dup7\n        /* \"#utility.yul\":8309:8315   */\n      dup3\n        /* \"#utility.yul\":8298:8307   */\n      dup8\n        /* \"#utility.yul\":8294:8316   */\n      add\n        /* \"#utility.yul\":8273:8326   */\n      tag_251\n      jump\t// in\n    tag_377:\n        /* \"#utility.yul\":8263:8326   */\n      swap3\n      pop\n        /* \"#utility.yul\":8218:8336   */\n      pop\n        /* \"#utility.yul\":8375:8377   */\n      0x40\n        /* \"#utility.yul\":8401:8454   */\n      tag_378\n        /* \"#utility.yul\":8446:8453   */\n      dup7\n        /* \"#utility.yul\":8437:8443   */\n      dup3\n        /* \"#utility.yul\":8426:8435   */\n      dup8\n        /* \"#utility.yul\":8422:8444   */\n      add\n        /* \"#utility.yul\":8401:8454   */\n      tag_260\n      jump\t// in\n    tag_378:\n        /* \"#utility.yul\":8391:8454   */\n      swap2\n      pop\n        /* \"#utility.yul\":8346:8464   */\n      pop\n        /* \"#utility.yul\":7852:8471   */\n      swap3\n      pop\n      swap3\n      pop\n      swap3\n      jump\t// out\n        /* \"#utility.yul\":8477:9242   */\n    tag_81:\n        /* \"#utility.yul\":8563:8569   */\n      0x00\n        /* \"#utility.yul\":8571:8577   */\n      dup1\n        /* \"#utility.yul\":8579:8585   */\n      0x00\n        /* \"#utility.yul\":8587:8593   */\n      dup1\n        /* \"#utility.yul\":8636:8639   */\n      0x80\n        /* \"#utility.yul\":8624:8633   */\n      dup6\n        /* \"#utility.yul\":8615:8622   */\n      dup8\n        /* \"#utility.yul\":8611:8634   */\n      sub\n        /* \"#utility.yul\":8607:8640   */\n      slt\n        /* \"#utility.yul\":8604:8724   */\n      iszero\n      tag_380\n      jumpi\n        /* \"#utility.yul\":8643:8722   */\n      tag_381\n      tag_237\n      jump\t// in\n    tag_381:\n        /* \"#utility.yul\":8604:8724   */\n    tag_380:\n        /* \"#utility.yul\":8763:8764   */\n      0x00\n        /* \"#utility.yul\":8788:8841   */\n      tag_382\n        /* \"#utility.yul\":8833:8840   */\n      dup8\n        /* \"#utility.yul\":8824:8830   */\n      dup3\n        /* \"#utility.yul\":8813:8822   */\n      dup9\n        /* \"#utility.yul\":8809:8831   */\n      add\n        /* \"#utility.yul\":8788:8841   */\n      tag_251\n      jump\t// in\n    tag_382:\n        /* \"#utility.yul\":8778:8841   */\n      swap5\n      pop\n        /* \"#utility.yul\":8734:8851   */\n      pop\n        /* \"#utility.yul\":8890:8892   */\n      0x20\n        /* \"#utility.yul\":8916:8969   */\n      tag_383\n        /* \"#utility.yul\":8961:8968   */\n      dup8\n        /* \"#utility.yul\":8952:8958   */\n      dup3\n        /* \"#utility.yul\":8941:8950   */\n      dup9\n        /* \"#utility.yul\":8937:8959   */\n      add\n        /* \"#utility.yul\":8916:8969   */\n      tag_251\n      jump\t// in\n    tag_383:\n        /* \"#utility.yul\":8906:8969   */\n      swap4\n      pop\n        /* \"#utility.yul\":8861:8979   */\n      pop\n        /* \"#utility.yul\":9018:9020   */\n      0x40\n        /* \"#utility.yul\":9044:9097   */\n      tag_384\n        /* \"#utility.yul\":9089:9096   */\n      dup8\n        /* \"#utility.yul\":9080:9086   */\n      dup3\n        /* \"#utility.yul\":9069:9078   */\n      dup9\n        /* \"#utility.yul\":9065:9087   */\n      add\n        /* \"#utility.yul\":9044:9097   */\n      tag_251\n      jump\t// in\n    tag_384:\n        /* \"#utility.yul\":9034:9097   */\n      swap3\n      pop\n        /* \"#utility.yul\":8989:9107   */\n      pop\n        /* \"#utility.yul\":9146:9148   */\n      0x60\n        /* \"#utility.yul\":9172:9225   */\n      tag_385\n        /* \"#utility.yul\":9217:9224   */\n      dup8\n        /* \"#utility.yul\":9208:9214   */\n      dup3\n        /* \"#utility.yul\":9197:9206   */\n      dup9\n        /* \"#utility.yul\":9193:9215   */\n      add\n        /* \"#utility.yul\":9172:9225   */\n      tag_260\n      jump\t// in\n    tag_385:\n        /* \"#utility.yul\":9162:9225   */\n      swap2\n      pop\n        /* \"#utility.yul\":9117:9235   */\n      pop\n        /* \"#utility.yul\":8477:9242   */\n      swap3\n      swap6\n      swap2\n      swap5\n      pop\n      swap3\n      pop\n      jump\t// out\n        /* \"#utility.yul\":9248:9428   */\n    tag_122:\n        /* \"#utility.yul\":9296:9373   */\n      0x4e487b7100000000000000000000000000000000000000000000000000000000\n        /* \"#utility.yul\":9293:9294   */\n      0x00\n        /* \"#utility.yul\":9286:9374   */\n      mstore\n        /* \"#utility.yul\":9393:9397   */\n      0x32\n        /* \"#utility.yul\":9390:9391   */\n      0x04\n        /* \"#utility.yul\":9383:9398   */\n      mstore\n        /* \"#utility.yul\":9417:9421   */\n      0x24\n        /* \"#utility.yul\":9414:9415   */\n      0x00\n        /* \"#utility.yul\":9407:9422   */\n      revert\n        /* \"#utility.yul\":9434:9614   */\n    tag_261:\n        /* \"#utility.yul\":9482:9559   */\n      0x4e487b7100000000000000000000000000000000000000000000000000000000\n        /* \"#utility.yul\":9479:9480   */\n      0x00\n        /* \"#utility.yul\":9472:9560   */\n      mstore\n        /* \"#utility.yul\":9579:9583   */\n      0x11\n        /* \"#utility.yul\":9576:9577   */\n      0x04\n        /* \"#utility.yul\":9569:9584   */\n      mstore\n        /* \"#utility.yul\":9603:9607   */\n      0x24\n        /* \"#utility.yul\":9600:9601   */\n      0x00\n        /* \"#utility.yul\":9593:9608   */\n      revert\n        /* \"#utility.yul\":9620:9811   */\n    tag_124:\n        /* \"#utility.yul\":9660:9663   */\n      0x00\n        /* \"#utility.yul\":9679:9699   */\n      tag_389\n        /* \"#utility.yul\":9697:9698   */\n      dup3\n        /* \"#utility.yul\":9679:9699   */\n      tag_252\n      jump\t// in\n    tag_389:\n        /* \"#utility.yul\":9674:9699   */\n      swap2\n      pop\n        /* \"#utility.yul\":9713:9733   */\n      tag_390\n        /* \"#utility.yul\":9731:9732   */\n      dup4\n        /* \"#utility.yul\":9713:9733   */\n      tag_252\n      jump\t// in\n    tag_390:\n        /* \"#utility.yul\":9708:9733   */\n      swap3\n      pop\n        /* \"#utility.yul\":9756:9757   */\n      dup3\n        /* \"#utility.yul\":9753:9754   */\n      dup3\n        /* \"#utility.yul\":9749:9758   */\n      add\n        /* \"#utility.yul\":9742:9758   */\n      swap1\n      pop\n        /* \"#utility.yul\":9777:9780   */\n      dup1\n        /* \"#utility.yul\":9774:9775   */\n      dup3\n        /* \"#utility.yul\":9771:9781   */\n      gt\n        /* \"#utility.yul\":9768:9804   */\n      iszero\n      tag_391\n      jumpi\n        /* \"#utility.yul\":9784:9802   */\n      tag_392\n      tag_261\n      jump\t// in\n    tag_392:\n        /* \"#utility.yul\":9768:9804   */\n    tag_391:\n        /* \"#utility.yul\":9620:9811   */\n      swap3\n      swap2\n      pop\n      pop\n      jump\t// out\n        /* \"#utility.yul\":9817:10001   */\n    tag_262:\n        /* \"#utility.yul\":9916:9927   */\n      0x00\n        /* \"#utility.yul\":9950:9956   */\n      dup3\n        /* \"#utility.yul\":9945:9948   */\n      dup3\n        /* \"#utility.yul\":9938:9957   */\n      mstore\n        /* \"#utility.yul\":9990:9994   */\n      0x20\n        /* \"#utility.yul\":9985:9988   */\n      dup3\n        /* \"#utility.yul\":9981:9995   */\n      add\n        /* \"#utility.yul\":9966:9995   */\n      swap1\n      pop\n        /* \"#utility.yul\":9817:10001   */\n      swap3\n      swap2\n      pop\n      pop\n      jump\t// out\n        /* \"#utility.yul\":10007:10109   */\n    tag_263:\n        /* \"#utility.yul\":10076:10080   */\n      0x00\n        /* \"#utility.yul\":10099:10102   */\n      dup2\n        /* \"#utility.yul\":10091:10102   */\n      swap1\n      pop\n        /* \"#utility.yul\":10007:10109   */\n      swap2\n      swap1\n      pop\n      jump\t// out\n        /* \"#utility.yul\":10115:10223   */\n    tag_264:\n        /* \"#utility.yul\":10192:10216   */\n      tag_396\n        /* \"#utility.yul\":10210:10215   */\n      dup2\n        /* \"#utility.yul\":10192:10216   */\n      tag_249\n      jump\t// in\n    tag_396:\n        /* \"#utility.yul\":10187:10190   */\n      dup3\n        /* \"#utility.yul\":10180:10217   */\n      mstore\n        /* \"#utility.yul\":10115:10223   */\n      pop\n      pop\n      jump\t// out\n        /* \"#utility.yul\":10229:10408   */\n    tag_265:\n        /* \"#utility.yul\":10298:10308   */\n      0x00\n        /* \"#utility.yul\":10319:10365   */\n      tag_398\n        /* \"#utility.yul\":10361:10364   */\n      dup4\n        /* \"#utility.yul\":10353:10359   */\n      dup4\n        /* \"#utility.yul\":10319:10365   */\n      tag_264\n      jump\t// in\n    tag_398:\n        /* \"#utility.yul\":10397:10401   */\n      0x20\n        /* \"#utility.yul\":10392:10395   */\n      dup4\n        /* \"#utility.yul\":10388:10402   */\n      add\n        /* \"#utility.yul\":10374:10402   */\n      swap1\n      pop\n        /* \"#utility.yul\":10229:10408   */\n      swap3\n      swap2\n      pop\n      pop\n      jump\t// out\n        /* \"#utility.yul\":10414:10536   */\n    tag_266:\n        /* \"#utility.yul\":10466:10471   */\n      0x00\n        /* \"#utility.yul\":10491:10530   */\n      tag_400\n        /* \"#utility.yul\":10526:10528   */\n      0x20\n        /* \"#utility.yul\":10521:10524   */\n      dup5\n        /* \"#utility.yul\":10517:10529   */\n      add\n        /* \"#utility.yul\":10512:10515   */\n      dup5\n        /* \"#utility.yul\":10491:10530   */\n      tag_251\n      jump\t// in\n    tag_400:\n        /* \"#utility.yul\":10482:10530   */\n      swap1\n      pop\n        /* \"#utility.yul\":10414:10536   */\n      swap3\n      swap2\n      pop\n      pop\n      jump\t// out\n        /* \"#utility.yul\":10542:10657   */\n    tag_267:\n        /* \"#utility.yul\":10614:10618   */\n      0x00\n        /* \"#utility.yul\":10646:10650   */\n      0x20\n        /* \"#utility.yul\":10641:10644   */\n      dup3\n        /* \"#utility.yul\":10637:10651   */\n      add\n        /* \"#utility.yul\":10629:10651   */\n      swap1\n      pop\n        /* \"#utility.yul\":10542:10657   */\n      swap2\n      swap1\n      pop\n      jump\t// out\n        /* \"#utility.yul\":10693:11392   */\n    tag_268:\n        /* \"#utility.yul\":10822:10825   */\n      0x00\n        /* \"#utility.yul\":10845:10931   */\n      tag_403\n        /* \"#utility.yul\":10924:10930   */\n      dup4\n        /* \"#utility.yul\":10919:10922   */\n      dup6\n        /* \"#utility.yul\":10845:10931   */\n      tag_262\n      jump\t// in\n    tag_403:\n        /* \"#utility.yul\":10838:10931   */\n      swap4\n      pop\n        /* \"#utility.yul\":10955:11013   */\n      tag_404\n        /* \"#utility.yul\":11007:11012   */\n      dup3\n        /* \"#utility.yul\":10955:11013   */\n      tag_263\n      jump\t// in\n    tag_404:\n        /* \"#utility.yul\":11036:11043   */\n      dup1\n        /* \"#utility.yul\":11067:11068   */\n      0x00\n        /* \"#utility.yul\":11052:11367   */\n    tag_405:\n        /* \"#utility.yul\":11077:11083   */\n      dup6\n        /* \"#utility.yul\":11074:11075   */\n      dup2\n        /* \"#utility.yul\":11071:11084   */\n      lt\n        /* \"#utility.yul\":11052:11367   */\n      iszero\n      tag_407\n      jumpi\n        /* \"#utility.yul\":11147:11189   */\n      tag_408\n        /* \"#utility.yul\":11182:11188   */\n      dup3\n        /* \"#utility.yul\":11173:11180   */\n      dup5\n        /* \"#utility.yul\":11147:11189   */\n      tag_266\n      jump\t// in\n    tag_408:\n        /* \"#utility.yul\":11209:11272   */\n      tag_409\n        /* \"#utility.yul\":11268:11271   */\n      dup9\n        /* \"#utility.yul\":11253:11266   */\n      dup3\n        /* \"#utility.yul\":11209:11272   */\n      tag_265\n      jump\t// in\n    tag_409:\n        /* \"#utility.yul\":11202:11272   */\n      swap8\n      pop\n        /* \"#utility.yul\":11295:11357   */\n      tag_410\n        /* \"#utility.yul\":11350:11356   */\n      dup4\n        /* \"#utility.yul\":11295:11357   */\n      tag_267\n      jump\t// in\n    tag_410:\n        /* \"#utility.yul\":11285:11357   */\n      swap3\n      pop\n        /* \"#utility.yul\":11112:11367   */\n      pop\n        /* \"#utility.yul\":11099:11100   */\n      0x01\n        /* \"#utility.yul\":11096:11097   */\n      dup2\n        /* \"#utility.yul\":11092:11101   */\n      add\n        /* \"#utility.yul\":11087:11101   */\n      swap1\n      pop\n        /* \"#utility.yul\":11052:11367   */\n      jump(tag_405)\n    tag_407:\n        /* \"#utility.yul\":11056:11070   */\n      pop\n        /* \"#utility.yul\":11383:11386   */\n      dup6\n        /* \"#utility.yul\":11376:11386   */\n      swap3\n      pop\n        /* \"#utility.yul\":10827:11392   */\n      pop\n      pop\n        /* \"#utility.yul\":10693:11392   */\n      swap4\n      swap3\n      pop\n      pop\n      pop\n      jump\t// out\n        /* \"#utility.yul\":11398:11582   */\n    tag_269:\n        /* \"#utility.yul\":11497:11508   */\n      0x00\n        /* \"#utility.yul\":11531:11537   */\n      dup3\n        /* \"#utility.yul\":11526:11529   */\n      dup3\n        /* \"#utility.yul\":11519:11538   */\n      mstore\n        /* \"#utility.yul\":11571:11575   */\n      0x20\n        /* \"#utility.yul\":11566:11569   */\n      dup3\n        /* \"#utility.yul\":11562:11576   */\n      add\n        /* \"#utility.yul\":11547:11576   */\n      swap1\n      pop\n        /* \"#utility.yul\":11398:11582   */\n      swap3\n      swap2\n      pop\n      pop\n      jump\t// out\n        /* \"#utility.yul\":11588:11705   */\n    tag_270:\n        /* \"#utility.yul\":11697:11698   */\n      0x00\n        /* \"#utility.yul\":11694:11695   */\n      dup1\n        /* \"#utility.yul\":11687:11699   */\n      revert\n        /* \"#utility.yul\":11711:11810   */\n    tag_271:\n        /* \"#utility.yul\":11796:11802   */\n      dup3\n        /* \"#utility.yul\":11791:11794   */\n      dup2\n        /* \"#utility.yul\":11786:11789   */\n      dup4\n        /* \"#utility.yul\":11773:11803   */\n      calldatacopy\n        /* \"#utility.yul\":11711:11810   */\n      pop\n      pop\n      pop\n      jump\t// out\n        /* \"#utility.yul\":11846:12383   */\n    tag_272:\n        /* \"#utility.yul\":11974:11977   */\n      0x00\n        /* \"#utility.yul\":11995:12081   */\n      tag_415\n        /* \"#utility.yul\":12074:12080   */\n      dup4\n        /* \"#utility.yul\":12069:12072   */\n      dup6\n        /* \"#utility.yul\":11995:12081   */\n      tag_269\n      jump\t// in\n    tag_415:\n        /* \"#utility.yul\":11988:12081   */\n      swap4\n      pop\n        /* \"#utility.yul\":12105:12171   */\n      0x07ffffffffffffffffffffffffffffffffffffffffffffffffffffffffffffff\n        /* \"#utility.yul\":12097:12103   */\n      dup4\n        /* \"#utility.yul\":12094:12172   */\n      gt\n        /* \"#utility.yul\":12091:12256   */\n      iszero\n      tag_416\n      jumpi\n        /* \"#utility.yul\":12175:12254   */\n      tag_417\n      tag_270\n      jump\t// in\n    tag_417:\n        /* \"#utility.yul\":12091:12256   */\n    tag_416:\n        /* \"#utility.yul\":12287:12291   */\n      0x20\n        /* \"#utility.yul\":12279:12285   */\n      dup4\n        /* \"#utility.yul\":12275:12292   */\n      mul\n        /* \"#utility.yul\":12265:12292   */\n      swap3\n      pop\n        /* \"#utility.yul\":12302:12345   */\n      tag_418\n        /* \"#utility.yul\":12338:12344   */\n      dup4\n        /* \"#utility.yul\":12333:12336   */\n      dup6\n        /* \"#utility.yul\":12326:12331   */\n      dup5\n        /* \"#utility.yul\":12302:12345   */\n      tag_271\n      jump\t// in\n    tag_418:\n        /* \"#utility.yul\":12370:12376   */\n      dup3\n        /* \"#utility.yul\":12365:12368   */\n      dup5\n        /* \"#utility.yul\":12361:12377   */\n      add\n        /* \"#utility.yul\":12354:12377   */\n      swap1\n      pop\n        /* \"#utility.yul\":11846:12383   */\n      swap4\n      swap3\n      pop\n      pop\n      pop\n      jump\t// out\n        /* \"#utility.yul\":12389:13063   */\n    tag_138:\n        /* \"#utility.yul\":12630:12634   */\n      0x00\n        /* \"#utility.yul\":12668:12670   */\n      0x40\n        /* \"#utility.yul\":12657:12666   */\n      dup3\n        /* \"#utility.yul\":12653:12671   */\n      add\n        /* \"#utility.yul\":12645:12671   */\n      swap1\n      pop\n        /* \"#utility.yul\":12717:12726   */\n      dup2\n        /* \"#utility.yul\":12711:12715   */\n      dup2\n        /* \"#utility.yul\":12707:12727   */\n      sub\n        /* \"#utility.yul\":12703:12704   */\n      0x00\n        /* \"#utility.yul\":12692:12701   */\n      dup4\n        /* \"#utility.yul\":12688:12705   */\n      add\n        /* \"#utility.yul\":12681:12728   */\n      mstore\n        /* \"#utility.yul\":12745:12863   */\n      tag_420\n        /* \"#utility.yul\":12858:12862   */\n      dup2\n        /* \"#utility.yul\":12849:12855   */\n      dup7\n        /* \"#utility.yul\":12841:12847   */\n      dup9\n        /* \"#utility.yul\":12745:12863   */\n      tag_268\n      jump\t// in\n    tag_420:\n        /* \"#utility.yul\":12737:12863   */\n      swap1\n      pop\n        /* \"#utility.yul\":12910:12919   */\n      dup2\n        /* \"#utility.yul\":12904:12908   */\n      dup2\n        /* \"#utility.yul\":12900:12920   */\n      sub\n        /* \"#utility.yul\":12895:12897   */\n      0x20\n        /* \"#utility.yul\":12884:12893   */\n      dup4\n        /* \"#utility.yul\":12880:12898   */\n      add\n        /* \"#utility.yul\":12873:12921   */\n      mstore\n        /* \"#utility.yul\":12938:13056   */\n      tag_421\n        /* \"#utility.yul\":13051:13055   */\n      dup2\n        /* \"#utility.yul\":13042:13048   */\n      dup5\n        /* \"#utility.yul\":13034:13040   */\n      dup7\n        /* \"#utility.yul\":12938:13056   */\n      tag_272\n      jump\t// in\n    tag_421:\n        /* \"#utility.yul\":12930:13056   */\n      swap1\n      pop\n        /* \"#utility.yul\":12389:13063   */\n      swap6\n      swap5\n      pop\n      pop\n      pop\n      pop\n      pop\n      jump\t// out\n        /* \"#utility.yul\":13069:13187   */\n    tag_273:\n        /* \"#utility.yul\":13156:13180   */\n      tag_423\n        /* \"#utility.yul\":13174:13179   */\n      dup2\n        /* \"#utility.yul\":13156:13180   */\n      tag_249\n      jump\t// in\n    tag_423:\n        /* \"#utility.yul\":13151:13154   */\n      dup3\n        /* \"#utility.yul\":13144:13181   */\n      mstore\n        /* \"#utility.yul\":13069:13187   */\n      pop\n      pop\n      jump\t// out\n        /* \"#utility.yul\":13193:13857   */\n    tag_153:\n        /* \"#utility.yul\":13398:13402   */\n      0x00\n        /* \"#utility.yul\":13436:13439   */\n      0xa0\n        /* \"#utility.yul\":13425:13434   */\n      dup3\n        /* \"#utility.yul\":13421:13440   */\n      add\n        /* \"#utility.yul\":13413:13440   */\n      swap1\n      pop\n        /* \"#utility.yul\":13450:13521   */\n      tag_425\n        /* \"#utility.yul\":13518:13519   */\n      0x00\n        /* \"#utility.yul\":13507:13516   */\n      dup4\n        /* \"#utility.yul\":13503:13520   */\n      add\n        /* \"#utility.yul\":13494:13500   */\n      dup9\n        /* \"#utility.yul\":13450:13521   */\n      tag_273\n      jump\t// in\n    tag_425:\n        /* \"#utility.yul\":13531:13603   */\n      tag_426\n        /* \"#utility.yul\":13599:13601   */\n      0x20\n        /* \"#utility.yul\":13588:13597   */\n      dup4\n        /* \"#utility.yul\":13584:13602   */\n      add\n        /* \"#utility.yul\":13575:13581   */\n      dup8\n        /* \"#utility.yul\":13531:13603   */\n      tag_273\n      jump\t// in\n    tag_426:\n        /* \"#utility.yul\":13613:13685   */\n      tag_427\n        /* \"#utility.yul\":13681:13683   */\n      0x40\n        /* \"#utility.yul\":13670:13679   */\n      dup4\n        /* \"#utility.yul\":13666:13684   */\n      add\n        /* \"#utility.yul\":13657:13663   */\n      dup7\n        /* \"#utility.yul\":13613:13685   */\n      tag_273\n      jump\t// in\n    tag_427:\n        /* \"#utility.yul\":13695:13767   */\n      tag_428\n        /* \"#utility.yul\":13763:13765   */\n      0x60\n        /* \"#utility.yul\":13752:13761   */\n      dup4\n        /* \"#utility.yul\":13748:13766   */\n      add\n        /* \"#utility.yul\":13739:13745   */\n      dup6\n        /* \"#utility.yul\":13695:13767   */\n      tag_253\n      jump\t// in\n    tag_428:\n        /* \"#utility.yul\":13777:13850   */\n      tag_429\n        /* \"#utility.yul\":13845:13848   */\n      0x80\n        /* \"#utility.yul\":13834:13843   */\n      dup4\n        /* \"#utility.yul\":13830:13849   */\n      add\n        /* \"#utility.yul\":13821:13827   */\n      dup5\n        /* \"#utility.yul\":13777:13850   */\n      tag_253\n      jump\t// in\n    tag_429:\n        /* \"#utility.yul\":13193:13857   */\n      swap7\n      swap6\n      pop\n      pop\n      pop\n      pop\n      pop\n      pop\n      jump\t// out\n        /* \"#utility.yul\":13863:14305   */\n    tag_182:\n        /* \"#utility.yul\":14012:14016   */\n      0x00\n        /* \"#utility.yul\":14050:14052   */\n      0x60\n        /* \"#utility.yul\":14039:14048   */\n      dup3\n        /* \"#utility.yul\":14035:14053   */\n      add\n        /* \"#utility.yul\":14027:14053   */\n      swap1\n      pop\n        /* \"#utility.yul\":14063:14134   */\n      tag_431\n        /* \"#utility.yul\":14131:14132   */\n      0x00\n        /* \"#utility.yul\":14120:14129   */\n      dup4\n        /* \"#utility.yul\":14116:14133   */\n      add\n        /* \"#utility.yul\":14107:14113   */\n      dup7\n        /* \"#utility.yul\":14063:14134   */\n      tag_273\n      jump\t// in\n    tag_431:\n        /* \"#utility.yul\":14144:14216   */\n      tag_432\n        /* \"#utility.yul\":14212:14214   */\n      0x20\n        /* \"#utility.yul\":14201:14210   */\n      dup4\n        /* \"#utility.yul\":14197:14215   */\n      add\n        /* \"#utility.yul\":14188:14194   */\n      dup6\n        /* \"#utility.yul\":14144:14216   */\n      tag_273\n      jump\t// in\n    tag_432:\n        /* \"#utility.yul\":14226:14298   */\n      tag_433\n        /* \"#utility.yul\":14294:14296   */\n      0x40\n        /* \"#utility.yul\":14283:14292   */\n      dup4\n        /* \"#utility.yul\":14279:14297   */\n      add\n        /* \"#utility.yul\":14270:14276   */\n      dup5\n        /* \"#utility.yul\":14226:14298   */\n      tag_253\n      jump\t// in\n    tag_433:\n        /* \"#utility.yul\":13863:14305   */\n      swap5\n      swap4\n      pop\n      pop\n      pop\n      pop\n      jump\t// out\n        /* \"#utility.yul\":14311:14533   */\n    tag_187:\n        /* \"#utility.yul\":14404:14408   */\n      0x00\n        /* \"#utility.yul\":14442:14444   */\n      0x20\n        /* \"#utility.yul\":14431:14440   */\n      dup3\n        /* \"#utility.yul\":14427:14445   */\n      add\n        /* \"#utility.yul\":14419:14445   */\n      swap1\n      pop\n        /* \"#utility.yul\":14455:14526   */\n      tag_435\n        /* \"#utility.yul\":14523:14524   */\n      0x00\n        /* \"#utility.yul\":14512:14521   */\n      dup4\n        /* \"#utility.yul\":14508:14525   */\n      add\n        /* \"#utility.yul\":14499:14505   */\n      dup5\n        /* \"#utility.yul\":14455:14526   */\n      tag_273\n      jump\t// in\n    tag_435:\n        /* \"#utility.yul\":14311:14533   */\n      swap3\n      swap2\n      pop\n      pop\n      jump\t// out\n        /* \"#utility.yul\":14539:14871   */\n    tag_199:\n        /* \"#utility.yul\":14660:14664   */\n      0x00\n        /* \"#utility.yul\":14698:14700   */\n      0x40\n        /* \"#utility.yul\":14687:14696   */\n      dup3\n        /* \"#utility.yul\":14683:14701   */\n      add\n        /* \"#utility.yul\":14675:14701   */\n      swap1\n      pop\n        /* \"#utility.yul\":14711:14782   */\n      tag_437\n        /* \"#utility.yul\":14779:14780   */\n      0x00\n        /* \"#utility.yul\":14768:14777   */\n      dup4\n        /* \"#utility.yul\":14764:14781   */\n      add\n        /* \"#utility.yul\":14755:14761   */\n      dup6\n        /* \"#utility.yul\":14711:14782   */\n      tag_273\n      jump\t// in\n    tag_437:\n        /* \"#utility.yul\":14792:14864   */\n      tag_438\n        /* \"#utility.yul\":14860:14862   */\n      0x20\n        /* \"#utility.yul\":14849:14858   */\n      dup4\n        /* \"#utility.yul\":14845:14863   */\n      add\n        /* \"#utility.yul\":14836:14842   */\n      dup5\n        /* \"#utility.yul\":14792:14864   */\n      tag_247\n      jump\t// in\n    tag_438:\n        /* \"#utility.yul\":14539:14871   */\n      swap4\n      swap3\n      pop\n      pop\n      pop\n      jump\t// out\n        /* \"#utility.yul\":14877:14993   */\n    tag_274:\n        /* \"#utility.yul\":14947:14968   */\n      tag_440\n        /* \"#utility.yul\":14962:14967   */\n      dup2\n        /* \"#utility.yul\":14947:14968   */\n      tag_242\n      jump\t// in\n    tag_440:\n        /* \"#utility.yul\":14940:14945   */\n      dup2\n        /* \"#utility.yul\":14937:14969   */\n      eq\n        /* \"#utility.yul\":14927:14987   */\n      tag_441\n      jumpi\n        /* \"#utility.yul\":14983:14984   */\n      0x00\n        /* \"#utility.yul\":14980:14981   */\n      dup1\n        /* \"#utility.yul\":14973:14985   */\n      revert\n        /* \"#utility.yul\":14927:14987   */\n    tag_441:\n        /* \"#utility.yul\":14877:14993   */\n      pop\n      jump\t// out\n        /* \"#utility.yul\":14999:15136   */\n    tag_275:\n        /* \"#utility.yul\":15053:15058   */\n      0x00\n        /* \"#utility.yul\":15084:15090   */\n      dup2\n        /* \"#utility.yul\":15078:15091   */\n      mload\n        /* \"#utility.yul\":15069:15091   */\n      swap1\n      pop\n        /* \"#utility.yul\":15100:15130   */\n      tag_443\n        /* \"#utility.yul\":15124:15129   */\n      dup2\n        /* \"#utility.yul\":15100:15130   */\n      tag_274\n      jump\t// in\n    tag_443:\n        /* \"#utility.yul\":14999:15136   */\n      swap3\n      swap2\n      pop\n      pop\n      jump\t// out\n        /* \"#utility.yul\":15142:15487   */\n    tag_205:\n        /* \"#utility.yul\":15209:15215   */\n      0x00\n        /* \"#utility.yul\":15258:15260   */\n      0x20\n        /* \"#utility.yul\":15246:15255   */\n      dup3\n        /* \"#utility.yul\":15237:15244   */\n      dup5\n        /* \"#utility.yul\":15233:15256   */\n      sub\n        /* \"#utility.yul\":15229:15261   */\n      slt\n        /* \"#utility.yul\":15226:15345   */\n      iszero\n      tag_445\n      jumpi\n        /* \"#utility.yul\":15264:15343   */\n      tag_446\n      tag_237\n      jump\t// in\n    tag_446:\n        /* \"#utility.yul\":15226:15345   */\n    tag_445:\n        /* \"#utility.yul\":15384:15385   */\n      0x00\n        /* \"#utility.yul\":15409:15470   */\n      tag_447\n        /* \"#utility.yul\":15462:15469   */\n      dup5\n        /* \"#utility.yul\":15453:15459   */\n      dup3\n        /* \"#utility.yul\":15442:15451   */\n      dup6\n        /* \"#utility.yul\":15438:15460   */\n      add\n        /* \"#utility.yul\":15409:15470   */\n      tag_275\n      jump\t// in\n    tag_447:\n        /* \"#utility.yul\":15399:15470   */\n      swap2\n      pop\n        /* \"#utility.yul\":15355:15480   */\n      pop\n        /* \"#utility.yul\":15142:15487   */\n      swap3\n      swap2\n      pop\n      pop\n      jump\t// out\n        /* \"#utility.yul\":15493:15825   */\n    tag_211:\n        /* \"#utility.yul\":15614:15618   */\n      0x00\n        /* \"#utility.yul\":15652:15654   */\n      0x40\n        /* \"#utility.yul\":15641:15650   */\n      dup3\n        /* \"#utility.yul\":15637:15655   */\n      add\n        /* \"#utility.yul\":15629:15655   */\n      swap1\n      pop\n        /* \"#utility.yul\":15665:15736   */\n      tag_449\n        /* \"#utility.yul\":15733:15734   */\n      0x00\n        /* \"#utility.yul\":15722:15731   */\n      dup4\n        /* \"#utility.yul\":15718:15735   */\n      add\n        /* \"#utility.yul\":15709:15715   */\n      dup6\n        /* \"#utility.yul\":15665:15736   */\n      tag_273\n      jump\t// in\n    tag_449:\n        /* \"#utility.yul\":15746:15818   */\n      tag_450\n        /* \"#utility.yul\":15814:15816   */\n      0x20\n        /* \"#utility.yul\":15803:15812   */\n      dup4\n        /* \"#utility.yul\":15799:15817   */\n      add\n        /* \"#utility.yul\":15790:15796   */\n      dup5\n        /* \"#utility.yul\":15746:15818   */\n      tag_253\n      jump\t// in\n    tag_450:\n        /* \"#utility.yul\":15493:15825   */\n      swap4\n      swap3\n      pop\n      pop\n      pop\n      jump\t// out\n        /* \"#utility.yul\":15831:15929   */\n    tag_276:\n        /* \"#utility.yul\":15882:15888   */\n      0x00\n        /* \"#utility.yul\":15916:15921   */\n      dup2\n        /* \"#utility.yul\":15910:15922   */\n      mload\n        /* \"#utility.yul\":15900:15922   */\n      swap1\n      pop\n        /* \"#utility.yul\":15831:15929   */\n      swap2\n      swap1\n      pop\n      jump\t// out\n        /* \"#utility.yul\":15935:16082   */\n    tag_277:\n        /* \"#utility.yul\":16036:16047   */\n      0x00\n        /* \"#utility.yul\":16073:16076   */\n      dup2\n        /* \"#utility.yul\":16058:16076   */\n      swap1\n      pop\n        /* \"#utility.yul\":15935:16082   */\n      swap3\n      swap2\n      pop\n      pop\n      jump\t// out\n        /* \"#utility.yul\":16088:16227   */\n    tag_278:\n        /* \"#utility.yul\":16177:16183   */\n      dup3\n        /* \"#utility.yul\":16172:16175   */\n      dup2\n        /* \"#utility.yul\":16167:16170   */\n      dup4\n        /* \"#utility.yul\":16161:16184   */\n      mcopy\n        /* \"#utility.yul\":16218:16219   */\n      0x00\n        /* \"#utility.yul\":16209:16215   */\n      dup4\n        /* \"#utility.yul\":16204:16207   */\n      dup4\n        /* \"#utility.yul\":16200:16216   */\n      add\n        /* \"#utility.yul\":16193:16220   */\n      mstore\n        /* \"#utility.yul\":16088:16227   */\n      pop\n      pop\n      pop\n      jump\t// out\n        /* \"#utility.yul\":16233:16619   */\n    tag_279:\n        /* \"#utility.yul\":16337:16340   */\n      0x00\n        /* \"#utility.yul\":16365:16403   */\n      tag_455\n        /* \"#utility.yul\":16397:16402   */\n      dup3\n        /* \"#utility.yul\":16365:16403   */\n      tag_276\n      jump\t// in\n    tag_455:\n        /* \"#utility.yul\":16419:16507   */\n      tag_456\n        /* \"#utility.yul\":16500:16506   */\n      dup2\n        /* \"#utility.yul\":16495:16498   */\n      dup6\n        /* \"#utility.yul\":16419:16507   */\n      tag_277\n      jump\t// in\n    tag_456:\n        /* \"#utility.yul\":16412:16507   */\n      swap4\n      pop\n        /* \"#utility.yul\":16516:16581   */\n      tag_457\n        /* \"#utility.yul\":16574:16580   */\n      dup2\n        /* \"#utility.yul\":16569:16572   */\n      dup6\n        /* \"#utility.yul\":16562:16566   */\n      0x20\n        /* \"#utility.yul\":16555:16560   */\n      dup7\n        /* \"#utility.yul\":16551:16567   */\n      add\n        /* \"#utility.yul\":16516:16581   */\n      tag_278\n      jump\t// in\n    tag_457:\n        /* \"#utility.yul\":16606:16612   */\n      dup1\n        /* \"#utility.yul\":16601:16604   */\n      dup5\n        /* \"#utility.yul\":16597:16613   */\n      add\n        /* \"#utility.yul\":16590:16613   */\n      swap2\n      pop\n        /* \"#utility.yul\":16341:16619   */\n      pop\n        /* \"#utility.yul\":16233:16619   */\n      swap3\n      swap2\n      pop\n      pop\n      jump\t// out\n        /* \"#utility.yul\":16625:16896   */\n    tag_219:\n        /* \"#utility.yul\":16755:16758   */\n      0x00\n        /* \"#utility.yul\":16777:16870   */\n      tag_459\n        /* \"#utility.yul\":16866:16869   */\n      dup3\n        /* \"#utility.yul\":16857:16863   */\n      dup5\n        /* \"#utility.yul\":16777:16870   */\n      tag_279\n      jump\t// in\n    tag_459:\n        /* \"#utility.yul\":16770:16870   */\n      swap2\n      pop\n        /* \"#utility.yul\":16887:16890   */\n      dup2\n        /* \"#utility.yul\":16880:16890   */\n      swap1\n      pop\n        /* \"#utility.yul\":16625:16896   */\n      swap3\n      swap2\n      pop\n      pop\n      jump\t// out\n\n    auxdata: 0xa26469706673582212200efc558f3c32cadfd595e15860d561b374780583cb2e340dea351c92cdc69aef64736f6c634300081a0033\n}\n",
				"bytecode": {
					"linkReferences": {},
					"object": "608060405234801561000f575f80fd5b5060015f819055506100295f801b3361006060201b60201c565b5061005a7f915327d54f2c758ad33c35b031b5e89868657ea971cda2b8103c502dc672509c3361006060201b60201c565b506101c0565b5f610071838361015560201b60201c565b61014b576001805f8581526020019081526020015f205f015f8473ffffffffffffffffffffffffffffffffffffffff1673ffffffffffffffffffffffffffffffffffffffff1681526020019081526020015f205f6101000a81548160ff0219169083151502179055506100e86101b960201b60201c565b73ffffffffffffffffffffffffffffffffffffffff168273ffffffffffffffffffffffffffffffffffffffff16847f2f8788117e7eff1d82e926ec794901d17c78024a50270940304540a733656f0d60405160405180910390a46001905061014f565b5f90505b92915050565b5f60015f8481526020019081526020015f205f015f8373ffffffffffffffffffffffffffffffffffffffff1673ffffffffffffffffffffffffffffffffffffffff1681526020019081526020015f205f9054906101000a900460ff16905092915050565b5f33905090565b611cb2806101cd5f395ff3fe608060405234801561000f575f80fd5b50600436106100fe575f3560e01c806391d1485411610095578063d547741f11610064578063d547741f146102ba578063da46098c146102d6578063e5994905146102f2578063f5537ede1461030e576100fe565b806391d1485414610220578063927da10514610250578063a217fddf14610280578063cdb33b811461029e576100fe565b806368a37ae8116100d157806368a37ae81461019a57806368c4ac26146101b85780636d69fcaf146101e85780637631919014610204576100fe565b806301ffc9a714610102578063248a9ca3146101325780632f2ff15d1461016257806336568abe1461017e575b5f80fd5b61011c6004803603810190610117919061147c565b61032a565b60405161012991906114c1565b60405180910390f35b61014c6004803603810190610147919061150d565b6103a3565b6040516101599190611547565b60405180910390f35b61017c600480360381019061017791906115ba565b6103c0565b005b610198600480360381019061019391906115ba565b6103e2565b005b6101a261045d565b6040516101af9190611547565b60405180910390f35b6101d260048036038101906101cd91906115f8565b610481565b6040516101df91906114c1565b60405180910390f35b61020260048036038101906101fd91906115f8565b61049e565b005b61021e600480360381019061021991906115f8565b610564565b005b61023a600480360381019061023591906115ba565b610629565b60405161024791906114c1565b60405180910390f35b61026a60048036038101906102659190611623565b61068d565b604051610277919061168b565b60405180910390f35b61028861074b565b6040516102959190611547565b60405180910390f35b6102b860048036038101906102b3919061175a565b610751565b005b6102d460048036038101906102cf91906115ba565b6108ea565b005b6102f060048036038101906102eb9190611815565b61090c565b005b61030c60048036038101906103079190611865565b610a45565b005b61032860048036038101906103239190611815565b610c26565b005b5f7f7965db0b000000000000000000000000000000000000000000000000000000007bffffffffffffffffffffffffffffffffffffffffffffffffffffffff1916827bffffffffffffffffffffffffffffffffffffffffffffffffffffffff1916148061039c575061039b82610c47565b5b9050919050565b5f60015f8381526020019081526020015f20600101549050919050565b6103c9826103a3565b6103d281610cb0565b6103dc8383610cc4565b50505050565b6103ea610dad565b73ffffffffffffffffffffffffffffffffffffffff168173ffffffffffffffffffffffffffffffffffffffff161461044e576040517f6697b23200000000000000000000000000000000000000000000000000000000815260040160405180910390fd5b6104588282610db4565b505050565b7f915327d54f2c758ad33c35b031b5e89868657ea971cda2b8103c502dc672509c81565b6002602052805f5260405f205f915054906101000a900460ff1681565b7f915327d54f2c758ad33c35b031b5e89868657ea971cda2b8103c502dc672509c6104c881610cb0565b600160025f8473ffffffffffffffffffffffffffffffffffffffff1673ffffffffffffffffffffffffffffffffffffffff1681526020019081526020015f205f6101000a81548160ff0219169083151502179055508173ffffffffffffffffffffffffffffffffffffffff167f784c8f4dbf0ffedd6e72c76501c545a70f8b203b30a26ce542bf92ba87c248a460405160405180910390a25050565b7f915327d54f2c758ad33c35b031b5e89868657ea971cda2b8103c502dc672509c61058e81610cb0565b5f60025f8473ffffffffffffffffffffffffffffffffffffffff1673ffffffffffffffffffffffffffffffffffffffff1681526020019081526020015f205f6101000a81548160ff0219169083151502179055508173ffffffffffffffffffffffffffffffffffffffff167f4c910b69fe65a61f7531b9c5042b2329ca7179c77290aa7e2eb3afa3c8511fd360405160405180910390a25050565b5f60015f8481526020019081526020015f205f015f8373ffffffffffffffffffffffffffffffffffffffff1673ffffffffffffffffffffffffffffffffffffffff1681526020019081526020015f205f9054906101000a900460ff16905092915050565b5f60035f8573ffffffffffffffffffffffffffffffffffffffff1673ffffffffffffffffffffffffffffffffffffffff1681526020019081526020015f205f8373ffffffffffffffffffffffffffffffffffffffff1673ffffffffffffffffffffffffffffffffffffffff1681526020019081526020015f205f8473ffffffffffffffffffffffffffffffffffffffff1673ffffffffffffffffffffffffffffffffffffffff1681526020019081526020015f205490509392505050565b5f801b81565b610759610e9e565b818190508585905014610798576040517fa9854bc900000000000000000000000000000000000000000000000000000000815260040160405180910390fd5b5f805b838390508110156107da578383828181106107b9576107b86118c9565b5b90506020020135826107cb9190611923565b9150808060010191505061079b565b506108083330838773ffffffffffffffffffffffffffffffffffffffff16610ee2909392919063ffffffff16565b5f5b8686905081101561086e576108613088888481811061082c5761082b6118c9565b5b905060200201602081019061084191906115f8565b87878786818110610855576108546118c9565b5b90506020020135610f64565b808060010191505061080a565b508373ffffffffffffffffffffffffffffffffffffffff163373ffffffffffffffffffffffffffffffffffffffff167f6f48f5cfe672b48c8d014ecf4ecb7cdd8a66519dc4e331f0c7e95f1f2183a810888887876040516108d29493929190611a8a565b60405180910390a3506108e3611102565b5050505050565b6108f3826103a3565b6108fc81610cb0565b6109068383610db4565b50505050565b8060035f3373ffffffffffffffffffffffffffffffffffffffff1673ffffffffffffffffffffffffffffffffffffffff1681526020019081526020015f205f8473ffffffffffffffffffffffffffffffffffffffff1673ffffffffffffffffffffffffffffffffffffffff1681526020019081526020015f205f8573ffffffffffffffffffffffffffffffffffffffff1673ffffffffffffffffffffffffffffffffffffffff1681526020019081526020015f20819055508173ffffffffffffffffffffffffffffffffffffffff168373ffffffffffffffffffffffffffffffffffffffff163373ffffffffffffffffffffffffffffffffffffffff167f8a35f50fa7149c607bf92648069a0d9593c88f1e12f1abd0a0481a4a959b068184604051610a38919061168b565b60405180910390a4505050565b610a4d610e9e565b5f60035f8673ffffffffffffffffffffffffffffffffffffffff1673ffffffffffffffffffffffffffffffffffffffff1681526020019081526020015f205f8473ffffffffffffffffffffffffffffffffffffffff1673ffffffffffffffffffffffffffffffffffffffff1681526020019081526020015f205f3373ffffffffffffffffffffffffffffffffffffffff1673ffffffffffffffffffffffffffffffffffffffff1681526020019081526020015f2054905081811015610b515784338484846040517f51750bc7000000000000000000000000000000000000000000000000000000008152600401610b48959493929190611ad2565b60405180910390fd5b81810360035f8773ffffffffffffffffffffffffffffffffffffffff1673ffffffffffffffffffffffffffffffffffffffff1681526020019081526020015f205f8573ffffffffffffffffffffffffffffffffffffffff1673ffffffffffffffffffffffffffffffffffffffff1681526020019081526020015f205f3373ffffffffffffffffffffffffffffffffffffffff1673ffffffffffffffffffffffffffffffffffffffff1681526020019081526020015f2081905550610c1785858585610f64565b50610c20611102565b50505050565b610c2e610e9e565b610c3a33848484610f64565b610c42611102565b505050565b5f7f01ffc9a7000000000000000000000000000000000000000000000000000000007bffffffffffffffffffffffffffffffffffffffffffffffffffffffff1916827bffffffffffffffffffffffffffffffffffffffffffffffffffffffff1916149050919050565b610cc181610cbc610dad565b61110b565b50565b5f610ccf8383610629565b610da3576001805f8581526020019081526020015f205f015f8473ffffffffffffffffffffffffffffffffffffffff1673ffffffffffffffffffffffffffffffffffffffff1681526020019081526020015f205f6101000a81548160ff021916908315150217905550610d40610dad565b73ffffffffffffffffffffffffffffffffffffffff168273ffffffffffffffffffffffffffffffffffffffff16847f2f8788117e7eff1d82e926ec794901d17c78024a50270940304540a733656f0d60405160405180910390a460019050610da7565b5f90505b92915050565b5f33905090565b5f610dbf8383610629565b15610e94575f60015f8581526020019081526020015f205f015f8473ffffffffffffffffffffffffffffffffffffffff1673ffffffffffffffffffffffffffffffffffffffff1681526020019081526020015f205f6101000a81548160ff021916908315150217905550610e31610dad565b73ffffffffffffffffffffffffffffffffffffffff168273ffffffffffffffffffffffffffffffffffffffff16847ff6391f5c32d9c69d2a47ea670b442974b53935d1edc7fd64eb21e047a839171b60405160405180910390a460019050610e98565b5f90505b92915050565b60025f5403610ed9576040517f3ee5aeb500000000000000000000000000000000000000000000000000000000815260040160405180910390fd5b60025f81905550565b610f5e848573ffffffffffffffffffffffffffffffffffffffff166323b872dd868686604051602401610f1793929190611b23565b604051602081830303815290604052915060e01b6020820180517bffffffffffffffffffffffffffffffffffffffffffffffffffffffff838183161783525050505061115c565b50505050565b60025f8373ffffffffffffffffffffffffffffffffffffffff1673ffffffffffffffffffffffffffffffffffffffff1681526020019081526020015f205f9054906101000a900460ff16610fef57816040517fbf16aab6000000000000000000000000000000000000000000000000000000008152600401610fe69190611b58565b60405180910390fd5b3073ffffffffffffffffffffffffffffffffffffffff168473ffffffffffffffffffffffffffffffffffffffff16036110525761104d83828473ffffffffffffffffffffffffffffffffffffffff166111f19092919063ffffffff16565b611080565b61107f8484838573ffffffffffffffffffffffffffffffffffffffff16610ee2909392919063ffffffff16565b5b8173ffffffffffffffffffffffffffffffffffffffff168373ffffffffffffffffffffffffffffffffffffffff168573ffffffffffffffffffffffffffffffffffffffff167f9af266b6ca4909f988dc948fb50ad15153abbe525351881bad4fa858be96515c846040516110f4919061168b565b60405180910390a450505050565b60015f81905550565b6111158282610629565b6111585780826040517fe2517d3f00000000000000000000000000000000000000000000000000000000815260040161114f929190611b71565b60405180910390fd5b5050565b5f611186828473ffffffffffffffffffffffffffffffffffffffff1661127090919063ffffffff16565b90505f8151141580156111aa5750808060200190518101906111a89190611bc2565b155b156111ec57826040517f5274afe70000000000000000000000000000000000000000000000000000000081526004016111e39190611b58565b60405180910390fd5b505050565b61126b838473ffffffffffffffffffffffffffffffffffffffff1663a9059cbb8585604051602401611224929190611bed565b604051602081830303815290604052915060e01b6020820180517bffffffffffffffffffffffffffffffffffffffffffffffffffffffff838183161783525050505061115c565b505050565b606061127d83835f611285565b905092915050565b6060814710156112cc57306040517fcd7860590000000000000000000000000000000000000000000000000000000081526004016112c39190611b58565b60405180910390fd5b5f808573ffffffffffffffffffffffffffffffffffffffff1684866040516112f49190611c66565b5f6040518083038185875af1925050503d805f811461132e576040519150601f19603f3d011682016040523d82523d5f602084013e611333565b606091505b509150915061134386838361134e565b925050509392505050565b6060826113635761135e826113db565b6113d3565b5f825114801561138957505f8473ffffffffffffffffffffffffffffffffffffffff163b145b156113cb57836040517f9996b3150000000000000000000000000000000000000000000000000000000081526004016113c29190611b58565b60405180910390fd5b8190506113d4565b5b9392505050565b5f815111156113ed5780518082602001fd5b6040517f1425ea4200000000000000000000000000000000000000000000000000000000815260040160405180910390fd5b5f80fd5b5f80fd5b5f7fffffffff0000000000000000000000000000000000000000000000000000000082169050919050565b61145b81611427565b8114611465575f80fd5b50565b5f8135905061147681611452565b92915050565b5f602082840312156114915761149061141f565b5b5f61149e84828501611468565b91505092915050565b5f8115159050919050565b6114bb816114a7565b82525050565b5f6020820190506114d45f8301846114b2565b92915050565b5f819050919050565b6114ec816114da565b81146114f6575f80fd5b50565b5f81359050611507816114e3565b92915050565b5f602082840312156115225761152161141f565b5b5f61152f848285016114f9565b91505092915050565b611541816114da565b82525050565b5f60208201905061155a5f830184611538565b92915050565b5f73ffffffffffffffffffffffffffffffffffffffff82169050919050565b5f61158982611560565b9050919050565b6115998161157f565b81146115a3575f80fd5b50565b5f813590506115b481611590565b92915050565b5f80604083850312156115d0576115cf61141f565b5b5f6115dd858286016114f9565b92505060206115ee858286016115a6565b9150509250929050565b5f6020828403121561160d5761160c61141f565b5b5f61161a848285016115a6565b91505092915050565b5f805f6060848603121561163a5761163961141f565b5b5f611647868287016115a6565b9350506020611658868287016115a6565b9250506040611669868287016115a6565b9150509250925092565b5f819050919050565b61168581611673565b82525050565b5f60208201905061169e5f83018461167c565b92915050565b5f80fd5b5f80fd5b5f80fd5b5f8083601f8401126116c5576116c46116a4565b5b8235905067ffffffffffffffff8111156116e2576116e16116a8565b5b6020830191508360208202830111156116fe576116fd6116ac565b5b9250929050565b5f8083601f84011261171a576117196116a4565b5b8235905067ffffffffffffffff811115611737576117366116a8565b5b602083019150836020820283011115611753576117526116ac565b5b9250929050565b5f805f805f606086880312156117735761177261141f565b5b5f86013567ffffffffffffffff8111156117905761178f611423565b5b61179c888289016116b0565b955095505060206117af888289016115a6565b935050604086013567ffffffffffffffff8111156117d0576117cf611423565b5b6117dc88828901611705565b92509250509295509295909350565b6117f481611673565b81146117fe575f80fd5b50565b5f8135905061180f816117eb565b92915050565b5f805f6060848603121561182c5761182b61141f565b5b5f611839868287016115a6565b935050602061184a868287016115a6565b925050604061185b86828701611801565b9150509250925092565b5f805f806080858703121561187d5761187c61141f565b5b5f61188a878288016115a6565b945050602061189b878288016115a6565b93505060406118ac878288016115a6565b92505060606118bd87828801611801565b91505092959194509250565b7f4e487b71000000000000000000000000000000000000000000000000000000005f52603260045260245ffd5b7f4e487b71000000000000000000000000000000000000000000000000000000005f52601160045260245ffd5b5f61192d82611673565b915061193883611673565b92508282019050808211156119505761194f6118f6565b5b92915050565b5f82825260208201905092915050565b5f819050919050565b6119788161157f565b82525050565b5f611989838361196f565b60208301905092915050565b5f6119a360208401846115a6565b905092915050565b5f602082019050919050565b5f6119c28385611956565b93506119cd82611966565b805f5b85811015611a05576119e28284611995565b6119ec888261197e565b97506119f7836119ab565b9250506001810190506119d0565b5085925050509392505050565b5f82825260208201905092915050565b5f80fd5b82818337505050565b5f611a3a8385611a12565b93507f07ffffffffffffffffffffffffffffffffffffffffffffffffffffffffffffff831115611a6d57611a6c611a22565b5b602083029250611a7e838584611a26565b82840190509392505050565b5f6040820190508181035f830152611aa38186886119b7565b90508181036020830152611ab8818486611a2f565b905095945050505050565b611acc8161157f565b82525050565b5f60a082019050611ae55f830188611ac3565b611af26020830187611ac3565b611aff6040830186611ac3565b611b0c606083018561167c565b611b19608083018461167c565b9695505050505050565b5f606082019050611b365f830186611ac3565b611b436020830185611ac3565b611b50604083018461167c565b949350505050565b5f602082019050611b6b5f830184611ac3565b92915050565b5f604082019050611b845f830185611ac3565b611b916020830184611538565b9392505050565b611ba1816114a7565b8114611bab575f80fd5b50565b5f81519050611bbc81611b98565b92915050565b5f60208284031215611bd757611bd661141f565b5b5f611be484828501611bae565b91505092915050565b5f604082019050611c005f830185611ac3565b611c0d602083018461167c565b9392505050565b5f81519050919050565b5f81905092915050565b8281835e5f83830152505050565b5f611c4082611c14565b611c4a8185611c1e565b9350611c5a818560208601611c28565b80840191505092915050565b5f611c718284611c36565b91508190509291505056fea26469706673582212200efc558f3c32cadfd595e15860d561b374780583cb2e340dea351c92cdc69aef64736f6c634300081a0033",
					"opcodes": "PUSH1 0x80 PUSH1 0x40 MSTORE CALLVALUE DUP1 ISZERO PUSH2 0xF JUMPI PUSH0 DUP1 REVERT JUMPDEST POP PUSH1 0x1 PUSH0 DUP2 SWAP1 SSTORE POP PUSH2 0x29 PUSH0 DUP1 SHL CALLER PUSH2 0x60 PUSH1 0x20 SHL PUSH1 0x20 SHR JUMP JUMPDEST POP PUSH2 0x5A PUSH32 0x915327D54F2C758AD33C35B031B5E89868657EA971CDA2B8103C502DC672509C CALLER PUSH2 0x60 PUSH1 0x20 SHL PUSH1 0x20 SHR JUMP JUMPDEST POP PUSH2 0x1C0 JUMP JUMPDEST PUSH0 PUSH2 0x71 DUP4 DUP4 PUSH2 0x155 PUSH1 0x20 SHL PUSH1 0x20 SHR JUMP JUMPDEST PUSH2 0x14B JUMPI PUSH1 0x1 DUP1 PUSH0 DUP6 DUP2 MSTORE PUSH1 0x20 ADD SWAP1 DUP2 MSTORE PUSH1 0x20 ADD PUSH0 KECCAK256 PUSH0 ADD PUSH0 DUP5 PUSH20 0xFFFFFFFFFFFFFFFFFFFFFFFFFFFFFFFFFFFFFFFF AND PUSH20 0xFFFFFFFFFFFFFFFFFFFFFFFFFFFFFFFFFFFFFFFF AND DUP2 MSTORE PUSH1 0x20 ADD SWAP1 DUP2 MSTORE PUSH1 0x20 ADD PUSH0 KECCAK256 PUSH0 PUSH2 0x100 EXP DUP2 SLOAD DUP2 PUSH1 0xFF MUL NOT AND SWAP1 DUP4 ISZERO ISZERO MUL OR SWAP1 SSTORE POP PUSH2 0xE8 PUSH2 0x1B9 PUSH1 0x20 SHL PUSH1 0x20 SHR JUMP JUMPDEST PUSH20 0xFFFFFFFFFFFFFFFFFFFFFFFFFFFFFFFFFFFFFFFF AND DUP3 PUSH20 0xFFFFFFFFFFFFFFFFFFFFFFFFFFFFFFFFFFFFFFFF AND DUP5 PUSH32 0x2F8788117E7EFF1D82E926EC794901D17C78024A50270940304540A733656F0D PUSH1 0x40 MLOAD PUSH1 0x40 MLOAD DUP1 SWAP2 SUB SWAP1 LOG4 PUSH1 0x1 SWAP1 POP PUSH2 0x14F JUMP JUMPDEST PUSH0 SWAP1 POP JUMPDEST SWAP3 SWAP2 POP POP JUMP JUMPDEST PUSH0 PUSH1 0x1 PUSH0 DUP5 DUP2 MSTORE PUSH1 0x20 ADD SWAP1 DUP2 MSTORE PUSH1 0x20 ADD PUSH0 KECCAK256 PUSH0 ADD PUSH0 DUP4 PUSH20 0xFFFFFFFFFFFFFFFFFFFFFFFFFFFFFFFFFFFFFFFF AND PUSH20 0xFFFFFFFFFFFFFFFFFFFFFFFFFFFFFFFFFFFFFFFF AND DUP2 MSTORE PUSH1 0x20 ADD SWAP1 DUP2 MSTORE PUSH1 0x20 ADD PUSH0 KECCAK256 PUSH0 SWAP1 SLOAD SWAP1 PUSH2 0x100 EXP SWAP1 DIV PUSH1 0xFF AND SWAP1 POP SWAP3 SWAP2 POP POP JUMP JUMPDEST PUSH0 CALLER SWAP1 POP SWAP1 JUMP JUMPDEST PUSH2 0x1CB2 DUP1 PUSH2 0x1CD PUSH0 CODECOPY PUSH0 RETURN INVALID PUSH1 0x80 PUSH1 0x40 MSTORE CALLVALUE DUP1 ISZERO PUSH2 0xF JUMPI PUSH0 DUP1 REVERT JUMPDEST POP PUSH1 0x4 CALLDATASIZE LT PUSH2 0xFE JUMPI PUSH0 CALLDATALOAD PUSH1 0xE0 SHR DUP1 PUSH4 0x91D14854 GT PUSH2 0x95 JUMPI DUP1 PUSH4 0xD547741F GT PUSH2 0x64 JUMPI DUP1 PUSH4 0xD547741F EQ PUSH2 0x2BA JUMPI DUP1 PUSH4 0xDA46098C EQ PUSH2 0x2D6 JUMPI DUP1 PUSH4 0xE5994905 EQ PUSH2 0x2F2 JUMPI DUP1 PUSH4 0xF5537EDE EQ PUSH2 0x30E JUMPI PUSH2 0xFE JUMP JUMPDEST DUP1 PUSH4 0x91D14854 EQ PUSH2 0x220 JUMPI DUP1 PUSH4 0x927DA105 EQ PUSH2 0x250 JUMPI DUP1 PUSH4 0xA217FDDF EQ PUSH2 0x280 JUMPI DUP1 PUSH4 0xCDB33B81 EQ PUSH2 0x29E JUMPI PUSH2 0xFE JUMP JUMPDEST DUP1 PUSH4 0x68A37AE8 GT PUSH2 0xD1 JUMPI DUP1 PUSH4 0x68A37AE8 EQ PUSH2 0x19A JUMPI DUP1 PUSH4 0x68C4AC26 EQ PUSH2 0x1B8 JUMPI DUP1 PUSH4 0x6D69FCAF EQ PUSH2 0x1E8 JUMPI DUP1 PUSH4 0x76319190 EQ PUSH2 0x204 JUMPI PUSH2 0xFE JUMP JUMPDEST DUP1 PUSH4 0x1FFC9A7 EQ PUSH2 0x102 JUMPI DUP1 PUSH4 0x248A9CA3 EQ PUSH2 0x132 JUMPI DUP1 PUSH4 0x2F2FF15D EQ PUSH2 0x162 JUMPI DUP1 PUSH4 0x36568ABE EQ PUSH2 0x17E JUMPI JUMPDEST PUSH0 DUP1 REVERT JUMPDEST PUSH2 0x11C PUSH1 0x4 DUP1 CALLDATASIZE SUB DUP2 ADD SWAP1 PUSH2 0x117 SWAP2 SWAP1 PUSH2 0x147C JUMP JUMPDEST PUSH2 0x32A JUMP JUMPDEST PUSH1 0x40 MLOAD PUSH2 0x129 SWAP2 SWAP1 PUSH2 0x14C1 JUMP JUMPDEST PUSH1 0x40 MLOAD DUP1 SWAP2 SUB SWAP1 RETURN JUMPDEST PUSH2 0x14C PUSH1 0x4 DUP1 CALLDATASIZE SUB DUP2 ADD SWAP1 PUSH2 0x147 SWAP2 SWAP1 PUSH2 0x150D JUMP JUMPDEST PUSH2 0x3A3 JUMP JUMPDEST PUSH1 0x40 MLOAD PUSH2 0x159 SWAP2 SWAP1 PUSH2 0x1547 JUMP JUMPDEST PUSH1 0x40 MLOAD DUP1 SWAP2 SUB SWAP1 RETURN JUMPDEST PUSH2 0x17C PUSH1 0x4 DUP1 CALLDATASIZE SUB DUP2 ADD SWAP1 PUSH2 0x177 SWAP2 SWAP1 PUSH2 0x15BA JUMP JUMPDEST PUSH2 0x3C0 JUMP JUMPDEST STOP JUMPDEST PUSH2 0x198 PUSH1 0x4 DUP1 CALLDATASIZE SUB DUP2 ADD SWAP1 PUSH2 0x193 SWAP2 SWAP1 PUSH2 0x15BA JUMP JUMPDEST PUSH2 0x3E2 JUMP JUMPDEST STOP JUMPDEST PUSH2 0x1A2 PUSH2 0x45D JUMP JUMPDEST PUSH1 0x40 MLOAD PUSH2 0x1AF SWAP2 SWAP1 PUSH2 0x1547 JUMP JUMPDEST PUSH1 0x40 MLOAD DUP1 SWAP2 SUB SWAP1 RETURN JUMPDEST PUSH2 0x1D2 PUSH1 0x4 DUP1 CALLDATASIZE SUB DUP2 ADD SWAP1 PUSH2 0x1CD SWAP2 SWAP1 PUSH2 0x15F8 JUMP JUMPDEST PUSH2 0x481 JUMP JUMPDEST PUSH1 0x40 MLOAD PUSH2 0x1DF SWAP2 SWAP1 PUSH2 0x14C1 JUMP JUMPDEST PUSH1 0x40 MLOAD DUP1 SWAP2 SUB SWAP1 RETURN JUMPDEST PUSH2 0x202 PUSH1 0x4 DUP1 CALLDATASIZE SUB DUP2 ADD SWAP1 PUSH2 0x1FD SWAP2 SWAP1 PUSH2 0x15F8 JUMP JUMPDEST PUSH2 0x49E JUMP JUMPDEST STOP JUMPDEST PUSH2 0x21E PUSH1 0x4 DUP1 CALLDATASIZE SUB DUP2 ADD SWAP1 PUSH2 0x219 SWAP2 SWAP1 PUSH2 0x15F8 JUMP JUMPDEST PUSH2 0x564 JUMP JUMPDEST STOP JUMPDEST PUSH2 0x23A PUSH1 0x4 DUP1 CALLDATASIZE SUB DUP2 ADD SWAP1 PUSH2 0x235 SWAP2 SWAP1 PUSH2 0x15BA JUMP JUMPDEST PUSH2 0x629 JUMP JUMPDEST PUSH1 0x40 MLOAD PUSH2 0x247 SWAP2 SWAP1 PUSH2 0x14C1 JUMP JUMPDEST PUSH1 0x40 MLOAD DUP1 SWAP2 SUB SWAP1 RETURN JUMPDEST PUSH2 0x26A PUSH1 0x4 DUP1 CALLDATASIZE SUB DUP2 ADD SWAP1 PUSH2 0x265 SWAP2 SWAP1 PUSH2 0x1623 JUMP JUMPDEST PUSH2 0x68D JUMP JUMPDEST PUSH1 0x40 MLOAD PUSH2 0x277 SWAP2 SWAP1 PUSH2 0x168B JUMP JUMPDEST PUSH1 0x40 MLOAD DUP1 SWAP2 SUB SWAP1 RETURN JUMPDEST PUSH2 0x288 PUSH2 0x74B JUMP JUMPDEST PUSH1 0x40 MLOAD PUSH2 0x295 SWAP2 SWAP1 PUSH2 0x1547 JUMP JUMPDEST PUSH1 0x40 MLOAD DUP1 SWAP2 SUB SWAP1 RETURN JUMPDEST PUSH2 0x2B8 PUSH1 0x4 DUP1 CALLDATASIZE SUB DUP2 ADD SWAP1 PUSH2 0x2B3 SWAP2 SWAP1 PUSH2 0x175A JUMP JUMPDEST PUSH2 0x751 JUMP JUMPDEST STOP JUMPDEST PUSH2 0x2D4 PUSH1 0x4 DUP1 CALLDATASIZE SUB DUP2 ADD SWAP1 PUSH2 0x2CF SWAP2 SWAP1 PUSH2 0x15BA JUMP JUMPDEST PUSH2 0x8EA JUMP JUMPDEST STOP JUMPDEST PUSH2 0x2F0 PUSH1 0x4 DUP1 CALLDATASIZE SUB DUP2 ADD SWAP1 PUSH2 0x2EB SWAP2 SWAP1 PUSH2 0x1815 JUMP JUMPDEST PUSH2 0x90C JUMP JUMPDEST STOP JUMPDEST PUSH2 0x30C PUSH1 0x4 DUP1 CALLDATASIZE SUB DUP2 ADD SWAP1 PUSH2 0x307 SWAP2 SWAP1 PUSH2 0x1865 JUMP JUMPDEST PUSH2 0xA45 JUMP JUMPDEST STOP JUMPDEST PUSH2 0x328 PUSH1 0x4 DUP1 CALLDATASIZE SUB DUP2 ADD SWAP1 PUSH2 0x323 SWAP2 SWAP1 PUSH2 0x1815 JUMP JUMPDEST PUSH2 0xC26 JUMP JUMPDEST STOP JUMPDEST PUSH0 PUSH32 0x7965DB0B00000000000000000000000000000000000000000000000000000000 PUSH28 0xFFFFFFFFFFFFFFFFFFFFFFFFFFFFFFFFFFFFFFFFFFFFFFFFFFFFFFFF NOT AND DUP3 PUSH28 0xFFFFFFFFFFFFFFFFFFFFFFFFFFFFFFFFFFFFFFFFFFFFFFFFFFFFFFFF NOT AND EQ DUP1 PUSH2 0x39C JUMPI POP PUSH2 0x39B DUP3 PUSH2 0xC47 JUMP JUMPDEST JUMPDEST SWAP1 POP SWAP2 SWAP1 POP JUMP JUMPDEST PUSH0 PUSH1 0x1 PUSH0 DUP4 DUP2 MSTORE PUSH1 0x20 ADD SWAP1 DUP2 MSTORE PUSH1 0x20 ADD PUSH0 KECCAK256 PUSH1 0x1 ADD SLOAD SWAP1 POP SWAP2 SWAP1 POP JUMP JUMPDEST PUSH2 0x3C9 DUP3 PUSH2 0x3A3 JUMP JUMPDEST PUSH2 0x3D2 DUP2 PUSH2 0xCB0 JUMP JUMPDEST PUSH2 0x3DC DUP4 DUP4 PUSH2 0xCC4 JUMP JUMPDEST POP POP POP POP JUMP JUMPDEST PUSH2 0x3EA PUSH2 0xDAD JUMP JUMPDEST PUSH20 0xFFFFFFFFFFFFFFFFFFFFFFFFFFFFFFFFFFFFFFFF AND DUP2 PUSH20 0xFFFFFFFFFFFFFFFFFFFFFFFFFFFFFFFFFFFFFFFF AND EQ PUSH2 0x44E JUMPI PUSH1 0x40 MLOAD PUSH32 0x6697B23200000000000000000000000000000000000000000000000000000000 DUP2 MSTORE PUSH1 0x4 ADD PUSH1 0x40 MLOAD DUP1 SWAP2 SUB SWAP1 REVERT JUMPDEST PUSH2 0x458 DUP3 DUP3 PUSH2 0xDB4 JUMP JUMPDEST POP POP POP JUMP JUMPDEST PUSH32 0x915327D54F2C758AD33C35B031B5E89868657EA971CDA2B8103C502DC672509C DUP2 JUMP JUMPDEST PUSH1 0x2 PUSH1 0x20 MSTORE DUP1 PUSH0 MSTORE PUSH1 0x40 PUSH0 KECCAK256 PUSH0 SWAP2 POP SLOAD SWAP1 PUSH2 0x100 EXP SWAP1 DIV PUSH1 0xFF AND DUP2 JUMP JUMPDEST PUSH32 0x915327D54F2C758AD33C35B031B5E89868657EA971CDA2B8103C502DC672509C PUSH2 0x4C8 DUP2 PUSH2 0xCB0 JUMP JUMPDEST PUSH1 0x1 PUSH1 0x2 PUSH0 DUP5 PUSH20 0xFFFFFFFFFFFFFFFFFFFFFFFFFFFFFFFFFFFFFFFF AND PUSH20 0xFFFFFFFFFFFFFFFFFFFFFFFFFFFFFFFFFFFFFFFF AND DUP2 MSTORE PUSH1 0x20 ADD SWAP1 DUP2 MSTORE PUSH1 0x20 ADD PUSH0 KECCAK256 PUSH0 PUSH2 0x100 EXP DUP2 SLOAD DUP2 PUSH1 0xFF MUL NOT AND SWAP1 DUP4 ISZERO ISZERO MUL OR SWAP1 SSTORE POP DUP2 PUSH20 0xFFFFFFFFFFFFFFFFFFFFFFFFFFFFFFFFFFFFFFFF AND PUSH32 0x784C8F4DBF0FFEDD6E72C76501C545A70F8B203B30A26CE542BF92BA87C248A4 PUSH1 0x40 MLOAD PUSH1 0x40 MLOAD DUP1 SWAP2 SUB SWAP1 LOG2 POP POP JUMP JUMPDEST PUSH32 0x915327D54F2C758AD33C35B031B5E89868657EA971CDA2B8103C502DC672509C PUSH2 0x58E DUP2 PUSH2 0xCB0 JUMP JUMPDEST PUSH0 PUSH1 0x2 PUSH0 DUP5 PUSH20 0xFFFFFFFFFFFFFFFFFFFFFFFFFFFFFFFFFFFFFFFF AND PUSH20 0xFFFFFFFFFFFFFFFFFFFFFFFFFFFFFFFFFFFFFFFF AND DUP2 MSTORE PUSH1 0x20 ADD SWAP1 DUP2 MSTORE PUSH1 0x20 ADD PUSH0 KECCAK256 PUSH0 PUSH2 0x100 EXP DUP2 SLOAD DUP2 PUSH1 0xFF MUL NOT AND SWAP1 DUP4 ISZERO ISZERO MUL OR SWAP1 SSTORE POP DUP2 PUSH20 0xFFFFFFFFFFFFFFFFFFFFFFFFFFFFFFFFFFFFFFFF AND PUSH32 0x4C910B69FE65A61F7531B9C5042B2329CA7179C77290AA7E2EB3AFA3C8511FD3 PUSH1 0x40 MLOAD PUSH1 0x40 MLOAD DUP1 SWAP2 SUB SWAP1 LOG2 POP POP JUMP JUMPDEST PUSH0 PUSH1 0x1 PUSH0 DUP5 DUP2 MSTORE PUSH1 0x20 ADD SWAP1 DUP2 MSTORE PUSH1 0x20 ADD PUSH0 KECCAK256 PUSH0 ADD PUSH0 DUP4 PUSH20 0xFFFFFFFFFFFFFFFFFFFFFFFFFFFFFFFFFFFFFFFF AND PUSH20 0xFFFFFFFFFFFFFFFFFFFFFFFFFFFFFFFFFFFFFFFF AND DUP2 MSTORE PUSH1 0x20 ADD SWAP1 DUP2 MSTORE PUSH1 0x20 ADD PUSH0 KECCAK256 PUSH0 SWAP1 SLOAD SWAP1 PUSH2 0x100 EXP SWAP1 DIV PUSH1 0xFF AND SWAP1 POP SWAP3 SWAP2 POP POP JUMP JUMPDEST PUSH0 PUSH1 0x3 PUSH0 DUP6 PUSH20 0xFFFFFFFFFFFFFFFFFFFFFFFFFFFFFFFFFFFFFFFF AND PUSH20 0xFFFFFFFFFFFFFFFFFFFFFFFFFFFFFFFFFFFFFFFF AND DUP2 MSTORE PUSH1 0x20 ADD SWAP1 DUP2 MSTORE PUSH1 0x20 ADD PUSH0 KECCAK256 PUSH0 DUP4 PUSH20 0xFFFFFFFFFFFFFFFFFFFFFFFFFFFFFFFFFFFFFFFF AND PUSH20 0xFFFFFFFFFFFFFFFFFFFFFFFFFFFFFFFFFFFFFFFF AND DUP2 MSTORE PUSH1 0x20 ADD SWAP1 DUP2 MSTORE PUSH1 0x20 ADD PUSH0 KECCAK256 PUSH0 DUP5 PUSH20 0xFFFFFFFFFFFFFFFFFFFFFFFFFFFFFFFFFFFFFFFF AND PUSH20 0xFFFFFFFFFFFFFFFFFFFFFFFFFFFFFFFFFFFFFFFF AND DUP2 MSTORE PUSH1 0x20 ADD SWAP1 DUP2 MSTORE PUSH1 0x20 ADD PUSH0 KECCAK256 SLOAD SWAP1 POP SWAP4 SWAP3 POP POP POP JUMP JUMPDEST PUSH0 DUP1 SHL DUP2 JUMP JUMPDEST PUSH2 0x759 PUSH2 0xE9E JUMP JUMPDEST DUP2 DUP2 SWAP1 POP DUP6 DUP6 SWAP1 POP EQ PUSH2 0x798 JUMPI PUSH1 0x40 MLOAD PUSH32 0xA9854BC900000000000000000000000000000000000000000000000000000000 DUP2 MSTORE PUSH1 0x4 ADD PUSH1 0x40 MLOAD DUP1 SWAP2 SUB SWAP1 REVERT JUMPDEST PUSH0 DUP1 JUMPDEST DUP4 DUP4 SWAP1 POP DUP2 LT ISZERO PUSH2 0x7DA JUMPI DUP4 DUP4 DUP3 DUP2 DUP2 LT PUSH2 0x7B9 JUMPI PUSH2 0x7B8 PUSH2 0x18C9 JUMP JUMPDEST JUMPDEST SWAP1 POP PUSH1 0x20 MUL ADD CALLDATALOAD DUP3 PUSH2 0x7CB SWAP2 SWAP1 PUSH2 0x1923 JUMP JUMPDEST SWAP2 POP DUP1 DUP1 PUSH1 0x1 ADD SWAP2 POP POP PUSH2 0x79B JUMP JUMPDEST POP PUSH2 0x808 CALLER ADDRESS DUP4 DUP8 PUSH20 0xFFFFFFFFFFFFFFFFFFFFFFFFFFFFFFFFFFFFFFFF AND PUSH2 0xEE2 SWAP1 SWAP4 SWAP3 SWAP2 SWAP1 PUSH4 0xFFFFFFFF AND JUMP JUMPDEST PUSH0 JUMPDEST DUP7 DUP7 SWAP1 POP DUP2 LT ISZERO PUSH2 0x86E JUMPI PUSH2 0x861 ADDRESS DUP9 DUP9 DUP5 DUP2 DUP2 LT PUSH2 0x82C JUMPI PUSH2 0x82B PUSH2 0x18C9 JUMP JUMPDEST JUMPDEST SWAP1 POP PUSH1 0x20 MUL ADD PUSH1 0x20 DUP2 ADD SWAP1 PUSH2 0x841 SWAP2 SWAP1 PUSH2 0x15F8 JUMP JUMPDEST DUP8 DUP8 DUP8 DUP7 DUP2 DUP2 LT PUSH2 0x855 JUMPI PUSH2 0x854 PUSH2 0x18C9 JUMP JUMPDEST JUMPDEST SWAP1 POP PUSH1 0x20 MUL ADD CALLDATALOAD PUSH2 0xF64 JUMP JUMPDEST DUP1 DUP1 PUSH1 0x1 ADD SWAP2 POP POP PUSH2 0x80A JUMP JUMPDEST POP DUP4 PUSH20 0xFFFFFFFFFFFFFFFFFFFFFFFFFFFFFFFFFFFFFFFF AND CALLER PUSH20 0xFFFFFFFFFFFFFFFFFFFFFFFFFFFFFFFFFFFFFFFF AND PUSH32 0x6F48F5CFE672B48C8D014ECF4ECB7CDD8A66519DC4E331F0C7E95F1F2183A810 DUP9 DUP9 DUP8 DUP8 PUSH1 0x40 MLOAD PUSH2 0x8D2 SWAP5 SWAP4 SWAP3 SWAP2 SWAP1 PUSH2 0x1A8A JUMP JUMPDEST PUSH1 0x40 MLOAD DUP1 SWAP2 SUB SWAP1 LOG3 POP PUSH2 0x8E3 PUSH2 0x1102 JUMP JUMPDEST POP POP POP POP POP JUMP JUMPDEST PUSH2 0x8F3 DUP3 PUSH2 0x3A3 JUMP JUMPDEST PUSH2 0x8FC DUP2 PUSH2 0xCB0 JUMP JUMPDEST PUSH2 0x906 DUP4 DUP4 PUSH2 0xDB4 JUMP JUMPDEST POP POP POP POP JUMP JUMPDEST DUP1 PUSH1 0x3 PUSH0 CALLER PUSH20 0xFFFFFFFFFFFFFFFFFFFFFFFFFFFFFFFFFFFFFFFF AND PUSH20 0xFFFFFFFFFFFFFFFFFFFFFFFFFFFFFFFFFFFFFFFF AND DUP2 MSTORE PUSH1 0x20 ADD SWAP1 DUP2 MSTORE PUSH1 0x20 ADD PUSH0 KECCAK256 PUSH0 DUP5 PUSH20 0xFFFFFFFFFFFFFFFFFFFFFFFFFFFFFFFFFFFFFFFF AND PUSH20 0xFFFFFFFFFFFFFFFFFFFFFFFFFFFFFFFFFFFFFFFF AND DUP2 MSTORE PUSH1 0x20 ADD SWAP1 DUP2 MSTORE PUSH1 0x20 ADD PUSH0 KECCAK256 PUSH0 DUP6 PUSH20 0xFFFFFFFFFFFFFFFFFFFFFFFFFFFFFFFFFFFFFFFF AND PUSH20 0xFFFFFFFFFFFFFFFFFFFFFFFFFFFFFFFFFFFFFFFF AND DUP2 MSTORE PUSH1 0x20 ADD SWAP1 DUP2 MSTORE PUSH1 0x20 ADD PUSH0 KECCAK256 DUP2 SWAP1 SSTORE POP DUP2 PUSH20 0xFFFFFFFFFFFFFFFFFFFFFFFFFFFFFFFFFFFFFFFF AND DUP4 PUSH20 0xFFFFFFFFFFFFFFFFFFFFFFFFFFFFFFFFFFFFFFFF AND CALLER PUSH20 0xFFFFFFFFFFFFFFFFFFFFFFFFFFFFFFFFFFFFFFFF AND PUSH32 0x8A35F50FA7149C607BF92648069A0D9593C88F1E12F1ABD0A0481A4A959B0681 DUP5 PUSH1 0x40 MLOAD PUSH2 0xA38 SWAP2 SWAP1 PUSH2 0x168B JUMP JUMPDEST PUSH1 0x40 MLOAD DUP1 SWAP2 SUB SWAP1 LOG4 POP POP POP JUMP JUMPDEST PUSH2 0xA4D PUSH2 0xE9E JUMP JUMPDEST PUSH0 PUSH1 0x3 PUSH0 DUP7 PUSH20 0xFFFFFFFFFFFFFFFFFFFFFFFFFFFFFFFFFFFFFFFF AND PUSH20 0xFFFFFFFFFFFFFFFFFFFFFFFFFFFFFFFFFFFFFFFF AND DUP2 MSTORE PUSH1 0x20 ADD SWAP1 DUP2 MSTORE PUSH1 0x20 ADD PUSH0 KECCAK256 PUSH0 DUP5 PUSH20 0xFFFFFFFFFFFFFFFFFFFFFFFFFFFFFFFFFFFFFFFF AND PUSH20 0xFFFFFFFFFFFFFFFFFFFFFFFFFFFFFFFFFFFFFFFF AND DUP2 MSTORE PUSH1 0x20 ADD SWAP1 DUP2 MSTORE PUSH1 0x20 ADD PUSH0 KECCAK256 PUSH0 CALLER PUSH20 0xFFFFFFFFFFFFFFFFFFFFFFFFFFFFFFFFFFFFFFFF AND PUSH20 0xFFFFFFFFFFFFFFFFFFFFFFFFFFFFFFFFFFFFFFFF AND DUP2 MSTORE PUSH1 0x20 ADD SWAP1 DUP2 MSTORE PUSH1 0x20 ADD PUSH0 KECCAK256 SLOAD SWAP1 POP DUP2 DUP2 LT ISZERO PUSH2 0xB51 JUMPI DUP5 CALLER DUP5 DUP5 DUP5 PUSH1 0x40 MLOAD PUSH32 0x51750BC700000000000000000000000000000000000000000000000000000000 DUP2 MSTORE PUSH1 0x4 ADD PUSH2 0xB48 SWAP6 SWAP5 SWAP4 SWAP3 SWAP2 SWAP1 PUSH2 0x1AD2 JUMP JUMPDEST PUSH1 0x40 MLOAD DUP1 SWAP2 SUB SWAP1 REVERT JUMPDEST DUP2 DUP2 SUB PUSH1 0x3 PUSH0 DUP8 PUSH20 0xFFFFFFFFFFFFFFFFFFFFFFFFFFFFFFFFFFFFFFFF AND PUSH20 0xFFFFFFFFFFFFFFFFFFFFFFFFFFFFFFFFFFFFFFFF AND DUP2 MSTORE PUSH1 0x20 ADD SWAP1 DUP2 MSTORE PUSH1 0x20 ADD PUSH0 KECCAK256 PUSH0 DUP6 PUSH20 0xFFFFFFFFFFFFFFFFFFFFFFFFFFFFFFFFFFFFFFFF AND PUSH20 0xFFFFFFFFFFFFFFFFFFFFFFFFFFFFFFFFFFFFFFFF AND DUP2 MSTORE PUSH1 0x20 ADD SWAP1 DUP2 MSTORE PUSH1 0x20 ADD PUSH0 KECCAK256 PUSH0 CALLER PUSH20 0xFFFFFFFFFFFFFFFFFFFFFFFFFFFFFFFFFFFFFFFF AND PUSH20 0xFFFFFFFFFFFFFFFFFFFFFFFFFFFFFFFFFFFFFFFF AND DUP2 MSTORE PUSH1 0x20 ADD SWAP1 DUP2 MSTORE PUSH1 0x20 ADD PUSH0 KECCAK256 DUP2 SWAP1 SSTORE POP PUSH2 0xC17 DUP6 DUP6 DUP6 DUP6 PUSH2 0xF64 JUMP JUMPDEST POP PUSH2 0xC20 PUSH2 0x1102 JUMP JUMPDEST POP POP POP POP JUMP JUMPDEST PUSH2 0xC2E PUSH2 0xE9E JUMP JUMPDEST PUSH2 0xC3A CALLER DUP5 DUP5 DUP5 PUSH2 0xF64 JUMP JUMPDEST PUSH2 0xC42 PUSH2 0x1102 JUMP JUMPDEST POP POP POP JUMP JUMPDEST PUSH0 PUSH32 0x1FFC9A700000000000000000000000000000000000000000000000000000000 PUSH28 0xFFFFFFFFFFFFFFFFFFFFFFFFFFFFFFFFFFFFFFFFFFFFFFFFFFFFFFFF NOT AND DUP3 PUSH28 0xFFFFFFFFFFFFFFFFFFFFFFFFFFFFFFFFFFFFFFFFFFFFFFFFFFFFFFFF NOT AND EQ SWAP1 POP SWAP2 SWAP1 POP JUMP JUMPDEST PUSH2 0xCC1 DUP2 PUSH2 0xCBC PUSH2 0xDAD JUMP JUMPDEST PUSH2 0x110B JUMP JUMPDEST POP JUMP JUMPDEST PUSH0 PUSH2 0xCCF DUP4 DUP4 PUSH2 0x629 JUMP JUMPDEST PUSH2 0xDA3 JUMPI PUSH1 0x1 DUP1 PUSH0 DUP6 DUP2 MSTORE PUSH1 0x20 ADD SWAP1 DUP2 MSTORE PUSH1 0x20 ADD PUSH0 KECCAK256 PUSH0 ADD PUSH0 DUP5 PUSH20 0xFFFFFFFFFFFFFFFFFFFFFFFFFFFFFFFFFFFFFFFF AND PUSH20 0xFFFFFFFFFFFFFFFFFFFFFFFFFFFFFFFFFFFFFFFF AND DUP2 MSTORE PUSH1 0x20 ADD SWAP1 DUP2 MSTORE PUSH1 0x20 ADD PUSH0 KECCAK256 PUSH0 PUSH2 0x100 EXP DUP2 SLOAD DUP2 PUSH1 0xFF MUL NOT AND SWAP1 DUP4 ISZERO ISZERO MUL OR SWAP1 SSTORE POP PUSH2 0xD40 PUSH2 0xDAD JUMP JUMPDEST PUSH20 0xFFFFFFFFFFFFFFFFFFFFFFFFFFFFFFFFFFFFFFFF AND DUP3 PUSH20 0xFFFFFFFFFFFFFFFFFFFFFFFFFFFFFFFFFFFFFFFF AND DUP5 PUSH32 0x2F8788117E7EFF1D82E926EC794901D17C78024A50270940304540A733656F0D PUSH1 0x40 MLOAD PUSH1 0x40 MLOAD DUP1 SWAP2 SUB SWAP1 LOG4 PUSH1 0x1 SWAP1 POP PUSH2 0xDA7 JUMP JUMPDEST PUSH0 SWAP1 POP JUMPDEST SWAP3 SWAP2 POP POP JUMP JUMPDEST PUSH0 CALLER SWAP1 POP SWAP1 JUMP JUMPDEST PUSH0 PUSH2 0xDBF DUP4 DUP4 PUSH2 0x629 JUMP JUMPDEST ISZERO PUSH2 0xE94 JUMPI PUSH0 PUSH1 0x1 PUSH0 DUP6 DUP2 MSTORE PUSH1 0x20 ADD SWAP1 DUP2 MSTORE PUSH1 0x20 ADD PUSH0 KECCAK256 PUSH0 ADD PUSH0 DUP5 PUSH20 0xFFFFFFFFFFFFFFFFFFFFFFFFFFFFFFFFFFFFFFFF AND PUSH20 0xFFFFFFFFFFFFFFFFFFFFFFFFFFFFFFFFFFFFFFFF AND DUP2 MSTORE PUSH1 0x20 ADD SWAP1 DUP2 MSTORE PUSH1 0x20 ADD PUSH0 KECCAK256 PUSH0 PUSH2 0x100 EXP DUP2 SLOAD DUP2 PUSH1 0xFF MUL NOT AND SWAP1 DUP4 ISZERO ISZERO MUL OR SWAP1 SSTORE POP PUSH2 0xE31 PUSH2 0xDAD JUMP JUMPDEST PUSH20 0xFFFFFFFFFFFFFFFFFFFFFFFFFFFFFFFFFFFFFFFF AND DUP3 PUSH20 0xFFFFFFFFFFFFFFFFFFFFFFFFFFFFFFFFFFFFFFFF AND DUP5 PUSH32 0xF6391F5C32D9C69D2A47EA670B442974B53935D1EDC7FD64EB21E047A839171B PUSH1 0x40 MLOAD PUSH1 0x40 MLOAD DUP1 SWAP2 SUB SWAP1 LOG4 PUSH1 0x1 SWAP1 POP PUSH2 0xE98 JUMP JUMPDEST PUSH0 SWAP1 POP JUMPDEST SWAP3 SWAP2 POP POP JUMP JUMPDEST PUSH1 0x2 PUSH0 SLOAD SUB PUSH2 0xED9 JUMPI PUSH1 0x40 MLOAD PUSH32 0x3EE5AEB500000000000000000000000000000000000000000000000000000000 DUP2 MSTORE PUSH1 0x4 ADD PUSH1 0x40 MLOAD DUP1 SWAP2 SUB SWAP1 REVERT JUMPDEST PUSH1 0x2 PUSH0 DUP2 SWAP1 SSTORE POP JUMP JUMPDEST PUSH2 0xF5E DUP5 DUP6 PUSH20 0xFFFFFFFFFFFFFFFFFFFFFFFFFFFFFFFFFFFFFFFF AND PUSH4 0x23B872DD DUP7 DUP7 DUP7 PUSH1 0x40 MLOAD PUSH1 0x24 ADD PUSH2 0xF17 SWAP4 SWAP3 SWAP2 SWAP1 PUSH2 0x1B23 JUMP JUMPDEST PUSH1 0x40 MLOAD PUSH1 0x20 DUP2 DUP4 SUB SUB DUP2 MSTORE SWAP1 PUSH1 0x40 MSTORE SWAP2 POP PUSH1 0xE0 SHL PUSH1 0x20 DUP3 ADD DUP1 MLOAD PUSH28 0xFFFFFFFFFFFFFFFFFFFFFFFFFFFFFFFFFFFFFFFFFFFFFFFFFFFFFFFF DUP4 DUP2 DUP4 AND OR DUP4 MSTORE POP POP POP POP PUSH2 0x115C JUMP JUMPDEST POP POP POP POP JUMP JUMPDEST PUSH1 0x2 PUSH0 DUP4 PUSH20 0xFFFFFFFFFFFFFFFFFFFFFFFFFFFFFFFFFFFFFFFF AND PUSH20 0xFFFFFFFFFFFFFFFFFFFFFFFFFFFFFFFFFFFFFFFF AND DUP2 MSTORE PUSH1 0x20 ADD SWAP1 DUP2 MSTORE PUSH1 0x20 ADD PUSH0 KECCAK256 PUSH0 SWAP1 SLOAD SWAP1 PUSH2 0x100 EXP SWAP1 DIV PUSH1 0xFF AND PUSH2 0xFEF JUMPI DUP2 PUSH1 0x40 MLOAD PUSH32 0xBF16AAB600000000000000000000000000000000000000000000000000000000 DUP2 MSTORE PUSH1 0x4 ADD PUSH2 0xFE6 SWAP2 SWAP1 PUSH2 0x1B58 JUMP JUMPDEST PUSH1 0x40 MLOAD DUP1 SWAP2 SUB SWAP1 REVERT JUMPDEST ADDRESS PUSH20 0xFFFFFFFFFFFFFFFFFFFFFFFFFFFFFFFFFFFFFFFF AND DUP5 PUSH20 0xFFFFFFFFFFFFFFFFFFFFFFFFFFFFFFFFFFFFFFFF AND SUB PUSH2 0x1052 JUMPI PUSH2 0x104D DUP4 DUP3 DUP5 PUSH20 0xFFFFFFFFFFFFFFFFFFFFFFFFFFFFFFFFFFFFFFFF AND PUSH2 0x11F1 SWAP1 SWAP3 SWAP2 SWAP1 PUSH4 0xFFFFFFFF AND JUMP JUMPDEST PUSH2 0x1080 JUMP JUMPDEST PUSH2 0x107F DUP5 DUP5 DUP4 DUP6 PUSH20 0xFFFFFFFFFFFFFFFFFFFFFFFFFFFFFFFFFFFFFFFF AND PUSH2 0xEE2 SWAP1 SWAP4 SWAP3 SWAP2 SWAP1 PUSH4 0xFFFFFFFF AND JUMP JUMPDEST JUMPDEST DUP2 PUSH20 0xFFFFFFFFFFFFFFFFFFFFFFFFFFFFFFFFFFFFFFFF AND DUP4 PUSH20 0xFFFFFFFFFFFFFFFFFFFFFFFFFFFFFFFFFFFFFFFF AND DUP6 PUSH20 0xFFFFFFFFFFFFFFFFFFFFFFFFFFFFFFFFFFFFFFFF AND PUSH32 0x9AF266B6CA4909F988DC948FB50AD15153ABBE525351881BAD4FA858BE96515C DUP5 PUSH1 0x40 MLOAD PUSH2 0x10F4 SWAP2 SWAP1 PUSH2 0x168B JUMP JUMPDEST PUSH1 0x40 MLOAD DUP1 SWAP2 SUB SWAP1 LOG4 POP POP POP POP JUMP JUMPDEST PUSH1 0x1 PUSH0 DUP2 SWAP1 SSTORE POP JUMP JUMPDEST PUSH2 0x1115 DUP3 DUP3 PUSH2 0x629 JUMP JUMPDEST PUSH2 0x1158 JUMPI DUP1 DUP3 PUSH1 0x40 MLOAD PUSH32 0xE2517D3F00000000000000000000000000000000000000000000000000000000 DUP2 MSTORE PUSH1 0x4 ADD PUSH2 0x114F SWAP3 SWAP2 SWAP1 PUSH2 0x1B71 JUMP JUMPDEST PUSH1 0x40 MLOAD DUP1 SWAP2 SUB SWAP1 REVERT JUMPDEST POP POP JUMP JUMPDEST PUSH0 PUSH2 0x1186 DUP3 DUP5 PUSH20 0xFFFFFFFFFFFFFFFFFFFFFFFFFFFFFFFFFFFFFFFF AND PUSH2 0x1270 SWAP1 SWAP2 SWAP1 PUSH4 0xFFFFFFFF AND JUMP JUMPDEST SWAP1 POP PUSH0 DUP2 MLOAD EQ ISZERO DUP1 ISZERO PUSH2 0x11AA JUMPI POP DUP1 DUP1 PUSH1 0x20 ADD SWAP1 MLOAD DUP2 ADD SWAP1 PUSH2 0x11A8 SWAP2 SWAP1 PUSH2 0x1BC2 JUMP JUMPDEST ISZERO JUMPDEST ISZERO PUSH2 0x11EC JUMPI DUP3 PUSH1 0x40 MLOAD PUSH32 0x5274AFE700000000000000000000000000000000000000000000000000000000 DUP2 MSTORE PUSH1 0x4 ADD PUSH2 0x11E3 SWAP2 SWAP1 PUSH2 0x1B58 JUMP JUMPDEST PUSH1 0x40 MLOAD DUP1 SWAP2 SUB SWAP1 REVERT JUMPDEST POP POP POP JUMP JUMPDEST PUSH2 0x126B DUP4 DUP5 PUSH20 0xFFFFFFFFFFFFFFFFFFFFFFFFFFFFFFFFFFFFFFFF AND PUSH4 0xA9059CBB DUP6 DUP6 PUSH1 0x40 MLOAD PUSH1 0x24 ADD PUSH2 0x1224 SWAP3 SWAP2 SWAP1 PUSH2 0x1BED JUMP JUMPDEST PUSH1 0x40 MLOAD PUSH1 0x20 DUP2 DUP4 SUB SUB DUP2 MSTORE SWAP1 PUSH1 0x40 MSTORE SWAP2 POP PUSH1 0xE0 SHL PUSH1 0x20 DUP3 ADD DUP1 MLOAD PUSH28 0xFFFFFFFFFFFFFFFFFFFFFFFFFFFFFFFFFFFFFFFFFFFFFFFFFFFFFFFF DUP4 DUP2 DUP4 AND OR DUP4 MSTORE POP POP POP POP PUSH2 0x115C JUMP JUMPDEST POP POP POP JUMP JUMPDEST PUSH1 0x60 PUSH2 0x127D DUP4 DUP4 PUSH0 PUSH2 0x1285 JUMP JUMPDEST SWAP1 POP SWAP3 SWAP2 POP POP JUMP JUMPDEST PUSH1 0x60 DUP2 SELFBALANCE LT ISZERO PUSH2 0x12CC JUMPI ADDRESS PUSH1 0x40 MLOAD PUSH32 0xCD78605900000000000000000000000000000000000000000000000000000000 DUP2 MSTORE PUSH1 0x4 ADD PUSH2 0x12C3 SWAP2 SWAP1 PUSH2 0x1B58 JUMP JUMPDEST PUSH1 0x40 MLOAD DUP1 SWAP2 SUB SWAP1 REVERT JUMPDEST PUSH0 DUP1 DUP6 PUSH20 0xFFFFFFFFFFFFFFFFFFFFFFFFFFFFFFFFFFFFFFFF AND DUP5 DUP7 PUSH1 0x40 MLOAD PUSH2 0x12F4 SWAP2 SWAP1 PUSH2 0x1C66 JUMP JUMPDEST PUSH0 PUSH1 0x40 MLOAD DUP1 DUP4 SUB DUP2 DUP6 DUP8 GAS CALL SWAP3 POP POP POP RETURNDATASIZE DUP1 PUSH0 DUP2 EQ PUSH2 0x132E JUMPI PUSH1 0x40 MLOAD SWAP2 POP PUSH1 0x1F NOT PUSH1 0x3F RETURNDATASIZE ADD AND DUP3 ADD PUSH1 0x40 MSTORE RETURNDATASIZE DUP3 MSTORE RETURNDATASIZE PUSH0 PUSH1 0x20 DUP5 ADD RETURNDATACOPY PUSH2 0x1333 JUMP JUMPDEST PUSH1 0x60 SWAP2 POP JUMPDEST POP SWAP2 POP SWAP2 POP PUSH2 0x1343 DUP7 DUP4 DUP4 PUSH2 0x134E JUMP JUMPDEST SWAP3 POP POP POP SWAP4 SWAP3 POP POP POP JUMP JUMPDEST PUSH1 0x60 DUP3 PUSH2 0x1363 JUMPI PUSH2 0x135E DUP3 PUSH2 0x13DB JUMP JUMPDEST PUSH2 0x13D3 JUMP JUMPDEST PUSH0 DUP3 MLOAD EQ DUP1 ISZERO PUSH2 0x1389 JUMPI POP PUSH0 DUP5 PUSH20 0xFFFFFFFFFFFFFFFFFFFFFFFFFFFFFFFFFFFFFFFF AND EXTCODESIZE EQ JUMPDEST ISZERO PUSH2 0x13CB JUMPI DUP4 PUSH1 0x40 MLOAD PUSH32 0x9996B31500000000000000000000000000000000000000000000000000000000 DUP2 MSTORE PUSH1 0x4 ADD PUSH2 0x13C2 SWAP2 SWAP1 PUSH2 0x1B58 JUMP JUMPDEST PUSH1 0x40 MLOAD DUP1 SWAP2 SUB SWAP1 REVERT JUMPDEST DUP2 SWAP1 POP PUSH2 0x13D4 JUMP JUMPDEST JUMPDEST SWAP4 SWAP3 POP POP POP JUMP JUMPDEST PUSH0 DUP2 MLOAD GT ISZERO PUSH2 0x13ED JUMPI DUP1 MLOAD DUP1 DUP3 PUSH1 0x20 ADD REVERT JUMPDEST PUSH1 0x40 MLOAD PUSH32 0x1425EA4200000000000000000000000000000000000000000000000000000000 DUP2 MSTORE PUSH1 0x4 ADD PUSH1 0x40 MLOAD DUP1 SWAP2 SUB SWAP1 REVERT JUMPDEST PUSH0 DUP1 REVERT JUMPDEST PUSH0 DUP1 REVERT JUMPDEST PUSH0 PUSH32 0xFFFFFFFF00000000000000000000000000000000000000000000000000000000 DUP3 AND SWAP1 POP SWAP2 SWAP1 POP JUMP JUMPDEST PUSH2 0x145B DUP2 PUSH2 0x1427 JUMP JUMPDEST DUP2 EQ PUSH2 0x1465 JUMPI PUSH0 DUP1 REVERT JUMPDEST POP JUMP JUMPDEST PUSH0 DUP2 CALLDATALOAD SWAP1 POP PUSH2 0x1476 DUP2 PUSH2 0x1452 JUMP JUMPDEST SWAP3 SWAP2 POP POP JUMP JUMPDEST PUSH0 PUSH1 0x20 DUP3 DUP5 SUB SLT ISZERO PUSH2 0x1491 JUMPI PUSH2 0x1490 PUSH2 0x141F JUMP JUMPDEST JUMPDEST PUSH0 PUSH2 0x149E DUP5 DUP3 DUP6 ADD PUSH2 0x1468 JUMP JUMPDEST SWAP2 POP POP SWAP3 SWAP2 POP POP JUMP JUMPDEST PUSH0 DUP2 ISZERO ISZERO SWAP1 POP SWAP2 SWAP1 POP JUMP JUMPDEST PUSH2 0x14BB DUP2 PUSH2 0x14A7 JUMP JUMPDEST DUP3 MSTORE POP POP JUMP JUMPDEST PUSH0 PUSH1 0x20 DUP3 ADD SWAP1 POP PUSH2 0x14D4 PUSH0 DUP4 ADD DUP5 PUSH2 0x14B2 JUMP JUMPDEST SWAP3 SWAP2 POP POP JUMP JUMPDEST PUSH0 DUP2 SWAP1 POP SWAP2 SWAP1 POP JUMP JUMPDEST PUSH2 0x14EC DUP2 PUSH2 0x14DA JUMP JUMPDEST DUP2 EQ PUSH2 0x14F6 JUMPI PUSH0 DUP1 REVERT JUMPDEST POP JUMP JUMPDEST PUSH0 DUP2 CALLDATALOAD SWAP1 POP PUSH2 0x1507 DUP2 PUSH2 0x14E3 JUMP JUMPDEST SWAP3 SWAP2 POP POP JUMP JUMPDEST PUSH0 PUSH1 0x20 DUP3 DUP5 SUB SLT ISZERO PUSH2 0x1522 JUMPI PUSH2 0x1521 PUSH2 0x141F JUMP JUMPDEST JUMPDEST PUSH0 PUSH2 0x152F DUP5 DUP3 DUP6 ADD PUSH2 0x14F9 JUMP JUMPDEST SWAP2 POP POP SWAP3 SWAP2 POP POP JUMP JUMPDEST PUSH2 0x1541 DUP2 PUSH2 0x14DA JUMP JUMPDEST DUP3 MSTORE POP POP JUMP JUMPDEST PUSH0 PUSH1 0x20 DUP3 ADD SWAP1 POP PUSH2 0x155A PUSH0 DUP4 ADD DUP5 PUSH2 0x1538 JUMP JUMPDEST SWAP3 SWAP2 POP POP JUMP JUMPDEST PUSH0 PUSH20 0xFFFFFFFFFFFFFFFFFFFFFFFFFFFFFFFFFFFFFFFF DUP3 AND SWAP1 POP SWAP2 SWAP1 POP JUMP JUMPDEST PUSH0 PUSH2 0x1589 DUP3 PUSH2 0x1560 JUMP JUMPDEST SWAP1 POP SWAP2 SWAP1 POP JUMP JUMPDEST PUSH2 0x1599 DUP2 PUSH2 0x157F JUMP JUMPDEST DUP2 EQ PUSH2 0x15A3 JUMPI PUSH0 DUP1 REVERT JUMPDEST POP JUMP JUMPDEST PUSH0 DUP2 CALLDATALOAD SWAP1 POP PUSH2 0x15B4 DUP2 PUSH2 0x1590 JUMP JUMPDEST SWAP3 SWAP2 POP POP JUMP JUMPDEST PUSH0 DUP1 PUSH1 0x40 DUP4 DUP6 SUB SLT ISZERO PUSH2 0x15D0 JUMPI PUSH2 0x15CF PUSH2 0x141F JUMP JUMPDEST JUMPDEST PUSH0 PUSH2 0x15DD DUP6 DUP3 DUP7 ADD PUSH2 0x14F9 JUMP JUMPDEST SWAP3 POP POP PUSH1 0x20 PUSH2 0x15EE DUP6 DUP3 DUP7 ADD PUSH2 0x15A6 JUMP JUMPDEST SWAP2 POP POP SWAP3 POP SWAP3 SWAP1 POP JUMP JUMPDEST PUSH0 PUSH1 0x20 DUP3 DUP5 SUB SLT ISZERO PUSH2 0x160D JUMPI PUSH2 0x160C PUSH2 0x141F JUMP JUMPDEST JUMPDEST PUSH0 PUSH2 0x161A DUP5 DUP3 DUP6 ADD PUSH2 0x15A6 JUMP JUMPDEST SWAP2 POP POP SWAP3 SWAP2 POP POP JUMP JUMPDEST PUSH0 DUP1 PUSH0 PUSH1 0x60 DUP5 DUP7 SUB SLT ISZERO PUSH2 0x163A JUMPI PUSH2 0x1639 PUSH2 0x141F JUMP JUMPDEST JUMPDEST PUSH0 PUSH2 0x1647 DUP7 DUP3 DUP8 ADD PUSH2 0x15A6 JUMP JUMPDEST SWAP4 POP POP PUSH1 0x20 PUSH2 0x1658 DUP7 DUP3 DUP8 ADD PUSH2 0x15A6 JUMP JUMPDEST SWAP3 POP POP PUSH1 0x40 PUSH2 0x1669 DUP7 DUP3 DUP8 ADD PUSH2 0x15A6 JUMP JUMPDEST SWAP2 POP POP SWAP3 POP SWAP3 POP SWAP3 JUMP JUMPDEST PUSH0 DUP2 SWAP1 POP SWAP2 SWAP1 POP JUMP JUMPDEST PUSH2 0x1685 DUP2 PUSH2 0x1673 JUMP JUMPDEST DUP3 MSTORE POP POP JUMP JUMPDEST PUSH0 PUSH1 0x20 DUP3 ADD SWAP1 POP PUSH2 0x169E PUSH0 DUP4 ADD DUP5 PUSH2 0x167C JUMP JUMPDEST SWAP3 SWAP2 POP POP JUMP JUMPDEST PUSH0 DUP1 REVERT JUMPDEST PUSH0 DUP1 REVERT JUMPDEST PUSH0 DUP1 REVERT JUMPDEST PUSH0 DUP1 DUP4 PUSH1 0x1F DUP5 ADD SLT PUSH2 0x16C5 JUMPI PUSH2 0x16C4 PUSH2 0x16A4 JUMP JUMPDEST JUMPDEST DUP3 CALLDATALOAD SWAP1 POP PUSH8 0xFFFFFFFFFFFFFFFF DUP2 GT ISZERO PUSH2 0x16E2 JUMPI PUSH2 0x16E1 PUSH2 0x16A8 JUMP JUMPDEST JUMPDEST PUSH1 0x20 DUP4 ADD SWAP2 POP DUP4 PUSH1 0x20 DUP3 MUL DUP4 ADD GT ISZERO PUSH2 0x16FE JUMPI PUSH2 0x16FD PUSH2 0x16AC JUMP JUMPDEST JUMPDEST SWAP3 POP SWAP3 SWAP1 POP JUMP JUMPDEST PUSH0 DUP1 DUP4 PUSH1 0x1F DUP5 ADD SLT PUSH2 0x171A JUMPI PUSH2 0x1719 PUSH2 0x16A4 JUMP JUMPDEST JUMPDEST DUP3 CALLDATALOAD SWAP1 POP PUSH8 0xFFFFFFFFFFFFFFFF DUP2 GT ISZERO PUSH2 0x1737 JUMPI PUSH2 0x1736 PUSH2 0x16A8 JUMP JUMPDEST JUMPDEST PUSH1 0x20 DUP4 ADD SWAP2 POP DUP4 PUSH1 0x20 DUP3 MUL DUP4 ADD GT ISZERO PUSH2 0x1753 JUMPI PUSH2 0x1752 PUSH2 0x16AC JUMP JUMPDEST JUMPDEST SWAP3 POP SWAP3 SWAP1 POP JUMP JUMPDEST PUSH0 DUP1 PUSH0 DUP1 PUSH0 PUSH1 0x60 DUP7 DUP9 SUB SLT ISZERO PUSH2 0x1773 JUMPI PUSH2 0x1772 PUSH2 0x141F JUMP JUMPDEST JUMPDEST PUSH0 DUP7 ADD CALLDATALOAD PUSH8 0xFFFFFFFFFFFFFFFF DUP2 GT ISZERO PUSH2 0x1790 JUMPI PUSH2 0x178F PUSH2 0x1423 JUMP JUMPDEST JUMPDEST PUSH2 0x179C DUP9 DUP3 DUP10 ADD PUSH2 0x16B0 JUMP JUMPDEST SWAP6 POP SWAP6 POP POP PUSH1 0x20 PUSH2 0x17AF DUP9 DUP3 DUP10 ADD PUSH2 0x15A6 JUMP JUMPDEST SWAP4 POP POP PUSH1 0x40 DUP7 ADD CALLDATALOAD PUSH8 0xFFFFFFFFFFFFFFFF DUP2 GT ISZERO PUSH2 0x17D0 JUMPI PUSH2 0x17CF PUSH2 0x1423 JUMP JUMPDEST JUMPDEST PUSH2 0x17DC DUP9 DUP3 DUP10 ADD PUSH2 0x1705 JUMP JUMPDEST SWAP3 POP SWAP3 POP POP SWAP3 SWAP6 POP SWAP3 SWAP6 SWAP1 SWAP4 POP JUMP JUMPDEST PUSH2 0x17F4 DUP2 PUSH2 0x1673 JUMP JUMPDEST DUP2 EQ PUSH2 0x17FE JUMPI PUSH0 DUP1 REVERT JUMPDEST POP JUMP JUMPDEST PUSH0 DUP2 CALLDATALOAD SWAP1 POP PUSH2 0x180F DUP2 PUSH2 0x17EB JUMP JUMPDEST SWAP3 SWAP2 POP POP JUMP JUMPDEST PUSH0 DUP1 PUSH0 PUSH1 0x60 DUP5 DUP7 SUB SLT ISZERO PUSH2 0x182C JUMPI PUSH2 0x182B PUSH2 0x141F JUMP JUMPDEST JUMPDEST PUSH0 PUSH2 0x1839 DUP7 DUP3 DUP8 ADD PUSH2 0x15A6 JUMP JUMPDEST SWAP4 POP POP PUSH1 0x20 PUSH2 0x184A DUP7 DUP3 DUP8 ADD PUSH2 0x15A6 JUMP JUMPDEST SWAP3 POP POP PUSH1 0x40 PUSH2 0x185B DUP7 DUP3 DUP8 ADD PUSH2 0x1801 JUMP JUMPDEST SWAP2 POP POP SWAP3 POP SWAP3 POP SWAP3 JUMP JUMPDEST PUSH0 DUP1 PUSH0 DUP1 PUSH1 0x80 DUP6 DUP8 SUB SLT ISZERO PUSH2 0x187D JUMPI PUSH2 0x187C PUSH2 0x141F JUMP JUMPDEST JUMPDEST PUSH0 PUSH2 0x188A DUP8 DUP3 DUP9 ADD PUSH2 0x15A6 JUMP JUMPDEST SWAP5 POP POP PUSH1 0x20 PUSH2 0x189B DUP8 DUP3 DUP9 ADD PUSH2 0x15A6 JUMP JUMPDEST SWAP4 POP POP PUSH1 0x40 PUSH2 0x18AC DUP8 DUP3 DUP9 ADD PUSH2 0x15A6 JUMP JUMPDEST SWAP3 POP POP PUSH1 0x60 PUSH2 0x18BD DUP8 DUP3 DUP9 ADD PUSH2 0x1801 JUMP JUMPDEST SWAP2 POP POP SWAP3 SWAP6 SWAP2 SWAP5 POP SWAP3 POP JUMP JUMPDEST PUSH32 0x4E487B7100000000000000000000000000000000000000000000000000000000 PUSH0 MSTORE PUSH1 0x32 PUSH1 0x4 MSTORE PUSH1 0x24 PUSH0 REVERT JUMPDEST PUSH32 0x4E487B7100000000000000000000000000000000000000000000000000000000 PUSH0 MSTORE PUSH1 0x11 PUSH1 0x4 MSTORE PUSH1 0x24 PUSH0 REVERT JUMPDEST PUSH0 PUSH2 0x192D DUP3 PUSH2 0x1673 JUMP JUMPDEST SWAP2 POP PUSH2 0x1938 DUP4 PUSH2 0x1673 JUMP JUMPDEST SWAP3 POP DUP3 DUP3 ADD SWAP1 POP DUP1 DUP3 GT ISZERO PUSH2 0x1950 JUMPI PUSH2 0x194F PUSH2 0x18F6 JUMP JUMPDEST JUMPDEST SWAP3 SWAP2 POP POP JUMP JUMPDEST PUSH0 DUP3 DUP3 MSTORE PUSH1 0x20 DUP3 ADD SWAP1 POP SWAP3 SWAP2 POP POP JUMP JUMPDEST PUSH0 DUP2 SWAP1 POP SWAP2 SWAP1 POP JUMP JUMPDEST PUSH2 0x1978 DUP2 PUSH2 0x157F JUMP JUMPDEST DUP3 MSTORE POP POP JUMP JUMPDEST PUSH0 PUSH2 0x1989 DUP4 DUP4 PUSH2 0x196F JUMP JUMPDEST PUSH1 0x20 DUP4 ADD SWAP1 POP SWAP3 SWAP2 POP POP JUMP JUMPDEST PUSH0 PUSH2 0x19A3 PUSH1 0x20 DUP5 ADD DUP5 PUSH2 0x15A6 JUMP JUMPDEST SWAP1 POP SWAP3 SWAP2 POP POP JUMP JUMPDEST PUSH0 PUSH1 0x20 DUP3 ADD SWAP1 POP SWAP2 SWAP1 POP JUMP JUMPDEST PUSH0 PUSH2 0x19C2 DUP4 DUP6 PUSH2 0x1956 JUMP JUMPDEST SWAP4 POP PUSH2 0x19CD DUP3 PUSH2 0x1966 JUMP JUMPDEST DUP1 PUSH0 JUMPDEST DUP6 DUP2 LT ISZERO PUSH2 0x1A05 JUMPI PUSH2 0x19E2 DUP3 DUP5 PUSH2 0x1995 JUMP JUMPDEST PUSH2 0x19EC DUP9 DUP3 PUSH2 0x197E JUMP JUMPDEST SWAP8 POP PUSH2 0x19F7 DUP4 PUSH2 0x19AB JUMP JUMPDEST SWAP3 POP POP PUSH1 0x1 DUP2 ADD SWAP1 POP PUSH2 0x19D0 JUMP JUMPDEST POP DUP6 SWAP3 POP POP POP SWAP4 SWAP3 POP POP POP JUMP JUMPDEST PUSH0 DUP3 DUP3 MSTORE PUSH1 0x20 DUP3 ADD SWAP1 POP SWAP3 SWAP2 POP POP JUMP JUMPDEST PUSH0 DUP1 REVERT JUMPDEST DUP3 DUP2 DUP4 CALLDATACOPY POP POP POP JUMP JUMPDEST PUSH0 PUSH2 0x1A3A DUP4 DUP6 PUSH2 0x1A12 JUMP JUMPDEST SWAP4 POP PUSH32 0x7FFFFFFFFFFFFFFFFFFFFFFFFFFFFFFFFFFFFFFFFFFFFFFFFFFFFFFFFFFFFFF DUP4 GT ISZERO PUSH2 0x1A6D JUMPI PUSH2 0x1A6C PUSH2 0x1A22 JUMP JUMPDEST JUMPDEST PUSH1 0x20 DUP4 MUL SWAP3 POP PUSH2 0x1A7E DUP4 DUP6 DUP5 PUSH2 0x1A26 JUMP JUMPDEST DUP3 DUP5 ADD SWAP1 POP SWAP4 SWAP3 POP POP POP JUMP JUMPDEST PUSH0 PUSH1 0x40 DUP3 ADD SWAP1 POP DUP2 DUP2 SUB PUSH0 DUP4 ADD MSTORE PUSH2 0x1AA3 DUP2 DUP7 DUP9 PUSH2 0x19B7 JUMP JUMPDEST SWAP1 POP DUP2 DUP2 SUB PUSH1 0x20 DUP4 ADD MSTORE PUSH2 0x1AB8 DUP2 DUP5 DUP7 PUSH2 0x1A2F JUMP JUMPDEST SWAP1 POP SWAP6 SWAP5 POP POP POP POP POP JUMP JUMPDEST PUSH2 0x1ACC DUP2 PUSH2 0x157F JUMP JUMPDEST DUP3 MSTORE POP POP JUMP JUMPDEST PUSH0 PUSH1 0xA0 DUP3 ADD SWAP1 POP PUSH2 0x1AE5 PUSH0 DUP4 ADD DUP9 PUSH2 0x1AC3 JUMP JUMPDEST PUSH2 0x1AF2 PUSH1 0x20 DUP4 ADD DUP8 PUSH2 0x1AC3 JUMP JUMPDEST PUSH2 0x1AFF PUSH1 0x40 DUP4 ADD DUP7 PUSH2 0x1AC3 JUMP JUMPDEST PUSH2 0x1B0C PUSH1 0x60 DUP4 ADD DUP6 PUSH2 0x167C JUMP JUMPDEST PUSH2 0x1B19 PUSH1 0x80 DUP4 ADD DUP5 PUSH2 0x167C JUMP JUMPDEST SWAP7 SWAP6 POP POP POP POP POP POP JUMP JUMPDEST PUSH0 PUSH1 0x60 DUP3 ADD SWAP1 POP PUSH2 0x1B36 PUSH0 DUP4 ADD DUP7 PUSH2 0x1AC3 JUMP JUMPDEST PUSH2 0x1B43 PUSH1 0x20 DUP4 ADD DUP6 PUSH2 0x1AC3 JUMP JUMPDEST PUSH2 0x1B50 PUSH1 0x40 DUP4 ADD DUP5 PUSH2 0x167C JUMP JUMPDEST SWAP5 SWAP4 POP POP POP POP JUMP JUMPDEST PUSH0 PUSH1 0x20 DUP3 ADD SWAP1 POP PUSH2 0x1B6B PUSH0 DUP4 ADD DUP5 PUSH2 0x1AC3 JUMP JUMPDEST SWAP3 SWAP2 POP POP JUMP JUMPDEST PUSH0 PUSH1 0x40 DUP3 ADD SWAP1 POP PUSH2 0x1B84 PUSH0 DUP4 ADD DUP6 PUSH2 0x1AC3 JUMP JUMPDEST PUSH2 0x1B91 PUSH1 0x20 DUP4 ADD DUP5 PUSH2 0x1538 JUMP JUMPDEST SWAP4 SWAP3 POP POP POP JUMP JUMPDEST PUSH2 0x1BA1 DUP2 PUSH2 0x14A7 JUMP JUMPDEST DUP2 EQ PUSH2 0x1BAB JUMPI PUSH0 DUP1 REVERT JUMPDEST POP JUMP JUMPDEST PUSH0 DUP2 MLOAD SWAP1 POP PUSH2 0x1BBC DUP2 PUSH2 0x1B98 JUMP JUMPDEST SWAP3 SWAP2 POP POP JUMP JUMPDEST PUSH0 PUSH1 0x20 DUP3 DUP5 SUB SLT ISZERO PUSH2 0x1BD7 JUMPI PUSH2 0x1BD6 PUSH2 0x141F JUMP JUMPDEST JUMPDEST PUSH0 PUSH2 0x1BE4 DUP5 DUP3 DUP6 ADD PUSH2 0x1BAE JUMP JUMPDEST SWAP2 POP POP SWAP3 SWAP2 POP POP JUMP JUMPDEST PUSH0 PUSH1 0x40 DUP3 ADD SWAP1 POP PUSH2 0x1C00 PUSH0 DUP4 ADD DUP6 PUSH2 0x1AC3 JUMP JUMPDEST PUSH2 0x1C0D PUSH1 0x20 DUP4 ADD DUP5 PUSH2 0x167C JUMP JUMPDEST SWAP4 SWAP3 POP POP POP JUMP JUMPDEST PUSH0 DUP2 MLOAD SWAP1 POP SWAP2 SWAP1 POP JUMP JUMPDEST PUSH0 DUP2 SWAP1 POP SWAP3 SWAP2 POP POP JUMP JUMPDEST DUP3 DUP2 DUP4 MCOPY PUSH0 DUP4 DUP4 ADD MSTORE POP POP POP JUMP JUMPDEST PUSH0 PUSH2 0x1C40 DUP3 PUSH2 0x1C14 JUMP JUMPDEST PUSH2 0x1C4A DUP2 DUP6 PUSH2 0x1C1E JUMP JUMPDEST SWAP4 POP PUSH2 0x1C5A DUP2 DUP6 PUSH1 0x20 DUP7 ADD PUSH2 0x1C28 JUMP JUMPDEST DUP1 DUP5 ADD SWAP2 POP POP SWAP3 SWAP2 POP POP JUMP JUMPDEST PUSH0 PUSH2 0x1C71 DUP3 DUP5 PUSH2 0x1C36 JUMP JUMPDEST SWAP2 POP DUP2 SWAP1 POP SWAP3 SWAP2 POP POP JUMP INVALID LOG2 PUSH5 0x6970667358 0x22 SLT KECCAK256 0xE 0xFC SSTORE DUP16 EXTCODECOPY ORIGIN 0xCA 0xDF 0xD5 SWAP6 0xE1 PC PUSH1 0xD5 PUSH2 0xB374 PUSH25 0x583CB2E340DEA351C92CDC69AEF64736F6C634300081A0033 "
				},
				"gasEstimates": {
					"creation": {
						"codeDepositCost": "1469200",
						"executionCost": "infinite",
						"totalCost": "infinite"
					},
					"external": {
						"DEFAULT_ADMIN_ROLE()": "397",
						"TRANSFER_ADMIN_ROLE()": "348",
						"addSupportedToken(address)": "infinite",
						"allowance(address,address,address)": "infinite",
						"batchTransferToken(address[],address,uint256[])": "infinite",
						"getRoleAdmin(bytes32)": "infinite",
						"grantRole(bytes32,address)": "infinite",
						"hasRole(bytes32,address)": "3145",
						"removeSupportedToken(address)": "infinite",
						"renounceRole(bytes32,address)": "infinite",
						"revokeRole(bytes32,address)": "infinite",
						"setAllowance(address,address,uint256)": "infinite",
						"supportedTokens(address)": "2878",
						"supportsInterface(bytes4)": "741",
						"transferToken(address,address,uint256)": "infinite",
						"transferTokenFrom(address,address,address,uint256)": "infinite"
					},
					"internal": {
						"_transferToken(address,address,address,uint256)": "infinite"
					}
				},
				"methodIdentifiers": {
					"DEFAULT_ADMIN_ROLE()": "a217fddf",
					"TRANSFER_ADMIN_ROLE()": "68a37ae8",
					"addSupportedToken(address)": "6d69fcaf",
					"allowance(address,address,address)": "927da105",
					"batchTransferToken(address[],address,uint256[])": "cdb33b81",
					"getRoleAdmin(bytes32)": "248a9ca3",
					"grantRole(bytes32,address)": "2f2ff15d",
					"hasRole(bytes32,address)": "91d14854",
					"removeSupportedToken(address)": "76319190",
					"renounceRole(bytes32,address)": "36568abe",
					"revokeRole(bytes32,address)": "d547741f",
					"setAllowance(address,address,uint256)": "da46098c",
					"supportedTokens(address)": "68c4ac26",
					"supportsInterface(bytes4)": "01ffc9a7",
					"transferToken(address,address,uint256)": "f5537ede",
					"transferTokenFrom(address,address,address,uint256)": "e5994905"
				}
			},
			"storageLayout": {
				"storage": [
					{
						"astId": 1076,
						"contract": "contracts/token/TokenTransfer.sol:TokenTransfer",
						"label": "_status",
						"offset": 0,
						"slot": "0",
						"type": "t_uint256"
					},
					{
						"astId": 26,
						"contract": "contracts/token/TokenTransfer.sol:TokenTransfer",
						"label": "_roles",
						"offset": 0,
						"slot": "1",
						"type": "t_mapping(t_bytes32,t_struct(RoleData)21_storage)"
					},
					{
						"astId": 1198,
						"contract": "contracts/token/TokenTransfer.sol:TokenTransfer",
						"label": "supportedTokens",
						"offset": 0,
						"slot": "2",
						"type": "t_mapping(t_address,t_bool)"
					},
					{
						"astId": 1206,
						"contract": "contracts/token/TokenTransfer.sol:TokenTransfer",
						"label": "_allowances",
						"offset": 0,
						"slot": "3",
						"type": "t_mapping(t_address,t_mapping(t_address,t_mapping(t_address,t_uint256)))"
					}
				],
				"types": {
					"t_address": {
						"encoding": "inplace",
						"label": "address",
						"numberOfBytes": "20"
					},
					"t_bool": {
						"encoding": "inplace",
						"label": "bool",
						"numberOfBytes": "1"
					},
					"t_bytes32": {
						"encoding": "inplace",
						"label": "bytes32",
						"numberOfBytes": "32"
					},
					"t_mapping(t_address,t_bool)": {
						"encoding": "mapping",
						"key": "t_address",
						"label": "mapping(address => bool)",
						"numberOfBytes": "32",
						"value": "t_bool"
					},
					"t_mapping(t_address,t_mapping(t_address,t_mapping(t_address,t_uint256)))": {
						"encoding": "mapping",
						"key": "t_address",
						"label": "mapping(address => mapping(address => mapping(address => uint256)))",
						"numberOfBytes": "32",
						"value": "t_mapping(t_address,t_mapping(t_address,t_uint256))"
					},
					"t_mapping(t_address,t_mapping(t_address,t_uint256))": {
						"encoding": "mapping",
						"key": "t_address",
						"label": "mapping(address => mapping(address => uint256))",
						"numberOfBytes": "32",
						"value": "t_mapping(t_address,t_uint256)"
					},
					"t_mapping(t_address,t_uint256)": {
						"encoding": "mapping",
						"key": "t_address",
						"label": "mapping(address => uint256)",
						"numberOfBytes": "32",
						"value": "t_uint256"
					},
					"t_mapping(t_bytes32,t_struct(RoleData)21_storage)": {
						"encoding": "mapping",
						"key": "t_bytes32",
						"label": "mapping(bytes32 => struct AccessControl.RoleData)",
						"numberOfBytes": "32",
						"value": "t_struct(RoleData)21_storage"
					},
					"t_struct(RoleData)21_storage": {
						"encoding": "inplace",
						"label": "struct AccessControl.RoleData",
						"members": [
							{
								"astId": 18,
								"contract": "contracts/token/TokenTransfer.sol:TokenTransfer",
								"label": "hasRole",
								"offset": 0,
								"slot": "0",
								"type": "t_mapping(t_address,t_bool)"
							},
							{
								"astId": 20,
								"contract": "contracts/token/TokenTransfer.sol:TokenTransfer",
								"label": "adminRole",
								"offset": 0,
								"slot": "1",
								"type": "t_bytes32"
							}
						],
						"numberOfBytes": "64"
					},
					"t_uint256": {
						"encoding": "inplace",
						"label": "uint256",
						"numberOfBytes": "32"
					}
				}
			},
			"userdoc": {
				"kind": "user",
				"methods": {},
				"version": 1
			}
		}
	}
}