{
	"contracts/security/audit/TransactionLogger.sol": {
		"TransactionLogger": {
			"abi": [
				{
					"inputs": [],
					"stateMutability": "nonpayable",
					"type": "constructor"
				},
				{
					"inputs": [],
					"name": "AccessControlBadConfirmation",
					"type": "error"
				},
				{
					"inputs": [
						{
							"internalType": "address",
							"name": "account",
							"type": "address"
						},
						{
							"internalType": "bytes32",
							"name": "neededRole",
							"type": "bytes32"
						}
					],
					"name": "AccessControlUnauthorizedAccount",
					"type": "error"
				},
				{
					"anonymous": false,
					"inputs": [
						{
							"indexed": true,
							"internalType": "bytes32",
							"name": "role",
							"type": "bytes32"
						},
						{
							"indexed": true,
							"internalType": "bytes32",
							"name": "previousAdminRole",
							"type": "bytes32"
						},
						{
							"indexed": true,
							"internalType": "bytes32",
							"name": "newAdminRole",
							"type": "bytes32"
						}
					],
					"name": "RoleAdminChanged",
					"type": "event"
				},
				{
					"anonymous": false,
					"inputs": [
						{
							"indexed": true,
							"internalType": "bytes32",
							"name": "role",
							"type": "bytes32"
						},
						{
							"indexed": true,
							"internalType": "address",
							"name": "account",
							"type": "address"
						},
						{
							"indexed": true,
							"internalType": "address",
							"name": "sender",
							"type": "address"
						}
					],
					"name": "RoleGranted",
					"type": "event"
				},
				{
					"anonymous": false,
					"inputs": [
						{
							"indexed": true,
							"internalType": "bytes32",
							"name": "role",
							"type": "bytes32"
						},
						{
							"indexed": true,
							"internalType": "address",
							"name": "account",
							"type": "address"
						},
						{
							"indexed": true,
							"internalType": "address",
							"name": "sender",
							"type": "address"
						}
					],
					"name": "RoleRevoked",
					"type": "event"
				},
				{
					"anonymous": false,
					"inputs": [
						{
							"indexed": true,
							"internalType": "address",
							"name": "sender",
							"type": "address"
						},
						{
							"indexed": true,
							"internalType": "address",
							"name": "receiver",
							"type": "address"
						},
						{
							"indexed": false,
							"internalType": "uint256",
							"name": "amount",
							"type": "uint256"
						},
						{
							"indexed": false,
							"internalType": "uint256",
							"name": "timestamp",
							"type": "uint256"
						},
						{
							"indexed": false,
							"internalType": "bytes",
							"name": "details",
							"type": "bytes"
						}
					],
					"name": "TransactionLogged",
					"type": "event"
				},
				{
					"inputs": [],
					"name": "AUDITOR_ROLE",
					"outputs": [
						{
							"internalType": "bytes32",
							"name": "",
							"type": "bytes32"
						}
					],
					"stateMutability": "view",
					"type": "function"
				},
				{
					"inputs": [],
					"name": "DEFAULT_ADMIN_ROLE",
					"outputs": [
						{
							"internalType": "bytes32",
							"name": "",
							"type": "bytes32"
						}
					],
					"stateMutability": "view",
					"type": "function"
				},
				{
					"inputs": [
						{
							"internalType": "bytes32",
							"name": "role",
							"type": "bytes32"
						}
					],
					"name": "getRoleAdmin",
					"outputs": [
						{
							"internalType": "bytes32",
							"name": "",
							"type": "bytes32"
						}
					],
					"stateMutability": "view",
					"type": "function"
				},
				{
					"inputs": [
						{
							"internalType": "uint256",
							"name": "index",
							"type": "uint256"
						}
					],
					"name": "getTransaction",
					"outputs": [
						{
							"internalType": "address",
							"name": "sender",
							"type": "address"
						},
						{
							"internalType": "address",
							"name": "receiver",
							"type": "address"
						},
						{
							"internalType": "uint256",
							"name": "amount",
							"type": "uint256"
						},
						{
							"internalType": "uint256",
							"name": "timestamp",
							"type": "uint256"
						},
						{
							"internalType": "bytes",
							"name": "details",
							"type": "bytes"
						}
					],
					"stateMutability": "view",
					"type": "function"
				},
				{
					"inputs": [
						{
							"internalType": "address",
							"name": "account",
							"type": "address"
						}
					],
					"name": "grantAuditorRole",
					"outputs": [],
					"stateMutability": "nonpayable",
					"type": "function"
				},
				{
					"inputs": [
						{
							"internalType": "bytes32",
							"name": "role",
							"type": "bytes32"
						},
						{
							"internalType": "address",
							"name": "account",
							"type": "address"
						}
					],
					"name": "grantRole",
					"outputs": [],
					"stateMutability": "nonpayable",
					"type": "function"
				},
				{
					"inputs": [
						{
							"internalType": "address",
							"name": "account",
							"type": "address"
						}
					],
					"name": "hasAuditorRole",
					"outputs": [
						{
							"internalType": "bool",
							"name": "",
							"type": "bool"
						}
					],
					"stateMutability": "view",
					"type": "function"
				},
				{
					"inputs": [
						{
							"internalType": "bytes32",
							"name": "role",
							"type": "bytes32"
						},
						{
							"internalType": "address",
							"name": "account",
							"type": "address"
						}
					],
					"name": "hasRole",
					"outputs": [
						{
							"internalType": "bool",
							"name": "",
							"type": "bool"
						}
					],
					"stateMutability": "view",
					"type": "function"
				},
				{
					"inputs": [
						{
							"internalType": "address",
							"name": "receiver",
							"type": "address"
						},
						{
							"internalType": "uint256",
							"name": "amount",
							"type": "uint256"
						},
						{
							"internalType": "bytes",
							"name": "details",
							"type": "bytes"
						}
					],
					"name": "logTransaction",
					"outputs": [],
					"stateMutability": "nonpayable",
					"type": "function"
				},
				{
					"inputs": [
						{
							"internalType": "bytes32",
							"name": "role",
							"type": "bytes32"
						},
						{
							"internalType": "address",
							"name": "callerConfirmation",
							"type": "address"
						}
					],
					"name": "renounceRole",
					"outputs": [],
					"stateMutability": "nonpayable",
					"type": "function"
				},
				{
					"inputs": [
						{
							"internalType": "address",
							"name": "account",
							"type": "address"
						}
					],
					"name": "revokeAuditorRole",
					"outputs": [],
					"stateMutability": "nonpayable",
					"type": "function"
				},
				{
					"inputs": [
						{
							"internalType": "bytes32",
							"name": "role",
							"type": "bytes32"
						},
						{
							"internalType": "address",
							"name": "account",
							"type": "address"
						}
					],
					"name": "revokeRole",
					"outputs": [],
					"stateMutability": "nonpayable",
					"type": "function"
				},
				{
					"inputs": [
						{
							"internalType": "bytes4",
							"name": "interfaceId",
							"type": "bytes4"
						}
					],
					"name": "supportsInterface",
					"outputs": [
						{
							"internalType": "bool",
							"name": "",
							"type": "bool"
						}
					],
					"stateMutability": "view",
					"type": "function"
				}
			],
			"devdoc": {
				"details": "This contract logs transaction details for auditing and monitoring purposes.",
				"errors": {
					"AccessControlBadConfirmation()": [
						{
							"details": "The caller of a function is not the expected one. NOTE: Don't confuse with {AccessControlUnauthorizedAccount}."
						}
					],
					"AccessControlUnauthorizedAccount(address,bytes32)": [
						{
							"details": "The `account` is missing a role."
						}
					]
				},
				"events": {
					"RoleAdminChanged(bytes32,bytes32,bytes32)": {
						"details": "Emitted when `newAdminRole` is set as ``role``'s admin role, replacing `previousAdminRole` `DEFAULT_ADMIN_ROLE` is the starting admin for all roles, despite {RoleAdminChanged} not being emitted signaling this."
					},
					"RoleGranted(bytes32,address,address)": {
						"details": "Emitted when `account` is granted `role`. `sender` is the account that originated the contract call, an admin role bearer except when using {AccessControl-_setupRole}."
					},
					"RoleRevoked(bytes32,address,address)": {
						"details": "Emitted when `account` is revoked `role`. `sender` is the account that originated the contract call:   - if using `revokeRole`, it is the admin role bearer   - if using `renounceRole`, it is the role bearer (i.e. `account`)"
					}
				},
				"kind": "dev",
				"methods": {
					"getRoleAdmin(bytes32)": {
						"details": "Returns the admin role that controls `role`. See {grantRole} and {revokeRole}. To change a role's admin, use {_setRoleAdmin}."
					},
					"getTransaction(uint256)": {
						"details": "Retrieve transaction details by index.",
						"params": {
							"index": "The index of the transaction to retrieve."
						},
						"returns": {
							"amount": "Amount of the transaction.",
							"details": "Additional details about the transaction.",
							"receiver": "Address that received the transaction.",
							"sender": "Address that initiated the transaction.",
							"timestamp": "Timestamp when the transaction occurred."
						}
					},
					"grantAuditorRole(address)": {
						"details": "Grant the auditor role to a new account.",
						"params": {
							"account": "The account to grant the auditor role to."
						}
					},
					"grantRole(bytes32,address)": {
						"details": "Grants `role` to `account`. If `account` had not been already granted `role`, emits a {RoleGranted} event. Requirements: - the caller must have ``role``'s admin role. May emit a {RoleGranted} event."
					},
					"hasAuditorRole(address)": {
						"details": "Check if an account has the auditor role.",
						"params": {
							"account": "The account to check."
						},
						"returns": {
							"_0": "True if the account has the auditor role, false otherwise."
						}
					},
					"hasRole(bytes32,address)": {
						"details": "Returns `true` if `account` has been granted `role`."
					},
					"logTransaction(address,uint256,bytes)": {
						"details": "Log a transaction with relevant details.",
						"params": {
							"amount": "The amount transferred.",
							"details": "Additional details about the transaction, encoded as bytes.",
							"receiver": "The recipient of the transaction."
						}
					},
					"renounceRole(bytes32,address)": {
						"details": "Revokes `role` from the calling account. Roles are often managed via {grantRole} and {revokeRole}: this function's purpose is to provide a mechanism for accounts to lose their privileges if they are compromised (such as when a trusted device is misplaced). If the calling account had been revoked `role`, emits a {RoleRevoked} event. Requirements: - the caller must be `callerConfirmation`. May emit a {RoleRevoked} event."
					},
					"revokeAuditorRole(address)": {
						"details": "Revoke the auditor role from an account.",
						"params": {
							"account": "The account to revoke the auditor role from."
						}
					},
					"revokeRole(bytes32,address)": {
						"details": "Revokes `role` from `account`. If `account` had been granted `role`, emits a {RoleRevoked} event. Requirements: - the caller must have ``role``'s admin role. May emit a {RoleRevoked} event."
					},
					"supportsInterface(bytes4)": {
						"details": "See {IERC165-supportsInterface}."
					}
				},
				"title": "TransactionLogger",
				"version": 1
			},
			"evm": {
				"assembly": "    /* \"contracts/security/audit/TransactionLogger.sol\":266:3478  contract TransactionLogger is AccessControl {... */\n  mstore(0x40, 0x80)\n    /* \"contracts/security/audit/TransactionLogger.sol\":857:976  constructor() {... */\n  callvalue\n  dup1\n  iszero\n  tag_1\n  jumpi\n  0x00\n  dup1\n  revert\ntag_1:\n  pop\n    /* \"contracts/security/audit/TransactionLogger.sol\":881:923  _grantRole(DEFAULT_ADMIN_ROLE, msg.sender) */\n  tag_4\n    /* \"@openzeppelin/contracts/access/AccessControl.sol\":2232:2236  0x00 */\n  0x00\n    /* \"contracts/security/audit/TransactionLogger.sol\":892:910  DEFAULT_ADMIN_ROLE */\n  dup1\n  shl\n    /* \"contracts/security/audit/TransactionLogger.sol\":912:922  msg.sender */\n  caller\n    /* \"contracts/security/audit/TransactionLogger.sol\":881:891  _grantRole */\n  shl(0x20, tag_5)\n    /* \"contracts/security/audit/TransactionLogger.sol\":881:923  _grantRole(DEFAULT_ADMIN_ROLE, msg.sender) */\n  0x20\n  shr\n  jump\t// in\ntag_4:\n  pop\n    /* \"contracts/security/audit/TransactionLogger.sol\":933:969  _grantRole(AUDITOR_ROLE, msg.sender) */\n  tag_6\n    /* \"contracts/security/audit/TransactionLogger.sol\":355:380  keccak256(\"AUDITOR_ROLE\") */\n  0x59a1c48e5837ad7a7f3dcedcbe129bf3249ec4fbf651fd4f5e2600ead39fe2f5\n    /* \"contracts/security/audit/TransactionLogger.sol\":958:968  msg.sender */\n  caller\n    /* \"contracts/security/audit/TransactionLogger.sol\":933:943  _grantRole */\n  shl(0x20, tag_5)\n    /* \"contracts/security/audit/TransactionLogger.sol\":933:969  _grantRole(AUDITOR_ROLE, msg.sender) */\n  0x20\n  shr\n  jump\t// in\ntag_6:\n  pop\n    /* \"contracts/security/audit/TransactionLogger.sol\":266:3478  contract TransactionLogger is AccessControl {... */\n  jump(tag_7)\n    /* \"@openzeppelin/contracts/access/AccessControl.sol\":6179:6495  function _grantRole(bytes32 role, address account) internal virtual returns (bool) {... */\ntag_5:\n    /* \"@openzeppelin/contracts/access/AccessControl.sol\":6256:6260  bool */\n  0x00\n    /* \"@openzeppelin/contracts/access/AccessControl.sol\":6277:6299  hasRole(role, account) */\n  tag_9\n    /* \"@openzeppelin/contracts/access/AccessControl.sol\":6285:6289  role */\n  dup4\n    /* \"@openzeppelin/contracts/access/AccessControl.sol\":6291:6298  account */\n  dup4\n    /* \"@openzeppelin/contracts/access/AccessControl.sol\":6277:6284  hasRole */\n  shl(0x20, tag_10)\n    /* \"@openzeppelin/contracts/access/AccessControl.sol\":6277:6299  hasRole(role, account) */\n  0x20\n  shr\n  jump\t// in\ntag_9:\n    /* \"@openzeppelin/contracts/access/AccessControl.sol\":6272:6489  if (!hasRole(role, account)) {... */\n  tag_11\n  jumpi\n    /* \"@openzeppelin/contracts/access/AccessControl.sol\":6347:6351  true */\n  0x01\n    /* \"@openzeppelin/contracts/access/AccessControl.sol\":6315:6321  _roles */\n  0x00\n    /* \"@openzeppelin/contracts/access/AccessControl.sol\":6315:6327  _roles[role] */\n  dup1\n    /* \"@openzeppelin/contracts/access/AccessControl.sol\":6322:6326  role */\n  dup6\n    /* \"@openzeppelin/contracts/access/AccessControl.sol\":6315:6327  _roles[role] */\n  dup2\n  mstore\n  0x20\n  add\n  swap1\n  dup2\n  mstore\n  0x20\n  add\n  0x00\n  keccak256\n    /* \"@openzeppelin/contracts/access/AccessControl.sol\":6315:6335  _roles[role].hasRole */\n  0x00\n  add\n    /* \"@openzeppelin/contracts/access/AccessControl.sol\":6315:6344  _roles[role].hasRole[account] */\n  0x00\n    /* \"@openzeppelin/contracts/access/AccessControl.sol\":6336:6343  account */\n  dup5\n    /* \"@openzeppelin/contracts/access/AccessControl.sol\":6315:6344  _roles[role].hasRole[account] */\n  0xffffffffffffffffffffffffffffffffffffffff\n  and\n  0xffffffffffffffffffffffffffffffffffffffff\n  and\n  dup2\n  mstore\n  0x20\n  add\n  swap1\n  dup2\n  mstore\n  0x20\n  add\n  0x00\n  keccak256\n  0x00\n    /* \"@openzeppelin/contracts/access/AccessControl.sol\":6315:6351  _roles[role].hasRole[account] = true */\n  0x0100\n  exp\n  dup2\n  sload\n  dup2\n  0xff\n  mul\n  not\n  and\n  swap1\n  dup4\n  iszero\n  iszero\n  mul\n  or\n  swap1\n  sstore\n  pop\n    /* \"@openzeppelin/contracts/access/AccessControl.sol\":6397:6409  _msgSender() */\n  tag_12\n    /* \"@openzeppelin/contracts/access/AccessControl.sol\":6397:6407  _msgSender */\n  shl(0x20, tag_13)\n    /* \"@openzeppelin/contracts/access/AccessControl.sol\":6397:6409  _msgSender() */\n  0x20\n  shr\n  jump\t// in\ntag_12:\n    /* \"@openzeppelin/contracts/access/AccessControl.sol\":6370:6410  RoleGranted(role, account, _msgSender()) */\n  0xffffffffffffffffffffffffffffffffffffffff\n  and\n    /* \"@openzeppelin/contracts/access/AccessControl.sol\":6388:6395  account */\n  dup3\n    /* \"@openzeppelin/contracts/access/AccessControl.sol\":6370:6410  RoleGranted(role, account, _msgSender()) */\n  0xffffffffffffffffffffffffffffffffffffffff\n  and\n    /* \"@openzeppelin/contracts/access/AccessControl.sol\":6382:6386  role */\n  dup5\n    /* \"@openzeppelin/contracts/access/AccessControl.sol\":6370:6410  RoleGranted(role, account, _msgSender()) */\n  0x2f8788117e7eff1d82e926ec794901d17c78024a50270940304540a733656f0d\n  mload(0x40)\n  mload(0x40)\n  dup1\n  swap2\n  sub\n  swap1\n  log4\n    /* \"@openzeppelin/contracts/access/AccessControl.sol\":6431:6435  true */\n  0x01\n    /* \"@openzeppelin/contracts/access/AccessControl.sol\":6424:6435  return true */\n  swap1\n  pop\n  jump(tag_8)\n    /* \"@openzeppelin/contracts/access/AccessControl.sol\":6272:6489  if (!hasRole(role, account)) {... */\ntag_11:\n    /* \"@openzeppelin/contracts/access/AccessControl.sol\":6473:6478  false */\n  0x00\n    /* \"@openzeppelin/contracts/access/AccessControl.sol\":6466:6478  return false */\n  swap1\n  pop\n    /* \"@openzeppelin/contracts/access/AccessControl.sol\":6179:6495  function _grantRole(bytes32 role, address account) internal virtual returns (bool) {... */\ntag_8:\n  swap3\n  swap2\n  pop\n  pop\n  jump\t// out\n    /* \"@openzeppelin/contracts/access/AccessControl.sol\":2854:2990  function hasRole(bytes32 role, address account) public view virtual returns (bool) {... */\ntag_10:\n    /* \"@openzeppelin/contracts/access/AccessControl.sol\":2931:2935  bool */\n  0x00\n    /* \"@openzeppelin/contracts/access/AccessControl.sol\":2954:2960  _roles */\n  dup1\n    /* \"@openzeppelin/contracts/access/AccessControl.sol\":2954:2966  _roles[role] */\n  0x00\n    /* \"@openzeppelin/contracts/access/AccessControl.sol\":2961:2965  role */\n  dup5\n    /* \"@openzeppelin/contracts/access/AccessControl.sol\":2954:2966  _roles[role] */\n  dup2\n  mstore\n  0x20\n  add\n  swap1\n  dup2\n  mstore\n  0x20\n  add\n  0x00\n  keccak256\n    /* \"@openzeppelin/contracts/access/AccessControl.sol\":2954:2974  _roles[role].hasRole */\n  0x00\n  add\n    /* \"@openzeppelin/contracts/access/AccessControl.sol\":2954:2983  _roles[role].hasRole[account] */\n  0x00\n    /* \"@openzeppelin/contracts/access/AccessControl.sol\":2975:2982  account */\n  dup4\n    /* \"@openzeppelin/contracts/access/AccessControl.sol\":2954:2983  _roles[role].hasRole[account] */\n  0xffffffffffffffffffffffffffffffffffffffff\n  and\n  0xffffffffffffffffffffffffffffffffffffffff\n  and\n  dup2\n  mstore\n  0x20\n  add\n  swap1\n  dup2\n  mstore\n  0x20\n  add\n  0x00\n  keccak256\n  0x00\n  swap1\n  sload\n  swap1\n  0x0100\n  exp\n  swap1\n  div\n  0xff\n  and\n    /* \"@openzeppelin/contracts/access/AccessControl.sol\":2947:2983  return _roles[role].hasRole[account] */\n  swap1\n  pop\n    /* \"@openzeppelin/contracts/access/AccessControl.sol\":2854:2990  function hasRole(bytes32 role, address account) public view virtual returns (bool) {... */\n  swap3\n  swap2\n  pop\n  pop\n  jump\t// out\n    /* \"@openzeppelin/contracts/utils/Context.sol\":656:752  function _msgSender() internal view virtual returns (address) {... */\ntag_13:\n    /* \"@openzeppelin/contracts/utils/Context.sol\":709:716  address */\n  0x00\n    /* \"@openzeppelin/contracts/utils/Context.sol\":735:745  msg.sender */\n  caller\n    /* \"@openzeppelin/contracts/utils/Context.sol\":728:745  return msg.sender */\n  swap1\n  pop\n    /* \"@openzeppelin/contracts/utils/Context.sol\":656:752  function _msgSender() internal view virtual returns (address) {... */\n  swap1\n  jump\t// out\n    /* \"contracts/security/audit/TransactionLogger.sol\":266:3478  contract TransactionLogger is AccessControl {... */\ntag_7:\n  dataSize(sub_0)\n  dup1\n  dataOffset(sub_0)\n  0x00\n  codecopy\n  0x00\n  return\nstop\n\nsub_0: assembly {\n        /* \"contracts/security/audit/TransactionLogger.sol\":266:3478  contract TransactionLogger is AccessControl {... */\n      mstore(0x40, 0x80)\n      callvalue\n      dup1\n      iszero\n      tag_1\n      jumpi\n      0x00\n      dup1\n      revert\n    tag_1:\n      pop\n      jumpi(tag_2, lt(calldatasize, 0x04))\n      shr(0xe0, calldataload(0x00))\n      dup1\n      0x50c17b10\n      gt\n      tag_16\n      jumpi\n      dup1\n      0xa217fddf\n      gt\n      tag_17\n      jumpi\n      dup1\n      0xa217fddf\n      eq\n      tag_12\n      jumpi\n      dup1\n      0xa5ce262a\n      eq\n      tag_13\n      jumpi\n      dup1\n      0xabaa536f\n      eq\n      tag_14\n      jumpi\n      dup1\n      0xd547741f\n      eq\n      tag_15\n      jumpi\n      jump(tag_2)\n    tag_17:\n      dup1\n      0x50c17b10\n      eq\n      tag_9\n      jumpi\n      dup1\n      0x6e1d616e\n      eq\n      tag_10\n      jumpi\n      dup1\n      0x91d14854\n      eq\n      tag_11\n      jumpi\n      jump(tag_2)\n    tag_16:\n      dup1\n      0x01ffc9a7\n      eq\n      tag_3\n      jumpi\n      dup1\n      0x248a9ca3\n      eq\n      tag_4\n      jumpi\n      dup1\n      0x2f2ff15d\n      eq\n      tag_5\n      jumpi\n      dup1\n      0x33ea3dc8\n      eq\n      tag_6\n      jumpi\n      dup1\n      0x36568abe\n      eq\n      tag_7\n      jumpi\n      dup1\n      0x3e251518\n      eq\n      tag_8\n      jumpi\n    tag_2:\n      0x00\n      dup1\n      revert\n        /* \"@openzeppelin/contracts/access/AccessControl.sol\":2565:2767  function supportsInterface(bytes4 interfaceId) public view virtual override returns (bool) {... */\n    tag_3:\n      tag_18\n      0x04\n      dup1\n      calldatasize\n      sub\n      dup2\n      add\n      swap1\n      tag_19\n      swap2\n      swap1\n      tag_20\n      jump\t// in\n    tag_19:\n      tag_21\n      jump\t// in\n    tag_18:\n      mload(0x40)\n      tag_22\n      swap2\n      swap1\n      tag_23\n      jump\t// in\n    tag_22:\n      mload(0x40)\n      dup1\n      swap2\n      sub\n      swap1\n      return\n        /* \"@openzeppelin/contracts/access/AccessControl.sol\":3810:3930  function getRoleAdmin(bytes32 role) public view virtual returns (bytes32) {... */\n    tag_4:\n      tag_24\n      0x04\n      dup1\n      calldatasize\n      sub\n      dup2\n      add\n      swap1\n      tag_25\n      swap2\n      swap1\n      tag_26\n      jump\t// in\n    tag_25:\n      tag_27\n      jump\t// in\n    tag_24:\n      mload(0x40)\n      tag_28\n      swap2\n      swap1\n      tag_29\n      jump\t// in\n    tag_28:\n      mload(0x40)\n      dup1\n      swap2\n      sub\n      swap1\n      return\n        /* \"@openzeppelin/contracts/access/AccessControl.sol\":4226:4362  function grantRole(bytes32 role, address account) public virtual onlyRole(getRoleAdmin(role)) {... */\n    tag_5:\n      tag_30\n      0x04\n      dup1\n      calldatasize\n      sub\n      dup2\n      add\n      swap1\n      tag_31\n      swap2\n      swap1\n      tag_32\n      jump\t// in\n    tag_31:\n      tag_33\n      jump\t// in\n    tag_30:\n      stop\n        /* \"contracts/security/audit/TransactionLogger.sol\":2139:2615  function getTransaction(uint256 index) external view returns (... */\n    tag_6:\n      tag_34\n      0x04\n      dup1\n      calldatasize\n      sub\n      dup2\n      add\n      swap1\n      tag_35\n      swap2\n      swap1\n      tag_36\n      jump\t// in\n    tag_35:\n      tag_37\n      jump\t// in\n    tag_34:\n      mload(0x40)\n      tag_38\n      swap6\n      swap5\n      swap4\n      swap3\n      swap2\n      swap1\n      tag_39\n      jump\t// in\n    tag_38:\n      mload(0x40)\n      dup1\n      swap2\n      sub\n      swap1\n      return\n        /* \"@openzeppelin/contracts/access/AccessControl.sol\":5328:5573  function renounceRole(bytes32 role, address callerConfirmation) public virtual {... */\n    tag_7:\n      tag_40\n      0x04\n      dup1\n      calldatasize\n      sub\n      dup2\n      add\n      swap1\n      tag_41\n      swap2\n      swap1\n      tag_32\n      jump\t// in\n    tag_41:\n      tag_42\n      jump\t// in\n    tag_40:\n      stop\n        /* \"contracts/security/audit/TransactionLogger.sol\":3026:3158  function revokeAuditorRole(address account) external onlyRole(DEFAULT_ADMIN_ROLE) {... */\n    tag_8:\n      tag_43\n      0x04\n      dup1\n      calldatasize\n      sub\n      dup2\n      add\n      swap1\n      tag_44\n      swap2\n      swap1\n      tag_45\n      jump\t// in\n    tag_44:\n      tag_46\n      jump\t// in\n    tag_43:\n      stop\n        /* \"contracts/security/audit/TransactionLogger.sol\":2754:2884  function grantAuditorRole(address account) external onlyRole(DEFAULT_ADMIN_ROLE) {... */\n    tag_9:\n      tag_47\n      0x04\n      dup1\n      calldatasize\n      sub\n      dup2\n      add\n      swap1\n      tag_48\n      swap2\n      swap1\n      tag_45\n      jump\t// in\n    tag_48:\n      tag_49\n      jump\t// in\n    tag_47:\n      stop\n        /* \"contracts/security/audit/TransactionLogger.sol\":316:380  bytes32 public constant AUDITOR_ROLE = keccak256(\"AUDITOR_ROLE\") */\n    tag_10:\n      tag_50\n      tag_51\n      jump\t// in\n    tag_50:\n      mload(0x40)\n      tag_52\n      swap2\n      swap1\n      tag_29\n      jump\t// in\n    tag_52:\n      mload(0x40)\n      dup1\n      swap2\n      sub\n      swap1\n      return\n        /* \"@openzeppelin/contracts/access/AccessControl.sol\":2854:2990  function hasRole(bytes32 role, address account) public view virtual returns (bool) {... */\n    tag_11:\n      tag_53\n      0x04\n      dup1\n      calldatasize\n      sub\n      dup2\n      add\n      swap1\n      tag_54\n      swap2\n      swap1\n      tag_32\n      jump\t// in\n    tag_54:\n      tag_55\n      jump\t// in\n    tag_53:\n      mload(0x40)\n      tag_56\n      swap2\n      swap1\n      tag_23\n      jump\t// in\n    tag_56:\n      mload(0x40)\n      dup1\n      swap2\n      sub\n      swap1\n      return\n        /* \"@openzeppelin/contracts/access/AccessControl.sol\":2187:2236  bytes32 public constant DEFAULT_ADMIN_ROLE = 0x00 */\n    tag_12:\n      tag_57\n      tag_58\n      jump\t// in\n    tag_57:\n      mload(0x40)\n      tag_59\n      swap2\n      swap1\n      tag_29\n      jump\t// in\n    tag_59:\n      mload(0x40)\n      dup1\n      swap2\n      sub\n      swap1\n      return\n        /* \"contracts/security/audit/TransactionLogger.sol\":1235:1699  function logTransaction(address receiver, uint256 amount, bytes memory details) external onlyRole(AUDITOR_ROLE) {... */\n    tag_13:\n      tag_60\n      0x04\n      dup1\n      calldatasize\n      sub\n      dup2\n      add\n      swap1\n      tag_61\n      swap2\n      swap1\n      tag_62\n      jump\t// in\n    tag_61:\n      tag_63\n      jump\t// in\n    tag_60:\n      stop\n        /* \"contracts/security/audit/TransactionLogger.sol\":3352:3476  function hasAuditorRole(address account) external view returns (bool) {... */\n    tag_14:\n      tag_64\n      0x04\n      dup1\n      calldatasize\n      sub\n      dup2\n      add\n      swap1\n      tag_65\n      swap2\n      swap1\n      tag_45\n      jump\t// in\n    tag_65:\n      tag_66\n      jump\t// in\n    tag_64:\n      mload(0x40)\n      tag_67\n      swap2\n      swap1\n      tag_23\n      jump\t// in\n    tag_67:\n      mload(0x40)\n      dup1\n      swap2\n      sub\n      swap1\n      return\n        /* \"@openzeppelin/contracts/access/AccessControl.sol\":4642:4780  function revokeRole(bytes32 role, address account) public virtual onlyRole(getRoleAdmin(role)) {... */\n    tag_15:\n      tag_68\n      0x04\n      dup1\n      calldatasize\n      sub\n      dup2\n      add\n      swap1\n      tag_69\n      swap2\n      swap1\n      tag_32\n      jump\t// in\n    tag_69:\n      tag_70\n      jump\t// in\n    tag_68:\n      stop\n        /* \"@openzeppelin/contracts/access/AccessControl.sol\":2565:2767  function supportsInterface(bytes4 interfaceId) public view virtual override returns (bool) {... */\n    tag_21:\n        /* \"@openzeppelin/contracts/access/AccessControl.sol\":2650:2654  bool */\n      0x00\n        /* \"@openzeppelin/contracts/access/AccessControl.sol\":2688:2720  type(IAccessControl).interfaceId */\n      0x7965db0b00000000000000000000000000000000000000000000000000000000\n        /* \"@openzeppelin/contracts/access/AccessControl.sol\":2673:2720  interfaceId == type(IAccessControl).interfaceId */\n      not(0xffffffffffffffffffffffffffffffffffffffffffffffffffffffff)\n      and\n        /* \"@openzeppelin/contracts/access/AccessControl.sol\":2673:2684  interfaceId */\n      dup3\n        /* \"@openzeppelin/contracts/access/AccessControl.sol\":2673:2720  interfaceId == type(IAccessControl).interfaceId */\n      not(0xffffffffffffffffffffffffffffffffffffffffffffffffffffffff)\n      and\n      eq\n        /* \"@openzeppelin/contracts/access/AccessControl.sol\":2673:2760  interfaceId == type(IAccessControl).interfaceId || super.supportsInterface(interfaceId) */\n      dup1\n      tag_72\n      jumpi\n      pop\n        /* \"@openzeppelin/contracts/access/AccessControl.sol\":2724:2760  super.supportsInterface(interfaceId) */\n      tag_73\n        /* \"@openzeppelin/contracts/access/AccessControl.sol\":2748:2759  interfaceId */\n      dup3\n        /* \"@openzeppelin/contracts/access/AccessControl.sol\":2724:2747  super.supportsInterface */\n      tag_74\n        /* \"@openzeppelin/contracts/access/AccessControl.sol\":2724:2760  super.supportsInterface(interfaceId) */\n      jump\t// in\n    tag_73:\n        /* \"@openzeppelin/contracts/access/AccessControl.sol\":2673:2760  interfaceId == type(IAccessControl).interfaceId || super.supportsInterface(interfaceId) */\n    tag_72:\n        /* \"@openzeppelin/contracts/access/AccessControl.sol\":2666:2760  return interfaceId == type(IAccessControl).interfaceId || super.supportsInterface(interfaceId) */\n      swap1\n      pop\n        /* \"@openzeppelin/contracts/access/AccessControl.sol\":2565:2767  function supportsInterface(bytes4 interfaceId) public view virtual override returns (bool) {... */\n      swap2\n      swap1\n      pop\n      jump\t// out\n        /* \"@openzeppelin/contracts/access/AccessControl.sol\":3810:3930  function getRoleAdmin(bytes32 role) public view virtual returns (bytes32) {... */\n    tag_27:\n        /* \"@openzeppelin/contracts/access/AccessControl.sol\":3875:3882  bytes32 */\n      0x00\n        /* \"@openzeppelin/contracts/access/AccessControl.sol\":3901:3907  _roles */\n      dup1\n        /* \"@openzeppelin/contracts/access/AccessControl.sol\":3901:3913  _roles[role] */\n      0x00\n        /* \"@openzeppelin/contracts/access/AccessControl.sol\":3908:3912  role */\n      dup4\n        /* \"@openzeppelin/contracts/access/AccessControl.sol\":3901:3913  _roles[role] */\n      dup2\n      mstore\n      0x20\n      add\n      swap1\n      dup2\n      mstore\n      0x20\n      add\n      0x00\n      keccak256\n        /* \"@openzeppelin/contracts/access/AccessControl.sol\":3901:3923  _roles[role].adminRole */\n      0x01\n      add\n      sload\n        /* \"@openzeppelin/contracts/access/AccessControl.sol\":3894:3923  return _roles[role].adminRole */\n      swap1\n      pop\n        /* \"@openzeppelin/contracts/access/AccessControl.sol\":3810:3930  function getRoleAdmin(bytes32 role) public view virtual returns (bytes32) {... */\n      swap2\n      swap1\n      pop\n      jump\t// out\n        /* \"@openzeppelin/contracts/access/AccessControl.sol\":4226:4362  function grantRole(bytes32 role, address account) public virtual onlyRole(getRoleAdmin(role)) {... */\n    tag_33:\n        /* \"@openzeppelin/contracts/access/AccessControl.sol\":4300:4318  getRoleAdmin(role) */\n      tag_76\n        /* \"@openzeppelin/contracts/access/AccessControl.sol\":4313:4317  role */\n      dup3\n        /* \"@openzeppelin/contracts/access/AccessControl.sol\":4300:4312  getRoleAdmin */\n      tag_27\n        /* \"@openzeppelin/contracts/access/AccessControl.sol\":4300:4318  getRoleAdmin(role) */\n      jump\t// in\n    tag_76:\n        /* \"@openzeppelin/contracts/access/AccessControl.sol\":2464:2480  _checkRole(role) */\n      tag_78\n        /* \"@openzeppelin/contracts/access/AccessControl.sol\":2475:2479  role */\n      dup2\n        /* \"@openzeppelin/contracts/access/AccessControl.sol\":2464:2474  _checkRole */\n      tag_79\n        /* \"@openzeppelin/contracts/access/AccessControl.sol\":2464:2480  _checkRole(role) */\n      jump\t// in\n    tag_78:\n        /* \"@openzeppelin/contracts/access/AccessControl.sol\":4330:4355  _grantRole(role, account) */\n      tag_81\n        /* \"@openzeppelin/contracts/access/AccessControl.sol\":4341:4345  role */\n      dup4\n        /* \"@openzeppelin/contracts/access/AccessControl.sol\":4347:4354  account */\n      dup4\n        /* \"@openzeppelin/contracts/access/AccessControl.sol\":4330:4340  _grantRole */\n      tag_82\n        /* \"@openzeppelin/contracts/access/AccessControl.sol\":4330:4355  _grantRole(role, account) */\n      jump\t// in\n    tag_81:\n      pop\n        /* \"@openzeppelin/contracts/access/AccessControl.sol\":4226:4362  function grantRole(bytes32 role, address account) public virtual onlyRole(getRoleAdmin(role)) {... */\n      pop\n      pop\n      pop\n      jump\t// out\n        /* \"contracts/security/audit/TransactionLogger.sol\":2139:2615  function getTransaction(uint256 index) external view returns (... */\n    tag_37:\n        /* \"contracts/security/audit/TransactionLogger.sol\":2210:2224  address sender */\n      0x00\n        /* \"contracts/security/audit/TransactionLogger.sol\":2234:2250  address receiver */\n      dup1\n        /* \"contracts/security/audit/TransactionLogger.sol\":2260:2274  uint256 amount */\n      0x00\n        /* \"contracts/security/audit/TransactionLogger.sol\":2284:2301  uint256 timestamp */\n      dup1\n        /* \"contracts/security/audit/TransactionLogger.sol\":2311:2331  bytes memory details */\n      0x60\n        /* \"contracts/security/audit/TransactionLogger.sol\":2364:2380  transactionCount */\n      sload(0x02)\n        /* \"contracts/security/audit/TransactionLogger.sol\":2356:2361  index */\n      dup7\n        /* \"contracts/security/audit/TransactionLogger.sol\":2356:2380  index < transactionCount */\n      lt\n        /* \"contracts/security/audit/TransactionLogger.sol\":2348:2423  require(index < transactionCount, \"TransactionLogger: Index out of bounds\") */\n      tag_84\n      jumpi\n      mload(0x40)\n      0x08c379a000000000000000000000000000000000000000000000000000000000\n      dup2\n      mstore\n      0x04\n      add\n      tag_85\n      swap1\n      tag_86\n      jump\t// in\n    tag_85:\n      mload(0x40)\n      dup1\n      swap2\n      sub\n      swap1\n      revert\n    tag_84:\n        /* \"contracts/security/audit/TransactionLogger.sol\":2433:2463  Transaction memory transaction */\n      0x00\n        /* \"contracts/security/audit/TransactionLogger.sol\":2466:2478  transactions */\n      0x01\n        /* \"contracts/security/audit/TransactionLogger.sol\":2466:2485  transactions[index] */\n      0x00\n        /* \"contracts/security/audit/TransactionLogger.sol\":2479:2484  index */\n      dup9\n        /* \"contracts/security/audit/TransactionLogger.sol\":2466:2485  transactions[index] */\n      dup2\n      mstore\n      0x20\n      add\n      swap1\n      dup2\n      mstore\n      0x20\n      add\n      0x00\n      keccak256\n        /* \"contracts/security/audit/TransactionLogger.sol\":2433:2485  Transaction memory transaction = transactions[index] */\n      mload(0x40)\n      dup1\n      0xa0\n      add\n      0x40\n      mstore\n      swap1\n      dup2\n      0x00\n      dup3\n      add\n      0x00\n      swap1\n      sload\n      swap1\n      0x0100\n      exp\n      swap1\n      div\n      0xffffffffffffffffffffffffffffffffffffffff\n      and\n      0xffffffffffffffffffffffffffffffffffffffff\n      and\n      0xffffffffffffffffffffffffffffffffffffffff\n      and\n      dup2\n      mstore\n      0x20\n      add\n      0x01\n      dup3\n      add\n      0x00\n      swap1\n      sload\n      swap1\n      0x0100\n      exp\n      swap1\n      div\n      0xffffffffffffffffffffffffffffffffffffffff\n      and\n      0xffffffffffffffffffffffffffffffffffffffff\n      and\n      0xffffffffffffffffffffffffffffffffffffffff\n      and\n      dup2\n      mstore\n      0x20\n      add\n      0x02\n      dup3\n      add\n      sload\n      dup2\n      mstore\n      0x20\n      add\n      0x03\n      dup3\n      add\n      sload\n      dup2\n      mstore\n      0x20\n      add\n      0x04\n      dup3\n      add\n      dup1\n      sload\n      tag_87\n      swap1\n      tag_88\n      jump\t// in\n    tag_87:\n      dup1\n      0x1f\n      add\n      0x20\n      dup1\n      swap2\n      div\n      mul\n      0x20\n      add\n      mload(0x40)\n      swap1\n      dup2\n      add\n      0x40\n      mstore\n      dup1\n      swap3\n      swap2\n      swap1\n      dup2\n      dup2\n      mstore\n      0x20\n      add\n      dup3\n      dup1\n      sload\n      tag_89\n      swap1\n      tag_88\n      jump\t// in\n    tag_89:\n      dup1\n      iszero\n      tag_90\n      jumpi\n      dup1\n      0x1f\n      lt\n      tag_91\n      jumpi\n      0x0100\n      dup1\n      dup4\n      sload\n      div\n      mul\n      dup4\n      mstore\n      swap2\n      0x20\n      add\n      swap2\n      jump(tag_90)\n    tag_91:\n      dup3\n      add\n      swap2\n      swap1\n      0x00\n      mstore\n      keccak256(0x00, 0x20)\n      swap1\n    tag_92:\n      dup2\n      sload\n      dup2\n      mstore\n      swap1\n      0x01\n      add\n      swap1\n      0x20\n      add\n      dup1\n      dup4\n      gt\n      tag_92\n      jumpi\n      dup3\n      swap1\n      sub\n      0x1f\n      and\n      dup3\n      add\n      swap2\n    tag_90:\n      pop\n      pop\n      pop\n      pop\n      pop\n      dup2\n      mstore\n      pop\n      pop\n      swap1\n      pop\n        /* \"contracts/security/audit/TransactionLogger.sol\":2503:2514  transaction */\n      dup1\n        /* \"contracts/security/audit/TransactionLogger.sol\":2503:2521  transaction.sender */\n      0x00\n      add\n      mload\n        /* \"contracts/security/audit/TransactionLogger.sol\":2523:2534  transaction */\n      dup2\n        /* \"contracts/security/audit/TransactionLogger.sol\":2523:2543  transaction.receiver */\n      0x20\n      add\n      mload\n        /* \"contracts/security/audit/TransactionLogger.sol\":2545:2556  transaction */\n      dup3\n        /* \"contracts/security/audit/TransactionLogger.sol\":2545:2563  transaction.amount */\n      0x40\n      add\n      mload\n        /* \"contracts/security/audit/TransactionLogger.sol\":2565:2576  transaction */\n      dup4\n        /* \"contracts/security/audit/TransactionLogger.sol\":2565:2586  transaction.timestamp */\n      0x60\n      add\n      mload\n        /* \"contracts/security/audit/TransactionLogger.sol\":2588:2599  transaction */\n      dup5\n        /* \"contracts/security/audit/TransactionLogger.sol\":2588:2607  transaction.details */\n      0x80\n      add\n      mload\n        /* \"contracts/security/audit/TransactionLogger.sol\":2495:2608  return (transaction.sender, transaction.receiver, transaction.amount, transaction.timestamp, transaction.details) */\n      swap6\n      pop\n      swap6\n      pop\n      swap6\n      pop\n      swap6\n      pop\n      swap6\n      pop\n      pop\n        /* \"contracts/security/audit/TransactionLogger.sol\":2139:2615  function getTransaction(uint256 index) external view returns (... */\n      swap2\n      swap4\n      swap6\n      swap1\n      swap3\n      swap5\n      pop\n      jump\t// out\n        /* \"@openzeppelin/contracts/access/AccessControl.sol\":5328:5573  function renounceRole(bytes32 role, address callerConfirmation) public virtual {... */\n    tag_42:\n        /* \"@openzeppelin/contracts/access/AccessControl.sol\":5443:5455  _msgSender() */\n      tag_94\n        /* \"@openzeppelin/contracts/access/AccessControl.sol\":5443:5453  _msgSender */\n      tag_95\n        /* \"@openzeppelin/contracts/access/AccessControl.sol\":5443:5455  _msgSender() */\n      jump\t// in\n    tag_94:\n        /* \"@openzeppelin/contracts/access/AccessControl.sol\":5421:5455  callerConfirmation != _msgSender() */\n      0xffffffffffffffffffffffffffffffffffffffff\n      and\n        /* \"@openzeppelin/contracts/access/AccessControl.sol\":5421:5439  callerConfirmation */\n      dup2\n        /* \"@openzeppelin/contracts/access/AccessControl.sol\":5421:5455  callerConfirmation != _msgSender() */\n      0xffffffffffffffffffffffffffffffffffffffff\n      and\n      eq\n        /* \"@openzeppelin/contracts/access/AccessControl.sol\":5417:5519  if (callerConfirmation != _msgSender()) {... */\n      tag_96\n      jumpi\n        /* \"@openzeppelin/contracts/access/AccessControl.sol\":5478:5508  AccessControlBadConfirmation() */\n      mload(0x40)\n      0x6697b23200000000000000000000000000000000000000000000000000000000\n      dup2\n      mstore\n      0x04\n      add\n      mload(0x40)\n      dup1\n      swap2\n      sub\n      swap1\n      revert\n        /* \"@openzeppelin/contracts/access/AccessControl.sol\":5417:5519  if (callerConfirmation != _msgSender()) {... */\n    tag_96:\n        /* \"@openzeppelin/contracts/access/AccessControl.sol\":5529:5566  _revokeRole(role, callerConfirmation) */\n      tag_97\n        /* \"@openzeppelin/contracts/access/AccessControl.sol\":5541:5545  role */\n      dup3\n        /* \"@openzeppelin/contracts/access/AccessControl.sol\":5547:5565  callerConfirmation */\n      dup3\n        /* \"@openzeppelin/contracts/access/AccessControl.sol\":5529:5540  _revokeRole */\n      tag_98\n        /* \"@openzeppelin/contracts/access/AccessControl.sol\":5529:5566  _revokeRole(role, callerConfirmation) */\n      jump\t// in\n    tag_97:\n      pop\n        /* \"@openzeppelin/contracts/access/AccessControl.sol\":5328:5573  function renounceRole(bytes32 role, address callerConfirmation) public virtual {... */\n      pop\n      pop\n      jump\t// out\n        /* \"contracts/security/audit/TransactionLogger.sol\":3026:3158  function revokeAuditorRole(address account) external onlyRole(DEFAULT_ADMIN_ROLE) {... */\n    tag_46:\n        /* \"@openzeppelin/contracts/access/AccessControl.sol\":2232:2236  0x00 */\n      0x00\n        /* \"contracts/security/audit/TransactionLogger.sol\":3088:3106  DEFAULT_ADMIN_ROLE */\n      dup1\n      shl\n        /* \"@openzeppelin/contracts/access/AccessControl.sol\":2464:2480  _checkRole(role) */\n      tag_100\n        /* \"@openzeppelin/contracts/access/AccessControl.sol\":2475:2479  role */\n      dup2\n        /* \"@openzeppelin/contracts/access/AccessControl.sol\":2464:2474  _checkRole */\n      tag_79\n        /* \"@openzeppelin/contracts/access/AccessControl.sol\":2464:2480  _checkRole(role) */\n      jump\t// in\n    tag_100:\n        /* \"contracts/security/audit/TransactionLogger.sol\":3118:3151  revokeRole(AUDITOR_ROLE, account) */\n      tag_102\n        /* \"contracts/security/audit/TransactionLogger.sol\":355:380  keccak256(\"AUDITOR_ROLE\") */\n      0x59a1c48e5837ad7a7f3dcedcbe129bf3249ec4fbf651fd4f5e2600ead39fe2f5\n        /* \"contracts/security/audit/TransactionLogger.sol\":3143:3150  account */\n      dup4\n        /* \"contracts/security/audit/TransactionLogger.sol\":3118:3128  revokeRole */\n      tag_70\n        /* \"contracts/security/audit/TransactionLogger.sol\":3118:3151  revokeRole(AUDITOR_ROLE, account) */\n      jump\t// in\n    tag_102:\n        /* \"contracts/security/audit/TransactionLogger.sol\":3026:3158  function revokeAuditorRole(address account) external onlyRole(DEFAULT_ADMIN_ROLE) {... */\n      pop\n      pop\n      jump\t// out\n        /* \"contracts/security/audit/TransactionLogger.sol\":2754:2884  function grantAuditorRole(address account) external onlyRole(DEFAULT_ADMIN_ROLE) {... */\n    tag_49:\n        /* \"@openzeppelin/contracts/access/AccessControl.sol\":2232:2236  0x00 */\n      0x00\n        /* \"contracts/security/audit/TransactionLogger.sol\":2815:2833  DEFAULT_ADMIN_ROLE */\n      dup1\n      shl\n        /* \"@openzeppelin/contracts/access/AccessControl.sol\":2464:2480  _checkRole(role) */\n      tag_104\n        /* \"@openzeppelin/contracts/access/AccessControl.sol\":2475:2479  role */\n      dup2\n        /* \"@openzeppelin/contracts/access/AccessControl.sol\":2464:2474  _checkRole */\n      tag_79\n        /* \"@openzeppelin/contracts/access/AccessControl.sol\":2464:2480  _checkRole(role) */\n      jump\t// in\n    tag_104:\n        /* \"contracts/security/audit/TransactionLogger.sol\":2845:2877  grantRole(AUDITOR_ROLE, account) */\n      tag_106\n        /* \"contracts/security/audit/TransactionLogger.sol\":355:380  keccak256(\"AUDITOR_ROLE\") */\n      0x59a1c48e5837ad7a7f3dcedcbe129bf3249ec4fbf651fd4f5e2600ead39fe2f5\n        /* \"contracts/security/audit/TransactionLogger.sol\":2869:2876  account */\n      dup4\n        /* \"contracts/security/audit/TransactionLogger.sol\":2845:2854  grantRole */\n      tag_33\n        /* \"contracts/security/audit/TransactionLogger.sol\":2845:2877  grantRole(AUDITOR_ROLE, account) */\n      jump\t// in\n    tag_106:\n        /* \"contracts/security/audit/TransactionLogger.sol\":2754:2884  function grantAuditorRole(address account) external onlyRole(DEFAULT_ADMIN_ROLE) {... */\n      pop\n      pop\n      jump\t// out\n        /* \"contracts/security/audit/TransactionLogger.sol\":316:380  bytes32 public constant AUDITOR_ROLE = keccak256(\"AUDITOR_ROLE\") */\n    tag_51:\n        /* \"contracts/security/audit/TransactionLogger.sol\":355:380  keccak256(\"AUDITOR_ROLE\") */\n      0x59a1c48e5837ad7a7f3dcedcbe129bf3249ec4fbf651fd4f5e2600ead39fe2f5\n        /* \"contracts/security/audit/TransactionLogger.sol\":316:380  bytes32 public constant AUDITOR_ROLE = keccak256(\"AUDITOR_ROLE\") */\n      dup2\n      jump\t// out\n        /* \"@openzeppelin/contracts/access/AccessControl.sol\":2854:2990  function hasRole(bytes32 role, address account) public view virtual returns (bool) {... */\n    tag_55:\n        /* \"@openzeppelin/contracts/access/AccessControl.sol\":2931:2935  bool */\n      0x00\n        /* \"@openzeppelin/contracts/access/AccessControl.sol\":2954:2960  _roles */\n      dup1\n        /* \"@openzeppelin/contracts/access/AccessControl.sol\":2954:2966  _roles[role] */\n      0x00\n        /* \"@openzeppelin/contracts/access/AccessControl.sol\":2961:2965  role */\n      dup5\n        /* \"@openzeppelin/contracts/access/AccessControl.sol\":2954:2966  _roles[role] */\n      dup2\n      mstore\n      0x20\n      add\n      swap1\n      dup2\n      mstore\n      0x20\n      add\n      0x00\n      keccak256\n        /* \"@openzeppelin/contracts/access/AccessControl.sol\":2954:2974  _roles[role].hasRole */\n      0x00\n      add\n        /* \"@openzeppelin/contracts/access/AccessControl.sol\":2954:2983  _roles[role].hasRole[account] */\n      0x00\n        /* \"@openzeppelin/contracts/access/AccessControl.sol\":2975:2982  account */\n      dup4\n        /* \"@openzeppelin/contracts/access/AccessControl.sol\":2954:2983  _roles[role].hasRole[account] */\n      0xffffffffffffffffffffffffffffffffffffffff\n      and\n      0xffffffffffffffffffffffffffffffffffffffff\n      and\n      dup2\n      mstore\n      0x20\n      add\n      swap1\n      dup2\n      mstore\n      0x20\n      add\n      0x00\n      keccak256\n      0x00\n      swap1\n      sload\n      swap1\n      0x0100\n      exp\n      swap1\n      div\n      0xff\n      and\n        /* \"@openzeppelin/contracts/access/AccessControl.sol\":2947:2983  return _roles[role].hasRole[account] */\n      swap1\n      pop\n        /* \"@openzeppelin/contracts/access/AccessControl.sol\":2854:2990  function hasRole(bytes32 role, address account) public view virtual returns (bool) {... */\n      swap3\n      swap2\n      pop\n      pop\n      jump\t// out\n        /* \"@openzeppelin/contracts/access/AccessControl.sol\":2187:2236  bytes32 public constant DEFAULT_ADMIN_ROLE = 0x00 */\n    tag_58:\n        /* \"@openzeppelin/contracts/access/AccessControl.sol\":2232:2236  0x00 */\n      0x00\n        /* \"@openzeppelin/contracts/access/AccessControl.sol\":2187:2236  bytes32 public constant DEFAULT_ADMIN_ROLE = 0x00 */\n      dup1\n      shl\n      dup2\n      jump\t// out\n        /* \"contracts/security/audit/TransactionLogger.sol\":1235:1699  function logTransaction(address receiver, uint256 amount, bytes memory details) external onlyRole(AUDITOR_ROLE) {... */\n    tag_63:\n        /* \"contracts/security/audit/TransactionLogger.sol\":355:380  keccak256(\"AUDITOR_ROLE\") */\n      0x59a1c48e5837ad7a7f3dcedcbe129bf3249ec4fbf651fd4f5e2600ead39fe2f5\n        /* \"@openzeppelin/contracts/access/AccessControl.sol\":2464:2480  _checkRole(role) */\n      tag_109\n        /* \"@openzeppelin/contracts/access/AccessControl.sol\":2475:2479  role */\n      dup2\n        /* \"@openzeppelin/contracts/access/AccessControl.sol\":2464:2474  _checkRole */\n      tag_79\n        /* \"@openzeppelin/contracts/access/AccessControl.sol\":2464:2480  _checkRole(role) */\n      jump\t// in\n    tag_109:\n        /* \"contracts/security/audit/TransactionLogger.sol\":1390:1575  Transaction({... */\n      mload(0x40)\n      dup1\n      0xa0\n      add\n      0x40\n      mstore\n      dup1\n        /* \"contracts/security/audit/TransactionLogger.sol\":1424:1434  msg.sender */\n      caller\n        /* \"contracts/security/audit/TransactionLogger.sol\":1390:1575  Transaction({... */\n      0xffffffffffffffffffffffffffffffffffffffff\n      and\n      dup2\n      mstore\n      0x20\n      add\n        /* \"contracts/security/audit/TransactionLogger.sol\":1458:1466  receiver */\n      dup6\n        /* \"contracts/security/audit/TransactionLogger.sol\":1390:1575  Transaction({... */\n      0xffffffffffffffffffffffffffffffffffffffff\n      and\n      dup2\n      mstore\n      0x20\n      add\n        /* \"contracts/security/audit/TransactionLogger.sol\":1488:1494  amount */\n      dup5\n        /* \"contracts/security/audit/TransactionLogger.sol\":1390:1575  Transaction({... */\n      dup2\n      mstore\n      0x20\n      add\n        /* \"contracts/security/audit/TransactionLogger.sol\":1519:1534  block.timestamp */\n      timestamp\n        /* \"contracts/security/audit/TransactionLogger.sol\":1390:1575  Transaction({... */\n      dup2\n      mstore\n      0x20\n      add\n        /* \"contracts/security/audit/TransactionLogger.sol\":1557:1564  details */\n      dup4\n        /* \"contracts/security/audit/TransactionLogger.sol\":1390:1575  Transaction({... */\n      dup2\n      mstore\n      pop\n        /* \"contracts/security/audit/TransactionLogger.sol\":1357:1369  transactions */\n      0x01\n        /* \"contracts/security/audit/TransactionLogger.sol\":1357:1387  transactions[transactionCount] */\n      0x00\n        /* \"contracts/security/audit/TransactionLogger.sol\":1370:1386  transactionCount */\n      sload(0x02)\n        /* \"contracts/security/audit/TransactionLogger.sol\":1357:1387  transactions[transactionCount] */\n      dup2\n      mstore\n      0x20\n      add\n      swap1\n      dup2\n      mstore\n      0x20\n      add\n      0x00\n      keccak256\n        /* \"contracts/security/audit/TransactionLogger.sol\":1357:1575  transactions[transactionCount] = Transaction({... */\n      0x00\n      dup3\n      add\n      mload\n      dup2\n      0x00\n      add\n      exp(0x0100, 0x00)\n      dup2\n      sload\n      dup2\n      0xffffffffffffffffffffffffffffffffffffffff\n      mul\n      not\n      and\n      swap1\n      dup4\n      0xffffffffffffffffffffffffffffffffffffffff\n      and\n      mul\n      or\n      swap1\n      sstore\n      pop\n      0x20\n      dup3\n      add\n      mload\n      dup2\n      0x01\n      add\n      exp(0x0100, 0x00)\n      dup2\n      sload\n      dup2\n      0xffffffffffffffffffffffffffffffffffffffff\n      mul\n      not\n      and\n      swap1\n      dup4\n      0xffffffffffffffffffffffffffffffffffffffff\n      and\n      mul\n      or\n      swap1\n      sstore\n      pop\n      0x40\n      dup3\n      add\n      mload\n      dup2\n      0x02\n      add\n      sstore\n      0x60\n      dup3\n      add\n      mload\n      dup2\n      0x03\n      add\n      sstore\n      0x80\n      dup3\n      add\n      mload\n      dup2\n      0x04\n      add\n      swap1\n      dup2\n      tag_111\n      swap2\n      swap1\n      tag_112\n      jump\t// in\n    tag_111:\n      pop\n      swap1\n      pop\n      pop\n        /* \"contracts/security/audit/TransactionLogger.sol\":1621:1629  receiver */\n      dup4\n        /* \"contracts/security/audit/TransactionLogger.sol\":1591:1664  TransactionLogged(msg.sender, receiver, amount, block.timestamp, details) */\n      0xffffffffffffffffffffffffffffffffffffffff\n      and\n        /* \"contracts/security/audit/TransactionLogger.sol\":1609:1619  msg.sender */\n      caller\n        /* \"contracts/security/audit/TransactionLogger.sol\":1591:1664  TransactionLogged(msg.sender, receiver, amount, block.timestamp, details) */\n      0xffffffffffffffffffffffffffffffffffffffff\n      and\n      0x7a3993c6b9e7ffde005a46806d748d5ebf15e7ba5a715db53bb6c9073f3cf9cd\n        /* \"contracts/security/audit/TransactionLogger.sol\":1631:1637  amount */\n      dup6\n        /* \"contracts/security/audit/TransactionLogger.sol\":1639:1654  block.timestamp */\n      timestamp\n        /* \"contracts/security/audit/TransactionLogger.sol\":1656:1663  details */\n      dup7\n        /* \"contracts/security/audit/TransactionLogger.sol\":1591:1664  TransactionLogged(msg.sender, receiver, amount, block.timestamp, details) */\n      mload(0x40)\n      tag_113\n      swap4\n      swap3\n      swap2\n      swap1\n      tag_114\n      jump\t// in\n    tag_113:\n      mload(0x40)\n      dup1\n      swap2\n      sub\n      swap1\n      log3\n        /* \"contracts/security/audit/TransactionLogger.sol\":1674:1690  transactionCount */\n      0x02\n      0x00\n        /* \"contracts/security/audit/TransactionLogger.sol\":1674:1692  transactionCount++ */\n      dup2\n      sload\n      dup1\n      swap3\n      swap2\n      swap1\n      tag_115\n      swap1\n      tag_116\n      jump\t// in\n    tag_115:\n      swap2\n      swap1\n      pop\n      sstore\n      pop\n        /* \"contracts/security/audit/TransactionLogger.sol\":1235:1699  function logTransaction(address receiver, uint256 amount, bytes memory details) external onlyRole(AUDITOR_ROLE) {... */\n      pop\n      pop\n      pop\n      pop\n      jump\t// out\n        /* \"contracts/security/audit/TransactionLogger.sol\":3352:3476  function hasAuditorRole(address account) external view returns (bool) {... */\n    tag_66:\n        /* \"contracts/security/audit/TransactionLogger.sol\":3416:3420  bool */\n      0x00\n        /* \"contracts/security/audit/TransactionLogger.sol\":3439:3469  hasRole(AUDITOR_ROLE, account) */\n      tag_118\n        /* \"contracts/security/audit/TransactionLogger.sol\":355:380  keccak256(\"AUDITOR_ROLE\") */\n      0x59a1c48e5837ad7a7f3dcedcbe129bf3249ec4fbf651fd4f5e2600ead39fe2f5\n        /* \"contracts/security/audit/TransactionLogger.sol\":3461:3468  account */\n      dup4\n        /* \"contracts/security/audit/TransactionLogger.sol\":3439:3446  hasRole */\n      tag_55\n        /* \"contracts/security/audit/TransactionLogger.sol\":3439:3469  hasRole(AUDITOR_ROLE, account) */\n      jump\t// in\n    tag_118:\n        /* \"contracts/security/audit/TransactionLogger.sol\":3432:3469  return hasRole(AUDITOR_ROLE, account) */\n      swap1\n      pop\n        /* \"contracts/security/audit/TransactionLogger.sol\":3352:3476  function hasAuditorRole(address account) external view returns (bool) {... */\n      swap2\n      swap1\n      pop\n      jump\t// out\n        /* \"@openzeppelin/contracts/access/AccessControl.sol\":4642:4780  function revokeRole(bytes32 role, address account) public virtual onlyRole(getRoleAdmin(role)) {... */\n    tag_70:\n        /* \"@openzeppelin/contracts/access/AccessControl.sol\":4717:4735  getRoleAdmin(role) */\n      tag_119\n        /* \"@openzeppelin/contracts/access/AccessControl.sol\":4730:4734  role */\n      dup3\n        /* \"@openzeppelin/contracts/access/AccessControl.sol\":4717:4729  getRoleAdmin */\n      tag_27\n        /* \"@openzeppelin/contracts/access/AccessControl.sol\":4717:4735  getRoleAdmin(role) */\n      jump\t// in\n    tag_119:\n        /* \"@openzeppelin/contracts/access/AccessControl.sol\":2464:2480  _checkRole(role) */\n      tag_121\n        /* \"@openzeppelin/contracts/access/AccessControl.sol\":2475:2479  role */\n      dup2\n        /* \"@openzeppelin/contracts/access/AccessControl.sol\":2464:2474  _checkRole */\n      tag_79\n        /* \"@openzeppelin/contracts/access/AccessControl.sol\":2464:2480  _checkRole(role) */\n      jump\t// in\n    tag_121:\n        /* \"@openzeppelin/contracts/access/AccessControl.sol\":4747:4773  _revokeRole(role, account) */\n      tag_123\n        /* \"@openzeppelin/contracts/access/AccessControl.sol\":4759:4763  role */\n      dup4\n        /* \"@openzeppelin/contracts/access/AccessControl.sol\":4765:4772  account */\n      dup4\n        /* \"@openzeppelin/contracts/access/AccessControl.sol\":4747:4758  _revokeRole */\n      tag_98\n        /* \"@openzeppelin/contracts/access/AccessControl.sol\":4747:4773  _revokeRole(role, account) */\n      jump\t// in\n    tag_123:\n      pop\n        /* \"@openzeppelin/contracts/access/AccessControl.sol\":4642:4780  function revokeRole(bytes32 role, address account) public virtual onlyRole(getRoleAdmin(role)) {... */\n      pop\n      pop\n      pop\n      jump\t// out\n        /* \"@openzeppelin/contracts/utils/introspection/ERC165.sol\":762:908  function supportsInterface(bytes4 interfaceId) public view virtual returns (bool) {... */\n    tag_74:\n        /* \"@openzeppelin/contracts/utils/introspection/ERC165.sol\":838:842  bool */\n      0x00\n        /* \"@openzeppelin/contracts/utils/introspection/ERC165.sol\":876:901  type(IERC165).interfaceId */\n      0x01ffc9a700000000000000000000000000000000000000000000000000000000\n        /* \"@openzeppelin/contracts/utils/introspection/ERC165.sol\":861:901  interfaceId == type(IERC165).interfaceId */\n      not(0xffffffffffffffffffffffffffffffffffffffffffffffffffffffff)\n      and\n        /* \"@openzeppelin/contracts/utils/introspection/ERC165.sol\":861:872  interfaceId */\n      dup3\n        /* \"@openzeppelin/contracts/utils/introspection/ERC165.sol\":861:901  interfaceId == type(IERC165).interfaceId */\n      not(0xffffffffffffffffffffffffffffffffffffffffffffffffffffffff)\n      and\n      eq\n        /* \"@openzeppelin/contracts/utils/introspection/ERC165.sol\":854:901  return interfaceId == type(IERC165).interfaceId */\n      swap1\n      pop\n        /* \"@openzeppelin/contracts/utils/introspection/ERC165.sol\":762:908  function supportsInterface(bytes4 interfaceId) public view virtual returns (bool) {... */\n      swap2\n      swap1\n      pop\n      jump\t// out\n        /* \"@openzeppelin/contracts/access/AccessControl.sol\":3199:3302  function _checkRole(bytes32 role) internal view virtual {... */\n    tag_79:\n        /* \"@openzeppelin/contracts/access/AccessControl.sol\":3265:3295  _checkRole(role, _msgSender()) */\n      tag_126\n        /* \"@openzeppelin/contracts/access/AccessControl.sol\":3276:3280  role */\n      dup2\n        /* \"@openzeppelin/contracts/access/AccessControl.sol\":3282:3294  _msgSender() */\n      tag_127\n        /* \"@openzeppelin/contracts/access/AccessControl.sol\":3282:3292  _msgSender */\n      tag_95\n        /* \"@openzeppelin/contracts/access/AccessControl.sol\":3282:3294  _msgSender() */\n      jump\t// in\n    tag_127:\n        /* \"@openzeppelin/contracts/access/AccessControl.sol\":3265:3275  _checkRole */\n      tag_128\n        /* \"@openzeppelin/contracts/access/AccessControl.sol\":3265:3295  _checkRole(role, _msgSender()) */\n      jump\t// in\n    tag_126:\n        /* \"@openzeppelin/contracts/access/AccessControl.sol\":3199:3302  function _checkRole(bytes32 role) internal view virtual {... */\n      pop\n      jump\t// out\n        /* \"@openzeppelin/contracts/access/AccessControl.sol\":6179:6495  function _grantRole(bytes32 role, address account) internal virtual returns (bool) {... */\n    tag_82:\n        /* \"@openzeppelin/contracts/access/AccessControl.sol\":6256:6260  bool */\n      0x00\n        /* \"@openzeppelin/contracts/access/AccessControl.sol\":6277:6299  hasRole(role, account) */\n      tag_130\n        /* \"@openzeppelin/contracts/access/AccessControl.sol\":6285:6289  role */\n      dup4\n        /* \"@openzeppelin/contracts/access/AccessControl.sol\":6291:6298  account */\n      dup4\n        /* \"@openzeppelin/contracts/access/AccessControl.sol\":6277:6284  hasRole */\n      tag_55\n        /* \"@openzeppelin/contracts/access/AccessControl.sol\":6277:6299  hasRole(role, account) */\n      jump\t// in\n    tag_130:\n        /* \"@openzeppelin/contracts/access/AccessControl.sol\":6272:6489  if (!hasRole(role, account)) {... */\n      tag_131\n      jumpi\n        /* \"@openzeppelin/contracts/access/AccessControl.sol\":6347:6351  true */\n      0x01\n        /* \"@openzeppelin/contracts/access/AccessControl.sol\":6315:6321  _roles */\n      0x00\n        /* \"@openzeppelin/contracts/access/AccessControl.sol\":6315:6327  _roles[role] */\n      dup1\n        /* \"@openzeppelin/contracts/access/AccessControl.sol\":6322:6326  role */\n      dup6\n        /* \"@openzeppelin/contracts/access/AccessControl.sol\":6315:6327  _roles[role] */\n      dup2\n      mstore\n      0x20\n      add\n      swap1\n      dup2\n      mstore\n      0x20\n      add\n      0x00\n      keccak256\n        /* \"@openzeppelin/contracts/access/AccessControl.sol\":6315:6335  _roles[role].hasRole */\n      0x00\n      add\n        /* \"@openzeppelin/contracts/access/AccessControl.sol\":6315:6344  _roles[role].hasRole[account] */\n      0x00\n        /* \"@openzeppelin/contracts/access/AccessControl.sol\":6336:6343  account */\n      dup5\n        /* \"@openzeppelin/contracts/access/AccessControl.sol\":6315:6344  _roles[role].hasRole[account] */\n      0xffffffffffffffffffffffffffffffffffffffff\n      and\n      0xffffffffffffffffffffffffffffffffffffffff\n      and\n      dup2\n      mstore\n      0x20\n      add\n      swap1\n      dup2\n      mstore\n      0x20\n      add\n      0x00\n      keccak256\n      0x00\n        /* \"@openzeppelin/contracts/access/AccessControl.sol\":6315:6351  _roles[role].hasRole[account] = true */\n      0x0100\n      exp\n      dup2\n      sload\n      dup2\n      0xff\n      mul\n      not\n      and\n      swap1\n      dup4\n      iszero\n      iszero\n      mul\n      or\n      swap1\n      sstore\n      pop\n        /* \"@openzeppelin/contracts/access/AccessControl.sol\":6397:6409  _msgSender() */\n      tag_132\n        /* \"@openzeppelin/contracts/access/AccessControl.sol\":6397:6407  _msgSender */\n      tag_95\n        /* \"@openzeppelin/contracts/access/AccessControl.sol\":6397:6409  _msgSender() */\n      jump\t// in\n    tag_132:\n        /* \"@openzeppelin/contracts/access/AccessControl.sol\":6370:6410  RoleGranted(role, account, _msgSender()) */\n      0xffffffffffffffffffffffffffffffffffffffff\n      and\n        /* \"@openzeppelin/contracts/access/AccessControl.sol\":6388:6395  account */\n      dup3\n        /* \"@openzeppelin/contracts/access/AccessControl.sol\":6370:6410  RoleGranted(role, account, _msgSender()) */\n      0xffffffffffffffffffffffffffffffffffffffff\n      and\n        /* \"@openzeppelin/contracts/access/AccessControl.sol\":6382:6386  role */\n      dup5\n        /* \"@openzeppelin/contracts/access/AccessControl.sol\":6370:6410  RoleGranted(role, account, _msgSender()) */\n      0x2f8788117e7eff1d82e926ec794901d17c78024a50270940304540a733656f0d\n      mload(0x40)\n      mload(0x40)\n      dup1\n      swap2\n      sub\n      swap1\n      log4\n        /* \"@openzeppelin/contracts/access/AccessControl.sol\":6431:6435  true */\n      0x01\n        /* \"@openzeppelin/contracts/access/AccessControl.sol\":6424:6435  return true */\n      swap1\n      pop\n      jump(tag_129)\n        /* \"@openzeppelin/contracts/access/AccessControl.sol\":6272:6489  if (!hasRole(role, account)) {... */\n    tag_131:\n        /* \"@openzeppelin/contracts/access/AccessControl.sol\":6473:6478  false */\n      0x00\n        /* \"@openzeppelin/contracts/access/AccessControl.sol\":6466:6478  return false */\n      swap1\n      pop\n        /* \"@openzeppelin/contracts/access/AccessControl.sol\":6179:6495  function _grantRole(bytes32 role, address account) internal virtual returns (bool) {... */\n    tag_129:\n      swap3\n      swap2\n      pop\n      pop\n      jump\t// out\n        /* \"@openzeppelin/contracts/utils/Context.sol\":656:752  function _msgSender() internal view virtual returns (address) {... */\n    tag_95:\n        /* \"@openzeppelin/contracts/utils/Context.sol\":709:716  address */\n      0x00\n        /* \"@openzeppelin/contracts/utils/Context.sol\":735:745  msg.sender */\n      caller\n        /* \"@openzeppelin/contracts/utils/Context.sol\":728:745  return msg.sender */\n      swap1\n      pop\n        /* \"@openzeppelin/contracts/utils/Context.sol\":656:752  function _msgSender() internal view virtual returns (address) {... */\n      swap1\n      jump\t// out\n        /* \"@openzeppelin/contracts/access/AccessControl.sol\":6730:7047  function _revokeRole(bytes32 role, address account) internal virtual returns (bool) {... */\n    tag_98:\n        /* \"@openzeppelin/contracts/access/AccessControl.sol\":6808:6812  bool */\n      0x00\n        /* \"@openzeppelin/contracts/access/AccessControl.sol\":6828:6850  hasRole(role, account) */\n      tag_136\n        /* \"@openzeppelin/contracts/access/AccessControl.sol\":6836:6840  role */\n      dup4\n        /* \"@openzeppelin/contracts/access/AccessControl.sol\":6842:6849  account */\n      dup4\n        /* \"@openzeppelin/contracts/access/AccessControl.sol\":6828:6835  hasRole */\n      tag_55\n        /* \"@openzeppelin/contracts/access/AccessControl.sol\":6828:6850  hasRole(role, account) */\n      jump\t// in\n    tag_136:\n        /* \"@openzeppelin/contracts/access/AccessControl.sol\":6824:7041  if (hasRole(role, account)) {... */\n      iszero\n      tag_137\n      jumpi\n        /* \"@openzeppelin/contracts/access/AccessControl.sol\":6898:6903  false */\n      0x00\n        /* \"@openzeppelin/contracts/access/AccessControl.sol\":6866:6872  _roles */\n      dup1\n        /* \"@openzeppelin/contracts/access/AccessControl.sol\":6866:6878  _roles[role] */\n      0x00\n        /* \"@openzeppelin/contracts/access/AccessControl.sol\":6873:6877  role */\n      dup6\n        /* \"@openzeppelin/contracts/access/AccessControl.sol\":6866:6878  _roles[role] */\n      dup2\n      mstore\n      0x20\n      add\n      swap1\n      dup2\n      mstore\n      0x20\n      add\n      0x00\n      keccak256\n        /* \"@openzeppelin/contracts/access/AccessControl.sol\":6866:6886  _roles[role].hasRole */\n      0x00\n      add\n        /* \"@openzeppelin/contracts/access/AccessControl.sol\":6866:6895  _roles[role].hasRole[account] */\n      0x00\n        /* \"@openzeppelin/contracts/access/AccessControl.sol\":6887:6894  account */\n      dup5\n        /* \"@openzeppelin/contracts/access/AccessControl.sol\":6866:6895  _roles[role].hasRole[account] */\n      0xffffffffffffffffffffffffffffffffffffffff\n      and\n      0xffffffffffffffffffffffffffffffffffffffff\n      and\n      dup2\n      mstore\n      0x20\n      add\n      swap1\n      dup2\n      mstore\n      0x20\n      add\n      0x00\n      keccak256\n      0x00\n        /* \"@openzeppelin/contracts/access/AccessControl.sol\":6866:6903  _roles[role].hasRole[account] = false */\n      0x0100\n      exp\n      dup2\n      sload\n      dup2\n      0xff\n      mul\n      not\n      and\n      swap1\n      dup4\n      iszero\n      iszero\n      mul\n      or\n      swap1\n      sstore\n      pop\n        /* \"@openzeppelin/contracts/access/AccessControl.sol\":6949:6961  _msgSender() */\n      tag_138\n        /* \"@openzeppelin/contracts/access/AccessControl.sol\":6949:6959  _msgSender */\n      tag_95\n        /* \"@openzeppelin/contracts/access/AccessControl.sol\":6949:6961  _msgSender() */\n      jump\t// in\n    tag_138:\n        /* \"@openzeppelin/contracts/access/AccessControl.sol\":6922:6962  RoleRevoked(role, account, _msgSender()) */\n      0xffffffffffffffffffffffffffffffffffffffff\n      and\n        /* \"@openzeppelin/contracts/access/AccessControl.sol\":6940:6947  account */\n      dup3\n        /* \"@openzeppelin/contracts/access/AccessControl.sol\":6922:6962  RoleRevoked(role, account, _msgSender()) */\n      0xffffffffffffffffffffffffffffffffffffffff\n      and\n        /* \"@openzeppelin/contracts/access/AccessControl.sol\":6934:6938  role */\n      dup5\n        /* \"@openzeppelin/contracts/access/AccessControl.sol\":6922:6962  RoleRevoked(role, account, _msgSender()) */\n      0xf6391f5c32d9c69d2a47ea670b442974b53935d1edc7fd64eb21e047a839171b\n      mload(0x40)\n      mload(0x40)\n      dup1\n      swap2\n      sub\n      swap1\n      log4\n        /* \"@openzeppelin/contracts/access/AccessControl.sol\":6983:6987  true */\n      0x01\n        /* \"@openzeppelin/contracts/access/AccessControl.sol\":6976:6987  return true */\n      swap1\n      pop\n      jump(tag_135)\n        /* \"@openzeppelin/contracts/access/AccessControl.sol\":6824:7041  if (hasRole(role, account)) {... */\n    tag_137:\n        /* \"@openzeppelin/contracts/access/AccessControl.sol\":7025:7030  false */\n      0x00\n        /* \"@openzeppelin/contracts/access/AccessControl.sol\":7018:7030  return false */\n      swap1\n      pop\n        /* \"@openzeppelin/contracts/access/AccessControl.sol\":6730:7047  function _revokeRole(bytes32 role, address account) internal virtual returns (bool) {... */\n    tag_135:\n      swap3\n      swap2\n      pop\n      pop\n      jump\t// out\n        /* \"@openzeppelin/contracts/access/AccessControl.sol\":3432:3629  function _checkRole(bytes32 role, address account) internal view virtual {... */\n    tag_128:\n        /* \"@openzeppelin/contracts/access/AccessControl.sol\":3520:3542  hasRole(role, account) */\n      tag_141\n        /* \"@openzeppelin/contracts/access/AccessControl.sol\":3528:3532  role */\n      dup3\n        /* \"@openzeppelin/contracts/access/AccessControl.sol\":3534:3541  account */\n      dup3\n        /* \"@openzeppelin/contracts/access/AccessControl.sol\":3520:3527  hasRole */\n      tag_55\n        /* \"@openzeppelin/contracts/access/AccessControl.sol\":3520:3542  hasRole(role, account) */\n      jump\t// in\n    tag_141:\n        /* \"@openzeppelin/contracts/access/AccessControl.sol\":3515:3623  if (!hasRole(role, account)) {... */\n      tag_142\n      jumpi\n        /* \"@openzeppelin/contracts/access/AccessControl.sol\":3598:3605  account */\n      dup1\n        /* \"@openzeppelin/contracts/access/AccessControl.sol\":3607:3611  role */\n      dup3\n        /* \"@openzeppelin/contracts/access/AccessControl.sol\":3565:3612  AccessControlUnauthorizedAccount(account, role) */\n      mload(0x40)\n      0xe2517d3f00000000000000000000000000000000000000000000000000000000\n      dup2\n      mstore\n      0x04\n      add\n      tag_143\n      swap3\n      swap2\n      swap1\n      tag_144\n      jump\t// in\n    tag_143:\n      mload(0x40)\n      dup1\n      swap2\n      sub\n      swap1\n      revert\n        /* \"@openzeppelin/contracts/access/AccessControl.sol\":3515:3623  if (!hasRole(role, account)) {... */\n    tag_142:\n        /* \"@openzeppelin/contracts/access/AccessControl.sol\":3432:3629  function _checkRole(bytes32 role, address account) internal view virtual {... */\n      pop\n      pop\n      jump\t// out\n        /* \"#utility.yul\":7:82   */\n    tag_145:\n        /* \"#utility.yul\":40:46   */\n      0x00\n        /* \"#utility.yul\":73:75   */\n      0x40\n        /* \"#utility.yul\":67:76   */\n      mload\n        /* \"#utility.yul\":57:76   */\n      swap1\n      pop\n        /* \"#utility.yul\":7:82   */\n      swap1\n      jump\t// out\n        /* \"#utility.yul\":88:205   */\n    tag_146:\n        /* \"#utility.yul\":197:198   */\n      0x00\n        /* \"#utility.yul\":194:195   */\n      dup1\n        /* \"#utility.yul\":187:199   */\n      revert\n        /* \"#utility.yul\":211:328   */\n    tag_147:\n        /* \"#utility.yul\":320:321   */\n      0x00\n        /* \"#utility.yul\":317:318   */\n      dup1\n        /* \"#utility.yul\":310:322   */\n      revert\n        /* \"#utility.yul\":334:483   */\n    tag_148:\n        /* \"#utility.yul\":370:377   */\n      0x00\n        /* \"#utility.yul\":410:476   */\n      0xffffffff00000000000000000000000000000000000000000000000000000000\n        /* \"#utility.yul\":403:408   */\n      dup3\n        /* \"#utility.yul\":399:477   */\n      and\n        /* \"#utility.yul\":388:477   */\n      swap1\n      pop\n        /* \"#utility.yul\":334:483   */\n      swap2\n      swap1\n      pop\n      jump\t// out\n        /* \"#utility.yul\":489:609   */\n    tag_149:\n        /* \"#utility.yul\":561:584   */\n      tag_206\n        /* \"#utility.yul\":578:583   */\n      dup2\n        /* \"#utility.yul\":561:584   */\n      tag_148\n      jump\t// in\n    tag_206:\n        /* \"#utility.yul\":554:559   */\n      dup2\n        /* \"#utility.yul\":551:585   */\n      eq\n        /* \"#utility.yul\":541:603   */\n      tag_207\n      jumpi\n        /* \"#utility.yul\":599:600   */\n      0x00\n        /* \"#utility.yul\":596:597   */\n      dup1\n        /* \"#utility.yul\":589:601   */\n      revert\n        /* \"#utility.yul\":541:603   */\n    tag_207:\n        /* \"#utility.yul\":489:609   */\n      pop\n      jump\t// out\n        /* \"#utility.yul\":615:752   */\n    tag_150:\n        /* \"#utility.yul\":660:665   */\n      0x00\n        /* \"#utility.yul\":698:704   */\n      dup2\n        /* \"#utility.yul\":685:705   */\n      calldataload\n        /* \"#utility.yul\":676:705   */\n      swap1\n      pop\n        /* \"#utility.yul\":714:746   */\n      tag_209\n        /* \"#utility.yul\":740:745   */\n      dup2\n        /* \"#utility.yul\":714:746   */\n      tag_149\n      jump\t// in\n    tag_209:\n        /* \"#utility.yul\":615:752   */\n      swap3\n      swap2\n      pop\n      pop\n      jump\t// out\n        /* \"#utility.yul\":758:1085   */\n    tag_20:\n        /* \"#utility.yul\":816:822   */\n      0x00\n        /* \"#utility.yul\":865:867   */\n      0x20\n        /* \"#utility.yul\":853:862   */\n      dup3\n        /* \"#utility.yul\":844:851   */\n      dup5\n        /* \"#utility.yul\":840:863   */\n      sub\n        /* \"#utility.yul\":836:868   */\n      slt\n        /* \"#utility.yul\":833:952   */\n      iszero\n      tag_211\n      jumpi\n        /* \"#utility.yul\":871:950   */\n      tag_212\n      tag_146\n      jump\t// in\n    tag_212:\n        /* \"#utility.yul\":833:952   */\n    tag_211:\n        /* \"#utility.yul\":991:992   */\n      0x00\n        /* \"#utility.yul\":1016:1068   */\n      tag_213\n        /* \"#utility.yul\":1060:1067   */\n      dup5\n        /* \"#utility.yul\":1051:1057   */\n      dup3\n        /* \"#utility.yul\":1040:1049   */\n      dup6\n        /* \"#utility.yul\":1036:1058   */\n      add\n        /* \"#utility.yul\":1016:1068   */\n      tag_150\n      jump\t// in\n    tag_213:\n        /* \"#utility.yul\":1006:1068   */\n      swap2\n      pop\n        /* \"#utility.yul\":962:1078   */\n      pop\n        /* \"#utility.yul\":758:1085   */\n      swap3\n      swap2\n      pop\n      pop\n      jump\t// out\n        /* \"#utility.yul\":1091:1181   */\n    tag_151:\n        /* \"#utility.yul\":1125:1132   */\n      0x00\n        /* \"#utility.yul\":1168:1173   */\n      dup2\n        /* \"#utility.yul\":1161:1174   */\n      iszero\n        /* \"#utility.yul\":1154:1175   */\n      iszero\n        /* \"#utility.yul\":1143:1175   */\n      swap1\n      pop\n        /* \"#utility.yul\":1091:1181   */\n      swap2\n      swap1\n      pop\n      jump\t// out\n        /* \"#utility.yul\":1187:1296   */\n    tag_152:\n        /* \"#utility.yul\":1268:1289   */\n      tag_216\n        /* \"#utility.yul\":1283:1288   */\n      dup2\n        /* \"#utility.yul\":1268:1289   */\n      tag_151\n      jump\t// in\n    tag_216:\n        /* \"#utility.yul\":1263:1266   */\n      dup3\n        /* \"#utility.yul\":1256:1290   */\n      mstore\n        /* \"#utility.yul\":1187:1296   */\n      pop\n      pop\n      jump\t// out\n        /* \"#utility.yul\":1302:1512   */\n    tag_23:\n        /* \"#utility.yul\":1389:1393   */\n      0x00\n        /* \"#utility.yul\":1427:1429   */\n      0x20\n        /* \"#utility.yul\":1416:1425   */\n      dup3\n        /* \"#utility.yul\":1412:1430   */\n      add\n        /* \"#utility.yul\":1404:1430   */\n      swap1\n      pop\n        /* \"#utility.yul\":1440:1505   */\n      tag_218\n        /* \"#utility.yul\":1502:1503   */\n      0x00\n        /* \"#utility.yul\":1491:1500   */\n      dup4\n        /* \"#utility.yul\":1487:1504   */\n      add\n        /* \"#utility.yul\":1478:1484   */\n      dup5\n        /* \"#utility.yul\":1440:1505   */\n      tag_152\n      jump\t// in\n    tag_218:\n        /* \"#utility.yul\":1302:1512   */\n      swap3\n      swap2\n      pop\n      pop\n      jump\t// out\n        /* \"#utility.yul\":1518:1595   */\n    tag_153:\n        /* \"#utility.yul\":1555:1562   */\n      0x00\n        /* \"#utility.yul\":1584:1589   */\n      dup2\n        /* \"#utility.yul\":1573:1589   */\n      swap1\n      pop\n        /* \"#utility.yul\":1518:1595   */\n      swap2\n      swap1\n      pop\n      jump\t// out\n        /* \"#utility.yul\":1601:1723   */\n    tag_154:\n        /* \"#utility.yul\":1674:1698   */\n      tag_221\n        /* \"#utility.yul\":1692:1697   */\n      dup2\n        /* \"#utility.yul\":1674:1698   */\n      tag_153\n      jump\t// in\n    tag_221:\n        /* \"#utility.yul\":1667:1672   */\n      dup2\n        /* \"#utility.yul\":1664:1699   */\n      eq\n        /* \"#utility.yul\":1654:1717   */\n      tag_222\n      jumpi\n        /* \"#utility.yul\":1713:1714   */\n      0x00\n        /* \"#utility.yul\":1710:1711   */\n      dup1\n        /* \"#utility.yul\":1703:1715   */\n      revert\n        /* \"#utility.yul\":1654:1717   */\n    tag_222:\n        /* \"#utility.yul\":1601:1723   */\n      pop\n      jump\t// out\n        /* \"#utility.yul\":1729:1868   */\n    tag_155:\n        /* \"#utility.yul\":1775:1780   */\n      0x00\n        /* \"#utility.yul\":1813:1819   */\n      dup2\n        /* \"#utility.yul\":1800:1820   */\n      calldataload\n        /* \"#utility.yul\":1791:1820   */\n      swap1\n      pop\n        /* \"#utility.yul\":1829:1862   */\n      tag_224\n        /* \"#utility.yul\":1856:1861   */\n      dup2\n        /* \"#utility.yul\":1829:1862   */\n      tag_154\n      jump\t// in\n    tag_224:\n        /* \"#utility.yul\":1729:1868   */\n      swap3\n      swap2\n      pop\n      pop\n      jump\t// out\n        /* \"#utility.yul\":1874:2203   */\n    tag_26:\n        /* \"#utility.yul\":1933:1939   */\n      0x00\n        /* \"#utility.yul\":1982:1984   */\n      0x20\n        /* \"#utility.yul\":1970:1979   */\n      dup3\n        /* \"#utility.yul\":1961:1968   */\n      dup5\n        /* \"#utility.yul\":1957:1980   */\n      sub\n        /* \"#utility.yul\":1953:1985   */\n      slt\n        /* \"#utility.yul\":1950:2069   */\n      iszero\n      tag_226\n      jumpi\n        /* \"#utility.yul\":1988:2067   */\n      tag_227\n      tag_146\n      jump\t// in\n    tag_227:\n        /* \"#utility.yul\":1950:2069   */\n    tag_226:\n        /* \"#utility.yul\":2108:2109   */\n      0x00\n        /* \"#utility.yul\":2133:2186   */\n      tag_228\n        /* \"#utility.yul\":2178:2185   */\n      dup5\n        /* \"#utility.yul\":2169:2175   */\n      dup3\n        /* \"#utility.yul\":2158:2167   */\n      dup6\n        /* \"#utility.yul\":2154:2176   */\n      add\n        /* \"#utility.yul\":2133:2186   */\n      tag_155\n      jump\t// in\n    tag_228:\n        /* \"#utility.yul\":2123:2186   */\n      swap2\n      pop\n        /* \"#utility.yul\":2079:2196   */\n      pop\n        /* \"#utility.yul\":1874:2203   */\n      swap3\n      swap2\n      pop\n      pop\n      jump\t// out\n        /* \"#utility.yul\":2209:2327   */\n    tag_156:\n        /* \"#utility.yul\":2296:2320   */\n      tag_230\n        /* \"#utility.yul\":2314:2319   */\n      dup2\n        /* \"#utility.yul\":2296:2320   */\n      tag_153\n      jump\t// in\n    tag_230:\n        /* \"#utility.yul\":2291:2294   */\n      dup3\n        /* \"#utility.yul\":2284:2321   */\n      mstore\n        /* \"#utility.yul\":2209:2327   */\n      pop\n      pop\n      jump\t// out\n        /* \"#utility.yul\":2333:2555   */\n    tag_29:\n        /* \"#utility.yul\":2426:2430   */\n      0x00\n        /* \"#utility.yul\":2464:2466   */\n      0x20\n        /* \"#utility.yul\":2453:2462   */\n      dup3\n        /* \"#utility.yul\":2449:2467   */\n      add\n        /* \"#utility.yul\":2441:2467   */\n      swap1\n      pop\n        /* \"#utility.yul\":2477:2548   */\n      tag_232\n        /* \"#utility.yul\":2545:2546   */\n      0x00\n        /* \"#utility.yul\":2534:2543   */\n      dup4\n        /* \"#utility.yul\":2530:2547   */\n      add\n        /* \"#utility.yul\":2521:2527   */\n      dup5\n        /* \"#utility.yul\":2477:2548   */\n      tag_156\n      jump\t// in\n    tag_232:\n        /* \"#utility.yul\":2333:2555   */\n      swap3\n      swap2\n      pop\n      pop\n      jump\t// out\n        /* \"#utility.yul\":2561:2687   */\n    tag_157:\n        /* \"#utility.yul\":2598:2605   */\n      0x00\n        /* \"#utility.yul\":2638:2680   */\n      0xffffffffffffffffffffffffffffffffffffffff\n        /* \"#utility.yul\":2631:2636   */\n      dup3\n        /* \"#utility.yul\":2627:2681   */\n      and\n        /* \"#utility.yul\":2616:2681   */\n      swap1\n      pop\n        /* \"#utility.yul\":2561:2687   */\n      swap2\n      swap1\n      pop\n      jump\t// out\n        /* \"#utility.yul\":2693:2789   */\n    tag_158:\n        /* \"#utility.yul\":2730:2737   */\n      0x00\n        /* \"#utility.yul\":2759:2783   */\n      tag_235\n        /* \"#utility.yul\":2777:2782   */\n      dup3\n        /* \"#utility.yul\":2759:2783   */\n      tag_157\n      jump\t// in\n    tag_235:\n        /* \"#utility.yul\":2748:2783   */\n      swap1\n      pop\n        /* \"#utility.yul\":2693:2789   */\n      swap2\n      swap1\n      pop\n      jump\t// out\n        /* \"#utility.yul\":2795:2917   */\n    tag_159:\n        /* \"#utility.yul\":2868:2892   */\n      tag_237\n        /* \"#utility.yul\":2886:2891   */\n      dup2\n        /* \"#utility.yul\":2868:2892   */\n      tag_158\n      jump\t// in\n    tag_237:\n        /* \"#utility.yul\":2861:2866   */\n      dup2\n        /* \"#utility.yul\":2858:2893   */\n      eq\n        /* \"#utility.yul\":2848:2911   */\n      tag_238\n      jumpi\n        /* \"#utility.yul\":2907:2908   */\n      0x00\n        /* \"#utility.yul\":2904:2905   */\n      dup1\n        /* \"#utility.yul\":2897:2909   */\n      revert\n        /* \"#utility.yul\":2848:2911   */\n    tag_238:\n        /* \"#utility.yul\":2795:2917   */\n      pop\n      jump\t// out\n        /* \"#utility.yul\":2923:3062   */\n    tag_160:\n        /* \"#utility.yul\":2969:2974   */\n      0x00\n        /* \"#utility.yul\":3007:3013   */\n      dup2\n        /* \"#utility.yul\":2994:3014   */\n      calldataload\n        /* \"#utility.yul\":2985:3014   */\n      swap1\n      pop\n        /* \"#utility.yul\":3023:3056   */\n      tag_240\n        /* \"#utility.yul\":3050:3055   */\n      dup2\n        /* \"#utility.yul\":3023:3056   */\n      tag_159\n      jump\t// in\n    tag_240:\n        /* \"#utility.yul\":2923:3062   */\n      swap3\n      swap2\n      pop\n      pop\n      jump\t// out\n        /* \"#utility.yul\":3068:3542   */\n    tag_32:\n        /* \"#utility.yul\":3136:3142   */\n      0x00\n        /* \"#utility.yul\":3144:3150   */\n      dup1\n        /* \"#utility.yul\":3193:3195   */\n      0x40\n        /* \"#utility.yul\":3181:3190   */\n      dup4\n        /* \"#utility.yul\":3172:3179   */\n      dup6\n        /* \"#utility.yul\":3168:3191   */\n      sub\n        /* \"#utility.yul\":3164:3196   */\n      slt\n        /* \"#utility.yul\":3161:3280   */\n      iszero\n      tag_242\n      jumpi\n        /* \"#utility.yul\":3199:3278   */\n      tag_243\n      tag_146\n      jump\t// in\n    tag_243:\n        /* \"#utility.yul\":3161:3280   */\n    tag_242:\n        /* \"#utility.yul\":3319:3320   */\n      0x00\n        /* \"#utility.yul\":3344:3397   */\n      tag_244\n        /* \"#utility.yul\":3389:3396   */\n      dup6\n        /* \"#utility.yul\":3380:3386   */\n      dup3\n        /* \"#utility.yul\":3369:3378   */\n      dup7\n        /* \"#utility.yul\":3365:3387   */\n      add\n        /* \"#utility.yul\":3344:3397   */\n      tag_155\n      jump\t// in\n    tag_244:\n        /* \"#utility.yul\":3334:3397   */\n      swap3\n      pop\n        /* \"#utility.yul\":3290:3407   */\n      pop\n        /* \"#utility.yul\":3446:3448   */\n      0x20\n        /* \"#utility.yul\":3472:3525   */\n      tag_245\n        /* \"#utility.yul\":3517:3524   */\n      dup6\n        /* \"#utility.yul\":3508:3514   */\n      dup3\n        /* \"#utility.yul\":3497:3506   */\n      dup7\n        /* \"#utility.yul\":3493:3515   */\n      add\n        /* \"#utility.yul\":3472:3525   */\n      tag_160\n      jump\t// in\n    tag_245:\n        /* \"#utility.yul\":3462:3525   */\n      swap2\n      pop\n        /* \"#utility.yul\":3417:3535   */\n      pop\n        /* \"#utility.yul\":3068:3542   */\n      swap3\n      pop\n      swap3\n      swap1\n      pop\n      jump\t// out\n        /* \"#utility.yul\":3548:3625   */\n    tag_161:\n        /* \"#utility.yul\":3585:3592   */\n      0x00\n        /* \"#utility.yul\":3614:3619   */\n      dup2\n        /* \"#utility.yul\":3603:3619   */\n      swap1\n      pop\n        /* \"#utility.yul\":3548:3625   */\n      swap2\n      swap1\n      pop\n      jump\t// out\n        /* \"#utility.yul\":3631:3753   */\n    tag_162:\n        /* \"#utility.yul\":3704:3728   */\n      tag_248\n        /* \"#utility.yul\":3722:3727   */\n      dup2\n        /* \"#utility.yul\":3704:3728   */\n      tag_161\n      jump\t// in\n    tag_248:\n        /* \"#utility.yul\":3697:3702   */\n      dup2\n        /* \"#utility.yul\":3694:3729   */\n      eq\n        /* \"#utility.yul\":3684:3747   */\n      tag_249\n      jumpi\n        /* \"#utility.yul\":3743:3744   */\n      0x00\n        /* \"#utility.yul\":3740:3741   */\n      dup1\n        /* \"#utility.yul\":3733:3745   */\n      revert\n        /* \"#utility.yul\":3684:3747   */\n    tag_249:\n        /* \"#utility.yul\":3631:3753   */\n      pop\n      jump\t// out\n        /* \"#utility.yul\":3759:3898   */\n    tag_163:\n        /* \"#utility.yul\":3805:3810   */\n      0x00\n        /* \"#utility.yul\":3843:3849   */\n      dup2\n        /* \"#utility.yul\":3830:3850   */\n      calldataload\n        /* \"#utility.yul\":3821:3850   */\n      swap1\n      pop\n        /* \"#utility.yul\":3859:3892   */\n      tag_251\n        /* \"#utility.yul\":3886:3891   */\n      dup2\n        /* \"#utility.yul\":3859:3892   */\n      tag_162\n      jump\t// in\n    tag_251:\n        /* \"#utility.yul\":3759:3898   */\n      swap3\n      swap2\n      pop\n      pop\n      jump\t// out\n        /* \"#utility.yul\":3904:4233   */\n    tag_36:\n        /* \"#utility.yul\":3963:3969   */\n      0x00\n        /* \"#utility.yul\":4012:4014   */\n      0x20\n        /* \"#utility.yul\":4000:4009   */\n      dup3\n        /* \"#utility.yul\":3991:3998   */\n      dup5\n        /* \"#utility.yul\":3987:4010   */\n      sub\n        /* \"#utility.yul\":3983:4015   */\n      slt\n        /* \"#utility.yul\":3980:4099   */\n      iszero\n      tag_253\n      jumpi\n        /* \"#utility.yul\":4018:4097   */\n      tag_254\n      tag_146\n      jump\t// in\n    tag_254:\n        /* \"#utility.yul\":3980:4099   */\n    tag_253:\n        /* \"#utility.yul\":4138:4139   */\n      0x00\n        /* \"#utility.yul\":4163:4216   */\n      tag_255\n        /* \"#utility.yul\":4208:4215   */\n      dup5\n        /* \"#utility.yul\":4199:4205   */\n      dup3\n        /* \"#utility.yul\":4188:4197   */\n      dup6\n        /* \"#utility.yul\":4184:4206   */\n      add\n        /* \"#utility.yul\":4163:4216   */\n      tag_163\n      jump\t// in\n    tag_255:\n        /* \"#utility.yul\":4153:4216   */\n      swap2\n      pop\n        /* \"#utility.yul\":4109:4226   */\n      pop\n        /* \"#utility.yul\":3904:4233   */\n      swap3\n      swap2\n      pop\n      pop\n      jump\t// out\n        /* \"#utility.yul\":4239:4357   */\n    tag_164:\n        /* \"#utility.yul\":4326:4350   */\n      tag_257\n        /* \"#utility.yul\":4344:4349   */\n      dup2\n        /* \"#utility.yul\":4326:4350   */\n      tag_158\n      jump\t// in\n    tag_257:\n        /* \"#utility.yul\":4321:4324   */\n      dup3\n        /* \"#utility.yul\":4314:4351   */\n      mstore\n        /* \"#utility.yul\":4239:4357   */\n      pop\n      pop\n      jump\t// out\n        /* \"#utility.yul\":4363:4481   */\n    tag_165:\n        /* \"#utility.yul\":4450:4474   */\n      tag_259\n        /* \"#utility.yul\":4468:4473   */\n      dup2\n        /* \"#utility.yul\":4450:4474   */\n      tag_161\n      jump\t// in\n    tag_259:\n        /* \"#utility.yul\":4445:4448   */\n      dup3\n        /* \"#utility.yul\":4438:4475   */\n      mstore\n        /* \"#utility.yul\":4363:4481   */\n      pop\n      pop\n      jump\t// out\n        /* \"#utility.yul\":4487:4585   */\n    tag_166:\n        /* \"#utility.yul\":4538:4544   */\n      0x00\n        /* \"#utility.yul\":4572:4577   */\n      dup2\n        /* \"#utility.yul\":4566:4578   */\n      mload\n        /* \"#utility.yul\":4556:4578   */\n      swap1\n      pop\n        /* \"#utility.yul\":4487:4585   */\n      swap2\n      swap1\n      pop\n      jump\t// out\n        /* \"#utility.yul\":4591:4759   */\n    tag_167:\n        /* \"#utility.yul\":4674:4685   */\n      0x00\n        /* \"#utility.yul\":4708:4714   */\n      dup3\n        /* \"#utility.yul\":4703:4706   */\n      dup3\n        /* \"#utility.yul\":4696:4715   */\n      mstore\n        /* \"#utility.yul\":4748:4752   */\n      0x20\n        /* \"#utility.yul\":4743:4746   */\n      dup3\n        /* \"#utility.yul\":4739:4753   */\n      add\n        /* \"#utility.yul\":4724:4753   */\n      swap1\n      pop\n        /* \"#utility.yul\":4591:4759   */\n      swap3\n      swap2\n      pop\n      pop\n      jump\t// out\n        /* \"#utility.yul\":4765:4904   */\n    tag_168:\n        /* \"#utility.yul\":4854:4860   */\n      dup3\n        /* \"#utility.yul\":4849:4852   */\n      dup2\n        /* \"#utility.yul\":4844:4847   */\n      dup4\n        /* \"#utility.yul\":4838:4861   */\n      mcopy\n        /* \"#utility.yul\":4895:4896   */\n      0x00\n        /* \"#utility.yul\":4886:4892   */\n      dup4\n        /* \"#utility.yul\":4881:4884   */\n      dup4\n        /* \"#utility.yul\":4877:4893   */\n      add\n        /* \"#utility.yul\":4870:4897   */\n      mstore\n        /* \"#utility.yul\":4765:4904   */\n      pop\n      pop\n      pop\n      jump\t// out\n        /* \"#utility.yul\":4910:5012   */\n    tag_169:\n        /* \"#utility.yul\":4951:4957   */\n      0x00\n        /* \"#utility.yul\":5002:5004   */\n      0x1f\n        /* \"#utility.yul\":4998:5005   */\n      not\n        /* \"#utility.yul\":4993:4995   */\n      0x1f\n        /* \"#utility.yul\":4986:4991   */\n      dup4\n        /* \"#utility.yul\":4982:4996   */\n      add\n        /* \"#utility.yul\":4978:5006   */\n      and\n        /* \"#utility.yul\":4968:5006   */\n      swap1\n      pop\n        /* \"#utility.yul\":4910:5012   */\n      swap2\n      swap1\n      pop\n      jump\t// out\n        /* \"#utility.yul\":5018:5391   */\n    tag_170:\n        /* \"#utility.yul\":5104:5107   */\n      0x00\n        /* \"#utility.yul\":5132:5170   */\n      tag_265\n        /* \"#utility.yul\":5164:5169   */\n      dup3\n        /* \"#utility.yul\":5132:5170   */\n      tag_166\n      jump\t// in\n    tag_265:\n        /* \"#utility.yul\":5186:5256   */\n      tag_266\n        /* \"#utility.yul\":5249:5255   */\n      dup2\n        /* \"#utility.yul\":5244:5247   */\n      dup6\n        /* \"#utility.yul\":5186:5256   */\n      tag_167\n      jump\t// in\n    tag_266:\n        /* \"#utility.yul\":5179:5256   */\n      swap4\n      pop\n        /* \"#utility.yul\":5265:5330   */\n      tag_267\n        /* \"#utility.yul\":5323:5329   */\n      dup2\n        /* \"#utility.yul\":5318:5321   */\n      dup6\n        /* \"#utility.yul\":5311:5315   */\n      0x20\n        /* \"#utility.yul\":5304:5309   */\n      dup7\n        /* \"#utility.yul\":5300:5316   */\n      add\n        /* \"#utility.yul\":5265:5330   */\n      tag_168\n      jump\t// in\n    tag_267:\n        /* \"#utility.yul\":5355:5384   */\n      tag_268\n        /* \"#utility.yul\":5377:5383   */\n      dup2\n        /* \"#utility.yul\":5355:5384   */\n      tag_169\n      jump\t// in\n    tag_268:\n        /* \"#utility.yul\":5350:5353   */\n      dup5\n        /* \"#utility.yul\":5346:5385   */\n      add\n        /* \"#utility.yul\":5339:5385   */\n      swap2\n      pop\n        /* \"#utility.yul\":5108:5391   */\n      pop\n        /* \"#utility.yul\":5018:5391   */\n      swap3\n      swap2\n      pop\n      pop\n      jump\t// out\n        /* \"#utility.yul\":5397:6148   */\n    tag_39:\n        /* \"#utility.yul\":5620:5624   */\n      0x00\n        /* \"#utility.yul\":5658:5661   */\n      0xa0\n        /* \"#utility.yul\":5647:5656   */\n      dup3\n        /* \"#utility.yul\":5643:5662   */\n      add\n        /* \"#utility.yul\":5635:5662   */\n      swap1\n      pop\n        /* \"#utility.yul\":5672:5743   */\n      tag_270\n        /* \"#utility.yul\":5740:5741   */\n      0x00\n        /* \"#utility.yul\":5729:5738   */\n      dup4\n        /* \"#utility.yul\":5725:5742   */\n      add\n        /* \"#utility.yul\":5716:5722   */\n      dup9\n        /* \"#utility.yul\":5672:5743   */\n      tag_164\n      jump\t// in\n    tag_270:\n        /* \"#utility.yul\":5753:5825   */\n      tag_271\n        /* \"#utility.yul\":5821:5823   */\n      0x20\n        /* \"#utility.yul\":5810:5819   */\n      dup4\n        /* \"#utility.yul\":5806:5824   */\n      add\n        /* \"#utility.yul\":5797:5803   */\n      dup8\n        /* \"#utility.yul\":5753:5825   */\n      tag_164\n      jump\t// in\n    tag_271:\n        /* \"#utility.yul\":5835:5907   */\n      tag_272\n        /* \"#utility.yul\":5903:5905   */\n      0x40\n        /* \"#utility.yul\":5892:5901   */\n      dup4\n        /* \"#utility.yul\":5888:5906   */\n      add\n        /* \"#utility.yul\":5879:5885   */\n      dup7\n        /* \"#utility.yul\":5835:5907   */\n      tag_165\n      jump\t// in\n    tag_272:\n        /* \"#utility.yul\":5917:5989   */\n      tag_273\n        /* \"#utility.yul\":5985:5987   */\n      0x60\n        /* \"#utility.yul\":5974:5983   */\n      dup4\n        /* \"#utility.yul\":5970:5988   */\n      add\n        /* \"#utility.yul\":5961:5967   */\n      dup6\n        /* \"#utility.yul\":5917:5989   */\n      tag_165\n      jump\t// in\n    tag_273:\n        /* \"#utility.yul\":6037:6046   */\n      dup2\n        /* \"#utility.yul\":6031:6035   */\n      dup2\n        /* \"#utility.yul\":6027:6047   */\n      sub\n        /* \"#utility.yul\":6021:6024   */\n      0x80\n        /* \"#utility.yul\":6010:6019   */\n      dup4\n        /* \"#utility.yul\":6006:6025   */\n      add\n        /* \"#utility.yul\":5999:6048   */\n      mstore\n        /* \"#utility.yul\":6065:6141   */\n      tag_274\n        /* \"#utility.yul\":6136:6140   */\n      dup2\n        /* \"#utility.yul\":6127:6133   */\n      dup5\n        /* \"#utility.yul\":6065:6141   */\n      tag_170\n      jump\t// in\n    tag_274:\n        /* \"#utility.yul\":6057:6141   */\n      swap1\n      pop\n        /* \"#utility.yul\":5397:6148   */\n      swap7\n      swap6\n      pop\n      pop\n      pop\n      pop\n      pop\n      pop\n      jump\t// out\n        /* \"#utility.yul\":6154:6483   */\n    tag_45:\n        /* \"#utility.yul\":6213:6219   */\n      0x00\n        /* \"#utility.yul\":6262:6264   */\n      0x20\n        /* \"#utility.yul\":6250:6259   */\n      dup3\n        /* \"#utility.yul\":6241:6248   */\n      dup5\n        /* \"#utility.yul\":6237:6260   */\n      sub\n        /* \"#utility.yul\":6233:6265   */\n      slt\n        /* \"#utility.yul\":6230:6349   */\n      iszero\n      tag_276\n      jumpi\n        /* \"#utility.yul\":6268:6347   */\n      tag_277\n      tag_146\n      jump\t// in\n    tag_277:\n        /* \"#utility.yul\":6230:6349   */\n    tag_276:\n        /* \"#utility.yul\":6388:6389   */\n      0x00\n        /* \"#utility.yul\":6413:6466   */\n      tag_278\n        /* \"#utility.yul\":6458:6465   */\n      dup5\n        /* \"#utility.yul\":6449:6455   */\n      dup3\n        /* \"#utility.yul\":6438:6447   */\n      dup6\n        /* \"#utility.yul\":6434:6456   */\n      add\n        /* \"#utility.yul\":6413:6466   */\n      tag_160\n      jump\t// in\n    tag_278:\n        /* \"#utility.yul\":6403:6466   */\n      swap2\n      pop\n        /* \"#utility.yul\":6359:6476   */\n      pop\n        /* \"#utility.yul\":6154:6483   */\n      swap3\n      swap2\n      pop\n      pop\n      jump\t// out\n        /* \"#utility.yul\":6489:6606   */\n    tag_171:\n        /* \"#utility.yul\":6598:6599   */\n      0x00\n        /* \"#utility.yul\":6595:6596   */\n      dup1\n        /* \"#utility.yul\":6588:6600   */\n      revert\n        /* \"#utility.yul\":6612:6729   */\n    tag_172:\n        /* \"#utility.yul\":6721:6722   */\n      0x00\n        /* \"#utility.yul\":6718:6719   */\n      dup1\n        /* \"#utility.yul\":6711:6723   */\n      revert\n        /* \"#utility.yul\":6735:6915   */\n    tag_173:\n        /* \"#utility.yul\":6783:6860   */\n      0x4e487b7100000000000000000000000000000000000000000000000000000000\n        /* \"#utility.yul\":6780:6781   */\n      0x00\n        /* \"#utility.yul\":6773:6861   */\n      mstore\n        /* \"#utility.yul\":6880:6884   */\n      0x41\n        /* \"#utility.yul\":6877:6878   */\n      0x04\n        /* \"#utility.yul\":6870:6885   */\n      mstore\n        /* \"#utility.yul\":6904:6908   */\n      0x24\n        /* \"#utility.yul\":6901:6902   */\n      0x00\n        /* \"#utility.yul\":6894:6909   */\n      revert\n        /* \"#utility.yul\":6921:7202   */\n    tag_174:\n        /* \"#utility.yul\":7004:7031   */\n      tag_283\n        /* \"#utility.yul\":7026:7030   */\n      dup3\n        /* \"#utility.yul\":7004:7031   */\n      tag_169\n      jump\t// in\n    tag_283:\n        /* \"#utility.yul\":6996:7002   */\n      dup2\n        /* \"#utility.yul\":6992:7032   */\n      add\n        /* \"#utility.yul\":7134:7140   */\n      dup2\n        /* \"#utility.yul\":7122:7132   */\n      dup2\n        /* \"#utility.yul\":7119:7141   */\n      lt\n        /* \"#utility.yul\":7098:7116   */\n      0xffffffffffffffff\n        /* \"#utility.yul\":7086:7096   */\n      dup3\n        /* \"#utility.yul\":7083:7117   */\n      gt\n        /* \"#utility.yul\":7080:7142   */\n      or\n        /* \"#utility.yul\":7077:7165   */\n      iszero\n      tag_284\n      jumpi\n        /* \"#utility.yul\":7145:7163   */\n      tag_285\n      tag_173\n      jump\t// in\n    tag_285:\n        /* \"#utility.yul\":7077:7165   */\n    tag_284:\n        /* \"#utility.yul\":7185:7195   */\n      dup1\n        /* \"#utility.yul\":7181:7183   */\n      0x40\n        /* \"#utility.yul\":7174:7196   */\n      mstore\n        /* \"#utility.yul\":6964:7202   */\n      pop\n        /* \"#utility.yul\":6921:7202   */\n      pop\n      pop\n      jump\t// out\n        /* \"#utility.yul\":7208:7337   */\n    tag_175:\n        /* \"#utility.yul\":7242:7248   */\n      0x00\n        /* \"#utility.yul\":7269:7289   */\n      tag_287\n      tag_145\n      jump\t// in\n    tag_287:\n        /* \"#utility.yul\":7259:7289   */\n      swap1\n      pop\n        /* \"#utility.yul\":7298:7331   */\n      tag_288\n        /* \"#utility.yul\":7326:7330   */\n      dup3\n        /* \"#utility.yul\":7318:7324   */\n      dup3\n        /* \"#utility.yul\":7298:7331   */\n      tag_174\n      jump\t// in\n    tag_288:\n        /* \"#utility.yul\":7208:7337   */\n      swap2\n      swap1\n      pop\n      jump\t// out\n        /* \"#utility.yul\":7343:7650   */\n    tag_176:\n        /* \"#utility.yul\":7404:7408   */\n      0x00\n        /* \"#utility.yul\":7494:7512   */\n      0xffffffffffffffff\n        /* \"#utility.yul\":7486:7492   */\n      dup3\n        /* \"#utility.yul\":7483:7513   */\n      gt\n        /* \"#utility.yul\":7480:7536   */\n      iszero\n      tag_290\n      jumpi\n        /* \"#utility.yul\":7516:7534   */\n      tag_291\n      tag_173\n      jump\t// in\n    tag_291:\n        /* \"#utility.yul\":7480:7536   */\n    tag_290:\n        /* \"#utility.yul\":7554:7583   */\n      tag_292\n        /* \"#utility.yul\":7576:7582   */\n      dup3\n        /* \"#utility.yul\":7554:7583   */\n      tag_169\n      jump\t// in\n    tag_292:\n        /* \"#utility.yul\":7546:7583   */\n      swap1\n      pop\n        /* \"#utility.yul\":7638:7642   */\n      0x20\n        /* \"#utility.yul\":7632:7636   */\n      dup2\n        /* \"#utility.yul\":7628:7643   */\n      add\n        /* \"#utility.yul\":7620:7643   */\n      swap1\n      pop\n        /* \"#utility.yul\":7343:7650   */\n      swap2\n      swap1\n      pop\n      jump\t// out\n        /* \"#utility.yul\":7656:7804   */\n    tag_177:\n        /* \"#utility.yul\":7754:7760   */\n      dup3\n        /* \"#utility.yul\":7749:7752   */\n      dup2\n        /* \"#utility.yul\":7744:7747   */\n      dup4\n        /* \"#utility.yul\":7731:7761   */\n      calldatacopy\n        /* \"#utility.yul\":7795:7796   */\n      0x00\n        /* \"#utility.yul\":7786:7792   */\n      dup4\n        /* \"#utility.yul\":7781:7784   */\n      dup4\n        /* \"#utility.yul\":7777:7793   */\n      add\n        /* \"#utility.yul\":7770:7797   */\n      mstore\n        /* \"#utility.yul\":7656:7804   */\n      pop\n      pop\n      pop\n      jump\t// out\n        /* \"#utility.yul\":7810:8233   */\n    tag_178:\n        /* \"#utility.yul\":7887:7892   */\n      0x00\n        /* \"#utility.yul\":7912:7977   */\n      tag_295\n        /* \"#utility.yul\":7928:7976   */\n      tag_296\n        /* \"#utility.yul\":7969:7975   */\n      dup5\n        /* \"#utility.yul\":7928:7976   */\n      tag_176\n      jump\t// in\n    tag_296:\n        /* \"#utility.yul\":7912:7977   */\n      tag_175\n      jump\t// in\n    tag_295:\n        /* \"#utility.yul\":7903:7977   */\n      swap1\n      pop\n        /* \"#utility.yul\":8000:8006   */\n      dup3\n        /* \"#utility.yul\":7993:7998   */\n      dup2\n        /* \"#utility.yul\":7986:8007   */\n      mstore\n        /* \"#utility.yul\":8038:8042   */\n      0x20\n        /* \"#utility.yul\":8031:8036   */\n      dup2\n        /* \"#utility.yul\":8027:8043   */\n      add\n        /* \"#utility.yul\":8076:8079   */\n      dup5\n        /* \"#utility.yul\":8067:8073   */\n      dup5\n        /* \"#utility.yul\":8062:8065   */\n      dup5\n        /* \"#utility.yul\":8058:8074   */\n      add\n        /* \"#utility.yul\":8055:8080   */\n      gt\n        /* \"#utility.yul\":8052:8164   */\n      iszero\n      tag_297\n      jumpi\n        /* \"#utility.yul\":8083:8162   */\n      tag_298\n      tag_172\n      jump\t// in\n    tag_298:\n        /* \"#utility.yul\":8052:8164   */\n    tag_297:\n        /* \"#utility.yul\":8173:8227   */\n      tag_299\n        /* \"#utility.yul\":8220:8226   */\n      dup5\n        /* \"#utility.yul\":8215:8218   */\n      dup3\n        /* \"#utility.yul\":8210:8213   */\n      dup6\n        /* \"#utility.yul\":8173:8227   */\n      tag_177\n      jump\t// in\n    tag_299:\n        /* \"#utility.yul\":7893:8233   */\n      pop\n        /* \"#utility.yul\":7810:8233   */\n      swap4\n      swap3\n      pop\n      pop\n      pop\n      jump\t// out\n        /* \"#utility.yul\":8252:8590   */\n    tag_179:\n        /* \"#utility.yul\":8307:8312   */\n      0x00\n        /* \"#utility.yul\":8356:8359   */\n      dup3\n        /* \"#utility.yul\":8349:8353   */\n      0x1f\n        /* \"#utility.yul\":8341:8347   */\n      dup4\n        /* \"#utility.yul\":8337:8354   */\n      add\n        /* \"#utility.yul\":8333:8360   */\n      slt\n        /* \"#utility.yul\":8323:8445   */\n      tag_301\n      jumpi\n        /* \"#utility.yul\":8364:8443   */\n      tag_302\n      tag_171\n      jump\t// in\n    tag_302:\n        /* \"#utility.yul\":8323:8445   */\n    tag_301:\n        /* \"#utility.yul\":8481:8487   */\n      dup2\n        /* \"#utility.yul\":8468:8488   */\n      calldataload\n        /* \"#utility.yul\":8506:8584   */\n      tag_303\n        /* \"#utility.yul\":8580:8583   */\n      dup5\n        /* \"#utility.yul\":8572:8578   */\n      dup3\n        /* \"#utility.yul\":8565:8569   */\n      0x20\n        /* \"#utility.yul\":8557:8563   */\n      dup7\n        /* \"#utility.yul\":8553:8570   */\n      add\n        /* \"#utility.yul\":8506:8584   */\n      tag_178\n      jump\t// in\n    tag_303:\n        /* \"#utility.yul\":8497:8584   */\n      swap2\n      pop\n        /* \"#utility.yul\":8313:8590   */\n      pop\n        /* \"#utility.yul\":8252:8590   */\n      swap3\n      swap2\n      pop\n      pop\n      jump\t// out\n        /* \"#utility.yul\":8596:9393   */\n    tag_62:\n        /* \"#utility.yul\":8682:8688   */\n      0x00\n        /* \"#utility.yul\":8690:8696   */\n      dup1\n        /* \"#utility.yul\":8698:8704   */\n      0x00\n        /* \"#utility.yul\":8747:8749   */\n      0x60\n        /* \"#utility.yul\":8735:8744   */\n      dup5\n        /* \"#utility.yul\":8726:8733   */\n      dup7\n        /* \"#utility.yul\":8722:8745   */\n      sub\n        /* \"#utility.yul\":8718:8750   */\n      slt\n        /* \"#utility.yul\":8715:8834   */\n      iszero\n      tag_305\n      jumpi\n        /* \"#utility.yul\":8753:8832   */\n      tag_306\n      tag_146\n      jump\t// in\n    tag_306:\n        /* \"#utility.yul\":8715:8834   */\n    tag_305:\n        /* \"#utility.yul\":8873:8874   */\n      0x00\n        /* \"#utility.yul\":8898:8951   */\n      tag_307\n        /* \"#utility.yul\":8943:8950   */\n      dup7\n        /* \"#utility.yul\":8934:8940   */\n      dup3\n        /* \"#utility.yul\":8923:8932   */\n      dup8\n        /* \"#utility.yul\":8919:8941   */\n      add\n        /* \"#utility.yul\":8898:8951   */\n      tag_160\n      jump\t// in\n    tag_307:\n        /* \"#utility.yul\":8888:8951   */\n      swap4\n      pop\n        /* \"#utility.yul\":8844:8961   */\n      pop\n        /* \"#utility.yul\":9000:9002   */\n      0x20\n        /* \"#utility.yul\":9026:9079   */\n      tag_308\n        /* \"#utility.yul\":9071:9078   */\n      dup7\n        /* \"#utility.yul\":9062:9068   */\n      dup3\n        /* \"#utility.yul\":9051:9060   */\n      dup8\n        /* \"#utility.yul\":9047:9069   */\n      add\n        /* \"#utility.yul\":9026:9079   */\n      tag_163\n      jump\t// in\n    tag_308:\n        /* \"#utility.yul\":9016:9079   */\n      swap3\n      pop\n        /* \"#utility.yul\":8971:9089   */\n      pop\n        /* \"#utility.yul\":9156:9158   */\n      0x40\n        /* \"#utility.yul\":9145:9154   */\n      dup5\n        /* \"#utility.yul\":9141:9159   */\n      add\n        /* \"#utility.yul\":9128:9160   */\n      calldataload\n        /* \"#utility.yul\":9187:9205   */\n      0xffffffffffffffff\n        /* \"#utility.yul\":9179:9185   */\n      dup2\n        /* \"#utility.yul\":9176:9206   */\n      gt\n        /* \"#utility.yul\":9173:9290   */\n      iszero\n      tag_309\n      jumpi\n        /* \"#utility.yul\":9209:9288   */\n      tag_310\n      tag_147\n      jump\t// in\n    tag_310:\n        /* \"#utility.yul\":9173:9290   */\n    tag_309:\n        /* \"#utility.yul\":9314:9376   */\n      tag_311\n        /* \"#utility.yul\":9368:9375   */\n      dup7\n        /* \"#utility.yul\":9359:9365   */\n      dup3\n        /* \"#utility.yul\":9348:9357   */\n      dup8\n        /* \"#utility.yul\":9344:9366   */\n      add\n        /* \"#utility.yul\":9314:9376   */\n      tag_179\n      jump\t// in\n    tag_311:\n        /* \"#utility.yul\":9304:9376   */\n      swap2\n      pop\n        /* \"#utility.yul\":9099:9386   */\n      pop\n        /* \"#utility.yul\":8596:9393   */\n      swap3\n      pop\n      swap3\n      pop\n      swap3\n      jump\t// out\n        /* \"#utility.yul\":9399:9568   */\n    tag_180:\n        /* \"#utility.yul\":9483:9494   */\n      0x00\n        /* \"#utility.yul\":9517:9523   */\n      dup3\n        /* \"#utility.yul\":9512:9515   */\n      dup3\n        /* \"#utility.yul\":9505:9524   */\n      mstore\n        /* \"#utility.yul\":9557:9561   */\n      0x20\n        /* \"#utility.yul\":9552:9555   */\n      dup3\n        /* \"#utility.yul\":9548:9562   */\n      add\n        /* \"#utility.yul\":9533:9562   */\n      swap1\n      pop\n        /* \"#utility.yul\":9399:9568   */\n      swap3\n      swap2\n      pop\n      pop\n      jump\t// out\n        /* \"#utility.yul\":9574:9799   */\n    tag_181:\n        /* \"#utility.yul\":9714:9748   */\n      0x5472616e73616374696f6e4c6f676765723a20496e646578206f7574206f6620\n        /* \"#utility.yul\":9710:9711   */\n      0x00\n        /* \"#utility.yul\":9702:9708   */\n      dup3\n        /* \"#utility.yul\":9698:9712   */\n      add\n        /* \"#utility.yul\":9691:9749   */\n      mstore\n        /* \"#utility.yul\":9783:9791   */\n      0x626f756e64730000000000000000000000000000000000000000000000000000\n        /* \"#utility.yul\":9778:9780   */\n      0x20\n        /* \"#utility.yul\":9770:9776   */\n      dup3\n        /* \"#utility.yul\":9766:9781   */\n      add\n        /* \"#utility.yul\":9759:9792   */\n      mstore\n        /* \"#utility.yul\":9574:9799   */\n      pop\n      jump\t// out\n        /* \"#utility.yul\":9805:10171   */\n    tag_182:\n        /* \"#utility.yul\":9947:9950   */\n      0x00\n        /* \"#utility.yul\":9968:10035   */\n      tag_315\n        /* \"#utility.yul\":10032:10034   */\n      0x26\n        /* \"#utility.yul\":10027:10030   */\n      dup4\n        /* \"#utility.yul\":9968:10035   */\n      tag_180\n      jump\t// in\n    tag_315:\n        /* \"#utility.yul\":9961:10035   */\n      swap2\n      pop\n        /* \"#utility.yul\":10044:10137   */\n      tag_316\n        /* \"#utility.yul\":10133:10136   */\n      dup3\n        /* \"#utility.yul\":10044:10137   */\n      tag_181\n      jump\t// in\n    tag_316:\n        /* \"#utility.yul\":10162:10164   */\n      0x40\n        /* \"#utility.yul\":10157:10160   */\n      dup3\n        /* \"#utility.yul\":10153:10165   */\n      add\n        /* \"#utility.yul\":10146:10165   */\n      swap1\n      pop\n        /* \"#utility.yul\":9805:10171   */\n      swap2\n      swap1\n      pop\n      jump\t// out\n        /* \"#utility.yul\":10177:10596   */\n    tag_86:\n        /* \"#utility.yul\":10343:10347   */\n      0x00\n        /* \"#utility.yul\":10381:10383   */\n      0x20\n        /* \"#utility.yul\":10370:10379   */\n      dup3\n        /* \"#utility.yul\":10366:10384   */\n      add\n        /* \"#utility.yul\":10358:10384   */\n      swap1\n      pop\n        /* \"#utility.yul\":10430:10439   */\n      dup2\n        /* \"#utility.yul\":10424:10428   */\n      dup2\n        /* \"#utility.yul\":10420:10440   */\n      sub\n        /* \"#utility.yul\":10416:10417   */\n      0x00\n        /* \"#utility.yul\":10405:10414   */\n      dup4\n        /* \"#utility.yul\":10401:10418   */\n      add\n        /* \"#utility.yul\":10394:10441   */\n      mstore\n        /* \"#utility.yul\":10458:10589   */\n      tag_318\n        /* \"#utility.yul\":10584:10588   */\n      dup2\n        /* \"#utility.yul\":10458:10589   */\n      tag_182\n      jump\t// in\n    tag_318:\n        /* \"#utility.yul\":10450:10589   */\n      swap1\n      pop\n        /* \"#utility.yul\":10177:10596   */\n      swap2\n      swap1\n      pop\n      jump\t// out\n        /* \"#utility.yul\":10602:10782   */\n    tag_183:\n        /* \"#utility.yul\":10650:10727   */\n      0x4e487b7100000000000000000000000000000000000000000000000000000000\n        /* \"#utility.yul\":10647:10648   */\n      0x00\n        /* \"#utility.yul\":10640:10728   */\n      mstore\n        /* \"#utility.yul\":10747:10751   */\n      0x22\n        /* \"#utility.yul\":10744:10745   */\n      0x04\n        /* \"#utility.yul\":10737:10752   */\n      mstore\n        /* \"#utility.yul\":10771:10775   */\n      0x24\n        /* \"#utility.yul\":10768:10769   */\n      0x00\n        /* \"#utility.yul\":10761:10776   */\n      revert\n        /* \"#utility.yul\":10788:11108   */\n    tag_88:\n        /* \"#utility.yul\":10832:10838   */\n      0x00\n        /* \"#utility.yul\":10869:10870   */\n      0x02\n        /* \"#utility.yul\":10863:10867   */\n      dup3\n        /* \"#utility.yul\":10859:10871   */\n      div\n        /* \"#utility.yul\":10849:10871   */\n      swap1\n      pop\n        /* \"#utility.yul\":10916:10917   */\n      0x01\n        /* \"#utility.yul\":10910:10914   */\n      dup3\n        /* \"#utility.yul\":10906:10918   */\n      and\n        /* \"#utility.yul\":10937:10955   */\n      dup1\n        /* \"#utility.yul\":10927:11008   */\n      tag_321\n      jumpi\n        /* \"#utility.yul\":10993:10997   */\n      0x7f\n        /* \"#utility.yul\":10985:10991   */\n      dup3\n        /* \"#utility.yul\":10981:10998   */\n      and\n        /* \"#utility.yul\":10971:10998   */\n      swap2\n      pop\n        /* \"#utility.yul\":10927:11008   */\n    tag_321:\n        /* \"#utility.yul\":11055:11057   */\n      0x20\n        /* \"#utility.yul\":11047:11053   */\n      dup3\n        /* \"#utility.yul\":11044:11058   */\n      lt\n        /* \"#utility.yul\":11024:11042   */\n      dup2\n        /* \"#utility.yul\":11021:11059   */\n      sub\n        /* \"#utility.yul\":11018:11102   */\n      tag_322\n      jumpi\n        /* \"#utility.yul\":11074:11092   */\n      tag_323\n      tag_183\n      jump\t// in\n    tag_323:\n        /* \"#utility.yul\":11018:11102   */\n    tag_322:\n        /* \"#utility.yul\":10839:11108   */\n      pop\n        /* \"#utility.yul\":10788:11108   */\n      swap2\n      swap1\n      pop\n      jump\t// out\n        /* \"#utility.yul\":11114:11254   */\n    tag_184:\n        /* \"#utility.yul\":11162:11166   */\n      0x00\n        /* \"#utility.yul\":11185:11188   */\n      dup2\n        /* \"#utility.yul\":11177:11188   */\n      swap1\n      pop\n        /* \"#utility.yul\":11208:11211   */\n      dup2\n        /* \"#utility.yul\":11205:11206   */\n      0x00\n        /* \"#utility.yul\":11198:11212   */\n      mstore\n        /* \"#utility.yul\":11242:11246   */\n      0x20\n        /* \"#utility.yul\":11239:11240   */\n      0x00\n        /* \"#utility.yul\":11229:11247   */\n      keccak256\n        /* \"#utility.yul\":11221:11247   */\n      swap1\n      pop\n        /* \"#utility.yul\":11114:11254   */\n      swap2\n      swap1\n      pop\n      jump\t// out\n        /* \"#utility.yul\":11260:11353   */\n    tag_185:\n        /* \"#utility.yul\":11297:11303   */\n      0x00\n        /* \"#utility.yul\":11344:11346   */\n      0x20\n        /* \"#utility.yul\":11339:11341   */\n      0x1f\n        /* \"#utility.yul\":11332:11337   */\n      dup4\n        /* \"#utility.yul\":11328:11342   */\n      add\n        /* \"#utility.yul\":11324:11347   */\n      div\n        /* \"#utility.yul\":11314:11347   */\n      swap1\n      pop\n        /* \"#utility.yul\":11260:11353   */\n      swap2\n      swap1\n      pop\n      jump\t// out\n        /* \"#utility.yul\":11359:11466   */\n    tag_186:\n        /* \"#utility.yul\":11403:11411   */\n      0x00\n        /* \"#utility.yul\":11453:11458   */\n      dup3\n        /* \"#utility.yul\":11447:11451   */\n      dup3\n        /* \"#utility.yul\":11443:11459   */\n      shl\n        /* \"#utility.yul\":11422:11459   */\n      swap1\n      pop\n        /* \"#utility.yul\":11359:11466   */\n      swap3\n      swap2\n      pop\n      pop\n      jump\t// out\n        /* \"#utility.yul\":11472:11865   */\n    tag_187:\n        /* \"#utility.yul\":11541:11547   */\n      0x00\n        /* \"#utility.yul\":11591:11592   */\n      0x08\n        /* \"#utility.yul\":11579:11589   */\n      dup4\n        /* \"#utility.yul\":11575:11593   */\n      mul\n        /* \"#utility.yul\":11614:11711   */\n      tag_328\n        /* \"#utility.yul\":11644:11710   */\n      0xffffffffffffffffffffffffffffffffffffffffffffffffffffffffffffffff\n        /* \"#utility.yul\":11633:11642   */\n      dup3\n        /* \"#utility.yul\":11614:11711   */\n      tag_186\n      jump\t// in\n    tag_328:\n        /* \"#utility.yul\":11732:11771   */\n      tag_329\n        /* \"#utility.yul\":11762:11770   */\n      dup7\n        /* \"#utility.yul\":11751:11760   */\n      dup4\n        /* \"#utility.yul\":11732:11771   */\n      tag_186\n      jump\t// in\n    tag_329:\n        /* \"#utility.yul\":11720:11771   */\n      swap6\n      pop\n        /* \"#utility.yul\":11804:11808   */\n      dup1\n        /* \"#utility.yul\":11800:11809   */\n      not\n        /* \"#utility.yul\":11793:11798   */\n      dup5\n        /* \"#utility.yul\":11789:11810   */\n      and\n        /* \"#utility.yul\":11780:11810   */\n      swap4\n      pop\n        /* \"#utility.yul\":11853:11857   */\n      dup1\n        /* \"#utility.yul\":11843:11851   */\n      dup7\n        /* \"#utility.yul\":11839:11858   */\n      and\n        /* \"#utility.yul\":11832:11837   */\n      dup5\n        /* \"#utility.yul\":11829:11859   */\n      or\n        /* \"#utility.yul\":11819:11859   */\n      swap3\n      pop\n        /* \"#utility.yul\":11548:11865   */\n      pop\n      pop\n        /* \"#utility.yul\":11472:11865   */\n      swap4\n      swap3\n      pop\n      pop\n      pop\n      jump\t// out\n        /* \"#utility.yul\":11871:11931   */\n    tag_188:\n        /* \"#utility.yul\":11899:11902   */\n      0x00\n        /* \"#utility.yul\":11920:11925   */\n      dup2\n        /* \"#utility.yul\":11913:11925   */\n      swap1\n      pop\n        /* \"#utility.yul\":11871:11931   */\n      swap2\n      swap1\n      pop\n      jump\t// out\n        /* \"#utility.yul\":11937:12079   */\n    tag_189:\n        /* \"#utility.yul\":11987:11996   */\n      0x00\n        /* \"#utility.yul\":12020:12073   */\n      tag_332\n        /* \"#utility.yul\":12038:12072   */\n      tag_333\n        /* \"#utility.yul\":12047:12071   */\n      tag_334\n        /* \"#utility.yul\":12065:12070   */\n      dup5\n        /* \"#utility.yul\":12047:12071   */\n      tag_161\n      jump\t// in\n    tag_334:\n        /* \"#utility.yul\":12038:12072   */\n      tag_188\n      jump\t// in\n    tag_333:\n        /* \"#utility.yul\":12020:12073   */\n      tag_161\n      jump\t// in\n    tag_332:\n        /* \"#utility.yul\":12007:12073   */\n      swap1\n      pop\n        /* \"#utility.yul\":11937:12079   */\n      swap2\n      swap1\n      pop\n      jump\t// out\n        /* \"#utility.yul\":12085:12160   */\n    tag_190:\n        /* \"#utility.yul\":12128:12131   */\n      0x00\n        /* \"#utility.yul\":12149:12154   */\n      dup2\n        /* \"#utility.yul\":12142:12154   */\n      swap1\n      pop\n        /* \"#utility.yul\":12085:12160   */\n      swap2\n      swap1\n      pop\n      jump\t// out\n        /* \"#utility.yul\":12166:12435   */\n    tag_191:\n        /* \"#utility.yul\":12276:12315   */\n      tag_337\n        /* \"#utility.yul\":12307:12314   */\n      dup4\n        /* \"#utility.yul\":12276:12315   */\n      tag_189\n      jump\t// in\n    tag_337:\n        /* \"#utility.yul\":12337:12428   */\n      tag_338\n        /* \"#utility.yul\":12386:12427   */\n      tag_339\n        /* \"#utility.yul\":12410:12426   */\n      dup3\n        /* \"#utility.yul\":12386:12427   */\n      tag_190\n      jump\t// in\n    tag_339:\n        /* \"#utility.yul\":12378:12384   */\n      dup5\n        /* \"#utility.yul\":12371:12375   */\n      dup5\n        /* \"#utility.yul\":12365:12376   */\n      sload\n        /* \"#utility.yul\":12337:12428   */\n      tag_187\n      jump\t// in\n    tag_338:\n        /* \"#utility.yul\":12331:12335   */\n      dup3\n        /* \"#utility.yul\":12324:12429   */\n      sstore\n        /* \"#utility.yul\":12242:12435   */\n      pop\n        /* \"#utility.yul\":12166:12435   */\n      pop\n      pop\n      pop\n      jump\t// out\n        /* \"#utility.yul\":12441:12514   */\n    tag_192:\n        /* \"#utility.yul\":12486:12489   */\n      0x00\n        /* \"#utility.yul\":12441:12514   */\n      swap1\n      jump\t// out\n        /* \"#utility.yul\":12520:12709   */\n    tag_193:\n        /* \"#utility.yul\":12597:12629   */\n      tag_342\n      tag_192\n      jump\t// in\n    tag_342:\n        /* \"#utility.yul\":12638:12703   */\n      tag_343\n        /* \"#utility.yul\":12696:12702   */\n      dup2\n        /* \"#utility.yul\":12688:12694   */\n      dup5\n        /* \"#utility.yul\":12682:12686   */\n      dup5\n        /* \"#utility.yul\":12638:12703   */\n      tag_191\n      jump\t// in\n    tag_343:\n        /* \"#utility.yul\":12573:12709   */\n      pop\n        /* \"#utility.yul\":12520:12709   */\n      pop\n      pop\n      jump\t// out\n        /* \"#utility.yul\":12715:12901   */\n    tag_194:\n        /* \"#utility.yul\":12775:12895   */\n    tag_345:\n        /* \"#utility.yul\":12792:12795   */\n      dup2\n        /* \"#utility.yul\":12785:12790   */\n      dup2\n        /* \"#utility.yul\":12782:12796   */\n      lt\n        /* \"#utility.yul\":12775:12895   */\n      iszero\n      tag_347\n      jumpi\n        /* \"#utility.yul\":12846:12885   */\n      tag_348\n        /* \"#utility.yul\":12883:12884   */\n      0x00\n        /* \"#utility.yul\":12876:12881   */\n      dup3\n        /* \"#utility.yul\":12846:12885   */\n      tag_193\n      jump\t// in\n    tag_348:\n        /* \"#utility.yul\":12819:12820   */\n      0x01\n        /* \"#utility.yul\":12812:12817   */\n      dup2\n        /* \"#utility.yul\":12808:12821   */\n      add\n        /* \"#utility.yul\":12799:12821   */\n      swap1\n      pop\n        /* \"#utility.yul\":12775:12895   */\n      jump(tag_345)\n    tag_347:\n        /* \"#utility.yul\":12715:12901   */\n      pop\n      pop\n      jump\t// out\n        /* \"#utility.yul\":12907:13448   */\n    tag_195:\n        /* \"#utility.yul\":13007:13009   */\n      0x1f\n        /* \"#utility.yul\":13002:13005   */\n      dup3\n        /* \"#utility.yul\":12999:13010   */\n      gt\n        /* \"#utility.yul\":12996:13441   */\n      iszero\n      tag_350\n      jumpi\n        /* \"#utility.yul\":13041:13078   */\n      tag_351\n        /* \"#utility.yul\":13072:13077   */\n      dup2\n        /* \"#utility.yul\":13041:13078   */\n      tag_184\n      jump\t// in\n    tag_351:\n        /* \"#utility.yul\":13124:13153   */\n      tag_352\n        /* \"#utility.yul\":13142:13152   */\n      dup5\n        /* \"#utility.yul\":13124:13153   */\n      tag_185\n      jump\t// in\n    tag_352:\n        /* \"#utility.yul\":13114:13122   */\n      dup2\n        /* \"#utility.yul\":13110:13154   */\n      add\n        /* \"#utility.yul\":13307:13309   */\n      0x20\n        /* \"#utility.yul\":13295:13305   */\n      dup6\n        /* \"#utility.yul\":13292:13310   */\n      lt\n        /* \"#utility.yul\":13289:13338   */\n      iszero\n      tag_353\n      jumpi\n        /* \"#utility.yul\":13328:13336   */\n      dup2\n        /* \"#utility.yul\":13313:13336   */\n      swap1\n      pop\n        /* \"#utility.yul\":13289:13338   */\n    tag_353:\n        /* \"#utility.yul\":13351:13431   */\n      tag_354\n        /* \"#utility.yul\":13407:13429   */\n      tag_355\n        /* \"#utility.yul\":13425:13428   */\n      dup6\n        /* \"#utility.yul\":13407:13429   */\n      tag_185\n      jump\t// in\n    tag_355:\n        /* \"#utility.yul\":13397:13405   */\n      dup4\n        /* \"#utility.yul\":13393:13430   */\n      add\n        /* \"#utility.yul\":13380:13391   */\n      dup3\n        /* \"#utility.yul\":13351:13431   */\n      tag_194\n      jump\t// in\n    tag_354:\n        /* \"#utility.yul\":13011:13441   */\n      pop\n      pop\n        /* \"#utility.yul\":12996:13441   */\n    tag_350:\n        /* \"#utility.yul\":12907:13448   */\n      pop\n      pop\n      pop\n      jump\t// out\n        /* \"#utility.yul\":13454:13571   */\n    tag_196:\n        /* \"#utility.yul\":13508:13516   */\n      0x00\n        /* \"#utility.yul\":13558:13563   */\n      dup3\n        /* \"#utility.yul\":13552:13556   */\n      dup3\n        /* \"#utility.yul\":13548:13564   */\n      shr\n        /* \"#utility.yul\":13527:13564   */\n      swap1\n      pop\n        /* \"#utility.yul\":13454:13571   */\n      swap3\n      swap2\n      pop\n      pop\n      jump\t// out\n        /* \"#utility.yul\":13577:13746   */\n    tag_197:\n        /* \"#utility.yul\":13621:13627   */\n      0x00\n        /* \"#utility.yul\":13654:13705   */\n      tag_358\n        /* \"#utility.yul\":13702:13703   */\n      0x00\n        /* \"#utility.yul\":13698:13704   */\n      not\n        /* \"#utility.yul\":13690:13695   */\n      dup5\n        /* \"#utility.yul\":13687:13688   */\n      0x08\n        /* \"#utility.yul\":13683:13696   */\n      mul\n        /* \"#utility.yul\":13654:13705   */\n      tag_196\n      jump\t// in\n    tag_358:\n        /* \"#utility.yul\":13650:13706   */\n      not\n        /* \"#utility.yul\":13735:13739   */\n      dup1\n        /* \"#utility.yul\":13729:13733   */\n      dup4\n        /* \"#utility.yul\":13725:13740   */\n      and\n        /* \"#utility.yul\":13715:13740   */\n      swap2\n      pop\n        /* \"#utility.yul\":13628:13746   */\n      pop\n        /* \"#utility.yul\":13577:13746   */\n      swap3\n      swap2\n      pop\n      pop\n      jump\t// out\n        /* \"#utility.yul\":13751:14046   */\n    tag_198:\n        /* \"#utility.yul\":13827:13831   */\n      0x00\n        /* \"#utility.yul\":13973:14002   */\n      tag_360\n        /* \"#utility.yul\":13998:14001   */\n      dup4\n        /* \"#utility.yul\":13992:13996   */\n      dup4\n        /* \"#utility.yul\":13973:14002   */\n      tag_197\n      jump\t// in\n    tag_360:\n        /* \"#utility.yul\":13965:14002   */\n      swap2\n      pop\n        /* \"#utility.yul\":14035:14038   */\n      dup3\n        /* \"#utility.yul\":14032:14033   */\n      0x02\n        /* \"#utility.yul\":14028:14039   */\n      mul\n        /* \"#utility.yul\":14022:14026   */\n      dup3\n        /* \"#utility.yul\":14019:14040   */\n      or\n        /* \"#utility.yul\":14011:14040   */\n      swap1\n      pop\n        /* \"#utility.yul\":13751:14046   */\n      swap3\n      swap2\n      pop\n      pop\n      jump\t// out\n        /* \"#utility.yul\":14051:15441   */\n    tag_112:\n        /* \"#utility.yul\":14166:14202   */\n      tag_362\n        /* \"#utility.yul\":14198:14201   */\n      dup3\n        /* \"#utility.yul\":14166:14202   */\n      tag_166\n      jump\t// in\n    tag_362:\n        /* \"#utility.yul\":14267:14285   */\n      0xffffffffffffffff\n        /* \"#utility.yul\":14259:14265   */\n      dup2\n        /* \"#utility.yul\":14256:14286   */\n      gt\n        /* \"#utility.yul\":14253:14309   */\n      iszero\n      tag_363\n      jumpi\n        /* \"#utility.yul\":14289:14307   */\n      tag_364\n      tag_173\n      jump\t// in\n    tag_364:\n        /* \"#utility.yul\":14253:14309   */\n    tag_363:\n        /* \"#utility.yul\":14333:14371   */\n      tag_365\n        /* \"#utility.yul\":14365:14369   */\n      dup3\n        /* \"#utility.yul\":14359:14370   */\n      sload\n        /* \"#utility.yul\":14333:14371   */\n      tag_88\n      jump\t// in\n    tag_365:\n        /* \"#utility.yul\":14418:14484   */\n      tag_366\n        /* \"#utility.yul\":14477:14483   */\n      dup3\n        /* \"#utility.yul\":14469:14475   */\n      dup3\n        /* \"#utility.yul\":14463:14467   */\n      dup6\n        /* \"#utility.yul\":14418:14484   */\n      tag_195\n      jump\t// in\n    tag_366:\n        /* \"#utility.yul\":14511:14512   */\n      0x00\n        /* \"#utility.yul\":14535:14539   */\n      0x20\n        /* \"#utility.yul\":14522:14539   */\n      swap1\n      pop\n        /* \"#utility.yul\":14567:14569   */\n      0x1f\n        /* \"#utility.yul\":14559:14565   */\n      dup4\n        /* \"#utility.yul\":14556:14570   */\n      gt\n        /* \"#utility.yul\":14584:14585   */\n      0x01\n        /* \"#utility.yul\":14579:15196   */\n      dup2\n      eq\n      tag_368\n      jumpi\n        /* \"#utility.yul\":15240:15241   */\n      0x00\n        /* \"#utility.yul\":15257:15263   */\n      dup5\n        /* \"#utility.yul\":15254:15331   */\n      iszero\n      tag_369\n      jumpi\n        /* \"#utility.yul\":15306:15315   */\n      dup3\n        /* \"#utility.yul\":15301:15304   */\n      dup8\n        /* \"#utility.yul\":15297:15316   */\n      add\n        /* \"#utility.yul\":15291:15317   */\n      mload\n        /* \"#utility.yul\":15282:15317   */\n      swap1\n      pop\n        /* \"#utility.yul\":15254:15331   */\n    tag_369:\n        /* \"#utility.yul\":15357:15424   */\n      tag_370\n        /* \"#utility.yul\":15417:15423   */\n      dup6\n        /* \"#utility.yul\":15410:15415   */\n      dup3\n        /* \"#utility.yul\":15357:15424   */\n      tag_198\n      jump\t// in\n    tag_370:\n        /* \"#utility.yul\":15351:15355   */\n      dup7\n        /* \"#utility.yul\":15344:15425   */\n      sstore\n        /* \"#utility.yul\":15213:15435   */\n      pop\n        /* \"#utility.yul\":14549:15435   */\n      jump(tag_367)\n        /* \"#utility.yul\":14579:15196   */\n    tag_368:\n        /* \"#utility.yul\":14631:14635   */\n      0x1f\n        /* \"#utility.yul\":14627:14636   */\n      not\n        /* \"#utility.yul\":14619:14625   */\n      dup5\n        /* \"#utility.yul\":14615:14637   */\n      and\n        /* \"#utility.yul\":14665:14701   */\n      tag_371\n        /* \"#utility.yul\":14696:14700   */\n      dup7\n        /* \"#utility.yul\":14665:14701   */\n      tag_184\n      jump\t// in\n    tag_371:\n        /* \"#utility.yul\":14723:14724   */\n      0x00\n        /* \"#utility.yul\":14737:14945   */\n    tag_372:\n        /* \"#utility.yul\":14751:14758   */\n      dup3\n        /* \"#utility.yul\":14748:14749   */\n      dup2\n        /* \"#utility.yul\":14745:14759   */\n      lt\n        /* \"#utility.yul\":14737:14945   */\n      iszero\n      tag_374\n      jumpi\n        /* \"#utility.yul\":14830:14839   */\n      dup5\n        /* \"#utility.yul\":14825:14828   */\n      dup10\n        /* \"#utility.yul\":14821:14840   */\n      add\n        /* \"#utility.yul\":14815:14841   */\n      mload\n        /* \"#utility.yul\":14807:14813   */\n      dup3\n        /* \"#utility.yul\":14800:14842   */\n      sstore\n        /* \"#utility.yul\":14881:14882   */\n      0x01\n        /* \"#utility.yul\":14873:14879   */\n      dup3\n        /* \"#utility.yul\":14869:14883   */\n      add\n        /* \"#utility.yul\":14859:14883   */\n      swap2\n      pop\n        /* \"#utility.yul\":14928:14930   */\n      0x20\n        /* \"#utility.yul\":14917:14926   */\n      dup6\n        /* \"#utility.yul\":14913:14931   */\n      add\n        /* \"#utility.yul\":14900:14931   */\n      swap5\n      pop\n        /* \"#utility.yul\":14774:14778   */\n      0x20\n        /* \"#utility.yul\":14771:14772   */\n      dup2\n        /* \"#utility.yul\":14767:14779   */\n      add\n        /* \"#utility.yul\":14762:14779   */\n      swap1\n      pop\n        /* \"#utility.yul\":14737:14945   */\n      jump(tag_372)\n    tag_374:\n        /* \"#utility.yul\":14973:14979   */\n      dup7\n        /* \"#utility.yul\":14964:14971   */\n      dup4\n        /* \"#utility.yul\":14961:14980   */\n      lt\n        /* \"#utility.yul\":14958:15137   */\n      iszero\n      tag_375\n      jumpi\n        /* \"#utility.yul\":15031:15040   */\n      dup5\n        /* \"#utility.yul\":15026:15029   */\n      dup10\n        /* \"#utility.yul\":15022:15041   */\n      add\n        /* \"#utility.yul\":15016:15042   */\n      mload\n        /* \"#utility.yul\":15074:15122   */\n      tag_376\n        /* \"#utility.yul\":15116:15120   */\n      0x1f\n        /* \"#utility.yul\":15108:15114   */\n      dup10\n        /* \"#utility.yul\":15104:15121   */\n      and\n        /* \"#utility.yul\":15093:15102   */\n      dup3\n        /* \"#utility.yul\":15074:15122   */\n      tag_197\n      jump\t// in\n    tag_376:\n        /* \"#utility.yul\":15066:15072   */\n      dup4\n        /* \"#utility.yul\":15059:15123   */\n      sstore\n        /* \"#utility.yul\":14981:15137   */\n      pop\n        /* \"#utility.yul\":14958:15137   */\n    tag_375:\n        /* \"#utility.yul\":15183:15184   */\n      0x01\n        /* \"#utility.yul\":15179:15180   */\n      0x02\n        /* \"#utility.yul\":15171:15177   */\n      dup9\n        /* \"#utility.yul\":15167:15181   */\n      mul\n        /* \"#utility.yul\":15163:15185   */\n      add\n        /* \"#utility.yul\":15157:15161   */\n      dup9\n        /* \"#utility.yul\":15150:15186   */\n      sstore\n        /* \"#utility.yul\":14586:15196   */\n      pop\n      pop\n      pop\n        /* \"#utility.yul\":14549:15435   */\n    tag_367:\n      pop\n        /* \"#utility.yul\":14141:15441   */\n      pop\n      pop\n      pop\n        /* \"#utility.yul\":14051:15441   */\n      pop\n      pop\n      jump\t// out\n        /* \"#utility.yul\":15447:15976   */\n    tag_114:\n        /* \"#utility.yul\":15614:15618   */\n      0x00\n        /* \"#utility.yul\":15652:15654   */\n      0x60\n        /* \"#utility.yul\":15641:15650   */\n      dup3\n        /* \"#utility.yul\":15637:15655   */\n      add\n        /* \"#utility.yul\":15629:15655   */\n      swap1\n      pop\n        /* \"#utility.yul\":15665:15736   */\n      tag_378\n        /* \"#utility.yul\":15733:15734   */\n      0x00\n        /* \"#utility.yul\":15722:15731   */\n      dup4\n        /* \"#utility.yul\":15718:15735   */\n      add\n        /* \"#utility.yul\":15709:15715   */\n      dup7\n        /* \"#utility.yul\":15665:15736   */\n      tag_165\n      jump\t// in\n    tag_378:\n        /* \"#utility.yul\":15746:15818   */\n      tag_379\n        /* \"#utility.yul\":15814:15816   */\n      0x20\n        /* \"#utility.yul\":15803:15812   */\n      dup4\n        /* \"#utility.yul\":15799:15817   */\n      add\n        /* \"#utility.yul\":15790:15796   */\n      dup6\n        /* \"#utility.yul\":15746:15818   */\n      tag_165\n      jump\t// in\n    tag_379:\n        /* \"#utility.yul\":15865:15874   */\n      dup2\n        /* \"#utility.yul\":15859:15863   */\n      dup2\n        /* \"#utility.yul\":15855:15875   */\n      sub\n        /* \"#utility.yul\":15850:15852   */\n      0x40\n        /* \"#utility.yul\":15839:15848   */\n      dup4\n        /* \"#utility.yul\":15835:15853   */\n      add\n        /* \"#utility.yul\":15828:15876   */\n      mstore\n        /* \"#utility.yul\":15893:15969   */\n      tag_380\n        /* \"#utility.yul\":15964:15968   */\n      dup2\n        /* \"#utility.yul\":15955:15961   */\n      dup5\n        /* \"#utility.yul\":15893:15969   */\n      tag_170\n      jump\t// in\n    tag_380:\n        /* \"#utility.yul\":15885:15969   */\n      swap1\n      pop\n        /* \"#utility.yul\":15447:15976   */\n      swap5\n      swap4\n      pop\n      pop\n      pop\n      pop\n      jump\t// out\n        /* \"#utility.yul\":15982:16162   */\n    tag_199:\n        /* \"#utility.yul\":16030:16107   */\n      0x4e487b7100000000000000000000000000000000000000000000000000000000\n        /* \"#utility.yul\":16027:16028   */\n      0x00\n        /* \"#utility.yul\":16020:16108   */\n      mstore\n        /* \"#utility.yul\":16127:16131   */\n      0x11\n        /* \"#utility.yul\":16124:16125   */\n      0x04\n        /* \"#utility.yul\":16117:16132   */\n      mstore\n        /* \"#utility.yul\":16151:16155   */\n      0x24\n        /* \"#utility.yul\":16148:16149   */\n      0x00\n        /* \"#utility.yul\":16141:16156   */\n      revert\n        /* \"#utility.yul\":16168:16401   */\n    tag_116:\n        /* \"#utility.yul\":16207:16210   */\n      0x00\n        /* \"#utility.yul\":16230:16254   */\n      tag_383\n        /* \"#utility.yul\":16248:16253   */\n      dup3\n        /* \"#utility.yul\":16230:16254   */\n      tag_161\n      jump\t// in\n    tag_383:\n        /* \"#utility.yul\":16221:16254   */\n      swap2\n      pop\n        /* \"#utility.yul\":16276:16342   */\n      0xffffffffffffffffffffffffffffffffffffffffffffffffffffffffffffffff\n        /* \"#utility.yul\":16269:16274   */\n      dup3\n        /* \"#utility.yul\":16266:16343   */\n      sub\n        /* \"#utility.yul\":16263:16366   */\n      tag_384\n      jumpi\n        /* \"#utility.yul\":16346:16364   */\n      tag_385\n      tag_199\n      jump\t// in\n    tag_385:\n        /* \"#utility.yul\":16263:16366   */\n    tag_384:\n        /* \"#utility.yul\":16393:16394   */\n      0x01\n        /* \"#utility.yul\":16386:16391   */\n      dup3\n        /* \"#utility.yul\":16382:16395   */\n      add\n        /* \"#utility.yul\":16375:16395   */\n      swap1\n      pop\n        /* \"#utility.yul\":16168:16401   */\n      swap2\n      swap1\n      pop\n      jump\t// out\n        /* \"#utility.yul\":16407:16739   */\n    tag_144:\n        /* \"#utility.yul\":16528:16532   */\n      0x00\n        /* \"#utility.yul\":16566:16568   */\n      0x40\n        /* \"#utility.yul\":16555:16564   */\n      dup3\n        /* \"#utility.yul\":16551:16569   */\n      add\n        /* \"#utility.yul\":16543:16569   */\n      swap1\n      pop\n        /* \"#utility.yul\":16579:16650   */\n      tag_387\n        /* \"#utility.yul\":16647:16648   */\n      0x00\n        /* \"#utility.yul\":16636:16645   */\n      dup4\n        /* \"#utility.yul\":16632:16649   */\n      add\n        /* \"#utility.yul\":16623:16629   */\n      dup6\n        /* \"#utility.yul\":16579:16650   */\n      tag_164\n      jump\t// in\n    tag_387:\n        /* \"#utility.yul\":16660:16732   */\n      tag_388\n        /* \"#utility.yul\":16728:16730   */\n      0x20\n        /* \"#utility.yul\":16717:16726   */\n      dup4\n        /* \"#utility.yul\":16713:16731   */\n      add\n        /* \"#utility.yul\":16704:16710   */\n      dup5\n        /* \"#utility.yul\":16660:16732   */\n      tag_156\n      jump\t// in\n    tag_388:\n        /* \"#utility.yul\":16407:16739   */\n      swap4\n      swap3\n      pop\n      pop\n      pop\n      jump\t// out\n\n    auxdata: 0xa2646970667358221220d995bdba6ed672f6e577e643824732a23436ed2b2b40cce9468e473156d2d27264736f6c634300081a0033\n}\n",
				"bytecode": {
					"linkReferences": {},
					"object": "608060405234801561000f575f80fd5b506100225f801b3361005960201b60201c565b506100537f59a1c48e5837ad7a7f3dcedcbe129bf3249ec4fbf651fd4f5e2600ead39fe2f53361005960201b60201c565b506101b8565b5f61006a838361014e60201b60201c565b6101445760015f808581526020019081526020015f205f015f8473ffffffffffffffffffffffffffffffffffffffff1673ffffffffffffffffffffffffffffffffffffffff1681526020019081526020015f205f6101000a81548160ff0219169083151502179055506100e16101b160201b60201c565b73ffffffffffffffffffffffffffffffffffffffff168273ffffffffffffffffffffffffffffffffffffffff16847f2f8788117e7eff1d82e926ec794901d17c78024a50270940304540a733656f0d60405160405180910390a460019050610148565b5f90505b92915050565b5f805f8481526020019081526020015f205f015f8373ffffffffffffffffffffffffffffffffffffffff1673ffffffffffffffffffffffffffffffffffffffff1681526020019081526020015f205f9054906101000a900460ff16905092915050565b5f33905090565b6114e3806101c55f395ff3fe608060405234801561000f575f80fd5b50600436106100cd575f3560e01c806350c17b101161008a578063a217fddf11610064578063a217fddf14610223578063a5ce262a14610241578063abaa536f1461025d578063d547741f1461028d576100cd565b806350c17b10146101b95780636e1d616e146101d557806391d14854146101f3576100cd565b806301ffc9a7146100d1578063248a9ca3146101015780632f2ff15d1461013157806333ea3dc81461014d57806336568abe146101815780633e2515181461019d575b5f80fd5b6100eb60048036038101906100e69190610bec565b6102a9565b6040516100f89190610c31565b60405180910390f35b61011b60048036038101906101169190610c7d565b610322565b6040516101289190610cb7565b60405180910390f35b61014b60048036038101906101469190610d2a565b61033e565b005b61016760048036038101906101629190610d9b565b610360565b604051610178959493929190610e54565b60405180910390f35b61019b60048036038101906101969190610d2a565b610542565b005b6101b760048036038101906101b29190610eac565b6105bd565b005b6101d360048036038101906101ce9190610eac565b6105f7565b005b6101dd610631565b6040516101ea9190610cb7565b60405180910390f35b61020d60048036038101906102089190610d2a565b610655565b60405161021a9190610c31565b60405180910390f35b61022b6106b8565b6040516102389190610cb7565b60405180910390f35b61025b60048036038101906102569190611003565b6106be565b005b61027760048036038101906102729190610eac565b61088b565b6040516102849190610c31565b60405180910390f35b6102a760048036038101906102a29190610d2a565b6108bd565b005b5f7f7965db0b000000000000000000000000000000000000000000000000000000007bffffffffffffffffffffffffffffffffffffffffffffffffffffffff1916827bffffffffffffffffffffffffffffffffffffffffffffffffffffffff1916148061031b575061031a826108df565b5b9050919050565b5f805f8381526020019081526020015f20600101549050919050565b61034782610322565b61035081610948565b61035a838361095c565b50505050565b5f805f80606060025486106103aa576040517f08c379a00000000000000000000000000000000000000000000000000000000081526004016103a1906110ef565b60405180910390fd5b5f60015f8881526020019081526020015f206040518060a00160405290815f82015f9054906101000a900473ffffffffffffffffffffffffffffffffffffffff1673ffffffffffffffffffffffffffffffffffffffff1673ffffffffffffffffffffffffffffffffffffffff168152602001600182015f9054906101000a900473ffffffffffffffffffffffffffffffffffffffff1673ffffffffffffffffffffffffffffffffffffffff1673ffffffffffffffffffffffffffffffffffffffff16815260200160028201548152602001600382015481526020016004820180546104949061113a565b80601f01602080910402602001604051908101604052809291908181526020018280546104c09061113a565b801561050b5780601f106104e25761010080835404028352916020019161050b565b820191905f5260205f20905b8154815290600101906020018083116104ee57829003601f168201915b5050505050815250509050805f01518160200151826040015183606001518460800151955095509550955095505091939590929450565b61054a610a45565b73ffffffffffffffffffffffffffffffffffffffff168173ffffffffffffffffffffffffffffffffffffffff16146105ae576040517f6697b23200000000000000000000000000000000000000000000000000000000815260040160405180910390fd5b6105b88282610a4c565b505050565b5f801b6105c981610948565b6105f37f59a1c48e5837ad7a7f3dcedcbe129bf3249ec4fbf651fd4f5e2600ead39fe2f5836108bd565b5050565b5f801b61060381610948565b61062d7f59a1c48e5837ad7a7f3dcedcbe129bf3249ec4fbf651fd4f5e2600ead39fe2f58361033e565b5050565b7f59a1c48e5837ad7a7f3dcedcbe129bf3249ec4fbf651fd4f5e2600ead39fe2f581565b5f805f8481526020019081526020015f205f015f8373ffffffffffffffffffffffffffffffffffffffff1673ffffffffffffffffffffffffffffffffffffffff1681526020019081526020015f205f9054906101000a900460ff16905092915050565b5f801b81565b7f59a1c48e5837ad7a7f3dcedcbe129bf3249ec4fbf651fd4f5e2600ead39fe2f56106e881610948565b6040518060a001604052803373ffffffffffffffffffffffffffffffffffffffff1681526020018573ffffffffffffffffffffffffffffffffffffffff1681526020018481526020014281526020018381525060015f60025481526020019081526020015f205f820151815f015f6101000a81548173ffffffffffffffffffffffffffffffffffffffff021916908373ffffffffffffffffffffffffffffffffffffffff1602179055506020820151816001015f6101000a81548173ffffffffffffffffffffffffffffffffffffffff021916908373ffffffffffffffffffffffffffffffffffffffff160217905550604082015181600201556060820151816003015560808201518160040190816108019190611307565b509050508373ffffffffffffffffffffffffffffffffffffffff163373ffffffffffffffffffffffffffffffffffffffff167f7a3993c6b9e7ffde005a46806d748d5ebf15e7ba5a715db53bb6c9073f3cf9cd854286604051610866939291906113d6565b60405180910390a360025f8154809291906108809061143f565b919050555050505050565b5f6108b67f59a1c48e5837ad7a7f3dcedcbe129bf3249ec4fbf651fd4f5e2600ead39fe2f583610655565b9050919050565b6108c682610322565b6108cf81610948565b6108d98383610a4c565b50505050565b5f7f01ffc9a7000000000000000000000000000000000000000000000000000000007bffffffffffffffffffffffffffffffffffffffffffffffffffffffff1916827bffffffffffffffffffffffffffffffffffffffffffffffffffffffff1916149050919050565b61095981610954610a45565b610b35565b50565b5f6109678383610655565b610a3b5760015f808581526020019081526020015f205f015f8473ffffffffffffffffffffffffffffffffffffffff1673ffffffffffffffffffffffffffffffffffffffff1681526020019081526020015f205f6101000a81548160ff0219169083151502179055506109d8610a45565b73ffffffffffffffffffffffffffffffffffffffff168273ffffffffffffffffffffffffffffffffffffffff16847f2f8788117e7eff1d82e926ec794901d17c78024a50270940304540a733656f0d60405160405180910390a460019050610a3f565b5f90505b92915050565b5f33905090565b5f610a578383610655565b15610b2b575f805f8581526020019081526020015f205f015f8473ffffffffffffffffffffffffffffffffffffffff1673ffffffffffffffffffffffffffffffffffffffff1681526020019081526020015f205f6101000a81548160ff021916908315150217905550610ac8610a45565b73ffffffffffffffffffffffffffffffffffffffff168273ffffffffffffffffffffffffffffffffffffffff16847ff6391f5c32d9c69d2a47ea670b442974b53935d1edc7fd64eb21e047a839171b60405160405180910390a460019050610b2f565b5f90505b92915050565b610b3f8282610655565b610b825780826040517fe2517d3f000000000000000000000000000000000000000000000000000000008152600401610b79929190611486565b60405180910390fd5b5050565b5f604051905090565b5f80fd5b5f80fd5b5f7fffffffff0000000000000000000000000000000000000000000000000000000082169050919050565b610bcb81610b97565b8114610bd5575f80fd5b50565b5f81359050610be681610bc2565b92915050565b5f60208284031215610c0157610c00610b8f565b5b5f610c0e84828501610bd8565b91505092915050565b5f8115159050919050565b610c2b81610c17565b82525050565b5f602082019050610c445f830184610c22565b92915050565b5f819050919050565b610c5c81610c4a565b8114610c66575f80fd5b50565b5f81359050610c7781610c53565b92915050565b5f60208284031215610c9257610c91610b8f565b5b5f610c9f84828501610c69565b91505092915050565b610cb181610c4a565b82525050565b5f602082019050610cca5f830184610ca8565b92915050565b5f73ffffffffffffffffffffffffffffffffffffffff82169050919050565b5f610cf982610cd0565b9050919050565b610d0981610cef565b8114610d13575f80fd5b50565b5f81359050610d2481610d00565b92915050565b5f8060408385031215610d4057610d3f610b8f565b5b5f610d4d85828601610c69565b9250506020610d5e85828601610d16565b9150509250929050565b5f819050919050565b610d7a81610d68565b8114610d84575f80fd5b50565b5f81359050610d9581610d71565b92915050565b5f60208284031215610db057610daf610b8f565b5b5f610dbd84828501610d87565b91505092915050565b610dcf81610cef565b82525050565b610dde81610d68565b82525050565b5f81519050919050565b5f82825260208201905092915050565b8281835e5f83830152505050565b5f601f19601f8301169050919050565b5f610e2682610de4565b610e308185610dee565b9350610e40818560208601610dfe565b610e4981610e0c565b840191505092915050565b5f60a082019050610e675f830188610dc6565b610e746020830187610dc6565b610e816040830186610dd5565b610e8e6060830185610dd5565b8181036080830152610ea08184610e1c565b90509695505050505050565b5f60208284031215610ec157610ec0610b8f565b5b5f610ece84828501610d16565b91505092915050565b5f80fd5b5f80fd5b7f4e487b71000000000000000000000000000000000000000000000000000000005f52604160045260245ffd5b610f1582610e0c565b810181811067ffffffffffffffff82111715610f3457610f33610edf565b5b80604052505050565b5f610f46610b86565b9050610f528282610f0c565b919050565b5f67ffffffffffffffff821115610f7157610f70610edf565b5b610f7a82610e0c565b9050602081019050919050565b828183375f83830152505050565b5f610fa7610fa284610f57565b610f3d565b905082815260208101848484011115610fc357610fc2610edb565b5b610fce848285610f87565b509392505050565b5f82601f830112610fea57610fe9610ed7565b5b8135610ffa848260208601610f95565b91505092915050565b5f805f6060848603121561101a57611019610b8f565b5b5f61102786828701610d16565b935050602061103886828701610d87565b925050604084013567ffffffffffffffff81111561105957611058610b93565b5b61106586828701610fd6565b9150509250925092565b5f82825260208201905092915050565b7f5472616e73616374696f6e4c6f676765723a20496e646578206f7574206f66205f8201527f626f756e64730000000000000000000000000000000000000000000000000000602082015250565b5f6110d960268361106f565b91506110e48261107f565b604082019050919050565b5f6020820190508181035f830152611106816110cd565b9050919050565b7f4e487b71000000000000000000000000000000000000000000000000000000005f52602260045260245ffd5b5f600282049050600182168061115157607f821691505b6020821081036111645761116361110d565b5b50919050565b5f819050815f5260205f209050919050565b5f6020601f8301049050919050565b5f82821b905092915050565b5f600883026111c67fffffffffffffffffffffffffffffffffffffffffffffffffffffffffffffffff8261118b565b6111d0868361118b565b95508019841693508086168417925050509392505050565b5f819050919050565b5f61120b61120661120184610d68565b6111e8565b610d68565b9050919050565b5f819050919050565b611224836111f1565b61123861123082611212565b848454611197565b825550505050565b5f90565b61124c611240565b61125781848461121b565b505050565b5b8181101561127a5761126f5f82611244565b60018101905061125d565b5050565b601f8211156112bf576112908161116a565b6112998461117c565b810160208510156112a8578190505b6112bc6112b48561117c565b83018261125c565b50505b505050565b5f82821c905092915050565b5f6112df5f19846008026112c4565b1980831691505092915050565b5f6112f783836112d0565b9150826002028217905092915050565b61131082610de4565b67ffffffffffffffff81111561132957611328610edf565b5b611333825461113a565b61133e82828561127e565b5f60209050601f83116001811461136f575f841561135d578287015190505b61136785826112ec565b8655506113ce565b601f19841661137d8661116a565b5f5b828110156113a45784890151825560018201915060208501945060208101905061137f565b868310156113c157848901516113bd601f8916826112d0565b8355505b6001600288020188555050505b505050505050565b5f6060820190506113e95f830186610dd5565b6113f66020830185610dd5565b81810360408301526114088184610e1c565b9050949350505050565b7f4e487b71000000000000000000000000000000000000000000000000000000005f52601160045260245ffd5b5f61144982610d68565b91507fffffffffffffffffffffffffffffffffffffffffffffffffffffffffffffffff820361147b5761147a611412565b5b600182019050919050565b5f6040820190506114995f830185610dc6565b6114a66020830184610ca8565b939250505056fea2646970667358221220d995bdba6ed672f6e577e643824732a23436ed2b2b40cce9468e473156d2d27264736f6c634300081a0033",
					"opcodes": "PUSH1 0x80 PUSH1 0x40 MSTORE CALLVALUE DUP1 ISZERO PUSH2 0xF JUMPI PUSH0 DUP1 REVERT JUMPDEST POP PUSH2 0x22 PUSH0 DUP1 SHL CALLER PUSH2 0x59 PUSH1 0x20 SHL PUSH1 0x20 SHR JUMP JUMPDEST POP PUSH2 0x53 PUSH32 0x59A1C48E5837AD7A7F3DCEDCBE129BF3249EC4FBF651FD4F5E2600EAD39FE2F5 CALLER PUSH2 0x59 PUSH1 0x20 SHL PUSH1 0x20 SHR JUMP JUMPDEST POP PUSH2 0x1B8 JUMP JUMPDEST PUSH0 PUSH2 0x6A DUP4 DUP4 PUSH2 0x14E PUSH1 0x20 SHL PUSH1 0x20 SHR JUMP JUMPDEST PUSH2 0x144 JUMPI PUSH1 0x1 PUSH0 DUP1 DUP6 DUP2 MSTORE PUSH1 0x20 ADD SWAP1 DUP2 MSTORE PUSH1 0x20 ADD PUSH0 KECCAK256 PUSH0 ADD PUSH0 DUP5 PUSH20 0xFFFFFFFFFFFFFFFFFFFFFFFFFFFFFFFFFFFFFFFF AND PUSH20 0xFFFFFFFFFFFFFFFFFFFFFFFFFFFFFFFFFFFFFFFF AND DUP2 MSTORE PUSH1 0x20 ADD SWAP1 DUP2 MSTORE PUSH1 0x20 ADD PUSH0 KECCAK256 PUSH0 PUSH2 0x100 EXP DUP2 SLOAD DUP2 PUSH1 0xFF MUL NOT AND SWAP1 DUP4 ISZERO ISZERO MUL OR SWAP1 SSTORE POP PUSH2 0xE1 PUSH2 0x1B1 PUSH1 0x20 SHL PUSH1 0x20 SHR JUMP JUMPDEST PUSH20 0xFFFFFFFFFFFFFFFFFFFFFFFFFFFFFFFFFFFFFFFF AND DUP3 PUSH20 0xFFFFFFFFFFFFFFFFFFFFFFFFFFFFFFFFFFFFFFFF AND DUP5 PUSH32 0x2F8788117E7EFF1D82E926EC794901D17C78024A50270940304540A733656F0D PUSH1 0x40 MLOAD PUSH1 0x40 MLOAD DUP1 SWAP2 SUB SWAP1 LOG4 PUSH1 0x1 SWAP1 POP PUSH2 0x148 JUMP JUMPDEST PUSH0 SWAP1 POP JUMPDEST SWAP3 SWAP2 POP POP JUMP JUMPDEST PUSH0 DUP1 PUSH0 DUP5 DUP2 MSTORE PUSH1 0x20 ADD SWAP1 DUP2 MSTORE PUSH1 0x20 ADD PUSH0 KECCAK256 PUSH0 ADD PUSH0 DUP4 PUSH20 0xFFFFFFFFFFFFFFFFFFFFFFFFFFFFFFFFFFFFFFFF AND PUSH20 0xFFFFFFFFFFFFFFFFFFFFFFFFFFFFFFFFFFFFFFFF AND DUP2 MSTORE PUSH1 0x20 ADD SWAP1 DUP2 MSTORE PUSH1 0x20 ADD PUSH0 KECCAK256 PUSH0 SWAP1 SLOAD SWAP1 PUSH2 0x100 EXP SWAP1 DIV PUSH1 0xFF AND SWAP1 POP SWAP3 SWAP2 POP POP JUMP JUMPDEST PUSH0 CALLER SWAP1 POP SWAP1 JUMP JUMPDEST PUSH2 0x14E3 DUP1 PUSH2 0x1C5 PUSH0 CODECOPY PUSH0 RETURN INVALID PUSH1 0x80 PUSH1 0x40 MSTORE CALLVALUE DUP1 ISZERO PUSH2 0xF JUMPI PUSH0 DUP1 REVERT JUMPDEST POP PUSH1 0x4 CALLDATASIZE LT PUSH2 0xCD JUMPI PUSH0 CALLDATALOAD PUSH1 0xE0 SHR DUP1 PUSH4 0x50C17B10 GT PUSH2 0x8A JUMPI DUP1 PUSH4 0xA217FDDF GT PUSH2 0x64 JUMPI DUP1 PUSH4 0xA217FDDF EQ PUSH2 0x223 JUMPI DUP1 PUSH4 0xA5CE262A EQ PUSH2 0x241 JUMPI DUP1 PUSH4 0xABAA536F EQ PUSH2 0x25D JUMPI DUP1 PUSH4 0xD547741F EQ PUSH2 0x28D JUMPI PUSH2 0xCD JUMP JUMPDEST DUP1 PUSH4 0x50C17B10 EQ PUSH2 0x1B9 JUMPI DUP1 PUSH4 0x6E1D616E EQ PUSH2 0x1D5 JUMPI DUP1 PUSH4 0x91D14854 EQ PUSH2 0x1F3 JUMPI PUSH2 0xCD JUMP JUMPDEST DUP1 PUSH4 0x1FFC9A7 EQ PUSH2 0xD1 JUMPI DUP1 PUSH4 0x248A9CA3 EQ PUSH2 0x101 JUMPI DUP1 PUSH4 0x2F2FF15D EQ PUSH2 0x131 JUMPI DUP1 PUSH4 0x33EA3DC8 EQ PUSH2 0x14D JUMPI DUP1 PUSH4 0x36568ABE EQ PUSH2 0x181 JUMPI DUP1 PUSH4 0x3E251518 EQ PUSH2 0x19D JUMPI JUMPDEST PUSH0 DUP1 REVERT JUMPDEST PUSH2 0xEB PUSH1 0x4 DUP1 CALLDATASIZE SUB DUP2 ADD SWAP1 PUSH2 0xE6 SWAP2 SWAP1 PUSH2 0xBEC JUMP JUMPDEST PUSH2 0x2A9 JUMP JUMPDEST PUSH1 0x40 MLOAD PUSH2 0xF8 SWAP2 SWAP1 PUSH2 0xC31 JUMP JUMPDEST PUSH1 0x40 MLOAD DUP1 SWAP2 SUB SWAP1 RETURN JUMPDEST PUSH2 0x11B PUSH1 0x4 DUP1 CALLDATASIZE SUB DUP2 ADD SWAP1 PUSH2 0x116 SWAP2 SWAP1 PUSH2 0xC7D JUMP JUMPDEST PUSH2 0x322 JUMP JUMPDEST PUSH1 0x40 MLOAD PUSH2 0x128 SWAP2 SWAP1 PUSH2 0xCB7 JUMP JUMPDEST PUSH1 0x40 MLOAD DUP1 SWAP2 SUB SWAP1 RETURN JUMPDEST PUSH2 0x14B PUSH1 0x4 DUP1 CALLDATASIZE SUB DUP2 ADD SWAP1 PUSH2 0x146 SWAP2 SWAP1 PUSH2 0xD2A JUMP JUMPDEST PUSH2 0x33E JUMP JUMPDEST STOP JUMPDEST PUSH2 0x167 PUSH1 0x4 DUP1 CALLDATASIZE SUB DUP2 ADD SWAP1 PUSH2 0x162 SWAP2 SWAP1 PUSH2 0xD9B JUMP JUMPDEST PUSH2 0x360 JUMP JUMPDEST PUSH1 0x40 MLOAD PUSH2 0x178 SWAP6 SWAP5 SWAP4 SWAP3 SWAP2 SWAP1 PUSH2 0xE54 JUMP JUMPDEST PUSH1 0x40 MLOAD DUP1 SWAP2 SUB SWAP1 RETURN JUMPDEST PUSH2 0x19B PUSH1 0x4 DUP1 CALLDATASIZE SUB DUP2 ADD SWAP1 PUSH2 0x196 SWAP2 SWAP1 PUSH2 0xD2A JUMP JUMPDEST PUSH2 0x542 JUMP JUMPDEST STOP JUMPDEST PUSH2 0x1B7 PUSH1 0x4 DUP1 CALLDATASIZE SUB DUP2 ADD SWAP1 PUSH2 0x1B2 SWAP2 SWAP1 PUSH2 0xEAC JUMP JUMPDEST PUSH2 0x5BD JUMP JUMPDEST STOP JUMPDEST PUSH2 0x1D3 PUSH1 0x4 DUP1 CALLDATASIZE SUB DUP2 ADD SWAP1 PUSH2 0x1CE SWAP2 SWAP1 PUSH2 0xEAC JUMP JUMPDEST PUSH2 0x5F7 JUMP JUMPDEST STOP JUMPDEST PUSH2 0x1DD PUSH2 0x631 JUMP JUMPDEST PUSH1 0x40 MLOAD PUSH2 0x1EA SWAP2 SWAP1 PUSH2 0xCB7 JUMP JUMPDEST PUSH1 0x40 MLOAD DUP1 SWAP2 SUB SWAP1 RETURN JUMPDEST PUSH2 0x20D PUSH1 0x4 DUP1 CALLDATASIZE SUB DUP2 ADD SWAP1 PUSH2 0x208 SWAP2 SWAP1 PUSH2 0xD2A JUMP JUMPDEST PUSH2 0x655 JUMP JUMPDEST PUSH1 0x40 MLOAD PUSH2 0x21A SWAP2 SWAP1 PUSH2 0xC31 JUMP JUMPDEST PUSH1 0x40 MLOAD DUP1 SWAP2 SUB SWAP1 RETURN JUMPDEST PUSH2 0x22B PUSH2 0x6B8 JUMP JUMPDEST PUSH1 0x40 MLOAD PUSH2 0x238 SWAP2 SWAP1 PUSH2 0xCB7 JUMP JUMPDEST PUSH1 0x40 MLOAD DUP1 SWAP2 SUB SWAP1 RETURN JUMPDEST PUSH2 0x25B PUSH1 0x4 DUP1 CALLDATASIZE SUB DUP2 ADD SWAP1 PUSH2 0x256 SWAP2 SWAP1 PUSH2 0x1003 JUMP JUMPDEST PUSH2 0x6BE JUMP JUMPDEST STOP JUMPDEST PUSH2 0x277 PUSH1 0x4 DUP1 CALLDATASIZE SUB DUP2 ADD SWAP1 PUSH2 0x272 SWAP2 SWAP1 PUSH2 0xEAC JUMP JUMPDEST PUSH2 0x88B JUMP JUMPDEST PUSH1 0x40 MLOAD PUSH2 0x284 SWAP2 SWAP1 PUSH2 0xC31 JUMP JUMPDEST PUSH1 0x40 MLOAD DUP1 SWAP2 SUB SWAP1 RETURN JUMPDEST PUSH2 0x2A7 PUSH1 0x4 DUP1 CALLDATASIZE SUB DUP2 ADD SWAP1 PUSH2 0x2A2 SWAP2 SWAP1 PUSH2 0xD2A JUMP JUMPDEST PUSH2 0x8BD JUMP JUMPDEST STOP JUMPDEST PUSH0 PUSH32 0x7965DB0B00000000000000000000000000000000000000000000000000000000 PUSH28 0xFFFFFFFFFFFFFFFFFFFFFFFFFFFFFFFFFFFFFFFFFFFFFFFFFFFFFFFF NOT AND DUP3 PUSH28 0xFFFFFFFFFFFFFFFFFFFFFFFFFFFFFFFFFFFFFFFFFFFFFFFFFFFFFFFF NOT AND EQ DUP1 PUSH2 0x31B JUMPI POP PUSH2 0x31A DUP3 PUSH2 0x8DF JUMP JUMPDEST JUMPDEST SWAP1 POP SWAP2 SWAP1 POP JUMP JUMPDEST PUSH0 DUP1 PUSH0 DUP4 DUP2 MSTORE PUSH1 0x20 ADD SWAP1 DUP2 MSTORE PUSH1 0x20 ADD PUSH0 KECCAK256 PUSH1 0x1 ADD SLOAD SWAP1 POP SWAP2 SWAP1 POP JUMP JUMPDEST PUSH2 0x347 DUP3 PUSH2 0x322 JUMP JUMPDEST PUSH2 0x350 DUP2 PUSH2 0x948 JUMP JUMPDEST PUSH2 0x35A DUP4 DUP4 PUSH2 0x95C JUMP JUMPDEST POP POP POP POP JUMP JUMPDEST PUSH0 DUP1 PUSH0 DUP1 PUSH1 0x60 PUSH1 0x2 SLOAD DUP7 LT PUSH2 0x3AA JUMPI PUSH1 0x40 MLOAD PUSH32 0x8C379A000000000000000000000000000000000000000000000000000000000 DUP2 MSTORE PUSH1 0x4 ADD PUSH2 0x3A1 SWAP1 PUSH2 0x10EF JUMP JUMPDEST PUSH1 0x40 MLOAD DUP1 SWAP2 SUB SWAP1 REVERT JUMPDEST PUSH0 PUSH1 0x1 PUSH0 DUP9 DUP2 MSTORE PUSH1 0x20 ADD SWAP1 DUP2 MSTORE PUSH1 0x20 ADD PUSH0 KECCAK256 PUSH1 0x40 MLOAD DUP1 PUSH1 0xA0 ADD PUSH1 0x40 MSTORE SWAP1 DUP2 PUSH0 DUP3 ADD PUSH0 SWAP1 SLOAD SWAP1 PUSH2 0x100 EXP SWAP1 DIV PUSH20 0xFFFFFFFFFFFFFFFFFFFFFFFFFFFFFFFFFFFFFFFF AND PUSH20 0xFFFFFFFFFFFFFFFFFFFFFFFFFFFFFFFFFFFFFFFF AND PUSH20 0xFFFFFFFFFFFFFFFFFFFFFFFFFFFFFFFFFFFFFFFF AND DUP2 MSTORE PUSH1 0x20 ADD PUSH1 0x1 DUP3 ADD PUSH0 SWAP1 SLOAD SWAP1 PUSH2 0x100 EXP SWAP1 DIV PUSH20 0xFFFFFFFFFFFFFFFFFFFFFFFFFFFFFFFFFFFFFFFF AND PUSH20 0xFFFFFFFFFFFFFFFFFFFFFFFFFFFFFFFFFFFFFFFF AND PUSH20 0xFFFFFFFFFFFFFFFFFFFFFFFFFFFFFFFFFFFFFFFF AND DUP2 MSTORE PUSH1 0x20 ADD PUSH1 0x2 DUP3 ADD SLOAD DUP2 MSTORE PUSH1 0x20 ADD PUSH1 0x3 DUP3 ADD SLOAD DUP2 MSTORE PUSH1 0x20 ADD PUSH1 0x4 DUP3 ADD DUP1 SLOAD PUSH2 0x494 SWAP1 PUSH2 0x113A JUMP JUMPDEST DUP1 PUSH1 0x1F ADD PUSH1 0x20 DUP1 SWAP2 DIV MUL PUSH1 0x20 ADD PUSH1 0x40 MLOAD SWAP1 DUP2 ADD PUSH1 0x40 MSTORE DUP1 SWAP3 SWAP2 SWAP1 DUP2 DUP2 MSTORE PUSH1 0x20 ADD DUP3 DUP1 SLOAD PUSH2 0x4C0 SWAP1 PUSH2 0x113A JUMP JUMPDEST DUP1 ISZERO PUSH2 0x50B JUMPI DUP1 PUSH1 0x1F LT PUSH2 0x4E2 JUMPI PUSH2 0x100 DUP1 DUP4 SLOAD DIV MUL DUP4 MSTORE SWAP2 PUSH1 0x20 ADD SWAP2 PUSH2 0x50B JUMP JUMPDEST DUP3 ADD SWAP2 SWAP1 PUSH0 MSTORE PUSH1 0x20 PUSH0 KECCAK256 SWAP1 JUMPDEST DUP2 SLOAD DUP2 MSTORE SWAP1 PUSH1 0x1 ADD SWAP1 PUSH1 0x20 ADD DUP1 DUP4 GT PUSH2 0x4EE JUMPI DUP3 SWAP1 SUB PUSH1 0x1F AND DUP3 ADD SWAP2 JUMPDEST POP POP POP POP POP DUP2 MSTORE POP POP SWAP1 POP DUP1 PUSH0 ADD MLOAD DUP2 PUSH1 0x20 ADD MLOAD DUP3 PUSH1 0x40 ADD MLOAD DUP4 PUSH1 0x60 ADD MLOAD DUP5 PUSH1 0x80 ADD MLOAD SWAP6 POP SWAP6 POP SWAP6 POP SWAP6 POP SWAP6 POP POP SWAP2 SWAP4 SWAP6 SWAP1 SWAP3 SWAP5 POP JUMP JUMPDEST PUSH2 0x54A PUSH2 0xA45 JUMP JUMPDEST PUSH20 0xFFFFFFFFFFFFFFFFFFFFFFFFFFFFFFFFFFFFFFFF AND DUP2 PUSH20 0xFFFFFFFFFFFFFFFFFFFFFFFFFFFFFFFFFFFFFFFF AND EQ PUSH2 0x5AE JUMPI PUSH1 0x40 MLOAD PUSH32 0x6697B23200000000000000000000000000000000000000000000000000000000 DUP2 MSTORE PUSH1 0x4 ADD PUSH1 0x40 MLOAD DUP1 SWAP2 SUB SWAP1 REVERT JUMPDEST PUSH2 0x5B8 DUP3 DUP3 PUSH2 0xA4C JUMP JUMPDEST POP POP POP JUMP JUMPDEST PUSH0 DUP1 SHL PUSH2 0x5C9 DUP2 PUSH2 0x948 JUMP JUMPDEST PUSH2 0x5F3 PUSH32 0x59A1C48E5837AD7A7F3DCEDCBE129BF3249EC4FBF651FD4F5E2600EAD39FE2F5 DUP4 PUSH2 0x8BD JUMP JUMPDEST POP POP JUMP JUMPDEST PUSH0 DUP1 SHL PUSH2 0x603 DUP2 PUSH2 0x948 JUMP JUMPDEST PUSH2 0x62D PUSH32 0x59A1C48E5837AD7A7F3DCEDCBE129BF3249EC4FBF651FD4F5E2600EAD39FE2F5 DUP4 PUSH2 0x33E JUMP JUMPDEST POP POP JUMP JUMPDEST PUSH32 0x59A1C48E5837AD7A7F3DCEDCBE129BF3249EC4FBF651FD4F5E2600EAD39FE2F5 DUP2 JUMP JUMPDEST PUSH0 DUP1 PUSH0 DUP5 DUP2 MSTORE PUSH1 0x20 ADD SWAP1 DUP2 MSTORE PUSH1 0x20 ADD PUSH0 KECCAK256 PUSH0 ADD PUSH0 DUP4 PUSH20 0xFFFFFFFFFFFFFFFFFFFFFFFFFFFFFFFFFFFFFFFF AND PUSH20 0xFFFFFFFFFFFFFFFFFFFFFFFFFFFFFFFFFFFFFFFF AND DUP2 MSTORE PUSH1 0x20 ADD SWAP1 DUP2 MSTORE PUSH1 0x20 ADD PUSH0 KECCAK256 PUSH0 SWAP1 SLOAD SWAP1 PUSH2 0x100 EXP SWAP1 DIV PUSH1 0xFF AND SWAP1 POP SWAP3 SWAP2 POP POP JUMP JUMPDEST PUSH0 DUP1 SHL DUP2 JUMP JUMPDEST PUSH32 0x59A1C48E5837AD7A7F3DCEDCBE129BF3249EC4FBF651FD4F5E2600EAD39FE2F5 PUSH2 0x6E8 DUP2 PUSH2 0x948 JUMP JUMPDEST PUSH1 0x40 MLOAD DUP1 PUSH1 0xA0 ADD PUSH1 0x40 MSTORE DUP1 CALLER PUSH20 0xFFFFFFFFFFFFFFFFFFFFFFFFFFFFFFFFFFFFFFFF AND DUP2 MSTORE PUSH1 0x20 ADD DUP6 PUSH20 0xFFFFFFFFFFFFFFFFFFFFFFFFFFFFFFFFFFFFFFFF AND DUP2 MSTORE PUSH1 0x20 ADD DUP5 DUP2 MSTORE PUSH1 0x20 ADD TIMESTAMP DUP2 MSTORE PUSH1 0x20 ADD DUP4 DUP2 MSTORE POP PUSH1 0x1 PUSH0 PUSH1 0x2 SLOAD DUP2 MSTORE PUSH1 0x20 ADD SWAP1 DUP2 MSTORE PUSH1 0x20 ADD PUSH0 KECCAK256 PUSH0 DUP3 ADD MLOAD DUP2 PUSH0 ADD PUSH0 PUSH2 0x100 EXP DUP2 SLOAD DUP2 PUSH20 0xFFFFFFFFFFFFFFFFFFFFFFFFFFFFFFFFFFFFFFFF MUL NOT AND SWAP1 DUP4 PUSH20 0xFFFFFFFFFFFFFFFFFFFFFFFFFFFFFFFFFFFFFFFF AND MUL OR SWAP1 SSTORE POP PUSH1 0x20 DUP3 ADD MLOAD DUP2 PUSH1 0x1 ADD PUSH0 PUSH2 0x100 EXP DUP2 SLOAD DUP2 PUSH20 0xFFFFFFFFFFFFFFFFFFFFFFFFFFFFFFFFFFFFFFFF MUL NOT AND SWAP1 DUP4 PUSH20 0xFFFFFFFFFFFFFFFFFFFFFFFFFFFFFFFFFFFFFFFF AND MUL OR SWAP1 SSTORE POP PUSH1 0x40 DUP3 ADD MLOAD DUP2 PUSH1 0x2 ADD SSTORE PUSH1 0x60 DUP3 ADD MLOAD DUP2 PUSH1 0x3 ADD SSTORE PUSH1 0x80 DUP3 ADD MLOAD DUP2 PUSH1 0x4 ADD SWAP1 DUP2 PUSH2 0x801 SWAP2 SWAP1 PUSH2 0x1307 JUMP JUMPDEST POP SWAP1 POP POP DUP4 PUSH20 0xFFFFFFFFFFFFFFFFFFFFFFFFFFFFFFFFFFFFFFFF AND CALLER PUSH20 0xFFFFFFFFFFFFFFFFFFFFFFFFFFFFFFFFFFFFFFFF AND PUSH32 0x7A3993C6B9E7FFDE005A46806D748D5EBF15E7BA5A715DB53BB6C9073F3CF9CD DUP6 TIMESTAMP DUP7 PUSH1 0x40 MLOAD PUSH2 0x866 SWAP4 SWAP3 SWAP2 SWAP1 PUSH2 0x13D6 JUMP JUMPDEST PUSH1 0x40 MLOAD DUP1 SWAP2 SUB SWAP1 LOG3 PUSH1 0x2 PUSH0 DUP2 SLOAD DUP1 SWAP3 SWAP2 SWAP1 PUSH2 0x880 SWAP1 PUSH2 0x143F JUMP JUMPDEST SWAP2 SWAP1 POP SSTORE POP POP POP POP POP JUMP JUMPDEST PUSH0 PUSH2 0x8B6 PUSH32 0x59A1C48E5837AD7A7F3DCEDCBE129BF3249EC4FBF651FD4F5E2600EAD39FE2F5 DUP4 PUSH2 0x655 JUMP JUMPDEST SWAP1 POP SWAP2 SWAP1 POP JUMP JUMPDEST PUSH2 0x8C6 DUP3 PUSH2 0x322 JUMP JUMPDEST PUSH2 0x8CF DUP2 PUSH2 0x948 JUMP JUMPDEST PUSH2 0x8D9 DUP4 DUP4 PUSH2 0xA4C JUMP JUMPDEST POP POP POP POP JUMP JUMPDEST PUSH0 PUSH32 0x1FFC9A700000000000000000000000000000000000000000000000000000000 PUSH28 0xFFFFFFFFFFFFFFFFFFFFFFFFFFFFFFFFFFFFFFFFFFFFFFFFFFFFFFFF NOT AND DUP3 PUSH28 0xFFFFFFFFFFFFFFFFFFFFFFFFFFFFFFFFFFFFFFFFFFFFFFFFFFFFFFFF NOT AND EQ SWAP1 POP SWAP2 SWAP1 POP JUMP JUMPDEST PUSH2 0x959 DUP2 PUSH2 0x954 PUSH2 0xA45 JUMP JUMPDEST PUSH2 0xB35 JUMP JUMPDEST POP JUMP JUMPDEST PUSH0 PUSH2 0x967 DUP4 DUP4 PUSH2 0x655 JUMP JUMPDEST PUSH2 0xA3B JUMPI PUSH1 0x1 PUSH0 DUP1 DUP6 DUP2 MSTORE PUSH1 0x20 ADD SWAP1 DUP2 MSTORE PUSH1 0x20 ADD PUSH0 KECCAK256 PUSH0 ADD PUSH0 DUP5 PUSH20 0xFFFFFFFFFFFFFFFFFFFFFFFFFFFFFFFFFFFFFFFF AND PUSH20 0xFFFFFFFFFFFFFFFFFFFFFFFFFFFFFFFFFFFFFFFF AND DUP2 MSTORE PUSH1 0x20 ADD SWAP1 DUP2 MSTORE PUSH1 0x20 ADD PUSH0 KECCAK256 PUSH0 PUSH2 0x100 EXP DUP2 SLOAD DUP2 PUSH1 0xFF MUL NOT AND SWAP1 DUP4 ISZERO ISZERO MUL OR SWAP1 SSTORE POP PUSH2 0x9D8 PUSH2 0xA45 JUMP JUMPDEST PUSH20 0xFFFFFFFFFFFFFFFFFFFFFFFFFFFFFFFFFFFFFFFF AND DUP3 PUSH20 0xFFFFFFFFFFFFFFFFFFFFFFFFFFFFFFFFFFFFFFFF AND DUP5 PUSH32 0x2F8788117E7EFF1D82E926EC794901D17C78024A50270940304540A733656F0D PUSH1 0x40 MLOAD PUSH1 0x40 MLOAD DUP1 SWAP2 SUB SWAP1 LOG4 PUSH1 0x1 SWAP1 POP PUSH2 0xA3F JUMP JUMPDEST PUSH0 SWAP1 POP JUMPDEST SWAP3 SWAP2 POP POP JUMP JUMPDEST PUSH0 CALLER SWAP1 POP SWAP1 JUMP JUMPDEST PUSH0 PUSH2 0xA57 DUP4 DUP4 PUSH2 0x655 JUMP JUMPDEST ISZERO PUSH2 0xB2B JUMPI PUSH0 DUP1 PUSH0 DUP6 DUP2 MSTORE PUSH1 0x20 ADD SWAP1 DUP2 MSTORE PUSH1 0x20 ADD PUSH0 KECCAK256 PUSH0 ADD PUSH0 DUP5 PUSH20 0xFFFFFFFFFFFFFFFFFFFFFFFFFFFFFFFFFFFFFFFF AND PUSH20 0xFFFFFFFFFFFFFFFFFFFFFFFFFFFFFFFFFFFFFFFF AND DUP2 MSTORE PUSH1 0x20 ADD SWAP1 DUP2 MSTORE PUSH1 0x20 ADD PUSH0 KECCAK256 PUSH0 PUSH2 0x100 EXP DUP2 SLOAD DUP2 PUSH1 0xFF MUL NOT AND SWAP1 DUP4 ISZERO ISZERO MUL OR SWAP1 SSTORE POP PUSH2 0xAC8 PUSH2 0xA45 JUMP JUMPDEST PUSH20 0xFFFFFFFFFFFFFFFFFFFFFFFFFFFFFFFFFFFFFFFF AND DUP3 PUSH20 0xFFFFFFFFFFFFFFFFFFFFFFFFFFFFFFFFFFFFFFFF AND DUP5 PUSH32 0xF6391F5C32D9C69D2A47EA670B442974B53935D1EDC7FD64EB21E047A839171B PUSH1 0x40 MLOAD PUSH1 0x40 MLOAD DUP1 SWAP2 SUB SWAP1 LOG4 PUSH1 0x1 SWAP1 POP PUSH2 0xB2F JUMP JUMPDEST PUSH0 SWAP1 POP JUMPDEST SWAP3 SWAP2 POP POP JUMP JUMPDEST PUSH2 0xB3F DUP3 DUP3 PUSH2 0x655 JUMP JUMPDEST PUSH2 0xB82 JUMPI DUP1 DUP3 PUSH1 0x40 MLOAD PUSH32 0xE2517D3F00000000000000000000000000000000000000000000000000000000 DUP2 MSTORE PUSH1 0x4 ADD PUSH2 0xB79 SWAP3 SWAP2 SWAP1 PUSH2 0x1486 JUMP JUMPDEST PUSH1 0x40 MLOAD DUP1 SWAP2 SUB SWAP1 REVERT JUMPDEST POP POP JUMP JUMPDEST PUSH0 PUSH1 0x40 MLOAD SWAP1 POP SWAP1 JUMP JUMPDEST PUSH0 DUP1 REVERT JUMPDEST PUSH0 DUP1 REVERT JUMPDEST PUSH0 PUSH32 0xFFFFFFFF00000000000000000000000000000000000000000000000000000000 DUP3 AND SWAP1 POP SWAP2 SWAP1 POP JUMP JUMPDEST PUSH2 0xBCB DUP2 PUSH2 0xB97 JUMP JUMPDEST DUP2 EQ PUSH2 0xBD5 JUMPI PUSH0 DUP1 REVERT JUMPDEST POP JUMP JUMPDEST PUSH0 DUP2 CALLDATALOAD SWAP1 POP PUSH2 0xBE6 DUP2 PUSH2 0xBC2 JUMP JUMPDEST SWAP3 SWAP2 POP POP JUMP JUMPDEST PUSH0 PUSH1 0x20 DUP3 DUP5 SUB SLT ISZERO PUSH2 0xC01 JUMPI PUSH2 0xC00 PUSH2 0xB8F JUMP JUMPDEST JUMPDEST PUSH0 PUSH2 0xC0E DUP5 DUP3 DUP6 ADD PUSH2 0xBD8 JUMP JUMPDEST SWAP2 POP POP SWAP3 SWAP2 POP POP JUMP JUMPDEST PUSH0 DUP2 ISZERO ISZERO SWAP1 POP SWAP2 SWAP1 POP JUMP JUMPDEST PUSH2 0xC2B DUP2 PUSH2 0xC17 JUMP JUMPDEST DUP3 MSTORE POP POP JUMP JUMPDEST PUSH0 PUSH1 0x20 DUP3 ADD SWAP1 POP PUSH2 0xC44 PUSH0 DUP4 ADD DUP5 PUSH2 0xC22 JUMP JUMPDEST SWAP3 SWAP2 POP POP JUMP JUMPDEST PUSH0 DUP2 SWAP1 POP SWAP2 SWAP1 POP JUMP JUMPDEST PUSH2 0xC5C DUP2 PUSH2 0xC4A JUMP JUMPDEST DUP2 EQ PUSH2 0xC66 JUMPI PUSH0 DUP1 REVERT JUMPDEST POP JUMP JUMPDEST PUSH0 DUP2 CALLDATALOAD SWAP1 POP PUSH2 0xC77 DUP2 PUSH2 0xC53 JUMP JUMPDEST SWAP3 SWAP2 POP POP JUMP JUMPDEST PUSH0 PUSH1 0x20 DUP3 DUP5 SUB SLT ISZERO PUSH2 0xC92 JUMPI PUSH2 0xC91 PUSH2 0xB8F JUMP JUMPDEST JUMPDEST PUSH0 PUSH2 0xC9F DUP5 DUP3 DUP6 ADD PUSH2 0xC69 JUMP JUMPDEST SWAP2 POP POP SWAP3 SWAP2 POP POP JUMP JUMPDEST PUSH2 0xCB1 DUP2 PUSH2 0xC4A JUMP JUMPDEST DUP3 MSTORE POP POP JUMP JUMPDEST PUSH0 PUSH1 0x20 DUP3 ADD SWAP1 POP PUSH2 0xCCA PUSH0 DUP4 ADD DUP5 PUSH2 0xCA8 JUMP JUMPDEST SWAP3 SWAP2 POP POP JUMP JUMPDEST PUSH0 PUSH20 0xFFFFFFFFFFFFFFFFFFFFFFFFFFFFFFFFFFFFFFFF DUP3 AND SWAP1 POP SWAP2 SWAP1 POP JUMP JUMPDEST PUSH0 PUSH2 0xCF9 DUP3 PUSH2 0xCD0 JUMP JUMPDEST SWAP1 POP SWAP2 SWAP1 POP JUMP JUMPDEST PUSH2 0xD09 DUP2 PUSH2 0xCEF JUMP JUMPDEST DUP2 EQ PUSH2 0xD13 JUMPI PUSH0 DUP1 REVERT JUMPDEST POP JUMP JUMPDEST PUSH0 DUP2 CALLDATALOAD SWAP1 POP PUSH2 0xD24 DUP2 PUSH2 0xD00 JUMP JUMPDEST SWAP3 SWAP2 POP POP JUMP JUMPDEST PUSH0 DUP1 PUSH1 0x40 DUP4 DUP6 SUB SLT ISZERO PUSH2 0xD40 JUMPI PUSH2 0xD3F PUSH2 0xB8F JUMP JUMPDEST JUMPDEST PUSH0 PUSH2 0xD4D DUP6 DUP3 DUP7 ADD PUSH2 0xC69 JUMP JUMPDEST SWAP3 POP POP PUSH1 0x20 PUSH2 0xD5E DUP6 DUP3 DUP7 ADD PUSH2 0xD16 JUMP JUMPDEST SWAP2 POP POP SWAP3 POP SWAP3 SWAP1 POP JUMP JUMPDEST PUSH0 DUP2 SWAP1 POP SWAP2 SWAP1 POP JUMP JUMPDEST PUSH2 0xD7A DUP2 PUSH2 0xD68 JUMP JUMPDEST DUP2 EQ PUSH2 0xD84 JUMPI PUSH0 DUP1 REVERT JUMPDEST POP JUMP JUMPDEST PUSH0 DUP2 CALLDATALOAD SWAP1 POP PUSH2 0xD95 DUP2 PUSH2 0xD71 JUMP JUMPDEST SWAP3 SWAP2 POP POP JUMP JUMPDEST PUSH0 PUSH1 0x20 DUP3 DUP5 SUB SLT ISZERO PUSH2 0xDB0 JUMPI PUSH2 0xDAF PUSH2 0xB8F JUMP JUMPDEST JUMPDEST PUSH0 PUSH2 0xDBD DUP5 DUP3 DUP6 ADD PUSH2 0xD87 JUMP JUMPDEST SWAP2 POP POP SWAP3 SWAP2 POP POP JUMP JUMPDEST PUSH2 0xDCF DUP2 PUSH2 0xCEF JUMP JUMPDEST DUP3 MSTORE POP POP JUMP JUMPDEST PUSH2 0xDDE DUP2 PUSH2 0xD68 JUMP JUMPDEST DUP3 MSTORE POP POP JUMP JUMPDEST PUSH0 DUP2 MLOAD SWAP1 POP SWAP2 SWAP1 POP JUMP JUMPDEST PUSH0 DUP3 DUP3 MSTORE PUSH1 0x20 DUP3 ADD SWAP1 POP SWAP3 SWAP2 POP POP JUMP JUMPDEST DUP3 DUP2 DUP4 MCOPY PUSH0 DUP4 DUP4 ADD MSTORE POP POP POP JUMP JUMPDEST PUSH0 PUSH1 0x1F NOT PUSH1 0x1F DUP4 ADD AND SWAP1 POP SWAP2 SWAP1 POP JUMP JUMPDEST PUSH0 PUSH2 0xE26 DUP3 PUSH2 0xDE4 JUMP JUMPDEST PUSH2 0xE30 DUP2 DUP6 PUSH2 0xDEE JUMP JUMPDEST SWAP4 POP PUSH2 0xE40 DUP2 DUP6 PUSH1 0x20 DUP7 ADD PUSH2 0xDFE JUMP JUMPDEST PUSH2 0xE49 DUP2 PUSH2 0xE0C JUMP JUMPDEST DUP5 ADD SWAP2 POP POP SWAP3 SWAP2 POP POP JUMP JUMPDEST PUSH0 PUSH1 0xA0 DUP3 ADD SWAP1 POP PUSH2 0xE67 PUSH0 DUP4 ADD DUP9 PUSH2 0xDC6 JUMP JUMPDEST PUSH2 0xE74 PUSH1 0x20 DUP4 ADD DUP8 PUSH2 0xDC6 JUMP JUMPDEST PUSH2 0xE81 PUSH1 0x40 DUP4 ADD DUP7 PUSH2 0xDD5 JUMP JUMPDEST PUSH2 0xE8E PUSH1 0x60 DUP4 ADD DUP6 PUSH2 0xDD5 JUMP JUMPDEST DUP2 DUP2 SUB PUSH1 0x80 DUP4 ADD MSTORE PUSH2 0xEA0 DUP2 DUP5 PUSH2 0xE1C JUMP JUMPDEST SWAP1 POP SWAP7 SWAP6 POP POP POP POP POP POP JUMP JUMPDEST PUSH0 PUSH1 0x20 DUP3 DUP5 SUB SLT ISZERO PUSH2 0xEC1 JUMPI PUSH2 0xEC0 PUSH2 0xB8F JUMP JUMPDEST JUMPDEST PUSH0 PUSH2 0xECE DUP5 DUP3 DUP6 ADD PUSH2 0xD16 JUMP JUMPDEST SWAP2 POP POP SWAP3 SWAP2 POP POP JUMP JUMPDEST PUSH0 DUP1 REVERT JUMPDEST PUSH0 DUP1 REVERT JUMPDEST PUSH32 0x4E487B7100000000000000000000000000000000000000000000000000000000 PUSH0 MSTORE PUSH1 0x41 PUSH1 0x4 MSTORE PUSH1 0x24 PUSH0 REVERT JUMPDEST PUSH2 0xF15 DUP3 PUSH2 0xE0C JUMP JUMPDEST DUP2 ADD DUP2 DUP2 LT PUSH8 0xFFFFFFFFFFFFFFFF DUP3 GT OR ISZERO PUSH2 0xF34 JUMPI PUSH2 0xF33 PUSH2 0xEDF JUMP JUMPDEST JUMPDEST DUP1 PUSH1 0x40 MSTORE POP POP POP JUMP JUMPDEST PUSH0 PUSH2 0xF46 PUSH2 0xB86 JUMP JUMPDEST SWAP1 POP PUSH2 0xF52 DUP3 DUP3 PUSH2 0xF0C JUMP JUMPDEST SWAP2 SWAP1 POP JUMP JUMPDEST PUSH0 PUSH8 0xFFFFFFFFFFFFFFFF DUP3 GT ISZERO PUSH2 0xF71 JUMPI PUSH2 0xF70 PUSH2 0xEDF JUMP JUMPDEST JUMPDEST PUSH2 0xF7A DUP3 PUSH2 0xE0C JUMP JUMPDEST SWAP1 POP PUSH1 0x20 DUP2 ADD SWAP1 POP SWAP2 SWAP1 POP JUMP JUMPDEST DUP3 DUP2 DUP4 CALLDATACOPY PUSH0 DUP4 DUP4 ADD MSTORE POP POP POP JUMP JUMPDEST PUSH0 PUSH2 0xFA7 PUSH2 0xFA2 DUP5 PUSH2 0xF57 JUMP JUMPDEST PUSH2 0xF3D JUMP JUMPDEST SWAP1 POP DUP3 DUP2 MSTORE PUSH1 0x20 DUP2 ADD DUP5 DUP5 DUP5 ADD GT ISZERO PUSH2 0xFC3 JUMPI PUSH2 0xFC2 PUSH2 0xEDB JUMP JUMPDEST JUMPDEST PUSH2 0xFCE DUP5 DUP3 DUP6 PUSH2 0xF87 JUMP JUMPDEST POP SWAP4 SWAP3 POP POP POP JUMP JUMPDEST PUSH0 DUP3 PUSH1 0x1F DUP4 ADD SLT PUSH2 0xFEA JUMPI PUSH2 0xFE9 PUSH2 0xED7 JUMP JUMPDEST JUMPDEST DUP2 CALLDATALOAD PUSH2 0xFFA DUP5 DUP3 PUSH1 0x20 DUP7 ADD PUSH2 0xF95 JUMP JUMPDEST SWAP2 POP POP SWAP3 SWAP2 POP POP JUMP JUMPDEST PUSH0 DUP1 PUSH0 PUSH1 0x60 DUP5 DUP7 SUB SLT ISZERO PUSH2 0x101A JUMPI PUSH2 0x1019 PUSH2 0xB8F JUMP JUMPDEST JUMPDEST PUSH0 PUSH2 0x1027 DUP7 DUP3 DUP8 ADD PUSH2 0xD16 JUMP JUMPDEST SWAP4 POP POP PUSH1 0x20 PUSH2 0x1038 DUP7 DUP3 DUP8 ADD PUSH2 0xD87 JUMP JUMPDEST SWAP3 POP POP PUSH1 0x40 DUP5 ADD CALLDATALOAD PUSH8 0xFFFFFFFFFFFFFFFF DUP2 GT ISZERO PUSH2 0x1059 JUMPI PUSH2 0x1058 PUSH2 0xB93 JUMP JUMPDEST JUMPDEST PUSH2 0x1065 DUP7 DUP3 DUP8 ADD PUSH2 0xFD6 JUMP JUMPDEST SWAP2 POP POP SWAP3 POP SWAP3 POP SWAP3 JUMP JUMPDEST PUSH0 DUP3 DUP3 MSTORE PUSH1 0x20 DUP3 ADD SWAP1 POP SWAP3 SWAP2 POP POP JUMP JUMPDEST PUSH32 0x5472616E73616374696F6E4C6F676765723A20496E646578206F7574206F6620 PUSH0 DUP3 ADD MSTORE PUSH32 0x626F756E64730000000000000000000000000000000000000000000000000000 PUSH1 0x20 DUP3 ADD MSTORE POP JUMP JUMPDEST PUSH0 PUSH2 0x10D9 PUSH1 0x26 DUP4 PUSH2 0x106F JUMP JUMPDEST SWAP2 POP PUSH2 0x10E4 DUP3 PUSH2 0x107F JUMP JUMPDEST PUSH1 0x40 DUP3 ADD SWAP1 POP SWAP2 SWAP1 POP JUMP JUMPDEST PUSH0 PUSH1 0x20 DUP3 ADD SWAP1 POP DUP2 DUP2 SUB PUSH0 DUP4 ADD MSTORE PUSH2 0x1106 DUP2 PUSH2 0x10CD JUMP JUMPDEST SWAP1 POP SWAP2 SWAP1 POP JUMP JUMPDEST PUSH32 0x4E487B7100000000000000000000000000000000000000000000000000000000 PUSH0 MSTORE PUSH1 0x22 PUSH1 0x4 MSTORE PUSH1 0x24 PUSH0 REVERT JUMPDEST PUSH0 PUSH1 0x2 DUP3 DIV SWAP1 POP PUSH1 0x1 DUP3 AND DUP1 PUSH2 0x1151 JUMPI PUSH1 0x7F DUP3 AND SWAP2 POP JUMPDEST PUSH1 0x20 DUP3 LT DUP2 SUB PUSH2 0x1164 JUMPI PUSH2 0x1163 PUSH2 0x110D JUMP JUMPDEST JUMPDEST POP SWAP2 SWAP1 POP JUMP JUMPDEST PUSH0 DUP2 SWAP1 POP DUP2 PUSH0 MSTORE PUSH1 0x20 PUSH0 KECCAK256 SWAP1 POP SWAP2 SWAP1 POP JUMP JUMPDEST PUSH0 PUSH1 0x20 PUSH1 0x1F DUP4 ADD DIV SWAP1 POP SWAP2 SWAP1 POP JUMP JUMPDEST PUSH0 DUP3 DUP3 SHL SWAP1 POP SWAP3 SWAP2 POP POP JUMP JUMPDEST PUSH0 PUSH1 0x8 DUP4 MUL PUSH2 0x11C6 PUSH32 0xFFFFFFFFFFFFFFFFFFFFFFFFFFFFFFFFFFFFFFFFFFFFFFFFFFFFFFFFFFFFFFFF DUP3 PUSH2 0x118B JUMP JUMPDEST PUSH2 0x11D0 DUP7 DUP4 PUSH2 0x118B JUMP JUMPDEST SWAP6 POP DUP1 NOT DUP5 AND SWAP4 POP DUP1 DUP7 AND DUP5 OR SWAP3 POP POP POP SWAP4 SWAP3 POP POP POP JUMP JUMPDEST PUSH0 DUP2 SWAP1 POP SWAP2 SWAP1 POP JUMP JUMPDEST PUSH0 PUSH2 0x120B PUSH2 0x1206 PUSH2 0x1201 DUP5 PUSH2 0xD68 JUMP JUMPDEST PUSH2 0x11E8 JUMP JUMPDEST PUSH2 0xD68 JUMP JUMPDEST SWAP1 POP SWAP2 SWAP1 POP JUMP JUMPDEST PUSH0 DUP2 SWAP1 POP SWAP2 SWAP1 POP JUMP JUMPDEST PUSH2 0x1224 DUP4 PUSH2 0x11F1 JUMP JUMPDEST PUSH2 0x1238 PUSH2 0x1230 DUP3 PUSH2 0x1212 JUMP JUMPDEST DUP5 DUP5 SLOAD PUSH2 0x1197 JUMP JUMPDEST DUP3 SSTORE POP POP POP POP JUMP JUMPDEST PUSH0 SWAP1 JUMP JUMPDEST PUSH2 0x124C PUSH2 0x1240 JUMP JUMPDEST PUSH2 0x1257 DUP2 DUP5 DUP5 PUSH2 0x121B JUMP JUMPDEST POP POP POP JUMP JUMPDEST JUMPDEST DUP2 DUP2 LT ISZERO PUSH2 0x127A JUMPI PUSH2 0x126F PUSH0 DUP3 PUSH2 0x1244 JUMP JUMPDEST PUSH1 0x1 DUP2 ADD SWAP1 POP PUSH2 0x125D JUMP JUMPDEST POP POP JUMP JUMPDEST PUSH1 0x1F DUP3 GT ISZERO PUSH2 0x12BF JUMPI PUSH2 0x1290 DUP2 PUSH2 0x116A JUMP JUMPDEST PUSH2 0x1299 DUP5 PUSH2 0x117C JUMP JUMPDEST DUP2 ADD PUSH1 0x20 DUP6 LT ISZERO PUSH2 0x12A8 JUMPI DUP2 SWAP1 POP JUMPDEST PUSH2 0x12BC PUSH2 0x12B4 DUP6 PUSH2 0x117C JUMP JUMPDEST DUP4 ADD DUP3 PUSH2 0x125C JUMP JUMPDEST POP POP JUMPDEST POP POP POP JUMP JUMPDEST PUSH0 DUP3 DUP3 SHR SWAP1 POP SWAP3 SWAP2 POP POP JUMP JUMPDEST PUSH0 PUSH2 0x12DF PUSH0 NOT DUP5 PUSH1 0x8 MUL PUSH2 0x12C4 JUMP JUMPDEST NOT DUP1 DUP4 AND SWAP2 POP POP SWAP3 SWAP2 POP POP JUMP JUMPDEST PUSH0 PUSH2 0x12F7 DUP4 DUP4 PUSH2 0x12D0 JUMP JUMPDEST SWAP2 POP DUP3 PUSH1 0x2 MUL DUP3 OR SWAP1 POP SWAP3 SWAP2 POP POP JUMP JUMPDEST PUSH2 0x1310 DUP3 PUSH2 0xDE4 JUMP JUMPDEST PUSH8 0xFFFFFFFFFFFFFFFF DUP2 GT ISZERO PUSH2 0x1329 JUMPI PUSH2 0x1328 PUSH2 0xEDF JUMP JUMPDEST JUMPDEST PUSH2 0x1333 DUP3 SLOAD PUSH2 0x113A JUMP JUMPDEST PUSH2 0x133E DUP3 DUP3 DUP6 PUSH2 0x127E JUMP JUMPDEST PUSH0 PUSH1 0x20 SWAP1 POP PUSH1 0x1F DUP4 GT PUSH1 0x1 DUP2 EQ PUSH2 0x136F JUMPI PUSH0 DUP5 ISZERO PUSH2 0x135D JUMPI DUP3 DUP8 ADD MLOAD SWAP1 POP JUMPDEST PUSH2 0x1367 DUP6 DUP3 PUSH2 0x12EC JUMP JUMPDEST DUP7 SSTORE POP PUSH2 0x13CE JUMP JUMPDEST PUSH1 0x1F NOT DUP5 AND PUSH2 0x137D DUP7 PUSH2 0x116A JUMP JUMPDEST PUSH0 JUMPDEST DUP3 DUP2 LT ISZERO PUSH2 0x13A4 JUMPI DUP5 DUP10 ADD MLOAD DUP3 SSTORE PUSH1 0x1 DUP3 ADD SWAP2 POP PUSH1 0x20 DUP6 ADD SWAP5 POP PUSH1 0x20 DUP2 ADD SWAP1 POP PUSH2 0x137F JUMP JUMPDEST DUP7 DUP4 LT ISZERO PUSH2 0x13C1 JUMPI DUP5 DUP10 ADD MLOAD PUSH2 0x13BD PUSH1 0x1F DUP10 AND DUP3 PUSH2 0x12D0 JUMP JUMPDEST DUP4 SSTORE POP JUMPDEST PUSH1 0x1 PUSH1 0x2 DUP9 MUL ADD DUP9 SSTORE POP POP POP JUMPDEST POP POP POP POP POP POP JUMP JUMPDEST PUSH0 PUSH1 0x60 DUP3 ADD SWAP1 POP PUSH2 0x13E9 PUSH0 DUP4 ADD DUP7 PUSH2 0xDD5 JUMP JUMPDEST PUSH2 0x13F6 PUSH1 0x20 DUP4 ADD DUP6 PUSH2 0xDD5 JUMP JUMPDEST DUP2 DUP2 SUB PUSH1 0x40 DUP4 ADD MSTORE PUSH2 0x1408 DUP2 DUP5 PUSH2 0xE1C JUMP JUMPDEST SWAP1 POP SWAP5 SWAP4 POP POP POP POP JUMP JUMPDEST PUSH32 0x4E487B7100000000000000000000000000000000000000000000000000000000 PUSH0 MSTORE PUSH1 0x11 PUSH1 0x4 MSTORE PUSH1 0x24 PUSH0 REVERT JUMPDEST PUSH0 PUSH2 0x1449 DUP3 PUSH2 0xD68 JUMP JUMPDEST SWAP2 POP PUSH32 0xFFFFFFFFFFFFFFFFFFFFFFFFFFFFFFFFFFFFFFFFFFFFFFFFFFFFFFFFFFFFFFFF DUP3 SUB PUSH2 0x147B JUMPI PUSH2 0x147A PUSH2 0x1412 JUMP JUMPDEST JUMPDEST PUSH1 0x1 DUP3 ADD SWAP1 POP SWAP2 SWAP1 POP JUMP JUMPDEST PUSH0 PUSH1 0x40 DUP3 ADD SWAP1 POP PUSH2 0x1499 PUSH0 DUP4 ADD DUP6 PUSH2 0xDC6 JUMP JUMPDEST PUSH2 0x14A6 PUSH1 0x20 DUP4 ADD DUP5 PUSH2 0xCA8 JUMP JUMPDEST SWAP4 SWAP3 POP POP POP JUMP INVALID LOG2 PUSH5 0x6970667358 0x22 SLT KECCAK256 0xD9 SWAP6 0xBD 0xBA PUSH15 0xD672F6E577E643824732A23436ED2B 0x2B BLOCKHASH 0xCC 0xE9 CHAINID DUP15 SELFBALANCE BALANCE JUMP 0xD2 0xD2 PUSH19 0x64736F6C634300081A00330000000000000000 "
				},
				"gasEstimates": {
					"creation": {
						"codeDepositCost": "1069400",
						"executionCost": "infinite",
						"totalCost": "infinite"
					},
					"external": {
						"AUDITOR_ROLE()": "370",
						"DEFAULT_ADMIN_ROLE()": "352",
						"getRoleAdmin(bytes32)": "infinite",
						"getTransaction(uint256)": "infinite",
						"grantAuditorRole(address)": "infinite",
						"grantRole(bytes32,address)": "infinite",
						"hasAuditorRole(address)": "3064",
						"hasRole(bytes32,address)": "3189",
						"logTransaction(address,uint256,bytes)": "infinite",
						"renounceRole(bytes32,address)": "infinite",
						"revokeAuditorRole(address)": "infinite",
						"revokeRole(bytes32,address)": "infinite",
						"supportsInterface(bytes4)": "718"
					}
				},
				"methodIdentifiers": {
					"AUDITOR_ROLE()": "6e1d616e",
					"DEFAULT_ADMIN_ROLE()": "a217fddf",
					"getRoleAdmin(bytes32)": "248a9ca3",
					"getTransaction(uint256)": "33ea3dc8",
					"grantAuditorRole(address)": "50c17b10",
					"grantRole(bytes32,address)": "2f2ff15d",
					"hasAuditorRole(address)": "abaa536f",
					"hasRole(bytes32,address)": "91d14854",
					"logTransaction(address,uint256,bytes)": "a5ce262a",
					"renounceRole(bytes32,address)": "36568abe",
					"revokeAuditorRole(address)": "3e251518",
					"revokeRole(bytes32,address)": "d547741f",
					"supportsInterface(bytes4)": "01ffc9a7"
				}
			},
			"storageLayout": {
				"storage": [
					{
						"astId": 26,
						"contract": "contracts/security/audit/TransactionLogger.sol:TransactionLogger",
						"label": "_roles",
						"offset": 0,
						"slot": "0",
						"type": "t_mapping(t_bytes32,t_struct(RoleData)21_storage)"
					},
					{
						"astId": 473,
						"contract": "contracts/security/audit/TransactionLogger.sol:TransactionLogger",
						"label": "transactions",
						"offset": 0,
						"slot": "1",
						"type": "t_mapping(t_uint256,t_struct(Transaction)486_storage)"
					},
					{
						"astId": 475,
						"contract": "contracts/security/audit/TransactionLogger.sol:TransactionLogger",
						"label": "transactionCount",
						"offset": 0,
						"slot": "2",
						"type": "t_uint256"
					}
				],
				"types": {
					"t_address": {
						"encoding": "inplace",
						"label": "address",
						"numberOfBytes": "20"
					},
					"t_bool": {
						"encoding": "inplace",
						"label": "bool",
						"numberOfBytes": "1"
					},
					"t_bytes32": {
						"encoding": "inplace",
						"label": "bytes32",
						"numberOfBytes": "32"
					},
					"t_bytes_storage": {
						"encoding": "bytes",
						"label": "bytes",
						"numberOfBytes": "32"
					},
					"t_mapping(t_address,t_bool)": {
						"encoding": "mapping",
						"key": "t_address",
						"label": "mapping(address => bool)",
						"numberOfBytes": "32",
						"value": "t_bool"
					},
					"t_mapping(t_bytes32,t_struct(RoleData)21_storage)": {
						"encoding": "mapping",
						"key": "t_bytes32",
						"label": "mapping(bytes32 => struct AccessControl.RoleData)",
						"numberOfBytes": "32",
						"value": "t_struct(RoleData)21_storage"
					},
					"t_mapping(t_uint256,t_struct(Transaction)486_storage)": {
						"encoding": "mapping",
						"key": "t_uint256",
						"label": "mapping(uint256 => struct TransactionLogger.Transaction)",
						"numberOfBytes": "32",
						"value": "t_struct(Transaction)486_storage"
					},
					"t_struct(RoleData)21_storage": {
						"encoding": "inplace",
						"label": "struct AccessControl.RoleData",
						"members": [
							{
								"astId": 18,
								"contract": "contracts/security/audit/TransactionLogger.sol:TransactionLogger",
								"label": "hasRole",
								"offset": 0,
								"slot": "0",
								"type": "t_mapping(t_address,t_bool)"
							},
							{
								"astId": 20,
								"contract": "contracts/security/audit/TransactionLogger.sol:TransactionLogger",
								"label": "adminRole",
								"offset": 0,
								"slot": "1",
								"type": "t_bytes32"
							}
						],
						"numberOfBytes": "64"
					},
					"t_struct(Transaction)486_storage": {
						"encoding": "inplace",
						"label": "struct TransactionLogger.Transaction",
						"members": [
							{
								"astId": 477,
								"contract": "contracts/security/audit/TransactionLogger.sol:TransactionLogger",
								"label": "sender",
								"offset": 0,
								"slot": "0",
								"type": "t_address"
							},
							{
								"astId": 479,
								"contract": "contracts/security/audit/TransactionLogger.sol:TransactionLogger",
								"label": "receiver",
								"offset": 0,
								"slot": "1",
								"type": "t_address"
							},
							{
								"astId": 481,
								"contract": "contracts/security/audit/TransactionLogger.sol:TransactionLogger",
								"label": "amount",
								"offset": 0,
								"slot": "2",
								"type": "t_uint256"
							},
							{
								"astId": 483,
								"contract": "contracts/security/audit/TransactionLogger.sol:TransactionLogger",
								"label": "timestamp",
								"offset": 0,
								"slot": "3",
								"type": "t_uint256"
							},
							{
								"astId": 485,
								"contract": "contracts/security/audit/TransactionLogger.sol:TransactionLogger",
								"label": "details",
								"offset": 0,
								"slot": "4",
								"type": "t_bytes_storage"
							}
						],
						"numberOfBytes": "160"
					},
					"t_uint256": {
						"encoding": "inplace",
						"label": "uint256",
						"numberOfBytes": "32"
					}
				}
			},
			"userdoc": {
				"kind": "user",
				"methods": {},
				"version": 1
			}
		}
	}
}