{
	"contracts/security/audit/AuditLogger.sol": {
		"AuditLogger": {
			"abi": [
				{
					"inputs": [],
					"stateMutability": "nonpayable",
					"type": "constructor"
				},
				{
					"inputs": [],
					"name": "AccessControlBadConfirmation",
					"type": "error"
				},
				{
					"inputs": [
						{
							"internalType": "address",
							"name": "account",
							"type": "address"
						},
						{
							"internalType": "bytes32",
							"name": "neededRole",
							"type": "bytes32"
						}
					],
					"name": "AccessControlUnauthorizedAccount",
					"type": "error"
				},
				{
					"anonymous": false,
					"inputs": [
						{
							"indexed": true,
							"internalType": "bytes32",
							"name": "role",
							"type": "bytes32"
						},
						{
							"indexed": true,
							"internalType": "bytes32",
							"name": "previousAdminRole",
							"type": "bytes32"
						},
						{
							"indexed": true,
							"internalType": "bytes32",
							"name": "newAdminRole",
							"type": "bytes32"
						}
					],
					"name": "RoleAdminChanged",
					"type": "event"
				},
				{
					"anonymous": false,
					"inputs": [
						{
							"indexed": true,
							"internalType": "bytes32",
							"name": "role",
							"type": "bytes32"
						},
						{
							"indexed": true,
							"internalType": "address",
							"name": "account",
							"type": "address"
						},
						{
							"indexed": true,
							"internalType": "address",
							"name": "sender",
							"type": "address"
						}
					],
					"name": "RoleGranted",
					"type": "event"
				},
				{
					"anonymous": false,
					"inputs": [
						{
							"indexed": true,
							"internalType": "bytes32",
							"name": "role",
							"type": "bytes32"
						},
						{
							"indexed": true,
							"internalType": "address",
							"name": "account",
							"type": "address"
						},
						{
							"indexed": true,
							"internalType": "address",
							"name": "sender",
							"type": "address"
						}
					],
					"name": "RoleRevoked",
					"type": "event"
				},
				{
					"anonymous": false,
					"inputs": [
						{
							"indexed": true,
							"internalType": "address",
							"name": "actor",
							"type": "address"
						},
						{
							"indexed": false,
							"internalType": "string",
							"name": "action",
							"type": "string"
						},
						{
							"indexed": false,
							"internalType": "uint256",
							"name": "timestamp",
							"type": "uint256"
						},
						{
							"indexed": false,
							"internalType": "bytes",
							"name": "details",
							"type": "bytes"
						}
					],
					"name": "SecurityEventLogged",
					"type": "event"
				},
				{
					"inputs": [],
					"name": "AUDITOR_ROLE",
					"outputs": [
						{
							"internalType": "bytes32",
							"name": "",
							"type": "bytes32"
						}
					],
					"stateMutability": "view",
					"type": "function"
				},
				{
					"inputs": [],
					"name": "DEFAULT_ADMIN_ROLE",
					"outputs": [
						{
							"internalType": "bytes32",
							"name": "",
							"type": "bytes32"
						}
					],
					"stateMutability": "view",
					"type": "function"
				},
				{
					"inputs": [
						{
							"internalType": "string",
							"name": "action",
							"type": "string"
						}
					],
					"name": "getActionLogs",
					"outputs": [
						{
							"internalType": "bytes[]",
							"name": "",
							"type": "bytes[]"
						}
					],
					"stateMutability": "view",
					"type": "function"
				},
				{
					"inputs": [
						{
							"internalType": "bytes32",
							"name": "role",
							"type": "bytes32"
						}
					],
					"name": "getRoleAdmin",
					"outputs": [
						{
							"internalType": "bytes32",
							"name": "",
							"type": "bytes32"
						}
					],
					"stateMutability": "view",
					"type": "function"
				},
				{
					"inputs": [
						{
							"internalType": "address",
							"name": "account",
							"type": "address"
						}
					],
					"name": "grantAuditorRole",
					"outputs": [],
					"stateMutability": "nonpayable",
					"type": "function"
				},
				{
					"inputs": [
						{
							"internalType": "bytes32",
							"name": "role",
							"type": "bytes32"
						},
						{
							"internalType": "address",
							"name": "account",
							"type": "address"
						}
					],
					"name": "grantRole",
					"outputs": [],
					"stateMutability": "nonpayable",
					"type": "function"
				},
				{
					"inputs": [
						{
							"internalType": "address",
							"name": "account",
							"type": "address"
						}
					],
					"name": "hasAuditorRole",
					"outputs": [
						{
							"internalType": "bool",
							"name": "",
							"type": "bool"
						}
					],
					"stateMutability": "view",
					"type": "function"
				},
				{
					"inputs": [
						{
							"internalType": "bytes32",
							"name": "role",
							"type": "bytes32"
						},
						{
							"internalType": "address",
							"name": "account",
							"type": "address"
						}
					],
					"name": "hasRole",
					"outputs": [
						{
							"internalType": "bool",
							"name": "",
							"type": "bool"
						}
					],
					"stateMutability": "view",
					"type": "function"
				},
				{
					"inputs": [
						{
							"internalType": "string",
							"name": "action",
							"type": "string"
						},
						{
							"internalType": "bytes",
							"name": "details",
							"type": "bytes"
						}
					],
					"name": "logSecurityEvent",
					"outputs": [],
					"stateMutability": "nonpayable",
					"type": "function"
				},
				{
					"inputs": [
						{
							"internalType": "bytes32",
							"name": "role",
							"type": "bytes32"
						},
						{
							"internalType": "address",
							"name": "callerConfirmation",
							"type": "address"
						}
					],
					"name": "renounceRole",
					"outputs": [],
					"stateMutability": "nonpayable",
					"type": "function"
				},
				{
					"inputs": [
						{
							"internalType": "address",
							"name": "account",
							"type": "address"
						}
					],
					"name": "revokeAuditorRole",
					"outputs": [],
					"stateMutability": "nonpayable",
					"type": "function"
				},
				{
					"inputs": [
						{
							"internalType": "bytes32",
							"name": "role",
							"type": "bytes32"
						},
						{
							"internalType": "address",
							"name": "account",
							"type": "address"
						}
					],
					"name": "revokeRole",
					"outputs": [],
					"stateMutability": "nonpayable",
					"type": "function"
				},
				{
					"inputs": [
						{
							"internalType": "bytes4",
							"name": "interfaceId",
							"type": "bytes4"
						}
					],
					"name": "supportsInterface",
					"outputs": [
						{
							"internalType": "bool",
							"name": "",
							"type": "bool"
						}
					],
					"stateMutability": "view",
					"type": "function"
				}
			],
			"devdoc": {
				"details": "This contract logs and tracks important security events and actions.",
				"errors": {
					"AccessControlBadConfirmation()": [
						{
							"details": "The caller of a function is not the expected one. NOTE: Don't confuse with {AccessControlUnauthorizedAccount}."
						}
					],
					"AccessControlUnauthorizedAccount(address,bytes32)": [
						{
							"details": "The `account` is missing a role."
						}
					]
				},
				"events": {
					"RoleAdminChanged(bytes32,bytes32,bytes32)": {
						"details": "Emitted when `newAdminRole` is set as ``role``'s admin role, replacing `previousAdminRole` `DEFAULT_ADMIN_ROLE` is the starting admin for all roles, despite {RoleAdminChanged} not being emitted signaling this."
					},
					"RoleGranted(bytes32,address,address)": {
						"details": "Emitted when `account` is granted `role`. `sender` is the account that originated the contract call, an admin role bearer except when using {AccessControl-_setupRole}."
					},
					"RoleRevoked(bytes32,address,address)": {
						"details": "Emitted when `account` is revoked `role`. `sender` is the account that originated the contract call:   - if using `revokeRole`, it is the admin role bearer   - if using `renounceRole`, it is the role bearer (i.e. `account`)"
					}
				},
				"kind": "dev",
				"methods": {
					"getActionLogs(string)": {
						"details": "Retrieve logs for a specific action type.",
						"params": {
							"action": "The action type to retrieve logs for."
						},
						"returns": {
							"_0": "An array of bytes containing the logs for the specified action type."
						}
					},
					"getRoleAdmin(bytes32)": {
						"details": "Returns the admin role that controls `role`. See {grantRole} and {revokeRole}. To change a role's admin, use {_setRoleAdmin}."
					},
					"grantAuditorRole(address)": {
						"details": "Grant the auditor role to a new account.",
						"params": {
							"account": "The account to grant the auditor role to."
						}
					},
					"grantRole(bytes32,address)": {
						"details": "Grants `role` to `account`. If `account` had not been already granted `role`, emits a {RoleGranted} event. Requirements: - the caller must have ``role``'s admin role. May emit a {RoleGranted} event."
					},
					"hasAuditorRole(address)": {
						"details": "Check if an account has the auditor role.",
						"params": {
							"account": "The account to check."
						},
						"returns": {
							"_0": "True if the account has the auditor role, false otherwise."
						}
					},
					"hasRole(bytes32,address)": {
						"details": "Returns `true` if `account` has been granted `role`."
					},
					"logSecurityEvent(string,bytes)": {
						"details": "Log a security event with relevant details.",
						"params": {
							"action": "A string describing the action that occurred.",
							"details": "Additional details about the action, encoded as bytes."
						}
					},
					"renounceRole(bytes32,address)": {
						"details": "Revokes `role` from the calling account. Roles are often managed via {grantRole} and {revokeRole}: this function's purpose is to provide a mechanism for accounts to lose their privileges if they are compromised (such as when a trusted device is misplaced). If the calling account had been revoked `role`, emits a {RoleRevoked} event. Requirements: - the caller must be `callerConfirmation`. May emit a {RoleRevoked} event."
					},
					"revokeAuditorRole(address)": {
						"details": "Revoke the auditor role from an account.",
						"params": {
							"account": "The account to revoke the auditor role from."
						}
					},
					"revokeRole(bytes32,address)": {
						"details": "Revokes `role` from `account`. If `account` had been granted `role`, emits a {RoleRevoked} event. Requirements: - the caller must have ``role``'s admin role. May emit a {RoleRevoked} event."
					},
					"supportsInterface(bytes4)": {
						"details": "See {IERC165-supportsInterface}."
					}
				},
				"title": "AuditLogger",
				"version": 1
			},
			"evm": {
				"assembly": "    /* \"contracts/security/audit/AuditLogger.sol\":318:2506  contract AuditLogger is AccessControl {... */\n  mstore(0x40, 0x80)\n    /* \"contracts/security/audit/AuditLogger.sol\":726:845  constructor() {... */\n  callvalue\n  dup1\n  iszero\n  tag_1\n  jumpi\n  0x00\n  dup1\n  revert\ntag_1:\n  pop\n    /* \"contracts/security/audit/AuditLogger.sol\":750:792  _grantRole(DEFAULT_ADMIN_ROLE, msg.sender) */\n  tag_4\n    /* \"@openzeppelin/contracts/access/AccessControl.sol\":2232:2236  0x00 */\n  0x00\n    /* \"contracts/security/audit/AuditLogger.sol\":761:779  DEFAULT_ADMIN_ROLE */\n  dup1\n  shl\n    /* \"contracts/security/audit/AuditLogger.sol\":781:791  msg.sender */\n  caller\n    /* \"contracts/security/audit/AuditLogger.sol\":750:760  _grantRole */\n  shl(0x20, tag_5)\n    /* \"contracts/security/audit/AuditLogger.sol\":750:792  _grantRole(DEFAULT_ADMIN_ROLE, msg.sender) */\n  0x20\n  shr\n  jump\t// in\ntag_4:\n  pop\n    /* \"contracts/security/audit/AuditLogger.sol\":802:838  _grantRole(AUDITOR_ROLE, msg.sender) */\n  tag_6\n    /* \"contracts/security/audit/AuditLogger.sol\":456:481  keccak256(\"AUDITOR_ROLE\") */\n  0x59a1c48e5837ad7a7f3dcedcbe129bf3249ec4fbf651fd4f5e2600ead39fe2f5\n    /* \"contracts/security/audit/AuditLogger.sol\":827:837  msg.sender */\n  caller\n    /* \"contracts/security/audit/AuditLogger.sol\":802:812  _grantRole */\n  shl(0x20, tag_5)\n    /* \"contracts/security/audit/AuditLogger.sol\":802:838  _grantRole(AUDITOR_ROLE, msg.sender) */\n  0x20\n  shr\n  jump\t// in\ntag_6:\n  pop\n    /* \"contracts/security/audit/AuditLogger.sol\":318:2506  contract AuditLogger is AccessControl {... */\n  jump(tag_7)\n    /* \"@openzeppelin/contracts/access/AccessControl.sol\":6179:6495  function _grantRole(bytes32 role, address account) internal virtual returns (bool) {... */\ntag_5:\n    /* \"@openzeppelin/contracts/access/AccessControl.sol\":6256:6260  bool */\n  0x00\n    /* \"@openzeppelin/contracts/access/AccessControl.sol\":6277:6299  hasRole(role, account) */\n  tag_9\n    /* \"@openzeppelin/contracts/access/AccessControl.sol\":6285:6289  role */\n  dup4\n    /* \"@openzeppelin/contracts/access/AccessControl.sol\":6291:6298  account */\n  dup4\n    /* \"@openzeppelin/contracts/access/AccessControl.sol\":6277:6284  hasRole */\n  shl(0x20, tag_10)\n    /* \"@openzeppelin/contracts/access/AccessControl.sol\":6277:6299  hasRole(role, account) */\n  0x20\n  shr\n  jump\t// in\ntag_9:\n    /* \"@openzeppelin/contracts/access/AccessControl.sol\":6272:6489  if (!hasRole(role, account)) {... */\n  tag_11\n  jumpi\n    /* \"@openzeppelin/contracts/access/AccessControl.sol\":6347:6351  true */\n  0x01\n    /* \"@openzeppelin/contracts/access/AccessControl.sol\":6315:6321  _roles */\n  0x00\n    /* \"@openzeppelin/contracts/access/AccessControl.sol\":6315:6327  _roles[role] */\n  dup1\n    /* \"@openzeppelin/contracts/access/AccessControl.sol\":6322:6326  role */\n  dup6\n    /* \"@openzeppelin/contracts/access/AccessControl.sol\":6315:6327  _roles[role] */\n  dup2\n  mstore\n  0x20\n  add\n  swap1\n  dup2\n  mstore\n  0x20\n  add\n  0x00\n  keccak256\n    /* \"@openzeppelin/contracts/access/AccessControl.sol\":6315:6335  _roles[role].hasRole */\n  0x00\n  add\n    /* \"@openzeppelin/contracts/access/AccessControl.sol\":6315:6344  _roles[role].hasRole[account] */\n  0x00\n    /* \"@openzeppelin/contracts/access/AccessControl.sol\":6336:6343  account */\n  dup5\n    /* \"@openzeppelin/contracts/access/AccessControl.sol\":6315:6344  _roles[role].hasRole[account] */\n  0xffffffffffffffffffffffffffffffffffffffff\n  and\n  0xffffffffffffffffffffffffffffffffffffffff\n  and\n  dup2\n  mstore\n  0x20\n  add\n  swap1\n  dup2\n  mstore\n  0x20\n  add\n  0x00\n  keccak256\n  0x00\n    /* \"@openzeppelin/contracts/access/AccessControl.sol\":6315:6351  _roles[role].hasRole[account] = true */\n  0x0100\n  exp\n  dup2\n  sload\n  dup2\n  0xff\n  mul\n  not\n  and\n  swap1\n  dup4\n  iszero\n  iszero\n  mul\n  or\n  swap1\n  sstore\n  pop\n    /* \"@openzeppelin/contracts/access/AccessControl.sol\":6397:6409  _msgSender() */\n  tag_12\n    /* \"@openzeppelin/contracts/access/AccessControl.sol\":6397:6407  _msgSender */\n  shl(0x20, tag_13)\n    /* \"@openzeppelin/contracts/access/AccessControl.sol\":6397:6409  _msgSender() */\n  0x20\n  shr\n  jump\t// in\ntag_12:\n    /* \"@openzeppelin/contracts/access/AccessControl.sol\":6370:6410  RoleGranted(role, account, _msgSender()) */\n  0xffffffffffffffffffffffffffffffffffffffff\n  and\n    /* \"@openzeppelin/contracts/access/AccessControl.sol\":6388:6395  account */\n  dup3\n    /* \"@openzeppelin/contracts/access/AccessControl.sol\":6370:6410  RoleGranted(role, account, _msgSender()) */\n  0xffffffffffffffffffffffffffffffffffffffff\n  and\n    /* \"@openzeppelin/contracts/access/AccessControl.sol\":6382:6386  role */\n  dup5\n    /* \"@openzeppelin/contracts/access/AccessControl.sol\":6370:6410  RoleGranted(role, account, _msgSender()) */\n  0x2f8788117e7eff1d82e926ec794901d17c78024a50270940304540a733656f0d\n  mload(0x40)\n  mload(0x40)\n  dup1\n  swap2\n  sub\n  swap1\n  log4\n    /* \"@openzeppelin/contracts/access/AccessControl.sol\":6431:6435  true */\n  0x01\n    /* \"@openzeppelin/contracts/access/AccessControl.sol\":6424:6435  return true */\n  swap1\n  pop\n  jump(tag_8)\n    /* \"@openzeppelin/contracts/access/AccessControl.sol\":6272:6489  if (!hasRole(role, account)) {... */\ntag_11:\n    /* \"@openzeppelin/contracts/access/AccessControl.sol\":6473:6478  false */\n  0x00\n    /* \"@openzeppelin/contracts/access/AccessControl.sol\":6466:6478  return false */\n  swap1\n  pop\n    /* \"@openzeppelin/contracts/access/AccessControl.sol\":6179:6495  function _grantRole(bytes32 role, address account) internal virtual returns (bool) {... */\ntag_8:\n  swap3\n  swap2\n  pop\n  pop\n  jump\t// out\n    /* \"@openzeppelin/contracts/access/AccessControl.sol\":2854:2990  function hasRole(bytes32 role, address account) public view virtual returns (bool) {... */\ntag_10:\n    /* \"@openzeppelin/contracts/access/AccessControl.sol\":2931:2935  bool */\n  0x00\n    /* \"@openzeppelin/contracts/access/AccessControl.sol\":2954:2960  _roles */\n  dup1\n    /* \"@openzeppelin/contracts/access/AccessControl.sol\":2954:2966  _roles[role] */\n  0x00\n    /* \"@openzeppelin/contracts/access/AccessControl.sol\":2961:2965  role */\n  dup5\n    /* \"@openzeppelin/contracts/access/AccessControl.sol\":2954:2966  _roles[role] */\n  dup2\n  mstore\n  0x20\n  add\n  swap1\n  dup2\n  mstore\n  0x20\n  add\n  0x00\n  keccak256\n    /* \"@openzeppelin/contracts/access/AccessControl.sol\":2954:2974  _roles[role].hasRole */\n  0x00\n  add\n    /* \"@openzeppelin/contracts/access/AccessControl.sol\":2954:2983  _roles[role].hasRole[account] */\n  0x00\n    /* \"@openzeppelin/contracts/access/AccessControl.sol\":2975:2982  account */\n  dup4\n    /* \"@openzeppelin/contracts/access/AccessControl.sol\":2954:2983  _roles[role].hasRole[account] */\n  0xffffffffffffffffffffffffffffffffffffffff\n  and\n  0xffffffffffffffffffffffffffffffffffffffff\n  and\n  dup2\n  mstore\n  0x20\n  add\n  swap1\n  dup2\n  mstore\n  0x20\n  add\n  0x00\n  keccak256\n  0x00\n  swap1\n  sload\n  swap1\n  0x0100\n  exp\n  swap1\n  div\n  0xff\n  and\n    /* \"@openzeppelin/contracts/access/AccessControl.sol\":2947:2983  return _roles[role].hasRole[account] */\n  swap1\n  pop\n    /* \"@openzeppelin/contracts/access/AccessControl.sol\":2854:2990  function hasRole(bytes32 role, address account) public view virtual returns (bool) {... */\n  swap3\n  swap2\n  pop\n  pop\n  jump\t// out\n    /* \"@openzeppelin/contracts/utils/Context.sol\":656:752  function _msgSender() internal view virtual returns (address) {... */\ntag_13:\n    /* \"@openzeppelin/contracts/utils/Context.sol\":709:716  address */\n  0x00\n    /* \"@openzeppelin/contracts/utils/Context.sol\":735:745  msg.sender */\n  caller\n    /* \"@openzeppelin/contracts/utils/Context.sol\":728:745  return msg.sender */\n  swap1\n  pop\n    /* \"@openzeppelin/contracts/utils/Context.sol\":656:752  function _msgSender() internal view virtual returns (address) {... */\n  swap1\n  jump\t// out\n    /* \"contracts/security/audit/AuditLogger.sol\":318:2506  contract AuditLogger is AccessControl {... */\ntag_7:\n  dataSize(sub_0)\n  dup1\n  dataOffset(sub_0)\n  0x00\n  codecopy\n  0x00\n  return\nstop\n\nsub_0: assembly {\n        /* \"contracts/security/audit/AuditLogger.sol\":318:2506  contract AuditLogger is AccessControl {... */\n      mstore(0x40, 0x80)\n      callvalue\n      dup1\n      iszero\n      tag_1\n      jumpi\n      0x00\n      dup1\n      revert\n    tag_1:\n      pop\n      jumpi(tag_2, lt(calldatasize, 0x04))\n      shr(0xe0, calldataload(0x00))\n      dup1\n      0x50c17b10\n      gt\n      tag_16\n      jumpi\n      dup1\n      0xa217fddf\n      gt\n      tag_17\n      jumpi\n      dup1\n      0xa217fddf\n      eq\n      tag_12\n      jumpi\n      dup1\n      0xabaa536f\n      eq\n      tag_13\n      jumpi\n      dup1\n      0xd547741f\n      eq\n      tag_14\n      jumpi\n      dup1\n      0xeddd2b4d\n      eq\n      tag_15\n      jumpi\n      jump(tag_2)\n    tag_17:\n      dup1\n      0x50c17b10\n      eq\n      tag_9\n      jumpi\n      dup1\n      0x6e1d616e\n      eq\n      tag_10\n      jumpi\n      dup1\n      0x91d14854\n      eq\n      tag_11\n      jumpi\n      jump(tag_2)\n    tag_16:\n      dup1\n      0x01ffc9a7\n      eq\n      tag_3\n      jumpi\n      dup1\n      0x248a9ca3\n      eq\n      tag_4\n      jumpi\n      dup1\n      0x2820b656\n      eq\n      tag_5\n      jumpi\n      dup1\n      0x2f2ff15d\n      eq\n      tag_6\n      jumpi\n      dup1\n      0x36568abe\n      eq\n      tag_7\n      jumpi\n      dup1\n      0x3e251518\n      eq\n      tag_8\n      jumpi\n    tag_2:\n      0x00\n      dup1\n      revert\n        /* \"@openzeppelin/contracts/access/AccessControl.sol\":2565:2767  function supportsInterface(bytes4 interfaceId) public view virtual override returns (bool) {... */\n    tag_3:\n      tag_18\n      0x04\n      dup1\n      calldatasize\n      sub\n      dup2\n      add\n      swap1\n      tag_19\n      swap2\n      swap1\n      tag_20\n      jump\t// in\n    tag_19:\n      tag_21\n      jump\t// in\n    tag_18:\n      mload(0x40)\n      tag_22\n      swap2\n      swap1\n      tag_23\n      jump\t// in\n    tag_22:\n      mload(0x40)\n      dup1\n      swap2\n      sub\n      swap1\n      return\n        /* \"@openzeppelin/contracts/access/AccessControl.sol\":3810:3930  function getRoleAdmin(bytes32 role) public view virtual returns (bytes32) {... */\n    tag_4:\n      tag_24\n      0x04\n      dup1\n      calldatasize\n      sub\n      dup2\n      add\n      swap1\n      tag_25\n      swap2\n      swap1\n      tag_26\n      jump\t// in\n    tag_25:\n      tag_27\n      jump\t// in\n    tag_24:\n      mload(0x40)\n      tag_28\n      swap2\n      swap1\n      tag_29\n      jump\t// in\n    tag_28:\n      mload(0x40)\n      dup1\n      swap2\n      sub\n      swap1\n      return\n        /* \"contracts/security/audit/AuditLogger.sol\":1517:1643  function getActionLogs(string memory action) external view returns (bytes[] memory) {... */\n    tag_5:\n      tag_30\n      0x04\n      dup1\n      calldatasize\n      sub\n      dup2\n      add\n      swap1\n      tag_31\n      swap2\n      swap1\n      tag_32\n      jump\t// in\n    tag_31:\n      tag_33\n      jump\t// in\n    tag_30:\n      mload(0x40)\n      tag_34\n      swap2\n      swap1\n      tag_35\n      jump\t// in\n    tag_34:\n      mload(0x40)\n      dup1\n      swap2\n      sub\n      swap1\n      return\n        /* \"@openzeppelin/contracts/access/AccessControl.sol\":4226:4362  function grantRole(bytes32 role, address account) public virtual onlyRole(getRoleAdmin(role)) {... */\n    tag_6:\n      tag_36\n      0x04\n      dup1\n      calldatasize\n      sub\n      dup2\n      add\n      swap1\n      tag_37\n      swap2\n      swap1\n      tag_38\n      jump\t// in\n    tag_37:\n      tag_39\n      jump\t// in\n    tag_36:\n      stop\n        /* \"@openzeppelin/contracts/access/AccessControl.sol\":5328:5573  function renounceRole(bytes32 role, address callerConfirmation) public virtual {... */\n    tag_7:\n      tag_40\n      0x04\n      dup1\n      calldatasize\n      sub\n      dup2\n      add\n      swap1\n      tag_41\n      swap2\n      swap1\n      tag_38\n      jump\t// in\n    tag_41:\n      tag_42\n      jump\t// in\n    tag_40:\n      stop\n        /* \"contracts/security/audit/AuditLogger.sol\":2054:2186  function revokeAuditorRole(address account) external onlyRole(DEFAULT_ADMIN_ROLE) {... */\n    tag_8:\n      tag_43\n      0x04\n      dup1\n      calldatasize\n      sub\n      dup2\n      add\n      swap1\n      tag_44\n      swap2\n      swap1\n      tag_45\n      jump\t// in\n    tag_44:\n      tag_46\n      jump\t// in\n    tag_43:\n      stop\n        /* \"contracts/security/audit/AuditLogger.sol\":1782:1912  function grantAuditorRole(address account) external onlyRole(DEFAULT_ADMIN_ROLE) {... */\n    tag_9:\n      tag_47\n      0x04\n      dup1\n      calldatasize\n      sub\n      dup2\n      add\n      swap1\n      tag_48\n      swap2\n      swap1\n      tag_45\n      jump\t// in\n    tag_48:\n      tag_49\n      jump\t// in\n    tag_47:\n      stop\n        /* \"contracts/security/audit/AuditLogger.sol\":417:481  bytes32 public constant AUDITOR_ROLE = keccak256(\"AUDITOR_ROLE\") */\n    tag_10:\n      tag_50\n      tag_51\n      jump\t// in\n    tag_50:\n      mload(0x40)\n      tag_52\n      swap2\n      swap1\n      tag_29\n      jump\t// in\n    tag_52:\n      mload(0x40)\n      dup1\n      swap2\n      sub\n      swap1\n      return\n        /* \"@openzeppelin/contracts/access/AccessControl.sol\":2854:2990  function hasRole(bytes32 role, address account) public view virtual returns (bool) {... */\n    tag_11:\n      tag_53\n      0x04\n      dup1\n      calldatasize\n      sub\n      dup2\n      add\n      swap1\n      tag_54\n      swap2\n      swap1\n      tag_38\n      jump\t// in\n    tag_54:\n      tag_55\n      jump\t// in\n    tag_53:\n      mload(0x40)\n      tag_56\n      swap2\n      swap1\n      tag_23\n      jump\t// in\n    tag_56:\n      mload(0x40)\n      dup1\n      swap2\n      sub\n      swap1\n      return\n        /* \"@openzeppelin/contracts/access/AccessControl.sol\":2187:2236  bytes32 public constant DEFAULT_ADMIN_ROLE = 0x00 */\n    tag_12:\n      tag_57\n      tag_58\n      jump\t// in\n    tag_57:\n      mload(0x40)\n      tag_59\n      swap2\n      swap1\n      tag_29\n      jump\t// in\n    tag_59:\n      mload(0x40)\n      dup1\n      swap2\n      sub\n      swap1\n      return\n        /* \"contracts/security/audit/AuditLogger.sol\":2380:2504  function hasAuditorRole(address account) external view returns (bool) {... */\n    tag_13:\n      tag_60\n      0x04\n      dup1\n      calldatasize\n      sub\n      dup2\n      add\n      swap1\n      tag_61\n      swap2\n      swap1\n      tag_45\n      jump\t// in\n    tag_61:\n      tag_62\n      jump\t// in\n    tag_60:\n      mload(0x40)\n      tag_63\n      swap2\n      swap1\n      tag_23\n      jump\t// in\n    tag_63:\n      mload(0x40)\n      dup1\n      swap2\n      sub\n      swap1\n      return\n        /* \"@openzeppelin/contracts/access/AccessControl.sol\":4642:4780  function revokeRole(bytes32 role, address account) public virtual onlyRole(getRoleAdmin(role)) {... */\n    tag_14:\n      tag_64\n      0x04\n      dup1\n      calldatasize\n      sub\n      dup2\n      add\n      swap1\n      tag_65\n      swap2\n      swap1\n      tag_38\n      jump\t// in\n    tag_65:\n      tag_66\n      jump\t// in\n    tag_64:\n      stop\n        /* \"contracts/security/audit/AuditLogger.sol\":1067:1298  function logSecurityEvent(string memory action, bytes memory details) external onlyRole(AUDITOR_ROLE) {... */\n    tag_15:\n      tag_67\n      0x04\n      dup1\n      calldatasize\n      sub\n      dup2\n      add\n      swap1\n      tag_68\n      swap2\n      swap1\n      tag_69\n      jump\t// in\n    tag_68:\n      tag_70\n      jump\t// in\n    tag_67:\n      stop\n        /* \"@openzeppelin/contracts/access/AccessControl.sol\":2565:2767  function supportsInterface(bytes4 interfaceId) public view virtual override returns (bool) {... */\n    tag_21:\n        /* \"@openzeppelin/contracts/access/AccessControl.sol\":2650:2654  bool */\n      0x00\n        /* \"@openzeppelin/contracts/access/AccessControl.sol\":2688:2720  type(IAccessControl).interfaceId */\n      0x7965db0b00000000000000000000000000000000000000000000000000000000\n        /* \"@openzeppelin/contracts/access/AccessControl.sol\":2673:2720  interfaceId == type(IAccessControl).interfaceId */\n      not(0xffffffffffffffffffffffffffffffffffffffffffffffffffffffff)\n      and\n        /* \"@openzeppelin/contracts/access/AccessControl.sol\":2673:2684  interfaceId */\n      dup3\n        /* \"@openzeppelin/contracts/access/AccessControl.sol\":2673:2720  interfaceId == type(IAccessControl).interfaceId */\n      not(0xffffffffffffffffffffffffffffffffffffffffffffffffffffffff)\n      and\n      eq\n        /* \"@openzeppelin/contracts/access/AccessControl.sol\":2673:2760  interfaceId == type(IAccessControl).interfaceId || super.supportsInterface(interfaceId) */\n      dup1\n      tag_72\n      jumpi\n      pop\n        /* \"@openzeppelin/contracts/access/AccessControl.sol\":2724:2760  super.supportsInterface(interfaceId) */\n      tag_73\n        /* \"@openzeppelin/contracts/access/AccessControl.sol\":2748:2759  interfaceId */\n      dup3\n        /* \"@openzeppelin/contracts/access/AccessControl.sol\":2724:2747  super.supportsInterface */\n      tag_74\n        /* \"@openzeppelin/contracts/access/AccessControl.sol\":2724:2760  super.supportsInterface(interfaceId) */\n      jump\t// in\n    tag_73:\n        /* \"@openzeppelin/contracts/access/AccessControl.sol\":2673:2760  interfaceId == type(IAccessControl).interfaceId || super.supportsInterface(interfaceId) */\n    tag_72:\n        /* \"@openzeppelin/contracts/access/AccessControl.sol\":2666:2760  return interfaceId == type(IAccessControl).interfaceId || super.supportsInterface(interfaceId) */\n      swap1\n      pop\n        /* \"@openzeppelin/contracts/access/AccessControl.sol\":2565:2767  function supportsInterface(bytes4 interfaceId) public view virtual override returns (bool) {... */\n      swap2\n      swap1\n      pop\n      jump\t// out\n        /* \"@openzeppelin/contracts/access/AccessControl.sol\":3810:3930  function getRoleAdmin(bytes32 role) public view virtual returns (bytes32) {... */\n    tag_27:\n        /* \"@openzeppelin/contracts/access/AccessControl.sol\":3875:3882  bytes32 */\n      0x00\n        /* \"@openzeppelin/contracts/access/AccessControl.sol\":3901:3907  _roles */\n      dup1\n        /* \"@openzeppelin/contracts/access/AccessControl.sol\":3901:3913  _roles[role] */\n      0x00\n        /* \"@openzeppelin/contracts/access/AccessControl.sol\":3908:3912  role */\n      dup4\n        /* \"@openzeppelin/contracts/access/AccessControl.sol\":3901:3913  _roles[role] */\n      dup2\n      mstore\n      0x20\n      add\n      swap1\n      dup2\n      mstore\n      0x20\n      add\n      0x00\n      keccak256\n        /* \"@openzeppelin/contracts/access/AccessControl.sol\":3901:3923  _roles[role].adminRole */\n      0x01\n      add\n      sload\n        /* \"@openzeppelin/contracts/access/AccessControl.sol\":3894:3923  return _roles[role].adminRole */\n      swap1\n      pop\n        /* \"@openzeppelin/contracts/access/AccessControl.sol\":3810:3930  function getRoleAdmin(bytes32 role) public view virtual returns (bytes32) {... */\n      swap2\n      swap1\n      pop\n      jump\t// out\n        /* \"contracts/security/audit/AuditLogger.sol\":1517:1643  function getActionLogs(string memory action) external view returns (bytes[] memory) {... */\n    tag_33:\n        /* \"contracts/security/audit/AuditLogger.sol\":1585:1599  bytes[] memory */\n      0x60\n        /* \"contracts/security/audit/AuditLogger.sol\":1618:1628  actionLogs */\n      0x01\n        /* \"contracts/security/audit/AuditLogger.sol\":1629:1635  action */\n      dup3\n        /* \"contracts/security/audit/AuditLogger.sol\":1618:1636  actionLogs[action] */\n      mload(0x40)\n      tag_77\n      swap2\n      swap1\n      tag_78\n      jump\t// in\n    tag_77:\n      swap1\n      dup2\n      mstore\n      0x20\n      add\n      mload(0x40)\n      dup1\n      swap2\n      sub\n      swap1\n      keccak256\n        /* \"contracts/security/audit/AuditLogger.sol\":1611:1636  return actionLogs[action] */\n      dup1\n      sload\n      dup1\n      0x20\n      mul\n      0x20\n      add\n      mload(0x40)\n      swap1\n      dup2\n      add\n      0x40\n      mstore\n      dup1\n      swap3\n      swap2\n      swap1\n      dup2\n      dup2\n      mstore\n      0x20\n      add\n      0x00\n      swap1\n    tag_79:\n      dup3\n      dup3\n      lt\n      iszero\n      tag_80\n      jumpi\n      dup4\n      dup3\n      swap1\n      0x00\n      mstore\n      keccak256(0x00, 0x20)\n      add\n      dup1\n      sload\n      tag_82\n      swap1\n      tag_83\n      jump\t// in\n    tag_82:\n      dup1\n      0x1f\n      add\n      0x20\n      dup1\n      swap2\n      div\n      mul\n      0x20\n      add\n      mload(0x40)\n      swap1\n      dup2\n      add\n      0x40\n      mstore\n      dup1\n      swap3\n      swap2\n      swap1\n      dup2\n      dup2\n      mstore\n      0x20\n      add\n      dup3\n      dup1\n      sload\n      tag_84\n      swap1\n      tag_83\n      jump\t// in\n    tag_84:\n      dup1\n      iszero\n      tag_85\n      jumpi\n      dup1\n      0x1f\n      lt\n      tag_86\n      jumpi\n      0x0100\n      dup1\n      dup4\n      sload\n      div\n      mul\n      dup4\n      mstore\n      swap2\n      0x20\n      add\n      swap2\n      jump(tag_85)\n    tag_86:\n      dup3\n      add\n      swap2\n      swap1\n      0x00\n      mstore\n      keccak256(0x00, 0x20)\n      swap1\n    tag_87:\n      dup2\n      sload\n      dup2\n      mstore\n      swap1\n      0x01\n      add\n      swap1\n      0x20\n      add\n      dup1\n      dup4\n      gt\n      tag_87\n      jumpi\n      dup3\n      swap1\n      sub\n      0x1f\n      and\n      dup3\n      add\n      swap2\n    tag_85:\n      pop\n      pop\n      pop\n      pop\n      pop\n      dup2\n      mstore\n      0x20\n      add\n      swap1\n      0x01\n      add\n      swap1\n      jump(tag_79)\n    tag_80:\n      pop\n      pop\n      pop\n      pop\n      swap1\n      pop\n        /* \"contracts/security/audit/AuditLogger.sol\":1517:1643  function getActionLogs(string memory action) external view returns (bytes[] memory) {... */\n      swap2\n      swap1\n      pop\n      jump\t// out\n        /* \"@openzeppelin/contracts/access/AccessControl.sol\":4226:4362  function grantRole(bytes32 role, address account) public virtual onlyRole(getRoleAdmin(role)) {... */\n    tag_39:\n        /* \"@openzeppelin/contracts/access/AccessControl.sol\":4300:4318  getRoleAdmin(role) */\n      tag_88\n        /* \"@openzeppelin/contracts/access/AccessControl.sol\":4313:4317  role */\n      dup3\n        /* \"@openzeppelin/contracts/access/AccessControl.sol\":4300:4312  getRoleAdmin */\n      tag_27\n        /* \"@openzeppelin/contracts/access/AccessControl.sol\":4300:4318  getRoleAdmin(role) */\n      jump\t// in\n    tag_88:\n        /* \"@openzeppelin/contracts/access/AccessControl.sol\":2464:2480  _checkRole(role) */\n      tag_90\n        /* \"@openzeppelin/contracts/access/AccessControl.sol\":2475:2479  role */\n      dup2\n        /* \"@openzeppelin/contracts/access/AccessControl.sol\":2464:2474  _checkRole */\n      tag_91\n        /* \"@openzeppelin/contracts/access/AccessControl.sol\":2464:2480  _checkRole(role) */\n      jump\t// in\n    tag_90:\n        /* \"@openzeppelin/contracts/access/AccessControl.sol\":4330:4355  _grantRole(role, account) */\n      tag_93\n        /* \"@openzeppelin/contracts/access/AccessControl.sol\":4341:4345  role */\n      dup4\n        /* \"@openzeppelin/contracts/access/AccessControl.sol\":4347:4354  account */\n      dup4\n        /* \"@openzeppelin/contracts/access/AccessControl.sol\":4330:4340  _grantRole */\n      tag_94\n        /* \"@openzeppelin/contracts/access/AccessControl.sol\":4330:4355  _grantRole(role, account) */\n      jump\t// in\n    tag_93:\n      pop\n        /* \"@openzeppelin/contracts/access/AccessControl.sol\":4226:4362  function grantRole(bytes32 role, address account) public virtual onlyRole(getRoleAdmin(role)) {... */\n      pop\n      pop\n      pop\n      jump\t// out\n        /* \"@openzeppelin/contracts/access/AccessControl.sol\":5328:5573  function renounceRole(bytes32 role, address callerConfirmation) public virtual {... */\n    tag_42:\n        /* \"@openzeppelin/contracts/access/AccessControl.sol\":5443:5455  _msgSender() */\n      tag_96\n        /* \"@openzeppelin/contracts/access/AccessControl.sol\":5443:5453  _msgSender */\n      tag_97\n        /* \"@openzeppelin/contracts/access/AccessControl.sol\":5443:5455  _msgSender() */\n      jump\t// in\n    tag_96:\n        /* \"@openzeppelin/contracts/access/AccessControl.sol\":5421:5455  callerConfirmation != _msgSender() */\n      0xffffffffffffffffffffffffffffffffffffffff\n      and\n        /* \"@openzeppelin/contracts/access/AccessControl.sol\":5421:5439  callerConfirmation */\n      dup2\n        /* \"@openzeppelin/contracts/access/AccessControl.sol\":5421:5455  callerConfirmation != _msgSender() */\n      0xffffffffffffffffffffffffffffffffffffffff\n      and\n      eq\n        /* \"@openzeppelin/contracts/access/AccessControl.sol\":5417:5519  if (callerConfirmation != _msgSender()) {... */\n      tag_98\n      jumpi\n        /* \"@openzeppelin/contracts/access/AccessControl.sol\":5478:5508  AccessControlBadConfirmation() */\n      mload(0x40)\n      0x6697b23200000000000000000000000000000000000000000000000000000000\n      dup2\n      mstore\n      0x04\n      add\n      mload(0x40)\n      dup1\n      swap2\n      sub\n      swap1\n      revert\n        /* \"@openzeppelin/contracts/access/AccessControl.sol\":5417:5519  if (callerConfirmation != _msgSender()) {... */\n    tag_98:\n        /* \"@openzeppelin/contracts/access/AccessControl.sol\":5529:5566  _revokeRole(role, callerConfirmation) */\n      tag_99\n        /* \"@openzeppelin/contracts/access/AccessControl.sol\":5541:5545  role */\n      dup3\n        /* \"@openzeppelin/contracts/access/AccessControl.sol\":5547:5565  callerConfirmation */\n      dup3\n        /* \"@openzeppelin/contracts/access/AccessControl.sol\":5529:5540  _revokeRole */\n      tag_100\n        /* \"@openzeppelin/contracts/access/AccessControl.sol\":5529:5566  _revokeRole(role, callerConfirmation) */\n      jump\t// in\n    tag_99:\n      pop\n        /* \"@openzeppelin/contracts/access/AccessControl.sol\":5328:5573  function renounceRole(bytes32 role, address callerConfirmation) public virtual {... */\n      pop\n      pop\n      jump\t// out\n        /* \"contracts/security/audit/AuditLogger.sol\":2054:2186  function revokeAuditorRole(address account) external onlyRole(DEFAULT_ADMIN_ROLE) {... */\n    tag_46:\n        /* \"@openzeppelin/contracts/access/AccessControl.sol\":2232:2236  0x00 */\n      0x00\n        /* \"contracts/security/audit/AuditLogger.sol\":2116:2134  DEFAULT_ADMIN_ROLE */\n      dup1\n      shl\n        /* \"@openzeppelin/contracts/access/AccessControl.sol\":2464:2480  _checkRole(role) */\n      tag_102\n        /* \"@openzeppelin/contracts/access/AccessControl.sol\":2475:2479  role */\n      dup2\n        /* \"@openzeppelin/contracts/access/AccessControl.sol\":2464:2474  _checkRole */\n      tag_91\n        /* \"@openzeppelin/contracts/access/AccessControl.sol\":2464:2480  _checkRole(role) */\n      jump\t// in\n    tag_102:\n        /* \"contracts/security/audit/AuditLogger.sol\":2146:2179  revokeRole(AUDITOR_ROLE, account) */\n      tag_104\n        /* \"contracts/security/audit/AuditLogger.sol\":456:481  keccak256(\"AUDITOR_ROLE\") */\n      0x59a1c48e5837ad7a7f3dcedcbe129bf3249ec4fbf651fd4f5e2600ead39fe2f5\n        /* \"contracts/security/audit/AuditLogger.sol\":2171:2178  account */\n      dup4\n        /* \"contracts/security/audit/AuditLogger.sol\":2146:2156  revokeRole */\n      tag_66\n        /* \"contracts/security/audit/AuditLogger.sol\":2146:2179  revokeRole(AUDITOR_ROLE, account) */\n      jump\t// in\n    tag_104:\n        /* \"contracts/security/audit/AuditLogger.sol\":2054:2186  function revokeAuditorRole(address account) external onlyRole(DEFAULT_ADMIN_ROLE) {... */\n      pop\n      pop\n      jump\t// out\n        /* \"contracts/security/audit/AuditLogger.sol\":1782:1912  function grantAuditorRole(address account) external onlyRole(DEFAULT_ADMIN_ROLE) {... */\n    tag_49:\n        /* \"@openzeppelin/contracts/access/AccessControl.sol\":2232:2236  0x00 */\n      0x00\n        /* \"contracts/security/audit/AuditLogger.sol\":1843:1861  DEFAULT_ADMIN_ROLE */\n      dup1\n      shl\n        /* \"@openzeppelin/contracts/access/AccessControl.sol\":2464:2480  _checkRole(role) */\n      tag_106\n        /* \"@openzeppelin/contracts/access/AccessControl.sol\":2475:2479  role */\n      dup2\n        /* \"@openzeppelin/contracts/access/AccessControl.sol\":2464:2474  _checkRole */\n      tag_91\n        /* \"@openzeppelin/contracts/access/AccessControl.sol\":2464:2480  _checkRole(role) */\n      jump\t// in\n    tag_106:\n        /* \"contracts/security/audit/AuditLogger.sol\":1873:1905  grantRole(AUDITOR_ROLE, account) */\n      tag_108\n        /* \"contracts/security/audit/AuditLogger.sol\":456:481  keccak256(\"AUDITOR_ROLE\") */\n      0x59a1c48e5837ad7a7f3dcedcbe129bf3249ec4fbf651fd4f5e2600ead39fe2f5\n        /* \"contracts/security/audit/AuditLogger.sol\":1897:1904  account */\n      dup4\n        /* \"contracts/security/audit/AuditLogger.sol\":1873:1882  grantRole */\n      tag_39\n        /* \"contracts/security/audit/AuditLogger.sol\":1873:1905  grantRole(AUDITOR_ROLE, account) */\n      jump\t// in\n    tag_108:\n        /* \"contracts/security/audit/AuditLogger.sol\":1782:1912  function grantAuditorRole(address account) external onlyRole(DEFAULT_ADMIN_ROLE) {... */\n      pop\n      pop\n      jump\t// out\n        /* \"contracts/security/audit/AuditLogger.sol\":417:481  bytes32 public constant AUDITOR_ROLE = keccak256(\"AUDITOR_ROLE\") */\n    tag_51:\n        /* \"contracts/security/audit/AuditLogger.sol\":456:481  keccak256(\"AUDITOR_ROLE\") */\n      0x59a1c48e5837ad7a7f3dcedcbe129bf3249ec4fbf651fd4f5e2600ead39fe2f5\n        /* \"contracts/security/audit/AuditLogger.sol\":417:481  bytes32 public constant AUDITOR_ROLE = keccak256(\"AUDITOR_ROLE\") */\n      dup2\n      jump\t// out\n        /* \"@openzeppelin/contracts/access/AccessControl.sol\":2854:2990  function hasRole(bytes32 role, address account) public view virtual returns (bool) {... */\n    tag_55:\n        /* \"@openzeppelin/contracts/access/AccessControl.sol\":2931:2935  bool */\n      0x00\n        /* \"@openzeppelin/contracts/access/AccessControl.sol\":2954:2960  _roles */\n      dup1\n        /* \"@openzeppelin/contracts/access/AccessControl.sol\":2954:2966  _roles[role] */\n      0x00\n        /* \"@openzeppelin/contracts/access/AccessControl.sol\":2961:2965  role */\n      dup5\n        /* \"@openzeppelin/contracts/access/AccessControl.sol\":2954:2966  _roles[role] */\n      dup2\n      mstore\n      0x20\n      add\n      swap1\n      dup2\n      mstore\n      0x20\n      add\n      0x00\n      keccak256\n        /* \"@openzeppelin/contracts/access/AccessControl.sol\":2954:2974  _roles[role].hasRole */\n      0x00\n      add\n        /* \"@openzeppelin/contracts/access/AccessControl.sol\":2954:2983  _roles[role].hasRole[account] */\n      0x00\n        /* \"@openzeppelin/contracts/access/AccessControl.sol\":2975:2982  account */\n      dup4\n        /* \"@openzeppelin/contracts/access/AccessControl.sol\":2954:2983  _roles[role].hasRole[account] */\n      0xffffffffffffffffffffffffffffffffffffffff\n      and\n      0xffffffffffffffffffffffffffffffffffffffff\n      and\n      dup2\n      mstore\n      0x20\n      add\n      swap1\n      dup2\n      mstore\n      0x20\n      add\n      0x00\n      keccak256\n      0x00\n      swap1\n      sload\n      swap1\n      0x0100\n      exp\n      swap1\n      div\n      0xff\n      and\n        /* \"@openzeppelin/contracts/access/AccessControl.sol\":2947:2983  return _roles[role].hasRole[account] */\n      swap1\n      pop\n        /* \"@openzeppelin/contracts/access/AccessControl.sol\":2854:2990  function hasRole(bytes32 role, address account) public view virtual returns (bool) {... */\n      swap3\n      swap2\n      pop\n      pop\n      jump\t// out\n        /* \"@openzeppelin/contracts/access/AccessControl.sol\":2187:2236  bytes32 public constant DEFAULT_ADMIN_ROLE = 0x00 */\n    tag_58:\n        /* \"@openzeppelin/contracts/access/AccessControl.sol\":2232:2236  0x00 */\n      0x00\n        /* \"@openzeppelin/contracts/access/AccessControl.sol\":2187:2236  bytes32 public constant DEFAULT_ADMIN_ROLE = 0x00 */\n      dup1\n      shl\n      dup2\n      jump\t// out\n        /* \"contracts/security/audit/AuditLogger.sol\":2380:2504  function hasAuditorRole(address account) external view returns (bool) {... */\n    tag_62:\n        /* \"contracts/security/audit/AuditLogger.sol\":2444:2448  bool */\n      0x00\n        /* \"contracts/security/audit/AuditLogger.sol\":2467:2497  hasRole(AUDITOR_ROLE, account) */\n      tag_111\n        /* \"contracts/security/audit/AuditLogger.sol\":456:481  keccak256(\"AUDITOR_ROLE\") */\n      0x59a1c48e5837ad7a7f3dcedcbe129bf3249ec4fbf651fd4f5e2600ead39fe2f5\n        /* \"contracts/security/audit/AuditLogger.sol\":2489:2496  account */\n      dup4\n        /* \"contracts/security/audit/AuditLogger.sol\":2467:2474  hasRole */\n      tag_55\n        /* \"contracts/security/audit/AuditLogger.sol\":2467:2497  hasRole(AUDITOR_ROLE, account) */\n      jump\t// in\n    tag_111:\n        /* \"contracts/security/audit/AuditLogger.sol\":2460:2497  return hasRole(AUDITOR_ROLE, account) */\n      swap1\n      pop\n        /* \"contracts/security/audit/AuditLogger.sol\":2380:2504  function hasAuditorRole(address account) external view returns (bool) {... */\n      swap2\n      swap1\n      pop\n      jump\t// out\n        /* \"@openzeppelin/contracts/access/AccessControl.sol\":4642:4780  function revokeRole(bytes32 role, address account) public virtual onlyRole(getRoleAdmin(role)) {... */\n    tag_66:\n        /* \"@openzeppelin/contracts/access/AccessControl.sol\":4717:4735  getRoleAdmin(role) */\n      tag_112\n        /* \"@openzeppelin/contracts/access/AccessControl.sol\":4730:4734  role */\n      dup3\n        /* \"@openzeppelin/contracts/access/AccessControl.sol\":4717:4729  getRoleAdmin */\n      tag_27\n        /* \"@openzeppelin/contracts/access/AccessControl.sol\":4717:4735  getRoleAdmin(role) */\n      jump\t// in\n    tag_112:\n        /* \"@openzeppelin/contracts/access/AccessControl.sol\":2464:2480  _checkRole(role) */\n      tag_114\n        /* \"@openzeppelin/contracts/access/AccessControl.sol\":2475:2479  role */\n      dup2\n        /* \"@openzeppelin/contracts/access/AccessControl.sol\":2464:2474  _checkRole */\n      tag_91\n        /* \"@openzeppelin/contracts/access/AccessControl.sol\":2464:2480  _checkRole(role) */\n      jump\t// in\n    tag_114:\n        /* \"@openzeppelin/contracts/access/AccessControl.sol\":4747:4773  _revokeRole(role, account) */\n      tag_116\n        /* \"@openzeppelin/contracts/access/AccessControl.sol\":4759:4763  role */\n      dup4\n        /* \"@openzeppelin/contracts/access/AccessControl.sol\":4765:4772  account */\n      dup4\n        /* \"@openzeppelin/contracts/access/AccessControl.sol\":4747:4758  _revokeRole */\n      tag_100\n        /* \"@openzeppelin/contracts/access/AccessControl.sol\":4747:4773  _revokeRole(role, account) */\n      jump\t// in\n    tag_116:\n      pop\n        /* \"@openzeppelin/contracts/access/AccessControl.sol\":4642:4780  function revokeRole(bytes32 role, address account) public virtual onlyRole(getRoleAdmin(role)) {... */\n      pop\n      pop\n      pop\n      jump\t// out\n        /* \"contracts/security/audit/AuditLogger.sol\":1067:1298  function logSecurityEvent(string memory action, bytes memory details) external onlyRole(AUDITOR_ROLE) {... */\n    tag_70:\n        /* \"contracts/security/audit/AuditLogger.sol\":456:481  keccak256(\"AUDITOR_ROLE\") */\n      0x59a1c48e5837ad7a7f3dcedcbe129bf3249ec4fbf651fd4f5e2600ead39fe2f5\n        /* \"@openzeppelin/contracts/access/AccessControl.sol\":2464:2480  _checkRole(role) */\n      tag_118\n        /* \"@openzeppelin/contracts/access/AccessControl.sol\":2475:2479  role */\n      dup2\n        /* \"@openzeppelin/contracts/access/AccessControl.sol\":2464:2474  _checkRole */\n      tag_91\n        /* \"@openzeppelin/contracts/access/AccessControl.sol\":2464:2480  _checkRole(role) */\n      jump\t// in\n    tag_118:\n        /* \"contracts/security/audit/AuditLogger.sol\":1204:1214  msg.sender */\n      caller\n        /* \"contracts/security/audit/AuditLogger.sol\":1184:1249  SecurityEventLogged(msg.sender, action, block.timestamp, details) */\n      0xffffffffffffffffffffffffffffffffffffffff\n      and\n      0xf184132c287f2b516a8ee5fe2edd23690672cc98ccf6baa4a231bed12174af07\n        /* \"contracts/security/audit/AuditLogger.sol\":1216:1222  action */\n      dup5\n        /* \"contracts/security/audit/AuditLogger.sol\":1224:1239  block.timestamp */\n      timestamp\n        /* \"contracts/security/audit/AuditLogger.sol\":1241:1248  details */\n      dup6\n        /* \"contracts/security/audit/AuditLogger.sol\":1184:1249  SecurityEventLogged(msg.sender, action, block.timestamp, details) */\n      mload(0x40)\n      tag_120\n      swap4\n      swap3\n      swap2\n      swap1\n      tag_121\n      jump\t// in\n    tag_120:\n      mload(0x40)\n      dup1\n      swap2\n      sub\n      swap1\n      log2\n        /* \"contracts/security/audit/AuditLogger.sol\":1259:1269  actionLogs */\n      0x01\n        /* \"contracts/security/audit/AuditLogger.sol\":1270:1276  action */\n      dup4\n        /* \"contracts/security/audit/AuditLogger.sol\":1259:1277  actionLogs[action] */\n      mload(0x40)\n      tag_122\n      swap2\n      swap1\n      tag_78\n      jump\t// in\n    tag_122:\n      swap1\n      dup2\n      mstore\n      0x20\n      add\n      mload(0x40)\n      dup1\n      swap2\n      sub\n      swap1\n      keccak256\n        /* \"contracts/security/audit/AuditLogger.sol\":1283:1290  details */\n      dup3\n        /* \"contracts/security/audit/AuditLogger.sol\":1259:1291  actionLogs[action].push(details) */\n      swap1\n      dup1\n      0x01\n      dup2\n      sload\n      add\n      dup1\n      dup3\n      sstore\n      dup1\n      swap2\n      pop\n      pop\n      0x01\n      swap1\n      sub\n      swap1\n      0x00\n      mstore\n      keccak256(0x00, 0x20)\n      add\n      0x00\n      swap1\n      swap2\n      swap1\n      swap2\n      swap1\n      swap2\n      pop\n      swap1\n      dup2\n      tag_124\n      swap2\n      swap1\n      tag_125\n      jump\t// in\n    tag_124:\n      pop\n        /* \"contracts/security/audit/AuditLogger.sol\":1067:1298  function logSecurityEvent(string memory action, bytes memory details) external onlyRole(AUDITOR_ROLE) {... */\n      pop\n      pop\n      pop\n      jump\t// out\n        /* \"@openzeppelin/contracts/utils/introspection/ERC165.sol\":762:908  function supportsInterface(bytes4 interfaceId) public view virtual returns (bool) {... */\n    tag_74:\n        /* \"@openzeppelin/contracts/utils/introspection/ERC165.sol\":838:842  bool */\n      0x00\n        /* \"@openzeppelin/contracts/utils/introspection/ERC165.sol\":876:901  type(IERC165).interfaceId */\n      0x01ffc9a700000000000000000000000000000000000000000000000000000000\n        /* \"@openzeppelin/contracts/utils/introspection/ERC165.sol\":861:901  interfaceId == type(IERC165).interfaceId */\n      not(0xffffffffffffffffffffffffffffffffffffffffffffffffffffffff)\n      and\n        /* \"@openzeppelin/contracts/utils/introspection/ERC165.sol\":861:872  interfaceId */\n      dup3\n        /* \"@openzeppelin/contracts/utils/introspection/ERC165.sol\":861:901  interfaceId == type(IERC165).interfaceId */\n      not(0xffffffffffffffffffffffffffffffffffffffffffffffffffffffff)\n      and\n      eq\n        /* \"@openzeppelin/contracts/utils/introspection/ERC165.sol\":854:901  return interfaceId == type(IERC165).interfaceId */\n      swap1\n      pop\n        /* \"@openzeppelin/contracts/utils/introspection/ERC165.sol\":762:908  function supportsInterface(bytes4 interfaceId) public view virtual returns (bool) {... */\n      swap2\n      swap1\n      pop\n      jump\t// out\n        /* \"@openzeppelin/contracts/access/AccessControl.sol\":3199:3302  function _checkRole(bytes32 role) internal view virtual {... */\n    tag_91:\n        /* \"@openzeppelin/contracts/access/AccessControl.sol\":3265:3295  _checkRole(role, _msgSender()) */\n      tag_128\n        /* \"@openzeppelin/contracts/access/AccessControl.sol\":3276:3280  role */\n      dup2\n        /* \"@openzeppelin/contracts/access/AccessControl.sol\":3282:3294  _msgSender() */\n      tag_129\n        /* \"@openzeppelin/contracts/access/AccessControl.sol\":3282:3292  _msgSender */\n      tag_97\n        /* \"@openzeppelin/contracts/access/AccessControl.sol\":3282:3294  _msgSender() */\n      jump\t// in\n    tag_129:\n        /* \"@openzeppelin/contracts/access/AccessControl.sol\":3265:3275  _checkRole */\n      tag_130\n        /* \"@openzeppelin/contracts/access/AccessControl.sol\":3265:3295  _checkRole(role, _msgSender()) */\n      jump\t// in\n    tag_128:\n        /* \"@openzeppelin/contracts/access/AccessControl.sol\":3199:3302  function _checkRole(bytes32 role) internal view virtual {... */\n      pop\n      jump\t// out\n        /* \"@openzeppelin/contracts/access/AccessControl.sol\":6179:6495  function _grantRole(bytes32 role, address account) internal virtual returns (bool) {... */\n    tag_94:\n        /* \"@openzeppelin/contracts/access/AccessControl.sol\":6256:6260  bool */\n      0x00\n        /* \"@openzeppelin/contracts/access/AccessControl.sol\":6277:6299  hasRole(role, account) */\n      tag_132\n        /* \"@openzeppelin/contracts/access/AccessControl.sol\":6285:6289  role */\n      dup4\n        /* \"@openzeppelin/contracts/access/AccessControl.sol\":6291:6298  account */\n      dup4\n        /* \"@openzeppelin/contracts/access/AccessControl.sol\":6277:6284  hasRole */\n      tag_55\n        /* \"@openzeppelin/contracts/access/AccessControl.sol\":6277:6299  hasRole(role, account) */\n      jump\t// in\n    tag_132:\n        /* \"@openzeppelin/contracts/access/AccessControl.sol\":6272:6489  if (!hasRole(role, account)) {... */\n      tag_133\n      jumpi\n        /* \"@openzeppelin/contracts/access/AccessControl.sol\":6347:6351  true */\n      0x01\n        /* \"@openzeppelin/contracts/access/AccessControl.sol\":6315:6321  _roles */\n      0x00\n        /* \"@openzeppelin/contracts/access/AccessControl.sol\":6315:6327  _roles[role] */\n      dup1\n        /* \"@openzeppelin/contracts/access/AccessControl.sol\":6322:6326  role */\n      dup6\n        /* \"@openzeppelin/contracts/access/AccessControl.sol\":6315:6327  _roles[role] */\n      dup2\n      mstore\n      0x20\n      add\n      swap1\n      dup2\n      mstore\n      0x20\n      add\n      0x00\n      keccak256\n        /* \"@openzeppelin/contracts/access/AccessControl.sol\":6315:6335  _roles[role].hasRole */\n      0x00\n      add\n        /* \"@openzeppelin/contracts/access/AccessControl.sol\":6315:6344  _roles[role].hasRole[account] */\n      0x00\n        /* \"@openzeppelin/contracts/access/AccessControl.sol\":6336:6343  account */\n      dup5\n        /* \"@openzeppelin/contracts/access/AccessControl.sol\":6315:6344  _roles[role].hasRole[account] */\n      0xffffffffffffffffffffffffffffffffffffffff\n      and\n      0xffffffffffffffffffffffffffffffffffffffff\n      and\n      dup2\n      mstore\n      0x20\n      add\n      swap1\n      dup2\n      mstore\n      0x20\n      add\n      0x00\n      keccak256\n      0x00\n        /* \"@openzeppelin/contracts/access/AccessControl.sol\":6315:6351  _roles[role].hasRole[account] = true */\n      0x0100\n      exp\n      dup2\n      sload\n      dup2\n      0xff\n      mul\n      not\n      and\n      swap1\n      dup4\n      iszero\n      iszero\n      mul\n      or\n      swap1\n      sstore\n      pop\n        /* \"@openzeppelin/contracts/access/AccessControl.sol\":6397:6409  _msgSender() */\n      tag_134\n        /* \"@openzeppelin/contracts/access/AccessControl.sol\":6397:6407  _msgSender */\n      tag_97\n        /* \"@openzeppelin/contracts/access/AccessControl.sol\":6397:6409  _msgSender() */\n      jump\t// in\n    tag_134:\n        /* \"@openzeppelin/contracts/access/AccessControl.sol\":6370:6410  RoleGranted(role, account, _msgSender()) */\n      0xffffffffffffffffffffffffffffffffffffffff\n      and\n        /* \"@openzeppelin/contracts/access/AccessControl.sol\":6388:6395  account */\n      dup3\n        /* \"@openzeppelin/contracts/access/AccessControl.sol\":6370:6410  RoleGranted(role, account, _msgSender()) */\n      0xffffffffffffffffffffffffffffffffffffffff\n      and\n        /* \"@openzeppelin/contracts/access/AccessControl.sol\":6382:6386  role */\n      dup5\n        /* \"@openzeppelin/contracts/access/AccessControl.sol\":6370:6410  RoleGranted(role, account, _msgSender()) */\n      0x2f8788117e7eff1d82e926ec794901d17c78024a50270940304540a733656f0d\n      mload(0x40)\n      mload(0x40)\n      dup1\n      swap2\n      sub\n      swap1\n      log4\n        /* \"@openzeppelin/contracts/access/AccessControl.sol\":6431:6435  true */\n      0x01\n        /* \"@openzeppelin/contracts/access/AccessControl.sol\":6424:6435  return true */\n      swap1\n      pop\n      jump(tag_131)\n        /* \"@openzeppelin/contracts/access/AccessControl.sol\":6272:6489  if (!hasRole(role, account)) {... */\n    tag_133:\n        /* \"@openzeppelin/contracts/access/AccessControl.sol\":6473:6478  false */\n      0x00\n        /* \"@openzeppelin/contracts/access/AccessControl.sol\":6466:6478  return false */\n      swap1\n      pop\n        /* \"@openzeppelin/contracts/access/AccessControl.sol\":6179:6495  function _grantRole(bytes32 role, address account) internal virtual returns (bool) {... */\n    tag_131:\n      swap3\n      swap2\n      pop\n      pop\n      jump\t// out\n        /* \"@openzeppelin/contracts/utils/Context.sol\":656:752  function _msgSender() internal view virtual returns (address) {... */\n    tag_97:\n        /* \"@openzeppelin/contracts/utils/Context.sol\":709:716  address */\n      0x00\n        /* \"@openzeppelin/contracts/utils/Context.sol\":735:745  msg.sender */\n      caller\n        /* \"@openzeppelin/contracts/utils/Context.sol\":728:745  return msg.sender */\n      swap1\n      pop\n        /* \"@openzeppelin/contracts/utils/Context.sol\":656:752  function _msgSender() internal view virtual returns (address) {... */\n      swap1\n      jump\t// out\n        /* \"@openzeppelin/contracts/access/AccessControl.sol\":6730:7047  function _revokeRole(bytes32 role, address account) internal virtual returns (bool) {... */\n    tag_100:\n        /* \"@openzeppelin/contracts/access/AccessControl.sol\":6808:6812  bool */\n      0x00\n        /* \"@openzeppelin/contracts/access/AccessControl.sol\":6828:6850  hasRole(role, account) */\n      tag_138\n        /* \"@openzeppelin/contracts/access/AccessControl.sol\":6836:6840  role */\n      dup4\n        /* \"@openzeppelin/contracts/access/AccessControl.sol\":6842:6849  account */\n      dup4\n        /* \"@openzeppelin/contracts/access/AccessControl.sol\":6828:6835  hasRole */\n      tag_55\n        /* \"@openzeppelin/contracts/access/AccessControl.sol\":6828:6850  hasRole(role, account) */\n      jump\t// in\n    tag_138:\n        /* \"@openzeppelin/contracts/access/AccessControl.sol\":6824:7041  if (hasRole(role, account)) {... */\n      iszero\n      tag_139\n      jumpi\n        /* \"@openzeppelin/contracts/access/AccessControl.sol\":6898:6903  false */\n      0x00\n        /* \"@openzeppelin/contracts/access/AccessControl.sol\":6866:6872  _roles */\n      dup1\n        /* \"@openzeppelin/contracts/access/AccessControl.sol\":6866:6878  _roles[role] */\n      0x00\n        /* \"@openzeppelin/contracts/access/AccessControl.sol\":6873:6877  role */\n      dup6\n        /* \"@openzeppelin/contracts/access/AccessControl.sol\":6866:6878  _roles[role] */\n      dup2\n      mstore\n      0x20\n      add\n      swap1\n      dup2\n      mstore\n      0x20\n      add\n      0x00\n      keccak256\n        /* \"@openzeppelin/contracts/access/AccessControl.sol\":6866:6886  _roles[role].hasRole */\n      0x00\n      add\n        /* \"@openzeppelin/contracts/access/AccessControl.sol\":6866:6895  _roles[role].hasRole[account] */\n      0x00\n        /* \"@openzeppelin/contracts/access/AccessControl.sol\":6887:6894  account */\n      dup5\n        /* \"@openzeppelin/contracts/access/AccessControl.sol\":6866:6895  _roles[role].hasRole[account] */\n      0xffffffffffffffffffffffffffffffffffffffff\n      and\n      0xffffffffffffffffffffffffffffffffffffffff\n      and\n      dup2\n      mstore\n      0x20\n      add\n      swap1\n      dup2\n      mstore\n      0x20\n      add\n      0x00\n      keccak256\n      0x00\n        /* \"@openzeppelin/contracts/access/AccessControl.sol\":6866:6903  _roles[role].hasRole[account] = false */\n      0x0100\n      exp\n      dup2\n      sload\n      dup2\n      0xff\n      mul\n      not\n      and\n      swap1\n      dup4\n      iszero\n      iszero\n      mul\n      or\n      swap1\n      sstore\n      pop\n        /* \"@openzeppelin/contracts/access/AccessControl.sol\":6949:6961  _msgSender() */\n      tag_140\n        /* \"@openzeppelin/contracts/access/AccessControl.sol\":6949:6959  _msgSender */\n      tag_97\n        /* \"@openzeppelin/contracts/access/AccessControl.sol\":6949:6961  _msgSender() */\n      jump\t// in\n    tag_140:\n        /* \"@openzeppelin/contracts/access/AccessControl.sol\":6922:6962  RoleRevoked(role, account, _msgSender()) */\n      0xffffffffffffffffffffffffffffffffffffffff\n      and\n        /* \"@openzeppelin/contracts/access/AccessControl.sol\":6940:6947  account */\n      dup3\n        /* \"@openzeppelin/contracts/access/AccessControl.sol\":6922:6962  RoleRevoked(role, account, _msgSender()) */\n      0xffffffffffffffffffffffffffffffffffffffff\n      and\n        /* \"@openzeppelin/contracts/access/AccessControl.sol\":6934:6938  role */\n      dup5\n        /* \"@openzeppelin/contracts/access/AccessControl.sol\":6922:6962  RoleRevoked(role, account, _msgSender()) */\n      0xf6391f5c32d9c69d2a47ea670b442974b53935d1edc7fd64eb21e047a839171b\n      mload(0x40)\n      mload(0x40)\n      dup1\n      swap2\n      sub\n      swap1\n      log4\n        /* \"@openzeppelin/contracts/access/AccessControl.sol\":6983:6987  true */\n      0x01\n        /* \"@openzeppelin/contracts/access/AccessControl.sol\":6976:6987  return true */\n      swap1\n      pop\n      jump(tag_137)\n        /* \"@openzeppelin/contracts/access/AccessControl.sol\":6824:7041  if (hasRole(role, account)) {... */\n    tag_139:\n        /* \"@openzeppelin/contracts/access/AccessControl.sol\":7025:7030  false */\n      0x00\n        /* \"@openzeppelin/contracts/access/AccessControl.sol\":7018:7030  return false */\n      swap1\n      pop\n        /* \"@openzeppelin/contracts/access/AccessControl.sol\":6730:7047  function _revokeRole(bytes32 role, address account) internal virtual returns (bool) {... */\n    tag_137:\n      swap3\n      swap2\n      pop\n      pop\n      jump\t// out\n        /* \"@openzeppelin/contracts/access/AccessControl.sol\":3432:3629  function _checkRole(bytes32 role, address account) internal view virtual {... */\n    tag_130:\n        /* \"@openzeppelin/contracts/access/AccessControl.sol\":3520:3542  hasRole(role, account) */\n      tag_143\n        /* \"@openzeppelin/contracts/access/AccessControl.sol\":3528:3532  role */\n      dup3\n        /* \"@openzeppelin/contracts/access/AccessControl.sol\":3534:3541  account */\n      dup3\n        /* \"@openzeppelin/contracts/access/AccessControl.sol\":3520:3527  hasRole */\n      tag_55\n        /* \"@openzeppelin/contracts/access/AccessControl.sol\":3520:3542  hasRole(role, account) */\n      jump\t// in\n    tag_143:\n        /* \"@openzeppelin/contracts/access/AccessControl.sol\":3515:3623  if (!hasRole(role, account)) {... */\n      tag_144\n      jumpi\n        /* \"@openzeppelin/contracts/access/AccessControl.sol\":3598:3605  account */\n      dup1\n        /* \"@openzeppelin/contracts/access/AccessControl.sol\":3607:3611  role */\n      dup3\n        /* \"@openzeppelin/contracts/access/AccessControl.sol\":3565:3612  AccessControlUnauthorizedAccount(account, role) */\n      mload(0x40)\n      0xe2517d3f00000000000000000000000000000000000000000000000000000000\n      dup2\n      mstore\n      0x04\n      add\n      tag_145\n      swap3\n      swap2\n      swap1\n      tag_146\n      jump\t// in\n    tag_145:\n      mload(0x40)\n      dup1\n      swap2\n      sub\n      swap1\n      revert\n        /* \"@openzeppelin/contracts/access/AccessControl.sol\":3515:3623  if (!hasRole(role, account)) {... */\n    tag_144:\n        /* \"@openzeppelin/contracts/access/AccessControl.sol\":3432:3629  function _checkRole(bytes32 role, address account) internal view virtual {... */\n      pop\n      pop\n      jump\t// out\n        /* \"#utility.yul\":7:82   */\n    tag_147:\n        /* \"#utility.yul\":40:46   */\n      0x00\n        /* \"#utility.yul\":73:75   */\n      0x40\n        /* \"#utility.yul\":67:76   */\n      mload\n        /* \"#utility.yul\":57:76   */\n      swap1\n      pop\n        /* \"#utility.yul\":7:82   */\n      swap1\n      jump\t// out\n        /* \"#utility.yul\":88:205   */\n    tag_148:\n        /* \"#utility.yul\":197:198   */\n      0x00\n        /* \"#utility.yul\":194:195   */\n      dup1\n        /* \"#utility.yul\":187:199   */\n      revert\n        /* \"#utility.yul\":211:328   */\n    tag_149:\n        /* \"#utility.yul\":320:321   */\n      0x00\n        /* \"#utility.yul\":317:318   */\n      dup1\n        /* \"#utility.yul\":310:322   */\n      revert\n        /* \"#utility.yul\":334:483   */\n    tag_150:\n        /* \"#utility.yul\":370:377   */\n      0x00\n        /* \"#utility.yul\":410:476   */\n      0xffffffff00000000000000000000000000000000000000000000000000000000\n        /* \"#utility.yul\":403:408   */\n      dup3\n        /* \"#utility.yul\":399:477   */\n      and\n        /* \"#utility.yul\":388:477   */\n      swap1\n      pop\n        /* \"#utility.yul\":334:483   */\n      swap2\n      swap1\n      pop\n      jump\t// out\n        /* \"#utility.yul\":489:609   */\n    tag_151:\n        /* \"#utility.yul\":561:584   */\n      tag_218\n        /* \"#utility.yul\":578:583   */\n      dup2\n        /* \"#utility.yul\":561:584   */\n      tag_150\n      jump\t// in\n    tag_218:\n        /* \"#utility.yul\":554:559   */\n      dup2\n        /* \"#utility.yul\":551:585   */\n      eq\n        /* \"#utility.yul\":541:603   */\n      tag_219\n      jumpi\n        /* \"#utility.yul\":599:600   */\n      0x00\n        /* \"#utility.yul\":596:597   */\n      dup1\n        /* \"#utility.yul\":589:601   */\n      revert\n        /* \"#utility.yul\":541:603   */\n    tag_219:\n        /* \"#utility.yul\":489:609   */\n      pop\n      jump\t// out\n        /* \"#utility.yul\":615:752   */\n    tag_152:\n        /* \"#utility.yul\":660:665   */\n      0x00\n        /* \"#utility.yul\":698:704   */\n      dup2\n        /* \"#utility.yul\":685:705   */\n      calldataload\n        /* \"#utility.yul\":676:705   */\n      swap1\n      pop\n        /* \"#utility.yul\":714:746   */\n      tag_221\n        /* \"#utility.yul\":740:745   */\n      dup2\n        /* \"#utility.yul\":714:746   */\n      tag_151\n      jump\t// in\n    tag_221:\n        /* \"#utility.yul\":615:752   */\n      swap3\n      swap2\n      pop\n      pop\n      jump\t// out\n        /* \"#utility.yul\":758:1085   */\n    tag_20:\n        /* \"#utility.yul\":816:822   */\n      0x00\n        /* \"#utility.yul\":865:867   */\n      0x20\n        /* \"#utility.yul\":853:862   */\n      dup3\n        /* \"#utility.yul\":844:851   */\n      dup5\n        /* \"#utility.yul\":840:863   */\n      sub\n        /* \"#utility.yul\":836:868   */\n      slt\n        /* \"#utility.yul\":833:952   */\n      iszero\n      tag_223\n      jumpi\n        /* \"#utility.yul\":871:950   */\n      tag_224\n      tag_148\n      jump\t// in\n    tag_224:\n        /* \"#utility.yul\":833:952   */\n    tag_223:\n        /* \"#utility.yul\":991:992   */\n      0x00\n        /* \"#utility.yul\":1016:1068   */\n      tag_225\n        /* \"#utility.yul\":1060:1067   */\n      dup5\n        /* \"#utility.yul\":1051:1057   */\n      dup3\n        /* \"#utility.yul\":1040:1049   */\n      dup6\n        /* \"#utility.yul\":1036:1058   */\n      add\n        /* \"#utility.yul\":1016:1068   */\n      tag_152\n      jump\t// in\n    tag_225:\n        /* \"#utility.yul\":1006:1068   */\n      swap2\n      pop\n        /* \"#utility.yul\":962:1078   */\n      pop\n        /* \"#utility.yul\":758:1085   */\n      swap3\n      swap2\n      pop\n      pop\n      jump\t// out\n        /* \"#utility.yul\":1091:1181   */\n    tag_153:\n        /* \"#utility.yul\":1125:1132   */\n      0x00\n        /* \"#utility.yul\":1168:1173   */\n      dup2\n        /* \"#utility.yul\":1161:1174   */\n      iszero\n        /* \"#utility.yul\":1154:1175   */\n      iszero\n        /* \"#utility.yul\":1143:1175   */\n      swap1\n      pop\n        /* \"#utility.yul\":1091:1181   */\n      swap2\n      swap1\n      pop\n      jump\t// out\n        /* \"#utility.yul\":1187:1296   */\n    tag_154:\n        /* \"#utility.yul\":1268:1289   */\n      tag_228\n        /* \"#utility.yul\":1283:1288   */\n      dup2\n        /* \"#utility.yul\":1268:1289   */\n      tag_153\n      jump\t// in\n    tag_228:\n        /* \"#utility.yul\":1263:1266   */\n      dup3\n        /* \"#utility.yul\":1256:1290   */\n      mstore\n        /* \"#utility.yul\":1187:1296   */\n      pop\n      pop\n      jump\t// out\n        /* \"#utility.yul\":1302:1512   */\n    tag_23:\n        /* \"#utility.yul\":1389:1393   */\n      0x00\n        /* \"#utility.yul\":1427:1429   */\n      0x20\n        /* \"#utility.yul\":1416:1425   */\n      dup3\n        /* \"#utility.yul\":1412:1430   */\n      add\n        /* \"#utility.yul\":1404:1430   */\n      swap1\n      pop\n        /* \"#utility.yul\":1440:1505   */\n      tag_230\n        /* \"#utility.yul\":1502:1503   */\n      0x00\n        /* \"#utility.yul\":1491:1500   */\n      dup4\n        /* \"#utility.yul\":1487:1504   */\n      add\n        /* \"#utility.yul\":1478:1484   */\n      dup5\n        /* \"#utility.yul\":1440:1505   */\n      tag_154\n      jump\t// in\n    tag_230:\n        /* \"#utility.yul\":1302:1512   */\n      swap3\n      swap2\n      pop\n      pop\n      jump\t// out\n        /* \"#utility.yul\":1518:1595   */\n    tag_155:\n        /* \"#utility.yul\":1555:1562   */\n      0x00\n        /* \"#utility.yul\":1584:1589   */\n      dup2\n        /* \"#utility.yul\":1573:1589   */\n      swap1\n      pop\n        /* \"#utility.yul\":1518:1595   */\n      swap2\n      swap1\n      pop\n      jump\t// out\n        /* \"#utility.yul\":1601:1723   */\n    tag_156:\n        /* \"#utility.yul\":1674:1698   */\n      tag_233\n        /* \"#utility.yul\":1692:1697   */\n      dup2\n        /* \"#utility.yul\":1674:1698   */\n      tag_155\n      jump\t// in\n    tag_233:\n        /* \"#utility.yul\":1667:1672   */\n      dup2\n        /* \"#utility.yul\":1664:1699   */\n      eq\n        /* \"#utility.yul\":1654:1717   */\n      tag_234\n      jumpi\n        /* \"#utility.yul\":1713:1714   */\n      0x00\n        /* \"#utility.yul\":1710:1711   */\n      dup1\n        /* \"#utility.yul\":1703:1715   */\n      revert\n        /* \"#utility.yul\":1654:1717   */\n    tag_234:\n        /* \"#utility.yul\":1601:1723   */\n      pop\n      jump\t// out\n        /* \"#utility.yul\":1729:1868   */\n    tag_157:\n        /* \"#utility.yul\":1775:1780   */\n      0x00\n        /* \"#utility.yul\":1813:1819   */\n      dup2\n        /* \"#utility.yul\":1800:1820   */\n      calldataload\n        /* \"#utility.yul\":1791:1820   */\n      swap1\n      pop\n        /* \"#utility.yul\":1829:1862   */\n      tag_236\n        /* \"#utility.yul\":1856:1861   */\n      dup2\n        /* \"#utility.yul\":1829:1862   */\n      tag_156\n      jump\t// in\n    tag_236:\n        /* \"#utility.yul\":1729:1868   */\n      swap3\n      swap2\n      pop\n      pop\n      jump\t// out\n        /* \"#utility.yul\":1874:2203   */\n    tag_26:\n        /* \"#utility.yul\":1933:1939   */\n      0x00\n        /* \"#utility.yul\":1982:1984   */\n      0x20\n        /* \"#utility.yul\":1970:1979   */\n      dup3\n        /* \"#utility.yul\":1961:1968   */\n      dup5\n        /* \"#utility.yul\":1957:1980   */\n      sub\n        /* \"#utility.yul\":1953:1985   */\n      slt\n        /* \"#utility.yul\":1950:2069   */\n      iszero\n      tag_238\n      jumpi\n        /* \"#utility.yul\":1988:2067   */\n      tag_239\n      tag_148\n      jump\t// in\n    tag_239:\n        /* \"#utility.yul\":1950:2069   */\n    tag_238:\n        /* \"#utility.yul\":2108:2109   */\n      0x00\n        /* \"#utility.yul\":2133:2186   */\n      tag_240\n        /* \"#utility.yul\":2178:2185   */\n      dup5\n        /* \"#utility.yul\":2169:2175   */\n      dup3\n        /* \"#utility.yul\":2158:2167   */\n      dup6\n        /* \"#utility.yul\":2154:2176   */\n      add\n        /* \"#utility.yul\":2133:2186   */\n      tag_157\n      jump\t// in\n    tag_240:\n        /* \"#utility.yul\":2123:2186   */\n      swap2\n      pop\n        /* \"#utility.yul\":2079:2196   */\n      pop\n        /* \"#utility.yul\":1874:2203   */\n      swap3\n      swap2\n      pop\n      pop\n      jump\t// out\n        /* \"#utility.yul\":2209:2327   */\n    tag_158:\n        /* \"#utility.yul\":2296:2320   */\n      tag_242\n        /* \"#utility.yul\":2314:2319   */\n      dup2\n        /* \"#utility.yul\":2296:2320   */\n      tag_155\n      jump\t// in\n    tag_242:\n        /* \"#utility.yul\":2291:2294   */\n      dup3\n        /* \"#utility.yul\":2284:2321   */\n      mstore\n        /* \"#utility.yul\":2209:2327   */\n      pop\n      pop\n      jump\t// out\n        /* \"#utility.yul\":2333:2555   */\n    tag_29:\n        /* \"#utility.yul\":2426:2430   */\n      0x00\n        /* \"#utility.yul\":2464:2466   */\n      0x20\n        /* \"#utility.yul\":2453:2462   */\n      dup3\n        /* \"#utility.yul\":2449:2467   */\n      add\n        /* \"#utility.yul\":2441:2467   */\n      swap1\n      pop\n        /* \"#utility.yul\":2477:2548   */\n      tag_244\n        /* \"#utility.yul\":2545:2546   */\n      0x00\n        /* \"#utility.yul\":2534:2543   */\n      dup4\n        /* \"#utility.yul\":2530:2547   */\n      add\n        /* \"#utility.yul\":2521:2527   */\n      dup5\n        /* \"#utility.yul\":2477:2548   */\n      tag_158\n      jump\t// in\n    tag_244:\n        /* \"#utility.yul\":2333:2555   */\n      swap3\n      swap2\n      pop\n      pop\n      jump\t// out\n        /* \"#utility.yul\":2561:2678   */\n    tag_159:\n        /* \"#utility.yul\":2670:2671   */\n      0x00\n        /* \"#utility.yul\":2667:2668   */\n      dup1\n        /* \"#utility.yul\":2660:2672   */\n      revert\n        /* \"#utility.yul\":2684:2801   */\n    tag_160:\n        /* \"#utility.yul\":2793:2794   */\n      0x00\n        /* \"#utility.yul\":2790:2791   */\n      dup1\n        /* \"#utility.yul\":2783:2795   */\n      revert\n        /* \"#utility.yul\":2807:2909   */\n    tag_161:\n        /* \"#utility.yul\":2848:2854   */\n      0x00\n        /* \"#utility.yul\":2899:2901   */\n      0x1f\n        /* \"#utility.yul\":2895:2902   */\n      not\n        /* \"#utility.yul\":2890:2892   */\n      0x1f\n        /* \"#utility.yul\":2883:2888   */\n      dup4\n        /* \"#utility.yul\":2879:2893   */\n      add\n        /* \"#utility.yul\":2875:2903   */\n      and\n        /* \"#utility.yul\":2865:2903   */\n      swap1\n      pop\n        /* \"#utility.yul\":2807:2909   */\n      swap2\n      swap1\n      pop\n      jump\t// out\n        /* \"#utility.yul\":2915:3095   */\n    tag_162:\n        /* \"#utility.yul\":2963:3040   */\n      0x4e487b7100000000000000000000000000000000000000000000000000000000\n        /* \"#utility.yul\":2960:2961   */\n      0x00\n        /* \"#utility.yul\":2953:3041   */\n      mstore\n        /* \"#utility.yul\":3060:3064   */\n      0x41\n        /* \"#utility.yul\":3057:3058   */\n      0x04\n        /* \"#utility.yul\":3050:3065   */\n      mstore\n        /* \"#utility.yul\":3084:3088   */\n      0x24\n        /* \"#utility.yul\":3081:3082   */\n      0x00\n        /* \"#utility.yul\":3074:3089   */\n      revert\n        /* \"#utility.yul\":3101:3382   */\n    tag_163:\n        /* \"#utility.yul\":3184:3211   */\n      tag_250\n        /* \"#utility.yul\":3206:3210   */\n      dup3\n        /* \"#utility.yul\":3184:3211   */\n      tag_161\n      jump\t// in\n    tag_250:\n        /* \"#utility.yul\":3176:3182   */\n      dup2\n        /* \"#utility.yul\":3172:3212   */\n      add\n        /* \"#utility.yul\":3314:3320   */\n      dup2\n        /* \"#utility.yul\":3302:3312   */\n      dup2\n        /* \"#utility.yul\":3299:3321   */\n      lt\n        /* \"#utility.yul\":3278:3296   */\n      0xffffffffffffffff\n        /* \"#utility.yul\":3266:3276   */\n      dup3\n        /* \"#utility.yul\":3263:3297   */\n      gt\n        /* \"#utility.yul\":3260:3322   */\n      or\n        /* \"#utility.yul\":3257:3345   */\n      iszero\n      tag_251\n      jumpi\n        /* \"#utility.yul\":3325:3343   */\n      tag_252\n      tag_162\n      jump\t// in\n    tag_252:\n        /* \"#utility.yul\":3257:3345   */\n    tag_251:\n        /* \"#utility.yul\":3365:3375   */\n      dup1\n        /* \"#utility.yul\":3361:3363   */\n      0x40\n        /* \"#utility.yul\":3354:3376   */\n      mstore\n        /* \"#utility.yul\":3144:3382   */\n      pop\n        /* \"#utility.yul\":3101:3382   */\n      pop\n      pop\n      jump\t// out\n        /* \"#utility.yul\":3388:3517   */\n    tag_164:\n        /* \"#utility.yul\":3422:3428   */\n      0x00\n        /* \"#utility.yul\":3449:3469   */\n      tag_254\n      tag_147\n      jump\t// in\n    tag_254:\n        /* \"#utility.yul\":3439:3469   */\n      swap1\n      pop\n        /* \"#utility.yul\":3478:3511   */\n      tag_255\n        /* \"#utility.yul\":3506:3510   */\n      dup3\n        /* \"#utility.yul\":3498:3504   */\n      dup3\n        /* \"#utility.yul\":3478:3511   */\n      tag_163\n      jump\t// in\n    tag_255:\n        /* \"#utility.yul\":3388:3517   */\n      swap2\n      swap1\n      pop\n      jump\t// out\n        /* \"#utility.yul\":3523:3831   */\n    tag_165:\n        /* \"#utility.yul\":3585:3589   */\n      0x00\n        /* \"#utility.yul\":3675:3693   */\n      0xffffffffffffffff\n        /* \"#utility.yul\":3667:3673   */\n      dup3\n        /* \"#utility.yul\":3664:3694   */\n      gt\n        /* \"#utility.yul\":3661:3717   */\n      iszero\n      tag_257\n      jumpi\n        /* \"#utility.yul\":3697:3715   */\n      tag_258\n      tag_162\n      jump\t// in\n    tag_258:\n        /* \"#utility.yul\":3661:3717   */\n    tag_257:\n        /* \"#utility.yul\":3735:3764   */\n      tag_259\n        /* \"#utility.yul\":3757:3763   */\n      dup3\n        /* \"#utility.yul\":3735:3764   */\n      tag_161\n      jump\t// in\n    tag_259:\n        /* \"#utility.yul\":3727:3764   */\n      swap1\n      pop\n        /* \"#utility.yul\":3819:3823   */\n      0x20\n        /* \"#utility.yul\":3813:3817   */\n      dup2\n        /* \"#utility.yul\":3809:3824   */\n      add\n        /* \"#utility.yul\":3801:3824   */\n      swap1\n      pop\n        /* \"#utility.yul\":3523:3831   */\n      swap2\n      swap1\n      pop\n      jump\t// out\n        /* \"#utility.yul\":3837:3985   */\n    tag_166:\n        /* \"#utility.yul\":3935:3941   */\n      dup3\n        /* \"#utility.yul\":3930:3933   */\n      dup2\n        /* \"#utility.yul\":3925:3928   */\n      dup4\n        /* \"#utility.yul\":3912:3942   */\n      calldatacopy\n        /* \"#utility.yul\":3976:3977   */\n      0x00\n        /* \"#utility.yul\":3967:3973   */\n      dup4\n        /* \"#utility.yul\":3962:3965   */\n      dup4\n        /* \"#utility.yul\":3958:3974   */\n      add\n        /* \"#utility.yul\":3951:3978   */\n      mstore\n        /* \"#utility.yul\":3837:3985   */\n      pop\n      pop\n      pop\n      jump\t// out\n        /* \"#utility.yul\":3991:4416   */\n    tag_167:\n        /* \"#utility.yul\":4069:4074   */\n      0x00\n        /* \"#utility.yul\":4094:4160   */\n      tag_262\n        /* \"#utility.yul\":4110:4159   */\n      tag_263\n        /* \"#utility.yul\":4152:4158   */\n      dup5\n        /* \"#utility.yul\":4110:4159   */\n      tag_165\n      jump\t// in\n    tag_263:\n        /* \"#utility.yul\":4094:4160   */\n      tag_164\n      jump\t// in\n    tag_262:\n        /* \"#utility.yul\":4085:4160   */\n      swap1\n      pop\n        /* \"#utility.yul\":4183:4189   */\n      dup3\n        /* \"#utility.yul\":4176:4181   */\n      dup2\n        /* \"#utility.yul\":4169:4190   */\n      mstore\n        /* \"#utility.yul\":4221:4225   */\n      0x20\n        /* \"#utility.yul\":4214:4219   */\n      dup2\n        /* \"#utility.yul\":4210:4226   */\n      add\n        /* \"#utility.yul\":4259:4262   */\n      dup5\n        /* \"#utility.yul\":4250:4256   */\n      dup5\n        /* \"#utility.yul\":4245:4248   */\n      dup5\n        /* \"#utility.yul\":4241:4257   */\n      add\n        /* \"#utility.yul\":4238:4263   */\n      gt\n        /* \"#utility.yul\":4235:4347   */\n      iszero\n      tag_264\n      jumpi\n        /* \"#utility.yul\":4266:4345   */\n      tag_265\n      tag_160\n      jump\t// in\n    tag_265:\n        /* \"#utility.yul\":4235:4347   */\n    tag_264:\n        /* \"#utility.yul\":4356:4410   */\n      tag_266\n        /* \"#utility.yul\":4403:4409   */\n      dup5\n        /* \"#utility.yul\":4398:4401   */\n      dup3\n        /* \"#utility.yul\":4393:4396   */\n      dup6\n        /* \"#utility.yul\":4356:4410   */\n      tag_166\n      jump\t// in\n    tag_266:\n        /* \"#utility.yul\":4075:4416   */\n      pop\n        /* \"#utility.yul\":3991:4416   */\n      swap4\n      swap3\n      pop\n      pop\n      pop\n      jump\t// out\n        /* \"#utility.yul\":4436:4776   */\n    tag_168:\n        /* \"#utility.yul\":4492:4497   */\n      0x00\n        /* \"#utility.yul\":4541:4544   */\n      dup3\n        /* \"#utility.yul\":4534:4538   */\n      0x1f\n        /* \"#utility.yul\":4526:4532   */\n      dup4\n        /* \"#utility.yul\":4522:4539   */\n      add\n        /* \"#utility.yul\":4518:4545   */\n      slt\n        /* \"#utility.yul\":4508:4630   */\n      tag_268\n      jumpi\n        /* \"#utility.yul\":4549:4628   */\n      tag_269\n      tag_159\n      jump\t// in\n    tag_269:\n        /* \"#utility.yul\":4508:4630   */\n    tag_268:\n        /* \"#utility.yul\":4666:4672   */\n      dup2\n        /* \"#utility.yul\":4653:4673   */\n      calldataload\n        /* \"#utility.yul\":4691:4770   */\n      tag_270\n        /* \"#utility.yul\":4766:4769   */\n      dup5\n        /* \"#utility.yul\":4758:4764   */\n      dup3\n        /* \"#utility.yul\":4751:4755   */\n      0x20\n        /* \"#utility.yul\":4743:4749   */\n      dup7\n        /* \"#utility.yul\":4739:4756   */\n      add\n        /* \"#utility.yul\":4691:4770   */\n      tag_167\n      jump\t// in\n    tag_270:\n        /* \"#utility.yul\":4682:4770   */\n      swap2\n      pop\n        /* \"#utility.yul\":4498:4776   */\n      pop\n        /* \"#utility.yul\":4436:4776   */\n      swap3\n      swap2\n      pop\n      pop\n      jump\t// out\n        /* \"#utility.yul\":4782:5291   */\n    tag_32:\n        /* \"#utility.yul\":4851:4857   */\n      0x00\n        /* \"#utility.yul\":4900:4902   */\n      0x20\n        /* \"#utility.yul\":4888:4897   */\n      dup3\n        /* \"#utility.yul\":4879:4886   */\n      dup5\n        /* \"#utility.yul\":4875:4898   */\n      sub\n        /* \"#utility.yul\":4871:4903   */\n      slt\n        /* \"#utility.yul\":4868:4987   */\n      iszero\n      tag_272\n      jumpi\n        /* \"#utility.yul\":4906:4985   */\n      tag_273\n      tag_148\n      jump\t// in\n    tag_273:\n        /* \"#utility.yul\":4868:4987   */\n    tag_272:\n        /* \"#utility.yul\":5054:5055   */\n      0x00\n        /* \"#utility.yul\":5043:5052   */\n      dup3\n        /* \"#utility.yul\":5039:5056   */\n      add\n        /* \"#utility.yul\":5026:5057   */\n      calldataload\n        /* \"#utility.yul\":5084:5102   */\n      0xffffffffffffffff\n        /* \"#utility.yul\":5076:5082   */\n      dup2\n        /* \"#utility.yul\":5073:5103   */\n      gt\n        /* \"#utility.yul\":5070:5187   */\n      iszero\n      tag_274\n      jumpi\n        /* \"#utility.yul\":5106:5185   */\n      tag_275\n      tag_149\n      jump\t// in\n    tag_275:\n        /* \"#utility.yul\":5070:5187   */\n    tag_274:\n        /* \"#utility.yul\":5211:5274   */\n      tag_276\n        /* \"#utility.yul\":5266:5273   */\n      dup5\n        /* \"#utility.yul\":5257:5263   */\n      dup3\n        /* \"#utility.yul\":5246:5255   */\n      dup6\n        /* \"#utility.yul\":5242:5264   */\n      add\n        /* \"#utility.yul\":5211:5274   */\n      tag_168\n      jump\t// in\n    tag_276:\n        /* \"#utility.yul\":5201:5274   */\n      swap2\n      pop\n        /* \"#utility.yul\":4997:5284   */\n      pop\n        /* \"#utility.yul\":4782:5291   */\n      swap3\n      swap2\n      pop\n      pop\n      jump\t// out\n        /* \"#utility.yul\":5297:5420   */\n    tag_169:\n        /* \"#utility.yul\":5373:5379   */\n      0x00\n        /* \"#utility.yul\":5407:5412   */\n      dup2\n        /* \"#utility.yul\":5401:5413   */\n      mload\n        /* \"#utility.yul\":5391:5413   */\n      swap1\n      pop\n        /* \"#utility.yul\":5297:5420   */\n      swap2\n      swap1\n      pop\n      jump\t// out\n        /* \"#utility.yul\":5426:5619   */\n    tag_170:\n        /* \"#utility.yul\":5534:5545   */\n      0x00\n        /* \"#utility.yul\":5568:5574   */\n      dup3\n        /* \"#utility.yul\":5563:5566   */\n      dup3\n        /* \"#utility.yul\":5556:5575   */\n      mstore\n        /* \"#utility.yul\":5608:5612   */\n      0x20\n        /* \"#utility.yul\":5603:5606   */\n      dup3\n        /* \"#utility.yul\":5599:5613   */\n      add\n        /* \"#utility.yul\":5584:5613   */\n      swap1\n      pop\n        /* \"#utility.yul\":5426:5619   */\n      swap3\n      swap2\n      pop\n      pop\n      jump\t// out\n        /* \"#utility.yul\":5625:5766   */\n    tag_171:\n        /* \"#utility.yul\":5701:5705   */\n      0x00\n        /* \"#utility.yul\":5724:5727   */\n      dup2\n        /* \"#utility.yul\":5716:5727   */\n      swap1\n      pop\n        /* \"#utility.yul\":5754:5758   */\n      0x20\n        /* \"#utility.yul\":5749:5752   */\n      dup3\n        /* \"#utility.yul\":5745:5759   */\n      add\n        /* \"#utility.yul\":5737:5759   */\n      swap1\n      pop\n        /* \"#utility.yul\":5625:5766   */\n      swap2\n      swap1\n      pop\n      jump\t// out\n        /* \"#utility.yul\":5772:5870   */\n    tag_172:\n        /* \"#utility.yul\":5823:5829   */\n      0x00\n        /* \"#utility.yul\":5857:5862   */\n      dup2\n        /* \"#utility.yul\":5851:5863   */\n      mload\n        /* \"#utility.yul\":5841:5863   */\n      swap1\n      pop\n        /* \"#utility.yul\":5772:5870   */\n      swap2\n      swap1\n      pop\n      jump\t// out\n        /* \"#utility.yul\":5876:6034   */\n    tag_173:\n        /* \"#utility.yul\":5949:5960   */\n      0x00\n        /* \"#utility.yul\":5983:5989   */\n      dup3\n        /* \"#utility.yul\":5978:5981   */\n      dup3\n        /* \"#utility.yul\":5971:5990   */\n      mstore\n        /* \"#utility.yul\":6023:6027   */\n      0x20\n        /* \"#utility.yul\":6018:6021   */\n      dup3\n        /* \"#utility.yul\":6014:6028   */\n      add\n        /* \"#utility.yul\":5999:6028   */\n      swap1\n      pop\n        /* \"#utility.yul\":5876:6034   */\n      swap3\n      swap2\n      pop\n      pop\n      jump\t// out\n        /* \"#utility.yul\":6040:6179   */\n    tag_174:\n        /* \"#utility.yul\":6129:6135   */\n      dup3\n        /* \"#utility.yul\":6124:6127   */\n      dup2\n        /* \"#utility.yul\":6119:6122   */\n      dup4\n        /* \"#utility.yul\":6113:6136   */\n      mcopy\n        /* \"#utility.yul\":6170:6171   */\n      0x00\n        /* \"#utility.yul\":6161:6167   */\n      dup4\n        /* \"#utility.yul\":6156:6159   */\n      dup4\n        /* \"#utility.yul\":6152:6168   */\n      add\n        /* \"#utility.yul\":6145:6172   */\n      mstore\n        /* \"#utility.yul\":6040:6179   */\n      pop\n      pop\n      pop\n      jump\t// out\n        /* \"#utility.yul\":6185:6538   */\n    tag_175:\n        /* \"#utility.yul\":6261:6264   */\n      0x00\n        /* \"#utility.yul\":6289:6327   */\n      tag_284\n        /* \"#utility.yul\":6321:6326   */\n      dup3\n        /* \"#utility.yul\":6289:6327   */\n      tag_172\n      jump\t// in\n    tag_284:\n        /* \"#utility.yul\":6343:6403   */\n      tag_285\n        /* \"#utility.yul\":6396:6402   */\n      dup2\n        /* \"#utility.yul\":6391:6394   */\n      dup6\n        /* \"#utility.yul\":6343:6403   */\n      tag_173\n      jump\t// in\n    tag_285:\n        /* \"#utility.yul\":6336:6403   */\n      swap4\n      pop\n        /* \"#utility.yul\":6412:6477   */\n      tag_286\n        /* \"#utility.yul\":6470:6476   */\n      dup2\n        /* \"#utility.yul\":6465:6468   */\n      dup6\n        /* \"#utility.yul\":6458:6462   */\n      0x20\n        /* \"#utility.yul\":6451:6456   */\n      dup7\n        /* \"#utility.yul\":6447:6463   */\n      add\n        /* \"#utility.yul\":6412:6477   */\n      tag_174\n      jump\t// in\n    tag_286:\n        /* \"#utility.yul\":6502:6531   */\n      tag_287\n        /* \"#utility.yul\":6524:6530   */\n      dup2\n        /* \"#utility.yul\":6502:6531   */\n      tag_161\n      jump\t// in\n    tag_287:\n        /* \"#utility.yul\":6497:6500   */\n      dup5\n        /* \"#utility.yul\":6493:6532   */\n      add\n        /* \"#utility.yul\":6486:6532   */\n      swap2\n      pop\n        /* \"#utility.yul\":6265:6538   */\n      pop\n        /* \"#utility.yul\":6185:6538   */\n      swap3\n      swap2\n      pop\n      pop\n      jump\t// out\n        /* \"#utility.yul\":6544:6736   */\n    tag_176:\n        /* \"#utility.yul\":6631:6641   */\n      0x00\n        /* \"#utility.yul\":6666:6730   */\n      tag_289\n        /* \"#utility.yul\":6726:6729   */\n      dup4\n        /* \"#utility.yul\":6718:6724   */\n      dup4\n        /* \"#utility.yul\":6666:6730   */\n      tag_175\n      jump\t// in\n    tag_289:\n        /* \"#utility.yul\":6652:6730   */\n      swap1\n      pop\n        /* \"#utility.yul\":6544:6736   */\n      swap3\n      swap2\n      pop\n      pop\n      jump\t// out\n        /* \"#utility.yul\":6742:6864   */\n    tag_177:\n        /* \"#utility.yul\":6821:6825   */\n      0x00\n        /* \"#utility.yul\":6853:6857   */\n      0x20\n        /* \"#utility.yul\":6848:6851   */\n      dup3\n        /* \"#utility.yul\":6844:6858   */\n      add\n        /* \"#utility.yul\":6836:6858   */\n      swap1\n      pop\n        /* \"#utility.yul\":6742:6864   */\n      swap2\n      swap1\n      pop\n      jump\t// out\n        /* \"#utility.yul\":6896:7879   */\n    tag_178:\n        /* \"#utility.yul\":7033:7036   */\n      0x00\n        /* \"#utility.yul\":7062:7125   */\n      tag_292\n        /* \"#utility.yul\":7119:7124   */\n      dup3\n        /* \"#utility.yul\":7062:7125   */\n      tag_169\n      jump\t// in\n    tag_292:\n        /* \"#utility.yul\":7141:7236   */\n      tag_293\n        /* \"#utility.yul\":7229:7235   */\n      dup2\n        /* \"#utility.yul\":7224:7227   */\n      dup6\n        /* \"#utility.yul\":7141:7236   */\n      tag_170\n      jump\t// in\n    tag_293:\n        /* \"#utility.yul\":7134:7236   */\n      swap4\n      pop\n        /* \"#utility.yul\":7262:7265   */\n      dup4\n        /* \"#utility.yul\":7307:7311   */\n      0x20\n        /* \"#utility.yul\":7299:7305   */\n      dup3\n        /* \"#utility.yul\":7295:7312   */\n      mul\n        /* \"#utility.yul\":7290:7293   */\n      dup6\n        /* \"#utility.yul\":7286:7313   */\n      add\n        /* \"#utility.yul\":7337:7402   */\n      tag_294\n        /* \"#utility.yul\":7396:7401   */\n      dup6\n        /* \"#utility.yul\":7337:7402   */\n      tag_171\n      jump\t// in\n    tag_294:\n        /* \"#utility.yul\":7425:7432   */\n      dup1\n        /* \"#utility.yul\":7456:7457   */\n      0x00\n        /* \"#utility.yul\":7441:7834   */\n    tag_295:\n        /* \"#utility.yul\":7466:7472   */\n      dup6\n        /* \"#utility.yul\":7463:7464   */\n      dup2\n        /* \"#utility.yul\":7460:7473   */\n      lt\n        /* \"#utility.yul\":7441:7834   */\n      iszero\n      tag_297\n      jumpi\n        /* \"#utility.yul\":7537:7546   */\n      dup5\n        /* \"#utility.yul\":7531:7535   */\n      dup5\n        /* \"#utility.yul\":7527:7547   */\n      sub\n        /* \"#utility.yul\":7522:7525   */\n      dup10\n        /* \"#utility.yul\":7515:7548   */\n      mstore\n        /* \"#utility.yul\":7588:7594   */\n      dup2\n        /* \"#utility.yul\":7582:7595   */\n      mload\n        /* \"#utility.yul\":7616:7698   */\n      tag_298\n        /* \"#utility.yul\":7693:7697   */\n      dup6\n        /* \"#utility.yul\":7678:7691   */\n      dup3\n        /* \"#utility.yul\":7616:7698   */\n      tag_176\n      jump\t// in\n    tag_298:\n        /* \"#utility.yul\":7608:7698   */\n      swap5\n      pop\n        /* \"#utility.yul\":7721:7790   */\n      tag_299\n        /* \"#utility.yul\":7783:7789   */\n      dup4\n        /* \"#utility.yul\":7721:7790   */\n      tag_177\n      jump\t// in\n    tag_299:\n        /* \"#utility.yul\":7711:7790   */\n      swap3\n      pop\n        /* \"#utility.yul\":7819:7823   */\n      0x20\n        /* \"#utility.yul\":7814:7817   */\n      dup11\n        /* \"#utility.yul\":7810:7824   */\n      add\n        /* \"#utility.yul\":7803:7824   */\n      swap10\n      pop\n        /* \"#utility.yul\":7501:7834   */\n      pop\n        /* \"#utility.yul\":7488:7489   */\n      0x01\n        /* \"#utility.yul\":7485:7486   */\n      dup2\n        /* \"#utility.yul\":7481:7490   */\n      add\n        /* \"#utility.yul\":7476:7490   */\n      swap1\n      pop\n        /* \"#utility.yul\":7441:7834   */\n      jump(tag_295)\n    tag_297:\n        /* \"#utility.yul\":7445:7459   */\n      pop\n        /* \"#utility.yul\":7850:7854   */\n      dup3\n        /* \"#utility.yul\":7843:7854   */\n      swap8\n      pop\n        /* \"#utility.yul\":7870:7873   */\n      dup8\n        /* \"#utility.yul\":7863:7873   */\n      swap6\n      pop\n        /* \"#utility.yul\":7038:7879   */\n      pop\n      pop\n      pop\n      pop\n      pop\n        /* \"#utility.yul\":6896:7879   */\n      swap3\n      swap2\n      pop\n      pop\n      jump\t// out\n        /* \"#utility.yul\":7885:8294   */\n    tag_35:\n        /* \"#utility.yul\":8046:8050   */\n      0x00\n        /* \"#utility.yul\":8084:8086   */\n      0x20\n        /* \"#utility.yul\":8073:8082   */\n      dup3\n        /* \"#utility.yul\":8069:8087   */\n      add\n        /* \"#utility.yul\":8061:8087   */\n      swap1\n      pop\n        /* \"#utility.yul\":8133:8142   */\n      dup2\n        /* \"#utility.yul\":8127:8131   */\n      dup2\n        /* \"#utility.yul\":8123:8143   */\n      sub\n        /* \"#utility.yul\":8119:8120   */\n      0x00\n        /* \"#utility.yul\":8108:8117   */\n      dup4\n        /* \"#utility.yul\":8104:8121   */\n      add\n        /* \"#utility.yul\":8097:8144   */\n      mstore\n        /* \"#utility.yul\":8161:8287   */\n      tag_301\n        /* \"#utility.yul\":8282:8286   */\n      dup2\n        /* \"#utility.yul\":8273:8279   */\n      dup5\n        /* \"#utility.yul\":8161:8287   */\n      tag_178\n      jump\t// in\n    tag_301:\n        /* \"#utility.yul\":8153:8287   */\n      swap1\n      pop\n        /* \"#utility.yul\":7885:8294   */\n      swap3\n      swap2\n      pop\n      pop\n      jump\t// out\n        /* \"#utility.yul\":8300:8426   */\n    tag_179:\n        /* \"#utility.yul\":8337:8344   */\n      0x00\n        /* \"#utility.yul\":8377:8419   */\n      0xffffffffffffffffffffffffffffffffffffffff\n        /* \"#utility.yul\":8370:8375   */\n      dup3\n        /* \"#utility.yul\":8366:8420   */\n      and\n        /* \"#utility.yul\":8355:8420   */\n      swap1\n      pop\n        /* \"#utility.yul\":8300:8426   */\n      swap2\n      swap1\n      pop\n      jump\t// out\n        /* \"#utility.yul\":8432:8528   */\n    tag_180:\n        /* \"#utility.yul\":8469:8476   */\n      0x00\n        /* \"#utility.yul\":8498:8522   */\n      tag_304\n        /* \"#utility.yul\":8516:8521   */\n      dup3\n        /* \"#utility.yul\":8498:8522   */\n      tag_179\n      jump\t// in\n    tag_304:\n        /* \"#utility.yul\":8487:8522   */\n      swap1\n      pop\n        /* \"#utility.yul\":8432:8528   */\n      swap2\n      swap1\n      pop\n      jump\t// out\n        /* \"#utility.yul\":8534:8656   */\n    tag_181:\n        /* \"#utility.yul\":8607:8631   */\n      tag_306\n        /* \"#utility.yul\":8625:8630   */\n      dup2\n        /* \"#utility.yul\":8607:8631   */\n      tag_180\n      jump\t// in\n    tag_306:\n        /* \"#utility.yul\":8600:8605   */\n      dup2\n        /* \"#utility.yul\":8597:8632   */\n      eq\n        /* \"#utility.yul\":8587:8650   */\n      tag_307\n      jumpi\n        /* \"#utility.yul\":8646:8647   */\n      0x00\n        /* \"#utility.yul\":8643:8644   */\n      dup1\n        /* \"#utility.yul\":8636:8648   */\n      revert\n        /* \"#utility.yul\":8587:8650   */\n    tag_307:\n        /* \"#utility.yul\":8534:8656   */\n      pop\n      jump\t// out\n        /* \"#utility.yul\":8662:8801   */\n    tag_182:\n        /* \"#utility.yul\":8708:8713   */\n      0x00\n        /* \"#utility.yul\":8746:8752   */\n      dup2\n        /* \"#utility.yul\":8733:8753   */\n      calldataload\n        /* \"#utility.yul\":8724:8753   */\n      swap1\n      pop\n        /* \"#utility.yul\":8762:8795   */\n      tag_309\n        /* \"#utility.yul\":8789:8794   */\n      dup2\n        /* \"#utility.yul\":8762:8795   */\n      tag_181\n      jump\t// in\n    tag_309:\n        /* \"#utility.yul\":8662:8801   */\n      swap3\n      swap2\n      pop\n      pop\n      jump\t// out\n        /* \"#utility.yul\":8807:9281   */\n    tag_38:\n        /* \"#utility.yul\":8875:8881   */\n      0x00\n        /* \"#utility.yul\":8883:8889   */\n      dup1\n        /* \"#utility.yul\":8932:8934   */\n      0x40\n        /* \"#utility.yul\":8920:8929   */\n      dup4\n        /* \"#utility.yul\":8911:8918   */\n      dup6\n        /* \"#utility.yul\":8907:8930   */\n      sub\n        /* \"#utility.yul\":8903:8935   */\n      slt\n        /* \"#utility.yul\":8900:9019   */\n      iszero\n      tag_311\n      jumpi\n        /* \"#utility.yul\":8938:9017   */\n      tag_312\n      tag_148\n      jump\t// in\n    tag_312:\n        /* \"#utility.yul\":8900:9019   */\n    tag_311:\n        /* \"#utility.yul\":9058:9059   */\n      0x00\n        /* \"#utility.yul\":9083:9136   */\n      tag_313\n        /* \"#utility.yul\":9128:9135   */\n      dup6\n        /* \"#utility.yul\":9119:9125   */\n      dup3\n        /* \"#utility.yul\":9108:9117   */\n      dup7\n        /* \"#utility.yul\":9104:9126   */\n      add\n        /* \"#utility.yul\":9083:9136   */\n      tag_157\n      jump\t// in\n    tag_313:\n        /* \"#utility.yul\":9073:9136   */\n      swap3\n      pop\n        /* \"#utility.yul\":9029:9146   */\n      pop\n        /* \"#utility.yul\":9185:9187   */\n      0x20\n        /* \"#utility.yul\":9211:9264   */\n      tag_314\n        /* \"#utility.yul\":9256:9263   */\n      dup6\n        /* \"#utility.yul\":9247:9253   */\n      dup3\n        /* \"#utility.yul\":9236:9245   */\n      dup7\n        /* \"#utility.yul\":9232:9254   */\n      add\n        /* \"#utility.yul\":9211:9264   */\n      tag_182\n      jump\t// in\n    tag_314:\n        /* \"#utility.yul\":9201:9264   */\n      swap2\n      pop\n        /* \"#utility.yul\":9156:9274   */\n      pop\n        /* \"#utility.yul\":8807:9281   */\n      swap3\n      pop\n      swap3\n      swap1\n      pop\n      jump\t// out\n        /* \"#utility.yul\":9287:9616   */\n    tag_45:\n        /* \"#utility.yul\":9346:9352   */\n      0x00\n        /* \"#utility.yul\":9395:9397   */\n      0x20\n        /* \"#utility.yul\":9383:9392   */\n      dup3\n        /* \"#utility.yul\":9374:9381   */\n      dup5\n        /* \"#utility.yul\":9370:9393   */\n      sub\n        /* \"#utility.yul\":9366:9398   */\n      slt\n        /* \"#utility.yul\":9363:9482   */\n      iszero\n      tag_316\n      jumpi\n        /* \"#utility.yul\":9401:9480   */\n      tag_317\n      tag_148\n      jump\t// in\n    tag_317:\n        /* \"#utility.yul\":9363:9482   */\n    tag_316:\n        /* \"#utility.yul\":9521:9522   */\n      0x00\n        /* \"#utility.yul\":9546:9599   */\n      tag_318\n        /* \"#utility.yul\":9591:9598   */\n      dup5\n        /* \"#utility.yul\":9582:9588   */\n      dup3\n        /* \"#utility.yul\":9571:9580   */\n      dup6\n        /* \"#utility.yul\":9567:9589   */\n      add\n        /* \"#utility.yul\":9546:9599   */\n      tag_182\n      jump\t// in\n    tag_318:\n        /* \"#utility.yul\":9536:9599   */\n      swap2\n      pop\n        /* \"#utility.yul\":9492:9609   */\n      pop\n        /* \"#utility.yul\":9287:9616   */\n      swap3\n      swap2\n      pop\n      pop\n      jump\t// out\n        /* \"#utility.yul\":9622:9929   */\n    tag_183:\n        /* \"#utility.yul\":9683:9687   */\n      0x00\n        /* \"#utility.yul\":9773:9791   */\n      0xffffffffffffffff\n        /* \"#utility.yul\":9765:9771   */\n      dup3\n        /* \"#utility.yul\":9762:9792   */\n      gt\n        /* \"#utility.yul\":9759:9815   */\n      iszero\n      tag_320\n      jumpi\n        /* \"#utility.yul\":9795:9813   */\n      tag_321\n      tag_162\n      jump\t// in\n    tag_321:\n        /* \"#utility.yul\":9759:9815   */\n    tag_320:\n        /* \"#utility.yul\":9833:9862   */\n      tag_322\n        /* \"#utility.yul\":9855:9861   */\n      dup3\n        /* \"#utility.yul\":9833:9862   */\n      tag_161\n      jump\t// in\n    tag_322:\n        /* \"#utility.yul\":9825:9862   */\n      swap1\n      pop\n        /* \"#utility.yul\":9917:9921   */\n      0x20\n        /* \"#utility.yul\":9911:9915   */\n      dup2\n        /* \"#utility.yul\":9907:9922   */\n      add\n        /* \"#utility.yul\":9899:9922   */\n      swap1\n      pop\n        /* \"#utility.yul\":9622:9929   */\n      swap2\n      swap1\n      pop\n      jump\t// out\n        /* \"#utility.yul\":9935:10358   */\n    tag_184:\n        /* \"#utility.yul\":10012:10017   */\n      0x00\n        /* \"#utility.yul\":10037:10102   */\n      tag_324\n        /* \"#utility.yul\":10053:10101   */\n      tag_325\n        /* \"#utility.yul\":10094:10100   */\n      dup5\n        /* \"#utility.yul\":10053:10101   */\n      tag_183\n      jump\t// in\n    tag_325:\n        /* \"#utility.yul\":10037:10102   */\n      tag_164\n      jump\t// in\n    tag_324:\n        /* \"#utility.yul\":10028:10102   */\n      swap1\n      pop\n        /* \"#utility.yul\":10125:10131   */\n      dup3\n        /* \"#utility.yul\":10118:10123   */\n      dup2\n        /* \"#utility.yul\":10111:10132   */\n      mstore\n        /* \"#utility.yul\":10163:10167   */\n      0x20\n        /* \"#utility.yul\":10156:10161   */\n      dup2\n        /* \"#utility.yul\":10152:10168   */\n      add\n        /* \"#utility.yul\":10201:10204   */\n      dup5\n        /* \"#utility.yul\":10192:10198   */\n      dup5\n        /* \"#utility.yul\":10187:10190   */\n      dup5\n        /* \"#utility.yul\":10183:10199   */\n      add\n        /* \"#utility.yul\":10180:10205   */\n      gt\n        /* \"#utility.yul\":10177:10289   */\n      iszero\n      tag_326\n      jumpi\n        /* \"#utility.yul\":10208:10287   */\n      tag_327\n      tag_160\n      jump\t// in\n    tag_327:\n        /* \"#utility.yul\":10177:10289   */\n    tag_326:\n        /* \"#utility.yul\":10298:10352   */\n      tag_328\n        /* \"#utility.yul\":10345:10351   */\n      dup5\n        /* \"#utility.yul\":10340:10343   */\n      dup3\n        /* \"#utility.yul\":10335:10338   */\n      dup6\n        /* \"#utility.yul\":10298:10352   */\n      tag_166\n      jump\t// in\n    tag_328:\n        /* \"#utility.yul\":10018:10358   */\n      pop\n        /* \"#utility.yul\":9935:10358   */\n      swap4\n      swap3\n      pop\n      pop\n      pop\n      jump\t// out\n        /* \"#utility.yul\":10377:10715   */\n    tag_185:\n        /* \"#utility.yul\":10432:10437   */\n      0x00\n        /* \"#utility.yul\":10481:10484   */\n      dup3\n        /* \"#utility.yul\":10474:10478   */\n      0x1f\n        /* \"#utility.yul\":10466:10472   */\n      dup4\n        /* \"#utility.yul\":10462:10479   */\n      add\n        /* \"#utility.yul\":10458:10485   */\n      slt\n        /* \"#utility.yul\":10448:10570   */\n      tag_330\n      jumpi\n        /* \"#utility.yul\":10489:10568   */\n      tag_331\n      tag_159\n      jump\t// in\n    tag_331:\n        /* \"#utility.yul\":10448:10570   */\n    tag_330:\n        /* \"#utility.yul\":10606:10612   */\n      dup2\n        /* \"#utility.yul\":10593:10613   */\n      calldataload\n        /* \"#utility.yul\":10631:10709   */\n      tag_332\n        /* \"#utility.yul\":10705:10708   */\n      dup5\n        /* \"#utility.yul\":10697:10703   */\n      dup3\n        /* \"#utility.yul\":10690:10694   */\n      0x20\n        /* \"#utility.yul\":10682:10688   */\n      dup7\n        /* \"#utility.yul\":10678:10695   */\n      add\n        /* \"#utility.yul\":10631:10709   */\n      tag_184\n      jump\t// in\n    tag_332:\n        /* \"#utility.yul\":10622:10709   */\n      swap2\n      pop\n        /* \"#utility.yul\":10438:10715   */\n      pop\n        /* \"#utility.yul\":10377:10715   */\n      swap3\n      swap2\n      pop\n      pop\n      jump\t// out\n        /* \"#utility.yul\":10721:11553   */\n    tag_69:\n        /* \"#utility.yul\":10808:10814   */\n      0x00\n        /* \"#utility.yul\":10816:10822   */\n      dup1\n        /* \"#utility.yul\":10865:10867   */\n      0x40\n        /* \"#utility.yul\":10853:10862   */\n      dup4\n        /* \"#utility.yul\":10844:10851   */\n      dup6\n        /* \"#utility.yul\":10840:10863   */\n      sub\n        /* \"#utility.yul\":10836:10868   */\n      slt\n        /* \"#utility.yul\":10833:10952   */\n      iszero\n      tag_334\n      jumpi\n        /* \"#utility.yul\":10871:10950   */\n      tag_335\n      tag_148\n      jump\t// in\n    tag_335:\n        /* \"#utility.yul\":10833:10952   */\n    tag_334:\n        /* \"#utility.yul\":11019:11020   */\n      0x00\n        /* \"#utility.yul\":11008:11017   */\n      dup4\n        /* \"#utility.yul\":11004:11021   */\n      add\n        /* \"#utility.yul\":10991:11022   */\n      calldataload\n        /* \"#utility.yul\":11049:11067   */\n      0xffffffffffffffff\n        /* \"#utility.yul\":11041:11047   */\n      dup2\n        /* \"#utility.yul\":11038:11068   */\n      gt\n        /* \"#utility.yul\":11035:11152   */\n      iszero\n      tag_336\n      jumpi\n        /* \"#utility.yul\":11071:11150   */\n      tag_337\n      tag_149\n      jump\t// in\n    tag_337:\n        /* \"#utility.yul\":11035:11152   */\n    tag_336:\n        /* \"#utility.yul\":11176:11239   */\n      tag_338\n        /* \"#utility.yul\":11231:11238   */\n      dup6\n        /* \"#utility.yul\":11222:11228   */\n      dup3\n        /* \"#utility.yul\":11211:11220   */\n      dup7\n        /* \"#utility.yul\":11207:11229   */\n      add\n        /* \"#utility.yul\":11176:11239   */\n      tag_168\n      jump\t// in\n    tag_338:\n        /* \"#utility.yul\":11166:11239   */\n      swap3\n      pop\n        /* \"#utility.yul\":10962:11249   */\n      pop\n        /* \"#utility.yul\":11316:11318   */\n      0x20\n        /* \"#utility.yul\":11305:11314   */\n      dup4\n        /* \"#utility.yul\":11301:11319   */\n      add\n        /* \"#utility.yul\":11288:11320   */\n      calldataload\n        /* \"#utility.yul\":11347:11365   */\n      0xffffffffffffffff\n        /* \"#utility.yul\":11339:11345   */\n      dup2\n        /* \"#utility.yul\":11336:11366   */\n      gt\n        /* \"#utility.yul\":11333:11450   */\n      iszero\n      tag_339\n      jumpi\n        /* \"#utility.yul\":11369:11448   */\n      tag_340\n      tag_149\n      jump\t// in\n    tag_340:\n        /* \"#utility.yul\":11333:11450   */\n    tag_339:\n        /* \"#utility.yul\":11474:11536   */\n      tag_341\n        /* \"#utility.yul\":11528:11535   */\n      dup6\n        /* \"#utility.yul\":11519:11525   */\n      dup3\n        /* \"#utility.yul\":11508:11517   */\n      dup7\n        /* \"#utility.yul\":11504:11526   */\n      add\n        /* \"#utility.yul\":11474:11536   */\n      tag_185\n      jump\t// in\n    tag_341:\n        /* \"#utility.yul\":11464:11536   */\n      swap2\n      pop\n        /* \"#utility.yul\":11259:11546   */\n      pop\n        /* \"#utility.yul\":10721:11553   */\n      swap3\n      pop\n      swap3\n      swap1\n      pop\n      jump\t// out\n        /* \"#utility.yul\":11559:11658   */\n    tag_186:\n        /* \"#utility.yul\":11611:11617   */\n      0x00\n        /* \"#utility.yul\":11645:11650   */\n      dup2\n        /* \"#utility.yul\":11639:11651   */\n      mload\n        /* \"#utility.yul\":11629:11651   */\n      swap1\n      pop\n        /* \"#utility.yul\":11559:11658   */\n      swap2\n      swap1\n      pop\n      jump\t// out\n        /* \"#utility.yul\":11664:11812   */\n    tag_187:\n        /* \"#utility.yul\":11766:11777   */\n      0x00\n        /* \"#utility.yul\":11803:11806   */\n      dup2\n        /* \"#utility.yul\":11788:11806   */\n      swap1\n      pop\n        /* \"#utility.yul\":11664:11812   */\n      swap3\n      swap2\n      pop\n      pop\n      jump\t// out\n        /* \"#utility.yul\":11818:12208   */\n    tag_188:\n        /* \"#utility.yul\":11924:11927   */\n      0x00\n        /* \"#utility.yul\":11952:11991   */\n      tag_345\n        /* \"#utility.yul\":11985:11990   */\n      dup3\n        /* \"#utility.yul\":11952:11991   */\n      tag_186\n      jump\t// in\n    tag_345:\n        /* \"#utility.yul\":12007:12096   */\n      tag_346\n        /* \"#utility.yul\":12089:12095   */\n      dup2\n        /* \"#utility.yul\":12084:12087   */\n      dup6\n        /* \"#utility.yul\":12007:12096   */\n      tag_187\n      jump\t// in\n    tag_346:\n        /* \"#utility.yul\":12000:12096   */\n      swap4\n      pop\n        /* \"#utility.yul\":12105:12170   */\n      tag_347\n        /* \"#utility.yul\":12163:12169   */\n      dup2\n        /* \"#utility.yul\":12158:12161   */\n      dup6\n        /* \"#utility.yul\":12151:12155   */\n      0x20\n        /* \"#utility.yul\":12144:12149   */\n      dup7\n        /* \"#utility.yul\":12140:12156   */\n      add\n        /* \"#utility.yul\":12105:12170   */\n      tag_174\n      jump\t// in\n    tag_347:\n        /* \"#utility.yul\":12195:12201   */\n      dup1\n        /* \"#utility.yul\":12190:12193   */\n      dup5\n        /* \"#utility.yul\":12186:12202   */\n      add\n        /* \"#utility.yul\":12179:12202   */\n      swap2\n      pop\n        /* \"#utility.yul\":11928:12208   */\n      pop\n        /* \"#utility.yul\":11818:12208   */\n      swap3\n      swap2\n      pop\n      pop\n      jump\t// out\n        /* \"#utility.yul\":12214:12489   */\n    tag_78:\n        /* \"#utility.yul\":12346:12349   */\n      0x00\n        /* \"#utility.yul\":12368:12463   */\n      tag_349\n        /* \"#utility.yul\":12459:12462   */\n      dup3\n        /* \"#utility.yul\":12450:12456   */\n      dup5\n        /* \"#utility.yul\":12368:12463   */\n      tag_188\n      jump\t// in\n    tag_349:\n        /* \"#utility.yul\":12361:12463   */\n      swap2\n      pop\n        /* \"#utility.yul\":12480:12483   */\n      dup2\n        /* \"#utility.yul\":12473:12483   */\n      swap1\n      pop\n        /* \"#utility.yul\":12214:12489   */\n      swap3\n      swap2\n      pop\n      pop\n      jump\t// out\n        /* \"#utility.yul\":12495:12675   */\n    tag_189:\n        /* \"#utility.yul\":12543:12620   */\n      0x4e487b7100000000000000000000000000000000000000000000000000000000\n        /* \"#utility.yul\":12540:12541   */\n      0x00\n        /* \"#utility.yul\":12533:12621   */\n      mstore\n        /* \"#utility.yul\":12640:12644   */\n      0x22\n        /* \"#utility.yul\":12637:12638   */\n      0x04\n        /* \"#utility.yul\":12630:12645   */\n      mstore\n        /* \"#utility.yul\":12664:12668   */\n      0x24\n        /* \"#utility.yul\":12661:12662   */\n      0x00\n        /* \"#utility.yul\":12654:12669   */\n      revert\n        /* \"#utility.yul\":12681:13001   */\n    tag_83:\n        /* \"#utility.yul\":12725:12731   */\n      0x00\n        /* \"#utility.yul\":12762:12763   */\n      0x02\n        /* \"#utility.yul\":12756:12760   */\n      dup3\n        /* \"#utility.yul\":12752:12764   */\n      div\n        /* \"#utility.yul\":12742:12764   */\n      swap1\n      pop\n        /* \"#utility.yul\":12809:12810   */\n      0x01\n        /* \"#utility.yul\":12803:12807   */\n      dup3\n        /* \"#utility.yul\":12799:12811   */\n      and\n        /* \"#utility.yul\":12830:12848   */\n      dup1\n        /* \"#utility.yul\":12820:12901   */\n      tag_352\n      jumpi\n        /* \"#utility.yul\":12886:12890   */\n      0x7f\n        /* \"#utility.yul\":12878:12884   */\n      dup3\n        /* \"#utility.yul\":12874:12891   */\n      and\n        /* \"#utility.yul\":12864:12891   */\n      swap2\n      pop\n        /* \"#utility.yul\":12820:12901   */\n    tag_352:\n        /* \"#utility.yul\":12948:12950   */\n      0x20\n        /* \"#utility.yul\":12940:12946   */\n      dup3\n        /* \"#utility.yul\":12937:12951   */\n      lt\n        /* \"#utility.yul\":12917:12935   */\n      dup2\n        /* \"#utility.yul\":12914:12952   */\n      sub\n        /* \"#utility.yul\":12911:12995   */\n      tag_353\n      jumpi\n        /* \"#utility.yul\":12967:12985   */\n      tag_354\n      tag_189\n      jump\t// in\n    tag_354:\n        /* \"#utility.yul\":12911:12995   */\n    tag_353:\n        /* \"#utility.yul\":12732:13001   */\n      pop\n        /* \"#utility.yul\":12681:13001   */\n      swap2\n      swap1\n      pop\n      jump\t// out\n        /* \"#utility.yul\":13007:13176   */\n    tag_190:\n        /* \"#utility.yul\":13091:13102   */\n      0x00\n        /* \"#utility.yul\":13125:13131   */\n      dup3\n        /* \"#utility.yul\":13120:13123   */\n      dup3\n        /* \"#utility.yul\":13113:13132   */\n      mstore\n        /* \"#utility.yul\":13165:13169   */\n      0x20\n        /* \"#utility.yul\":13160:13163   */\n      dup3\n        /* \"#utility.yul\":13156:13170   */\n      add\n        /* \"#utility.yul\":13141:13170   */\n      swap1\n      pop\n        /* \"#utility.yul\":13007:13176   */\n      swap3\n      swap2\n      pop\n      pop\n      jump\t// out\n        /* \"#utility.yul\":13182:13559   */\n    tag_191:\n        /* \"#utility.yul\":13270:13273   */\n      0x00\n        /* \"#utility.yul\":13298:13337   */\n      tag_357\n        /* \"#utility.yul\":13331:13336   */\n      dup3\n        /* \"#utility.yul\":13298:13337   */\n      tag_186\n      jump\t// in\n    tag_357:\n        /* \"#utility.yul\":13353:13424   */\n      tag_358\n        /* \"#utility.yul\":13417:13423   */\n      dup2\n        /* \"#utility.yul\":13412:13415   */\n      dup6\n        /* \"#utility.yul\":13353:13424   */\n      tag_190\n      jump\t// in\n    tag_358:\n        /* \"#utility.yul\":13346:13424   */\n      swap4\n      pop\n        /* \"#utility.yul\":13433:13498   */\n      tag_359\n        /* \"#utility.yul\":13491:13497   */\n      dup2\n        /* \"#utility.yul\":13486:13489   */\n      dup6\n        /* \"#utility.yul\":13479:13483   */\n      0x20\n        /* \"#utility.yul\":13472:13477   */\n      dup7\n        /* \"#utility.yul\":13468:13484   */\n      add\n        /* \"#utility.yul\":13433:13498   */\n      tag_174\n      jump\t// in\n    tag_359:\n        /* \"#utility.yul\":13523:13552   */\n      tag_360\n        /* \"#utility.yul\":13545:13551   */\n      dup2\n        /* \"#utility.yul\":13523:13552   */\n      tag_161\n      jump\t// in\n    tag_360:\n        /* \"#utility.yul\":13518:13521   */\n      dup5\n        /* \"#utility.yul\":13514:13553   */\n      add\n        /* \"#utility.yul\":13507:13553   */\n      swap2\n      pop\n        /* \"#utility.yul\":13274:13559   */\n      pop\n        /* \"#utility.yul\":13182:13559   */\n      swap3\n      swap2\n      pop\n      pop\n      jump\t// out\n        /* \"#utility.yul\":13565:13642   */\n    tag_192:\n        /* \"#utility.yul\":13602:13609   */\n      0x00\n        /* \"#utility.yul\":13631:13636   */\n      dup2\n        /* \"#utility.yul\":13620:13636   */\n      swap1\n      pop\n        /* \"#utility.yul\":13565:13642   */\n      swap2\n      swap1\n      pop\n      jump\t// out\n        /* \"#utility.yul\":13648:13766   */\n    tag_193:\n        /* \"#utility.yul\":13735:13759   */\n      tag_363\n        /* \"#utility.yul\":13753:13758   */\n      dup2\n        /* \"#utility.yul\":13735:13759   */\n      tag_192\n      jump\t// in\n    tag_363:\n        /* \"#utility.yul\":13730:13733   */\n      dup3\n        /* \"#utility.yul\":13723:13760   */\n      mstore\n        /* \"#utility.yul\":13648:13766   */\n      pop\n      pop\n      jump\t// out\n        /* \"#utility.yul\":13772:13940   */\n    tag_194:\n        /* \"#utility.yul\":13855:13866   */\n      0x00\n        /* \"#utility.yul\":13889:13895   */\n      dup3\n        /* \"#utility.yul\":13884:13887   */\n      dup3\n        /* \"#utility.yul\":13877:13896   */\n      mstore\n        /* \"#utility.yul\":13929:13933   */\n      0x20\n        /* \"#utility.yul\":13924:13927   */\n      dup3\n        /* \"#utility.yul\":13920:13934   */\n      add\n        /* \"#utility.yul\":13905:13934   */\n      swap1\n      pop\n        /* \"#utility.yul\":13772:13940   */\n      swap3\n      swap2\n      pop\n      pop\n      jump\t// out\n        /* \"#utility.yul\":13946:14319   */\n    tag_195:\n        /* \"#utility.yul\":14032:14035   */\n      0x00\n        /* \"#utility.yul\":14060:14098   */\n      tag_366\n        /* \"#utility.yul\":14092:14097   */\n      dup3\n        /* \"#utility.yul\":14060:14098   */\n      tag_172\n      jump\t// in\n    tag_366:\n        /* \"#utility.yul\":14114:14184   */\n      tag_367\n        /* \"#utility.yul\":14177:14183   */\n      dup2\n        /* \"#utility.yul\":14172:14175   */\n      dup6\n        /* \"#utility.yul\":14114:14184   */\n      tag_194\n      jump\t// in\n    tag_367:\n        /* \"#utility.yul\":14107:14184   */\n      swap4\n      pop\n        /* \"#utility.yul\":14193:14258   */\n      tag_368\n        /* \"#utility.yul\":14251:14257   */\n      dup2\n        /* \"#utility.yul\":14246:14249   */\n      dup6\n        /* \"#utility.yul\":14239:14243   */\n      0x20\n        /* \"#utility.yul\":14232:14237   */\n      dup7\n        /* \"#utility.yul\":14228:14244   */\n      add\n        /* \"#utility.yul\":14193:14258   */\n      tag_174\n      jump\t// in\n    tag_368:\n        /* \"#utility.yul\":14283:14312   */\n      tag_369\n        /* \"#utility.yul\":14305:14311   */\n      dup2\n        /* \"#utility.yul\":14283:14312   */\n      tag_161\n      jump\t// in\n    tag_369:\n        /* \"#utility.yul\":14278:14281   */\n      dup5\n        /* \"#utility.yul\":14274:14313   */\n      add\n        /* \"#utility.yul\":14267:14313   */\n      swap2\n      pop\n        /* \"#utility.yul\":14036:14319   */\n      pop\n        /* \"#utility.yul\":13946:14319   */\n      swap3\n      swap2\n      pop\n      pop\n      jump\t// out\n        /* \"#utility.yul\":14325:14945   */\n    tag_121:\n        /* \"#utility.yul\":14512:14516   */\n      0x00\n        /* \"#utility.yul\":14550:14552   */\n      0x60\n        /* \"#utility.yul\":14539:14548   */\n      dup3\n        /* \"#utility.yul\":14535:14553   */\n      add\n        /* \"#utility.yul\":14527:14553   */\n      swap1\n      pop\n        /* \"#utility.yul\":14599:14608   */\n      dup2\n        /* \"#utility.yul\":14593:14597   */\n      dup2\n        /* \"#utility.yul\":14589:14609   */\n      sub\n        /* \"#utility.yul\":14585:14586   */\n      0x00\n        /* \"#utility.yul\":14574:14583   */\n      dup4\n        /* \"#utility.yul\":14570:14587   */\n      add\n        /* \"#utility.yul\":14563:14610   */\n      mstore\n        /* \"#utility.yul\":14627:14705   */\n      tag_371\n        /* \"#utility.yul\":14700:14704   */\n      dup2\n        /* \"#utility.yul\":14691:14697   */\n      dup7\n        /* \"#utility.yul\":14627:14705   */\n      tag_191\n      jump\t// in\n    tag_371:\n        /* \"#utility.yul\":14619:14705   */\n      swap1\n      pop\n        /* \"#utility.yul\":14715:14787   */\n      tag_372\n        /* \"#utility.yul\":14783:14785   */\n      0x20\n        /* \"#utility.yul\":14772:14781   */\n      dup4\n        /* \"#utility.yul\":14768:14786   */\n      add\n        /* \"#utility.yul\":14759:14765   */\n      dup6\n        /* \"#utility.yul\":14715:14787   */\n      tag_193\n      jump\t// in\n    tag_372:\n        /* \"#utility.yul\":14834:14843   */\n      dup2\n        /* \"#utility.yul\":14828:14832   */\n      dup2\n        /* \"#utility.yul\":14824:14844   */\n      sub\n        /* \"#utility.yul\":14819:14821   */\n      0x40\n        /* \"#utility.yul\":14808:14817   */\n      dup4\n        /* \"#utility.yul\":14804:14822   */\n      add\n        /* \"#utility.yul\":14797:14845   */\n      mstore\n        /* \"#utility.yul\":14862:14938   */\n      tag_373\n        /* \"#utility.yul\":14933:14937   */\n      dup2\n        /* \"#utility.yul\":14924:14930   */\n      dup5\n        /* \"#utility.yul\":14862:14938   */\n      tag_195\n      jump\t// in\n    tag_373:\n        /* \"#utility.yul\":14854:14938   */\n      swap1\n      pop\n        /* \"#utility.yul\":14325:14945   */\n      swap5\n      swap4\n      pop\n      pop\n      pop\n      pop\n      jump\t// out\n        /* \"#utility.yul\":14951:15091   */\n    tag_196:\n        /* \"#utility.yul\":14999:15003   */\n      0x00\n        /* \"#utility.yul\":15022:15025   */\n      dup2\n        /* \"#utility.yul\":15014:15025   */\n      swap1\n      pop\n        /* \"#utility.yul\":15045:15048   */\n      dup2\n        /* \"#utility.yul\":15042:15043   */\n      0x00\n        /* \"#utility.yul\":15035:15049   */\n      mstore\n        /* \"#utility.yul\":15079:15083   */\n      0x20\n        /* \"#utility.yul\":15076:15077   */\n      0x00\n        /* \"#utility.yul\":15066:15084   */\n      keccak256\n        /* \"#utility.yul\":15058:15084   */\n      swap1\n      pop\n        /* \"#utility.yul\":14951:15091   */\n      swap2\n      swap1\n      pop\n      jump\t// out\n        /* \"#utility.yul\":15097:15190   */\n    tag_197:\n        /* \"#utility.yul\":15134:15140   */\n      0x00\n        /* \"#utility.yul\":15181:15183   */\n      0x20\n        /* \"#utility.yul\":15176:15178   */\n      0x1f\n        /* \"#utility.yul\":15169:15174   */\n      dup4\n        /* \"#utility.yul\":15165:15179   */\n      add\n        /* \"#utility.yul\":15161:15184   */\n      div\n        /* \"#utility.yul\":15151:15184   */\n      swap1\n      pop\n        /* \"#utility.yul\":15097:15190   */\n      swap2\n      swap1\n      pop\n      jump\t// out\n        /* \"#utility.yul\":15196:15303   */\n    tag_198:\n        /* \"#utility.yul\":15240:15248   */\n      0x00\n        /* \"#utility.yul\":15290:15295   */\n      dup3\n        /* \"#utility.yul\":15284:15288   */\n      dup3\n        /* \"#utility.yul\":15280:15296   */\n      shl\n        /* \"#utility.yul\":15259:15296   */\n      swap1\n      pop\n        /* \"#utility.yul\":15196:15303   */\n      swap3\n      swap2\n      pop\n      pop\n      jump\t// out\n        /* \"#utility.yul\":15309:15702   */\n    tag_199:\n        /* \"#utility.yul\":15378:15384   */\n      0x00\n        /* \"#utility.yul\":15428:15429   */\n      0x08\n        /* \"#utility.yul\":15416:15426   */\n      dup4\n        /* \"#utility.yul\":15412:15430   */\n      mul\n        /* \"#utility.yul\":15451:15548   */\n      tag_378\n        /* \"#utility.yul\":15481:15547   */\n      0xffffffffffffffffffffffffffffffffffffffffffffffffffffffffffffffff\n        /* \"#utility.yul\":15470:15479   */\n      dup3\n        /* \"#utility.yul\":15451:15548   */\n      tag_198\n      jump\t// in\n    tag_378:\n        /* \"#utility.yul\":15569:15608   */\n      tag_379\n        /* \"#utility.yul\":15599:15607   */\n      dup7\n        /* \"#utility.yul\":15588:15597   */\n      dup4\n        /* \"#utility.yul\":15569:15608   */\n      tag_198\n      jump\t// in\n    tag_379:\n        /* \"#utility.yul\":15557:15608   */\n      swap6\n      pop\n        /* \"#utility.yul\":15641:15645   */\n      dup1\n        /* \"#utility.yul\":15637:15646   */\n      not\n        /* \"#utility.yul\":15630:15635   */\n      dup5\n        /* \"#utility.yul\":15626:15647   */\n      and\n        /* \"#utility.yul\":15617:15647   */\n      swap4\n      pop\n        /* \"#utility.yul\":15690:15694   */\n      dup1\n        /* \"#utility.yul\":15680:15688   */\n      dup7\n        /* \"#utility.yul\":15676:15695   */\n      and\n        /* \"#utility.yul\":15669:15674   */\n      dup5\n        /* \"#utility.yul\":15666:15696   */\n      or\n        /* \"#utility.yul\":15656:15696   */\n      swap3\n      pop\n        /* \"#utility.yul\":15385:15702   */\n      pop\n      pop\n        /* \"#utility.yul\":15309:15702   */\n      swap4\n      swap3\n      pop\n      pop\n      pop\n      jump\t// out\n        /* \"#utility.yul\":15708:15768   */\n    tag_200:\n        /* \"#utility.yul\":15736:15739   */\n      0x00\n        /* \"#utility.yul\":15757:15762   */\n      dup2\n        /* \"#utility.yul\":15750:15762   */\n      swap1\n      pop\n        /* \"#utility.yul\":15708:15768   */\n      swap2\n      swap1\n      pop\n      jump\t// out\n        /* \"#utility.yul\":15774:15916   */\n    tag_201:\n        /* \"#utility.yul\":15824:15833   */\n      0x00\n        /* \"#utility.yul\":15857:15910   */\n      tag_382\n        /* \"#utility.yul\":15875:15909   */\n      tag_383\n        /* \"#utility.yul\":15884:15908   */\n      tag_384\n        /* \"#utility.yul\":15902:15907   */\n      dup5\n        /* \"#utility.yul\":15884:15908   */\n      tag_192\n      jump\t// in\n    tag_384:\n        /* \"#utility.yul\":15875:15909   */\n      tag_200\n      jump\t// in\n    tag_383:\n        /* \"#utility.yul\":15857:15910   */\n      tag_192\n      jump\t// in\n    tag_382:\n        /* \"#utility.yul\":15844:15910   */\n      swap1\n      pop\n        /* \"#utility.yul\":15774:15916   */\n      swap2\n      swap1\n      pop\n      jump\t// out\n        /* \"#utility.yul\":15922:15997   */\n    tag_202:\n        /* \"#utility.yul\":15965:15968   */\n      0x00\n        /* \"#utility.yul\":15986:15991   */\n      dup2\n        /* \"#utility.yul\":15979:15991   */\n      swap1\n      pop\n        /* \"#utility.yul\":15922:15997   */\n      swap2\n      swap1\n      pop\n      jump\t// out\n        /* \"#utility.yul\":16003:16272   */\n    tag_203:\n        /* \"#utility.yul\":16113:16152   */\n      tag_387\n        /* \"#utility.yul\":16144:16151   */\n      dup4\n        /* \"#utility.yul\":16113:16152   */\n      tag_201\n      jump\t// in\n    tag_387:\n        /* \"#utility.yul\":16174:16265   */\n      tag_388\n        /* \"#utility.yul\":16223:16264   */\n      tag_389\n        /* \"#utility.yul\":16247:16263   */\n      dup3\n        /* \"#utility.yul\":16223:16264   */\n      tag_202\n      jump\t// in\n    tag_389:\n        /* \"#utility.yul\":16215:16221   */\n      dup5\n        /* \"#utility.yul\":16208:16212   */\n      dup5\n        /* \"#utility.yul\":16202:16213   */\n      sload\n        /* \"#utility.yul\":16174:16265   */\n      tag_199\n      jump\t// in\n    tag_388:\n        /* \"#utility.yul\":16168:16172   */\n      dup3\n        /* \"#utility.yul\":16161:16266   */\n      sstore\n        /* \"#utility.yul\":16079:16272   */\n      pop\n        /* \"#utility.yul\":16003:16272   */\n      pop\n      pop\n      pop\n      jump\t// out\n        /* \"#utility.yul\":16278:16351   */\n    tag_204:\n        /* \"#utility.yul\":16323:16326   */\n      0x00\n        /* \"#utility.yul\":16278:16351   */\n      swap1\n      jump\t// out\n        /* \"#utility.yul\":16357:16546   */\n    tag_205:\n        /* \"#utility.yul\":16434:16466   */\n      tag_392\n      tag_204\n      jump\t// in\n    tag_392:\n        /* \"#utility.yul\":16475:16540   */\n      tag_393\n        /* \"#utility.yul\":16533:16539   */\n      dup2\n        /* \"#utility.yul\":16525:16531   */\n      dup5\n        /* \"#utility.yul\":16519:16523   */\n      dup5\n        /* \"#utility.yul\":16475:16540   */\n      tag_203\n      jump\t// in\n    tag_393:\n        /* \"#utility.yul\":16410:16546   */\n      pop\n        /* \"#utility.yul\":16357:16546   */\n      pop\n      pop\n      jump\t// out\n        /* \"#utility.yul\":16552:16738   */\n    tag_206:\n        /* \"#utility.yul\":16612:16732   */\n    tag_395:\n        /* \"#utility.yul\":16629:16632   */\n      dup2\n        /* \"#utility.yul\":16622:16627   */\n      dup2\n        /* \"#utility.yul\":16619:16633   */\n      lt\n        /* \"#utility.yul\":16612:16732   */\n      iszero\n      tag_397\n      jumpi\n        /* \"#utility.yul\":16683:16722   */\n      tag_398\n        /* \"#utility.yul\":16720:16721   */\n      0x00\n        /* \"#utility.yul\":16713:16718   */\n      dup3\n        /* \"#utility.yul\":16683:16722   */\n      tag_205\n      jump\t// in\n    tag_398:\n        /* \"#utility.yul\":16656:16657   */\n      0x01\n        /* \"#utility.yul\":16649:16654   */\n      dup2\n        /* \"#utility.yul\":16645:16658   */\n      add\n        /* \"#utility.yul\":16636:16658   */\n      swap1\n      pop\n        /* \"#utility.yul\":16612:16732   */\n      jump(tag_395)\n    tag_397:\n        /* \"#utility.yul\":16552:16738   */\n      pop\n      pop\n      jump\t// out\n        /* \"#utility.yul\":16744:17285   */\n    tag_207:\n        /* \"#utility.yul\":16844:16846   */\n      0x1f\n        /* \"#utility.yul\":16839:16842   */\n      dup3\n        /* \"#utility.yul\":16836:16847   */\n      gt\n        /* \"#utility.yul\":16833:17278   */\n      iszero\n      tag_400\n      jumpi\n        /* \"#utility.yul\":16878:16915   */\n      tag_401\n        /* \"#utility.yul\":16909:16914   */\n      dup2\n        /* \"#utility.yul\":16878:16915   */\n      tag_196\n      jump\t// in\n    tag_401:\n        /* \"#utility.yul\":16961:16990   */\n      tag_402\n        /* \"#utility.yul\":16979:16989   */\n      dup5\n        /* \"#utility.yul\":16961:16990   */\n      tag_197\n      jump\t// in\n    tag_402:\n        /* \"#utility.yul\":16951:16959   */\n      dup2\n        /* \"#utility.yul\":16947:16991   */\n      add\n        /* \"#utility.yul\":17144:17146   */\n      0x20\n        /* \"#utility.yul\":17132:17142   */\n      dup6\n        /* \"#utility.yul\":17129:17147   */\n      lt\n        /* \"#utility.yul\":17126:17175   */\n      iszero\n      tag_403\n      jumpi\n        /* \"#utility.yul\":17165:17173   */\n      dup2\n        /* \"#utility.yul\":17150:17173   */\n      swap1\n      pop\n        /* \"#utility.yul\":17126:17175   */\n    tag_403:\n        /* \"#utility.yul\":17188:17268   */\n      tag_404\n        /* \"#utility.yul\":17244:17266   */\n      tag_405\n        /* \"#utility.yul\":17262:17265   */\n      dup6\n        /* \"#utility.yul\":17244:17266   */\n      tag_197\n      jump\t// in\n    tag_405:\n        /* \"#utility.yul\":17234:17242   */\n      dup4\n        /* \"#utility.yul\":17230:17267   */\n      add\n        /* \"#utility.yul\":17217:17228   */\n      dup3\n        /* \"#utility.yul\":17188:17268   */\n      tag_206\n      jump\t// in\n    tag_404:\n        /* \"#utility.yul\":16848:17278   */\n      pop\n      pop\n        /* \"#utility.yul\":16833:17278   */\n    tag_400:\n        /* \"#utility.yul\":16744:17285   */\n      pop\n      pop\n      pop\n      jump\t// out\n        /* \"#utility.yul\":17291:17408   */\n    tag_208:\n        /* \"#utility.yul\":17345:17353   */\n      0x00\n        /* \"#utility.yul\":17395:17400   */\n      dup3\n        /* \"#utility.yul\":17389:17393   */\n      dup3\n        /* \"#utility.yul\":17385:17401   */\n      shr\n        /* \"#utility.yul\":17364:17401   */\n      swap1\n      pop\n        /* \"#utility.yul\":17291:17408   */\n      swap3\n      swap2\n      pop\n      pop\n      jump\t// out\n        /* \"#utility.yul\":17414:17583   */\n    tag_209:\n        /* \"#utility.yul\":17458:17464   */\n      0x00\n        /* \"#utility.yul\":17491:17542   */\n      tag_408\n        /* \"#utility.yul\":17539:17540   */\n      0x00\n        /* \"#utility.yul\":17535:17541   */\n      not\n        /* \"#utility.yul\":17527:17532   */\n      dup5\n        /* \"#utility.yul\":17524:17525   */\n      0x08\n        /* \"#utility.yul\":17520:17533   */\n      mul\n        /* \"#utility.yul\":17491:17542   */\n      tag_208\n      jump\t// in\n    tag_408:\n        /* \"#utility.yul\":17487:17543   */\n      not\n        /* \"#utility.yul\":17572:17576   */\n      dup1\n        /* \"#utility.yul\":17566:17570   */\n      dup4\n        /* \"#utility.yul\":17562:17577   */\n      and\n        /* \"#utility.yul\":17552:17577   */\n      swap2\n      pop\n        /* \"#utility.yul\":17465:17583   */\n      pop\n        /* \"#utility.yul\":17414:17583   */\n      swap3\n      swap2\n      pop\n      pop\n      jump\t// out\n        /* \"#utility.yul\":17588:17883   */\n    tag_210:\n        /* \"#utility.yul\":17664:17668   */\n      0x00\n        /* \"#utility.yul\":17810:17839   */\n      tag_410\n        /* \"#utility.yul\":17835:17838   */\n      dup4\n        /* \"#utility.yul\":17829:17833   */\n      dup4\n        /* \"#utility.yul\":17810:17839   */\n      tag_209\n      jump\t// in\n    tag_410:\n        /* \"#utility.yul\":17802:17839   */\n      swap2\n      pop\n        /* \"#utility.yul\":17872:17875   */\n      dup3\n        /* \"#utility.yul\":17869:17870   */\n      0x02\n        /* \"#utility.yul\":17865:17876   */\n      mul\n        /* \"#utility.yul\":17859:17863   */\n      dup3\n        /* \"#utility.yul\":17856:17877   */\n      or\n        /* \"#utility.yul\":17848:17877   */\n      swap1\n      pop\n        /* \"#utility.yul\":17588:17883   */\n      swap3\n      swap2\n      pop\n      pop\n      jump\t// out\n        /* \"#utility.yul\":17888:19278   */\n    tag_125:\n        /* \"#utility.yul\":18003:18039   */\n      tag_412\n        /* \"#utility.yul\":18035:18038   */\n      dup3\n        /* \"#utility.yul\":18003:18039   */\n      tag_172\n      jump\t// in\n    tag_412:\n        /* \"#utility.yul\":18104:18122   */\n      0xffffffffffffffff\n        /* \"#utility.yul\":18096:18102   */\n      dup2\n        /* \"#utility.yul\":18093:18123   */\n      gt\n        /* \"#utility.yul\":18090:18146   */\n      iszero\n      tag_413\n      jumpi\n        /* \"#utility.yul\":18126:18144   */\n      tag_414\n      tag_162\n      jump\t// in\n    tag_414:\n        /* \"#utility.yul\":18090:18146   */\n    tag_413:\n        /* \"#utility.yul\":18170:18208   */\n      tag_415\n        /* \"#utility.yul\":18202:18206   */\n      dup3\n        /* \"#utility.yul\":18196:18207   */\n      sload\n        /* \"#utility.yul\":18170:18208   */\n      tag_83\n      jump\t// in\n    tag_415:\n        /* \"#utility.yul\":18255:18321   */\n      tag_416\n        /* \"#utility.yul\":18314:18320   */\n      dup3\n        /* \"#utility.yul\":18306:18312   */\n      dup3\n        /* \"#utility.yul\":18300:18304   */\n      dup6\n        /* \"#utility.yul\":18255:18321   */\n      tag_207\n      jump\t// in\n    tag_416:\n        /* \"#utility.yul\":18348:18349   */\n      0x00\n        /* \"#utility.yul\":18372:18376   */\n      0x20\n        /* \"#utility.yul\":18359:18376   */\n      swap1\n      pop\n        /* \"#utility.yul\":18404:18406   */\n      0x1f\n        /* \"#utility.yul\":18396:18402   */\n      dup4\n        /* \"#utility.yul\":18393:18407   */\n      gt\n        /* \"#utility.yul\":18421:18422   */\n      0x01\n        /* \"#utility.yul\":18416:19033   */\n      dup2\n      eq\n      tag_418\n      jumpi\n        /* \"#utility.yul\":19077:19078   */\n      0x00\n        /* \"#utility.yul\":19094:19100   */\n      dup5\n        /* \"#utility.yul\":19091:19168   */\n      iszero\n      tag_419\n      jumpi\n        /* \"#utility.yul\":19143:19152   */\n      dup3\n        /* \"#utility.yul\":19138:19141   */\n      dup8\n        /* \"#utility.yul\":19134:19153   */\n      add\n        /* \"#utility.yul\":19128:19154   */\n      mload\n        /* \"#utility.yul\":19119:19154   */\n      swap1\n      pop\n        /* \"#utility.yul\":19091:19168   */\n    tag_419:\n        /* \"#utility.yul\":19194:19261   */\n      tag_420\n        /* \"#utility.yul\":19254:19260   */\n      dup6\n        /* \"#utility.yul\":19247:19252   */\n      dup3\n        /* \"#utility.yul\":19194:19261   */\n      tag_210\n      jump\t// in\n    tag_420:\n        /* \"#utility.yul\":19188:19192   */\n      dup7\n        /* \"#utility.yul\":19181:19262   */\n      sstore\n        /* \"#utility.yul\":19050:19272   */\n      pop\n        /* \"#utility.yul\":18386:19272   */\n      jump(tag_417)\n        /* \"#utility.yul\":18416:19033   */\n    tag_418:\n        /* \"#utility.yul\":18468:18472   */\n      0x1f\n        /* \"#utility.yul\":18464:18473   */\n      not\n        /* \"#utility.yul\":18456:18462   */\n      dup5\n        /* \"#utility.yul\":18452:18474   */\n      and\n        /* \"#utility.yul\":18502:18538   */\n      tag_421\n        /* \"#utility.yul\":18533:18537   */\n      dup7\n        /* \"#utility.yul\":18502:18538   */\n      tag_196\n      jump\t// in\n    tag_421:\n        /* \"#utility.yul\":18560:18561   */\n      0x00\n        /* \"#utility.yul\":18574:18782   */\n    tag_422:\n        /* \"#utility.yul\":18588:18595   */\n      dup3\n        /* \"#utility.yul\":18585:18586   */\n      dup2\n        /* \"#utility.yul\":18582:18596   */\n      lt\n        /* \"#utility.yul\":18574:18782   */\n      iszero\n      tag_424\n      jumpi\n        /* \"#utility.yul\":18667:18676   */\n      dup5\n        /* \"#utility.yul\":18662:18665   */\n      dup10\n        /* \"#utility.yul\":18658:18677   */\n      add\n        /* \"#utility.yul\":18652:18678   */\n      mload\n        /* \"#utility.yul\":18644:18650   */\n      dup3\n        /* \"#utility.yul\":18637:18679   */\n      sstore\n        /* \"#utility.yul\":18718:18719   */\n      0x01\n        /* \"#utility.yul\":18710:18716   */\n      dup3\n        /* \"#utility.yul\":18706:18720   */\n      add\n        /* \"#utility.yul\":18696:18720   */\n      swap2\n      pop\n        /* \"#utility.yul\":18765:18767   */\n      0x20\n        /* \"#utility.yul\":18754:18763   */\n      dup6\n        /* \"#utility.yul\":18750:18768   */\n      add\n        /* \"#utility.yul\":18737:18768   */\n      swap5\n      pop\n        /* \"#utility.yul\":18611:18615   */\n      0x20\n        /* \"#utility.yul\":18608:18609   */\n      dup2\n        /* \"#utility.yul\":18604:18616   */\n      add\n        /* \"#utility.yul\":18599:18616   */\n      swap1\n      pop\n        /* \"#utility.yul\":18574:18782   */\n      jump(tag_422)\n    tag_424:\n        /* \"#utility.yul\":18810:18816   */\n      dup7\n        /* \"#utility.yul\":18801:18808   */\n      dup4\n        /* \"#utility.yul\":18798:18817   */\n      lt\n        /* \"#utility.yul\":18795:18974   */\n      iszero\n      tag_425\n      jumpi\n        /* \"#utility.yul\":18868:18877   */\n      dup5\n        /* \"#utility.yul\":18863:18866   */\n      dup10\n        /* \"#utility.yul\":18859:18878   */\n      add\n        /* \"#utility.yul\":18853:18879   */\n      mload\n        /* \"#utility.yul\":18911:18959   */\n      tag_426\n        /* \"#utility.yul\":18953:18957   */\n      0x1f\n        /* \"#utility.yul\":18945:18951   */\n      dup10\n        /* \"#utility.yul\":18941:18958   */\n      and\n        /* \"#utility.yul\":18930:18939   */\n      dup3\n        /* \"#utility.yul\":18911:18959   */\n      tag_209\n      jump\t// in\n    tag_426:\n        /* \"#utility.yul\":18903:18909   */\n      dup4\n        /* \"#utility.yul\":18896:18960   */\n      sstore\n        /* \"#utility.yul\":18818:18974   */\n      pop\n        /* \"#utility.yul\":18795:18974   */\n    tag_425:\n        /* \"#utility.yul\":19020:19021   */\n      0x01\n        /* \"#utility.yul\":19016:19017   */\n      0x02\n        /* \"#utility.yul\":19008:19014   */\n      dup9\n        /* \"#utility.yul\":19004:19018   */\n      mul\n        /* \"#utility.yul\":19000:19022   */\n      add\n        /* \"#utility.yul\":18994:18998   */\n      dup9\n        /* \"#utility.yul\":18987:19023   */\n      sstore\n        /* \"#utility.yul\":18423:19033   */\n      pop\n      pop\n      pop\n        /* \"#utility.yul\":18386:19272   */\n    tag_417:\n      pop\n        /* \"#utility.yul\":17978:19278   */\n      pop\n      pop\n      pop\n        /* \"#utility.yul\":17888:19278   */\n      pop\n      pop\n      jump\t// out\n        /* \"#utility.yul\":19284:19402   */\n    tag_211:\n        /* \"#utility.yul\":19371:19395   */\n      tag_428\n        /* \"#utility.yul\":19389:19394   */\n      dup2\n        /* \"#utility.yul\":19371:19395   */\n      tag_180\n      jump\t// in\n    tag_428:\n        /* \"#utility.yul\":19366:19369   */\n      dup3\n        /* \"#utility.yul\":19359:19396   */\n      mstore\n        /* \"#utility.yul\":19284:19402   */\n      pop\n      pop\n      jump\t// out\n        /* \"#utility.yul\":19408:19740   */\n    tag_146:\n        /* \"#utility.yul\":19529:19533   */\n      0x00\n        /* \"#utility.yul\":19567:19569   */\n      0x40\n        /* \"#utility.yul\":19556:19565   */\n      dup3\n        /* \"#utility.yul\":19552:19570   */\n      add\n        /* \"#utility.yul\":19544:19570   */\n      swap1\n      pop\n        /* \"#utility.yul\":19580:19651   */\n      tag_430\n        /* \"#utility.yul\":19648:19649   */\n      0x00\n        /* \"#utility.yul\":19637:19646   */\n      dup4\n        /* \"#utility.yul\":19633:19650   */\n      add\n        /* \"#utility.yul\":19624:19630   */\n      dup6\n        /* \"#utility.yul\":19580:19651   */\n      tag_211\n      jump\t// in\n    tag_430:\n        /* \"#utility.yul\":19661:19733   */\n      tag_431\n        /* \"#utility.yul\":19729:19731   */\n      0x20\n        /* \"#utility.yul\":19718:19727   */\n      dup4\n        /* \"#utility.yul\":19714:19732   */\n      add\n        /* \"#utility.yul\":19705:19711   */\n      dup5\n        /* \"#utility.yul\":19661:19733   */\n      tag_158\n      jump\t// in\n    tag_431:\n        /* \"#utility.yul\":19408:19740   */\n      swap4\n      swap3\n      pop\n      pop\n      pop\n      jump\t// out\n\n    auxdata: 0xa26469706673582212205b3441a79b3650d4a5f1c2dc9b73a67e5f2094c34fb35ebeffc123940b81436664736f6c634300081a0033\n}\n",
				"bytecode": {
					"linkReferences": {},
					"object": "608060405234801561000f575f80fd5b506100225f801b3361005960201b60201c565b506100537f59a1c48e5837ad7a7f3dcedcbe129bf3249ec4fbf651fd4f5e2600ead39fe2f53361005960201b60201c565b506101b8565b5f61006a838361014e60201b60201c565b6101445760015f808581526020019081526020015f205f015f8473ffffffffffffffffffffffffffffffffffffffff1673ffffffffffffffffffffffffffffffffffffffff1681526020019081526020015f205f6101000a81548160ff0219169083151502179055506100e16101b160201b60201c565b73ffffffffffffffffffffffffffffffffffffffff168273ffffffffffffffffffffffffffffffffffffffff16847f2f8788117e7eff1d82e926ec794901d17c78024a50270940304540a733656f0d60405160405180910390a460019050610148565b5f90505b92915050565b5f805f8481526020019081526020015f205f015f8373ffffffffffffffffffffffffffffffffffffffff1673ffffffffffffffffffffffffffffffffffffffff1681526020019081526020015f205f9054906101000a900460ff16905092915050565b5f33905090565b6113ed806101c55f395ff3fe608060405234801561000f575f80fd5b50600436106100cd575f3560e01c806350c17b101161008a578063a217fddf11610064578063a217fddf1461021f578063abaa536f1461023d578063d547741f1461026d578063eddd2b4d14610289576100cd565b806350c17b10146101b55780636e1d616e146101d157806391d14854146101ef576100cd565b806301ffc9a7146100d1578063248a9ca3146101015780632820b656146101315780632f2ff15d1461016157806336568abe1461017d5780633e25151814610199575b5f80fd5b6100eb60048036038101906100e691906109fa565b6102a5565b6040516100f89190610a3f565b60405180910390f35b61011b60048036038101906101169190610a8b565b61031e565b6040516101289190610ac5565b60405180910390f35b61014b60048036038101906101469190610c1a565b61033a565b6040516101589190610d7c565b60405180910390f35b61017b60048036038101906101769190610df6565b61042c565b005b61019760048036038101906101929190610df6565b61044e565b005b6101b360048036038101906101ae9190610e34565b6104c9565b005b6101cf60048036038101906101ca9190610e34565b610503565b005b6101d961053d565b6040516101e69190610ac5565b60405180910390f35b61020960048036038101906102049190610df6565b610561565b6040516102169190610a3f565b60405180910390f35b6102276105c4565b6040516102349190610ac5565b60405180910390f35b61025760048036038101906102529190610e34565b6105ca565b6040516102649190610a3f565b60405180910390f35b61028760048036038101906102829190610df6565b6105fc565b005b6102a3600480360381019061029e9190610efd565b61061e565b005b5f7f7965db0b000000000000000000000000000000000000000000000000000000007bffffffffffffffffffffffffffffffffffffffffffffffffffffffff1916827bffffffffffffffffffffffffffffffffffffffffffffffffffffffff191614806103175750610316826106ed565b5b9050919050565b5f805f8381526020019081526020015f20600101549050919050565b606060018260405161034c9190610fb7565b9081526020016040518091039020805480602002602001604051908101604052809291908181526020015f905b82821015610421578382905f5260205f2001805461039690610ffa565b80601f01602080910402602001604051908101604052809291908181526020018280546103c290610ffa565b801561040d5780601f106103e45761010080835404028352916020019161040d565b820191905f5260205f20905b8154815290600101906020018083116103f057829003601f168201915b505050505081526020019060010190610379565b505050509050919050565b6104358261031e565b61043e81610756565b610448838361076a565b50505050565b610456610853565b73ffffffffffffffffffffffffffffffffffffffff168173ffffffffffffffffffffffffffffffffffffffff16146104ba576040517f6697b23200000000000000000000000000000000000000000000000000000000815260040160405180910390fd5b6104c4828261085a565b505050565b5f801b6104d581610756565b6104ff7f59a1c48e5837ad7a7f3dcedcbe129bf3249ec4fbf651fd4f5e2600ead39fe2f5836105fc565b5050565b5f801b61050f81610756565b6105397f59a1c48e5837ad7a7f3dcedcbe129bf3249ec4fbf651fd4f5e2600ead39fe2f58361042c565b5050565b7f59a1c48e5837ad7a7f3dcedcbe129bf3249ec4fbf651fd4f5e2600ead39fe2f581565b5f805f8481526020019081526020015f205f015f8373ffffffffffffffffffffffffffffffffffffffff1673ffffffffffffffffffffffffffffffffffffffff1681526020019081526020015f205f9054906101000a900460ff16905092915050565b5f801b81565b5f6105f57f59a1c48e5837ad7a7f3dcedcbe129bf3249ec4fbf651fd4f5e2600ead39fe2f583610561565b9050919050565b6106058261031e565b61060e81610756565b610618838361085a565b50505050565b7f59a1c48e5837ad7a7f3dcedcbe129bf3249ec4fbf651fd4f5e2600ead39fe2f561064881610756565b3373ffffffffffffffffffffffffffffffffffffffff167ff184132c287f2b516a8ee5fe2edd23690672cc98ccf6baa4a231bed12174af07844285604051610692939291906110d2565b60405180910390a26001836040516106aa9190610fb7565b908152602001604051809103902082908060018154018082558091505060019003905f5260205f20015f9091909190915090816106e791906112b2565b50505050565b5f7f01ffc9a7000000000000000000000000000000000000000000000000000000007bffffffffffffffffffffffffffffffffffffffffffffffffffffffff1916827bffffffffffffffffffffffffffffffffffffffffffffffffffffffff1916149050919050565b61076781610762610853565b610943565b50565b5f6107758383610561565b6108495760015f808581526020019081526020015f205f015f8473ffffffffffffffffffffffffffffffffffffffff1673ffffffffffffffffffffffffffffffffffffffff1681526020019081526020015f205f6101000a81548160ff0219169083151502179055506107e6610853565b73ffffffffffffffffffffffffffffffffffffffff168273ffffffffffffffffffffffffffffffffffffffff16847f2f8788117e7eff1d82e926ec794901d17c78024a50270940304540a733656f0d60405160405180910390a46001905061084d565b5f90505b92915050565b5f33905090565b5f6108658383610561565b15610939575f805f8581526020019081526020015f205f015f8473ffffffffffffffffffffffffffffffffffffffff1673ffffffffffffffffffffffffffffffffffffffff1681526020019081526020015f205f6101000a81548160ff0219169083151502179055506108d6610853565b73ffffffffffffffffffffffffffffffffffffffff168273ffffffffffffffffffffffffffffffffffffffff16847ff6391f5c32d9c69d2a47ea670b442974b53935d1edc7fd64eb21e047a839171b60405160405180910390a46001905061093d565b5f90505b92915050565b61094d8282610561565b6109905780826040517fe2517d3f000000000000000000000000000000000000000000000000000000008152600401610987929190611390565b60405180910390fd5b5050565b5f604051905090565b5f80fd5b5f80fd5b5f7fffffffff0000000000000000000000000000000000000000000000000000000082169050919050565b6109d9816109a5565b81146109e3575f80fd5b50565b5f813590506109f4816109d0565b92915050565b5f60208284031215610a0f57610a0e61099d565b5b5f610a1c848285016109e6565b91505092915050565b5f8115159050919050565b610a3981610a25565b82525050565b5f602082019050610a525f830184610a30565b92915050565b5f819050919050565b610a6a81610a58565b8114610a74575f80fd5b50565b5f81359050610a8581610a61565b92915050565b5f60208284031215610aa057610a9f61099d565b5b5f610aad84828501610a77565b91505092915050565b610abf81610a58565b82525050565b5f602082019050610ad85f830184610ab6565b92915050565b5f80fd5b5f80fd5b5f601f19601f8301169050919050565b7f4e487b71000000000000000000000000000000000000000000000000000000005f52604160045260245ffd5b610b2c82610ae6565b810181811067ffffffffffffffff82111715610b4b57610b4a610af6565b5b80604052505050565b5f610b5d610994565b9050610b698282610b23565b919050565b5f67ffffffffffffffff821115610b8857610b87610af6565b5b610b9182610ae6565b9050602081019050919050565b828183375f83830152505050565b5f610bbe610bb984610b6e565b610b54565b905082815260208101848484011115610bda57610bd9610ae2565b5b610be5848285610b9e565b509392505050565b5f82601f830112610c0157610c00610ade565b5b8135610c11848260208601610bac565b91505092915050565b5f60208284031215610c2f57610c2e61099d565b5b5f82013567ffffffffffffffff811115610c4c57610c4b6109a1565b5b610c5884828501610bed565b91505092915050565b5f81519050919050565b5f82825260208201905092915050565b5f819050602082019050919050565b5f81519050919050565b5f82825260208201905092915050565b8281835e5f83830152505050565b5f610cbc82610c8a565b610cc68185610c94565b9350610cd6818560208601610ca4565b610cdf81610ae6565b840191505092915050565b5f610cf58383610cb2565b905092915050565b5f602082019050919050565b5f610d1382610c61565b610d1d8185610c6b565b935083602082028501610d2f85610c7b565b805f5b85811015610d6a5784840389528151610d4b8582610cea565b9450610d5683610cfd565b925060208a01995050600181019050610d32565b50829750879550505050505092915050565b5f6020820190508181035f830152610d948184610d09565b905092915050565b5f73ffffffffffffffffffffffffffffffffffffffff82169050919050565b5f610dc582610d9c565b9050919050565b610dd581610dbb565b8114610ddf575f80fd5b50565b5f81359050610df081610dcc565b92915050565b5f8060408385031215610e0c57610e0b61099d565b5b5f610e1985828601610a77565b9250506020610e2a85828601610de2565b9150509250929050565b5f60208284031215610e4957610e4861099d565b5b5f610e5684828501610de2565b91505092915050565b5f67ffffffffffffffff821115610e7957610e78610af6565b5b610e8282610ae6565b9050602081019050919050565b5f610ea1610e9c84610e5f565b610b54565b905082815260208101848484011115610ebd57610ebc610ae2565b5b610ec8848285610b9e565b509392505050565b5f82601f830112610ee457610ee3610ade565b5b8135610ef4848260208601610e8f565b91505092915050565b5f8060408385031215610f1357610f1261099d565b5b5f83013567ffffffffffffffff811115610f3057610f2f6109a1565b5b610f3c85828601610bed565b925050602083013567ffffffffffffffff811115610f5d57610f5c6109a1565b5b610f6985828601610ed0565b9150509250929050565b5f81519050919050565b5f81905092915050565b5f610f9182610f73565b610f9b8185610f7d565b9350610fab818560208601610ca4565b80840191505092915050565b5f610fc28284610f87565b915081905092915050565b7f4e487b71000000000000000000000000000000000000000000000000000000005f52602260045260245ffd5b5f600282049050600182168061101157607f821691505b60208210810361102457611023610fcd565b5b50919050565b5f82825260208201905092915050565b5f61104482610f73565b61104e818561102a565b935061105e818560208601610ca4565b61106781610ae6565b840191505092915050565b5f819050919050565b61108481611072565b82525050565b5f82825260208201905092915050565b5f6110a482610c8a565b6110ae818561108a565b93506110be818560208601610ca4565b6110c781610ae6565b840191505092915050565b5f6060820190508181035f8301526110ea818661103a565b90506110f9602083018561107b565b818103604083015261110b818461109a565b9050949350505050565b5f819050815f5260205f209050919050565b5f6020601f8301049050919050565b5f82821b905092915050565b5f600883026111717fffffffffffffffffffffffffffffffffffffffffffffffffffffffffffffffff82611136565b61117b8683611136565b95508019841693508086168417925050509392505050565b5f819050919050565b5f6111b66111b16111ac84611072565b611193565b611072565b9050919050565b5f819050919050565b6111cf8361119c565b6111e36111db826111bd565b848454611142565b825550505050565b5f90565b6111f76111eb565b6112028184846111c6565b505050565b5b818110156112255761121a5f826111ef565b600181019050611208565b5050565b601f82111561126a5761123b81611115565b61124484611127565b81016020851015611253578190505b61126761125f85611127565b830182611207565b50505b505050565b5f82821c905092915050565b5f61128a5f198460080261126f565b1980831691505092915050565b5f6112a2838361127b565b9150826002028217905092915050565b6112bb82610c8a565b67ffffffffffffffff8111156112d4576112d3610af6565b5b6112de8254610ffa565b6112e9828285611229565b5f60209050601f83116001811461131a575f8415611308578287015190505b6113128582611297565b865550611379565b601f19841661132886611115565b5f5b8281101561134f5784890151825560018201915060208501945060208101905061132a565b8683101561136c5784890151611368601f89168261127b565b8355505b6001600288020188555050505b505050505050565b61138a81610dbb565b82525050565b5f6040820190506113a35f830185611381565b6113b06020830184610ab6565b939250505056fea26469706673582212205b3441a79b3650d4a5f1c2dc9b73a67e5f2094c34fb35ebeffc123940b81436664736f6c634300081a0033",
					"opcodes": "PUSH1 0x80 PUSH1 0x40 MSTORE CALLVALUE DUP1 ISZERO PUSH2 0xF JUMPI PUSH0 DUP1 REVERT JUMPDEST POP PUSH2 0x22 PUSH0 DUP1 SHL CALLER PUSH2 0x59 PUSH1 0x20 SHL PUSH1 0x20 SHR JUMP JUMPDEST POP PUSH2 0x53 PUSH32 0x59A1C48E5837AD7A7F3DCEDCBE129BF3249EC4FBF651FD4F5E2600EAD39FE2F5 CALLER PUSH2 0x59 PUSH1 0x20 SHL PUSH1 0x20 SHR JUMP JUMPDEST POP PUSH2 0x1B8 JUMP JUMPDEST PUSH0 PUSH2 0x6A DUP4 DUP4 PUSH2 0x14E PUSH1 0x20 SHL PUSH1 0x20 SHR JUMP JUMPDEST PUSH2 0x144 JUMPI PUSH1 0x1 PUSH0 DUP1 DUP6 DUP2 MSTORE PUSH1 0x20 ADD SWAP1 DUP2 MSTORE PUSH1 0x20 ADD PUSH0 KECCAK256 PUSH0 ADD PUSH0 DUP5 PUSH20 0xFFFFFFFFFFFFFFFFFFFFFFFFFFFFFFFFFFFFFFFF AND PUSH20 0xFFFFFFFFFFFFFFFFFFFFFFFFFFFFFFFFFFFFFFFF AND DUP2 MSTORE PUSH1 0x20 ADD SWAP1 DUP2 MSTORE PUSH1 0x20 ADD PUSH0 KECCAK256 PUSH0 PUSH2 0x100 EXP DUP2 SLOAD DUP2 PUSH1 0xFF MUL NOT AND SWAP1 DUP4 ISZERO ISZERO MUL OR SWAP1 SSTORE POP PUSH2 0xE1 PUSH2 0x1B1 PUSH1 0x20 SHL PUSH1 0x20 SHR JUMP JUMPDEST PUSH20 0xFFFFFFFFFFFFFFFFFFFFFFFFFFFFFFFFFFFFFFFF AND DUP3 PUSH20 0xFFFFFFFFFFFFFFFFFFFFFFFFFFFFFFFFFFFFFFFF AND DUP5 PUSH32 0x2F8788117E7EFF1D82E926EC794901D17C78024A50270940304540A733656F0D PUSH1 0x40 MLOAD PUSH1 0x40 MLOAD DUP1 SWAP2 SUB SWAP1 LOG4 PUSH1 0x1 SWAP1 POP PUSH2 0x148 JUMP JUMPDEST PUSH0 SWAP1 POP JUMPDEST SWAP3 SWAP2 POP POP JUMP JUMPDEST PUSH0 DUP1 PUSH0 DUP5 DUP2 MSTORE PUSH1 0x20 ADD SWAP1 DUP2 MSTORE PUSH1 0x20 ADD PUSH0 KECCAK256 PUSH0 ADD PUSH0 DUP4 PUSH20 0xFFFFFFFFFFFFFFFFFFFFFFFFFFFFFFFFFFFFFFFF AND PUSH20 0xFFFFFFFFFFFFFFFFFFFFFFFFFFFFFFFFFFFFFFFF AND DUP2 MSTORE PUSH1 0x20 ADD SWAP1 DUP2 MSTORE PUSH1 0x20 ADD PUSH0 KECCAK256 PUSH0 SWAP1 SLOAD SWAP1 PUSH2 0x100 EXP SWAP1 DIV PUSH1 0xFF AND SWAP1 POP SWAP3 SWAP2 POP POP JUMP JUMPDEST PUSH0 CALLER SWAP1 POP SWAP1 JUMP JUMPDEST PUSH2 0x13ED DUP1 PUSH2 0x1C5 PUSH0 CODECOPY PUSH0 RETURN INVALID PUSH1 0x80 PUSH1 0x40 MSTORE CALLVALUE DUP1 ISZERO PUSH2 0xF JUMPI PUSH0 DUP1 REVERT JUMPDEST POP PUSH1 0x4 CALLDATASIZE LT PUSH2 0xCD JUMPI PUSH0 CALLDATALOAD PUSH1 0xE0 SHR DUP1 PUSH4 0x50C17B10 GT PUSH2 0x8A JUMPI DUP1 PUSH4 0xA217FDDF GT PUSH2 0x64 JUMPI DUP1 PUSH4 0xA217FDDF EQ PUSH2 0x21F JUMPI DUP1 PUSH4 0xABAA536F EQ PUSH2 0x23D JUMPI DUP1 PUSH4 0xD547741F EQ PUSH2 0x26D JUMPI DUP1 PUSH4 0xEDDD2B4D EQ PUSH2 0x289 JUMPI PUSH2 0xCD JUMP JUMPDEST DUP1 PUSH4 0x50C17B10 EQ PUSH2 0x1B5 JUMPI DUP1 PUSH4 0x6E1D616E EQ PUSH2 0x1D1 JUMPI DUP1 PUSH4 0x91D14854 EQ PUSH2 0x1EF JUMPI PUSH2 0xCD JUMP JUMPDEST DUP1 PUSH4 0x1FFC9A7 EQ PUSH2 0xD1 JUMPI DUP1 PUSH4 0x248A9CA3 EQ PUSH2 0x101 JUMPI DUP1 PUSH4 0x2820B656 EQ PUSH2 0x131 JUMPI DUP1 PUSH4 0x2F2FF15D EQ PUSH2 0x161 JUMPI DUP1 PUSH4 0x36568ABE EQ PUSH2 0x17D JUMPI DUP1 PUSH4 0x3E251518 EQ PUSH2 0x199 JUMPI JUMPDEST PUSH0 DUP1 REVERT JUMPDEST PUSH2 0xEB PUSH1 0x4 DUP1 CALLDATASIZE SUB DUP2 ADD SWAP1 PUSH2 0xE6 SWAP2 SWAP1 PUSH2 0x9FA JUMP JUMPDEST PUSH2 0x2A5 JUMP JUMPDEST PUSH1 0x40 MLOAD PUSH2 0xF8 SWAP2 SWAP1 PUSH2 0xA3F JUMP JUMPDEST PUSH1 0x40 MLOAD DUP1 SWAP2 SUB SWAP1 RETURN JUMPDEST PUSH2 0x11B PUSH1 0x4 DUP1 CALLDATASIZE SUB DUP2 ADD SWAP1 PUSH2 0x116 SWAP2 SWAP1 PUSH2 0xA8B JUMP JUMPDEST PUSH2 0x31E JUMP JUMPDEST PUSH1 0x40 MLOAD PUSH2 0x128 SWAP2 SWAP1 PUSH2 0xAC5 JUMP JUMPDEST PUSH1 0x40 MLOAD DUP1 SWAP2 SUB SWAP1 RETURN JUMPDEST PUSH2 0x14B PUSH1 0x4 DUP1 CALLDATASIZE SUB DUP2 ADD SWAP1 PUSH2 0x146 SWAP2 SWAP1 PUSH2 0xC1A JUMP JUMPDEST PUSH2 0x33A JUMP JUMPDEST PUSH1 0x40 MLOAD PUSH2 0x158 SWAP2 SWAP1 PUSH2 0xD7C JUMP JUMPDEST PUSH1 0x40 MLOAD DUP1 SWAP2 SUB SWAP1 RETURN JUMPDEST PUSH2 0x17B PUSH1 0x4 DUP1 CALLDATASIZE SUB DUP2 ADD SWAP1 PUSH2 0x176 SWAP2 SWAP1 PUSH2 0xDF6 JUMP JUMPDEST PUSH2 0x42C JUMP JUMPDEST STOP JUMPDEST PUSH2 0x197 PUSH1 0x4 DUP1 CALLDATASIZE SUB DUP2 ADD SWAP1 PUSH2 0x192 SWAP2 SWAP1 PUSH2 0xDF6 JUMP JUMPDEST PUSH2 0x44E JUMP JUMPDEST STOP JUMPDEST PUSH2 0x1B3 PUSH1 0x4 DUP1 CALLDATASIZE SUB DUP2 ADD SWAP1 PUSH2 0x1AE SWAP2 SWAP1 PUSH2 0xE34 JUMP JUMPDEST PUSH2 0x4C9 JUMP JUMPDEST STOP JUMPDEST PUSH2 0x1CF PUSH1 0x4 DUP1 CALLDATASIZE SUB DUP2 ADD SWAP1 PUSH2 0x1CA SWAP2 SWAP1 PUSH2 0xE34 JUMP JUMPDEST PUSH2 0x503 JUMP JUMPDEST STOP JUMPDEST PUSH2 0x1D9 PUSH2 0x53D JUMP JUMPDEST PUSH1 0x40 MLOAD PUSH2 0x1E6 SWAP2 SWAP1 PUSH2 0xAC5 JUMP JUMPDEST PUSH1 0x40 MLOAD DUP1 SWAP2 SUB SWAP1 RETURN JUMPDEST PUSH2 0x209 PUSH1 0x4 DUP1 CALLDATASIZE SUB DUP2 ADD SWAP1 PUSH2 0x204 SWAP2 SWAP1 PUSH2 0xDF6 JUMP JUMPDEST PUSH2 0x561 JUMP JUMPDEST PUSH1 0x40 MLOAD PUSH2 0x216 SWAP2 SWAP1 PUSH2 0xA3F JUMP JUMPDEST PUSH1 0x40 MLOAD DUP1 SWAP2 SUB SWAP1 RETURN JUMPDEST PUSH2 0x227 PUSH2 0x5C4 JUMP JUMPDEST PUSH1 0x40 MLOAD PUSH2 0x234 SWAP2 SWAP1 PUSH2 0xAC5 JUMP JUMPDEST PUSH1 0x40 MLOAD DUP1 SWAP2 SUB SWAP1 RETURN JUMPDEST PUSH2 0x257 PUSH1 0x4 DUP1 CALLDATASIZE SUB DUP2 ADD SWAP1 PUSH2 0x252 SWAP2 SWAP1 PUSH2 0xE34 JUMP JUMPDEST PUSH2 0x5CA JUMP JUMPDEST PUSH1 0x40 MLOAD PUSH2 0x264 SWAP2 SWAP1 PUSH2 0xA3F JUMP JUMPDEST PUSH1 0x40 MLOAD DUP1 SWAP2 SUB SWAP1 RETURN JUMPDEST PUSH2 0x287 PUSH1 0x4 DUP1 CALLDATASIZE SUB DUP2 ADD SWAP1 PUSH2 0x282 SWAP2 SWAP1 PUSH2 0xDF6 JUMP JUMPDEST PUSH2 0x5FC JUMP JUMPDEST STOP JUMPDEST PUSH2 0x2A3 PUSH1 0x4 DUP1 CALLDATASIZE SUB DUP2 ADD SWAP1 PUSH2 0x29E SWAP2 SWAP1 PUSH2 0xEFD JUMP JUMPDEST PUSH2 0x61E JUMP JUMPDEST STOP JUMPDEST PUSH0 PUSH32 0x7965DB0B00000000000000000000000000000000000000000000000000000000 PUSH28 0xFFFFFFFFFFFFFFFFFFFFFFFFFFFFFFFFFFFFFFFFFFFFFFFFFFFFFFFF NOT AND DUP3 PUSH28 0xFFFFFFFFFFFFFFFFFFFFFFFFFFFFFFFFFFFFFFFFFFFFFFFFFFFFFFFF NOT AND EQ DUP1 PUSH2 0x317 JUMPI POP PUSH2 0x316 DUP3 PUSH2 0x6ED JUMP JUMPDEST JUMPDEST SWAP1 POP SWAP2 SWAP1 POP JUMP JUMPDEST PUSH0 DUP1 PUSH0 DUP4 DUP2 MSTORE PUSH1 0x20 ADD SWAP1 DUP2 MSTORE PUSH1 0x20 ADD PUSH0 KECCAK256 PUSH1 0x1 ADD SLOAD SWAP1 POP SWAP2 SWAP1 POP JUMP JUMPDEST PUSH1 0x60 PUSH1 0x1 DUP3 PUSH1 0x40 MLOAD PUSH2 0x34C SWAP2 SWAP1 PUSH2 0xFB7 JUMP JUMPDEST SWAP1 DUP2 MSTORE PUSH1 0x20 ADD PUSH1 0x40 MLOAD DUP1 SWAP2 SUB SWAP1 KECCAK256 DUP1 SLOAD DUP1 PUSH1 0x20 MUL PUSH1 0x20 ADD PUSH1 0x40 MLOAD SWAP1 DUP2 ADD PUSH1 0x40 MSTORE DUP1 SWAP3 SWAP2 SWAP1 DUP2 DUP2 MSTORE PUSH1 0x20 ADD PUSH0 SWAP1 JUMPDEST DUP3 DUP3 LT ISZERO PUSH2 0x421 JUMPI DUP4 DUP3 SWAP1 PUSH0 MSTORE PUSH1 0x20 PUSH0 KECCAK256 ADD DUP1 SLOAD PUSH2 0x396 SWAP1 PUSH2 0xFFA JUMP JUMPDEST DUP1 PUSH1 0x1F ADD PUSH1 0x20 DUP1 SWAP2 DIV MUL PUSH1 0x20 ADD PUSH1 0x40 MLOAD SWAP1 DUP2 ADD PUSH1 0x40 MSTORE DUP1 SWAP3 SWAP2 SWAP1 DUP2 DUP2 MSTORE PUSH1 0x20 ADD DUP3 DUP1 SLOAD PUSH2 0x3C2 SWAP1 PUSH2 0xFFA JUMP JUMPDEST DUP1 ISZERO PUSH2 0x40D JUMPI DUP1 PUSH1 0x1F LT PUSH2 0x3E4 JUMPI PUSH2 0x100 DUP1 DUP4 SLOAD DIV MUL DUP4 MSTORE SWAP2 PUSH1 0x20 ADD SWAP2 PUSH2 0x40D JUMP JUMPDEST DUP3 ADD SWAP2 SWAP1 PUSH0 MSTORE PUSH1 0x20 PUSH0 KECCAK256 SWAP1 JUMPDEST DUP2 SLOAD DUP2 MSTORE SWAP1 PUSH1 0x1 ADD SWAP1 PUSH1 0x20 ADD DUP1 DUP4 GT PUSH2 0x3F0 JUMPI DUP3 SWAP1 SUB PUSH1 0x1F AND DUP3 ADD SWAP2 JUMPDEST POP POP POP POP POP DUP2 MSTORE PUSH1 0x20 ADD SWAP1 PUSH1 0x1 ADD SWAP1 PUSH2 0x379 JUMP JUMPDEST POP POP POP POP SWAP1 POP SWAP2 SWAP1 POP JUMP JUMPDEST PUSH2 0x435 DUP3 PUSH2 0x31E JUMP JUMPDEST PUSH2 0x43E DUP2 PUSH2 0x756 JUMP JUMPDEST PUSH2 0x448 DUP4 DUP4 PUSH2 0x76A JUMP JUMPDEST POP POP POP POP JUMP JUMPDEST PUSH2 0x456 PUSH2 0x853 JUMP JUMPDEST PUSH20 0xFFFFFFFFFFFFFFFFFFFFFFFFFFFFFFFFFFFFFFFF AND DUP2 PUSH20 0xFFFFFFFFFFFFFFFFFFFFFFFFFFFFFFFFFFFFFFFF AND EQ PUSH2 0x4BA JUMPI PUSH1 0x40 MLOAD PUSH32 0x6697B23200000000000000000000000000000000000000000000000000000000 DUP2 MSTORE PUSH1 0x4 ADD PUSH1 0x40 MLOAD DUP1 SWAP2 SUB SWAP1 REVERT JUMPDEST PUSH2 0x4C4 DUP3 DUP3 PUSH2 0x85A JUMP JUMPDEST POP POP POP JUMP JUMPDEST PUSH0 DUP1 SHL PUSH2 0x4D5 DUP2 PUSH2 0x756 JUMP JUMPDEST PUSH2 0x4FF PUSH32 0x59A1C48E5837AD7A7F3DCEDCBE129BF3249EC4FBF651FD4F5E2600EAD39FE2F5 DUP4 PUSH2 0x5FC JUMP JUMPDEST POP POP JUMP JUMPDEST PUSH0 DUP1 SHL PUSH2 0x50F DUP2 PUSH2 0x756 JUMP JUMPDEST PUSH2 0x539 PUSH32 0x59A1C48E5837AD7A7F3DCEDCBE129BF3249EC4FBF651FD4F5E2600EAD39FE2F5 DUP4 PUSH2 0x42C JUMP JUMPDEST POP POP JUMP JUMPDEST PUSH32 0x59A1C48E5837AD7A7F3DCEDCBE129BF3249EC4FBF651FD4F5E2600EAD39FE2F5 DUP2 JUMP JUMPDEST PUSH0 DUP1 PUSH0 DUP5 DUP2 MSTORE PUSH1 0x20 ADD SWAP1 DUP2 MSTORE PUSH1 0x20 ADD PUSH0 KECCAK256 PUSH0 ADD PUSH0 DUP4 PUSH20 0xFFFFFFFFFFFFFFFFFFFFFFFFFFFFFFFFFFFFFFFF AND PUSH20 0xFFFFFFFFFFFFFFFFFFFFFFFFFFFFFFFFFFFFFFFF AND DUP2 MSTORE PUSH1 0x20 ADD SWAP1 DUP2 MSTORE PUSH1 0x20 ADD PUSH0 KECCAK256 PUSH0 SWAP1 SLOAD SWAP1 PUSH2 0x100 EXP SWAP1 DIV PUSH1 0xFF AND SWAP1 POP SWAP3 SWAP2 POP POP JUMP JUMPDEST PUSH0 DUP1 SHL DUP2 JUMP JUMPDEST PUSH0 PUSH2 0x5F5 PUSH32 0x59A1C48E5837AD7A7F3DCEDCBE129BF3249EC4FBF651FD4F5E2600EAD39FE2F5 DUP4 PUSH2 0x561 JUMP JUMPDEST SWAP1 POP SWAP2 SWAP1 POP JUMP JUMPDEST PUSH2 0x605 DUP3 PUSH2 0x31E JUMP JUMPDEST PUSH2 0x60E DUP2 PUSH2 0x756 JUMP JUMPDEST PUSH2 0x618 DUP4 DUP4 PUSH2 0x85A JUMP JUMPDEST POP POP POP POP JUMP JUMPDEST PUSH32 0x59A1C48E5837AD7A7F3DCEDCBE129BF3249EC4FBF651FD4F5E2600EAD39FE2F5 PUSH2 0x648 DUP2 PUSH2 0x756 JUMP JUMPDEST CALLER PUSH20 0xFFFFFFFFFFFFFFFFFFFFFFFFFFFFFFFFFFFFFFFF AND PUSH32 0xF184132C287F2B516A8EE5FE2EDD23690672CC98CCF6BAA4A231BED12174AF07 DUP5 TIMESTAMP DUP6 PUSH1 0x40 MLOAD PUSH2 0x692 SWAP4 SWAP3 SWAP2 SWAP1 PUSH2 0x10D2 JUMP JUMPDEST PUSH1 0x40 MLOAD DUP1 SWAP2 SUB SWAP1 LOG2 PUSH1 0x1 DUP4 PUSH1 0x40 MLOAD PUSH2 0x6AA SWAP2 SWAP1 PUSH2 0xFB7 JUMP JUMPDEST SWAP1 DUP2 MSTORE PUSH1 0x20 ADD PUSH1 0x40 MLOAD DUP1 SWAP2 SUB SWAP1 KECCAK256 DUP3 SWAP1 DUP1 PUSH1 0x1 DUP2 SLOAD ADD DUP1 DUP3 SSTORE DUP1 SWAP2 POP POP PUSH1 0x1 SWAP1 SUB SWAP1 PUSH0 MSTORE PUSH1 0x20 PUSH0 KECCAK256 ADD PUSH0 SWAP1 SWAP2 SWAP1 SWAP2 SWAP1 SWAP2 POP SWAP1 DUP2 PUSH2 0x6E7 SWAP2 SWAP1 PUSH2 0x12B2 JUMP JUMPDEST POP POP POP POP JUMP JUMPDEST PUSH0 PUSH32 0x1FFC9A700000000000000000000000000000000000000000000000000000000 PUSH28 0xFFFFFFFFFFFFFFFFFFFFFFFFFFFFFFFFFFFFFFFFFFFFFFFFFFFFFFFF NOT AND DUP3 PUSH28 0xFFFFFFFFFFFFFFFFFFFFFFFFFFFFFFFFFFFFFFFFFFFFFFFFFFFFFFFF NOT AND EQ SWAP1 POP SWAP2 SWAP1 POP JUMP JUMPDEST PUSH2 0x767 DUP2 PUSH2 0x762 PUSH2 0x853 JUMP JUMPDEST PUSH2 0x943 JUMP JUMPDEST POP JUMP JUMPDEST PUSH0 PUSH2 0x775 DUP4 DUP4 PUSH2 0x561 JUMP JUMPDEST PUSH2 0x849 JUMPI PUSH1 0x1 PUSH0 DUP1 DUP6 DUP2 MSTORE PUSH1 0x20 ADD SWAP1 DUP2 MSTORE PUSH1 0x20 ADD PUSH0 KECCAK256 PUSH0 ADD PUSH0 DUP5 PUSH20 0xFFFFFFFFFFFFFFFFFFFFFFFFFFFFFFFFFFFFFFFF AND PUSH20 0xFFFFFFFFFFFFFFFFFFFFFFFFFFFFFFFFFFFFFFFF AND DUP2 MSTORE PUSH1 0x20 ADD SWAP1 DUP2 MSTORE PUSH1 0x20 ADD PUSH0 KECCAK256 PUSH0 PUSH2 0x100 EXP DUP2 SLOAD DUP2 PUSH1 0xFF MUL NOT AND SWAP1 DUP4 ISZERO ISZERO MUL OR SWAP1 SSTORE POP PUSH2 0x7E6 PUSH2 0x853 JUMP JUMPDEST PUSH20 0xFFFFFFFFFFFFFFFFFFFFFFFFFFFFFFFFFFFFFFFF AND DUP3 PUSH20 0xFFFFFFFFFFFFFFFFFFFFFFFFFFFFFFFFFFFFFFFF AND DUP5 PUSH32 0x2F8788117E7EFF1D82E926EC794901D17C78024A50270940304540A733656F0D PUSH1 0x40 MLOAD PUSH1 0x40 MLOAD DUP1 SWAP2 SUB SWAP1 LOG4 PUSH1 0x1 SWAP1 POP PUSH2 0x84D JUMP JUMPDEST PUSH0 SWAP1 POP JUMPDEST SWAP3 SWAP2 POP POP JUMP JUMPDEST PUSH0 CALLER SWAP1 POP SWAP1 JUMP JUMPDEST PUSH0 PUSH2 0x865 DUP4 DUP4 PUSH2 0x561 JUMP JUMPDEST ISZERO PUSH2 0x939 JUMPI PUSH0 DUP1 PUSH0 DUP6 DUP2 MSTORE PUSH1 0x20 ADD SWAP1 DUP2 MSTORE PUSH1 0x20 ADD PUSH0 KECCAK256 PUSH0 ADD PUSH0 DUP5 PUSH20 0xFFFFFFFFFFFFFFFFFFFFFFFFFFFFFFFFFFFFFFFF AND PUSH20 0xFFFFFFFFFFFFFFFFFFFFFFFFFFFFFFFFFFFFFFFF AND DUP2 MSTORE PUSH1 0x20 ADD SWAP1 DUP2 MSTORE PUSH1 0x20 ADD PUSH0 KECCAK256 PUSH0 PUSH2 0x100 EXP DUP2 SLOAD DUP2 PUSH1 0xFF MUL NOT AND SWAP1 DUP4 ISZERO ISZERO MUL OR SWAP1 SSTORE POP PUSH2 0x8D6 PUSH2 0x853 JUMP JUMPDEST PUSH20 0xFFFFFFFFFFFFFFFFFFFFFFFFFFFFFFFFFFFFFFFF AND DUP3 PUSH20 0xFFFFFFFFFFFFFFFFFFFFFFFFFFFFFFFFFFFFFFFF AND DUP5 PUSH32 0xF6391F5C32D9C69D2A47EA670B442974B53935D1EDC7FD64EB21E047A839171B PUSH1 0x40 MLOAD PUSH1 0x40 MLOAD DUP1 SWAP2 SUB SWAP1 LOG4 PUSH1 0x1 SWAP1 POP PUSH2 0x93D JUMP JUMPDEST PUSH0 SWAP1 POP JUMPDEST SWAP3 SWAP2 POP POP JUMP JUMPDEST PUSH2 0x94D DUP3 DUP3 PUSH2 0x561 JUMP JUMPDEST PUSH2 0x990 JUMPI DUP1 DUP3 PUSH1 0x40 MLOAD PUSH32 0xE2517D3F00000000000000000000000000000000000000000000000000000000 DUP2 MSTORE PUSH1 0x4 ADD PUSH2 0x987 SWAP3 SWAP2 SWAP1 PUSH2 0x1390 JUMP JUMPDEST PUSH1 0x40 MLOAD DUP1 SWAP2 SUB SWAP1 REVERT JUMPDEST POP POP JUMP JUMPDEST PUSH0 PUSH1 0x40 MLOAD SWAP1 POP SWAP1 JUMP JUMPDEST PUSH0 DUP1 REVERT JUMPDEST PUSH0 DUP1 REVERT JUMPDEST PUSH0 PUSH32 0xFFFFFFFF00000000000000000000000000000000000000000000000000000000 DUP3 AND SWAP1 POP SWAP2 SWAP1 POP JUMP JUMPDEST PUSH2 0x9D9 DUP2 PUSH2 0x9A5 JUMP JUMPDEST DUP2 EQ PUSH2 0x9E3 JUMPI PUSH0 DUP1 REVERT JUMPDEST POP JUMP JUMPDEST PUSH0 DUP2 CALLDATALOAD SWAP1 POP PUSH2 0x9F4 DUP2 PUSH2 0x9D0 JUMP JUMPDEST SWAP3 SWAP2 POP POP JUMP JUMPDEST PUSH0 PUSH1 0x20 DUP3 DUP5 SUB SLT ISZERO PUSH2 0xA0F JUMPI PUSH2 0xA0E PUSH2 0x99D JUMP JUMPDEST JUMPDEST PUSH0 PUSH2 0xA1C DUP5 DUP3 DUP6 ADD PUSH2 0x9E6 JUMP JUMPDEST SWAP2 POP POP SWAP3 SWAP2 POP POP JUMP JUMPDEST PUSH0 DUP2 ISZERO ISZERO SWAP1 POP SWAP2 SWAP1 POP JUMP JUMPDEST PUSH2 0xA39 DUP2 PUSH2 0xA25 JUMP JUMPDEST DUP3 MSTORE POP POP JUMP JUMPDEST PUSH0 PUSH1 0x20 DUP3 ADD SWAP1 POP PUSH2 0xA52 PUSH0 DUP4 ADD DUP5 PUSH2 0xA30 JUMP JUMPDEST SWAP3 SWAP2 POP POP JUMP JUMPDEST PUSH0 DUP2 SWAP1 POP SWAP2 SWAP1 POP JUMP JUMPDEST PUSH2 0xA6A DUP2 PUSH2 0xA58 JUMP JUMPDEST DUP2 EQ PUSH2 0xA74 JUMPI PUSH0 DUP1 REVERT JUMPDEST POP JUMP JUMPDEST PUSH0 DUP2 CALLDATALOAD SWAP1 POP PUSH2 0xA85 DUP2 PUSH2 0xA61 JUMP JUMPDEST SWAP3 SWAP2 POP POP JUMP JUMPDEST PUSH0 PUSH1 0x20 DUP3 DUP5 SUB SLT ISZERO PUSH2 0xAA0 JUMPI PUSH2 0xA9F PUSH2 0x99D JUMP JUMPDEST JUMPDEST PUSH0 PUSH2 0xAAD DUP5 DUP3 DUP6 ADD PUSH2 0xA77 JUMP JUMPDEST SWAP2 POP POP SWAP3 SWAP2 POP POP JUMP JUMPDEST PUSH2 0xABF DUP2 PUSH2 0xA58 JUMP JUMPDEST DUP3 MSTORE POP POP JUMP JUMPDEST PUSH0 PUSH1 0x20 DUP3 ADD SWAP1 POP PUSH2 0xAD8 PUSH0 DUP4 ADD DUP5 PUSH2 0xAB6 JUMP JUMPDEST SWAP3 SWAP2 POP POP JUMP JUMPDEST PUSH0 DUP1 REVERT JUMPDEST PUSH0 DUP1 REVERT JUMPDEST PUSH0 PUSH1 0x1F NOT PUSH1 0x1F DUP4 ADD AND SWAP1 POP SWAP2 SWAP1 POP JUMP JUMPDEST PUSH32 0x4E487B7100000000000000000000000000000000000000000000000000000000 PUSH0 MSTORE PUSH1 0x41 PUSH1 0x4 MSTORE PUSH1 0x24 PUSH0 REVERT JUMPDEST PUSH2 0xB2C DUP3 PUSH2 0xAE6 JUMP JUMPDEST DUP2 ADD DUP2 DUP2 LT PUSH8 0xFFFFFFFFFFFFFFFF DUP3 GT OR ISZERO PUSH2 0xB4B JUMPI PUSH2 0xB4A PUSH2 0xAF6 JUMP JUMPDEST JUMPDEST DUP1 PUSH1 0x40 MSTORE POP POP POP JUMP JUMPDEST PUSH0 PUSH2 0xB5D PUSH2 0x994 JUMP JUMPDEST SWAP1 POP PUSH2 0xB69 DUP3 DUP3 PUSH2 0xB23 JUMP JUMPDEST SWAP2 SWAP1 POP JUMP JUMPDEST PUSH0 PUSH8 0xFFFFFFFFFFFFFFFF DUP3 GT ISZERO PUSH2 0xB88 JUMPI PUSH2 0xB87 PUSH2 0xAF6 JUMP JUMPDEST JUMPDEST PUSH2 0xB91 DUP3 PUSH2 0xAE6 JUMP JUMPDEST SWAP1 POP PUSH1 0x20 DUP2 ADD SWAP1 POP SWAP2 SWAP1 POP JUMP JUMPDEST DUP3 DUP2 DUP4 CALLDATACOPY PUSH0 DUP4 DUP4 ADD MSTORE POP POP POP JUMP JUMPDEST PUSH0 PUSH2 0xBBE PUSH2 0xBB9 DUP5 PUSH2 0xB6E JUMP JUMPDEST PUSH2 0xB54 JUMP JUMPDEST SWAP1 POP DUP3 DUP2 MSTORE PUSH1 0x20 DUP2 ADD DUP5 DUP5 DUP5 ADD GT ISZERO PUSH2 0xBDA JUMPI PUSH2 0xBD9 PUSH2 0xAE2 JUMP JUMPDEST JUMPDEST PUSH2 0xBE5 DUP5 DUP3 DUP6 PUSH2 0xB9E JUMP JUMPDEST POP SWAP4 SWAP3 POP POP POP JUMP JUMPDEST PUSH0 DUP3 PUSH1 0x1F DUP4 ADD SLT PUSH2 0xC01 JUMPI PUSH2 0xC00 PUSH2 0xADE JUMP JUMPDEST JUMPDEST DUP2 CALLDATALOAD PUSH2 0xC11 DUP5 DUP3 PUSH1 0x20 DUP7 ADD PUSH2 0xBAC JUMP JUMPDEST SWAP2 POP POP SWAP3 SWAP2 POP POP JUMP JUMPDEST PUSH0 PUSH1 0x20 DUP3 DUP5 SUB SLT ISZERO PUSH2 0xC2F JUMPI PUSH2 0xC2E PUSH2 0x99D JUMP JUMPDEST JUMPDEST PUSH0 DUP3 ADD CALLDATALOAD PUSH8 0xFFFFFFFFFFFFFFFF DUP2 GT ISZERO PUSH2 0xC4C JUMPI PUSH2 0xC4B PUSH2 0x9A1 JUMP JUMPDEST JUMPDEST PUSH2 0xC58 DUP5 DUP3 DUP6 ADD PUSH2 0xBED JUMP JUMPDEST SWAP2 POP POP SWAP3 SWAP2 POP POP JUMP JUMPDEST PUSH0 DUP2 MLOAD SWAP1 POP SWAP2 SWAP1 POP JUMP JUMPDEST PUSH0 DUP3 DUP3 MSTORE PUSH1 0x20 DUP3 ADD SWAP1 POP SWAP3 SWAP2 POP POP JUMP JUMPDEST PUSH0 DUP2 SWAP1 POP PUSH1 0x20 DUP3 ADD SWAP1 POP SWAP2 SWAP1 POP JUMP JUMPDEST PUSH0 DUP2 MLOAD SWAP1 POP SWAP2 SWAP1 POP JUMP JUMPDEST PUSH0 DUP3 DUP3 MSTORE PUSH1 0x20 DUP3 ADD SWAP1 POP SWAP3 SWAP2 POP POP JUMP JUMPDEST DUP3 DUP2 DUP4 MCOPY PUSH0 DUP4 DUP4 ADD MSTORE POP POP POP JUMP JUMPDEST PUSH0 PUSH2 0xCBC DUP3 PUSH2 0xC8A JUMP JUMPDEST PUSH2 0xCC6 DUP2 DUP6 PUSH2 0xC94 JUMP JUMPDEST SWAP4 POP PUSH2 0xCD6 DUP2 DUP6 PUSH1 0x20 DUP7 ADD PUSH2 0xCA4 JUMP JUMPDEST PUSH2 0xCDF DUP2 PUSH2 0xAE6 JUMP JUMPDEST DUP5 ADD SWAP2 POP POP SWAP3 SWAP2 POP POP JUMP JUMPDEST PUSH0 PUSH2 0xCF5 DUP4 DUP4 PUSH2 0xCB2 JUMP JUMPDEST SWAP1 POP SWAP3 SWAP2 POP POP JUMP JUMPDEST PUSH0 PUSH1 0x20 DUP3 ADD SWAP1 POP SWAP2 SWAP1 POP JUMP JUMPDEST PUSH0 PUSH2 0xD13 DUP3 PUSH2 0xC61 JUMP JUMPDEST PUSH2 0xD1D DUP2 DUP6 PUSH2 0xC6B JUMP JUMPDEST SWAP4 POP DUP4 PUSH1 0x20 DUP3 MUL DUP6 ADD PUSH2 0xD2F DUP6 PUSH2 0xC7B JUMP JUMPDEST DUP1 PUSH0 JUMPDEST DUP6 DUP2 LT ISZERO PUSH2 0xD6A JUMPI DUP5 DUP5 SUB DUP10 MSTORE DUP2 MLOAD PUSH2 0xD4B DUP6 DUP3 PUSH2 0xCEA JUMP JUMPDEST SWAP5 POP PUSH2 0xD56 DUP4 PUSH2 0xCFD JUMP JUMPDEST SWAP3 POP PUSH1 0x20 DUP11 ADD SWAP10 POP POP PUSH1 0x1 DUP2 ADD SWAP1 POP PUSH2 0xD32 JUMP JUMPDEST POP DUP3 SWAP8 POP DUP8 SWAP6 POP POP POP POP POP POP SWAP3 SWAP2 POP POP JUMP JUMPDEST PUSH0 PUSH1 0x20 DUP3 ADD SWAP1 POP DUP2 DUP2 SUB PUSH0 DUP4 ADD MSTORE PUSH2 0xD94 DUP2 DUP5 PUSH2 0xD09 JUMP JUMPDEST SWAP1 POP SWAP3 SWAP2 POP POP JUMP JUMPDEST PUSH0 PUSH20 0xFFFFFFFFFFFFFFFFFFFFFFFFFFFFFFFFFFFFFFFF DUP3 AND SWAP1 POP SWAP2 SWAP1 POP JUMP JUMPDEST PUSH0 PUSH2 0xDC5 DUP3 PUSH2 0xD9C JUMP JUMPDEST SWAP1 POP SWAP2 SWAP1 POP JUMP JUMPDEST PUSH2 0xDD5 DUP2 PUSH2 0xDBB JUMP JUMPDEST DUP2 EQ PUSH2 0xDDF JUMPI PUSH0 DUP1 REVERT JUMPDEST POP JUMP JUMPDEST PUSH0 DUP2 CALLDATALOAD SWAP1 POP PUSH2 0xDF0 DUP2 PUSH2 0xDCC JUMP JUMPDEST SWAP3 SWAP2 POP POP JUMP JUMPDEST PUSH0 DUP1 PUSH1 0x40 DUP4 DUP6 SUB SLT ISZERO PUSH2 0xE0C JUMPI PUSH2 0xE0B PUSH2 0x99D JUMP JUMPDEST JUMPDEST PUSH0 PUSH2 0xE19 DUP6 DUP3 DUP7 ADD PUSH2 0xA77 JUMP JUMPDEST SWAP3 POP POP PUSH1 0x20 PUSH2 0xE2A DUP6 DUP3 DUP7 ADD PUSH2 0xDE2 JUMP JUMPDEST SWAP2 POP POP SWAP3 POP SWAP3 SWAP1 POP JUMP JUMPDEST PUSH0 PUSH1 0x20 DUP3 DUP5 SUB SLT ISZERO PUSH2 0xE49 JUMPI PUSH2 0xE48 PUSH2 0x99D JUMP JUMPDEST JUMPDEST PUSH0 PUSH2 0xE56 DUP5 DUP3 DUP6 ADD PUSH2 0xDE2 JUMP JUMPDEST SWAP2 POP POP SWAP3 SWAP2 POP POP JUMP JUMPDEST PUSH0 PUSH8 0xFFFFFFFFFFFFFFFF DUP3 GT ISZERO PUSH2 0xE79 JUMPI PUSH2 0xE78 PUSH2 0xAF6 JUMP JUMPDEST JUMPDEST PUSH2 0xE82 DUP3 PUSH2 0xAE6 JUMP JUMPDEST SWAP1 POP PUSH1 0x20 DUP2 ADD SWAP1 POP SWAP2 SWAP1 POP JUMP JUMPDEST PUSH0 PUSH2 0xEA1 PUSH2 0xE9C DUP5 PUSH2 0xE5F JUMP JUMPDEST PUSH2 0xB54 JUMP JUMPDEST SWAP1 POP DUP3 DUP2 MSTORE PUSH1 0x20 DUP2 ADD DUP5 DUP5 DUP5 ADD GT ISZERO PUSH2 0xEBD JUMPI PUSH2 0xEBC PUSH2 0xAE2 JUMP JUMPDEST JUMPDEST PUSH2 0xEC8 DUP5 DUP3 DUP6 PUSH2 0xB9E JUMP JUMPDEST POP SWAP4 SWAP3 POP POP POP JUMP JUMPDEST PUSH0 DUP3 PUSH1 0x1F DUP4 ADD SLT PUSH2 0xEE4 JUMPI PUSH2 0xEE3 PUSH2 0xADE JUMP JUMPDEST JUMPDEST DUP2 CALLDATALOAD PUSH2 0xEF4 DUP5 DUP3 PUSH1 0x20 DUP7 ADD PUSH2 0xE8F JUMP JUMPDEST SWAP2 POP POP SWAP3 SWAP2 POP POP JUMP JUMPDEST PUSH0 DUP1 PUSH1 0x40 DUP4 DUP6 SUB SLT ISZERO PUSH2 0xF13 JUMPI PUSH2 0xF12 PUSH2 0x99D JUMP JUMPDEST JUMPDEST PUSH0 DUP4 ADD CALLDATALOAD PUSH8 0xFFFFFFFFFFFFFFFF DUP2 GT ISZERO PUSH2 0xF30 JUMPI PUSH2 0xF2F PUSH2 0x9A1 JUMP JUMPDEST JUMPDEST PUSH2 0xF3C DUP6 DUP3 DUP7 ADD PUSH2 0xBED JUMP JUMPDEST SWAP3 POP POP PUSH1 0x20 DUP4 ADD CALLDATALOAD PUSH8 0xFFFFFFFFFFFFFFFF DUP2 GT ISZERO PUSH2 0xF5D JUMPI PUSH2 0xF5C PUSH2 0x9A1 JUMP JUMPDEST JUMPDEST PUSH2 0xF69 DUP6 DUP3 DUP7 ADD PUSH2 0xED0 JUMP JUMPDEST SWAP2 POP POP SWAP3 POP SWAP3 SWAP1 POP JUMP JUMPDEST PUSH0 DUP2 MLOAD SWAP1 POP SWAP2 SWAP1 POP JUMP JUMPDEST PUSH0 DUP2 SWAP1 POP SWAP3 SWAP2 POP POP JUMP JUMPDEST PUSH0 PUSH2 0xF91 DUP3 PUSH2 0xF73 JUMP JUMPDEST PUSH2 0xF9B DUP2 DUP6 PUSH2 0xF7D JUMP JUMPDEST SWAP4 POP PUSH2 0xFAB DUP2 DUP6 PUSH1 0x20 DUP7 ADD PUSH2 0xCA4 JUMP JUMPDEST DUP1 DUP5 ADD SWAP2 POP POP SWAP3 SWAP2 POP POP JUMP JUMPDEST PUSH0 PUSH2 0xFC2 DUP3 DUP5 PUSH2 0xF87 JUMP JUMPDEST SWAP2 POP DUP2 SWAP1 POP SWAP3 SWAP2 POP POP JUMP JUMPDEST PUSH32 0x4E487B7100000000000000000000000000000000000000000000000000000000 PUSH0 MSTORE PUSH1 0x22 PUSH1 0x4 MSTORE PUSH1 0x24 PUSH0 REVERT JUMPDEST PUSH0 PUSH1 0x2 DUP3 DIV SWAP1 POP PUSH1 0x1 DUP3 AND DUP1 PUSH2 0x1011 JUMPI PUSH1 0x7F DUP3 AND SWAP2 POP JUMPDEST PUSH1 0x20 DUP3 LT DUP2 SUB PUSH2 0x1024 JUMPI PUSH2 0x1023 PUSH2 0xFCD JUMP JUMPDEST JUMPDEST POP SWAP2 SWAP1 POP JUMP JUMPDEST PUSH0 DUP3 DUP3 MSTORE PUSH1 0x20 DUP3 ADD SWAP1 POP SWAP3 SWAP2 POP POP JUMP JUMPDEST PUSH0 PUSH2 0x1044 DUP3 PUSH2 0xF73 JUMP JUMPDEST PUSH2 0x104E DUP2 DUP6 PUSH2 0x102A JUMP JUMPDEST SWAP4 POP PUSH2 0x105E DUP2 DUP6 PUSH1 0x20 DUP7 ADD PUSH2 0xCA4 JUMP JUMPDEST PUSH2 0x1067 DUP2 PUSH2 0xAE6 JUMP JUMPDEST DUP5 ADD SWAP2 POP POP SWAP3 SWAP2 POP POP JUMP JUMPDEST PUSH0 DUP2 SWAP1 POP SWAP2 SWAP1 POP JUMP JUMPDEST PUSH2 0x1084 DUP2 PUSH2 0x1072 JUMP JUMPDEST DUP3 MSTORE POP POP JUMP JUMPDEST PUSH0 DUP3 DUP3 MSTORE PUSH1 0x20 DUP3 ADD SWAP1 POP SWAP3 SWAP2 POP POP JUMP JUMPDEST PUSH0 PUSH2 0x10A4 DUP3 PUSH2 0xC8A JUMP JUMPDEST PUSH2 0x10AE DUP2 DUP6 PUSH2 0x108A JUMP JUMPDEST SWAP4 POP PUSH2 0x10BE DUP2 DUP6 PUSH1 0x20 DUP7 ADD PUSH2 0xCA4 JUMP JUMPDEST PUSH2 0x10C7 DUP2 PUSH2 0xAE6 JUMP JUMPDEST DUP5 ADD SWAP2 POP POP SWAP3 SWAP2 POP POP JUMP JUMPDEST PUSH0 PUSH1 0x60 DUP3 ADD SWAP1 POP DUP2 DUP2 SUB PUSH0 DUP4 ADD MSTORE PUSH2 0x10EA DUP2 DUP7 PUSH2 0x103A JUMP JUMPDEST SWAP1 POP PUSH2 0x10F9 PUSH1 0x20 DUP4 ADD DUP6 PUSH2 0x107B JUMP JUMPDEST DUP2 DUP2 SUB PUSH1 0x40 DUP4 ADD MSTORE PUSH2 0x110B DUP2 DUP5 PUSH2 0x109A JUMP JUMPDEST SWAP1 POP SWAP5 SWAP4 POP POP POP POP JUMP JUMPDEST PUSH0 DUP2 SWAP1 POP DUP2 PUSH0 MSTORE PUSH1 0x20 PUSH0 KECCAK256 SWAP1 POP SWAP2 SWAP1 POP JUMP JUMPDEST PUSH0 PUSH1 0x20 PUSH1 0x1F DUP4 ADD DIV SWAP1 POP SWAP2 SWAP1 POP JUMP JUMPDEST PUSH0 DUP3 DUP3 SHL SWAP1 POP SWAP3 SWAP2 POP POP JUMP JUMPDEST PUSH0 PUSH1 0x8 DUP4 MUL PUSH2 0x1171 PUSH32 0xFFFFFFFFFFFFFFFFFFFFFFFFFFFFFFFFFFFFFFFFFFFFFFFFFFFFFFFFFFFFFFFF DUP3 PUSH2 0x1136 JUMP JUMPDEST PUSH2 0x117B DUP7 DUP4 PUSH2 0x1136 JUMP JUMPDEST SWAP6 POP DUP1 NOT DUP5 AND SWAP4 POP DUP1 DUP7 AND DUP5 OR SWAP3 POP POP POP SWAP4 SWAP3 POP POP POP JUMP JUMPDEST PUSH0 DUP2 SWAP1 POP SWAP2 SWAP1 POP JUMP JUMPDEST PUSH0 PUSH2 0x11B6 PUSH2 0x11B1 PUSH2 0x11AC DUP5 PUSH2 0x1072 JUMP JUMPDEST PUSH2 0x1193 JUMP JUMPDEST PUSH2 0x1072 JUMP JUMPDEST SWAP1 POP SWAP2 SWAP1 POP JUMP JUMPDEST PUSH0 DUP2 SWAP1 POP SWAP2 SWAP1 POP JUMP JUMPDEST PUSH2 0x11CF DUP4 PUSH2 0x119C JUMP JUMPDEST PUSH2 0x11E3 PUSH2 0x11DB DUP3 PUSH2 0x11BD JUMP JUMPDEST DUP5 DUP5 SLOAD PUSH2 0x1142 JUMP JUMPDEST DUP3 SSTORE POP POP POP POP JUMP JUMPDEST PUSH0 SWAP1 JUMP JUMPDEST PUSH2 0x11F7 PUSH2 0x11EB JUMP JUMPDEST PUSH2 0x1202 DUP2 DUP5 DUP5 PUSH2 0x11C6 JUMP JUMPDEST POP POP POP JUMP JUMPDEST JUMPDEST DUP2 DUP2 LT ISZERO PUSH2 0x1225 JUMPI PUSH2 0x121A PUSH0 DUP3 PUSH2 0x11EF JUMP JUMPDEST PUSH1 0x1 DUP2 ADD SWAP1 POP PUSH2 0x1208 JUMP JUMPDEST POP POP JUMP JUMPDEST PUSH1 0x1F DUP3 GT ISZERO PUSH2 0x126A JUMPI PUSH2 0x123B DUP2 PUSH2 0x1115 JUMP JUMPDEST PUSH2 0x1244 DUP5 PUSH2 0x1127 JUMP JUMPDEST DUP2 ADD PUSH1 0x20 DUP6 LT ISZERO PUSH2 0x1253 JUMPI DUP2 SWAP1 POP JUMPDEST PUSH2 0x1267 PUSH2 0x125F DUP6 PUSH2 0x1127 JUMP JUMPDEST DUP4 ADD DUP3 PUSH2 0x1207 JUMP JUMPDEST POP POP JUMPDEST POP POP POP JUMP JUMPDEST PUSH0 DUP3 DUP3 SHR SWAP1 POP SWAP3 SWAP2 POP POP JUMP JUMPDEST PUSH0 PUSH2 0x128A PUSH0 NOT DUP5 PUSH1 0x8 MUL PUSH2 0x126F JUMP JUMPDEST NOT DUP1 DUP4 AND SWAP2 POP POP SWAP3 SWAP2 POP POP JUMP JUMPDEST PUSH0 PUSH2 0x12A2 DUP4 DUP4 PUSH2 0x127B JUMP JUMPDEST SWAP2 POP DUP3 PUSH1 0x2 MUL DUP3 OR SWAP1 POP SWAP3 SWAP2 POP POP JUMP JUMPDEST PUSH2 0x12BB DUP3 PUSH2 0xC8A JUMP JUMPDEST PUSH8 0xFFFFFFFFFFFFFFFF DUP2 GT ISZERO PUSH2 0x12D4 JUMPI PUSH2 0x12D3 PUSH2 0xAF6 JUMP JUMPDEST JUMPDEST PUSH2 0x12DE DUP3 SLOAD PUSH2 0xFFA JUMP JUMPDEST PUSH2 0x12E9 DUP3 DUP3 DUP6 PUSH2 0x1229 JUMP JUMPDEST PUSH0 PUSH1 0x20 SWAP1 POP PUSH1 0x1F DUP4 GT PUSH1 0x1 DUP2 EQ PUSH2 0x131A JUMPI PUSH0 DUP5 ISZERO PUSH2 0x1308 JUMPI DUP3 DUP8 ADD MLOAD SWAP1 POP JUMPDEST PUSH2 0x1312 DUP6 DUP3 PUSH2 0x1297 JUMP JUMPDEST DUP7 SSTORE POP PUSH2 0x1379 JUMP JUMPDEST PUSH1 0x1F NOT DUP5 AND PUSH2 0x1328 DUP7 PUSH2 0x1115 JUMP JUMPDEST PUSH0 JUMPDEST DUP3 DUP2 LT ISZERO PUSH2 0x134F JUMPI DUP5 DUP10 ADD MLOAD DUP3 SSTORE PUSH1 0x1 DUP3 ADD SWAP2 POP PUSH1 0x20 DUP6 ADD SWAP5 POP PUSH1 0x20 DUP2 ADD SWAP1 POP PUSH2 0x132A JUMP JUMPDEST DUP7 DUP4 LT ISZERO PUSH2 0x136C JUMPI DUP5 DUP10 ADD MLOAD PUSH2 0x1368 PUSH1 0x1F DUP10 AND DUP3 PUSH2 0x127B JUMP JUMPDEST DUP4 SSTORE POP JUMPDEST PUSH1 0x1 PUSH1 0x2 DUP9 MUL ADD DUP9 SSTORE POP POP POP JUMPDEST POP POP POP POP POP POP JUMP JUMPDEST PUSH2 0x138A DUP2 PUSH2 0xDBB JUMP JUMPDEST DUP3 MSTORE POP POP JUMP JUMPDEST PUSH0 PUSH1 0x40 DUP3 ADD SWAP1 POP PUSH2 0x13A3 PUSH0 DUP4 ADD DUP6 PUSH2 0x1381 JUMP JUMPDEST PUSH2 0x13B0 PUSH1 0x20 DUP4 ADD DUP5 PUSH2 0xAB6 JUMP JUMPDEST SWAP4 SWAP3 POP POP POP JUMP INVALID LOG2 PUSH5 0x6970667358 0x22 SLT KECCAK256 JUMPDEST CALLVALUE COINBASE 0xA7 SWAP12 CALLDATASIZE POP 0xD4 0xA5 CALL 0xC2 0xDC SWAP12 PUSH20 0xA67E5F2094C34FB35EBEFFC123940B8143666473 PUSH16 0x6C634300081A00330000000000000000 "
				},
				"gasEstimates": {
					"creation": {
						"codeDepositCost": "1020200",
						"executionCost": "infinite",
						"totalCost": "infinite"
					},
					"external": {
						"AUDITOR_ROLE()": "370",
						"DEFAULT_ADMIN_ROLE()": "352",
						"getActionLogs(string)": "infinite",
						"getRoleAdmin(bytes32)": "infinite",
						"grantAuditorRole(address)": "infinite",
						"grantRole(bytes32,address)": "infinite",
						"hasAuditorRole(address)": "3042",
						"hasRole(bytes32,address)": "3189",
						"logSecurityEvent(string,bytes)": "infinite",
						"renounceRole(bytes32,address)": "infinite",
						"revokeAuditorRole(address)": "infinite",
						"revokeRole(bytes32,address)": "infinite",
						"supportsInterface(bytes4)": "718"
					}
				},
				"methodIdentifiers": {
					"AUDITOR_ROLE()": "6e1d616e",
					"DEFAULT_ADMIN_ROLE()": "a217fddf",
					"getActionLogs(string)": "2820b656",
					"getRoleAdmin(bytes32)": "248a9ca3",
					"grantAuditorRole(address)": "50c17b10",
					"grantRole(bytes32,address)": "2f2ff15d",
					"hasAuditorRole(address)": "abaa536f",
					"hasRole(bytes32,address)": "91d14854",
					"logSecurityEvent(string,bytes)": "eddd2b4d",
					"renounceRole(bytes32,address)": "36568abe",
					"revokeAuditorRole(address)": "3e251518",
					"revokeRole(bytes32,address)": "d547741f",
					"supportsInterface(bytes4)": "01ffc9a7"
				}
			},
			"storageLayout": {
				"storage": [
					{
						"astId": 26,
						"contract": "contracts/security/audit/AuditLogger.sol:AuditLogger",
						"label": "_roles",
						"offset": 0,
						"slot": "0",
						"type": "t_mapping(t_bytes32,t_struct(RoleData)21_storage)"
					},
					{
						"astId": 1089,
						"contract": "contracts/security/audit/AuditLogger.sol:AuditLogger",
						"label": "actionLogs",
						"offset": 0,
						"slot": "1",
						"type": "t_mapping(t_string_memory_ptr,t_array(t_bytes_storage)dyn_storage)"
					}
				],
				"types": {
					"t_address": {
						"encoding": "inplace",
						"label": "address",
						"numberOfBytes": "20"
					},
					"t_array(t_bytes_storage)dyn_storage": {
						"base": "t_bytes_storage",
						"encoding": "dynamic_array",
						"label": "bytes[]",
						"numberOfBytes": "32"
					},
					"t_bool": {
						"encoding": "inplace",
						"label": "bool",
						"numberOfBytes": "1"
					},
					"t_bytes32": {
						"encoding": "inplace",
						"label": "bytes32",
						"numberOfBytes": "32"
					},
					"t_bytes_storage": {
						"encoding": "bytes",
						"label": "bytes",
						"numberOfBytes": "32"
					},
					"t_mapping(t_address,t_bool)": {
						"encoding": "mapping",
						"key": "t_address",
						"label": "mapping(address => bool)",
						"numberOfBytes": "32",
						"value": "t_bool"
					},
					"t_mapping(t_bytes32,t_struct(RoleData)21_storage)": {
						"encoding": "mapping",
						"key": "t_bytes32",
						"label": "mapping(bytes32 => struct AccessControl.RoleData)",
						"numberOfBytes": "32",
						"value": "t_struct(RoleData)21_storage"
					},
					"t_mapping(t_string_memory_ptr,t_array(t_bytes_storage)dyn_storage)": {
						"encoding": "mapping",
						"key": "t_string_memory_ptr",
						"label": "mapping(string => bytes[])",
						"numberOfBytes": "32",
						"value": "t_array(t_bytes_storage)dyn_storage"
					},
					"t_string_memory_ptr": {
						"encoding": "bytes",
						"label": "string",
						"numberOfBytes": "32"
					},
					"t_struct(RoleData)21_storage": {
						"encoding": "inplace",
						"label": "struct AccessControl.RoleData",
						"members": [
							{
								"astId": 18,
								"contract": "contracts/security/audit/AuditLogger.sol:AuditLogger",
								"label": "hasRole",
								"offset": 0,
								"slot": "0",
								"type": "t_mapping(t_address,t_bool)"
							},
							{
								"astId": 20,
								"contract": "contracts/security/audit/AuditLogger.sol:AuditLogger",
								"label": "adminRole",
								"offset": 0,
								"slot": "1",
								"type": "t_bytes32"
							}
						],
						"numberOfBytes": "64"
					}
				}
			},
			"userdoc": {
				"kind": "user",
				"methods": {},
				"version": 1
			}
		}
	}
}